{
  "abi": [
    {
      "inputs": [],
      "stateMutability": "nonpayable",
      "type": "constructor"
    },
    {
      "anonymous": false,
      "inputs": [
        {
          "indexed": false,
          "internalType": "string",
          "name": "logerror",
          "type": "string"
        }
      ],
      "name": "check",
      "type": "event"
    },
    {
      "anonymous": false,
      "inputs": [
        {
          "indexed": false,
          "internalType": "bytes32",
          "name": "_tokenreturn",
          "type": "bytes32"
        }
      ],
      "name": "ref_token",
      "type": "event"
    },
    {
      "inputs": [
        {
          "internalType": "address payable",
          "name": "_brokeraddress",
          "type": "address"
        }
      ],
      "name": "addBroker",
      "outputs": [],
      "stateMutability": "nonpayable",
      "type": "function"
    },
    {
      "inputs": [
        {
          "internalType": "string",
          "name": "_username",
          "type": "string"
        },
        {
          "internalType": "string",
          "name": "_password",
          "type": "string"
        }
      ],
      "name": "addClient",
      "outputs": [],
      "stateMutability": "nonpayable",
      "type": "function"
    },
    {
      "inputs": [
        {
          "internalType": "uint256",
          "name": "_id",
          "type": "uint256"
        },
        {
          "internalType": "string",
          "name": "_topic",
          "type": "string"
        }
      ],
      "name": "addTopic",
      "outputs": [],
      "stateMutability": "nonpayable",
      "type": "function"
    },
    {
      "inputs": [
        {
          "internalType": "bytes32",
          "name": "_token",
          "type": "bytes32"
        },
        {
          "internalType": "uint256",
          "name": "_id",
          "type": "uint256"
        },
        {
          "internalType": "string",
          "name": "_username",
          "type": "string"
        },
        {
          "internalType": "string",
          "name": "_password",
          "type": "string"
        }
      ],
      "name": "authenticate",
      "outputs": [
        {
          "internalType": "bool",
          "name": "",
          "type": "bool"
        }
      ],
      "stateMutability": "view",
      "type": "function"
    },
    {
      "inputs": [
        {
          "internalType": "bytes32",
          "name": "_token",
          "type": "bytes32"
        },
        {
          "internalType": "uint256",
          "name": "_id",
          "type": "uint256"
        },
        {
          "internalType": "string",
          "name": "_topic",
          "type": "string"
        }
      ],
      "name": "authorize",
      "outputs": [
        {
          "internalType": "bool",
          "name": "",
          "type": "bool"
        }
      ],
      "stateMutability": "view",
      "type": "function"
    },
    {
      "inputs": [
        {
          "internalType": "address payable",
          "name": "_brokeraddress",
          "type": "address"
        }
      ],
      "name": "deleteBroker",
      "outputs": [],
      "stateMutability": "nonpayable",
      "type": "function"
    },
    {
      "inputs": [
        {
          "internalType": "uint256",
          "name": "_id",
          "type": "uint256"
        }
      ],
      "name": "deleteClient",
      "outputs": [],
      "stateMutability": "nonpayable",
      "type": "function"
    },
    {
      "inputs": [
        {
          "internalType": "uint256",
          "name": "_id",
          "type": "uint256"
        },
        {
          "internalType": "string",
          "name": "_topic",
          "type": "string"
        }
      ],
      "name": "deleteTopic",
      "outputs": [],
      "stateMutability": "nonpayable",
      "type": "function"
    },
    {
      "inputs": [],
      "name": "getBroker",
      "outputs": [
        {
          "internalType": "address[]",
          "name": "",
          "type": "address[]"
        }
      ],
      "stateMutability": "view",
      "type": "function"
    },
    {
      "inputs": [
        {
          "internalType": "address",
          "name": "_address",
          "type": "address"
        }
      ],
      "name": "getBrokerToken",
      "outputs": [
        {
          "internalType": "bytes32",
          "name": "",
          "type": "bytes32"
        }
      ],
      "stateMutability": "view",
      "type": "function"
    },
    {
      "inputs": [],
      "name": "getBrokersCount",
      "outputs": [
        {
          "internalType": "uint256",
          "name": "",
          "type": "uint256"
        }
      ],
      "stateMutability": "view",
      "type": "function"
    },
    {
      "inputs": [],
      "name": "getClients",
      "outputs": [
        {
          "internalType": "uint256[]",
          "name": "",
          "type": "uint256[]"
        },
        {
          "internalType": "string[]",
          "name": "",
          "type": "string[]"
        },
        {
          "internalType": "string[]",
          "name": "",
          "type": "string[]"
        }
      ],
      "stateMutability": "view",
      "type": "function"
    },
    {
      "inputs": [],
      "name": "getClientsCount",
      "outputs": [
        {
          "internalType": "uint256",
          "name": "",
          "type": "uint256"
        }
      ],
      "stateMutability": "view",
      "type": "function"
    },
    {
      "inputs": [],
      "name": "getLog",
      "outputs": [
        {
          "internalType": "uint256[]",
          "name": "",
          "type": "uint256[]"
        },
        {
          "internalType": "string[]",
          "name": "",
          "type": "string[]"
        },
        {
          "internalType": "string[]",
          "name": "",
          "type": "string[]"
        },
        {
          "internalType": "address[]",
          "name": "",
          "type": "address[]"
        }
      ],
      "stateMutability": "view",
      "type": "function"
    },
    {
      "inputs": [
        {
          "internalType": "uint256",
          "name": "_id",
          "type": "uint256"
        }
      ],
      "name": "getTopic",
      "outputs": [
        {
          "internalType": "string[]",
          "name": "",
          "type": "string[]"
        }
      ],
      "stateMutability": "view",
      "type": "function"
    },
    {
      "inputs": [],
      "name": "manager",
      "outputs": [
        {
          "internalType": "address payable",
          "name": "",
          "type": "address"
        }
      ],
      "stateMutability": "view",
      "type": "function"
    },
    {
      "inputs": [],
      "name": "refreshToken",
      "outputs": [],
      "stateMutability": "nonpayable",
      "type": "function"
    },
    {
      "inputs": [
        {
          "internalType": "uint256",
          "name": "_id",
          "type": "uint256"
        },
        {
          "internalType": "string",
          "name": "_topic",
          "type": "string"
        },
        {
          "internalType": "string",
          "name": "_newtopic",
          "type": "string"
        }
      ],
      "name": "updateTopic",
      "outputs": [],
      "stateMutability": "nonpayable",
      "type": "function"
    }
  ],
  "devdoc": {
    "kind": "dev",
    "methods": {},
    "version": 1
  },
  "evm": {
    "assembly": "    /* \"Mqttbaru.sol\":97:10930  contract Mqttbaru {\r... */\n  mstore(0x40, 0x80)\n    /* \"Mqttbaru.sol\":873:1031  constructor () public {\r... */\n  callvalue\n  dup1\n  iszero\n  tag_1\n  jumpi\n  0x00\n  dup1\n  revert\ntag_1:\n  pop\n    /* \"Mqttbaru.sol\":916:926  msg.sender */\n  caller\n    /* \"Mqttbaru.sol\":906:913  manager */\n  0x00\n  dup1\n    /* \"Mqttbaru.sol\":906:926  manager = msg.sender */\n  0x0100\n  exp\n  dup2\n  sload\n  dup2\n  0xffffffffffffffffffffffffffffffffffffffff\n  mul\n  not\n  and\n  swap1\n  dup4\n  0xffffffffffffffffffffffffffffffffffffffff\n  and\n  mul\n  or\n  swap1\n  sstore\n  pop\n    /* \"Mqttbaru.sol\":951:952  0 */\n  0x00\n    /* \"Mqttbaru.sol\":937:948  clientCount */\n  0x06\n    /* \"Mqttbaru.sol\":937:952  clientCount = 0 */\n  dup2\n  swap1\n  sstore\n  pop\n    /* \"Mqttbaru.sol\":977:978  0 */\n  0x00\n    /* \"Mqttbaru.sol\":963:974  brokerCount */\n  0x07\n    /* \"Mqttbaru.sol\":963:978  brokerCount = 0 */\n  dup2\n  swap1\n  sstore\n  pop\n    /* \"Mqttbaru.sol\":999:1000  0 */\n  0x00\n    /* \"Mqttbaru.sol\":989:996  idCount */\n  0x08\n    /* \"Mqttbaru.sol\":989:1000  idCount = 0 */\n  dup2\n  swap1\n  sstore\n  pop\n    /* \"Mqttbaru.sol\":1022:1023  0 */\n  0x00\n    /* \"Mqttbaru.sol\":1011:1019  logCount */\n  0x09\n    /* \"Mqttbaru.sol\":1011:1023  logCount = 0 */\n  dup2\n  swap1\n  sstore\n  pop\n    /* \"Mqttbaru.sol\":97:10930  contract Mqttbaru {\r... */\n  dataSize(sub_0)\n  dup1\n  dataOffset(sub_0)\n  0x00\n  codecopy\n  0x00\n  return\nstop\n\nsub_0: assembly {\n        /* \"Mqttbaru.sol\":97:10930  contract Mqttbaru {\r... */\n      mstore(0x40, 0x80)\n      callvalue\n      dup1\n      iszero\n      tag_1\n      jumpi\n      0x00\n      dup1\n      revert\n    tag_1:\n      pop\n      jumpi(tag_2, lt(calldatasize, 0x04))\n      shr(0xe0, calldataload(0x00))\n      dup1\n      0x7909ce47\n      gt\n      tag_21\n      jumpi\n      dup1\n      0xa9cb1a36\n      gt\n      tag_22\n      jumpi\n      dup1\n      0xa9cb1a36\n      eq\n      tag_16\n      jumpi\n      dup1\n      0xd1314ee0\n      eq\n      tag_17\n      jumpi\n      dup1\n      0xe58da61f\n      eq\n      tag_18\n      jumpi\n      dup1\n      0xe8e5339a\n      eq\n      tag_19\n      jumpi\n      dup1\n      0xfa6a04e4\n      eq\n      tag_20\n      jumpi\n      jump(tag_2)\n    tag_22:\n      dup1\n      0x7909ce47\n      eq\n      tag_12\n      jumpi\n      dup1\n      0x836cae65\n      eq\n      tag_13\n      jumpi\n      dup1\n      0x909e4ab6\n      eq\n      tag_14\n      jumpi\n      dup1\n      0x98173ff4\n      eq\n      tag_15\n      jumpi\n      jump(tag_2)\n    tag_21:\n      dup1\n      0x416a5d81\n      gt\n      tag_23\n      jumpi\n      dup1\n      0x416a5d81\n      eq\n      tag_7\n      jumpi\n      dup1\n      0x42bb20e1\n      eq\n      tag_8\n      jumpi\n      dup1\n      0x481c6a75\n      eq\n      tag_9\n      jumpi\n      dup1\n      0x6db80995\n      eq\n      tag_10\n      jumpi\n      dup1\n      0x71658896\n      eq\n      tag_11\n      jumpi\n      jump(tag_2)\n    tag_23:\n      dup1\n      0x0344248b\n      eq\n      tag_3\n      jumpi\n      dup1\n      0x1ee32b05\n      eq\n      tag_4\n      jumpi\n      dup1\n      0x30a66294\n      eq\n      tag_5\n      jumpi\n      dup1\n      0x3276807a\n      eq\n      tag_6\n      jumpi\n    tag_2:\n      0x00\n      dup1\n      revert\n        /* \"Mqttbaru.sol\":3631:3759  function getBrokerToken(address _address) isManager public view returns (bytes32) {\r... */\n    tag_3:\n      tag_24\n      0x04\n      dup1\n      calldatasize\n      sub\n      dup2\n      add\n      swap1\n      tag_25\n      swap2\n      swap1\n      tag_26\n      jump\t// in\n    tag_25:\n      tag_27\n      jump\t// in\n    tag_24:\n      mload(0x40)\n      tag_28\n      swap2\n      swap1\n      tag_29\n      jump\t// in\n    tag_28:\n      mload(0x40)\n      dup1\n      swap2\n      sub\n      swap1\n      return\n        /* \"Mqttbaru.sol\":3771:4464  function deleteBroker(address payable _brokeraddress) isManager public {\r... */\n    tag_4:\n      tag_30\n      0x04\n      dup1\n      calldatasize\n      sub\n      dup2\n      add\n      swap1\n      tag_31\n      swap2\n      swap1\n      tag_32\n      jump\t// in\n    tag_31:\n      tag_33\n      jump\t// in\n    tag_30:\n      stop\n        /* \"Mqttbaru.sol\":3405:3506  function getClientsCount() isManager public view returns (uint) {\r... */\n    tag_5:\n      tag_34\n      tag_35\n      jump\t// in\n    tag_34:\n      mload(0x40)\n      tag_36\n      swap2\n      swap1\n      tag_37\n      jump\t// in\n    tag_36:\n      mload(0x40)\n      dup1\n      swap2\n      sub\n      swap1\n      return\n        /* \"Mqttbaru.sol\":6175:6896  function addTopic(uint _id, string memory _topic) isManager public {\r... */\n    tag_6:\n      tag_38\n      0x04\n      dup1\n      calldatasize\n      sub\n      dup2\n      add\n      swap1\n      tag_39\n      swap2\n      swap1\n      tag_40\n      jump\t// in\n    tag_39:\n      tag_41\n      jump\t// in\n    tag_38:\n      stop\n        /* \"Mqttbaru.sol\":3518:3619  function getBrokersCount() isManager public view returns (uint) {\r... */\n    tag_7:\n      tag_42\n      tag_43\n      jump\t// in\n    tag_42:\n      mload(0x40)\n      tag_44\n      swap2\n      swap1\n      tag_37\n      jump\t// in\n    tag_44:\n      mload(0x40)\n      dup1\n      swap2\n      sub\n      swap1\n      return\n        /* \"Mqttbaru.sol\":4902:5598  function deleteTopic(uint _id, string memory _topic) isManager public {\r... */\n    tag_8:\n      tag_45\n      0x04\n      dup1\n      calldatasize\n      sub\n      dup2\n      add\n      swap1\n      tag_46\n      swap2\n      swap1\n      tag_40\n      jump\t// in\n    tag_46:\n      tag_47\n      jump\t// in\n    tag_45:\n      stop\n        /* \"Mqttbaru.sol\":128:158  address payable public manager */\n    tag_9:\n      tag_48\n      tag_49\n      jump\t// in\n    tag_48:\n      mload(0x40)\n      tag_50\n      swap2\n      swap1\n      tag_51\n      jump\t// in\n    tag_50:\n      mload(0x40)\n      dup1\n      swap2\n      sub\n      swap1\n      return\n        /* \"Mqttbaru.sol\":8044:8660  function getClients() public isManager view returns (uint[] memory, string[] memory, string[] memory) {\r... */\n    tag_10:\n      tag_52\n      tag_53\n      jump\t// in\n    tag_52:\n      mload(0x40)\n      tag_54\n      swap4\n      swap3\n      swap2\n      swap1\n      tag_55\n      jump\t// in\n    tag_54:\n      mload(0x40)\n      dup1\n      swap2\n      sub\n      swap1\n      return\n        /* \"Mqttbaru.sol\":5610:6163  function getTopic(uint _id) isManager public view returns(string[] memory){\r... */\n    tag_11:\n      tag_56\n      0x04\n      dup1\n      calldatasize\n      sub\n      dup2\n      add\n      swap1\n      tag_57\n      swap2\n      swap1\n      tag_58\n      jump\t// in\n    tag_57:\n      tag_59\n      jump\t// in\n    tag_56:\n      mload(0x40)\n      tag_60\n      swap2\n      swap1\n      tag_61\n      jump\t// in\n    tag_60:\n      mload(0x40)\n      dup1\n      swap2\n      sub\n      swap1\n      return\n        /* \"Mqttbaru.sol\":9957:10501  function authorize(bytes32 _token, uint _id, string memory _topic) brokerIsAuth(_token) public view returns(bool) {\r... */\n    tag_12:\n      tag_62\n      0x04\n      dup1\n      calldatasize\n      sub\n      dup2\n      add\n      swap1\n      tag_63\n      swap2\n      swap1\n      tag_64\n      jump\t// in\n    tag_63:\n      tag_65\n      jump\t// in\n    tag_62:\n      mload(0x40)\n      tag_66\n      swap2\n      swap1\n      tag_67\n      jump\t// in\n    tag_66:\n      mload(0x40)\n      dup1\n      swap2\n      sub\n      swap1\n      return\n        /* \"Mqttbaru.sol\":2981:3392  function addBroker(address payable _brokeraddress) public isManager {\r... */\n    tag_13:\n      tag_68\n      0x04\n      dup1\n      calldatasize\n      sub\n      dup2\n      add\n      swap1\n      tag_69\n      swap2\n      swap1\n      tag_32\n      jump\t// in\n    tag_69:\n      tag_70\n      jump\t// in\n    tag_68:\n      stop\n        /* \"Mqttbaru.sol\":8672:9402  function getLog() public isManager view returns (uint[] memory, string[] memory, string[] memory, address[] memory){\r... */\n    tag_14:\n      tag_71\n      tag_72\n      jump\t// in\n    tag_71:\n      mload(0x40)\n      tag_73\n      swap5\n      swap4\n      swap3\n      swap2\n      swap1\n      tag_74\n      jump\t// in\n    tag_73:\n      mload(0x40)\n      dup1\n      swap2\n      sub\n      swap1\n      return\n        /* \"Mqttbaru.sol\":6908:7362  function addClient(string memory _username, string memory _password) isManager public {\r... */\n    tag_15:\n      tag_75\n      0x04\n      dup1\n      calldatasize\n      sub\n      dup2\n      add\n      swap1\n      tag_76\n      swap2\n      swap1\n      tag_77\n      jump\t// in\n    tag_76:\n      tag_78\n      jump\t// in\n    tag_75:\n      stop\n        /* \"Mqttbaru.sol\":4476:4890  function deleteClient(uint _id) isManager public {\r... */\n    tag_16:\n      tag_79\n      0x04\n      dup1\n      calldatasize\n      sub\n      dup2\n      add\n      swap1\n      tag_80\n      swap2\n      swap1\n      tag_58\n      jump\t// in\n    tag_80:\n      tag_81\n      jump\t// in\n    tag_79:\n      stop\n        /* \"Mqttbaru.sol\":2671:2968  function getBroker() public isManager view returns (address[] memory){\r... */\n    tag_17:\n      tag_82\n      tag_83\n      jump\t// in\n    tag_82:\n      mload(0x40)\n      tag_84\n      swap2\n      swap1\n      tag_85\n      jump\t// in\n    tag_84:\n      mload(0x40)\n      dup1\n      swap2\n      sub\n      swap1\n      return\n        /* \"Mqttbaru.sol\":9414:9945  function authenticate(bytes32 _token, uint _id, string memory _username, string memory _password) brokerIsAuth(_token) public view returns (bool) {\r... */\n    tag_18:\n      tag_86\n      0x04\n      dup1\n      calldatasize\n      sub\n      dup2\n      add\n      swap1\n      tag_87\n      swap2\n      swap1\n      tag_88\n      jump\t// in\n    tag_87:\n      tag_89\n      jump\t// in\n    tag_86:\n      mload(0x40)\n      tag_90\n      swap2\n      swap1\n      tag_67\n      jump\t// in\n    tag_90:\n      mload(0x40)\n      dup1\n      swap2\n      sub\n      swap1\n      return\n        /* \"Mqttbaru.sol\":7380:8032  function updateTopic(uint _id, string memory _topic, string memory _newtopic) isManager public{\r... */\n    tag_19:\n      tag_91\n      0x04\n      dup1\n      calldatasize\n      sub\n      dup2\n      add\n      swap1\n      tag_92\n      swap2\n      swap1\n      tag_93\n      jump\t// in\n    tag_92:\n      tag_94\n      jump\t// in\n    tag_91:\n      stop\n        /* \"Mqttbaru.sol\":1515:2659  function refreshToken() public isBroker {\r... */\n    tag_20:\n      tag_95\n      tag_96\n      jump\t// in\n    tag_95:\n      stop\n        /* \"Mqttbaru.sol\":3631:3759  function getBrokerToken(address _address) isManager public view returns (bytes32) {\r... */\n    tag_27:\n        /* \"Mqttbaru.sol\":3704:3711  bytes32 */\n      0x00\n        /* \"Mqttbaru.sol\":10567:10574  manager */\n      dup1\n      0x00\n      swap1\n      sload\n      swap1\n      0x0100\n      exp\n      swap1\n      div\n      0xffffffffffffffffffffffffffffffffffffffff\n      and\n        /* \"Mqttbaru.sol\":10553:10574  msg.sender == manager */\n      0xffffffffffffffffffffffffffffffffffffffff\n      and\n        /* \"Mqttbaru.sol\":10553:10563  msg.sender */\n      caller\n        /* \"Mqttbaru.sol\":10553:10574  msg.sender == manager */\n      0xffffffffffffffffffffffffffffffffffffffff\n      and\n      eq\n        /* \"Mqttbaru.sol\":10545:10575  require(msg.sender == manager) */\n      tag_98\n      jumpi\n      0x00\n      dup1\n      revert\n    tag_98:\n        /* \"Mqttbaru.sol\":3731:3741  tokenSlots */\n      0x05\n        /* \"Mqttbaru.sol\":3731:3751  tokenSlots[_address] */\n      0x00\n        /* \"Mqttbaru.sol\":3742:3750  _address */\n      dup4\n        /* \"Mqttbaru.sol\":3731:3751  tokenSlots[_address] */\n      0xffffffffffffffffffffffffffffffffffffffff\n      and\n      0xffffffffffffffffffffffffffffffffffffffff\n      and\n      dup2\n      mstore\n      0x20\n      add\n      swap1\n      dup2\n      mstore\n      0x20\n      add\n      0x00\n      keccak256\n      sload\n        /* \"Mqttbaru.sol\":3724:3751  return tokenSlots[_address] */\n      swap1\n      pop\n        /* \"Mqttbaru.sol\":3631:3759  function getBrokerToken(address _address) isManager public view returns (bytes32) {\r... */\n      swap2\n      swap1\n      pop\n      jump\t// out\n        /* \"Mqttbaru.sol\":3771:4464  function deleteBroker(address payable _brokeraddress) isManager public {\r... */\n    tag_33:\n        /* \"Mqttbaru.sol\":10567:10574  manager */\n      0x00\n      dup1\n      sload\n      swap1\n      0x0100\n      exp\n      swap1\n      div\n      0xffffffffffffffffffffffffffffffffffffffff\n      and\n        /* \"Mqttbaru.sol\":10553:10574  msg.sender == manager */\n      0xffffffffffffffffffffffffffffffffffffffff\n      and\n        /* \"Mqttbaru.sol\":10553:10563  msg.sender */\n      caller\n        /* \"Mqttbaru.sol\":10553:10574  msg.sender == manager */\n      0xffffffffffffffffffffffffffffffffffffffff\n      and\n      eq\n        /* \"Mqttbaru.sol\":10545:10575  require(msg.sender == manager) */\n      tag_101\n      jumpi\n      0x00\n      dup1\n      revert\n    tag_101:\n        /* \"Mqttbaru.sol\":3857:3863  uint i */\n      0x00\n        /* \"Mqttbaru.sol\":3853:4457  for(uint i = 0; i < brokerAddress.length; i++){\r... */\n    tag_103:\n        /* \"Mqttbaru.sol\":3873:3886  brokerAddress */\n      0x02\n        /* \"Mqttbaru.sol\":3873:3893  brokerAddress.length */\n      dup1\n      sload\n      swap1\n      pop\n        /* \"Mqttbaru.sol\":3869:3870  i */\n      dup2\n        /* \"Mqttbaru.sol\":3869:3893  i < brokerAddress.length */\n      lt\n        /* \"Mqttbaru.sol\":3853:4457  for(uint i = 0; i < brokerAddress.length; i++){\r... */\n      iszero\n      tag_104\n      jumpi\n        /* \"Mqttbaru.sol\":3935:3948  brokerAddress */\n      0x02\n        /* \"Mqttbaru.sol\":3949:3950  i */\n      dup2\n        /* \"Mqttbaru.sol\":3935:3951  brokerAddress[i] */\n      dup2\n      sload\n      dup2\n      lt\n      tag_106\n      jumpi\n      invalid\n    tag_106:\n      swap1\n      0x00\n      mstore\n      keccak256(0x00, 0x20)\n      swap1\n      0x02\n      mul\n      add\n        /* \"Mqttbaru.sol\":3935:3966  brokerAddress[i].broker_address */\n      0x00\n      add\n      0x00\n      swap1\n      sload\n      swap1\n      0x0100\n      exp\n      swap1\n      div\n      0xffffffffffffffffffffffffffffffffffffffff\n      and\n        /* \"Mqttbaru.sol\":3917:3966  _brokeraddress == brokerAddress[i].broker_address */\n      0xffffffffffffffffffffffffffffffffffffffff\n      and\n        /* \"Mqttbaru.sol\":3917:3931  _brokeraddress */\n      dup3\n        /* \"Mqttbaru.sol\":3917:3966  _brokeraddress == brokerAddress[i].broker_address */\n      0xffffffffffffffffffffffffffffffffffffffff\n      and\n      eq\n        /* \"Mqttbaru.sol\":3914:4446  if(_brokeraddress == brokerAddress[i].broker_address){\r... */\n      iszero\n      tag_108\n      jumpi\n        /* \"Mqttbaru.sol\":4019:4024  false */\n      0x00\n        /* \"Mqttbaru.sol\":3986:4000  brokerValidity */\n      0x04\n        /* \"Mqttbaru.sol\":3986:4016  brokerValidity[_brokeraddress] */\n      0x00\n        /* \"Mqttbaru.sol\":4001:4015  _brokeraddress */\n      dup5\n        /* \"Mqttbaru.sol\":3986:4016  brokerValidity[_brokeraddress] */\n      0xffffffffffffffffffffffffffffffffffffffff\n      and\n      0xffffffffffffffffffffffffffffffffffffffff\n      and\n      dup2\n      mstore\n      0x20\n      add\n      swap1\n      dup2\n      mstore\n      0x20\n      add\n      0x00\n      keccak256\n      0x00\n        /* \"Mqttbaru.sol\":3986:4024  brokerValidity[_brokeraddress] = false */\n      0x0100\n      exp\n      dup2\n      sload\n      dup2\n      0xff\n      mul\n      not\n      and\n      swap1\n      dup4\n      iszero\n      iszero\n      mul\n      or\n      swap1\n      sstore\n      pop\n        /* \"Mqttbaru.sol\":4072:4138  0x0000000000000000000000000000000000000000000000000000000000000000 */\n      0x00\n        /* \"Mqttbaru.sol\":4043:4138  tokenSlots[_brokeraddress] = 0x0000000000000000000000000000000000000000000000000000000000000000 */\n      dup1\n      shl\n        /* \"Mqttbaru.sol\":4043:4053  tokenSlots */\n      0x05\n        /* \"Mqttbaru.sol\":4043:4069  tokenSlots[_brokeraddress] */\n      0x00\n        /* \"Mqttbaru.sol\":4054:4068  _brokeraddress */\n      dup5\n        /* \"Mqttbaru.sol\":4043:4069  tokenSlots[_brokeraddress] */\n      0xffffffffffffffffffffffffffffffffffffffff\n      and\n      0xffffffffffffffffffffffffffffffffffffffff\n      and\n      dup2\n      mstore\n      0x20\n      add\n      swap1\n      dup2\n      mstore\n      0x20\n      add\n      0x00\n      keccak256\n        /* \"Mqttbaru.sol\":4043:4138  tokenSlots[_brokeraddress] = 0x0000000000000000000000000000000000000000000000000000000000000000 */\n      dup2\n      swap1\n      sstore\n      pop\n        /* \"Mqttbaru.sol\":4162:4195  ref_token(tokenSlots[msg.sender]) */\n      0x504e9e94e0c65229aaf8cabe153380cc35da3135e30129bc3195f7e031cdf82b\n        /* \"Mqttbaru.sol\":4172:4182  tokenSlots */\n      0x05\n        /* \"Mqttbaru.sol\":4172:4194  tokenSlots[msg.sender] */\n      0x00\n        /* \"Mqttbaru.sol\":4183:4193  msg.sender */\n      caller\n        /* \"Mqttbaru.sol\":4172:4194  tokenSlots[msg.sender] */\n      0xffffffffffffffffffffffffffffffffffffffff\n      and\n      0xffffffffffffffffffffffffffffffffffffffff\n      and\n      dup2\n      mstore\n      0x20\n      add\n      swap1\n      dup2\n      mstore\n      0x20\n      add\n      0x00\n      keccak256\n      sload\n        /* \"Mqttbaru.sol\":4162:4195  ref_token(tokenSlots[msg.sender]) */\n      mload(0x40)\n      tag_109\n      swap2\n      swap1\n      tag_29\n      jump\t// in\n    tag_109:\n      mload(0x40)\n      dup1\n      swap2\n      sub\n      swap1\n      log1\n        /* \"Mqttbaru.sol\":4233:4246  brokerAddress */\n      0x02\n        /* \"Mqttbaru.sol\":4270:4271  1 */\n      0x01\n        /* \"Mqttbaru.sol\":4247:4260  brokerAddress */\n      0x02\n        /* \"Mqttbaru.sol\":4247:4267  brokerAddress.length */\n      dup1\n      sload\n      swap1\n      pop\n        /* \"Mqttbaru.sol\":4247:4271  brokerAddress.length - 1 */\n      sub\n        /* \"Mqttbaru.sol\":4233:4272  brokerAddress[brokerAddress.length - 1] */\n      dup2\n      sload\n      dup2\n      lt\n      tag_110\n      jumpi\n      invalid\n    tag_110:\n      swap1\n      0x00\n      mstore\n      keccak256(0x00, 0x20)\n      swap1\n      0x02\n      mul\n      add\n        /* \"Mqttbaru.sol\":4214:4227  brokerAddress */\n      0x02\n        /* \"Mqttbaru.sol\":4228:4229  i */\n      dup3\n        /* \"Mqttbaru.sol\":4214:4230  brokerAddress[i] */\n      dup2\n      sload\n      dup2\n      lt\n      tag_112\n      jumpi\n      invalid\n    tag_112:\n      swap1\n      0x00\n      mstore\n      keccak256(0x00, 0x20)\n      swap1\n      0x02\n      mul\n      add\n        /* \"Mqttbaru.sol\":4214:4272  brokerAddress[i] = brokerAddress[brokerAddress.length - 1] */\n      0x00\n      dup3\n      add\n      0x00\n      swap1\n      sload\n      swap1\n      0x0100\n      exp\n      swap1\n      div\n      0xffffffffffffffffffffffffffffffffffffffff\n      and\n      dup2\n      0x00\n      add\n      exp(0x0100, 0x00)\n      dup2\n      sload\n      dup2\n      0xffffffffffffffffffffffffffffffffffffffff\n      mul\n      not\n      and\n      swap1\n      dup4\n      0xffffffffffffffffffffffffffffffffffffffff\n      and\n      mul\n      or\n      swap1\n      sstore\n      pop\n      0x01\n      dup3\n      add\n      sload\n      dup2\n      0x01\n      add\n      sstore\n      swap1\n      pop\n      pop\n        /* \"Mqttbaru.sol\":4291:4304  brokerAddress */\n      0x02\n        /* \"Mqttbaru.sol\":4291:4310  brokerAddress.pop() */\n      dup1\n      sload\n      dup1\n      tag_114\n      jumpi\n      invalid\n    tag_114:\n      0x01\n      swap1\n      sub\n      dup2\n      dup2\n      swap1\n      0x00\n      mstore\n      keccak256(0x00, 0x20)\n      swap1\n      0x02\n      mul\n      add\n      0x00\n      dup1\n      dup3\n      add\n      exp(0x0100, 0x00)\n      dup2\n      sload\n      swap1\n      0xffffffffffffffffffffffffffffffffffffffff\n      mul\n      not\n      and\n      swap1\n      sstore\n      0x01\n      dup3\n      add\n      0x00\n      swap1\n      sstore\n      pop\n      pop\n      swap1\n      sstore\n        /* \"Mqttbaru.sol\":4329:4340  brokerCount */\n      0x07\n      0x00\n        /* \"Mqttbaru.sol\":4329:4342  brokerCount-- */\n      dup2\n      sload\n      dup1\n      swap3\n      swap2\n      swap1\n      0x01\n      swap1\n      sub\n      swap2\n      swap1\n      pop\n      sstore\n      pop\n        /* \"Mqttbaru.sol\":4361:4430  makeLog(now, \"deleteBroker\", \"a broker has been deleted\", msg.sender) */\n      tag_116\n        /* \"Mqttbaru.sol\":4369:4372  now */\n      timestamp\n        /* \"Mqttbaru.sol\":4361:4430  makeLog(now, \"deleteBroker\", \"a broker has been deleted\", msg.sender) */\n      mload(0x40)\n      dup1\n      0x40\n      add\n      0x40\n      mstore\n      dup1\n      0x0c\n      dup2\n      mstore\n      0x20\n      add\n      0x64656c65746542726f6b65720000000000000000000000000000000000000000\n      dup2\n      mstore\n      pop\n      mload(0x40)\n      dup1\n      0x40\n      add\n      0x40\n      mstore\n      dup1\n      0x19\n      dup2\n      mstore\n      0x20\n      add\n      0x612062726f6b657220686173206265656e2064656c6574656400000000000000\n      dup2\n      mstore\n      pop\n        /* \"Mqttbaru.sol\":4419:4429  msg.sender */\n      caller\n        /* \"Mqttbaru.sol\":4361:4368  makeLog */\n      tag_117\n        /* \"Mqttbaru.sol\":4361:4430  makeLog(now, \"deleteBroker\", \"a broker has been deleted\", msg.sender) */\n      jump\t// in\n    tag_116:\n        /* \"Mqttbaru.sol\":3914:4446  if(_brokeraddress == brokerAddress[i].broker_address){\r... */\n    tag_108:\n        /* \"Mqttbaru.sol\":3895:3898  i++ */\n      dup1\n      dup1\n      0x01\n      add\n      swap2\n      pop\n      pop\n        /* \"Mqttbaru.sol\":3853:4457  for(uint i = 0; i < brokerAddress.length; i++){\r... */\n      jump(tag_103)\n    tag_104:\n      pop\n        /* \"Mqttbaru.sol\":3771:4464  function deleteBroker(address payable _brokeraddress) isManager public {\r... */\n      pop\n      jump\t// out\n        /* \"Mqttbaru.sol\":3405:3506  function getClientsCount() isManager public view returns (uint) {\r... */\n    tag_35:\n        /* \"Mqttbaru.sol\":3463:3467  uint */\n      0x00\n        /* \"Mqttbaru.sol\":10567:10574  manager */\n      dup1\n      0x00\n      swap1\n      sload\n      swap1\n      0x0100\n      exp\n      swap1\n      div\n      0xffffffffffffffffffffffffffffffffffffffff\n      and\n        /* \"Mqttbaru.sol\":10553:10574  msg.sender == manager */\n      0xffffffffffffffffffffffffffffffffffffffff\n      and\n        /* \"Mqttbaru.sol\":10553:10563  msg.sender */\n      caller\n        /* \"Mqttbaru.sol\":10553:10574  msg.sender == manager */\n      0xffffffffffffffffffffffffffffffffffffffff\n      and\n      eq\n        /* \"Mqttbaru.sol\":10545:10575  require(msg.sender == manager) */\n      tag_119\n      jumpi\n      0x00\n      dup1\n      revert\n    tag_119:\n        /* \"Mqttbaru.sol\":3487:3498  clientCount */\n      sload(0x06)\n        /* \"Mqttbaru.sol\":3480:3498  return clientCount */\n      swap1\n      pop\n        /* \"Mqttbaru.sol\":3405:3506  function getClientsCount() isManager public view returns (uint) {\r... */\n      swap1\n      jump\t// out\n        /* \"Mqttbaru.sol\":6175:6896  function addTopic(uint _id, string memory _topic) isManager public {\r... */\n    tag_41:\n        /* \"Mqttbaru.sol\":10567:10574  manager */\n      0x00\n      dup1\n      sload\n      swap1\n      0x0100\n      exp\n      swap1\n      div\n      0xffffffffffffffffffffffffffffffffffffffff\n      and\n        /* \"Mqttbaru.sol\":10553:10574  msg.sender == manager */\n      0xffffffffffffffffffffffffffffffffffffffff\n      and\n        /* \"Mqttbaru.sol\":10553:10563  msg.sender */\n      caller\n        /* \"Mqttbaru.sol\":10553:10574  msg.sender == manager */\n      0xffffffffffffffffffffffffffffffffffffffff\n      and\n      eq\n        /* \"Mqttbaru.sol\":10545:10575  require(msg.sender == manager) */\n      tag_122\n      jumpi\n      0x00\n      dup1\n      revert\n    tag_122:\n        /* \"Mqttbaru.sol\":6253:6263  bool exist */\n      0x00\n        /* \"Mqttbaru.sol\":6286:6292  uint i */\n      dup1\n        /* \"Mqttbaru.sol\":6282:6889  for(uint i = 0; i < clientLedger.length; i++){\r... */\n    tag_124:\n        /* \"Mqttbaru.sol\":6302:6314  clientLedger */\n      0x01\n        /* \"Mqttbaru.sol\":6302:6321  clientLedger.length */\n      dup1\n      sload\n      swap1\n      pop\n        /* \"Mqttbaru.sol\":6298:6299  i */\n      dup2\n        /* \"Mqttbaru.sol\":6298:6321  i < clientLedger.length */\n      lt\n        /* \"Mqttbaru.sol\":6282:6889  for(uint i = 0; i < clientLedger.length; i++){\r... */\n      iszero\n      tag_125\n      jumpi\n        /* \"Mqttbaru.sol\":6342:6366  Client storage clientele */\n      0x00\n        /* \"Mqttbaru.sol\":6369:6381  clientLedger */\n      0x01\n        /* \"Mqttbaru.sol\":6382:6383  i */\n      dup3\n        /* \"Mqttbaru.sol\":6369:6384  clientLedger[i] */\n      dup2\n      sload\n      dup2\n      lt\n      tag_127\n      jumpi\n      invalid\n    tag_127:\n      swap1\n      0x00\n      mstore\n      keccak256(0x00, 0x20)\n      swap1\n      0x04\n      mul\n      add\n        /* \"Mqttbaru.sol\":6342:6384  Client storage clientele = clientLedger[i] */\n      swap1\n      pop\n        /* \"Mqttbaru.sol\":6409:6418  clientele */\n      dup1\n        /* \"Mqttbaru.sol\":6409:6421  clientele.id */\n      0x00\n      add\n      sload\n        /* \"Mqttbaru.sol\":6402:6405  _id */\n      dup6\n        /* \"Mqttbaru.sol\":6402:6421  _id == clientele.id */\n      eq\n        /* \"Mqttbaru.sol\":6399:6878  if(_id == clientele.id){\r... */\n      iszero\n      tag_129\n      jumpi\n        /* \"Mqttbaru.sol\":6445:6451  uint j */\n      0x00\n        /* \"Mqttbaru.sol\":6441:6688  for(uint j = 0; j < clientele.topic.length; j++){\r... */\n    tag_130:\n        /* \"Mqttbaru.sol\":6461:6470  clientele */\n      dup2\n        /* \"Mqttbaru.sol\":6461:6476  clientele.topic */\n      0x03\n      add\n        /* \"Mqttbaru.sol\":6461:6483  clientele.topic.length */\n      dup1\n      sload\n      swap1\n      pop\n        /* \"Mqttbaru.sol\":6457:6458  j */\n      dup2\n        /* \"Mqttbaru.sol\":6457:6483  j < clientele.topic.length */\n      lt\n        /* \"Mqttbaru.sol\":6441:6688  for(uint j = 0; j < clientele.topic.length; j++){\r... */\n      iszero\n      tag_131\n      jumpi\n        /* \"Mqttbaru.sol\":6581:6590  clientele */\n      dup2\n        /* \"Mqttbaru.sol\":6581:6596  clientele.topic */\n      0x03\n      add\n        /* \"Mqttbaru.sol\":6597:6598  j */\n      dup2\n        /* \"Mqttbaru.sol\":6581:6599  clientele.topic[j] */\n      dup2\n      sload\n      dup2\n      lt\n      tag_133\n      jumpi\n      invalid\n    tag_133:\n      swap1\n      0x00\n      mstore\n      keccak256(0x00, 0x20)\n      add\n        /* \"Mqttbaru.sol\":6564:6600  abi.encodePacked(clientele.topic[j]) */\n      add(0x20, mload(0x40))\n      tag_135\n      swap2\n      swap1\n      tag_136\n      jump\t// in\n    tag_135:\n      mload(0x40)\n      0x20\n      dup2\n      dup4\n      sub\n      sub\n      dup2\n      mstore\n      swap1\n      0x40\n      mstore\n        /* \"Mqttbaru.sol\":6554:6601  keccak256(abi.encodePacked(clientele.topic[j])) */\n      dup1\n      mload\n      swap1\n      0x20\n      add\n      keccak256\n        /* \"Mqttbaru.sol\":6542:6548  _topic */\n      dup6\n        /* \"Mqttbaru.sol\":6525:6549  abi.encodePacked(_topic) */\n      add(0x20, mload(0x40))\n      tag_137\n      swap2\n      swap1\n      tag_138\n      jump\t// in\n    tag_137:\n      mload(0x40)\n      0x20\n      dup2\n      dup4\n      sub\n      sub\n      dup2\n      mstore\n      swap1\n      0x40\n      mstore\n        /* \"Mqttbaru.sol\":6515:6550  keccak256(abi.encodePacked(_topic)) */\n      dup1\n      mload\n      swap1\n      0x20\n      add\n      keccak256\n        /* \"Mqttbaru.sol\":6515:6601  keccak256(abi.encodePacked(_topic)) == keccak256(abi.encodePacked(clientele.topic[j])) */\n      eq\n        /* \"Mqttbaru.sol\":6512:6665  if(keccak256(abi.encodePacked(_topic)) == keccak256(abi.encodePacked(clientele.topic[j]))){\r... */\n      iszero\n      tag_139\n      jumpi\n        /* \"Mqttbaru.sol\":6637:6641  true */\n      0x01\n        /* \"Mqttbaru.sol\":6629:6641  exist = true */\n      swap4\n      pop\n        /* \"Mqttbaru.sol\":6512:6665  if(keccak256(abi.encodePacked(_topic)) == keccak256(abi.encodePacked(clientele.topic[j]))){\r... */\n    tag_139:\n        /* \"Mqttbaru.sol\":6485:6488  j++ */\n      dup1\n      dup1\n      0x01\n      add\n      swap2\n      pop\n      pop\n        /* \"Mqttbaru.sol\":6441:6688  for(uint j = 0; j < clientele.topic.length; j++){\r... */\n      jump(tag_130)\n    tag_131:\n      pop\n        /* \"Mqttbaru.sol\":6710:6715  exist */\n      dup3\n        /* \"Mqttbaru.sol\":6706:6863  if(!exist){\r... */\n      tag_140\n      jumpi\n        /* \"Mqttbaru.sol\":6739:6748  clientele */\n      dup1\n        /* \"Mqttbaru.sol\":6739:6754  clientele.topic */\n      0x03\n      add\n        /* \"Mqttbaru.sol\":6760:6766  _topic */\n      dup5\n        /* \"Mqttbaru.sol\":6739:6767  clientele.topic.push(_topic) */\n      swap1\n      dup1\n      0x01\n      dup2\n      sload\n      add\n      dup1\n      dup3\n      sstore\n      dup1\n      swap2\n      pop\n      pop\n      0x01\n      swap1\n      sub\n      swap1\n      0x00\n      mstore\n      keccak256(0x00, 0x20)\n      add\n      0x00\n      swap1\n      swap2\n      swap1\n      swap2\n      swap1\n      swap2\n      pop\n      swap1\n      dup1\n      mload\n      swap1\n      0x20\n      add\n      swap1\n      tag_142\n      swap3\n      swap2\n      swap1\n      tag_143\n      jump\t// in\n    tag_142:\n      pop\n        /* \"Mqttbaru.sol\":6790:6843  makeLog(now, \"addTopic\", \"add new Topic\", msg.sender) */\n      tag_144\n        /* \"Mqttbaru.sol\":6798:6801  now */\n      timestamp\n        /* \"Mqttbaru.sol\":6790:6843  makeLog(now, \"addTopic\", \"add new Topic\", msg.sender) */\n      mload(0x40)\n      dup1\n      0x40\n      add\n      0x40\n      mstore\n      dup1\n      0x08\n      dup2\n      mstore\n      0x20\n      add\n      0x616464546f706963000000000000000000000000000000000000000000000000\n      dup2\n      mstore\n      pop\n      mload(0x40)\n      dup1\n      0x40\n      add\n      0x40\n      mstore\n      dup1\n      0x0d\n      dup2\n      mstore\n      0x20\n      add\n      0x616464206e657720546f70696300000000000000000000000000000000000000\n      dup2\n      mstore\n      pop\n        /* \"Mqttbaru.sol\":6832:6842  msg.sender */\n      caller\n        /* \"Mqttbaru.sol\":6790:6797  makeLog */\n      tag_117\n        /* \"Mqttbaru.sol\":6790:6843  makeLog(now, \"addTopic\", \"add new Topic\", msg.sender) */\n      jump\t// in\n    tag_144:\n        /* \"Mqttbaru.sol\":6706:6863  if(!exist){\r... */\n    tag_140:\n        /* \"Mqttbaru.sol\":6399:6878  if(_id == clientele.id){\r... */\n    tag_129:\n        /* \"Mqttbaru.sol\":6282:6889  for(uint i = 0; i < clientLedger.length; i++){\r... */\n      pop\n        /* \"Mqttbaru.sol\":6323:6326  i++ */\n      dup1\n      dup1\n      0x01\n      add\n      swap2\n      pop\n      pop\n        /* \"Mqttbaru.sol\":6282:6889  for(uint i = 0; i < clientLedger.length; i++){\r... */\n      jump(tag_124)\n    tag_125:\n      pop\n        /* \"Mqttbaru.sol\":10586:10587  _ */\n      pop\n        /* \"Mqttbaru.sol\":6175:6896  function addTopic(uint _id, string memory _topic) isManager public {\r... */\n      pop\n      pop\n      jump\t// out\n        /* \"Mqttbaru.sol\":3518:3619  function getBrokersCount() isManager public view returns (uint) {\r... */\n    tag_43:\n        /* \"Mqttbaru.sol\":3576:3580  uint */\n      0x00\n        /* \"Mqttbaru.sol\":10567:10574  manager */\n      dup1\n      0x00\n      swap1\n      sload\n      swap1\n      0x0100\n      exp\n      swap1\n      div\n      0xffffffffffffffffffffffffffffffffffffffff\n      and\n        /* \"Mqttbaru.sol\":10553:10574  msg.sender == manager */\n      0xffffffffffffffffffffffffffffffffffffffff\n      and\n        /* \"Mqttbaru.sol\":10553:10563  msg.sender */\n      caller\n        /* \"Mqttbaru.sol\":10553:10574  msg.sender == manager */\n      0xffffffffffffffffffffffffffffffffffffffff\n      and\n      eq\n        /* \"Mqttbaru.sol\":10545:10575  require(msg.sender == manager) */\n      tag_146\n      jumpi\n      0x00\n      dup1\n      revert\n    tag_146:\n        /* \"Mqttbaru.sol\":3600:3611  brokerCount */\n      sload(0x07)\n        /* \"Mqttbaru.sol\":3593:3611  return brokerCount */\n      swap1\n      pop\n        /* \"Mqttbaru.sol\":3518:3619  function getBrokersCount() isManager public view returns (uint) {\r... */\n      swap1\n      jump\t// out\n        /* \"Mqttbaru.sol\":4902:5598  function deleteTopic(uint _id, string memory _topic) isManager public {\r... */\n    tag_47:\n        /* \"Mqttbaru.sol\":10567:10574  manager */\n      0x00\n      dup1\n      sload\n      swap1\n      0x0100\n      exp\n      swap1\n      div\n      0xffffffffffffffffffffffffffffffffffffffff\n      and\n        /* \"Mqttbaru.sol\":10553:10574  msg.sender == manager */\n      0xffffffffffffffffffffffffffffffffffffffff\n      and\n        /* \"Mqttbaru.sol\":10553:10563  msg.sender */\n      caller\n        /* \"Mqttbaru.sol\":10553:10574  msg.sender == manager */\n      0xffffffffffffffffffffffffffffffffffffffff\n      and\n      eq\n        /* \"Mqttbaru.sol\":10545:10575  require(msg.sender == manager) */\n      tag_149\n      jumpi\n      0x00\n      dup1\n      revert\n    tag_149:\n        /* \"Mqttbaru.sol\":4987:4993  uint i */\n      0x00\n        /* \"Mqttbaru.sol\":4983:5591  for(uint i = 0; i <  clientLedger.length; i++){\r... */\n    tag_151:\n        /* \"Mqttbaru.sol\":5004:5016  clientLedger */\n      0x01\n        /* \"Mqttbaru.sol\":5004:5023  clientLedger.length */\n      dup1\n      sload\n      swap1\n      pop\n        /* \"Mqttbaru.sol\":4999:5000  i */\n      dup2\n        /* \"Mqttbaru.sol\":4999:5023  i <  clientLedger.length */\n      lt\n        /* \"Mqttbaru.sol\":4983:5591  for(uint i = 0; i <  clientLedger.length; i++){\r... */\n      iszero\n      tag_152\n      jumpi\n        /* \"Mqttbaru.sol\":5054:5066  clientLedger */\n      0x01\n        /* \"Mqttbaru.sol\":5067:5068  i */\n      dup2\n        /* \"Mqttbaru.sol\":5054:5069  clientLedger[i] */\n      dup2\n      sload\n      dup2\n      lt\n      tag_154\n      jumpi\n      invalid\n    tag_154:\n      swap1\n      0x00\n      mstore\n      keccak256(0x00, 0x20)\n      swap1\n      0x04\n      mul\n      add\n        /* \"Mqttbaru.sol\":5054:5072  clientLedger[i].id */\n      0x00\n      add\n      sload\n        /* \"Mqttbaru.sol\":5047:5050  _id */\n      dup4\n        /* \"Mqttbaru.sol\":5047:5072  _id == clientLedger[i].id */\n      eq\n        /* \"Mqttbaru.sol\":5044:5580  if(_id == clientLedger[i].id){\r... */\n      iszero\n      tag_156\n      jumpi\n        /* \"Mqttbaru.sol\":5096:5102  uint j */\n      0x00\n        /* \"Mqttbaru.sol\":5092:5565  for(uint j = 0; j < clientLedger[i].topic.length; j++){\r... */\n    tag_157:\n        /* \"Mqttbaru.sol\":5112:5124  clientLedger */\n      0x01\n        /* \"Mqttbaru.sol\":5125:5126  i */\n      dup3\n        /* \"Mqttbaru.sol\":5112:5127  clientLedger[i] */\n      dup2\n      sload\n      dup2\n      lt\n      tag_160\n      jumpi\n      invalid\n    tag_160:\n      swap1\n      0x00\n      mstore\n      keccak256(0x00, 0x20)\n      swap1\n      0x04\n      mul\n      add\n        /* \"Mqttbaru.sol\":5112:5133  clientLedger[i].topic */\n      0x03\n      add\n        /* \"Mqttbaru.sol\":5112:5140  clientLedger[i].topic.length */\n      dup1\n      sload\n      swap1\n      pop\n        /* \"Mqttbaru.sol\":5108:5109  j */\n      dup2\n        /* \"Mqttbaru.sol\":5108:5140  j < clientLedger[i].topic.length */\n      lt\n        /* \"Mqttbaru.sol\":5092:5565  for(uint j = 0; j < clientLedger[i].topic.length; j++){\r... */\n      iszero\n      tag_158\n      jumpi\n        /* \"Mqttbaru.sol\":5238:5250  clientLedger */\n      0x01\n        /* \"Mqttbaru.sol\":5251:5252  i */\n      dup3\n        /* \"Mqttbaru.sol\":5238:5253  clientLedger[i] */\n      dup2\n      sload\n      dup2\n      lt\n      tag_162\n      jumpi\n      invalid\n    tag_162:\n      swap1\n      0x00\n      mstore\n      keccak256(0x00, 0x20)\n      swap1\n      0x04\n      mul\n      add\n        /* \"Mqttbaru.sol\":5238:5259  clientLedger[i].topic */\n      0x03\n      add\n        /* \"Mqttbaru.sol\":5260:5261  j */\n      dup2\n        /* \"Mqttbaru.sol\":5238:5262  clientLedger[i].topic[j] */\n      dup2\n      sload\n      dup2\n      lt\n      tag_164\n      jumpi\n      invalid\n    tag_164:\n      swap1\n      0x00\n      mstore\n      keccak256(0x00, 0x20)\n      add\n        /* \"Mqttbaru.sol\":5221:5263  abi.encodePacked(clientLedger[i].topic[j]) */\n      add(0x20, mload(0x40))\n      tag_166\n      swap2\n      swap1\n      tag_136\n      jump\t// in\n    tag_166:\n      mload(0x40)\n      0x20\n      dup2\n      dup4\n      sub\n      sub\n      dup2\n      mstore\n      swap1\n      0x40\n      mstore\n        /* \"Mqttbaru.sol\":5211:5264  keccak256(abi.encodePacked(clientLedger[i].topic[j])) */\n      dup1\n      mload\n      swap1\n      0x20\n      add\n      keccak256\n        /* \"Mqttbaru.sol\":5199:5205  _topic */\n      dup4\n        /* \"Mqttbaru.sol\":5182:5206  abi.encodePacked(_topic) */\n      add(0x20, mload(0x40))\n      tag_167\n      swap2\n      swap1\n      tag_138\n      jump\t// in\n    tag_167:\n      mload(0x40)\n      0x20\n      dup2\n      dup4\n      sub\n      sub\n      dup2\n      mstore\n      swap1\n      0x40\n      mstore\n        /* \"Mqttbaru.sol\":5172:5207  keccak256(abi.encodePacked(_topic)) */\n      dup1\n      mload\n      swap1\n      0x20\n      add\n      keccak256\n        /* \"Mqttbaru.sol\":5172:5264  keccak256(abi.encodePacked(_topic)) == keccak256(abi.encodePacked(clientLedger[i].topic[j])) */\n      eq\n        /* \"Mqttbaru.sol\":5169:5546  if(keccak256(abi.encodePacked(_topic)) == keccak256(abi.encodePacked(clientLedger[i].topic[j]))){\r... */\n      iszero\n      tag_168\n      jumpi\n        /* \"Mqttbaru.sol\":5319:5331  clientLedger */\n      0x01\n        /* \"Mqttbaru.sol\":5332:5333  i */\n      dup3\n        /* \"Mqttbaru.sol\":5319:5334  clientLedger[i] */\n      dup2\n      sload\n      dup2\n      lt\n      tag_169\n      jumpi\n      invalid\n    tag_169:\n      swap1\n      0x00\n      mstore\n      keccak256(0x00, 0x20)\n      swap1\n      0x04\n      mul\n      add\n        /* \"Mqttbaru.sol\":5319:5340  clientLedger[i].topic */\n      0x03\n      add\n        /* \"Mqttbaru.sol\":5372:5373  1 */\n      0x01\n        /* \"Mqttbaru.sol\":5341:5353  clientLedger */\n      dup1\n        /* \"Mqttbaru.sol\":5354:5355  i */\n      dup5\n        /* \"Mqttbaru.sol\":5341:5356  clientLedger[i] */\n      dup2\n      sload\n      dup2\n      lt\n      tag_171\n      jumpi\n      invalid\n    tag_171:\n      swap1\n      0x00\n      mstore\n      keccak256(0x00, 0x20)\n      swap1\n      0x04\n      mul\n      add\n        /* \"Mqttbaru.sol\":5341:5362  clientLedger[i].topic */\n      0x03\n      add\n        /* \"Mqttbaru.sol\":5341:5369  clientLedger[i].topic.length */\n      dup1\n      sload\n      swap1\n      pop\n        /* \"Mqttbaru.sol\":5341:5373  clientLedger[i].topic.length - 1 */\n      sub\n        /* \"Mqttbaru.sol\":5319:5374  clientLedger[i].topic[clientLedger[i].topic.length - 1] */\n      dup2\n      sload\n      dup2\n      lt\n      tag_173\n      jumpi\n      invalid\n    tag_173:\n      swap1\n      0x00\n      mstore\n      keccak256(0x00, 0x20)\n      add\n        /* \"Mqttbaru.sol\":5292:5304  clientLedger */\n      0x01\n        /* \"Mqttbaru.sol\":5305:5306  i */\n      dup4\n        /* \"Mqttbaru.sol\":5292:5307  clientLedger[i] */\n      dup2\n      sload\n      dup2\n      lt\n      tag_175\n      jumpi\n      invalid\n    tag_175:\n      swap1\n      0x00\n      mstore\n      keccak256(0x00, 0x20)\n      swap1\n      0x04\n      mul\n      add\n        /* \"Mqttbaru.sol\":5292:5313  clientLedger[i].topic */\n      0x03\n      add\n        /* \"Mqttbaru.sol\":5314:5315  j */\n      dup3\n        /* \"Mqttbaru.sol\":5292:5316  clientLedger[i].topic[j] */\n      dup2\n      sload\n      dup2\n      lt\n      tag_177\n      jumpi\n      invalid\n    tag_177:\n      swap1\n      0x00\n      mstore\n      keccak256(0x00, 0x20)\n      add\n        /* \"Mqttbaru.sol\":5292:5374  clientLedger[i].topic[j] = clientLedger[i].topic[clientLedger[i].topic.length - 1] */\n      swap1\n      dup1\n      sload\n      0x01\n      dup2\n      0x01\n      and\n      iszero\n      0x0100\n      mul\n      sub\n      and\n      0x02\n      swap1\n      div\n      tag_179\n      swap3\n      swap2\n      swap1\n      tag_180\n      jump\t// in\n    tag_179:\n      pop\n        /* \"Mqttbaru.sol\":5401:5413  clientLedger */\n      0x01\n        /* \"Mqttbaru.sol\":5414:5415  i */\n      dup3\n        /* \"Mqttbaru.sol\":5401:5416  clientLedger[i] */\n      dup2\n      sload\n      dup2\n      lt\n      tag_181\n      jumpi\n      invalid\n    tag_181:\n      swap1\n      0x00\n      mstore\n      keccak256(0x00, 0x20)\n      swap1\n      0x04\n      mul\n      add\n        /* \"Mqttbaru.sol\":5401:5422  clientLedger[i].topic */\n      0x03\n      add\n        /* \"Mqttbaru.sol\":5401:5428  clientLedger[i].topic.pop() */\n      dup1\n      sload\n      dup1\n      tag_183\n      jumpi\n      invalid\n    tag_183:\n      0x01\n      swap1\n      sub\n      dup2\n      dup2\n      swap1\n      0x00\n      mstore\n      keccak256(0x00, 0x20)\n      add\n      0x00\n      tag_185\n      swap2\n      swap1\n      tag_186\n      jump\t// in\n    tag_185:\n      swap1\n      sstore\n        /* \"Mqttbaru.sol\":5455:5522  makeLog(now, \"deleteTopic\", \"a topic has been deleted\", msg.sender) */\n      tag_187\n        /* \"Mqttbaru.sol\":5463:5466  now */\n      timestamp\n        /* \"Mqttbaru.sol\":5455:5522  makeLog(now, \"deleteTopic\", \"a topic has been deleted\", msg.sender) */\n      mload(0x40)\n      dup1\n      0x40\n      add\n      0x40\n      mstore\n      dup1\n      0x0b\n      dup2\n      mstore\n      0x20\n      add\n      0x64656c657465546f706963000000000000000000000000000000000000000000\n      dup2\n      mstore\n      pop\n      mload(0x40)\n      dup1\n      0x40\n      add\n      0x40\n      mstore\n      dup1\n      0x18\n      dup2\n      mstore\n      0x20\n      add\n      0x6120746f70696320686173206265656e2064656c657465640000000000000000\n      dup2\n      mstore\n      pop\n        /* \"Mqttbaru.sol\":5511:5521  msg.sender */\n      caller\n        /* \"Mqttbaru.sol\":5455:5462  makeLog */\n      tag_117\n        /* \"Mqttbaru.sol\":5455:5522  makeLog(now, \"deleteTopic\", \"a topic has been deleted\", msg.sender) */\n      jump\t// in\n    tag_187:\n        /* \"Mqttbaru.sol\":5169:5546  if(keccak256(abi.encodePacked(_topic)) == keccak256(abi.encodePacked(clientLedger[i].topic[j]))){\r... */\n    tag_168:\n        /* \"Mqttbaru.sol\":5142:5145  j++ */\n      dup1\n      dup1\n      0x01\n      add\n      swap2\n      pop\n      pop\n        /* \"Mqttbaru.sol\":5092:5565  for(uint j = 0; j < clientLedger[i].topic.length; j++){\r... */\n      jump(tag_157)\n    tag_158:\n      pop\n        /* \"Mqttbaru.sol\":5044:5580  if(_id == clientLedger[i].id){\r... */\n    tag_156:\n        /* \"Mqttbaru.sol\":5025:5028  i++ */\n      dup1\n      dup1\n      0x01\n      add\n      swap2\n      pop\n      pop\n        /* \"Mqttbaru.sol\":4983:5591  for(uint i = 0; i <  clientLedger.length; i++){\r... */\n      jump(tag_151)\n    tag_152:\n      pop\n        /* \"Mqttbaru.sol\":4902:5598  function deleteTopic(uint _id, string memory _topic) isManager public {\r... */\n      pop\n      pop\n      jump\t// out\n        /* \"Mqttbaru.sol\":128:158  address payable public manager */\n    tag_49:\n      0x00\n      dup1\n      sload\n      swap1\n      0x0100\n      exp\n      swap1\n      div\n      0xffffffffffffffffffffffffffffffffffffffff\n      and\n      dup2\n      jump\t// out\n        /* \"Mqttbaru.sol\":8044:8660  function getClients() public isManager view returns (uint[] memory, string[] memory, string[] memory) {\r... */\n    tag_53:\n        /* \"Mqttbaru.sol\":8097:8110  uint[] memory */\n      0x60\n        /* \"Mqttbaru.sol\":8112:8127  string[] memory */\n      dup1\n        /* \"Mqttbaru.sol\":8129:8144  string[] memory */\n      0x60\n        /* \"Mqttbaru.sol\":10567:10574  manager */\n      0x00\n      dup1\n      sload\n      swap1\n      0x0100\n      exp\n      swap1\n      div\n      0xffffffffffffffffffffffffffffffffffffffff\n      and\n        /* \"Mqttbaru.sol\":10553:10574  msg.sender == manager */\n      0xffffffffffffffffffffffffffffffffffffffff\n      and\n        /* \"Mqttbaru.sol\":10553:10563  msg.sender */\n      caller\n        /* \"Mqttbaru.sol\":10553:10574  msg.sender == manager */\n      0xffffffffffffffffffffffffffffffffffffffff\n      and\n      eq\n        /* \"Mqttbaru.sol\":10545:10575  require(msg.sender == manager) */\n      tag_189\n      jumpi\n      0x00\n      dup1\n      revert\n    tag_189:\n        /* \"Mqttbaru.sol\":8157:8174  uint[] memory _id */\n      0x60\n        /* \"Mqttbaru.sol\":8188:8199  clientCount */\n      sload(0x06)\n        /* \"Mqttbaru.sol\":8177:8200  new uint[](clientCount) */\n      0xffffffffffffffff\n      dup2\n      gt\n      dup1\n      iszero\n      tag_191\n      jumpi\n      0x00\n      dup1\n      revert\n    tag_191:\n      pop\n      mload(0x40)\n      swap1\n      dup1\n      dup3\n      mstore\n      dup1\n      0x20\n      mul\n      0x20\n      add\n      dup3\n      add\n      0x40\n      mstore\n      dup1\n      iszero\n      tag_192\n      jumpi\n      dup2\n      0x20\n      add\n      0x20\n      dup3\n      mul\n      dup1\n      calldatasize\n      dup4\n      calldatacopy\n      dup1\n      dup3\n      add\n      swap2\n      pop\n      pop\n      swap1\n      pop\n    tag_192:\n      pop\n        /* \"Mqttbaru.sol\":8157:8200  uint[] memory _id = new uint[](clientCount) */\n      swap1\n      pop\n        /* \"Mqttbaru.sol\":8211:8236  string[] memory _username */\n      0x60\n        /* \"Mqttbaru.sol\":8252:8263  clientCount */\n      sload(0x06)\n        /* \"Mqttbaru.sol\":8239:8264  new string[](clientCount) */\n      0xffffffffffffffff\n      dup2\n      gt\n      dup1\n      iszero\n      tag_193\n      jumpi\n      0x00\n      dup1\n      revert\n    tag_193:\n      pop\n      mload(0x40)\n      swap1\n      dup1\n      dup3\n      mstore\n      dup1\n      0x20\n      mul\n      0x20\n      add\n      dup3\n      add\n      0x40\n      mstore\n      dup1\n      iszero\n      tag_194\n      jumpi\n      dup2\n      0x20\n      add\n    tag_195:\n      0x60\n      dup2\n      mstore\n      0x20\n      add\n      swap1\n      0x01\n      swap1\n      sub\n      swap1\n      dup2\n      tag_195\n      jumpi\n      swap1\n      pop\n    tag_194:\n      pop\n        /* \"Mqttbaru.sol\":8211:8264  string[] memory _username = new string[](clientCount) */\n      swap1\n      pop\n        /* \"Mqttbaru.sol\":8275:8300  string[] memory _password */\n      0x60\n        /* \"Mqttbaru.sol\":8316:8327  clientCount */\n      sload(0x06)\n        /* \"Mqttbaru.sol\":8303:8328  new string[](clientCount) */\n      0xffffffffffffffff\n      dup2\n      gt\n      dup1\n      iszero\n      tag_196\n      jumpi\n      0x00\n      dup1\n      revert\n    tag_196:\n      pop\n      mload(0x40)\n      swap1\n      dup1\n      dup3\n      mstore\n      dup1\n      0x20\n      mul\n      0x20\n      add\n      dup3\n      add\n      0x40\n      mstore\n      dup1\n      iszero\n      tag_197\n      jumpi\n      dup2\n      0x20\n      add\n    tag_198:\n      0x60\n      dup2\n      mstore\n      0x20\n      add\n      swap1\n      0x01\n      swap1\n      sub\n      swap1\n      dup2\n      tag_198\n      jumpi\n      swap1\n      pop\n    tag_197:\n      pop\n        /* \"Mqttbaru.sol\":8275:8328  string[] memory _password = new string[](clientCount) */\n      swap1\n      pop\n        /* \"Mqttbaru.sol\":8343:8349  uint i */\n      0x00\n        /* \"Mqttbaru.sol\":8339:8585  for(uint i = 0; i < clientLedger.length; i++){\r... */\n    tag_199:\n        /* \"Mqttbaru.sol\":8359:8371  clientLedger */\n      0x01\n        /* \"Mqttbaru.sol\":8359:8378  clientLedger.length */\n      dup1\n      sload\n      swap1\n      pop\n        /* \"Mqttbaru.sol\":8355:8356  i */\n      dup2\n        /* \"Mqttbaru.sol\":8355:8378  i < clientLedger.length */\n      lt\n        /* \"Mqttbaru.sol\":8339:8585  for(uint i = 0; i < clientLedger.length; i++){\r... */\n      iszero\n      tag_200\n      jumpi\n        /* \"Mqttbaru.sol\":8399:8423  Client storage clientele */\n      0x00\n        /* \"Mqttbaru.sol\":8426:8438  clientLedger */\n      0x01\n        /* \"Mqttbaru.sol\":8439:8440  i */\n      dup3\n        /* \"Mqttbaru.sol\":8426:8441  clientLedger[i] */\n      dup2\n      sload\n      dup2\n      lt\n      tag_202\n      jumpi\n      invalid\n    tag_202:\n      swap1\n      0x00\n      mstore\n      keccak256(0x00, 0x20)\n      swap1\n      0x04\n      mul\n      add\n        /* \"Mqttbaru.sol\":8399:8441  Client storage clientele = clientLedger[i] */\n      swap1\n      pop\n        /* \"Mqttbaru.sol\":8465:8474  clientele */\n      dup1\n        /* \"Mqttbaru.sol\":8465:8477  clientele.id */\n      0x00\n      add\n      sload\n        /* \"Mqttbaru.sol\":8456:8459  _id */\n      dup6\n        /* \"Mqttbaru.sol\":8460:8461  i */\n      dup4\n        /* \"Mqttbaru.sol\":8456:8462  _id[i] */\n      dup2\n      mload\n      dup2\n      lt\n      tag_204\n      jumpi\n      invalid\n    tag_204:\n      0x20\n      mul\n      0x20\n      add\n      add\n        /* \"Mqttbaru.sol\":8456:8477  _id[i] = clientele.id */\n      dup2\n      dup2\n      mstore\n      pop\n      pop\n        /* \"Mqttbaru.sol\":8507:8516  clientele */\n      dup1\n        /* \"Mqttbaru.sol\":8507:8525  clientele.username */\n      0x01\n      add\n        /* \"Mqttbaru.sol\":8492:8525  _username[i] = clientele.username */\n      dup1\n      sload\n      0x01\n      dup2\n      0x01\n      and\n      iszero\n      0x0100\n      mul\n      sub\n      and\n      0x02\n      swap1\n      div\n      dup1\n      0x1f\n      add\n      0x20\n      dup1\n      swap2\n      div\n      mul\n      0x20\n      add\n      mload(0x40)\n      swap1\n      dup2\n      add\n      0x40\n      mstore\n      dup1\n      swap3\n      swap2\n      swap1\n      dup2\n      dup2\n      mstore\n      0x20\n      add\n      dup3\n      dup1\n      sload\n      0x01\n      dup2\n      0x01\n      and\n      iszero\n      0x0100\n      mul\n      sub\n      and\n      0x02\n      swap1\n      div\n      dup1\n      iszero\n      tag_205\n      jumpi\n      dup1\n      0x1f\n      lt\n      tag_206\n      jumpi\n      0x0100\n      dup1\n      dup4\n      sload\n      div\n      mul\n      dup4\n      mstore\n      swap2\n      0x20\n      add\n      swap2\n      jump(tag_205)\n    tag_206:\n      dup3\n      add\n      swap2\n      swap1\n      0x00\n      mstore\n      keccak256(0x00, 0x20)\n      swap1\n    tag_207:\n      dup2\n      sload\n      dup2\n      mstore\n      swap1\n      0x01\n      add\n      swap1\n      0x20\n      add\n      dup1\n      dup4\n      gt\n      tag_207\n      jumpi\n      dup3\n      swap1\n      sub\n      0x1f\n      and\n      dup3\n      add\n      swap2\n    tag_205:\n      pop\n      pop\n      pop\n      pop\n      pop\n        /* \"Mqttbaru.sol\":8492:8501  _username */\n      dup5\n        /* \"Mqttbaru.sol\":8502:8503  i */\n      dup4\n        /* \"Mqttbaru.sol\":8492:8504  _username[i] */\n      dup2\n      mload\n      dup2\n      lt\n      tag_208\n      jumpi\n      invalid\n    tag_208:\n      0x20\n      mul\n      0x20\n      add\n      add\n        /* \"Mqttbaru.sol\":8492:8525  _username[i] = clientele.username */\n      dup2\n      swap1\n      mstore\n      pop\n        /* \"Mqttbaru.sol\":8555:8564  clientele */\n      dup1\n        /* \"Mqttbaru.sol\":8555:8573  clientele.password */\n      0x02\n      add\n        /* \"Mqttbaru.sol\":8540:8573  _password[i] = clientele.password */\n      dup1\n      sload\n      0x01\n      dup2\n      0x01\n      and\n      iszero\n      0x0100\n      mul\n      sub\n      and\n      0x02\n      swap1\n      div\n      dup1\n      0x1f\n      add\n      0x20\n      dup1\n      swap2\n      div\n      mul\n      0x20\n      add\n      mload(0x40)\n      swap1\n      dup2\n      add\n      0x40\n      mstore\n      dup1\n      swap3\n      swap2\n      swap1\n      dup2\n      dup2\n      mstore\n      0x20\n      add\n      dup3\n      dup1\n      sload\n      0x01\n      dup2\n      0x01\n      and\n      iszero\n      0x0100\n      mul\n      sub\n      and\n      0x02\n      swap1\n      div\n      dup1\n      iszero\n      tag_209\n      jumpi\n      dup1\n      0x1f\n      lt\n      tag_210\n      jumpi\n      0x0100\n      dup1\n      dup4\n      sload\n      div\n      mul\n      dup4\n      mstore\n      swap2\n      0x20\n      add\n      swap2\n      jump(tag_209)\n    tag_210:\n      dup3\n      add\n      swap2\n      swap1\n      0x00\n      mstore\n      keccak256(0x00, 0x20)\n      swap1\n    tag_211:\n      dup2\n      sload\n      dup2\n      mstore\n      swap1\n      0x01\n      add\n      swap1\n      0x20\n      add\n      dup1\n      dup4\n      gt\n      tag_211\n      jumpi\n      dup3\n      swap1\n      sub\n      0x1f\n      and\n      dup3\n      add\n      swap2\n    tag_209:\n      pop\n      pop\n      pop\n      pop\n      pop\n        /* \"Mqttbaru.sol\":8540:8549  _password */\n      dup4\n        /* \"Mqttbaru.sol\":8550:8551  i */\n      dup4\n        /* \"Mqttbaru.sol\":8540:8552  _password[i] */\n      dup2\n      mload\n      dup2\n      lt\n      tag_212\n      jumpi\n      invalid\n    tag_212:\n      0x20\n      mul\n      0x20\n      add\n      add\n        /* \"Mqttbaru.sol\":8540:8573  _password[i] = clientele.password */\n      dup2\n      swap1\n      mstore\n      pop\n        /* \"Mqttbaru.sol\":8339:8585  for(uint i = 0; i < clientLedger.length; i++){\r... */\n      pop\n        /* \"Mqttbaru.sol\":8380:8383  i++ */\n      dup1\n      dup1\n      0x01\n      add\n      swap2\n      pop\n      pop\n        /* \"Mqttbaru.sol\":8339:8585  for(uint i = 0; i < clientLedger.length; i++){\r... */\n      jump(tag_199)\n    tag_200:\n      pop\n        /* \"Mqttbaru.sol\":8616:8619  _id */\n      dup3\n        /* \"Mqttbaru.sol\":8621:8630  _username */\n      dup3\n        /* \"Mqttbaru.sol\":8632:8641  _password */\n      dup3\n        /* \"Mqttbaru.sol\":8595:8652  return(\r... */\n      swap6\n      pop\n      swap6\n      pop\n      swap6\n      pop\n      pop\n      pop\n      pop\n        /* \"Mqttbaru.sol\":8044:8660  function getClients() public isManager view returns (uint[] memory, string[] memory, string[] memory) {\r... */\n      swap1\n      swap2\n      swap3\n      jump\t// out\n        /* \"Mqttbaru.sol\":5610:6163  function getTopic(uint _id) isManager public view returns(string[] memory){\r... */\n    tag_59:\n        /* \"Mqttbaru.sol\":5668:5683  string[] memory */\n      0x60\n        /* \"Mqttbaru.sol\":10567:10574  manager */\n      0x00\n      dup1\n      sload\n      swap1\n      0x0100\n      exp\n      swap1\n      div\n      0xffffffffffffffffffffffffffffffffffffffff\n      and\n        /* \"Mqttbaru.sol\":10553:10574  msg.sender == manager */\n      0xffffffffffffffffffffffffffffffffffffffff\n      and\n        /* \"Mqttbaru.sol\":10553:10563  msg.sender */\n      caller\n        /* \"Mqttbaru.sol\":10553:10574  msg.sender == manager */\n      0xffffffffffffffffffffffffffffffffffffffff\n      and\n      eq\n        /* \"Mqttbaru.sol\":10545:10575  require(msg.sender == manager) */\n      tag_214\n      jumpi\n      0x00\n      dup1\n      revert\n    tag_214:\n        /* \"Mqttbaru.sol\":5699:5705  uint i */\n      0x00\n        /* \"Mqttbaru.sol\":5695:6156  for(uint i = 0; i < clientLedger.length; i++){\r... */\n    tag_216:\n        /* \"Mqttbaru.sol\":5715:5727  clientLedger */\n      0x01\n        /* \"Mqttbaru.sol\":5715:5734  clientLedger.length */\n      dup1\n      sload\n      swap1\n      pop\n        /* \"Mqttbaru.sol\":5711:5712  i */\n      dup2\n        /* \"Mqttbaru.sol\":5711:5734  i < clientLedger.length */\n      lt\n        /* \"Mqttbaru.sol\":5695:6156  for(uint i = 0; i < clientLedger.length; i++){\r... */\n      iszero\n      tag_217\n      jumpi\n        /* \"Mqttbaru.sol\":5755:5779  Client storage clientele */\n      0x00\n        /* \"Mqttbaru.sol\":5782:5794  clientLedger */\n      0x01\n        /* \"Mqttbaru.sol\":5795:5796  i */\n      dup3\n        /* \"Mqttbaru.sol\":5782:5797  clientLedger[i] */\n      dup2\n      sload\n      dup2\n      lt\n      tag_219\n      jumpi\n      invalid\n    tag_219:\n      swap1\n      0x00\n      mstore\n      keccak256(0x00, 0x20)\n      swap1\n      0x04\n      mul\n      add\n        /* \"Mqttbaru.sol\":5755:5797  Client storage clientele = clientLedger[i] */\n      swap1\n      pop\n        /* \"Mqttbaru.sol\":5822:5831  clientele */\n      dup1\n        /* \"Mqttbaru.sol\":5822:5834  clientele.id */\n      0x00\n      add\n      sload\n        /* \"Mqttbaru.sol\":5815:5818  _id */\n      dup5\n        /* \"Mqttbaru.sol\":5815:5834  _id == clientele.id */\n      eq\n        /* \"Mqttbaru.sol\":5812:6145  if(_id == clientele.id){\r... */\n      iszero\n      tag_221\n      jumpi\n        /* \"Mqttbaru.sol\":5854:5876  string[] memory _topic */\n      0x60\n        /* \"Mqttbaru.sol\":5892:5901  clientele */\n      dup2\n        /* \"Mqttbaru.sol\":5892:5907  clientele.topic */\n      0x03\n      add\n        /* \"Mqttbaru.sol\":5892:5914  clientele.topic.length */\n      dup1\n      sload\n      swap1\n      pop\n        /* \"Mqttbaru.sol\":5879:5915  new string[](clientele.topic.length) */\n      0xffffffffffffffff\n      dup2\n      gt\n      dup1\n      iszero\n      tag_222\n      jumpi\n      0x00\n      dup1\n      revert\n    tag_222:\n      pop\n      mload(0x40)\n      swap1\n      dup1\n      dup3\n      mstore\n      dup1\n      0x20\n      mul\n      0x20\n      add\n      dup3\n      add\n      0x40\n      mstore\n      dup1\n      iszero\n      tag_223\n      jumpi\n      dup2\n      0x20\n      add\n    tag_224:\n      0x60\n      dup2\n      mstore\n      0x20\n      add\n      swap1\n      0x01\n      swap1\n      sub\n      swap1\n      dup2\n      tag_224\n      jumpi\n      swap1\n      pop\n    tag_223:\n      pop\n        /* \"Mqttbaru.sol\":5854:5915  string[] memory _topic = new string[](clientele.topic.length) */\n      swap1\n      pop\n        /* \"Mqttbaru.sol\":5938:5944  uint j */\n      0x00\n        /* \"Mqttbaru.sol\":5934:6055  for(uint j = 0; j < clientele.topic.length; j++){\r... */\n    tag_225:\n        /* \"Mqttbaru.sol\":5954:5963  clientele */\n      dup3\n        /* \"Mqttbaru.sol\":5954:5969  clientele.topic */\n      0x03\n      add\n        /* \"Mqttbaru.sol\":5954:5976  clientele.topic.length */\n      dup1\n      sload\n      swap1\n      pop\n        /* \"Mqttbaru.sol\":5950:5951  j */\n      dup2\n        /* \"Mqttbaru.sol\":5950:5976  j < clientele.topic.length */\n      lt\n        /* \"Mqttbaru.sol\":5934:6055  for(uint j = 0; j < clientele.topic.length; j++){\r... */\n      iszero\n      tag_226\n      jumpi\n        /* \"Mqttbaru.sol\":6017:6026  clientele */\n      dup3\n        /* \"Mqttbaru.sol\":6017:6032  clientele.topic */\n      0x03\n      add\n        /* \"Mqttbaru.sol\":6033:6034  j */\n      dup2\n        /* \"Mqttbaru.sol\":6017:6035  clientele.topic[j] */\n      dup2\n      sload\n      dup2\n      lt\n      tag_228\n      jumpi\n      invalid\n    tag_228:\n      swap1\n      0x00\n      mstore\n      keccak256(0x00, 0x20)\n      add\n        /* \"Mqttbaru.sol\":6005:6035  _topic[j] = clientele.topic[j] */\n      dup1\n      sload\n      0x01\n      dup2\n      0x01\n      and\n      iszero\n      0x0100\n      mul\n      sub\n      and\n      0x02\n      swap1\n      div\n      dup1\n      0x1f\n      add\n      0x20\n      dup1\n      swap2\n      div\n      mul\n      0x20\n      add\n      mload(0x40)\n      swap1\n      dup2\n      add\n      0x40\n      mstore\n      dup1\n      swap3\n      swap2\n      swap1\n      dup2\n      dup2\n      mstore\n      0x20\n      add\n      dup3\n      dup1\n      sload\n      0x01\n      dup2\n      0x01\n      and\n      iszero\n      0x0100\n      mul\n      sub\n      and\n      0x02\n      swap1\n      div\n      dup1\n      iszero\n      tag_230\n      jumpi\n      dup1\n      0x1f\n      lt\n      tag_231\n      jumpi\n      0x0100\n      dup1\n      dup4\n      sload\n      div\n      mul\n      dup4\n      mstore\n      swap2\n      0x20\n      add\n      swap2\n      jump(tag_230)\n    tag_231:\n      dup3\n      add\n      swap2\n      swap1\n      0x00\n      mstore\n      keccak256(0x00, 0x20)\n      swap1\n    tag_232:\n      dup2\n      sload\n      dup2\n      mstore\n      swap1\n      0x01\n      add\n      swap1\n      0x20\n      add\n      dup1\n      dup4\n      gt\n      tag_232\n      jumpi\n      dup3\n      swap1\n      sub\n      0x1f\n      and\n      dup3\n      add\n      swap2\n    tag_230:\n      pop\n      pop\n      pop\n      pop\n      pop\n        /* \"Mqttbaru.sol\":6005:6011  _topic */\n      dup3\n        /* \"Mqttbaru.sol\":6012:6013  j */\n      dup3\n        /* \"Mqttbaru.sol\":6005:6014  _topic[j] */\n      dup2\n      mload\n      dup2\n      lt\n      tag_233\n      jumpi\n      invalid\n    tag_233:\n      0x20\n      mul\n      0x20\n      add\n      add\n        /* \"Mqttbaru.sol\":6005:6035  _topic[j] = clientele.topic[j] */\n      dup2\n      swap1\n      mstore\n      pop\n        /* \"Mqttbaru.sol\":5978:5981  j++ */\n      dup1\n      dup1\n      0x01\n      add\n      swap2\n      pop\n      pop\n        /* \"Mqttbaru.sol\":5934:6055  for(uint j = 0; j < clientele.topic.length; j++){\r... */\n      jump(tag_225)\n    tag_226:\n      pop\n        /* \"Mqttbaru.sol\":6102:6108  _topic */\n      dup1\n        /* \"Mqttbaru.sol\":6073:6129  return(\r... */\n      swap4\n      pop\n      pop\n      pop\n      pop\n      jump(tag_215)\n        /* \"Mqttbaru.sol\":5812:6145  if(_id == clientele.id){\r... */\n    tag_221:\n        /* \"Mqttbaru.sol\":5695:6156  for(uint i = 0; i < clientLedger.length; i++){\r... */\n      pop\n        /* \"Mqttbaru.sol\":5736:5739  i++ */\n      dup1\n      dup1\n      0x01\n      add\n      swap2\n      pop\n      pop\n        /* \"Mqttbaru.sol\":5695:6156  for(uint i = 0; i < clientLedger.length; i++){\r... */\n      jump(tag_216)\n    tag_217:\n      pop\n        /* \"Mqttbaru.sol\":10586:10587  _ */\n    tag_215:\n        /* \"Mqttbaru.sol\":5610:6163  function getTopic(uint _id) isManager public view returns(string[] memory){\r... */\n      swap2\n      swap1\n      pop\n      jump\t// out\n        /* \"Mqttbaru.sol\":9957:10501  function authorize(bytes32 _token, uint _id, string memory _topic) brokerIsAuth(_token) public view returns(bool) {\r... */\n    tag_65:\n        /* \"Mqttbaru.sol\":10065:10069  bool */\n      0x00\n        /* \"Mqttbaru.sol\":10037:10043  _token */\n      dup4\n        /* \"Mqttbaru.sol\":10788:10854  0x0000000000000000000000000000000000000000000000000000000000000000 */\n      0x00\n        /* \"Mqttbaru.sol\":10762:10854  tokenSlots[msg.sender] != 0x0000000000000000000000000000000000000000000000000000000000000000 */\n      dup1\n      shl\n        /* \"Mqttbaru.sol\":10762:10772  tokenSlots */\n      0x05\n        /* \"Mqttbaru.sol\":10762:10784  tokenSlots[msg.sender] */\n      0x00\n        /* \"Mqttbaru.sol\":10773:10783  msg.sender */\n      caller\n        /* \"Mqttbaru.sol\":10762:10784  tokenSlots[msg.sender] */\n      0xffffffffffffffffffffffffffffffffffffffff\n      and\n      0xffffffffffffffffffffffffffffffffffffffff\n      and\n      dup2\n      mstore\n      0x20\n      add\n      swap1\n      dup2\n      mstore\n      0x20\n      add\n      0x00\n      keccak256\n      sload\n        /* \"Mqttbaru.sol\":10762:10854  tokenSlots[msg.sender] != 0x0000000000000000000000000000000000000000000000000000000000000000 */\n      eq\n      iszero\n        /* \"Mqttbaru.sol\":10754:10855  require(tokenSlots[msg.sender] != 0x0000000000000000000000000000000000000000000000000000000000000000) */\n      tag_235\n      jumpi\n      0x00\n      dup1\n      revert\n    tag_235:\n        /* \"Mqttbaru.sol\":10884:10894  tokenSlots */\n      0x05\n        /* \"Mqttbaru.sol\":10884:10906  tokenSlots[msg.sender] */\n      0x00\n        /* \"Mqttbaru.sol\":10895:10905  msg.sender */\n      caller\n        /* \"Mqttbaru.sol\":10884:10906  tokenSlots[msg.sender] */\n      0xffffffffffffffffffffffffffffffffffffffff\n      and\n      0xffffffffffffffffffffffffffffffffffffffff\n      and\n      dup2\n      mstore\n      0x20\n      add\n      swap1\n      dup2\n      mstore\n      0x20\n      add\n      0x00\n      keccak256\n      sload\n        /* \"Mqttbaru.sol\":10874:10880  _token */\n      dup2\n        /* \"Mqttbaru.sol\":10874:10906  _token == tokenSlots[msg.sender] */\n      eq\n        /* \"Mqttbaru.sol\":10866:10907  require(_token == tokenSlots[msg.sender]) */\n      tag_236\n      jumpi\n      0x00\n      dup1\n      revert\n    tag_236:\n        /* \"Mqttbaru.sol\":10086:10092  uint i */\n      0x00\n        /* \"Mqttbaru.sol\":10082:10471  for(uint i = 0; i < clientLedger.length; i++){\r... */\n    tag_238:\n        /* \"Mqttbaru.sol\":10102:10114  clientLedger */\n      0x01\n        /* \"Mqttbaru.sol\":10102:10121  clientLedger.length */\n      dup1\n      sload\n      swap1\n      pop\n        /* \"Mqttbaru.sol\":10098:10099  i */\n      dup2\n        /* \"Mqttbaru.sol\":10098:10121  i < clientLedger.length */\n      lt\n        /* \"Mqttbaru.sol\":10082:10471  for(uint i = 0; i < clientLedger.length; i++){\r... */\n      iszero\n      tag_239\n      jumpi\n        /* \"Mqttbaru.sol\":10152:10164  clientLedger */\n      0x01\n        /* \"Mqttbaru.sol\":10165:10166  i */\n      dup2\n        /* \"Mqttbaru.sol\":10152:10167  clientLedger[i] */\n      dup2\n      sload\n      dup2\n      lt\n      tag_241\n      jumpi\n      invalid\n    tag_241:\n      swap1\n      0x00\n      mstore\n      keccak256(0x00, 0x20)\n      swap1\n      0x04\n      mul\n      add\n        /* \"Mqttbaru.sol\":10152:10170  clientLedger[i].id */\n      0x00\n      add\n      sload\n        /* \"Mqttbaru.sol\":10145:10148  _id */\n      dup6\n        /* \"Mqttbaru.sol\":10145:10170  _id == clientLedger[i].id */\n      eq\n        /* \"Mqttbaru.sol\":10142:10460  if(_id == clientLedger[i].id){\r... */\n      iszero\n      tag_243\n      jumpi\n        /* \"Mqttbaru.sol\":10194:10200  uint j */\n      0x00\n        /* \"Mqttbaru.sol\":10190:10445  for(uint j = 0; j < clientLedger[i].topic.length ; j++){\r... */\n    tag_244:\n        /* \"Mqttbaru.sol\":10210:10222  clientLedger */\n      0x01\n        /* \"Mqttbaru.sol\":10223:10224  i */\n      dup3\n        /* \"Mqttbaru.sol\":10210:10225  clientLedger[i] */\n      dup2\n      sload\n      dup2\n      lt\n      tag_247\n      jumpi\n      invalid\n    tag_247:\n      swap1\n      0x00\n      mstore\n      keccak256(0x00, 0x20)\n      swap1\n      0x04\n      mul\n      add\n        /* \"Mqttbaru.sol\":10210:10231  clientLedger[i].topic */\n      0x03\n      add\n        /* \"Mqttbaru.sol\":10210:10238  clientLedger[i].topic.length */\n      dup1\n      sload\n      swap1\n      pop\n        /* \"Mqttbaru.sol\":10206:10207  j */\n      dup2\n        /* \"Mqttbaru.sol\":10206:10238  j < clientLedger[i].topic.length */\n      lt\n        /* \"Mqttbaru.sol\":10190:10445  for(uint j = 0; j < clientLedger[i].topic.length ; j++){\r... */\n      iszero\n      tag_245\n      jumpi\n        /* \"Mqttbaru.sol\":10337:10349  clientLedger */\n      0x01\n        /* \"Mqttbaru.sol\":10350:10351  i */\n      dup3\n        /* \"Mqttbaru.sol\":10337:10352  clientLedger[i] */\n      dup2\n      sload\n      dup2\n      lt\n      tag_249\n      jumpi\n      invalid\n    tag_249:\n      swap1\n      0x00\n      mstore\n      keccak256(0x00, 0x20)\n      swap1\n      0x04\n      mul\n      add\n        /* \"Mqttbaru.sol\":10337:10358  clientLedger[i].topic */\n      0x03\n      add\n        /* \"Mqttbaru.sol\":10359:10360  j */\n      dup2\n        /* \"Mqttbaru.sol\":10337:10361  clientLedger[i].topic[j] */\n      dup2\n      sload\n      dup2\n      lt\n      tag_251\n      jumpi\n      invalid\n    tag_251:\n      swap1\n      0x00\n      mstore\n      keccak256(0x00, 0x20)\n      add\n        /* \"Mqttbaru.sol\":10320:10362  abi.encodePacked(clientLedger[i].topic[j]) */\n      add(0x20, mload(0x40))\n      tag_253\n      swap2\n      swap1\n      tag_136\n      jump\t// in\n    tag_253:\n      mload(0x40)\n      0x20\n      dup2\n      dup4\n      sub\n      sub\n      dup2\n      mstore\n      swap1\n      0x40\n      mstore\n        /* \"Mqttbaru.sol\":10310:10363  keccak256(abi.encodePacked(clientLedger[i].topic[j])) */\n      dup1\n      mload\n      swap1\n      0x20\n      add\n      keccak256\n        /* \"Mqttbaru.sol\":10298:10304  _topic */\n      dup6\n        /* \"Mqttbaru.sol\":10281:10305  abi.encodePacked(_topic) */\n      add(0x20, mload(0x40))\n      tag_254\n      swap2\n      swap1\n      tag_138\n      jump\t// in\n    tag_254:\n      mload(0x40)\n      0x20\n      dup2\n      dup4\n      sub\n      sub\n      dup2\n      mstore\n      swap1\n      0x40\n      mstore\n        /* \"Mqttbaru.sol\":10271:10306  keccak256(abi.encodePacked(_topic)) */\n      dup1\n      mload\n      swap1\n      0x20\n      add\n      keccak256\n        /* \"Mqttbaru.sol\":10271:10363  keccak256(abi.encodePacked(_topic)) == keccak256(abi.encodePacked(clientLedger[i].topic[j])) */\n      eq\n        /* \"Mqttbaru.sol\":10268:10426  if(keccak256(abi.encodePacked(_topic)) == keccak256(abi.encodePacked(clientLedger[i].topic[j]))){\r... */\n      iszero\n      tag_255\n      jumpi\n        /* \"Mqttbaru.sol\":10398:10402  true */\n      0x01\n        /* \"Mqttbaru.sol\":10391:10402  return true */\n      swap4\n      pop\n      pop\n      pop\n      jump(tag_237)\n        /* \"Mqttbaru.sol\":10268:10426  if(keccak256(abi.encodePacked(_topic)) == keccak256(abi.encodePacked(clientLedger[i].topic[j]))){\r... */\n    tag_255:\n        /* \"Mqttbaru.sol\":10241:10244  j++ */\n      dup1\n      dup1\n      0x01\n      add\n      swap2\n      pop\n      pop\n        /* \"Mqttbaru.sol\":10190:10445  for(uint j = 0; j < clientLedger[i].topic.length ; j++){\r... */\n      jump(tag_244)\n    tag_245:\n      pop\n        /* \"Mqttbaru.sol\":10142:10460  if(_id == clientLedger[i].id){\r... */\n    tag_243:\n        /* \"Mqttbaru.sol\":10123:10126  i++ */\n      dup1\n      dup1\n      0x01\n      add\n      swap2\n      pop\n      pop\n        /* \"Mqttbaru.sol\":10082:10471  for(uint i = 0; i < clientLedger.length; i++){\r... */\n      jump(tag_238)\n    tag_239:\n      pop\n        /* \"Mqttbaru.sol\":10488:10493  false */\n      0x00\n        /* \"Mqttbaru.sol\":10481:10493  return false */\n      swap2\n      pop\n        /* \"Mqttbaru.sol\":10918:10919  _ */\n    tag_237:\n        /* \"Mqttbaru.sol\":9957:10501  function authorize(bytes32 _token, uint _id, string memory _topic) brokerIsAuth(_token) public view returns(bool) {\r... */\n      pop\n      swap4\n      swap3\n      pop\n      pop\n      pop\n      jump\t// out\n        /* \"Mqttbaru.sol\":2981:3392  function addBroker(address payable _brokeraddress) public isManager {\r... */\n    tag_70:\n        /* \"Mqttbaru.sol\":10567:10574  manager */\n      0x00\n      dup1\n      sload\n      swap1\n      0x0100\n      exp\n      swap1\n      div\n      0xffffffffffffffffffffffffffffffffffffffff\n      and\n        /* \"Mqttbaru.sol\":10553:10574  msg.sender == manager */\n      0xffffffffffffffffffffffffffffffffffffffff\n      and\n        /* \"Mqttbaru.sol\":10553:10563  msg.sender */\n      caller\n        /* \"Mqttbaru.sol\":10553:10574  msg.sender == manager */\n      0xffffffffffffffffffffffffffffffffffffffff\n      and\n      eq\n        /* \"Mqttbaru.sol\":10545:10575  require(msg.sender == manager) */\n      tag_257\n      jumpi\n      0x00\n      dup1\n      revert\n    tag_257:\n        /* \"Mqttbaru.sol\":3070:3093  Broker memory newBroker */\n      tag_259\n      tag_260\n      jump\t// in\n    tag_259:\n        /* \"Mqttbaru.sol\":3096:3189  Broker({\r... */\n      mload(0x40)\n      dup1\n      0x40\n      add\n      0x40\n      mstore\n      dup1\n        /* \"Mqttbaru.sol\":3134:3148  _brokeraddress */\n      dup4\n        /* \"Mqttbaru.sol\":3096:3189  Broker({\r... */\n      0xffffffffffffffffffffffffffffffffffffffff\n      and\n      dup2\n      mstore\n      0x20\n      add\n        /* \"Mqttbaru.sol\":3174:3177  now */\n      timestamp\n        /* \"Mqttbaru.sol\":3096:3189  Broker({\r... */\n      dup2\n      mstore\n      pop\n        /* \"Mqttbaru.sol\":3070:3189  Broker memory newBroker = Broker({\r... */\n      swap1\n      pop\n        /* \"Mqttbaru.sol\":3210:3223  brokerAddress */\n      0x02\n        /* \"Mqttbaru.sol\":3229:3238  newBroker */\n      dup2\n        /* \"Mqttbaru.sol\":3210:3239  brokerAddress.push(newBroker) */\n      swap1\n      dup1\n      0x01\n      dup2\n      sload\n      add\n      dup1\n      dup3\n      sstore\n      dup1\n      swap2\n      pop\n      pop\n      0x01\n      swap1\n      sub\n      swap1\n      0x00\n      mstore\n      keccak256(0x00, 0x20)\n      swap1\n      0x02\n      mul\n      add\n      0x00\n      swap1\n      swap2\n      swap1\n      swap2\n      swap1\n      swap2\n      pop\n      0x00\n      dup3\n      add\n      mload\n      dup2\n      0x00\n      add\n      exp(0x0100, 0x00)\n      dup2\n      sload\n      dup2\n      0xffffffffffffffffffffffffffffffffffffffff\n      mul\n      not\n      and\n      swap1\n      dup4\n      0xffffffffffffffffffffffffffffffffffffffff\n      and\n      mul\n      or\n      swap1\n      sstore\n      pop\n      0x20\n      dup3\n      add\n      mload\n      dup2\n      0x01\n      add\n      sstore\n      pop\n      pop\n        /* \"Mqttbaru.sol\":3283:3287  true */\n      0x01\n        /* \"Mqttbaru.sol\":3250:3264  brokerValidity */\n      0x04\n        /* \"Mqttbaru.sol\":3250:3280  brokerValidity[_brokeraddress] */\n      0x00\n        /* \"Mqttbaru.sol\":3265:3279  _brokeraddress */\n      dup5\n        /* \"Mqttbaru.sol\":3250:3280  brokerValidity[_brokeraddress] */\n      0xffffffffffffffffffffffffffffffffffffffff\n      and\n      0xffffffffffffffffffffffffffffffffffffffff\n      and\n      dup2\n      mstore\n      0x20\n      add\n      swap1\n      dup2\n      mstore\n      0x20\n      add\n      0x00\n      keccak256\n      0x00\n        /* \"Mqttbaru.sol\":3250:3287  brokerValidity[_brokeraddress] = true */\n      0x0100\n      exp\n      dup2\n      sload\n      dup2\n      0xff\n      mul\n      not\n      and\n      swap1\n      dup4\n      iszero\n      iszero\n      mul\n      or\n      swap1\n      sstore\n      pop\n        /* \"Mqttbaru.sol\":3298:3309  brokerCount */\n      0x07\n      0x00\n        /* \"Mqttbaru.sol\":3298:3311  brokerCount++ */\n      dup2\n      sload\n      dup1\n      swap3\n      swap2\n      swap1\n      0x01\n      add\n      swap2\n      swap1\n      pop\n      sstore\n      pop\n        /* \"Mqttbaru.sol\":3332:3374  makeLog(now, \"addBroker\", \"-\", msg.sender) */\n      tag_262\n        /* \"Mqttbaru.sol\":3340:3343  now */\n      timestamp\n        /* \"Mqttbaru.sol\":3332:3374  makeLog(now, \"addBroker\", \"-\", msg.sender) */\n      mload(0x40)\n      dup1\n      0x40\n      add\n      0x40\n      mstore\n      dup1\n      0x09\n      dup2\n      mstore\n      0x20\n      add\n      0x61646442726f6b65720000000000000000000000000000000000000000000000\n      dup2\n      mstore\n      pop\n      mload(0x40)\n      dup1\n      0x40\n      add\n      0x40\n      mstore\n      dup1\n      0x01\n      dup2\n      mstore\n      0x20\n      add\n      0x2d00000000000000000000000000000000000000000000000000000000000000\n      dup2\n      mstore\n      pop\n        /* \"Mqttbaru.sol\":3363:3373  msg.sender */\n      caller\n        /* \"Mqttbaru.sol\":3332:3339  makeLog */\n      tag_117\n        /* \"Mqttbaru.sol\":3332:3374  makeLog(now, \"addBroker\", \"-\", msg.sender) */\n      jump\t// in\n    tag_262:\n        /* \"Mqttbaru.sol\":10586:10587  _ */\n      pop\n        /* \"Mqttbaru.sol\":2981:3392  function addBroker(address payable _brokeraddress) public isManager {\r... */\n      pop\n      jump\t// out\n        /* \"Mqttbaru.sol\":8672:9402  function getLog() public isManager view returns (uint[] memory, string[] memory, string[] memory, address[] memory){\r... */\n    tag_72:\n        /* \"Mqttbaru.sol\":8721:8734  uint[] memory */\n      0x60\n        /* \"Mqttbaru.sol\":8736:8751  string[] memory */\n      dup1\n        /* \"Mqttbaru.sol\":8753:8768  string[] memory */\n      0x60\n        /* \"Mqttbaru.sol\":8770:8786  address[] memory */\n      dup1\n        /* \"Mqttbaru.sol\":10567:10574  manager */\n      0x00\n      dup1\n      sload\n      swap1\n      0x0100\n      exp\n      swap1\n      div\n      0xffffffffffffffffffffffffffffffffffffffff\n      and\n        /* \"Mqttbaru.sol\":10553:10574  msg.sender == manager */\n      0xffffffffffffffffffffffffffffffffffffffff\n      and\n        /* \"Mqttbaru.sol\":10553:10563  msg.sender */\n      caller\n        /* \"Mqttbaru.sol\":10553:10574  msg.sender == manager */\n      0xffffffffffffffffffffffffffffffffffffffff\n      and\n      eq\n        /* \"Mqttbaru.sol\":10545:10575  require(msg.sender == manager) */\n      tag_264\n      jumpi\n      0x00\n      dup1\n      revert\n    tag_264:\n        /* \"Mqttbaru.sol\":8798:8823  uint[] memory _timestamps */\n      0x60\n        /* \"Mqttbaru.sol\":8837:8845  logCount */\n      sload(0x09)\n        /* \"Mqttbaru.sol\":8826:8846  new uint[](logCount) */\n      0xffffffffffffffff\n      dup2\n      gt\n      dup1\n      iszero\n      tag_266\n      jumpi\n      0x00\n      dup1\n      revert\n    tag_266:\n      pop\n      mload(0x40)\n      swap1\n      dup1\n      dup3\n      mstore\n      dup1\n      0x20\n      mul\n      0x20\n      add\n      dup3\n      add\n      0x40\n      mstore\n      dup1\n      iszero\n      tag_267\n      jumpi\n      dup2\n      0x20\n      add\n      0x20\n      dup3\n      mul\n      dup1\n      calldatasize\n      dup4\n      calldatacopy\n      dup1\n      dup3\n      add\n      swap2\n      pop\n      pop\n      swap1\n      pop\n    tag_267:\n      pop\n        /* \"Mqttbaru.sol\":8798:8846  uint[] memory _timestamps = new uint[](logCount) */\n      swap1\n      pop\n        /* \"Mqttbaru.sol\":8857:8881  string[] memory _methods */\n      0x60\n        /* \"Mqttbaru.sol\":8897:8905  logCount */\n      sload(0x09)\n        /* \"Mqttbaru.sol\":8884:8906  new string[](logCount) */\n      0xffffffffffffffff\n      dup2\n      gt\n      dup1\n      iszero\n      tag_268\n      jumpi\n      0x00\n      dup1\n      revert\n    tag_268:\n      pop\n      mload(0x40)\n      swap1\n      dup1\n      dup3\n      mstore\n      dup1\n      0x20\n      mul\n      0x20\n      add\n      dup3\n      add\n      0x40\n      mstore\n      dup1\n      iszero\n      tag_269\n      jumpi\n      dup2\n      0x20\n      add\n    tag_270:\n      0x60\n      dup2\n      mstore\n      0x20\n      add\n      swap1\n      0x01\n      swap1\n      sub\n      swap1\n      dup2\n      tag_270\n      jumpi\n      swap1\n      pop\n    tag_269:\n      pop\n        /* \"Mqttbaru.sol\":8857:8906  string[] memory _methods = new string[](logCount) */\n      swap1\n      pop\n        /* \"Mqttbaru.sol\":8917:8942  string[] memory _messages */\n      0x60\n        /* \"Mqttbaru.sol\":8958:8966  logCount */\n      sload(0x09)\n        /* \"Mqttbaru.sol\":8945:8967  new string[](logCount) */\n      0xffffffffffffffff\n      dup2\n      gt\n      dup1\n      iszero\n      tag_271\n      jumpi\n      0x00\n      dup1\n      revert\n    tag_271:\n      pop\n      mload(0x40)\n      swap1\n      dup1\n      dup3\n      mstore\n      dup1\n      0x20\n      mul\n      0x20\n      add\n      dup3\n      add\n      0x40\n      mstore\n      dup1\n      iszero\n      tag_272\n      jumpi\n      dup2\n      0x20\n      add\n    tag_273:\n      0x60\n      dup2\n      mstore\n      0x20\n      add\n      swap1\n      0x01\n      swap1\n      sub\n      swap1\n      dup2\n      tag_273\n      jumpi\n      swap1\n      pop\n    tag_272:\n      pop\n        /* \"Mqttbaru.sol\":8917:8967  string[] memory _messages = new string[](logCount) */\n      swap1\n      pop\n        /* \"Mqttbaru.sol\":8978:9005  address[] memory _addresses */\n      0x60\n        /* \"Mqttbaru.sol\":9022:9030  logCount */\n      sload(0x09)\n        /* \"Mqttbaru.sol\":9008:9031  new address[](logCount) */\n      0xffffffffffffffff\n      dup2\n      gt\n      dup1\n      iszero\n      tag_274\n      jumpi\n      0x00\n      dup1\n      revert\n    tag_274:\n      pop\n      mload(0x40)\n      swap1\n      dup1\n      dup3\n      mstore\n      dup1\n      0x20\n      mul\n      0x20\n      add\n      dup3\n      add\n      0x40\n      mstore\n      dup1\n      iszero\n      tag_275\n      jumpi\n      dup2\n      0x20\n      add\n      0x20\n      dup3\n      mul\n      dup1\n      calldatasize\n      dup4\n      calldatacopy\n      dup1\n      dup3\n      add\n      swap2\n      pop\n      pop\n      swap1\n      pop\n    tag_275:\n      pop\n        /* \"Mqttbaru.sol\":8978:9031  address[] memory _addresses = new address[](logCount) */\n      swap1\n      pop\n        /* \"Mqttbaru.sol\":9046:9052  uint i */\n      0x00\n        /* \"Mqttbaru.sol\":9042:9332  for(uint i = 0; i < logLedger.length; i++) {\r... */\n    tag_276:\n        /* \"Mqttbaru.sol\":9062:9071  logLedger */\n      0x03\n        /* \"Mqttbaru.sol\":9062:9078  logLedger.length */\n      dup1\n      sload\n      swap1\n      pop\n        /* \"Mqttbaru.sol\":9058:9059  i */\n      dup2\n        /* \"Mqttbaru.sol\":9058:9078  i < logLedger.length */\n      lt\n        /* \"Mqttbaru.sol\":9042:9332  for(uint i = 0; i < logLedger.length; i++) {\r... */\n      iszero\n      tag_277\n      jumpi\n        /* \"Mqttbaru.sol\":9100:9123  LogSend storage logelle */\n      0x00\n        /* \"Mqttbaru.sol\":9126:9135  logLedger */\n      0x03\n        /* \"Mqttbaru.sol\":9136:9137  i */\n      dup3\n        /* \"Mqttbaru.sol\":9126:9138  logLedger[i] */\n      dup2\n      sload\n      dup2\n      lt\n      tag_279\n      jumpi\n      invalid\n    tag_279:\n      swap1\n      0x00\n      mstore\n      keccak256(0x00, 0x20)\n      swap1\n      0x04\n      mul\n      add\n        /* \"Mqttbaru.sol\":9100:9138  LogSend storage logelle = logLedger[i] */\n      swap1\n      pop\n        /* \"Mqttbaru.sol\":9170:9177  logelle */\n      dup1\n        /* \"Mqttbaru.sol\":9170:9187  logelle.timestamp */\n      0x00\n      add\n      sload\n        /* \"Mqttbaru.sol\":9153:9164  _timestamps */\n      dup7\n        /* \"Mqttbaru.sol\":9165:9166  i */\n      dup4\n        /* \"Mqttbaru.sol\":9153:9167  _timestamps[i] */\n      dup2\n      mload\n      dup2\n      lt\n      tag_281\n      jumpi\n      invalid\n    tag_281:\n      0x20\n      mul\n      0x20\n      add\n      add\n        /* \"Mqttbaru.sol\":9153:9187  _timestamps[i] = logelle.timestamp */\n      dup2\n      dup2\n      mstore\n      pop\n      pop\n        /* \"Mqttbaru.sol\":9216:9223  logelle */\n      dup1\n        /* \"Mqttbaru.sol\":9216:9230  logelle.method */\n      0x01\n      add\n        /* \"Mqttbaru.sol\":9202:9230  _methods[i] = logelle.method */\n      dup1\n      sload\n      0x01\n      dup2\n      0x01\n      and\n      iszero\n      0x0100\n      mul\n      sub\n      and\n      0x02\n      swap1\n      div\n      dup1\n      0x1f\n      add\n      0x20\n      dup1\n      swap2\n      div\n      mul\n      0x20\n      add\n      mload(0x40)\n      swap1\n      dup2\n      add\n      0x40\n      mstore\n      dup1\n      swap3\n      swap2\n      swap1\n      dup2\n      dup2\n      mstore\n      0x20\n      add\n      dup3\n      dup1\n      sload\n      0x01\n      dup2\n      0x01\n      and\n      iszero\n      0x0100\n      mul\n      sub\n      and\n      0x02\n      swap1\n      div\n      dup1\n      iszero\n      tag_282\n      jumpi\n      dup1\n      0x1f\n      lt\n      tag_283\n      jumpi\n      0x0100\n      dup1\n      dup4\n      sload\n      div\n      mul\n      dup4\n      mstore\n      swap2\n      0x20\n      add\n      swap2\n      jump(tag_282)\n    tag_283:\n      dup3\n      add\n      swap2\n      swap1\n      0x00\n      mstore\n      keccak256(0x00, 0x20)\n      swap1\n    tag_284:\n      dup2\n      sload\n      dup2\n      mstore\n      swap1\n      0x01\n      add\n      swap1\n      0x20\n      add\n      dup1\n      dup4\n      gt\n      tag_284\n      jumpi\n      dup3\n      swap1\n      sub\n      0x1f\n      and\n      dup3\n      add\n      swap2\n    tag_282:\n      pop\n      pop\n      pop\n      pop\n      pop\n        /* \"Mqttbaru.sol\":9202:9210  _methods */\n      dup6\n        /* \"Mqttbaru.sol\":9211:9212  i */\n      dup4\n        /* \"Mqttbaru.sol\":9202:9213  _methods[i] */\n      dup2\n      mload\n      dup2\n      lt\n      tag_285\n      jumpi\n      invalid\n    tag_285:\n      0x20\n      mul\n      0x20\n      add\n      add\n        /* \"Mqttbaru.sol\":9202:9230  _methods[i] = logelle.method */\n      dup2\n      swap1\n      mstore\n      pop\n        /* \"Mqttbaru.sol\":9260:9267  logelle */\n      dup1\n        /* \"Mqttbaru.sol\":9260:9275  logelle.message */\n      0x02\n      add\n        /* \"Mqttbaru.sol\":9245:9275  _messages[i] = logelle.message */\n      dup1\n      sload\n      0x01\n      dup2\n      0x01\n      and\n      iszero\n      0x0100\n      mul\n      sub\n      and\n      0x02\n      swap1\n      div\n      dup1\n      0x1f\n      add\n      0x20\n      dup1\n      swap2\n      div\n      mul\n      0x20\n      add\n      mload(0x40)\n      swap1\n      dup2\n      add\n      0x40\n      mstore\n      dup1\n      swap3\n      swap2\n      swap1\n      dup2\n      dup2\n      mstore\n      0x20\n      add\n      dup3\n      dup1\n      sload\n      0x01\n      dup2\n      0x01\n      and\n      iszero\n      0x0100\n      mul\n      sub\n      and\n      0x02\n      swap1\n      div\n      dup1\n      iszero\n      tag_286\n      jumpi\n      dup1\n      0x1f\n      lt\n      tag_287\n      jumpi\n      0x0100\n      dup1\n      dup4\n      sload\n      div\n      mul\n      dup4\n      mstore\n      swap2\n      0x20\n      add\n      swap2\n      jump(tag_286)\n    tag_287:\n      dup3\n      add\n      swap2\n      swap1\n      0x00\n      mstore\n      keccak256(0x00, 0x20)\n      swap1\n    tag_288:\n      dup2\n      sload\n      dup2\n      mstore\n      swap1\n      0x01\n      add\n      swap1\n      0x20\n      add\n      dup1\n      dup4\n      gt\n      tag_288\n      jumpi\n      dup3\n      swap1\n      sub\n      0x1f\n      and\n      dup3\n      add\n      swap2\n    tag_286:\n      pop\n      pop\n      pop\n      pop\n      pop\n        /* \"Mqttbaru.sol\":9245:9254  _messages */\n      dup5\n        /* \"Mqttbaru.sol\":9255:9256  i */\n      dup4\n        /* \"Mqttbaru.sol\":9245:9257  _messages[i] */\n      dup2\n      mload\n      dup2\n      lt\n      tag_289\n      jumpi\n      invalid\n    tag_289:\n      0x20\n      mul\n      0x20\n      add\n      add\n        /* \"Mqttbaru.sol\":9245:9275  _messages[i] = logelle.message */\n      dup2\n      swap1\n      mstore\n      pop\n        /* \"Mqttbaru.sol\":9306:9313  logelle */\n      dup1\n        /* \"Mqttbaru.sol\":9306:9320  logelle.sender */\n      0x03\n      add\n      0x00\n      swap1\n      sload\n      swap1\n      0x0100\n      exp\n      swap1\n      div\n      0xffffffffffffffffffffffffffffffffffffffff\n      and\n        /* \"Mqttbaru.sol\":9290:9300  _addresses */\n      dup4\n        /* \"Mqttbaru.sol\":9301:9302  i */\n      dup4\n        /* \"Mqttbaru.sol\":9290:9303  _addresses[i] */\n      dup2\n      mload\n      dup2\n      lt\n      tag_290\n      jumpi\n      invalid\n    tag_290:\n      0x20\n      mul\n      0x20\n      add\n      add\n        /* \"Mqttbaru.sol\":9290:9320  _addresses[i] = logelle.sender */\n      swap1\n      0xffffffffffffffffffffffffffffffffffffffff\n      and\n      swap1\n      dup2\n      0xffffffffffffffffffffffffffffffffffffffff\n      and\n      dup2\n      mstore\n      pop\n      pop\n        /* \"Mqttbaru.sol\":9042:9332  for(uint i = 0; i < logLedger.length; i++) {\r... */\n      pop\n        /* \"Mqttbaru.sol\":9080:9083  i++ */\n      dup1\n      dup1\n      0x01\n      add\n      swap2\n      pop\n      pop\n        /* \"Mqttbaru.sol\":9042:9332  for(uint i = 0; i < logLedger.length; i++) {\r... */\n      jump(tag_276)\n    tag_277:\n      pop\n        /* \"Mqttbaru.sol\":9349:9360  _timestamps */\n      dup4\n        /* \"Mqttbaru.sol\":9362:9370  _methods */\n      dup4\n        /* \"Mqttbaru.sol\":9372:9381  _messages */\n      dup4\n        /* \"Mqttbaru.sol\":9383:9393  _addresses */\n      dup4\n        /* \"Mqttbaru.sol\":9342:9394  return(_timestamps, _methods, _messages, _addresses) */\n      swap8\n      pop\n      swap8\n      pop\n      swap8\n      pop\n      swap8\n      pop\n      pop\n      pop\n      pop\n      pop\n        /* \"Mqttbaru.sol\":8672:9402  function getLog() public isManager view returns (uint[] memory, string[] memory, string[] memory, address[] memory){\r... */\n      swap1\n      swap2\n      swap3\n      swap4\n      jump\t// out\n        /* \"Mqttbaru.sol\":6908:7362  function addClient(string memory _username, string memory _password) isManager public {\r... */\n    tag_78:\n        /* \"Mqttbaru.sol\":10567:10574  manager */\n      0x00\n      dup1\n      sload\n      swap1\n      0x0100\n      exp\n      swap1\n      div\n      0xffffffffffffffffffffffffffffffffffffffff\n      and\n        /* \"Mqttbaru.sol\":10553:10574  msg.sender == manager */\n      0xffffffffffffffffffffffffffffffffffffffff\n      and\n        /* \"Mqttbaru.sol\":10553:10563  msg.sender */\n      caller\n        /* \"Mqttbaru.sol\":10553:10574  msg.sender == manager */\n      0xffffffffffffffffffffffffffffffffffffffff\n      and\n      eq\n        /* \"Mqttbaru.sol\":10545:10575  require(msg.sender == manager) */\n      tag_292\n      jumpi\n      0x00\n      dup1\n      revert\n    tag_292:\n        /* \"Mqttbaru.sol\":7005:7028  Client memory newClient */\n      tag_294\n      tag_295\n      jump\t// in\n    tag_294:\n        /* \"Mqttbaru.sol\":7031:7181  Client({\r... */\n      mload(0x40)\n      dup1\n      0x80\n      add\n      0x40\n      mstore\n      dup1\n        /* \"Mqttbaru.sol\":7057:7064  idCount */\n      sload(0x08)\n        /* \"Mqttbaru.sol\":7031:7181  Client({\r... */\n      dup2\n      mstore\n      0x20\n      add\n        /* \"Mqttbaru.sol\":7089:7098  _username */\n      dup5\n        /* \"Mqttbaru.sol\":7031:7181  Client({\r... */\n      dup2\n      mstore\n      0x20\n      add\n        /* \"Mqttbaru.sol\":7123:7132  _password */\n      dup4\n        /* \"Mqttbaru.sol\":7031:7181  Client({\r... */\n      dup2\n      mstore\n      0x20\n      add\n        /* \"Mqttbaru.sol\":7167:7168  0 */\n      0x00\n        /* \"Mqttbaru.sol\":7154:7169  new string[](0) */\n      0xffffffffffffffff\n      dup2\n      gt\n      dup1\n      iszero\n      tag_296\n      jumpi\n      0x00\n      dup1\n      revert\n    tag_296:\n      pop\n      mload(0x40)\n      swap1\n      dup1\n      dup3\n      mstore\n      dup1\n      0x20\n      mul\n      0x20\n      add\n      dup3\n      add\n      0x40\n      mstore\n      dup1\n      iszero\n      tag_297\n      jumpi\n      dup2\n      0x20\n      add\n    tag_298:\n      0x60\n      dup2\n      mstore\n      0x20\n      add\n      swap1\n      0x01\n      swap1\n      sub\n      swap1\n      dup2\n      tag_298\n      jumpi\n      swap1\n      pop\n    tag_297:\n      pop\n        /* \"Mqttbaru.sol\":7031:7181  Client({\r... */\n      dup2\n      mstore\n      pop\n        /* \"Mqttbaru.sol\":7005:7181  Client memory newClient = Client({\r... */\n      swap1\n      pop\n        /* \"Mqttbaru.sol\":7192:7203  clientCount */\n      0x06\n      0x00\n        /* \"Mqttbaru.sol\":7192:7205  clientCount++ */\n      dup2\n      sload\n      dup1\n      swap3\n      swap2\n      swap1\n      0x01\n      add\n      swap2\n      swap1\n      pop\n      sstore\n      pop\n        /* \"Mqttbaru.sol\":7216:7223  idCount */\n      0x08\n      0x00\n        /* \"Mqttbaru.sol\":7216:7225  idCount++ */\n      dup2\n      sload\n      dup1\n      swap3\n      swap2\n      swap1\n      0x01\n      add\n      swap2\n      swap1\n      pop\n      sstore\n      pop\n        /* \"Mqttbaru.sol\":7236:7248  clientLedger */\n      0x01\n        /* \"Mqttbaru.sol\":7254:7263  newClient */\n      dup2\n        /* \"Mqttbaru.sol\":7236:7264  clientLedger.push(newClient) */\n      swap1\n      dup1\n      0x01\n      dup2\n      sload\n      add\n      dup1\n      dup3\n      sstore\n      dup1\n      swap2\n      pop\n      pop\n      0x01\n      swap1\n      sub\n      swap1\n      0x00\n      mstore\n      keccak256(0x00, 0x20)\n      swap1\n      0x04\n      mul\n      add\n      0x00\n      swap1\n      swap2\n      swap1\n      swap2\n      swap1\n      swap2\n      pop\n      0x00\n      dup3\n      add\n      mload\n      dup2\n      0x00\n      add\n      sstore\n      0x20\n      dup3\n      add\n      mload\n      dup2\n      0x01\n      add\n      swap1\n      dup1\n      mload\n      swap1\n      0x20\n      add\n      swap1\n      tag_300\n      swap3\n      swap2\n      swap1\n      tag_143\n      jump\t// in\n    tag_300:\n      pop\n      0x40\n      dup3\n      add\n      mload\n      dup2\n      0x02\n      add\n      swap1\n      dup1\n      mload\n      swap1\n      0x20\n      add\n      swap1\n      tag_301\n      swap3\n      swap2\n      swap1\n      tag_143\n      jump\t// in\n    tag_301:\n      pop\n      0x60\n      dup3\n      add\n      mload\n      dup2\n      0x03\n      add\n      swap1\n      dup1\n      mload\n      swap1\n      0x20\n      add\n      swap1\n      tag_302\n      swap3\n      swap2\n      swap1\n      tag_303\n      jump\t// in\n    tag_302:\n      pop\n      pop\n      pop\n        /* \"Mqttbaru.sol\":7285:7344  makeLog(now, \"addClient\", \"a new client added\", msg.sender) */\n      tag_304\n        /* \"Mqttbaru.sol\":7293:7296  now */\n      timestamp\n        /* \"Mqttbaru.sol\":7285:7344  makeLog(now, \"addClient\", \"a new client added\", msg.sender) */\n      mload(0x40)\n      dup1\n      0x40\n      add\n      0x40\n      mstore\n      dup1\n      0x09\n      dup2\n      mstore\n      0x20\n      add\n      0x616464436c69656e740000000000000000000000000000000000000000000000\n      dup2\n      mstore\n      pop\n      mload(0x40)\n      dup1\n      0x40\n      add\n      0x40\n      mstore\n      dup1\n      0x12\n      dup2\n      mstore\n      0x20\n      add\n      0x61206e657720636c69656e742061646465640000000000000000000000000000\n      dup2\n      mstore\n      pop\n        /* \"Mqttbaru.sol\":7333:7343  msg.sender */\n      caller\n        /* \"Mqttbaru.sol\":7285:7292  makeLog */\n      tag_117\n        /* \"Mqttbaru.sol\":7285:7344  makeLog(now, \"addClient\", \"a new client added\", msg.sender) */\n      jump\t// in\n    tag_304:\n        /* \"Mqttbaru.sol\":10586:10587  _ */\n      pop\n        /* \"Mqttbaru.sol\":6908:7362  function addClient(string memory _username, string memory _password) isManager public {\r... */\n      pop\n      pop\n      jump\t// out\n        /* \"Mqttbaru.sol\":4476:4890  function deleteClient(uint _id) isManager public {\r... */\n    tag_81:\n        /* \"Mqttbaru.sol\":10567:10574  manager */\n      0x00\n      dup1\n      sload\n      swap1\n      0x0100\n      exp\n      swap1\n      div\n      0xffffffffffffffffffffffffffffffffffffffff\n      and\n        /* \"Mqttbaru.sol\":10553:10574  msg.sender == manager */\n      0xffffffffffffffffffffffffffffffffffffffff\n      and\n        /* \"Mqttbaru.sol\":10553:10563  msg.sender */\n      caller\n        /* \"Mqttbaru.sol\":10553:10574  msg.sender == manager */\n      0xffffffffffffffffffffffffffffffffffffffff\n      and\n      eq\n        /* \"Mqttbaru.sol\":10545:10575  require(msg.sender == manager) */\n      tag_306\n      jumpi\n      0x00\n      dup1\n      revert\n    tag_306:\n        /* \"Mqttbaru.sol\":4540:4546  uint i */\n      0x00\n        /* \"Mqttbaru.sol\":4536:4883  for(uint i = 0; i < clientLedger.length; i++){\r... */\n    tag_308:\n        /* \"Mqttbaru.sol\":4556:4568  clientLedger */\n      0x01\n        /* \"Mqttbaru.sol\":4556:4575  clientLedger.length */\n      dup1\n      sload\n      swap1\n      pop\n        /* \"Mqttbaru.sol\":4552:4553  i */\n      dup2\n        /* \"Mqttbaru.sol\":4552:4575  i < clientLedger.length */\n      lt\n        /* \"Mqttbaru.sol\":4536:4883  for(uint i = 0; i < clientLedger.length; i++){\r... */\n      iszero\n      tag_309\n      jumpi\n        /* \"Mqttbaru.sol\":4606:4618  clientLedger */\n      0x01\n        /* \"Mqttbaru.sol\":4619:4620  i */\n      dup2\n        /* \"Mqttbaru.sol\":4606:4621  clientLedger[i] */\n      dup2\n      sload\n      dup2\n      lt\n      tag_311\n      jumpi\n      invalid\n    tag_311:\n      swap1\n      0x00\n      mstore\n      keccak256(0x00, 0x20)\n      swap1\n      0x04\n      mul\n      add\n        /* \"Mqttbaru.sol\":4606:4624  clientLedger[i].id */\n      0x00\n      add\n      sload\n        /* \"Mqttbaru.sol\":4599:4602  _id */\n      dup3\n        /* \"Mqttbaru.sol\":4599:4624  _id == clientLedger[i].id */\n      eq\n        /* \"Mqttbaru.sol\":4596:4872  if(_id == clientLedger[i].id){\r... */\n      iszero\n      tag_313\n      jumpi\n        /* \"Mqttbaru.sol\":4662:4674  clientLedger */\n      0x01\n        /* \"Mqttbaru.sol\":4697:4698  1 */\n      dup1\n        /* \"Mqttbaru.sol\":4675:4687  clientLedger */\n      dup1\n        /* \"Mqttbaru.sol\":4675:4694  clientLedger.length */\n      dup1\n      sload\n      swap1\n      pop\n        /* \"Mqttbaru.sol\":4675:4698  clientLedger.length - 1 */\n      sub\n        /* \"Mqttbaru.sol\":4662:4699  clientLedger[clientLedger.length - 1] */\n      dup2\n      sload\n      dup2\n      lt\n      tag_314\n      jumpi\n      invalid\n    tag_314:\n      swap1\n      0x00\n      mstore\n      keccak256(0x00, 0x20)\n      swap1\n      0x04\n      mul\n      add\n        /* \"Mqttbaru.sol\":4644:4656  clientLedger */\n      0x01\n        /* \"Mqttbaru.sol\":4657:4658  i */\n      dup3\n        /* \"Mqttbaru.sol\":4644:4659  clientLedger[i] */\n      dup2\n      sload\n      dup2\n      lt\n      tag_316\n      jumpi\n      invalid\n    tag_316:\n      swap1\n      0x00\n      mstore\n      keccak256(0x00, 0x20)\n      swap1\n      0x04\n      mul\n      add\n        /* \"Mqttbaru.sol\":4644:4699  clientLedger[i] = clientLedger[clientLedger.length - 1] */\n      0x00\n      dup3\n      add\n      sload\n      dup2\n      0x00\n      add\n      sstore\n      0x01\n      dup3\n      add\n      dup2\n      0x01\n      add\n      swap1\n      dup1\n      sload\n      0x01\n      dup2\n      0x01\n      and\n      iszero\n      0x0100\n      mul\n      sub\n      and\n      0x02\n      swap1\n      div\n      tag_318\n      swap3\n      swap2\n      swap1\n      tag_319\n      jump\t// in\n    tag_318:\n      pop\n      0x02\n      dup3\n      add\n      dup2\n      0x02\n      add\n      swap1\n      dup1\n      sload\n      0x01\n      dup2\n      0x01\n      and\n      iszero\n      0x0100\n      mul\n      sub\n      and\n      0x02\n      swap1\n      div\n      tag_320\n      swap3\n      swap2\n      swap1\n      tag_319\n      jump\t// in\n    tag_320:\n      pop\n      0x03\n      dup3\n      add\n      dup2\n      0x03\n      add\n      swap1\n      dup1\n      sload\n      tag_321\n      swap3\n      swap2\n      swap1\n      tag_322\n      jump\t// in\n    tag_321:\n      pop\n      swap1\n      pop\n      pop\n        /* \"Mqttbaru.sol\":4718:4730  clientLedger */\n      0x01\n        /* \"Mqttbaru.sol\":4718:4736  clientLedger.pop() */\n      dup1\n      sload\n      dup1\n      tag_323\n      jumpi\n      invalid\n    tag_323:\n      0x01\n      swap1\n      sub\n      dup2\n      dup2\n      swap1\n      0x00\n      mstore\n      keccak256(0x00, 0x20)\n      swap1\n      0x04\n      mul\n      add\n      0x00\n      dup1\n      dup3\n      add\n      0x00\n      swap1\n      sstore\n      0x01\n      dup3\n      add\n      0x00\n      tag_325\n      swap2\n      swap1\n      tag_186\n      jump\t// in\n    tag_325:\n      0x02\n      dup3\n      add\n      0x00\n      tag_326\n      swap2\n      swap1\n      tag_186\n      jump\t// in\n    tag_326:\n      0x03\n      dup3\n      add\n      0x00\n      tag_327\n      swap2\n      swap1\n      tag_328\n      jump\t// in\n    tag_327:\n      pop\n      pop\n      swap1\n      sstore\n        /* \"Mqttbaru.sol\":4755:4766  clientCount */\n      0x06\n      0x00\n        /* \"Mqttbaru.sol\":4755:4768  clientCount-- */\n      dup2\n      sload\n      dup1\n      swap3\n      swap2\n      swap1\n      0x01\n      swap1\n      sub\n      swap2\n      swap1\n      pop\n      sstore\n      pop\n        /* \"Mqttbaru.sol\":4787:4856  makeLog(now, \"deleteClient\", \"a client has been deleted\", msg.sender) */\n      tag_329\n        /* \"Mqttbaru.sol\":4795:4798  now */\n      timestamp\n        /* \"Mqttbaru.sol\":4787:4856  makeLog(now, \"deleteClient\", \"a client has been deleted\", msg.sender) */\n      mload(0x40)\n      dup1\n      0x40\n      add\n      0x40\n      mstore\n      dup1\n      0x0c\n      dup2\n      mstore\n      0x20\n      add\n      0x64656c657465436c69656e740000000000000000000000000000000000000000\n      dup2\n      mstore\n      pop\n      mload(0x40)\n      dup1\n      0x40\n      add\n      0x40\n      mstore\n      dup1\n      0x19\n      dup2\n      mstore\n      0x20\n      add\n      0x6120636c69656e7420686173206265656e2064656c6574656400000000000000\n      dup2\n      mstore\n      pop\n        /* \"Mqttbaru.sol\":4845:4855  msg.sender */\n      caller\n        /* \"Mqttbaru.sol\":4787:4794  makeLog */\n      tag_117\n        /* \"Mqttbaru.sol\":4787:4856  makeLog(now, \"deleteClient\", \"a client has been deleted\", msg.sender) */\n      jump\t// in\n    tag_329:\n        /* \"Mqttbaru.sol\":4596:4872  if(_id == clientLedger[i].id){\r... */\n    tag_313:\n        /* \"Mqttbaru.sol\":4577:4580  i++ */\n      dup1\n      dup1\n      0x01\n      add\n      swap2\n      pop\n      pop\n        /* \"Mqttbaru.sol\":4536:4883  for(uint i = 0; i < clientLedger.length; i++){\r... */\n      jump(tag_308)\n    tag_309:\n      pop\n        /* \"Mqttbaru.sol\":4476:4890  function deleteClient(uint _id) isManager public {\r... */\n      pop\n      jump\t// out\n        /* \"Mqttbaru.sol\":2671:2968  function getBroker() public isManager view returns (address[] memory){\r... */\n    tag_83:\n        /* \"Mqttbaru.sol\":2723:2739  address[] memory */\n      0x60\n        /* \"Mqttbaru.sol\":10567:10574  manager */\n      0x00\n      dup1\n      sload\n      swap1\n      0x0100\n      exp\n      swap1\n      div\n      0xffffffffffffffffffffffffffffffffffffffff\n      and\n        /* \"Mqttbaru.sol\":10553:10574  msg.sender == manager */\n      0xffffffffffffffffffffffffffffffffffffffff\n      and\n        /* \"Mqttbaru.sol\":10553:10563  msg.sender */\n      caller\n        /* \"Mqttbaru.sol\":10553:10574  msg.sender == manager */\n      0xffffffffffffffffffffffffffffffffffffffff\n      and\n      eq\n        /* \"Mqttbaru.sol\":10545:10575  require(msg.sender == manager) */\n      tag_331\n      jumpi\n      0x00\n      dup1\n      revert\n    tag_331:\n        /* \"Mqttbaru.sol\":2751:2776  address[] memory _address */\n      0x60\n        /* \"Mqttbaru.sol\":2793:2804  brokerCount */\n      sload(0x07)\n        /* \"Mqttbaru.sol\":2779:2805  new address[](brokerCount) */\n      0xffffffffffffffff\n      dup2\n      gt\n      dup1\n      iszero\n      tag_333\n      jumpi\n      0x00\n      dup1\n      revert\n    tag_333:\n      pop\n      mload(0x40)\n      swap1\n      dup1\n      dup3\n      mstore\n      dup1\n      0x20\n      mul\n      0x20\n      add\n      dup3\n      add\n      0x40\n      mstore\n      dup1\n      iszero\n      tag_334\n      jumpi\n      dup2\n      0x20\n      add\n      0x20\n      dup3\n      mul\n      dup1\n      calldatasize\n      dup4\n      calldatacopy\n      dup1\n      dup3\n      add\n      swap2\n      pop\n      pop\n      swap1\n      pop\n    tag_334:\n      pop\n        /* \"Mqttbaru.sol\":2751:2805  address[] memory _address = new address[](brokerCount) */\n      swap1\n      pop\n        /* \"Mqttbaru.sol\":2820:2826  uint i */\n      0x00\n        /* \"Mqttbaru.sol\":2816:2935  for(uint i = 0; i < brokerAddress.length; i++) {\r... */\n    tag_335:\n        /* \"Mqttbaru.sol\":2836:2849  brokerAddress */\n      0x02\n        /* \"Mqttbaru.sol\":2836:2856  brokerAddress.length */\n      dup1\n      sload\n      swap1\n      pop\n        /* \"Mqttbaru.sol\":2832:2833  i */\n      dup2\n        /* \"Mqttbaru.sol\":2832:2856  i < brokerAddress.length */\n      lt\n        /* \"Mqttbaru.sol\":2816:2935  for(uint i = 0; i < brokerAddress.length; i++) {\r... */\n      iszero\n      tag_336\n      jumpi\n        /* \"Mqttbaru.sol\":2892:2905  brokerAddress */\n      0x02\n        /* \"Mqttbaru.sol\":2906:2907  i */\n      dup2\n        /* \"Mqttbaru.sol\":2892:2908  brokerAddress[i] */\n      dup2\n      sload\n      dup2\n      lt\n      tag_338\n      jumpi\n      invalid\n    tag_338:\n      swap1\n      0x00\n      mstore\n      keccak256(0x00, 0x20)\n      swap1\n      0x02\n      mul\n      add\n        /* \"Mqttbaru.sol\":2892:2923  brokerAddress[i].broker_address */\n      0x00\n      add\n      0x00\n      swap1\n      sload\n      swap1\n      0x0100\n      exp\n      swap1\n      div\n      0xffffffffffffffffffffffffffffffffffffffff\n      and\n        /* \"Mqttbaru.sol\":2878:2886  _address */\n      dup3\n        /* \"Mqttbaru.sol\":2887:2888  i */\n      dup3\n        /* \"Mqttbaru.sol\":2878:2889  _address[i] */\n      dup2\n      mload\n      dup2\n      lt\n      tag_340\n      jumpi\n      invalid\n    tag_340:\n      0x20\n      mul\n      0x20\n      add\n      add\n        /* \"Mqttbaru.sol\":2878:2923  _address[i] = brokerAddress[i].broker_address */\n      swap1\n      0xffffffffffffffffffffffffffffffffffffffff\n      and\n      swap1\n      dup2\n      0xffffffffffffffffffffffffffffffffffffffff\n      and\n      dup2\n      mstore\n      pop\n      pop\n        /* \"Mqttbaru.sol\":2858:2861  i++ */\n      dup1\n      dup1\n      0x01\n      add\n      swap2\n      pop\n      pop\n        /* \"Mqttbaru.sol\":2816:2935  for(uint i = 0; i < brokerAddress.length; i++) {\r... */\n      jump(tag_335)\n    tag_336:\n      pop\n        /* \"Mqttbaru.sol\":2952:2960  _address */\n      dup1\n        /* \"Mqttbaru.sol\":2945:2960  return _address */\n      swap2\n      pop\n      pop\n        /* \"Mqttbaru.sol\":2671:2968  function getBroker() public isManager view returns (address[] memory){\r... */\n      swap1\n      jump\t// out\n        /* \"Mqttbaru.sol\":9414:9945  function authenticate(bytes32 _token, uint _id, string memory _username, string memory _password) brokerIsAuth(_token) public view returns (bool) {\r... */\n    tag_89:\n        /* \"Mqttbaru.sol\":9554:9558  bool */\n      0x00\n        /* \"Mqttbaru.sol\":9525:9531  _token */\n      dup5\n        /* \"Mqttbaru.sol\":10788:10854  0x0000000000000000000000000000000000000000000000000000000000000000 */\n      0x00\n        /* \"Mqttbaru.sol\":10762:10854  tokenSlots[msg.sender] != 0x0000000000000000000000000000000000000000000000000000000000000000 */\n      dup1\n      shl\n        /* \"Mqttbaru.sol\":10762:10772  tokenSlots */\n      0x05\n        /* \"Mqttbaru.sol\":10762:10784  tokenSlots[msg.sender] */\n      0x00\n        /* \"Mqttbaru.sol\":10773:10783  msg.sender */\n      caller\n        /* \"Mqttbaru.sol\":10762:10784  tokenSlots[msg.sender] */\n      0xffffffffffffffffffffffffffffffffffffffff\n      and\n      0xffffffffffffffffffffffffffffffffffffffff\n      and\n      dup2\n      mstore\n      0x20\n      add\n      swap1\n      dup2\n      mstore\n      0x20\n      add\n      0x00\n      keccak256\n      sload\n        /* \"Mqttbaru.sol\":10762:10854  tokenSlots[msg.sender] != 0x0000000000000000000000000000000000000000000000000000000000000000 */\n      eq\n      iszero\n        /* \"Mqttbaru.sol\":10754:10855  require(tokenSlots[msg.sender] != 0x0000000000000000000000000000000000000000000000000000000000000000) */\n      tag_342\n      jumpi\n      0x00\n      dup1\n      revert\n    tag_342:\n        /* \"Mqttbaru.sol\":10884:10894  tokenSlots */\n      0x05\n        /* \"Mqttbaru.sol\":10884:10906  tokenSlots[msg.sender] */\n      0x00\n        /* \"Mqttbaru.sol\":10895:10905  msg.sender */\n      caller\n        /* \"Mqttbaru.sol\":10884:10906  tokenSlots[msg.sender] */\n      0xffffffffffffffffffffffffffffffffffffffff\n      and\n      0xffffffffffffffffffffffffffffffffffffffff\n      and\n      dup2\n      mstore\n      0x20\n      add\n      swap1\n      dup2\n      mstore\n      0x20\n      add\n      0x00\n      keccak256\n      sload\n        /* \"Mqttbaru.sol\":10874:10880  _token */\n      dup2\n        /* \"Mqttbaru.sol\":10874:10906  _token == tokenSlots[msg.sender] */\n      eq\n        /* \"Mqttbaru.sol\":10866:10907  require(_token == tokenSlots[msg.sender]) */\n      tag_343\n      jumpi\n      0x00\n      dup1\n      revert\n    tag_343:\n        /* \"Mqttbaru.sol\":9575:9581  uint i */\n      0x00\n        /* \"Mqttbaru.sol\":9571:9915  for(uint i = 0; i < clientLedger.length; i++){\r... */\n    tag_345:\n        /* \"Mqttbaru.sol\":9591:9603  clientLedger */\n      0x01\n        /* \"Mqttbaru.sol\":9591:9610  clientLedger.length */\n      dup1\n      sload\n      swap1\n      pop\n        /* \"Mqttbaru.sol\":9587:9588  i */\n      dup2\n        /* \"Mqttbaru.sol\":9587:9610  i < clientLedger.length */\n      lt\n        /* \"Mqttbaru.sol\":9571:9915  for(uint i = 0; i < clientLedger.length; i++){\r... */\n      iszero\n      tag_346\n      jumpi\n        /* \"Mqttbaru.sol\":9641:9653  clientLedger */\n      0x01\n        /* \"Mqttbaru.sol\":9654:9655  i */\n      dup2\n        /* \"Mqttbaru.sol\":9641:9656  clientLedger[i] */\n      dup2\n      sload\n      dup2\n      lt\n      tag_348\n      jumpi\n      invalid\n    tag_348:\n      swap1\n      0x00\n      mstore\n      keccak256(0x00, 0x20)\n      swap1\n      0x04\n      mul\n      add\n        /* \"Mqttbaru.sol\":9641:9659  clientLedger[i].id */\n      0x00\n      add\n      sload\n        /* \"Mqttbaru.sol\":9634:9637  _id */\n      dup7\n        /* \"Mqttbaru.sol\":9634:9659  _id == clientLedger[i].id */\n      eq\n        /* \"Mqttbaru.sol\":9634:9758  _id == clientLedger[i].id && keccak256(abi.encodePacked(_username)) == keccak256(abi.encodePacked(clientLedger[i].username)) */\n      dup1\n      iszero\n      tag_350\n      jumpi\n      pop\n        /* \"Mqttbaru.sol\":9732:9744  clientLedger */\n      0x01\n        /* \"Mqttbaru.sol\":9745:9746  i */\n      dup2\n        /* \"Mqttbaru.sol\":9732:9747  clientLedger[i] */\n      dup2\n      sload\n      dup2\n      lt\n      tag_351\n      jumpi\n      invalid\n    tag_351:\n      swap1\n      0x00\n      mstore\n      keccak256(0x00, 0x20)\n      swap1\n      0x04\n      mul\n      add\n        /* \"Mqttbaru.sol\":9732:9756  clientLedger[i].username */\n      0x01\n      add\n        /* \"Mqttbaru.sol\":9715:9757  abi.encodePacked(clientLedger[i].username) */\n      add(0x20, mload(0x40))\n      tag_353\n      swap2\n      swap1\n      tag_136\n      jump\t// in\n    tag_353:\n      mload(0x40)\n      0x20\n      dup2\n      dup4\n      sub\n      sub\n      dup2\n      mstore\n      swap1\n      0x40\n      mstore\n        /* \"Mqttbaru.sol\":9705:9758  keccak256(abi.encodePacked(clientLedger[i].username)) */\n      dup1\n      mload\n      swap1\n      0x20\n      add\n      keccak256\n        /* \"Mqttbaru.sol\":9690:9699  _username */\n      dup6\n        /* \"Mqttbaru.sol\":9673:9700  abi.encodePacked(_username) */\n      add(0x20, mload(0x40))\n      tag_354\n      swap2\n      swap1\n      tag_138\n      jump\t// in\n    tag_354:\n      mload(0x40)\n      0x20\n      dup2\n      dup4\n      sub\n      sub\n      dup2\n      mstore\n      swap1\n      0x40\n      mstore\n        /* \"Mqttbaru.sol\":9663:9701  keccak256(abi.encodePacked(_username)) */\n      dup1\n      mload\n      swap1\n      0x20\n      add\n      keccak256\n        /* \"Mqttbaru.sol\":9663:9758  keccak256(abi.encodePacked(_username)) == keccak256(abi.encodePacked(clientLedger[i].username)) */\n      eq\n        /* \"Mqttbaru.sol\":9634:9758  _id == clientLedger[i].id && keccak256(abi.encodePacked(_username)) == keccak256(abi.encodePacked(clientLedger[i].username)) */\n    tag_350:\n        /* \"Mqttbaru.sol\":9634:9857  _id == clientLedger[i].id && keccak256(abi.encodePacked(_username)) == keccak256(abi.encodePacked(clientLedger[i].username)) && keccak256(abi.encodePacked(_password)) == keccak256(abi.encodePacked(clientLedger[i].password)) */\n      dup1\n      iszero\n      tag_355\n      jumpi\n      pop\n        /* \"Mqttbaru.sol\":9831:9843  clientLedger */\n      0x01\n        /* \"Mqttbaru.sol\":9844:9845  i */\n      dup2\n        /* \"Mqttbaru.sol\":9831:9846  clientLedger[i] */\n      dup2\n      sload\n      dup2\n      lt\n      tag_356\n      jumpi\n      invalid\n    tag_356:\n      swap1\n      0x00\n      mstore\n      keccak256(0x00, 0x20)\n      swap1\n      0x04\n      mul\n      add\n        /* \"Mqttbaru.sol\":9831:9855  clientLedger[i].password */\n      0x02\n      add\n        /* \"Mqttbaru.sol\":9814:9856  abi.encodePacked(clientLedger[i].password) */\n      add(0x20, mload(0x40))\n      tag_358\n      swap2\n      swap1\n      tag_136\n      jump\t// in\n    tag_358:\n      mload(0x40)\n      0x20\n      dup2\n      dup4\n      sub\n      sub\n      dup2\n      mstore\n      swap1\n      0x40\n      mstore\n        /* \"Mqttbaru.sol\":9804:9857  keccak256(abi.encodePacked(clientLedger[i].password)) */\n      dup1\n      mload\n      swap1\n      0x20\n      add\n      keccak256\n        /* \"Mqttbaru.sol\":9789:9798  _password */\n      dup5\n        /* \"Mqttbaru.sol\":9772:9799  abi.encodePacked(_password) */\n      add(0x20, mload(0x40))\n      tag_359\n      swap2\n      swap1\n      tag_138\n      jump\t// in\n    tag_359:\n      mload(0x40)\n      0x20\n      dup2\n      dup4\n      sub\n      sub\n      dup2\n      mstore\n      swap1\n      0x40\n      mstore\n        /* \"Mqttbaru.sol\":9762:9800  keccak256(abi.encodePacked(_password)) */\n      dup1\n      mload\n      swap1\n      0x20\n      add\n      keccak256\n        /* \"Mqttbaru.sol\":9762:9857  keccak256(abi.encodePacked(_password)) == keccak256(abi.encodePacked(clientLedger[i].password)) */\n      eq\n        /* \"Mqttbaru.sol\":9634:9857  _id == clientLedger[i].id && keccak256(abi.encodePacked(_username)) == keccak256(abi.encodePacked(clientLedger[i].username)) && keccak256(abi.encodePacked(_password)) == keccak256(abi.encodePacked(clientLedger[i].password)) */\n    tag_355:\n        /* \"Mqttbaru.sol\":9631:9904  if(_id == clientLedger[i].id && keccak256(abi.encodePacked(_username)) == keccak256(abi.encodePacked(clientLedger[i].username)) && keccak256(abi.encodePacked(_password)) == keccak256(abi.encodePacked(clientLedger[i].password))){\r... */\n      iszero\n      tag_360\n      jumpi\n        /* \"Mqttbaru.sol\":9884:9888  true */\n      0x01\n        /* \"Mqttbaru.sol\":9877:9888  return true */\n      swap3\n      pop\n      pop\n      jump(tag_344)\n        /* \"Mqttbaru.sol\":9631:9904  if(_id == clientLedger[i].id && keccak256(abi.encodePacked(_username)) == keccak256(abi.encodePacked(clientLedger[i].username)) && keccak256(abi.encodePacked(_password)) == keccak256(abi.encodePacked(clientLedger[i].password))){\r... */\n    tag_360:\n        /* \"Mqttbaru.sol\":9612:9615  i++ */\n      dup1\n      dup1\n      0x01\n      add\n      swap2\n      pop\n      pop\n        /* \"Mqttbaru.sol\":9571:9915  for(uint i = 0; i < clientLedger.length; i++){\r... */\n      jump(tag_345)\n    tag_346:\n      pop\n        /* \"Mqttbaru.sol\":9932:9937  false */\n      0x00\n        /* \"Mqttbaru.sol\":9925:9937  return false */\n      swap2\n      pop\n        /* \"Mqttbaru.sol\":10918:10919  _ */\n    tag_344:\n        /* \"Mqttbaru.sol\":9414:9945  function authenticate(bytes32 _token, uint _id, string memory _username, string memory _password) brokerIsAuth(_token) public view returns (bool) {\r... */\n      pop\n      swap5\n      swap4\n      pop\n      pop\n      pop\n      pop\n      jump\t// out\n        /* \"Mqttbaru.sol\":7380:8032  function updateTopic(uint _id, string memory _topic, string memory _newtopic) isManager public{\r... */\n    tag_94:\n        /* \"Mqttbaru.sol\":10567:10574  manager */\n      0x00\n      dup1\n      sload\n      swap1\n      0x0100\n      exp\n      swap1\n      div\n      0xffffffffffffffffffffffffffffffffffffffff\n      and\n        /* \"Mqttbaru.sol\":10553:10574  msg.sender == manager */\n      0xffffffffffffffffffffffffffffffffffffffff\n      and\n        /* \"Mqttbaru.sol\":10553:10563  msg.sender */\n      caller\n        /* \"Mqttbaru.sol\":10553:10574  msg.sender == manager */\n      0xffffffffffffffffffffffffffffffffffffffff\n      and\n      eq\n        /* \"Mqttbaru.sol\":10545:10575  require(msg.sender == manager) */\n      tag_362\n      jumpi\n      0x00\n      dup1\n      revert\n    tag_362:\n        /* \"Mqttbaru.sol\":7489:7495  uint i */\n      0x00\n        /* \"Mqttbaru.sol\":7485:8025  for(uint i = 0; i < clientLedger.length; i++){\r... */\n    tag_364:\n        /* \"Mqttbaru.sol\":7505:7517  clientLedger */\n      0x01\n        /* \"Mqttbaru.sol\":7505:7524  clientLedger.length */\n      dup1\n      sload\n      swap1\n      pop\n        /* \"Mqttbaru.sol\":7501:7502  i */\n      dup2\n        /* \"Mqttbaru.sol\":7501:7524  i < clientLedger.length */\n      lt\n        /* \"Mqttbaru.sol\":7485:8025  for(uint i = 0; i < clientLedger.length; i++){\r... */\n      iszero\n      tag_365\n      jumpi\n        /* \"Mqttbaru.sol\":7545:7569  Client storage clientele */\n      0x00\n        /* \"Mqttbaru.sol\":7572:7584  clientLedger */\n      0x01\n        /* \"Mqttbaru.sol\":7585:7586  i */\n      dup3\n        /* \"Mqttbaru.sol\":7572:7587  clientLedger[i] */\n      dup2\n      sload\n      dup2\n      lt\n      tag_367\n      jumpi\n      invalid\n    tag_367:\n      swap1\n      0x00\n      mstore\n      keccak256(0x00, 0x20)\n      swap1\n      0x04\n      mul\n      add\n        /* \"Mqttbaru.sol\":7545:7587  Client storage clientele = clientLedger[i] */\n      swap1\n      pop\n        /* \"Mqttbaru.sol\":7612:7621  clientele */\n      dup1\n        /* \"Mqttbaru.sol\":7612:7624  clientele.id */\n      0x00\n      add\n      sload\n        /* \"Mqttbaru.sol\":7605:7608  _id */\n      dup6\n        /* \"Mqttbaru.sol\":7605:7624  _id == clientele.id */\n      eq\n        /* \"Mqttbaru.sol\":7602:8014  if(_id == clientele.id){\r... */\n      iszero\n      tag_369\n      jumpi\n        /* \"Mqttbaru.sol\":7648:7654  uint j */\n      0x00\n        /* \"Mqttbaru.sol\":7644:7999  for(uint j = 0; j < clientele.topic.length; j++){\r... */\n    tag_370:\n        /* \"Mqttbaru.sol\":7664:7673  clientele */\n      dup2\n        /* \"Mqttbaru.sol\":7664:7679  clientele.topic */\n      0x03\n      add\n        /* \"Mqttbaru.sol\":7664:7686  clientele.topic.length */\n      dup1\n      sload\n      swap1\n      pop\n        /* \"Mqttbaru.sol\":7660:7661  j */\n      dup2\n        /* \"Mqttbaru.sol\":7660:7686  j < clientele.topic.length */\n      lt\n        /* \"Mqttbaru.sol\":7644:7999  for(uint j = 0; j < clientele.topic.length; j++){\r... */\n      iszero\n      tag_371\n      jumpi\n        /* \"Mqttbaru.sol\":7796:7802  _topic */\n      dup5\n        /* \"Mqttbaru.sol\":7779:7803  abi.encodePacked(_topic) */\n      add(0x20, mload(0x40))\n      tag_373\n      swap2\n      swap1\n      tag_138\n      jump\t// in\n    tag_373:\n      mload(0x40)\n      0x20\n      dup2\n      dup4\n      sub\n      sub\n      dup2\n      mstore\n      swap1\n      0x40\n      mstore\n        /* \"Mqttbaru.sol\":7769:7804  keccak256(abi.encodePacked(_topic)) */\n      dup1\n      mload\n      swap1\n      0x20\n      add\n      keccak256\n        /* \"Mqttbaru.sol\":7745:7754  clientele */\n      dup3\n        /* \"Mqttbaru.sol\":7745:7760  clientele.topic */\n      0x03\n      add\n        /* \"Mqttbaru.sol\":7761:7762  j */\n      dup3\n        /* \"Mqttbaru.sol\":7745:7763  clientele.topic[j] */\n      dup2\n      sload\n      dup2\n      lt\n      tag_374\n      jumpi\n      invalid\n    tag_374:\n      swap1\n      0x00\n      mstore\n      keccak256(0x00, 0x20)\n      add\n        /* \"Mqttbaru.sol\":7728:7764  abi.encodePacked(clientele.topic[j]) */\n      add(0x20, mload(0x40))\n      tag_376\n      swap2\n      swap1\n      tag_136\n      jump\t// in\n    tag_376:\n      mload(0x40)\n      0x20\n      dup2\n      dup4\n      sub\n      sub\n      dup2\n      mstore\n      swap1\n      0x40\n      mstore\n        /* \"Mqttbaru.sol\":7718:7765  keccak256(abi.encodePacked(clientele.topic[j])) */\n      dup1\n      mload\n      swap1\n      0x20\n      add\n      keccak256\n        /* \"Mqttbaru.sol\":7718:7804  keccak256(abi.encodePacked(clientele.topic[j])) == keccak256(abi.encodePacked(_topic)) */\n      eq\n        /* \"Mqttbaru.sol\":7715:7980  if(keccak256(abi.encodePacked(clientele.topic[j])) == keccak256(abi.encodePacked(_topic))){\r... */\n      iszero\n      tag_377\n      jumpi\n        /* \"Mqttbaru.sol\":7853:7862  _newtopic */\n      dup4\n        /* \"Mqttbaru.sol\":7832:7841  clientele */\n      dup3\n        /* \"Mqttbaru.sol\":7832:7847  clientele.topic */\n      0x03\n      add\n        /* \"Mqttbaru.sol\":7848:7849  j */\n      dup3\n        /* \"Mqttbaru.sol\":7832:7850  clientele.topic[j] */\n      dup2\n      sload\n      dup2\n      lt\n      tag_378\n      jumpi\n      invalid\n    tag_378:\n      swap1\n      0x00\n      mstore\n      keccak256(0x00, 0x20)\n      add\n        /* \"Mqttbaru.sol\":7832:7862  clientele.topic[j] = _newtopic */\n      swap1\n      dup1\n      mload\n      swap1\n      0x20\n      add\n      swap1\n      tag_380\n      swap3\n      swap2\n      swap1\n      tag_143\n      jump\t// in\n    tag_380:\n      pop\n        /* \"Mqttbaru.sol\":7889:7956  makeLog(now, \"updateTopic\", \"a topic has been updated\", msg.sender) */\n      tag_381\n        /* \"Mqttbaru.sol\":7897:7900  now */\n      timestamp\n        /* \"Mqttbaru.sol\":7889:7956  makeLog(now, \"updateTopic\", \"a topic has been updated\", msg.sender) */\n      mload(0x40)\n      dup1\n      0x40\n      add\n      0x40\n      mstore\n      dup1\n      0x0b\n      dup2\n      mstore\n      0x20\n      add\n      0x757064617465546f706963000000000000000000000000000000000000000000\n      dup2\n      mstore\n      pop\n      mload(0x40)\n      dup1\n      0x40\n      add\n      0x40\n      mstore\n      dup1\n      0x18\n      dup2\n      mstore\n      0x20\n      add\n      0x6120746f70696320686173206265656e20757064617465640000000000000000\n      dup2\n      mstore\n      pop\n        /* \"Mqttbaru.sol\":7945:7955  msg.sender */\n      caller\n        /* \"Mqttbaru.sol\":7889:7896  makeLog */\n      tag_117\n        /* \"Mqttbaru.sol\":7889:7956  makeLog(now, \"updateTopic\", \"a topic has been updated\", msg.sender) */\n      jump\t// in\n    tag_381:\n        /* \"Mqttbaru.sol\":7715:7980  if(keccak256(abi.encodePacked(clientele.topic[j])) == keccak256(abi.encodePacked(_topic))){\r... */\n    tag_377:\n        /* \"Mqttbaru.sol\":7688:7691  j++ */\n      dup1\n      dup1\n      0x01\n      add\n      swap2\n      pop\n      pop\n        /* \"Mqttbaru.sol\":7644:7999  for(uint j = 0; j < clientele.topic.length; j++){\r... */\n      jump(tag_370)\n    tag_371:\n      pop\n        /* \"Mqttbaru.sol\":7602:8014  if(_id == clientele.id){\r... */\n    tag_369:\n        /* \"Mqttbaru.sol\":7485:8025  for(uint i = 0; i < clientLedger.length; i++){\r... */\n      pop\n        /* \"Mqttbaru.sol\":7526:7529  i++ */\n      dup1\n      dup1\n      0x01\n      add\n      swap2\n      pop\n      pop\n        /* \"Mqttbaru.sol\":7485:8025  for(uint i = 0; i < clientLedger.length; i++){\r... */\n      jump(tag_364)\n    tag_365:\n      pop\n        /* \"Mqttbaru.sol\":7380:8032  function updateTopic(uint _id, string memory _topic, string memory _newtopic) isManager public{\r... */\n      pop\n      pop\n      pop\n      jump\t// out\n        /* \"Mqttbaru.sol\":1515:2659  function refreshToken() public isBroker {\r... */\n    tag_96:\n        /* \"Mqttbaru.sol\":10646:10660  brokerValidity */\n      0x04\n        /* \"Mqttbaru.sol\":10646:10672  brokerValidity[msg.sender] */\n      0x00\n        /* \"Mqttbaru.sol\":10661:10671  msg.sender */\n      caller\n        /* \"Mqttbaru.sol\":10646:10672  brokerValidity[msg.sender] */\n      0xffffffffffffffffffffffffffffffffffffffff\n      and\n      0xffffffffffffffffffffffffffffffffffffffff\n      and\n      dup2\n      mstore\n      0x20\n      add\n      swap1\n      dup2\n      mstore\n      0x20\n      add\n      0x00\n      keccak256\n      0x00\n      swap1\n      sload\n      swap1\n      0x0100\n      exp\n      swap1\n      div\n      0xff\n      and\n        /* \"Mqttbaru.sol\":10638:10673  require(brokerValidity[msg.sender]) */\n      tag_383\n      jumpi\n      0x00\n      dup1\n      revert\n    tag_383:\n        /* \"Mqttbaru.sol\":1570:1576  uint i */\n      0x00\n        /* \"Mqttbaru.sol\":1566:2652  for(uint i = 0; i < brokerAddress.length; i++) {\r... */\n    tag_385:\n        /* \"Mqttbaru.sol\":1586:1599  brokerAddress */\n      0x02\n        /* \"Mqttbaru.sol\":1586:1606  brokerAddress.length */\n      dup1\n      sload\n      swap1\n      pop\n        /* \"Mqttbaru.sol\":1582:1583  i */\n      dup2\n        /* \"Mqttbaru.sol\":1582:1606  i < brokerAddress.length */\n      lt\n        /* \"Mqttbaru.sol\":1566:2652  for(uint i = 0; i < brokerAddress.length; i++) {\r... */\n      iszero\n      tag_386\n      jumpi\n        /* \"Mqttbaru.sol\":1645:1658  brokerAddress */\n      0x02\n        /* \"Mqttbaru.sol\":1659:1660  i */\n      dup2\n        /* \"Mqttbaru.sol\":1645:1661  brokerAddress[i] */\n      dup2\n      sload\n      dup2\n      lt\n      tag_388\n      jumpi\n      invalid\n    tag_388:\n      swap1\n      0x00\n      mstore\n      keccak256(0x00, 0x20)\n      swap1\n      0x02\n      mul\n      add\n        /* \"Mqttbaru.sol\":1645:1676  brokerAddress[i].broker_address */\n      0x00\n      add\n      0x00\n      swap1\n      sload\n      swap1\n      0x0100\n      exp\n      swap1\n      div\n      0xffffffffffffffffffffffffffffffffffffffff\n      and\n        /* \"Mqttbaru.sol\":1631:1676  msg.sender == brokerAddress[i].broker_address */\n      0xffffffffffffffffffffffffffffffffffffffff\n      and\n        /* \"Mqttbaru.sol\":1631:1641  msg.sender */\n      caller\n        /* \"Mqttbaru.sol\":1631:1676  msg.sender == brokerAddress[i].broker_address */\n      0xffffffffffffffffffffffffffffffffffffffff\n      and\n      eq\n        /* \"Mqttbaru.sol\":1628:2641  if(msg.sender == brokerAddress[i].broker_address){\r... */\n      iszero\n      tag_390\n      jumpi\n        /* \"Mqttbaru.sol\":1696:1709  uint rightnow */\n      0x00\n        /* \"Mqttbaru.sol\":1712:1715  now */\n      timestamp\n        /* \"Mqttbaru.sol\":1696:1715  uint rightnow = now */\n      swap1\n      pop\n        /* \"Mqttbaru.sol\":1734:1743  uint jeda */\n      0x00\n        /* \"Mqttbaru.sol\":1757:1770  brokerAddress */\n      0x02\n        /* \"Mqttbaru.sol\":1771:1772  i */\n      dup4\n        /* \"Mqttbaru.sol\":1757:1773  brokerAddress[i] */\n      dup2\n      sload\n      dup2\n      lt\n      tag_391\n      jumpi\n      invalid\n    tag_391:\n      swap1\n      0x00\n      mstore\n      keccak256(0x00, 0x20)\n      swap1\n      0x02\n      mul\n      add\n        /* \"Mqttbaru.sol\":1757:1783  brokerAddress[i].timestamp */\n      0x01\n      add\n      sload\n        /* \"Mqttbaru.sol\":1746:1754  rightnow */\n      dup3\n        /* \"Mqttbaru.sol\":1746:1783  rightnow - brokerAddress[i].timestamp */\n      sub\n        /* \"Mqttbaru.sol\":1734:1783  uint jeda = rightnow - brokerAddress[i].timestamp */\n      swap1\n      pop\n        /* \"Mqttbaru.sol\":1812:1815  240 */\n      0xf0\n        /* \"Mqttbaru.sol\":1805:1809  jeda */\n      dup2\n        /* \"Mqttbaru.sol\":1805:1815  jeda > 240 */\n      gt\n        /* \"Mqttbaru.sol\":1802:2626  if(jeda > 240){\r... */\n      iszero\n      tag_393\n      jumpi\n        /* \"Mqttbaru.sol\":1868:1876  rightnow */\n      dup2\n        /* \"Mqttbaru.sol\":1839:1852  brokerAddress */\n      0x02\n        /* \"Mqttbaru.sol\":1853:1854  i */\n      dup5\n        /* \"Mqttbaru.sol\":1839:1855  brokerAddress[i] */\n      dup2\n      sload\n      dup2\n      lt\n      tag_394\n      jumpi\n      invalid\n    tag_394:\n      swap1\n      0x00\n      mstore\n      keccak256(0x00, 0x20)\n      swap1\n      0x02\n      mul\n      add\n        /* \"Mqttbaru.sol\":1839:1865  brokerAddress[i].timestamp */\n      0x01\n      add\n        /* \"Mqttbaru.sol\":1839:1876  brokerAddress[i].timestamp = rightnow */\n      dup2\n      swap1\n      sstore\n      pop\n        /* \"Mqttbaru.sol\":1972:1982  msg.sender */\n      caller\n        /* \"Mqttbaru.sol\":1984:1997  brokerAddress */\n      0x02\n        /* \"Mqttbaru.sol\":1998:1999  i */\n      dup5\n        /* \"Mqttbaru.sol\":1984:2000  brokerAddress[i] */\n      dup2\n      sload\n      dup2\n      lt\n      tag_396\n      jumpi\n      invalid\n    tag_396:\n      swap1\n      0x00\n      mstore\n      keccak256(0x00, 0x20)\n      swap1\n      0x02\n      mul\n      add\n        /* \"Mqttbaru.sol\":1984:2010  brokerAddress[i].timestamp */\n      0x01\n      add\n      sload\n        /* \"Mqttbaru.sol\":1955:2011  abi.encodePacked(msg.sender, brokerAddress[i].timestamp) */\n      add(0x20, mload(0x40))\n      tag_398\n      swap3\n      swap2\n      swap1\n      tag_399\n      jump\t// in\n    tag_398:\n      mload(0x40)\n      0x20\n      dup2\n      dup4\n      sub\n      sub\n      dup2\n      mstore\n      swap1\n      0x40\n      mstore\n        /* \"Mqttbaru.sol\":1945:2012  keccak256(abi.encodePacked(msg.sender, brokerAddress[i].timestamp)) */\n      dup1\n      mload\n      swap1\n      0x20\n      add\n      keccak256\n        /* \"Mqttbaru.sol\":1899:1909  tokenSlots */\n      0x05\n        /* \"Mqttbaru.sol\":1899:1942  tokenSlots[brokerAddress[i].broker_address] */\n      0x00\n        /* \"Mqttbaru.sol\":1910:1923  brokerAddress */\n      0x02\n        /* \"Mqttbaru.sol\":1924:1925  i */\n      dup7\n        /* \"Mqttbaru.sol\":1910:1926  brokerAddress[i] */\n      dup2\n      sload\n      dup2\n      lt\n      tag_400\n      jumpi\n      invalid\n    tag_400:\n      swap1\n      0x00\n      mstore\n      keccak256(0x00, 0x20)\n      swap1\n      0x02\n      mul\n      add\n        /* \"Mqttbaru.sol\":1910:1941  brokerAddress[i].broker_address */\n      0x00\n      add\n      0x00\n      swap1\n      sload\n      swap1\n      0x0100\n      exp\n      swap1\n      div\n      0xffffffffffffffffffffffffffffffffffffffff\n      and\n        /* \"Mqttbaru.sol\":1899:1942  tokenSlots[brokerAddress[i].broker_address] */\n      0xffffffffffffffffffffffffffffffffffffffff\n      and\n      0xffffffffffffffffffffffffffffffffffffffff\n      and\n      dup2\n      mstore\n      0x20\n      add\n      swap1\n      dup2\n      mstore\n      0x20\n      add\n      0x00\n      keccak256\n        /* \"Mqttbaru.sol\":1899:2012  tokenSlots[brokerAddress[i].broker_address] = keccak256(abi.encodePacked(msg.sender, brokerAddress[i].timestamp)) */\n      dup2\n      swap1\n      sstore\n      pop\n        /* \"Mqttbaru.sol\":2035:2091  makeLog(now, \"refreshToken\", \"token diubah\", msg.sender) */\n      tag_402\n        /* \"Mqttbaru.sol\":2043:2046  now */\n      timestamp\n        /* \"Mqttbaru.sol\":2035:2091  makeLog(now, \"refreshToken\", \"token diubah\", msg.sender) */\n      mload(0x40)\n      dup1\n      0x40\n      add\n      0x40\n      mstore\n      dup1\n      0x0c\n      dup2\n      mstore\n      0x20\n      add\n      0x72656672657368546f6b656e0000000000000000000000000000000000000000\n      dup2\n      mstore\n      pop\n      mload(0x40)\n      dup1\n      0x40\n      add\n      0x40\n      mstore\n      dup1\n      0x0c\n      dup2\n      mstore\n      0x20\n      add\n      0x746f6b656e206469756261680000000000000000000000000000000000000000\n      dup2\n      mstore\n      pop\n        /* \"Mqttbaru.sol\":2080:2090  msg.sender */\n      caller\n        /* \"Mqttbaru.sol\":2035:2042  makeLog */\n      tag_117\n        /* \"Mqttbaru.sol\":2035:2091  makeLog(now, \"refreshToken\", \"token diubah\", msg.sender) */\n      jump\t// in\n    tag_402:\n        /* \"Mqttbaru.sol\":2119:2173  ref_token(tokenSlots[brokerAddress[i].broker_address]) */\n      0x504e9e94e0c65229aaf8cabe153380cc35da3135e30129bc3195f7e031cdf82b\n        /* \"Mqttbaru.sol\":2129:2139  tokenSlots */\n      0x05\n        /* \"Mqttbaru.sol\":2129:2172  tokenSlots[brokerAddress[i].broker_address] */\n      0x00\n        /* \"Mqttbaru.sol\":2140:2153  brokerAddress */\n      0x02\n        /* \"Mqttbaru.sol\":2154:2155  i */\n      dup7\n        /* \"Mqttbaru.sol\":2140:2156  brokerAddress[i] */\n      dup2\n      sload\n      dup2\n      lt\n      tag_403\n      jumpi\n      invalid\n    tag_403:\n      swap1\n      0x00\n      mstore\n      keccak256(0x00, 0x20)\n      swap1\n      0x02\n      mul\n      add\n        /* \"Mqttbaru.sol\":2140:2171  brokerAddress[i].broker_address */\n      0x00\n      add\n      0x00\n      swap1\n      sload\n      swap1\n      0x0100\n      exp\n      swap1\n      div\n      0xffffffffffffffffffffffffffffffffffffffff\n      and\n        /* \"Mqttbaru.sol\":2129:2172  tokenSlots[brokerAddress[i].broker_address] */\n      0xffffffffffffffffffffffffffffffffffffffff\n      and\n      0xffffffffffffffffffffffffffffffffffffffff\n      and\n      dup2\n      mstore\n      0x20\n      add\n      swap1\n      dup2\n      mstore\n      0x20\n      add\n      0x00\n      keccak256\n      sload\n        /* \"Mqttbaru.sol\":2119:2173  ref_token(tokenSlots[brokerAddress[i].broker_address]) */\n      mload(0x40)\n      tag_405\n      swap2\n      swap1\n      tag_29\n      jump\t// in\n    tag_405:\n      mload(0x40)\n      dup1\n      swap2\n      sub\n      swap1\n      log1\n        /* \"Mqttbaru.sol\":2201:2222  check('token diubah') */\n      0xb6f921ade0de8da9e62e948d90ae6f2dd6b678679ad77753c75fe1b6d9a72004\n      mload(0x40)\n      tag_406\n      swap1\n      tag_407\n      jump\t// in\n    tag_406:\n      mload(0x40)\n      dup1\n      swap2\n      sub\n      swap1\n      log1\n        /* \"Mqttbaru.sol\":1802:2626  if(jeda > 240){\r... */\n      jump(tag_408)\n    tag_393:\n        /* \"Mqttbaru.sol\":2344:2354  msg.sender */\n      caller\n        /* \"Mqttbaru.sol\":2356:2369  brokerAddress */\n      0x02\n        /* \"Mqttbaru.sol\":2370:2371  i */\n      dup5\n        /* \"Mqttbaru.sol\":2356:2372  brokerAddress[i] */\n      dup2\n      sload\n      dup2\n      lt\n      tag_409\n      jumpi\n      invalid\n    tag_409:\n      swap1\n      0x00\n      mstore\n      keccak256(0x00, 0x20)\n      swap1\n      0x02\n      mul\n      add\n        /* \"Mqttbaru.sol\":2356:2382  brokerAddress[i].timestamp */\n      0x01\n      add\n      sload\n        /* \"Mqttbaru.sol\":2327:2383  abi.encodePacked(msg.sender, brokerAddress[i].timestamp) */\n      add(0x20, mload(0x40))\n      tag_411\n      swap3\n      swap2\n      swap1\n      tag_399\n      jump\t// in\n    tag_411:\n      mload(0x40)\n      0x20\n      dup2\n      dup4\n      sub\n      sub\n      dup2\n      mstore\n      swap1\n      0x40\n      mstore\n        /* \"Mqttbaru.sol\":2317:2384  keccak256(abi.encodePacked(msg.sender, brokerAddress[i].timestamp)) */\n      dup1\n      mload\n      swap1\n      0x20\n      add\n      keccak256\n        /* \"Mqttbaru.sol\":2271:2281  tokenSlots */\n      0x05\n        /* \"Mqttbaru.sol\":2271:2314  tokenSlots[brokerAddress[i].broker_address] */\n      0x00\n        /* \"Mqttbaru.sol\":2282:2295  brokerAddress */\n      0x02\n        /* \"Mqttbaru.sol\":2296:2297  i */\n      dup7\n        /* \"Mqttbaru.sol\":2282:2298  brokerAddress[i] */\n      dup2\n      sload\n      dup2\n      lt\n      tag_412\n      jumpi\n      invalid\n    tag_412:\n      swap1\n      0x00\n      mstore\n      keccak256(0x00, 0x20)\n      swap1\n      0x02\n      mul\n      add\n        /* \"Mqttbaru.sol\":2282:2313  brokerAddress[i].broker_address */\n      0x00\n      add\n      0x00\n      swap1\n      sload\n      swap1\n      0x0100\n      exp\n      swap1\n      div\n      0xffffffffffffffffffffffffffffffffffffffff\n      and\n        /* \"Mqttbaru.sol\":2271:2314  tokenSlots[brokerAddress[i].broker_address] */\n      0xffffffffffffffffffffffffffffffffffffffff\n      and\n      0xffffffffffffffffffffffffffffffffffffffff\n      and\n      dup2\n      mstore\n      0x20\n      add\n      swap1\n      dup2\n      mstore\n      0x20\n      add\n      0x00\n      keccak256\n        /* \"Mqttbaru.sol\":2271:2384  tokenSlots[brokerAddress[i].broker_address] = keccak256(abi.encodePacked(msg.sender, brokerAddress[i].timestamp)) */\n      dup2\n      swap1\n      sstore\n      pop\n        /* \"Mqttbaru.sol\":2407:2469  makeLog(now, \"refreshToken\", \"token tidak diubah\", msg.sender) */\n      tag_414\n        /* \"Mqttbaru.sol\":2415:2418  now */\n      timestamp\n        /* \"Mqttbaru.sol\":2407:2469  makeLog(now, \"refreshToken\", \"token tidak diubah\", msg.sender) */\n      mload(0x40)\n      dup1\n      0x40\n      add\n      0x40\n      mstore\n      dup1\n      0x0c\n      dup2\n      mstore\n      0x20\n      add\n      0x72656672657368546f6b656e0000000000000000000000000000000000000000\n      dup2\n      mstore\n      pop\n      mload(0x40)\n      dup1\n      0x40\n      add\n      0x40\n      mstore\n      dup1\n      0x12\n      dup2\n      mstore\n      0x20\n      add\n      0x746f6b656e20746964616b206469756261680000000000000000000000000000\n      dup2\n      mstore\n      pop\n        /* \"Mqttbaru.sol\":2458:2468  msg.sender */\n      caller\n        /* \"Mqttbaru.sol\":2407:2414  makeLog */\n      tag_117\n        /* \"Mqttbaru.sol\":2407:2469  makeLog(now, \"refreshToken\", \"token tidak diubah\", msg.sender) */\n      jump\t// in\n    tag_414:\n        /* \"Mqttbaru.sol\":2497:2551  ref_token(tokenSlots[brokerAddress[i].broker_address]) */\n      0x504e9e94e0c65229aaf8cabe153380cc35da3135e30129bc3195f7e031cdf82b\n        /* \"Mqttbaru.sol\":2507:2517  tokenSlots */\n      0x05\n        /* \"Mqttbaru.sol\":2507:2550  tokenSlots[brokerAddress[i].broker_address] */\n      0x00\n        /* \"Mqttbaru.sol\":2518:2531  brokerAddress */\n      0x02\n        /* \"Mqttbaru.sol\":2532:2533  i */\n      dup7\n        /* \"Mqttbaru.sol\":2518:2534  brokerAddress[i] */\n      dup2\n      sload\n      dup2\n      lt\n      tag_415\n      jumpi\n      invalid\n    tag_415:\n      swap1\n      0x00\n      mstore\n      keccak256(0x00, 0x20)\n      swap1\n      0x02\n      mul\n      add\n        /* \"Mqttbaru.sol\":2518:2549  brokerAddress[i].broker_address */\n      0x00\n      add\n      0x00\n      swap1\n      sload\n      swap1\n      0x0100\n      exp\n      swap1\n      div\n      0xffffffffffffffffffffffffffffffffffffffff\n      and\n        /* \"Mqttbaru.sol\":2507:2550  tokenSlots[brokerAddress[i].broker_address] */\n      0xffffffffffffffffffffffffffffffffffffffff\n      and\n      0xffffffffffffffffffffffffffffffffffffffff\n      and\n      dup2\n      mstore\n      0x20\n      add\n      swap1\n      dup2\n      mstore\n      0x20\n      add\n      0x00\n      keccak256\n      sload\n        /* \"Mqttbaru.sol\":2497:2551  ref_token(tokenSlots[brokerAddress[i].broker_address]) */\n      mload(0x40)\n      tag_417\n      swap2\n      swap1\n      tag_29\n      jump\t// in\n    tag_417:\n      mload(0x40)\n      dup1\n      swap2\n      sub\n      swap1\n      log1\n        /* \"Mqttbaru.sol\":2579:2606  check('token tidak diubah') */\n      0xb6f921ade0de8da9e62e948d90ae6f2dd6b678679ad77753c75fe1b6d9a72004\n      mload(0x40)\n      tag_418\n      swap1\n      tag_419\n      jump\t// in\n    tag_418:\n      mload(0x40)\n      dup1\n      swap2\n      sub\n      swap1\n      log1\n        /* \"Mqttbaru.sol\":1802:2626  if(jeda > 240){\r... */\n    tag_408:\n        /* \"Mqttbaru.sol\":1628:2641  if(msg.sender == brokerAddress[i].broker_address){\r... */\n      pop\n      pop\n    tag_390:\n        /* \"Mqttbaru.sol\":1608:1611  i++ */\n      dup1\n      dup1\n      0x01\n      add\n      swap2\n      pop\n      pop\n        /* \"Mqttbaru.sol\":1566:2652  for(uint i = 0; i < brokerAddress.length; i++) {\r... */\n      jump(tag_385)\n    tag_386:\n      pop\n        /* \"Mqttbaru.sol\":1515:2659  function refreshToken() public isBroker {\r... */\n      jump\t// out\n        /* \"Mqttbaru.sol\":1128:1503  function makeLog(uint _timestamp, string memory _method, string memory _message, address _sender) private {\r... */\n    tag_117:\n        /* \"Mqttbaru.sol\":1245:1266  LogSend memory newlog */\n      tag_421\n      tag_422\n      jump\t// in\n    tag_421:\n        /* \"Mqttbaru.sol\":1269:1421  LogSend({\r... */\n      mload(0x40)\n      dup1\n      0x80\n      add\n      0x40\n      mstore\n      dup1\n        /* \"Mqttbaru.sol\":1304:1314  _timestamp */\n      dup7\n        /* \"Mqttbaru.sol\":1269:1421  LogSend({\r... */\n      dup2\n      mstore\n      0x20\n      add\n        /* \"Mqttbaru.sol\":1338:1345  _method */\n      dup6\n        /* \"Mqttbaru.sol\":1269:1421  LogSend({\r... */\n      dup2\n      mstore\n      0x20\n      add\n        /* \"Mqttbaru.sol\":1370:1378  _message */\n      dup5\n        /* \"Mqttbaru.sol\":1269:1421  LogSend({\r... */\n      dup2\n      mstore\n      0x20\n      add\n        /* \"Mqttbaru.sol\":1402:1409  _sender */\n      dup4\n        /* \"Mqttbaru.sol\":1269:1421  LogSend({\r... */\n      0xffffffffffffffffffffffffffffffffffffffff\n      and\n      dup2\n      mstore\n      pop\n        /* \"Mqttbaru.sol\":1245:1421  LogSend memory newlog = LogSend({\r... */\n      swap1\n      pop\n        /* \"Mqttbaru.sol\":1442:1451  logLedger */\n      0x03\n        /* \"Mqttbaru.sol\":1457:1463  newlog */\n      dup2\n        /* \"Mqttbaru.sol\":1442:1464  logLedger.push(newlog) */\n      swap1\n      dup1\n      0x01\n      dup2\n      sload\n      add\n      dup1\n      dup3\n      sstore\n      dup1\n      swap2\n      pop\n      pop\n      0x01\n      swap1\n      sub\n      swap1\n      0x00\n      mstore\n      keccak256(0x00, 0x20)\n      swap1\n      0x04\n      mul\n      add\n      0x00\n      swap1\n      swap2\n      swap1\n      swap2\n      swap1\n      swap2\n      pop\n      0x00\n      dup3\n      add\n      mload\n      dup2\n      0x00\n      add\n      sstore\n      0x20\n      dup3\n      add\n      mload\n      dup2\n      0x01\n      add\n      swap1\n      dup1\n      mload\n      swap1\n      0x20\n      add\n      swap1\n      tag_424\n      swap3\n      swap2\n      swap1\n      tag_143\n      jump\t// in\n    tag_424:\n      pop\n      0x40\n      dup3\n      add\n      mload\n      dup2\n      0x02\n      add\n      swap1\n      dup1\n      mload\n      swap1\n      0x20\n      add\n      swap1\n      tag_425\n      swap3\n      swap2\n      swap1\n      tag_143\n      jump\t// in\n    tag_425:\n      pop\n      0x60\n      dup3\n      add\n      mload\n      dup2\n      0x03\n      add\n      exp(0x0100, 0x00)\n      dup2\n      sload\n      dup2\n      0xffffffffffffffffffffffffffffffffffffffff\n      mul\n      not\n      and\n      swap1\n      dup4\n      0xffffffffffffffffffffffffffffffffffffffff\n      and\n      mul\n      or\n      swap1\n      sstore\n      pop\n      pop\n      pop\n        /* \"Mqttbaru.sol\":1485:1493  logCount */\n      0x09\n      0x00\n        /* \"Mqttbaru.sol\":1485:1495  logCount++ */\n      dup2\n      sload\n      dup1\n      swap3\n      swap2\n      swap1\n      0x01\n      add\n      swap2\n      swap1\n      pop\n      sstore\n      pop\n        /* \"Mqttbaru.sol\":1128:1503  function makeLog(uint _timestamp, string memory _method, string memory _message, address _sender) private {\r... */\n      pop\n      pop\n      pop\n      pop\n      pop\n      jump\t// out\n    tag_143:\n      dup3\n      dup1\n      sload\n      0x01\n      dup2\n      0x01\n      and\n      iszero\n      0x0100\n      mul\n      sub\n      and\n      0x02\n      swap1\n      div\n      swap1\n      0x00\n      mstore\n      keccak256(0x00, 0x20)\n      swap1\n      0x1f\n      add\n      0x20\n      swap1\n      div\n      dup2\n      add\n      swap3\n      dup3\n      0x1f\n      lt\n      tag_427\n      jumpi\n      dup1\n      mload\n      not(0xff)\n      and\n      dup4\n      dup1\n      add\n      or\n      dup6\n      sstore\n      jump(tag_426)\n    tag_427:\n      dup3\n      dup1\n      add\n      0x01\n      add\n      dup6\n      sstore\n      dup3\n      iszero\n      tag_426\n      jumpi\n      swap2\n      dup3\n      add\n    tag_428:\n      dup3\n      dup2\n      gt\n      iszero\n      tag_429\n      jumpi\n      dup3\n      mload\n      dup3\n      sstore\n      swap2\n      0x20\n      add\n      swap2\n      swap1\n      0x01\n      add\n      swap1\n      jump(tag_428)\n    tag_429:\n    tag_426:\n      pop\n      swap1\n      pop\n      tag_430\n      swap2\n      swap1\n      tag_431\n      jump\t// in\n    tag_430:\n      pop\n      swap1\n      jump\t// out\n    tag_180:\n      dup3\n      dup1\n      sload\n      0x01\n      dup2\n      0x01\n      and\n      iszero\n      0x0100\n      mul\n      sub\n      and\n      0x02\n      swap1\n      div\n      swap1\n      0x00\n      mstore\n      keccak256(0x00, 0x20)\n      swap1\n      0x1f\n      add\n      0x20\n      swap1\n      div\n      dup2\n      add\n      swap3\n      dup3\n      0x1f\n      lt\n      tag_433\n      jumpi\n      dup1\n      sload\n      dup6\n      sstore\n      jump(tag_432)\n    tag_433:\n      dup3\n      dup1\n      add\n      0x01\n      add\n      dup6\n      sstore\n      dup3\n      iszero\n      tag_432\n      jumpi\n      0x00\n      mstore\n      keccak256(0x00, 0x20)\n      swap2\n      0x1f\n      add\n      0x20\n      swap1\n      div\n      dup3\n      add\n    tag_434:\n      dup3\n      dup2\n      gt\n      iszero\n      tag_435\n      jumpi\n      dup3\n      sload\n      dup3\n      sstore\n      swap2\n      0x01\n      add\n      swap2\n      swap1\n      0x01\n      add\n      swap1\n      jump(tag_434)\n    tag_435:\n    tag_432:\n      pop\n      swap1\n      pop\n      tag_436\n      swap2\n      swap1\n      tag_431\n      jump\t// in\n    tag_436:\n      pop\n      swap1\n      jump\t// out\n    tag_186:\n      pop\n      dup1\n      sload\n      0x01\n      dup2\n      0x01\n      and\n      iszero\n      0x0100\n      mul\n      sub\n      and\n      0x02\n      swap1\n      div\n      0x00\n      dup3\n      sstore\n      dup1\n      0x1f\n      lt\n      tag_438\n      jumpi\n      pop\n      jump(tag_437)\n    tag_438:\n      0x1f\n      add\n      0x20\n      swap1\n      div\n      swap1\n      0x00\n      mstore\n      keccak256(0x00, 0x20)\n      swap1\n      dup2\n      add\n      swap1\n      tag_439\n      swap2\n      swap1\n      tag_431\n      jump\t// in\n    tag_439:\n    tag_437:\n      pop\n      jump\t// out\n    tag_260:\n      mload(0x40)\n      dup1\n      0x40\n      add\n      0x40\n      mstore\n      dup1\n      and(0xffffffffffffffffffffffffffffffffffffffff, 0x00)\n      dup2\n      mstore\n      0x20\n      add\n      0x00\n      dup2\n      mstore\n      pop\n      swap1\n      jump\t// out\n    tag_295:\n      mload(0x40)\n      dup1\n      0x80\n      add\n      0x40\n      mstore\n      dup1\n      0x00\n      dup2\n      mstore\n      0x20\n      add\n      0x60\n      dup2\n      mstore\n      0x20\n      add\n      0x60\n      dup2\n      mstore\n      0x20\n      add\n      0x60\n      dup2\n      mstore\n      pop\n      swap1\n      jump\t// out\n    tag_303:\n      dup3\n      dup1\n      sload\n      dup3\n      dup3\n      sstore\n      swap1\n      0x00\n      mstore\n      keccak256(0x00, 0x20)\n      swap1\n      dup2\n      add\n      swap3\n      dup3\n      iszero\n      tag_440\n      jumpi\n      swap2\n      0x20\n      mul\n      dup3\n      add\n    tag_441:\n      dup3\n      dup2\n      gt\n      iszero\n      tag_442\n      jumpi\n      dup3\n      mload\n      dup3\n      swap1\n      dup1\n      mload\n      swap1\n      0x20\n      add\n      swap1\n      tag_443\n      swap3\n      swap2\n      swap1\n      tag_143\n      jump\t// in\n    tag_443:\n      pop\n      swap2\n      0x20\n      add\n      swap2\n      swap1\n      0x01\n      add\n      swap1\n      jump(tag_441)\n    tag_442:\n    tag_440:\n      pop\n      swap1\n      pop\n      tag_444\n      swap2\n      swap1\n      tag_445\n      jump\t// in\n    tag_444:\n      pop\n      swap1\n      jump\t// out\n    tag_319:\n      dup3\n      dup1\n      sload\n      0x01\n      dup2\n      0x01\n      and\n      iszero\n      0x0100\n      mul\n      sub\n      and\n      0x02\n      swap1\n      div\n      swap1\n      0x00\n      mstore\n      keccak256(0x00, 0x20)\n      swap1\n      0x1f\n      add\n      0x20\n      swap1\n      div\n      dup2\n      add\n      swap3\n      dup3\n      0x1f\n      lt\n      tag_447\n      jumpi\n      dup1\n      sload\n      dup6\n      sstore\n      jump(tag_446)\n    tag_447:\n      dup3\n      dup1\n      add\n      0x01\n      add\n      dup6\n      sstore\n      dup3\n      iszero\n      tag_446\n      jumpi\n      0x00\n      mstore\n      keccak256(0x00, 0x20)\n      swap2\n      0x1f\n      add\n      0x20\n      swap1\n      div\n      dup3\n      add\n    tag_448:\n      dup3\n      dup2\n      gt\n      iszero\n      tag_449\n      jumpi\n      dup3\n      sload\n      dup3\n      sstore\n      swap2\n      0x01\n      add\n      swap2\n      swap1\n      0x01\n      add\n      swap1\n      jump(tag_448)\n    tag_449:\n    tag_446:\n      pop\n      swap1\n      pop\n      tag_450\n      swap2\n      swap1\n      tag_431\n      jump\t// in\n    tag_450:\n      pop\n      swap1\n      jump\t// out\n    tag_322:\n      dup3\n      dup1\n      sload\n      dup3\n      dup3\n      sstore\n      swap1\n      0x00\n      mstore\n      keccak256(0x00, 0x20)\n      swap1\n      dup2\n      add\n      swap3\n      dup3\n      iszero\n      tag_451\n      jumpi\n      0x00\n      mstore\n      keccak256(0x00, 0x20)\n      swap2\n      dup3\n      add\n    tag_452:\n      dup3\n      dup2\n      gt\n      iszero\n      tag_453\n      jumpi\n      dup3\n      dup3\n      swap1\n      dup1\n      sload\n      0x01\n      dup2\n      0x01\n      and\n      iszero\n      0x0100\n      mul\n      sub\n      and\n      0x02\n      swap1\n      div\n      tag_454\n      swap3\n      swap2\n      swap1\n      tag_319\n      jump\t// in\n    tag_454:\n      pop\n      swap2\n      0x01\n      add\n      swap2\n      swap1\n      0x01\n      add\n      swap1\n      jump(tag_452)\n    tag_453:\n    tag_451:\n      pop\n      swap1\n      pop\n      tag_455\n      swap2\n      swap1\n      tag_445\n      jump\t// in\n    tag_455:\n      pop\n      swap1\n      jump\t// out\n    tag_328:\n      pop\n      dup1\n      sload\n      0x00\n      dup3\n      sstore\n      swap1\n      0x00\n      mstore\n      keccak256(0x00, 0x20)\n      swap1\n      dup2\n      add\n      swap1\n      tag_457\n      swap2\n      swap1\n      tag_445\n      jump\t// in\n    tag_457:\n      pop\n      jump\t// out\n    tag_422:\n      mload(0x40)\n      dup1\n      0x80\n      add\n      0x40\n      mstore\n      dup1\n      0x00\n      dup2\n      mstore\n      0x20\n      add\n      0x60\n      dup2\n      mstore\n      0x20\n      add\n      0x60\n      dup2\n      mstore\n      0x20\n      add\n      and(0xffffffffffffffffffffffffffffffffffffffff, 0x00)\n      dup2\n      mstore\n      pop\n      swap1\n      jump\t// out\n    tag_431:\n    tag_458:\n      dup1\n      dup3\n      gt\n      iszero\n      tag_459\n      jumpi\n      0x00\n      dup2\n      0x00\n      swap1\n      sstore\n      pop\n      0x01\n      add\n      jump(tag_458)\n    tag_459:\n      pop\n      swap1\n      jump\t// out\n    tag_445:\n    tag_460:\n      dup1\n      dup3\n      gt\n      iszero\n      tag_461\n      jumpi\n      0x00\n      dup2\n      dup2\n      tag_462\n      swap2\n      swap1\n      tag_186\n      jump\t// in\n    tag_462:\n      pop\n      0x01\n      add\n      jump(tag_460)\n    tag_461:\n      pop\n      swap1\n      jump\t// out\n        /* \"--CODEGEN--\":5:135   */\n    tag_464:\n      0x00\n        /* \"--CODEGEN--\":85:91   */\n      dup2\n        /* \"--CODEGEN--\":72:92   */\n      calldataload\n        /* \"--CODEGEN--\":63:92   */\n      swap1\n      pop\n        /* \"--CODEGEN--\":97:130   */\n      tag_466\n        /* \"--CODEGEN--\":124:129   */\n      dup2\n        /* \"--CODEGEN--\":97:130   */\n      tag_467\n      jump\t// in\n    tag_466:\n        /* \"--CODEGEN--\":57:135   */\n      swap3\n      swap2\n      pop\n      pop\n      jump\t// out\n        /* \"--CODEGEN--\":142:288   */\n    tag_468:\n      0x00\n        /* \"--CODEGEN--\":230:236   */\n      dup2\n        /* \"--CODEGEN--\":217:237   */\n      calldataload\n        /* \"--CODEGEN--\":208:237   */\n      swap1\n      pop\n        /* \"--CODEGEN--\":242:283   */\n      tag_470\n        /* \"--CODEGEN--\":277:282   */\n      dup2\n        /* \"--CODEGEN--\":242:283   */\n      tag_471\n      jump\t// in\n    tag_470:\n        /* \"--CODEGEN--\":202:288   */\n      swap3\n      swap2\n      pop\n      pop\n      jump\t// out\n        /* \"--CODEGEN--\":295:425   */\n    tag_472:\n      0x00\n        /* \"--CODEGEN--\":375:381   */\n      dup2\n        /* \"--CODEGEN--\":362:382   */\n      calldataload\n        /* \"--CODEGEN--\":353:382   */\n      swap1\n      pop\n        /* \"--CODEGEN--\":387:420   */\n      tag_474\n        /* \"--CODEGEN--\":414:419   */\n      dup2\n        /* \"--CODEGEN--\":387:420   */\n      tag_475\n      jump\t// in\n    tag_474:\n        /* \"--CODEGEN--\":347:425   */\n      swap3\n      swap2\n      pop\n      pop\n      jump\t// out\n        /* \"--CODEGEN--\":433:875   */\n    tag_476:\n      0x00\n        /* \"--CODEGEN--\":535:538   */\n      dup3\n        /* \"--CODEGEN--\":528:532   */\n      0x1f\n        /* \"--CODEGEN--\":520:526   */\n      dup4\n        /* \"--CODEGEN--\":516:533   */\n      add\n        /* \"--CODEGEN--\":512:539   */\n      slt\n        /* \"--CODEGEN--\":502:504   */\n      tag_478\n      jumpi\n        /* \"--CODEGEN--\":553:554   */\n      0x00\n        /* \"--CODEGEN--\":550:551   */\n      dup1\n        /* \"--CODEGEN--\":543:555   */\n      revert\n        /* \"--CODEGEN--\":502:504   */\n    tag_478:\n        /* \"--CODEGEN--\":590:596   */\n      dup2\n        /* \"--CODEGEN--\":577:597   */\n      calldataload\n        /* \"--CODEGEN--\":612:677   */\n      tag_479\n        /* \"--CODEGEN--\":627:676   */\n      tag_480\n        /* \"--CODEGEN--\":669:675   */\n      dup3\n        /* \"--CODEGEN--\":627:676   */\n      tag_481\n      jump\t// in\n    tag_480:\n        /* \"--CODEGEN--\":612:677   */\n      tag_482\n      jump\t// in\n    tag_479:\n        /* \"--CODEGEN--\":603:677   */\n      swap2\n      pop\n        /* \"--CODEGEN--\":697:703   */\n      dup1\n        /* \"--CODEGEN--\":690:695   */\n      dup3\n        /* \"--CODEGEN--\":683:704   */\n      mstore\n        /* \"--CODEGEN--\":733:737   */\n      0x20\n        /* \"--CODEGEN--\":725:731   */\n      dup4\n        /* \"--CODEGEN--\":721:738   */\n      add\n        /* \"--CODEGEN--\":766:770   */\n      0x20\n        /* \"--CODEGEN--\":759:764   */\n      dup4\n        /* \"--CODEGEN--\":755:771   */\n      add\n        /* \"--CODEGEN--\":801:804   */\n      dup6\n        /* \"--CODEGEN--\":792:798   */\n      dup4\n        /* \"--CODEGEN--\":787:790   */\n      dup4\n        /* \"--CODEGEN--\":783:799   */\n      add\n        /* \"--CODEGEN--\":780:805   */\n      gt\n        /* \"--CODEGEN--\":777:779   */\n      iszero\n      tag_483\n      jumpi\n        /* \"--CODEGEN--\":818:819   */\n      0x00\n        /* \"--CODEGEN--\":815:816   */\n      dup1\n        /* \"--CODEGEN--\":808:820   */\n      revert\n        /* \"--CODEGEN--\":777:779   */\n    tag_483:\n        /* \"--CODEGEN--\":828:869   */\n      tag_484\n        /* \"--CODEGEN--\":862:868   */\n      dup4\n        /* \"--CODEGEN--\":857:860   */\n      dup3\n        /* \"--CODEGEN--\":852:855   */\n      dup5\n        /* \"--CODEGEN--\":828:869   */\n      tag_485\n      jump\t// in\n    tag_484:\n        /* \"--CODEGEN--\":495:875   */\n      pop\n      pop\n      pop\n      swap3\n      swap2\n      pop\n      pop\n      jump\t// out\n        /* \"--CODEGEN--\":883:1013   */\n    tag_486:\n      0x00\n        /* \"--CODEGEN--\":963:969   */\n      dup2\n        /* \"--CODEGEN--\":950:970   */\n      calldataload\n        /* \"--CODEGEN--\":941:970   */\n      swap1\n      pop\n        /* \"--CODEGEN--\":975:1008   */\n      tag_488\n        /* \"--CODEGEN--\":1002:1007   */\n      dup2\n        /* \"--CODEGEN--\":975:1008   */\n      tag_489\n      jump\t// in\n    tag_488:\n        /* \"--CODEGEN--\":935:1013   */\n      swap3\n      swap2\n      pop\n      pop\n      jump\t// out\n        /* \"--CODEGEN--\":1020:1261   */\n    tag_26:\n      0x00\n        /* \"--CODEGEN--\":1124:1126   */\n      0x20\n        /* \"--CODEGEN--\":1112:1121   */\n      dup3\n        /* \"--CODEGEN--\":1103:1110   */\n      dup5\n        /* \"--CODEGEN--\":1099:1122   */\n      sub\n        /* \"--CODEGEN--\":1095:1127   */\n      slt\n        /* \"--CODEGEN--\":1092:1094   */\n      iszero\n      tag_491\n      jumpi\n        /* \"--CODEGEN--\":1140:1141   */\n      0x00\n        /* \"--CODEGEN--\":1137:1138   */\n      dup1\n        /* \"--CODEGEN--\":1130:1142   */\n      revert\n        /* \"--CODEGEN--\":1092:1094   */\n    tag_491:\n        /* \"--CODEGEN--\":1175:1176   */\n      0x00\n        /* \"--CODEGEN--\":1192:1245   */\n      tag_492\n        /* \"--CODEGEN--\":1237:1244   */\n      dup5\n        /* \"--CODEGEN--\":1228:1234   */\n      dup3\n        /* \"--CODEGEN--\":1217:1226   */\n      dup6\n        /* \"--CODEGEN--\":1213:1235   */\n      add\n        /* \"--CODEGEN--\":1192:1245   */\n      tag_464\n      jump\t// in\n    tag_492:\n        /* \"--CODEGEN--\":1182:1245   */\n      swap2\n      pop\n        /* \"--CODEGEN--\":1154:1251   */\n      pop\n        /* \"--CODEGEN--\":1086:1261   */\n      swap3\n      swap2\n      pop\n      pop\n      jump\t// out\n        /* \"--CODEGEN--\":1268:1525   */\n    tag_32:\n      0x00\n        /* \"--CODEGEN--\":1380:1382   */\n      0x20\n        /* \"--CODEGEN--\":1368:1377   */\n      dup3\n        /* \"--CODEGEN--\":1359:1366   */\n      dup5\n        /* \"--CODEGEN--\":1355:1378   */\n      sub\n        /* \"--CODEGEN--\":1351:1383   */\n      slt\n        /* \"--CODEGEN--\":1348:1350   */\n      iszero\n      tag_494\n      jumpi\n        /* \"--CODEGEN--\":1396:1397   */\n      0x00\n        /* \"--CODEGEN--\":1393:1394   */\n      dup1\n        /* \"--CODEGEN--\":1386:1398   */\n      revert\n        /* \"--CODEGEN--\":1348:1350   */\n    tag_494:\n        /* \"--CODEGEN--\":1431:1432   */\n      0x00\n        /* \"--CODEGEN--\":1448:1509   */\n      tag_495\n        /* \"--CODEGEN--\":1501:1508   */\n      dup5\n        /* \"--CODEGEN--\":1492:1498   */\n      dup3\n        /* \"--CODEGEN--\":1481:1490   */\n      dup6\n        /* \"--CODEGEN--\":1477:1499   */\n      add\n        /* \"--CODEGEN--\":1448:1509   */\n      tag_468\n      jump\t// in\n    tag_495:\n        /* \"--CODEGEN--\":1438:1509   */\n      swap2\n      pop\n        /* \"--CODEGEN--\":1410:1515   */\n      pop\n        /* \"--CODEGEN--\":1342:1525   */\n      swap3\n      swap2\n      pop\n      pop\n      jump\t// out\n        /* \"--CODEGEN--\":1532:2129   */\n    tag_64:\n      0x00\n      dup1\n      0x00\n        /* \"--CODEGEN--\":1680:1682   */\n      0x60\n        /* \"--CODEGEN--\":1668:1677   */\n      dup5\n        /* \"--CODEGEN--\":1659:1666   */\n      dup7\n        /* \"--CODEGEN--\":1655:1678   */\n      sub\n        /* \"--CODEGEN--\":1651:1683   */\n      slt\n        /* \"--CODEGEN--\":1648:1650   */\n      iszero\n      tag_497\n      jumpi\n        /* \"--CODEGEN--\":1696:1697   */\n      0x00\n        /* \"--CODEGEN--\":1693:1694   */\n      dup1\n        /* \"--CODEGEN--\":1686:1698   */\n      revert\n        /* \"--CODEGEN--\":1648:1650   */\n    tag_497:\n        /* \"--CODEGEN--\":1731:1732   */\n      0x00\n        /* \"--CODEGEN--\":1748:1801   */\n      tag_498\n        /* \"--CODEGEN--\":1793:1800   */\n      dup7\n        /* \"--CODEGEN--\":1784:1790   */\n      dup3\n        /* \"--CODEGEN--\":1773:1782   */\n      dup8\n        /* \"--CODEGEN--\":1769:1791   */\n      add\n        /* \"--CODEGEN--\":1748:1801   */\n      tag_472\n      jump\t// in\n    tag_498:\n        /* \"--CODEGEN--\":1738:1801   */\n      swap4\n      pop\n        /* \"--CODEGEN--\":1710:1807   */\n      pop\n        /* \"--CODEGEN--\":1838:1840   */\n      0x20\n        /* \"--CODEGEN--\":1856:1909   */\n      tag_499\n        /* \"--CODEGEN--\":1901:1908   */\n      dup7\n        /* \"--CODEGEN--\":1892:1898   */\n      dup3\n        /* \"--CODEGEN--\":1881:1890   */\n      dup8\n        /* \"--CODEGEN--\":1877:1899   */\n      add\n        /* \"--CODEGEN--\":1856:1909   */\n      tag_486\n      jump\t// in\n    tag_499:\n        /* \"--CODEGEN--\":1846:1909   */\n      swap3\n      pop\n        /* \"--CODEGEN--\":1817:1915   */\n      pop\n        /* \"--CODEGEN--\":1974:1976   */\n      0x40\n        /* \"--CODEGEN--\":1963:1972   */\n      dup5\n        /* \"--CODEGEN--\":1959:1977   */\n      add\n        /* \"--CODEGEN--\":1946:1978   */\n      calldataload\n        /* \"--CODEGEN--\":1998:2016   */\n      0xffffffffffffffff\n        /* \"--CODEGEN--\":1990:1996   */\n      dup2\n        /* \"--CODEGEN--\":1987:2017   */\n      gt\n        /* \"--CODEGEN--\":1984:1986   */\n      iszero\n      tag_500\n      jumpi\n        /* \"--CODEGEN--\":2030:2031   */\n      0x00\n        /* \"--CODEGEN--\":2027:2028   */\n      dup1\n        /* \"--CODEGEN--\":2020:2032   */\n      revert\n        /* \"--CODEGEN--\":1984:1986   */\n    tag_500:\n        /* \"--CODEGEN--\":2050:2113   */\n      tag_501\n        /* \"--CODEGEN--\":2105:2112   */\n      dup7\n        /* \"--CODEGEN--\":2096:2102   */\n      dup3\n        /* \"--CODEGEN--\":2085:2094   */\n      dup8\n        /* \"--CODEGEN--\":2081:2103   */\n      add\n        /* \"--CODEGEN--\":2050:2113   */\n      tag_476\n      jump\t// in\n    tag_501:\n        /* \"--CODEGEN--\":2040:2113   */\n      swap2\n      pop\n        /* \"--CODEGEN--\":1925:2119   */\n      pop\n        /* \"--CODEGEN--\":1642:2129   */\n      swap3\n      pop\n      swap3\n      pop\n      swap3\n      jump\t// out\n        /* \"--CODEGEN--\":2136:2965   */\n    tag_88:\n      0x00\n      dup1\n      0x00\n      dup1\n        /* \"--CODEGEN--\":2311:2314   */\n      0x80\n        /* \"--CODEGEN--\":2299:2308   */\n      dup6\n        /* \"--CODEGEN--\":2290:2297   */\n      dup8\n        /* \"--CODEGEN--\":2286:2309   */\n      sub\n        /* \"--CODEGEN--\":2282:2315   */\n      slt\n        /* \"--CODEGEN--\":2279:2281   */\n      iszero\n      tag_503\n      jumpi\n        /* \"--CODEGEN--\":2328:2329   */\n      0x00\n        /* \"--CODEGEN--\":2325:2326   */\n      dup1\n        /* \"--CODEGEN--\":2318:2330   */\n      revert\n        /* \"--CODEGEN--\":2279:2281   */\n    tag_503:\n        /* \"--CODEGEN--\":2363:2364   */\n      0x00\n        /* \"--CODEGEN--\":2380:2433   */\n      tag_504\n        /* \"--CODEGEN--\":2425:2432   */\n      dup8\n        /* \"--CODEGEN--\":2416:2422   */\n      dup3\n        /* \"--CODEGEN--\":2405:2414   */\n      dup9\n        /* \"--CODEGEN--\":2401:2423   */\n      add\n        /* \"--CODEGEN--\":2380:2433   */\n      tag_472\n      jump\t// in\n    tag_504:\n        /* \"--CODEGEN--\":2370:2433   */\n      swap5\n      pop\n        /* \"--CODEGEN--\":2342:2439   */\n      pop\n        /* \"--CODEGEN--\":2470:2472   */\n      0x20\n        /* \"--CODEGEN--\":2488:2541   */\n      tag_505\n        /* \"--CODEGEN--\":2533:2540   */\n      dup8\n        /* \"--CODEGEN--\":2524:2530   */\n      dup3\n        /* \"--CODEGEN--\":2513:2522   */\n      dup9\n        /* \"--CODEGEN--\":2509:2531   */\n      add\n        /* \"--CODEGEN--\":2488:2541   */\n      tag_486\n      jump\t// in\n    tag_505:\n        /* \"--CODEGEN--\":2478:2541   */\n      swap4\n      pop\n        /* \"--CODEGEN--\":2449:2547   */\n      pop\n        /* \"--CODEGEN--\":2606:2608   */\n      0x40\n        /* \"--CODEGEN--\":2595:2604   */\n      dup6\n        /* \"--CODEGEN--\":2591:2609   */\n      add\n        /* \"--CODEGEN--\":2578:2610   */\n      calldataload\n        /* \"--CODEGEN--\":2630:2648   */\n      0xffffffffffffffff\n        /* \"--CODEGEN--\":2622:2628   */\n      dup2\n        /* \"--CODEGEN--\":2619:2649   */\n      gt\n        /* \"--CODEGEN--\":2616:2618   */\n      iszero\n      tag_506\n      jumpi\n        /* \"--CODEGEN--\":2662:2663   */\n      0x00\n        /* \"--CODEGEN--\":2659:2660   */\n      dup1\n        /* \"--CODEGEN--\":2652:2664   */\n      revert\n        /* \"--CODEGEN--\":2616:2618   */\n    tag_506:\n        /* \"--CODEGEN--\":2682:2745   */\n      tag_507\n        /* \"--CODEGEN--\":2737:2744   */\n      dup8\n        /* \"--CODEGEN--\":2728:2734   */\n      dup3\n        /* \"--CODEGEN--\":2717:2726   */\n      dup9\n        /* \"--CODEGEN--\":2713:2735   */\n      add\n        /* \"--CODEGEN--\":2682:2745   */\n      tag_476\n      jump\t// in\n    tag_507:\n        /* \"--CODEGEN--\":2672:2745   */\n      swap3\n      pop\n        /* \"--CODEGEN--\":2557:2751   */\n      pop\n        /* \"--CODEGEN--\":2810:2812   */\n      0x60\n        /* \"--CODEGEN--\":2799:2808   */\n      dup6\n        /* \"--CODEGEN--\":2795:2813   */\n      add\n        /* \"--CODEGEN--\":2782:2814   */\n      calldataload\n        /* \"--CODEGEN--\":2834:2852   */\n      0xffffffffffffffff\n        /* \"--CODEGEN--\":2826:2832   */\n      dup2\n        /* \"--CODEGEN--\":2823:2853   */\n      gt\n        /* \"--CODEGEN--\":2820:2822   */\n      iszero\n      tag_508\n      jumpi\n        /* \"--CODEGEN--\":2866:2867   */\n      0x00\n        /* \"--CODEGEN--\":2863:2864   */\n      dup1\n        /* \"--CODEGEN--\":2856:2868   */\n      revert\n        /* \"--CODEGEN--\":2820:2822   */\n    tag_508:\n        /* \"--CODEGEN--\":2886:2949   */\n      tag_509\n        /* \"--CODEGEN--\":2941:2948   */\n      dup8\n        /* \"--CODEGEN--\":2932:2938   */\n      dup3\n        /* \"--CODEGEN--\":2921:2930   */\n      dup9\n        /* \"--CODEGEN--\":2917:2939   */\n      add\n        /* \"--CODEGEN--\":2886:2949   */\n      tag_476\n      jump\t// in\n    tag_509:\n        /* \"--CODEGEN--\":2876:2949   */\n      swap2\n      pop\n        /* \"--CODEGEN--\":2761:2955   */\n      pop\n        /* \"--CODEGEN--\":2273:2965   */\n      swap3\n      swap6\n      swap2\n      swap5\n      pop\n      swap3\n      pop\n      jump\t// out\n        /* \"--CODEGEN--\":2972:3550   */\n    tag_77:\n      0x00\n      dup1\n        /* \"--CODEGEN--\":3113:3115   */\n      0x40\n        /* \"--CODEGEN--\":3101:3110   */\n      dup4\n        /* \"--CODEGEN--\":3092:3099   */\n      dup6\n        /* \"--CODEGEN--\":3088:3111   */\n      sub\n        /* \"--CODEGEN--\":3084:3116   */\n      slt\n        /* \"--CODEGEN--\":3081:3083   */\n      iszero\n      tag_511\n      jumpi\n        /* \"--CODEGEN--\":3129:3130   */\n      0x00\n        /* \"--CODEGEN--\":3126:3127   */\n      dup1\n        /* \"--CODEGEN--\":3119:3131   */\n      revert\n        /* \"--CODEGEN--\":3081:3083   */\n    tag_511:\n        /* \"--CODEGEN--\":3192:3193   */\n      0x00\n        /* \"--CODEGEN--\":3181:3190   */\n      dup4\n        /* \"--CODEGEN--\":3177:3194   */\n      add\n        /* \"--CODEGEN--\":3164:3195   */\n      calldataload\n        /* \"--CODEGEN--\":3215:3233   */\n      0xffffffffffffffff\n        /* \"--CODEGEN--\":3207:3213   */\n      dup2\n        /* \"--CODEGEN--\":3204:3234   */\n      gt\n        /* \"--CODEGEN--\":3201:3203   */\n      iszero\n      tag_512\n      jumpi\n        /* \"--CODEGEN--\":3247:3248   */\n      0x00\n        /* \"--CODEGEN--\":3244:3245   */\n      dup1\n        /* \"--CODEGEN--\":3237:3249   */\n      revert\n        /* \"--CODEGEN--\":3201:3203   */\n    tag_512:\n        /* \"--CODEGEN--\":3267:3330   */\n      tag_513\n        /* \"--CODEGEN--\":3322:3329   */\n      dup6\n        /* \"--CODEGEN--\":3313:3319   */\n      dup3\n        /* \"--CODEGEN--\":3302:3311   */\n      dup7\n        /* \"--CODEGEN--\":3298:3320   */\n      add\n        /* \"--CODEGEN--\":3267:3330   */\n      tag_476\n      jump\t// in\n    tag_513:\n        /* \"--CODEGEN--\":3257:3330   */\n      swap3\n      pop\n        /* \"--CODEGEN--\":3143:3336   */\n      pop\n        /* \"--CODEGEN--\":3395:3397   */\n      0x20\n        /* \"--CODEGEN--\":3384:3393   */\n      dup4\n        /* \"--CODEGEN--\":3380:3398   */\n      add\n        /* \"--CODEGEN--\":3367:3399   */\n      calldataload\n        /* \"--CODEGEN--\":3419:3437   */\n      0xffffffffffffffff\n        /* \"--CODEGEN--\":3411:3417   */\n      dup2\n        /* \"--CODEGEN--\":3408:3438   */\n      gt\n        /* \"--CODEGEN--\":3405:3407   */\n      iszero\n      tag_514\n      jumpi\n        /* \"--CODEGEN--\":3451:3452   */\n      0x00\n        /* \"--CODEGEN--\":3448:3449   */\n      dup1\n        /* \"--CODEGEN--\":3441:3453   */\n      revert\n        /* \"--CODEGEN--\":3405:3407   */\n    tag_514:\n        /* \"--CODEGEN--\":3471:3534   */\n      tag_515\n        /* \"--CODEGEN--\":3526:3533   */\n      dup6\n        /* \"--CODEGEN--\":3517:3523   */\n      dup3\n        /* \"--CODEGEN--\":3506:3515   */\n      dup7\n        /* \"--CODEGEN--\":3502:3524   */\n      add\n        /* \"--CODEGEN--\":3471:3534   */\n      tag_476\n      jump\t// in\n    tag_515:\n        /* \"--CODEGEN--\":3461:3534   */\n      swap2\n      pop\n        /* \"--CODEGEN--\":3346:3540   */\n      pop\n        /* \"--CODEGEN--\":3075:3550   */\n      swap3\n      pop\n      swap3\n      swap1\n      pop\n      jump\t// out\n        /* \"--CODEGEN--\":3557:3798   */\n    tag_58:\n      0x00\n        /* \"--CODEGEN--\":3661:3663   */\n      0x20\n        /* \"--CODEGEN--\":3649:3658   */\n      dup3\n        /* \"--CODEGEN--\":3640:3647   */\n      dup5\n        /* \"--CODEGEN--\":3636:3659   */\n      sub\n        /* \"--CODEGEN--\":3632:3664   */\n      slt\n        /* \"--CODEGEN--\":3629:3631   */\n      iszero\n      tag_517\n      jumpi\n        /* \"--CODEGEN--\":3677:3678   */\n      0x00\n        /* \"--CODEGEN--\":3674:3675   */\n      dup1\n        /* \"--CODEGEN--\":3667:3679   */\n      revert\n        /* \"--CODEGEN--\":3629:3631   */\n    tag_517:\n        /* \"--CODEGEN--\":3712:3713   */\n      0x00\n        /* \"--CODEGEN--\":3729:3782   */\n      tag_518\n        /* \"--CODEGEN--\":3774:3781   */\n      dup5\n        /* \"--CODEGEN--\":3765:3771   */\n      dup3\n        /* \"--CODEGEN--\":3754:3763   */\n      dup6\n        /* \"--CODEGEN--\":3750:3772   */\n      add\n        /* \"--CODEGEN--\":3729:3782   */\n      tag_486\n      jump\t// in\n    tag_518:\n        /* \"--CODEGEN--\":3719:3782   */\n      swap2\n      pop\n        /* \"--CODEGEN--\":3691:3788   */\n      pop\n        /* \"--CODEGEN--\":3623:3798   */\n      swap3\n      swap2\n      pop\n      pop\n      jump\t// out\n        /* \"--CODEGEN--\":3805:4277   */\n    tag_40:\n      0x00\n      dup1\n        /* \"--CODEGEN--\":3936:3938   */\n      0x40\n        /* \"--CODEGEN--\":3924:3933   */\n      dup4\n        /* \"--CODEGEN--\":3915:3922   */\n      dup6\n        /* \"--CODEGEN--\":3911:3934   */\n      sub\n        /* \"--CODEGEN--\":3907:3939   */\n      slt\n        /* \"--CODEGEN--\":3904:3906   */\n      iszero\n      tag_520\n      jumpi\n        /* \"--CODEGEN--\":3952:3953   */\n      0x00\n        /* \"--CODEGEN--\":3949:3950   */\n      dup1\n        /* \"--CODEGEN--\":3942:3954   */\n      revert\n        /* \"--CODEGEN--\":3904:3906   */\n    tag_520:\n        /* \"--CODEGEN--\":3987:3988   */\n      0x00\n        /* \"--CODEGEN--\":4004:4057   */\n      tag_521\n        /* \"--CODEGEN--\":4049:4056   */\n      dup6\n        /* \"--CODEGEN--\":4040:4046   */\n      dup3\n        /* \"--CODEGEN--\":4029:4038   */\n      dup7\n        /* \"--CODEGEN--\":4025:4047   */\n      add\n        /* \"--CODEGEN--\":4004:4057   */\n      tag_486\n      jump\t// in\n    tag_521:\n        /* \"--CODEGEN--\":3994:4057   */\n      swap3\n      pop\n        /* \"--CODEGEN--\":3966:4063   */\n      pop\n        /* \"--CODEGEN--\":4122:4124   */\n      0x20\n        /* \"--CODEGEN--\":4111:4120   */\n      dup4\n        /* \"--CODEGEN--\":4107:4125   */\n      add\n        /* \"--CODEGEN--\":4094:4126   */\n      calldataload\n        /* \"--CODEGEN--\":4146:4164   */\n      0xffffffffffffffff\n        /* \"--CODEGEN--\":4138:4144   */\n      dup2\n        /* \"--CODEGEN--\":4135:4165   */\n      gt\n        /* \"--CODEGEN--\":4132:4134   */\n      iszero\n      tag_522\n      jumpi\n        /* \"--CODEGEN--\":4178:4179   */\n      0x00\n        /* \"--CODEGEN--\":4175:4176   */\n      dup1\n        /* \"--CODEGEN--\":4168:4180   */\n      revert\n        /* \"--CODEGEN--\":4132:4134   */\n    tag_522:\n        /* \"--CODEGEN--\":4198:4261   */\n      tag_523\n        /* \"--CODEGEN--\":4253:4260   */\n      dup6\n        /* \"--CODEGEN--\":4244:4250   */\n      dup3\n        /* \"--CODEGEN--\":4233:4242   */\n      dup7\n        /* \"--CODEGEN--\":4229:4251   */\n      add\n        /* \"--CODEGEN--\":4198:4261   */\n      tag_476\n      jump\t// in\n    tag_523:\n        /* \"--CODEGEN--\":4188:4261   */\n      swap2\n      pop\n        /* \"--CODEGEN--\":4073:4267   */\n      pop\n        /* \"--CODEGEN--\":3898:4277   */\n      swap3\n      pop\n      swap3\n      swap1\n      pop\n      jump\t// out\n        /* \"--CODEGEN--\":4284:4987   */\n    tag_93:\n      0x00\n      dup1\n      0x00\n        /* \"--CODEGEN--\":4442:4444   */\n      0x60\n        /* \"--CODEGEN--\":4430:4439   */\n      dup5\n        /* \"--CODEGEN--\":4421:4428   */\n      dup7\n        /* \"--CODEGEN--\":4417:4440   */\n      sub\n        /* \"--CODEGEN--\":4413:4445   */\n      slt\n        /* \"--CODEGEN--\":4410:4412   */\n      iszero\n      tag_525\n      jumpi\n        /* \"--CODEGEN--\":4458:4459   */\n      0x00\n        /* \"--CODEGEN--\":4455:4456   */\n      dup1\n        /* \"--CODEGEN--\":4448:4460   */\n      revert\n        /* \"--CODEGEN--\":4410:4412   */\n    tag_525:\n        /* \"--CODEGEN--\":4493:4494   */\n      0x00\n        /* \"--CODEGEN--\":4510:4563   */\n      tag_526\n        /* \"--CODEGEN--\":4555:4562   */\n      dup7\n        /* \"--CODEGEN--\":4546:4552   */\n      dup3\n        /* \"--CODEGEN--\":4535:4544   */\n      dup8\n        /* \"--CODEGEN--\":4531:4553   */\n      add\n        /* \"--CODEGEN--\":4510:4563   */\n      tag_486\n      jump\t// in\n    tag_526:\n        /* \"--CODEGEN--\":4500:4563   */\n      swap4\n      pop\n        /* \"--CODEGEN--\":4472:4569   */\n      pop\n        /* \"--CODEGEN--\":4628:4630   */\n      0x20\n        /* \"--CODEGEN--\":4617:4626   */\n      dup5\n        /* \"--CODEGEN--\":4613:4631   */\n      add\n        /* \"--CODEGEN--\":4600:4632   */\n      calldataload\n        /* \"--CODEGEN--\":4652:4670   */\n      0xffffffffffffffff\n        /* \"--CODEGEN--\":4644:4650   */\n      dup2\n        /* \"--CODEGEN--\":4641:4671   */\n      gt\n        /* \"--CODEGEN--\":4638:4640   */\n      iszero\n      tag_527\n      jumpi\n        /* \"--CODEGEN--\":4684:4685   */\n      0x00\n        /* \"--CODEGEN--\":4681:4682   */\n      dup1\n        /* \"--CODEGEN--\":4674:4686   */\n      revert\n        /* \"--CODEGEN--\":4638:4640   */\n    tag_527:\n        /* \"--CODEGEN--\":4704:4767   */\n      tag_528\n        /* \"--CODEGEN--\":4759:4766   */\n      dup7\n        /* \"--CODEGEN--\":4750:4756   */\n      dup3\n        /* \"--CODEGEN--\":4739:4748   */\n      dup8\n        /* \"--CODEGEN--\":4735:4757   */\n      add\n        /* \"--CODEGEN--\":4704:4767   */\n      tag_476\n      jump\t// in\n    tag_528:\n        /* \"--CODEGEN--\":4694:4767   */\n      swap3\n      pop\n        /* \"--CODEGEN--\":4579:4773   */\n      pop\n        /* \"--CODEGEN--\":4832:4834   */\n      0x40\n        /* \"--CODEGEN--\":4821:4830   */\n      dup5\n        /* \"--CODEGEN--\":4817:4835   */\n      add\n        /* \"--CODEGEN--\":4804:4836   */\n      calldataload\n        /* \"--CODEGEN--\":4856:4874   */\n      0xffffffffffffffff\n        /* \"--CODEGEN--\":4848:4854   */\n      dup2\n        /* \"--CODEGEN--\":4845:4875   */\n      gt\n        /* \"--CODEGEN--\":4842:4844   */\n      iszero\n      tag_529\n      jumpi\n        /* \"--CODEGEN--\":4888:4889   */\n      0x00\n        /* \"--CODEGEN--\":4885:4886   */\n      dup1\n        /* \"--CODEGEN--\":4878:4890   */\n      revert\n        /* \"--CODEGEN--\":4842:4844   */\n    tag_529:\n        /* \"--CODEGEN--\":4908:4971   */\n      tag_530\n        /* \"--CODEGEN--\":4963:4970   */\n      dup7\n        /* \"--CODEGEN--\":4954:4960   */\n      dup3\n        /* \"--CODEGEN--\":4943:4952   */\n      dup8\n        /* \"--CODEGEN--\":4939:4961   */\n      add\n        /* \"--CODEGEN--\":4908:4971   */\n      tag_476\n      jump\t// in\n    tag_530:\n        /* \"--CODEGEN--\":4898:4971   */\n      swap2\n      pop\n        /* \"--CODEGEN--\":4783:4977   */\n      pop\n        /* \"--CODEGEN--\":4404:4987   */\n      swap3\n      pop\n      swap3\n      pop\n      swap3\n      jump\t// out\n        /* \"--CODEGEN--\":4995:5168   */\n    tag_531:\n      0x00\n        /* \"--CODEGEN--\":5082:5128   */\n      tag_533\n        /* \"--CODEGEN--\":5124:5127   */\n      dup4\n        /* \"--CODEGEN--\":5116:5122   */\n      dup4\n        /* \"--CODEGEN--\":5082:5128   */\n      tag_534\n      jump\t// in\n    tag_533:\n        /* \"--CODEGEN--\":5157:5161   */\n      0x20\n        /* \"--CODEGEN--\":5152:5155   */\n      dup4\n        /* \"--CODEGEN--\":5148:5162   */\n      add\n        /* \"--CODEGEN--\":5134:5162   */\n      swap1\n      pop\n        /* \"--CODEGEN--\":5075:5168   */\n      swap3\n      swap2\n      pop\n      pop\n      jump\t// out\n        /* \"--CODEGEN--\":5177:5370   */\n    tag_535:\n      0x00\n        /* \"--CODEGEN--\":5298:5364   */\n      tag_537\n        /* \"--CODEGEN--\":5360:5363   */\n      dup4\n        /* \"--CODEGEN--\":5352:5358   */\n      dup4\n        /* \"--CODEGEN--\":5298:5364   */\n      tag_538\n      jump\t// in\n    tag_537:\n        /* \"--CODEGEN--\":5284:5364   */\n      swap1\n      pop\n        /* \"--CODEGEN--\":5277:5370   */\n      swap3\n      swap2\n      pop\n      pop\n      jump\t// out\n        /* \"--CODEGEN--\":5379:5552   */\n    tag_539:\n      0x00\n        /* \"--CODEGEN--\":5466:5512   */\n      tag_541\n        /* \"--CODEGEN--\":5508:5511   */\n      dup4\n        /* \"--CODEGEN--\":5500:5506   */\n      dup4\n        /* \"--CODEGEN--\":5466:5512   */\n      tag_542\n      jump\t// in\n    tag_541:\n        /* \"--CODEGEN--\":5541:5545   */\n      0x20\n        /* \"--CODEGEN--\":5536:5539   */\n      dup4\n        /* \"--CODEGEN--\":5532:5546   */\n      add\n        /* \"--CODEGEN--\":5518:5546   */\n      swap1\n      pop\n        /* \"--CODEGEN--\":5459:5552   */\n      swap3\n      swap2\n      pop\n      pop\n      jump\t// out\n        /* \"--CODEGEN--\":5560:5697   */\n    tag_543:\n        /* \"--CODEGEN--\":5659:5691   */\n      tag_545\n        /* \"--CODEGEN--\":5685:5690   */\n      dup2\n        /* \"--CODEGEN--\":5659:5691   */\n      tag_546\n      jump\t// in\n    tag_545:\n        /* \"--CODEGEN--\":5654:5657   */\n      dup3\n        /* \"--CODEGEN--\":5647:5692   */\n      mstore\n        /* \"--CODEGEN--\":5641:5697   */\n      pop\n      pop\n      jump\t// out\n        /* \"--CODEGEN--\":5704:5888   */\n    tag_547:\n        /* \"--CODEGEN--\":5821:5882   */\n      tag_549\n        /* \"--CODEGEN--\":5849:5881   */\n      tag_550\n        /* \"--CODEGEN--\":5875:5880   */\n      dup3\n        /* \"--CODEGEN--\":5849:5881   */\n      tag_546\n      jump\t// in\n    tag_550:\n        /* \"--CODEGEN--\":5821:5882   */\n      tag_551\n      jump\t// in\n    tag_549:\n        /* \"--CODEGEN--\":5816:5819   */\n      dup3\n        /* \"--CODEGEN--\":5809:5883   */\n      mstore\n        /* \"--CODEGEN--\":5803:5888   */\n      pop\n      pop\n      jump\t// out\n        /* \"--CODEGEN--\":5895:5998   */\n    tag_534:\n        /* \"--CODEGEN--\":5968:5992   */\n      tag_553\n        /* \"--CODEGEN--\":5986:5991   */\n      dup2\n        /* \"--CODEGEN--\":5968:5992   */\n      tag_554\n      jump\t// in\n    tag_553:\n        /* \"--CODEGEN--\":5963:5966   */\n      dup3\n        /* \"--CODEGEN--\":5956:5993   */\n      mstore\n        /* \"--CODEGEN--\":5950:5998   */\n      pop\n      pop\n      jump\t// out\n        /* \"--CODEGEN--\":6036:6726   */\n    tag_555:\n      0x00\n        /* \"--CODEGEN--\":6181:6235   */\n      tag_557\n        /* \"--CODEGEN--\":6229:6234   */\n      dup3\n        /* \"--CODEGEN--\":6181:6235   */\n      tag_558\n      jump\t// in\n    tag_557:\n        /* \"--CODEGEN--\":6248:6334   */\n      tag_559\n        /* \"--CODEGEN--\":6327:6333   */\n      dup2\n        /* \"--CODEGEN--\":6322:6325   */\n      dup6\n        /* \"--CODEGEN--\":6248:6334   */\n      tag_560\n      jump\t// in\n    tag_559:\n        /* \"--CODEGEN--\":6241:6334   */\n      swap4\n      pop\n        /* \"--CODEGEN--\":6355:6411   */\n      tag_561\n        /* \"--CODEGEN--\":6405:6410   */\n      dup4\n        /* \"--CODEGEN--\":6355:6411   */\n      tag_562\n      jump\t// in\n    tag_561:\n        /* \"--CODEGEN--\":6431:6438   */\n      dup1\n        /* \"--CODEGEN--\":6459:6460   */\n      0x00\n        /* \"--CODEGEN--\":6444:6704   */\n    tag_563:\n        /* \"--CODEGEN--\":6469:6475   */\n      dup4\n        /* \"--CODEGEN--\":6466:6467   */\n      dup2\n        /* \"--CODEGEN--\":6463:6476   */\n      lt\n        /* \"--CODEGEN--\":6444:6704   */\n      iszero\n      tag_565\n      jumpi\n        /* \"--CODEGEN--\":6536:6542   */\n      dup2\n        /* \"--CODEGEN--\":6530:6543   */\n      mload\n        /* \"--CODEGEN--\":6557:6620   */\n      tag_566\n        /* \"--CODEGEN--\":6616:6619   */\n      dup9\n        /* \"--CODEGEN--\":6601:6614   */\n      dup3\n        /* \"--CODEGEN--\":6557:6620   */\n      tag_531\n      jump\t// in\n    tag_566:\n        /* \"--CODEGEN--\":6550:6620   */\n      swap8\n      pop\n        /* \"--CODEGEN--\":6637:6697   */\n      tag_567\n        /* \"--CODEGEN--\":6690:6696   */\n      dup4\n        /* \"--CODEGEN--\":6637:6697   */\n      tag_568\n      jump\t// in\n    tag_567:\n        /* \"--CODEGEN--\":6627:6697   */\n      swap3\n      pop\n        /* \"--CODEGEN--\":6501:6704   */\n      pop\n        /* \"--CODEGEN--\":6491:6492   */\n      0x01\n        /* \"--CODEGEN--\":6488:6489   */\n      dup2\n        /* \"--CODEGEN--\":6484:6493   */\n      add\n        /* \"--CODEGEN--\":6479:6493   */\n      swap1\n      pop\n        /* \"--CODEGEN--\":6444:6704   */\n      jump(tag_563)\n    tag_565:\n        /* \"--CODEGEN--\":6448:6462   */\n      pop\n        /* \"--CODEGEN--\":6717:6720   */\n      dup6\n        /* \"--CODEGEN--\":6710:6720   */\n      swap4\n      pop\n        /* \"--CODEGEN--\":6160:6726   */\n      pop\n      pop\n      pop\n      swap3\n      swap2\n      pop\n      pop\n      jump\t// out\n        /* \"--CODEGEN--\":6763:7691   */\n    tag_569:\n      0x00\n        /* \"--CODEGEN--\":6928:6992   */\n      tag_571\n        /* \"--CODEGEN--\":6986:6991   */\n      dup3\n        /* \"--CODEGEN--\":6928:6992   */\n      tag_572\n      jump\t// in\n    tag_571:\n        /* \"--CODEGEN--\":7005:7101   */\n      tag_573\n        /* \"--CODEGEN--\":7094:7100   */\n      dup2\n        /* \"--CODEGEN--\":7089:7092   */\n      dup6\n        /* \"--CODEGEN--\":7005:7101   */\n      tag_574\n      jump\t// in\n    tag_573:\n        /* \"--CODEGEN--\":6998:7101   */\n      swap4\n      pop\n        /* \"--CODEGEN--\":7124:7127   */\n      dup4\n        /* \"--CODEGEN--\":7166:7170   */\n      0x20\n        /* \"--CODEGEN--\":7158:7164   */\n      dup3\n        /* \"--CODEGEN--\":7154:7171   */\n      mul\n        /* \"--CODEGEN--\":7149:7152   */\n      dup6\n        /* \"--CODEGEN--\":7145:7172   */\n      add\n        /* \"--CODEGEN--\":7193:7259   */\n      tag_575\n        /* \"--CODEGEN--\":7253:7258   */\n      dup6\n        /* \"--CODEGEN--\":7193:7259   */\n      tag_576\n      jump\t// in\n    tag_575:\n        /* \"--CODEGEN--\":7279:7286   */\n      dup1\n        /* \"--CODEGEN--\":7307:7308   */\n      0x00\n        /* \"--CODEGEN--\":7292:7652   */\n    tag_577:\n        /* \"--CODEGEN--\":7317:7323   */\n      dup6\n        /* \"--CODEGEN--\":7314:7315   */\n      dup2\n        /* \"--CODEGEN--\":7311:7324   */\n      lt\n        /* \"--CODEGEN--\":7292:7652   */\n      iszero\n      tag_579\n      jumpi\n        /* \"--CODEGEN--\":7379:7388   */\n      dup5\n        /* \"--CODEGEN--\":7373:7377   */\n      dup5\n        /* \"--CODEGEN--\":7369:7389   */\n      sub\n        /* \"--CODEGEN--\":7364:7367   */\n      dup10\n        /* \"--CODEGEN--\":7357:7390   */\n      mstore\n        /* \"--CODEGEN--\":7424:7430   */\n      dup2\n        /* \"--CODEGEN--\":7418:7431   */\n      mload\n        /* \"--CODEGEN--\":7446:7530   */\n      tag_580\n        /* \"--CODEGEN--\":7525:7529   */\n      dup6\n        /* \"--CODEGEN--\":7510:7523   */\n      dup3\n        /* \"--CODEGEN--\":7446:7530   */\n      tag_535\n      jump\t// in\n    tag_580:\n        /* \"--CODEGEN--\":7438:7530   */\n      swap5\n      pop\n        /* \"--CODEGEN--\":7547:7617   */\n      tag_581\n        /* \"--CODEGEN--\":7610:7616   */\n      dup4\n        /* \"--CODEGEN--\":7547:7617   */\n      tag_582\n      jump\t// in\n    tag_581:\n        /* \"--CODEGEN--\":7537:7617   */\n      swap3\n      pop\n        /* \"--CODEGEN--\":7640:7644   */\n      0x20\n        /* \"--CODEGEN--\":7635:7638   */\n      dup11\n        /* \"--CODEGEN--\":7631:7645   */\n      add\n        /* \"--CODEGEN--\":7624:7645   */\n      swap10\n      pop\n        /* \"--CODEGEN--\":7349:7652   */\n      pop\n        /* \"--CODEGEN--\":7339:7340   */\n      0x01\n        /* \"--CODEGEN--\":7336:7337   */\n      dup2\n        /* \"--CODEGEN--\":7332:7341   */\n      add\n        /* \"--CODEGEN--\":7327:7341   */\n      swap1\n      pop\n        /* \"--CODEGEN--\":7292:7652   */\n      jump(tag_577)\n    tag_579:\n        /* \"--CODEGEN--\":7296:7310   */\n      pop\n        /* \"--CODEGEN--\":7665:7669   */\n      dup3\n        /* \"--CODEGEN--\":7658:7669   */\n      swap8\n      pop\n        /* \"--CODEGEN--\":7682:7685   */\n      dup8\n        /* \"--CODEGEN--\":7675:7685   */\n      swap6\n      pop\n        /* \"--CODEGEN--\":6907:7691   */\n      pop\n      pop\n      pop\n      pop\n      pop\n      swap3\n      swap2\n      pop\n      pop\n      jump\t// out\n        /* \"--CODEGEN--\":7730:8420   */\n    tag_583:\n      0x00\n        /* \"--CODEGEN--\":7875:7929   */\n      tag_585\n        /* \"--CODEGEN--\":7923:7928   */\n      dup3\n        /* \"--CODEGEN--\":7875:7929   */\n      tag_586\n      jump\t// in\n    tag_585:\n        /* \"--CODEGEN--\":7942:8028   */\n      tag_587\n        /* \"--CODEGEN--\":8021:8027   */\n      dup2\n        /* \"--CODEGEN--\":8016:8019   */\n      dup6\n        /* \"--CODEGEN--\":7942:8028   */\n      tag_588\n      jump\t// in\n    tag_587:\n        /* \"--CODEGEN--\":7935:8028   */\n      swap4\n      pop\n        /* \"--CODEGEN--\":8049:8105   */\n      tag_589\n        /* \"--CODEGEN--\":8099:8104   */\n      dup4\n        /* \"--CODEGEN--\":8049:8105   */\n      tag_590\n      jump\t// in\n    tag_589:\n        /* \"--CODEGEN--\":8125:8132   */\n      dup1\n        /* \"--CODEGEN--\":8153:8154   */\n      0x00\n        /* \"--CODEGEN--\":8138:8398   */\n    tag_591:\n        /* \"--CODEGEN--\":8163:8169   */\n      dup4\n        /* \"--CODEGEN--\":8160:8161   */\n      dup2\n        /* \"--CODEGEN--\":8157:8170   */\n      lt\n        /* \"--CODEGEN--\":8138:8398   */\n      iszero\n      tag_593\n      jumpi\n        /* \"--CODEGEN--\":8230:8236   */\n      dup2\n        /* \"--CODEGEN--\":8224:8237   */\n      mload\n        /* \"--CODEGEN--\":8251:8314   */\n      tag_594\n        /* \"--CODEGEN--\":8310:8313   */\n      dup9\n        /* \"--CODEGEN--\":8295:8308   */\n      dup3\n        /* \"--CODEGEN--\":8251:8314   */\n      tag_539\n      jump\t// in\n    tag_594:\n        /* \"--CODEGEN--\":8244:8314   */\n      swap8\n      pop\n        /* \"--CODEGEN--\":8331:8391   */\n      tag_595\n        /* \"--CODEGEN--\":8384:8390   */\n      dup4\n        /* \"--CODEGEN--\":8331:8391   */\n      tag_596\n      jump\t// in\n    tag_595:\n        /* \"--CODEGEN--\":8321:8391   */\n      swap3\n      pop\n        /* \"--CODEGEN--\":8195:8398   */\n      pop\n        /* \"--CODEGEN--\":8185:8186   */\n      0x01\n        /* \"--CODEGEN--\":8182:8183   */\n      dup2\n        /* \"--CODEGEN--\":8178:8187   */\n      add\n        /* \"--CODEGEN--\":8173:8187   */\n      swap1\n      pop\n        /* \"--CODEGEN--\":8138:8398   */\n      jump(tag_591)\n    tag_593:\n        /* \"--CODEGEN--\":8142:8156   */\n      pop\n        /* \"--CODEGEN--\":8411:8414   */\n      dup6\n        /* \"--CODEGEN--\":8404:8414   */\n      swap4\n      pop\n        /* \"--CODEGEN--\":7854:8420   */\n      pop\n      pop\n      pop\n      swap3\n      swap2\n      pop\n      pop\n      jump\t// out\n        /* \"--CODEGEN--\":8428:8532   */\n    tag_597:\n        /* \"--CODEGEN--\":8505:8526   */\n      tag_599\n        /* \"--CODEGEN--\":8520:8525   */\n      dup2\n        /* \"--CODEGEN--\":8505:8526   */\n      tag_600\n      jump\t// in\n    tag_599:\n        /* \"--CODEGEN--\":8500:8503   */\n      dup3\n        /* \"--CODEGEN--\":8493:8527   */\n      mstore\n        /* \"--CODEGEN--\":8487:8532   */\n      pop\n      pop\n      jump\t// out\n        /* \"--CODEGEN--\":8539:8652   */\n    tag_601:\n        /* \"--CODEGEN--\":8622:8646   */\n      tag_603\n        /* \"--CODEGEN--\":8640:8645   */\n      dup2\n        /* \"--CODEGEN--\":8622:8646   */\n      tag_604\n      jump\t// in\n    tag_603:\n        /* \"--CODEGEN--\":8617:8620   */\n      dup3\n        /* \"--CODEGEN--\":8610:8647   */\n      mstore\n        /* \"--CODEGEN--\":8604:8652   */\n      pop\n      pop\n      jump\t// out\n        /* \"--CODEGEN--\":8659:8986   */\n    tag_538:\n      0x00\n        /* \"--CODEGEN--\":8761:8800   */\n      tag_606\n        /* \"--CODEGEN--\":8794:8799   */\n      dup3\n        /* \"--CODEGEN--\":8761:8800   */\n      tag_607\n      jump\t// in\n    tag_606:\n        /* \"--CODEGEN--\":8812:8873   */\n      tag_608\n        /* \"--CODEGEN--\":8866:8872   */\n      dup2\n        /* \"--CODEGEN--\":8861:8864   */\n      dup6\n        /* \"--CODEGEN--\":8812:8873   */\n      tag_609\n      jump\t// in\n    tag_608:\n        /* \"--CODEGEN--\":8805:8873   */\n      swap4\n      pop\n        /* \"--CODEGEN--\":8878:8930   */\n      tag_610\n        /* \"--CODEGEN--\":8923:8929   */\n      dup2\n        /* \"--CODEGEN--\":8918:8921   */\n      dup6\n        /* \"--CODEGEN--\":8911:8915   */\n      0x20\n        /* \"--CODEGEN--\":8904:8909   */\n      dup7\n        /* \"--CODEGEN--\":8900:8916   */\n      add\n        /* \"--CODEGEN--\":8878:8930   */\n      tag_611\n      jump\t// in\n    tag_610:\n        /* \"--CODEGEN--\":8951:8980   */\n      tag_612\n        /* \"--CODEGEN--\":8973:8979   */\n      dup2\n        /* \"--CODEGEN--\":8951:8980   */\n      tag_613\n      jump\t// in\n    tag_612:\n        /* \"--CODEGEN--\":8946:8949   */\n      dup5\n        /* \"--CODEGEN--\":8942:8981   */\n      add\n        /* \"--CODEGEN--\":8935:8981   */\n      swap2\n      pop\n        /* \"--CODEGEN--\":8741:8986   */\n      pop\n      swap3\n      swap2\n      pop\n      pop\n      jump\t// out\n        /* \"--CODEGEN--\":8993:9353   */\n    tag_614:\n      0x00\n        /* \"--CODEGEN--\":9123:9162   */\n      tag_616\n        /* \"--CODEGEN--\":9156:9161   */\n      dup3\n        /* \"--CODEGEN--\":9123:9162   */\n      tag_607\n      jump\t// in\n    tag_616:\n        /* \"--CODEGEN--\":9174:9263   */\n      tag_617\n        /* \"--CODEGEN--\":9256:9262   */\n      dup2\n        /* \"--CODEGEN--\":9251:9254   */\n      dup6\n        /* \"--CODEGEN--\":9174:9263   */\n      tag_618\n      jump\t// in\n    tag_617:\n        /* \"--CODEGEN--\":9167:9263   */\n      swap4\n      pop\n        /* \"--CODEGEN--\":9268:9320   */\n      tag_619\n        /* \"--CODEGEN--\":9313:9319   */\n      dup2\n        /* \"--CODEGEN--\":9308:9311   */\n      dup6\n        /* \"--CODEGEN--\":9301:9305   */\n      0x20\n        /* \"--CODEGEN--\":9294:9299   */\n      dup7\n        /* \"--CODEGEN--\":9290:9306   */\n      add\n        /* \"--CODEGEN--\":9268:9320   */\n      tag_611\n      jump\t// in\n    tag_619:\n        /* \"--CODEGEN--\":9341:9347   */\n      dup1\n        /* \"--CODEGEN--\":9336:9339   */\n      dup5\n        /* \"--CODEGEN--\":9332:9348   */\n      add\n        /* \"--CODEGEN--\":9325:9348   */\n      swap2\n      pop\n        /* \"--CODEGEN--\":9103:9353   */\n      pop\n      swap3\n      swap2\n      pop\n      pop\n      jump\t// out\n        /* \"--CODEGEN--\":9385:10269   */\n    tag_620:\n      0x00\n        /* \"--CODEGEN--\":9522:9527   */\n      dup2\n        /* \"--CODEGEN--\":9516:9528   */\n      sload\n        /* \"--CODEGEN--\":9556:9557   */\n      0x01\n        /* \"--CODEGEN--\":9545:9554   */\n      dup2\n        /* \"--CODEGEN--\":9541:9558   */\n      and\n        /* \"--CODEGEN--\":9569:9570   */\n      0x00\n        /* \"--CODEGEN--\":9564:9832   */\n      dup2\n      eq\n      tag_623\n      jumpi\n        /* \"--CODEGEN--\":9843:9844   */\n      0x01\n        /* \"--CODEGEN--\":9838:10263   */\n      dup2\n      eq\n      tag_624\n      jumpi\n        /* \"--CODEGEN--\":9534:10263   */\n      jump(tag_622)\n        /* \"--CODEGEN--\":9564:9832   */\n    tag_623:\n        /* \"--CODEGEN--\":9642:9646   */\n      0x7f\n        /* \"--CODEGEN--\":9638:9639   */\n      0x02\n        /* \"--CODEGEN--\":9627:9636   */\n      dup4\n        /* \"--CODEGEN--\":9623:9640   */\n      div\n        /* \"--CODEGEN--\":9619:9647   */\n      and\n        /* \"--CODEGEN--\":9661:9750   */\n      tag_625\n        /* \"--CODEGEN--\":9743:9749   */\n      dup2\n        /* \"--CODEGEN--\":9738:9741   */\n      dup8\n        /* \"--CODEGEN--\":9661:9750   */\n      tag_618\n      jump\t// in\n    tag_625:\n        /* \"--CODEGEN--\":9654:9750   */\n      swap6\n      pop\n        /* \"--CODEGEN--\":9788:9792   */\n      0xff\n        /* \"--CODEGEN--\":9784:9793   */\n      not\n        /* \"--CODEGEN--\":9773:9782   */\n      dup4\n        /* \"--CODEGEN--\":9769:9794   */\n      and\n        /* \"--CODEGEN--\":9764:9767   */\n      dup7\n        /* \"--CODEGEN--\":9757:9795   */\n      mstore\n        /* \"--CODEGEN--\":9818:9824   */\n      dup1\n        /* \"--CODEGEN--\":9813:9816   */\n      dup7\n        /* \"--CODEGEN--\":9809:9825   */\n      add\n        /* \"--CODEGEN--\":9802:9825   */\n      swap4\n      pop\n        /* \"--CODEGEN--\":9571:9832   */\n      pop\n        /* \"--CODEGEN--\":9564:9832   */\n      jump(tag_622)\n        /* \"--CODEGEN--\":9838:10263   */\n    tag_624:\n        /* \"--CODEGEN--\":9907:9908   */\n      0x02\n        /* \"--CODEGEN--\":9896:9905   */\n      dup3\n        /* \"--CODEGEN--\":9892:9909   */\n      div\n        /* \"--CODEGEN--\":9923:10012   */\n      tag_626\n        /* \"--CODEGEN--\":10005:10011   */\n      dup2\n        /* \"--CODEGEN--\":10000:10003   */\n      dup8\n        /* \"--CODEGEN--\":9923:10012   */\n      tag_618\n      jump\t// in\n    tag_626:\n        /* \"--CODEGEN--\":9916:10012   */\n      swap6\n      pop\n        /* \"--CODEGEN--\":10034:10072   */\n      tag_627\n        /* \"--CODEGEN--\":10066:10071   */\n      dup6\n        /* \"--CODEGEN--\":10034:10072   */\n      tag_628\n      jump\t// in\n    tag_627:\n        /* \"--CODEGEN--\":10088:10089   */\n      0x00\n        /* \"--CODEGEN--\":10096:10226   */\n    tag_629:\n        /* \"--CODEGEN--\":10110:10116   */\n      dup3\n        /* \"--CODEGEN--\":10107:10108   */\n      dup2\n        /* \"--CODEGEN--\":10104:10117   */\n      lt\n        /* \"--CODEGEN--\":10096:10226   */\n      iszero\n      tag_631\n      jumpi\n        /* \"--CODEGEN--\":10175:10182   */\n      dup2\n        /* \"--CODEGEN--\":10169:10183   */\n      sload\n        /* \"--CODEGEN--\":10165:10166   */\n      dup2\n        /* \"--CODEGEN--\":10160:10163   */\n      dup10\n        /* \"--CODEGEN--\":10156:10167   */\n      add\n        /* \"--CODEGEN--\":10149:10184   */\n      mstore\n        /* \"--CODEGEN--\":10216:10217   */\n      0x01\n        /* \"--CODEGEN--\":10207:10214   */\n      dup3\n        /* \"--CODEGEN--\":10203:10218   */\n      add\n        /* \"--CODEGEN--\":10192:10218   */\n      swap2\n      pop\n        /* \"--CODEGEN--\":10132:10136   */\n      0x20\n        /* \"--CODEGEN--\":10129:10130   */\n      dup2\n        /* \"--CODEGEN--\":10125:10137   */\n      add\n        /* \"--CODEGEN--\":10120:10137   */\n      swap1\n      pop\n        /* \"--CODEGEN--\":10096:10226   */\n      jump(tag_629)\n    tag_631:\n        /* \"--CODEGEN--\":10249:10255   */\n      dup3\n        /* \"--CODEGEN--\":10244:10247   */\n      dup9\n        /* \"--CODEGEN--\":10240:10256   */\n      add\n        /* \"--CODEGEN--\":10233:10256   */\n      swap6\n      pop\n        /* \"--CODEGEN--\":9845:10263   */\n      pop\n      pop\n      pop\n        /* \"--CODEGEN--\":9534:10263   */\n    tag_622:\n      pop\n        /* \"--CODEGEN--\":9492:10269   */\n      pop\n      swap3\n      swap2\n      pop\n      pop\n      jump\t// out\n        /* \"--CODEGEN--\":10278:10590   */\n    tag_632:\n      0x00\n        /* \"--CODEGEN--\":10438:10505   */\n      tag_634\n        /* \"--CODEGEN--\":10502:10504   */\n      0x0c\n        /* \"--CODEGEN--\":10497:10500   */\n      dup4\n        /* \"--CODEGEN--\":10438:10505   */\n      tag_635\n      jump\t// in\n    tag_634:\n        /* \"--CODEGEN--\":10431:10505   */\n      swap2\n      pop\n        /* \"--CODEGEN--\":10538:10552   */\n      0x746f6b656e206469756261680000000000000000000000000000000000000000\n        /* \"--CODEGEN--\":10534:10535   */\n      0x00\n        /* \"--CODEGEN--\":10529:10532   */\n      dup4\n        /* \"--CODEGEN--\":10525:10536   */\n      add\n        /* \"--CODEGEN--\":10518:10553   */\n      mstore\n        /* \"--CODEGEN--\":10581:10583   */\n      0x20\n        /* \"--CODEGEN--\":10576:10579   */\n      dup3\n        /* \"--CODEGEN--\":10572:10584   */\n      add\n        /* \"--CODEGEN--\":10565:10584   */\n      swap1\n      pop\n        /* \"--CODEGEN--\":10424:10590   */\n      swap2\n      swap1\n      pop\n      jump\t// out\n        /* \"--CODEGEN--\":10599:10917   */\n    tag_636:\n      0x00\n        /* \"--CODEGEN--\":10759:10826   */\n      tag_638\n        /* \"--CODEGEN--\":10823:10825   */\n      0x12\n        /* \"--CODEGEN--\":10818:10821   */\n      dup4\n        /* \"--CODEGEN--\":10759:10826   */\n      tag_635\n      jump\t// in\n    tag_638:\n        /* \"--CODEGEN--\":10752:10826   */\n      swap2\n      pop\n        /* \"--CODEGEN--\":10859:10879   */\n      0x746f6b656e20746964616b206469756261680000000000000000000000000000\n        /* \"--CODEGEN--\":10855:10856   */\n      0x00\n        /* \"--CODEGEN--\":10850:10853   */\n      dup4\n        /* \"--CODEGEN--\":10846:10857   */\n      add\n        /* \"--CODEGEN--\":10839:10880   */\n      mstore\n        /* \"--CODEGEN--\":10908:10910   */\n      0x20\n        /* \"--CODEGEN--\":10903:10906   */\n      dup3\n        /* \"--CODEGEN--\":10899:10911   */\n      add\n        /* \"--CODEGEN--\":10892:10911   */\n      swap1\n      pop\n        /* \"--CODEGEN--\":10745:10917   */\n      swap2\n      swap1\n      pop\n      jump\t// out\n        /* \"--CODEGEN--\":10925:11028   */\n    tag_542:\n        /* \"--CODEGEN--\":10998:11022   */\n      tag_640\n        /* \"--CODEGEN--\":11016:11021   */\n      dup2\n        /* \"--CODEGEN--\":10998:11022   */\n      tag_641\n      jump\t// in\n    tag_640:\n        /* \"--CODEGEN--\":10993:10996   */\n      dup3\n        /* \"--CODEGEN--\":10986:11023   */\n      mstore\n        /* \"--CODEGEN--\":10980:11028   */\n      pop\n      pop\n      jump\t// out\n        /* \"--CODEGEN--\":11035:11148   */\n    tag_642:\n        /* \"--CODEGEN--\":11118:11142   */\n      tag_644\n        /* \"--CODEGEN--\":11136:11141   */\n      dup2\n        /* \"--CODEGEN--\":11118:11142   */\n      tag_641\n      jump\t// in\n    tag_644:\n        /* \"--CODEGEN--\":11113:11116   */\n      dup3\n        /* \"--CODEGEN--\":11106:11143   */\n      mstore\n        /* \"--CODEGEN--\":11100:11148   */\n      pop\n      pop\n      jump\t// out\n        /* \"--CODEGEN--\":11155:11307   */\n    tag_645:\n        /* \"--CODEGEN--\":11256:11301   */\n      tag_647\n        /* \"--CODEGEN--\":11276:11300   */\n      tag_648\n        /* \"--CODEGEN--\":11294:11299   */\n      dup3\n        /* \"--CODEGEN--\":11276:11300   */\n      tag_641\n      jump\t// in\n    tag_648:\n        /* \"--CODEGEN--\":11256:11301   */\n      tag_649\n      jump\t// in\n    tag_647:\n        /* \"--CODEGEN--\":11251:11254   */\n      dup3\n        /* \"--CODEGEN--\":11244:11302   */\n      mstore\n        /* \"--CODEGEN--\":11238:11307   */\n      pop\n      pop\n      jump\t// out\n        /* \"--CODEGEN--\":11314:11738   */\n    tag_399:\n      0x00\n        /* \"--CODEGEN--\":11486:11577   */\n      tag_651\n        /* \"--CODEGEN--\":11573:11576   */\n      dup3\n        /* \"--CODEGEN--\":11564:11570   */\n      dup6\n        /* \"--CODEGEN--\":11486:11577   */\n      tag_547\n      jump\t// in\n    tag_651:\n        /* \"--CODEGEN--\":11599:11601   */\n      0x14\n        /* \"--CODEGEN--\":11594:11597   */\n      dup3\n        /* \"--CODEGEN--\":11590:11602   */\n      add\n        /* \"--CODEGEN--\":11583:11602   */\n      swap2\n      pop\n        /* \"--CODEGEN--\":11613:11688   */\n      tag_652\n        /* \"--CODEGEN--\":11684:11687   */\n      dup3\n        /* \"--CODEGEN--\":11675:11681   */\n      dup5\n        /* \"--CODEGEN--\":11613:11688   */\n      tag_645\n      jump\t// in\n    tag_652:\n        /* \"--CODEGEN--\":11710:11712   */\n      0x20\n        /* \"--CODEGEN--\":11705:11708   */\n      dup3\n        /* \"--CODEGEN--\":11701:11713   */\n      add\n        /* \"--CODEGEN--\":11694:11713   */\n      swap2\n      pop\n        /* \"--CODEGEN--\":11730:11733   */\n      dup2\n        /* \"--CODEGEN--\":11723:11733   */\n      swap1\n      pop\n        /* \"--CODEGEN--\":11474:11738   */\n      swap4\n      swap3\n      pop\n      pop\n      pop\n      jump\t// out\n        /* \"--CODEGEN--\":11745:12020   */\n    tag_138:\n      0x00\n        /* \"--CODEGEN--\":11900:11995   */\n      tag_654\n        /* \"--CODEGEN--\":11991:11994   */\n      dup3\n        /* \"--CODEGEN--\":11982:11988   */\n      dup5\n        /* \"--CODEGEN--\":11900:11995   */\n      tag_614\n      jump\t// in\n    tag_654:\n        /* \"--CODEGEN--\":11893:11995   */\n      swap2\n      pop\n        /* \"--CODEGEN--\":12012:12015   */\n      dup2\n        /* \"--CODEGEN--\":12005:12015   */\n      swap1\n      pop\n        /* \"--CODEGEN--\":11881:12020   */\n      swap3\n      swap2\n      pop\n      pop\n      jump\t// out\n        /* \"--CODEGEN--\":12027:12296   */\n    tag_136:\n      0x00\n        /* \"--CODEGEN--\":12179:12271   */\n      tag_656\n        /* \"--CODEGEN--\":12267:12270   */\n      dup3\n        /* \"--CODEGEN--\":12258:12264   */\n      dup5\n        /* \"--CODEGEN--\":12179:12271   */\n      tag_620\n      jump\t// in\n    tag_656:\n        /* \"--CODEGEN--\":12172:12271   */\n      swap2\n      pop\n        /* \"--CODEGEN--\":12288:12291   */\n      dup2\n        /* \"--CODEGEN--\":12281:12291   */\n      swap1\n      pop\n        /* \"--CODEGEN--\":12160:12296   */\n      swap3\n      swap2\n      pop\n      pop\n      jump\t// out\n        /* \"--CODEGEN--\":12303:12557   */\n    tag_51:\n      0x00\n        /* \"--CODEGEN--\":12446:12448   */\n      0x20\n        /* \"--CODEGEN--\":12435:12444   */\n      dup3\n        /* \"--CODEGEN--\":12431:12449   */\n      add\n        /* \"--CODEGEN--\":12423:12449   */\n      swap1\n      pop\n        /* \"--CODEGEN--\":12460:12547   */\n      tag_658\n        /* \"--CODEGEN--\":12544:12545   */\n      0x00\n        /* \"--CODEGEN--\":12533:12542   */\n      dup4\n        /* \"--CODEGEN--\":12529:12546   */\n      add\n        /* \"--CODEGEN--\":12520:12526   */\n      dup5\n        /* \"--CODEGEN--\":12460:12547   */\n      tag_543\n      jump\t// in\n    tag_658:\n        /* \"--CODEGEN--\":12417:12557   */\n      swap3\n      swap2\n      pop\n      pop\n      jump\t// out\n        /* \"--CODEGEN--\":12564:12934   */\n    tag_85:\n      0x00\n        /* \"--CODEGEN--\":12741:12743   */\n      0x20\n        /* \"--CODEGEN--\":12730:12739   */\n      dup3\n        /* \"--CODEGEN--\":12726:12744   */\n      add\n        /* \"--CODEGEN--\":12718:12744   */\n      swap1\n      pop\n        /* \"--CODEGEN--\":12791:12800   */\n      dup2\n        /* \"--CODEGEN--\":12785:12789   */\n      dup2\n        /* \"--CODEGEN--\":12781:12801   */\n      sub\n        /* \"--CODEGEN--\":12777:12778   */\n      0x00\n        /* \"--CODEGEN--\":12766:12775   */\n      dup4\n        /* \"--CODEGEN--\":12762:12779   */\n      add\n        /* \"--CODEGEN--\":12755:12802   */\n      mstore\n        /* \"--CODEGEN--\":12816:12924   */\n      tag_660\n        /* \"--CODEGEN--\":12919:12923   */\n      dup2\n        /* \"--CODEGEN--\":12910:12916   */\n      dup5\n        /* \"--CODEGEN--\":12816:12924   */\n      tag_555\n      jump\t// in\n    tag_660:\n        /* \"--CODEGEN--\":12808:12924   */\n      swap1\n      pop\n        /* \"--CODEGEN--\":12712:12934   */\n      swap3\n      swap2\n      pop\n      pop\n      jump\t// out\n        /* \"--CODEGEN--\":12941:13351   */\n    tag_61:\n      0x00\n        /* \"--CODEGEN--\":13138:13140   */\n      0x20\n        /* \"--CODEGEN--\":13127:13136   */\n      dup3\n        /* \"--CODEGEN--\":13123:13141   */\n      add\n        /* \"--CODEGEN--\":13115:13141   */\n      swap1\n      pop\n        /* \"--CODEGEN--\":13188:13197   */\n      dup2\n        /* \"--CODEGEN--\":13182:13186   */\n      dup2\n        /* \"--CODEGEN--\":13178:13198   */\n      sub\n        /* \"--CODEGEN--\":13174:13175   */\n      0x00\n        /* \"--CODEGEN--\":13163:13172   */\n      dup4\n        /* \"--CODEGEN--\":13159:13176   */\n      add\n        /* \"--CODEGEN--\":13152:13199   */\n      mstore\n        /* \"--CODEGEN--\":13213:13341   */\n      tag_662\n        /* \"--CODEGEN--\":13336:13340   */\n      dup2\n        /* \"--CODEGEN--\":13327:13333   */\n      dup5\n        /* \"--CODEGEN--\":13213:13341   */\n      tag_569\n      jump\t// in\n    tag_662:\n        /* \"--CODEGEN--\":13205:13341   */\n      swap1\n      pop\n        /* \"--CODEGEN--\":13109:13351   */\n      swap3\n      swap2\n      pop\n      pop\n      jump\t// out\n        /* \"--CODEGEN--\":13358:14326   */\n    tag_55:\n      0x00\n        /* \"--CODEGEN--\":13731:13733   */\n      0x60\n        /* \"--CODEGEN--\":13720:13729   */\n      dup3\n        /* \"--CODEGEN--\":13716:13734   */\n      add\n        /* \"--CODEGEN--\":13708:13734   */\n      swap1\n      pop\n        /* \"--CODEGEN--\":13781:13790   */\n      dup2\n        /* \"--CODEGEN--\":13775:13779   */\n      dup2\n        /* \"--CODEGEN--\":13771:13791   */\n      sub\n        /* \"--CODEGEN--\":13767:13768   */\n      0x00\n        /* \"--CODEGEN--\":13756:13765   */\n      dup4\n        /* \"--CODEGEN--\":13752:13769   */\n      add\n        /* \"--CODEGEN--\":13745:13792   */\n      mstore\n        /* \"--CODEGEN--\":13806:13914   */\n      tag_664\n        /* \"--CODEGEN--\":13909:13913   */\n      dup2\n        /* \"--CODEGEN--\":13900:13906   */\n      dup7\n        /* \"--CODEGEN--\":13806:13914   */\n      tag_583\n      jump\t// in\n    tag_664:\n        /* \"--CODEGEN--\":13798:13914   */\n      swap1\n      pop\n        /* \"--CODEGEN--\":13962:13971   */\n      dup2\n        /* \"--CODEGEN--\":13956:13960   */\n      dup2\n        /* \"--CODEGEN--\":13952:13972   */\n      sub\n        /* \"--CODEGEN--\":13947:13949   */\n      0x20\n        /* \"--CODEGEN--\":13936:13945   */\n      dup4\n        /* \"--CODEGEN--\":13932:13950   */\n      add\n        /* \"--CODEGEN--\":13925:13973   */\n      mstore\n        /* \"--CODEGEN--\":13987:14115   */\n      tag_665\n        /* \"--CODEGEN--\":14110:14114   */\n      dup2\n        /* \"--CODEGEN--\":14101:14107   */\n      dup6\n        /* \"--CODEGEN--\":13987:14115   */\n      tag_569\n      jump\t// in\n    tag_665:\n        /* \"--CODEGEN--\":13979:14115   */\n      swap1\n      pop\n        /* \"--CODEGEN--\":14163:14172   */\n      dup2\n        /* \"--CODEGEN--\":14157:14161   */\n      dup2\n        /* \"--CODEGEN--\":14153:14173   */\n      sub\n        /* \"--CODEGEN--\":14148:14150   */\n      0x40\n        /* \"--CODEGEN--\":14137:14146   */\n      dup4\n        /* \"--CODEGEN--\":14133:14151   */\n      add\n        /* \"--CODEGEN--\":14126:14174   */\n      mstore\n        /* \"--CODEGEN--\":14188:14316   */\n      tag_666\n        /* \"--CODEGEN--\":14311:14315   */\n      dup2\n        /* \"--CODEGEN--\":14302:14308   */\n      dup5\n        /* \"--CODEGEN--\":14188:14316   */\n      tag_569\n      jump\t// in\n    tag_666:\n        /* \"--CODEGEN--\":14180:14316   */\n      swap1\n      pop\n        /* \"--CODEGEN--\":13702:14326   */\n      swap5\n      swap4\n      pop\n      pop\n      pop\n      pop\n      jump\t// out\n        /* \"--CODEGEN--\":14333:15561   */\n    tag_74:\n      0x00\n        /* \"--CODEGEN--\":14784:14787   */\n      0x80\n        /* \"--CODEGEN--\":14773:14782   */\n      dup3\n        /* \"--CODEGEN--\":14769:14788   */\n      add\n        /* \"--CODEGEN--\":14761:14788   */\n      swap1\n      pop\n        /* \"--CODEGEN--\":14835:14844   */\n      dup2\n        /* \"--CODEGEN--\":14829:14833   */\n      dup2\n        /* \"--CODEGEN--\":14825:14845   */\n      sub\n        /* \"--CODEGEN--\":14821:14822   */\n      0x00\n        /* \"--CODEGEN--\":14810:14819   */\n      dup4\n        /* \"--CODEGEN--\":14806:14823   */\n      add\n        /* \"--CODEGEN--\":14799:14846   */\n      mstore\n        /* \"--CODEGEN--\":14860:14968   */\n      tag_668\n        /* \"--CODEGEN--\":14963:14967   */\n      dup2\n        /* \"--CODEGEN--\":14954:14960   */\n      dup8\n        /* \"--CODEGEN--\":14860:14968   */\n      tag_583\n      jump\t// in\n    tag_668:\n        /* \"--CODEGEN--\":14852:14968   */\n      swap1\n      pop\n        /* \"--CODEGEN--\":15016:15025   */\n      dup2\n        /* \"--CODEGEN--\":15010:15014   */\n      dup2\n        /* \"--CODEGEN--\":15006:15026   */\n      sub\n        /* \"--CODEGEN--\":15001:15003   */\n      0x20\n        /* \"--CODEGEN--\":14990:14999   */\n      dup4\n        /* \"--CODEGEN--\":14986:15004   */\n      add\n        /* \"--CODEGEN--\":14979:15027   */\n      mstore\n        /* \"--CODEGEN--\":15041:15169   */\n      tag_669\n        /* \"--CODEGEN--\":15164:15168   */\n      dup2\n        /* \"--CODEGEN--\":15155:15161   */\n      dup7\n        /* \"--CODEGEN--\":15041:15169   */\n      tag_569\n      jump\t// in\n    tag_669:\n        /* \"--CODEGEN--\":15033:15169   */\n      swap1\n      pop\n        /* \"--CODEGEN--\":15217:15226   */\n      dup2\n        /* \"--CODEGEN--\":15211:15215   */\n      dup2\n        /* \"--CODEGEN--\":15207:15227   */\n      sub\n        /* \"--CODEGEN--\":15202:15204   */\n      0x40\n        /* \"--CODEGEN--\":15191:15200   */\n      dup4\n        /* \"--CODEGEN--\":15187:15205   */\n      add\n        /* \"--CODEGEN--\":15180:15228   */\n      mstore\n        /* \"--CODEGEN--\":15242:15370   */\n      tag_670\n        /* \"--CODEGEN--\":15365:15369   */\n      dup2\n        /* \"--CODEGEN--\":15356:15362   */\n      dup6\n        /* \"--CODEGEN--\":15242:15370   */\n      tag_569\n      jump\t// in\n    tag_670:\n        /* \"--CODEGEN--\":15234:15370   */\n      swap1\n      pop\n        /* \"--CODEGEN--\":15418:15427   */\n      dup2\n        /* \"--CODEGEN--\":15412:15416   */\n      dup2\n        /* \"--CODEGEN--\":15408:15428   */\n      sub\n        /* \"--CODEGEN--\":15403:15405   */\n      0x60\n        /* \"--CODEGEN--\":15392:15401   */\n      dup4\n        /* \"--CODEGEN--\":15388:15406   */\n      add\n        /* \"--CODEGEN--\":15381:15429   */\n      mstore\n        /* \"--CODEGEN--\":15443:15551   */\n      tag_671\n        /* \"--CODEGEN--\":15546:15550   */\n      dup2\n        /* \"--CODEGEN--\":15537:15543   */\n      dup5\n        /* \"--CODEGEN--\":15443:15551   */\n      tag_555\n      jump\t// in\n    tag_671:\n        /* \"--CODEGEN--\":15435:15551   */\n      swap1\n      pop\n        /* \"--CODEGEN--\":14755:15561   */\n      swap6\n      swap5\n      pop\n      pop\n      pop\n      pop\n      pop\n      jump\t// out\n        /* \"--CODEGEN--\":15568:15778   */\n    tag_67:\n      0x00\n        /* \"--CODEGEN--\":15689:15691   */\n      0x20\n        /* \"--CODEGEN--\":15678:15687   */\n      dup3\n        /* \"--CODEGEN--\":15674:15692   */\n      add\n        /* \"--CODEGEN--\":15666:15692   */\n      swap1\n      pop\n        /* \"--CODEGEN--\":15703:15768   */\n      tag_673\n        /* \"--CODEGEN--\":15765:15766   */\n      0x00\n        /* \"--CODEGEN--\":15754:15763   */\n      dup4\n        /* \"--CODEGEN--\":15750:15767   */\n      add\n        /* \"--CODEGEN--\":15741:15747   */\n      dup5\n        /* \"--CODEGEN--\":15703:15768   */\n      tag_597\n      jump\t// in\n    tag_673:\n        /* \"--CODEGEN--\":15660:15778   */\n      swap3\n      swap2\n      pop\n      pop\n      jump\t// out\n        /* \"--CODEGEN--\":15785:16007   */\n    tag_29:\n      0x00\n        /* \"--CODEGEN--\":15912:15914   */\n      0x20\n        /* \"--CODEGEN--\":15901:15910   */\n      dup3\n        /* \"--CODEGEN--\":15897:15915   */\n      add\n        /* \"--CODEGEN--\":15889:15915   */\n      swap1\n      pop\n        /* \"--CODEGEN--\":15926:15997   */\n      tag_675\n        /* \"--CODEGEN--\":15994:15995   */\n      0x00\n        /* \"--CODEGEN--\":15983:15992   */\n      dup4\n        /* \"--CODEGEN--\":15979:15996   */\n      add\n        /* \"--CODEGEN--\":15970:15976   */\n      dup5\n        /* \"--CODEGEN--\":15926:15997   */\n      tag_601\n      jump\t// in\n    tag_675:\n        /* \"--CODEGEN--\":15883:16007   */\n      swap3\n      swap2\n      pop\n      pop\n      jump\t// out\n        /* \"--CODEGEN--\":16014:16430   */\n    tag_407:\n      0x00\n        /* \"--CODEGEN--\":16214:16216   */\n      0x20\n        /* \"--CODEGEN--\":16203:16212   */\n      dup3\n        /* \"--CODEGEN--\":16199:16217   */\n      add\n        /* \"--CODEGEN--\":16191:16217   */\n      swap1\n      pop\n        /* \"--CODEGEN--\":16264:16273   */\n      dup2\n        /* \"--CODEGEN--\":16258:16262   */\n      dup2\n        /* \"--CODEGEN--\":16254:16274   */\n      sub\n        /* \"--CODEGEN--\":16250:16251   */\n      0x00\n        /* \"--CODEGEN--\":16239:16248   */\n      dup4\n        /* \"--CODEGEN--\":16235:16252   */\n      add\n        /* \"--CODEGEN--\":16228:16275   */\n      mstore\n        /* \"--CODEGEN--\":16289:16420   */\n      tag_677\n        /* \"--CODEGEN--\":16415:16419   */\n      dup2\n        /* \"--CODEGEN--\":16289:16420   */\n      tag_632\n      jump\t// in\n    tag_677:\n        /* \"--CODEGEN--\":16281:16420   */\n      swap1\n      pop\n        /* \"--CODEGEN--\":16185:16430   */\n      swap2\n      swap1\n      pop\n      jump\t// out\n        /* \"--CODEGEN--\":16437:16853   */\n    tag_419:\n      0x00\n        /* \"--CODEGEN--\":16637:16639   */\n      0x20\n        /* \"--CODEGEN--\":16626:16635   */\n      dup3\n        /* \"--CODEGEN--\":16622:16640   */\n      add\n        /* \"--CODEGEN--\":16614:16640   */\n      swap1\n      pop\n        /* \"--CODEGEN--\":16687:16696   */\n      dup2\n        /* \"--CODEGEN--\":16681:16685   */\n      dup2\n        /* \"--CODEGEN--\":16677:16697   */\n      sub\n        /* \"--CODEGEN--\":16673:16674   */\n      0x00\n        /* \"--CODEGEN--\":16662:16671   */\n      dup4\n        /* \"--CODEGEN--\":16658:16675   */\n      add\n        /* \"--CODEGEN--\":16651:16698   */\n      mstore\n        /* \"--CODEGEN--\":16712:16843   */\n      tag_679\n        /* \"--CODEGEN--\":16838:16842   */\n      dup2\n        /* \"--CODEGEN--\":16712:16843   */\n      tag_636\n      jump\t// in\n    tag_679:\n        /* \"--CODEGEN--\":16704:16843   */\n      swap1\n      pop\n        /* \"--CODEGEN--\":16608:16853   */\n      swap2\n      swap1\n      pop\n      jump\t// out\n        /* \"--CODEGEN--\":16860:17082   */\n    tag_37:\n      0x00\n        /* \"--CODEGEN--\":16987:16989   */\n      0x20\n        /* \"--CODEGEN--\":16976:16985   */\n      dup3\n        /* \"--CODEGEN--\":16972:16990   */\n      add\n        /* \"--CODEGEN--\":16964:16990   */\n      swap1\n      pop\n        /* \"--CODEGEN--\":17001:17072   */\n      tag_681\n        /* \"--CODEGEN--\":17069:17070   */\n      0x00\n        /* \"--CODEGEN--\":17058:17067   */\n      dup4\n        /* \"--CODEGEN--\":17054:17071   */\n      add\n        /* \"--CODEGEN--\":17045:17051   */\n      dup5\n        /* \"--CODEGEN--\":17001:17072   */\n      tag_642\n      jump\t// in\n    tag_681:\n        /* \"--CODEGEN--\":16958:17082   */\n      swap3\n      swap2\n      pop\n      pop\n      jump\t// out\n        /* \"--CODEGEN--\":17089:17345   */\n    tag_482:\n      0x00\n        /* \"--CODEGEN--\":17151:17153   */\n      0x40\n        /* \"--CODEGEN--\":17145:17154   */\n      mload\n        /* \"--CODEGEN--\":17135:17154   */\n      swap1\n      pop\n        /* \"--CODEGEN--\":17189:17193   */\n      dup2\n        /* \"--CODEGEN--\":17181:17187   */\n      dup2\n        /* \"--CODEGEN--\":17177:17194   */\n      add\n        /* \"--CODEGEN--\":17288:17294   */\n      dup2\n        /* \"--CODEGEN--\":17276:17286   */\n      dup2\n        /* \"--CODEGEN--\":17273:17295   */\n      lt\n        /* \"--CODEGEN--\":17252:17270   */\n      0xffffffffffffffff\n        /* \"--CODEGEN--\":17240:17250   */\n      dup3\n        /* \"--CODEGEN--\":17237:17271   */\n      gt\n        /* \"--CODEGEN--\":17234:17296   */\n      or\n        /* \"--CODEGEN--\":17231:17233   */\n      iszero\n      tag_683\n      jumpi\n        /* \"--CODEGEN--\":17309:17310   */\n      0x00\n        /* \"--CODEGEN--\":17306:17307   */\n      dup1\n        /* \"--CODEGEN--\":17299:17311   */\n      revert\n        /* \"--CODEGEN--\":17231:17233   */\n    tag_683:\n        /* \"--CODEGEN--\":17329:17339   */\n      dup1\n        /* \"--CODEGEN--\":17325:17327   */\n      0x40\n        /* \"--CODEGEN--\":17318:17340   */\n      mstore\n        /* \"--CODEGEN--\":17129:17345   */\n      pop\n      swap2\n      swap1\n      pop\n      jump\t// out\n        /* \"--CODEGEN--\":17352:17674   */\n    tag_481:\n      0x00\n        /* \"--CODEGEN--\":17496:17514   */\n      0xffffffffffffffff\n        /* \"--CODEGEN--\":17488:17494   */\n      dup3\n        /* \"--CODEGEN--\":17485:17515   */\n      gt\n        /* \"--CODEGEN--\":17482:17484   */\n      iszero\n      tag_685\n      jumpi\n        /* \"--CODEGEN--\":17528:17529   */\n      0x00\n        /* \"--CODEGEN--\":17525:17526   */\n      dup1\n        /* \"--CODEGEN--\":17518:17530   */\n      revert\n        /* \"--CODEGEN--\":17482:17484   */\n    tag_685:\n        /* \"--CODEGEN--\":17595:17599   */\n      0x1f\n        /* \"--CODEGEN--\":17591:17600   */\n      not\n        /* \"--CODEGEN--\":17584:17588   */\n      0x1f\n        /* \"--CODEGEN--\":17576:17582   */\n      dup4\n        /* \"--CODEGEN--\":17572:17589   */\n      add\n        /* \"--CODEGEN--\":17568:17601   */\n      and\n        /* \"--CODEGEN--\":17560:17601   */\n      swap1\n      pop\n        /* \"--CODEGEN--\":17659:17663   */\n      0x20\n        /* \"--CODEGEN--\":17653:17657   */\n      dup2\n        /* \"--CODEGEN--\":17649:17664   */\n      add\n        /* \"--CODEGEN--\":17641:17664   */\n      swap1\n      pop\n        /* \"--CODEGEN--\":17419:17674   */\n      swap2\n      swap1\n      pop\n      jump\t// out\n        /* \"--CODEGEN--\":17681:17832   */\n    tag_562:\n      0x00\n        /* \"--CODEGEN--\":17767:17770   */\n      dup2\n        /* \"--CODEGEN--\":17759:17770   */\n      swap1\n      pop\n        /* \"--CODEGEN--\":17805:17809   */\n      0x20\n        /* \"--CODEGEN--\":17800:17803   */\n      dup3\n        /* \"--CODEGEN--\":17796:17810   */\n      add\n        /* \"--CODEGEN--\":17788:17810   */\n      swap1\n      pop\n        /* \"--CODEGEN--\":17753:17832   */\n      swap2\n      swap1\n      pop\n      jump\t// out\n        /* \"--CODEGEN--\":17839:18000   */\n    tag_576:\n      0x00\n        /* \"--CODEGEN--\":17935:17938   */\n      dup2\n        /* \"--CODEGEN--\":17927:17938   */\n      swap1\n      pop\n        /* \"--CODEGEN--\":17973:17977   */\n      0x20\n        /* \"--CODEGEN--\":17968:17971   */\n      dup3\n        /* \"--CODEGEN--\":17964:17978   */\n      add\n        /* \"--CODEGEN--\":17956:17978   */\n      swap1\n      pop\n        /* \"--CODEGEN--\":17921:18000   */\n      swap2\n      swap1\n      pop\n      jump\t// out\n        /* \"--CODEGEN--\":18007:18158   */\n    tag_590:\n      0x00\n        /* \"--CODEGEN--\":18093:18096   */\n      dup2\n        /* \"--CODEGEN--\":18085:18096   */\n      swap1\n      pop\n        /* \"--CODEGEN--\":18131:18135   */\n      0x20\n        /* \"--CODEGEN--\":18126:18129   */\n      dup3\n        /* \"--CODEGEN--\":18122:18136   */\n      add\n        /* \"--CODEGEN--\":18114:18136   */\n      swap1\n      pop\n        /* \"--CODEGEN--\":18079:18158   */\n      swap2\n      swap1\n      pop\n      jump\t// out\n        /* \"--CODEGEN--\":18165:18323   */\n    tag_628:\n      0x00\n        /* \"--CODEGEN--\":18233:18236   */\n      dup2\n        /* \"--CODEGEN--\":18225:18236   */\n      swap1\n      pop\n        /* \"--CODEGEN--\":18270:18273   */\n      dup2\n        /* \"--CODEGEN--\":18267:18268   */\n      0x00\n        /* \"--CODEGEN--\":18260:18274   */\n      mstore\n        /* \"--CODEGEN--\":18302:18306   */\n      0x20\n        /* \"--CODEGEN--\":18299:18300   */\n      0x00\n        /* \"--CODEGEN--\":18289:18307   */\n      keccak256\n        /* \"--CODEGEN--\":18281:18307   */\n      swap1\n      pop\n        /* \"--CODEGEN--\":18219:18323   */\n      swap2\n      swap1\n      pop\n      jump\t// out\n        /* \"--CODEGEN--\":18330:18467   */\n    tag_558:\n      0x00\n        /* \"--CODEGEN--\":18439:18444   */\n      dup2\n        /* \"--CODEGEN--\":18433:18445   */\n      mload\n        /* \"--CODEGEN--\":18423:18445   */\n      swap1\n      pop\n        /* \"--CODEGEN--\":18404:18467   */\n      swap2\n      swap1\n      pop\n      jump\t// out\n        /* \"--CODEGEN--\":18474:18621   */\n    tag_572:\n      0x00\n        /* \"--CODEGEN--\":18593:18598   */\n      dup2\n        /* \"--CODEGEN--\":18587:18599   */\n      mload\n        /* \"--CODEGEN--\":18577:18599   */\n      swap1\n      pop\n        /* \"--CODEGEN--\":18558:18621   */\n      swap2\n      swap1\n      pop\n      jump\t// out\n        /* \"--CODEGEN--\":18628:18765   */\n    tag_586:\n      0x00\n        /* \"--CODEGEN--\":18737:18742   */\n      dup2\n        /* \"--CODEGEN--\":18731:18743   */\n      mload\n        /* \"--CODEGEN--\":18721:18743   */\n      swap1\n      pop\n        /* \"--CODEGEN--\":18702:18765   */\n      swap2\n      swap1\n      pop\n      jump\t// out\n        /* \"--CODEGEN--\":18772:18894   */\n    tag_607:\n      0x00\n        /* \"--CODEGEN--\":18866:18871   */\n      dup2\n        /* \"--CODEGEN--\":18860:18872   */\n      mload\n        /* \"--CODEGEN--\":18850:18872   */\n      swap1\n      pop\n        /* \"--CODEGEN--\":18831:18894   */\n      swap2\n      swap1\n      pop\n      jump\t// out\n        /* \"--CODEGEN--\":18901:19009   */\n    tag_568:\n      0x00\n        /* \"--CODEGEN--\":18999:19003   */\n      0x20\n        /* \"--CODEGEN--\":18994:18997   */\n      dup3\n        /* \"--CODEGEN--\":18990:19004   */\n      add\n        /* \"--CODEGEN--\":18982:19004   */\n      swap1\n      pop\n        /* \"--CODEGEN--\":18976:19009   */\n      swap2\n      swap1\n      pop\n      jump\t// out\n        /* \"--CODEGEN--\":19016:19134   */\n    tag_582:\n      0x00\n        /* \"--CODEGEN--\":19124:19128   */\n      0x20\n        /* \"--CODEGEN--\":19119:19122   */\n      dup3\n        /* \"--CODEGEN--\":19115:19129   */\n      add\n        /* \"--CODEGEN--\":19107:19129   */\n      swap1\n      pop\n        /* \"--CODEGEN--\":19101:19134   */\n      swap2\n      swap1\n      pop\n      jump\t// out\n        /* \"--CODEGEN--\":19141:19249   */\n    tag_596:\n      0x00\n        /* \"--CODEGEN--\":19239:19243   */\n      0x20\n        /* \"--CODEGEN--\":19234:19237   */\n      dup3\n        /* \"--CODEGEN--\":19230:19244   */\n      add\n        /* \"--CODEGEN--\":19222:19244   */\n      swap1\n      pop\n        /* \"--CODEGEN--\":19216:19249   */\n      swap2\n      swap1\n      pop\n      jump\t// out\n        /* \"--CODEGEN--\":19257:19435   */\n    tag_560:\n      0x00\n        /* \"--CODEGEN--\":19387:19393   */\n      dup3\n        /* \"--CODEGEN--\":19382:19385   */\n      dup3\n        /* \"--CODEGEN--\":19375:19394   */\n      mstore\n        /* \"--CODEGEN--\":19424:19428   */\n      0x20\n        /* \"--CODEGEN--\":19419:19422   */\n      dup3\n        /* \"--CODEGEN--\":19415:19429   */\n      add\n        /* \"--CODEGEN--\":19400:19429   */\n      swap1\n      pop\n        /* \"--CODEGEN--\":19368:19435   */\n      swap3\n      swap2\n      pop\n      pop\n      jump\t// out\n        /* \"--CODEGEN--\":19444:19632   */\n    tag_574:\n      0x00\n        /* \"--CODEGEN--\":19584:19590   */\n      dup3\n        /* \"--CODEGEN--\":19579:19582   */\n      dup3\n        /* \"--CODEGEN--\":19572:19591   */\n      mstore\n        /* \"--CODEGEN--\":19621:19625   */\n      0x20\n        /* \"--CODEGEN--\":19616:19619   */\n      dup3\n        /* \"--CODEGEN--\":19612:19626   */\n      add\n        /* \"--CODEGEN--\":19597:19626   */\n      swap1\n      pop\n        /* \"--CODEGEN--\":19565:19632   */\n      swap3\n      swap2\n      pop\n      pop\n      jump\t// out\n        /* \"--CODEGEN--\":19641:19819   */\n    tag_588:\n      0x00\n        /* \"--CODEGEN--\":19771:19777   */\n      dup3\n        /* \"--CODEGEN--\":19766:19769   */\n      dup3\n        /* \"--CODEGEN--\":19759:19778   */\n      mstore\n        /* \"--CODEGEN--\":19808:19812   */\n      0x20\n        /* \"--CODEGEN--\":19803:19806   */\n      dup3\n        /* \"--CODEGEN--\":19799:19813   */\n      add\n        /* \"--CODEGEN--\":19784:19813   */\n      swap1\n      pop\n        /* \"--CODEGEN--\":19752:19819   */\n      swap3\n      swap2\n      pop\n      pop\n      jump\t// out\n        /* \"--CODEGEN--\":19828:19981   */\n    tag_609:\n      0x00\n        /* \"--CODEGEN--\":19933:19939   */\n      dup3\n        /* \"--CODEGEN--\":19928:19931   */\n      dup3\n        /* \"--CODEGEN--\":19921:19940   */\n      mstore\n        /* \"--CODEGEN--\":19970:19974   */\n      0x20\n        /* \"--CODEGEN--\":19965:19968   */\n      dup3\n        /* \"--CODEGEN--\":19961:19975   */\n      add\n        /* \"--CODEGEN--\":19946:19975   */\n      swap1\n      pop\n        /* \"--CODEGEN--\":19914:19981   */\n      swap3\n      swap2\n      pop\n      pop\n      jump\t// out\n        /* \"--CODEGEN--\":19990:20153   */\n    tag_635:\n      0x00\n        /* \"--CODEGEN--\":20105:20111   */\n      dup3\n        /* \"--CODEGEN--\":20100:20103   */\n      dup3\n        /* \"--CODEGEN--\":20093:20112   */\n      mstore\n        /* \"--CODEGEN--\":20142:20146   */\n      0x20\n        /* \"--CODEGEN--\":20137:20140   */\n      dup3\n        /* \"--CODEGEN--\":20133:20147   */\n      add\n        /* \"--CODEGEN--\":20118:20147   */\n      swap1\n      pop\n        /* \"--CODEGEN--\":20086:20153   */\n      swap3\n      swap2\n      pop\n      pop\n      jump\t// out\n        /* \"--CODEGEN--\":20162:20307   */\n    tag_618:\n      0x00\n        /* \"--CODEGEN--\":20298:20301   */\n      dup2\n        /* \"--CODEGEN--\":20283:20301   */\n      swap1\n      pop\n        /* \"--CODEGEN--\":20276:20307   */\n      swap3\n      swap2\n      pop\n      pop\n      jump\t// out\n        /* \"--CODEGEN--\":20315:20406   */\n    tag_554:\n      0x00\n        /* \"--CODEGEN--\":20377:20401   */\n      tag_704\n        /* \"--CODEGEN--\":20395:20400   */\n      dup3\n        /* \"--CODEGEN--\":20377:20401   */\n      tag_705\n      jump\t// in\n    tag_704:\n        /* \"--CODEGEN--\":20366:20401   */\n      swap1\n      pop\n        /* \"--CODEGEN--\":20360:20406   */\n      swap2\n      swap1\n      pop\n      jump\t// out\n        /* \"--CODEGEN--\":20413:20512   */\n    tag_546:\n      0x00\n        /* \"--CODEGEN--\":20483:20507   */\n      tag_707\n        /* \"--CODEGEN--\":20501:20506   */\n      dup3\n        /* \"--CODEGEN--\":20483:20507   */\n      tag_705\n      jump\t// in\n    tag_707:\n        /* \"--CODEGEN--\":20472:20507   */\n      swap1\n      pop\n        /* \"--CODEGEN--\":20466:20512   */\n      swap2\n      swap1\n      pop\n      jump\t// out\n        /* \"--CODEGEN--\":20519:20604   */\n    tag_600:\n      0x00\n        /* \"--CODEGEN--\":20592:20597   */\n      dup2\n        /* \"--CODEGEN--\":20585:20598   */\n      iszero\n        /* \"--CODEGEN--\":20578:20599   */\n      iszero\n        /* \"--CODEGEN--\":20567:20599   */\n      swap1\n      pop\n        /* \"--CODEGEN--\":20561:20604   */\n      swap2\n      swap1\n      pop\n      jump\t// out\n        /* \"--CODEGEN--\":20611:20683   */\n    tag_604:\n      0x00\n        /* \"--CODEGEN--\":20673:20678   */\n      dup2\n        /* \"--CODEGEN--\":20662:20678   */\n      swap1\n      pop\n        /* \"--CODEGEN--\":20656:20683   */\n      swap2\n      swap1\n      pop\n      jump\t// out\n        /* \"--CODEGEN--\":20690:20811   */\n    tag_705:\n      0x00\n        /* \"--CODEGEN--\":20763:20805   */\n      0xffffffffffffffffffffffffffffffffffffffff\n        /* \"--CODEGEN--\":20756:20761   */\n      dup3\n        /* \"--CODEGEN--\":20752:20806   */\n      and\n        /* \"--CODEGEN--\":20741:20806   */\n      swap1\n      pop\n        /* \"--CODEGEN--\":20735:20811   */\n      swap2\n      swap1\n      pop\n      jump\t// out\n        /* \"--CODEGEN--\":20818:20890   */\n    tag_641:\n      0x00\n        /* \"--CODEGEN--\":20880:20885   */\n      dup2\n        /* \"--CODEGEN--\":20869:20885   */\n      swap1\n      pop\n        /* \"--CODEGEN--\":20863:20890   */\n      swap2\n      swap1\n      pop\n      jump\t// out\n        /* \"--CODEGEN--\":20898:21043   */\n    tag_485:\n        /* \"--CODEGEN--\":20979:20985   */\n      dup3\n        /* \"--CODEGEN--\":20974:20977   */\n      dup2\n        /* \"--CODEGEN--\":20969:20972   */\n      dup4\n        /* \"--CODEGEN--\":20956:20986   */\n      calldatacopy\n        /* \"--CODEGEN--\":21035:21036   */\n      0x00\n        /* \"--CODEGEN--\":21026:21032   */\n      dup4\n        /* \"--CODEGEN--\":21021:21024   */\n      dup4\n        /* \"--CODEGEN--\":21017:21033   */\n      add\n        /* \"--CODEGEN--\":21010:21037   */\n      mstore\n        /* \"--CODEGEN--\":20949:21043   */\n      pop\n      pop\n      pop\n      jump\t// out\n        /* \"--CODEGEN--\":21052:21320   */\n    tag_611:\n        /* \"--CODEGEN--\":21117:21118   */\n      0x00\n        /* \"--CODEGEN--\":21124:21225   */\n    tag_714:\n        /* \"--CODEGEN--\":21138:21144   */\n      dup4\n        /* \"--CODEGEN--\":21135:21136   */\n      dup2\n        /* \"--CODEGEN--\":21132:21145   */\n      lt\n        /* \"--CODEGEN--\":21124:21225   */\n      iszero\n      tag_716\n      jumpi\n        /* \"--CODEGEN--\":21214:21215   */\n      dup1\n        /* \"--CODEGEN--\":21209:21212   */\n      dup3\n        /* \"--CODEGEN--\":21205:21216   */\n      add\n        /* \"--CODEGEN--\":21199:21217   */\n      mload\n        /* \"--CODEGEN--\":21195:21196   */\n      dup2\n        /* \"--CODEGEN--\":21190:21193   */\n      dup5\n        /* \"--CODEGEN--\":21186:21197   */\n      add\n        /* \"--CODEGEN--\":21179:21218   */\n      mstore\n        /* \"--CODEGEN--\":21160:21162   */\n      0x20\n        /* \"--CODEGEN--\":21157:21158   */\n      dup2\n        /* \"--CODEGEN--\":21153:21163   */\n      add\n        /* \"--CODEGEN--\":21148:21163   */\n      swap1\n      pop\n        /* \"--CODEGEN--\":21124:21225   */\n      jump(tag_714)\n    tag_716:\n        /* \"--CODEGEN--\":21240:21246   */\n      dup4\n        /* \"--CODEGEN--\":21237:21238   */\n      dup2\n        /* \"--CODEGEN--\":21234:21247   */\n      gt\n        /* \"--CODEGEN--\":21231:21233   */\n      iszero\n      tag_717\n      jumpi\n        /* \"--CODEGEN--\":21305:21306   */\n      0x00\n        /* \"--CODEGEN--\":21296:21302   */\n      dup5\n        /* \"--CODEGEN--\":21291:21294   */\n      dup5\n        /* \"--CODEGEN--\":21287:21303   */\n      add\n        /* \"--CODEGEN--\":21280:21307   */\n      mstore\n        /* \"--CODEGEN--\":21231:21233   */\n    tag_717:\n        /* \"--CODEGEN--\":21101:21320   */\n      pop\n      pop\n      pop\n      pop\n      jump\t// out\n        /* \"--CODEGEN--\":21328:21431   */\n    tag_551:\n      0x00\n        /* \"--CODEGEN--\":21400:21426   */\n      tag_719\n        /* \"--CODEGEN--\":21420:21425   */\n      dup3\n        /* \"--CODEGEN--\":21400:21426   */\n      tag_720\n      jump\t// in\n    tag_719:\n        /* \"--CODEGEN--\":21389:21426   */\n      swap1\n      pop\n        /* \"--CODEGEN--\":21383:21431   */\n      swap2\n      swap1\n      pop\n      jump\t// out\n        /* \"--CODEGEN--\":21438:21527   */\n    tag_720:\n      0x00\n        /* \"--CODEGEN--\":21502:21522   */\n      tag_722\n        /* \"--CODEGEN--\":21516:21521   */\n      dup3\n        /* \"--CODEGEN--\":21502:21522   */\n      tag_723\n      jump\t// in\n    tag_722:\n        /* \"--CODEGEN--\":21491:21522   */\n      swap1\n      pop\n        /* \"--CODEGEN--\":21485:21527   */\n      swap2\n      swap1\n      pop\n      jump\t// out\n        /* \"--CODEGEN--\":21534:21608   */\n    tag_649:\n      0x00\n        /* \"--CODEGEN--\":21598:21603   */\n      dup2\n        /* \"--CODEGEN--\":21587:21603   */\n      swap1\n      pop\n        /* \"--CODEGEN--\":21581:21608   */\n      swap2\n      swap1\n      pop\n      jump\t// out\n        /* \"--CODEGEN--\":21615:21712   */\n    tag_613:\n      0x00\n        /* \"--CODEGEN--\":21703:21705   */\n      0x1f\n        /* \"--CODEGEN--\":21699:21706   */\n      not\n        /* \"--CODEGEN--\":21694:21696   */\n      0x1f\n        /* \"--CODEGEN--\":21687:21692   */\n      dup4\n        /* \"--CODEGEN--\":21683:21697   */\n      add\n        /* \"--CODEGEN--\":21679:21707   */\n      and\n        /* \"--CODEGEN--\":21669:21707   */\n      swap1\n      pop\n        /* \"--CODEGEN--\":21663:21712   */\n      swap2\n      swap1\n      pop\n      jump\t// out\n        /* \"--CODEGEN--\":21720:21814   */\n    tag_723:\n      0x00\n        /* \"--CODEGEN--\":21798:21803   */\n      dup2\n        /* \"--CODEGEN--\":21794:21796   */\n      0x60\n        /* \"--CODEGEN--\":21790:21804   */\n      shl\n        /* \"--CODEGEN--\":21768:21804   */\n      swap1\n      pop\n        /* \"--CODEGEN--\":21762:21814   */\n      swap2\n      swap1\n      pop\n      jump\t// out\n        /* \"--CODEGEN--\":21822:21939   */\n    tag_467:\n        /* \"--CODEGEN--\":21891:21915   */\n      tag_728\n        /* \"--CODEGEN--\":21909:21914   */\n      dup2\n        /* \"--CODEGEN--\":21891:21915   */\n      tag_554\n      jump\t// in\n    tag_728:\n        /* \"--CODEGEN--\":21884:21889   */\n      dup2\n        /* \"--CODEGEN--\":21881:21916   */\n      eq\n        /* \"--CODEGEN--\":21871:21873   */\n      tag_729\n      jumpi\n        /* \"--CODEGEN--\":21930:21931   */\n      0x00\n        /* \"--CODEGEN--\":21927:21928   */\n      dup1\n        /* \"--CODEGEN--\":21920:21932   */\n      revert\n        /* \"--CODEGEN--\":21871:21873   */\n    tag_729:\n        /* \"--CODEGEN--\":21865:21939   */\n      pop\n      jump\t// out\n        /* \"--CODEGEN--\":21946:22079   */\n    tag_471:\n        /* \"--CODEGEN--\":22023:22055   */\n      tag_731\n        /* \"--CODEGEN--\":22049:22054   */\n      dup2\n        /* \"--CODEGEN--\":22023:22055   */\n      tag_546\n      jump\t// in\n    tag_731:\n        /* \"--CODEGEN--\":22016:22021   */\n      dup2\n        /* \"--CODEGEN--\":22013:22056   */\n      eq\n        /* \"--CODEGEN--\":22003:22005   */\n      tag_732\n      jumpi\n        /* \"--CODEGEN--\":22070:22071   */\n      0x00\n        /* \"--CODEGEN--\":22067:22068   */\n      dup1\n        /* \"--CODEGEN--\":22060:22072   */\n      revert\n        /* \"--CODEGEN--\":22003:22005   */\n    tag_732:\n        /* \"--CODEGEN--\":21997:22079   */\n      pop\n      jump\t// out\n        /* \"--CODEGEN--\":22086:22203   */\n    tag_475:\n        /* \"--CODEGEN--\":22155:22179   */\n      tag_734\n        /* \"--CODEGEN--\":22173:22178   */\n      dup2\n        /* \"--CODEGEN--\":22155:22179   */\n      tag_604\n      jump\t// in\n    tag_734:\n        /* \"--CODEGEN--\":22148:22153   */\n      dup2\n        /* \"--CODEGEN--\":22145:22180   */\n      eq\n        /* \"--CODEGEN--\":22135:22137   */\n      tag_735\n      jumpi\n        /* \"--CODEGEN--\":22194:22195   */\n      0x00\n        /* \"--CODEGEN--\":22191:22192   */\n      dup1\n        /* \"--CODEGEN--\":22184:22196   */\n      revert\n        /* \"--CODEGEN--\":22135:22137   */\n    tag_735:\n        /* \"--CODEGEN--\":22129:22203   */\n      pop\n      jump\t// out\n        /* \"--CODEGEN--\":22210:22327   */\n    tag_489:\n        /* \"--CODEGEN--\":22279:22303   */\n      tag_737\n        /* \"--CODEGEN--\":22297:22302   */\n      dup2\n        /* \"--CODEGEN--\":22279:22303   */\n      tag_641\n      jump\t// in\n    tag_737:\n        /* \"--CODEGEN--\":22272:22277   */\n      dup2\n        /* \"--CODEGEN--\":22269:22304   */\n      eq\n        /* \"--CODEGEN--\":22259:22261   */\n      tag_738\n      jumpi\n        /* \"--CODEGEN--\":22318:22319   */\n      0x00\n        /* \"--CODEGEN--\":22315:22316   */\n      dup1\n        /* \"--CODEGEN--\":22308:22320   */\n      revert\n        /* \"--CODEGEN--\":22259:22261   */\n    tag_738:\n        /* \"--CODEGEN--\":22253:22327   */\n      pop\n      jump\t// out\n\n    auxdata: 0xa2646970667358221220f1c95d737015b63bf4eab8e33fc4ebb827728f2f315a52bde84d486d1fa559ff64736f6c634300060c0033\n}\n",
    "bytecode": {
      "linkReferences": {},
      "object": "608060405234801561001057600080fd5b50336000806101000a81548173ffffffffffffffffffffffffffffffffffffffff021916908373ffffffffffffffffffffffffffffffffffffffff16021790555060006006819055506000600781905550600060088190555060006009819055506138fa806100806000396000f3fe608060405234801561001057600080fd5b50600436106101165760003560e01c80637909ce47116100a2578063a9cb1a3611610071578063a9cb1a36146102d2578063d1314ee0146102ee578063e58da61f1461030c578063e8e5339a1461033c578063fa6a04e41461035857610116565b80637909ce4714610249578063836cae6514610279578063909e4ab61461029557806398173ff4146102b657610116565b8063416a5d81116100e9578063416a5d81146101a157806342bb20e1146101bf578063481c6a75146101db5780636db80995146101f9578063716588961461021957610116565b80630344248b1461011b5780631ee32b051461014b57806330a66294146101675780633276807a14610185575b600080fd5b61013560048036038101906101309190612e05565b610362565b60405161014291906135af565b60405180910390f35b61016560048036038101906101609190612e2e565b610404565b005b61016f610793565b60405161017c919061360a565b60405180910390f35b61019f600480360381019061019a9190612fe6565b6107f6565b005b6101a96109ea565b6040516101b6919061360a565b60405180910390f35b6101d960048036038101906101d49190612fe6565b610a4d565b005b6101e3610d13565b6040516101f09190613488565b60405180910390f35b610201610d37565b604051610210939291906134e7565b60405180910390f35b610233600480360381019061022e9190612fbd565b611059565b60405161024091906134c5565b60405180910390f35b610263600480360381019061025e9190612e57565b61124e565b6040516102709190613594565b60405180910390f35b610293600480360381019061028e9190612e2e565b611408565b005b61029d6115f8565b6040516102ad9493929190613533565b60405180910390f35b6102d060048036038101906102cb9190612f51565b6119d8565b005b6102ec60048036038101906102e79190612fbd565b611bd7565b005b6102f6611e0c565b60405161030391906134a3565b60405180910390f35b61032660048036038101906103219190612ebe565b611f5d565b6040516103339190613594565b60405180910390f35b6103566004803603810190610351919061303a565b61213e565b005b610360612317565b005b60008060009054906101000a900473ffffffffffffffffffffffffffffffffffffffff1673ffffffffffffffffffffffffffffffffffffffff163373ffffffffffffffffffffffffffffffffffffffff16146103bd57600080fd5b600560008373ffffffffffffffffffffffffffffffffffffffff1673ffffffffffffffffffffffffffffffffffffffff168152602001908152602001600020549050919050565b60008054906101000a900473ffffffffffffffffffffffffffffffffffffffff1673ffffffffffffffffffffffffffffffffffffffff163373ffffffffffffffffffffffffffffffffffffffff161461045c57600080fd5b60005b60028054905081101561078f576002818154811061047957fe5b906000526020600020906002020160000160009054906101000a900473ffffffffffffffffffffffffffffffffffffffff1673ffffffffffffffffffffffffffffffffffffffff168273ffffffffffffffffffffffffffffffffffffffff161415610782576000600460008473ffffffffffffffffffffffffffffffffffffffff1673ffffffffffffffffffffffffffffffffffffffff16815260200190815260200160002060006101000a81548160ff0219169083151502179055506000801b600560008473ffffffffffffffffffffffffffffffffffffffff1673ffffffffffffffffffffffffffffffffffffffff168152602001908152602001600020819055507f504e9e94e0c65229aaf8cabe153380cc35da3135e30129bc3195f7e031cdf82b600560003373ffffffffffffffffffffffffffffffffffffffff1673ffffffffffffffffffffffffffffffffffffffff168152602001908152602001600020546040516105eb91906135af565b60405180910390a160026001600280549050038154811061060857fe5b90600052602060002090600202016002828154811061062357fe5b90600052602060002090600202016000820160009054906101000a900473ffffffffffffffffffffffffffffffffffffffff168160000160006101000a81548173ffffffffffffffffffffffffffffffffffffffff021916908373ffffffffffffffffffffffffffffffffffffffff1602179055506001820154816001015590505060028054806106b057fe5b6001900381819060005260206000209060020201600080820160006101000a81549073ffffffffffffffffffffffffffffffffffffffff021916905560018201600090555050905560076000815480929190600190039190505550610781426040518060400160405280600c81526020017f64656c65746542726f6b657200000000000000000000000000000000000000008152506040518060400160405280601981526020017f612062726f6b657220686173206265656e2064656c6574656400000000000000815250336128ac565b5b808060010191505061045f565b5050565b60008060009054906101000a900473ffffffffffffffffffffffffffffffffffffffff1673ffffffffffffffffffffffffffffffffffffffff163373ffffffffffffffffffffffffffffffffffffffff16146107ee57600080fd5b600654905090565b60008054906101000a900473ffffffffffffffffffffffffffffffffffffffff1673ffffffffffffffffffffffffffffffffffffffff163373ffffffffffffffffffffffffffffffffffffffff161461084e57600080fd5b6000805b6001805490508110156109e45760006001828154811061086e57fe5b9060005260206000209060040201905080600001548514156109d65760005b816003018054905081101561091a578160030181815481106108ab57fe5b906000526020600020016040516020016108c59190613471565b60405160208183030381529060405280519060200120856040516020016108ec919061345a565b60405160208183030381529060405280519060200120141561090d57600193505b808060010191505061088d565b50826109d557806003018490806001815401808255809150506001900390600052602060002001600090919091909150908051906020019061095d9291906129bf565b506109d4426040518060400160405280600881526020017f616464546f7069630000000000000000000000000000000000000000000000008152506040518060400160405280600d81526020017f616464206e657720546f70696300000000000000000000000000000000000000815250336128ac565b5b5b508080600101915050610852565b50505050565b60008060009054906101000a900473ffffffffffffffffffffffffffffffffffffffff1673ffffffffffffffffffffffffffffffffffffffff163373ffffffffffffffffffffffffffffffffffffffff1614610a4557600080fd5b600754905090565b60008054906101000a900473ffffffffffffffffffffffffffffffffffffffff1673ffffffffffffffffffffffffffffffffffffffff163373ffffffffffffffffffffffffffffffffffffffff1614610aa557600080fd5b60005b600180549050811015610d0e5760018181548110610ac257fe5b906000526020600020906004020160000154831415610d015760005b60018281548110610aeb57fe5b906000526020600020906004020160030180549050811015610cff5760018281548110610b1457fe5b90600052602060002090600402016003018181548110610b3057fe5b90600052602060002001604051602001610b4a9190613471565b6040516020818303038152906040528051906020012083604051602001610b71919061345a565b604051602081830303815290604052805190602001201415610cf25760018281548110610b9a57fe5b90600052602060002090600402016003016001808481548110610bb957fe5b9060005260206000209060040201600301805490500381548110610bd957fe5b9060005260206000200160018381548110610bf057fe5b90600052602060002090600402016003018281548110610c0c57fe5b906000526020600020019080546001816001161561010002031660029004610c35929190612a3f565b5060018281548110610c4357fe5b9060005260206000209060040201600301805480610c5d57fe5b600190038181906000526020600020016000610c799190612ac6565b9055610cf1426040518060400160405280600b81526020017f64656c657465546f7069630000000000000000000000000000000000000000008152506040518060400160405280601881526020017f6120746f70696320686173206265656e2064656c657465640000000000000000815250336128ac565b5b8080600101915050610ade565b505b8080600101915050610aa8565b505050565b60008054906101000a900473ffffffffffffffffffffffffffffffffffffffff1681565b606080606060008054906101000a900473ffffffffffffffffffffffffffffffffffffffff1673ffffffffffffffffffffffffffffffffffffffff163373ffffffffffffffffffffffffffffffffffffffff1614610d9457600080fd5b606060065467ffffffffffffffff81118015610daf57600080fd5b50604051908082528060200260200182016040528015610dde5781602001602082028036833780820191505090505b509050606060065467ffffffffffffffff81118015610dfc57600080fd5b50604051908082528060200260200182016040528015610e3057816020015b6060815260200190600190039081610e1b5790505b509050606060065467ffffffffffffffff81118015610e4e57600080fd5b50604051908082528060200260200182016040528015610e8257816020015b6060815260200190600190039081610e6d5790505b50905060005b60018054905081101561104757600060018281548110610ea457fe5b906000526020600020906004020190508060000154858381518110610ec557fe5b602002602001018181525050806001018054600181600116156101000203166002900480601f016020809104026020016040519081016040528092919081815260200182805460018160011615610100020316600290048015610f695780601f10610f3e57610100808354040283529160200191610f69565b820191906000526020600020905b815481529060010190602001808311610f4c57829003601f168201915b5050505050848381518110610f7a57fe5b6020026020010181905250806002018054600181600116156101000203166002900480601f01602080910402602001604051908101604052809291908181526020018280546001816001161561010002031660029004801561101d5780601f10610ff25761010080835404028352916020019161101d565b820191906000526020600020905b81548152906001019060200180831161100057829003601f168201915b505050505083838151811061102e57fe5b6020026020010181905250508080600101915050610e88565b50828282955095509550505050909192565b606060008054906101000a900473ffffffffffffffffffffffffffffffffffffffff1673ffffffffffffffffffffffffffffffffffffffff163373ffffffffffffffffffffffffffffffffffffffff16146110b357600080fd5b60005b600180549050811015611247576000600182815481106110d257fe5b906000526020600020906004020190508060000154841415611239576060816003018054905067ffffffffffffffff8111801561110e57600080fd5b5060405190808252806020026020018201604052801561114257816020015b606081526020019060019003908161112d5790505b50905060005b826003018054905081101561122d5782600301818154811061116657fe5b906000526020600020018054600181600116156101000203166002900480601f0160208091040260200160405190810160405280929190818152602001828054600181600116156101000203166002900480156112045780601f106111d957610100808354040283529160200191611204565b820191906000526020600020905b8154815290600101906020018083116111e757829003601f168201915b505050505082828151811061121557fe5b60200260200101819052508080600101915050611148565b50809350505050611249565b5080806001019150506110b6565b505b919050565b6000836000801b600560003373ffffffffffffffffffffffffffffffffffffffff1673ffffffffffffffffffffffffffffffffffffffff1681526020019081526020016000205414156112a057600080fd5b600560003373ffffffffffffffffffffffffffffffffffffffff1673ffffffffffffffffffffffffffffffffffffffff1681526020019081526020016000205481146112eb57600080fd5b60005b6001805490508110156113fa576001818154811061130857fe5b9060005260206000209060040201600001548514156113ed5760005b6001828154811061133157fe5b9060005260206000209060040201600301805490508110156113eb576001828154811061135a57fe5b9060005260206000209060040201600301818154811061137657fe5b906000526020600020016040516020016113909190613471565b60405160208183030381529060405280519060200120856040516020016113b7919061345a565b6040516020818303038152906040528051906020012014156113de57600193505050611400565b8080600101915050611324565b505b80806001019150506112ee565b50600091505b509392505050565b60008054906101000a900473ffffffffffffffffffffffffffffffffffffffff1673ffffffffffffffffffffffffffffffffffffffff163373ffffffffffffffffffffffffffffffffffffffff161461146057600080fd5b611468612b0e565b60405180604001604052808373ffffffffffffffffffffffffffffffffffffffff168152602001428152509050600281908060018154018082558091505060019003906000526020600020906002020160009091909190915060008201518160000160006101000a81548173ffffffffffffffffffffffffffffffffffffffff021916908373ffffffffffffffffffffffffffffffffffffffff1602179055506020820151816001015550506001600460008473ffffffffffffffffffffffffffffffffffffffff1673ffffffffffffffffffffffffffffffffffffffff16815260200190815260200160002060006101000a81548160ff0219169083151502179055506007600081548092919060010191905055506115f4426040518060400160405280600981526020017f61646442726f6b657200000000000000000000000000000000000000000000008152506040518060400160405280600181526020017f2d00000000000000000000000000000000000000000000000000000000000000815250336128ac565b5050565b60608060608060008054906101000a900473ffffffffffffffffffffffffffffffffffffffff1673ffffffffffffffffffffffffffffffffffffffff163373ffffffffffffffffffffffffffffffffffffffff161461165657600080fd5b606060095467ffffffffffffffff8111801561167157600080fd5b506040519080825280602002602001820160405280156116a05781602001602082028036833780820191505090505b509050606060095467ffffffffffffffff811180156116be57600080fd5b506040519080825280602002602001820160405280156116f257816020015b60608152602001906001900390816116dd5790505b509050606060095467ffffffffffffffff8111801561171057600080fd5b5060405190808252806020026020018201604052801561174457816020015b606081526020019060019003908161172f5790505b509050606060095467ffffffffffffffff8111801561176257600080fd5b506040519080825280602002602001820160405280156117915781602001602082028036833780820191505090505b50905060005b6003805490508110156119c1576000600382815481106117b357fe5b9060005260206000209060040201905080600001548683815181106117d457fe5b602002602001018181525050806001018054600181600116156101000203166002900480601f0160208091040260200160405190810160405280929190818152602001828054600181600116156101000203166002900480156118785780601f1061184d57610100808354040283529160200191611878565b820191906000526020600020905b81548152906001019060200180831161185b57829003601f168201915b505050505085838151811061188957fe5b6020026020010181905250806002018054600181600116156101000203166002900480601f01602080910402602001604051908101604052809291908181526020018280546001816001161561010002031660029004801561192c5780601f106119015761010080835404028352916020019161192c565b820191906000526020600020905b81548152906001019060200180831161190f57829003601f168201915b505050505084838151811061193d57fe5b60200260200101819052508060030160009054906101000a900473ffffffffffffffffffffffffffffffffffffffff1683838151811061197957fe5b602002602001019073ffffffffffffffffffffffffffffffffffffffff16908173ffffffffffffffffffffffffffffffffffffffff1681525050508080600101915050611797565b508383838397509750975097505050505090919293565b60008054906101000a900473ffffffffffffffffffffffffffffffffffffffff1673ffffffffffffffffffffffffffffffffffffffff163373ffffffffffffffffffffffffffffffffffffffff1614611a3057600080fd5b611a38612b3e565b60405180608001604052806008548152602001848152602001838152602001600067ffffffffffffffff81118015611a6f57600080fd5b50604051908082528060200260200182016040528015611aa357816020015b6060815260200190600190039081611a8e5790505b5081525090506006600081548092919060010191905055506008600081548092919060010191905055506001819080600181540180825580915050600190039060005260206000209060040201600090919091909150600082015181600001556020820151816001019080519060200190611b1f9291906129bf565b506040820151816002019080519060200190611b3c9291906129bf565b506060820151816003019080519060200190611b59929190612b66565b505050611bd2426040518060400160405280600981526020017f616464436c69656e7400000000000000000000000000000000000000000000008152506040518060400160405280601281526020017f61206e657720636c69656e742061646465640000000000000000000000000000815250336128ac565b505050565b60008054906101000a900473ffffffffffffffffffffffffffffffffffffffff1673ffffffffffffffffffffffffffffffffffffffff163373ffffffffffffffffffffffffffffffffffffffff1614611c2f57600080fd5b60005b600180549050811015611e085760018181548110611c4c57fe5b906000526020600020906004020160000154821415611dfb5760018080805490500381548110611c7857fe5b906000526020600020906004020160018281548110611c9357fe5b90600052602060002090600402016000820154816000015560018201816001019080546001816001161561010002031660029004611cd2929190612bc6565b5060028201816002019080546001816001161561010002031660029004611cfa929190612bc6565b506003820181600301908054611d11929190612c4d565b509050506001805480611d2057fe5b6001900381819060005260206000209060040201600080820160009055600182016000611d4d9190612ac6565b600282016000611d5d9190612ac6565b600382016000611d6d9190612cbd565b5050905560066000815480929190600190039190505550611dfa426040518060400160405280600c81526020017f64656c657465436c69656e7400000000000000000000000000000000000000008152506040518060400160405280601981526020017f6120636c69656e7420686173206265656e2064656c6574656400000000000000815250336128ac565b5b8080600101915050611c32565b5050565b606060008054906101000a900473ffffffffffffffffffffffffffffffffffffffff1673ffffffffffffffffffffffffffffffffffffffff163373ffffffffffffffffffffffffffffffffffffffff1614611e6657600080fd5b606060075467ffffffffffffffff81118015611e8157600080fd5b50604051908082528060200260200182016040528015611eb05781602001602082028036833780820191505090505b50905060005b600280549050811015611f555760028181548110611ed057fe5b906000526020600020906002020160000160009054906101000a900473ffffffffffffffffffffffffffffffffffffffff16828281518110611f0e57fe5b602002602001019073ffffffffffffffffffffffffffffffffffffffff16908173ffffffffffffffffffffffffffffffffffffffff16815250508080600101915050611eb6565b508091505090565b6000846000801b600560003373ffffffffffffffffffffffffffffffffffffffff1673ffffffffffffffffffffffffffffffffffffffff168152602001908152602001600020541415611faf57600080fd5b600560003373ffffffffffffffffffffffffffffffffffffffff1673ffffffffffffffffffffffffffffffffffffffff168152602001908152602001600020548114611ffa57600080fd5b60005b60018054905081101561212f576001818154811061201757fe5b9060005260206000209060040201600001548614801561209f57506001818154811061203f57fe5b90600052602060002090600402016001016040516020016120609190613471565b6040516020818303038152906040528051906020012085604051602001612087919061345a565b60405160208183030381529060405280519060200120145b80156121135750600181815481106120b357fe5b90600052602060002090600402016002016040516020016120d49190613471565b60405160208183030381529060405280519060200120846040516020016120fb919061345a565b60405160208183030381529060405280519060200120145b15612122576001925050612135565b8080600101915050611ffd565b50600091505b50949350505050565b60008054906101000a900473ffffffffffffffffffffffffffffffffffffffff1673ffffffffffffffffffffffffffffffffffffffff163373ffffffffffffffffffffffffffffffffffffffff161461219657600080fd5b60005b600180549050811015612311576000600182815481106121b557fe5b9060005260206000209060040201905080600001548514156123035760005b816003018054905081101561230157846040516020016121f4919061345a565b6040516020818303038152906040528051906020012082600301828154811061221957fe5b906000526020600020016040516020016122339190613471565b6040516020818303038152906040528051906020012014156122f4578382600301828154811061225f57fe5b90600052602060002001908051906020019061227c9291906129bf565b506122f3426040518060400160405280600b81526020017f757064617465546f7069630000000000000000000000000000000000000000008152506040518060400160405280601881526020017f6120746f70696320686173206265656e20757064617465640000000000000000815250336128ac565b5b80806001019150506121d4565b505b508080600101915050612199565b50505050565b600460003373ffffffffffffffffffffffffffffffffffffffff1673ffffffffffffffffffffffffffffffffffffffff16815260200190815260200160002060009054906101000a900460ff1661236d57600080fd5b60005b6002805490508110156128a9576002818154811061238a57fe5b906000526020600020906002020160000160009054906101000a900473ffffffffffffffffffffffffffffffffffffffff1673ffffffffffffffffffffffffffffffffffffffff163373ffffffffffffffffffffffffffffffffffffffff16141561289c57600042905060006002838154811061240357fe5b9060005260206000209060020201600101548203905060f081111561267157816002848154811061243057fe5b906000526020600020906002020160010181905550336002848154811061245357fe5b90600052602060002090600202016001015460405160200161247692919061342e565b60405160208183030381529060405280519060200120600560006002868154811061249d57fe5b906000526020600020906002020160000160009054906101000a900473ffffffffffffffffffffffffffffffffffffffff1673ffffffffffffffffffffffffffffffffffffffff1673ffffffffffffffffffffffffffffffffffffffff16815260200190815260200160002081905550612583426040518060400160405280600c81526020017f72656672657368546f6b656e00000000000000000000000000000000000000008152506040518060400160405280600c81526020017f746f6b656e206469756261680000000000000000000000000000000000000000815250336128ac565b7f504e9e94e0c65229aaf8cabe153380cc35da3135e30129bc3195f7e031cdf82b60056000600286815481106125b557fe5b906000526020600020906002020160000160009054906101000a900473ffffffffffffffffffffffffffffffffffffffff1673ffffffffffffffffffffffffffffffffffffffff1673ffffffffffffffffffffffffffffffffffffffff1681526020019081526020016000205460405161262f91906135af565b60405180910390a17fb6f921ade0de8da9e62e948d90ae6f2dd6b678679ad77753c75fe1b6d9a72004604051612664906135ca565b60405180910390a1612899565b336002848154811061267f57fe5b9060005260206000209060020201600101546040516020016126a292919061342e565b6040516020818303038152906040528051906020012060056000600286815481106126c957fe5b906000526020600020906002020160000160009054906101000a900473ffffffffffffffffffffffffffffffffffffffff1673ffffffffffffffffffffffffffffffffffffffff1673ffffffffffffffffffffffffffffffffffffffff168152602001908152602001600020819055506127af426040518060400160405280600c81526020017f72656672657368546f6b656e00000000000000000000000000000000000000008152506040518060400160405280601281526020017f746f6b656e20746964616b206469756261680000000000000000000000000000815250336128ac565b7f504e9e94e0c65229aaf8cabe153380cc35da3135e30129bc3195f7e031cdf82b60056000600286815481106127e157fe5b906000526020600020906002020160000160009054906101000a900473ffffffffffffffffffffffffffffffffffffffff1673ffffffffffffffffffffffffffffffffffffffff1673ffffffffffffffffffffffffffffffffffffffff1681526020019081526020016000205460405161285b91906135af565b60405180910390a17fb6f921ade0de8da9e62e948d90ae6f2dd6b678679ad77753c75fe1b6d9a72004604051612890906135ea565b60405180910390a15b50505b8080600101915050612370565b50565b6128b4612cde565b60405180608001604052808681526020018581526020018481526020018373ffffffffffffffffffffffffffffffffffffffff168152509050600381908060018154018082558091505060019003906000526020600020906004020160009091909190915060008201518160000155602082015181600101908051906020019061293f9291906129bf565b50604082015181600201908051906020019061295c9291906129bf565b5060608201518160030160006101000a81548173ffffffffffffffffffffffffffffffffffffffff021916908373ffffffffffffffffffffffffffffffffffffffff16021790555050506009600081548092919060010191905055505050505050565b828054600181600116156101000203166002900490600052602060002090601f016020900481019282601f10612a0057805160ff1916838001178555612a2e565b82800160010185558215612a2e579182015b82811115612a2d578251825591602001919060010190612a12565b5b509050612a3b9190612d1c565b5090565b828054600181600116156101000203166002900490600052602060002090601f016020900481019282601f10612a785780548555612ab5565b82800160010185558215612ab557600052602060002091601f016020900482015b82811115612ab4578254825591600101919060010190612a99565b5b509050612ac29190612d1c565b5090565b50805460018160011615610100020316600290046000825580601f10612aec5750612b0b565b601f016020900490600052602060002090810190612b0a9190612d1c565b5b50565b6040518060400160405280600073ffffffffffffffffffffffffffffffffffffffff168152602001600081525090565b6040518060800160405280600081526020016060815260200160608152602001606081525090565b828054828255906000526020600020908101928215612bb5579160200282015b82811115612bb4578251829080519060200190612ba49291906129bf565b5091602001919060010190612b86565b5b509050612bc29190612d39565b5090565b828054600181600116156101000203166002900490600052602060002090601f016020900481019282601f10612bff5780548555612c3c565b82800160010185558215612c3c57600052602060002091601f016020900482015b82811115612c3b578254825591600101919060010190612c20565b5b509050612c499190612d1c565b5090565b828054828255906000526020600020908101928215612cac5760005260206000209182015b82811115612cab5782829080546001816001161561010002031660029004612c9b929190612bc6565b5091600101919060010190612c72565b5b509050612cb99190612d39565b5090565b5080546000825590600052602060002090810190612cdb9190612d39565b50565b6040518060800160405280600081526020016060815260200160608152602001600073ffffffffffffffffffffffffffffffffffffffff1681525090565b5b80821115612d35576000816000905550600101612d1d565b5090565b5b80821115612d595760008181612d509190612ac6565b50600101612d3a565b5090565b600081359050612d6c81613868565b92915050565b600081359050612d818161387f565b92915050565b600081359050612d9681613896565b92915050565b600082601f830112612dad57600080fd5b8135612dc0612dbb82613652565b613625565b91508082526020830160208301858383011115612ddc57600080fd5b612de78382846137da565b50505092915050565b600081359050612dff816138ad565b92915050565b600060208284031215612e1757600080fd5b6000612e2584828501612d5d565b91505092915050565b600060208284031215612e4057600080fd5b6000612e4e84828501612d72565b91505092915050565b600080600060608486031215612e6c57600080fd5b6000612e7a86828701612d87565b9350506020612e8b86828701612df0565b925050604084013567ffffffffffffffff811115612ea857600080fd5b612eb486828701612d9c565b9150509250925092565b60008060008060808587031215612ed457600080fd5b6000612ee287828801612d87565b9450506020612ef387828801612df0565b935050604085013567ffffffffffffffff811115612f1057600080fd5b612f1c87828801612d9c565b925050606085013567ffffffffffffffff811115612f3957600080fd5b612f4587828801612d9c565b91505092959194509250565b60008060408385031215612f6457600080fd5b600083013567ffffffffffffffff811115612f7e57600080fd5b612f8a85828601612d9c565b925050602083013567ffffffffffffffff811115612fa757600080fd5b612fb385828601612d9c565b9150509250929050565b600060208284031215612fcf57600080fd5b6000612fdd84828501612df0565b91505092915050565b60008060408385031215612ff957600080fd5b600061300785828601612df0565b925050602083013567ffffffffffffffff81111561302457600080fd5b61303085828601612d9c565b9150509250929050565b60008060006060848603121561304f57600080fd5b600061305d86828701612df0565b935050602084013567ffffffffffffffff81111561307a57600080fd5b61308686828701612d9c565b925050604084013567ffffffffffffffff8111156130a357600080fd5b6130af86828701612d9c565b9150509250925092565b60006130c58383613123565b60208301905092915050565b60006130dd8383613281565b905092915050565b60006130f183836133f9565b60208301905092915050565b61310681613788565b82525050565b61311d61311882613788565b61381c565b82525050565b61312c81613776565b82525050565b600061313d826136c3565b6131478185613716565b93506131528361367e565b8060005b8381101561318357815161316a88826130b9565b9750613175836136ef565b925050600181019050613156565b5085935050505092915050565b600061319b826136ce565b6131a58185613727565b9350836020820285016131b78561368e565b8060005b858110156131f357848403895281516131d485826130d1565b94506131df836136fc565b925060208a019950506001810190506131bb565b50829750879550505050505092915050565b6000613210826136d9565b61321a8185613738565b93506132258361369e565b8060005b8381101561325657815161323d88826130e5565b975061324883613709565b925050600181019050613229565b5085935050505092915050565b61326c8161379a565b82525050565b61327b816137a6565b82525050565b600061328c826136e4565b6132968185613749565b93506132a68185602086016137e9565b6132af8161384a565b840191505092915050565b60006132c5826136e4565b6132cf818561376b565b93506132df8185602086016137e9565b80840191505092915050565b600081546001811660008114613308576001811461332d57613371565b607f6002830416613319818761376b565b955060ff1983168652808601935050613371565b6002820461333b818761376b565b9550613346856136ae565b60005b8281101561336857815481890152600182019150602081019050613349565b82880195505050505b505092915050565b6000613386600c8361375a565b91507f746f6b656e2064697562616800000000000000000000000000000000000000006000830152602082019050919050565b60006133c660128361375a565b91507f746f6b656e20746964616b2064697562616800000000000000000000000000006000830152602082019050919050565b613402816137d0565b82525050565b613411816137d0565b82525050565b613428613423826137d0565b613840565b82525050565b600061343a828561310c565b60148201915061344a8284613417565b6020820191508190509392505050565b600061346682846132ba565b915081905092915050565b600061347d82846132eb565b915081905092915050565b600060208201905061349d60008301846130fd565b92915050565b600060208201905081810360008301526134bd8184613132565b905092915050565b600060208201905081810360008301526134df8184613190565b905092915050565b600060608201905081810360008301526135018186613205565b905081810360208301526135158185613190565b905081810360408301526135298184613190565b9050949350505050565b6000608082019050818103600083015261354d8187613205565b905081810360208301526135618186613190565b905081810360408301526135758185613190565b905081810360608301526135898184613132565b905095945050505050565b60006020820190506135a96000830184613263565b92915050565b60006020820190506135c46000830184613272565b92915050565b600060208201905081810360008301526135e381613379565b9050919050565b60006020820190508181036000830152613603816133b9565b9050919050565b600060208201905061361f6000830184613408565b92915050565b6000604051905081810181811067ffffffffffffffff8211171561364857600080fd5b8060405250919050565b600067ffffffffffffffff82111561366957600080fd5b601f19601f8301169050602081019050919050565b6000819050602082019050919050565b6000819050602082019050919050565b6000819050602082019050919050565b60008190508160005260206000209050919050565b600081519050919050565b600081519050919050565b600081519050919050565b600081519050919050565b6000602082019050919050565b6000602082019050919050565b6000602082019050919050565b600082825260208201905092915050565b600082825260208201905092915050565b600082825260208201905092915050565b600082825260208201905092915050565b600082825260208201905092915050565b600081905092915050565b6000613781826137b0565b9050919050565b6000613793826137b0565b9050919050565b60008115159050919050565b6000819050919050565b600073ffffffffffffffffffffffffffffffffffffffff82169050919050565b6000819050919050565b82818337600083830152505050565b60005b838110156138075780820151818401526020810190506137ec565b83811115613816576000848401525b50505050565b60006138278261382e565b9050919050565b60006138398261385b565b9050919050565b6000819050919050565b6000601f19601f8301169050919050565b60008160601b9050919050565b61387181613776565b811461387c57600080fd5b50565b61388881613788565b811461389357600080fd5b50565b61389f816137a6565b81146138aa57600080fd5b50565b6138b6816137d0565b81146138c157600080fd5b5056fea2646970667358221220f1c95d737015b63bf4eab8e33fc4ebb827728f2f315a52bde84d486d1fa559ff64736f6c634300060c0033",
      "opcodes": "PUSH1 0x80 PUSH1 0x40 MSTORE CALLVALUE DUP1 ISZERO PUSH2 0x10 JUMPI PUSH1 0x0 DUP1 REVERT JUMPDEST POP CALLER PUSH1 0x0 DUP1 PUSH2 0x100 EXP DUP2 SLOAD DUP2 PUSH20 0xFFFFFFFFFFFFFFFFFFFFFFFFFFFFFFFFFFFFFFFF MUL NOT AND SWAP1 DUP4 PUSH20 0xFFFFFFFFFFFFFFFFFFFFFFFFFFFFFFFFFFFFFFFF AND MUL OR SWAP1 SSTORE POP PUSH1 0x0 PUSH1 0x6 DUP2 SWAP1 SSTORE POP PUSH1 0x0 PUSH1 0x7 DUP2 SWAP1 SSTORE POP PUSH1 0x0 PUSH1 0x8 DUP2 SWAP1 SSTORE POP PUSH1 0x0 PUSH1 0x9 DUP2 SWAP1 SSTORE POP PUSH2 0x38FA DUP1 PUSH2 0x80 PUSH1 0x0 CODECOPY PUSH1 0x0 RETURN INVALID PUSH1 0x80 PUSH1 0x40 MSTORE CALLVALUE DUP1 ISZERO PUSH2 0x10 JUMPI PUSH1 0x0 DUP1 REVERT JUMPDEST POP PUSH1 0x4 CALLDATASIZE LT PUSH2 0x116 JUMPI PUSH1 0x0 CALLDATALOAD PUSH1 0xE0 SHR DUP1 PUSH4 0x7909CE47 GT PUSH2 0xA2 JUMPI DUP1 PUSH4 0xA9CB1A36 GT PUSH2 0x71 JUMPI DUP1 PUSH4 0xA9CB1A36 EQ PUSH2 0x2D2 JUMPI DUP1 PUSH4 0xD1314EE0 EQ PUSH2 0x2EE JUMPI DUP1 PUSH4 0xE58DA61F EQ PUSH2 0x30C JUMPI DUP1 PUSH4 0xE8E5339A EQ PUSH2 0x33C JUMPI DUP1 PUSH4 0xFA6A04E4 EQ PUSH2 0x358 JUMPI PUSH2 0x116 JUMP JUMPDEST DUP1 PUSH4 0x7909CE47 EQ PUSH2 0x249 JUMPI DUP1 PUSH4 0x836CAE65 EQ PUSH2 0x279 JUMPI DUP1 PUSH4 0x909E4AB6 EQ PUSH2 0x295 JUMPI DUP1 PUSH4 0x98173FF4 EQ PUSH2 0x2B6 JUMPI PUSH2 0x116 JUMP JUMPDEST DUP1 PUSH4 0x416A5D81 GT PUSH2 0xE9 JUMPI DUP1 PUSH4 0x416A5D81 EQ PUSH2 0x1A1 JUMPI DUP1 PUSH4 0x42BB20E1 EQ PUSH2 0x1BF JUMPI DUP1 PUSH4 0x481C6A75 EQ PUSH2 0x1DB JUMPI DUP1 PUSH4 0x6DB80995 EQ PUSH2 0x1F9 JUMPI DUP1 PUSH4 0x71658896 EQ PUSH2 0x219 JUMPI PUSH2 0x116 JUMP JUMPDEST DUP1 PUSH4 0x344248B EQ PUSH2 0x11B JUMPI DUP1 PUSH4 0x1EE32B05 EQ PUSH2 0x14B JUMPI DUP1 PUSH4 0x30A66294 EQ PUSH2 0x167 JUMPI DUP1 PUSH4 0x3276807A EQ PUSH2 0x185 JUMPI JUMPDEST PUSH1 0x0 DUP1 REVERT JUMPDEST PUSH2 0x135 PUSH1 0x4 DUP1 CALLDATASIZE SUB DUP2 ADD SWAP1 PUSH2 0x130 SWAP2 SWAP1 PUSH2 0x2E05 JUMP JUMPDEST PUSH2 0x362 JUMP JUMPDEST PUSH1 0x40 MLOAD PUSH2 0x142 SWAP2 SWAP1 PUSH2 0x35AF JUMP JUMPDEST PUSH1 0x40 MLOAD DUP1 SWAP2 SUB SWAP1 RETURN JUMPDEST PUSH2 0x165 PUSH1 0x4 DUP1 CALLDATASIZE SUB DUP2 ADD SWAP1 PUSH2 0x160 SWAP2 SWAP1 PUSH2 0x2E2E JUMP JUMPDEST PUSH2 0x404 JUMP JUMPDEST STOP JUMPDEST PUSH2 0x16F PUSH2 0x793 JUMP JUMPDEST PUSH1 0x40 MLOAD PUSH2 0x17C SWAP2 SWAP1 PUSH2 0x360A JUMP JUMPDEST PUSH1 0x40 MLOAD DUP1 SWAP2 SUB SWAP1 RETURN JUMPDEST PUSH2 0x19F PUSH1 0x4 DUP1 CALLDATASIZE SUB DUP2 ADD SWAP1 PUSH2 0x19A SWAP2 SWAP1 PUSH2 0x2FE6 JUMP JUMPDEST PUSH2 0x7F6 JUMP JUMPDEST STOP JUMPDEST PUSH2 0x1A9 PUSH2 0x9EA JUMP JUMPDEST PUSH1 0x40 MLOAD PUSH2 0x1B6 SWAP2 SWAP1 PUSH2 0x360A JUMP JUMPDEST PUSH1 0x40 MLOAD DUP1 SWAP2 SUB SWAP1 RETURN JUMPDEST PUSH2 0x1D9 PUSH1 0x4 DUP1 CALLDATASIZE SUB DUP2 ADD SWAP1 PUSH2 0x1D4 SWAP2 SWAP1 PUSH2 0x2FE6 JUMP JUMPDEST PUSH2 0xA4D JUMP JUMPDEST STOP JUMPDEST PUSH2 0x1E3 PUSH2 0xD13 JUMP JUMPDEST PUSH1 0x40 MLOAD PUSH2 0x1F0 SWAP2 SWAP1 PUSH2 0x3488 JUMP JUMPDEST PUSH1 0x40 MLOAD DUP1 SWAP2 SUB SWAP1 RETURN JUMPDEST PUSH2 0x201 PUSH2 0xD37 JUMP JUMPDEST PUSH1 0x40 MLOAD PUSH2 0x210 SWAP4 SWAP3 SWAP2 SWAP1 PUSH2 0x34E7 JUMP JUMPDEST PUSH1 0x40 MLOAD DUP1 SWAP2 SUB SWAP1 RETURN JUMPDEST PUSH2 0x233 PUSH1 0x4 DUP1 CALLDATASIZE SUB DUP2 ADD SWAP1 PUSH2 0x22E SWAP2 SWAP1 PUSH2 0x2FBD JUMP JUMPDEST PUSH2 0x1059 JUMP JUMPDEST PUSH1 0x40 MLOAD PUSH2 0x240 SWAP2 SWAP1 PUSH2 0x34C5 JUMP JUMPDEST PUSH1 0x40 MLOAD DUP1 SWAP2 SUB SWAP1 RETURN JUMPDEST PUSH2 0x263 PUSH1 0x4 DUP1 CALLDATASIZE SUB DUP2 ADD SWAP1 PUSH2 0x25E SWAP2 SWAP1 PUSH2 0x2E57 JUMP JUMPDEST PUSH2 0x124E JUMP JUMPDEST PUSH1 0x40 MLOAD PUSH2 0x270 SWAP2 SWAP1 PUSH2 0x3594 JUMP JUMPDEST PUSH1 0x40 MLOAD DUP1 SWAP2 SUB SWAP1 RETURN JUMPDEST PUSH2 0x293 PUSH1 0x4 DUP1 CALLDATASIZE SUB DUP2 ADD SWAP1 PUSH2 0x28E SWAP2 SWAP1 PUSH2 0x2E2E JUMP JUMPDEST PUSH2 0x1408 JUMP JUMPDEST STOP JUMPDEST PUSH2 0x29D PUSH2 0x15F8 JUMP JUMPDEST PUSH1 0x40 MLOAD PUSH2 0x2AD SWAP5 SWAP4 SWAP3 SWAP2 SWAP1 PUSH2 0x3533 JUMP JUMPDEST PUSH1 0x40 MLOAD DUP1 SWAP2 SUB SWAP1 RETURN JUMPDEST PUSH2 0x2D0 PUSH1 0x4 DUP1 CALLDATASIZE SUB DUP2 ADD SWAP1 PUSH2 0x2CB SWAP2 SWAP1 PUSH2 0x2F51 JUMP JUMPDEST PUSH2 0x19D8 JUMP JUMPDEST STOP JUMPDEST PUSH2 0x2EC PUSH1 0x4 DUP1 CALLDATASIZE SUB DUP2 ADD SWAP1 PUSH2 0x2E7 SWAP2 SWAP1 PUSH2 0x2FBD JUMP JUMPDEST PUSH2 0x1BD7 JUMP JUMPDEST STOP JUMPDEST PUSH2 0x2F6 PUSH2 0x1E0C JUMP JUMPDEST PUSH1 0x40 MLOAD PUSH2 0x303 SWAP2 SWAP1 PUSH2 0x34A3 JUMP JUMPDEST PUSH1 0x40 MLOAD DUP1 SWAP2 SUB SWAP1 RETURN JUMPDEST PUSH2 0x326 PUSH1 0x4 DUP1 CALLDATASIZE SUB DUP2 ADD SWAP1 PUSH2 0x321 SWAP2 SWAP1 PUSH2 0x2EBE JUMP JUMPDEST PUSH2 0x1F5D JUMP JUMPDEST PUSH1 0x40 MLOAD PUSH2 0x333 SWAP2 SWAP1 PUSH2 0x3594 JUMP JUMPDEST PUSH1 0x40 MLOAD DUP1 SWAP2 SUB SWAP1 RETURN JUMPDEST PUSH2 0x356 PUSH1 0x4 DUP1 CALLDATASIZE SUB DUP2 ADD SWAP1 PUSH2 0x351 SWAP2 SWAP1 PUSH2 0x303A JUMP JUMPDEST PUSH2 0x213E JUMP JUMPDEST STOP JUMPDEST PUSH2 0x360 PUSH2 0x2317 JUMP JUMPDEST STOP JUMPDEST PUSH1 0x0 DUP1 PUSH1 0x0 SWAP1 SLOAD SWAP1 PUSH2 0x100 EXP SWAP1 DIV PUSH20 0xFFFFFFFFFFFFFFFFFFFFFFFFFFFFFFFFFFFFFFFF AND PUSH20 0xFFFFFFFFFFFFFFFFFFFFFFFFFFFFFFFFFFFFFFFF AND CALLER PUSH20 0xFFFFFFFFFFFFFFFFFFFFFFFFFFFFFFFFFFFFFFFF AND EQ PUSH2 0x3BD JUMPI PUSH1 0x0 DUP1 REVERT JUMPDEST PUSH1 0x5 PUSH1 0x0 DUP4 PUSH20 0xFFFFFFFFFFFFFFFFFFFFFFFFFFFFFFFFFFFFFFFF AND PUSH20 0xFFFFFFFFFFFFFFFFFFFFFFFFFFFFFFFFFFFFFFFF AND DUP2 MSTORE PUSH1 0x20 ADD SWAP1 DUP2 MSTORE PUSH1 0x20 ADD PUSH1 0x0 KECCAK256 SLOAD SWAP1 POP SWAP2 SWAP1 POP JUMP JUMPDEST PUSH1 0x0 DUP1 SLOAD SWAP1 PUSH2 0x100 EXP SWAP1 DIV PUSH20 0xFFFFFFFFFFFFFFFFFFFFFFFFFFFFFFFFFFFFFFFF AND PUSH20 0xFFFFFFFFFFFFFFFFFFFFFFFFFFFFFFFFFFFFFFFF AND CALLER PUSH20 0xFFFFFFFFFFFFFFFFFFFFFFFFFFFFFFFFFFFFFFFF AND EQ PUSH2 0x45C JUMPI PUSH1 0x0 DUP1 REVERT JUMPDEST PUSH1 0x0 JUMPDEST PUSH1 0x2 DUP1 SLOAD SWAP1 POP DUP2 LT ISZERO PUSH2 0x78F JUMPI PUSH1 0x2 DUP2 DUP2 SLOAD DUP2 LT PUSH2 0x479 JUMPI INVALID JUMPDEST SWAP1 PUSH1 0x0 MSTORE PUSH1 0x20 PUSH1 0x0 KECCAK256 SWAP1 PUSH1 0x2 MUL ADD PUSH1 0x0 ADD PUSH1 0x0 SWAP1 SLOAD SWAP1 PUSH2 0x100 EXP SWAP1 DIV PUSH20 0xFFFFFFFFFFFFFFFFFFFFFFFFFFFFFFFFFFFFFFFF AND PUSH20 0xFFFFFFFFFFFFFFFFFFFFFFFFFFFFFFFFFFFFFFFF AND DUP3 PUSH20 0xFFFFFFFFFFFFFFFFFFFFFFFFFFFFFFFFFFFFFFFF AND EQ ISZERO PUSH2 0x782 JUMPI PUSH1 0x0 PUSH1 0x4 PUSH1 0x0 DUP5 PUSH20 0xFFFFFFFFFFFFFFFFFFFFFFFFFFFFFFFFFFFFFFFF AND PUSH20 0xFFFFFFFFFFFFFFFFFFFFFFFFFFFFFFFFFFFFFFFF AND DUP2 MSTORE PUSH1 0x20 ADD SWAP1 DUP2 MSTORE PUSH1 0x20 ADD PUSH1 0x0 KECCAK256 PUSH1 0x0 PUSH2 0x100 EXP DUP2 SLOAD DUP2 PUSH1 0xFF MUL NOT AND SWAP1 DUP4 ISZERO ISZERO MUL OR SWAP1 SSTORE POP PUSH1 0x0 DUP1 SHL PUSH1 0x5 PUSH1 0x0 DUP5 PUSH20 0xFFFFFFFFFFFFFFFFFFFFFFFFFFFFFFFFFFFFFFFF AND PUSH20 0xFFFFFFFFFFFFFFFFFFFFFFFFFFFFFFFFFFFFFFFF AND DUP2 MSTORE PUSH1 0x20 ADD SWAP1 DUP2 MSTORE PUSH1 0x20 ADD PUSH1 0x0 KECCAK256 DUP2 SWAP1 SSTORE POP PUSH32 0x504E9E94E0C65229AAF8CABE153380CC35DA3135E30129BC3195F7E031CDF82B PUSH1 0x5 PUSH1 0x0 CALLER PUSH20 0xFFFFFFFFFFFFFFFFFFFFFFFFFFFFFFFFFFFFFFFF AND PUSH20 0xFFFFFFFFFFFFFFFFFFFFFFFFFFFFFFFFFFFFFFFF AND DUP2 MSTORE PUSH1 0x20 ADD SWAP1 DUP2 MSTORE PUSH1 0x20 ADD PUSH1 0x0 KECCAK256 SLOAD PUSH1 0x40 MLOAD PUSH2 0x5EB SWAP2 SWAP1 PUSH2 0x35AF JUMP JUMPDEST PUSH1 0x40 MLOAD DUP1 SWAP2 SUB SWAP1 LOG1 PUSH1 0x2 PUSH1 0x1 PUSH1 0x2 DUP1 SLOAD SWAP1 POP SUB DUP2 SLOAD DUP2 LT PUSH2 0x608 JUMPI INVALID JUMPDEST SWAP1 PUSH1 0x0 MSTORE PUSH1 0x20 PUSH1 0x0 KECCAK256 SWAP1 PUSH1 0x2 MUL ADD PUSH1 0x2 DUP3 DUP2 SLOAD DUP2 LT PUSH2 0x623 JUMPI INVALID JUMPDEST SWAP1 PUSH1 0x0 MSTORE PUSH1 0x20 PUSH1 0x0 KECCAK256 SWAP1 PUSH1 0x2 MUL ADD PUSH1 0x0 DUP3 ADD PUSH1 0x0 SWAP1 SLOAD SWAP1 PUSH2 0x100 EXP SWAP1 DIV PUSH20 0xFFFFFFFFFFFFFFFFFFFFFFFFFFFFFFFFFFFFFFFF AND DUP2 PUSH1 0x0 ADD PUSH1 0x0 PUSH2 0x100 EXP DUP2 SLOAD DUP2 PUSH20 0xFFFFFFFFFFFFFFFFFFFFFFFFFFFFFFFFFFFFFFFF MUL NOT AND SWAP1 DUP4 PUSH20 0xFFFFFFFFFFFFFFFFFFFFFFFFFFFFFFFFFFFFFFFF AND MUL OR SWAP1 SSTORE POP PUSH1 0x1 DUP3 ADD SLOAD DUP2 PUSH1 0x1 ADD SSTORE SWAP1 POP POP PUSH1 0x2 DUP1 SLOAD DUP1 PUSH2 0x6B0 JUMPI INVALID JUMPDEST PUSH1 0x1 SWAP1 SUB DUP2 DUP2 SWAP1 PUSH1 0x0 MSTORE PUSH1 0x20 PUSH1 0x0 KECCAK256 SWAP1 PUSH1 0x2 MUL ADD PUSH1 0x0 DUP1 DUP3 ADD PUSH1 0x0 PUSH2 0x100 EXP DUP2 SLOAD SWAP1 PUSH20 0xFFFFFFFFFFFFFFFFFFFFFFFFFFFFFFFFFFFFFFFF MUL NOT AND SWAP1 SSTORE PUSH1 0x1 DUP3 ADD PUSH1 0x0 SWAP1 SSTORE POP POP SWAP1 SSTORE PUSH1 0x7 PUSH1 0x0 DUP2 SLOAD DUP1 SWAP3 SWAP2 SWAP1 PUSH1 0x1 SWAP1 SUB SWAP2 SWAP1 POP SSTORE POP PUSH2 0x781 TIMESTAMP PUSH1 0x40 MLOAD DUP1 PUSH1 0x40 ADD PUSH1 0x40 MSTORE DUP1 PUSH1 0xC DUP2 MSTORE PUSH1 0x20 ADD PUSH32 0x64656C65746542726F6B65720000000000000000000000000000000000000000 DUP2 MSTORE POP PUSH1 0x40 MLOAD DUP1 PUSH1 0x40 ADD PUSH1 0x40 MSTORE DUP1 PUSH1 0x19 DUP2 MSTORE PUSH1 0x20 ADD PUSH32 0x612062726F6B657220686173206265656E2064656C6574656400000000000000 DUP2 MSTORE POP CALLER PUSH2 0x28AC JUMP JUMPDEST JUMPDEST DUP1 DUP1 PUSH1 0x1 ADD SWAP2 POP POP PUSH2 0x45F JUMP JUMPDEST POP POP JUMP JUMPDEST PUSH1 0x0 DUP1 PUSH1 0x0 SWAP1 SLOAD SWAP1 PUSH2 0x100 EXP SWAP1 DIV PUSH20 0xFFFFFFFFFFFFFFFFFFFFFFFFFFFFFFFFFFFFFFFF AND PUSH20 0xFFFFFFFFFFFFFFFFFFFFFFFFFFFFFFFFFFFFFFFF AND CALLER PUSH20 0xFFFFFFFFFFFFFFFFFFFFFFFFFFFFFFFFFFFFFFFF AND EQ PUSH2 0x7EE JUMPI PUSH1 0x0 DUP1 REVERT JUMPDEST PUSH1 0x6 SLOAD SWAP1 POP SWAP1 JUMP JUMPDEST PUSH1 0x0 DUP1 SLOAD SWAP1 PUSH2 0x100 EXP SWAP1 DIV PUSH20 0xFFFFFFFFFFFFFFFFFFFFFFFFFFFFFFFFFFFFFFFF AND PUSH20 0xFFFFFFFFFFFFFFFFFFFFFFFFFFFFFFFFFFFFFFFF AND CALLER PUSH20 0xFFFFFFFFFFFFFFFFFFFFFFFFFFFFFFFFFFFFFFFF AND EQ PUSH2 0x84E JUMPI PUSH1 0x0 DUP1 REVERT JUMPDEST PUSH1 0x0 DUP1 JUMPDEST PUSH1 0x1 DUP1 SLOAD SWAP1 POP DUP2 LT ISZERO PUSH2 0x9E4 JUMPI PUSH1 0x0 PUSH1 0x1 DUP3 DUP2 SLOAD DUP2 LT PUSH2 0x86E JUMPI INVALID JUMPDEST SWAP1 PUSH1 0x0 MSTORE PUSH1 0x20 PUSH1 0x0 KECCAK256 SWAP1 PUSH1 0x4 MUL ADD SWAP1 POP DUP1 PUSH1 0x0 ADD SLOAD DUP6 EQ ISZERO PUSH2 0x9D6 JUMPI PUSH1 0x0 JUMPDEST DUP2 PUSH1 0x3 ADD DUP1 SLOAD SWAP1 POP DUP2 LT ISZERO PUSH2 0x91A JUMPI DUP2 PUSH1 0x3 ADD DUP2 DUP2 SLOAD DUP2 LT PUSH2 0x8AB JUMPI INVALID JUMPDEST SWAP1 PUSH1 0x0 MSTORE PUSH1 0x20 PUSH1 0x0 KECCAK256 ADD PUSH1 0x40 MLOAD PUSH1 0x20 ADD PUSH2 0x8C5 SWAP2 SWAP1 PUSH2 0x3471 JUMP JUMPDEST PUSH1 0x40 MLOAD PUSH1 0x20 DUP2 DUP4 SUB SUB DUP2 MSTORE SWAP1 PUSH1 0x40 MSTORE DUP1 MLOAD SWAP1 PUSH1 0x20 ADD KECCAK256 DUP6 PUSH1 0x40 MLOAD PUSH1 0x20 ADD PUSH2 0x8EC SWAP2 SWAP1 PUSH2 0x345A JUMP JUMPDEST PUSH1 0x40 MLOAD PUSH1 0x20 DUP2 DUP4 SUB SUB DUP2 MSTORE SWAP1 PUSH1 0x40 MSTORE DUP1 MLOAD SWAP1 PUSH1 0x20 ADD KECCAK256 EQ ISZERO PUSH2 0x90D JUMPI PUSH1 0x1 SWAP4 POP JUMPDEST DUP1 DUP1 PUSH1 0x1 ADD SWAP2 POP POP PUSH2 0x88D JUMP JUMPDEST POP DUP3 PUSH2 0x9D5 JUMPI DUP1 PUSH1 0x3 ADD DUP5 SWAP1 DUP1 PUSH1 0x1 DUP2 SLOAD ADD DUP1 DUP3 SSTORE DUP1 SWAP2 POP POP PUSH1 0x1 SWAP1 SUB SWAP1 PUSH1 0x0 MSTORE PUSH1 0x20 PUSH1 0x0 KECCAK256 ADD PUSH1 0x0 SWAP1 SWAP2 SWAP1 SWAP2 SWAP1 SWAP2 POP SWAP1 DUP1 MLOAD SWAP1 PUSH1 0x20 ADD SWAP1 PUSH2 0x95D SWAP3 SWAP2 SWAP1 PUSH2 0x29BF JUMP JUMPDEST POP PUSH2 0x9D4 TIMESTAMP PUSH1 0x40 MLOAD DUP1 PUSH1 0x40 ADD PUSH1 0x40 MSTORE DUP1 PUSH1 0x8 DUP2 MSTORE PUSH1 0x20 ADD PUSH32 0x616464546F706963000000000000000000000000000000000000000000000000 DUP2 MSTORE POP PUSH1 0x40 MLOAD DUP1 PUSH1 0x40 ADD PUSH1 0x40 MSTORE DUP1 PUSH1 0xD DUP2 MSTORE PUSH1 0x20 ADD PUSH32 0x616464206E657720546F70696300000000000000000000000000000000000000 DUP2 MSTORE POP CALLER PUSH2 0x28AC JUMP JUMPDEST JUMPDEST JUMPDEST POP DUP1 DUP1 PUSH1 0x1 ADD SWAP2 POP POP PUSH2 0x852 JUMP JUMPDEST POP POP POP POP JUMP JUMPDEST PUSH1 0x0 DUP1 PUSH1 0x0 SWAP1 SLOAD SWAP1 PUSH2 0x100 EXP SWAP1 DIV PUSH20 0xFFFFFFFFFFFFFFFFFFFFFFFFFFFFFFFFFFFFFFFF AND PUSH20 0xFFFFFFFFFFFFFFFFFFFFFFFFFFFFFFFFFFFFFFFF AND CALLER PUSH20 0xFFFFFFFFFFFFFFFFFFFFFFFFFFFFFFFFFFFFFFFF AND EQ PUSH2 0xA45 JUMPI PUSH1 0x0 DUP1 REVERT JUMPDEST PUSH1 0x7 SLOAD SWAP1 POP SWAP1 JUMP JUMPDEST PUSH1 0x0 DUP1 SLOAD SWAP1 PUSH2 0x100 EXP SWAP1 DIV PUSH20 0xFFFFFFFFFFFFFFFFFFFFFFFFFFFFFFFFFFFFFFFF AND PUSH20 0xFFFFFFFFFFFFFFFFFFFFFFFFFFFFFFFFFFFFFFFF AND CALLER PUSH20 0xFFFFFFFFFFFFFFFFFFFFFFFFFFFFFFFFFFFFFFFF AND EQ PUSH2 0xAA5 JUMPI PUSH1 0x0 DUP1 REVERT JUMPDEST PUSH1 0x0 JUMPDEST PUSH1 0x1 DUP1 SLOAD SWAP1 POP DUP2 LT ISZERO PUSH2 0xD0E JUMPI PUSH1 0x1 DUP2 DUP2 SLOAD DUP2 LT PUSH2 0xAC2 JUMPI INVALID JUMPDEST SWAP1 PUSH1 0x0 MSTORE PUSH1 0x20 PUSH1 0x0 KECCAK256 SWAP1 PUSH1 0x4 MUL ADD PUSH1 0x0 ADD SLOAD DUP4 EQ ISZERO PUSH2 0xD01 JUMPI PUSH1 0x0 JUMPDEST PUSH1 0x1 DUP3 DUP2 SLOAD DUP2 LT PUSH2 0xAEB JUMPI INVALID JUMPDEST SWAP1 PUSH1 0x0 MSTORE PUSH1 0x20 PUSH1 0x0 KECCAK256 SWAP1 PUSH1 0x4 MUL ADD PUSH1 0x3 ADD DUP1 SLOAD SWAP1 POP DUP2 LT ISZERO PUSH2 0xCFF JUMPI PUSH1 0x1 DUP3 DUP2 SLOAD DUP2 LT PUSH2 0xB14 JUMPI INVALID JUMPDEST SWAP1 PUSH1 0x0 MSTORE PUSH1 0x20 PUSH1 0x0 KECCAK256 SWAP1 PUSH1 0x4 MUL ADD PUSH1 0x3 ADD DUP2 DUP2 SLOAD DUP2 LT PUSH2 0xB30 JUMPI INVALID JUMPDEST SWAP1 PUSH1 0x0 MSTORE PUSH1 0x20 PUSH1 0x0 KECCAK256 ADD PUSH1 0x40 MLOAD PUSH1 0x20 ADD PUSH2 0xB4A SWAP2 SWAP1 PUSH2 0x3471 JUMP JUMPDEST PUSH1 0x40 MLOAD PUSH1 0x20 DUP2 DUP4 SUB SUB DUP2 MSTORE SWAP1 PUSH1 0x40 MSTORE DUP1 MLOAD SWAP1 PUSH1 0x20 ADD KECCAK256 DUP4 PUSH1 0x40 MLOAD PUSH1 0x20 ADD PUSH2 0xB71 SWAP2 SWAP1 PUSH2 0x345A JUMP JUMPDEST PUSH1 0x40 MLOAD PUSH1 0x20 DUP2 DUP4 SUB SUB DUP2 MSTORE SWAP1 PUSH1 0x40 MSTORE DUP1 MLOAD SWAP1 PUSH1 0x20 ADD KECCAK256 EQ ISZERO PUSH2 0xCF2 JUMPI PUSH1 0x1 DUP3 DUP2 SLOAD DUP2 LT PUSH2 0xB9A JUMPI INVALID JUMPDEST SWAP1 PUSH1 0x0 MSTORE PUSH1 0x20 PUSH1 0x0 KECCAK256 SWAP1 PUSH1 0x4 MUL ADD PUSH1 0x3 ADD PUSH1 0x1 DUP1 DUP5 DUP2 SLOAD DUP2 LT PUSH2 0xBB9 JUMPI INVALID JUMPDEST SWAP1 PUSH1 0x0 MSTORE PUSH1 0x20 PUSH1 0x0 KECCAK256 SWAP1 PUSH1 0x4 MUL ADD PUSH1 0x3 ADD DUP1 SLOAD SWAP1 POP SUB DUP2 SLOAD DUP2 LT PUSH2 0xBD9 JUMPI INVALID JUMPDEST SWAP1 PUSH1 0x0 MSTORE PUSH1 0x20 PUSH1 0x0 KECCAK256 ADD PUSH1 0x1 DUP4 DUP2 SLOAD DUP2 LT PUSH2 0xBF0 JUMPI INVALID JUMPDEST SWAP1 PUSH1 0x0 MSTORE PUSH1 0x20 PUSH1 0x0 KECCAK256 SWAP1 PUSH1 0x4 MUL ADD PUSH1 0x3 ADD DUP3 DUP2 SLOAD DUP2 LT PUSH2 0xC0C JUMPI INVALID JUMPDEST SWAP1 PUSH1 0x0 MSTORE PUSH1 0x20 PUSH1 0x0 KECCAK256 ADD SWAP1 DUP1 SLOAD PUSH1 0x1 DUP2 PUSH1 0x1 AND ISZERO PUSH2 0x100 MUL SUB AND PUSH1 0x2 SWAP1 DIV PUSH2 0xC35 SWAP3 SWAP2 SWAP1 PUSH2 0x2A3F JUMP JUMPDEST POP PUSH1 0x1 DUP3 DUP2 SLOAD DUP2 LT PUSH2 0xC43 JUMPI INVALID JUMPDEST SWAP1 PUSH1 0x0 MSTORE PUSH1 0x20 PUSH1 0x0 KECCAK256 SWAP1 PUSH1 0x4 MUL ADD PUSH1 0x3 ADD DUP1 SLOAD DUP1 PUSH2 0xC5D JUMPI INVALID JUMPDEST PUSH1 0x1 SWAP1 SUB DUP2 DUP2 SWAP1 PUSH1 0x0 MSTORE PUSH1 0x20 PUSH1 0x0 KECCAK256 ADD PUSH1 0x0 PUSH2 0xC79 SWAP2 SWAP1 PUSH2 0x2AC6 JUMP JUMPDEST SWAP1 SSTORE PUSH2 0xCF1 TIMESTAMP PUSH1 0x40 MLOAD DUP1 PUSH1 0x40 ADD PUSH1 0x40 MSTORE DUP1 PUSH1 0xB DUP2 MSTORE PUSH1 0x20 ADD PUSH32 0x64656C657465546F706963000000000000000000000000000000000000000000 DUP2 MSTORE POP PUSH1 0x40 MLOAD DUP1 PUSH1 0x40 ADD PUSH1 0x40 MSTORE DUP1 PUSH1 0x18 DUP2 MSTORE PUSH1 0x20 ADD PUSH32 0x6120746F70696320686173206265656E2064656C657465640000000000000000 DUP2 MSTORE POP CALLER PUSH2 0x28AC JUMP JUMPDEST JUMPDEST DUP1 DUP1 PUSH1 0x1 ADD SWAP2 POP POP PUSH2 0xADE JUMP JUMPDEST POP JUMPDEST DUP1 DUP1 PUSH1 0x1 ADD SWAP2 POP POP PUSH2 0xAA8 JUMP JUMPDEST POP POP POP JUMP JUMPDEST PUSH1 0x0 DUP1 SLOAD SWAP1 PUSH2 0x100 EXP SWAP1 DIV PUSH20 0xFFFFFFFFFFFFFFFFFFFFFFFFFFFFFFFFFFFFFFFF AND DUP2 JUMP JUMPDEST PUSH1 0x60 DUP1 PUSH1 0x60 PUSH1 0x0 DUP1 SLOAD SWAP1 PUSH2 0x100 EXP SWAP1 DIV PUSH20 0xFFFFFFFFFFFFFFFFFFFFFFFFFFFFFFFFFFFFFFFF AND PUSH20 0xFFFFFFFFFFFFFFFFFFFFFFFFFFFFFFFFFFFFFFFF AND CALLER PUSH20 0xFFFFFFFFFFFFFFFFFFFFFFFFFFFFFFFFFFFFFFFF AND EQ PUSH2 0xD94 JUMPI PUSH1 0x0 DUP1 REVERT JUMPDEST PUSH1 0x60 PUSH1 0x6 SLOAD PUSH8 0xFFFFFFFFFFFFFFFF DUP2 GT DUP1 ISZERO PUSH2 0xDAF JUMPI PUSH1 0x0 DUP1 REVERT JUMPDEST POP PUSH1 0x40 MLOAD SWAP1 DUP1 DUP3 MSTORE DUP1 PUSH1 0x20 MUL PUSH1 0x20 ADD DUP3 ADD PUSH1 0x40 MSTORE DUP1 ISZERO PUSH2 0xDDE JUMPI DUP2 PUSH1 0x20 ADD PUSH1 0x20 DUP3 MUL DUP1 CALLDATASIZE DUP4 CALLDATACOPY DUP1 DUP3 ADD SWAP2 POP POP SWAP1 POP JUMPDEST POP SWAP1 POP PUSH1 0x60 PUSH1 0x6 SLOAD PUSH8 0xFFFFFFFFFFFFFFFF DUP2 GT DUP1 ISZERO PUSH2 0xDFC JUMPI PUSH1 0x0 DUP1 REVERT JUMPDEST POP PUSH1 0x40 MLOAD SWAP1 DUP1 DUP3 MSTORE DUP1 PUSH1 0x20 MUL PUSH1 0x20 ADD DUP3 ADD PUSH1 0x40 MSTORE DUP1 ISZERO PUSH2 0xE30 JUMPI DUP2 PUSH1 0x20 ADD JUMPDEST PUSH1 0x60 DUP2 MSTORE PUSH1 0x20 ADD SWAP1 PUSH1 0x1 SWAP1 SUB SWAP1 DUP2 PUSH2 0xE1B JUMPI SWAP1 POP JUMPDEST POP SWAP1 POP PUSH1 0x60 PUSH1 0x6 SLOAD PUSH8 0xFFFFFFFFFFFFFFFF DUP2 GT DUP1 ISZERO PUSH2 0xE4E JUMPI PUSH1 0x0 DUP1 REVERT JUMPDEST POP PUSH1 0x40 MLOAD SWAP1 DUP1 DUP3 MSTORE DUP1 PUSH1 0x20 MUL PUSH1 0x20 ADD DUP3 ADD PUSH1 0x40 MSTORE DUP1 ISZERO PUSH2 0xE82 JUMPI DUP2 PUSH1 0x20 ADD JUMPDEST PUSH1 0x60 DUP2 MSTORE PUSH1 0x20 ADD SWAP1 PUSH1 0x1 SWAP1 SUB SWAP1 DUP2 PUSH2 0xE6D JUMPI SWAP1 POP JUMPDEST POP SWAP1 POP PUSH1 0x0 JUMPDEST PUSH1 0x1 DUP1 SLOAD SWAP1 POP DUP2 LT ISZERO PUSH2 0x1047 JUMPI PUSH1 0x0 PUSH1 0x1 DUP3 DUP2 SLOAD DUP2 LT PUSH2 0xEA4 JUMPI INVALID JUMPDEST SWAP1 PUSH1 0x0 MSTORE PUSH1 0x20 PUSH1 0x0 KECCAK256 SWAP1 PUSH1 0x4 MUL ADD SWAP1 POP DUP1 PUSH1 0x0 ADD SLOAD DUP6 DUP4 DUP2 MLOAD DUP2 LT PUSH2 0xEC5 JUMPI INVALID JUMPDEST PUSH1 0x20 MUL PUSH1 0x20 ADD ADD DUP2 DUP2 MSTORE POP POP DUP1 PUSH1 0x1 ADD DUP1 SLOAD PUSH1 0x1 DUP2 PUSH1 0x1 AND ISZERO PUSH2 0x100 MUL SUB AND PUSH1 0x2 SWAP1 DIV DUP1 PUSH1 0x1F ADD PUSH1 0x20 DUP1 SWAP2 DIV MUL PUSH1 0x20 ADD PUSH1 0x40 MLOAD SWAP1 DUP2 ADD PUSH1 0x40 MSTORE DUP1 SWAP3 SWAP2 SWAP1 DUP2 DUP2 MSTORE PUSH1 0x20 ADD DUP3 DUP1 SLOAD PUSH1 0x1 DUP2 PUSH1 0x1 AND ISZERO PUSH2 0x100 MUL SUB AND PUSH1 0x2 SWAP1 DIV DUP1 ISZERO PUSH2 0xF69 JUMPI DUP1 PUSH1 0x1F LT PUSH2 0xF3E JUMPI PUSH2 0x100 DUP1 DUP4 SLOAD DIV MUL DUP4 MSTORE SWAP2 PUSH1 0x20 ADD SWAP2 PUSH2 0xF69 JUMP JUMPDEST DUP3 ADD SWAP2 SWAP1 PUSH1 0x0 MSTORE PUSH1 0x20 PUSH1 0x0 KECCAK256 SWAP1 JUMPDEST DUP2 SLOAD DUP2 MSTORE SWAP1 PUSH1 0x1 ADD SWAP1 PUSH1 0x20 ADD DUP1 DUP4 GT PUSH2 0xF4C JUMPI DUP3 SWAP1 SUB PUSH1 0x1F AND DUP3 ADD SWAP2 JUMPDEST POP POP POP POP POP DUP5 DUP4 DUP2 MLOAD DUP2 LT PUSH2 0xF7A JUMPI INVALID JUMPDEST PUSH1 0x20 MUL PUSH1 0x20 ADD ADD DUP2 SWAP1 MSTORE POP DUP1 PUSH1 0x2 ADD DUP1 SLOAD PUSH1 0x1 DUP2 PUSH1 0x1 AND ISZERO PUSH2 0x100 MUL SUB AND PUSH1 0x2 SWAP1 DIV DUP1 PUSH1 0x1F ADD PUSH1 0x20 DUP1 SWAP2 DIV MUL PUSH1 0x20 ADD PUSH1 0x40 MLOAD SWAP1 DUP2 ADD PUSH1 0x40 MSTORE DUP1 SWAP3 SWAP2 SWAP1 DUP2 DUP2 MSTORE PUSH1 0x20 ADD DUP3 DUP1 SLOAD PUSH1 0x1 DUP2 PUSH1 0x1 AND ISZERO PUSH2 0x100 MUL SUB AND PUSH1 0x2 SWAP1 DIV DUP1 ISZERO PUSH2 0x101D JUMPI DUP1 PUSH1 0x1F LT PUSH2 0xFF2 JUMPI PUSH2 0x100 DUP1 DUP4 SLOAD DIV MUL DUP4 MSTORE SWAP2 PUSH1 0x20 ADD SWAP2 PUSH2 0x101D JUMP JUMPDEST DUP3 ADD SWAP2 SWAP1 PUSH1 0x0 MSTORE PUSH1 0x20 PUSH1 0x0 KECCAK256 SWAP1 JUMPDEST DUP2 SLOAD DUP2 MSTORE SWAP1 PUSH1 0x1 ADD SWAP1 PUSH1 0x20 ADD DUP1 DUP4 GT PUSH2 0x1000 JUMPI DUP3 SWAP1 SUB PUSH1 0x1F AND DUP3 ADD SWAP2 JUMPDEST POP POP POP POP POP DUP4 DUP4 DUP2 MLOAD DUP2 LT PUSH2 0x102E JUMPI INVALID JUMPDEST PUSH1 0x20 MUL PUSH1 0x20 ADD ADD DUP2 SWAP1 MSTORE POP POP DUP1 DUP1 PUSH1 0x1 ADD SWAP2 POP POP PUSH2 0xE88 JUMP JUMPDEST POP DUP3 DUP3 DUP3 SWAP6 POP SWAP6 POP SWAP6 POP POP POP POP SWAP1 SWAP2 SWAP3 JUMP JUMPDEST PUSH1 0x60 PUSH1 0x0 DUP1 SLOAD SWAP1 PUSH2 0x100 EXP SWAP1 DIV PUSH20 0xFFFFFFFFFFFFFFFFFFFFFFFFFFFFFFFFFFFFFFFF AND PUSH20 0xFFFFFFFFFFFFFFFFFFFFFFFFFFFFFFFFFFFFFFFF AND CALLER PUSH20 0xFFFFFFFFFFFFFFFFFFFFFFFFFFFFFFFFFFFFFFFF AND EQ PUSH2 0x10B3 JUMPI PUSH1 0x0 DUP1 REVERT JUMPDEST PUSH1 0x0 JUMPDEST PUSH1 0x1 DUP1 SLOAD SWAP1 POP DUP2 LT ISZERO PUSH2 0x1247 JUMPI PUSH1 0x0 PUSH1 0x1 DUP3 DUP2 SLOAD DUP2 LT PUSH2 0x10D2 JUMPI INVALID JUMPDEST SWAP1 PUSH1 0x0 MSTORE PUSH1 0x20 PUSH1 0x0 KECCAK256 SWAP1 PUSH1 0x4 MUL ADD SWAP1 POP DUP1 PUSH1 0x0 ADD SLOAD DUP5 EQ ISZERO PUSH2 0x1239 JUMPI PUSH1 0x60 DUP2 PUSH1 0x3 ADD DUP1 SLOAD SWAP1 POP PUSH8 0xFFFFFFFFFFFFFFFF DUP2 GT DUP1 ISZERO PUSH2 0x110E JUMPI PUSH1 0x0 DUP1 REVERT JUMPDEST POP PUSH1 0x40 MLOAD SWAP1 DUP1 DUP3 MSTORE DUP1 PUSH1 0x20 MUL PUSH1 0x20 ADD DUP3 ADD PUSH1 0x40 MSTORE DUP1 ISZERO PUSH2 0x1142 JUMPI DUP2 PUSH1 0x20 ADD JUMPDEST PUSH1 0x60 DUP2 MSTORE PUSH1 0x20 ADD SWAP1 PUSH1 0x1 SWAP1 SUB SWAP1 DUP2 PUSH2 0x112D JUMPI SWAP1 POP JUMPDEST POP SWAP1 POP PUSH1 0x0 JUMPDEST DUP3 PUSH1 0x3 ADD DUP1 SLOAD SWAP1 POP DUP2 LT ISZERO PUSH2 0x122D JUMPI DUP3 PUSH1 0x3 ADD DUP2 DUP2 SLOAD DUP2 LT PUSH2 0x1166 JUMPI INVALID JUMPDEST SWAP1 PUSH1 0x0 MSTORE PUSH1 0x20 PUSH1 0x0 KECCAK256 ADD DUP1 SLOAD PUSH1 0x1 DUP2 PUSH1 0x1 AND ISZERO PUSH2 0x100 MUL SUB AND PUSH1 0x2 SWAP1 DIV DUP1 PUSH1 0x1F ADD PUSH1 0x20 DUP1 SWAP2 DIV MUL PUSH1 0x20 ADD PUSH1 0x40 MLOAD SWAP1 DUP2 ADD PUSH1 0x40 MSTORE DUP1 SWAP3 SWAP2 SWAP1 DUP2 DUP2 MSTORE PUSH1 0x20 ADD DUP3 DUP1 SLOAD PUSH1 0x1 DUP2 PUSH1 0x1 AND ISZERO PUSH2 0x100 MUL SUB AND PUSH1 0x2 SWAP1 DIV DUP1 ISZERO PUSH2 0x1204 JUMPI DUP1 PUSH1 0x1F LT PUSH2 0x11D9 JUMPI PUSH2 0x100 DUP1 DUP4 SLOAD DIV MUL DUP4 MSTORE SWAP2 PUSH1 0x20 ADD SWAP2 PUSH2 0x1204 JUMP JUMPDEST DUP3 ADD SWAP2 SWAP1 PUSH1 0x0 MSTORE PUSH1 0x20 PUSH1 0x0 KECCAK256 SWAP1 JUMPDEST DUP2 SLOAD DUP2 MSTORE SWAP1 PUSH1 0x1 ADD SWAP1 PUSH1 0x20 ADD DUP1 DUP4 GT PUSH2 0x11E7 JUMPI DUP3 SWAP1 SUB PUSH1 0x1F AND DUP3 ADD SWAP2 JUMPDEST POP POP POP POP POP DUP3 DUP3 DUP2 MLOAD DUP2 LT PUSH2 0x1215 JUMPI INVALID JUMPDEST PUSH1 0x20 MUL PUSH1 0x20 ADD ADD DUP2 SWAP1 MSTORE POP DUP1 DUP1 PUSH1 0x1 ADD SWAP2 POP POP PUSH2 0x1148 JUMP JUMPDEST POP DUP1 SWAP4 POP POP POP POP PUSH2 0x1249 JUMP JUMPDEST POP DUP1 DUP1 PUSH1 0x1 ADD SWAP2 POP POP PUSH2 0x10B6 JUMP JUMPDEST POP JUMPDEST SWAP2 SWAP1 POP JUMP JUMPDEST PUSH1 0x0 DUP4 PUSH1 0x0 DUP1 SHL PUSH1 0x5 PUSH1 0x0 CALLER PUSH20 0xFFFFFFFFFFFFFFFFFFFFFFFFFFFFFFFFFFFFFFFF AND PUSH20 0xFFFFFFFFFFFFFFFFFFFFFFFFFFFFFFFFFFFFFFFF AND DUP2 MSTORE PUSH1 0x20 ADD SWAP1 DUP2 MSTORE PUSH1 0x20 ADD PUSH1 0x0 KECCAK256 SLOAD EQ ISZERO PUSH2 0x12A0 JUMPI PUSH1 0x0 DUP1 REVERT JUMPDEST PUSH1 0x5 PUSH1 0x0 CALLER PUSH20 0xFFFFFFFFFFFFFFFFFFFFFFFFFFFFFFFFFFFFFFFF AND PUSH20 0xFFFFFFFFFFFFFFFFFFFFFFFFFFFFFFFFFFFFFFFF AND DUP2 MSTORE PUSH1 0x20 ADD SWAP1 DUP2 MSTORE PUSH1 0x20 ADD PUSH1 0x0 KECCAK256 SLOAD DUP2 EQ PUSH2 0x12EB JUMPI PUSH1 0x0 DUP1 REVERT JUMPDEST PUSH1 0x0 JUMPDEST PUSH1 0x1 DUP1 SLOAD SWAP1 POP DUP2 LT ISZERO PUSH2 0x13FA JUMPI PUSH1 0x1 DUP2 DUP2 SLOAD DUP2 LT PUSH2 0x1308 JUMPI INVALID JUMPDEST SWAP1 PUSH1 0x0 MSTORE PUSH1 0x20 PUSH1 0x0 KECCAK256 SWAP1 PUSH1 0x4 MUL ADD PUSH1 0x0 ADD SLOAD DUP6 EQ ISZERO PUSH2 0x13ED JUMPI PUSH1 0x0 JUMPDEST PUSH1 0x1 DUP3 DUP2 SLOAD DUP2 LT PUSH2 0x1331 JUMPI INVALID JUMPDEST SWAP1 PUSH1 0x0 MSTORE PUSH1 0x20 PUSH1 0x0 KECCAK256 SWAP1 PUSH1 0x4 MUL ADD PUSH1 0x3 ADD DUP1 SLOAD SWAP1 POP DUP2 LT ISZERO PUSH2 0x13EB JUMPI PUSH1 0x1 DUP3 DUP2 SLOAD DUP2 LT PUSH2 0x135A JUMPI INVALID JUMPDEST SWAP1 PUSH1 0x0 MSTORE PUSH1 0x20 PUSH1 0x0 KECCAK256 SWAP1 PUSH1 0x4 MUL ADD PUSH1 0x3 ADD DUP2 DUP2 SLOAD DUP2 LT PUSH2 0x1376 JUMPI INVALID JUMPDEST SWAP1 PUSH1 0x0 MSTORE PUSH1 0x20 PUSH1 0x0 KECCAK256 ADD PUSH1 0x40 MLOAD PUSH1 0x20 ADD PUSH2 0x1390 SWAP2 SWAP1 PUSH2 0x3471 JUMP JUMPDEST PUSH1 0x40 MLOAD PUSH1 0x20 DUP2 DUP4 SUB SUB DUP2 MSTORE SWAP1 PUSH1 0x40 MSTORE DUP1 MLOAD SWAP1 PUSH1 0x20 ADD KECCAK256 DUP6 PUSH1 0x40 MLOAD PUSH1 0x20 ADD PUSH2 0x13B7 SWAP2 SWAP1 PUSH2 0x345A JUMP JUMPDEST PUSH1 0x40 MLOAD PUSH1 0x20 DUP2 DUP4 SUB SUB DUP2 MSTORE SWAP1 PUSH1 0x40 MSTORE DUP1 MLOAD SWAP1 PUSH1 0x20 ADD KECCAK256 EQ ISZERO PUSH2 0x13DE JUMPI PUSH1 0x1 SWAP4 POP POP POP PUSH2 0x1400 JUMP JUMPDEST DUP1 DUP1 PUSH1 0x1 ADD SWAP2 POP POP PUSH2 0x1324 JUMP JUMPDEST POP JUMPDEST DUP1 DUP1 PUSH1 0x1 ADD SWAP2 POP POP PUSH2 0x12EE JUMP JUMPDEST POP PUSH1 0x0 SWAP2 POP JUMPDEST POP SWAP4 SWAP3 POP POP POP JUMP JUMPDEST PUSH1 0x0 DUP1 SLOAD SWAP1 PUSH2 0x100 EXP SWAP1 DIV PUSH20 0xFFFFFFFFFFFFFFFFFFFFFFFFFFFFFFFFFFFFFFFF AND PUSH20 0xFFFFFFFFFFFFFFFFFFFFFFFFFFFFFFFFFFFFFFFF AND CALLER PUSH20 0xFFFFFFFFFFFFFFFFFFFFFFFFFFFFFFFFFFFFFFFF AND EQ PUSH2 0x1460 JUMPI PUSH1 0x0 DUP1 REVERT JUMPDEST PUSH2 0x1468 PUSH2 0x2B0E JUMP JUMPDEST PUSH1 0x40 MLOAD DUP1 PUSH1 0x40 ADD PUSH1 0x40 MSTORE DUP1 DUP4 PUSH20 0xFFFFFFFFFFFFFFFFFFFFFFFFFFFFFFFFFFFFFFFF AND DUP2 MSTORE PUSH1 0x20 ADD TIMESTAMP DUP2 MSTORE POP SWAP1 POP PUSH1 0x2 DUP2 SWAP1 DUP1 PUSH1 0x1 DUP2 SLOAD ADD DUP1 DUP3 SSTORE DUP1 SWAP2 POP POP PUSH1 0x1 SWAP1 SUB SWAP1 PUSH1 0x0 MSTORE PUSH1 0x20 PUSH1 0x0 KECCAK256 SWAP1 PUSH1 0x2 MUL ADD PUSH1 0x0 SWAP1 SWAP2 SWAP1 SWAP2 SWAP1 SWAP2 POP PUSH1 0x0 DUP3 ADD MLOAD DUP2 PUSH1 0x0 ADD PUSH1 0x0 PUSH2 0x100 EXP DUP2 SLOAD DUP2 PUSH20 0xFFFFFFFFFFFFFFFFFFFFFFFFFFFFFFFFFFFFFFFF MUL NOT AND SWAP1 DUP4 PUSH20 0xFFFFFFFFFFFFFFFFFFFFFFFFFFFFFFFFFFFFFFFF AND MUL OR SWAP1 SSTORE POP PUSH1 0x20 DUP3 ADD MLOAD DUP2 PUSH1 0x1 ADD SSTORE POP POP PUSH1 0x1 PUSH1 0x4 PUSH1 0x0 DUP5 PUSH20 0xFFFFFFFFFFFFFFFFFFFFFFFFFFFFFFFFFFFFFFFF AND PUSH20 0xFFFFFFFFFFFFFFFFFFFFFFFFFFFFFFFFFFFFFFFF AND DUP2 MSTORE PUSH1 0x20 ADD SWAP1 DUP2 MSTORE PUSH1 0x20 ADD PUSH1 0x0 KECCAK256 PUSH1 0x0 PUSH2 0x100 EXP DUP2 SLOAD DUP2 PUSH1 0xFF MUL NOT AND SWAP1 DUP4 ISZERO ISZERO MUL OR SWAP1 SSTORE POP PUSH1 0x7 PUSH1 0x0 DUP2 SLOAD DUP1 SWAP3 SWAP2 SWAP1 PUSH1 0x1 ADD SWAP2 SWAP1 POP SSTORE POP PUSH2 0x15F4 TIMESTAMP PUSH1 0x40 MLOAD DUP1 PUSH1 0x40 ADD PUSH1 0x40 MSTORE DUP1 PUSH1 0x9 DUP2 MSTORE PUSH1 0x20 ADD PUSH32 0x61646442726F6B65720000000000000000000000000000000000000000000000 DUP2 MSTORE POP PUSH1 0x40 MLOAD DUP1 PUSH1 0x40 ADD PUSH1 0x40 MSTORE DUP1 PUSH1 0x1 DUP2 MSTORE PUSH1 0x20 ADD PUSH32 0x2D00000000000000000000000000000000000000000000000000000000000000 DUP2 MSTORE POP CALLER PUSH2 0x28AC JUMP JUMPDEST POP POP JUMP JUMPDEST PUSH1 0x60 DUP1 PUSH1 0x60 DUP1 PUSH1 0x0 DUP1 SLOAD SWAP1 PUSH2 0x100 EXP SWAP1 DIV PUSH20 0xFFFFFFFFFFFFFFFFFFFFFFFFFFFFFFFFFFFFFFFF AND PUSH20 0xFFFFFFFFFFFFFFFFFFFFFFFFFFFFFFFFFFFFFFFF AND CALLER PUSH20 0xFFFFFFFFFFFFFFFFFFFFFFFFFFFFFFFFFFFFFFFF AND EQ PUSH2 0x1656 JUMPI PUSH1 0x0 DUP1 REVERT JUMPDEST PUSH1 0x60 PUSH1 0x9 SLOAD PUSH8 0xFFFFFFFFFFFFFFFF DUP2 GT DUP1 ISZERO PUSH2 0x1671 JUMPI PUSH1 0x0 DUP1 REVERT JUMPDEST POP PUSH1 0x40 MLOAD SWAP1 DUP1 DUP3 MSTORE DUP1 PUSH1 0x20 MUL PUSH1 0x20 ADD DUP3 ADD PUSH1 0x40 MSTORE DUP1 ISZERO PUSH2 0x16A0 JUMPI DUP2 PUSH1 0x20 ADD PUSH1 0x20 DUP3 MUL DUP1 CALLDATASIZE DUP4 CALLDATACOPY DUP1 DUP3 ADD SWAP2 POP POP SWAP1 POP JUMPDEST POP SWAP1 POP PUSH1 0x60 PUSH1 0x9 SLOAD PUSH8 0xFFFFFFFFFFFFFFFF DUP2 GT DUP1 ISZERO PUSH2 0x16BE JUMPI PUSH1 0x0 DUP1 REVERT JUMPDEST POP PUSH1 0x40 MLOAD SWAP1 DUP1 DUP3 MSTORE DUP1 PUSH1 0x20 MUL PUSH1 0x20 ADD DUP3 ADD PUSH1 0x40 MSTORE DUP1 ISZERO PUSH2 0x16F2 JUMPI DUP2 PUSH1 0x20 ADD JUMPDEST PUSH1 0x60 DUP2 MSTORE PUSH1 0x20 ADD SWAP1 PUSH1 0x1 SWAP1 SUB SWAP1 DUP2 PUSH2 0x16DD JUMPI SWAP1 POP JUMPDEST POP SWAP1 POP PUSH1 0x60 PUSH1 0x9 SLOAD PUSH8 0xFFFFFFFFFFFFFFFF DUP2 GT DUP1 ISZERO PUSH2 0x1710 JUMPI PUSH1 0x0 DUP1 REVERT JUMPDEST POP PUSH1 0x40 MLOAD SWAP1 DUP1 DUP3 MSTORE DUP1 PUSH1 0x20 MUL PUSH1 0x20 ADD DUP3 ADD PUSH1 0x40 MSTORE DUP1 ISZERO PUSH2 0x1744 JUMPI DUP2 PUSH1 0x20 ADD JUMPDEST PUSH1 0x60 DUP2 MSTORE PUSH1 0x20 ADD SWAP1 PUSH1 0x1 SWAP1 SUB SWAP1 DUP2 PUSH2 0x172F JUMPI SWAP1 POP JUMPDEST POP SWAP1 POP PUSH1 0x60 PUSH1 0x9 SLOAD PUSH8 0xFFFFFFFFFFFFFFFF DUP2 GT DUP1 ISZERO PUSH2 0x1762 JUMPI PUSH1 0x0 DUP1 REVERT JUMPDEST POP PUSH1 0x40 MLOAD SWAP1 DUP1 DUP3 MSTORE DUP1 PUSH1 0x20 MUL PUSH1 0x20 ADD DUP3 ADD PUSH1 0x40 MSTORE DUP1 ISZERO PUSH2 0x1791 JUMPI DUP2 PUSH1 0x20 ADD PUSH1 0x20 DUP3 MUL DUP1 CALLDATASIZE DUP4 CALLDATACOPY DUP1 DUP3 ADD SWAP2 POP POP SWAP1 POP JUMPDEST POP SWAP1 POP PUSH1 0x0 JUMPDEST PUSH1 0x3 DUP1 SLOAD SWAP1 POP DUP2 LT ISZERO PUSH2 0x19C1 JUMPI PUSH1 0x0 PUSH1 0x3 DUP3 DUP2 SLOAD DUP2 LT PUSH2 0x17B3 JUMPI INVALID JUMPDEST SWAP1 PUSH1 0x0 MSTORE PUSH1 0x20 PUSH1 0x0 KECCAK256 SWAP1 PUSH1 0x4 MUL ADD SWAP1 POP DUP1 PUSH1 0x0 ADD SLOAD DUP7 DUP4 DUP2 MLOAD DUP2 LT PUSH2 0x17D4 JUMPI INVALID JUMPDEST PUSH1 0x20 MUL PUSH1 0x20 ADD ADD DUP2 DUP2 MSTORE POP POP DUP1 PUSH1 0x1 ADD DUP1 SLOAD PUSH1 0x1 DUP2 PUSH1 0x1 AND ISZERO PUSH2 0x100 MUL SUB AND PUSH1 0x2 SWAP1 DIV DUP1 PUSH1 0x1F ADD PUSH1 0x20 DUP1 SWAP2 DIV MUL PUSH1 0x20 ADD PUSH1 0x40 MLOAD SWAP1 DUP2 ADD PUSH1 0x40 MSTORE DUP1 SWAP3 SWAP2 SWAP1 DUP2 DUP2 MSTORE PUSH1 0x20 ADD DUP3 DUP1 SLOAD PUSH1 0x1 DUP2 PUSH1 0x1 AND ISZERO PUSH2 0x100 MUL SUB AND PUSH1 0x2 SWAP1 DIV DUP1 ISZERO PUSH2 0x1878 JUMPI DUP1 PUSH1 0x1F LT PUSH2 0x184D JUMPI PUSH2 0x100 DUP1 DUP4 SLOAD DIV MUL DUP4 MSTORE SWAP2 PUSH1 0x20 ADD SWAP2 PUSH2 0x1878 JUMP JUMPDEST DUP3 ADD SWAP2 SWAP1 PUSH1 0x0 MSTORE PUSH1 0x20 PUSH1 0x0 KECCAK256 SWAP1 JUMPDEST DUP2 SLOAD DUP2 MSTORE SWAP1 PUSH1 0x1 ADD SWAP1 PUSH1 0x20 ADD DUP1 DUP4 GT PUSH2 0x185B JUMPI DUP3 SWAP1 SUB PUSH1 0x1F AND DUP3 ADD SWAP2 JUMPDEST POP POP POP POP POP DUP6 DUP4 DUP2 MLOAD DUP2 LT PUSH2 0x1889 JUMPI INVALID JUMPDEST PUSH1 0x20 MUL PUSH1 0x20 ADD ADD DUP2 SWAP1 MSTORE POP DUP1 PUSH1 0x2 ADD DUP1 SLOAD PUSH1 0x1 DUP2 PUSH1 0x1 AND ISZERO PUSH2 0x100 MUL SUB AND PUSH1 0x2 SWAP1 DIV DUP1 PUSH1 0x1F ADD PUSH1 0x20 DUP1 SWAP2 DIV MUL PUSH1 0x20 ADD PUSH1 0x40 MLOAD SWAP1 DUP2 ADD PUSH1 0x40 MSTORE DUP1 SWAP3 SWAP2 SWAP1 DUP2 DUP2 MSTORE PUSH1 0x20 ADD DUP3 DUP1 SLOAD PUSH1 0x1 DUP2 PUSH1 0x1 AND ISZERO PUSH2 0x100 MUL SUB AND PUSH1 0x2 SWAP1 DIV DUP1 ISZERO PUSH2 0x192C JUMPI DUP1 PUSH1 0x1F LT PUSH2 0x1901 JUMPI PUSH2 0x100 DUP1 DUP4 SLOAD DIV MUL DUP4 MSTORE SWAP2 PUSH1 0x20 ADD SWAP2 PUSH2 0x192C JUMP JUMPDEST DUP3 ADD SWAP2 SWAP1 PUSH1 0x0 MSTORE PUSH1 0x20 PUSH1 0x0 KECCAK256 SWAP1 JUMPDEST DUP2 SLOAD DUP2 MSTORE SWAP1 PUSH1 0x1 ADD SWAP1 PUSH1 0x20 ADD DUP1 DUP4 GT PUSH2 0x190F JUMPI DUP3 SWAP1 SUB PUSH1 0x1F AND DUP3 ADD SWAP2 JUMPDEST POP POP POP POP POP DUP5 DUP4 DUP2 MLOAD DUP2 LT PUSH2 0x193D JUMPI INVALID JUMPDEST PUSH1 0x20 MUL PUSH1 0x20 ADD ADD DUP2 SWAP1 MSTORE POP DUP1 PUSH1 0x3 ADD PUSH1 0x0 SWAP1 SLOAD SWAP1 PUSH2 0x100 EXP SWAP1 DIV PUSH20 0xFFFFFFFFFFFFFFFFFFFFFFFFFFFFFFFFFFFFFFFF AND DUP4 DUP4 DUP2 MLOAD DUP2 LT PUSH2 0x1979 JUMPI INVALID JUMPDEST PUSH1 0x20 MUL PUSH1 0x20 ADD ADD SWAP1 PUSH20 0xFFFFFFFFFFFFFFFFFFFFFFFFFFFFFFFFFFFFFFFF AND SWAP1 DUP2 PUSH20 0xFFFFFFFFFFFFFFFFFFFFFFFFFFFFFFFFFFFFFFFF AND DUP2 MSTORE POP POP POP DUP1 DUP1 PUSH1 0x1 ADD SWAP2 POP POP PUSH2 0x1797 JUMP JUMPDEST POP DUP4 DUP4 DUP4 DUP4 SWAP8 POP SWAP8 POP SWAP8 POP SWAP8 POP POP POP POP POP SWAP1 SWAP2 SWAP3 SWAP4 JUMP JUMPDEST PUSH1 0x0 DUP1 SLOAD SWAP1 PUSH2 0x100 EXP SWAP1 DIV PUSH20 0xFFFFFFFFFFFFFFFFFFFFFFFFFFFFFFFFFFFFFFFF AND PUSH20 0xFFFFFFFFFFFFFFFFFFFFFFFFFFFFFFFFFFFFFFFF AND CALLER PUSH20 0xFFFFFFFFFFFFFFFFFFFFFFFFFFFFFFFFFFFFFFFF AND EQ PUSH2 0x1A30 JUMPI PUSH1 0x0 DUP1 REVERT JUMPDEST PUSH2 0x1A38 PUSH2 0x2B3E JUMP JUMPDEST PUSH1 0x40 MLOAD DUP1 PUSH1 0x80 ADD PUSH1 0x40 MSTORE DUP1 PUSH1 0x8 SLOAD DUP2 MSTORE PUSH1 0x20 ADD DUP5 DUP2 MSTORE PUSH1 0x20 ADD DUP4 DUP2 MSTORE PUSH1 0x20 ADD PUSH1 0x0 PUSH8 0xFFFFFFFFFFFFFFFF DUP2 GT DUP1 ISZERO PUSH2 0x1A6F JUMPI PUSH1 0x0 DUP1 REVERT JUMPDEST POP PUSH1 0x40 MLOAD SWAP1 DUP1 DUP3 MSTORE DUP1 PUSH1 0x20 MUL PUSH1 0x20 ADD DUP3 ADD PUSH1 0x40 MSTORE DUP1 ISZERO PUSH2 0x1AA3 JUMPI DUP2 PUSH1 0x20 ADD JUMPDEST PUSH1 0x60 DUP2 MSTORE PUSH1 0x20 ADD SWAP1 PUSH1 0x1 SWAP1 SUB SWAP1 DUP2 PUSH2 0x1A8E JUMPI SWAP1 POP JUMPDEST POP DUP2 MSTORE POP SWAP1 POP PUSH1 0x6 PUSH1 0x0 DUP2 SLOAD DUP1 SWAP3 SWAP2 SWAP1 PUSH1 0x1 ADD SWAP2 SWAP1 POP SSTORE POP PUSH1 0x8 PUSH1 0x0 DUP2 SLOAD DUP1 SWAP3 SWAP2 SWAP1 PUSH1 0x1 ADD SWAP2 SWAP1 POP SSTORE POP PUSH1 0x1 DUP2 SWAP1 DUP1 PUSH1 0x1 DUP2 SLOAD ADD DUP1 DUP3 SSTORE DUP1 SWAP2 POP POP PUSH1 0x1 SWAP1 SUB SWAP1 PUSH1 0x0 MSTORE PUSH1 0x20 PUSH1 0x0 KECCAK256 SWAP1 PUSH1 0x4 MUL ADD PUSH1 0x0 SWAP1 SWAP2 SWAP1 SWAP2 SWAP1 SWAP2 POP PUSH1 0x0 DUP3 ADD MLOAD DUP2 PUSH1 0x0 ADD SSTORE PUSH1 0x20 DUP3 ADD MLOAD DUP2 PUSH1 0x1 ADD SWAP1 DUP1 MLOAD SWAP1 PUSH1 0x20 ADD SWAP1 PUSH2 0x1B1F SWAP3 SWAP2 SWAP1 PUSH2 0x29BF JUMP JUMPDEST POP PUSH1 0x40 DUP3 ADD MLOAD DUP2 PUSH1 0x2 ADD SWAP1 DUP1 MLOAD SWAP1 PUSH1 0x20 ADD SWAP1 PUSH2 0x1B3C SWAP3 SWAP2 SWAP1 PUSH2 0x29BF JUMP JUMPDEST POP PUSH1 0x60 DUP3 ADD MLOAD DUP2 PUSH1 0x3 ADD SWAP1 DUP1 MLOAD SWAP1 PUSH1 0x20 ADD SWAP1 PUSH2 0x1B59 SWAP3 SWAP2 SWAP1 PUSH2 0x2B66 JUMP JUMPDEST POP POP POP PUSH2 0x1BD2 TIMESTAMP PUSH1 0x40 MLOAD DUP1 PUSH1 0x40 ADD PUSH1 0x40 MSTORE DUP1 PUSH1 0x9 DUP2 MSTORE PUSH1 0x20 ADD PUSH32 0x616464436C69656E740000000000000000000000000000000000000000000000 DUP2 MSTORE POP PUSH1 0x40 MLOAD DUP1 PUSH1 0x40 ADD PUSH1 0x40 MSTORE DUP1 PUSH1 0x12 DUP2 MSTORE PUSH1 0x20 ADD PUSH32 0x61206E657720636C69656E742061646465640000000000000000000000000000 DUP2 MSTORE POP CALLER PUSH2 0x28AC JUMP JUMPDEST POP POP POP JUMP JUMPDEST PUSH1 0x0 DUP1 SLOAD SWAP1 PUSH2 0x100 EXP SWAP1 DIV PUSH20 0xFFFFFFFFFFFFFFFFFFFFFFFFFFFFFFFFFFFFFFFF AND PUSH20 0xFFFFFFFFFFFFFFFFFFFFFFFFFFFFFFFFFFFFFFFF AND CALLER PUSH20 0xFFFFFFFFFFFFFFFFFFFFFFFFFFFFFFFFFFFFFFFF AND EQ PUSH2 0x1C2F JUMPI PUSH1 0x0 DUP1 REVERT JUMPDEST PUSH1 0x0 JUMPDEST PUSH1 0x1 DUP1 SLOAD SWAP1 POP DUP2 LT ISZERO PUSH2 0x1E08 JUMPI PUSH1 0x1 DUP2 DUP2 SLOAD DUP2 LT PUSH2 0x1C4C JUMPI INVALID JUMPDEST SWAP1 PUSH1 0x0 MSTORE PUSH1 0x20 PUSH1 0x0 KECCAK256 SWAP1 PUSH1 0x4 MUL ADD PUSH1 0x0 ADD SLOAD DUP3 EQ ISZERO PUSH2 0x1DFB JUMPI PUSH1 0x1 DUP1 DUP1 DUP1 SLOAD SWAP1 POP SUB DUP2 SLOAD DUP2 LT PUSH2 0x1C78 JUMPI INVALID JUMPDEST SWAP1 PUSH1 0x0 MSTORE PUSH1 0x20 PUSH1 0x0 KECCAK256 SWAP1 PUSH1 0x4 MUL ADD PUSH1 0x1 DUP3 DUP2 SLOAD DUP2 LT PUSH2 0x1C93 JUMPI INVALID JUMPDEST SWAP1 PUSH1 0x0 MSTORE PUSH1 0x20 PUSH1 0x0 KECCAK256 SWAP1 PUSH1 0x4 MUL ADD PUSH1 0x0 DUP3 ADD SLOAD DUP2 PUSH1 0x0 ADD SSTORE PUSH1 0x1 DUP3 ADD DUP2 PUSH1 0x1 ADD SWAP1 DUP1 SLOAD PUSH1 0x1 DUP2 PUSH1 0x1 AND ISZERO PUSH2 0x100 MUL SUB AND PUSH1 0x2 SWAP1 DIV PUSH2 0x1CD2 SWAP3 SWAP2 SWAP1 PUSH2 0x2BC6 JUMP JUMPDEST POP PUSH1 0x2 DUP3 ADD DUP2 PUSH1 0x2 ADD SWAP1 DUP1 SLOAD PUSH1 0x1 DUP2 PUSH1 0x1 AND ISZERO PUSH2 0x100 MUL SUB AND PUSH1 0x2 SWAP1 DIV PUSH2 0x1CFA SWAP3 SWAP2 SWAP1 PUSH2 0x2BC6 JUMP JUMPDEST POP PUSH1 0x3 DUP3 ADD DUP2 PUSH1 0x3 ADD SWAP1 DUP1 SLOAD PUSH2 0x1D11 SWAP3 SWAP2 SWAP1 PUSH2 0x2C4D JUMP JUMPDEST POP SWAP1 POP POP PUSH1 0x1 DUP1 SLOAD DUP1 PUSH2 0x1D20 JUMPI INVALID JUMPDEST PUSH1 0x1 SWAP1 SUB DUP2 DUP2 SWAP1 PUSH1 0x0 MSTORE PUSH1 0x20 PUSH1 0x0 KECCAK256 SWAP1 PUSH1 0x4 MUL ADD PUSH1 0x0 DUP1 DUP3 ADD PUSH1 0x0 SWAP1 SSTORE PUSH1 0x1 DUP3 ADD PUSH1 0x0 PUSH2 0x1D4D SWAP2 SWAP1 PUSH2 0x2AC6 JUMP JUMPDEST PUSH1 0x2 DUP3 ADD PUSH1 0x0 PUSH2 0x1D5D SWAP2 SWAP1 PUSH2 0x2AC6 JUMP JUMPDEST PUSH1 0x3 DUP3 ADD PUSH1 0x0 PUSH2 0x1D6D SWAP2 SWAP1 PUSH2 0x2CBD JUMP JUMPDEST POP POP SWAP1 SSTORE PUSH1 0x6 PUSH1 0x0 DUP2 SLOAD DUP1 SWAP3 SWAP2 SWAP1 PUSH1 0x1 SWAP1 SUB SWAP2 SWAP1 POP SSTORE POP PUSH2 0x1DFA TIMESTAMP PUSH1 0x40 MLOAD DUP1 PUSH1 0x40 ADD PUSH1 0x40 MSTORE DUP1 PUSH1 0xC DUP2 MSTORE PUSH1 0x20 ADD PUSH32 0x64656C657465436C69656E740000000000000000000000000000000000000000 DUP2 MSTORE POP PUSH1 0x40 MLOAD DUP1 PUSH1 0x40 ADD PUSH1 0x40 MSTORE DUP1 PUSH1 0x19 DUP2 MSTORE PUSH1 0x20 ADD PUSH32 0x6120636C69656E7420686173206265656E2064656C6574656400000000000000 DUP2 MSTORE POP CALLER PUSH2 0x28AC JUMP JUMPDEST JUMPDEST DUP1 DUP1 PUSH1 0x1 ADD SWAP2 POP POP PUSH2 0x1C32 JUMP JUMPDEST POP POP JUMP JUMPDEST PUSH1 0x60 PUSH1 0x0 DUP1 SLOAD SWAP1 PUSH2 0x100 EXP SWAP1 DIV PUSH20 0xFFFFFFFFFFFFFFFFFFFFFFFFFFFFFFFFFFFFFFFF AND PUSH20 0xFFFFFFFFFFFFFFFFFFFFFFFFFFFFFFFFFFFFFFFF AND CALLER PUSH20 0xFFFFFFFFFFFFFFFFFFFFFFFFFFFFFFFFFFFFFFFF AND EQ PUSH2 0x1E66 JUMPI PUSH1 0x0 DUP1 REVERT JUMPDEST PUSH1 0x60 PUSH1 0x7 SLOAD PUSH8 0xFFFFFFFFFFFFFFFF DUP2 GT DUP1 ISZERO PUSH2 0x1E81 JUMPI PUSH1 0x0 DUP1 REVERT JUMPDEST POP PUSH1 0x40 MLOAD SWAP1 DUP1 DUP3 MSTORE DUP1 PUSH1 0x20 MUL PUSH1 0x20 ADD DUP3 ADD PUSH1 0x40 MSTORE DUP1 ISZERO PUSH2 0x1EB0 JUMPI DUP2 PUSH1 0x20 ADD PUSH1 0x20 DUP3 MUL DUP1 CALLDATASIZE DUP4 CALLDATACOPY DUP1 DUP3 ADD SWAP2 POP POP SWAP1 POP JUMPDEST POP SWAP1 POP PUSH1 0x0 JUMPDEST PUSH1 0x2 DUP1 SLOAD SWAP1 POP DUP2 LT ISZERO PUSH2 0x1F55 JUMPI PUSH1 0x2 DUP2 DUP2 SLOAD DUP2 LT PUSH2 0x1ED0 JUMPI INVALID JUMPDEST SWAP1 PUSH1 0x0 MSTORE PUSH1 0x20 PUSH1 0x0 KECCAK256 SWAP1 PUSH1 0x2 MUL ADD PUSH1 0x0 ADD PUSH1 0x0 SWAP1 SLOAD SWAP1 PUSH2 0x100 EXP SWAP1 DIV PUSH20 0xFFFFFFFFFFFFFFFFFFFFFFFFFFFFFFFFFFFFFFFF AND DUP3 DUP3 DUP2 MLOAD DUP2 LT PUSH2 0x1F0E JUMPI INVALID JUMPDEST PUSH1 0x20 MUL PUSH1 0x20 ADD ADD SWAP1 PUSH20 0xFFFFFFFFFFFFFFFFFFFFFFFFFFFFFFFFFFFFFFFF AND SWAP1 DUP2 PUSH20 0xFFFFFFFFFFFFFFFFFFFFFFFFFFFFFFFFFFFFFFFF AND DUP2 MSTORE POP POP DUP1 DUP1 PUSH1 0x1 ADD SWAP2 POP POP PUSH2 0x1EB6 JUMP JUMPDEST POP DUP1 SWAP2 POP POP SWAP1 JUMP JUMPDEST PUSH1 0x0 DUP5 PUSH1 0x0 DUP1 SHL PUSH1 0x5 PUSH1 0x0 CALLER PUSH20 0xFFFFFFFFFFFFFFFFFFFFFFFFFFFFFFFFFFFFFFFF AND PUSH20 0xFFFFFFFFFFFFFFFFFFFFFFFFFFFFFFFFFFFFFFFF AND DUP2 MSTORE PUSH1 0x20 ADD SWAP1 DUP2 MSTORE PUSH1 0x20 ADD PUSH1 0x0 KECCAK256 SLOAD EQ ISZERO PUSH2 0x1FAF JUMPI PUSH1 0x0 DUP1 REVERT JUMPDEST PUSH1 0x5 PUSH1 0x0 CALLER PUSH20 0xFFFFFFFFFFFFFFFFFFFFFFFFFFFFFFFFFFFFFFFF AND PUSH20 0xFFFFFFFFFFFFFFFFFFFFFFFFFFFFFFFFFFFFFFFF AND DUP2 MSTORE PUSH1 0x20 ADD SWAP1 DUP2 MSTORE PUSH1 0x20 ADD PUSH1 0x0 KECCAK256 SLOAD DUP2 EQ PUSH2 0x1FFA JUMPI PUSH1 0x0 DUP1 REVERT JUMPDEST PUSH1 0x0 JUMPDEST PUSH1 0x1 DUP1 SLOAD SWAP1 POP DUP2 LT ISZERO PUSH2 0x212F JUMPI PUSH1 0x1 DUP2 DUP2 SLOAD DUP2 LT PUSH2 0x2017 JUMPI INVALID JUMPDEST SWAP1 PUSH1 0x0 MSTORE PUSH1 0x20 PUSH1 0x0 KECCAK256 SWAP1 PUSH1 0x4 MUL ADD PUSH1 0x0 ADD SLOAD DUP7 EQ DUP1 ISZERO PUSH2 0x209F JUMPI POP PUSH1 0x1 DUP2 DUP2 SLOAD DUP2 LT PUSH2 0x203F JUMPI INVALID JUMPDEST SWAP1 PUSH1 0x0 MSTORE PUSH1 0x20 PUSH1 0x0 KECCAK256 SWAP1 PUSH1 0x4 MUL ADD PUSH1 0x1 ADD PUSH1 0x40 MLOAD PUSH1 0x20 ADD PUSH2 0x2060 SWAP2 SWAP1 PUSH2 0x3471 JUMP JUMPDEST PUSH1 0x40 MLOAD PUSH1 0x20 DUP2 DUP4 SUB SUB DUP2 MSTORE SWAP1 PUSH1 0x40 MSTORE DUP1 MLOAD SWAP1 PUSH1 0x20 ADD KECCAK256 DUP6 PUSH1 0x40 MLOAD PUSH1 0x20 ADD PUSH2 0x2087 SWAP2 SWAP1 PUSH2 0x345A JUMP JUMPDEST PUSH1 0x40 MLOAD PUSH1 0x20 DUP2 DUP4 SUB SUB DUP2 MSTORE SWAP1 PUSH1 0x40 MSTORE DUP1 MLOAD SWAP1 PUSH1 0x20 ADD KECCAK256 EQ JUMPDEST DUP1 ISZERO PUSH2 0x2113 JUMPI POP PUSH1 0x1 DUP2 DUP2 SLOAD DUP2 LT PUSH2 0x20B3 JUMPI INVALID JUMPDEST SWAP1 PUSH1 0x0 MSTORE PUSH1 0x20 PUSH1 0x0 KECCAK256 SWAP1 PUSH1 0x4 MUL ADD PUSH1 0x2 ADD PUSH1 0x40 MLOAD PUSH1 0x20 ADD PUSH2 0x20D4 SWAP2 SWAP1 PUSH2 0x3471 JUMP JUMPDEST PUSH1 0x40 MLOAD PUSH1 0x20 DUP2 DUP4 SUB SUB DUP2 MSTORE SWAP1 PUSH1 0x40 MSTORE DUP1 MLOAD SWAP1 PUSH1 0x20 ADD KECCAK256 DUP5 PUSH1 0x40 MLOAD PUSH1 0x20 ADD PUSH2 0x20FB SWAP2 SWAP1 PUSH2 0x345A JUMP JUMPDEST PUSH1 0x40 MLOAD PUSH1 0x20 DUP2 DUP4 SUB SUB DUP2 MSTORE SWAP1 PUSH1 0x40 MSTORE DUP1 MLOAD SWAP1 PUSH1 0x20 ADD KECCAK256 EQ JUMPDEST ISZERO PUSH2 0x2122 JUMPI PUSH1 0x1 SWAP3 POP POP PUSH2 0x2135 JUMP JUMPDEST DUP1 DUP1 PUSH1 0x1 ADD SWAP2 POP POP PUSH2 0x1FFD JUMP JUMPDEST POP PUSH1 0x0 SWAP2 POP JUMPDEST POP SWAP5 SWAP4 POP POP POP POP JUMP JUMPDEST PUSH1 0x0 DUP1 SLOAD SWAP1 PUSH2 0x100 EXP SWAP1 DIV PUSH20 0xFFFFFFFFFFFFFFFFFFFFFFFFFFFFFFFFFFFFFFFF AND PUSH20 0xFFFFFFFFFFFFFFFFFFFFFFFFFFFFFFFFFFFFFFFF AND CALLER PUSH20 0xFFFFFFFFFFFFFFFFFFFFFFFFFFFFFFFFFFFFFFFF AND EQ PUSH2 0x2196 JUMPI PUSH1 0x0 DUP1 REVERT JUMPDEST PUSH1 0x0 JUMPDEST PUSH1 0x1 DUP1 SLOAD SWAP1 POP DUP2 LT ISZERO PUSH2 0x2311 JUMPI PUSH1 0x0 PUSH1 0x1 DUP3 DUP2 SLOAD DUP2 LT PUSH2 0x21B5 JUMPI INVALID JUMPDEST SWAP1 PUSH1 0x0 MSTORE PUSH1 0x20 PUSH1 0x0 KECCAK256 SWAP1 PUSH1 0x4 MUL ADD SWAP1 POP DUP1 PUSH1 0x0 ADD SLOAD DUP6 EQ ISZERO PUSH2 0x2303 JUMPI PUSH1 0x0 JUMPDEST DUP2 PUSH1 0x3 ADD DUP1 SLOAD SWAP1 POP DUP2 LT ISZERO PUSH2 0x2301 JUMPI DUP5 PUSH1 0x40 MLOAD PUSH1 0x20 ADD PUSH2 0x21F4 SWAP2 SWAP1 PUSH2 0x345A JUMP JUMPDEST PUSH1 0x40 MLOAD PUSH1 0x20 DUP2 DUP4 SUB SUB DUP2 MSTORE SWAP1 PUSH1 0x40 MSTORE DUP1 MLOAD SWAP1 PUSH1 0x20 ADD KECCAK256 DUP3 PUSH1 0x3 ADD DUP3 DUP2 SLOAD DUP2 LT PUSH2 0x2219 JUMPI INVALID JUMPDEST SWAP1 PUSH1 0x0 MSTORE PUSH1 0x20 PUSH1 0x0 KECCAK256 ADD PUSH1 0x40 MLOAD PUSH1 0x20 ADD PUSH2 0x2233 SWAP2 SWAP1 PUSH2 0x3471 JUMP JUMPDEST PUSH1 0x40 MLOAD PUSH1 0x20 DUP2 DUP4 SUB SUB DUP2 MSTORE SWAP1 PUSH1 0x40 MSTORE DUP1 MLOAD SWAP1 PUSH1 0x20 ADD KECCAK256 EQ ISZERO PUSH2 0x22F4 JUMPI DUP4 DUP3 PUSH1 0x3 ADD DUP3 DUP2 SLOAD DUP2 LT PUSH2 0x225F JUMPI INVALID JUMPDEST SWAP1 PUSH1 0x0 MSTORE PUSH1 0x20 PUSH1 0x0 KECCAK256 ADD SWAP1 DUP1 MLOAD SWAP1 PUSH1 0x20 ADD SWAP1 PUSH2 0x227C SWAP3 SWAP2 SWAP1 PUSH2 0x29BF JUMP JUMPDEST POP PUSH2 0x22F3 TIMESTAMP PUSH1 0x40 MLOAD DUP1 PUSH1 0x40 ADD PUSH1 0x40 MSTORE DUP1 PUSH1 0xB DUP2 MSTORE PUSH1 0x20 ADD PUSH32 0x757064617465546F706963000000000000000000000000000000000000000000 DUP2 MSTORE POP PUSH1 0x40 MLOAD DUP1 PUSH1 0x40 ADD PUSH1 0x40 MSTORE DUP1 PUSH1 0x18 DUP2 MSTORE PUSH1 0x20 ADD PUSH32 0x6120746F70696320686173206265656E20757064617465640000000000000000 DUP2 MSTORE POP CALLER PUSH2 0x28AC JUMP JUMPDEST JUMPDEST DUP1 DUP1 PUSH1 0x1 ADD SWAP2 POP POP PUSH2 0x21D4 JUMP JUMPDEST POP JUMPDEST POP DUP1 DUP1 PUSH1 0x1 ADD SWAP2 POP POP PUSH2 0x2199 JUMP JUMPDEST POP POP POP POP JUMP JUMPDEST PUSH1 0x4 PUSH1 0x0 CALLER PUSH20 0xFFFFFFFFFFFFFFFFFFFFFFFFFFFFFFFFFFFFFFFF AND PUSH20 0xFFFFFFFFFFFFFFFFFFFFFFFFFFFFFFFFFFFFFFFF AND DUP2 MSTORE PUSH1 0x20 ADD SWAP1 DUP2 MSTORE PUSH1 0x20 ADD PUSH1 0x0 KECCAK256 PUSH1 0x0 SWAP1 SLOAD SWAP1 PUSH2 0x100 EXP SWAP1 DIV PUSH1 0xFF AND PUSH2 0x236D JUMPI PUSH1 0x0 DUP1 REVERT JUMPDEST PUSH1 0x0 JUMPDEST PUSH1 0x2 DUP1 SLOAD SWAP1 POP DUP2 LT ISZERO PUSH2 0x28A9 JUMPI PUSH1 0x2 DUP2 DUP2 SLOAD DUP2 LT PUSH2 0x238A JUMPI INVALID JUMPDEST SWAP1 PUSH1 0x0 MSTORE PUSH1 0x20 PUSH1 0x0 KECCAK256 SWAP1 PUSH1 0x2 MUL ADD PUSH1 0x0 ADD PUSH1 0x0 SWAP1 SLOAD SWAP1 PUSH2 0x100 EXP SWAP1 DIV PUSH20 0xFFFFFFFFFFFFFFFFFFFFFFFFFFFFFFFFFFFFFFFF AND PUSH20 0xFFFFFFFFFFFFFFFFFFFFFFFFFFFFFFFFFFFFFFFF AND CALLER PUSH20 0xFFFFFFFFFFFFFFFFFFFFFFFFFFFFFFFFFFFFFFFF AND EQ ISZERO PUSH2 0x289C JUMPI PUSH1 0x0 TIMESTAMP SWAP1 POP PUSH1 0x0 PUSH1 0x2 DUP4 DUP2 SLOAD DUP2 LT PUSH2 0x2403 JUMPI INVALID JUMPDEST SWAP1 PUSH1 0x0 MSTORE PUSH1 0x20 PUSH1 0x0 KECCAK256 SWAP1 PUSH1 0x2 MUL ADD PUSH1 0x1 ADD SLOAD DUP3 SUB SWAP1 POP PUSH1 0xF0 DUP2 GT ISZERO PUSH2 0x2671 JUMPI DUP2 PUSH1 0x2 DUP5 DUP2 SLOAD DUP2 LT PUSH2 0x2430 JUMPI INVALID JUMPDEST SWAP1 PUSH1 0x0 MSTORE PUSH1 0x20 PUSH1 0x0 KECCAK256 SWAP1 PUSH1 0x2 MUL ADD PUSH1 0x1 ADD DUP2 SWAP1 SSTORE POP CALLER PUSH1 0x2 DUP5 DUP2 SLOAD DUP2 LT PUSH2 0x2453 JUMPI INVALID JUMPDEST SWAP1 PUSH1 0x0 MSTORE PUSH1 0x20 PUSH1 0x0 KECCAK256 SWAP1 PUSH1 0x2 MUL ADD PUSH1 0x1 ADD SLOAD PUSH1 0x40 MLOAD PUSH1 0x20 ADD PUSH2 0x2476 SWAP3 SWAP2 SWAP1 PUSH2 0x342E JUMP JUMPDEST PUSH1 0x40 MLOAD PUSH1 0x20 DUP2 DUP4 SUB SUB DUP2 MSTORE SWAP1 PUSH1 0x40 MSTORE DUP1 MLOAD SWAP1 PUSH1 0x20 ADD KECCAK256 PUSH1 0x5 PUSH1 0x0 PUSH1 0x2 DUP7 DUP2 SLOAD DUP2 LT PUSH2 0x249D JUMPI INVALID JUMPDEST SWAP1 PUSH1 0x0 MSTORE PUSH1 0x20 PUSH1 0x0 KECCAK256 SWAP1 PUSH1 0x2 MUL ADD PUSH1 0x0 ADD PUSH1 0x0 SWAP1 SLOAD SWAP1 PUSH2 0x100 EXP SWAP1 DIV PUSH20 0xFFFFFFFFFFFFFFFFFFFFFFFFFFFFFFFFFFFFFFFF AND PUSH20 0xFFFFFFFFFFFFFFFFFFFFFFFFFFFFFFFFFFFFFFFF AND PUSH20 0xFFFFFFFFFFFFFFFFFFFFFFFFFFFFFFFFFFFFFFFF AND DUP2 MSTORE PUSH1 0x20 ADD SWAP1 DUP2 MSTORE PUSH1 0x20 ADD PUSH1 0x0 KECCAK256 DUP2 SWAP1 SSTORE POP PUSH2 0x2583 TIMESTAMP PUSH1 0x40 MLOAD DUP1 PUSH1 0x40 ADD PUSH1 0x40 MSTORE DUP1 PUSH1 0xC DUP2 MSTORE PUSH1 0x20 ADD PUSH32 0x72656672657368546F6B656E0000000000000000000000000000000000000000 DUP2 MSTORE POP PUSH1 0x40 MLOAD DUP1 PUSH1 0x40 ADD PUSH1 0x40 MSTORE DUP1 PUSH1 0xC DUP2 MSTORE PUSH1 0x20 ADD PUSH32 0x746F6B656E206469756261680000000000000000000000000000000000000000 DUP2 MSTORE POP CALLER PUSH2 0x28AC JUMP JUMPDEST PUSH32 0x504E9E94E0C65229AAF8CABE153380CC35DA3135E30129BC3195F7E031CDF82B PUSH1 0x5 PUSH1 0x0 PUSH1 0x2 DUP7 DUP2 SLOAD DUP2 LT PUSH2 0x25B5 JUMPI INVALID JUMPDEST SWAP1 PUSH1 0x0 MSTORE PUSH1 0x20 PUSH1 0x0 KECCAK256 SWAP1 PUSH1 0x2 MUL ADD PUSH1 0x0 ADD PUSH1 0x0 SWAP1 SLOAD SWAP1 PUSH2 0x100 EXP SWAP1 DIV PUSH20 0xFFFFFFFFFFFFFFFFFFFFFFFFFFFFFFFFFFFFFFFF AND PUSH20 0xFFFFFFFFFFFFFFFFFFFFFFFFFFFFFFFFFFFFFFFF AND PUSH20 0xFFFFFFFFFFFFFFFFFFFFFFFFFFFFFFFFFFFFFFFF AND DUP2 MSTORE PUSH1 0x20 ADD SWAP1 DUP2 MSTORE PUSH1 0x20 ADD PUSH1 0x0 KECCAK256 SLOAD PUSH1 0x40 MLOAD PUSH2 0x262F SWAP2 SWAP1 PUSH2 0x35AF JUMP JUMPDEST PUSH1 0x40 MLOAD DUP1 SWAP2 SUB SWAP1 LOG1 PUSH32 0xB6F921ADE0DE8DA9E62E948D90AE6F2DD6B678679AD77753C75FE1B6D9A72004 PUSH1 0x40 MLOAD PUSH2 0x2664 SWAP1 PUSH2 0x35CA JUMP JUMPDEST PUSH1 0x40 MLOAD DUP1 SWAP2 SUB SWAP1 LOG1 PUSH2 0x2899 JUMP JUMPDEST CALLER PUSH1 0x2 DUP5 DUP2 SLOAD DUP2 LT PUSH2 0x267F JUMPI INVALID JUMPDEST SWAP1 PUSH1 0x0 MSTORE PUSH1 0x20 PUSH1 0x0 KECCAK256 SWAP1 PUSH1 0x2 MUL ADD PUSH1 0x1 ADD SLOAD PUSH1 0x40 MLOAD PUSH1 0x20 ADD PUSH2 0x26A2 SWAP3 SWAP2 SWAP1 PUSH2 0x342E JUMP JUMPDEST PUSH1 0x40 MLOAD PUSH1 0x20 DUP2 DUP4 SUB SUB DUP2 MSTORE SWAP1 PUSH1 0x40 MSTORE DUP1 MLOAD SWAP1 PUSH1 0x20 ADD KECCAK256 PUSH1 0x5 PUSH1 0x0 PUSH1 0x2 DUP7 DUP2 SLOAD DUP2 LT PUSH2 0x26C9 JUMPI INVALID JUMPDEST SWAP1 PUSH1 0x0 MSTORE PUSH1 0x20 PUSH1 0x0 KECCAK256 SWAP1 PUSH1 0x2 MUL ADD PUSH1 0x0 ADD PUSH1 0x0 SWAP1 SLOAD SWAP1 PUSH2 0x100 EXP SWAP1 DIV PUSH20 0xFFFFFFFFFFFFFFFFFFFFFFFFFFFFFFFFFFFFFFFF AND PUSH20 0xFFFFFFFFFFFFFFFFFFFFFFFFFFFFFFFFFFFFFFFF AND PUSH20 0xFFFFFFFFFFFFFFFFFFFFFFFFFFFFFFFFFFFFFFFF AND DUP2 MSTORE PUSH1 0x20 ADD SWAP1 DUP2 MSTORE PUSH1 0x20 ADD PUSH1 0x0 KECCAK256 DUP2 SWAP1 SSTORE POP PUSH2 0x27AF TIMESTAMP PUSH1 0x40 MLOAD DUP1 PUSH1 0x40 ADD PUSH1 0x40 MSTORE DUP1 PUSH1 0xC DUP2 MSTORE PUSH1 0x20 ADD PUSH32 0x72656672657368546F6B656E0000000000000000000000000000000000000000 DUP2 MSTORE POP PUSH1 0x40 MLOAD DUP1 PUSH1 0x40 ADD PUSH1 0x40 MSTORE DUP1 PUSH1 0x12 DUP2 MSTORE PUSH1 0x20 ADD PUSH32 0x746F6B656E20746964616B206469756261680000000000000000000000000000 DUP2 MSTORE POP CALLER PUSH2 0x28AC JUMP JUMPDEST PUSH32 0x504E9E94E0C65229AAF8CABE153380CC35DA3135E30129BC3195F7E031CDF82B PUSH1 0x5 PUSH1 0x0 PUSH1 0x2 DUP7 DUP2 SLOAD DUP2 LT PUSH2 0x27E1 JUMPI INVALID JUMPDEST SWAP1 PUSH1 0x0 MSTORE PUSH1 0x20 PUSH1 0x0 KECCAK256 SWAP1 PUSH1 0x2 MUL ADD PUSH1 0x0 ADD PUSH1 0x0 SWAP1 SLOAD SWAP1 PUSH2 0x100 EXP SWAP1 DIV PUSH20 0xFFFFFFFFFFFFFFFFFFFFFFFFFFFFFFFFFFFFFFFF AND PUSH20 0xFFFFFFFFFFFFFFFFFFFFFFFFFFFFFFFFFFFFFFFF AND PUSH20 0xFFFFFFFFFFFFFFFFFFFFFFFFFFFFFFFFFFFFFFFF AND DUP2 MSTORE PUSH1 0x20 ADD SWAP1 DUP2 MSTORE PUSH1 0x20 ADD PUSH1 0x0 KECCAK256 SLOAD PUSH1 0x40 MLOAD PUSH2 0x285B SWAP2 SWAP1 PUSH2 0x35AF JUMP JUMPDEST PUSH1 0x40 MLOAD DUP1 SWAP2 SUB SWAP1 LOG1 PUSH32 0xB6F921ADE0DE8DA9E62E948D90AE6F2DD6B678679AD77753C75FE1B6D9A72004 PUSH1 0x40 MLOAD PUSH2 0x2890 SWAP1 PUSH2 0x35EA JUMP JUMPDEST PUSH1 0x40 MLOAD DUP1 SWAP2 SUB SWAP1 LOG1 JUMPDEST POP POP JUMPDEST DUP1 DUP1 PUSH1 0x1 ADD SWAP2 POP POP PUSH2 0x2370 JUMP JUMPDEST POP JUMP JUMPDEST PUSH2 0x28B4 PUSH2 0x2CDE JUMP JUMPDEST PUSH1 0x40 MLOAD DUP1 PUSH1 0x80 ADD PUSH1 0x40 MSTORE DUP1 DUP7 DUP2 MSTORE PUSH1 0x20 ADD DUP6 DUP2 MSTORE PUSH1 0x20 ADD DUP5 DUP2 MSTORE PUSH1 0x20 ADD DUP4 PUSH20 0xFFFFFFFFFFFFFFFFFFFFFFFFFFFFFFFFFFFFFFFF AND DUP2 MSTORE POP SWAP1 POP PUSH1 0x3 DUP2 SWAP1 DUP1 PUSH1 0x1 DUP2 SLOAD ADD DUP1 DUP3 SSTORE DUP1 SWAP2 POP POP PUSH1 0x1 SWAP1 SUB SWAP1 PUSH1 0x0 MSTORE PUSH1 0x20 PUSH1 0x0 KECCAK256 SWAP1 PUSH1 0x4 MUL ADD PUSH1 0x0 SWAP1 SWAP2 SWAP1 SWAP2 SWAP1 SWAP2 POP PUSH1 0x0 DUP3 ADD MLOAD DUP2 PUSH1 0x0 ADD SSTORE PUSH1 0x20 DUP3 ADD MLOAD DUP2 PUSH1 0x1 ADD SWAP1 DUP1 MLOAD SWAP1 PUSH1 0x20 ADD SWAP1 PUSH2 0x293F SWAP3 SWAP2 SWAP1 PUSH2 0x29BF JUMP JUMPDEST POP PUSH1 0x40 DUP3 ADD MLOAD DUP2 PUSH1 0x2 ADD SWAP1 DUP1 MLOAD SWAP1 PUSH1 0x20 ADD SWAP1 PUSH2 0x295C SWAP3 SWAP2 SWAP1 PUSH2 0x29BF JUMP JUMPDEST POP PUSH1 0x60 DUP3 ADD MLOAD DUP2 PUSH1 0x3 ADD PUSH1 0x0 PUSH2 0x100 EXP DUP2 SLOAD DUP2 PUSH20 0xFFFFFFFFFFFFFFFFFFFFFFFFFFFFFFFFFFFFFFFF MUL NOT AND SWAP1 DUP4 PUSH20 0xFFFFFFFFFFFFFFFFFFFFFFFFFFFFFFFFFFFFFFFF AND MUL OR SWAP1 SSTORE POP POP POP PUSH1 0x9 PUSH1 0x0 DUP2 SLOAD DUP1 SWAP3 SWAP2 SWAP1 PUSH1 0x1 ADD SWAP2 SWAP1 POP SSTORE POP POP POP POP POP POP JUMP JUMPDEST DUP3 DUP1 SLOAD PUSH1 0x1 DUP2 PUSH1 0x1 AND ISZERO PUSH2 0x100 MUL SUB AND PUSH1 0x2 SWAP1 DIV SWAP1 PUSH1 0x0 MSTORE PUSH1 0x20 PUSH1 0x0 KECCAK256 SWAP1 PUSH1 0x1F ADD PUSH1 0x20 SWAP1 DIV DUP2 ADD SWAP3 DUP3 PUSH1 0x1F LT PUSH2 0x2A00 JUMPI DUP1 MLOAD PUSH1 0xFF NOT AND DUP4 DUP1 ADD OR DUP6 SSTORE PUSH2 0x2A2E JUMP JUMPDEST DUP3 DUP1 ADD PUSH1 0x1 ADD DUP6 SSTORE DUP3 ISZERO PUSH2 0x2A2E JUMPI SWAP2 DUP3 ADD JUMPDEST DUP3 DUP2 GT ISZERO PUSH2 0x2A2D JUMPI DUP3 MLOAD DUP3 SSTORE SWAP2 PUSH1 0x20 ADD SWAP2 SWAP1 PUSH1 0x1 ADD SWAP1 PUSH2 0x2A12 JUMP JUMPDEST JUMPDEST POP SWAP1 POP PUSH2 0x2A3B SWAP2 SWAP1 PUSH2 0x2D1C JUMP JUMPDEST POP SWAP1 JUMP JUMPDEST DUP3 DUP1 SLOAD PUSH1 0x1 DUP2 PUSH1 0x1 AND ISZERO PUSH2 0x100 MUL SUB AND PUSH1 0x2 SWAP1 DIV SWAP1 PUSH1 0x0 MSTORE PUSH1 0x20 PUSH1 0x0 KECCAK256 SWAP1 PUSH1 0x1F ADD PUSH1 0x20 SWAP1 DIV DUP2 ADD SWAP3 DUP3 PUSH1 0x1F LT PUSH2 0x2A78 JUMPI DUP1 SLOAD DUP6 SSTORE PUSH2 0x2AB5 JUMP JUMPDEST DUP3 DUP1 ADD PUSH1 0x1 ADD DUP6 SSTORE DUP3 ISZERO PUSH2 0x2AB5 JUMPI PUSH1 0x0 MSTORE PUSH1 0x20 PUSH1 0x0 KECCAK256 SWAP2 PUSH1 0x1F ADD PUSH1 0x20 SWAP1 DIV DUP3 ADD JUMPDEST DUP3 DUP2 GT ISZERO PUSH2 0x2AB4 JUMPI DUP3 SLOAD DUP3 SSTORE SWAP2 PUSH1 0x1 ADD SWAP2 SWAP1 PUSH1 0x1 ADD SWAP1 PUSH2 0x2A99 JUMP JUMPDEST JUMPDEST POP SWAP1 POP PUSH2 0x2AC2 SWAP2 SWAP1 PUSH2 0x2D1C JUMP JUMPDEST POP SWAP1 JUMP JUMPDEST POP DUP1 SLOAD PUSH1 0x1 DUP2 PUSH1 0x1 AND ISZERO PUSH2 0x100 MUL SUB AND PUSH1 0x2 SWAP1 DIV PUSH1 0x0 DUP3 SSTORE DUP1 PUSH1 0x1F LT PUSH2 0x2AEC JUMPI POP PUSH2 0x2B0B JUMP JUMPDEST PUSH1 0x1F ADD PUSH1 0x20 SWAP1 DIV SWAP1 PUSH1 0x0 MSTORE PUSH1 0x20 PUSH1 0x0 KECCAK256 SWAP1 DUP2 ADD SWAP1 PUSH2 0x2B0A SWAP2 SWAP1 PUSH2 0x2D1C JUMP JUMPDEST JUMPDEST POP JUMP JUMPDEST PUSH1 0x40 MLOAD DUP1 PUSH1 0x40 ADD PUSH1 0x40 MSTORE DUP1 PUSH1 0x0 PUSH20 0xFFFFFFFFFFFFFFFFFFFFFFFFFFFFFFFFFFFFFFFF AND DUP2 MSTORE PUSH1 0x20 ADD PUSH1 0x0 DUP2 MSTORE POP SWAP1 JUMP JUMPDEST PUSH1 0x40 MLOAD DUP1 PUSH1 0x80 ADD PUSH1 0x40 MSTORE DUP1 PUSH1 0x0 DUP2 MSTORE PUSH1 0x20 ADD PUSH1 0x60 DUP2 MSTORE PUSH1 0x20 ADD PUSH1 0x60 DUP2 MSTORE PUSH1 0x20 ADD PUSH1 0x60 DUP2 MSTORE POP SWAP1 JUMP JUMPDEST DUP3 DUP1 SLOAD DUP3 DUP3 SSTORE SWAP1 PUSH1 0x0 MSTORE PUSH1 0x20 PUSH1 0x0 KECCAK256 SWAP1 DUP2 ADD SWAP3 DUP3 ISZERO PUSH2 0x2BB5 JUMPI SWAP2 PUSH1 0x20 MUL DUP3 ADD JUMPDEST DUP3 DUP2 GT ISZERO PUSH2 0x2BB4 JUMPI DUP3 MLOAD DUP3 SWAP1 DUP1 MLOAD SWAP1 PUSH1 0x20 ADD SWAP1 PUSH2 0x2BA4 SWAP3 SWAP2 SWAP1 PUSH2 0x29BF JUMP JUMPDEST POP SWAP2 PUSH1 0x20 ADD SWAP2 SWAP1 PUSH1 0x1 ADD SWAP1 PUSH2 0x2B86 JUMP JUMPDEST JUMPDEST POP SWAP1 POP PUSH2 0x2BC2 SWAP2 SWAP1 PUSH2 0x2D39 JUMP JUMPDEST POP SWAP1 JUMP JUMPDEST DUP3 DUP1 SLOAD PUSH1 0x1 DUP2 PUSH1 0x1 AND ISZERO PUSH2 0x100 MUL SUB AND PUSH1 0x2 SWAP1 DIV SWAP1 PUSH1 0x0 MSTORE PUSH1 0x20 PUSH1 0x0 KECCAK256 SWAP1 PUSH1 0x1F ADD PUSH1 0x20 SWAP1 DIV DUP2 ADD SWAP3 DUP3 PUSH1 0x1F LT PUSH2 0x2BFF JUMPI DUP1 SLOAD DUP6 SSTORE PUSH2 0x2C3C JUMP JUMPDEST DUP3 DUP1 ADD PUSH1 0x1 ADD DUP6 SSTORE DUP3 ISZERO PUSH2 0x2C3C JUMPI PUSH1 0x0 MSTORE PUSH1 0x20 PUSH1 0x0 KECCAK256 SWAP2 PUSH1 0x1F ADD PUSH1 0x20 SWAP1 DIV DUP3 ADD JUMPDEST DUP3 DUP2 GT ISZERO PUSH2 0x2C3B JUMPI DUP3 SLOAD DUP3 SSTORE SWAP2 PUSH1 0x1 ADD SWAP2 SWAP1 PUSH1 0x1 ADD SWAP1 PUSH2 0x2C20 JUMP JUMPDEST JUMPDEST POP SWAP1 POP PUSH2 0x2C49 SWAP2 SWAP1 PUSH2 0x2D1C JUMP JUMPDEST POP SWAP1 JUMP JUMPDEST DUP3 DUP1 SLOAD DUP3 DUP3 SSTORE SWAP1 PUSH1 0x0 MSTORE PUSH1 0x20 PUSH1 0x0 KECCAK256 SWAP1 DUP2 ADD SWAP3 DUP3 ISZERO PUSH2 0x2CAC JUMPI PUSH1 0x0 MSTORE PUSH1 0x20 PUSH1 0x0 KECCAK256 SWAP2 DUP3 ADD JUMPDEST DUP3 DUP2 GT ISZERO PUSH2 0x2CAB JUMPI DUP3 DUP3 SWAP1 DUP1 SLOAD PUSH1 0x1 DUP2 PUSH1 0x1 AND ISZERO PUSH2 0x100 MUL SUB AND PUSH1 0x2 SWAP1 DIV PUSH2 0x2C9B SWAP3 SWAP2 SWAP1 PUSH2 0x2BC6 JUMP JUMPDEST POP SWAP2 PUSH1 0x1 ADD SWAP2 SWAP1 PUSH1 0x1 ADD SWAP1 PUSH2 0x2C72 JUMP JUMPDEST JUMPDEST POP SWAP1 POP PUSH2 0x2CB9 SWAP2 SWAP1 PUSH2 0x2D39 JUMP JUMPDEST POP SWAP1 JUMP JUMPDEST POP DUP1 SLOAD PUSH1 0x0 DUP3 SSTORE SWAP1 PUSH1 0x0 MSTORE PUSH1 0x20 PUSH1 0x0 KECCAK256 SWAP1 DUP2 ADD SWAP1 PUSH2 0x2CDB SWAP2 SWAP1 PUSH2 0x2D39 JUMP JUMPDEST POP JUMP JUMPDEST PUSH1 0x40 MLOAD DUP1 PUSH1 0x80 ADD PUSH1 0x40 MSTORE DUP1 PUSH1 0x0 DUP2 MSTORE PUSH1 0x20 ADD PUSH1 0x60 DUP2 MSTORE PUSH1 0x20 ADD PUSH1 0x60 DUP2 MSTORE PUSH1 0x20 ADD PUSH1 0x0 PUSH20 0xFFFFFFFFFFFFFFFFFFFFFFFFFFFFFFFFFFFFFFFF AND DUP2 MSTORE POP SWAP1 JUMP JUMPDEST JUMPDEST DUP1 DUP3 GT ISZERO PUSH2 0x2D35 JUMPI PUSH1 0x0 DUP2 PUSH1 0x0 SWAP1 SSTORE POP PUSH1 0x1 ADD PUSH2 0x2D1D JUMP JUMPDEST POP SWAP1 JUMP JUMPDEST JUMPDEST DUP1 DUP3 GT ISZERO PUSH2 0x2D59 JUMPI PUSH1 0x0 DUP2 DUP2 PUSH2 0x2D50 SWAP2 SWAP1 PUSH2 0x2AC6 JUMP JUMPDEST POP PUSH1 0x1 ADD PUSH2 0x2D3A JUMP JUMPDEST POP SWAP1 JUMP JUMPDEST PUSH1 0x0 DUP2 CALLDATALOAD SWAP1 POP PUSH2 0x2D6C DUP2 PUSH2 0x3868 JUMP JUMPDEST SWAP3 SWAP2 POP POP JUMP JUMPDEST PUSH1 0x0 DUP2 CALLDATALOAD SWAP1 POP PUSH2 0x2D81 DUP2 PUSH2 0x387F JUMP JUMPDEST SWAP3 SWAP2 POP POP JUMP JUMPDEST PUSH1 0x0 DUP2 CALLDATALOAD SWAP1 POP PUSH2 0x2D96 DUP2 PUSH2 0x3896 JUMP JUMPDEST SWAP3 SWAP2 POP POP JUMP JUMPDEST PUSH1 0x0 DUP3 PUSH1 0x1F DUP4 ADD SLT PUSH2 0x2DAD JUMPI PUSH1 0x0 DUP1 REVERT JUMPDEST DUP2 CALLDATALOAD PUSH2 0x2DC0 PUSH2 0x2DBB DUP3 PUSH2 0x3652 JUMP JUMPDEST PUSH2 0x3625 JUMP JUMPDEST SWAP2 POP DUP1 DUP3 MSTORE PUSH1 0x20 DUP4 ADD PUSH1 0x20 DUP4 ADD DUP6 DUP4 DUP4 ADD GT ISZERO PUSH2 0x2DDC JUMPI PUSH1 0x0 DUP1 REVERT JUMPDEST PUSH2 0x2DE7 DUP4 DUP3 DUP5 PUSH2 0x37DA JUMP JUMPDEST POP POP POP SWAP3 SWAP2 POP POP JUMP JUMPDEST PUSH1 0x0 DUP2 CALLDATALOAD SWAP1 POP PUSH2 0x2DFF DUP2 PUSH2 0x38AD JUMP JUMPDEST SWAP3 SWAP2 POP POP JUMP JUMPDEST PUSH1 0x0 PUSH1 0x20 DUP3 DUP5 SUB SLT ISZERO PUSH2 0x2E17 JUMPI PUSH1 0x0 DUP1 REVERT JUMPDEST PUSH1 0x0 PUSH2 0x2E25 DUP5 DUP3 DUP6 ADD PUSH2 0x2D5D JUMP JUMPDEST SWAP2 POP POP SWAP3 SWAP2 POP POP JUMP JUMPDEST PUSH1 0x0 PUSH1 0x20 DUP3 DUP5 SUB SLT ISZERO PUSH2 0x2E40 JUMPI PUSH1 0x0 DUP1 REVERT JUMPDEST PUSH1 0x0 PUSH2 0x2E4E DUP5 DUP3 DUP6 ADD PUSH2 0x2D72 JUMP JUMPDEST SWAP2 POP POP SWAP3 SWAP2 POP POP JUMP JUMPDEST PUSH1 0x0 DUP1 PUSH1 0x0 PUSH1 0x60 DUP5 DUP7 SUB SLT ISZERO PUSH2 0x2E6C JUMPI PUSH1 0x0 DUP1 REVERT JUMPDEST PUSH1 0x0 PUSH2 0x2E7A DUP7 DUP3 DUP8 ADD PUSH2 0x2D87 JUMP JUMPDEST SWAP4 POP POP PUSH1 0x20 PUSH2 0x2E8B DUP7 DUP3 DUP8 ADD PUSH2 0x2DF0 JUMP JUMPDEST SWAP3 POP POP PUSH1 0x40 DUP5 ADD CALLDATALOAD PUSH8 0xFFFFFFFFFFFFFFFF DUP2 GT ISZERO PUSH2 0x2EA8 JUMPI PUSH1 0x0 DUP1 REVERT JUMPDEST PUSH2 0x2EB4 DUP7 DUP3 DUP8 ADD PUSH2 0x2D9C JUMP JUMPDEST SWAP2 POP POP SWAP3 POP SWAP3 POP SWAP3 JUMP JUMPDEST PUSH1 0x0 DUP1 PUSH1 0x0 DUP1 PUSH1 0x80 DUP6 DUP8 SUB SLT ISZERO PUSH2 0x2ED4 JUMPI PUSH1 0x0 DUP1 REVERT JUMPDEST PUSH1 0x0 PUSH2 0x2EE2 DUP8 DUP3 DUP9 ADD PUSH2 0x2D87 JUMP JUMPDEST SWAP5 POP POP PUSH1 0x20 PUSH2 0x2EF3 DUP8 DUP3 DUP9 ADD PUSH2 0x2DF0 JUMP JUMPDEST SWAP4 POP POP PUSH1 0x40 DUP6 ADD CALLDATALOAD PUSH8 0xFFFFFFFFFFFFFFFF DUP2 GT ISZERO PUSH2 0x2F10 JUMPI PUSH1 0x0 DUP1 REVERT JUMPDEST PUSH2 0x2F1C DUP8 DUP3 DUP9 ADD PUSH2 0x2D9C JUMP JUMPDEST SWAP3 POP POP PUSH1 0x60 DUP6 ADD CALLDATALOAD PUSH8 0xFFFFFFFFFFFFFFFF DUP2 GT ISZERO PUSH2 0x2F39 JUMPI PUSH1 0x0 DUP1 REVERT JUMPDEST PUSH2 0x2F45 DUP8 DUP3 DUP9 ADD PUSH2 0x2D9C JUMP JUMPDEST SWAP2 POP POP SWAP3 SWAP6 SWAP2 SWAP5 POP SWAP3 POP JUMP JUMPDEST PUSH1 0x0 DUP1 PUSH1 0x40 DUP4 DUP6 SUB SLT ISZERO PUSH2 0x2F64 JUMPI PUSH1 0x0 DUP1 REVERT JUMPDEST PUSH1 0x0 DUP4 ADD CALLDATALOAD PUSH8 0xFFFFFFFFFFFFFFFF DUP2 GT ISZERO PUSH2 0x2F7E JUMPI PUSH1 0x0 DUP1 REVERT JUMPDEST PUSH2 0x2F8A DUP6 DUP3 DUP7 ADD PUSH2 0x2D9C JUMP JUMPDEST SWAP3 POP POP PUSH1 0x20 DUP4 ADD CALLDATALOAD PUSH8 0xFFFFFFFFFFFFFFFF DUP2 GT ISZERO PUSH2 0x2FA7 JUMPI PUSH1 0x0 DUP1 REVERT JUMPDEST PUSH2 0x2FB3 DUP6 DUP3 DUP7 ADD PUSH2 0x2D9C JUMP JUMPDEST SWAP2 POP POP SWAP3 POP SWAP3 SWAP1 POP JUMP JUMPDEST PUSH1 0x0 PUSH1 0x20 DUP3 DUP5 SUB SLT ISZERO PUSH2 0x2FCF JUMPI PUSH1 0x0 DUP1 REVERT JUMPDEST PUSH1 0x0 PUSH2 0x2FDD DUP5 DUP3 DUP6 ADD PUSH2 0x2DF0 JUMP JUMPDEST SWAP2 POP POP SWAP3 SWAP2 POP POP JUMP JUMPDEST PUSH1 0x0 DUP1 PUSH1 0x40 DUP4 DUP6 SUB SLT ISZERO PUSH2 0x2FF9 JUMPI PUSH1 0x0 DUP1 REVERT JUMPDEST PUSH1 0x0 PUSH2 0x3007 DUP6 DUP3 DUP7 ADD PUSH2 0x2DF0 JUMP JUMPDEST SWAP3 POP POP PUSH1 0x20 DUP4 ADD CALLDATALOAD PUSH8 0xFFFFFFFFFFFFFFFF DUP2 GT ISZERO PUSH2 0x3024 JUMPI PUSH1 0x0 DUP1 REVERT JUMPDEST PUSH2 0x3030 DUP6 DUP3 DUP7 ADD PUSH2 0x2D9C JUMP JUMPDEST SWAP2 POP POP SWAP3 POP SWAP3 SWAP1 POP JUMP JUMPDEST PUSH1 0x0 DUP1 PUSH1 0x0 PUSH1 0x60 DUP5 DUP7 SUB SLT ISZERO PUSH2 0x304F JUMPI PUSH1 0x0 DUP1 REVERT JUMPDEST PUSH1 0x0 PUSH2 0x305D DUP7 DUP3 DUP8 ADD PUSH2 0x2DF0 JUMP JUMPDEST SWAP4 POP POP PUSH1 0x20 DUP5 ADD CALLDATALOAD PUSH8 0xFFFFFFFFFFFFFFFF DUP2 GT ISZERO PUSH2 0x307A JUMPI PUSH1 0x0 DUP1 REVERT JUMPDEST PUSH2 0x3086 DUP7 DUP3 DUP8 ADD PUSH2 0x2D9C JUMP JUMPDEST SWAP3 POP POP PUSH1 0x40 DUP5 ADD CALLDATALOAD PUSH8 0xFFFFFFFFFFFFFFFF DUP2 GT ISZERO PUSH2 0x30A3 JUMPI PUSH1 0x0 DUP1 REVERT JUMPDEST PUSH2 0x30AF DUP7 DUP3 DUP8 ADD PUSH2 0x2D9C JUMP JUMPDEST SWAP2 POP POP SWAP3 POP SWAP3 POP SWAP3 JUMP JUMPDEST PUSH1 0x0 PUSH2 0x30C5 DUP4 DUP4 PUSH2 0x3123 JUMP JUMPDEST PUSH1 0x20 DUP4 ADD SWAP1 POP SWAP3 SWAP2 POP POP JUMP JUMPDEST PUSH1 0x0 PUSH2 0x30DD DUP4 DUP4 PUSH2 0x3281 JUMP JUMPDEST SWAP1 POP SWAP3 SWAP2 POP POP JUMP JUMPDEST PUSH1 0x0 PUSH2 0x30F1 DUP4 DUP4 PUSH2 0x33F9 JUMP JUMPDEST PUSH1 0x20 DUP4 ADD SWAP1 POP SWAP3 SWAP2 POP POP JUMP JUMPDEST PUSH2 0x3106 DUP2 PUSH2 0x3788 JUMP JUMPDEST DUP3 MSTORE POP POP JUMP JUMPDEST PUSH2 0x311D PUSH2 0x3118 DUP3 PUSH2 0x3788 JUMP JUMPDEST PUSH2 0x381C JUMP JUMPDEST DUP3 MSTORE POP POP JUMP JUMPDEST PUSH2 0x312C DUP2 PUSH2 0x3776 JUMP JUMPDEST DUP3 MSTORE POP POP JUMP JUMPDEST PUSH1 0x0 PUSH2 0x313D DUP3 PUSH2 0x36C3 JUMP JUMPDEST PUSH2 0x3147 DUP2 DUP6 PUSH2 0x3716 JUMP JUMPDEST SWAP4 POP PUSH2 0x3152 DUP4 PUSH2 0x367E JUMP JUMPDEST DUP1 PUSH1 0x0 JUMPDEST DUP4 DUP2 LT ISZERO PUSH2 0x3183 JUMPI DUP2 MLOAD PUSH2 0x316A DUP9 DUP3 PUSH2 0x30B9 JUMP JUMPDEST SWAP8 POP PUSH2 0x3175 DUP4 PUSH2 0x36EF JUMP JUMPDEST SWAP3 POP POP PUSH1 0x1 DUP2 ADD SWAP1 POP PUSH2 0x3156 JUMP JUMPDEST POP DUP6 SWAP4 POP POP POP POP SWAP3 SWAP2 POP POP JUMP JUMPDEST PUSH1 0x0 PUSH2 0x319B DUP3 PUSH2 0x36CE JUMP JUMPDEST PUSH2 0x31A5 DUP2 DUP6 PUSH2 0x3727 JUMP JUMPDEST SWAP4 POP DUP4 PUSH1 0x20 DUP3 MUL DUP6 ADD PUSH2 0x31B7 DUP6 PUSH2 0x368E JUMP JUMPDEST DUP1 PUSH1 0x0 JUMPDEST DUP6 DUP2 LT ISZERO PUSH2 0x31F3 JUMPI DUP5 DUP5 SUB DUP10 MSTORE DUP2 MLOAD PUSH2 0x31D4 DUP6 DUP3 PUSH2 0x30D1 JUMP JUMPDEST SWAP5 POP PUSH2 0x31DF DUP4 PUSH2 0x36FC JUMP JUMPDEST SWAP3 POP PUSH1 0x20 DUP11 ADD SWAP10 POP POP PUSH1 0x1 DUP2 ADD SWAP1 POP PUSH2 0x31BB JUMP JUMPDEST POP DUP3 SWAP8 POP DUP8 SWAP6 POP POP POP POP POP POP SWAP3 SWAP2 POP POP JUMP JUMPDEST PUSH1 0x0 PUSH2 0x3210 DUP3 PUSH2 0x36D9 JUMP JUMPDEST PUSH2 0x321A DUP2 DUP6 PUSH2 0x3738 JUMP JUMPDEST SWAP4 POP PUSH2 0x3225 DUP4 PUSH2 0x369E JUMP JUMPDEST DUP1 PUSH1 0x0 JUMPDEST DUP4 DUP2 LT ISZERO PUSH2 0x3256 JUMPI DUP2 MLOAD PUSH2 0x323D DUP9 DUP3 PUSH2 0x30E5 JUMP JUMPDEST SWAP8 POP PUSH2 0x3248 DUP4 PUSH2 0x3709 JUMP JUMPDEST SWAP3 POP POP PUSH1 0x1 DUP2 ADD SWAP1 POP PUSH2 0x3229 JUMP JUMPDEST POP DUP6 SWAP4 POP POP POP POP SWAP3 SWAP2 POP POP JUMP JUMPDEST PUSH2 0x326C DUP2 PUSH2 0x379A JUMP JUMPDEST DUP3 MSTORE POP POP JUMP JUMPDEST PUSH2 0x327B DUP2 PUSH2 0x37A6 JUMP JUMPDEST DUP3 MSTORE POP POP JUMP JUMPDEST PUSH1 0x0 PUSH2 0x328C DUP3 PUSH2 0x36E4 JUMP JUMPDEST PUSH2 0x3296 DUP2 DUP6 PUSH2 0x3749 JUMP JUMPDEST SWAP4 POP PUSH2 0x32A6 DUP2 DUP6 PUSH1 0x20 DUP7 ADD PUSH2 0x37E9 JUMP JUMPDEST PUSH2 0x32AF DUP2 PUSH2 0x384A JUMP JUMPDEST DUP5 ADD SWAP2 POP POP SWAP3 SWAP2 POP POP JUMP JUMPDEST PUSH1 0x0 PUSH2 0x32C5 DUP3 PUSH2 0x36E4 JUMP JUMPDEST PUSH2 0x32CF DUP2 DUP6 PUSH2 0x376B JUMP JUMPDEST SWAP4 POP PUSH2 0x32DF DUP2 DUP6 PUSH1 0x20 DUP7 ADD PUSH2 0x37E9 JUMP JUMPDEST DUP1 DUP5 ADD SWAP2 POP POP SWAP3 SWAP2 POP POP JUMP JUMPDEST PUSH1 0x0 DUP2 SLOAD PUSH1 0x1 DUP2 AND PUSH1 0x0 DUP2 EQ PUSH2 0x3308 JUMPI PUSH1 0x1 DUP2 EQ PUSH2 0x332D JUMPI PUSH2 0x3371 JUMP JUMPDEST PUSH1 0x7F PUSH1 0x2 DUP4 DIV AND PUSH2 0x3319 DUP2 DUP8 PUSH2 0x376B JUMP JUMPDEST SWAP6 POP PUSH1 0xFF NOT DUP4 AND DUP7 MSTORE DUP1 DUP7 ADD SWAP4 POP POP PUSH2 0x3371 JUMP JUMPDEST PUSH1 0x2 DUP3 DIV PUSH2 0x333B DUP2 DUP8 PUSH2 0x376B JUMP JUMPDEST SWAP6 POP PUSH2 0x3346 DUP6 PUSH2 0x36AE JUMP JUMPDEST PUSH1 0x0 JUMPDEST DUP3 DUP2 LT ISZERO PUSH2 0x3368 JUMPI DUP2 SLOAD DUP2 DUP10 ADD MSTORE PUSH1 0x1 DUP3 ADD SWAP2 POP PUSH1 0x20 DUP2 ADD SWAP1 POP PUSH2 0x3349 JUMP JUMPDEST DUP3 DUP9 ADD SWAP6 POP POP POP POP JUMPDEST POP POP SWAP3 SWAP2 POP POP JUMP JUMPDEST PUSH1 0x0 PUSH2 0x3386 PUSH1 0xC DUP4 PUSH2 0x375A JUMP JUMPDEST SWAP2 POP PUSH32 0x746F6B656E206469756261680000000000000000000000000000000000000000 PUSH1 0x0 DUP4 ADD MSTORE PUSH1 0x20 DUP3 ADD SWAP1 POP SWAP2 SWAP1 POP JUMP JUMPDEST PUSH1 0x0 PUSH2 0x33C6 PUSH1 0x12 DUP4 PUSH2 0x375A JUMP JUMPDEST SWAP2 POP PUSH32 0x746F6B656E20746964616B206469756261680000000000000000000000000000 PUSH1 0x0 DUP4 ADD MSTORE PUSH1 0x20 DUP3 ADD SWAP1 POP SWAP2 SWAP1 POP JUMP JUMPDEST PUSH2 0x3402 DUP2 PUSH2 0x37D0 JUMP JUMPDEST DUP3 MSTORE POP POP JUMP JUMPDEST PUSH2 0x3411 DUP2 PUSH2 0x37D0 JUMP JUMPDEST DUP3 MSTORE POP POP JUMP JUMPDEST PUSH2 0x3428 PUSH2 0x3423 DUP3 PUSH2 0x37D0 JUMP JUMPDEST PUSH2 0x3840 JUMP JUMPDEST DUP3 MSTORE POP POP JUMP JUMPDEST PUSH1 0x0 PUSH2 0x343A DUP3 DUP6 PUSH2 0x310C JUMP JUMPDEST PUSH1 0x14 DUP3 ADD SWAP2 POP PUSH2 0x344A DUP3 DUP5 PUSH2 0x3417 JUMP JUMPDEST PUSH1 0x20 DUP3 ADD SWAP2 POP DUP2 SWAP1 POP SWAP4 SWAP3 POP POP POP JUMP JUMPDEST PUSH1 0x0 PUSH2 0x3466 DUP3 DUP5 PUSH2 0x32BA JUMP JUMPDEST SWAP2 POP DUP2 SWAP1 POP SWAP3 SWAP2 POP POP JUMP JUMPDEST PUSH1 0x0 PUSH2 0x347D DUP3 DUP5 PUSH2 0x32EB JUMP JUMPDEST SWAP2 POP DUP2 SWAP1 POP SWAP3 SWAP2 POP POP JUMP JUMPDEST PUSH1 0x0 PUSH1 0x20 DUP3 ADD SWAP1 POP PUSH2 0x349D PUSH1 0x0 DUP4 ADD DUP5 PUSH2 0x30FD JUMP JUMPDEST SWAP3 SWAP2 POP POP JUMP JUMPDEST PUSH1 0x0 PUSH1 0x20 DUP3 ADD SWAP1 POP DUP2 DUP2 SUB PUSH1 0x0 DUP4 ADD MSTORE PUSH2 0x34BD DUP2 DUP5 PUSH2 0x3132 JUMP JUMPDEST SWAP1 POP SWAP3 SWAP2 POP POP JUMP JUMPDEST PUSH1 0x0 PUSH1 0x20 DUP3 ADD SWAP1 POP DUP2 DUP2 SUB PUSH1 0x0 DUP4 ADD MSTORE PUSH2 0x34DF DUP2 DUP5 PUSH2 0x3190 JUMP JUMPDEST SWAP1 POP SWAP3 SWAP2 POP POP JUMP JUMPDEST PUSH1 0x0 PUSH1 0x60 DUP3 ADD SWAP1 POP DUP2 DUP2 SUB PUSH1 0x0 DUP4 ADD MSTORE PUSH2 0x3501 DUP2 DUP7 PUSH2 0x3205 JUMP JUMPDEST SWAP1 POP DUP2 DUP2 SUB PUSH1 0x20 DUP4 ADD MSTORE PUSH2 0x3515 DUP2 DUP6 PUSH2 0x3190 JUMP JUMPDEST SWAP1 POP DUP2 DUP2 SUB PUSH1 0x40 DUP4 ADD MSTORE PUSH2 0x3529 DUP2 DUP5 PUSH2 0x3190 JUMP JUMPDEST SWAP1 POP SWAP5 SWAP4 POP POP POP POP JUMP JUMPDEST PUSH1 0x0 PUSH1 0x80 DUP3 ADD SWAP1 POP DUP2 DUP2 SUB PUSH1 0x0 DUP4 ADD MSTORE PUSH2 0x354D DUP2 DUP8 PUSH2 0x3205 JUMP JUMPDEST SWAP1 POP DUP2 DUP2 SUB PUSH1 0x20 DUP4 ADD MSTORE PUSH2 0x3561 DUP2 DUP7 PUSH2 0x3190 JUMP JUMPDEST SWAP1 POP DUP2 DUP2 SUB PUSH1 0x40 DUP4 ADD MSTORE PUSH2 0x3575 DUP2 DUP6 PUSH2 0x3190 JUMP JUMPDEST SWAP1 POP DUP2 DUP2 SUB PUSH1 0x60 DUP4 ADD MSTORE PUSH2 0x3589 DUP2 DUP5 PUSH2 0x3132 JUMP JUMPDEST SWAP1 POP SWAP6 SWAP5 POP POP POP POP POP JUMP JUMPDEST PUSH1 0x0 PUSH1 0x20 DUP3 ADD SWAP1 POP PUSH2 0x35A9 PUSH1 0x0 DUP4 ADD DUP5 PUSH2 0x3263 JUMP JUMPDEST SWAP3 SWAP2 POP POP JUMP JUMPDEST PUSH1 0x0 PUSH1 0x20 DUP3 ADD SWAP1 POP PUSH2 0x35C4 PUSH1 0x0 DUP4 ADD DUP5 PUSH2 0x3272 JUMP JUMPDEST SWAP3 SWAP2 POP POP JUMP JUMPDEST PUSH1 0x0 PUSH1 0x20 DUP3 ADD SWAP1 POP DUP2 DUP2 SUB PUSH1 0x0 DUP4 ADD MSTORE PUSH2 0x35E3 DUP2 PUSH2 0x3379 JUMP JUMPDEST SWAP1 POP SWAP2 SWAP1 POP JUMP JUMPDEST PUSH1 0x0 PUSH1 0x20 DUP3 ADD SWAP1 POP DUP2 DUP2 SUB PUSH1 0x0 DUP4 ADD MSTORE PUSH2 0x3603 DUP2 PUSH2 0x33B9 JUMP JUMPDEST SWAP1 POP SWAP2 SWAP1 POP JUMP JUMPDEST PUSH1 0x0 PUSH1 0x20 DUP3 ADD SWAP1 POP PUSH2 0x361F PUSH1 0x0 DUP4 ADD DUP5 PUSH2 0x3408 JUMP JUMPDEST SWAP3 SWAP2 POP POP JUMP JUMPDEST PUSH1 0x0 PUSH1 0x40 MLOAD SWAP1 POP DUP2 DUP2 ADD DUP2 DUP2 LT PUSH8 0xFFFFFFFFFFFFFFFF DUP3 GT OR ISZERO PUSH2 0x3648 JUMPI PUSH1 0x0 DUP1 REVERT JUMPDEST DUP1 PUSH1 0x40 MSTORE POP SWAP2 SWAP1 POP JUMP JUMPDEST PUSH1 0x0 PUSH8 0xFFFFFFFFFFFFFFFF DUP3 GT ISZERO PUSH2 0x3669 JUMPI PUSH1 0x0 DUP1 REVERT JUMPDEST PUSH1 0x1F NOT PUSH1 0x1F DUP4 ADD AND SWAP1 POP PUSH1 0x20 DUP2 ADD SWAP1 POP SWAP2 SWAP1 POP JUMP JUMPDEST PUSH1 0x0 DUP2 SWAP1 POP PUSH1 0x20 DUP3 ADD SWAP1 POP SWAP2 SWAP1 POP JUMP JUMPDEST PUSH1 0x0 DUP2 SWAP1 POP PUSH1 0x20 DUP3 ADD SWAP1 POP SWAP2 SWAP1 POP JUMP JUMPDEST PUSH1 0x0 DUP2 SWAP1 POP PUSH1 0x20 DUP3 ADD SWAP1 POP SWAP2 SWAP1 POP JUMP JUMPDEST PUSH1 0x0 DUP2 SWAP1 POP DUP2 PUSH1 0x0 MSTORE PUSH1 0x20 PUSH1 0x0 KECCAK256 SWAP1 POP SWAP2 SWAP1 POP JUMP JUMPDEST PUSH1 0x0 DUP2 MLOAD SWAP1 POP SWAP2 SWAP1 POP JUMP JUMPDEST PUSH1 0x0 DUP2 MLOAD SWAP1 POP SWAP2 SWAP1 POP JUMP JUMPDEST PUSH1 0x0 DUP2 MLOAD SWAP1 POP SWAP2 SWAP1 POP JUMP JUMPDEST PUSH1 0x0 DUP2 MLOAD SWAP1 POP SWAP2 SWAP1 POP JUMP JUMPDEST PUSH1 0x0 PUSH1 0x20 DUP3 ADD SWAP1 POP SWAP2 SWAP1 POP JUMP JUMPDEST PUSH1 0x0 PUSH1 0x20 DUP3 ADD SWAP1 POP SWAP2 SWAP1 POP JUMP JUMPDEST PUSH1 0x0 PUSH1 0x20 DUP3 ADD SWAP1 POP SWAP2 SWAP1 POP JUMP JUMPDEST PUSH1 0x0 DUP3 DUP3 MSTORE PUSH1 0x20 DUP3 ADD SWAP1 POP SWAP3 SWAP2 POP POP JUMP JUMPDEST PUSH1 0x0 DUP3 DUP3 MSTORE PUSH1 0x20 DUP3 ADD SWAP1 POP SWAP3 SWAP2 POP POP JUMP JUMPDEST PUSH1 0x0 DUP3 DUP3 MSTORE PUSH1 0x20 DUP3 ADD SWAP1 POP SWAP3 SWAP2 POP POP JUMP JUMPDEST PUSH1 0x0 DUP3 DUP3 MSTORE PUSH1 0x20 DUP3 ADD SWAP1 POP SWAP3 SWAP2 POP POP JUMP JUMPDEST PUSH1 0x0 DUP3 DUP3 MSTORE PUSH1 0x20 DUP3 ADD SWAP1 POP SWAP3 SWAP2 POP POP JUMP JUMPDEST PUSH1 0x0 DUP2 SWAP1 POP SWAP3 SWAP2 POP POP JUMP JUMPDEST PUSH1 0x0 PUSH2 0x3781 DUP3 PUSH2 0x37B0 JUMP JUMPDEST SWAP1 POP SWAP2 SWAP1 POP JUMP JUMPDEST PUSH1 0x0 PUSH2 0x3793 DUP3 PUSH2 0x37B0 JUMP JUMPDEST SWAP1 POP SWAP2 SWAP1 POP JUMP JUMPDEST PUSH1 0x0 DUP2 ISZERO ISZERO SWAP1 POP SWAP2 SWAP1 POP JUMP JUMPDEST PUSH1 0x0 DUP2 SWAP1 POP SWAP2 SWAP1 POP JUMP JUMPDEST PUSH1 0x0 PUSH20 0xFFFFFFFFFFFFFFFFFFFFFFFFFFFFFFFFFFFFFFFF DUP3 AND SWAP1 POP SWAP2 SWAP1 POP JUMP JUMPDEST PUSH1 0x0 DUP2 SWAP1 POP SWAP2 SWAP1 POP JUMP JUMPDEST DUP3 DUP2 DUP4 CALLDATACOPY PUSH1 0x0 DUP4 DUP4 ADD MSTORE POP POP POP JUMP JUMPDEST PUSH1 0x0 JUMPDEST DUP4 DUP2 LT ISZERO PUSH2 0x3807 JUMPI DUP1 DUP3 ADD MLOAD DUP2 DUP5 ADD MSTORE PUSH1 0x20 DUP2 ADD SWAP1 POP PUSH2 0x37EC JUMP JUMPDEST DUP4 DUP2 GT ISZERO PUSH2 0x3816 JUMPI PUSH1 0x0 DUP5 DUP5 ADD MSTORE JUMPDEST POP POP POP POP JUMP JUMPDEST PUSH1 0x0 PUSH2 0x3827 DUP3 PUSH2 0x382E JUMP JUMPDEST SWAP1 POP SWAP2 SWAP1 POP JUMP JUMPDEST PUSH1 0x0 PUSH2 0x3839 DUP3 PUSH2 0x385B JUMP JUMPDEST SWAP1 POP SWAP2 SWAP1 POP JUMP JUMPDEST PUSH1 0x0 DUP2 SWAP1 POP SWAP2 SWAP1 POP JUMP JUMPDEST PUSH1 0x0 PUSH1 0x1F NOT PUSH1 0x1F DUP4 ADD AND SWAP1 POP SWAP2 SWAP1 POP JUMP JUMPDEST PUSH1 0x0 DUP2 PUSH1 0x60 SHL SWAP1 POP SWAP2 SWAP1 POP JUMP JUMPDEST PUSH2 0x3871 DUP2 PUSH2 0x3776 JUMP JUMPDEST DUP2 EQ PUSH2 0x387C JUMPI PUSH1 0x0 DUP1 REVERT JUMPDEST POP JUMP JUMPDEST PUSH2 0x3888 DUP2 PUSH2 0x3788 JUMP JUMPDEST DUP2 EQ PUSH2 0x3893 JUMPI PUSH1 0x0 DUP1 REVERT JUMPDEST POP JUMP JUMPDEST PUSH2 0x389F DUP2 PUSH2 0x37A6 JUMP JUMPDEST DUP2 EQ PUSH2 0x38AA JUMPI PUSH1 0x0 DUP1 REVERT JUMPDEST POP JUMP JUMPDEST PUSH2 0x38B6 DUP2 PUSH2 0x37D0 JUMP JUMPDEST DUP2 EQ PUSH2 0x38C1 JUMPI PUSH1 0x0 DUP1 REVERT JUMPDEST POP JUMP INVALID LOG2 PUSH5 0x6970667358 0x22 SLT KECCAK256 CALL 0xC9 0x5D PUSH20 0x7015B63BF4EAB8E33FC4EBB827728F2F315A52BD 0xE8 0x4D 0x48 PUSH14 0x1FA559FF64736F6C634300060C00 CALLER "
    },
    "gasEstimates": {
      "creation": {
        "codeDepositCost": "2917200",
        "executionCost": "44115",
        "totalCost": "2961315"
      },
      "external": {
        "addBroker(address)": "infinite",
        "addClient(string,string)": "infinite",
        "addTopic(uint256,string)": "infinite",
        "authenticate(bytes32,uint256,string,string)": "infinite",
        "authorize(bytes32,uint256,string)": "infinite",
        "deleteBroker(address)": "infinite",
        "deleteClient(uint256)": "infinite",
        "deleteTopic(uint256,string)": "infinite",
        "getBroker()": "infinite",
        "getBrokerToken(address)": "2435",
        "getBrokersCount()": "2030",
        "getClients()": "infinite",
        "getClientsCount()": "2075",
        "getLog()": "infinite",
        "getTopic(uint256)": "infinite",
        "manager()": "1278",
        "refreshToken()": "infinite",
        "updateTopic(uint256,string,string)": "infinite"
      },
      "internal": {
        "makeLog(uint256,string memory,string memory,address)": "infinite"
      }
    },
    "methodIdentifiers": {
      "addBroker(address)": "836cae65",
      "addClient(string,string)": "98173ff4",
      "addTopic(uint256,string)": "3276807a",
      "authenticate(bytes32,uint256,string,string)": "e58da61f",
      "authorize(bytes32,uint256,string)": "7909ce47",
      "deleteBroker(address)": "1ee32b05",
      "deleteClient(uint256)": "a9cb1a36",
      "deleteTopic(uint256,string)": "42bb20e1",
      "getBroker()": "d1314ee0",
      "getBrokerToken(address)": "0344248b",
      "getBrokersCount()": "416a5d81",
      "getClients()": "6db80995",
      "getClientsCount()": "30a66294",
      "getLog()": "909e4ab6",
      "getTopic(uint256)": "71658896",
      "manager()": "481c6a75",
      "refreshToken()": "fa6a04e4",
      "updateTopic(uint256,string,string)": "e8e5339a"
    }
  },
  "storageLayout": {
    "storage": [
      {
        "astId": 4,
        "contract": "Mqttbaru.sol:Mqttbaru",
        "label": "manager",
        "offset": 0,
        "slot": "0",
        "type": "t_address_payable"
      },
      {
        "astId": 31,
        "contract": "Mqttbaru.sol:Mqttbaru",
        "label": "clientLedger",
        "offset": 0,
        "slot": "1",
        "type": "t_array(t_struct(Client)14_storage)dyn_storage"
      },
      {
        "astId": 34,
        "contract": "Mqttbaru.sol:Mqttbaru",
        "label": "brokerAddress",
        "offset": 0,
        "slot": "2",
        "type": "t_array(t_struct(Broker)19_storage)dyn_storage"
      },
      {
        "astId": 37,
        "contract": "Mqttbaru.sol:Mqttbaru",
        "label": "logLedger",
        "offset": 0,
        "slot": "3",
        "type": "t_array(t_struct(LogSend)28_storage)dyn_storage"
      },
      {
        "astId": 41,
        "contract": "Mqttbaru.sol:Mqttbaru",
        "label": "brokerValidity",
        "offset": 0,
        "slot": "4",
        "type": "t_mapping(t_address,t_bool)"
      },
      {
        "astId": 45,
        "contract": "Mqttbaru.sol:Mqttbaru",
        "label": "tokenSlots",
        "offset": 0,
        "slot": "5",
        "type": "t_mapping(t_address,t_bytes32)"
      },
      {
        "astId": 47,
        "contract": "Mqttbaru.sol:Mqttbaru",
        "label": "clientCount",
        "offset": 0,
        "slot": "6",
        "type": "t_uint256"
      },
      {
        "astId": 49,
        "contract": "Mqttbaru.sol:Mqttbaru",
        "label": "brokerCount",
        "offset": 0,
        "slot": "7",
        "type": "t_uint256"
      },
      {
        "astId": 51,
        "contract": "Mqttbaru.sol:Mqttbaru",
        "label": "idCount",
        "offset": 0,
        "slot": "8",
        "type": "t_uint256"
      },
      {
        "astId": 53,
        "contract": "Mqttbaru.sol:Mqttbaru",
        "label": "logCount",
        "offset": 0,
        "slot": "9",
        "type": "t_uint256"
      }
    ],
    "types": {
      "t_address": {
        "encoding": "inplace",
        "label": "address",
        "numberOfBytes": "20"
      },
      "t_address_payable": {
        "encoding": "inplace",
        "label": "address payable",
        "numberOfBytes": "20"
      },
      "t_array(t_string_storage)dyn_storage": {
        "base": "t_string_storage",
        "encoding": "dynamic_array",
        "label": "string[]",
        "numberOfBytes": "32"
      },
      "t_array(t_struct(Broker)19_storage)dyn_storage": {
        "base": "t_struct(Broker)19_storage",
        "encoding": "dynamic_array",
        "label": "struct Mqttbaru.Broker[]",
        "numberOfBytes": "32"
      },
      "t_array(t_struct(Client)14_storage)dyn_storage": {
        "base": "t_struct(Client)14_storage",
        "encoding": "dynamic_array",
        "label": "struct Mqttbaru.Client[]",
        "numberOfBytes": "32"
      },
      "t_array(t_struct(LogSend)28_storage)dyn_storage": {
        "base": "t_struct(LogSend)28_storage",
        "encoding": "dynamic_array",
        "label": "struct Mqttbaru.LogSend[]",
        "numberOfBytes": "32"
      },
      "t_bool": {
        "encoding": "inplace",
        "label": "bool",
        "numberOfBytes": "1"
      },
      "t_bytes32": {
        "encoding": "inplace",
        "label": "bytes32",
        "numberOfBytes": "32"
      },
      "t_mapping(t_address,t_bool)": {
        "encoding": "mapping",
        "key": "t_address",
        "label": "mapping(address => bool)",
        "numberOfBytes": "32",
        "value": "t_bool"
      },
      "t_mapping(t_address,t_bytes32)": {
        "encoding": "mapping",
        "key": "t_address",
        "label": "mapping(address => bytes32)",
        "numberOfBytes": "32",
        "value": "t_bytes32"
      },
      "t_string_storage": {
        "encoding": "bytes",
        "label": "string",
        "numberOfBytes": "32"
      },
      "t_struct(Broker)19_storage": {
        "encoding": "inplace",
        "label": "struct Mqttbaru.Broker",
        "members": [
          {
            "astId": 16,
            "contract": "Mqttbaru.sol:Mqttbaru",
            "label": "broker_address",
            "offset": 0,
            "slot": "0",
            "type": "t_address_payable"
          },
          {
            "astId": 18,
            "contract": "Mqttbaru.sol:Mqttbaru",
            "label": "timestamp",
            "offset": 0,
            "slot": "1",
            "type": "t_uint256"
          }
        ],
        "numberOfBytes": "64"
      },
      "t_struct(Client)14_storage": {
        "encoding": "inplace",
        "label": "struct Mqttbaru.Client",
        "members": [
          {
            "astId": 6,
            "contract": "Mqttbaru.sol:Mqttbaru",
            "label": "id",
            "offset": 0,
            "slot": "0",
            "type": "t_uint256"
          },
          {
            "astId": 8,
            "contract": "Mqttbaru.sol:Mqttbaru",
            "label": "username",
            "offset": 0,
            "slot": "1",
            "type": "t_string_storage"
          },
          {
            "astId": 10,
            "contract": "Mqttbaru.sol:Mqttbaru",
            "label": "password",
            "offset": 0,
            "slot": "2",
            "type": "t_string_storage"
          },
          {
            "astId": 13,
            "contract": "Mqttbaru.sol:Mqttbaru",
            "label": "topic",
            "offset": 0,
            "slot": "3",
            "type": "t_array(t_string_storage)dyn_storage"
          }
        ],
        "numberOfBytes": "128"
      },
      "t_struct(LogSend)28_storage": {
        "encoding": "inplace",
        "label": "struct Mqttbaru.LogSend",
        "members": [
          {
            "astId": 21,
            "contract": "Mqttbaru.sol:Mqttbaru",
            "label": "timestamp",
            "offset": 0,
            "slot": "0",
            "type": "t_uint256"
          },
          {
            "astId": 23,
            "contract": "Mqttbaru.sol:Mqttbaru",
            "label": "method",
            "offset": 0,
            "slot": "1",
            "type": "t_string_storage"
          },
          {
            "astId": 25,
            "contract": "Mqttbaru.sol:Mqttbaru",
            "label": "message",
            "offset": 0,
            "slot": "2",
            "type": "t_string_storage"
          },
          {
            "astId": 27,
            "contract": "Mqttbaru.sol:Mqttbaru",
            "label": "sender",
            "offset": 0,
            "slot": "3",
            "type": "t_address"
          }
        ],
        "numberOfBytes": "128"
      },
      "t_uint256": {
        "encoding": "inplace",
        "label": "uint256",
        "numberOfBytes": "32"
      }
    }
  },
  "userdoc": {
    "kind": "user",
    "methods": {},
    "version": 1
  }
}