{
  "abi": [
    {
      "inputs": [],
      "stateMutability": "nonpayable",
      "type": "constructor"
    },
    {
      "inputs": [
        {
          "internalType": "string",
          "name": "_username",
          "type": "string"
        },
        {
          "internalType": "string",
          "name": "_password",
          "type": "string"
        }
      ],
      "name": "addClient",
      "outputs": [],
      "stateMutability": "nonpayable",
      "type": "function"
    },
    {
      "inputs": [
        {
          "internalType": "uint256",
          "name": "_id",
          "type": "uint256"
        },
        {
          "internalType": "string",
          "name": "_topic",
          "type": "string"
        }
      ],
      "name": "addTopic",
      "outputs": [],
      "stateMutability": "nonpayable",
      "type": "function"
    },
    {
      "inputs": [
        {
          "internalType": "uint256",
          "name": "_id",
          "type": "uint256"
        },
        {
          "internalType": "string",
          "name": "_username",
          "type": "string"
        },
        {
          "internalType": "string",
          "name": "_password",
          "type": "string"
        }
      ],
      "name": "authenticate",
      "outputs": [
        {
          "internalType": "bool",
          "name": "",
          "type": "bool"
        }
      ],
      "stateMutability": "view",
      "type": "function"
    },
    {
      "inputs": [
        {
          "internalType": "uint256",
          "name": "_id",
          "type": "uint256"
        },
        {
          "internalType": "string",
          "name": "_topic",
          "type": "string"
        }
      ],
      "name": "authorize",
      "outputs": [
        {
          "internalType": "bool",
          "name": "",
          "type": "bool"
        }
      ],
      "stateMutability": "view",
      "type": "function"
    },
    {
      "inputs": [],
      "name": "changed",
      "outputs": [
        {
          "internalType": "bool",
          "name": "",
          "type": "bool"
        }
      ],
      "stateMutability": "view",
      "type": "function"
    },
    {
      "inputs": [
        {
          "internalType": "uint256",
          "name": "_id",
          "type": "uint256"
        }
      ],
      "name": "deleteClient",
      "outputs": [],
      "stateMutability": "nonpayable",
      "type": "function"
    },
    {
      "inputs": [
        {
          "internalType": "uint256",
          "name": "_id",
          "type": "uint256"
        },
        {
          "internalType": "string",
          "name": "_topic",
          "type": "string"
        }
      ],
      "name": "deleteTopic",
      "outputs": [],
      "stateMutability": "nonpayable",
      "type": "function"
    },
    {
      "inputs": [],
      "name": "getClients",
      "outputs": [
        {
          "internalType": "uint256[]",
          "name": "",
          "type": "uint256[]"
        },
        {
          "internalType": "string[]",
          "name": "",
          "type": "string[]"
        }
      ],
      "stateMutability": "view",
      "type": "function"
    },
    {
      "inputs": [],
      "name": "getClientsCount",
      "outputs": [
        {
          "internalType": "uint256",
          "name": "",
          "type": "uint256"
        }
      ],
      "stateMutability": "view",
      "type": "function"
    },
    {
      "inputs": [
        {
          "internalType": "uint256",
          "name": "_id",
          "type": "uint256"
        }
      ],
      "name": "getTopic",
      "outputs": [
        {
          "internalType": "string[]",
          "name": "",
          "type": "string[]"
        }
      ],
      "stateMutability": "view",
      "type": "function"
    },
    {
      "inputs": [
        {
          "internalType": "uint256",
          "name": "_id",
          "type": "uint256"
        },
        {
          "internalType": "string",
          "name": "_topic",
          "type": "string"
        },
        {
          "internalType": "string",
          "name": "_newtopic",
          "type": "string"
        }
      ],
      "name": "updateTopic",
      "outputs": [],
      "stateMutability": "nonpayable",
      "type": "function"
    }
  ],
  "devdoc": {
    "kind": "dev",
    "methods": {},
    "version": 1
  },
  "evm": {
    "assembly": "    /* \"Mqttsc.sol\":99:7025  contract Mqttsc {\r... */\n  mstore(0x40, 0x80)\n    /* \"Mqttsc.sol\":419:528  constructor () public {\r... */\n  callvalue\n  dup1\n  iszero\n  tag_1\n  jumpi\n  0x00\n  dup1\n  revert\ntag_1:\n  pop\n    /* \"Mqttsc.sol\":462:472  msg.sender */\n  caller\n    /* \"Mqttsc.sol\":452:459  manager */\n  0x00\n  dup1\n    /* \"Mqttsc.sol\":452:472  manager = msg.sender */\n  0x0100\n  exp\n  dup2\n  sload\n  dup2\n  0xffffffffffffffffffffffffffffffffffffffff\n  mul\n  not\n  and\n  swap1\n  dup4\n  0xffffffffffffffffffffffffffffffffffffffff\n  and\n  mul\n  or\n  swap1\n  sstore\n  pop\n    /* \"Mqttsc.sol\":497:498  0 */\n  0x00\n    /* \"Mqttsc.sol\":483:494  clientCount */\n  0x02\n    /* \"Mqttsc.sol\":483:498  clientCount = 0 */\n  dup2\n  swap1\n  sstore\n  pop\n    /* \"Mqttsc.sol\":519:520  0 */\n  0x00\n    /* \"Mqttsc.sol\":509:516  idCount */\n  0x03\n    /* \"Mqttsc.sol\":509:520  idCount = 0 */\n  dup2\n  swap1\n  sstore\n  pop\n    /* \"Mqttsc.sol\":99:7025  contract Mqttsc {\r... */\n  dataSize(sub_0)\n  dup1\n  dataOffset(sub_0)\n  0x00\n  codecopy\n  0x00\n  return\nstop\n\nsub_0: assembly {\n        /* \"Mqttsc.sol\":99:7025  contract Mqttsc {\r... */\n      mstore(0x40, 0x80)\n      callvalue\n      dup1\n      iszero\n      tag_1\n      jumpi\n      0x00\n      dup1\n      revert\n    tag_1:\n      pop\n      jumpi(tag_2, lt(calldatasize, 0x04))\n      shr(0xe0, calldataload(0x00))\n      dup1\n      0x6db80995\n      gt\n      tag_14\n      jumpi\n      dup1\n      0x6db80995\n      eq\n      tag_8\n      jumpi\n      dup1\n      0x71658896\n      eq\n      tag_9\n      jumpi\n      dup1\n      0x98173ff4\n      eq\n      tag_10\n      jumpi\n      dup1\n      0xa9cb1a36\n      eq\n      tag_11\n      jumpi\n      dup1\n      0xc4ae2f26\n      eq\n      tag_12\n      jumpi\n      dup1\n      0xe8e5339a\n      eq\n      tag_13\n      jumpi\n      jump(tag_2)\n    tag_14:\n      dup1\n      0x0d3a6aee\n      eq\n      tag_3\n      jumpi\n      dup1\n      0x30a66294\n      eq\n      tag_4\n      jumpi\n      dup1\n      0x3276807a\n      eq\n      tag_5\n      jumpi\n      dup1\n      0x42bb20e1\n      eq\n      tag_6\n      jumpi\n      dup1\n      0x52bfd15c\n      eq\n      tag_7\n      jumpi\n    tag_2:\n      0x00\n      dup1\n      revert\n        /* \"Mqttsc.sol\":387:406  bool public changed */\n    tag_3:\n      tag_15\n      tag_16\n      jump\t// in\n    tag_15:\n      mload(0x40)\n      tag_17\n      swap2\n      swap1\n      tag_18\n      jump\t// in\n    tag_17:\n      mload(0x40)\n      dup1\n      swap2\n      sub\n      swap1\n      return\n        /* \"Mqttsc.sol\":540:641  function getClientsCount() isManager public view returns (uint) {\r... */\n    tag_4:\n      tag_19\n      tag_20\n      jump\t// in\n    tag_19:\n      mload(0x40)\n      tag_21\n      swap2\n      swap1\n      tag_22\n      jump\t// in\n    tag_21:\n      mload(0x40)\n      dup1\n      swap2\n      sub\n      swap1\n      return\n        /* \"Mqttsc.sol\":2876:3525  function addTopic(uint _id, string memory _topic) isManager public {\r... */\n    tag_5:\n      tag_23\n      0x04\n      dup1\n      calldatasize\n      sub\n      dup2\n      add\n      swap1\n      tag_24\n      swap2\n      swap1\n      tag_25\n      jump\t// in\n    tag_24:\n      tag_26\n      jump\t// in\n    tag_23:\n      stop\n        /* \"Mqttsc.sol\":1697:2299  function deleteTopic(uint _id, string memory _topic) isManager public {\r... */\n    tag_6:\n      tag_27\n      0x04\n      dup1\n      calldatasize\n      sub\n      dup2\n      add\n      swap1\n      tag_28\n      swap2\n      swap1\n      tag_25\n      jump\t// in\n    tag_28:\n      tag_29\n      jump\t// in\n    tag_27:\n      stop\n        /* \"Mqttsc.sol\":6399:6916  function authorize(uint _id, string memory _topic) isManager public view returns(bool) {\r... */\n    tag_7:\n      tag_30\n      0x04\n      dup1\n      calldatasize\n      sub\n      dup2\n      add\n      swap1\n      tag_31\n      swap2\n      swap1\n      tag_25\n      jump\t// in\n    tag_31:\n      tag_32\n      jump\t// in\n    tag_30:\n      mload(0x40)\n      tag_33\n      swap2\n      swap1\n      tag_18\n      jump\t// in\n    tag_33:\n      mload(0x40)\n      dup1\n      swap2\n      sub\n      swap1\n      return\n        /* \"Mqttsc.sol\":5395:5871  function getClients() public isManager view returns (uint[] memory, string[] memory) {\r... */\n    tag_8:\n      tag_34\n      tag_35\n      jump\t// in\n    tag_34:\n      mload(0x40)\n      tag_36\n      swap3\n      swap2\n      swap1\n      tag_37\n      jump\t// in\n    tag_36:\n      mload(0x40)\n      dup1\n      swap2\n      sub\n      swap1\n      return\n        /* \"Mqttsc.sol\":2311:2864  function getTopic(uint _id) isManager public view returns(string[] memory){\r... */\n    tag_9:\n      tag_38\n      0x04\n      dup1\n      calldatasize\n      sub\n      dup2\n      add\n      swap1\n      tag_39\n      swap2\n      swap1\n      tag_40\n      jump\t// in\n    tag_39:\n      tag_41\n      jump\t// in\n    tag_38:\n      mload(0x40)\n      tag_42\n      swap2\n      swap1\n      tag_43\n      jump\t// in\n    tag_42:\n      mload(0x40)\n      dup1\n      swap2\n      sub\n      swap1\n      return\n        /* \"Mqttsc.sol\":3537:3901  function addClient(string memory _username, string memory _password) isManager public {\r... */\n    tag_10:\n      tag_44\n      0x04\n      dup1\n      calldatasize\n      sub\n      dup2\n      add\n      swap1\n      tag_45\n      swap2\n      swap1\n      tag_46\n      jump\t// in\n    tag_45:\n      tag_47\n      jump\t// in\n    tag_44:\n      stop\n        /* \"Mqttsc.sol\":1326:1685  function deleteClient(uint _id) isManager public {\r... */\n    tag_11:\n      tag_48\n      0x04\n      dup1\n      calldatasize\n      sub\n      dup2\n      add\n      swap1\n      tag_49\n      swap2\n      swap1\n      tag_40\n      jump\t// in\n    tag_49:\n      tag_50\n      jump\t// in\n    tag_48:\n      stop\n        /* \"Mqttsc.sol\":5883:6387  function authenticate(uint _id, string memory _username, string memory _password) isManager public view returns (bool) {\r... */\n    tag_12:\n      tag_51\n      0x04\n      dup1\n      calldatasize\n      sub\n      dup2\n      add\n      swap1\n      tag_52\n      swap2\n      swap1\n      tag_53\n      jump\t// in\n    tag_52:\n      tag_54\n      jump\t// in\n    tag_51:\n      mload(0x40)\n      tag_55\n      swap2\n      swap1\n      tag_18\n      jump\t// in\n    tag_55:\n      mload(0x40)\n      dup1\n      swap2\n      sub\n      swap1\n      return\n        /* \"Mqttsc.sol\":3919:4477  function updateTopic(uint _id, string memory _topic, string memory _newtopic) isManager public{\r... */\n    tag_13:\n      tag_56\n      0x04\n      dup1\n      calldatasize\n      sub\n      dup2\n      add\n      swap1\n      tag_57\n      swap2\n      swap1\n      tag_53\n      jump\t// in\n    tag_57:\n      tag_58\n      jump\t// in\n    tag_56:\n      stop\n        /* \"Mqttsc.sol\":387:406  bool public changed */\n    tag_16:\n      0x04\n      0x00\n      swap1\n      sload\n      swap1\n      0x0100\n      exp\n      swap1\n      div\n      0xff\n      and\n      dup2\n      jump\t// out\n        /* \"Mqttsc.sol\":540:641  function getClientsCount() isManager public view returns (uint) {\r... */\n    tag_20:\n        /* \"Mqttsc.sol\":598:602  uint */\n      0x00\n        /* \"Mqttsc.sol\":6982:6989  manager */\n      dup1\n      0x00\n      swap1\n      sload\n      swap1\n      0x0100\n      exp\n      swap1\n      div\n      0xffffffffffffffffffffffffffffffffffffffff\n      and\n        /* \"Mqttsc.sol\":6968:6989  msg.sender == manager */\n      0xffffffffffffffffffffffffffffffffffffffff\n      and\n        /* \"Mqttsc.sol\":6968:6978  msg.sender */\n      caller\n        /* \"Mqttsc.sol\":6968:6989  msg.sender == manager */\n      0xffffffffffffffffffffffffffffffffffffffff\n      and\n      eq\n        /* \"Mqttsc.sol\":6960:6990  require(msg.sender == manager) */\n      tag_60\n      jumpi\n      0x00\n      dup1\n      revert\n    tag_60:\n        /* \"Mqttsc.sol\":622:633  clientCount */\n      sload(0x02)\n        /* \"Mqttsc.sol\":615:633  return clientCount */\n      swap1\n      pop\n        /* \"Mqttsc.sol\":540:641  function getClientsCount() isManager public view returns (uint) {\r... */\n      swap1\n      jump\t// out\n        /* \"Mqttsc.sol\":2876:3525  function addTopic(uint _id, string memory _topic) isManager public {\r... */\n    tag_26:\n        /* \"Mqttsc.sol\":6982:6989  manager */\n      0x00\n      dup1\n      sload\n      swap1\n      0x0100\n      exp\n      swap1\n      div\n      0xffffffffffffffffffffffffffffffffffffffff\n      and\n        /* \"Mqttsc.sol\":6968:6989  msg.sender == manager */\n      0xffffffffffffffffffffffffffffffffffffffff\n      and\n        /* \"Mqttsc.sol\":6968:6978  msg.sender */\n      caller\n        /* \"Mqttsc.sol\":6968:6989  msg.sender == manager */\n      0xffffffffffffffffffffffffffffffffffffffff\n      and\n      eq\n        /* \"Mqttsc.sol\":6960:6990  require(msg.sender == manager) */\n      tag_63\n      jumpi\n      0x00\n      dup1\n      revert\n    tag_63:\n        /* \"Mqttsc.sol\":2954:2964  bool exist */\n      0x00\n        /* \"Mqttsc.sol\":2987:2993  uint i */\n      dup1\n        /* \"Mqttsc.sol\":2983:3518  for(uint i = 0; i < clientLedger.length; i++){\r... */\n    tag_65:\n        /* \"Mqttsc.sol\":3003:3015  clientLedger */\n      0x01\n        /* \"Mqttsc.sol\":3003:3022  clientLedger.length */\n      dup1\n      sload\n      swap1\n      pop\n        /* \"Mqttsc.sol\":2999:3000  i */\n      dup2\n        /* \"Mqttsc.sol\":2999:3022  i < clientLedger.length */\n      lt\n        /* \"Mqttsc.sol\":2983:3518  for(uint i = 0; i < clientLedger.length; i++){\r... */\n      iszero\n      tag_66\n      jumpi\n        /* \"Mqttsc.sol\":3043:3067  Client storage clientele */\n      0x00\n        /* \"Mqttsc.sol\":3070:3082  clientLedger */\n      0x01\n        /* \"Mqttsc.sol\":3083:3084  i */\n      dup3\n        /* \"Mqttsc.sol\":3070:3085  clientLedger[i] */\n      dup2\n      sload\n      dup2\n      lt\n      tag_68\n      jumpi\n      invalid\n    tag_68:\n      swap1\n      0x00\n      mstore\n      keccak256(0x00, 0x20)\n      swap1\n      0x04\n      mul\n      add\n        /* \"Mqttsc.sol\":3043:3085  Client storage clientele = clientLedger[i] */\n      swap1\n      pop\n        /* \"Mqttsc.sol\":3110:3119  clientele */\n      dup1\n        /* \"Mqttsc.sol\":3110:3122  clientele.id */\n      0x00\n      add\n      sload\n        /* \"Mqttsc.sol\":3103:3106  _id */\n      dup6\n        /* \"Mqttsc.sol\":3103:3122  _id == clientele.id */\n      eq\n        /* \"Mqttsc.sol\":3100:3507  if(_id == clientele.id){\r... */\n      iszero\n      tag_70\n      jumpi\n        /* \"Mqttsc.sol\":3146:3152  uint j */\n      0x00\n        /* \"Mqttsc.sol\":3142:3389  for(uint j = 0; j < clientele.topic.length; j++){\r... */\n    tag_71:\n        /* \"Mqttsc.sol\":3162:3171  clientele */\n      dup2\n        /* \"Mqttsc.sol\":3162:3177  clientele.topic */\n      0x03\n      add\n        /* \"Mqttsc.sol\":3162:3184  clientele.topic.length */\n      dup1\n      sload\n      swap1\n      pop\n        /* \"Mqttsc.sol\":3158:3159  j */\n      dup2\n        /* \"Mqttsc.sol\":3158:3184  j < clientele.topic.length */\n      lt\n        /* \"Mqttsc.sol\":3142:3389  for(uint j = 0; j < clientele.topic.length; j++){\r... */\n      iszero\n      tag_72\n      jumpi\n        /* \"Mqttsc.sol\":3282:3291  clientele */\n      dup2\n        /* \"Mqttsc.sol\":3282:3297  clientele.topic */\n      0x03\n      add\n        /* \"Mqttsc.sol\":3298:3299  j */\n      dup2\n        /* \"Mqttsc.sol\":3282:3300  clientele.topic[j] */\n      dup2\n      sload\n      dup2\n      lt\n      tag_74\n      jumpi\n      invalid\n    tag_74:\n      swap1\n      0x00\n      mstore\n      keccak256(0x00, 0x20)\n      add\n        /* \"Mqttsc.sol\":3265:3301  abi.encodePacked(clientele.topic[j]) */\n      add(0x20, mload(0x40))\n      tag_76\n      swap2\n      swap1\n      tag_77\n      jump\t// in\n    tag_76:\n      mload(0x40)\n      0x20\n      dup2\n      dup4\n      sub\n      sub\n      dup2\n      mstore\n      swap1\n      0x40\n      mstore\n        /* \"Mqttsc.sol\":3255:3302  keccak256(abi.encodePacked(clientele.topic[j])) */\n      dup1\n      mload\n      swap1\n      0x20\n      add\n      keccak256\n        /* \"Mqttsc.sol\":3243:3249  _topic */\n      dup6\n        /* \"Mqttsc.sol\":3226:3250  abi.encodePacked(_topic) */\n      add(0x20, mload(0x40))\n      tag_78\n      swap2\n      swap1\n      tag_79\n      jump\t// in\n    tag_78:\n      mload(0x40)\n      0x20\n      dup2\n      dup4\n      sub\n      sub\n      dup2\n      mstore\n      swap1\n      0x40\n      mstore\n        /* \"Mqttsc.sol\":3216:3251  keccak256(abi.encodePacked(_topic)) */\n      dup1\n      mload\n      swap1\n      0x20\n      add\n      keccak256\n        /* \"Mqttsc.sol\":3216:3302  keccak256(abi.encodePacked(_topic)) == keccak256(abi.encodePacked(clientele.topic[j])) */\n      eq\n        /* \"Mqttsc.sol\":3213:3366  if(keccak256(abi.encodePacked(_topic)) == keccak256(abi.encodePacked(clientele.topic[j]))){\r... */\n      iszero\n      tag_80\n      jumpi\n        /* \"Mqttsc.sol\":3338:3342  true */\n      0x01\n        /* \"Mqttsc.sol\":3330:3342  exist = true */\n      swap4\n      pop\n        /* \"Mqttsc.sol\":3213:3366  if(keccak256(abi.encodePacked(_topic)) == keccak256(abi.encodePacked(clientele.topic[j]))){\r... */\n    tag_80:\n        /* \"Mqttsc.sol\":3186:3189  j++ */\n      dup1\n      dup1\n      0x01\n      add\n      swap2\n      pop\n      pop\n        /* \"Mqttsc.sol\":3142:3389  for(uint j = 0; j < clientele.topic.length; j++){\r... */\n      jump(tag_71)\n    tag_72:\n      pop\n        /* \"Mqttsc.sol\":3411:3416  exist */\n      dup3\n        /* \"Mqttsc.sol\":3407:3492  if(!exist){\r... */\n      tag_81\n      jumpi\n        /* \"Mqttsc.sol\":3440:3449  clientele */\n      dup1\n        /* \"Mqttsc.sol\":3440:3455  clientele.topic */\n      0x03\n      add\n        /* \"Mqttsc.sol\":3461:3467  _topic */\n      dup5\n        /* \"Mqttsc.sol\":3440:3468  clientele.topic.push(_topic) */\n      swap1\n      dup1\n      0x01\n      dup2\n      sload\n      add\n      dup1\n      dup3\n      sstore\n      dup1\n      swap2\n      pop\n      pop\n      0x01\n      swap1\n      sub\n      swap1\n      0x00\n      mstore\n      keccak256(0x00, 0x20)\n      add\n      0x00\n      swap1\n      swap2\n      swap1\n      swap2\n      swap1\n      swap2\n      pop\n      swap1\n      dup1\n      mload\n      swap1\n      0x20\n      add\n      swap1\n      tag_83\n      swap3\n      swap2\n      swap1\n      tag_84\n      jump\t// in\n    tag_83:\n      pop\n        /* \"Mqttsc.sol\":3407:3492  if(!exist){\r... */\n    tag_81:\n        /* \"Mqttsc.sol\":3100:3507  if(_id == clientele.id){\r... */\n    tag_70:\n        /* \"Mqttsc.sol\":2983:3518  for(uint i = 0; i < clientLedger.length; i++){\r... */\n      pop\n        /* \"Mqttsc.sol\":3024:3027  i++ */\n      dup1\n      dup1\n      0x01\n      add\n      swap2\n      pop\n      pop\n        /* \"Mqttsc.sol\":2983:3518  for(uint i = 0; i < clientLedger.length; i++){\r... */\n      jump(tag_65)\n    tag_66:\n      pop\n        /* \"Mqttsc.sol\":7001:7002  _ */\n      pop\n        /* \"Mqttsc.sol\":2876:3525  function addTopic(uint _id, string memory _topic) isManager public {\r... */\n      pop\n      pop\n      jump\t// out\n        /* \"Mqttsc.sol\":1697:2299  function deleteTopic(uint _id, string memory _topic) isManager public {\r... */\n    tag_29:\n        /* \"Mqttsc.sol\":6982:6989  manager */\n      0x00\n      dup1\n      sload\n      swap1\n      0x0100\n      exp\n      swap1\n      div\n      0xffffffffffffffffffffffffffffffffffffffff\n      and\n        /* \"Mqttsc.sol\":6968:6989  msg.sender == manager */\n      0xffffffffffffffffffffffffffffffffffffffff\n      and\n        /* \"Mqttsc.sol\":6968:6978  msg.sender */\n      caller\n        /* \"Mqttsc.sol\":6968:6989  msg.sender == manager */\n      0xffffffffffffffffffffffffffffffffffffffff\n      and\n      eq\n        /* \"Mqttsc.sol\":6960:6990  require(msg.sender == manager) */\n      tag_86\n      jumpi\n      0x00\n      dup1\n      revert\n    tag_86:\n        /* \"Mqttsc.sol\":1782:1788  uint i */\n      0x00\n        /* \"Mqttsc.sol\":1778:2292  for(uint i = 0; i <  clientLedger.length; i++){\r... */\n    tag_88:\n        /* \"Mqttsc.sol\":1799:1811  clientLedger */\n      0x01\n        /* \"Mqttsc.sol\":1799:1818  clientLedger.length */\n      dup1\n      sload\n      swap1\n      pop\n        /* \"Mqttsc.sol\":1794:1795  i */\n      dup2\n        /* \"Mqttsc.sol\":1794:1818  i <  clientLedger.length */\n      lt\n        /* \"Mqttsc.sol\":1778:2292  for(uint i = 0; i <  clientLedger.length; i++){\r... */\n      iszero\n      tag_89\n      jumpi\n        /* \"Mqttsc.sol\":1849:1861  clientLedger */\n      0x01\n        /* \"Mqttsc.sol\":1862:1863  i */\n      dup2\n        /* \"Mqttsc.sol\":1849:1864  clientLedger[i] */\n      dup2\n      sload\n      dup2\n      lt\n      tag_91\n      jumpi\n      invalid\n    tag_91:\n      swap1\n      0x00\n      mstore\n      keccak256(0x00, 0x20)\n      swap1\n      0x04\n      mul\n      add\n        /* \"Mqttsc.sol\":1849:1867  clientLedger[i].id */\n      0x00\n      add\n      sload\n        /* \"Mqttsc.sol\":1842:1845  _id */\n      dup4\n        /* \"Mqttsc.sol\":1842:1867  _id == clientLedger[i].id */\n      eq\n        /* \"Mqttsc.sol\":1839:2281  if(_id == clientLedger[i].id){\r... */\n      iszero\n      tag_93\n      jumpi\n        /* \"Mqttsc.sol\":1891:1897  uint j */\n      0x00\n        /* \"Mqttsc.sol\":1887:2266  for(uint j = 0; j < clientLedger[i].topic.length; j++){\r... */\n    tag_94:\n        /* \"Mqttsc.sol\":1907:1919  clientLedger */\n      0x01\n        /* \"Mqttsc.sol\":1920:1921  i */\n      dup3\n        /* \"Mqttsc.sol\":1907:1922  clientLedger[i] */\n      dup2\n      sload\n      dup2\n      lt\n      tag_97\n      jumpi\n      invalid\n    tag_97:\n      swap1\n      0x00\n      mstore\n      keccak256(0x00, 0x20)\n      swap1\n      0x04\n      mul\n      add\n        /* \"Mqttsc.sol\":1907:1928  clientLedger[i].topic */\n      0x03\n      add\n        /* \"Mqttsc.sol\":1907:1935  clientLedger[i].topic.length */\n      dup1\n      sload\n      swap1\n      pop\n        /* \"Mqttsc.sol\":1903:1904  j */\n      dup2\n        /* \"Mqttsc.sol\":1903:1935  j < clientLedger[i].topic.length */\n      lt\n        /* \"Mqttsc.sol\":1887:2266  for(uint j = 0; j < clientLedger[i].topic.length; j++){\r... */\n      iszero\n      tag_95\n      jumpi\n        /* \"Mqttsc.sol\":2033:2045  clientLedger */\n      0x01\n        /* \"Mqttsc.sol\":2046:2047  i */\n      dup3\n        /* \"Mqttsc.sol\":2033:2048  clientLedger[i] */\n      dup2\n      sload\n      dup2\n      lt\n      tag_99\n      jumpi\n      invalid\n    tag_99:\n      swap1\n      0x00\n      mstore\n      keccak256(0x00, 0x20)\n      swap1\n      0x04\n      mul\n      add\n        /* \"Mqttsc.sol\":2033:2054  clientLedger[i].topic */\n      0x03\n      add\n        /* \"Mqttsc.sol\":2055:2056  j */\n      dup2\n        /* \"Mqttsc.sol\":2033:2057  clientLedger[i].topic[j] */\n      dup2\n      sload\n      dup2\n      lt\n      tag_101\n      jumpi\n      invalid\n    tag_101:\n      swap1\n      0x00\n      mstore\n      keccak256(0x00, 0x20)\n      add\n        /* \"Mqttsc.sol\":2016:2058  abi.encodePacked(clientLedger[i].topic[j]) */\n      add(0x20, mload(0x40))\n      tag_103\n      swap2\n      swap1\n      tag_77\n      jump\t// in\n    tag_103:\n      mload(0x40)\n      0x20\n      dup2\n      dup4\n      sub\n      sub\n      dup2\n      mstore\n      swap1\n      0x40\n      mstore\n        /* \"Mqttsc.sol\":2006:2059  keccak256(abi.encodePacked(clientLedger[i].topic[j])) */\n      dup1\n      mload\n      swap1\n      0x20\n      add\n      keccak256\n        /* \"Mqttsc.sol\":1994:2000  _topic */\n      dup4\n        /* \"Mqttsc.sol\":1977:2001  abi.encodePacked(_topic) */\n      add(0x20, mload(0x40))\n      tag_104\n      swap2\n      swap1\n      tag_79\n      jump\t// in\n    tag_104:\n      mload(0x40)\n      0x20\n      dup2\n      dup4\n      sub\n      sub\n      dup2\n      mstore\n      swap1\n      0x40\n      mstore\n        /* \"Mqttsc.sol\":1967:2002  keccak256(abi.encodePacked(_topic)) */\n      dup1\n      mload\n      swap1\n      0x20\n      add\n      keccak256\n        /* \"Mqttsc.sol\":1967:2059  keccak256(abi.encodePacked(_topic)) == keccak256(abi.encodePacked(clientLedger[i].topic[j])) */\n      eq\n        /* \"Mqttsc.sol\":1964:2247  if(keccak256(abi.encodePacked(_topic)) == keccak256(abi.encodePacked(clientLedger[i].topic[j]))){\r... */\n      iszero\n      tag_105\n      jumpi\n        /* \"Mqttsc.sol\":2114:2126  clientLedger */\n      0x01\n        /* \"Mqttsc.sol\":2127:2128  i */\n      dup3\n        /* \"Mqttsc.sol\":2114:2129  clientLedger[i] */\n      dup2\n      sload\n      dup2\n      lt\n      tag_106\n      jumpi\n      invalid\n    tag_106:\n      swap1\n      0x00\n      mstore\n      keccak256(0x00, 0x20)\n      swap1\n      0x04\n      mul\n      add\n        /* \"Mqttsc.sol\":2114:2135  clientLedger[i].topic */\n      0x03\n      add\n        /* \"Mqttsc.sol\":2167:2168  1 */\n      0x01\n        /* \"Mqttsc.sol\":2136:2148  clientLedger */\n      dup1\n        /* \"Mqttsc.sol\":2149:2150  i */\n      dup5\n        /* \"Mqttsc.sol\":2136:2151  clientLedger[i] */\n      dup2\n      sload\n      dup2\n      lt\n      tag_108\n      jumpi\n      invalid\n    tag_108:\n      swap1\n      0x00\n      mstore\n      keccak256(0x00, 0x20)\n      swap1\n      0x04\n      mul\n      add\n        /* \"Mqttsc.sol\":2136:2157  clientLedger[i].topic */\n      0x03\n      add\n        /* \"Mqttsc.sol\":2136:2164  clientLedger[i].topic.length */\n      dup1\n      sload\n      swap1\n      pop\n        /* \"Mqttsc.sol\":2136:2168  clientLedger[i].topic.length - 1 */\n      sub\n        /* \"Mqttsc.sol\":2114:2169  clientLedger[i].topic[clientLedger[i].topic.length - 1] */\n      dup2\n      sload\n      dup2\n      lt\n      tag_110\n      jumpi\n      invalid\n    tag_110:\n      swap1\n      0x00\n      mstore\n      keccak256(0x00, 0x20)\n      add\n        /* \"Mqttsc.sol\":2087:2099  clientLedger */\n      0x01\n        /* \"Mqttsc.sol\":2100:2101  i */\n      dup4\n        /* \"Mqttsc.sol\":2087:2102  clientLedger[i] */\n      dup2\n      sload\n      dup2\n      lt\n      tag_112\n      jumpi\n      invalid\n    tag_112:\n      swap1\n      0x00\n      mstore\n      keccak256(0x00, 0x20)\n      swap1\n      0x04\n      mul\n      add\n        /* \"Mqttsc.sol\":2087:2108  clientLedger[i].topic */\n      0x03\n      add\n        /* \"Mqttsc.sol\":2109:2110  j */\n      dup3\n        /* \"Mqttsc.sol\":2087:2111  clientLedger[i].topic[j] */\n      dup2\n      sload\n      dup2\n      lt\n      tag_114\n      jumpi\n      invalid\n    tag_114:\n      swap1\n      0x00\n      mstore\n      keccak256(0x00, 0x20)\n      add\n        /* \"Mqttsc.sol\":2087:2169  clientLedger[i].topic[j] = clientLedger[i].topic[clientLedger[i].topic.length - 1] */\n      swap1\n      dup1\n      sload\n      0x01\n      dup2\n      0x01\n      and\n      iszero\n      0x0100\n      mul\n      sub\n      and\n      0x02\n      swap1\n      div\n      tag_116\n      swap3\n      swap2\n      swap1\n      tag_117\n      jump\t// in\n    tag_116:\n      pop\n        /* \"Mqttsc.sol\":2196:2208  clientLedger */\n      0x01\n        /* \"Mqttsc.sol\":2209:2210  i */\n      dup3\n        /* \"Mqttsc.sol\":2196:2211  clientLedger[i] */\n      dup2\n      sload\n      dup2\n      lt\n      tag_118\n      jumpi\n      invalid\n    tag_118:\n      swap1\n      0x00\n      mstore\n      keccak256(0x00, 0x20)\n      swap1\n      0x04\n      mul\n      add\n        /* \"Mqttsc.sol\":2196:2217  clientLedger[i].topic */\n      0x03\n      add\n        /* \"Mqttsc.sol\":2196:2223  clientLedger[i].topic.pop() */\n      dup1\n      sload\n      dup1\n      tag_120\n      jumpi\n      invalid\n    tag_120:\n      0x01\n      swap1\n      sub\n      dup2\n      dup2\n      swap1\n      0x00\n      mstore\n      keccak256(0x00, 0x20)\n      add\n      0x00\n      tag_122\n      swap2\n      swap1\n      tag_123\n      jump\t// in\n    tag_122:\n      swap1\n      sstore\n        /* \"Mqttsc.sol\":1964:2247  if(keccak256(abi.encodePacked(_topic)) == keccak256(abi.encodePacked(clientLedger[i].topic[j]))){\r... */\n    tag_105:\n        /* \"Mqttsc.sol\":1937:1940  j++ */\n      dup1\n      dup1\n      0x01\n      add\n      swap2\n      pop\n      pop\n        /* \"Mqttsc.sol\":1887:2266  for(uint j = 0; j < clientLedger[i].topic.length; j++){\r... */\n      jump(tag_94)\n    tag_95:\n      pop\n        /* \"Mqttsc.sol\":1839:2281  if(_id == clientLedger[i].id){\r... */\n    tag_93:\n        /* \"Mqttsc.sol\":1820:1823  i++ */\n      dup1\n      dup1\n      0x01\n      add\n      swap2\n      pop\n      pop\n        /* \"Mqttsc.sol\":1778:2292  for(uint i = 0; i <  clientLedger.length; i++){\r... */\n      jump(tag_88)\n    tag_89:\n      pop\n        /* \"Mqttsc.sol\":1697:2299  function deleteTopic(uint _id, string memory _topic) isManager public {\r... */\n      pop\n      pop\n      jump\t// out\n        /* \"Mqttsc.sol\":6399:6916  function authorize(uint _id, string memory _topic) isManager public view returns(bool) {\r... */\n    tag_32:\n        /* \"Mqttsc.sol\":6480:6484  bool */\n      0x00\n        /* \"Mqttsc.sol\":6982:6989  manager */\n      dup1\n      0x00\n      swap1\n      sload\n      swap1\n      0x0100\n      exp\n      swap1\n      div\n      0xffffffffffffffffffffffffffffffffffffffff\n      and\n        /* \"Mqttsc.sol\":6968:6989  msg.sender == manager */\n      0xffffffffffffffffffffffffffffffffffffffff\n      and\n        /* \"Mqttsc.sol\":6968:6978  msg.sender */\n      caller\n        /* \"Mqttsc.sol\":6968:6989  msg.sender == manager */\n      0xffffffffffffffffffffffffffffffffffffffff\n      and\n      eq\n        /* \"Mqttsc.sol\":6960:6990  require(msg.sender == manager) */\n      tag_125\n      jumpi\n      0x00\n      dup1\n      revert\n    tag_125:\n        /* \"Mqttsc.sol\":6501:6507  uint i */\n      0x00\n        /* \"Mqttsc.sol\":6497:6886  for(uint i = 0; i < clientLedger.length; i++){\r... */\n    tag_127:\n        /* \"Mqttsc.sol\":6517:6529  clientLedger */\n      0x01\n        /* \"Mqttsc.sol\":6517:6536  clientLedger.length */\n      dup1\n      sload\n      swap1\n      pop\n        /* \"Mqttsc.sol\":6513:6514  i */\n      dup2\n        /* \"Mqttsc.sol\":6513:6536  i < clientLedger.length */\n      lt\n        /* \"Mqttsc.sol\":6497:6886  for(uint i = 0; i < clientLedger.length; i++){\r... */\n      iszero\n      tag_128\n      jumpi\n        /* \"Mqttsc.sol\":6567:6579  clientLedger */\n      0x01\n        /* \"Mqttsc.sol\":6580:6581  i */\n      dup2\n        /* \"Mqttsc.sol\":6567:6582  clientLedger[i] */\n      dup2\n      sload\n      dup2\n      lt\n      tag_130\n      jumpi\n      invalid\n    tag_130:\n      swap1\n      0x00\n      mstore\n      keccak256(0x00, 0x20)\n      swap1\n      0x04\n      mul\n      add\n        /* \"Mqttsc.sol\":6567:6585  clientLedger[i].id */\n      0x00\n      add\n      sload\n        /* \"Mqttsc.sol\":6560:6563  _id */\n      dup5\n        /* \"Mqttsc.sol\":6560:6585  _id == clientLedger[i].id */\n      eq\n        /* \"Mqttsc.sol\":6557:6875  if(_id == clientLedger[i].id){\r... */\n      iszero\n      tag_132\n      jumpi\n        /* \"Mqttsc.sol\":6609:6615  uint j */\n      0x00\n        /* \"Mqttsc.sol\":6605:6860  for(uint j = 0; j < clientLedger[i].topic.length ; j++){\r... */\n    tag_133:\n        /* \"Mqttsc.sol\":6625:6637  clientLedger */\n      0x01\n        /* \"Mqttsc.sol\":6638:6639  i */\n      dup3\n        /* \"Mqttsc.sol\":6625:6640  clientLedger[i] */\n      dup2\n      sload\n      dup2\n      lt\n      tag_136\n      jumpi\n      invalid\n    tag_136:\n      swap1\n      0x00\n      mstore\n      keccak256(0x00, 0x20)\n      swap1\n      0x04\n      mul\n      add\n        /* \"Mqttsc.sol\":6625:6646  clientLedger[i].topic */\n      0x03\n      add\n        /* \"Mqttsc.sol\":6625:6653  clientLedger[i].topic.length */\n      dup1\n      sload\n      swap1\n      pop\n        /* \"Mqttsc.sol\":6621:6622  j */\n      dup2\n        /* \"Mqttsc.sol\":6621:6653  j < clientLedger[i].topic.length */\n      lt\n        /* \"Mqttsc.sol\":6605:6860  for(uint j = 0; j < clientLedger[i].topic.length ; j++){\r... */\n      iszero\n      tag_134\n      jumpi\n        /* \"Mqttsc.sol\":6752:6764  clientLedger */\n      0x01\n        /* \"Mqttsc.sol\":6765:6766  i */\n      dup3\n        /* \"Mqttsc.sol\":6752:6767  clientLedger[i] */\n      dup2\n      sload\n      dup2\n      lt\n      tag_138\n      jumpi\n      invalid\n    tag_138:\n      swap1\n      0x00\n      mstore\n      keccak256(0x00, 0x20)\n      swap1\n      0x04\n      mul\n      add\n        /* \"Mqttsc.sol\":6752:6773  clientLedger[i].topic */\n      0x03\n      add\n        /* \"Mqttsc.sol\":6774:6775  j */\n      dup2\n        /* \"Mqttsc.sol\":6752:6776  clientLedger[i].topic[j] */\n      dup2\n      sload\n      dup2\n      lt\n      tag_140\n      jumpi\n      invalid\n    tag_140:\n      swap1\n      0x00\n      mstore\n      keccak256(0x00, 0x20)\n      add\n        /* \"Mqttsc.sol\":6735:6777  abi.encodePacked(clientLedger[i].topic[j]) */\n      add(0x20, mload(0x40))\n      tag_142\n      swap2\n      swap1\n      tag_77\n      jump\t// in\n    tag_142:\n      mload(0x40)\n      0x20\n      dup2\n      dup4\n      sub\n      sub\n      dup2\n      mstore\n      swap1\n      0x40\n      mstore\n        /* \"Mqttsc.sol\":6725:6778  keccak256(abi.encodePacked(clientLedger[i].topic[j])) */\n      dup1\n      mload\n      swap1\n      0x20\n      add\n      keccak256\n        /* \"Mqttsc.sol\":6713:6719  _topic */\n      dup5\n        /* \"Mqttsc.sol\":6696:6720  abi.encodePacked(_topic) */\n      add(0x20, mload(0x40))\n      tag_143\n      swap2\n      swap1\n      tag_79\n      jump\t// in\n    tag_143:\n      mload(0x40)\n      0x20\n      dup2\n      dup4\n      sub\n      sub\n      dup2\n      mstore\n      swap1\n      0x40\n      mstore\n        /* \"Mqttsc.sol\":6686:6721  keccak256(abi.encodePacked(_topic)) */\n      dup1\n      mload\n      swap1\n      0x20\n      add\n      keccak256\n        /* \"Mqttsc.sol\":6686:6778  keccak256(abi.encodePacked(_topic)) == keccak256(abi.encodePacked(clientLedger[i].topic[j])) */\n      eq\n        /* \"Mqttsc.sol\":6683:6841  if(keccak256(abi.encodePacked(_topic)) == keccak256(abi.encodePacked(clientLedger[i].topic[j]))){\r... */\n      iszero\n      tag_144\n      jumpi\n        /* \"Mqttsc.sol\":6813:6817  true */\n      0x01\n        /* \"Mqttsc.sol\":6806:6817  return true */\n      swap3\n      pop\n      pop\n      pop\n      jump(tag_126)\n        /* \"Mqttsc.sol\":6683:6841  if(keccak256(abi.encodePacked(_topic)) == keccak256(abi.encodePacked(clientLedger[i].topic[j]))){\r... */\n    tag_144:\n        /* \"Mqttsc.sol\":6656:6659  j++ */\n      dup1\n      dup1\n      0x01\n      add\n      swap2\n      pop\n      pop\n        /* \"Mqttsc.sol\":6605:6860  for(uint j = 0; j < clientLedger[i].topic.length ; j++){\r... */\n      jump(tag_133)\n    tag_134:\n      pop\n        /* \"Mqttsc.sol\":6557:6875  if(_id == clientLedger[i].id){\r... */\n    tag_132:\n        /* \"Mqttsc.sol\":6538:6541  i++ */\n      dup1\n      dup1\n      0x01\n      add\n      swap2\n      pop\n      pop\n        /* \"Mqttsc.sol\":6497:6886  for(uint i = 0; i < clientLedger.length; i++){\r... */\n      jump(tag_127)\n    tag_128:\n      pop\n        /* \"Mqttsc.sol\":6903:6908  false */\n      0x00\n        /* \"Mqttsc.sol\":6896:6908  return false */\n      swap1\n      pop\n        /* \"Mqttsc.sol\":7001:7002  _ */\n    tag_126:\n        /* \"Mqttsc.sol\":6399:6916  function authorize(uint _id, string memory _topic) isManager public view returns(bool) {\r... */\n      swap3\n      swap2\n      pop\n      pop\n      jump\t// out\n        /* \"Mqttsc.sol\":5395:5871  function getClients() public isManager view returns (uint[] memory, string[] memory) {\r... */\n    tag_35:\n        /* \"Mqttsc.sol\":5448:5461  uint[] memory */\n      0x60\n        /* \"Mqttsc.sol\":5463:5478  string[] memory */\n      dup1\n        /* \"Mqttsc.sol\":6982:6989  manager */\n      0x00\n      dup1\n      sload\n      swap1\n      0x0100\n      exp\n      swap1\n      div\n      0xffffffffffffffffffffffffffffffffffffffff\n      and\n        /* \"Mqttsc.sol\":6968:6989  msg.sender == manager */\n      0xffffffffffffffffffffffffffffffffffffffff\n      and\n        /* \"Mqttsc.sol\":6968:6978  msg.sender */\n      caller\n        /* \"Mqttsc.sol\":6968:6989  msg.sender == manager */\n      0xffffffffffffffffffffffffffffffffffffffff\n      and\n      eq\n        /* \"Mqttsc.sol\":6960:6990  require(msg.sender == manager) */\n      tag_146\n      jumpi\n      0x00\n      dup1\n      revert\n    tag_146:\n        /* \"Mqttsc.sol\":5491:5508  uint[] memory _id */\n      0x60\n        /* \"Mqttsc.sol\":5522:5533  clientCount */\n      sload(0x02)\n        /* \"Mqttsc.sol\":5511:5534  new uint[](clientCount) */\n      0xffffffffffffffff\n      dup2\n      gt\n      dup1\n      iszero\n      tag_148\n      jumpi\n      0x00\n      dup1\n      revert\n    tag_148:\n      pop\n      mload(0x40)\n      swap1\n      dup1\n      dup3\n      mstore\n      dup1\n      0x20\n      mul\n      0x20\n      add\n      dup3\n      add\n      0x40\n      mstore\n      dup1\n      iszero\n      tag_149\n      jumpi\n      dup2\n      0x20\n      add\n      0x20\n      dup3\n      mul\n      dup1\n      calldatasize\n      dup4\n      calldatacopy\n      dup1\n      dup3\n      add\n      swap2\n      pop\n      pop\n      swap1\n      pop\n    tag_149:\n      pop\n        /* \"Mqttsc.sol\":5491:5534  uint[] memory _id = new uint[](clientCount) */\n      swap1\n      pop\n        /* \"Mqttsc.sol\":5545:5570  string[] memory _username */\n      0x60\n        /* \"Mqttsc.sol\":5586:5597  clientCount */\n      sload(0x02)\n        /* \"Mqttsc.sol\":5573:5598  new string[](clientCount) */\n      0xffffffffffffffff\n      dup2\n      gt\n      dup1\n      iszero\n      tag_150\n      jumpi\n      0x00\n      dup1\n      revert\n    tag_150:\n      pop\n      mload(0x40)\n      swap1\n      dup1\n      dup3\n      mstore\n      dup1\n      0x20\n      mul\n      0x20\n      add\n      dup3\n      add\n      0x40\n      mstore\n      dup1\n      iszero\n      tag_151\n      jumpi\n      dup2\n      0x20\n      add\n    tag_152:\n      0x60\n      dup2\n      mstore\n      0x20\n      add\n      swap1\n      0x01\n      swap1\n      sub\n      swap1\n      dup2\n      tag_152\n      jumpi\n      swap1\n      pop\n    tag_151:\n      pop\n        /* \"Mqttsc.sol\":5545:5598  string[] memory _username = new string[](clientCount) */\n      swap1\n      pop\n        /* \"Mqttsc.sol\":5613:5619  uint i */\n      0x00\n        /* \"Mqttsc.sol\":5609:5807  for(uint i = 0; i < clientLedger.length; i++){\r... */\n    tag_153:\n        /* \"Mqttsc.sol\":5629:5641  clientLedger */\n      0x01\n        /* \"Mqttsc.sol\":5629:5648  clientLedger.length */\n      dup1\n      sload\n      swap1\n      pop\n        /* \"Mqttsc.sol\":5625:5626  i */\n      dup2\n        /* \"Mqttsc.sol\":5625:5648  i < clientLedger.length */\n      lt\n        /* \"Mqttsc.sol\":5609:5807  for(uint i = 0; i < clientLedger.length; i++){\r... */\n      iszero\n      tag_154\n      jumpi\n        /* \"Mqttsc.sol\":5669:5693  Client storage clientele */\n      0x00\n        /* \"Mqttsc.sol\":5696:5708  clientLedger */\n      0x01\n        /* \"Mqttsc.sol\":5709:5710  i */\n      dup3\n        /* \"Mqttsc.sol\":5696:5711  clientLedger[i] */\n      dup2\n      sload\n      dup2\n      lt\n      tag_156\n      jumpi\n      invalid\n    tag_156:\n      swap1\n      0x00\n      mstore\n      keccak256(0x00, 0x20)\n      swap1\n      0x04\n      mul\n      add\n        /* \"Mqttsc.sol\":5669:5711  Client storage clientele = clientLedger[i] */\n      swap1\n      pop\n        /* \"Mqttsc.sol\":5735:5744  clientele */\n      dup1\n        /* \"Mqttsc.sol\":5735:5747  clientele.id */\n      0x00\n      add\n      sload\n        /* \"Mqttsc.sol\":5726:5729  _id */\n      dup5\n        /* \"Mqttsc.sol\":5730:5731  i */\n      dup4\n        /* \"Mqttsc.sol\":5726:5732  _id[i] */\n      dup2\n      mload\n      dup2\n      lt\n      tag_158\n      jumpi\n      invalid\n    tag_158:\n      0x20\n      mul\n      0x20\n      add\n      add\n        /* \"Mqttsc.sol\":5726:5747  _id[i] = clientele.id */\n      dup2\n      dup2\n      mstore\n      pop\n      pop\n        /* \"Mqttsc.sol\":5777:5786  clientele */\n      dup1\n        /* \"Mqttsc.sol\":5777:5795  clientele.username */\n      0x01\n      add\n        /* \"Mqttsc.sol\":5762:5795  _username[i] = clientele.username */\n      dup1\n      sload\n      0x01\n      dup2\n      0x01\n      and\n      iszero\n      0x0100\n      mul\n      sub\n      and\n      0x02\n      swap1\n      div\n      dup1\n      0x1f\n      add\n      0x20\n      dup1\n      swap2\n      div\n      mul\n      0x20\n      add\n      mload(0x40)\n      swap1\n      dup2\n      add\n      0x40\n      mstore\n      dup1\n      swap3\n      swap2\n      swap1\n      dup2\n      dup2\n      mstore\n      0x20\n      add\n      dup3\n      dup1\n      sload\n      0x01\n      dup2\n      0x01\n      and\n      iszero\n      0x0100\n      mul\n      sub\n      and\n      0x02\n      swap1\n      div\n      dup1\n      iszero\n      tag_159\n      jumpi\n      dup1\n      0x1f\n      lt\n      tag_160\n      jumpi\n      0x0100\n      dup1\n      dup4\n      sload\n      div\n      mul\n      dup4\n      mstore\n      swap2\n      0x20\n      add\n      swap2\n      jump(tag_159)\n    tag_160:\n      dup3\n      add\n      swap2\n      swap1\n      0x00\n      mstore\n      keccak256(0x00, 0x20)\n      swap1\n    tag_161:\n      dup2\n      sload\n      dup2\n      mstore\n      swap1\n      0x01\n      add\n      swap1\n      0x20\n      add\n      dup1\n      dup4\n      gt\n      tag_161\n      jumpi\n      dup3\n      swap1\n      sub\n      0x1f\n      and\n      dup3\n      add\n      swap2\n    tag_159:\n      pop\n      pop\n      pop\n      pop\n      pop\n        /* \"Mqttsc.sol\":5762:5771  _username */\n      dup4\n        /* \"Mqttsc.sol\":5772:5773  i */\n      dup4\n        /* \"Mqttsc.sol\":5762:5774  _username[i] */\n      dup2\n      mload\n      dup2\n      lt\n      tag_162\n      jumpi\n      invalid\n    tag_162:\n      0x20\n      mul\n      0x20\n      add\n      add\n        /* \"Mqttsc.sol\":5762:5795  _username[i] = clientele.username */\n      dup2\n      swap1\n      mstore\n      pop\n        /* \"Mqttsc.sol\":5609:5807  for(uint i = 0; i < clientLedger.length; i++){\r... */\n      pop\n        /* \"Mqttsc.sol\":5650:5653  i++ */\n      dup1\n      dup1\n      0x01\n      add\n      swap2\n      pop\n      pop\n        /* \"Mqttsc.sol\":5609:5807  for(uint i = 0; i < clientLedger.length; i++){\r... */\n      jump(tag_153)\n    tag_154:\n      pop\n        /* \"Mqttsc.sol\":5838:5841  _id */\n      dup2\n        /* \"Mqttsc.sol\":5843:5852  _username */\n      dup2\n        /* \"Mqttsc.sol\":5817:5863  return(\r... */\n      swap4\n      pop\n      swap4\n      pop\n      pop\n      pop\n        /* \"Mqttsc.sol\":5395:5871  function getClients() public isManager view returns (uint[] memory, string[] memory) {\r... */\n      swap1\n      swap2\n      jump\t// out\n        /* \"Mqttsc.sol\":2311:2864  function getTopic(uint _id) isManager public view returns(string[] memory){\r... */\n    tag_41:\n        /* \"Mqttsc.sol\":2369:2384  string[] memory */\n      0x60\n        /* \"Mqttsc.sol\":6982:6989  manager */\n      0x00\n      dup1\n      sload\n      swap1\n      0x0100\n      exp\n      swap1\n      div\n      0xffffffffffffffffffffffffffffffffffffffff\n      and\n        /* \"Mqttsc.sol\":6968:6989  msg.sender == manager */\n      0xffffffffffffffffffffffffffffffffffffffff\n      and\n        /* \"Mqttsc.sol\":6968:6978  msg.sender */\n      caller\n        /* \"Mqttsc.sol\":6968:6989  msg.sender == manager */\n      0xffffffffffffffffffffffffffffffffffffffff\n      and\n      eq\n        /* \"Mqttsc.sol\":6960:6990  require(msg.sender == manager) */\n      tag_164\n      jumpi\n      0x00\n      dup1\n      revert\n    tag_164:\n        /* \"Mqttsc.sol\":2400:2406  uint i */\n      0x00\n        /* \"Mqttsc.sol\":2396:2857  for(uint i = 0; i < clientLedger.length; i++){\r... */\n    tag_166:\n        /* \"Mqttsc.sol\":2416:2428  clientLedger */\n      0x01\n        /* \"Mqttsc.sol\":2416:2435  clientLedger.length */\n      dup1\n      sload\n      swap1\n      pop\n        /* \"Mqttsc.sol\":2412:2413  i */\n      dup2\n        /* \"Mqttsc.sol\":2412:2435  i < clientLedger.length */\n      lt\n        /* \"Mqttsc.sol\":2396:2857  for(uint i = 0; i < clientLedger.length; i++){\r... */\n      iszero\n      tag_167\n      jumpi\n        /* \"Mqttsc.sol\":2456:2480  Client storage clientele */\n      0x00\n        /* \"Mqttsc.sol\":2483:2495  clientLedger */\n      0x01\n        /* \"Mqttsc.sol\":2496:2497  i */\n      dup3\n        /* \"Mqttsc.sol\":2483:2498  clientLedger[i] */\n      dup2\n      sload\n      dup2\n      lt\n      tag_169\n      jumpi\n      invalid\n    tag_169:\n      swap1\n      0x00\n      mstore\n      keccak256(0x00, 0x20)\n      swap1\n      0x04\n      mul\n      add\n        /* \"Mqttsc.sol\":2456:2498  Client storage clientele = clientLedger[i] */\n      swap1\n      pop\n        /* \"Mqttsc.sol\":2523:2532  clientele */\n      dup1\n        /* \"Mqttsc.sol\":2523:2535  clientele.id */\n      0x00\n      add\n      sload\n        /* \"Mqttsc.sol\":2516:2519  _id */\n      dup5\n        /* \"Mqttsc.sol\":2516:2535  _id == clientele.id */\n      eq\n        /* \"Mqttsc.sol\":2513:2846  if(_id == clientele.id){\r... */\n      iszero\n      tag_171\n      jumpi\n        /* \"Mqttsc.sol\":2555:2577  string[] memory _topic */\n      0x60\n        /* \"Mqttsc.sol\":2593:2602  clientele */\n      dup2\n        /* \"Mqttsc.sol\":2593:2608  clientele.topic */\n      0x03\n      add\n        /* \"Mqttsc.sol\":2593:2615  clientele.topic.length */\n      dup1\n      sload\n      swap1\n      pop\n        /* \"Mqttsc.sol\":2580:2616  new string[](clientele.topic.length) */\n      0xffffffffffffffff\n      dup2\n      gt\n      dup1\n      iszero\n      tag_172\n      jumpi\n      0x00\n      dup1\n      revert\n    tag_172:\n      pop\n      mload(0x40)\n      swap1\n      dup1\n      dup3\n      mstore\n      dup1\n      0x20\n      mul\n      0x20\n      add\n      dup3\n      add\n      0x40\n      mstore\n      dup1\n      iszero\n      tag_173\n      jumpi\n      dup2\n      0x20\n      add\n    tag_174:\n      0x60\n      dup2\n      mstore\n      0x20\n      add\n      swap1\n      0x01\n      swap1\n      sub\n      swap1\n      dup2\n      tag_174\n      jumpi\n      swap1\n      pop\n    tag_173:\n      pop\n        /* \"Mqttsc.sol\":2555:2616  string[] memory _topic = new string[](clientele.topic.length) */\n      swap1\n      pop\n        /* \"Mqttsc.sol\":2639:2645  uint j */\n      0x00\n        /* \"Mqttsc.sol\":2635:2756  for(uint j = 0; j < clientele.topic.length; j++){\r... */\n    tag_175:\n        /* \"Mqttsc.sol\":2655:2664  clientele */\n      dup3\n        /* \"Mqttsc.sol\":2655:2670  clientele.topic */\n      0x03\n      add\n        /* \"Mqttsc.sol\":2655:2677  clientele.topic.length */\n      dup1\n      sload\n      swap1\n      pop\n        /* \"Mqttsc.sol\":2651:2652  j */\n      dup2\n        /* \"Mqttsc.sol\":2651:2677  j < clientele.topic.length */\n      lt\n        /* \"Mqttsc.sol\":2635:2756  for(uint j = 0; j < clientele.topic.length; j++){\r... */\n      iszero\n      tag_176\n      jumpi\n        /* \"Mqttsc.sol\":2718:2727  clientele */\n      dup3\n        /* \"Mqttsc.sol\":2718:2733  clientele.topic */\n      0x03\n      add\n        /* \"Mqttsc.sol\":2734:2735  j */\n      dup2\n        /* \"Mqttsc.sol\":2718:2736  clientele.topic[j] */\n      dup2\n      sload\n      dup2\n      lt\n      tag_178\n      jumpi\n      invalid\n    tag_178:\n      swap1\n      0x00\n      mstore\n      keccak256(0x00, 0x20)\n      add\n        /* \"Mqttsc.sol\":2706:2736  _topic[j] = clientele.topic[j] */\n      dup1\n      sload\n      0x01\n      dup2\n      0x01\n      and\n      iszero\n      0x0100\n      mul\n      sub\n      and\n      0x02\n      swap1\n      div\n      dup1\n      0x1f\n      add\n      0x20\n      dup1\n      swap2\n      div\n      mul\n      0x20\n      add\n      mload(0x40)\n      swap1\n      dup2\n      add\n      0x40\n      mstore\n      dup1\n      swap3\n      swap2\n      swap1\n      dup2\n      dup2\n      mstore\n      0x20\n      add\n      dup3\n      dup1\n      sload\n      0x01\n      dup2\n      0x01\n      and\n      iszero\n      0x0100\n      mul\n      sub\n      and\n      0x02\n      swap1\n      div\n      dup1\n      iszero\n      tag_180\n      jumpi\n      dup1\n      0x1f\n      lt\n      tag_181\n      jumpi\n      0x0100\n      dup1\n      dup4\n      sload\n      div\n      mul\n      dup4\n      mstore\n      swap2\n      0x20\n      add\n      swap2\n      jump(tag_180)\n    tag_181:\n      dup3\n      add\n      swap2\n      swap1\n      0x00\n      mstore\n      keccak256(0x00, 0x20)\n      swap1\n    tag_182:\n      dup2\n      sload\n      dup2\n      mstore\n      swap1\n      0x01\n      add\n      swap1\n      0x20\n      add\n      dup1\n      dup4\n      gt\n      tag_182\n      jumpi\n      dup3\n      swap1\n      sub\n      0x1f\n      and\n      dup3\n      add\n      swap2\n    tag_180:\n      pop\n      pop\n      pop\n      pop\n      pop\n        /* \"Mqttsc.sol\":2706:2712  _topic */\n      dup3\n        /* \"Mqttsc.sol\":2713:2714  j */\n      dup3\n        /* \"Mqttsc.sol\":2706:2715  _topic[j] */\n      dup2\n      mload\n      dup2\n      lt\n      tag_183\n      jumpi\n      invalid\n    tag_183:\n      0x20\n      mul\n      0x20\n      add\n      add\n        /* \"Mqttsc.sol\":2706:2736  _topic[j] = clientele.topic[j] */\n      dup2\n      swap1\n      mstore\n      pop\n        /* \"Mqttsc.sol\":2679:2682  j++ */\n      dup1\n      dup1\n      0x01\n      add\n      swap2\n      pop\n      pop\n        /* \"Mqttsc.sol\":2635:2756  for(uint j = 0; j < clientele.topic.length; j++){\r... */\n      jump(tag_175)\n    tag_176:\n      pop\n        /* \"Mqttsc.sol\":2803:2809  _topic */\n      dup1\n        /* \"Mqttsc.sol\":2774:2830  return(\r... */\n      swap4\n      pop\n      pop\n      pop\n      pop\n      jump(tag_165)\n        /* \"Mqttsc.sol\":2513:2846  if(_id == clientele.id){\r... */\n    tag_171:\n        /* \"Mqttsc.sol\":2396:2857  for(uint i = 0; i < clientLedger.length; i++){\r... */\n      pop\n        /* \"Mqttsc.sol\":2437:2440  i++ */\n      dup1\n      dup1\n      0x01\n      add\n      swap2\n      pop\n      pop\n        /* \"Mqttsc.sol\":2396:2857  for(uint i = 0; i < clientLedger.length; i++){\r... */\n      jump(tag_166)\n    tag_167:\n      pop\n        /* \"Mqttsc.sol\":7001:7002  _ */\n    tag_165:\n        /* \"Mqttsc.sol\":2311:2864  function getTopic(uint _id) isManager public view returns(string[] memory){\r... */\n      swap2\n      swap1\n      pop\n      jump\t// out\n        /* \"Mqttsc.sol\":3537:3901  function addClient(string memory _username, string memory _password) isManager public {\r... */\n    tag_47:\n        /* \"Mqttsc.sol\":6982:6989  manager */\n      0x00\n      dup1\n      sload\n      swap1\n      0x0100\n      exp\n      swap1\n      div\n      0xffffffffffffffffffffffffffffffffffffffff\n      and\n        /* \"Mqttsc.sol\":6968:6989  msg.sender == manager */\n      0xffffffffffffffffffffffffffffffffffffffff\n      and\n        /* \"Mqttsc.sol\":6968:6978  msg.sender */\n      caller\n        /* \"Mqttsc.sol\":6968:6989  msg.sender == manager */\n      0xffffffffffffffffffffffffffffffffffffffff\n      and\n      eq\n        /* \"Mqttsc.sol\":6960:6990  require(msg.sender == manager) */\n      tag_185\n      jumpi\n      0x00\n      dup1\n      revert\n    tag_185:\n        /* \"Mqttsc.sol\":3634:3657  Client memory newClient */\n      tag_187\n      tag_188\n      jump\t// in\n    tag_187:\n        /* \"Mqttsc.sol\":3660:3810  Client({\r... */\n      mload(0x40)\n      dup1\n      0x80\n      add\n      0x40\n      mstore\n      dup1\n        /* \"Mqttsc.sol\":3686:3693  idCount */\n      sload(0x03)\n        /* \"Mqttsc.sol\":3660:3810  Client({\r... */\n      dup2\n      mstore\n      0x20\n      add\n        /* \"Mqttsc.sol\":3718:3727  _username */\n      dup5\n        /* \"Mqttsc.sol\":3660:3810  Client({\r... */\n      dup2\n      mstore\n      0x20\n      add\n        /* \"Mqttsc.sol\":3752:3761  _password */\n      dup4\n        /* \"Mqttsc.sol\":3660:3810  Client({\r... */\n      dup2\n      mstore\n      0x20\n      add\n        /* \"Mqttsc.sol\":3796:3797  0 */\n      0x00\n        /* \"Mqttsc.sol\":3783:3798  new string[](0) */\n      0xffffffffffffffff\n      dup2\n      gt\n      dup1\n      iszero\n      tag_189\n      jumpi\n      0x00\n      dup1\n      revert\n    tag_189:\n      pop\n      mload(0x40)\n      swap1\n      dup1\n      dup3\n      mstore\n      dup1\n      0x20\n      mul\n      0x20\n      add\n      dup3\n      add\n      0x40\n      mstore\n      dup1\n      iszero\n      tag_190\n      jumpi\n      dup2\n      0x20\n      add\n    tag_191:\n      0x60\n      dup2\n      mstore\n      0x20\n      add\n      swap1\n      0x01\n      swap1\n      sub\n      swap1\n      dup2\n      tag_191\n      jumpi\n      swap1\n      pop\n    tag_190:\n      pop\n        /* \"Mqttsc.sol\":3660:3810  Client({\r... */\n      dup2\n      mstore\n      pop\n        /* \"Mqttsc.sol\":3634:3810  Client memory newClient = Client({\r... */\n      swap1\n      pop\n        /* \"Mqttsc.sol\":3821:3832  clientCount */\n      0x02\n      0x00\n        /* \"Mqttsc.sol\":3821:3834  clientCount++ */\n      dup2\n      sload\n      dup1\n      swap3\n      swap2\n      swap1\n      0x01\n      add\n      swap2\n      swap1\n      pop\n      sstore\n      pop\n        /* \"Mqttsc.sol\":3845:3852  idCount */\n      0x03\n      0x00\n        /* \"Mqttsc.sol\":3845:3854  idCount++ */\n      dup2\n      sload\n      dup1\n      swap3\n      swap2\n      swap1\n      0x01\n      add\n      swap2\n      swap1\n      pop\n      sstore\n      pop\n        /* \"Mqttsc.sol\":3865:3877  clientLedger */\n      0x01\n        /* \"Mqttsc.sol\":3883:3892  newClient */\n      dup2\n        /* \"Mqttsc.sol\":3865:3893  clientLedger.push(newClient) */\n      swap1\n      dup1\n      0x01\n      dup2\n      sload\n      add\n      dup1\n      dup3\n      sstore\n      dup1\n      swap2\n      pop\n      pop\n      0x01\n      swap1\n      sub\n      swap1\n      0x00\n      mstore\n      keccak256(0x00, 0x20)\n      swap1\n      0x04\n      mul\n      add\n      0x00\n      swap1\n      swap2\n      swap1\n      swap2\n      swap1\n      swap2\n      pop\n      0x00\n      dup3\n      add\n      mload\n      dup2\n      0x00\n      add\n      sstore\n      0x20\n      dup3\n      add\n      mload\n      dup2\n      0x01\n      add\n      swap1\n      dup1\n      mload\n      swap1\n      0x20\n      add\n      swap1\n      tag_193\n      swap3\n      swap2\n      swap1\n      tag_84\n      jump\t// in\n    tag_193:\n      pop\n      0x40\n      dup3\n      add\n      mload\n      dup2\n      0x02\n      add\n      swap1\n      dup1\n      mload\n      swap1\n      0x20\n      add\n      swap1\n      tag_194\n      swap3\n      swap2\n      swap1\n      tag_84\n      jump\t// in\n    tag_194:\n      pop\n      0x60\n      dup3\n      add\n      mload\n      dup2\n      0x03\n      add\n      swap1\n      dup1\n      mload\n      swap1\n      0x20\n      add\n      swap1\n      tag_195\n      swap3\n      swap2\n      swap1\n      tag_196\n      jump\t// in\n    tag_195:\n      pop\n      pop\n      pop\n        /* \"Mqttsc.sol\":7001:7002  _ */\n      pop\n        /* \"Mqttsc.sol\":3537:3901  function addClient(string memory _username, string memory _password) isManager public {\r... */\n      pop\n      pop\n      jump\t// out\n        /* \"Mqttsc.sol\":1326:1685  function deleteClient(uint _id) isManager public {\r... */\n    tag_50:\n        /* \"Mqttsc.sol\":6982:6989  manager */\n      0x00\n      dup1\n      sload\n      swap1\n      0x0100\n      exp\n      swap1\n      div\n      0xffffffffffffffffffffffffffffffffffffffff\n      and\n        /* \"Mqttsc.sol\":6968:6989  msg.sender == manager */\n      0xffffffffffffffffffffffffffffffffffffffff\n      and\n        /* \"Mqttsc.sol\":6968:6978  msg.sender */\n      caller\n        /* \"Mqttsc.sol\":6968:6989  msg.sender == manager */\n      0xffffffffffffffffffffffffffffffffffffffff\n      and\n      eq\n        /* \"Mqttsc.sol\":6960:6990  require(msg.sender == manager) */\n      tag_198\n      jumpi\n      0x00\n      dup1\n      revert\n    tag_198:\n        /* \"Mqttsc.sol\":1390:1396  uint i */\n      0x00\n        /* \"Mqttsc.sol\":1386:1678  for(uint i = 0; i < clientLedger.length; i++){\r... */\n    tag_200:\n        /* \"Mqttsc.sol\":1406:1418  clientLedger */\n      0x01\n        /* \"Mqttsc.sol\":1406:1425  clientLedger.length */\n      dup1\n      sload\n      swap1\n      pop\n        /* \"Mqttsc.sol\":1402:1403  i */\n      dup2\n        /* \"Mqttsc.sol\":1402:1425  i < clientLedger.length */\n      lt\n        /* \"Mqttsc.sol\":1386:1678  for(uint i = 0; i < clientLedger.length; i++){\r... */\n      iszero\n      tag_201\n      jumpi\n        /* \"Mqttsc.sol\":1456:1468  clientLedger */\n      0x01\n        /* \"Mqttsc.sol\":1469:1470  i */\n      dup2\n        /* \"Mqttsc.sol\":1456:1471  clientLedger[i] */\n      dup2\n      sload\n      dup2\n      lt\n      tag_203\n      jumpi\n      invalid\n    tag_203:\n      swap1\n      0x00\n      mstore\n      keccak256(0x00, 0x20)\n      swap1\n      0x04\n      mul\n      add\n        /* \"Mqttsc.sol\":1456:1474  clientLedger[i].id */\n      0x00\n      add\n      sload\n        /* \"Mqttsc.sol\":1449:1452  _id */\n      dup3\n        /* \"Mqttsc.sol\":1449:1474  _id == clientLedger[i].id */\n      eq\n        /* \"Mqttsc.sol\":1446:1667  if(_id == clientLedger[i].id){\r... */\n      iszero\n      tag_205\n      jumpi\n        /* \"Mqttsc.sol\":1504:1508  true */\n      0x01\n        /* \"Mqttsc.sol\":1494:1501  changed */\n      0x04\n      0x00\n        /* \"Mqttsc.sol\":1494:1508  changed = true */\n      0x0100\n      exp\n      dup2\n      sload\n      dup2\n      0xff\n      mul\n      not\n      and\n      swap1\n      dup4\n      iszero\n      iszero\n      mul\n      or\n      swap1\n      sstore\n      pop\n        /* \"Mqttsc.sol\":1545:1557  clientLedger */\n      0x01\n        /* \"Mqttsc.sol\":1580:1581  1 */\n      dup1\n        /* \"Mqttsc.sol\":1558:1570  clientLedger */\n      dup1\n        /* \"Mqttsc.sol\":1558:1577  clientLedger.length */\n      dup1\n      sload\n      swap1\n      pop\n        /* \"Mqttsc.sol\":1558:1581  clientLedger.length - 1 */\n      sub\n        /* \"Mqttsc.sol\":1545:1582  clientLedger[clientLedger.length - 1] */\n      dup2\n      sload\n      dup2\n      lt\n      tag_206\n      jumpi\n      invalid\n    tag_206:\n      swap1\n      0x00\n      mstore\n      keccak256(0x00, 0x20)\n      swap1\n      0x04\n      mul\n      add\n        /* \"Mqttsc.sol\":1527:1539  clientLedger */\n      0x01\n        /* \"Mqttsc.sol\":1540:1541  i */\n      dup3\n        /* \"Mqttsc.sol\":1527:1542  clientLedger[i] */\n      dup2\n      sload\n      dup2\n      lt\n      tag_208\n      jumpi\n      invalid\n    tag_208:\n      swap1\n      0x00\n      mstore\n      keccak256(0x00, 0x20)\n      swap1\n      0x04\n      mul\n      add\n        /* \"Mqttsc.sol\":1527:1582  clientLedger[i] = clientLedger[clientLedger.length - 1] */\n      0x00\n      dup3\n      add\n      sload\n      dup2\n      0x00\n      add\n      sstore\n      0x01\n      dup3\n      add\n      dup2\n      0x01\n      add\n      swap1\n      dup1\n      sload\n      0x01\n      dup2\n      0x01\n      and\n      iszero\n      0x0100\n      mul\n      sub\n      and\n      0x02\n      swap1\n      div\n      tag_210\n      swap3\n      swap2\n      swap1\n      tag_211\n      jump\t// in\n    tag_210:\n      pop\n      0x02\n      dup3\n      add\n      dup2\n      0x02\n      add\n      swap1\n      dup1\n      sload\n      0x01\n      dup2\n      0x01\n      and\n      iszero\n      0x0100\n      mul\n      sub\n      and\n      0x02\n      swap1\n      div\n      tag_212\n      swap3\n      swap2\n      swap1\n      tag_211\n      jump\t// in\n    tag_212:\n      pop\n      0x03\n      dup3\n      add\n      dup2\n      0x03\n      add\n      swap1\n      dup1\n      sload\n      tag_213\n      swap3\n      swap2\n      swap1\n      tag_214\n      jump\t// in\n    tag_213:\n      pop\n      swap1\n      pop\n      pop\n        /* \"Mqttsc.sol\":1601:1613  clientLedger */\n      0x01\n        /* \"Mqttsc.sol\":1601:1619  clientLedger.pop() */\n      dup1\n      sload\n      dup1\n      tag_215\n      jumpi\n      invalid\n    tag_215:\n      0x01\n      swap1\n      sub\n      dup2\n      dup2\n      swap1\n      0x00\n      mstore\n      keccak256(0x00, 0x20)\n      swap1\n      0x04\n      mul\n      add\n      0x00\n      dup1\n      dup3\n      add\n      0x00\n      swap1\n      sstore\n      0x01\n      dup3\n      add\n      0x00\n      tag_217\n      swap2\n      swap1\n      tag_123\n      jump\t// in\n    tag_217:\n      0x02\n      dup3\n      add\n      0x00\n      tag_218\n      swap2\n      swap1\n      tag_123\n      jump\t// in\n    tag_218:\n      0x03\n      dup3\n      add\n      0x00\n      tag_219\n      swap2\n      swap1\n      tag_220\n      jump\t// in\n    tag_219:\n      pop\n      pop\n      swap1\n      sstore\n        /* \"Mqttsc.sol\":1638:1649  clientCount */\n      0x02\n      0x00\n        /* \"Mqttsc.sol\":1638:1651  clientCount-- */\n      dup2\n      sload\n      dup1\n      swap3\n      swap2\n      swap1\n      0x01\n      swap1\n      sub\n      swap2\n      swap1\n      pop\n      sstore\n      pop\n        /* \"Mqttsc.sol\":1446:1667  if(_id == clientLedger[i].id){\r... */\n    tag_205:\n        /* \"Mqttsc.sol\":1427:1430  i++ */\n      dup1\n      dup1\n      0x01\n      add\n      swap2\n      pop\n      pop\n        /* \"Mqttsc.sol\":1386:1678  for(uint i = 0; i < clientLedger.length; i++){\r... */\n      jump(tag_200)\n    tag_201:\n      pop\n        /* \"Mqttsc.sol\":1326:1685  function deleteClient(uint _id) isManager public {\r... */\n      pop\n      jump\t// out\n        /* \"Mqttsc.sol\":5883:6387  function authenticate(uint _id, string memory _username, string memory _password) isManager public view returns (bool) {\r... */\n    tag_54:\n        /* \"Mqttsc.sol\":5996:6000  bool */\n      0x00\n        /* \"Mqttsc.sol\":6982:6989  manager */\n      dup1\n      0x00\n      swap1\n      sload\n      swap1\n      0x0100\n      exp\n      swap1\n      div\n      0xffffffffffffffffffffffffffffffffffffffff\n      and\n        /* \"Mqttsc.sol\":6968:6989  msg.sender == manager */\n      0xffffffffffffffffffffffffffffffffffffffff\n      and\n        /* \"Mqttsc.sol\":6968:6978  msg.sender */\n      caller\n        /* \"Mqttsc.sol\":6968:6989  msg.sender == manager */\n      0xffffffffffffffffffffffffffffffffffffffff\n      and\n      eq\n        /* \"Mqttsc.sol\":6960:6990  require(msg.sender == manager) */\n      tag_222\n      jumpi\n      0x00\n      dup1\n      revert\n    tag_222:\n        /* \"Mqttsc.sol\":6017:6023  uint i */\n      0x00\n        /* \"Mqttsc.sol\":6013:6357  for(uint i = 0; i < clientLedger.length; i++){\r... */\n    tag_224:\n        /* \"Mqttsc.sol\":6033:6045  clientLedger */\n      0x01\n        /* \"Mqttsc.sol\":6033:6052  clientLedger.length */\n      dup1\n      sload\n      swap1\n      pop\n        /* \"Mqttsc.sol\":6029:6030  i */\n      dup2\n        /* \"Mqttsc.sol\":6029:6052  i < clientLedger.length */\n      lt\n        /* \"Mqttsc.sol\":6013:6357  for(uint i = 0; i < clientLedger.length; i++){\r... */\n      iszero\n      tag_225\n      jumpi\n        /* \"Mqttsc.sol\":6083:6095  clientLedger */\n      0x01\n        /* \"Mqttsc.sol\":6096:6097  i */\n      dup2\n        /* \"Mqttsc.sol\":6083:6098  clientLedger[i] */\n      dup2\n      sload\n      dup2\n      lt\n      tag_227\n      jumpi\n      invalid\n    tag_227:\n      swap1\n      0x00\n      mstore\n      keccak256(0x00, 0x20)\n      swap1\n      0x04\n      mul\n      add\n        /* \"Mqttsc.sol\":6083:6101  clientLedger[i].id */\n      0x00\n      add\n      sload\n        /* \"Mqttsc.sol\":6076:6079  _id */\n      dup6\n        /* \"Mqttsc.sol\":6076:6101  _id == clientLedger[i].id */\n      eq\n        /* \"Mqttsc.sol\":6076:6200  _id == clientLedger[i].id && keccak256(abi.encodePacked(_username)) == keccak256(abi.encodePacked(clientLedger[i].username)) */\n      dup1\n      iszero\n      tag_229\n      jumpi\n      pop\n        /* \"Mqttsc.sol\":6174:6186  clientLedger */\n      0x01\n        /* \"Mqttsc.sol\":6187:6188  i */\n      dup2\n        /* \"Mqttsc.sol\":6174:6189  clientLedger[i] */\n      dup2\n      sload\n      dup2\n      lt\n      tag_230\n      jumpi\n      invalid\n    tag_230:\n      swap1\n      0x00\n      mstore\n      keccak256(0x00, 0x20)\n      swap1\n      0x04\n      mul\n      add\n        /* \"Mqttsc.sol\":6174:6198  clientLedger[i].username */\n      0x01\n      add\n        /* \"Mqttsc.sol\":6157:6199  abi.encodePacked(clientLedger[i].username) */\n      add(0x20, mload(0x40))\n      tag_232\n      swap2\n      swap1\n      tag_77\n      jump\t// in\n    tag_232:\n      mload(0x40)\n      0x20\n      dup2\n      dup4\n      sub\n      sub\n      dup2\n      mstore\n      swap1\n      0x40\n      mstore\n        /* \"Mqttsc.sol\":6147:6200  keccak256(abi.encodePacked(clientLedger[i].username)) */\n      dup1\n      mload\n      swap1\n      0x20\n      add\n      keccak256\n        /* \"Mqttsc.sol\":6132:6141  _username */\n      dup5\n        /* \"Mqttsc.sol\":6115:6142  abi.encodePacked(_username) */\n      add(0x20, mload(0x40))\n      tag_233\n      swap2\n      swap1\n      tag_79\n      jump\t// in\n    tag_233:\n      mload(0x40)\n      0x20\n      dup2\n      dup4\n      sub\n      sub\n      dup2\n      mstore\n      swap1\n      0x40\n      mstore\n        /* \"Mqttsc.sol\":6105:6143  keccak256(abi.encodePacked(_username)) */\n      dup1\n      mload\n      swap1\n      0x20\n      add\n      keccak256\n        /* \"Mqttsc.sol\":6105:6200  keccak256(abi.encodePacked(_username)) == keccak256(abi.encodePacked(clientLedger[i].username)) */\n      eq\n        /* \"Mqttsc.sol\":6076:6200  _id == clientLedger[i].id && keccak256(abi.encodePacked(_username)) == keccak256(abi.encodePacked(clientLedger[i].username)) */\n    tag_229:\n        /* \"Mqttsc.sol\":6076:6299  _id == clientLedger[i].id && keccak256(abi.encodePacked(_username)) == keccak256(abi.encodePacked(clientLedger[i].username)) && keccak256(abi.encodePacked(_password)) == keccak256(abi.encodePacked(clientLedger[i].password)) */\n      dup1\n      iszero\n      tag_234\n      jumpi\n      pop\n        /* \"Mqttsc.sol\":6273:6285  clientLedger */\n      0x01\n        /* \"Mqttsc.sol\":6286:6287  i */\n      dup2\n        /* \"Mqttsc.sol\":6273:6288  clientLedger[i] */\n      dup2\n      sload\n      dup2\n      lt\n      tag_235\n      jumpi\n      invalid\n    tag_235:\n      swap1\n      0x00\n      mstore\n      keccak256(0x00, 0x20)\n      swap1\n      0x04\n      mul\n      add\n        /* \"Mqttsc.sol\":6273:6297  clientLedger[i].password */\n      0x02\n      add\n        /* \"Mqttsc.sol\":6256:6298  abi.encodePacked(clientLedger[i].password) */\n      add(0x20, mload(0x40))\n      tag_237\n      swap2\n      swap1\n      tag_77\n      jump\t// in\n    tag_237:\n      mload(0x40)\n      0x20\n      dup2\n      dup4\n      sub\n      sub\n      dup2\n      mstore\n      swap1\n      0x40\n      mstore\n        /* \"Mqttsc.sol\":6246:6299  keccak256(abi.encodePacked(clientLedger[i].password)) */\n      dup1\n      mload\n      swap1\n      0x20\n      add\n      keccak256\n        /* \"Mqttsc.sol\":6231:6240  _password */\n      dup4\n        /* \"Mqttsc.sol\":6214:6241  abi.encodePacked(_password) */\n      add(0x20, mload(0x40))\n      tag_238\n      swap2\n      swap1\n      tag_79\n      jump\t// in\n    tag_238:\n      mload(0x40)\n      0x20\n      dup2\n      dup4\n      sub\n      sub\n      dup2\n      mstore\n      swap1\n      0x40\n      mstore\n        /* \"Mqttsc.sol\":6204:6242  keccak256(abi.encodePacked(_password)) */\n      dup1\n      mload\n      swap1\n      0x20\n      add\n      keccak256\n        /* \"Mqttsc.sol\":6204:6299  keccak256(abi.encodePacked(_password)) == keccak256(abi.encodePacked(clientLedger[i].password)) */\n      eq\n        /* \"Mqttsc.sol\":6076:6299  _id == clientLedger[i].id && keccak256(abi.encodePacked(_username)) == keccak256(abi.encodePacked(clientLedger[i].username)) && keccak256(abi.encodePacked(_password)) == keccak256(abi.encodePacked(clientLedger[i].password)) */\n    tag_234:\n        /* \"Mqttsc.sol\":6073:6346  if(_id == clientLedger[i].id && keccak256(abi.encodePacked(_username)) == keccak256(abi.encodePacked(clientLedger[i].username)) && keccak256(abi.encodePacked(_password)) == keccak256(abi.encodePacked(clientLedger[i].password))){\r... */\n      iszero\n      tag_239\n      jumpi\n        /* \"Mqttsc.sol\":6326:6330  true */\n      0x01\n        /* \"Mqttsc.sol\":6319:6330  return true */\n      swap2\n      pop\n      pop\n      jump(tag_223)\n        /* \"Mqttsc.sol\":6073:6346  if(_id == clientLedger[i].id && keccak256(abi.encodePacked(_username)) == keccak256(abi.encodePacked(clientLedger[i].username)) && keccak256(abi.encodePacked(_password)) == keccak256(abi.encodePacked(clientLedger[i].password))){\r... */\n    tag_239:\n        /* \"Mqttsc.sol\":6054:6057  i++ */\n      dup1\n      dup1\n      0x01\n      add\n      swap2\n      pop\n      pop\n        /* \"Mqttsc.sol\":6013:6357  for(uint i = 0; i < clientLedger.length; i++){\r... */\n      jump(tag_224)\n    tag_225:\n      pop\n        /* \"Mqttsc.sol\":6374:6379  false */\n      0x00\n        /* \"Mqttsc.sol\":6367:6379  return false */\n      swap1\n      pop\n        /* \"Mqttsc.sol\":7001:7002  _ */\n    tag_223:\n        /* \"Mqttsc.sol\":5883:6387  function authenticate(uint _id, string memory _username, string memory _password) isManager public view returns (bool) {\r... */\n      swap4\n      swap3\n      pop\n      pop\n      pop\n      jump\t// out\n        /* \"Mqttsc.sol\":3919:4477  function updateTopic(uint _id, string memory _topic, string memory _newtopic) isManager public{\r... */\n    tag_58:\n        /* \"Mqttsc.sol\":6982:6989  manager */\n      0x00\n      dup1\n      sload\n      swap1\n      0x0100\n      exp\n      swap1\n      div\n      0xffffffffffffffffffffffffffffffffffffffff\n      and\n        /* \"Mqttsc.sol\":6968:6989  msg.sender == manager */\n      0xffffffffffffffffffffffffffffffffffffffff\n      and\n        /* \"Mqttsc.sol\":6968:6978  msg.sender */\n      caller\n        /* \"Mqttsc.sol\":6968:6989  msg.sender == manager */\n      0xffffffffffffffffffffffffffffffffffffffff\n      and\n      eq\n        /* \"Mqttsc.sol\":6960:6990  require(msg.sender == manager) */\n      tag_241\n      jumpi\n      0x00\n      dup1\n      revert\n    tag_241:\n        /* \"Mqttsc.sol\":4028:4034  uint i */\n      0x00\n        /* \"Mqttsc.sol\":4024:4470  for(uint i = 0; i < clientLedger.length; i++){\r... */\n    tag_243:\n        /* \"Mqttsc.sol\":4044:4056  clientLedger */\n      0x01\n        /* \"Mqttsc.sol\":4044:4063  clientLedger.length */\n      dup1\n      sload\n      swap1\n      pop\n        /* \"Mqttsc.sol\":4040:4041  i */\n      dup2\n        /* \"Mqttsc.sol\":4040:4063  i < clientLedger.length */\n      lt\n        /* \"Mqttsc.sol\":4024:4470  for(uint i = 0; i < clientLedger.length; i++){\r... */\n      iszero\n      tag_244\n      jumpi\n        /* \"Mqttsc.sol\":4084:4108  Client storage clientele */\n      0x00\n        /* \"Mqttsc.sol\":4111:4123  clientLedger */\n      0x01\n        /* \"Mqttsc.sol\":4124:4125  i */\n      dup3\n        /* \"Mqttsc.sol\":4111:4126  clientLedger[i] */\n      dup2\n      sload\n      dup2\n      lt\n      tag_246\n      jumpi\n      invalid\n    tag_246:\n      swap1\n      0x00\n      mstore\n      keccak256(0x00, 0x20)\n      swap1\n      0x04\n      mul\n      add\n        /* \"Mqttsc.sol\":4084:4126  Client storage clientele = clientLedger[i] */\n      swap1\n      pop\n        /* \"Mqttsc.sol\":4151:4160  clientele */\n      dup1\n        /* \"Mqttsc.sol\":4151:4163  clientele.id */\n      0x00\n      add\n      sload\n        /* \"Mqttsc.sol\":4144:4147  _id */\n      dup6\n        /* \"Mqttsc.sol\":4144:4163  _id == clientele.id */\n      eq\n        /* \"Mqttsc.sol\":4141:4459  if(_id == clientele.id){\r... */\n      iszero\n      tag_248\n      jumpi\n        /* \"Mqttsc.sol\":4187:4193  uint j */\n      0x00\n        /* \"Mqttsc.sol\":4183:4444  for(uint j = 0; j < clientele.topic.length; j++){\r... */\n    tag_249:\n        /* \"Mqttsc.sol\":4203:4212  clientele */\n      dup2\n        /* \"Mqttsc.sol\":4203:4218  clientele.topic */\n      0x03\n      add\n        /* \"Mqttsc.sol\":4203:4225  clientele.topic.length */\n      dup1\n      sload\n      swap1\n      pop\n        /* \"Mqttsc.sol\":4199:4200  j */\n      dup2\n        /* \"Mqttsc.sol\":4199:4225  j < clientele.topic.length */\n      lt\n        /* \"Mqttsc.sol\":4183:4444  for(uint j = 0; j < clientele.topic.length; j++){\r... */\n      iszero\n      tag_250\n      jumpi\n        /* \"Mqttsc.sol\":4335:4341  _topic */\n      dup5\n        /* \"Mqttsc.sol\":4318:4342  abi.encodePacked(_topic) */\n      add(0x20, mload(0x40))\n      tag_252\n      swap2\n      swap1\n      tag_79\n      jump\t// in\n    tag_252:\n      mload(0x40)\n      0x20\n      dup2\n      dup4\n      sub\n      sub\n      dup2\n      mstore\n      swap1\n      0x40\n      mstore\n        /* \"Mqttsc.sol\":4308:4343  keccak256(abi.encodePacked(_topic)) */\n      dup1\n      mload\n      swap1\n      0x20\n      add\n      keccak256\n        /* \"Mqttsc.sol\":4284:4293  clientele */\n      dup3\n        /* \"Mqttsc.sol\":4284:4299  clientele.topic */\n      0x03\n      add\n        /* \"Mqttsc.sol\":4300:4301  j */\n      dup3\n        /* \"Mqttsc.sol\":4284:4302  clientele.topic[j] */\n      dup2\n      sload\n      dup2\n      lt\n      tag_253\n      jumpi\n      invalid\n    tag_253:\n      swap1\n      0x00\n      mstore\n      keccak256(0x00, 0x20)\n      add\n        /* \"Mqttsc.sol\":4267:4303  abi.encodePacked(clientele.topic[j]) */\n      add(0x20, mload(0x40))\n      tag_255\n      swap2\n      swap1\n      tag_77\n      jump\t// in\n    tag_255:\n      mload(0x40)\n      0x20\n      dup2\n      dup4\n      sub\n      sub\n      dup2\n      mstore\n      swap1\n      0x40\n      mstore\n        /* \"Mqttsc.sol\":4257:4304  keccak256(abi.encodePacked(clientele.topic[j])) */\n      dup1\n      mload\n      swap1\n      0x20\n      add\n      keccak256\n        /* \"Mqttsc.sol\":4257:4343  keccak256(abi.encodePacked(clientele.topic[j])) == keccak256(abi.encodePacked(_topic)) */\n      eq\n        /* \"Mqttsc.sol\":4254:4425  if(keccak256(abi.encodePacked(clientele.topic[j])) == keccak256(abi.encodePacked(_topic))){\r... */\n      iszero\n      tag_256\n      jumpi\n        /* \"Mqttsc.sol\":4392:4401  _newtopic */\n      dup4\n        /* \"Mqttsc.sol\":4371:4380  clientele */\n      dup3\n        /* \"Mqttsc.sol\":4371:4386  clientele.topic */\n      0x03\n      add\n        /* \"Mqttsc.sol\":4387:4388  j */\n      dup3\n        /* \"Mqttsc.sol\":4371:4389  clientele.topic[j] */\n      dup2\n      sload\n      dup2\n      lt\n      tag_257\n      jumpi\n      invalid\n    tag_257:\n      swap1\n      0x00\n      mstore\n      keccak256(0x00, 0x20)\n      add\n        /* \"Mqttsc.sol\":4371:4401  clientele.topic[j] = _newtopic */\n      swap1\n      dup1\n      mload\n      swap1\n      0x20\n      add\n      swap1\n      tag_259\n      swap3\n      swap2\n      swap1\n      tag_84\n      jump\t// in\n    tag_259:\n      pop\n        /* \"Mqttsc.sol\":4254:4425  if(keccak256(abi.encodePacked(clientele.topic[j])) == keccak256(abi.encodePacked(_topic))){\r... */\n    tag_256:\n        /* \"Mqttsc.sol\":4227:4230  j++ */\n      dup1\n      dup1\n      0x01\n      add\n      swap2\n      pop\n      pop\n        /* \"Mqttsc.sol\":4183:4444  for(uint j = 0; j < clientele.topic.length; j++){\r... */\n      jump(tag_249)\n    tag_250:\n      pop\n        /* \"Mqttsc.sol\":4141:4459  if(_id == clientele.id){\r... */\n    tag_248:\n        /* \"Mqttsc.sol\":4024:4470  for(uint i = 0; i < clientLedger.length; i++){\r... */\n      pop\n        /* \"Mqttsc.sol\":4065:4068  i++ */\n      dup1\n      dup1\n      0x01\n      add\n      swap2\n      pop\n      pop\n        /* \"Mqttsc.sol\":4024:4470  for(uint i = 0; i < clientLedger.length; i++){\r... */\n      jump(tag_243)\n    tag_244:\n      pop\n        /* \"Mqttsc.sol\":3919:4477  function updateTopic(uint _id, string memory _topic, string memory _newtopic) isManager public{\r... */\n      pop\n      pop\n      pop\n      jump\t// out\n    tag_84:\n      dup3\n      dup1\n      sload\n      0x01\n      dup2\n      0x01\n      and\n      iszero\n      0x0100\n      mul\n      sub\n      and\n      0x02\n      swap1\n      div\n      swap1\n      0x00\n      mstore\n      keccak256(0x00, 0x20)\n      swap1\n      0x1f\n      add\n      0x20\n      swap1\n      div\n      dup2\n      add\n      swap3\n      dup3\n      0x1f\n      lt\n      tag_261\n      jumpi\n      dup1\n      mload\n      not(0xff)\n      and\n      dup4\n      dup1\n      add\n      or\n      dup6\n      sstore\n      jump(tag_260)\n    tag_261:\n      dup3\n      dup1\n      add\n      0x01\n      add\n      dup6\n      sstore\n      dup3\n      iszero\n      tag_260\n      jumpi\n      swap2\n      dup3\n      add\n    tag_262:\n      dup3\n      dup2\n      gt\n      iszero\n      tag_263\n      jumpi\n      dup3\n      mload\n      dup3\n      sstore\n      swap2\n      0x20\n      add\n      swap2\n      swap1\n      0x01\n      add\n      swap1\n      jump(tag_262)\n    tag_263:\n    tag_260:\n      pop\n      swap1\n      pop\n      tag_264\n      swap2\n      swap1\n      tag_265\n      jump\t// in\n    tag_264:\n      pop\n      swap1\n      jump\t// out\n    tag_117:\n      dup3\n      dup1\n      sload\n      0x01\n      dup2\n      0x01\n      and\n      iszero\n      0x0100\n      mul\n      sub\n      and\n      0x02\n      swap1\n      div\n      swap1\n      0x00\n      mstore\n      keccak256(0x00, 0x20)\n      swap1\n      0x1f\n      add\n      0x20\n      swap1\n      div\n      dup2\n      add\n      swap3\n      dup3\n      0x1f\n      lt\n      tag_267\n      jumpi\n      dup1\n      sload\n      dup6\n      sstore\n      jump(tag_266)\n    tag_267:\n      dup3\n      dup1\n      add\n      0x01\n      add\n      dup6\n      sstore\n      dup3\n      iszero\n      tag_266\n      jumpi\n      0x00\n      mstore\n      keccak256(0x00, 0x20)\n      swap2\n      0x1f\n      add\n      0x20\n      swap1\n      div\n      dup3\n      add\n    tag_268:\n      dup3\n      dup2\n      gt\n      iszero\n      tag_269\n      jumpi\n      dup3\n      sload\n      dup3\n      sstore\n      swap2\n      0x01\n      add\n      swap2\n      swap1\n      0x01\n      add\n      swap1\n      jump(tag_268)\n    tag_269:\n    tag_266:\n      pop\n      swap1\n      pop\n      tag_270\n      swap2\n      swap1\n      tag_265\n      jump\t// in\n    tag_270:\n      pop\n      swap1\n      jump\t// out\n    tag_123:\n      pop\n      dup1\n      sload\n      0x01\n      dup2\n      0x01\n      and\n      iszero\n      0x0100\n      mul\n      sub\n      and\n      0x02\n      swap1\n      div\n      0x00\n      dup3\n      sstore\n      dup1\n      0x1f\n      lt\n      tag_272\n      jumpi\n      pop\n      jump(tag_271)\n    tag_272:\n      0x1f\n      add\n      0x20\n      swap1\n      div\n      swap1\n      0x00\n      mstore\n      keccak256(0x00, 0x20)\n      swap1\n      dup2\n      add\n      swap1\n      tag_273\n      swap2\n      swap1\n      tag_265\n      jump\t// in\n    tag_273:\n    tag_271:\n      pop\n      jump\t// out\n    tag_188:\n      mload(0x40)\n      dup1\n      0x80\n      add\n      0x40\n      mstore\n      dup1\n      0x00\n      dup2\n      mstore\n      0x20\n      add\n      0x60\n      dup2\n      mstore\n      0x20\n      add\n      0x60\n      dup2\n      mstore\n      0x20\n      add\n      0x60\n      dup2\n      mstore\n      pop\n      swap1\n      jump\t// out\n    tag_196:\n      dup3\n      dup1\n      sload\n      dup3\n      dup3\n      sstore\n      swap1\n      0x00\n      mstore\n      keccak256(0x00, 0x20)\n      swap1\n      dup2\n      add\n      swap3\n      dup3\n      iszero\n      tag_274\n      jumpi\n      swap2\n      0x20\n      mul\n      dup3\n      add\n    tag_275:\n      dup3\n      dup2\n      gt\n      iszero\n      tag_276\n      jumpi\n      dup3\n      mload\n      dup3\n      swap1\n      dup1\n      mload\n      swap1\n      0x20\n      add\n      swap1\n      tag_277\n      swap3\n      swap2\n      swap1\n      tag_84\n      jump\t// in\n    tag_277:\n      pop\n      swap2\n      0x20\n      add\n      swap2\n      swap1\n      0x01\n      add\n      swap1\n      jump(tag_275)\n    tag_276:\n    tag_274:\n      pop\n      swap1\n      pop\n      tag_278\n      swap2\n      swap1\n      tag_279\n      jump\t// in\n    tag_278:\n      pop\n      swap1\n      jump\t// out\n    tag_211:\n      dup3\n      dup1\n      sload\n      0x01\n      dup2\n      0x01\n      and\n      iszero\n      0x0100\n      mul\n      sub\n      and\n      0x02\n      swap1\n      div\n      swap1\n      0x00\n      mstore\n      keccak256(0x00, 0x20)\n      swap1\n      0x1f\n      add\n      0x20\n      swap1\n      div\n      dup2\n      add\n      swap3\n      dup3\n      0x1f\n      lt\n      tag_281\n      jumpi\n      dup1\n      sload\n      dup6\n      sstore\n      jump(tag_280)\n    tag_281:\n      dup3\n      dup1\n      add\n      0x01\n      add\n      dup6\n      sstore\n      dup3\n      iszero\n      tag_280\n      jumpi\n      0x00\n      mstore\n      keccak256(0x00, 0x20)\n      swap2\n      0x1f\n      add\n      0x20\n      swap1\n      div\n      dup3\n      add\n    tag_282:\n      dup3\n      dup2\n      gt\n      iszero\n      tag_283\n      jumpi\n      dup3\n      sload\n      dup3\n      sstore\n      swap2\n      0x01\n      add\n      swap2\n      swap1\n      0x01\n      add\n      swap1\n      jump(tag_282)\n    tag_283:\n    tag_280:\n      pop\n      swap1\n      pop\n      tag_284\n      swap2\n      swap1\n      tag_265\n      jump\t// in\n    tag_284:\n      pop\n      swap1\n      jump\t// out\n    tag_214:\n      dup3\n      dup1\n      sload\n      dup3\n      dup3\n      sstore\n      swap1\n      0x00\n      mstore\n      keccak256(0x00, 0x20)\n      swap1\n      dup2\n      add\n      swap3\n      dup3\n      iszero\n      tag_285\n      jumpi\n      0x00\n      mstore\n      keccak256(0x00, 0x20)\n      swap2\n      dup3\n      add\n    tag_286:\n      dup3\n      dup2\n      gt\n      iszero\n      tag_287\n      jumpi\n      dup3\n      dup3\n      swap1\n      dup1\n      sload\n      0x01\n      dup2\n      0x01\n      and\n      iszero\n      0x0100\n      mul\n      sub\n      and\n      0x02\n      swap1\n      div\n      tag_288\n      swap3\n      swap2\n      swap1\n      tag_211\n      jump\t// in\n    tag_288:\n      pop\n      swap2\n      0x01\n      add\n      swap2\n      swap1\n      0x01\n      add\n      swap1\n      jump(tag_286)\n    tag_287:\n    tag_285:\n      pop\n      swap1\n      pop\n      tag_289\n      swap2\n      swap1\n      tag_279\n      jump\t// in\n    tag_289:\n      pop\n      swap1\n      jump\t// out\n    tag_220:\n      pop\n      dup1\n      sload\n      0x00\n      dup3\n      sstore\n      swap1\n      0x00\n      mstore\n      keccak256(0x00, 0x20)\n      swap1\n      dup2\n      add\n      swap1\n      tag_291\n      swap2\n      swap1\n      tag_279\n      jump\t// in\n    tag_291:\n      pop\n      jump\t// out\n    tag_265:\n    tag_292:\n      dup1\n      dup3\n      gt\n      iszero\n      tag_293\n      jumpi\n      0x00\n      dup2\n      0x00\n      swap1\n      sstore\n      pop\n      0x01\n      add\n      jump(tag_292)\n    tag_293:\n      pop\n      swap1\n      jump\t// out\n    tag_279:\n    tag_294:\n      dup1\n      dup3\n      gt\n      iszero\n      tag_295\n      jumpi\n      0x00\n      dup2\n      dup2\n      tag_296\n      swap2\n      swap1\n      tag_123\n      jump\t// in\n    tag_296:\n      pop\n      0x01\n      add\n      jump(tag_294)\n    tag_295:\n      pop\n      swap1\n      jump\t// out\n        /* \"--CODEGEN--\":6:448   */\n    tag_298:\n      0x00\n        /* \"--CODEGEN--\":108:111   */\n      dup3\n        /* \"--CODEGEN--\":101:105   */\n      0x1f\n        /* \"--CODEGEN--\":93:99   */\n      dup4\n        /* \"--CODEGEN--\":89:106   */\n      add\n        /* \"--CODEGEN--\":85:112   */\n      slt\n        /* \"--CODEGEN--\":75:77   */\n      tag_300\n      jumpi\n        /* \"--CODEGEN--\":126:127   */\n      0x00\n        /* \"--CODEGEN--\":123:124   */\n      dup1\n        /* \"--CODEGEN--\":116:128   */\n      revert\n        /* \"--CODEGEN--\":75:77   */\n    tag_300:\n        /* \"--CODEGEN--\":163:169   */\n      dup2\n        /* \"--CODEGEN--\":150:170   */\n      calldataload\n        /* \"--CODEGEN--\":185:250   */\n      tag_301\n        /* \"--CODEGEN--\":200:249   */\n      tag_302\n        /* \"--CODEGEN--\":242:248   */\n      dup3\n        /* \"--CODEGEN--\":200:249   */\n      tag_303\n      jump\t// in\n    tag_302:\n        /* \"--CODEGEN--\":185:250   */\n      tag_304\n      jump\t// in\n    tag_301:\n        /* \"--CODEGEN--\":176:250   */\n      swap2\n      pop\n        /* \"--CODEGEN--\":270:276   */\n      dup1\n        /* \"--CODEGEN--\":263:268   */\n      dup3\n        /* \"--CODEGEN--\":256:277   */\n      mstore\n        /* \"--CODEGEN--\":306:310   */\n      0x20\n        /* \"--CODEGEN--\":298:304   */\n      dup4\n        /* \"--CODEGEN--\":294:311   */\n      add\n        /* \"--CODEGEN--\":339:343   */\n      0x20\n        /* \"--CODEGEN--\":332:337   */\n      dup4\n        /* \"--CODEGEN--\":328:344   */\n      add\n        /* \"--CODEGEN--\":374:377   */\n      dup6\n        /* \"--CODEGEN--\":365:371   */\n      dup4\n        /* \"--CODEGEN--\":360:363   */\n      dup4\n        /* \"--CODEGEN--\":356:372   */\n      add\n        /* \"--CODEGEN--\":353:378   */\n      gt\n        /* \"--CODEGEN--\":350:352   */\n      iszero\n      tag_305\n      jumpi\n        /* \"--CODEGEN--\":391:392   */\n      0x00\n        /* \"--CODEGEN--\":388:389   */\n      dup1\n        /* \"--CODEGEN--\":381:393   */\n      revert\n        /* \"--CODEGEN--\":350:352   */\n    tag_305:\n        /* \"--CODEGEN--\":401:442   */\n      tag_306\n        /* \"--CODEGEN--\":435:441   */\n      dup4\n        /* \"--CODEGEN--\":430:433   */\n      dup3\n        /* \"--CODEGEN--\":425:428   */\n      dup5\n        /* \"--CODEGEN--\":401:442   */\n      tag_307\n      jump\t// in\n    tag_306:\n        /* \"--CODEGEN--\":68:448   */\n      pop\n      pop\n      pop\n      swap3\n      swap2\n      pop\n      pop\n      jump\t// out\n        /* \"--CODEGEN--\":456:586   */\n    tag_308:\n      0x00\n        /* \"--CODEGEN--\":536:542   */\n      dup2\n        /* \"--CODEGEN--\":523:543   */\n      calldataload\n        /* \"--CODEGEN--\":514:543   */\n      swap1\n      pop\n        /* \"--CODEGEN--\":548:581   */\n      tag_310\n        /* \"--CODEGEN--\":575:580   */\n      dup2\n        /* \"--CODEGEN--\":548:581   */\n      tag_311\n      jump\t// in\n    tag_310:\n        /* \"--CODEGEN--\":508:586   */\n      swap3\n      swap2\n      pop\n      pop\n      jump\t// out\n        /* \"--CODEGEN--\":593:1171   */\n    tag_46:\n      0x00\n      dup1\n        /* \"--CODEGEN--\":734:736   */\n      0x40\n        /* \"--CODEGEN--\":722:731   */\n      dup4\n        /* \"--CODEGEN--\":713:720   */\n      dup6\n        /* \"--CODEGEN--\":709:732   */\n      sub\n        /* \"--CODEGEN--\":705:737   */\n      slt\n        /* \"--CODEGEN--\":702:704   */\n      iszero\n      tag_313\n      jumpi\n        /* \"--CODEGEN--\":750:751   */\n      0x00\n        /* \"--CODEGEN--\":747:748   */\n      dup1\n        /* \"--CODEGEN--\":740:752   */\n      revert\n        /* \"--CODEGEN--\":702:704   */\n    tag_313:\n        /* \"--CODEGEN--\":813:814   */\n      0x00\n        /* \"--CODEGEN--\":802:811   */\n      dup4\n        /* \"--CODEGEN--\":798:815   */\n      add\n        /* \"--CODEGEN--\":785:816   */\n      calldataload\n        /* \"--CODEGEN--\":836:854   */\n      0xffffffffffffffff\n        /* \"--CODEGEN--\":828:834   */\n      dup2\n        /* \"--CODEGEN--\":825:855   */\n      gt\n        /* \"--CODEGEN--\":822:824   */\n      iszero\n      tag_314\n      jumpi\n        /* \"--CODEGEN--\":868:869   */\n      0x00\n        /* \"--CODEGEN--\":865:866   */\n      dup1\n        /* \"--CODEGEN--\":858:870   */\n      revert\n        /* \"--CODEGEN--\":822:824   */\n    tag_314:\n        /* \"--CODEGEN--\":888:951   */\n      tag_315\n        /* \"--CODEGEN--\":943:950   */\n      dup6\n        /* \"--CODEGEN--\":934:940   */\n      dup3\n        /* \"--CODEGEN--\":923:932   */\n      dup7\n        /* \"--CODEGEN--\":919:941   */\n      add\n        /* \"--CODEGEN--\":888:951   */\n      tag_298\n      jump\t// in\n    tag_315:\n        /* \"--CODEGEN--\":878:951   */\n      swap3\n      pop\n        /* \"--CODEGEN--\":764:957   */\n      pop\n        /* \"--CODEGEN--\":1016:1018   */\n      0x20\n        /* \"--CODEGEN--\":1005:1014   */\n      dup4\n        /* \"--CODEGEN--\":1001:1019   */\n      add\n        /* \"--CODEGEN--\":988:1020   */\n      calldataload\n        /* \"--CODEGEN--\":1040:1058   */\n      0xffffffffffffffff\n        /* \"--CODEGEN--\":1032:1038   */\n      dup2\n        /* \"--CODEGEN--\":1029:1059   */\n      gt\n        /* \"--CODEGEN--\":1026:1028   */\n      iszero\n      tag_316\n      jumpi\n        /* \"--CODEGEN--\":1072:1073   */\n      0x00\n        /* \"--CODEGEN--\":1069:1070   */\n      dup1\n        /* \"--CODEGEN--\":1062:1074   */\n      revert\n        /* \"--CODEGEN--\":1026:1028   */\n    tag_316:\n        /* \"--CODEGEN--\":1092:1155   */\n      tag_317\n        /* \"--CODEGEN--\":1147:1154   */\n      dup6\n        /* \"--CODEGEN--\":1138:1144   */\n      dup3\n        /* \"--CODEGEN--\":1127:1136   */\n      dup7\n        /* \"--CODEGEN--\":1123:1145   */\n      add\n        /* \"--CODEGEN--\":1092:1155   */\n      tag_298\n      jump\t// in\n    tag_317:\n        /* \"--CODEGEN--\":1082:1155   */\n      swap2\n      pop\n        /* \"--CODEGEN--\":967:1161   */\n      pop\n        /* \"--CODEGEN--\":696:1171   */\n      swap3\n      pop\n      swap3\n      swap1\n      pop\n      jump\t// out\n        /* \"--CODEGEN--\":1178:1419   */\n    tag_40:\n      0x00\n        /* \"--CODEGEN--\":1282:1284   */\n      0x20\n        /* \"--CODEGEN--\":1270:1279   */\n      dup3\n        /* \"--CODEGEN--\":1261:1268   */\n      dup5\n        /* \"--CODEGEN--\":1257:1280   */\n      sub\n        /* \"--CODEGEN--\":1253:1285   */\n      slt\n        /* \"--CODEGEN--\":1250:1252   */\n      iszero\n      tag_319\n      jumpi\n        /* \"--CODEGEN--\":1298:1299   */\n      0x00\n        /* \"--CODEGEN--\":1295:1296   */\n      dup1\n        /* \"--CODEGEN--\":1288:1300   */\n      revert\n        /* \"--CODEGEN--\":1250:1252   */\n    tag_319:\n        /* \"--CODEGEN--\":1333:1334   */\n      0x00\n        /* \"--CODEGEN--\":1350:1403   */\n      tag_320\n        /* \"--CODEGEN--\":1395:1402   */\n      dup5\n        /* \"--CODEGEN--\":1386:1392   */\n      dup3\n        /* \"--CODEGEN--\":1375:1384   */\n      dup6\n        /* \"--CODEGEN--\":1371:1393   */\n      add\n        /* \"--CODEGEN--\":1350:1403   */\n      tag_308\n      jump\t// in\n    tag_320:\n        /* \"--CODEGEN--\":1340:1403   */\n      swap2\n      pop\n        /* \"--CODEGEN--\":1312:1409   */\n      pop\n        /* \"--CODEGEN--\":1244:1419   */\n      swap3\n      swap2\n      pop\n      pop\n      jump\t// out\n        /* \"--CODEGEN--\":1426:1898   */\n    tag_25:\n      0x00\n      dup1\n        /* \"--CODEGEN--\":1557:1559   */\n      0x40\n        /* \"--CODEGEN--\":1545:1554   */\n      dup4\n        /* \"--CODEGEN--\":1536:1543   */\n      dup6\n        /* \"--CODEGEN--\":1532:1555   */\n      sub\n        /* \"--CODEGEN--\":1528:1560   */\n      slt\n        /* \"--CODEGEN--\":1525:1527   */\n      iszero\n      tag_322\n      jumpi\n        /* \"--CODEGEN--\":1573:1574   */\n      0x00\n        /* \"--CODEGEN--\":1570:1571   */\n      dup1\n        /* \"--CODEGEN--\":1563:1575   */\n      revert\n        /* \"--CODEGEN--\":1525:1527   */\n    tag_322:\n        /* \"--CODEGEN--\":1608:1609   */\n      0x00\n        /* \"--CODEGEN--\":1625:1678   */\n      tag_323\n        /* \"--CODEGEN--\":1670:1677   */\n      dup6\n        /* \"--CODEGEN--\":1661:1667   */\n      dup3\n        /* \"--CODEGEN--\":1650:1659   */\n      dup7\n        /* \"--CODEGEN--\":1646:1668   */\n      add\n        /* \"--CODEGEN--\":1625:1678   */\n      tag_308\n      jump\t// in\n    tag_323:\n        /* \"--CODEGEN--\":1615:1678   */\n      swap3\n      pop\n        /* \"--CODEGEN--\":1587:1684   */\n      pop\n        /* \"--CODEGEN--\":1743:1745   */\n      0x20\n        /* \"--CODEGEN--\":1732:1741   */\n      dup4\n        /* \"--CODEGEN--\":1728:1746   */\n      add\n        /* \"--CODEGEN--\":1715:1747   */\n      calldataload\n        /* \"--CODEGEN--\":1767:1785   */\n      0xffffffffffffffff\n        /* \"--CODEGEN--\":1759:1765   */\n      dup2\n        /* \"--CODEGEN--\":1756:1786   */\n      gt\n        /* \"--CODEGEN--\":1753:1755   */\n      iszero\n      tag_324\n      jumpi\n        /* \"--CODEGEN--\":1799:1800   */\n      0x00\n        /* \"--CODEGEN--\":1796:1797   */\n      dup1\n        /* \"--CODEGEN--\":1789:1801   */\n      revert\n        /* \"--CODEGEN--\":1753:1755   */\n    tag_324:\n        /* \"--CODEGEN--\":1819:1882   */\n      tag_325\n        /* \"--CODEGEN--\":1874:1881   */\n      dup6\n        /* \"--CODEGEN--\":1865:1871   */\n      dup3\n        /* \"--CODEGEN--\":1854:1863   */\n      dup7\n        /* \"--CODEGEN--\":1850:1872   */\n      add\n        /* \"--CODEGEN--\":1819:1882   */\n      tag_298\n      jump\t// in\n    tag_325:\n        /* \"--CODEGEN--\":1809:1882   */\n      swap2\n      pop\n        /* \"--CODEGEN--\":1694:1888   */\n      pop\n        /* \"--CODEGEN--\":1519:1898   */\n      swap3\n      pop\n      swap3\n      swap1\n      pop\n      jump\t// out\n        /* \"--CODEGEN--\":1905:2608   */\n    tag_53:\n      0x00\n      dup1\n      0x00\n        /* \"--CODEGEN--\":2063:2065   */\n      0x60\n        /* \"--CODEGEN--\":2051:2060   */\n      dup5\n        /* \"--CODEGEN--\":2042:2049   */\n      dup7\n        /* \"--CODEGEN--\":2038:2061   */\n      sub\n        /* \"--CODEGEN--\":2034:2066   */\n      slt\n        /* \"--CODEGEN--\":2031:2033   */\n      iszero\n      tag_327\n      jumpi\n        /* \"--CODEGEN--\":2079:2080   */\n      0x00\n        /* \"--CODEGEN--\":2076:2077   */\n      dup1\n        /* \"--CODEGEN--\":2069:2081   */\n      revert\n        /* \"--CODEGEN--\":2031:2033   */\n    tag_327:\n        /* \"--CODEGEN--\":2114:2115   */\n      0x00\n        /* \"--CODEGEN--\":2131:2184   */\n      tag_328\n        /* \"--CODEGEN--\":2176:2183   */\n      dup7\n        /* \"--CODEGEN--\":2167:2173   */\n      dup3\n        /* \"--CODEGEN--\":2156:2165   */\n      dup8\n        /* \"--CODEGEN--\":2152:2174   */\n      add\n        /* \"--CODEGEN--\":2131:2184   */\n      tag_308\n      jump\t// in\n    tag_328:\n        /* \"--CODEGEN--\":2121:2184   */\n      swap4\n      pop\n        /* \"--CODEGEN--\":2093:2190   */\n      pop\n        /* \"--CODEGEN--\":2249:2251   */\n      0x20\n        /* \"--CODEGEN--\":2238:2247   */\n      dup5\n        /* \"--CODEGEN--\":2234:2252   */\n      add\n        /* \"--CODEGEN--\":2221:2253   */\n      calldataload\n        /* \"--CODEGEN--\":2273:2291   */\n      0xffffffffffffffff\n        /* \"--CODEGEN--\":2265:2271   */\n      dup2\n        /* \"--CODEGEN--\":2262:2292   */\n      gt\n        /* \"--CODEGEN--\":2259:2261   */\n      iszero\n      tag_329\n      jumpi\n        /* \"--CODEGEN--\":2305:2306   */\n      0x00\n        /* \"--CODEGEN--\":2302:2303   */\n      dup1\n        /* \"--CODEGEN--\":2295:2307   */\n      revert\n        /* \"--CODEGEN--\":2259:2261   */\n    tag_329:\n        /* \"--CODEGEN--\":2325:2388   */\n      tag_330\n        /* \"--CODEGEN--\":2380:2387   */\n      dup7\n        /* \"--CODEGEN--\":2371:2377   */\n      dup3\n        /* \"--CODEGEN--\":2360:2369   */\n      dup8\n        /* \"--CODEGEN--\":2356:2378   */\n      add\n        /* \"--CODEGEN--\":2325:2388   */\n      tag_298\n      jump\t// in\n    tag_330:\n        /* \"--CODEGEN--\":2315:2388   */\n      swap3\n      pop\n        /* \"--CODEGEN--\":2200:2394   */\n      pop\n        /* \"--CODEGEN--\":2453:2455   */\n      0x40\n        /* \"--CODEGEN--\":2442:2451   */\n      dup5\n        /* \"--CODEGEN--\":2438:2456   */\n      add\n        /* \"--CODEGEN--\":2425:2457   */\n      calldataload\n        /* \"--CODEGEN--\":2477:2495   */\n      0xffffffffffffffff\n        /* \"--CODEGEN--\":2469:2475   */\n      dup2\n        /* \"--CODEGEN--\":2466:2496   */\n      gt\n        /* \"--CODEGEN--\":2463:2465   */\n      iszero\n      tag_331\n      jumpi\n        /* \"--CODEGEN--\":2509:2510   */\n      0x00\n        /* \"--CODEGEN--\":2506:2507   */\n      dup1\n        /* \"--CODEGEN--\":2499:2511   */\n      revert\n        /* \"--CODEGEN--\":2463:2465   */\n    tag_331:\n        /* \"--CODEGEN--\":2529:2592   */\n      tag_332\n        /* \"--CODEGEN--\":2584:2591   */\n      dup7\n        /* \"--CODEGEN--\":2575:2581   */\n      dup3\n        /* \"--CODEGEN--\":2564:2573   */\n      dup8\n        /* \"--CODEGEN--\":2560:2582   */\n      add\n        /* \"--CODEGEN--\":2529:2592   */\n      tag_298\n      jump\t// in\n    tag_332:\n        /* \"--CODEGEN--\":2519:2592   */\n      swap2\n      pop\n        /* \"--CODEGEN--\":2404:2598   */\n      pop\n        /* \"--CODEGEN--\":2025:2608   */\n      swap3\n      pop\n      swap3\n      pop\n      swap3\n      jump\t// out\n        /* \"--CODEGEN--\":2616:2809   */\n    tag_333:\n      0x00\n        /* \"--CODEGEN--\":2737:2803   */\n      tag_335\n        /* \"--CODEGEN--\":2799:2802   */\n      dup4\n        /* \"--CODEGEN--\":2791:2797   */\n      dup4\n        /* \"--CODEGEN--\":2737:2803   */\n      tag_336\n      jump\t// in\n    tag_335:\n        /* \"--CODEGEN--\":2723:2803   */\n      swap1\n      pop\n        /* \"--CODEGEN--\":2716:2809   */\n      swap3\n      swap2\n      pop\n      pop\n      jump\t// out\n        /* \"--CODEGEN--\":2818:2991   */\n    tag_337:\n      0x00\n        /* \"--CODEGEN--\":2905:2951   */\n      tag_339\n        /* \"--CODEGEN--\":2947:2950   */\n      dup4\n        /* \"--CODEGEN--\":2939:2945   */\n      dup4\n        /* \"--CODEGEN--\":2905:2951   */\n      tag_340\n      jump\t// in\n    tag_339:\n        /* \"--CODEGEN--\":2980:2984   */\n      0x20\n        /* \"--CODEGEN--\":2975:2978   */\n      dup4\n        /* \"--CODEGEN--\":2971:2985   */\n      add\n        /* \"--CODEGEN--\":2957:2985   */\n      swap1\n      pop\n        /* \"--CODEGEN--\":2898:2991   */\n      swap3\n      swap2\n      pop\n      pop\n      jump\t// out\n        /* \"--CODEGEN--\":3028:3956   */\n    tag_341:\n      0x00\n        /* \"--CODEGEN--\":3193:3257   */\n      tag_343\n        /* \"--CODEGEN--\":3251:3256   */\n      dup3\n        /* \"--CODEGEN--\":3193:3257   */\n      tag_344\n      jump\t// in\n    tag_343:\n        /* \"--CODEGEN--\":3270:3366   */\n      tag_345\n        /* \"--CODEGEN--\":3359:3365   */\n      dup2\n        /* \"--CODEGEN--\":3354:3357   */\n      dup6\n        /* \"--CODEGEN--\":3270:3366   */\n      tag_346\n      jump\t// in\n    tag_345:\n        /* \"--CODEGEN--\":3263:3366   */\n      swap4\n      pop\n        /* \"--CODEGEN--\":3389:3392   */\n      dup4\n        /* \"--CODEGEN--\":3431:3435   */\n      0x20\n        /* \"--CODEGEN--\":3423:3429   */\n      dup3\n        /* \"--CODEGEN--\":3419:3436   */\n      mul\n        /* \"--CODEGEN--\":3414:3417   */\n      dup6\n        /* \"--CODEGEN--\":3410:3437   */\n      add\n        /* \"--CODEGEN--\":3458:3524   */\n      tag_347\n        /* \"--CODEGEN--\":3518:3523   */\n      dup6\n        /* \"--CODEGEN--\":3458:3524   */\n      tag_348\n      jump\t// in\n    tag_347:\n        /* \"--CODEGEN--\":3544:3551   */\n      dup1\n        /* \"--CODEGEN--\":3572:3573   */\n      0x00\n        /* \"--CODEGEN--\":3557:3917   */\n    tag_349:\n        /* \"--CODEGEN--\":3582:3588   */\n      dup6\n        /* \"--CODEGEN--\":3579:3580   */\n      dup2\n        /* \"--CODEGEN--\":3576:3589   */\n      lt\n        /* \"--CODEGEN--\":3557:3917   */\n      iszero\n      tag_351\n      jumpi\n        /* \"--CODEGEN--\":3644:3653   */\n      dup5\n        /* \"--CODEGEN--\":3638:3642   */\n      dup5\n        /* \"--CODEGEN--\":3634:3654   */\n      sub\n        /* \"--CODEGEN--\":3629:3632   */\n      dup10\n        /* \"--CODEGEN--\":3622:3655   */\n      mstore\n        /* \"--CODEGEN--\":3689:3695   */\n      dup2\n        /* \"--CODEGEN--\":3683:3696   */\n      mload\n        /* \"--CODEGEN--\":3711:3795   */\n      tag_352\n        /* \"--CODEGEN--\":3790:3794   */\n      dup6\n        /* \"--CODEGEN--\":3775:3788   */\n      dup3\n        /* \"--CODEGEN--\":3711:3795   */\n      tag_333\n      jump\t// in\n    tag_352:\n        /* \"--CODEGEN--\":3703:3795   */\n      swap5\n      pop\n        /* \"--CODEGEN--\":3812:3882   */\n      tag_353\n        /* \"--CODEGEN--\":3875:3881   */\n      dup4\n        /* \"--CODEGEN--\":3812:3882   */\n      tag_354\n      jump\t// in\n    tag_353:\n        /* \"--CODEGEN--\":3802:3882   */\n      swap3\n      pop\n        /* \"--CODEGEN--\":3905:3909   */\n      0x20\n        /* \"--CODEGEN--\":3900:3903   */\n      dup11\n        /* \"--CODEGEN--\":3896:3910   */\n      add\n        /* \"--CODEGEN--\":3889:3910   */\n      swap10\n      pop\n        /* \"--CODEGEN--\":3614:3917   */\n      pop\n        /* \"--CODEGEN--\":3604:3605   */\n      0x01\n        /* \"--CODEGEN--\":3601:3602   */\n      dup2\n        /* \"--CODEGEN--\":3597:3606   */\n      add\n        /* \"--CODEGEN--\":3592:3606   */\n      swap1\n      pop\n        /* \"--CODEGEN--\":3557:3917   */\n      jump(tag_349)\n    tag_351:\n        /* \"--CODEGEN--\":3561:3575   */\n      pop\n        /* \"--CODEGEN--\":3930:3934   */\n      dup3\n        /* \"--CODEGEN--\":3923:3934   */\n      swap8\n      pop\n        /* \"--CODEGEN--\":3947:3950   */\n      dup8\n        /* \"--CODEGEN--\":3940:3950   */\n      swap6\n      pop\n        /* \"--CODEGEN--\":3172:3956   */\n      pop\n      pop\n      pop\n      pop\n      pop\n      swap3\n      swap2\n      pop\n      pop\n      jump\t// out\n        /* \"--CODEGEN--\":3995:4685   */\n    tag_355:\n      0x00\n        /* \"--CODEGEN--\":4140:4194   */\n      tag_357\n        /* \"--CODEGEN--\":4188:4193   */\n      dup3\n        /* \"--CODEGEN--\":4140:4194   */\n      tag_358\n      jump\t// in\n    tag_357:\n        /* \"--CODEGEN--\":4207:4293   */\n      tag_359\n        /* \"--CODEGEN--\":4286:4292   */\n      dup2\n        /* \"--CODEGEN--\":4281:4284   */\n      dup6\n        /* \"--CODEGEN--\":4207:4293   */\n      tag_360\n      jump\t// in\n    tag_359:\n        /* \"--CODEGEN--\":4200:4293   */\n      swap4\n      pop\n        /* \"--CODEGEN--\":4314:4370   */\n      tag_361\n        /* \"--CODEGEN--\":4364:4369   */\n      dup4\n        /* \"--CODEGEN--\":4314:4370   */\n      tag_362\n      jump\t// in\n    tag_361:\n        /* \"--CODEGEN--\":4390:4397   */\n      dup1\n        /* \"--CODEGEN--\":4418:4419   */\n      0x00\n        /* \"--CODEGEN--\":4403:4663   */\n    tag_363:\n        /* \"--CODEGEN--\":4428:4434   */\n      dup4\n        /* \"--CODEGEN--\":4425:4426   */\n      dup2\n        /* \"--CODEGEN--\":4422:4435   */\n      lt\n        /* \"--CODEGEN--\":4403:4663   */\n      iszero\n      tag_365\n      jumpi\n        /* \"--CODEGEN--\":4495:4501   */\n      dup2\n        /* \"--CODEGEN--\":4489:4502   */\n      mload\n        /* \"--CODEGEN--\":4516:4579   */\n      tag_366\n        /* \"--CODEGEN--\":4575:4578   */\n      dup9\n        /* \"--CODEGEN--\":4560:4573   */\n      dup3\n        /* \"--CODEGEN--\":4516:4579   */\n      tag_337\n      jump\t// in\n    tag_366:\n        /* \"--CODEGEN--\":4509:4579   */\n      swap8\n      pop\n        /* \"--CODEGEN--\":4596:4656   */\n      tag_367\n        /* \"--CODEGEN--\":4649:4655   */\n      dup4\n        /* \"--CODEGEN--\":4596:4656   */\n      tag_368\n      jump\t// in\n    tag_367:\n        /* \"--CODEGEN--\":4586:4656   */\n      swap3\n      pop\n        /* \"--CODEGEN--\":4460:4663   */\n      pop\n        /* \"--CODEGEN--\":4450:4451   */\n      0x01\n        /* \"--CODEGEN--\":4447:4448   */\n      dup2\n        /* \"--CODEGEN--\":4443:4452   */\n      add\n        /* \"--CODEGEN--\":4438:4452   */\n      swap1\n      pop\n        /* \"--CODEGEN--\":4403:4663   */\n      jump(tag_363)\n    tag_365:\n        /* \"--CODEGEN--\":4407:4421   */\n      pop\n        /* \"--CODEGEN--\":4676:4679   */\n      dup6\n        /* \"--CODEGEN--\":4669:4679   */\n      swap4\n      pop\n        /* \"--CODEGEN--\":4119:4685   */\n      pop\n      pop\n      pop\n      swap3\n      swap2\n      pop\n      pop\n      jump\t// out\n        /* \"--CODEGEN--\":4693:4797   */\n    tag_369:\n        /* \"--CODEGEN--\":4770:4791   */\n      tag_371\n        /* \"--CODEGEN--\":4785:4790   */\n      dup2\n        /* \"--CODEGEN--\":4770:4791   */\n      tag_372\n      jump\t// in\n    tag_371:\n        /* \"--CODEGEN--\":4765:4768   */\n      dup3\n        /* \"--CODEGEN--\":4758:4792   */\n      mstore\n        /* \"--CODEGEN--\":4752:4797   */\n      pop\n      pop\n      jump\t// out\n        /* \"--CODEGEN--\":4804:5131   */\n    tag_336:\n      0x00\n        /* \"--CODEGEN--\":4906:4945   */\n      tag_374\n        /* \"--CODEGEN--\":4939:4944   */\n      dup3\n        /* \"--CODEGEN--\":4906:4945   */\n      tag_375\n      jump\t// in\n    tag_374:\n        /* \"--CODEGEN--\":4957:5018   */\n      tag_376\n        /* \"--CODEGEN--\":5011:5017   */\n      dup2\n        /* \"--CODEGEN--\":5006:5009   */\n      dup6\n        /* \"--CODEGEN--\":4957:5018   */\n      tag_377\n      jump\t// in\n    tag_376:\n        /* \"--CODEGEN--\":4950:5018   */\n      swap4\n      pop\n        /* \"--CODEGEN--\":5023:5075   */\n      tag_378\n        /* \"--CODEGEN--\":5068:5074   */\n      dup2\n        /* \"--CODEGEN--\":5063:5066   */\n      dup6\n        /* \"--CODEGEN--\":5056:5060   */\n      0x20\n        /* \"--CODEGEN--\":5049:5054   */\n      dup7\n        /* \"--CODEGEN--\":5045:5061   */\n      add\n        /* \"--CODEGEN--\":5023:5075   */\n      tag_379\n      jump\t// in\n    tag_378:\n        /* \"--CODEGEN--\":5096:5125   */\n      tag_380\n        /* \"--CODEGEN--\":5118:5124   */\n      dup2\n        /* \"--CODEGEN--\":5096:5125   */\n      tag_381\n      jump\t// in\n    tag_380:\n        /* \"--CODEGEN--\":5091:5094   */\n      dup5\n        /* \"--CODEGEN--\":5087:5126   */\n      add\n        /* \"--CODEGEN--\":5080:5126   */\n      swap2\n      pop\n        /* \"--CODEGEN--\":4886:5131   */\n      pop\n      swap3\n      swap2\n      pop\n      pop\n      jump\t// out\n        /* \"--CODEGEN--\":5138:5498   */\n    tag_382:\n      0x00\n        /* \"--CODEGEN--\":5268:5307   */\n      tag_384\n        /* \"--CODEGEN--\":5301:5306   */\n      dup3\n        /* \"--CODEGEN--\":5268:5307   */\n      tag_375\n      jump\t// in\n    tag_384:\n        /* \"--CODEGEN--\":5319:5408   */\n      tag_385\n        /* \"--CODEGEN--\":5401:5407   */\n      dup2\n        /* \"--CODEGEN--\":5396:5399   */\n      dup6\n        /* \"--CODEGEN--\":5319:5408   */\n      tag_386\n      jump\t// in\n    tag_385:\n        /* \"--CODEGEN--\":5312:5408   */\n      swap4\n      pop\n        /* \"--CODEGEN--\":5413:5465   */\n      tag_387\n        /* \"--CODEGEN--\":5458:5464   */\n      dup2\n        /* \"--CODEGEN--\":5453:5456   */\n      dup6\n        /* \"--CODEGEN--\":5446:5450   */\n      0x20\n        /* \"--CODEGEN--\":5439:5444   */\n      dup7\n        /* \"--CODEGEN--\":5435:5451   */\n      add\n        /* \"--CODEGEN--\":5413:5465   */\n      tag_379\n      jump\t// in\n    tag_387:\n        /* \"--CODEGEN--\":5486:5492   */\n      dup1\n        /* \"--CODEGEN--\":5481:5484   */\n      dup5\n        /* \"--CODEGEN--\":5477:5493   */\n      add\n        /* \"--CODEGEN--\":5470:5493   */\n      swap2\n      pop\n        /* \"--CODEGEN--\":5248:5498   */\n      pop\n      swap3\n      swap2\n      pop\n      pop\n      jump\t// out\n        /* \"--CODEGEN--\":5530:6414   */\n    tag_388:\n      0x00\n        /* \"--CODEGEN--\":5667:5672   */\n      dup2\n        /* \"--CODEGEN--\":5661:5673   */\n      sload\n        /* \"--CODEGEN--\":5701:5702   */\n      0x01\n        /* \"--CODEGEN--\":5690:5699   */\n      dup2\n        /* \"--CODEGEN--\":5686:5703   */\n      and\n        /* \"--CODEGEN--\":5714:5715   */\n      0x00\n        /* \"--CODEGEN--\":5709:5977   */\n      dup2\n      eq\n      tag_391\n      jumpi\n        /* \"--CODEGEN--\":5988:5989   */\n      0x01\n        /* \"--CODEGEN--\":5983:6408   */\n      dup2\n      eq\n      tag_392\n      jumpi\n        /* \"--CODEGEN--\":5679:6408   */\n      jump(tag_390)\n        /* \"--CODEGEN--\":5709:5977   */\n    tag_391:\n        /* \"--CODEGEN--\":5787:5791   */\n      0x7f\n        /* \"--CODEGEN--\":5783:5784   */\n      0x02\n        /* \"--CODEGEN--\":5772:5781   */\n      dup4\n        /* \"--CODEGEN--\":5768:5785   */\n      div\n        /* \"--CODEGEN--\":5764:5792   */\n      and\n        /* \"--CODEGEN--\":5806:5895   */\n      tag_393\n        /* \"--CODEGEN--\":5888:5894   */\n      dup2\n        /* \"--CODEGEN--\":5883:5886   */\n      dup8\n        /* \"--CODEGEN--\":5806:5895   */\n      tag_386\n      jump\t// in\n    tag_393:\n        /* \"--CODEGEN--\":5799:5895   */\n      swap6\n      pop\n        /* \"--CODEGEN--\":5933:5937   */\n      0xff\n        /* \"--CODEGEN--\":5929:5938   */\n      not\n        /* \"--CODEGEN--\":5918:5927   */\n      dup4\n        /* \"--CODEGEN--\":5914:5939   */\n      and\n        /* \"--CODEGEN--\":5909:5912   */\n      dup7\n        /* \"--CODEGEN--\":5902:5940   */\n      mstore\n        /* \"--CODEGEN--\":5963:5969   */\n      dup1\n        /* \"--CODEGEN--\":5958:5961   */\n      dup7\n        /* \"--CODEGEN--\":5954:5970   */\n      add\n        /* \"--CODEGEN--\":5947:5970   */\n      swap4\n      pop\n        /* \"--CODEGEN--\":5716:5977   */\n      pop\n        /* \"--CODEGEN--\":5709:5977   */\n      jump(tag_390)\n        /* \"--CODEGEN--\":5983:6408   */\n    tag_392:\n        /* \"--CODEGEN--\":6052:6053   */\n      0x02\n        /* \"--CODEGEN--\":6041:6050   */\n      dup3\n        /* \"--CODEGEN--\":6037:6054   */\n      div\n        /* \"--CODEGEN--\":6068:6157   */\n      tag_394\n        /* \"--CODEGEN--\":6150:6156   */\n      dup2\n        /* \"--CODEGEN--\":6145:6148   */\n      dup8\n        /* \"--CODEGEN--\":6068:6157   */\n      tag_386\n      jump\t// in\n    tag_394:\n        /* \"--CODEGEN--\":6061:6157   */\n      swap6\n      pop\n        /* \"--CODEGEN--\":6179:6217   */\n      tag_395\n        /* \"--CODEGEN--\":6211:6216   */\n      dup6\n        /* \"--CODEGEN--\":6179:6217   */\n      tag_396\n      jump\t// in\n    tag_395:\n        /* \"--CODEGEN--\":6233:6234   */\n      0x00\n        /* \"--CODEGEN--\":6241:6371   */\n    tag_397:\n        /* \"--CODEGEN--\":6255:6261   */\n      dup3\n        /* \"--CODEGEN--\":6252:6253   */\n      dup2\n        /* \"--CODEGEN--\":6249:6262   */\n      lt\n        /* \"--CODEGEN--\":6241:6371   */\n      iszero\n      tag_399\n      jumpi\n        /* \"--CODEGEN--\":6320:6327   */\n      dup2\n        /* \"--CODEGEN--\":6314:6328   */\n      sload\n        /* \"--CODEGEN--\":6310:6311   */\n      dup2\n        /* \"--CODEGEN--\":6305:6308   */\n      dup10\n        /* \"--CODEGEN--\":6301:6312   */\n      add\n        /* \"--CODEGEN--\":6294:6329   */\n      mstore\n        /* \"--CODEGEN--\":6361:6362   */\n      0x01\n        /* \"--CODEGEN--\":6352:6359   */\n      dup3\n        /* \"--CODEGEN--\":6348:6363   */\n      add\n        /* \"--CODEGEN--\":6337:6363   */\n      swap2\n      pop\n        /* \"--CODEGEN--\":6277:6281   */\n      0x20\n        /* \"--CODEGEN--\":6274:6275   */\n      dup2\n        /* \"--CODEGEN--\":6270:6282   */\n      add\n        /* \"--CODEGEN--\":6265:6282   */\n      swap1\n      pop\n        /* \"--CODEGEN--\":6241:6371   */\n      jump(tag_397)\n    tag_399:\n        /* \"--CODEGEN--\":6394:6400   */\n      dup3\n        /* \"--CODEGEN--\":6389:6392   */\n      dup9\n        /* \"--CODEGEN--\":6385:6401   */\n      add\n        /* \"--CODEGEN--\":6378:6401   */\n      swap6\n      pop\n        /* \"--CODEGEN--\":5990:6408   */\n      pop\n      pop\n      pop\n        /* \"--CODEGEN--\":5679:6408   */\n    tag_390:\n      pop\n        /* \"--CODEGEN--\":5637:6414   */\n      pop\n      swap3\n      swap2\n      pop\n      pop\n      jump\t// out\n        /* \"--CODEGEN--\":6422:6525   */\n    tag_340:\n        /* \"--CODEGEN--\":6495:6519   */\n      tag_401\n        /* \"--CODEGEN--\":6513:6518   */\n      dup2\n        /* \"--CODEGEN--\":6495:6519   */\n      tag_402\n      jump\t// in\n    tag_401:\n        /* \"--CODEGEN--\":6490:6493   */\n      dup3\n        /* \"--CODEGEN--\":6483:6520   */\n      mstore\n        /* \"--CODEGEN--\":6477:6525   */\n      pop\n      pop\n      jump\t// out\n        /* \"--CODEGEN--\":6532:6645   */\n    tag_403:\n        /* \"--CODEGEN--\":6615:6639   */\n      tag_405\n        /* \"--CODEGEN--\":6633:6638   */\n      dup2\n        /* \"--CODEGEN--\":6615:6639   */\n      tag_402\n      jump\t// in\n    tag_405:\n        /* \"--CODEGEN--\":6610:6613   */\n      dup3\n        /* \"--CODEGEN--\":6603:6640   */\n      mstore\n        /* \"--CODEGEN--\":6597:6645   */\n      pop\n      pop\n      jump\t// out\n        /* \"--CODEGEN--\":6652:6927   */\n    tag_79:\n      0x00\n        /* \"--CODEGEN--\":6807:6902   */\n      tag_407\n        /* \"--CODEGEN--\":6898:6901   */\n      dup3\n        /* \"--CODEGEN--\":6889:6895   */\n      dup5\n        /* \"--CODEGEN--\":6807:6902   */\n      tag_382\n      jump\t// in\n    tag_407:\n        /* \"--CODEGEN--\":6800:6902   */\n      swap2\n      pop\n        /* \"--CODEGEN--\":6919:6922   */\n      dup2\n        /* \"--CODEGEN--\":6912:6922   */\n      swap1\n      pop\n        /* \"--CODEGEN--\":6788:6927   */\n      swap3\n      swap2\n      pop\n      pop\n      jump\t// out\n        /* \"--CODEGEN--\":6934:7203   */\n    tag_77:\n      0x00\n        /* \"--CODEGEN--\":7086:7178   */\n      tag_409\n        /* \"--CODEGEN--\":7174:7177   */\n      dup3\n        /* \"--CODEGEN--\":7165:7171   */\n      dup5\n        /* \"--CODEGEN--\":7086:7178   */\n      tag_388\n      jump\t// in\n    tag_409:\n        /* \"--CODEGEN--\":7079:7178   */\n      swap2\n      pop\n        /* \"--CODEGEN--\":7195:7198   */\n      dup2\n        /* \"--CODEGEN--\":7188:7198   */\n      swap1\n      pop\n        /* \"--CODEGEN--\":7067:7203   */\n      swap3\n      swap2\n      pop\n      pop\n      jump\t// out\n        /* \"--CODEGEN--\":7210:7620   */\n    tag_43:\n      0x00\n        /* \"--CODEGEN--\":7407:7409   */\n      0x20\n        /* \"--CODEGEN--\":7396:7405   */\n      dup3\n        /* \"--CODEGEN--\":7392:7410   */\n      add\n        /* \"--CODEGEN--\":7384:7410   */\n      swap1\n      pop\n        /* \"--CODEGEN--\":7457:7466   */\n      dup2\n        /* \"--CODEGEN--\":7451:7455   */\n      dup2\n        /* \"--CODEGEN--\":7447:7467   */\n      sub\n        /* \"--CODEGEN--\":7443:7444   */\n      0x00\n        /* \"--CODEGEN--\":7432:7441   */\n      dup4\n        /* \"--CODEGEN--\":7428:7445   */\n      add\n        /* \"--CODEGEN--\":7421:7468   */\n      mstore\n        /* \"--CODEGEN--\":7482:7610   */\n      tag_411\n        /* \"--CODEGEN--\":7605:7609   */\n      dup2\n        /* \"--CODEGEN--\":7596:7602   */\n      dup5\n        /* \"--CODEGEN--\":7482:7610   */\n      tag_341\n      jump\t// in\n    tag_411:\n        /* \"--CODEGEN--\":7474:7610   */\n      swap1\n      pop\n        /* \"--CODEGEN--\":7378:7620   */\n      swap3\n      swap2\n      pop\n      pop\n      jump\t// out\n        /* \"--CODEGEN--\":7627:8296   */\n    tag_37:\n      0x00\n        /* \"--CODEGEN--\":7902:7904   */\n      0x40\n        /* \"--CODEGEN--\":7891:7900   */\n      dup3\n        /* \"--CODEGEN--\":7887:7905   */\n      add\n        /* \"--CODEGEN--\":7879:7905   */\n      swap1\n      pop\n        /* \"--CODEGEN--\":7952:7961   */\n      dup2\n        /* \"--CODEGEN--\":7946:7950   */\n      dup2\n        /* \"--CODEGEN--\":7942:7962   */\n      sub\n        /* \"--CODEGEN--\":7938:7939   */\n      0x00\n        /* \"--CODEGEN--\":7927:7936   */\n      dup4\n        /* \"--CODEGEN--\":7923:7940   */\n      add\n        /* \"--CODEGEN--\":7916:7963   */\n      mstore\n        /* \"--CODEGEN--\":7977:8085   */\n      tag_413\n        /* \"--CODEGEN--\":8080:8084   */\n      dup2\n        /* \"--CODEGEN--\":8071:8077   */\n      dup6\n        /* \"--CODEGEN--\":7977:8085   */\n      tag_355\n      jump\t// in\n    tag_413:\n        /* \"--CODEGEN--\":7969:8085   */\n      swap1\n      pop\n        /* \"--CODEGEN--\":8133:8142   */\n      dup2\n        /* \"--CODEGEN--\":8127:8131   */\n      dup2\n        /* \"--CODEGEN--\":8123:8143   */\n      sub\n        /* \"--CODEGEN--\":8118:8120   */\n      0x20\n        /* \"--CODEGEN--\":8107:8116   */\n      dup4\n        /* \"--CODEGEN--\":8103:8121   */\n      add\n        /* \"--CODEGEN--\":8096:8144   */\n      mstore\n        /* \"--CODEGEN--\":8158:8286   */\n      tag_414\n        /* \"--CODEGEN--\":8281:8285   */\n      dup2\n        /* \"--CODEGEN--\":8272:8278   */\n      dup5\n        /* \"--CODEGEN--\":8158:8286   */\n      tag_341\n      jump\t// in\n    tag_414:\n        /* \"--CODEGEN--\":8150:8286   */\n      swap1\n      pop\n        /* \"--CODEGEN--\":7873:8296   */\n      swap4\n      swap3\n      pop\n      pop\n      pop\n      jump\t// out\n        /* \"--CODEGEN--\":8303:8513   */\n    tag_18:\n      0x00\n        /* \"--CODEGEN--\":8424:8426   */\n      0x20\n        /* \"--CODEGEN--\":8413:8422   */\n      dup3\n        /* \"--CODEGEN--\":8409:8427   */\n      add\n        /* \"--CODEGEN--\":8401:8427   */\n      swap1\n      pop\n        /* \"--CODEGEN--\":8438:8503   */\n      tag_416\n        /* \"--CODEGEN--\":8500:8501   */\n      0x00\n        /* \"--CODEGEN--\":8489:8498   */\n      dup4\n        /* \"--CODEGEN--\":8485:8502   */\n      add\n        /* \"--CODEGEN--\":8476:8482   */\n      dup5\n        /* \"--CODEGEN--\":8438:8503   */\n      tag_369\n      jump\t// in\n    tag_416:\n        /* \"--CODEGEN--\":8395:8513   */\n      swap3\n      swap2\n      pop\n      pop\n      jump\t// out\n        /* \"--CODEGEN--\":8520:8742   */\n    tag_22:\n      0x00\n        /* \"--CODEGEN--\":8647:8649   */\n      0x20\n        /* \"--CODEGEN--\":8636:8645   */\n      dup3\n        /* \"--CODEGEN--\":8632:8650   */\n      add\n        /* \"--CODEGEN--\":8624:8650   */\n      swap1\n      pop\n        /* \"--CODEGEN--\":8661:8732   */\n      tag_418\n        /* \"--CODEGEN--\":8729:8730   */\n      0x00\n        /* \"--CODEGEN--\":8718:8727   */\n      dup4\n        /* \"--CODEGEN--\":8714:8731   */\n      add\n        /* \"--CODEGEN--\":8705:8711   */\n      dup5\n        /* \"--CODEGEN--\":8661:8732   */\n      tag_403\n      jump\t// in\n    tag_418:\n        /* \"--CODEGEN--\":8618:8742   */\n      swap3\n      swap2\n      pop\n      pop\n      jump\t// out\n        /* \"--CODEGEN--\":8749:9005   */\n    tag_304:\n      0x00\n        /* \"--CODEGEN--\":8811:8813   */\n      0x40\n        /* \"--CODEGEN--\":8805:8814   */\n      mload\n        /* \"--CODEGEN--\":8795:8814   */\n      swap1\n      pop\n        /* \"--CODEGEN--\":8849:8853   */\n      dup2\n        /* \"--CODEGEN--\":8841:8847   */\n      dup2\n        /* \"--CODEGEN--\":8837:8854   */\n      add\n        /* \"--CODEGEN--\":8948:8954   */\n      dup2\n        /* \"--CODEGEN--\":8936:8946   */\n      dup2\n        /* \"--CODEGEN--\":8933:8955   */\n      lt\n        /* \"--CODEGEN--\":8912:8930   */\n      0xffffffffffffffff\n        /* \"--CODEGEN--\":8900:8910   */\n      dup3\n        /* \"--CODEGEN--\":8897:8931   */\n      gt\n        /* \"--CODEGEN--\":8894:8956   */\n      or\n        /* \"--CODEGEN--\":8891:8893   */\n      iszero\n      tag_420\n      jumpi\n        /* \"--CODEGEN--\":8969:8970   */\n      0x00\n        /* \"--CODEGEN--\":8966:8967   */\n      dup1\n        /* \"--CODEGEN--\":8959:8971   */\n      revert\n        /* \"--CODEGEN--\":8891:8893   */\n    tag_420:\n        /* \"--CODEGEN--\":8989:8999   */\n      dup1\n        /* \"--CODEGEN--\":8985:8987   */\n      0x40\n        /* \"--CODEGEN--\":8978:9000   */\n      mstore\n        /* \"--CODEGEN--\":8789:9005   */\n      pop\n      swap2\n      swap1\n      pop\n      jump\t// out\n        /* \"--CODEGEN--\":9012:9334   */\n    tag_303:\n      0x00\n        /* \"--CODEGEN--\":9156:9174   */\n      0xffffffffffffffff\n        /* \"--CODEGEN--\":9148:9154   */\n      dup3\n        /* \"--CODEGEN--\":9145:9175   */\n      gt\n        /* \"--CODEGEN--\":9142:9144   */\n      iszero\n      tag_422\n      jumpi\n        /* \"--CODEGEN--\":9188:9189   */\n      0x00\n        /* \"--CODEGEN--\":9185:9186   */\n      dup1\n        /* \"--CODEGEN--\":9178:9190   */\n      revert\n        /* \"--CODEGEN--\":9142:9144   */\n    tag_422:\n        /* \"--CODEGEN--\":9255:9259   */\n      0x1f\n        /* \"--CODEGEN--\":9251:9260   */\n      not\n        /* \"--CODEGEN--\":9244:9248   */\n      0x1f\n        /* \"--CODEGEN--\":9236:9242   */\n      dup4\n        /* \"--CODEGEN--\":9232:9249   */\n      add\n        /* \"--CODEGEN--\":9228:9261   */\n      and\n        /* \"--CODEGEN--\":9220:9261   */\n      swap1\n      pop\n        /* \"--CODEGEN--\":9319:9323   */\n      0x20\n        /* \"--CODEGEN--\":9313:9317   */\n      dup2\n        /* \"--CODEGEN--\":9309:9324   */\n      add\n        /* \"--CODEGEN--\":9301:9324   */\n      swap1\n      pop\n        /* \"--CODEGEN--\":9079:9334   */\n      swap2\n      swap1\n      pop\n      jump\t// out\n        /* \"--CODEGEN--\":9341:9502   */\n    tag_348:\n      0x00\n        /* \"--CODEGEN--\":9437:9440   */\n      dup2\n        /* \"--CODEGEN--\":9429:9440   */\n      swap1\n      pop\n        /* \"--CODEGEN--\":9475:9479   */\n      0x20\n        /* \"--CODEGEN--\":9470:9473   */\n      dup3\n        /* \"--CODEGEN--\":9466:9480   */\n      add\n        /* \"--CODEGEN--\":9458:9480   */\n      swap1\n      pop\n        /* \"--CODEGEN--\":9423:9502   */\n      swap2\n      swap1\n      pop\n      jump\t// out\n        /* \"--CODEGEN--\":9509:9660   */\n    tag_362:\n      0x00\n        /* \"--CODEGEN--\":9595:9598   */\n      dup2\n        /* \"--CODEGEN--\":9587:9598   */\n      swap1\n      pop\n        /* \"--CODEGEN--\":9633:9637   */\n      0x20\n        /* \"--CODEGEN--\":9628:9631   */\n      dup3\n        /* \"--CODEGEN--\":9624:9638   */\n      add\n        /* \"--CODEGEN--\":9616:9638   */\n      swap1\n      pop\n        /* \"--CODEGEN--\":9581:9660   */\n      swap2\n      swap1\n      pop\n      jump\t// out\n        /* \"--CODEGEN--\":9667:9825   */\n    tag_396:\n      0x00\n        /* \"--CODEGEN--\":9735:9738   */\n      dup2\n        /* \"--CODEGEN--\":9727:9738   */\n      swap1\n      pop\n        /* \"--CODEGEN--\":9772:9775   */\n      dup2\n        /* \"--CODEGEN--\":9769:9770   */\n      0x00\n        /* \"--CODEGEN--\":9762:9776   */\n      mstore\n        /* \"--CODEGEN--\":9804:9808   */\n      0x20\n        /* \"--CODEGEN--\":9801:9802   */\n      0x00\n        /* \"--CODEGEN--\":9791:9809   */\n      keccak256\n        /* \"--CODEGEN--\":9783:9809   */\n      swap1\n      pop\n        /* \"--CODEGEN--\":9721:9825   */\n      swap2\n      swap1\n      pop\n      jump\t// out\n        /* \"--CODEGEN--\":9832:9979   */\n    tag_344:\n      0x00\n        /* \"--CODEGEN--\":9951:9956   */\n      dup2\n        /* \"--CODEGEN--\":9945:9957   */\n      mload\n        /* \"--CODEGEN--\":9935:9957   */\n      swap1\n      pop\n        /* \"--CODEGEN--\":9916:9979   */\n      swap2\n      swap1\n      pop\n      jump\t// out\n        /* \"--CODEGEN--\":9986:10123   */\n    tag_358:\n      0x00\n        /* \"--CODEGEN--\":10095:10100   */\n      dup2\n        /* \"--CODEGEN--\":10089:10101   */\n      mload\n        /* \"--CODEGEN--\":10079:10101   */\n      swap1\n      pop\n        /* \"--CODEGEN--\":10060:10123   */\n      swap2\n      swap1\n      pop\n      jump\t// out\n        /* \"--CODEGEN--\":10130:10252   */\n    tag_375:\n      0x00\n        /* \"--CODEGEN--\":10224:10229   */\n      dup2\n        /* \"--CODEGEN--\":10218:10230   */\n      mload\n        /* \"--CODEGEN--\":10208:10230   */\n      swap1\n      pop\n        /* \"--CODEGEN--\":10189:10252   */\n      swap2\n      swap1\n      pop\n      jump\t// out\n        /* \"--CODEGEN--\":10259:10377   */\n    tag_354:\n      0x00\n        /* \"--CODEGEN--\":10367:10371   */\n      0x20\n        /* \"--CODEGEN--\":10362:10365   */\n      dup3\n        /* \"--CODEGEN--\":10358:10372   */\n      add\n        /* \"--CODEGEN--\":10350:10372   */\n      swap1\n      pop\n        /* \"--CODEGEN--\":10344:10377   */\n      swap2\n      swap1\n      pop\n      jump\t// out\n        /* \"--CODEGEN--\":10384:10492   */\n    tag_368:\n      0x00\n        /* \"--CODEGEN--\":10482:10486   */\n      0x20\n        /* \"--CODEGEN--\":10477:10480   */\n      dup3\n        /* \"--CODEGEN--\":10473:10487   */\n      add\n        /* \"--CODEGEN--\":10465:10487   */\n      swap1\n      pop\n        /* \"--CODEGEN--\":10459:10492   */\n      swap2\n      swap1\n      pop\n      jump\t// out\n        /* \"--CODEGEN--\":10500:10688   */\n    tag_346:\n      0x00\n        /* \"--CODEGEN--\":10640:10646   */\n      dup3\n        /* \"--CODEGEN--\":10635:10638   */\n      dup3\n        /* \"--CODEGEN--\":10628:10647   */\n      mstore\n        /* \"--CODEGEN--\":10677:10681   */\n      0x20\n        /* \"--CODEGEN--\":10672:10675   */\n      dup3\n        /* \"--CODEGEN--\":10668:10682   */\n      add\n        /* \"--CODEGEN--\":10653:10682   */\n      swap1\n      pop\n        /* \"--CODEGEN--\":10621:10688   */\n      swap3\n      swap2\n      pop\n      pop\n      jump\t// out\n        /* \"--CODEGEN--\":10697:10875   */\n    tag_360:\n      0x00\n        /* \"--CODEGEN--\":10827:10833   */\n      dup3\n        /* \"--CODEGEN--\":10822:10825   */\n      dup3\n        /* \"--CODEGEN--\":10815:10834   */\n      mstore\n        /* \"--CODEGEN--\":10864:10868   */\n      0x20\n        /* \"--CODEGEN--\":10859:10862   */\n      dup3\n        /* \"--CODEGEN--\":10855:10869   */\n      add\n        /* \"--CODEGEN--\":10840:10869   */\n      swap1\n      pop\n        /* \"--CODEGEN--\":10808:10875   */\n      swap3\n      swap2\n      pop\n      pop\n      jump\t// out\n        /* \"--CODEGEN--\":10884:11037   */\n    tag_377:\n      0x00\n        /* \"--CODEGEN--\":10989:10995   */\n      dup3\n        /* \"--CODEGEN--\":10984:10987   */\n      dup3\n        /* \"--CODEGEN--\":10977:10996   */\n      mstore\n        /* \"--CODEGEN--\":11026:11030   */\n      0x20\n        /* \"--CODEGEN--\":11021:11024   */\n      dup3\n        /* \"--CODEGEN--\":11017:11031   */\n      add\n        /* \"--CODEGEN--\":11002:11031   */\n      swap1\n      pop\n        /* \"--CODEGEN--\":10970:11037   */\n      swap3\n      swap2\n      pop\n      pop\n      jump\t// out\n        /* \"--CODEGEN--\":11046:11191   */\n    tag_386:\n      0x00\n        /* \"--CODEGEN--\":11182:11185   */\n      dup2\n        /* \"--CODEGEN--\":11167:11185   */\n      swap1\n      pop\n        /* \"--CODEGEN--\":11160:11191   */\n      swap3\n      swap2\n      pop\n      pop\n      jump\t// out\n        /* \"--CODEGEN--\":11199:11284   */\n    tag_372:\n      0x00\n        /* \"--CODEGEN--\":11272:11277   */\n      dup2\n        /* \"--CODEGEN--\":11265:11278   */\n      iszero\n        /* \"--CODEGEN--\":11258:11279   */\n      iszero\n        /* \"--CODEGEN--\":11247:11279   */\n      swap1\n      pop\n        /* \"--CODEGEN--\":11241:11284   */\n      swap2\n      swap1\n      pop\n      jump\t// out\n        /* \"--CODEGEN--\":11291:11363   */\n    tag_402:\n      0x00\n        /* \"--CODEGEN--\":11353:11358   */\n      dup2\n        /* \"--CODEGEN--\":11342:11358   */\n      swap1\n      pop\n        /* \"--CODEGEN--\":11336:11363   */\n      swap2\n      swap1\n      pop\n      jump\t// out\n        /* \"--CODEGEN--\":11371:11516   */\n    tag_307:\n        /* \"--CODEGEN--\":11452:11458   */\n      dup3\n        /* \"--CODEGEN--\":11447:11450   */\n      dup2\n        /* \"--CODEGEN--\":11442:11445   */\n      dup4\n        /* \"--CODEGEN--\":11429:11459   */\n      calldatacopy\n        /* \"--CODEGEN--\":11508:11509   */\n      0x00\n        /* \"--CODEGEN--\":11499:11505   */\n      dup4\n        /* \"--CODEGEN--\":11494:11497   */\n      dup4\n        /* \"--CODEGEN--\":11490:11506   */\n      add\n        /* \"--CODEGEN--\":11483:11510   */\n      mstore\n        /* \"--CODEGEN--\":11422:11516   */\n      pop\n      pop\n      pop\n      jump\t// out\n        /* \"--CODEGEN--\":11525:11793   */\n    tag_379:\n        /* \"--CODEGEN--\":11590:11591   */\n      0x00\n        /* \"--CODEGEN--\":11597:11698   */\n    tag_439:\n        /* \"--CODEGEN--\":11611:11617   */\n      dup4\n        /* \"--CODEGEN--\":11608:11609   */\n      dup2\n        /* \"--CODEGEN--\":11605:11618   */\n      lt\n        /* \"--CODEGEN--\":11597:11698   */\n      iszero\n      tag_441\n      jumpi\n        /* \"--CODEGEN--\":11687:11688   */\n      dup1\n        /* \"--CODEGEN--\":11682:11685   */\n      dup3\n        /* \"--CODEGEN--\":11678:11689   */\n      add\n        /* \"--CODEGEN--\":11672:11690   */\n      mload\n        /* \"--CODEGEN--\":11668:11669   */\n      dup2\n        /* \"--CODEGEN--\":11663:11666   */\n      dup5\n        /* \"--CODEGEN--\":11659:11670   */\n      add\n        /* \"--CODEGEN--\":11652:11691   */\n      mstore\n        /* \"--CODEGEN--\":11633:11635   */\n      0x20\n        /* \"--CODEGEN--\":11630:11631   */\n      dup2\n        /* \"--CODEGEN--\":11626:11636   */\n      add\n        /* \"--CODEGEN--\":11621:11636   */\n      swap1\n      pop\n        /* \"--CODEGEN--\":11597:11698   */\n      jump(tag_439)\n    tag_441:\n        /* \"--CODEGEN--\":11713:11719   */\n      dup4\n        /* \"--CODEGEN--\":11710:11711   */\n      dup2\n        /* \"--CODEGEN--\":11707:11720   */\n      gt\n        /* \"--CODEGEN--\":11704:11706   */\n      iszero\n      tag_442\n      jumpi\n        /* \"--CODEGEN--\":11778:11779   */\n      0x00\n        /* \"--CODEGEN--\":11769:11775   */\n      dup5\n        /* \"--CODEGEN--\":11764:11767   */\n      dup5\n        /* \"--CODEGEN--\":11760:11776   */\n      add\n        /* \"--CODEGEN--\":11753:11780   */\n      mstore\n        /* \"--CODEGEN--\":11704:11706   */\n    tag_442:\n        /* \"--CODEGEN--\":11574:11793   */\n      pop\n      pop\n      pop\n      pop\n      jump\t// out\n        /* \"--CODEGEN--\":11801:11898   */\n    tag_381:\n      0x00\n        /* \"--CODEGEN--\":11889:11891   */\n      0x1f\n        /* \"--CODEGEN--\":11885:11892   */\n      not\n        /* \"--CODEGEN--\":11880:11882   */\n      0x1f\n        /* \"--CODEGEN--\":11873:11878   */\n      dup4\n        /* \"--CODEGEN--\":11869:11883   */\n      add\n        /* \"--CODEGEN--\":11865:11893   */\n      and\n        /* \"--CODEGEN--\":11855:11893   */\n      swap1\n      pop\n        /* \"--CODEGEN--\":11849:11898   */\n      swap2\n      swap1\n      pop\n      jump\t// out\n        /* \"--CODEGEN--\":11906:12023   */\n    tag_311:\n        /* \"--CODEGEN--\":11975:11999   */\n      tag_445\n        /* \"--CODEGEN--\":11993:11998   */\n      dup2\n        /* \"--CODEGEN--\":11975:11999   */\n      tag_402\n      jump\t// in\n    tag_445:\n        /* \"--CODEGEN--\":11968:11973   */\n      dup2\n        /* \"--CODEGEN--\":11965:12000   */\n      eq\n        /* \"--CODEGEN--\":11955:11957   */\n      tag_446\n      jumpi\n        /* \"--CODEGEN--\":12014:12015   */\n      0x00\n        /* \"--CODEGEN--\":12011:12012   */\n      dup1\n        /* \"--CODEGEN--\":12004:12016   */\n      revert\n        /* \"--CODEGEN--\":11955:11957   */\n    tag_446:\n        /* \"--CODEGEN--\":11949:12023   */\n      pop\n      jump\t// out\n\n    auxdata: 0xa26469706673582212208e97ea551f197c8714085787f9472de3d6d727a638acc12fd2fbbb83b566fba464736f6c634300060c0033\n}\n",
    "bytecode": {
      "linkReferences": {},
      "object": "608060405234801561001057600080fd5b50336000806101000a81548173ffffffffffffffffffffffffffffffffffffffff021916908373ffffffffffffffffffffffffffffffffffffffff16021790555060006002819055506000600381905550611beb806100706000396000f3fe608060405234801561001057600080fd5b50600436106100a95760003560e01c80636db80995116100715780636db8099514610152578063716588961461017157806398173ff4146101a1578063a9cb1a36146101bd578063c4ae2f26146101d9578063e8e5339a14610209576100a9565b80630d3a6aee146100ae57806330a66294146100cc5780633276807a146100ea57806342bb20e11461010657806352bfd15c14610122575b600080fd5b6100b6610225565b6040516100c391906119f8565b60405180910390f35b6100d4610238565b6040516100e19190611a13565b60405180910390f35b61010460048036038101906100ff919061167a565b61029b565b005b610120600480360381019061011b919061167a565b610419565b005b61013c6004803603810190610137919061167a565b610669565b60405161014991906119f8565b60405180910390f35b61015a6107df565b6040516101689291906119c1565b60405180910390f35b61018b60048036038101906101869190611651565b6109f4565b604051610198919061199f565b60405180910390f35b6101bb60048036038101906101b691906115e5565b610be9565b005b6101d760048036038101906101d29190611651565b610d72565b005b6101f360048036038101906101ee91906116ce565b610f4c565b60405161020091906119f8565b60405180910390f35b610223600480360381019061021e91906116ce565b6110e9565b005b600460009054906101000a900460ff1681565b60008060009054906101000a900473ffffffffffffffffffffffffffffffffffffffff1673ffffffffffffffffffffffffffffffffffffffff163373ffffffffffffffffffffffffffffffffffffffff161461029357600080fd5b600254905090565b60008054906101000a900473ffffffffffffffffffffffffffffffffffffffff1673ffffffffffffffffffffffffffffffffffffffff163373ffffffffffffffffffffffffffffffffffffffff16146102f357600080fd5b6000805b6001805490508110156104135760006001828154811061031357fe5b9060005260206000209060040201905080600001548514156104055760005b81600301805490508110156103bf5781600301818154811061035057fe5b9060005260206000200160405160200161036a9190611988565b60405160208183030381529060405280519060200120856040516020016103919190611971565b6040516020818303038152906040528051906020012014156103b257600193505b8080600101915050610332565b508261040457806003018490806001815401808255809150506001900390600052602060002001600090919091909150908051906020019061040292919061124c565b505b5b5080806001019150506102f7565b50505050565b60008054906101000a900473ffffffffffffffffffffffffffffffffffffffff1673ffffffffffffffffffffffffffffffffffffffff163373ffffffffffffffffffffffffffffffffffffffff161461047157600080fd5b60005b600180549050811015610664576001818154811061048e57fe5b9060005260206000209060040201600001548314156106575760005b600182815481106104b757fe5b90600052602060002090600402016003018054905081101561065557600182815481106104e057fe5b906000526020600020906004020160030181815481106104fc57fe5b906000526020600020016040516020016105169190611988565b604051602081830303815290604052805190602001208360405160200161053d9190611971565b604051602081830303815290604052805190602001201415610648576001828154811061056657fe5b9060005260206000209060040201600301600180848154811061058557fe5b90600052602060002090600402016003018054905003815481106105a557fe5b90600052602060002001600183815481106105bc57fe5b906000526020600020906004020160030182815481106105d857fe5b9060005260206000200190805460018160011615610100020316600290046106019291906112cc565b506001828154811061060f57fe5b906000526020600020906004020160030180548061062957fe5b6001900381819060005260206000200160006106459190611353565b90555b80806001019150506104aa565b505b8080600101915050610474565b505050565b60008060009054906101000a900473ffffffffffffffffffffffffffffffffffffffff1673ffffffffffffffffffffffffffffffffffffffff163373ffffffffffffffffffffffffffffffffffffffff16146106c457600080fd5b60005b6001805490508110156107d357600181815481106106e157fe5b9060005260206000209060040201600001548414156107c65760005b6001828154811061070a57fe5b9060005260206000209060040201600301805490508110156107c4576001828154811061073357fe5b9060005260206000209060040201600301818154811061074f57fe5b906000526020600020016040516020016107699190611988565b60405160208183030381529060405280519060200120846040516020016107909190611971565b6040516020818303038152906040528051906020012014156107b7576001925050506107d9565b80806001019150506106fd565b505b80806001019150506106c7565b50600090505b92915050565b60608060008054906101000a900473ffffffffffffffffffffffffffffffffffffffff1673ffffffffffffffffffffffffffffffffffffffff163373ffffffffffffffffffffffffffffffffffffffff161461083a57600080fd5b606060025467ffffffffffffffff8111801561085557600080fd5b506040519080825280602002602001820160405280156108845781602001602082028036833780820191505090505b509050606060025467ffffffffffffffff811180156108a257600080fd5b506040519080825280602002602001820160405280156108d657816020015b60608152602001906001900390816108c15790505b50905060005b6001805490508110156109e7576000600182815481106108f857fe5b90600052602060002090600402019050806000015484838151811061091957fe5b602002602001018181525050806001018054600181600116156101000203166002900480601f0160208091040260200160405190810160405280929190818152602001828054600181600116156101000203166002900480156109bd5780601f10610992576101008083540402835291602001916109bd565b820191906000526020600020905b8154815290600101906020018083116109a057829003601f168201915b50505050508383815181106109ce57fe5b60200260200101819052505080806001019150506108dc565b5081819350935050509091565b606060008054906101000a900473ffffffffffffffffffffffffffffffffffffffff1673ffffffffffffffffffffffffffffffffffffffff163373ffffffffffffffffffffffffffffffffffffffff1614610a4e57600080fd5b60005b600180549050811015610be257600060018281548110610a6d57fe5b906000526020600020906004020190508060000154841415610bd4576060816003018054905067ffffffffffffffff81118015610aa957600080fd5b50604051908082528060200260200182016040528015610add57816020015b6060815260200190600190039081610ac85790505b50905060005b8260030180549050811015610bc857826003018181548110610b0157fe5b906000526020600020018054600181600116156101000203166002900480601f016020809104026020016040519081016040528092919081815260200182805460018160011615610100020316600290048015610b9f5780601f10610b7457610100808354040283529160200191610b9f565b820191906000526020600020905b815481529060010190602001808311610b8257829003601f168201915b5050505050828281518110610bb057fe5b60200260200101819052508080600101915050610ae3565b50809350505050610be4565b508080600101915050610a51565b505b919050565b60008054906101000a900473ffffffffffffffffffffffffffffffffffffffff1673ffffffffffffffffffffffffffffffffffffffff163373ffffffffffffffffffffffffffffffffffffffff1614610c4157600080fd5b610c4961139b565b60405180608001604052806003548152602001848152602001838152602001600067ffffffffffffffff81118015610c8057600080fd5b50604051908082528060200260200182016040528015610cb457816020015b6060815260200190600190039081610c9f5790505b5081525090506002600081548092919060010191905055506003600081548092919060010191905055506001819080600181540180825580915050600190039060005260206000209060040201600090919091909150600082015181600001556020820151816001019080519060200190610d3092919061124c565b506040820151816002019080519060200190610d4d92919061124c565b506060820151816003019080519060200190610d6a9291906113c3565b505050505050565b60008054906101000a900473ffffffffffffffffffffffffffffffffffffffff1673ffffffffffffffffffffffffffffffffffffffff163373ffffffffffffffffffffffffffffffffffffffff1614610dca57600080fd5b60005b600180549050811015610f485760018181548110610de757fe5b906000526020600020906004020160000154821415610f3b576001600460006101000a81548160ff02191690831515021790555060018080805490500381548110610e2e57fe5b906000526020600020906004020160018281548110610e4957fe5b90600052602060002090600402016000820154816000015560018201816001019080546001816001161561010002031660029004610e88929190611423565b5060028201816002019080546001816001161561010002031660029004610eb0929190611423565b506003820181600301908054610ec79291906114aa565b509050506001805480610ed657fe5b6001900381819060005260206000209060040201600080820160009055600182016000610f039190611353565b600282016000610f139190611353565b600382016000610f23919061151a565b50509055600260008154809291906001900391905055505b8080600101915050610dcd565b5050565b60008060009054906101000a900473ffffffffffffffffffffffffffffffffffffffff1673ffffffffffffffffffffffffffffffffffffffff163373ffffffffffffffffffffffffffffffffffffffff1614610fa757600080fd5b60005b6001805490508110156110dc5760018181548110610fc457fe5b9060005260206000209060040201600001548514801561104c575060018181548110610fec57fe5b906000526020600020906004020160010160405160200161100d9190611988565b60405160208183030381529060405280519060200120846040516020016110349190611971565b60405160208183030381529060405280519060200120145b80156110c057506001818154811061106057fe5b90600052602060002090600402016002016040516020016110819190611988565b60405160208183030381529060405280519060200120836040516020016110a89190611971565b60405160208183030381529060405280519060200120145b156110cf5760019150506110e2565b8080600101915050610faa565b50600090505b9392505050565b60008054906101000a900473ffffffffffffffffffffffffffffffffffffffff1673ffffffffffffffffffffffffffffffffffffffff163373ffffffffffffffffffffffffffffffffffffffff161461114157600080fd5b60005b6001805490508110156112465760006001828154811061116057fe5b9060005260206000209060040201905080600001548514156112385760005b8160030180549050811015611236578460405160200161119f9190611971565b604051602081830303815290604052805190602001208260030182815481106111c457fe5b906000526020600020016040516020016111de9190611988565b604051602081830303815290604052805190602001201415611229578382600301828154811061120a57fe5b90600052602060002001908051906020019061122792919061124c565b505b808060010191505061117f565b505b508080600101915050611144565b50505050565b828054600181600116156101000203166002900490600052602060002090601f016020900481019282601f1061128d57805160ff19168380011785556112bb565b828001600101855582156112bb579182015b828111156112ba57825182559160200191906001019061129f565b5b5090506112c8919061153b565b5090565b828054600181600116156101000203166002900490600052602060002090601f016020900481019282601f106113055780548555611342565b8280016001018555821561134257600052602060002091601f016020900482015b82811115611341578254825591600101919060010190611326565b5b50905061134f919061153b565b5090565b50805460018160011615610100020316600290046000825580601f106113795750611398565b601f016020900490600052602060002090810190611397919061153b565b5b50565b6040518060800160405280600081526020016060815260200160608152602001606081525090565b828054828255906000526020600020908101928215611412579160200282015b8281111561141157825182908051906020019061140192919061124c565b50916020019190600101906113e3565b5b50905061141f9190611558565b5090565b828054600181600116156101000203166002900490600052602060002090601f016020900481019282601f1061145c5780548555611499565b8280016001018555821561149957600052602060002091601f016020900482015b8281111561149857825482559160010191906001019061147d565b5b5090506114a6919061153b565b5090565b8280548282559060005260206000209081019282156115095760005260206000209182015b8281111561150857828290805460018160011615610100020316600290046114f8929190611423565b50916001019190600101906114cf565b5b5090506115169190611558565b5090565b50805460008255906000526020600020908101906115389190611558565b50565b5b8082111561155457600081600090555060010161153c565b5090565b5b80821115611578576000818161156f9190611353565b50600101611559565b5090565b600082601f83011261158d57600080fd5b81356115a061159b82611a5b565b611a2e565b915080825260208301602083018583830111156115bc57600080fd5b6115c7838284611b4b565b50505092915050565b6000813590506115df81611b9e565b92915050565b600080604083850312156115f857600080fd5b600083013567ffffffffffffffff81111561161257600080fd5b61161e8582860161157c565b925050602083013567ffffffffffffffff81111561163b57600080fd5b6116478582860161157c565b9150509250929050565b60006020828403121561166357600080fd5b6000611671848285016115d0565b91505092915050565b6000806040838503121561168d57600080fd5b600061169b858286016115d0565b925050602083013567ffffffffffffffff8111156116b857600080fd5b6116c48582860161157c565b9150509250929050565b6000806000606084860312156116e357600080fd5b60006116f1868287016115d0565b935050602084013567ffffffffffffffff81111561170e57600080fd5b61171a8682870161157c565b925050604084013567ffffffffffffffff81111561173757600080fd5b6117438682870161157c565b9150509250925092565b6000611759838361185b565b905092915050565b600061176d8383611953565b60208301905092915050565b600061178482611abc565b61178e8185611af7565b9350836020820285016117a085611a87565b8060005b858110156117dc57848403895281516117bd858261174d565b94506117c883611add565b925060208a019950506001810190506117a4565b50829750879550505050505092915050565b60006117f982611ac7565b6118038185611b08565b935061180e83611a97565b8060005b8381101561183f5781516118268882611761565b975061183183611aea565b925050600181019050611812565b5085935050505092915050565b61185581611b35565b82525050565b600061186682611ad2565b6118708185611b19565b9350611880818560208601611b5a565b61188981611b8d565b840191505092915050565b600061189f82611ad2565b6118a98185611b2a565b93506118b9818560208601611b5a565b80840191505092915050565b6000815460018116600081146118e257600181146119075761194b565b607f60028304166118f38187611b2a565b955060ff198316865280860193505061194b565b600282046119158187611b2a565b955061192085611aa7565b60005b8281101561194257815481890152600182019150602081019050611923565b82880195505050505b505092915050565b61195c81611b41565b82525050565b61196b81611b41565b82525050565b600061197d8284611894565b915081905092915050565b600061199482846118c5565b915081905092915050565b600060208201905081810360008301526119b98184611779565b905092915050565b600060408201905081810360008301526119db81856117ee565b905081810360208301526119ef8184611779565b90509392505050565b6000602082019050611a0d600083018461184c565b92915050565b6000602082019050611a286000830184611962565b92915050565b6000604051905081810181811067ffffffffffffffff82111715611a5157600080fd5b8060405250919050565b600067ffffffffffffffff821115611a7257600080fd5b601f19601f8301169050602081019050919050565b6000819050602082019050919050565b6000819050602082019050919050565b60008190508160005260206000209050919050565b600081519050919050565b600081519050919050565b600081519050919050565b6000602082019050919050565b6000602082019050919050565b600082825260208201905092915050565b600082825260208201905092915050565b600082825260208201905092915050565b600081905092915050565b60008115159050919050565b6000819050919050565b82818337600083830152505050565b60005b83811015611b78578082015181840152602081019050611b5d565b83811115611b87576000848401525b50505050565b6000601f19601f8301169050919050565b611ba781611b41565b8114611bb257600080fd5b5056fea26469706673582212208e97ea551f197c8714085787f9472de3d6d727a638acc12fd2fbbb83b566fba464736f6c634300060c0033",
      "opcodes": "PUSH1 0x80 PUSH1 0x40 MSTORE CALLVALUE DUP1 ISZERO PUSH2 0x10 JUMPI PUSH1 0x0 DUP1 REVERT JUMPDEST POP CALLER PUSH1 0x0 DUP1 PUSH2 0x100 EXP DUP2 SLOAD DUP2 PUSH20 0xFFFFFFFFFFFFFFFFFFFFFFFFFFFFFFFFFFFFFFFF MUL NOT AND SWAP1 DUP4 PUSH20 0xFFFFFFFFFFFFFFFFFFFFFFFFFFFFFFFFFFFFFFFF AND MUL OR SWAP1 SSTORE POP PUSH1 0x0 PUSH1 0x2 DUP2 SWAP1 SSTORE POP PUSH1 0x0 PUSH1 0x3 DUP2 SWAP1 SSTORE POP PUSH2 0x1BEB DUP1 PUSH2 0x70 PUSH1 0x0 CODECOPY PUSH1 0x0 RETURN INVALID PUSH1 0x80 PUSH1 0x40 MSTORE CALLVALUE DUP1 ISZERO PUSH2 0x10 JUMPI PUSH1 0x0 DUP1 REVERT JUMPDEST POP PUSH1 0x4 CALLDATASIZE LT PUSH2 0xA9 JUMPI PUSH1 0x0 CALLDATALOAD PUSH1 0xE0 SHR DUP1 PUSH4 0x6DB80995 GT PUSH2 0x71 JUMPI DUP1 PUSH4 0x6DB80995 EQ PUSH2 0x152 JUMPI DUP1 PUSH4 0x71658896 EQ PUSH2 0x171 JUMPI DUP1 PUSH4 0x98173FF4 EQ PUSH2 0x1A1 JUMPI DUP1 PUSH4 0xA9CB1A36 EQ PUSH2 0x1BD JUMPI DUP1 PUSH4 0xC4AE2F26 EQ PUSH2 0x1D9 JUMPI DUP1 PUSH4 0xE8E5339A EQ PUSH2 0x209 JUMPI PUSH2 0xA9 JUMP JUMPDEST DUP1 PUSH4 0xD3A6AEE EQ PUSH2 0xAE JUMPI DUP1 PUSH4 0x30A66294 EQ PUSH2 0xCC JUMPI DUP1 PUSH4 0x3276807A EQ PUSH2 0xEA JUMPI DUP1 PUSH4 0x42BB20E1 EQ PUSH2 0x106 JUMPI DUP1 PUSH4 0x52BFD15C EQ PUSH2 0x122 JUMPI JUMPDEST PUSH1 0x0 DUP1 REVERT JUMPDEST PUSH2 0xB6 PUSH2 0x225 JUMP JUMPDEST PUSH1 0x40 MLOAD PUSH2 0xC3 SWAP2 SWAP1 PUSH2 0x19F8 JUMP JUMPDEST PUSH1 0x40 MLOAD DUP1 SWAP2 SUB SWAP1 RETURN JUMPDEST PUSH2 0xD4 PUSH2 0x238 JUMP JUMPDEST PUSH1 0x40 MLOAD PUSH2 0xE1 SWAP2 SWAP1 PUSH2 0x1A13 JUMP JUMPDEST PUSH1 0x40 MLOAD DUP1 SWAP2 SUB SWAP1 RETURN JUMPDEST PUSH2 0x104 PUSH1 0x4 DUP1 CALLDATASIZE SUB DUP2 ADD SWAP1 PUSH2 0xFF SWAP2 SWAP1 PUSH2 0x167A JUMP JUMPDEST PUSH2 0x29B JUMP JUMPDEST STOP JUMPDEST PUSH2 0x120 PUSH1 0x4 DUP1 CALLDATASIZE SUB DUP2 ADD SWAP1 PUSH2 0x11B SWAP2 SWAP1 PUSH2 0x167A JUMP JUMPDEST PUSH2 0x419 JUMP JUMPDEST STOP JUMPDEST PUSH2 0x13C PUSH1 0x4 DUP1 CALLDATASIZE SUB DUP2 ADD SWAP1 PUSH2 0x137 SWAP2 SWAP1 PUSH2 0x167A JUMP JUMPDEST PUSH2 0x669 JUMP JUMPDEST PUSH1 0x40 MLOAD PUSH2 0x149 SWAP2 SWAP1 PUSH2 0x19F8 JUMP JUMPDEST PUSH1 0x40 MLOAD DUP1 SWAP2 SUB SWAP1 RETURN JUMPDEST PUSH2 0x15A PUSH2 0x7DF JUMP JUMPDEST PUSH1 0x40 MLOAD PUSH2 0x168 SWAP3 SWAP2 SWAP1 PUSH2 0x19C1 JUMP JUMPDEST PUSH1 0x40 MLOAD DUP1 SWAP2 SUB SWAP1 RETURN JUMPDEST PUSH2 0x18B PUSH1 0x4 DUP1 CALLDATASIZE SUB DUP2 ADD SWAP1 PUSH2 0x186 SWAP2 SWAP1 PUSH2 0x1651 JUMP JUMPDEST PUSH2 0x9F4 JUMP JUMPDEST PUSH1 0x40 MLOAD PUSH2 0x198 SWAP2 SWAP1 PUSH2 0x199F JUMP JUMPDEST PUSH1 0x40 MLOAD DUP1 SWAP2 SUB SWAP1 RETURN JUMPDEST PUSH2 0x1BB PUSH1 0x4 DUP1 CALLDATASIZE SUB DUP2 ADD SWAP1 PUSH2 0x1B6 SWAP2 SWAP1 PUSH2 0x15E5 JUMP JUMPDEST PUSH2 0xBE9 JUMP JUMPDEST STOP JUMPDEST PUSH2 0x1D7 PUSH1 0x4 DUP1 CALLDATASIZE SUB DUP2 ADD SWAP1 PUSH2 0x1D2 SWAP2 SWAP1 PUSH2 0x1651 JUMP JUMPDEST PUSH2 0xD72 JUMP JUMPDEST STOP JUMPDEST PUSH2 0x1F3 PUSH1 0x4 DUP1 CALLDATASIZE SUB DUP2 ADD SWAP1 PUSH2 0x1EE SWAP2 SWAP1 PUSH2 0x16CE JUMP JUMPDEST PUSH2 0xF4C JUMP JUMPDEST PUSH1 0x40 MLOAD PUSH2 0x200 SWAP2 SWAP1 PUSH2 0x19F8 JUMP JUMPDEST PUSH1 0x40 MLOAD DUP1 SWAP2 SUB SWAP1 RETURN JUMPDEST PUSH2 0x223 PUSH1 0x4 DUP1 CALLDATASIZE SUB DUP2 ADD SWAP1 PUSH2 0x21E SWAP2 SWAP1 PUSH2 0x16CE JUMP JUMPDEST PUSH2 0x10E9 JUMP JUMPDEST STOP JUMPDEST PUSH1 0x4 PUSH1 0x0 SWAP1 SLOAD SWAP1 PUSH2 0x100 EXP SWAP1 DIV PUSH1 0xFF AND DUP2 JUMP JUMPDEST PUSH1 0x0 DUP1 PUSH1 0x0 SWAP1 SLOAD SWAP1 PUSH2 0x100 EXP SWAP1 DIV PUSH20 0xFFFFFFFFFFFFFFFFFFFFFFFFFFFFFFFFFFFFFFFF AND PUSH20 0xFFFFFFFFFFFFFFFFFFFFFFFFFFFFFFFFFFFFFFFF AND CALLER PUSH20 0xFFFFFFFFFFFFFFFFFFFFFFFFFFFFFFFFFFFFFFFF AND EQ PUSH2 0x293 JUMPI PUSH1 0x0 DUP1 REVERT JUMPDEST PUSH1 0x2 SLOAD SWAP1 POP SWAP1 JUMP JUMPDEST PUSH1 0x0 DUP1 SLOAD SWAP1 PUSH2 0x100 EXP SWAP1 DIV PUSH20 0xFFFFFFFFFFFFFFFFFFFFFFFFFFFFFFFFFFFFFFFF AND PUSH20 0xFFFFFFFFFFFFFFFFFFFFFFFFFFFFFFFFFFFFFFFF AND CALLER PUSH20 0xFFFFFFFFFFFFFFFFFFFFFFFFFFFFFFFFFFFFFFFF AND EQ PUSH2 0x2F3 JUMPI PUSH1 0x0 DUP1 REVERT JUMPDEST PUSH1 0x0 DUP1 JUMPDEST PUSH1 0x1 DUP1 SLOAD SWAP1 POP DUP2 LT ISZERO PUSH2 0x413 JUMPI PUSH1 0x0 PUSH1 0x1 DUP3 DUP2 SLOAD DUP2 LT PUSH2 0x313 JUMPI INVALID JUMPDEST SWAP1 PUSH1 0x0 MSTORE PUSH1 0x20 PUSH1 0x0 KECCAK256 SWAP1 PUSH1 0x4 MUL ADD SWAP1 POP DUP1 PUSH1 0x0 ADD SLOAD DUP6 EQ ISZERO PUSH2 0x405 JUMPI PUSH1 0x0 JUMPDEST DUP2 PUSH1 0x3 ADD DUP1 SLOAD SWAP1 POP DUP2 LT ISZERO PUSH2 0x3BF JUMPI DUP2 PUSH1 0x3 ADD DUP2 DUP2 SLOAD DUP2 LT PUSH2 0x350 JUMPI INVALID JUMPDEST SWAP1 PUSH1 0x0 MSTORE PUSH1 0x20 PUSH1 0x0 KECCAK256 ADD PUSH1 0x40 MLOAD PUSH1 0x20 ADD PUSH2 0x36A SWAP2 SWAP1 PUSH2 0x1988 JUMP JUMPDEST PUSH1 0x40 MLOAD PUSH1 0x20 DUP2 DUP4 SUB SUB DUP2 MSTORE SWAP1 PUSH1 0x40 MSTORE DUP1 MLOAD SWAP1 PUSH1 0x20 ADD KECCAK256 DUP6 PUSH1 0x40 MLOAD PUSH1 0x20 ADD PUSH2 0x391 SWAP2 SWAP1 PUSH2 0x1971 JUMP JUMPDEST PUSH1 0x40 MLOAD PUSH1 0x20 DUP2 DUP4 SUB SUB DUP2 MSTORE SWAP1 PUSH1 0x40 MSTORE DUP1 MLOAD SWAP1 PUSH1 0x20 ADD KECCAK256 EQ ISZERO PUSH2 0x3B2 JUMPI PUSH1 0x1 SWAP4 POP JUMPDEST DUP1 DUP1 PUSH1 0x1 ADD SWAP2 POP POP PUSH2 0x332 JUMP JUMPDEST POP DUP3 PUSH2 0x404 JUMPI DUP1 PUSH1 0x3 ADD DUP5 SWAP1 DUP1 PUSH1 0x1 DUP2 SLOAD ADD DUP1 DUP3 SSTORE DUP1 SWAP2 POP POP PUSH1 0x1 SWAP1 SUB SWAP1 PUSH1 0x0 MSTORE PUSH1 0x20 PUSH1 0x0 KECCAK256 ADD PUSH1 0x0 SWAP1 SWAP2 SWAP1 SWAP2 SWAP1 SWAP2 POP SWAP1 DUP1 MLOAD SWAP1 PUSH1 0x20 ADD SWAP1 PUSH2 0x402 SWAP3 SWAP2 SWAP1 PUSH2 0x124C JUMP JUMPDEST POP JUMPDEST JUMPDEST POP DUP1 DUP1 PUSH1 0x1 ADD SWAP2 POP POP PUSH2 0x2F7 JUMP JUMPDEST POP POP POP POP JUMP JUMPDEST PUSH1 0x0 DUP1 SLOAD SWAP1 PUSH2 0x100 EXP SWAP1 DIV PUSH20 0xFFFFFFFFFFFFFFFFFFFFFFFFFFFFFFFFFFFFFFFF AND PUSH20 0xFFFFFFFFFFFFFFFFFFFFFFFFFFFFFFFFFFFFFFFF AND CALLER PUSH20 0xFFFFFFFFFFFFFFFFFFFFFFFFFFFFFFFFFFFFFFFF AND EQ PUSH2 0x471 JUMPI PUSH1 0x0 DUP1 REVERT JUMPDEST PUSH1 0x0 JUMPDEST PUSH1 0x1 DUP1 SLOAD SWAP1 POP DUP2 LT ISZERO PUSH2 0x664 JUMPI PUSH1 0x1 DUP2 DUP2 SLOAD DUP2 LT PUSH2 0x48E JUMPI INVALID JUMPDEST SWAP1 PUSH1 0x0 MSTORE PUSH1 0x20 PUSH1 0x0 KECCAK256 SWAP1 PUSH1 0x4 MUL ADD PUSH1 0x0 ADD SLOAD DUP4 EQ ISZERO PUSH2 0x657 JUMPI PUSH1 0x0 JUMPDEST PUSH1 0x1 DUP3 DUP2 SLOAD DUP2 LT PUSH2 0x4B7 JUMPI INVALID JUMPDEST SWAP1 PUSH1 0x0 MSTORE PUSH1 0x20 PUSH1 0x0 KECCAK256 SWAP1 PUSH1 0x4 MUL ADD PUSH1 0x3 ADD DUP1 SLOAD SWAP1 POP DUP2 LT ISZERO PUSH2 0x655 JUMPI PUSH1 0x1 DUP3 DUP2 SLOAD DUP2 LT PUSH2 0x4E0 JUMPI INVALID JUMPDEST SWAP1 PUSH1 0x0 MSTORE PUSH1 0x20 PUSH1 0x0 KECCAK256 SWAP1 PUSH1 0x4 MUL ADD PUSH1 0x3 ADD DUP2 DUP2 SLOAD DUP2 LT PUSH2 0x4FC JUMPI INVALID JUMPDEST SWAP1 PUSH1 0x0 MSTORE PUSH1 0x20 PUSH1 0x0 KECCAK256 ADD PUSH1 0x40 MLOAD PUSH1 0x20 ADD PUSH2 0x516 SWAP2 SWAP1 PUSH2 0x1988 JUMP JUMPDEST PUSH1 0x40 MLOAD PUSH1 0x20 DUP2 DUP4 SUB SUB DUP2 MSTORE SWAP1 PUSH1 0x40 MSTORE DUP1 MLOAD SWAP1 PUSH1 0x20 ADD KECCAK256 DUP4 PUSH1 0x40 MLOAD PUSH1 0x20 ADD PUSH2 0x53D SWAP2 SWAP1 PUSH2 0x1971 JUMP JUMPDEST PUSH1 0x40 MLOAD PUSH1 0x20 DUP2 DUP4 SUB SUB DUP2 MSTORE SWAP1 PUSH1 0x40 MSTORE DUP1 MLOAD SWAP1 PUSH1 0x20 ADD KECCAK256 EQ ISZERO PUSH2 0x648 JUMPI PUSH1 0x1 DUP3 DUP2 SLOAD DUP2 LT PUSH2 0x566 JUMPI INVALID JUMPDEST SWAP1 PUSH1 0x0 MSTORE PUSH1 0x20 PUSH1 0x0 KECCAK256 SWAP1 PUSH1 0x4 MUL ADD PUSH1 0x3 ADD PUSH1 0x1 DUP1 DUP5 DUP2 SLOAD DUP2 LT PUSH2 0x585 JUMPI INVALID JUMPDEST SWAP1 PUSH1 0x0 MSTORE PUSH1 0x20 PUSH1 0x0 KECCAK256 SWAP1 PUSH1 0x4 MUL ADD PUSH1 0x3 ADD DUP1 SLOAD SWAP1 POP SUB DUP2 SLOAD DUP2 LT PUSH2 0x5A5 JUMPI INVALID JUMPDEST SWAP1 PUSH1 0x0 MSTORE PUSH1 0x20 PUSH1 0x0 KECCAK256 ADD PUSH1 0x1 DUP4 DUP2 SLOAD DUP2 LT PUSH2 0x5BC JUMPI INVALID JUMPDEST SWAP1 PUSH1 0x0 MSTORE PUSH1 0x20 PUSH1 0x0 KECCAK256 SWAP1 PUSH1 0x4 MUL ADD PUSH1 0x3 ADD DUP3 DUP2 SLOAD DUP2 LT PUSH2 0x5D8 JUMPI INVALID JUMPDEST SWAP1 PUSH1 0x0 MSTORE PUSH1 0x20 PUSH1 0x0 KECCAK256 ADD SWAP1 DUP1 SLOAD PUSH1 0x1 DUP2 PUSH1 0x1 AND ISZERO PUSH2 0x100 MUL SUB AND PUSH1 0x2 SWAP1 DIV PUSH2 0x601 SWAP3 SWAP2 SWAP1 PUSH2 0x12CC JUMP JUMPDEST POP PUSH1 0x1 DUP3 DUP2 SLOAD DUP2 LT PUSH2 0x60F JUMPI INVALID JUMPDEST SWAP1 PUSH1 0x0 MSTORE PUSH1 0x20 PUSH1 0x0 KECCAK256 SWAP1 PUSH1 0x4 MUL ADD PUSH1 0x3 ADD DUP1 SLOAD DUP1 PUSH2 0x629 JUMPI INVALID JUMPDEST PUSH1 0x1 SWAP1 SUB DUP2 DUP2 SWAP1 PUSH1 0x0 MSTORE PUSH1 0x20 PUSH1 0x0 KECCAK256 ADD PUSH1 0x0 PUSH2 0x645 SWAP2 SWAP1 PUSH2 0x1353 JUMP JUMPDEST SWAP1 SSTORE JUMPDEST DUP1 DUP1 PUSH1 0x1 ADD SWAP2 POP POP PUSH2 0x4AA JUMP JUMPDEST POP JUMPDEST DUP1 DUP1 PUSH1 0x1 ADD SWAP2 POP POP PUSH2 0x474 JUMP JUMPDEST POP POP POP JUMP JUMPDEST PUSH1 0x0 DUP1 PUSH1 0x0 SWAP1 SLOAD SWAP1 PUSH2 0x100 EXP SWAP1 DIV PUSH20 0xFFFFFFFFFFFFFFFFFFFFFFFFFFFFFFFFFFFFFFFF AND PUSH20 0xFFFFFFFFFFFFFFFFFFFFFFFFFFFFFFFFFFFFFFFF AND CALLER PUSH20 0xFFFFFFFFFFFFFFFFFFFFFFFFFFFFFFFFFFFFFFFF AND EQ PUSH2 0x6C4 JUMPI PUSH1 0x0 DUP1 REVERT JUMPDEST PUSH1 0x0 JUMPDEST PUSH1 0x1 DUP1 SLOAD SWAP1 POP DUP2 LT ISZERO PUSH2 0x7D3 JUMPI PUSH1 0x1 DUP2 DUP2 SLOAD DUP2 LT PUSH2 0x6E1 JUMPI INVALID JUMPDEST SWAP1 PUSH1 0x0 MSTORE PUSH1 0x20 PUSH1 0x0 KECCAK256 SWAP1 PUSH1 0x4 MUL ADD PUSH1 0x0 ADD SLOAD DUP5 EQ ISZERO PUSH2 0x7C6 JUMPI PUSH1 0x0 JUMPDEST PUSH1 0x1 DUP3 DUP2 SLOAD DUP2 LT PUSH2 0x70A JUMPI INVALID JUMPDEST SWAP1 PUSH1 0x0 MSTORE PUSH1 0x20 PUSH1 0x0 KECCAK256 SWAP1 PUSH1 0x4 MUL ADD PUSH1 0x3 ADD DUP1 SLOAD SWAP1 POP DUP2 LT ISZERO PUSH2 0x7C4 JUMPI PUSH1 0x1 DUP3 DUP2 SLOAD DUP2 LT PUSH2 0x733 JUMPI INVALID JUMPDEST SWAP1 PUSH1 0x0 MSTORE PUSH1 0x20 PUSH1 0x0 KECCAK256 SWAP1 PUSH1 0x4 MUL ADD PUSH1 0x3 ADD DUP2 DUP2 SLOAD DUP2 LT PUSH2 0x74F JUMPI INVALID JUMPDEST SWAP1 PUSH1 0x0 MSTORE PUSH1 0x20 PUSH1 0x0 KECCAK256 ADD PUSH1 0x40 MLOAD PUSH1 0x20 ADD PUSH2 0x769 SWAP2 SWAP1 PUSH2 0x1988 JUMP JUMPDEST PUSH1 0x40 MLOAD PUSH1 0x20 DUP2 DUP4 SUB SUB DUP2 MSTORE SWAP1 PUSH1 0x40 MSTORE DUP1 MLOAD SWAP1 PUSH1 0x20 ADD KECCAK256 DUP5 PUSH1 0x40 MLOAD PUSH1 0x20 ADD PUSH2 0x790 SWAP2 SWAP1 PUSH2 0x1971 JUMP JUMPDEST PUSH1 0x40 MLOAD PUSH1 0x20 DUP2 DUP4 SUB SUB DUP2 MSTORE SWAP1 PUSH1 0x40 MSTORE DUP1 MLOAD SWAP1 PUSH1 0x20 ADD KECCAK256 EQ ISZERO PUSH2 0x7B7 JUMPI PUSH1 0x1 SWAP3 POP POP POP PUSH2 0x7D9 JUMP JUMPDEST DUP1 DUP1 PUSH1 0x1 ADD SWAP2 POP POP PUSH2 0x6FD JUMP JUMPDEST POP JUMPDEST DUP1 DUP1 PUSH1 0x1 ADD SWAP2 POP POP PUSH2 0x6C7 JUMP JUMPDEST POP PUSH1 0x0 SWAP1 POP JUMPDEST SWAP3 SWAP2 POP POP JUMP JUMPDEST PUSH1 0x60 DUP1 PUSH1 0x0 DUP1 SLOAD SWAP1 PUSH2 0x100 EXP SWAP1 DIV PUSH20 0xFFFFFFFFFFFFFFFFFFFFFFFFFFFFFFFFFFFFFFFF AND PUSH20 0xFFFFFFFFFFFFFFFFFFFFFFFFFFFFFFFFFFFFFFFF AND CALLER PUSH20 0xFFFFFFFFFFFFFFFFFFFFFFFFFFFFFFFFFFFFFFFF AND EQ PUSH2 0x83A JUMPI PUSH1 0x0 DUP1 REVERT JUMPDEST PUSH1 0x60 PUSH1 0x2 SLOAD PUSH8 0xFFFFFFFFFFFFFFFF DUP2 GT DUP1 ISZERO PUSH2 0x855 JUMPI PUSH1 0x0 DUP1 REVERT JUMPDEST POP PUSH1 0x40 MLOAD SWAP1 DUP1 DUP3 MSTORE DUP1 PUSH1 0x20 MUL PUSH1 0x20 ADD DUP3 ADD PUSH1 0x40 MSTORE DUP1 ISZERO PUSH2 0x884 JUMPI DUP2 PUSH1 0x20 ADD PUSH1 0x20 DUP3 MUL DUP1 CALLDATASIZE DUP4 CALLDATACOPY DUP1 DUP3 ADD SWAP2 POP POP SWAP1 POP JUMPDEST POP SWAP1 POP PUSH1 0x60 PUSH1 0x2 SLOAD PUSH8 0xFFFFFFFFFFFFFFFF DUP2 GT DUP1 ISZERO PUSH2 0x8A2 JUMPI PUSH1 0x0 DUP1 REVERT JUMPDEST POP PUSH1 0x40 MLOAD SWAP1 DUP1 DUP3 MSTORE DUP1 PUSH1 0x20 MUL PUSH1 0x20 ADD DUP3 ADD PUSH1 0x40 MSTORE DUP1 ISZERO PUSH2 0x8D6 JUMPI DUP2 PUSH1 0x20 ADD JUMPDEST PUSH1 0x60 DUP2 MSTORE PUSH1 0x20 ADD SWAP1 PUSH1 0x1 SWAP1 SUB SWAP1 DUP2 PUSH2 0x8C1 JUMPI SWAP1 POP JUMPDEST POP SWAP1 POP PUSH1 0x0 JUMPDEST PUSH1 0x1 DUP1 SLOAD SWAP1 POP DUP2 LT ISZERO PUSH2 0x9E7 JUMPI PUSH1 0x0 PUSH1 0x1 DUP3 DUP2 SLOAD DUP2 LT PUSH2 0x8F8 JUMPI INVALID JUMPDEST SWAP1 PUSH1 0x0 MSTORE PUSH1 0x20 PUSH1 0x0 KECCAK256 SWAP1 PUSH1 0x4 MUL ADD SWAP1 POP DUP1 PUSH1 0x0 ADD SLOAD DUP5 DUP4 DUP2 MLOAD DUP2 LT PUSH2 0x919 JUMPI INVALID JUMPDEST PUSH1 0x20 MUL PUSH1 0x20 ADD ADD DUP2 DUP2 MSTORE POP POP DUP1 PUSH1 0x1 ADD DUP1 SLOAD PUSH1 0x1 DUP2 PUSH1 0x1 AND ISZERO PUSH2 0x100 MUL SUB AND PUSH1 0x2 SWAP1 DIV DUP1 PUSH1 0x1F ADD PUSH1 0x20 DUP1 SWAP2 DIV MUL PUSH1 0x20 ADD PUSH1 0x40 MLOAD SWAP1 DUP2 ADD PUSH1 0x40 MSTORE DUP1 SWAP3 SWAP2 SWAP1 DUP2 DUP2 MSTORE PUSH1 0x20 ADD DUP3 DUP1 SLOAD PUSH1 0x1 DUP2 PUSH1 0x1 AND ISZERO PUSH2 0x100 MUL SUB AND PUSH1 0x2 SWAP1 DIV DUP1 ISZERO PUSH2 0x9BD JUMPI DUP1 PUSH1 0x1F LT PUSH2 0x992 JUMPI PUSH2 0x100 DUP1 DUP4 SLOAD DIV MUL DUP4 MSTORE SWAP2 PUSH1 0x20 ADD SWAP2 PUSH2 0x9BD JUMP JUMPDEST DUP3 ADD SWAP2 SWAP1 PUSH1 0x0 MSTORE PUSH1 0x20 PUSH1 0x0 KECCAK256 SWAP1 JUMPDEST DUP2 SLOAD DUP2 MSTORE SWAP1 PUSH1 0x1 ADD SWAP1 PUSH1 0x20 ADD DUP1 DUP4 GT PUSH2 0x9A0 JUMPI DUP3 SWAP1 SUB PUSH1 0x1F AND DUP3 ADD SWAP2 JUMPDEST POP POP POP POP POP DUP4 DUP4 DUP2 MLOAD DUP2 LT PUSH2 0x9CE JUMPI INVALID JUMPDEST PUSH1 0x20 MUL PUSH1 0x20 ADD ADD DUP2 SWAP1 MSTORE POP POP DUP1 DUP1 PUSH1 0x1 ADD SWAP2 POP POP PUSH2 0x8DC JUMP JUMPDEST POP DUP2 DUP2 SWAP4 POP SWAP4 POP POP POP SWAP1 SWAP2 JUMP JUMPDEST PUSH1 0x60 PUSH1 0x0 DUP1 SLOAD SWAP1 PUSH2 0x100 EXP SWAP1 DIV PUSH20 0xFFFFFFFFFFFFFFFFFFFFFFFFFFFFFFFFFFFFFFFF AND PUSH20 0xFFFFFFFFFFFFFFFFFFFFFFFFFFFFFFFFFFFFFFFF AND CALLER PUSH20 0xFFFFFFFFFFFFFFFFFFFFFFFFFFFFFFFFFFFFFFFF AND EQ PUSH2 0xA4E JUMPI PUSH1 0x0 DUP1 REVERT JUMPDEST PUSH1 0x0 JUMPDEST PUSH1 0x1 DUP1 SLOAD SWAP1 POP DUP2 LT ISZERO PUSH2 0xBE2 JUMPI PUSH1 0x0 PUSH1 0x1 DUP3 DUP2 SLOAD DUP2 LT PUSH2 0xA6D JUMPI INVALID JUMPDEST SWAP1 PUSH1 0x0 MSTORE PUSH1 0x20 PUSH1 0x0 KECCAK256 SWAP1 PUSH1 0x4 MUL ADD SWAP1 POP DUP1 PUSH1 0x0 ADD SLOAD DUP5 EQ ISZERO PUSH2 0xBD4 JUMPI PUSH1 0x60 DUP2 PUSH1 0x3 ADD DUP1 SLOAD SWAP1 POP PUSH8 0xFFFFFFFFFFFFFFFF DUP2 GT DUP1 ISZERO PUSH2 0xAA9 JUMPI PUSH1 0x0 DUP1 REVERT JUMPDEST POP PUSH1 0x40 MLOAD SWAP1 DUP1 DUP3 MSTORE DUP1 PUSH1 0x20 MUL PUSH1 0x20 ADD DUP3 ADD PUSH1 0x40 MSTORE DUP1 ISZERO PUSH2 0xADD JUMPI DUP2 PUSH1 0x20 ADD JUMPDEST PUSH1 0x60 DUP2 MSTORE PUSH1 0x20 ADD SWAP1 PUSH1 0x1 SWAP1 SUB SWAP1 DUP2 PUSH2 0xAC8 JUMPI SWAP1 POP JUMPDEST POP SWAP1 POP PUSH1 0x0 JUMPDEST DUP3 PUSH1 0x3 ADD DUP1 SLOAD SWAP1 POP DUP2 LT ISZERO PUSH2 0xBC8 JUMPI DUP3 PUSH1 0x3 ADD DUP2 DUP2 SLOAD DUP2 LT PUSH2 0xB01 JUMPI INVALID JUMPDEST SWAP1 PUSH1 0x0 MSTORE PUSH1 0x20 PUSH1 0x0 KECCAK256 ADD DUP1 SLOAD PUSH1 0x1 DUP2 PUSH1 0x1 AND ISZERO PUSH2 0x100 MUL SUB AND PUSH1 0x2 SWAP1 DIV DUP1 PUSH1 0x1F ADD PUSH1 0x20 DUP1 SWAP2 DIV MUL PUSH1 0x20 ADD PUSH1 0x40 MLOAD SWAP1 DUP2 ADD PUSH1 0x40 MSTORE DUP1 SWAP3 SWAP2 SWAP1 DUP2 DUP2 MSTORE PUSH1 0x20 ADD DUP3 DUP1 SLOAD PUSH1 0x1 DUP2 PUSH1 0x1 AND ISZERO PUSH2 0x100 MUL SUB AND PUSH1 0x2 SWAP1 DIV DUP1 ISZERO PUSH2 0xB9F JUMPI DUP1 PUSH1 0x1F LT PUSH2 0xB74 JUMPI PUSH2 0x100 DUP1 DUP4 SLOAD DIV MUL DUP4 MSTORE SWAP2 PUSH1 0x20 ADD SWAP2 PUSH2 0xB9F JUMP JUMPDEST DUP3 ADD SWAP2 SWAP1 PUSH1 0x0 MSTORE PUSH1 0x20 PUSH1 0x0 KECCAK256 SWAP1 JUMPDEST DUP2 SLOAD DUP2 MSTORE SWAP1 PUSH1 0x1 ADD SWAP1 PUSH1 0x20 ADD DUP1 DUP4 GT PUSH2 0xB82 JUMPI DUP3 SWAP1 SUB PUSH1 0x1F AND DUP3 ADD SWAP2 JUMPDEST POP POP POP POP POP DUP3 DUP3 DUP2 MLOAD DUP2 LT PUSH2 0xBB0 JUMPI INVALID JUMPDEST PUSH1 0x20 MUL PUSH1 0x20 ADD ADD DUP2 SWAP1 MSTORE POP DUP1 DUP1 PUSH1 0x1 ADD SWAP2 POP POP PUSH2 0xAE3 JUMP JUMPDEST POP DUP1 SWAP4 POP POP POP POP PUSH2 0xBE4 JUMP JUMPDEST POP DUP1 DUP1 PUSH1 0x1 ADD SWAP2 POP POP PUSH2 0xA51 JUMP JUMPDEST POP JUMPDEST SWAP2 SWAP1 POP JUMP JUMPDEST PUSH1 0x0 DUP1 SLOAD SWAP1 PUSH2 0x100 EXP SWAP1 DIV PUSH20 0xFFFFFFFFFFFFFFFFFFFFFFFFFFFFFFFFFFFFFFFF AND PUSH20 0xFFFFFFFFFFFFFFFFFFFFFFFFFFFFFFFFFFFFFFFF AND CALLER PUSH20 0xFFFFFFFFFFFFFFFFFFFFFFFFFFFFFFFFFFFFFFFF AND EQ PUSH2 0xC41 JUMPI PUSH1 0x0 DUP1 REVERT JUMPDEST PUSH2 0xC49 PUSH2 0x139B JUMP JUMPDEST PUSH1 0x40 MLOAD DUP1 PUSH1 0x80 ADD PUSH1 0x40 MSTORE DUP1 PUSH1 0x3 SLOAD DUP2 MSTORE PUSH1 0x20 ADD DUP5 DUP2 MSTORE PUSH1 0x20 ADD DUP4 DUP2 MSTORE PUSH1 0x20 ADD PUSH1 0x0 PUSH8 0xFFFFFFFFFFFFFFFF DUP2 GT DUP1 ISZERO PUSH2 0xC80 JUMPI PUSH1 0x0 DUP1 REVERT JUMPDEST POP PUSH1 0x40 MLOAD SWAP1 DUP1 DUP3 MSTORE DUP1 PUSH1 0x20 MUL PUSH1 0x20 ADD DUP3 ADD PUSH1 0x40 MSTORE DUP1 ISZERO PUSH2 0xCB4 JUMPI DUP2 PUSH1 0x20 ADD JUMPDEST PUSH1 0x60 DUP2 MSTORE PUSH1 0x20 ADD SWAP1 PUSH1 0x1 SWAP1 SUB SWAP1 DUP2 PUSH2 0xC9F JUMPI SWAP1 POP JUMPDEST POP DUP2 MSTORE POP SWAP1 POP PUSH1 0x2 PUSH1 0x0 DUP2 SLOAD DUP1 SWAP3 SWAP2 SWAP1 PUSH1 0x1 ADD SWAP2 SWAP1 POP SSTORE POP PUSH1 0x3 PUSH1 0x0 DUP2 SLOAD DUP1 SWAP3 SWAP2 SWAP1 PUSH1 0x1 ADD SWAP2 SWAP1 POP SSTORE POP PUSH1 0x1 DUP2 SWAP1 DUP1 PUSH1 0x1 DUP2 SLOAD ADD DUP1 DUP3 SSTORE DUP1 SWAP2 POP POP PUSH1 0x1 SWAP1 SUB SWAP1 PUSH1 0x0 MSTORE PUSH1 0x20 PUSH1 0x0 KECCAK256 SWAP1 PUSH1 0x4 MUL ADD PUSH1 0x0 SWAP1 SWAP2 SWAP1 SWAP2 SWAP1 SWAP2 POP PUSH1 0x0 DUP3 ADD MLOAD DUP2 PUSH1 0x0 ADD SSTORE PUSH1 0x20 DUP3 ADD MLOAD DUP2 PUSH1 0x1 ADD SWAP1 DUP1 MLOAD SWAP1 PUSH1 0x20 ADD SWAP1 PUSH2 0xD30 SWAP3 SWAP2 SWAP1 PUSH2 0x124C JUMP JUMPDEST POP PUSH1 0x40 DUP3 ADD MLOAD DUP2 PUSH1 0x2 ADD SWAP1 DUP1 MLOAD SWAP1 PUSH1 0x20 ADD SWAP1 PUSH2 0xD4D SWAP3 SWAP2 SWAP1 PUSH2 0x124C JUMP JUMPDEST POP PUSH1 0x60 DUP3 ADD MLOAD DUP2 PUSH1 0x3 ADD SWAP1 DUP1 MLOAD SWAP1 PUSH1 0x20 ADD SWAP1 PUSH2 0xD6A SWAP3 SWAP2 SWAP1 PUSH2 0x13C3 JUMP JUMPDEST POP POP POP POP POP POP JUMP JUMPDEST PUSH1 0x0 DUP1 SLOAD SWAP1 PUSH2 0x100 EXP SWAP1 DIV PUSH20 0xFFFFFFFFFFFFFFFFFFFFFFFFFFFFFFFFFFFFFFFF AND PUSH20 0xFFFFFFFFFFFFFFFFFFFFFFFFFFFFFFFFFFFFFFFF AND CALLER PUSH20 0xFFFFFFFFFFFFFFFFFFFFFFFFFFFFFFFFFFFFFFFF AND EQ PUSH2 0xDCA JUMPI PUSH1 0x0 DUP1 REVERT JUMPDEST PUSH1 0x0 JUMPDEST PUSH1 0x1 DUP1 SLOAD SWAP1 POP DUP2 LT ISZERO PUSH2 0xF48 JUMPI PUSH1 0x1 DUP2 DUP2 SLOAD DUP2 LT PUSH2 0xDE7 JUMPI INVALID JUMPDEST SWAP1 PUSH1 0x0 MSTORE PUSH1 0x20 PUSH1 0x0 KECCAK256 SWAP1 PUSH1 0x4 MUL ADD PUSH1 0x0 ADD SLOAD DUP3 EQ ISZERO PUSH2 0xF3B JUMPI PUSH1 0x1 PUSH1 0x4 PUSH1 0x0 PUSH2 0x100 EXP DUP2 SLOAD DUP2 PUSH1 0xFF MUL NOT AND SWAP1 DUP4 ISZERO ISZERO MUL OR SWAP1 SSTORE POP PUSH1 0x1 DUP1 DUP1 DUP1 SLOAD SWAP1 POP SUB DUP2 SLOAD DUP2 LT PUSH2 0xE2E JUMPI INVALID JUMPDEST SWAP1 PUSH1 0x0 MSTORE PUSH1 0x20 PUSH1 0x0 KECCAK256 SWAP1 PUSH1 0x4 MUL ADD PUSH1 0x1 DUP3 DUP2 SLOAD DUP2 LT PUSH2 0xE49 JUMPI INVALID JUMPDEST SWAP1 PUSH1 0x0 MSTORE PUSH1 0x20 PUSH1 0x0 KECCAK256 SWAP1 PUSH1 0x4 MUL ADD PUSH1 0x0 DUP3 ADD SLOAD DUP2 PUSH1 0x0 ADD SSTORE PUSH1 0x1 DUP3 ADD DUP2 PUSH1 0x1 ADD SWAP1 DUP1 SLOAD PUSH1 0x1 DUP2 PUSH1 0x1 AND ISZERO PUSH2 0x100 MUL SUB AND PUSH1 0x2 SWAP1 DIV PUSH2 0xE88 SWAP3 SWAP2 SWAP1 PUSH2 0x1423 JUMP JUMPDEST POP PUSH1 0x2 DUP3 ADD DUP2 PUSH1 0x2 ADD SWAP1 DUP1 SLOAD PUSH1 0x1 DUP2 PUSH1 0x1 AND ISZERO PUSH2 0x100 MUL SUB AND PUSH1 0x2 SWAP1 DIV PUSH2 0xEB0 SWAP3 SWAP2 SWAP1 PUSH2 0x1423 JUMP JUMPDEST POP PUSH1 0x3 DUP3 ADD DUP2 PUSH1 0x3 ADD SWAP1 DUP1 SLOAD PUSH2 0xEC7 SWAP3 SWAP2 SWAP1 PUSH2 0x14AA JUMP JUMPDEST POP SWAP1 POP POP PUSH1 0x1 DUP1 SLOAD DUP1 PUSH2 0xED6 JUMPI INVALID JUMPDEST PUSH1 0x1 SWAP1 SUB DUP2 DUP2 SWAP1 PUSH1 0x0 MSTORE PUSH1 0x20 PUSH1 0x0 KECCAK256 SWAP1 PUSH1 0x4 MUL ADD PUSH1 0x0 DUP1 DUP3 ADD PUSH1 0x0 SWAP1 SSTORE PUSH1 0x1 DUP3 ADD PUSH1 0x0 PUSH2 0xF03 SWAP2 SWAP1 PUSH2 0x1353 JUMP JUMPDEST PUSH1 0x2 DUP3 ADD PUSH1 0x0 PUSH2 0xF13 SWAP2 SWAP1 PUSH2 0x1353 JUMP JUMPDEST PUSH1 0x3 DUP3 ADD PUSH1 0x0 PUSH2 0xF23 SWAP2 SWAP1 PUSH2 0x151A JUMP JUMPDEST POP POP SWAP1 SSTORE PUSH1 0x2 PUSH1 0x0 DUP2 SLOAD DUP1 SWAP3 SWAP2 SWAP1 PUSH1 0x1 SWAP1 SUB SWAP2 SWAP1 POP SSTORE POP JUMPDEST DUP1 DUP1 PUSH1 0x1 ADD SWAP2 POP POP PUSH2 0xDCD JUMP JUMPDEST POP POP JUMP JUMPDEST PUSH1 0x0 DUP1 PUSH1 0x0 SWAP1 SLOAD SWAP1 PUSH2 0x100 EXP SWAP1 DIV PUSH20 0xFFFFFFFFFFFFFFFFFFFFFFFFFFFFFFFFFFFFFFFF AND PUSH20 0xFFFFFFFFFFFFFFFFFFFFFFFFFFFFFFFFFFFFFFFF AND CALLER PUSH20 0xFFFFFFFFFFFFFFFFFFFFFFFFFFFFFFFFFFFFFFFF AND EQ PUSH2 0xFA7 JUMPI PUSH1 0x0 DUP1 REVERT JUMPDEST PUSH1 0x0 JUMPDEST PUSH1 0x1 DUP1 SLOAD SWAP1 POP DUP2 LT ISZERO PUSH2 0x10DC JUMPI PUSH1 0x1 DUP2 DUP2 SLOAD DUP2 LT PUSH2 0xFC4 JUMPI INVALID JUMPDEST SWAP1 PUSH1 0x0 MSTORE PUSH1 0x20 PUSH1 0x0 KECCAK256 SWAP1 PUSH1 0x4 MUL ADD PUSH1 0x0 ADD SLOAD DUP6 EQ DUP1 ISZERO PUSH2 0x104C JUMPI POP PUSH1 0x1 DUP2 DUP2 SLOAD DUP2 LT PUSH2 0xFEC JUMPI INVALID JUMPDEST SWAP1 PUSH1 0x0 MSTORE PUSH1 0x20 PUSH1 0x0 KECCAK256 SWAP1 PUSH1 0x4 MUL ADD PUSH1 0x1 ADD PUSH1 0x40 MLOAD PUSH1 0x20 ADD PUSH2 0x100D SWAP2 SWAP1 PUSH2 0x1988 JUMP JUMPDEST PUSH1 0x40 MLOAD PUSH1 0x20 DUP2 DUP4 SUB SUB DUP2 MSTORE SWAP1 PUSH1 0x40 MSTORE DUP1 MLOAD SWAP1 PUSH1 0x20 ADD KECCAK256 DUP5 PUSH1 0x40 MLOAD PUSH1 0x20 ADD PUSH2 0x1034 SWAP2 SWAP1 PUSH2 0x1971 JUMP JUMPDEST PUSH1 0x40 MLOAD PUSH1 0x20 DUP2 DUP4 SUB SUB DUP2 MSTORE SWAP1 PUSH1 0x40 MSTORE DUP1 MLOAD SWAP1 PUSH1 0x20 ADD KECCAK256 EQ JUMPDEST DUP1 ISZERO PUSH2 0x10C0 JUMPI POP PUSH1 0x1 DUP2 DUP2 SLOAD DUP2 LT PUSH2 0x1060 JUMPI INVALID JUMPDEST SWAP1 PUSH1 0x0 MSTORE PUSH1 0x20 PUSH1 0x0 KECCAK256 SWAP1 PUSH1 0x4 MUL ADD PUSH1 0x2 ADD PUSH1 0x40 MLOAD PUSH1 0x20 ADD PUSH2 0x1081 SWAP2 SWAP1 PUSH2 0x1988 JUMP JUMPDEST PUSH1 0x40 MLOAD PUSH1 0x20 DUP2 DUP4 SUB SUB DUP2 MSTORE SWAP1 PUSH1 0x40 MSTORE DUP1 MLOAD SWAP1 PUSH1 0x20 ADD KECCAK256 DUP4 PUSH1 0x40 MLOAD PUSH1 0x20 ADD PUSH2 0x10A8 SWAP2 SWAP1 PUSH2 0x1971 JUMP JUMPDEST PUSH1 0x40 MLOAD PUSH1 0x20 DUP2 DUP4 SUB SUB DUP2 MSTORE SWAP1 PUSH1 0x40 MSTORE DUP1 MLOAD SWAP1 PUSH1 0x20 ADD KECCAK256 EQ JUMPDEST ISZERO PUSH2 0x10CF JUMPI PUSH1 0x1 SWAP2 POP POP PUSH2 0x10E2 JUMP JUMPDEST DUP1 DUP1 PUSH1 0x1 ADD SWAP2 POP POP PUSH2 0xFAA JUMP JUMPDEST POP PUSH1 0x0 SWAP1 POP JUMPDEST SWAP4 SWAP3 POP POP POP JUMP JUMPDEST PUSH1 0x0 DUP1 SLOAD SWAP1 PUSH2 0x100 EXP SWAP1 DIV PUSH20 0xFFFFFFFFFFFFFFFFFFFFFFFFFFFFFFFFFFFFFFFF AND PUSH20 0xFFFFFFFFFFFFFFFFFFFFFFFFFFFFFFFFFFFFFFFF AND CALLER PUSH20 0xFFFFFFFFFFFFFFFFFFFFFFFFFFFFFFFFFFFFFFFF AND EQ PUSH2 0x1141 JUMPI PUSH1 0x0 DUP1 REVERT JUMPDEST PUSH1 0x0 JUMPDEST PUSH1 0x1 DUP1 SLOAD SWAP1 POP DUP2 LT ISZERO PUSH2 0x1246 JUMPI PUSH1 0x0 PUSH1 0x1 DUP3 DUP2 SLOAD DUP2 LT PUSH2 0x1160 JUMPI INVALID JUMPDEST SWAP1 PUSH1 0x0 MSTORE PUSH1 0x20 PUSH1 0x0 KECCAK256 SWAP1 PUSH1 0x4 MUL ADD SWAP1 POP DUP1 PUSH1 0x0 ADD SLOAD DUP6 EQ ISZERO PUSH2 0x1238 JUMPI PUSH1 0x0 JUMPDEST DUP2 PUSH1 0x3 ADD DUP1 SLOAD SWAP1 POP DUP2 LT ISZERO PUSH2 0x1236 JUMPI DUP5 PUSH1 0x40 MLOAD PUSH1 0x20 ADD PUSH2 0x119F SWAP2 SWAP1 PUSH2 0x1971 JUMP JUMPDEST PUSH1 0x40 MLOAD PUSH1 0x20 DUP2 DUP4 SUB SUB DUP2 MSTORE SWAP1 PUSH1 0x40 MSTORE DUP1 MLOAD SWAP1 PUSH1 0x20 ADD KECCAK256 DUP3 PUSH1 0x3 ADD DUP3 DUP2 SLOAD DUP2 LT PUSH2 0x11C4 JUMPI INVALID JUMPDEST SWAP1 PUSH1 0x0 MSTORE PUSH1 0x20 PUSH1 0x0 KECCAK256 ADD PUSH1 0x40 MLOAD PUSH1 0x20 ADD PUSH2 0x11DE SWAP2 SWAP1 PUSH2 0x1988 JUMP JUMPDEST PUSH1 0x40 MLOAD PUSH1 0x20 DUP2 DUP4 SUB SUB DUP2 MSTORE SWAP1 PUSH1 0x40 MSTORE DUP1 MLOAD SWAP1 PUSH1 0x20 ADD KECCAK256 EQ ISZERO PUSH2 0x1229 JUMPI DUP4 DUP3 PUSH1 0x3 ADD DUP3 DUP2 SLOAD DUP2 LT PUSH2 0x120A JUMPI INVALID JUMPDEST SWAP1 PUSH1 0x0 MSTORE PUSH1 0x20 PUSH1 0x0 KECCAK256 ADD SWAP1 DUP1 MLOAD SWAP1 PUSH1 0x20 ADD SWAP1 PUSH2 0x1227 SWAP3 SWAP2 SWAP1 PUSH2 0x124C JUMP JUMPDEST POP JUMPDEST DUP1 DUP1 PUSH1 0x1 ADD SWAP2 POP POP PUSH2 0x117F JUMP JUMPDEST POP JUMPDEST POP DUP1 DUP1 PUSH1 0x1 ADD SWAP2 POP POP PUSH2 0x1144 JUMP JUMPDEST POP POP POP POP JUMP JUMPDEST DUP3 DUP1 SLOAD PUSH1 0x1 DUP2 PUSH1 0x1 AND ISZERO PUSH2 0x100 MUL SUB AND PUSH1 0x2 SWAP1 DIV SWAP1 PUSH1 0x0 MSTORE PUSH1 0x20 PUSH1 0x0 KECCAK256 SWAP1 PUSH1 0x1F ADD PUSH1 0x20 SWAP1 DIV DUP2 ADD SWAP3 DUP3 PUSH1 0x1F LT PUSH2 0x128D JUMPI DUP1 MLOAD PUSH1 0xFF NOT AND DUP4 DUP1 ADD OR DUP6 SSTORE PUSH2 0x12BB JUMP JUMPDEST DUP3 DUP1 ADD PUSH1 0x1 ADD DUP6 SSTORE DUP3 ISZERO PUSH2 0x12BB JUMPI SWAP2 DUP3 ADD JUMPDEST DUP3 DUP2 GT ISZERO PUSH2 0x12BA JUMPI DUP3 MLOAD DUP3 SSTORE SWAP2 PUSH1 0x20 ADD SWAP2 SWAP1 PUSH1 0x1 ADD SWAP1 PUSH2 0x129F JUMP JUMPDEST JUMPDEST POP SWAP1 POP PUSH2 0x12C8 SWAP2 SWAP1 PUSH2 0x153B JUMP JUMPDEST POP SWAP1 JUMP JUMPDEST DUP3 DUP1 SLOAD PUSH1 0x1 DUP2 PUSH1 0x1 AND ISZERO PUSH2 0x100 MUL SUB AND PUSH1 0x2 SWAP1 DIV SWAP1 PUSH1 0x0 MSTORE PUSH1 0x20 PUSH1 0x0 KECCAK256 SWAP1 PUSH1 0x1F ADD PUSH1 0x20 SWAP1 DIV DUP2 ADD SWAP3 DUP3 PUSH1 0x1F LT PUSH2 0x1305 JUMPI DUP1 SLOAD DUP6 SSTORE PUSH2 0x1342 JUMP JUMPDEST DUP3 DUP1 ADD PUSH1 0x1 ADD DUP6 SSTORE DUP3 ISZERO PUSH2 0x1342 JUMPI PUSH1 0x0 MSTORE PUSH1 0x20 PUSH1 0x0 KECCAK256 SWAP2 PUSH1 0x1F ADD PUSH1 0x20 SWAP1 DIV DUP3 ADD JUMPDEST DUP3 DUP2 GT ISZERO PUSH2 0x1341 JUMPI DUP3 SLOAD DUP3 SSTORE SWAP2 PUSH1 0x1 ADD SWAP2 SWAP1 PUSH1 0x1 ADD SWAP1 PUSH2 0x1326 JUMP JUMPDEST JUMPDEST POP SWAP1 POP PUSH2 0x134F SWAP2 SWAP1 PUSH2 0x153B JUMP JUMPDEST POP SWAP1 JUMP JUMPDEST POP DUP1 SLOAD PUSH1 0x1 DUP2 PUSH1 0x1 AND ISZERO PUSH2 0x100 MUL SUB AND PUSH1 0x2 SWAP1 DIV PUSH1 0x0 DUP3 SSTORE DUP1 PUSH1 0x1F LT PUSH2 0x1379 JUMPI POP PUSH2 0x1398 JUMP JUMPDEST PUSH1 0x1F ADD PUSH1 0x20 SWAP1 DIV SWAP1 PUSH1 0x0 MSTORE PUSH1 0x20 PUSH1 0x0 KECCAK256 SWAP1 DUP2 ADD SWAP1 PUSH2 0x1397 SWAP2 SWAP1 PUSH2 0x153B JUMP JUMPDEST JUMPDEST POP JUMP JUMPDEST PUSH1 0x40 MLOAD DUP1 PUSH1 0x80 ADD PUSH1 0x40 MSTORE DUP1 PUSH1 0x0 DUP2 MSTORE PUSH1 0x20 ADD PUSH1 0x60 DUP2 MSTORE PUSH1 0x20 ADD PUSH1 0x60 DUP2 MSTORE PUSH1 0x20 ADD PUSH1 0x60 DUP2 MSTORE POP SWAP1 JUMP JUMPDEST DUP3 DUP1 SLOAD DUP3 DUP3 SSTORE SWAP1 PUSH1 0x0 MSTORE PUSH1 0x20 PUSH1 0x0 KECCAK256 SWAP1 DUP2 ADD SWAP3 DUP3 ISZERO PUSH2 0x1412 JUMPI SWAP2 PUSH1 0x20 MUL DUP3 ADD JUMPDEST DUP3 DUP2 GT ISZERO PUSH2 0x1411 JUMPI DUP3 MLOAD DUP3 SWAP1 DUP1 MLOAD SWAP1 PUSH1 0x20 ADD SWAP1 PUSH2 0x1401 SWAP3 SWAP2 SWAP1 PUSH2 0x124C JUMP JUMPDEST POP SWAP2 PUSH1 0x20 ADD SWAP2 SWAP1 PUSH1 0x1 ADD SWAP1 PUSH2 0x13E3 JUMP JUMPDEST JUMPDEST POP SWAP1 POP PUSH2 0x141F SWAP2 SWAP1 PUSH2 0x1558 JUMP JUMPDEST POP SWAP1 JUMP JUMPDEST DUP3 DUP1 SLOAD PUSH1 0x1 DUP2 PUSH1 0x1 AND ISZERO PUSH2 0x100 MUL SUB AND PUSH1 0x2 SWAP1 DIV SWAP1 PUSH1 0x0 MSTORE PUSH1 0x20 PUSH1 0x0 KECCAK256 SWAP1 PUSH1 0x1F ADD PUSH1 0x20 SWAP1 DIV DUP2 ADD SWAP3 DUP3 PUSH1 0x1F LT PUSH2 0x145C JUMPI DUP1 SLOAD DUP6 SSTORE PUSH2 0x1499 JUMP JUMPDEST DUP3 DUP1 ADD PUSH1 0x1 ADD DUP6 SSTORE DUP3 ISZERO PUSH2 0x1499 JUMPI PUSH1 0x0 MSTORE PUSH1 0x20 PUSH1 0x0 KECCAK256 SWAP2 PUSH1 0x1F ADD PUSH1 0x20 SWAP1 DIV DUP3 ADD JUMPDEST DUP3 DUP2 GT ISZERO PUSH2 0x1498 JUMPI DUP3 SLOAD DUP3 SSTORE SWAP2 PUSH1 0x1 ADD SWAP2 SWAP1 PUSH1 0x1 ADD SWAP1 PUSH2 0x147D JUMP JUMPDEST JUMPDEST POP SWAP1 POP PUSH2 0x14A6 SWAP2 SWAP1 PUSH2 0x153B JUMP JUMPDEST POP SWAP1 JUMP JUMPDEST DUP3 DUP1 SLOAD DUP3 DUP3 SSTORE SWAP1 PUSH1 0x0 MSTORE PUSH1 0x20 PUSH1 0x0 KECCAK256 SWAP1 DUP2 ADD SWAP3 DUP3 ISZERO PUSH2 0x1509 JUMPI PUSH1 0x0 MSTORE PUSH1 0x20 PUSH1 0x0 KECCAK256 SWAP2 DUP3 ADD JUMPDEST DUP3 DUP2 GT ISZERO PUSH2 0x1508 JUMPI DUP3 DUP3 SWAP1 DUP1 SLOAD PUSH1 0x1 DUP2 PUSH1 0x1 AND ISZERO PUSH2 0x100 MUL SUB AND PUSH1 0x2 SWAP1 DIV PUSH2 0x14F8 SWAP3 SWAP2 SWAP1 PUSH2 0x1423 JUMP JUMPDEST POP SWAP2 PUSH1 0x1 ADD SWAP2 SWAP1 PUSH1 0x1 ADD SWAP1 PUSH2 0x14CF JUMP JUMPDEST JUMPDEST POP SWAP1 POP PUSH2 0x1516 SWAP2 SWAP1 PUSH2 0x1558 JUMP JUMPDEST POP SWAP1 JUMP JUMPDEST POP DUP1 SLOAD PUSH1 0x0 DUP3 SSTORE SWAP1 PUSH1 0x0 MSTORE PUSH1 0x20 PUSH1 0x0 KECCAK256 SWAP1 DUP2 ADD SWAP1 PUSH2 0x1538 SWAP2 SWAP1 PUSH2 0x1558 JUMP JUMPDEST POP JUMP JUMPDEST JUMPDEST DUP1 DUP3 GT ISZERO PUSH2 0x1554 JUMPI PUSH1 0x0 DUP2 PUSH1 0x0 SWAP1 SSTORE POP PUSH1 0x1 ADD PUSH2 0x153C JUMP JUMPDEST POP SWAP1 JUMP JUMPDEST JUMPDEST DUP1 DUP3 GT ISZERO PUSH2 0x1578 JUMPI PUSH1 0x0 DUP2 DUP2 PUSH2 0x156F SWAP2 SWAP1 PUSH2 0x1353 JUMP JUMPDEST POP PUSH1 0x1 ADD PUSH2 0x1559 JUMP JUMPDEST POP SWAP1 JUMP JUMPDEST PUSH1 0x0 DUP3 PUSH1 0x1F DUP4 ADD SLT PUSH2 0x158D JUMPI PUSH1 0x0 DUP1 REVERT JUMPDEST DUP2 CALLDATALOAD PUSH2 0x15A0 PUSH2 0x159B DUP3 PUSH2 0x1A5B JUMP JUMPDEST PUSH2 0x1A2E JUMP JUMPDEST SWAP2 POP DUP1 DUP3 MSTORE PUSH1 0x20 DUP4 ADD PUSH1 0x20 DUP4 ADD DUP6 DUP4 DUP4 ADD GT ISZERO PUSH2 0x15BC JUMPI PUSH1 0x0 DUP1 REVERT JUMPDEST PUSH2 0x15C7 DUP4 DUP3 DUP5 PUSH2 0x1B4B JUMP JUMPDEST POP POP POP SWAP3 SWAP2 POP POP JUMP JUMPDEST PUSH1 0x0 DUP2 CALLDATALOAD SWAP1 POP PUSH2 0x15DF DUP2 PUSH2 0x1B9E JUMP JUMPDEST SWAP3 SWAP2 POP POP JUMP JUMPDEST PUSH1 0x0 DUP1 PUSH1 0x40 DUP4 DUP6 SUB SLT ISZERO PUSH2 0x15F8 JUMPI PUSH1 0x0 DUP1 REVERT JUMPDEST PUSH1 0x0 DUP4 ADD CALLDATALOAD PUSH8 0xFFFFFFFFFFFFFFFF DUP2 GT ISZERO PUSH2 0x1612 JUMPI PUSH1 0x0 DUP1 REVERT JUMPDEST PUSH2 0x161E DUP6 DUP3 DUP7 ADD PUSH2 0x157C JUMP JUMPDEST SWAP3 POP POP PUSH1 0x20 DUP4 ADD CALLDATALOAD PUSH8 0xFFFFFFFFFFFFFFFF DUP2 GT ISZERO PUSH2 0x163B JUMPI PUSH1 0x0 DUP1 REVERT JUMPDEST PUSH2 0x1647 DUP6 DUP3 DUP7 ADD PUSH2 0x157C JUMP JUMPDEST SWAP2 POP POP SWAP3 POP SWAP3 SWAP1 POP JUMP JUMPDEST PUSH1 0x0 PUSH1 0x20 DUP3 DUP5 SUB SLT ISZERO PUSH2 0x1663 JUMPI PUSH1 0x0 DUP1 REVERT JUMPDEST PUSH1 0x0 PUSH2 0x1671 DUP5 DUP3 DUP6 ADD PUSH2 0x15D0 JUMP JUMPDEST SWAP2 POP POP SWAP3 SWAP2 POP POP JUMP JUMPDEST PUSH1 0x0 DUP1 PUSH1 0x40 DUP4 DUP6 SUB SLT ISZERO PUSH2 0x168D JUMPI PUSH1 0x0 DUP1 REVERT JUMPDEST PUSH1 0x0 PUSH2 0x169B DUP6 DUP3 DUP7 ADD PUSH2 0x15D0 JUMP JUMPDEST SWAP3 POP POP PUSH1 0x20 DUP4 ADD CALLDATALOAD PUSH8 0xFFFFFFFFFFFFFFFF DUP2 GT ISZERO PUSH2 0x16B8 JUMPI PUSH1 0x0 DUP1 REVERT JUMPDEST PUSH2 0x16C4 DUP6 DUP3 DUP7 ADD PUSH2 0x157C JUMP JUMPDEST SWAP2 POP POP SWAP3 POP SWAP3 SWAP1 POP JUMP JUMPDEST PUSH1 0x0 DUP1 PUSH1 0x0 PUSH1 0x60 DUP5 DUP7 SUB SLT ISZERO PUSH2 0x16E3 JUMPI PUSH1 0x0 DUP1 REVERT JUMPDEST PUSH1 0x0 PUSH2 0x16F1 DUP7 DUP3 DUP8 ADD PUSH2 0x15D0 JUMP JUMPDEST SWAP4 POP POP PUSH1 0x20 DUP5 ADD CALLDATALOAD PUSH8 0xFFFFFFFFFFFFFFFF DUP2 GT ISZERO PUSH2 0x170E JUMPI PUSH1 0x0 DUP1 REVERT JUMPDEST PUSH2 0x171A DUP7 DUP3 DUP8 ADD PUSH2 0x157C JUMP JUMPDEST SWAP3 POP POP PUSH1 0x40 DUP5 ADD CALLDATALOAD PUSH8 0xFFFFFFFFFFFFFFFF DUP2 GT ISZERO PUSH2 0x1737 JUMPI PUSH1 0x0 DUP1 REVERT JUMPDEST PUSH2 0x1743 DUP7 DUP3 DUP8 ADD PUSH2 0x157C JUMP JUMPDEST SWAP2 POP POP SWAP3 POP SWAP3 POP SWAP3 JUMP JUMPDEST PUSH1 0x0 PUSH2 0x1759 DUP4 DUP4 PUSH2 0x185B JUMP JUMPDEST SWAP1 POP SWAP3 SWAP2 POP POP JUMP JUMPDEST PUSH1 0x0 PUSH2 0x176D DUP4 DUP4 PUSH2 0x1953 JUMP JUMPDEST PUSH1 0x20 DUP4 ADD SWAP1 POP SWAP3 SWAP2 POP POP JUMP JUMPDEST PUSH1 0x0 PUSH2 0x1784 DUP3 PUSH2 0x1ABC JUMP JUMPDEST PUSH2 0x178E DUP2 DUP6 PUSH2 0x1AF7 JUMP JUMPDEST SWAP4 POP DUP4 PUSH1 0x20 DUP3 MUL DUP6 ADD PUSH2 0x17A0 DUP6 PUSH2 0x1A87 JUMP JUMPDEST DUP1 PUSH1 0x0 JUMPDEST DUP6 DUP2 LT ISZERO PUSH2 0x17DC JUMPI DUP5 DUP5 SUB DUP10 MSTORE DUP2 MLOAD PUSH2 0x17BD DUP6 DUP3 PUSH2 0x174D JUMP JUMPDEST SWAP5 POP PUSH2 0x17C8 DUP4 PUSH2 0x1ADD JUMP JUMPDEST SWAP3 POP PUSH1 0x20 DUP11 ADD SWAP10 POP POP PUSH1 0x1 DUP2 ADD SWAP1 POP PUSH2 0x17A4 JUMP JUMPDEST POP DUP3 SWAP8 POP DUP8 SWAP6 POP POP POP POP POP POP SWAP3 SWAP2 POP POP JUMP JUMPDEST PUSH1 0x0 PUSH2 0x17F9 DUP3 PUSH2 0x1AC7 JUMP JUMPDEST PUSH2 0x1803 DUP2 DUP6 PUSH2 0x1B08 JUMP JUMPDEST SWAP4 POP PUSH2 0x180E DUP4 PUSH2 0x1A97 JUMP JUMPDEST DUP1 PUSH1 0x0 JUMPDEST DUP4 DUP2 LT ISZERO PUSH2 0x183F JUMPI DUP2 MLOAD PUSH2 0x1826 DUP9 DUP3 PUSH2 0x1761 JUMP JUMPDEST SWAP8 POP PUSH2 0x1831 DUP4 PUSH2 0x1AEA JUMP JUMPDEST SWAP3 POP POP PUSH1 0x1 DUP2 ADD SWAP1 POP PUSH2 0x1812 JUMP JUMPDEST POP DUP6 SWAP4 POP POP POP POP SWAP3 SWAP2 POP POP JUMP JUMPDEST PUSH2 0x1855 DUP2 PUSH2 0x1B35 JUMP JUMPDEST DUP3 MSTORE POP POP JUMP JUMPDEST PUSH1 0x0 PUSH2 0x1866 DUP3 PUSH2 0x1AD2 JUMP JUMPDEST PUSH2 0x1870 DUP2 DUP6 PUSH2 0x1B19 JUMP JUMPDEST SWAP4 POP PUSH2 0x1880 DUP2 DUP6 PUSH1 0x20 DUP7 ADD PUSH2 0x1B5A JUMP JUMPDEST PUSH2 0x1889 DUP2 PUSH2 0x1B8D JUMP JUMPDEST DUP5 ADD SWAP2 POP POP SWAP3 SWAP2 POP POP JUMP JUMPDEST PUSH1 0x0 PUSH2 0x189F DUP3 PUSH2 0x1AD2 JUMP JUMPDEST PUSH2 0x18A9 DUP2 DUP6 PUSH2 0x1B2A JUMP JUMPDEST SWAP4 POP PUSH2 0x18B9 DUP2 DUP6 PUSH1 0x20 DUP7 ADD PUSH2 0x1B5A JUMP JUMPDEST DUP1 DUP5 ADD SWAP2 POP POP SWAP3 SWAP2 POP POP JUMP JUMPDEST PUSH1 0x0 DUP2 SLOAD PUSH1 0x1 DUP2 AND PUSH1 0x0 DUP2 EQ PUSH2 0x18E2 JUMPI PUSH1 0x1 DUP2 EQ PUSH2 0x1907 JUMPI PUSH2 0x194B JUMP JUMPDEST PUSH1 0x7F PUSH1 0x2 DUP4 DIV AND PUSH2 0x18F3 DUP2 DUP8 PUSH2 0x1B2A JUMP JUMPDEST SWAP6 POP PUSH1 0xFF NOT DUP4 AND DUP7 MSTORE DUP1 DUP7 ADD SWAP4 POP POP PUSH2 0x194B JUMP JUMPDEST PUSH1 0x2 DUP3 DIV PUSH2 0x1915 DUP2 DUP8 PUSH2 0x1B2A JUMP JUMPDEST SWAP6 POP PUSH2 0x1920 DUP6 PUSH2 0x1AA7 JUMP JUMPDEST PUSH1 0x0 JUMPDEST DUP3 DUP2 LT ISZERO PUSH2 0x1942 JUMPI DUP2 SLOAD DUP2 DUP10 ADD MSTORE PUSH1 0x1 DUP3 ADD SWAP2 POP PUSH1 0x20 DUP2 ADD SWAP1 POP PUSH2 0x1923 JUMP JUMPDEST DUP3 DUP9 ADD SWAP6 POP POP POP POP JUMPDEST POP POP SWAP3 SWAP2 POP POP JUMP JUMPDEST PUSH2 0x195C DUP2 PUSH2 0x1B41 JUMP JUMPDEST DUP3 MSTORE POP POP JUMP JUMPDEST PUSH2 0x196B DUP2 PUSH2 0x1B41 JUMP JUMPDEST DUP3 MSTORE POP POP JUMP JUMPDEST PUSH1 0x0 PUSH2 0x197D DUP3 DUP5 PUSH2 0x1894 JUMP JUMPDEST SWAP2 POP DUP2 SWAP1 POP SWAP3 SWAP2 POP POP JUMP JUMPDEST PUSH1 0x0 PUSH2 0x1994 DUP3 DUP5 PUSH2 0x18C5 JUMP JUMPDEST SWAP2 POP DUP2 SWAP1 POP SWAP3 SWAP2 POP POP JUMP JUMPDEST PUSH1 0x0 PUSH1 0x20 DUP3 ADD SWAP1 POP DUP2 DUP2 SUB PUSH1 0x0 DUP4 ADD MSTORE PUSH2 0x19B9 DUP2 DUP5 PUSH2 0x1779 JUMP JUMPDEST SWAP1 POP SWAP3 SWAP2 POP POP JUMP JUMPDEST PUSH1 0x0 PUSH1 0x40 DUP3 ADD SWAP1 POP DUP2 DUP2 SUB PUSH1 0x0 DUP4 ADD MSTORE PUSH2 0x19DB DUP2 DUP6 PUSH2 0x17EE JUMP JUMPDEST SWAP1 POP DUP2 DUP2 SUB PUSH1 0x20 DUP4 ADD MSTORE PUSH2 0x19EF DUP2 DUP5 PUSH2 0x1779 JUMP JUMPDEST SWAP1 POP SWAP4 SWAP3 POP POP POP JUMP JUMPDEST PUSH1 0x0 PUSH1 0x20 DUP3 ADD SWAP1 POP PUSH2 0x1A0D PUSH1 0x0 DUP4 ADD DUP5 PUSH2 0x184C JUMP JUMPDEST SWAP3 SWAP2 POP POP JUMP JUMPDEST PUSH1 0x0 PUSH1 0x20 DUP3 ADD SWAP1 POP PUSH2 0x1A28 PUSH1 0x0 DUP4 ADD DUP5 PUSH2 0x1962 JUMP JUMPDEST SWAP3 SWAP2 POP POP JUMP JUMPDEST PUSH1 0x0 PUSH1 0x40 MLOAD SWAP1 POP DUP2 DUP2 ADD DUP2 DUP2 LT PUSH8 0xFFFFFFFFFFFFFFFF DUP3 GT OR ISZERO PUSH2 0x1A51 JUMPI PUSH1 0x0 DUP1 REVERT JUMPDEST DUP1 PUSH1 0x40 MSTORE POP SWAP2 SWAP1 POP JUMP JUMPDEST PUSH1 0x0 PUSH8 0xFFFFFFFFFFFFFFFF DUP3 GT ISZERO PUSH2 0x1A72 JUMPI PUSH1 0x0 DUP1 REVERT JUMPDEST PUSH1 0x1F NOT PUSH1 0x1F DUP4 ADD AND SWAP1 POP PUSH1 0x20 DUP2 ADD SWAP1 POP SWAP2 SWAP1 POP JUMP JUMPDEST PUSH1 0x0 DUP2 SWAP1 POP PUSH1 0x20 DUP3 ADD SWAP1 POP SWAP2 SWAP1 POP JUMP JUMPDEST PUSH1 0x0 DUP2 SWAP1 POP PUSH1 0x20 DUP3 ADD SWAP1 POP SWAP2 SWAP1 POP JUMP JUMPDEST PUSH1 0x0 DUP2 SWAP1 POP DUP2 PUSH1 0x0 MSTORE PUSH1 0x20 PUSH1 0x0 KECCAK256 SWAP1 POP SWAP2 SWAP1 POP JUMP JUMPDEST PUSH1 0x0 DUP2 MLOAD SWAP1 POP SWAP2 SWAP1 POP JUMP JUMPDEST PUSH1 0x0 DUP2 MLOAD SWAP1 POP SWAP2 SWAP1 POP JUMP JUMPDEST PUSH1 0x0 DUP2 MLOAD SWAP1 POP SWAP2 SWAP1 POP JUMP JUMPDEST PUSH1 0x0 PUSH1 0x20 DUP3 ADD SWAP1 POP SWAP2 SWAP1 POP JUMP JUMPDEST PUSH1 0x0 PUSH1 0x20 DUP3 ADD SWAP1 POP SWAP2 SWAP1 POP JUMP JUMPDEST PUSH1 0x0 DUP3 DUP3 MSTORE PUSH1 0x20 DUP3 ADD SWAP1 POP SWAP3 SWAP2 POP POP JUMP JUMPDEST PUSH1 0x0 DUP3 DUP3 MSTORE PUSH1 0x20 DUP3 ADD SWAP1 POP SWAP3 SWAP2 POP POP JUMP JUMPDEST PUSH1 0x0 DUP3 DUP3 MSTORE PUSH1 0x20 DUP3 ADD SWAP1 POP SWAP3 SWAP2 POP POP JUMP JUMPDEST PUSH1 0x0 DUP2 SWAP1 POP SWAP3 SWAP2 POP POP JUMP JUMPDEST PUSH1 0x0 DUP2 ISZERO ISZERO SWAP1 POP SWAP2 SWAP1 POP JUMP JUMPDEST PUSH1 0x0 DUP2 SWAP1 POP SWAP2 SWAP1 POP JUMP JUMPDEST DUP3 DUP2 DUP4 CALLDATACOPY PUSH1 0x0 DUP4 DUP4 ADD MSTORE POP POP POP JUMP JUMPDEST PUSH1 0x0 JUMPDEST DUP4 DUP2 LT ISZERO PUSH2 0x1B78 JUMPI DUP1 DUP3 ADD MLOAD DUP2 DUP5 ADD MSTORE PUSH1 0x20 DUP2 ADD SWAP1 POP PUSH2 0x1B5D JUMP JUMPDEST DUP4 DUP2 GT ISZERO PUSH2 0x1B87 JUMPI PUSH1 0x0 DUP5 DUP5 ADD MSTORE JUMPDEST POP POP POP POP JUMP JUMPDEST PUSH1 0x0 PUSH1 0x1F NOT PUSH1 0x1F DUP4 ADD AND SWAP1 POP SWAP2 SWAP1 POP JUMP JUMPDEST PUSH2 0x1BA7 DUP2 PUSH2 0x1B41 JUMP JUMPDEST DUP2 EQ PUSH2 0x1BB2 JUMPI PUSH1 0x0 DUP1 REVERT JUMPDEST POP JUMP INVALID LOG2 PUSH5 0x6970667358 0x22 SLT KECCAK256 DUP15 SWAP8 0xEA SSTORE 0x1F NOT PUSH29 0x8714085787F9472DE3D6D727A638ACC12FD2FBBB83B566FBA464736F6C PUSH4 0x4300060C STOP CALLER "
    },
    "gasEstimates": {
      "creation": {
        "codeDepositCost": "1429400",
        "executionCost": "32387",
        "totalCost": "1461787"
      },
      "external": {
        "addClient(string,string)": "infinite",
        "addTopic(uint256,string)": "infinite",
        "authenticate(uint256,string,string)": "infinite",
        "authorize(uint256,string)": "infinite",
        "changed()": "1172",
        "deleteClient(uint256)": "infinite",
        "deleteTopic(uint256,string)": "infinite",
        "getClients()": "infinite",
        "getClientsCount()": "2030",
        "getTopic(uint256)": "infinite",
        "updateTopic(uint256,string,string)": "infinite"
      }
    },
    "methodIdentifiers": {
      "addClient(string,string)": "98173ff4",
      "addTopic(uint256,string)": "3276807a",
      "authenticate(uint256,string,string)": "c4ae2f26",
      "authorize(uint256,string)": "52bfd15c",
      "changed()": "0d3a6aee",
      "deleteClient(uint256)": "a9cb1a36",
      "deleteTopic(uint256,string)": "42bb20e1",
      "getClients()": "6db80995",
      "getClientsCount()": "30a66294",
      "getTopic(uint256)": "71658896",
      "updateTopic(uint256,string,string)": "e8e5339a"
    }
  },
  "storageLayout": {
    "storage": [
      {
        "astId": 4,
        "contract": "Mqttsc.sol:Mqttsc",
        "label": "manager",
        "offset": 0,
        "slot": "0",
        "type": "t_address_payable"
      },
      {
        "astId": 17,
        "contract": "Mqttsc.sol:Mqttsc",
        "label": "clientLedger",
        "offset": 0,
        "slot": "1",
        "type": "t_array(t_struct(Client)14_storage)dyn_storage"
      },
      {
        "astId": 19,
        "contract": "Mqttsc.sol:Mqttsc",
        "label": "clientCount",
        "offset": 0,
        "slot": "2",
        "type": "t_uint256"
      },
      {
        "astId": 21,
        "contract": "Mqttsc.sol:Mqttsc",
        "label": "idCount",
        "offset": 0,
        "slot": "3",
        "type": "t_uint256"
      },
      {
        "astId": 23,
        "contract": "Mqttsc.sol:Mqttsc",
        "label": "changed",
        "offset": 0,
        "slot": "4",
        "type": "t_bool"
      }
    ],
    "types": {
      "t_address_payable": {
        "encoding": "inplace",
        "label": "address payable",
        "numberOfBytes": "20"
      },
      "t_array(t_string_storage)dyn_storage": {
        "base": "t_string_storage",
        "encoding": "dynamic_array",
        "label": "string[]",
        "numberOfBytes": "32"
      },
      "t_array(t_struct(Client)14_storage)dyn_storage": {
        "base": "t_struct(Client)14_storage",
        "encoding": "dynamic_array",
        "label": "struct Mqttsc.Client[]",
        "numberOfBytes": "32"
      },
      "t_bool": {
        "encoding": "inplace",
        "label": "bool",
        "numberOfBytes": "1"
      },
      "t_string_storage": {
        "encoding": "bytes",
        "label": "string",
        "numberOfBytes": "32"
      },
      "t_struct(Client)14_storage": {
        "encoding": "inplace",
        "label": "struct Mqttsc.Client",
        "members": [
          {
            "astId": 6,
            "contract": "Mqttsc.sol:Mqttsc",
            "label": "id",
            "offset": 0,
            "slot": "0",
            "type": "t_uint256"
          },
          {
            "astId": 8,
            "contract": "Mqttsc.sol:Mqttsc",
            "label": "username",
            "offset": 0,
            "slot": "1",
            "type": "t_string_storage"
          },
          {
            "astId": 10,
            "contract": "Mqttsc.sol:Mqttsc",
            "label": "password",
            "offset": 0,
            "slot": "2",
            "type": "t_string_storage"
          },
          {
            "astId": 13,
            "contract": "Mqttsc.sol:Mqttsc",
            "label": "topic",
            "offset": 0,
            "slot": "3",
            "type": "t_array(t_string_storage)dyn_storage"
          }
        ],
        "numberOfBytes": "128"
      },
      "t_uint256": {
        "encoding": "inplace",
        "label": "uint256",
        "numberOfBytes": "32"
      }
    }
  },
  "userdoc": {
    "kind": "user",
    "methods": {},
    "version": 1
  }
}