{
  "abi": [
    {
      "inputs": [],
      "stateMutability": "nonpayable",
      "type": "constructor"
    },
    {
      "inputs": [
        {
          "internalType": "string",
          "name": "_username",
          "type": "string"
        },
        {
          "internalType": "string",
          "name": "_password",
          "type": "string"
        }
      ],
      "name": "addClient",
      "outputs": [],
      "stateMutability": "nonpayable",
      "type": "function"
    },
    {
      "inputs": [
        {
          "internalType": "uint256",
          "name": "_id",
          "type": "uint256"
        },
        {
          "internalType": "string",
          "name": "_topic",
          "type": "string"
        }
      ],
      "name": "addTopic",
      "outputs": [],
      "stateMutability": "nonpayable",
      "type": "function"
    },
    {
      "inputs": [
        {
          "internalType": "uint256",
          "name": "_id",
          "type": "uint256"
        },
        {
          "internalType": "string",
          "name": "_username",
          "type": "string"
        },
        {
          "internalType": "string",
          "name": "_password",
          "type": "string"
        }
      ],
      "name": "authenticate",
      "outputs": [
        {
          "internalType": "bool",
          "name": "",
          "type": "bool"
        }
      ],
      "stateMutability": "view",
      "type": "function"
    },
    {
      "inputs": [
        {
          "internalType": "uint256",
          "name": "_id",
          "type": "uint256"
        },
        {
          "internalType": "string",
          "name": "_topic",
          "type": "string"
        }
      ],
      "name": "authorize",
      "outputs": [
        {
          "internalType": "bool",
          "name": "",
          "type": "bool"
        }
      ],
      "stateMutability": "view",
      "type": "function"
    },
    {
      "inputs": [],
      "name": "getClients",
      "outputs": [
        {
          "internalType": "uint256[]",
          "name": "",
          "type": "uint256[]"
        },
        {
          "internalType": "string[]",
          "name": "",
          "type": "string[]"
        }
      ],
      "stateMutability": "view",
      "type": "function"
    },
    {
      "inputs": [],
      "name": "testGetTopic",
      "outputs": [
        {
          "internalType": "string",
          "name": "",
          "type": "string"
        }
      ],
      "stateMutability": "view",
      "type": "function"
    },
    {
      "inputs": [
        {
          "internalType": "uint256",
          "name": "_id",
          "type": "uint256"
        },
        {
          "internalType": "string",
          "name": "_topic",
          "type": "string"
        },
        {
          "internalType": "string",
          "name": "_newtopic",
          "type": "string"
        }
      ],
      "name": "updateTopic",
      "outputs": [],
      "stateMutability": "nonpayable",
      "type": "function"
    }
  ],
  "devdoc": {
    "kind": "dev",
    "methods": {},
    "version": 1
  },
  "evm": {
    "assembly": "    /* \"Mqttsc.sol\":99:3688  contract Mqttsc {\r... */\n  mstore(0x40, 0x80)\n    /* \"Mqttsc.sol\":366:453  constructor () public {\r... */\n  callvalue\n  dup1\n  iszero\n  tag_1\n  jumpi\n  0x00\n  dup1\n  revert\ntag_1:\n  pop\n    /* \"Mqttsc.sol\":409:419  msg.sender */\n  caller\n    /* \"Mqttsc.sol\":399:406  manager */\n  0x00\n  dup1\n    /* \"Mqttsc.sol\":399:419  manager = msg.sender */\n  0x0100\n  exp\n  dup2\n  sload\n  dup2\n  0xffffffffffffffffffffffffffffffffffffffff\n  mul\n  not\n  and\n  swap1\n  dup4\n  0xffffffffffffffffffffffffffffffffffffffff\n  and\n  mul\n  or\n  swap1\n  sstore\n  pop\n    /* \"Mqttsc.sol\":444:445  0 */\n  0x00\n    /* \"Mqttsc.sol\":430:441  clientCount */\n  0x02\n    /* \"Mqttsc.sol\":430:445  clientCount = 0 */\n  dup2\n  swap1\n  sstore\n  pop\n    /* \"Mqttsc.sol\":99:3688  contract Mqttsc {\r... */\n  dataSize(sub_0)\n  dup1\n  dataOffset(sub_0)\n  0x00\n  codecopy\n  0x00\n  return\nstop\n\nsub_0: assembly {\n        /* \"Mqttsc.sol\":99:3688  contract Mqttsc {\r... */\n      mstore(0x40, 0x80)\n      callvalue\n      dup1\n      iszero\n      tag_1\n      jumpi\n      0x00\n      dup1\n      revert\n    tag_1:\n      pop\n      jumpi(tag_2, lt(calldatasize, 0x04))\n      shr(0xe0, calldataload(0x00))\n      dup1\n      0x6db80995\n      gt\n      tag_10\n      jumpi\n      dup1\n      0x6db80995\n      eq\n      tag_6\n      jumpi\n      dup1\n      0x98173ff4\n      eq\n      tag_7\n      jumpi\n      dup1\n      0xc4ae2f26\n      eq\n      tag_8\n      jumpi\n      dup1\n      0xe8e5339a\n      eq\n      tag_9\n      jumpi\n      jump(tag_2)\n    tag_10:\n      dup1\n      0x1f617dab\n      eq\n      tag_3\n      jumpi\n      dup1\n      0x3276807a\n      eq\n      tag_4\n      jumpi\n      dup1\n      0x52bfd15c\n      eq\n      tag_5\n      jumpi\n    tag_2:\n      0x00\n      dup1\n      revert\n        /* \"Mqttsc.sol\":633:742  function testGetTopic() public view returns(string memory) {\r... */\n    tag_3:\n      tag_11\n      tag_12\n      jump\t// in\n    tag_11:\n      mload(0x40)\n      tag_13\n      swap2\n      swap1\n      tag_14\n      jump\t// in\n    tag_13:\n      mload(0x40)\n      dup1\n      swap2\n      sub\n      swap1\n      return\n        /* \"Mqttsc.sol\":1114:1413  function addTopic(uint _id, string memory _topic) isManager public {\r... */\n    tag_4:\n      tag_15\n      0x04\n      dup1\n      calldatasize\n      sub\n      dup2\n      add\n      swap1\n      tag_16\n      swap2\n      swap1\n      tag_17\n      jump\t// in\n    tag_16:\n      tag_18\n      jump\t// in\n    tag_15:\n      stop\n        /* \"Mqttsc.sol\":3062:3579  function authorize(uint _id, string memory _topic) isManager public view returns(bool) {\r... */\n    tag_5:\n      tag_19\n      0x04\n      dup1\n      calldatasize\n      sub\n      dup2\n      add\n      swap1\n      tag_20\n      swap2\n      swap1\n      tag_17\n      jump\t// in\n    tag_20:\n      tag_21\n      jump\t// in\n    tag_19:\n      mload(0x40)\n      tag_22\n      swap2\n      swap1\n      tag_23\n      jump\t// in\n    tag_22:\n      mload(0x40)\n      dup1\n      swap2\n      sub\n      swap1\n      return\n        /* \"Mqttsc.sol\":2052:2528  function getClients() public isManager view returns (uint[] memory, string[] memory) {\r... */\n    tag_6:\n      tag_24\n      tag_25\n      jump\t// in\n    tag_24:\n      mload(0x40)\n      tag_26\n      swap3\n      swap2\n      swap1\n      tag_27\n      jump\t// in\n    tag_26:\n      mload(0x40)\n      dup1\n      swap2\n      sub\n      swap1\n      return\n        /* \"Mqttsc.sol\":754:1102  function addClient(string memory _username, string memory _password) isManager public {\r... */\n    tag_7:\n      tag_28\n      0x04\n      dup1\n      calldatasize\n      sub\n      dup2\n      add\n      swap1\n      tag_29\n      swap2\n      swap1\n      tag_30\n      jump\t// in\n    tag_29:\n      tag_31\n      jump\t// in\n    tag_28:\n      stop\n        /* \"Mqttsc.sol\":2546:3050  function authenticate(uint _id, string memory _username, string memory _password) isManager public view returns (bool) {\r... */\n    tag_8:\n      tag_32\n      0x04\n      dup1\n      calldatasize\n      sub\n      dup2\n      add\n      swap1\n      tag_33\n      swap2\n      swap1\n      tag_34\n      jump\t// in\n    tag_33:\n      tag_35\n      jump\t// in\n    tag_32:\n      mload(0x40)\n      tag_36\n      swap2\n      swap1\n      tag_23\n      jump\t// in\n    tag_36:\n      mload(0x40)\n      dup1\n      swap2\n      sub\n      swap1\n      return\n        /* \"Mqttsc.sol\":1425:1983  function updateTopic(uint _id, string memory _topic, string memory _newtopic) isManager public{\r... */\n    tag_9:\n      tag_37\n      0x04\n      dup1\n      calldatasize\n      sub\n      dup2\n      add\n      swap1\n      tag_38\n      swap2\n      swap1\n      tag_34\n      jump\t// in\n    tag_38:\n      tag_39\n      jump\t// in\n    tag_37:\n      stop\n        /* \"Mqttsc.sol\":633:742  function testGetTopic() public view returns(string memory) {\r... */\n    tag_12:\n        /* \"Mqttsc.sol\":677:690  string memory */\n      0x60\n        /* \"Mqttsc.sol\":710:722  clientLedger */\n      0x01\n        /* \"Mqttsc.sol\":723:724  1 */\n      dup1\n        /* \"Mqttsc.sol\":710:725  clientLedger[1] */\n      dup2\n      sload\n      dup2\n      lt\n      tag_41\n      jumpi\n      invalid\n    tag_41:\n      swap1\n      0x00\n      mstore\n      keccak256(0x00, 0x20)\n      swap1\n      0x04\n      mul\n      add\n        /* \"Mqttsc.sol\":710:731  clientLedger[1].topic */\n      0x03\n      add\n        /* \"Mqttsc.sol\":732:733  0 */\n      0x00\n        /* \"Mqttsc.sol\":710:734  clientLedger[1].topic[0] */\n      dup2\n      sload\n      dup2\n      lt\n      tag_43\n      jumpi\n      invalid\n    tag_43:\n      swap1\n      0x00\n      mstore\n      keccak256(0x00, 0x20)\n      add\n        /* \"Mqttsc.sol\":703:734  return clientLedger[1].topic[0] */\n      dup1\n      sload\n      0x01\n      dup2\n      0x01\n      and\n      iszero\n      0x0100\n      mul\n      sub\n      and\n      0x02\n      swap1\n      div\n      dup1\n      0x1f\n      add\n      0x20\n      dup1\n      swap2\n      div\n      mul\n      0x20\n      add\n      mload(0x40)\n      swap1\n      dup2\n      add\n      0x40\n      mstore\n      dup1\n      swap3\n      swap2\n      swap1\n      dup2\n      dup2\n      mstore\n      0x20\n      add\n      dup3\n      dup1\n      sload\n      0x01\n      dup2\n      0x01\n      and\n      iszero\n      0x0100\n      mul\n      sub\n      and\n      0x02\n      swap1\n      div\n      dup1\n      iszero\n      tag_45\n      jumpi\n      dup1\n      0x1f\n      lt\n      tag_46\n      jumpi\n      0x0100\n      dup1\n      dup4\n      sload\n      div\n      mul\n      dup4\n      mstore\n      swap2\n      0x20\n      add\n      swap2\n      jump(tag_45)\n    tag_46:\n      dup3\n      add\n      swap2\n      swap1\n      0x00\n      mstore\n      keccak256(0x00, 0x20)\n      swap1\n    tag_47:\n      dup2\n      sload\n      dup2\n      mstore\n      swap1\n      0x01\n      add\n      swap1\n      0x20\n      add\n      dup1\n      dup4\n      gt\n      tag_47\n      jumpi\n      dup3\n      swap1\n      sub\n      0x1f\n      and\n      dup3\n      add\n      swap2\n    tag_45:\n      pop\n      pop\n      pop\n      pop\n      pop\n      swap1\n      pop\n        /* \"Mqttsc.sol\":633:742  function testGetTopic() public view returns(string memory) {\r... */\n      swap1\n      jump\t// out\n        /* \"Mqttsc.sol\":1114:1413  function addTopic(uint _id, string memory _topic) isManager public {\r... */\n    tag_18:\n        /* \"Mqttsc.sol\":3645:3652  manager */\n      0x00\n      dup1\n      sload\n      swap1\n      0x0100\n      exp\n      swap1\n      div\n      0xffffffffffffffffffffffffffffffffffffffff\n      and\n        /* \"Mqttsc.sol\":3631:3652  msg.sender == manager */\n      0xffffffffffffffffffffffffffffffffffffffff\n      and\n        /* \"Mqttsc.sol\":3631:3641  msg.sender */\n      caller\n        /* \"Mqttsc.sol\":3631:3652  msg.sender == manager */\n      0xffffffffffffffffffffffffffffffffffffffff\n      and\n      eq\n        /* \"Mqttsc.sol\":3623:3653  require(msg.sender == manager) */\n      tag_49\n      jumpi\n      0x00\n      dup1\n      revert\n    tag_49:\n        /* \"Mqttsc.sol\":1196:1202  uint i */\n      0x00\n        /* \"Mqttsc.sol\":1192:1406  for(uint i = 0; i < clientLedger.length; i++){\r... */\n    tag_51:\n        /* \"Mqttsc.sol\":1212:1224  clientLedger */\n      0x01\n        /* \"Mqttsc.sol\":1212:1231  clientLedger.length */\n      dup1\n      sload\n      swap1\n      pop\n        /* \"Mqttsc.sol\":1208:1209  i */\n      dup2\n        /* \"Mqttsc.sol\":1208:1231  i < clientLedger.length */\n      lt\n        /* \"Mqttsc.sol\":1192:1406  for(uint i = 0; i < clientLedger.length; i++){\r... */\n      iszero\n      tag_52\n      jumpi\n        /* \"Mqttsc.sol\":1252:1276  Client storage clientele */\n      0x00\n        /* \"Mqttsc.sol\":1279:1291  clientLedger */\n      0x01\n        /* \"Mqttsc.sol\":1292:1293  i */\n      dup3\n        /* \"Mqttsc.sol\":1279:1294  clientLedger[i] */\n      dup2\n      sload\n      dup2\n      lt\n      tag_54\n      jumpi\n      invalid\n    tag_54:\n      swap1\n      0x00\n      mstore\n      keccak256(0x00, 0x20)\n      swap1\n      0x04\n      mul\n      add\n        /* \"Mqttsc.sol\":1252:1294  Client storage clientele = clientLedger[i] */\n      swap1\n      pop\n        /* \"Mqttsc.sol\":1319:1328  clientele */\n      dup1\n        /* \"Mqttsc.sol\":1319:1331  clientele.id */\n      0x00\n      add\n      sload\n        /* \"Mqttsc.sol\":1312:1315  _id */\n      dup5\n        /* \"Mqttsc.sol\":1312:1331  _id == clientele.id */\n      eq\n        /* \"Mqttsc.sol\":1309:1395  if(_id == clientele.id){\r... */\n      iszero\n      tag_56\n      jumpi\n        /* \"Mqttsc.sol\":1351:1360  clientele */\n      dup1\n        /* \"Mqttsc.sol\":1351:1366  clientele.topic */\n      0x03\n      add\n        /* \"Mqttsc.sol\":1372:1378  _topic */\n      dup4\n        /* \"Mqttsc.sol\":1351:1379  clientele.topic.push(_topic) */\n      swap1\n      dup1\n      0x01\n      dup2\n      sload\n      add\n      dup1\n      dup3\n      sstore\n      dup1\n      swap2\n      pop\n      pop\n      0x01\n      swap1\n      sub\n      swap1\n      0x00\n      mstore\n      keccak256(0x00, 0x20)\n      add\n      0x00\n      swap1\n      swap2\n      swap1\n      swap2\n      swap1\n      swap2\n      pop\n      swap1\n      dup1\n      mload\n      swap1\n      0x20\n      add\n      swap1\n      tag_58\n      swap3\n      swap2\n      swap1\n      tag_59\n      jump\t// in\n    tag_58:\n      pop\n        /* \"Mqttsc.sol\":1309:1395  if(_id == clientele.id){\r... */\n    tag_56:\n        /* \"Mqttsc.sol\":1192:1406  for(uint i = 0; i < clientLedger.length; i++){\r... */\n      pop\n        /* \"Mqttsc.sol\":1233:1236  i++ */\n      dup1\n      dup1\n      0x01\n      add\n      swap2\n      pop\n      pop\n        /* \"Mqttsc.sol\":1192:1406  for(uint i = 0; i < clientLedger.length; i++){\r... */\n      jump(tag_51)\n    tag_52:\n      pop\n        /* \"Mqttsc.sol\":1114:1413  function addTopic(uint _id, string memory _topic) isManager public {\r... */\n      pop\n      pop\n      jump\t// out\n        /* \"Mqttsc.sol\":3062:3579  function authorize(uint _id, string memory _topic) isManager public view returns(bool) {\r... */\n    tag_21:\n        /* \"Mqttsc.sol\":3143:3147  bool */\n      0x00\n        /* \"Mqttsc.sol\":3645:3652  manager */\n      dup1\n      0x00\n      swap1\n      sload\n      swap1\n      0x0100\n      exp\n      swap1\n      div\n      0xffffffffffffffffffffffffffffffffffffffff\n      and\n        /* \"Mqttsc.sol\":3631:3652  msg.sender == manager */\n      0xffffffffffffffffffffffffffffffffffffffff\n      and\n        /* \"Mqttsc.sol\":3631:3641  msg.sender */\n      caller\n        /* \"Mqttsc.sol\":3631:3652  msg.sender == manager */\n      0xffffffffffffffffffffffffffffffffffffffff\n      and\n      eq\n        /* \"Mqttsc.sol\":3623:3653  require(msg.sender == manager) */\n      tag_61\n      jumpi\n      0x00\n      dup1\n      revert\n    tag_61:\n        /* \"Mqttsc.sol\":3164:3170  uint i */\n      0x00\n        /* \"Mqttsc.sol\":3160:3549  for(uint i = 0; i < clientLedger.length; i++){\r... */\n    tag_63:\n        /* \"Mqttsc.sol\":3180:3192  clientLedger */\n      0x01\n        /* \"Mqttsc.sol\":3180:3199  clientLedger.length */\n      dup1\n      sload\n      swap1\n      pop\n        /* \"Mqttsc.sol\":3176:3177  i */\n      dup2\n        /* \"Mqttsc.sol\":3176:3199  i < clientLedger.length */\n      lt\n        /* \"Mqttsc.sol\":3160:3549  for(uint i = 0; i < clientLedger.length; i++){\r... */\n      iszero\n      tag_64\n      jumpi\n        /* \"Mqttsc.sol\":3230:3242  clientLedger */\n      0x01\n        /* \"Mqttsc.sol\":3243:3244  i */\n      dup2\n        /* \"Mqttsc.sol\":3230:3245  clientLedger[i] */\n      dup2\n      sload\n      dup2\n      lt\n      tag_66\n      jumpi\n      invalid\n    tag_66:\n      swap1\n      0x00\n      mstore\n      keccak256(0x00, 0x20)\n      swap1\n      0x04\n      mul\n      add\n        /* \"Mqttsc.sol\":3230:3248  clientLedger[i].id */\n      0x00\n      add\n      sload\n        /* \"Mqttsc.sol\":3223:3226  _id */\n      dup5\n        /* \"Mqttsc.sol\":3223:3248  _id == clientLedger[i].id */\n      eq\n        /* \"Mqttsc.sol\":3220:3538  if(_id == clientLedger[i].id){\r... */\n      iszero\n      tag_68\n      jumpi\n        /* \"Mqttsc.sol\":3272:3278  uint j */\n      0x00\n        /* \"Mqttsc.sol\":3268:3523  for(uint j = 0; j < clientLedger[i].topic.length ; j++){\r... */\n    tag_69:\n        /* \"Mqttsc.sol\":3288:3300  clientLedger */\n      0x01\n        /* \"Mqttsc.sol\":3301:3302  i */\n      dup3\n        /* \"Mqttsc.sol\":3288:3303  clientLedger[i] */\n      dup2\n      sload\n      dup2\n      lt\n      tag_72\n      jumpi\n      invalid\n    tag_72:\n      swap1\n      0x00\n      mstore\n      keccak256(0x00, 0x20)\n      swap1\n      0x04\n      mul\n      add\n        /* \"Mqttsc.sol\":3288:3309  clientLedger[i].topic */\n      0x03\n      add\n        /* \"Mqttsc.sol\":3288:3316  clientLedger[i].topic.length */\n      dup1\n      sload\n      swap1\n      pop\n        /* \"Mqttsc.sol\":3284:3285  j */\n      dup2\n        /* \"Mqttsc.sol\":3284:3316  j < clientLedger[i].topic.length */\n      lt\n        /* \"Mqttsc.sol\":3268:3523  for(uint j = 0; j < clientLedger[i].topic.length ; j++){\r... */\n      iszero\n      tag_70\n      jumpi\n        /* \"Mqttsc.sol\":3415:3427  clientLedger */\n      0x01\n        /* \"Mqttsc.sol\":3428:3429  i */\n      dup3\n        /* \"Mqttsc.sol\":3415:3430  clientLedger[i] */\n      dup2\n      sload\n      dup2\n      lt\n      tag_74\n      jumpi\n      invalid\n    tag_74:\n      swap1\n      0x00\n      mstore\n      keccak256(0x00, 0x20)\n      swap1\n      0x04\n      mul\n      add\n        /* \"Mqttsc.sol\":3415:3436  clientLedger[i].topic */\n      0x03\n      add\n        /* \"Mqttsc.sol\":3437:3438  j */\n      dup2\n        /* \"Mqttsc.sol\":3415:3439  clientLedger[i].topic[j] */\n      dup2\n      sload\n      dup2\n      lt\n      tag_76\n      jumpi\n      invalid\n    tag_76:\n      swap1\n      0x00\n      mstore\n      keccak256(0x00, 0x20)\n      add\n        /* \"Mqttsc.sol\":3398:3440  abi.encodePacked(clientLedger[i].topic[j]) */\n      add(0x20, mload(0x40))\n      tag_78\n      swap2\n      swap1\n      tag_79\n      jump\t// in\n    tag_78:\n      mload(0x40)\n      0x20\n      dup2\n      dup4\n      sub\n      sub\n      dup2\n      mstore\n      swap1\n      0x40\n      mstore\n        /* \"Mqttsc.sol\":3388:3441  keccak256(abi.encodePacked(clientLedger[i].topic[j])) */\n      dup1\n      mload\n      swap1\n      0x20\n      add\n      keccak256\n        /* \"Mqttsc.sol\":3376:3382  _topic */\n      dup5\n        /* \"Mqttsc.sol\":3359:3383  abi.encodePacked(_topic) */\n      add(0x20, mload(0x40))\n      tag_80\n      swap2\n      swap1\n      tag_81\n      jump\t// in\n    tag_80:\n      mload(0x40)\n      0x20\n      dup2\n      dup4\n      sub\n      sub\n      dup2\n      mstore\n      swap1\n      0x40\n      mstore\n        /* \"Mqttsc.sol\":3349:3384  keccak256(abi.encodePacked(_topic)) */\n      dup1\n      mload\n      swap1\n      0x20\n      add\n      keccak256\n        /* \"Mqttsc.sol\":3349:3441  keccak256(abi.encodePacked(_topic)) == keccak256(abi.encodePacked(clientLedger[i].topic[j])) */\n      eq\n        /* \"Mqttsc.sol\":3346:3504  if(keccak256(abi.encodePacked(_topic)) == keccak256(abi.encodePacked(clientLedger[i].topic[j]))){\r... */\n      iszero\n      tag_82\n      jumpi\n        /* \"Mqttsc.sol\":3476:3480  true */\n      0x01\n        /* \"Mqttsc.sol\":3469:3480  return true */\n      swap3\n      pop\n      pop\n      pop\n      jump(tag_62)\n        /* \"Mqttsc.sol\":3346:3504  if(keccak256(abi.encodePacked(_topic)) == keccak256(abi.encodePacked(clientLedger[i].topic[j]))){\r... */\n    tag_82:\n        /* \"Mqttsc.sol\":3319:3322  j++ */\n      dup1\n      dup1\n      0x01\n      add\n      swap2\n      pop\n      pop\n        /* \"Mqttsc.sol\":3268:3523  for(uint j = 0; j < clientLedger[i].topic.length ; j++){\r... */\n      jump(tag_69)\n    tag_70:\n      pop\n        /* \"Mqttsc.sol\":3220:3538  if(_id == clientLedger[i].id){\r... */\n    tag_68:\n        /* \"Mqttsc.sol\":3201:3204  i++ */\n      dup1\n      dup1\n      0x01\n      add\n      swap2\n      pop\n      pop\n        /* \"Mqttsc.sol\":3160:3549  for(uint i = 0; i < clientLedger.length; i++){\r... */\n      jump(tag_63)\n    tag_64:\n      pop\n        /* \"Mqttsc.sol\":3566:3571  false */\n      0x00\n        /* \"Mqttsc.sol\":3559:3571  return false */\n      swap1\n      pop\n        /* \"Mqttsc.sol\":3664:3665  _ */\n    tag_62:\n        /* \"Mqttsc.sol\":3062:3579  function authorize(uint _id, string memory _topic) isManager public view returns(bool) {\r... */\n      swap3\n      swap2\n      pop\n      pop\n      jump\t// out\n        /* \"Mqttsc.sol\":2052:2528  function getClients() public isManager view returns (uint[] memory, string[] memory) {\r... */\n    tag_25:\n        /* \"Mqttsc.sol\":2105:2118  uint[] memory */\n      0x60\n        /* \"Mqttsc.sol\":2120:2135  string[] memory */\n      dup1\n        /* \"Mqttsc.sol\":3645:3652  manager */\n      0x00\n      dup1\n      sload\n      swap1\n      0x0100\n      exp\n      swap1\n      div\n      0xffffffffffffffffffffffffffffffffffffffff\n      and\n        /* \"Mqttsc.sol\":3631:3652  msg.sender == manager */\n      0xffffffffffffffffffffffffffffffffffffffff\n      and\n        /* \"Mqttsc.sol\":3631:3641  msg.sender */\n      caller\n        /* \"Mqttsc.sol\":3631:3652  msg.sender == manager */\n      0xffffffffffffffffffffffffffffffffffffffff\n      and\n      eq\n        /* \"Mqttsc.sol\":3623:3653  require(msg.sender == manager) */\n      tag_84\n      jumpi\n      0x00\n      dup1\n      revert\n    tag_84:\n        /* \"Mqttsc.sol\":2148:2165  uint[] memory _id */\n      0x60\n        /* \"Mqttsc.sol\":2179:2190  clientCount */\n      sload(0x02)\n        /* \"Mqttsc.sol\":2168:2191  new uint[](clientCount) */\n      0xffffffffffffffff\n      dup2\n      gt\n      dup1\n      iszero\n      tag_86\n      jumpi\n      0x00\n      dup1\n      revert\n    tag_86:\n      pop\n      mload(0x40)\n      swap1\n      dup1\n      dup3\n      mstore\n      dup1\n      0x20\n      mul\n      0x20\n      add\n      dup3\n      add\n      0x40\n      mstore\n      dup1\n      iszero\n      tag_87\n      jumpi\n      dup2\n      0x20\n      add\n      0x20\n      dup3\n      mul\n      dup1\n      calldatasize\n      dup4\n      calldatacopy\n      dup1\n      dup3\n      add\n      swap2\n      pop\n      pop\n      swap1\n      pop\n    tag_87:\n      pop\n        /* \"Mqttsc.sol\":2148:2191  uint[] memory _id = new uint[](clientCount) */\n      swap1\n      pop\n        /* \"Mqttsc.sol\":2202:2227  string[] memory _username */\n      0x60\n        /* \"Mqttsc.sol\":2243:2254  clientCount */\n      sload(0x02)\n        /* \"Mqttsc.sol\":2230:2255  new string[](clientCount) */\n      0xffffffffffffffff\n      dup2\n      gt\n      dup1\n      iszero\n      tag_88\n      jumpi\n      0x00\n      dup1\n      revert\n    tag_88:\n      pop\n      mload(0x40)\n      swap1\n      dup1\n      dup3\n      mstore\n      dup1\n      0x20\n      mul\n      0x20\n      add\n      dup3\n      add\n      0x40\n      mstore\n      dup1\n      iszero\n      tag_89\n      jumpi\n      dup2\n      0x20\n      add\n    tag_90:\n      0x60\n      dup2\n      mstore\n      0x20\n      add\n      swap1\n      0x01\n      swap1\n      sub\n      swap1\n      dup2\n      tag_90\n      jumpi\n      swap1\n      pop\n    tag_89:\n      pop\n        /* \"Mqttsc.sol\":2202:2255  string[] memory _username = new string[](clientCount) */\n      swap1\n      pop\n        /* \"Mqttsc.sol\":2270:2276  uint i */\n      0x00\n        /* \"Mqttsc.sol\":2266:2464  for(uint i = 0; i < clientLedger.length; i++){\r... */\n    tag_91:\n        /* \"Mqttsc.sol\":2286:2298  clientLedger */\n      0x01\n        /* \"Mqttsc.sol\":2286:2305  clientLedger.length */\n      dup1\n      sload\n      swap1\n      pop\n        /* \"Mqttsc.sol\":2282:2283  i */\n      dup2\n        /* \"Mqttsc.sol\":2282:2305  i < clientLedger.length */\n      lt\n        /* \"Mqttsc.sol\":2266:2464  for(uint i = 0; i < clientLedger.length; i++){\r... */\n      iszero\n      tag_92\n      jumpi\n        /* \"Mqttsc.sol\":2326:2350  Client storage clientele */\n      0x00\n        /* \"Mqttsc.sol\":2353:2365  clientLedger */\n      0x01\n        /* \"Mqttsc.sol\":2366:2367  i */\n      dup3\n        /* \"Mqttsc.sol\":2353:2368  clientLedger[i] */\n      dup2\n      sload\n      dup2\n      lt\n      tag_94\n      jumpi\n      invalid\n    tag_94:\n      swap1\n      0x00\n      mstore\n      keccak256(0x00, 0x20)\n      swap1\n      0x04\n      mul\n      add\n        /* \"Mqttsc.sol\":2326:2368  Client storage clientele = clientLedger[i] */\n      swap1\n      pop\n        /* \"Mqttsc.sol\":2392:2401  clientele */\n      dup1\n        /* \"Mqttsc.sol\":2392:2404  clientele.id */\n      0x00\n      add\n      sload\n        /* \"Mqttsc.sol\":2383:2386  _id */\n      dup5\n        /* \"Mqttsc.sol\":2387:2388  i */\n      dup4\n        /* \"Mqttsc.sol\":2383:2389  _id[i] */\n      dup2\n      mload\n      dup2\n      lt\n      tag_96\n      jumpi\n      invalid\n    tag_96:\n      0x20\n      mul\n      0x20\n      add\n      add\n        /* \"Mqttsc.sol\":2383:2404  _id[i] = clientele.id */\n      dup2\n      dup2\n      mstore\n      pop\n      pop\n        /* \"Mqttsc.sol\":2434:2443  clientele */\n      dup1\n        /* \"Mqttsc.sol\":2434:2452  clientele.username */\n      0x01\n      add\n        /* \"Mqttsc.sol\":2419:2452  _username[i] = clientele.username */\n      dup1\n      sload\n      0x01\n      dup2\n      0x01\n      and\n      iszero\n      0x0100\n      mul\n      sub\n      and\n      0x02\n      swap1\n      div\n      dup1\n      0x1f\n      add\n      0x20\n      dup1\n      swap2\n      div\n      mul\n      0x20\n      add\n      mload(0x40)\n      swap1\n      dup2\n      add\n      0x40\n      mstore\n      dup1\n      swap3\n      swap2\n      swap1\n      dup2\n      dup2\n      mstore\n      0x20\n      add\n      dup3\n      dup1\n      sload\n      0x01\n      dup2\n      0x01\n      and\n      iszero\n      0x0100\n      mul\n      sub\n      and\n      0x02\n      swap1\n      div\n      dup1\n      iszero\n      tag_97\n      jumpi\n      dup1\n      0x1f\n      lt\n      tag_98\n      jumpi\n      0x0100\n      dup1\n      dup4\n      sload\n      div\n      mul\n      dup4\n      mstore\n      swap2\n      0x20\n      add\n      swap2\n      jump(tag_97)\n    tag_98:\n      dup3\n      add\n      swap2\n      swap1\n      0x00\n      mstore\n      keccak256(0x00, 0x20)\n      swap1\n    tag_99:\n      dup2\n      sload\n      dup2\n      mstore\n      swap1\n      0x01\n      add\n      swap1\n      0x20\n      add\n      dup1\n      dup4\n      gt\n      tag_99\n      jumpi\n      dup3\n      swap1\n      sub\n      0x1f\n      and\n      dup3\n      add\n      swap2\n    tag_97:\n      pop\n      pop\n      pop\n      pop\n      pop\n        /* \"Mqttsc.sol\":2419:2428  _username */\n      dup4\n        /* \"Mqttsc.sol\":2429:2430  i */\n      dup4\n        /* \"Mqttsc.sol\":2419:2431  _username[i] */\n      dup2\n      mload\n      dup2\n      lt\n      tag_100\n      jumpi\n      invalid\n    tag_100:\n      0x20\n      mul\n      0x20\n      add\n      add\n        /* \"Mqttsc.sol\":2419:2452  _username[i] = clientele.username */\n      dup2\n      swap1\n      mstore\n      pop\n        /* \"Mqttsc.sol\":2266:2464  for(uint i = 0; i < clientLedger.length; i++){\r... */\n      pop\n        /* \"Mqttsc.sol\":2307:2310  i++ */\n      dup1\n      dup1\n      0x01\n      add\n      swap2\n      pop\n      pop\n        /* \"Mqttsc.sol\":2266:2464  for(uint i = 0; i < clientLedger.length; i++){\r... */\n      jump(tag_91)\n    tag_92:\n      pop\n        /* \"Mqttsc.sol\":2495:2498  _id */\n      dup2\n        /* \"Mqttsc.sol\":2500:2509  _username */\n      dup2\n        /* \"Mqttsc.sol\":2474:2520  return(\r... */\n      swap4\n      pop\n      swap4\n      pop\n      pop\n      pop\n        /* \"Mqttsc.sol\":2052:2528  function getClients() public isManager view returns (uint[] memory, string[] memory) {\r... */\n      swap1\n      swap2\n      jump\t// out\n        /* \"Mqttsc.sol\":754:1102  function addClient(string memory _username, string memory _password) isManager public {\r... */\n    tag_31:\n        /* \"Mqttsc.sol\":3645:3652  manager */\n      0x00\n      dup1\n      sload\n      swap1\n      0x0100\n      exp\n      swap1\n      div\n      0xffffffffffffffffffffffffffffffffffffffff\n      and\n        /* \"Mqttsc.sol\":3631:3652  msg.sender == manager */\n      0xffffffffffffffffffffffffffffffffffffffff\n      and\n        /* \"Mqttsc.sol\":3631:3641  msg.sender */\n      caller\n        /* \"Mqttsc.sol\":3631:3652  msg.sender == manager */\n      0xffffffffffffffffffffffffffffffffffffffff\n      and\n      eq\n        /* \"Mqttsc.sol\":3623:3653  require(msg.sender == manager) */\n      tag_102\n      jumpi\n      0x00\n      dup1\n      revert\n    tag_102:\n        /* \"Mqttsc.sol\":851:874  Client memory newClient */\n      tag_104\n      tag_105\n      jump\t// in\n    tag_104:\n        /* \"Mqttsc.sol\":877:1031  Client({\r... */\n      mload(0x40)\n      dup1\n      0x80\n      add\n      0x40\n      mstore\n      dup1\n        /* \"Mqttsc.sol\":903:914  clientCount */\n      sload(0x02)\n        /* \"Mqttsc.sol\":877:1031  Client({\r... */\n      dup2\n      mstore\n      0x20\n      add\n        /* \"Mqttsc.sol\":939:948  _username */\n      dup5\n        /* \"Mqttsc.sol\":877:1031  Client({\r... */\n      dup2\n      mstore\n      0x20\n      add\n        /* \"Mqttsc.sol\":973:982  _password */\n      dup4\n        /* \"Mqttsc.sol\":877:1031  Client({\r... */\n      dup2\n      mstore\n      0x20\n      add\n        /* \"Mqttsc.sol\":1017:1018  0 */\n      0x00\n        /* \"Mqttsc.sol\":1004:1019  new string[](0) */\n      0xffffffffffffffff\n      dup2\n      gt\n      dup1\n      iszero\n      tag_106\n      jumpi\n      0x00\n      dup1\n      revert\n    tag_106:\n      pop\n      mload(0x40)\n      swap1\n      dup1\n      dup3\n      mstore\n      dup1\n      0x20\n      mul\n      0x20\n      add\n      dup3\n      add\n      0x40\n      mstore\n      dup1\n      iszero\n      tag_107\n      jumpi\n      dup2\n      0x20\n      add\n    tag_108:\n      0x60\n      dup2\n      mstore\n      0x20\n      add\n      swap1\n      0x01\n      swap1\n      sub\n      swap1\n      dup2\n      tag_108\n      jumpi\n      swap1\n      pop\n    tag_107:\n      pop\n        /* \"Mqttsc.sol\":877:1031  Client({\r... */\n      dup2\n      mstore\n      pop\n        /* \"Mqttsc.sol\":851:1031  Client memory newClient = Client({\r... */\n      swap1\n      pop\n        /* \"Mqttsc.sol\":1042:1053  clientCount */\n      0x02\n      0x00\n        /* \"Mqttsc.sol\":1042:1055  clientCount++ */\n      dup2\n      sload\n      dup1\n      swap3\n      swap2\n      swap1\n      0x01\n      add\n      swap2\n      swap1\n      pop\n      sstore\n      pop\n        /* \"Mqttsc.sol\":1066:1078  clientLedger */\n      0x01\n        /* \"Mqttsc.sol\":1084:1093  newClient */\n      dup2\n        /* \"Mqttsc.sol\":1066:1094  clientLedger.push(newClient) */\n      swap1\n      dup1\n      0x01\n      dup2\n      sload\n      add\n      dup1\n      dup3\n      sstore\n      dup1\n      swap2\n      pop\n      pop\n      0x01\n      swap1\n      sub\n      swap1\n      0x00\n      mstore\n      keccak256(0x00, 0x20)\n      swap1\n      0x04\n      mul\n      add\n      0x00\n      swap1\n      swap2\n      swap1\n      swap2\n      swap1\n      swap2\n      pop\n      0x00\n      dup3\n      add\n      mload\n      dup2\n      0x00\n      add\n      sstore\n      0x20\n      dup3\n      add\n      mload\n      dup2\n      0x01\n      add\n      swap1\n      dup1\n      mload\n      swap1\n      0x20\n      add\n      swap1\n      tag_110\n      swap3\n      swap2\n      swap1\n      tag_59\n      jump\t// in\n    tag_110:\n      pop\n      0x40\n      dup3\n      add\n      mload\n      dup2\n      0x02\n      add\n      swap1\n      dup1\n      mload\n      swap1\n      0x20\n      add\n      swap1\n      tag_111\n      swap3\n      swap2\n      swap1\n      tag_59\n      jump\t// in\n    tag_111:\n      pop\n      0x60\n      dup3\n      add\n      mload\n      dup2\n      0x03\n      add\n      swap1\n      dup1\n      mload\n      swap1\n      0x20\n      add\n      swap1\n      tag_112\n      swap3\n      swap2\n      swap1\n      tag_113\n      jump\t// in\n    tag_112:\n      pop\n      pop\n      pop\n        /* \"Mqttsc.sol\":3664:3665  _ */\n      pop\n        /* \"Mqttsc.sol\":754:1102  function addClient(string memory _username, string memory _password) isManager public {\r... */\n      pop\n      pop\n      jump\t// out\n        /* \"Mqttsc.sol\":2546:3050  function authenticate(uint _id, string memory _username, string memory _password) isManager public view returns (bool) {\r... */\n    tag_35:\n        /* \"Mqttsc.sol\":2659:2663  bool */\n      0x00\n        /* \"Mqttsc.sol\":3645:3652  manager */\n      dup1\n      0x00\n      swap1\n      sload\n      swap1\n      0x0100\n      exp\n      swap1\n      div\n      0xffffffffffffffffffffffffffffffffffffffff\n      and\n        /* \"Mqttsc.sol\":3631:3652  msg.sender == manager */\n      0xffffffffffffffffffffffffffffffffffffffff\n      and\n        /* \"Mqttsc.sol\":3631:3641  msg.sender */\n      caller\n        /* \"Mqttsc.sol\":3631:3652  msg.sender == manager */\n      0xffffffffffffffffffffffffffffffffffffffff\n      and\n      eq\n        /* \"Mqttsc.sol\":3623:3653  require(msg.sender == manager) */\n      tag_115\n      jumpi\n      0x00\n      dup1\n      revert\n    tag_115:\n        /* \"Mqttsc.sol\":2680:2686  uint i */\n      0x00\n        /* \"Mqttsc.sol\":2676:3020  for(uint i = 0; i < clientLedger.length; i++){\r... */\n    tag_117:\n        /* \"Mqttsc.sol\":2696:2708  clientLedger */\n      0x01\n        /* \"Mqttsc.sol\":2696:2715  clientLedger.length */\n      dup1\n      sload\n      swap1\n      pop\n        /* \"Mqttsc.sol\":2692:2693  i */\n      dup2\n        /* \"Mqttsc.sol\":2692:2715  i < clientLedger.length */\n      lt\n        /* \"Mqttsc.sol\":2676:3020  for(uint i = 0; i < clientLedger.length; i++){\r... */\n      iszero\n      tag_118\n      jumpi\n        /* \"Mqttsc.sol\":2746:2758  clientLedger */\n      0x01\n        /* \"Mqttsc.sol\":2759:2760  i */\n      dup2\n        /* \"Mqttsc.sol\":2746:2761  clientLedger[i] */\n      dup2\n      sload\n      dup2\n      lt\n      tag_120\n      jumpi\n      invalid\n    tag_120:\n      swap1\n      0x00\n      mstore\n      keccak256(0x00, 0x20)\n      swap1\n      0x04\n      mul\n      add\n        /* \"Mqttsc.sol\":2746:2764  clientLedger[i].id */\n      0x00\n      add\n      sload\n        /* \"Mqttsc.sol\":2739:2742  _id */\n      dup6\n        /* \"Mqttsc.sol\":2739:2764  _id == clientLedger[i].id */\n      eq\n        /* \"Mqttsc.sol\":2739:2863  _id == clientLedger[i].id && keccak256(abi.encodePacked(_username)) == keccak256(abi.encodePacked(clientLedger[i].username)) */\n      dup1\n      iszero\n      tag_122\n      jumpi\n      pop\n        /* \"Mqttsc.sol\":2837:2849  clientLedger */\n      0x01\n        /* \"Mqttsc.sol\":2850:2851  i */\n      dup2\n        /* \"Mqttsc.sol\":2837:2852  clientLedger[i] */\n      dup2\n      sload\n      dup2\n      lt\n      tag_123\n      jumpi\n      invalid\n    tag_123:\n      swap1\n      0x00\n      mstore\n      keccak256(0x00, 0x20)\n      swap1\n      0x04\n      mul\n      add\n        /* \"Mqttsc.sol\":2837:2861  clientLedger[i].username */\n      0x01\n      add\n        /* \"Mqttsc.sol\":2820:2862  abi.encodePacked(clientLedger[i].username) */\n      add(0x20, mload(0x40))\n      tag_125\n      swap2\n      swap1\n      tag_79\n      jump\t// in\n    tag_125:\n      mload(0x40)\n      0x20\n      dup2\n      dup4\n      sub\n      sub\n      dup2\n      mstore\n      swap1\n      0x40\n      mstore\n        /* \"Mqttsc.sol\":2810:2863  keccak256(abi.encodePacked(clientLedger[i].username)) */\n      dup1\n      mload\n      swap1\n      0x20\n      add\n      keccak256\n        /* \"Mqttsc.sol\":2795:2804  _username */\n      dup5\n        /* \"Mqttsc.sol\":2778:2805  abi.encodePacked(_username) */\n      add(0x20, mload(0x40))\n      tag_126\n      swap2\n      swap1\n      tag_81\n      jump\t// in\n    tag_126:\n      mload(0x40)\n      0x20\n      dup2\n      dup4\n      sub\n      sub\n      dup2\n      mstore\n      swap1\n      0x40\n      mstore\n        /* \"Mqttsc.sol\":2768:2806  keccak256(abi.encodePacked(_username)) */\n      dup1\n      mload\n      swap1\n      0x20\n      add\n      keccak256\n        /* \"Mqttsc.sol\":2768:2863  keccak256(abi.encodePacked(_username)) == keccak256(abi.encodePacked(clientLedger[i].username)) */\n      eq\n        /* \"Mqttsc.sol\":2739:2863  _id == clientLedger[i].id && keccak256(abi.encodePacked(_username)) == keccak256(abi.encodePacked(clientLedger[i].username)) */\n    tag_122:\n        /* \"Mqttsc.sol\":2739:2962  _id == clientLedger[i].id && keccak256(abi.encodePacked(_username)) == keccak256(abi.encodePacked(clientLedger[i].username)) && keccak256(abi.encodePacked(_password)) == keccak256(abi.encodePacked(clientLedger[i].password)) */\n      dup1\n      iszero\n      tag_127\n      jumpi\n      pop\n        /* \"Mqttsc.sol\":2936:2948  clientLedger */\n      0x01\n        /* \"Mqttsc.sol\":2949:2950  i */\n      dup2\n        /* \"Mqttsc.sol\":2936:2951  clientLedger[i] */\n      dup2\n      sload\n      dup2\n      lt\n      tag_128\n      jumpi\n      invalid\n    tag_128:\n      swap1\n      0x00\n      mstore\n      keccak256(0x00, 0x20)\n      swap1\n      0x04\n      mul\n      add\n        /* \"Mqttsc.sol\":2936:2960  clientLedger[i].password */\n      0x02\n      add\n        /* \"Mqttsc.sol\":2919:2961  abi.encodePacked(clientLedger[i].password) */\n      add(0x20, mload(0x40))\n      tag_130\n      swap2\n      swap1\n      tag_79\n      jump\t// in\n    tag_130:\n      mload(0x40)\n      0x20\n      dup2\n      dup4\n      sub\n      sub\n      dup2\n      mstore\n      swap1\n      0x40\n      mstore\n        /* \"Mqttsc.sol\":2909:2962  keccak256(abi.encodePacked(clientLedger[i].password)) */\n      dup1\n      mload\n      swap1\n      0x20\n      add\n      keccak256\n        /* \"Mqttsc.sol\":2894:2903  _password */\n      dup4\n        /* \"Mqttsc.sol\":2877:2904  abi.encodePacked(_password) */\n      add(0x20, mload(0x40))\n      tag_131\n      swap2\n      swap1\n      tag_81\n      jump\t// in\n    tag_131:\n      mload(0x40)\n      0x20\n      dup2\n      dup4\n      sub\n      sub\n      dup2\n      mstore\n      swap1\n      0x40\n      mstore\n        /* \"Mqttsc.sol\":2867:2905  keccak256(abi.encodePacked(_password)) */\n      dup1\n      mload\n      swap1\n      0x20\n      add\n      keccak256\n        /* \"Mqttsc.sol\":2867:2962  keccak256(abi.encodePacked(_password)) == keccak256(abi.encodePacked(clientLedger[i].password)) */\n      eq\n        /* \"Mqttsc.sol\":2739:2962  _id == clientLedger[i].id && keccak256(abi.encodePacked(_username)) == keccak256(abi.encodePacked(clientLedger[i].username)) && keccak256(abi.encodePacked(_password)) == keccak256(abi.encodePacked(clientLedger[i].password)) */\n    tag_127:\n        /* \"Mqttsc.sol\":2736:3009  if(_id == clientLedger[i].id && keccak256(abi.encodePacked(_username)) == keccak256(abi.encodePacked(clientLedger[i].username)) && keccak256(abi.encodePacked(_password)) == keccak256(abi.encodePacked(clientLedger[i].password))){\r... */\n      iszero\n      tag_132\n      jumpi\n        /* \"Mqttsc.sol\":2989:2993  true */\n      0x01\n        /* \"Mqttsc.sol\":2982:2993  return true */\n      swap2\n      pop\n      pop\n      jump(tag_116)\n        /* \"Mqttsc.sol\":2736:3009  if(_id == clientLedger[i].id && keccak256(abi.encodePacked(_username)) == keccak256(abi.encodePacked(clientLedger[i].username)) && keccak256(abi.encodePacked(_password)) == keccak256(abi.encodePacked(clientLedger[i].password))){\r... */\n    tag_132:\n        /* \"Mqttsc.sol\":2717:2720  i++ */\n      dup1\n      dup1\n      0x01\n      add\n      swap2\n      pop\n      pop\n        /* \"Mqttsc.sol\":2676:3020  for(uint i = 0; i < clientLedger.length; i++){\r... */\n      jump(tag_117)\n    tag_118:\n      pop\n        /* \"Mqttsc.sol\":3037:3042  false */\n      0x00\n        /* \"Mqttsc.sol\":3030:3042  return false */\n      swap1\n      pop\n        /* \"Mqttsc.sol\":3664:3665  _ */\n    tag_116:\n        /* \"Mqttsc.sol\":2546:3050  function authenticate(uint _id, string memory _username, string memory _password) isManager public view returns (bool) {\r... */\n      swap4\n      swap3\n      pop\n      pop\n      pop\n      jump\t// out\n        /* \"Mqttsc.sol\":1425:1983  function updateTopic(uint _id, string memory _topic, string memory _newtopic) isManager public{\r... */\n    tag_39:\n        /* \"Mqttsc.sol\":3645:3652  manager */\n      0x00\n      dup1\n      sload\n      swap1\n      0x0100\n      exp\n      swap1\n      div\n      0xffffffffffffffffffffffffffffffffffffffff\n      and\n        /* \"Mqttsc.sol\":3631:3652  msg.sender == manager */\n      0xffffffffffffffffffffffffffffffffffffffff\n      and\n        /* \"Mqttsc.sol\":3631:3641  msg.sender */\n      caller\n        /* \"Mqttsc.sol\":3631:3652  msg.sender == manager */\n      0xffffffffffffffffffffffffffffffffffffffff\n      and\n      eq\n        /* \"Mqttsc.sol\":3623:3653  require(msg.sender == manager) */\n      tag_134\n      jumpi\n      0x00\n      dup1\n      revert\n    tag_134:\n        /* \"Mqttsc.sol\":1534:1540  uint i */\n      0x00\n        /* \"Mqttsc.sol\":1530:1976  for(uint i = 0; i < clientLedger.length; i++){\r... */\n    tag_136:\n        /* \"Mqttsc.sol\":1550:1562  clientLedger */\n      0x01\n        /* \"Mqttsc.sol\":1550:1569  clientLedger.length */\n      dup1\n      sload\n      swap1\n      pop\n        /* \"Mqttsc.sol\":1546:1547  i */\n      dup2\n        /* \"Mqttsc.sol\":1546:1569  i < clientLedger.length */\n      lt\n        /* \"Mqttsc.sol\":1530:1976  for(uint i = 0; i < clientLedger.length; i++){\r... */\n      iszero\n      tag_137\n      jumpi\n        /* \"Mqttsc.sol\":1590:1614  Client storage clientele */\n      0x00\n        /* \"Mqttsc.sol\":1617:1629  clientLedger */\n      0x01\n        /* \"Mqttsc.sol\":1630:1631  i */\n      dup3\n        /* \"Mqttsc.sol\":1617:1632  clientLedger[i] */\n      dup2\n      sload\n      dup2\n      lt\n      tag_139\n      jumpi\n      invalid\n    tag_139:\n      swap1\n      0x00\n      mstore\n      keccak256(0x00, 0x20)\n      swap1\n      0x04\n      mul\n      add\n        /* \"Mqttsc.sol\":1590:1632  Client storage clientele = clientLedger[i] */\n      swap1\n      pop\n        /* \"Mqttsc.sol\":1657:1666  clientele */\n      dup1\n        /* \"Mqttsc.sol\":1657:1669  clientele.id */\n      0x00\n      add\n      sload\n        /* \"Mqttsc.sol\":1650:1653  _id */\n      dup6\n        /* \"Mqttsc.sol\":1650:1669  _id == clientele.id */\n      eq\n        /* \"Mqttsc.sol\":1647:1965  if(_id == clientele.id){\r... */\n      iszero\n      tag_141\n      jumpi\n        /* \"Mqttsc.sol\":1693:1699  uint j */\n      0x00\n        /* \"Mqttsc.sol\":1689:1950  for(uint j = 0; j < clientele.topic.length; j++){\r... */\n    tag_142:\n        /* \"Mqttsc.sol\":1709:1718  clientele */\n      dup2\n        /* \"Mqttsc.sol\":1709:1724  clientele.topic */\n      0x03\n      add\n        /* \"Mqttsc.sol\":1709:1731  clientele.topic.length */\n      dup1\n      sload\n      swap1\n      pop\n        /* \"Mqttsc.sol\":1705:1706  j */\n      dup2\n        /* \"Mqttsc.sol\":1705:1731  j < clientele.topic.length */\n      lt\n        /* \"Mqttsc.sol\":1689:1950  for(uint j = 0; j < clientele.topic.length; j++){\r... */\n      iszero\n      tag_143\n      jumpi\n        /* \"Mqttsc.sol\":1841:1847  _topic */\n      dup5\n        /* \"Mqttsc.sol\":1824:1848  abi.encodePacked(_topic) */\n      add(0x20, mload(0x40))\n      tag_145\n      swap2\n      swap1\n      tag_81\n      jump\t// in\n    tag_145:\n      mload(0x40)\n      0x20\n      dup2\n      dup4\n      sub\n      sub\n      dup2\n      mstore\n      swap1\n      0x40\n      mstore\n        /* \"Mqttsc.sol\":1814:1849  keccak256(abi.encodePacked(_topic)) */\n      dup1\n      mload\n      swap1\n      0x20\n      add\n      keccak256\n        /* \"Mqttsc.sol\":1790:1799  clientele */\n      dup3\n        /* \"Mqttsc.sol\":1790:1805  clientele.topic */\n      0x03\n      add\n        /* \"Mqttsc.sol\":1806:1807  j */\n      dup3\n        /* \"Mqttsc.sol\":1790:1808  clientele.topic[j] */\n      dup2\n      sload\n      dup2\n      lt\n      tag_146\n      jumpi\n      invalid\n    tag_146:\n      swap1\n      0x00\n      mstore\n      keccak256(0x00, 0x20)\n      add\n        /* \"Mqttsc.sol\":1773:1809  abi.encodePacked(clientele.topic[j]) */\n      add(0x20, mload(0x40))\n      tag_148\n      swap2\n      swap1\n      tag_79\n      jump\t// in\n    tag_148:\n      mload(0x40)\n      0x20\n      dup2\n      dup4\n      sub\n      sub\n      dup2\n      mstore\n      swap1\n      0x40\n      mstore\n        /* \"Mqttsc.sol\":1763:1810  keccak256(abi.encodePacked(clientele.topic[j])) */\n      dup1\n      mload\n      swap1\n      0x20\n      add\n      keccak256\n        /* \"Mqttsc.sol\":1763:1849  keccak256(abi.encodePacked(clientele.topic[j])) == keccak256(abi.encodePacked(_topic)) */\n      eq\n        /* \"Mqttsc.sol\":1760:1931  if(keccak256(abi.encodePacked(clientele.topic[j])) == keccak256(abi.encodePacked(_topic))){\r... */\n      iszero\n      tag_149\n      jumpi\n        /* \"Mqttsc.sol\":1898:1907  _newtopic */\n      dup4\n        /* \"Mqttsc.sol\":1877:1886  clientele */\n      dup3\n        /* \"Mqttsc.sol\":1877:1892  clientele.topic */\n      0x03\n      add\n        /* \"Mqttsc.sol\":1893:1894  j */\n      dup3\n        /* \"Mqttsc.sol\":1877:1895  clientele.topic[j] */\n      dup2\n      sload\n      dup2\n      lt\n      tag_150\n      jumpi\n      invalid\n    tag_150:\n      swap1\n      0x00\n      mstore\n      keccak256(0x00, 0x20)\n      add\n        /* \"Mqttsc.sol\":1877:1907  clientele.topic[j] = _newtopic */\n      swap1\n      dup1\n      mload\n      swap1\n      0x20\n      add\n      swap1\n      tag_152\n      swap3\n      swap2\n      swap1\n      tag_59\n      jump\t// in\n    tag_152:\n      pop\n        /* \"Mqttsc.sol\":1760:1931  if(keccak256(abi.encodePacked(clientele.topic[j])) == keccak256(abi.encodePacked(_topic))){\r... */\n    tag_149:\n        /* \"Mqttsc.sol\":1733:1736  j++ */\n      dup1\n      dup1\n      0x01\n      add\n      swap2\n      pop\n      pop\n        /* \"Mqttsc.sol\":1689:1950  for(uint j = 0; j < clientele.topic.length; j++){\r... */\n      jump(tag_142)\n    tag_143:\n      pop\n        /* \"Mqttsc.sol\":1647:1965  if(_id == clientele.id){\r... */\n    tag_141:\n        /* \"Mqttsc.sol\":1530:1976  for(uint i = 0; i < clientLedger.length; i++){\r... */\n      pop\n        /* \"Mqttsc.sol\":1571:1574  i++ */\n      dup1\n      dup1\n      0x01\n      add\n      swap2\n      pop\n      pop\n        /* \"Mqttsc.sol\":1530:1976  for(uint i = 0; i < clientLedger.length; i++){\r... */\n      jump(tag_136)\n    tag_137:\n      pop\n        /* \"Mqttsc.sol\":1425:1983  function updateTopic(uint _id, string memory _topic, string memory _newtopic) isManager public{\r... */\n      pop\n      pop\n      pop\n      jump\t// out\n    tag_59:\n      dup3\n      dup1\n      sload\n      0x01\n      dup2\n      0x01\n      and\n      iszero\n      0x0100\n      mul\n      sub\n      and\n      0x02\n      swap1\n      div\n      swap1\n      0x00\n      mstore\n      keccak256(0x00, 0x20)\n      swap1\n      0x1f\n      add\n      0x20\n      swap1\n      div\n      dup2\n      add\n      swap3\n      dup3\n      0x1f\n      lt\n      tag_154\n      jumpi\n      dup1\n      mload\n      not(0xff)\n      and\n      dup4\n      dup1\n      add\n      or\n      dup6\n      sstore\n      jump(tag_153)\n    tag_154:\n      dup3\n      dup1\n      add\n      0x01\n      add\n      dup6\n      sstore\n      dup3\n      iszero\n      tag_153\n      jumpi\n      swap2\n      dup3\n      add\n    tag_155:\n      dup3\n      dup2\n      gt\n      iszero\n      tag_156\n      jumpi\n      dup3\n      mload\n      dup3\n      sstore\n      swap2\n      0x20\n      add\n      swap2\n      swap1\n      0x01\n      add\n      swap1\n      jump(tag_155)\n    tag_156:\n    tag_153:\n      pop\n      swap1\n      pop\n      tag_157\n      swap2\n      swap1\n      tag_158\n      jump\t// in\n    tag_157:\n      pop\n      swap1\n      jump\t// out\n    tag_105:\n      mload(0x40)\n      dup1\n      0x80\n      add\n      0x40\n      mstore\n      dup1\n      0x00\n      dup2\n      mstore\n      0x20\n      add\n      0x60\n      dup2\n      mstore\n      0x20\n      add\n      0x60\n      dup2\n      mstore\n      0x20\n      add\n      0x60\n      dup2\n      mstore\n      pop\n      swap1\n      jump\t// out\n    tag_113:\n      dup3\n      dup1\n      sload\n      dup3\n      dup3\n      sstore\n      swap1\n      0x00\n      mstore\n      keccak256(0x00, 0x20)\n      swap1\n      dup2\n      add\n      swap3\n      dup3\n      iszero\n      tag_159\n      jumpi\n      swap2\n      0x20\n      mul\n      dup3\n      add\n    tag_160:\n      dup3\n      dup2\n      gt\n      iszero\n      tag_161\n      jumpi\n      dup3\n      mload\n      dup3\n      swap1\n      dup1\n      mload\n      swap1\n      0x20\n      add\n      swap1\n      tag_162\n      swap3\n      swap2\n      swap1\n      tag_59\n      jump\t// in\n    tag_162:\n      pop\n      swap2\n      0x20\n      add\n      swap2\n      swap1\n      0x01\n      add\n      swap1\n      jump(tag_160)\n    tag_161:\n    tag_159:\n      pop\n      swap1\n      pop\n      tag_163\n      swap2\n      swap1\n      tag_164\n      jump\t// in\n    tag_163:\n      pop\n      swap1\n      jump\t// out\n    tag_158:\n    tag_165:\n      dup1\n      dup3\n      gt\n      iszero\n      tag_166\n      jumpi\n      0x00\n      dup2\n      0x00\n      swap1\n      sstore\n      pop\n      0x01\n      add\n      jump(tag_165)\n    tag_166:\n      pop\n      swap1\n      jump\t// out\n    tag_164:\n    tag_167:\n      dup1\n      dup3\n      gt\n      iszero\n      tag_168\n      jumpi\n      0x00\n      dup2\n      dup2\n      tag_169\n      swap2\n      swap1\n      tag_170\n      jump\t// in\n    tag_169:\n      pop\n      0x01\n      add\n      jump(tag_167)\n    tag_168:\n      pop\n      swap1\n      jump\t// out\n    tag_170:\n      pop\n      dup1\n      sload\n      0x01\n      dup2\n      0x01\n      and\n      iszero\n      0x0100\n      mul\n      sub\n      and\n      0x02\n      swap1\n      div\n      0x00\n      dup3\n      sstore\n      dup1\n      0x1f\n      lt\n      tag_172\n      jumpi\n      pop\n      jump(tag_171)\n    tag_172:\n      0x1f\n      add\n      0x20\n      swap1\n      div\n      swap1\n      0x00\n      mstore\n      keccak256(0x00, 0x20)\n      swap1\n      dup2\n      add\n      swap1\n      tag_173\n      swap2\n      swap1\n      tag_158\n      jump\t// in\n    tag_173:\n    tag_171:\n      pop\n      jump\t// out\n        /* \"--CODEGEN--\":6:448   */\n    tag_175:\n      0x00\n        /* \"--CODEGEN--\":108:111   */\n      dup3\n        /* \"--CODEGEN--\":101:105   */\n      0x1f\n        /* \"--CODEGEN--\":93:99   */\n      dup4\n        /* \"--CODEGEN--\":89:106   */\n      add\n        /* \"--CODEGEN--\":85:112   */\n      slt\n        /* \"--CODEGEN--\":75:77   */\n      tag_177\n      jumpi\n        /* \"--CODEGEN--\":126:127   */\n      0x00\n        /* \"--CODEGEN--\":123:124   */\n      dup1\n        /* \"--CODEGEN--\":116:128   */\n      revert\n        /* \"--CODEGEN--\":75:77   */\n    tag_177:\n        /* \"--CODEGEN--\":163:169   */\n      dup2\n        /* \"--CODEGEN--\":150:170   */\n      calldataload\n        /* \"--CODEGEN--\":185:250   */\n      tag_178\n        /* \"--CODEGEN--\":200:249   */\n      tag_179\n        /* \"--CODEGEN--\":242:248   */\n      dup3\n        /* \"--CODEGEN--\":200:249   */\n      tag_180\n      jump\t// in\n    tag_179:\n        /* \"--CODEGEN--\":185:250   */\n      tag_181\n      jump\t// in\n    tag_178:\n        /* \"--CODEGEN--\":176:250   */\n      swap2\n      pop\n        /* \"--CODEGEN--\":270:276   */\n      dup1\n        /* \"--CODEGEN--\":263:268   */\n      dup3\n        /* \"--CODEGEN--\":256:277   */\n      mstore\n        /* \"--CODEGEN--\":306:310   */\n      0x20\n        /* \"--CODEGEN--\":298:304   */\n      dup4\n        /* \"--CODEGEN--\":294:311   */\n      add\n        /* \"--CODEGEN--\":339:343   */\n      0x20\n        /* \"--CODEGEN--\":332:337   */\n      dup4\n        /* \"--CODEGEN--\":328:344   */\n      add\n        /* \"--CODEGEN--\":374:377   */\n      dup6\n        /* \"--CODEGEN--\":365:371   */\n      dup4\n        /* \"--CODEGEN--\":360:363   */\n      dup4\n        /* \"--CODEGEN--\":356:372   */\n      add\n        /* \"--CODEGEN--\":353:378   */\n      gt\n        /* \"--CODEGEN--\":350:352   */\n      iszero\n      tag_182\n      jumpi\n        /* \"--CODEGEN--\":391:392   */\n      0x00\n        /* \"--CODEGEN--\":388:389   */\n      dup1\n        /* \"--CODEGEN--\":381:393   */\n      revert\n        /* \"--CODEGEN--\":350:352   */\n    tag_182:\n        /* \"--CODEGEN--\":401:442   */\n      tag_183\n        /* \"--CODEGEN--\":435:441   */\n      dup4\n        /* \"--CODEGEN--\":430:433   */\n      dup3\n        /* \"--CODEGEN--\":425:428   */\n      dup5\n        /* \"--CODEGEN--\":401:442   */\n      tag_184\n      jump\t// in\n    tag_183:\n        /* \"--CODEGEN--\":68:448   */\n      pop\n      pop\n      pop\n      swap3\n      swap2\n      pop\n      pop\n      jump\t// out\n        /* \"--CODEGEN--\":456:586   */\n    tag_185:\n      0x00\n        /* \"--CODEGEN--\":536:542   */\n      dup2\n        /* \"--CODEGEN--\":523:543   */\n      calldataload\n        /* \"--CODEGEN--\":514:543   */\n      swap1\n      pop\n        /* \"--CODEGEN--\":548:581   */\n      tag_187\n        /* \"--CODEGEN--\":575:580   */\n      dup2\n        /* \"--CODEGEN--\":548:581   */\n      tag_188\n      jump\t// in\n    tag_187:\n        /* \"--CODEGEN--\":508:586   */\n      swap3\n      swap2\n      pop\n      pop\n      jump\t// out\n        /* \"--CODEGEN--\":593:1171   */\n    tag_30:\n      0x00\n      dup1\n        /* \"--CODEGEN--\":734:736   */\n      0x40\n        /* \"--CODEGEN--\":722:731   */\n      dup4\n        /* \"--CODEGEN--\":713:720   */\n      dup6\n        /* \"--CODEGEN--\":709:732   */\n      sub\n        /* \"--CODEGEN--\":705:737   */\n      slt\n        /* \"--CODEGEN--\":702:704   */\n      iszero\n      tag_190\n      jumpi\n        /* \"--CODEGEN--\":750:751   */\n      0x00\n        /* \"--CODEGEN--\":747:748   */\n      dup1\n        /* \"--CODEGEN--\":740:752   */\n      revert\n        /* \"--CODEGEN--\":702:704   */\n    tag_190:\n        /* \"--CODEGEN--\":813:814   */\n      0x00\n        /* \"--CODEGEN--\":802:811   */\n      dup4\n        /* \"--CODEGEN--\":798:815   */\n      add\n        /* \"--CODEGEN--\":785:816   */\n      calldataload\n        /* \"--CODEGEN--\":836:854   */\n      0xffffffffffffffff\n        /* \"--CODEGEN--\":828:834   */\n      dup2\n        /* \"--CODEGEN--\":825:855   */\n      gt\n        /* \"--CODEGEN--\":822:824   */\n      iszero\n      tag_191\n      jumpi\n        /* \"--CODEGEN--\":868:869   */\n      0x00\n        /* \"--CODEGEN--\":865:866   */\n      dup1\n        /* \"--CODEGEN--\":858:870   */\n      revert\n        /* \"--CODEGEN--\":822:824   */\n    tag_191:\n        /* \"--CODEGEN--\":888:951   */\n      tag_192\n        /* \"--CODEGEN--\":943:950   */\n      dup6\n        /* \"--CODEGEN--\":934:940   */\n      dup3\n        /* \"--CODEGEN--\":923:932   */\n      dup7\n        /* \"--CODEGEN--\":919:941   */\n      add\n        /* \"--CODEGEN--\":888:951   */\n      tag_175\n      jump\t// in\n    tag_192:\n        /* \"--CODEGEN--\":878:951   */\n      swap3\n      pop\n        /* \"--CODEGEN--\":764:957   */\n      pop\n        /* \"--CODEGEN--\":1016:1018   */\n      0x20\n        /* \"--CODEGEN--\":1005:1014   */\n      dup4\n        /* \"--CODEGEN--\":1001:1019   */\n      add\n        /* \"--CODEGEN--\":988:1020   */\n      calldataload\n        /* \"--CODEGEN--\":1040:1058   */\n      0xffffffffffffffff\n        /* \"--CODEGEN--\":1032:1038   */\n      dup2\n        /* \"--CODEGEN--\":1029:1059   */\n      gt\n        /* \"--CODEGEN--\":1026:1028   */\n      iszero\n      tag_193\n      jumpi\n        /* \"--CODEGEN--\":1072:1073   */\n      0x00\n        /* \"--CODEGEN--\":1069:1070   */\n      dup1\n        /* \"--CODEGEN--\":1062:1074   */\n      revert\n        /* \"--CODEGEN--\":1026:1028   */\n    tag_193:\n        /* \"--CODEGEN--\":1092:1155   */\n      tag_194\n        /* \"--CODEGEN--\":1147:1154   */\n      dup6\n        /* \"--CODEGEN--\":1138:1144   */\n      dup3\n        /* \"--CODEGEN--\":1127:1136   */\n      dup7\n        /* \"--CODEGEN--\":1123:1145   */\n      add\n        /* \"--CODEGEN--\":1092:1155   */\n      tag_175\n      jump\t// in\n    tag_194:\n        /* \"--CODEGEN--\":1082:1155   */\n      swap2\n      pop\n        /* \"--CODEGEN--\":967:1161   */\n      pop\n        /* \"--CODEGEN--\":696:1171   */\n      swap3\n      pop\n      swap3\n      swap1\n      pop\n      jump\t// out\n        /* \"--CODEGEN--\":1178:1650   */\n    tag_17:\n      0x00\n      dup1\n        /* \"--CODEGEN--\":1309:1311   */\n      0x40\n        /* \"--CODEGEN--\":1297:1306   */\n      dup4\n        /* \"--CODEGEN--\":1288:1295   */\n      dup6\n        /* \"--CODEGEN--\":1284:1307   */\n      sub\n        /* \"--CODEGEN--\":1280:1312   */\n      slt\n        /* \"--CODEGEN--\":1277:1279   */\n      iszero\n      tag_196\n      jumpi\n        /* \"--CODEGEN--\":1325:1326   */\n      0x00\n        /* \"--CODEGEN--\":1322:1323   */\n      dup1\n        /* \"--CODEGEN--\":1315:1327   */\n      revert\n        /* \"--CODEGEN--\":1277:1279   */\n    tag_196:\n        /* \"--CODEGEN--\":1360:1361   */\n      0x00\n        /* \"--CODEGEN--\":1377:1430   */\n      tag_197\n        /* \"--CODEGEN--\":1422:1429   */\n      dup6\n        /* \"--CODEGEN--\":1413:1419   */\n      dup3\n        /* \"--CODEGEN--\":1402:1411   */\n      dup7\n        /* \"--CODEGEN--\":1398:1420   */\n      add\n        /* \"--CODEGEN--\":1377:1430   */\n      tag_185\n      jump\t// in\n    tag_197:\n        /* \"--CODEGEN--\":1367:1430   */\n      swap3\n      pop\n        /* \"--CODEGEN--\":1339:1436   */\n      pop\n        /* \"--CODEGEN--\":1495:1497   */\n      0x20\n        /* \"--CODEGEN--\":1484:1493   */\n      dup4\n        /* \"--CODEGEN--\":1480:1498   */\n      add\n        /* \"--CODEGEN--\":1467:1499   */\n      calldataload\n        /* \"--CODEGEN--\":1519:1537   */\n      0xffffffffffffffff\n        /* \"--CODEGEN--\":1511:1517   */\n      dup2\n        /* \"--CODEGEN--\":1508:1538   */\n      gt\n        /* \"--CODEGEN--\":1505:1507   */\n      iszero\n      tag_198\n      jumpi\n        /* \"--CODEGEN--\":1551:1552   */\n      0x00\n        /* \"--CODEGEN--\":1548:1549   */\n      dup1\n        /* \"--CODEGEN--\":1541:1553   */\n      revert\n        /* \"--CODEGEN--\":1505:1507   */\n    tag_198:\n        /* \"--CODEGEN--\":1571:1634   */\n      tag_199\n        /* \"--CODEGEN--\":1626:1633   */\n      dup6\n        /* \"--CODEGEN--\":1617:1623   */\n      dup3\n        /* \"--CODEGEN--\":1606:1615   */\n      dup7\n        /* \"--CODEGEN--\":1602:1624   */\n      add\n        /* \"--CODEGEN--\":1571:1634   */\n      tag_175\n      jump\t// in\n    tag_199:\n        /* \"--CODEGEN--\":1561:1634   */\n      swap2\n      pop\n        /* \"--CODEGEN--\":1446:1640   */\n      pop\n        /* \"--CODEGEN--\":1271:1650   */\n      swap3\n      pop\n      swap3\n      swap1\n      pop\n      jump\t// out\n        /* \"--CODEGEN--\":1657:2360   */\n    tag_34:\n      0x00\n      dup1\n      0x00\n        /* \"--CODEGEN--\":1815:1817   */\n      0x60\n        /* \"--CODEGEN--\":1803:1812   */\n      dup5\n        /* \"--CODEGEN--\":1794:1801   */\n      dup7\n        /* \"--CODEGEN--\":1790:1813   */\n      sub\n        /* \"--CODEGEN--\":1786:1818   */\n      slt\n        /* \"--CODEGEN--\":1783:1785   */\n      iszero\n      tag_201\n      jumpi\n        /* \"--CODEGEN--\":1831:1832   */\n      0x00\n        /* \"--CODEGEN--\":1828:1829   */\n      dup1\n        /* \"--CODEGEN--\":1821:1833   */\n      revert\n        /* \"--CODEGEN--\":1783:1785   */\n    tag_201:\n        /* \"--CODEGEN--\":1866:1867   */\n      0x00\n        /* \"--CODEGEN--\":1883:1936   */\n      tag_202\n        /* \"--CODEGEN--\":1928:1935   */\n      dup7\n        /* \"--CODEGEN--\":1919:1925   */\n      dup3\n        /* \"--CODEGEN--\":1908:1917   */\n      dup8\n        /* \"--CODEGEN--\":1904:1926   */\n      add\n        /* \"--CODEGEN--\":1883:1936   */\n      tag_185\n      jump\t// in\n    tag_202:\n        /* \"--CODEGEN--\":1873:1936   */\n      swap4\n      pop\n        /* \"--CODEGEN--\":1845:1942   */\n      pop\n        /* \"--CODEGEN--\":2001:2003   */\n      0x20\n        /* \"--CODEGEN--\":1990:1999   */\n      dup5\n        /* \"--CODEGEN--\":1986:2004   */\n      add\n        /* \"--CODEGEN--\":1973:2005   */\n      calldataload\n        /* \"--CODEGEN--\":2025:2043   */\n      0xffffffffffffffff\n        /* \"--CODEGEN--\":2017:2023   */\n      dup2\n        /* \"--CODEGEN--\":2014:2044   */\n      gt\n        /* \"--CODEGEN--\":2011:2013   */\n      iszero\n      tag_203\n      jumpi\n        /* \"--CODEGEN--\":2057:2058   */\n      0x00\n        /* \"--CODEGEN--\":2054:2055   */\n      dup1\n        /* \"--CODEGEN--\":2047:2059   */\n      revert\n        /* \"--CODEGEN--\":2011:2013   */\n    tag_203:\n        /* \"--CODEGEN--\":2077:2140   */\n      tag_204\n        /* \"--CODEGEN--\":2132:2139   */\n      dup7\n        /* \"--CODEGEN--\":2123:2129   */\n      dup3\n        /* \"--CODEGEN--\":2112:2121   */\n      dup8\n        /* \"--CODEGEN--\":2108:2130   */\n      add\n        /* \"--CODEGEN--\":2077:2140   */\n      tag_175\n      jump\t// in\n    tag_204:\n        /* \"--CODEGEN--\":2067:2140   */\n      swap3\n      pop\n        /* \"--CODEGEN--\":1952:2146   */\n      pop\n        /* \"--CODEGEN--\":2205:2207   */\n      0x40\n        /* \"--CODEGEN--\":2194:2203   */\n      dup5\n        /* \"--CODEGEN--\":2190:2208   */\n      add\n        /* \"--CODEGEN--\":2177:2209   */\n      calldataload\n        /* \"--CODEGEN--\":2229:2247   */\n      0xffffffffffffffff\n        /* \"--CODEGEN--\":2221:2227   */\n      dup2\n        /* \"--CODEGEN--\":2218:2248   */\n      gt\n        /* \"--CODEGEN--\":2215:2217   */\n      iszero\n      tag_205\n      jumpi\n        /* \"--CODEGEN--\":2261:2262   */\n      0x00\n        /* \"--CODEGEN--\":2258:2259   */\n      dup1\n        /* \"--CODEGEN--\":2251:2263   */\n      revert\n        /* \"--CODEGEN--\":2215:2217   */\n    tag_205:\n        /* \"--CODEGEN--\":2281:2344   */\n      tag_206\n        /* \"--CODEGEN--\":2336:2343   */\n      dup7\n        /* \"--CODEGEN--\":2327:2333   */\n      dup3\n        /* \"--CODEGEN--\":2316:2325   */\n      dup8\n        /* \"--CODEGEN--\":2312:2334   */\n      add\n        /* \"--CODEGEN--\":2281:2344   */\n      tag_175\n      jump\t// in\n    tag_206:\n        /* \"--CODEGEN--\":2271:2344   */\n      swap2\n      pop\n        /* \"--CODEGEN--\":2156:2350   */\n      pop\n        /* \"--CODEGEN--\":1777:2360   */\n      swap3\n      pop\n      swap3\n      pop\n      swap3\n      jump\t// out\n        /* \"--CODEGEN--\":2368:2561   */\n    tag_207:\n      0x00\n        /* \"--CODEGEN--\":2489:2555   */\n      tag_209\n        /* \"--CODEGEN--\":2551:2554   */\n      dup4\n        /* \"--CODEGEN--\":2543:2549   */\n      dup4\n        /* \"--CODEGEN--\":2489:2555   */\n      tag_210\n      jump\t// in\n    tag_209:\n        /* \"--CODEGEN--\":2475:2555   */\n      swap1\n      pop\n        /* \"--CODEGEN--\":2468:2561   */\n      swap3\n      swap2\n      pop\n      pop\n      jump\t// out\n        /* \"--CODEGEN--\":2570:2743   */\n    tag_211:\n      0x00\n        /* \"--CODEGEN--\":2657:2703   */\n      tag_213\n        /* \"--CODEGEN--\":2699:2702   */\n      dup4\n        /* \"--CODEGEN--\":2691:2697   */\n      dup4\n        /* \"--CODEGEN--\":2657:2703   */\n      tag_214\n      jump\t// in\n    tag_213:\n        /* \"--CODEGEN--\":2732:2736   */\n      0x20\n        /* \"--CODEGEN--\":2727:2730   */\n      dup4\n        /* \"--CODEGEN--\":2723:2737   */\n      add\n        /* \"--CODEGEN--\":2709:2737   */\n      swap1\n      pop\n        /* \"--CODEGEN--\":2650:2743   */\n      swap3\n      swap2\n      pop\n      pop\n      jump\t// out\n        /* \"--CODEGEN--\":2780:3708   */\n    tag_215:\n      0x00\n        /* \"--CODEGEN--\":2945:3009   */\n      tag_217\n        /* \"--CODEGEN--\":3003:3008   */\n      dup3\n        /* \"--CODEGEN--\":2945:3009   */\n      tag_218\n      jump\t// in\n    tag_217:\n        /* \"--CODEGEN--\":3022:3118   */\n      tag_219\n        /* \"--CODEGEN--\":3111:3117   */\n      dup2\n        /* \"--CODEGEN--\":3106:3109   */\n      dup6\n        /* \"--CODEGEN--\":3022:3118   */\n      tag_220\n      jump\t// in\n    tag_219:\n        /* \"--CODEGEN--\":3015:3118   */\n      swap4\n      pop\n        /* \"--CODEGEN--\":3141:3144   */\n      dup4\n        /* \"--CODEGEN--\":3183:3187   */\n      0x20\n        /* \"--CODEGEN--\":3175:3181   */\n      dup3\n        /* \"--CODEGEN--\":3171:3188   */\n      mul\n        /* \"--CODEGEN--\":3166:3169   */\n      dup6\n        /* \"--CODEGEN--\":3162:3189   */\n      add\n        /* \"--CODEGEN--\":3210:3276   */\n      tag_221\n        /* \"--CODEGEN--\":3270:3275   */\n      dup6\n        /* \"--CODEGEN--\":3210:3276   */\n      tag_222\n      jump\t// in\n    tag_221:\n        /* \"--CODEGEN--\":3296:3303   */\n      dup1\n        /* \"--CODEGEN--\":3324:3325   */\n      0x00\n        /* \"--CODEGEN--\":3309:3669   */\n    tag_223:\n        /* \"--CODEGEN--\":3334:3340   */\n      dup6\n        /* \"--CODEGEN--\":3331:3332   */\n      dup2\n        /* \"--CODEGEN--\":3328:3341   */\n      lt\n        /* \"--CODEGEN--\":3309:3669   */\n      iszero\n      tag_225\n      jumpi\n        /* \"--CODEGEN--\":3396:3405   */\n      dup5\n        /* \"--CODEGEN--\":3390:3394   */\n      dup5\n        /* \"--CODEGEN--\":3386:3406   */\n      sub\n        /* \"--CODEGEN--\":3381:3384   */\n      dup10\n        /* \"--CODEGEN--\":3374:3407   */\n      mstore\n        /* \"--CODEGEN--\":3441:3447   */\n      dup2\n        /* \"--CODEGEN--\":3435:3448   */\n      mload\n        /* \"--CODEGEN--\":3463:3547   */\n      tag_226\n        /* \"--CODEGEN--\":3542:3546   */\n      dup6\n        /* \"--CODEGEN--\":3527:3540   */\n      dup3\n        /* \"--CODEGEN--\":3463:3547   */\n      tag_207\n      jump\t// in\n    tag_226:\n        /* \"--CODEGEN--\":3455:3547   */\n      swap5\n      pop\n        /* \"--CODEGEN--\":3564:3634   */\n      tag_227\n        /* \"--CODEGEN--\":3627:3633   */\n      dup4\n        /* \"--CODEGEN--\":3564:3634   */\n      tag_228\n      jump\t// in\n    tag_227:\n        /* \"--CODEGEN--\":3554:3634   */\n      swap3\n      pop\n        /* \"--CODEGEN--\":3657:3661   */\n      0x20\n        /* \"--CODEGEN--\":3652:3655   */\n      dup11\n        /* \"--CODEGEN--\":3648:3662   */\n      add\n        /* \"--CODEGEN--\":3641:3662   */\n      swap10\n      pop\n        /* \"--CODEGEN--\":3366:3669   */\n      pop\n        /* \"--CODEGEN--\":3356:3357   */\n      0x01\n        /* \"--CODEGEN--\":3353:3354   */\n      dup2\n        /* \"--CODEGEN--\":3349:3358   */\n      add\n        /* \"--CODEGEN--\":3344:3358   */\n      swap1\n      pop\n        /* \"--CODEGEN--\":3309:3669   */\n      jump(tag_223)\n    tag_225:\n        /* \"--CODEGEN--\":3313:3327   */\n      pop\n        /* \"--CODEGEN--\":3682:3686   */\n      dup3\n        /* \"--CODEGEN--\":3675:3686   */\n      swap8\n      pop\n        /* \"--CODEGEN--\":3699:3702   */\n      dup8\n        /* \"--CODEGEN--\":3692:3702   */\n      swap6\n      pop\n        /* \"--CODEGEN--\":2924:3708   */\n      pop\n      pop\n      pop\n      pop\n      pop\n      swap3\n      swap2\n      pop\n      pop\n      jump\t// out\n        /* \"--CODEGEN--\":3747:4437   */\n    tag_229:\n      0x00\n        /* \"--CODEGEN--\":3892:3946   */\n      tag_231\n        /* \"--CODEGEN--\":3940:3945   */\n      dup3\n        /* \"--CODEGEN--\":3892:3946   */\n      tag_232\n      jump\t// in\n    tag_231:\n        /* \"--CODEGEN--\":3959:4045   */\n      tag_233\n        /* \"--CODEGEN--\":4038:4044   */\n      dup2\n        /* \"--CODEGEN--\":4033:4036   */\n      dup6\n        /* \"--CODEGEN--\":3959:4045   */\n      tag_234\n      jump\t// in\n    tag_233:\n        /* \"--CODEGEN--\":3952:4045   */\n      swap4\n      pop\n        /* \"--CODEGEN--\":4066:4122   */\n      tag_235\n        /* \"--CODEGEN--\":4116:4121   */\n      dup4\n        /* \"--CODEGEN--\":4066:4122   */\n      tag_236\n      jump\t// in\n    tag_235:\n        /* \"--CODEGEN--\":4142:4149   */\n      dup1\n        /* \"--CODEGEN--\":4170:4171   */\n      0x00\n        /* \"--CODEGEN--\":4155:4415   */\n    tag_237:\n        /* \"--CODEGEN--\":4180:4186   */\n      dup4\n        /* \"--CODEGEN--\":4177:4178   */\n      dup2\n        /* \"--CODEGEN--\":4174:4187   */\n      lt\n        /* \"--CODEGEN--\":4155:4415   */\n      iszero\n      tag_239\n      jumpi\n        /* \"--CODEGEN--\":4247:4253   */\n      dup2\n        /* \"--CODEGEN--\":4241:4254   */\n      mload\n        /* \"--CODEGEN--\":4268:4331   */\n      tag_240\n        /* \"--CODEGEN--\":4327:4330   */\n      dup9\n        /* \"--CODEGEN--\":4312:4325   */\n      dup3\n        /* \"--CODEGEN--\":4268:4331   */\n      tag_211\n      jump\t// in\n    tag_240:\n        /* \"--CODEGEN--\":4261:4331   */\n      swap8\n      pop\n        /* \"--CODEGEN--\":4348:4408   */\n      tag_241\n        /* \"--CODEGEN--\":4401:4407   */\n      dup4\n        /* \"--CODEGEN--\":4348:4408   */\n      tag_242\n      jump\t// in\n    tag_241:\n        /* \"--CODEGEN--\":4338:4408   */\n      swap3\n      pop\n        /* \"--CODEGEN--\":4212:4415   */\n      pop\n        /* \"--CODEGEN--\":4202:4203   */\n      0x01\n        /* \"--CODEGEN--\":4199:4200   */\n      dup2\n        /* \"--CODEGEN--\":4195:4204   */\n      add\n        /* \"--CODEGEN--\":4190:4204   */\n      swap1\n      pop\n        /* \"--CODEGEN--\":4155:4415   */\n      jump(tag_237)\n    tag_239:\n        /* \"--CODEGEN--\":4159:4173   */\n      pop\n        /* \"--CODEGEN--\":4428:4431   */\n      dup6\n        /* \"--CODEGEN--\":4421:4431   */\n      swap4\n      pop\n        /* \"--CODEGEN--\":3871:4437   */\n      pop\n      pop\n      pop\n      swap3\n      swap2\n      pop\n      pop\n      jump\t// out\n        /* \"--CODEGEN--\":4445:4549   */\n    tag_243:\n        /* \"--CODEGEN--\":4522:4543   */\n      tag_245\n        /* \"--CODEGEN--\":4537:4542   */\n      dup2\n        /* \"--CODEGEN--\":4522:4543   */\n      tag_246\n      jump\t// in\n    tag_245:\n        /* \"--CODEGEN--\":4517:4520   */\n      dup3\n        /* \"--CODEGEN--\":4510:4544   */\n      mstore\n        /* \"--CODEGEN--\":4504:4549   */\n      pop\n      pop\n      jump\t// out\n        /* \"--CODEGEN--\":4556:4883   */\n    tag_210:\n      0x00\n        /* \"--CODEGEN--\":4658:4697   */\n      tag_248\n        /* \"--CODEGEN--\":4691:4696   */\n      dup3\n        /* \"--CODEGEN--\":4658:4697   */\n      tag_249\n      jump\t// in\n    tag_248:\n        /* \"--CODEGEN--\":4709:4770   */\n      tag_250\n        /* \"--CODEGEN--\":4763:4769   */\n      dup2\n        /* \"--CODEGEN--\":4758:4761   */\n      dup6\n        /* \"--CODEGEN--\":4709:4770   */\n      tag_251\n      jump\t// in\n    tag_250:\n        /* \"--CODEGEN--\":4702:4770   */\n      swap4\n      pop\n        /* \"--CODEGEN--\":4775:4827   */\n      tag_252\n        /* \"--CODEGEN--\":4820:4826   */\n      dup2\n        /* \"--CODEGEN--\":4815:4818   */\n      dup6\n        /* \"--CODEGEN--\":4808:4812   */\n      0x20\n        /* \"--CODEGEN--\":4801:4806   */\n      dup7\n        /* \"--CODEGEN--\":4797:4813   */\n      add\n        /* \"--CODEGEN--\":4775:4827   */\n      tag_253\n      jump\t// in\n    tag_252:\n        /* \"--CODEGEN--\":4848:4877   */\n      tag_254\n        /* \"--CODEGEN--\":4870:4876   */\n      dup2\n        /* \"--CODEGEN--\":4848:4877   */\n      tag_255\n      jump\t// in\n    tag_254:\n        /* \"--CODEGEN--\":4843:4846   */\n      dup5\n        /* \"--CODEGEN--\":4839:4878   */\n      add\n        /* \"--CODEGEN--\":4832:4878   */\n      swap2\n      pop\n        /* \"--CODEGEN--\":4638:4883   */\n      pop\n      swap3\n      swap2\n      pop\n      pop\n      jump\t// out\n        /* \"--CODEGEN--\":4890:5237   */\n    tag_256:\n      0x00\n        /* \"--CODEGEN--\":5002:5041   */\n      tag_258\n        /* \"--CODEGEN--\":5035:5040   */\n      dup3\n        /* \"--CODEGEN--\":5002:5041   */\n      tag_249\n      jump\t// in\n    tag_258:\n        /* \"--CODEGEN--\":5053:5124   */\n      tag_259\n        /* \"--CODEGEN--\":5117:5123   */\n      dup2\n        /* \"--CODEGEN--\":5112:5115   */\n      dup6\n        /* \"--CODEGEN--\":5053:5124   */\n      tag_260\n      jump\t// in\n    tag_259:\n        /* \"--CODEGEN--\":5046:5124   */\n      swap4\n      pop\n        /* \"--CODEGEN--\":5129:5181   */\n      tag_261\n        /* \"--CODEGEN--\":5174:5180   */\n      dup2\n        /* \"--CODEGEN--\":5169:5172   */\n      dup6\n        /* \"--CODEGEN--\":5162:5166   */\n      0x20\n        /* \"--CODEGEN--\":5155:5160   */\n      dup7\n        /* \"--CODEGEN--\":5151:5167   */\n      add\n        /* \"--CODEGEN--\":5129:5181   */\n      tag_253\n      jump\t// in\n    tag_261:\n        /* \"--CODEGEN--\":5202:5231   */\n      tag_262\n        /* \"--CODEGEN--\":5224:5230   */\n      dup2\n        /* \"--CODEGEN--\":5202:5231   */\n      tag_255\n      jump\t// in\n    tag_262:\n        /* \"--CODEGEN--\":5197:5200   */\n      dup5\n        /* \"--CODEGEN--\":5193:5232   */\n      add\n        /* \"--CODEGEN--\":5186:5232   */\n      swap2\n      pop\n        /* \"--CODEGEN--\":4982:5237   */\n      pop\n      swap3\n      swap2\n      pop\n      pop\n      jump\t// out\n        /* \"--CODEGEN--\":5244:5604   */\n    tag_263:\n      0x00\n        /* \"--CODEGEN--\":5374:5413   */\n      tag_265\n        /* \"--CODEGEN--\":5407:5412   */\n      dup3\n        /* \"--CODEGEN--\":5374:5413   */\n      tag_249\n      jump\t// in\n    tag_265:\n        /* \"--CODEGEN--\":5425:5514   */\n      tag_266\n        /* \"--CODEGEN--\":5507:5513   */\n      dup2\n        /* \"--CODEGEN--\":5502:5505   */\n      dup6\n        /* \"--CODEGEN--\":5425:5514   */\n      tag_267\n      jump\t// in\n    tag_266:\n        /* \"--CODEGEN--\":5418:5514   */\n      swap4\n      pop\n        /* \"--CODEGEN--\":5519:5571   */\n      tag_268\n        /* \"--CODEGEN--\":5564:5570   */\n      dup2\n        /* \"--CODEGEN--\":5559:5562   */\n      dup6\n        /* \"--CODEGEN--\":5552:5556   */\n      0x20\n        /* \"--CODEGEN--\":5545:5550   */\n      dup7\n        /* \"--CODEGEN--\":5541:5557   */\n      add\n        /* \"--CODEGEN--\":5519:5571   */\n      tag_253\n      jump\t// in\n    tag_268:\n        /* \"--CODEGEN--\":5592:5598   */\n      dup1\n        /* \"--CODEGEN--\":5587:5590   */\n      dup5\n        /* \"--CODEGEN--\":5583:5599   */\n      add\n        /* \"--CODEGEN--\":5576:5599   */\n      swap2\n      pop\n        /* \"--CODEGEN--\":5354:5604   */\n      pop\n      swap3\n      swap2\n      pop\n      pop\n      jump\t// out\n        /* \"--CODEGEN--\":5636:6520   */\n    tag_269:\n      0x00\n        /* \"--CODEGEN--\":5773:5778   */\n      dup2\n        /* \"--CODEGEN--\":5767:5779   */\n      sload\n        /* \"--CODEGEN--\":5807:5808   */\n      0x01\n        /* \"--CODEGEN--\":5796:5805   */\n      dup2\n        /* \"--CODEGEN--\":5792:5809   */\n      and\n        /* \"--CODEGEN--\":5820:5821   */\n      0x00\n        /* \"--CODEGEN--\":5815:6083   */\n      dup2\n      eq\n      tag_272\n      jumpi\n        /* \"--CODEGEN--\":6094:6095   */\n      0x01\n        /* \"--CODEGEN--\":6089:6514   */\n      dup2\n      eq\n      tag_273\n      jumpi\n        /* \"--CODEGEN--\":5785:6514   */\n      jump(tag_271)\n        /* \"--CODEGEN--\":5815:6083   */\n    tag_272:\n        /* \"--CODEGEN--\":5893:5897   */\n      0x7f\n        /* \"--CODEGEN--\":5889:5890   */\n      0x02\n        /* \"--CODEGEN--\":5878:5887   */\n      dup4\n        /* \"--CODEGEN--\":5874:5891   */\n      div\n        /* \"--CODEGEN--\":5870:5898   */\n      and\n        /* \"--CODEGEN--\":5912:6001   */\n      tag_274\n        /* \"--CODEGEN--\":5994:6000   */\n      dup2\n        /* \"--CODEGEN--\":5989:5992   */\n      dup8\n        /* \"--CODEGEN--\":5912:6001   */\n      tag_267\n      jump\t// in\n    tag_274:\n        /* \"--CODEGEN--\":5905:6001   */\n      swap6\n      pop\n        /* \"--CODEGEN--\":6039:6043   */\n      0xff\n        /* \"--CODEGEN--\":6035:6044   */\n      not\n        /* \"--CODEGEN--\":6024:6033   */\n      dup4\n        /* \"--CODEGEN--\":6020:6045   */\n      and\n        /* \"--CODEGEN--\":6015:6018   */\n      dup7\n        /* \"--CODEGEN--\":6008:6046   */\n      mstore\n        /* \"--CODEGEN--\":6069:6075   */\n      dup1\n        /* \"--CODEGEN--\":6064:6067   */\n      dup7\n        /* \"--CODEGEN--\":6060:6076   */\n      add\n        /* \"--CODEGEN--\":6053:6076   */\n      swap4\n      pop\n        /* \"--CODEGEN--\":5822:6083   */\n      pop\n        /* \"--CODEGEN--\":5815:6083   */\n      jump(tag_271)\n        /* \"--CODEGEN--\":6089:6514   */\n    tag_273:\n        /* \"--CODEGEN--\":6158:6159   */\n      0x02\n        /* \"--CODEGEN--\":6147:6156   */\n      dup3\n        /* \"--CODEGEN--\":6143:6160   */\n      div\n        /* \"--CODEGEN--\":6174:6263   */\n      tag_275\n        /* \"--CODEGEN--\":6256:6262   */\n      dup2\n        /* \"--CODEGEN--\":6251:6254   */\n      dup8\n        /* \"--CODEGEN--\":6174:6263   */\n      tag_267\n      jump\t// in\n    tag_275:\n        /* \"--CODEGEN--\":6167:6263   */\n      swap6\n      pop\n        /* \"--CODEGEN--\":6285:6323   */\n      tag_276\n        /* \"--CODEGEN--\":6317:6322   */\n      dup6\n        /* \"--CODEGEN--\":6285:6323   */\n      tag_277\n      jump\t// in\n    tag_276:\n        /* \"--CODEGEN--\":6339:6340   */\n      0x00\n        /* \"--CODEGEN--\":6347:6477   */\n    tag_278:\n        /* \"--CODEGEN--\":6361:6367   */\n      dup3\n        /* \"--CODEGEN--\":6358:6359   */\n      dup2\n        /* \"--CODEGEN--\":6355:6368   */\n      lt\n        /* \"--CODEGEN--\":6347:6477   */\n      iszero\n      tag_280\n      jumpi\n        /* \"--CODEGEN--\":6426:6433   */\n      dup2\n        /* \"--CODEGEN--\":6420:6434   */\n      sload\n        /* \"--CODEGEN--\":6416:6417   */\n      dup2\n        /* \"--CODEGEN--\":6411:6414   */\n      dup10\n        /* \"--CODEGEN--\":6407:6418   */\n      add\n        /* \"--CODEGEN--\":6400:6435   */\n      mstore\n        /* \"--CODEGEN--\":6467:6468   */\n      0x01\n        /* \"--CODEGEN--\":6458:6465   */\n      dup3\n        /* \"--CODEGEN--\":6454:6469   */\n      add\n        /* \"--CODEGEN--\":6443:6469   */\n      swap2\n      pop\n        /* \"--CODEGEN--\":6383:6387   */\n      0x20\n        /* \"--CODEGEN--\":6380:6381   */\n      dup2\n        /* \"--CODEGEN--\":6376:6388   */\n      add\n        /* \"--CODEGEN--\":6371:6388   */\n      swap1\n      pop\n        /* \"--CODEGEN--\":6347:6477   */\n      jump(tag_278)\n    tag_280:\n        /* \"--CODEGEN--\":6500:6506   */\n      dup3\n        /* \"--CODEGEN--\":6495:6498   */\n      dup9\n        /* \"--CODEGEN--\":6491:6507   */\n      add\n        /* \"--CODEGEN--\":6484:6507   */\n      swap6\n      pop\n        /* \"--CODEGEN--\":6096:6514   */\n      pop\n      pop\n      pop\n        /* \"--CODEGEN--\":5785:6514   */\n    tag_271:\n      pop\n        /* \"--CODEGEN--\":5743:6520   */\n      pop\n      swap3\n      swap2\n      pop\n      pop\n      jump\t// out\n        /* \"--CODEGEN--\":6528:6631   */\n    tag_214:\n        /* \"--CODEGEN--\":6601:6625   */\n      tag_282\n        /* \"--CODEGEN--\":6619:6624   */\n      dup2\n        /* \"--CODEGEN--\":6601:6625   */\n      tag_283\n      jump\t// in\n    tag_282:\n        /* \"--CODEGEN--\":6596:6599   */\n      dup3\n        /* \"--CODEGEN--\":6589:6626   */\n      mstore\n        /* \"--CODEGEN--\":6583:6631   */\n      pop\n      pop\n      jump\t// out\n        /* \"--CODEGEN--\":6638:6913   */\n    tag_81:\n      0x00\n        /* \"--CODEGEN--\":6793:6888   */\n      tag_285\n        /* \"--CODEGEN--\":6884:6887   */\n      dup3\n        /* \"--CODEGEN--\":6875:6881   */\n      dup5\n        /* \"--CODEGEN--\":6793:6888   */\n      tag_263\n      jump\t// in\n    tag_285:\n        /* \"--CODEGEN--\":6786:6888   */\n      swap2\n      pop\n        /* \"--CODEGEN--\":6905:6908   */\n      dup2\n        /* \"--CODEGEN--\":6898:6908   */\n      swap1\n      pop\n        /* \"--CODEGEN--\":6774:6913   */\n      swap3\n      swap2\n      pop\n      pop\n      jump\t// out\n        /* \"--CODEGEN--\":6920:7189   */\n    tag_79:\n      0x00\n        /* \"--CODEGEN--\":7072:7164   */\n      tag_287\n        /* \"--CODEGEN--\":7160:7163   */\n      dup3\n        /* \"--CODEGEN--\":7151:7157   */\n      dup5\n        /* \"--CODEGEN--\":7072:7164   */\n      tag_269\n      jump\t// in\n    tag_287:\n        /* \"--CODEGEN--\":7065:7164   */\n      swap2\n      pop\n        /* \"--CODEGEN--\":7181:7184   */\n      dup2\n        /* \"--CODEGEN--\":7174:7184   */\n      swap1\n      pop\n        /* \"--CODEGEN--\":7053:7189   */\n      swap3\n      swap2\n      pop\n      pop\n      jump\t// out\n        /* \"--CODEGEN--\":7196:7865   */\n    tag_27:\n      0x00\n        /* \"--CODEGEN--\":7471:7473   */\n      0x40\n        /* \"--CODEGEN--\":7460:7469   */\n      dup3\n        /* \"--CODEGEN--\":7456:7474   */\n      add\n        /* \"--CODEGEN--\":7448:7474   */\n      swap1\n      pop\n        /* \"--CODEGEN--\":7521:7530   */\n      dup2\n        /* \"--CODEGEN--\":7515:7519   */\n      dup2\n        /* \"--CODEGEN--\":7511:7531   */\n      sub\n        /* \"--CODEGEN--\":7507:7508   */\n      0x00\n        /* \"--CODEGEN--\":7496:7505   */\n      dup4\n        /* \"--CODEGEN--\":7492:7509   */\n      add\n        /* \"--CODEGEN--\":7485:7532   */\n      mstore\n        /* \"--CODEGEN--\":7546:7654   */\n      tag_289\n        /* \"--CODEGEN--\":7649:7653   */\n      dup2\n        /* \"--CODEGEN--\":7640:7646   */\n      dup6\n        /* \"--CODEGEN--\":7546:7654   */\n      tag_229\n      jump\t// in\n    tag_289:\n        /* \"--CODEGEN--\":7538:7654   */\n      swap1\n      pop\n        /* \"--CODEGEN--\":7702:7711   */\n      dup2\n        /* \"--CODEGEN--\":7696:7700   */\n      dup2\n        /* \"--CODEGEN--\":7692:7712   */\n      sub\n        /* \"--CODEGEN--\":7687:7689   */\n      0x20\n        /* \"--CODEGEN--\":7676:7685   */\n      dup4\n        /* \"--CODEGEN--\":7672:7690   */\n      add\n        /* \"--CODEGEN--\":7665:7713   */\n      mstore\n        /* \"--CODEGEN--\":7727:7855   */\n      tag_290\n        /* \"--CODEGEN--\":7850:7854   */\n      dup2\n        /* \"--CODEGEN--\":7841:7847   */\n      dup5\n        /* \"--CODEGEN--\":7727:7855   */\n      tag_215\n      jump\t// in\n    tag_290:\n        /* \"--CODEGEN--\":7719:7855   */\n      swap1\n      pop\n        /* \"--CODEGEN--\":7442:7865   */\n      swap4\n      swap3\n      pop\n      pop\n      pop\n      jump\t// out\n        /* \"--CODEGEN--\":7872:8082   */\n    tag_23:\n      0x00\n        /* \"--CODEGEN--\":7993:7995   */\n      0x20\n        /* \"--CODEGEN--\":7982:7991   */\n      dup3\n        /* \"--CODEGEN--\":7978:7996   */\n      add\n        /* \"--CODEGEN--\":7970:7996   */\n      swap1\n      pop\n        /* \"--CODEGEN--\":8007:8072   */\n      tag_292\n        /* \"--CODEGEN--\":8069:8070   */\n      0x00\n        /* \"--CODEGEN--\":8058:8067   */\n      dup4\n        /* \"--CODEGEN--\":8054:8071   */\n      add\n        /* \"--CODEGEN--\":8045:8051   */\n      dup5\n        /* \"--CODEGEN--\":8007:8072   */\n      tag_243\n      jump\t// in\n    tag_292:\n        /* \"--CODEGEN--\":7964:8082   */\n      swap3\n      swap2\n      pop\n      pop\n      jump\t// out\n        /* \"--CODEGEN--\":8089:8399   */\n    tag_14:\n      0x00\n        /* \"--CODEGEN--\":8236:8238   */\n      0x20\n        /* \"--CODEGEN--\":8225:8234   */\n      dup3\n        /* \"--CODEGEN--\":8221:8239   */\n      add\n        /* \"--CODEGEN--\":8213:8239   */\n      swap1\n      pop\n        /* \"--CODEGEN--\":8286:8295   */\n      dup2\n        /* \"--CODEGEN--\":8280:8284   */\n      dup2\n        /* \"--CODEGEN--\":8276:8296   */\n      sub\n        /* \"--CODEGEN--\":8272:8273   */\n      0x00\n        /* \"--CODEGEN--\":8261:8270   */\n      dup4\n        /* \"--CODEGEN--\":8257:8274   */\n      add\n        /* \"--CODEGEN--\":8250:8297   */\n      mstore\n        /* \"--CODEGEN--\":8311:8389   */\n      tag_294\n        /* \"--CODEGEN--\":8384:8388   */\n      dup2\n        /* \"--CODEGEN--\":8375:8381   */\n      dup5\n        /* \"--CODEGEN--\":8311:8389   */\n      tag_256\n      jump\t// in\n    tag_294:\n        /* \"--CODEGEN--\":8303:8389   */\n      swap1\n      pop\n        /* \"--CODEGEN--\":8207:8399   */\n      swap3\n      swap2\n      pop\n      pop\n      jump\t// out\n        /* \"--CODEGEN--\":8406:8662   */\n    tag_181:\n      0x00\n        /* \"--CODEGEN--\":8468:8470   */\n      0x40\n        /* \"--CODEGEN--\":8462:8471   */\n      mload\n        /* \"--CODEGEN--\":8452:8471   */\n      swap1\n      pop\n        /* \"--CODEGEN--\":8506:8510   */\n      dup2\n        /* \"--CODEGEN--\":8498:8504   */\n      dup2\n        /* \"--CODEGEN--\":8494:8511   */\n      add\n        /* \"--CODEGEN--\":8605:8611   */\n      dup2\n        /* \"--CODEGEN--\":8593:8603   */\n      dup2\n        /* \"--CODEGEN--\":8590:8612   */\n      lt\n        /* \"--CODEGEN--\":8569:8587   */\n      0xffffffffffffffff\n        /* \"--CODEGEN--\":8557:8567   */\n      dup3\n        /* \"--CODEGEN--\":8554:8588   */\n      gt\n        /* \"--CODEGEN--\":8551:8613   */\n      or\n        /* \"--CODEGEN--\":8548:8550   */\n      iszero\n      tag_296\n      jumpi\n        /* \"--CODEGEN--\":8626:8627   */\n      0x00\n        /* \"--CODEGEN--\":8623:8624   */\n      dup1\n        /* \"--CODEGEN--\":8616:8628   */\n      revert\n        /* \"--CODEGEN--\":8548:8550   */\n    tag_296:\n        /* \"--CODEGEN--\":8646:8656   */\n      dup1\n        /* \"--CODEGEN--\":8642:8644   */\n      0x40\n        /* \"--CODEGEN--\":8635:8657   */\n      mstore\n        /* \"--CODEGEN--\":8446:8662   */\n      pop\n      swap2\n      swap1\n      pop\n      jump\t// out\n        /* \"--CODEGEN--\":8669:8991   */\n    tag_180:\n      0x00\n        /* \"--CODEGEN--\":8813:8831   */\n      0xffffffffffffffff\n        /* \"--CODEGEN--\":8805:8811   */\n      dup3\n        /* \"--CODEGEN--\":8802:8832   */\n      gt\n        /* \"--CODEGEN--\":8799:8801   */\n      iszero\n      tag_298\n      jumpi\n        /* \"--CODEGEN--\":8845:8846   */\n      0x00\n        /* \"--CODEGEN--\":8842:8843   */\n      dup1\n        /* \"--CODEGEN--\":8835:8847   */\n      revert\n        /* \"--CODEGEN--\":8799:8801   */\n    tag_298:\n        /* \"--CODEGEN--\":8912:8916   */\n      0x1f\n        /* \"--CODEGEN--\":8908:8917   */\n      not\n        /* \"--CODEGEN--\":8901:8905   */\n      0x1f\n        /* \"--CODEGEN--\":8893:8899   */\n      dup4\n        /* \"--CODEGEN--\":8889:8906   */\n      add\n        /* \"--CODEGEN--\":8885:8918   */\n      and\n        /* \"--CODEGEN--\":8877:8918   */\n      swap1\n      pop\n        /* \"--CODEGEN--\":8976:8980   */\n      0x20\n        /* \"--CODEGEN--\":8970:8974   */\n      dup2\n        /* \"--CODEGEN--\":8966:8981   */\n      add\n        /* \"--CODEGEN--\":8958:8981   */\n      swap1\n      pop\n        /* \"--CODEGEN--\":8736:8991   */\n      swap2\n      swap1\n      pop\n      jump\t// out\n        /* \"--CODEGEN--\":8998:9159   */\n    tag_222:\n      0x00\n        /* \"--CODEGEN--\":9094:9097   */\n      dup2\n        /* \"--CODEGEN--\":9086:9097   */\n      swap1\n      pop\n        /* \"--CODEGEN--\":9132:9136   */\n      0x20\n        /* \"--CODEGEN--\":9127:9130   */\n      dup3\n        /* \"--CODEGEN--\":9123:9137   */\n      add\n        /* \"--CODEGEN--\":9115:9137   */\n      swap1\n      pop\n        /* \"--CODEGEN--\":9080:9159   */\n      swap2\n      swap1\n      pop\n      jump\t// out\n        /* \"--CODEGEN--\":9166:9317   */\n    tag_236:\n      0x00\n        /* \"--CODEGEN--\":9252:9255   */\n      dup2\n        /* \"--CODEGEN--\":9244:9255   */\n      swap1\n      pop\n        /* \"--CODEGEN--\":9290:9294   */\n      0x20\n        /* \"--CODEGEN--\":9285:9288   */\n      dup3\n        /* \"--CODEGEN--\":9281:9295   */\n      add\n        /* \"--CODEGEN--\":9273:9295   */\n      swap1\n      pop\n        /* \"--CODEGEN--\":9238:9317   */\n      swap2\n      swap1\n      pop\n      jump\t// out\n        /* \"--CODEGEN--\":9324:9482   */\n    tag_277:\n      0x00\n        /* \"--CODEGEN--\":9392:9395   */\n      dup2\n        /* \"--CODEGEN--\":9384:9395   */\n      swap1\n      pop\n        /* \"--CODEGEN--\":9429:9432   */\n      dup2\n        /* \"--CODEGEN--\":9426:9427   */\n      0x00\n        /* \"--CODEGEN--\":9419:9433   */\n      mstore\n        /* \"--CODEGEN--\":9461:9465   */\n      0x20\n        /* \"--CODEGEN--\":9458:9459   */\n      0x00\n        /* \"--CODEGEN--\":9448:9466   */\n      keccak256\n        /* \"--CODEGEN--\":9440:9466   */\n      swap1\n      pop\n        /* \"--CODEGEN--\":9378:9482   */\n      swap2\n      swap1\n      pop\n      jump\t// out\n        /* \"--CODEGEN--\":9489:9636   */\n    tag_218:\n      0x00\n        /* \"--CODEGEN--\":9608:9613   */\n      dup2\n        /* \"--CODEGEN--\":9602:9614   */\n      mload\n        /* \"--CODEGEN--\":9592:9614   */\n      swap1\n      pop\n        /* \"--CODEGEN--\":9573:9636   */\n      swap2\n      swap1\n      pop\n      jump\t// out\n        /* \"--CODEGEN--\":9643:9780   */\n    tag_232:\n      0x00\n        /* \"--CODEGEN--\":9752:9757   */\n      dup2\n        /* \"--CODEGEN--\":9746:9758   */\n      mload\n        /* \"--CODEGEN--\":9736:9758   */\n      swap1\n      pop\n        /* \"--CODEGEN--\":9717:9780   */\n      swap2\n      swap1\n      pop\n      jump\t// out\n        /* \"--CODEGEN--\":9787:9909   */\n    tag_249:\n      0x00\n        /* \"--CODEGEN--\":9881:9886   */\n      dup2\n        /* \"--CODEGEN--\":9875:9887   */\n      mload\n        /* \"--CODEGEN--\":9865:9887   */\n      swap1\n      pop\n        /* \"--CODEGEN--\":9846:9909   */\n      swap2\n      swap1\n      pop\n      jump\t// out\n        /* \"--CODEGEN--\":9916:10034   */\n    tag_228:\n      0x00\n        /* \"--CODEGEN--\":10024:10028   */\n      0x20\n        /* \"--CODEGEN--\":10019:10022   */\n      dup3\n        /* \"--CODEGEN--\":10015:10029   */\n      add\n        /* \"--CODEGEN--\":10007:10029   */\n      swap1\n      pop\n        /* \"--CODEGEN--\":10001:10034   */\n      swap2\n      swap1\n      pop\n      jump\t// out\n        /* \"--CODEGEN--\":10041:10149   */\n    tag_242:\n      0x00\n        /* \"--CODEGEN--\":10139:10143   */\n      0x20\n        /* \"--CODEGEN--\":10134:10137   */\n      dup3\n        /* \"--CODEGEN--\":10130:10144   */\n      add\n        /* \"--CODEGEN--\":10122:10144   */\n      swap1\n      pop\n        /* \"--CODEGEN--\":10116:10149   */\n      swap2\n      swap1\n      pop\n      jump\t// out\n        /* \"--CODEGEN--\":10157:10345   */\n    tag_220:\n      0x00\n        /* \"--CODEGEN--\":10297:10303   */\n      dup3\n        /* \"--CODEGEN--\":10292:10295   */\n      dup3\n        /* \"--CODEGEN--\":10285:10304   */\n      mstore\n        /* \"--CODEGEN--\":10334:10338   */\n      0x20\n        /* \"--CODEGEN--\":10329:10332   */\n      dup3\n        /* \"--CODEGEN--\":10325:10339   */\n      add\n        /* \"--CODEGEN--\":10310:10339   */\n      swap1\n      pop\n        /* \"--CODEGEN--\":10278:10345   */\n      swap3\n      swap2\n      pop\n      pop\n      jump\t// out\n        /* \"--CODEGEN--\":10354:10532   */\n    tag_234:\n      0x00\n        /* \"--CODEGEN--\":10484:10490   */\n      dup3\n        /* \"--CODEGEN--\":10479:10482   */\n      dup3\n        /* \"--CODEGEN--\":10472:10491   */\n      mstore\n        /* \"--CODEGEN--\":10521:10525   */\n      0x20\n        /* \"--CODEGEN--\":10516:10519   */\n      dup3\n        /* \"--CODEGEN--\":10512:10526   */\n      add\n        /* \"--CODEGEN--\":10497:10526   */\n      swap1\n      pop\n        /* \"--CODEGEN--\":10465:10532   */\n      swap3\n      swap2\n      pop\n      pop\n      jump\t// out\n        /* \"--CODEGEN--\":10541:10694   */\n    tag_251:\n      0x00\n        /* \"--CODEGEN--\":10646:10652   */\n      dup3\n        /* \"--CODEGEN--\":10641:10644   */\n      dup3\n        /* \"--CODEGEN--\":10634:10653   */\n      mstore\n        /* \"--CODEGEN--\":10683:10687   */\n      0x20\n        /* \"--CODEGEN--\":10678:10681   */\n      dup3\n        /* \"--CODEGEN--\":10674:10688   */\n      add\n        /* \"--CODEGEN--\":10659:10688   */\n      swap1\n      pop\n        /* \"--CODEGEN--\":10627:10694   */\n      swap3\n      swap2\n      pop\n      pop\n      jump\t// out\n        /* \"--CODEGEN--\":10703:10866   */\n    tag_260:\n      0x00\n        /* \"--CODEGEN--\":10818:10824   */\n      dup3\n        /* \"--CODEGEN--\":10813:10816   */\n      dup3\n        /* \"--CODEGEN--\":10806:10825   */\n      mstore\n        /* \"--CODEGEN--\":10855:10859   */\n      0x20\n        /* \"--CODEGEN--\":10850:10853   */\n      dup3\n        /* \"--CODEGEN--\":10846:10860   */\n      add\n        /* \"--CODEGEN--\":10831:10860   */\n      swap1\n      pop\n        /* \"--CODEGEN--\":10799:10866   */\n      swap3\n      swap2\n      pop\n      pop\n      jump\t// out\n        /* \"--CODEGEN--\":10875:11020   */\n    tag_267:\n      0x00\n        /* \"--CODEGEN--\":11011:11014   */\n      dup2\n        /* \"--CODEGEN--\":10996:11014   */\n      swap1\n      pop\n        /* \"--CODEGEN--\":10989:11020   */\n      swap3\n      swap2\n      pop\n      pop\n      jump\t// out\n        /* \"--CODEGEN--\":11028:11113   */\n    tag_246:\n      0x00\n        /* \"--CODEGEN--\":11101:11106   */\n      dup2\n        /* \"--CODEGEN--\":11094:11107   */\n      iszero\n        /* \"--CODEGEN--\":11087:11108   */\n      iszero\n        /* \"--CODEGEN--\":11076:11108   */\n      swap1\n      pop\n        /* \"--CODEGEN--\":11070:11113   */\n      swap2\n      swap1\n      pop\n      jump\t// out\n        /* \"--CODEGEN--\":11120:11192   */\n    tag_283:\n      0x00\n        /* \"--CODEGEN--\":11182:11187   */\n      dup2\n        /* \"--CODEGEN--\":11171:11187   */\n      swap1\n      pop\n        /* \"--CODEGEN--\":11165:11192   */\n      swap2\n      swap1\n      pop\n      jump\t// out\n        /* \"--CODEGEN--\":11200:11345   */\n    tag_184:\n        /* \"--CODEGEN--\":11281:11287   */\n      dup3\n        /* \"--CODEGEN--\":11276:11279   */\n      dup2\n        /* \"--CODEGEN--\":11271:11274   */\n      dup4\n        /* \"--CODEGEN--\":11258:11288   */\n      calldatacopy\n        /* \"--CODEGEN--\":11337:11338   */\n      0x00\n        /* \"--CODEGEN--\":11328:11334   */\n      dup4\n        /* \"--CODEGEN--\":11323:11326   */\n      dup4\n        /* \"--CODEGEN--\":11319:11335   */\n      add\n        /* \"--CODEGEN--\":11312:11339   */\n      mstore\n        /* \"--CODEGEN--\":11251:11345   */\n      pop\n      pop\n      pop\n      jump\t// out\n        /* \"--CODEGEN--\":11354:11622   */\n    tag_253:\n        /* \"--CODEGEN--\":11419:11420   */\n      0x00\n        /* \"--CODEGEN--\":11426:11527   */\n    tag_316:\n        /* \"--CODEGEN--\":11440:11446   */\n      dup4\n        /* \"--CODEGEN--\":11437:11438   */\n      dup2\n        /* \"--CODEGEN--\":11434:11447   */\n      lt\n        /* \"--CODEGEN--\":11426:11527   */\n      iszero\n      tag_318\n      jumpi\n        /* \"--CODEGEN--\":11516:11517   */\n      dup1\n        /* \"--CODEGEN--\":11511:11514   */\n      dup3\n        /* \"--CODEGEN--\":11507:11518   */\n      add\n        /* \"--CODEGEN--\":11501:11519   */\n      mload\n        /* \"--CODEGEN--\":11497:11498   */\n      dup2\n        /* \"--CODEGEN--\":11492:11495   */\n      dup5\n        /* \"--CODEGEN--\":11488:11499   */\n      add\n        /* \"--CODEGEN--\":11481:11520   */\n      mstore\n        /* \"--CODEGEN--\":11462:11464   */\n      0x20\n        /* \"--CODEGEN--\":11459:11460   */\n      dup2\n        /* \"--CODEGEN--\":11455:11465   */\n      add\n        /* \"--CODEGEN--\":11450:11465   */\n      swap1\n      pop\n        /* \"--CODEGEN--\":11426:11527   */\n      jump(tag_316)\n    tag_318:\n        /* \"--CODEGEN--\":11542:11548   */\n      dup4\n        /* \"--CODEGEN--\":11539:11540   */\n      dup2\n        /* \"--CODEGEN--\":11536:11549   */\n      gt\n        /* \"--CODEGEN--\":11533:11535   */\n      iszero\n      tag_319\n      jumpi\n        /* \"--CODEGEN--\":11607:11608   */\n      0x00\n        /* \"--CODEGEN--\":11598:11604   */\n      dup5\n        /* \"--CODEGEN--\":11593:11596   */\n      dup5\n        /* \"--CODEGEN--\":11589:11605   */\n      add\n        /* \"--CODEGEN--\":11582:11609   */\n      mstore\n        /* \"--CODEGEN--\":11533:11535   */\n    tag_319:\n        /* \"--CODEGEN--\":11403:11622   */\n      pop\n      pop\n      pop\n      pop\n      jump\t// out\n        /* \"--CODEGEN--\":11630:11727   */\n    tag_255:\n      0x00\n        /* \"--CODEGEN--\":11718:11720   */\n      0x1f\n        /* \"--CODEGEN--\":11714:11721   */\n      not\n        /* \"--CODEGEN--\":11709:11711   */\n      0x1f\n        /* \"--CODEGEN--\":11702:11707   */\n      dup4\n        /* \"--CODEGEN--\":11698:11712   */\n      add\n        /* \"--CODEGEN--\":11694:11722   */\n      and\n        /* \"--CODEGEN--\":11684:11722   */\n      swap1\n      pop\n        /* \"--CODEGEN--\":11678:11727   */\n      swap2\n      swap1\n      pop\n      jump\t// out\n        /* \"--CODEGEN--\":11735:11852   */\n    tag_188:\n        /* \"--CODEGEN--\":11804:11828   */\n      tag_322\n        /* \"--CODEGEN--\":11822:11827   */\n      dup2\n        /* \"--CODEGEN--\":11804:11828   */\n      tag_283\n      jump\t// in\n    tag_322:\n        /* \"--CODEGEN--\":11797:11802   */\n      dup2\n        /* \"--CODEGEN--\":11794:11829   */\n      eq\n        /* \"--CODEGEN--\":11784:11786   */\n      tag_323\n      jumpi\n        /* \"--CODEGEN--\":11843:11844   */\n      0x00\n        /* \"--CODEGEN--\":11840:11841   */\n      dup1\n        /* \"--CODEGEN--\":11833:11845   */\n      revert\n        /* \"--CODEGEN--\":11784:11786   */\n    tag_323:\n        /* \"--CODEGEN--\":11778:11852   */\n      pop\n      jump\t// out\n\n    auxdata: 0xa264697066735822122078ff0d99cb253ac6df6466f1471b907496f131e5a7fd0d87ff67c3428aadafd964736f6c634300060c0033\n}\n",
    "bytecode": {
      "linkReferences": {},
      "object": "608060405234801561001057600080fd5b50336000806101000a81548173ffffffffffffffffffffffffffffffffffffffff021916908373ffffffffffffffffffffffffffffffffffffffff1602179055506000600281905550611325806100686000396000f3fe608060405234801561001057600080fd5b506004361061007d5760003560e01c80636db809951161005b5780636db80995146100ec57806398173ff41461010b578063c4ae2f2614610127578063e8e5339a146101575761007d565b80631f617dab146100825780633276807a146100a057806352bfd15c146100bc575b600080fd5b61008a610173565b6040516100979190611135565b60405180910390f35b6100ba60048036038101906100b59190610d94565b610247565b005b6100d660048036038101906100d19190610d94565b61032c565b6040516100e3919061111a565b60405180910390f35b6100f46104a2565b6040516101029291906110e3565b60405180910390f35b61012560048036038101906101209190610d28565b6106b7565b005b610141600480360381019061013c9190610de8565b61082e565b60405161014e919061111a565b60405180910390f35b610171600480360381019061016c9190610de8565b6109cb565b005b60606001808154811061018257fe5b906000526020600020906004020160030160008154811061019f57fe5b906000526020600020018054600181600116156101000203166002900480601f01602080910402602001604051908101604052809291908181526020018280546001816001161561010002031660029004801561023d5780601f106102125761010080835404028352916020019161023d565b820191906000526020600020905b81548152906001019060200180831161022057829003601f168201915b5050505050905090565b60008054906101000a900473ffffffffffffffffffffffffffffffffffffffff1673ffffffffffffffffffffffffffffffffffffffff163373ffffffffffffffffffffffffffffffffffffffff161461029f57600080fd5b60005b600180549050811015610327576000600182815481106102be57fe5b906000526020600020906004020190508060000154841415610319578060030183908060018154018082558091505060019003906000526020600020016000909190919091509080519060200190610317929190610b2e565b505b5080806001019150506102a2565b505050565b60008060009054906101000a900473ffffffffffffffffffffffffffffffffffffffff1673ffffffffffffffffffffffffffffffffffffffff163373ffffffffffffffffffffffffffffffffffffffff161461038757600080fd5b60005b60018054905081101561049657600181815481106103a457fe5b9060005260206000209060040201600001548414156104895760005b600182815481106103cd57fe5b90600052602060002090600402016003018054905081101561048757600182815481106103f657fe5b9060005260206000209060040201600301818154811061041257fe5b9060005260206000200160405160200161042c91906110cc565b604051602081830303815290604052805190602001208460405160200161045391906110b5565b60405160208183030381529060405280519060200120141561047a5760019250505061049c565b80806001019150506103c0565b505b808060010191505061038a565b50600090505b92915050565b60608060008054906101000a900473ffffffffffffffffffffffffffffffffffffffff1673ffffffffffffffffffffffffffffffffffffffff163373ffffffffffffffffffffffffffffffffffffffff16146104fd57600080fd5b606060025467ffffffffffffffff8111801561051857600080fd5b506040519080825280602002602001820160405280156105475781602001602082028036833780820191505090505b509050606060025467ffffffffffffffff8111801561056557600080fd5b5060405190808252806020026020018201604052801561059957816020015b60608152602001906001900390816105845790505b50905060005b6001805490508110156106aa576000600182815481106105bb57fe5b9060005260206000209060040201905080600001548483815181106105dc57fe5b602002602001018181525050806001018054600181600116156101000203166002900480601f0160208091040260200160405190810160405280929190818152602001828054600181600116156101000203166002900480156106805780601f1061065557610100808354040283529160200191610680565b820191906000526020600020905b81548152906001019060200180831161066357829003601f168201915b505050505083838151811061069157fe5b602002602001018190525050808060010191505061059f565b5081819350935050509091565b60008054906101000a900473ffffffffffffffffffffffffffffffffffffffff1673ffffffffffffffffffffffffffffffffffffffff163373ffffffffffffffffffffffffffffffffffffffff161461070f57600080fd5b610717610bae565b60405180608001604052806002548152602001848152602001838152602001600067ffffffffffffffff8111801561074e57600080fd5b5060405190808252806020026020018201604052801561078257816020015b606081526020019060019003908161076d5790505b50815250905060026000815480929190600101919050555060018190806001815401808255809150506001900390600052602060002090600402016000909190919091506000820151816000015560208201518160010190805190602001906107ec929190610b2e565b506040820151816002019080519060200190610809929190610b2e565b506060820151816003019080519060200190610826929190610bd6565b505050505050565b60008060009054906101000a900473ffffffffffffffffffffffffffffffffffffffff1673ffffffffffffffffffffffffffffffffffffffff163373ffffffffffffffffffffffffffffffffffffffff161461088957600080fd5b60005b6001805490508110156109be57600181815481106108a657fe5b9060005260206000209060040201600001548514801561092e5750600181815481106108ce57fe5b90600052602060002090600402016001016040516020016108ef91906110cc565b604051602081830303815290604052805190602001208460405160200161091691906110b5565b60405160208183030381529060405280519060200120145b80156109a257506001818154811061094257fe5b906000526020600020906004020160020160405160200161096391906110cc565b604051602081830303815290604052805190602001208360405160200161098a91906110b5565b60405160208183030381529060405280519060200120145b156109b15760019150506109c4565b808060010191505061088c565b50600090505b9392505050565b60008054906101000a900473ffffffffffffffffffffffffffffffffffffffff1673ffffffffffffffffffffffffffffffffffffffff163373ffffffffffffffffffffffffffffffffffffffff1614610a2357600080fd5b60005b600180549050811015610b2857600060018281548110610a4257fe5b906000526020600020906004020190508060000154851415610b1a5760005b8160030180549050811015610b185784604051602001610a8191906110b5565b60405160208183030381529060405280519060200120826003018281548110610aa657fe5b90600052602060002001604051602001610ac091906110cc565b604051602081830303815290604052805190602001201415610b0b5783826003018281548110610aec57fe5b906000526020600020019080519060200190610b09929190610b2e565b505b8080600101915050610a61565b505b508080600101915050610a26565b50505050565b828054600181600116156101000203166002900490600052602060002090601f016020900481019282601f10610b6f57805160ff1916838001178555610b9d565b82800160010185558215610b9d579182015b82811115610b9c578251825591602001919060010190610b81565b5b509050610baa9190610c36565b5090565b6040518060800160405280600081526020016060815260200160608152602001606081525090565b828054828255906000526020600020908101928215610c25579160200282015b82811115610c24578251829080519060200190610c14929190610b2e565b5091602001919060010190610bf6565b5b509050610c329190610c53565b5090565b5b80821115610c4f576000816000905550600101610c37565b5090565b5b80821115610c735760008181610c6a9190610c77565b50600101610c54565b5090565b50805460018160011615610100020316600290046000825580601f10610c9d5750610cbc565b601f016020900490600052602060002090810190610cbb9190610c36565b5b50565b600082601f830112610cd057600080fd5b8135610ce3610cde82611184565b611157565b91508082526020830160208301858383011115610cff57600080fd5b610d0a838284611285565b50505092915050565b600081359050610d22816112d8565b92915050565b60008060408385031215610d3b57600080fd5b600083013567ffffffffffffffff811115610d5557600080fd5b610d6185828601610cbf565b925050602083013567ffffffffffffffff811115610d7e57600080fd5b610d8a85828601610cbf565b9150509250929050565b60008060408385031215610da757600080fd5b6000610db585828601610d13565b925050602083013567ffffffffffffffff811115610dd257600080fd5b610dde85828601610cbf565b9150509250929050565b600080600060608486031215610dfd57600080fd5b6000610e0b86828701610d13565b935050602084013567ffffffffffffffff811115610e2857600080fd5b610e3486828701610cbf565b925050604084013567ffffffffffffffff811115610e5157600080fd5b610e5d86828701610cbf565b9150509250925092565b6000610e738383610f75565b905092915050565b6000610e8783836110a6565b60208301905092915050565b6000610e9e826111e5565b610ea88185611220565b935083602082028501610eba856111b0565b8060005b85811015610ef65784840389528151610ed78582610e67565b9450610ee283611206565b925060208a01995050600181019050610ebe565b50829750879550505050505092915050565b6000610f13826111f0565b610f1d8185611231565b9350610f28836111c0565b8060005b83811015610f59578151610f408882610e7b565b9750610f4b83611213565b925050600181019050610f2c565b5085935050505092915050565b610f6f8161126f565b82525050565b6000610f80826111fb565b610f8a8185611242565b9350610f9a818560208601611294565b610fa3816112c7565b840191505092915050565b6000610fb9826111fb565b610fc38185611253565b9350610fd3818560208601611294565b610fdc816112c7565b840191505092915050565b6000610ff2826111fb565b610ffc8185611264565b935061100c818560208601611294565b80840191505092915050565b600081546001811660008114611035576001811461105a5761109e565b607f60028304166110468187611264565b955060ff198316865280860193505061109e565b600282046110688187611264565b9550611073856111d0565b60005b8281101561109557815481890152600182019150602081019050611076565b82880195505050505b505092915050565b6110af8161127b565b82525050565b60006110c18284610fe7565b915081905092915050565b60006110d88284611018565b915081905092915050565b600060408201905081810360008301526110fd8185610f08565b905081810360208301526111118184610e93565b90509392505050565b600060208201905061112f6000830184610f66565b92915050565b6000602082019050818103600083015261114f8184610fae565b905092915050565b6000604051905081810181811067ffffffffffffffff8211171561117a57600080fd5b8060405250919050565b600067ffffffffffffffff82111561119b57600080fd5b601f19601f8301169050602081019050919050565b6000819050602082019050919050565b6000819050602082019050919050565b60008190508160005260206000209050919050565b600081519050919050565b600081519050919050565b600081519050919050565b6000602082019050919050565b6000602082019050919050565b600082825260208201905092915050565b600082825260208201905092915050565b600082825260208201905092915050565b600082825260208201905092915050565b600081905092915050565b60008115159050919050565b6000819050919050565b82818337600083830152505050565b60005b838110156112b2578082015181840152602081019050611297565b838111156112c1576000848401525b50505050565b6000601f19601f8301169050919050565b6112e18161127b565b81146112ec57600080fd5b5056fea264697066735822122078ff0d99cb253ac6df6466f1471b907496f131e5a7fd0d87ff67c3428aadafd964736f6c634300060c0033",
      "opcodes": "PUSH1 0x80 PUSH1 0x40 MSTORE CALLVALUE DUP1 ISZERO PUSH2 0x10 JUMPI PUSH1 0x0 DUP1 REVERT JUMPDEST POP CALLER PUSH1 0x0 DUP1 PUSH2 0x100 EXP DUP2 SLOAD DUP2 PUSH20 0xFFFFFFFFFFFFFFFFFFFFFFFFFFFFFFFFFFFFFFFF MUL NOT AND SWAP1 DUP4 PUSH20 0xFFFFFFFFFFFFFFFFFFFFFFFFFFFFFFFFFFFFFFFF AND MUL OR SWAP1 SSTORE POP PUSH1 0x0 PUSH1 0x2 DUP2 SWAP1 SSTORE POP PUSH2 0x1325 DUP1 PUSH2 0x68 PUSH1 0x0 CODECOPY PUSH1 0x0 RETURN INVALID PUSH1 0x80 PUSH1 0x40 MSTORE CALLVALUE DUP1 ISZERO PUSH2 0x10 JUMPI PUSH1 0x0 DUP1 REVERT JUMPDEST POP PUSH1 0x4 CALLDATASIZE LT PUSH2 0x7D JUMPI PUSH1 0x0 CALLDATALOAD PUSH1 0xE0 SHR DUP1 PUSH4 0x6DB80995 GT PUSH2 0x5B JUMPI DUP1 PUSH4 0x6DB80995 EQ PUSH2 0xEC JUMPI DUP1 PUSH4 0x98173FF4 EQ PUSH2 0x10B JUMPI DUP1 PUSH4 0xC4AE2F26 EQ PUSH2 0x127 JUMPI DUP1 PUSH4 0xE8E5339A EQ PUSH2 0x157 JUMPI PUSH2 0x7D JUMP JUMPDEST DUP1 PUSH4 0x1F617DAB EQ PUSH2 0x82 JUMPI DUP1 PUSH4 0x3276807A EQ PUSH2 0xA0 JUMPI DUP1 PUSH4 0x52BFD15C EQ PUSH2 0xBC JUMPI JUMPDEST PUSH1 0x0 DUP1 REVERT JUMPDEST PUSH2 0x8A PUSH2 0x173 JUMP JUMPDEST PUSH1 0x40 MLOAD PUSH2 0x97 SWAP2 SWAP1 PUSH2 0x1135 JUMP JUMPDEST PUSH1 0x40 MLOAD DUP1 SWAP2 SUB SWAP1 RETURN JUMPDEST PUSH2 0xBA PUSH1 0x4 DUP1 CALLDATASIZE SUB DUP2 ADD SWAP1 PUSH2 0xB5 SWAP2 SWAP1 PUSH2 0xD94 JUMP JUMPDEST PUSH2 0x247 JUMP JUMPDEST STOP JUMPDEST PUSH2 0xD6 PUSH1 0x4 DUP1 CALLDATASIZE SUB DUP2 ADD SWAP1 PUSH2 0xD1 SWAP2 SWAP1 PUSH2 0xD94 JUMP JUMPDEST PUSH2 0x32C JUMP JUMPDEST PUSH1 0x40 MLOAD PUSH2 0xE3 SWAP2 SWAP1 PUSH2 0x111A JUMP JUMPDEST PUSH1 0x40 MLOAD DUP1 SWAP2 SUB SWAP1 RETURN JUMPDEST PUSH2 0xF4 PUSH2 0x4A2 JUMP JUMPDEST PUSH1 0x40 MLOAD PUSH2 0x102 SWAP3 SWAP2 SWAP1 PUSH2 0x10E3 JUMP JUMPDEST PUSH1 0x40 MLOAD DUP1 SWAP2 SUB SWAP1 RETURN JUMPDEST PUSH2 0x125 PUSH1 0x4 DUP1 CALLDATASIZE SUB DUP2 ADD SWAP1 PUSH2 0x120 SWAP2 SWAP1 PUSH2 0xD28 JUMP JUMPDEST PUSH2 0x6B7 JUMP JUMPDEST STOP JUMPDEST PUSH2 0x141 PUSH1 0x4 DUP1 CALLDATASIZE SUB DUP2 ADD SWAP1 PUSH2 0x13C SWAP2 SWAP1 PUSH2 0xDE8 JUMP JUMPDEST PUSH2 0x82E JUMP JUMPDEST PUSH1 0x40 MLOAD PUSH2 0x14E SWAP2 SWAP1 PUSH2 0x111A JUMP JUMPDEST PUSH1 0x40 MLOAD DUP1 SWAP2 SUB SWAP1 RETURN JUMPDEST PUSH2 0x171 PUSH1 0x4 DUP1 CALLDATASIZE SUB DUP2 ADD SWAP1 PUSH2 0x16C SWAP2 SWAP1 PUSH2 0xDE8 JUMP JUMPDEST PUSH2 0x9CB JUMP JUMPDEST STOP JUMPDEST PUSH1 0x60 PUSH1 0x1 DUP1 DUP2 SLOAD DUP2 LT PUSH2 0x182 JUMPI INVALID JUMPDEST SWAP1 PUSH1 0x0 MSTORE PUSH1 0x20 PUSH1 0x0 KECCAK256 SWAP1 PUSH1 0x4 MUL ADD PUSH1 0x3 ADD PUSH1 0x0 DUP2 SLOAD DUP2 LT PUSH2 0x19F JUMPI INVALID JUMPDEST SWAP1 PUSH1 0x0 MSTORE PUSH1 0x20 PUSH1 0x0 KECCAK256 ADD DUP1 SLOAD PUSH1 0x1 DUP2 PUSH1 0x1 AND ISZERO PUSH2 0x100 MUL SUB AND PUSH1 0x2 SWAP1 DIV DUP1 PUSH1 0x1F ADD PUSH1 0x20 DUP1 SWAP2 DIV MUL PUSH1 0x20 ADD PUSH1 0x40 MLOAD SWAP1 DUP2 ADD PUSH1 0x40 MSTORE DUP1 SWAP3 SWAP2 SWAP1 DUP2 DUP2 MSTORE PUSH1 0x20 ADD DUP3 DUP1 SLOAD PUSH1 0x1 DUP2 PUSH1 0x1 AND ISZERO PUSH2 0x100 MUL SUB AND PUSH1 0x2 SWAP1 DIV DUP1 ISZERO PUSH2 0x23D JUMPI DUP1 PUSH1 0x1F LT PUSH2 0x212 JUMPI PUSH2 0x100 DUP1 DUP4 SLOAD DIV MUL DUP4 MSTORE SWAP2 PUSH1 0x20 ADD SWAP2 PUSH2 0x23D JUMP JUMPDEST DUP3 ADD SWAP2 SWAP1 PUSH1 0x0 MSTORE PUSH1 0x20 PUSH1 0x0 KECCAK256 SWAP1 JUMPDEST DUP2 SLOAD DUP2 MSTORE SWAP1 PUSH1 0x1 ADD SWAP1 PUSH1 0x20 ADD DUP1 DUP4 GT PUSH2 0x220 JUMPI DUP3 SWAP1 SUB PUSH1 0x1F AND DUP3 ADD SWAP2 JUMPDEST POP POP POP POP POP SWAP1 POP SWAP1 JUMP JUMPDEST PUSH1 0x0 DUP1 SLOAD SWAP1 PUSH2 0x100 EXP SWAP1 DIV PUSH20 0xFFFFFFFFFFFFFFFFFFFFFFFFFFFFFFFFFFFFFFFF AND PUSH20 0xFFFFFFFFFFFFFFFFFFFFFFFFFFFFFFFFFFFFFFFF AND CALLER PUSH20 0xFFFFFFFFFFFFFFFFFFFFFFFFFFFFFFFFFFFFFFFF AND EQ PUSH2 0x29F JUMPI PUSH1 0x0 DUP1 REVERT JUMPDEST PUSH1 0x0 JUMPDEST PUSH1 0x1 DUP1 SLOAD SWAP1 POP DUP2 LT ISZERO PUSH2 0x327 JUMPI PUSH1 0x0 PUSH1 0x1 DUP3 DUP2 SLOAD DUP2 LT PUSH2 0x2BE JUMPI INVALID JUMPDEST SWAP1 PUSH1 0x0 MSTORE PUSH1 0x20 PUSH1 0x0 KECCAK256 SWAP1 PUSH1 0x4 MUL ADD SWAP1 POP DUP1 PUSH1 0x0 ADD SLOAD DUP5 EQ ISZERO PUSH2 0x319 JUMPI DUP1 PUSH1 0x3 ADD DUP4 SWAP1 DUP1 PUSH1 0x1 DUP2 SLOAD ADD DUP1 DUP3 SSTORE DUP1 SWAP2 POP POP PUSH1 0x1 SWAP1 SUB SWAP1 PUSH1 0x0 MSTORE PUSH1 0x20 PUSH1 0x0 KECCAK256 ADD PUSH1 0x0 SWAP1 SWAP2 SWAP1 SWAP2 SWAP1 SWAP2 POP SWAP1 DUP1 MLOAD SWAP1 PUSH1 0x20 ADD SWAP1 PUSH2 0x317 SWAP3 SWAP2 SWAP1 PUSH2 0xB2E JUMP JUMPDEST POP JUMPDEST POP DUP1 DUP1 PUSH1 0x1 ADD SWAP2 POP POP PUSH2 0x2A2 JUMP JUMPDEST POP POP POP JUMP JUMPDEST PUSH1 0x0 DUP1 PUSH1 0x0 SWAP1 SLOAD SWAP1 PUSH2 0x100 EXP SWAP1 DIV PUSH20 0xFFFFFFFFFFFFFFFFFFFFFFFFFFFFFFFFFFFFFFFF AND PUSH20 0xFFFFFFFFFFFFFFFFFFFFFFFFFFFFFFFFFFFFFFFF AND CALLER PUSH20 0xFFFFFFFFFFFFFFFFFFFFFFFFFFFFFFFFFFFFFFFF AND EQ PUSH2 0x387 JUMPI PUSH1 0x0 DUP1 REVERT JUMPDEST PUSH1 0x0 JUMPDEST PUSH1 0x1 DUP1 SLOAD SWAP1 POP DUP2 LT ISZERO PUSH2 0x496 JUMPI PUSH1 0x1 DUP2 DUP2 SLOAD DUP2 LT PUSH2 0x3A4 JUMPI INVALID JUMPDEST SWAP1 PUSH1 0x0 MSTORE PUSH1 0x20 PUSH1 0x0 KECCAK256 SWAP1 PUSH1 0x4 MUL ADD PUSH1 0x0 ADD SLOAD DUP5 EQ ISZERO PUSH2 0x489 JUMPI PUSH1 0x0 JUMPDEST PUSH1 0x1 DUP3 DUP2 SLOAD DUP2 LT PUSH2 0x3CD JUMPI INVALID JUMPDEST SWAP1 PUSH1 0x0 MSTORE PUSH1 0x20 PUSH1 0x0 KECCAK256 SWAP1 PUSH1 0x4 MUL ADD PUSH1 0x3 ADD DUP1 SLOAD SWAP1 POP DUP2 LT ISZERO PUSH2 0x487 JUMPI PUSH1 0x1 DUP3 DUP2 SLOAD DUP2 LT PUSH2 0x3F6 JUMPI INVALID JUMPDEST SWAP1 PUSH1 0x0 MSTORE PUSH1 0x20 PUSH1 0x0 KECCAK256 SWAP1 PUSH1 0x4 MUL ADD PUSH1 0x3 ADD DUP2 DUP2 SLOAD DUP2 LT PUSH2 0x412 JUMPI INVALID JUMPDEST SWAP1 PUSH1 0x0 MSTORE PUSH1 0x20 PUSH1 0x0 KECCAK256 ADD PUSH1 0x40 MLOAD PUSH1 0x20 ADD PUSH2 0x42C SWAP2 SWAP1 PUSH2 0x10CC JUMP JUMPDEST PUSH1 0x40 MLOAD PUSH1 0x20 DUP2 DUP4 SUB SUB DUP2 MSTORE SWAP1 PUSH1 0x40 MSTORE DUP1 MLOAD SWAP1 PUSH1 0x20 ADD KECCAK256 DUP5 PUSH1 0x40 MLOAD PUSH1 0x20 ADD PUSH2 0x453 SWAP2 SWAP1 PUSH2 0x10B5 JUMP JUMPDEST PUSH1 0x40 MLOAD PUSH1 0x20 DUP2 DUP4 SUB SUB DUP2 MSTORE SWAP1 PUSH1 0x40 MSTORE DUP1 MLOAD SWAP1 PUSH1 0x20 ADD KECCAK256 EQ ISZERO PUSH2 0x47A JUMPI PUSH1 0x1 SWAP3 POP POP POP PUSH2 0x49C JUMP JUMPDEST DUP1 DUP1 PUSH1 0x1 ADD SWAP2 POP POP PUSH2 0x3C0 JUMP JUMPDEST POP JUMPDEST DUP1 DUP1 PUSH1 0x1 ADD SWAP2 POP POP PUSH2 0x38A JUMP JUMPDEST POP PUSH1 0x0 SWAP1 POP JUMPDEST SWAP3 SWAP2 POP POP JUMP JUMPDEST PUSH1 0x60 DUP1 PUSH1 0x0 DUP1 SLOAD SWAP1 PUSH2 0x100 EXP SWAP1 DIV PUSH20 0xFFFFFFFFFFFFFFFFFFFFFFFFFFFFFFFFFFFFFFFF AND PUSH20 0xFFFFFFFFFFFFFFFFFFFFFFFFFFFFFFFFFFFFFFFF AND CALLER PUSH20 0xFFFFFFFFFFFFFFFFFFFFFFFFFFFFFFFFFFFFFFFF AND EQ PUSH2 0x4FD JUMPI PUSH1 0x0 DUP1 REVERT JUMPDEST PUSH1 0x60 PUSH1 0x2 SLOAD PUSH8 0xFFFFFFFFFFFFFFFF DUP2 GT DUP1 ISZERO PUSH2 0x518 JUMPI PUSH1 0x0 DUP1 REVERT JUMPDEST POP PUSH1 0x40 MLOAD SWAP1 DUP1 DUP3 MSTORE DUP1 PUSH1 0x20 MUL PUSH1 0x20 ADD DUP3 ADD PUSH1 0x40 MSTORE DUP1 ISZERO PUSH2 0x547 JUMPI DUP2 PUSH1 0x20 ADD PUSH1 0x20 DUP3 MUL DUP1 CALLDATASIZE DUP4 CALLDATACOPY DUP1 DUP3 ADD SWAP2 POP POP SWAP1 POP JUMPDEST POP SWAP1 POP PUSH1 0x60 PUSH1 0x2 SLOAD PUSH8 0xFFFFFFFFFFFFFFFF DUP2 GT DUP1 ISZERO PUSH2 0x565 JUMPI PUSH1 0x0 DUP1 REVERT JUMPDEST POP PUSH1 0x40 MLOAD SWAP1 DUP1 DUP3 MSTORE DUP1 PUSH1 0x20 MUL PUSH1 0x20 ADD DUP3 ADD PUSH1 0x40 MSTORE DUP1 ISZERO PUSH2 0x599 JUMPI DUP2 PUSH1 0x20 ADD JUMPDEST PUSH1 0x60 DUP2 MSTORE PUSH1 0x20 ADD SWAP1 PUSH1 0x1 SWAP1 SUB SWAP1 DUP2 PUSH2 0x584 JUMPI SWAP1 POP JUMPDEST POP SWAP1 POP PUSH1 0x0 JUMPDEST PUSH1 0x1 DUP1 SLOAD SWAP1 POP DUP2 LT ISZERO PUSH2 0x6AA JUMPI PUSH1 0x0 PUSH1 0x1 DUP3 DUP2 SLOAD DUP2 LT PUSH2 0x5BB JUMPI INVALID JUMPDEST SWAP1 PUSH1 0x0 MSTORE PUSH1 0x20 PUSH1 0x0 KECCAK256 SWAP1 PUSH1 0x4 MUL ADD SWAP1 POP DUP1 PUSH1 0x0 ADD SLOAD DUP5 DUP4 DUP2 MLOAD DUP2 LT PUSH2 0x5DC JUMPI INVALID JUMPDEST PUSH1 0x20 MUL PUSH1 0x20 ADD ADD DUP2 DUP2 MSTORE POP POP DUP1 PUSH1 0x1 ADD DUP1 SLOAD PUSH1 0x1 DUP2 PUSH1 0x1 AND ISZERO PUSH2 0x100 MUL SUB AND PUSH1 0x2 SWAP1 DIV DUP1 PUSH1 0x1F ADD PUSH1 0x20 DUP1 SWAP2 DIV MUL PUSH1 0x20 ADD PUSH1 0x40 MLOAD SWAP1 DUP2 ADD PUSH1 0x40 MSTORE DUP1 SWAP3 SWAP2 SWAP1 DUP2 DUP2 MSTORE PUSH1 0x20 ADD DUP3 DUP1 SLOAD PUSH1 0x1 DUP2 PUSH1 0x1 AND ISZERO PUSH2 0x100 MUL SUB AND PUSH1 0x2 SWAP1 DIV DUP1 ISZERO PUSH2 0x680 JUMPI DUP1 PUSH1 0x1F LT PUSH2 0x655 JUMPI PUSH2 0x100 DUP1 DUP4 SLOAD DIV MUL DUP4 MSTORE SWAP2 PUSH1 0x20 ADD SWAP2 PUSH2 0x680 JUMP JUMPDEST DUP3 ADD SWAP2 SWAP1 PUSH1 0x0 MSTORE PUSH1 0x20 PUSH1 0x0 KECCAK256 SWAP1 JUMPDEST DUP2 SLOAD DUP2 MSTORE SWAP1 PUSH1 0x1 ADD SWAP1 PUSH1 0x20 ADD DUP1 DUP4 GT PUSH2 0x663 JUMPI DUP3 SWAP1 SUB PUSH1 0x1F AND DUP3 ADD SWAP2 JUMPDEST POP POP POP POP POP DUP4 DUP4 DUP2 MLOAD DUP2 LT PUSH2 0x691 JUMPI INVALID JUMPDEST PUSH1 0x20 MUL PUSH1 0x20 ADD ADD DUP2 SWAP1 MSTORE POP POP DUP1 DUP1 PUSH1 0x1 ADD SWAP2 POP POP PUSH2 0x59F JUMP JUMPDEST POP DUP2 DUP2 SWAP4 POP SWAP4 POP POP POP SWAP1 SWAP2 JUMP JUMPDEST PUSH1 0x0 DUP1 SLOAD SWAP1 PUSH2 0x100 EXP SWAP1 DIV PUSH20 0xFFFFFFFFFFFFFFFFFFFFFFFFFFFFFFFFFFFFFFFF AND PUSH20 0xFFFFFFFFFFFFFFFFFFFFFFFFFFFFFFFFFFFFFFFF AND CALLER PUSH20 0xFFFFFFFFFFFFFFFFFFFFFFFFFFFFFFFFFFFFFFFF AND EQ PUSH2 0x70F JUMPI PUSH1 0x0 DUP1 REVERT JUMPDEST PUSH2 0x717 PUSH2 0xBAE JUMP JUMPDEST PUSH1 0x40 MLOAD DUP1 PUSH1 0x80 ADD PUSH1 0x40 MSTORE DUP1 PUSH1 0x2 SLOAD DUP2 MSTORE PUSH1 0x20 ADD DUP5 DUP2 MSTORE PUSH1 0x20 ADD DUP4 DUP2 MSTORE PUSH1 0x20 ADD PUSH1 0x0 PUSH8 0xFFFFFFFFFFFFFFFF DUP2 GT DUP1 ISZERO PUSH2 0x74E JUMPI PUSH1 0x0 DUP1 REVERT JUMPDEST POP PUSH1 0x40 MLOAD SWAP1 DUP1 DUP3 MSTORE DUP1 PUSH1 0x20 MUL PUSH1 0x20 ADD DUP3 ADD PUSH1 0x40 MSTORE DUP1 ISZERO PUSH2 0x782 JUMPI DUP2 PUSH1 0x20 ADD JUMPDEST PUSH1 0x60 DUP2 MSTORE PUSH1 0x20 ADD SWAP1 PUSH1 0x1 SWAP1 SUB SWAP1 DUP2 PUSH2 0x76D JUMPI SWAP1 POP JUMPDEST POP DUP2 MSTORE POP SWAP1 POP PUSH1 0x2 PUSH1 0x0 DUP2 SLOAD DUP1 SWAP3 SWAP2 SWAP1 PUSH1 0x1 ADD SWAP2 SWAP1 POP SSTORE POP PUSH1 0x1 DUP2 SWAP1 DUP1 PUSH1 0x1 DUP2 SLOAD ADD DUP1 DUP3 SSTORE DUP1 SWAP2 POP POP PUSH1 0x1 SWAP1 SUB SWAP1 PUSH1 0x0 MSTORE PUSH1 0x20 PUSH1 0x0 KECCAK256 SWAP1 PUSH1 0x4 MUL ADD PUSH1 0x0 SWAP1 SWAP2 SWAP1 SWAP2 SWAP1 SWAP2 POP PUSH1 0x0 DUP3 ADD MLOAD DUP2 PUSH1 0x0 ADD SSTORE PUSH1 0x20 DUP3 ADD MLOAD DUP2 PUSH1 0x1 ADD SWAP1 DUP1 MLOAD SWAP1 PUSH1 0x20 ADD SWAP1 PUSH2 0x7EC SWAP3 SWAP2 SWAP1 PUSH2 0xB2E JUMP JUMPDEST POP PUSH1 0x40 DUP3 ADD MLOAD DUP2 PUSH1 0x2 ADD SWAP1 DUP1 MLOAD SWAP1 PUSH1 0x20 ADD SWAP1 PUSH2 0x809 SWAP3 SWAP2 SWAP1 PUSH2 0xB2E JUMP JUMPDEST POP PUSH1 0x60 DUP3 ADD MLOAD DUP2 PUSH1 0x3 ADD SWAP1 DUP1 MLOAD SWAP1 PUSH1 0x20 ADD SWAP1 PUSH2 0x826 SWAP3 SWAP2 SWAP1 PUSH2 0xBD6 JUMP JUMPDEST POP POP POP POP POP POP JUMP JUMPDEST PUSH1 0x0 DUP1 PUSH1 0x0 SWAP1 SLOAD SWAP1 PUSH2 0x100 EXP SWAP1 DIV PUSH20 0xFFFFFFFFFFFFFFFFFFFFFFFFFFFFFFFFFFFFFFFF AND PUSH20 0xFFFFFFFFFFFFFFFFFFFFFFFFFFFFFFFFFFFFFFFF AND CALLER PUSH20 0xFFFFFFFFFFFFFFFFFFFFFFFFFFFFFFFFFFFFFFFF AND EQ PUSH2 0x889 JUMPI PUSH1 0x0 DUP1 REVERT JUMPDEST PUSH1 0x0 JUMPDEST PUSH1 0x1 DUP1 SLOAD SWAP1 POP DUP2 LT ISZERO PUSH2 0x9BE JUMPI PUSH1 0x1 DUP2 DUP2 SLOAD DUP2 LT PUSH2 0x8A6 JUMPI INVALID JUMPDEST SWAP1 PUSH1 0x0 MSTORE PUSH1 0x20 PUSH1 0x0 KECCAK256 SWAP1 PUSH1 0x4 MUL ADD PUSH1 0x0 ADD SLOAD DUP6 EQ DUP1 ISZERO PUSH2 0x92E JUMPI POP PUSH1 0x1 DUP2 DUP2 SLOAD DUP2 LT PUSH2 0x8CE JUMPI INVALID JUMPDEST SWAP1 PUSH1 0x0 MSTORE PUSH1 0x20 PUSH1 0x0 KECCAK256 SWAP1 PUSH1 0x4 MUL ADD PUSH1 0x1 ADD PUSH1 0x40 MLOAD PUSH1 0x20 ADD PUSH2 0x8EF SWAP2 SWAP1 PUSH2 0x10CC JUMP JUMPDEST PUSH1 0x40 MLOAD PUSH1 0x20 DUP2 DUP4 SUB SUB DUP2 MSTORE SWAP1 PUSH1 0x40 MSTORE DUP1 MLOAD SWAP1 PUSH1 0x20 ADD KECCAK256 DUP5 PUSH1 0x40 MLOAD PUSH1 0x20 ADD PUSH2 0x916 SWAP2 SWAP1 PUSH2 0x10B5 JUMP JUMPDEST PUSH1 0x40 MLOAD PUSH1 0x20 DUP2 DUP4 SUB SUB DUP2 MSTORE SWAP1 PUSH1 0x40 MSTORE DUP1 MLOAD SWAP1 PUSH1 0x20 ADD KECCAK256 EQ JUMPDEST DUP1 ISZERO PUSH2 0x9A2 JUMPI POP PUSH1 0x1 DUP2 DUP2 SLOAD DUP2 LT PUSH2 0x942 JUMPI INVALID JUMPDEST SWAP1 PUSH1 0x0 MSTORE PUSH1 0x20 PUSH1 0x0 KECCAK256 SWAP1 PUSH1 0x4 MUL ADD PUSH1 0x2 ADD PUSH1 0x40 MLOAD PUSH1 0x20 ADD PUSH2 0x963 SWAP2 SWAP1 PUSH2 0x10CC JUMP JUMPDEST PUSH1 0x40 MLOAD PUSH1 0x20 DUP2 DUP4 SUB SUB DUP2 MSTORE SWAP1 PUSH1 0x40 MSTORE DUP1 MLOAD SWAP1 PUSH1 0x20 ADD KECCAK256 DUP4 PUSH1 0x40 MLOAD PUSH1 0x20 ADD PUSH2 0x98A SWAP2 SWAP1 PUSH2 0x10B5 JUMP JUMPDEST PUSH1 0x40 MLOAD PUSH1 0x20 DUP2 DUP4 SUB SUB DUP2 MSTORE SWAP1 PUSH1 0x40 MSTORE DUP1 MLOAD SWAP1 PUSH1 0x20 ADD KECCAK256 EQ JUMPDEST ISZERO PUSH2 0x9B1 JUMPI PUSH1 0x1 SWAP2 POP POP PUSH2 0x9C4 JUMP JUMPDEST DUP1 DUP1 PUSH1 0x1 ADD SWAP2 POP POP PUSH2 0x88C JUMP JUMPDEST POP PUSH1 0x0 SWAP1 POP JUMPDEST SWAP4 SWAP3 POP POP POP JUMP JUMPDEST PUSH1 0x0 DUP1 SLOAD SWAP1 PUSH2 0x100 EXP SWAP1 DIV PUSH20 0xFFFFFFFFFFFFFFFFFFFFFFFFFFFFFFFFFFFFFFFF AND PUSH20 0xFFFFFFFFFFFFFFFFFFFFFFFFFFFFFFFFFFFFFFFF AND CALLER PUSH20 0xFFFFFFFFFFFFFFFFFFFFFFFFFFFFFFFFFFFFFFFF AND EQ PUSH2 0xA23 JUMPI PUSH1 0x0 DUP1 REVERT JUMPDEST PUSH1 0x0 JUMPDEST PUSH1 0x1 DUP1 SLOAD SWAP1 POP DUP2 LT ISZERO PUSH2 0xB28 JUMPI PUSH1 0x0 PUSH1 0x1 DUP3 DUP2 SLOAD DUP2 LT PUSH2 0xA42 JUMPI INVALID JUMPDEST SWAP1 PUSH1 0x0 MSTORE PUSH1 0x20 PUSH1 0x0 KECCAK256 SWAP1 PUSH1 0x4 MUL ADD SWAP1 POP DUP1 PUSH1 0x0 ADD SLOAD DUP6 EQ ISZERO PUSH2 0xB1A JUMPI PUSH1 0x0 JUMPDEST DUP2 PUSH1 0x3 ADD DUP1 SLOAD SWAP1 POP DUP2 LT ISZERO PUSH2 0xB18 JUMPI DUP5 PUSH1 0x40 MLOAD PUSH1 0x20 ADD PUSH2 0xA81 SWAP2 SWAP1 PUSH2 0x10B5 JUMP JUMPDEST PUSH1 0x40 MLOAD PUSH1 0x20 DUP2 DUP4 SUB SUB DUP2 MSTORE SWAP1 PUSH1 0x40 MSTORE DUP1 MLOAD SWAP1 PUSH1 0x20 ADD KECCAK256 DUP3 PUSH1 0x3 ADD DUP3 DUP2 SLOAD DUP2 LT PUSH2 0xAA6 JUMPI INVALID JUMPDEST SWAP1 PUSH1 0x0 MSTORE PUSH1 0x20 PUSH1 0x0 KECCAK256 ADD PUSH1 0x40 MLOAD PUSH1 0x20 ADD PUSH2 0xAC0 SWAP2 SWAP1 PUSH2 0x10CC JUMP JUMPDEST PUSH1 0x40 MLOAD PUSH1 0x20 DUP2 DUP4 SUB SUB DUP2 MSTORE SWAP1 PUSH1 0x40 MSTORE DUP1 MLOAD SWAP1 PUSH1 0x20 ADD KECCAK256 EQ ISZERO PUSH2 0xB0B JUMPI DUP4 DUP3 PUSH1 0x3 ADD DUP3 DUP2 SLOAD DUP2 LT PUSH2 0xAEC JUMPI INVALID JUMPDEST SWAP1 PUSH1 0x0 MSTORE PUSH1 0x20 PUSH1 0x0 KECCAK256 ADD SWAP1 DUP1 MLOAD SWAP1 PUSH1 0x20 ADD SWAP1 PUSH2 0xB09 SWAP3 SWAP2 SWAP1 PUSH2 0xB2E JUMP JUMPDEST POP JUMPDEST DUP1 DUP1 PUSH1 0x1 ADD SWAP2 POP POP PUSH2 0xA61 JUMP JUMPDEST POP JUMPDEST POP DUP1 DUP1 PUSH1 0x1 ADD SWAP2 POP POP PUSH2 0xA26 JUMP JUMPDEST POP POP POP POP JUMP JUMPDEST DUP3 DUP1 SLOAD PUSH1 0x1 DUP2 PUSH1 0x1 AND ISZERO PUSH2 0x100 MUL SUB AND PUSH1 0x2 SWAP1 DIV SWAP1 PUSH1 0x0 MSTORE PUSH1 0x20 PUSH1 0x0 KECCAK256 SWAP1 PUSH1 0x1F ADD PUSH1 0x20 SWAP1 DIV DUP2 ADD SWAP3 DUP3 PUSH1 0x1F LT PUSH2 0xB6F JUMPI DUP1 MLOAD PUSH1 0xFF NOT AND DUP4 DUP1 ADD OR DUP6 SSTORE PUSH2 0xB9D JUMP JUMPDEST DUP3 DUP1 ADD PUSH1 0x1 ADD DUP6 SSTORE DUP3 ISZERO PUSH2 0xB9D JUMPI SWAP2 DUP3 ADD JUMPDEST DUP3 DUP2 GT ISZERO PUSH2 0xB9C JUMPI DUP3 MLOAD DUP3 SSTORE SWAP2 PUSH1 0x20 ADD SWAP2 SWAP1 PUSH1 0x1 ADD SWAP1 PUSH2 0xB81 JUMP JUMPDEST JUMPDEST POP SWAP1 POP PUSH2 0xBAA SWAP2 SWAP1 PUSH2 0xC36 JUMP JUMPDEST POP SWAP1 JUMP JUMPDEST PUSH1 0x40 MLOAD DUP1 PUSH1 0x80 ADD PUSH1 0x40 MSTORE DUP1 PUSH1 0x0 DUP2 MSTORE PUSH1 0x20 ADD PUSH1 0x60 DUP2 MSTORE PUSH1 0x20 ADD PUSH1 0x60 DUP2 MSTORE PUSH1 0x20 ADD PUSH1 0x60 DUP2 MSTORE POP SWAP1 JUMP JUMPDEST DUP3 DUP1 SLOAD DUP3 DUP3 SSTORE SWAP1 PUSH1 0x0 MSTORE PUSH1 0x20 PUSH1 0x0 KECCAK256 SWAP1 DUP2 ADD SWAP3 DUP3 ISZERO PUSH2 0xC25 JUMPI SWAP2 PUSH1 0x20 MUL DUP3 ADD JUMPDEST DUP3 DUP2 GT ISZERO PUSH2 0xC24 JUMPI DUP3 MLOAD DUP3 SWAP1 DUP1 MLOAD SWAP1 PUSH1 0x20 ADD SWAP1 PUSH2 0xC14 SWAP3 SWAP2 SWAP1 PUSH2 0xB2E JUMP JUMPDEST POP SWAP2 PUSH1 0x20 ADD SWAP2 SWAP1 PUSH1 0x1 ADD SWAP1 PUSH2 0xBF6 JUMP JUMPDEST JUMPDEST POP SWAP1 POP PUSH2 0xC32 SWAP2 SWAP1 PUSH2 0xC53 JUMP JUMPDEST POP SWAP1 JUMP JUMPDEST JUMPDEST DUP1 DUP3 GT ISZERO PUSH2 0xC4F JUMPI PUSH1 0x0 DUP2 PUSH1 0x0 SWAP1 SSTORE POP PUSH1 0x1 ADD PUSH2 0xC37 JUMP JUMPDEST POP SWAP1 JUMP JUMPDEST JUMPDEST DUP1 DUP3 GT ISZERO PUSH2 0xC73 JUMPI PUSH1 0x0 DUP2 DUP2 PUSH2 0xC6A SWAP2 SWAP1 PUSH2 0xC77 JUMP JUMPDEST POP PUSH1 0x1 ADD PUSH2 0xC54 JUMP JUMPDEST POP SWAP1 JUMP JUMPDEST POP DUP1 SLOAD PUSH1 0x1 DUP2 PUSH1 0x1 AND ISZERO PUSH2 0x100 MUL SUB AND PUSH1 0x2 SWAP1 DIV PUSH1 0x0 DUP3 SSTORE DUP1 PUSH1 0x1F LT PUSH2 0xC9D JUMPI POP PUSH2 0xCBC JUMP JUMPDEST PUSH1 0x1F ADD PUSH1 0x20 SWAP1 DIV SWAP1 PUSH1 0x0 MSTORE PUSH1 0x20 PUSH1 0x0 KECCAK256 SWAP1 DUP2 ADD SWAP1 PUSH2 0xCBB SWAP2 SWAP1 PUSH2 0xC36 JUMP JUMPDEST JUMPDEST POP JUMP JUMPDEST PUSH1 0x0 DUP3 PUSH1 0x1F DUP4 ADD SLT PUSH2 0xCD0 JUMPI PUSH1 0x0 DUP1 REVERT JUMPDEST DUP2 CALLDATALOAD PUSH2 0xCE3 PUSH2 0xCDE DUP3 PUSH2 0x1184 JUMP JUMPDEST PUSH2 0x1157 JUMP JUMPDEST SWAP2 POP DUP1 DUP3 MSTORE PUSH1 0x20 DUP4 ADD PUSH1 0x20 DUP4 ADD DUP6 DUP4 DUP4 ADD GT ISZERO PUSH2 0xCFF JUMPI PUSH1 0x0 DUP1 REVERT JUMPDEST PUSH2 0xD0A DUP4 DUP3 DUP5 PUSH2 0x1285 JUMP JUMPDEST POP POP POP SWAP3 SWAP2 POP POP JUMP JUMPDEST PUSH1 0x0 DUP2 CALLDATALOAD SWAP1 POP PUSH2 0xD22 DUP2 PUSH2 0x12D8 JUMP JUMPDEST SWAP3 SWAP2 POP POP JUMP JUMPDEST PUSH1 0x0 DUP1 PUSH1 0x40 DUP4 DUP6 SUB SLT ISZERO PUSH2 0xD3B JUMPI PUSH1 0x0 DUP1 REVERT JUMPDEST PUSH1 0x0 DUP4 ADD CALLDATALOAD PUSH8 0xFFFFFFFFFFFFFFFF DUP2 GT ISZERO PUSH2 0xD55 JUMPI PUSH1 0x0 DUP1 REVERT JUMPDEST PUSH2 0xD61 DUP6 DUP3 DUP7 ADD PUSH2 0xCBF JUMP JUMPDEST SWAP3 POP POP PUSH1 0x20 DUP4 ADD CALLDATALOAD PUSH8 0xFFFFFFFFFFFFFFFF DUP2 GT ISZERO PUSH2 0xD7E JUMPI PUSH1 0x0 DUP1 REVERT JUMPDEST PUSH2 0xD8A DUP6 DUP3 DUP7 ADD PUSH2 0xCBF JUMP JUMPDEST SWAP2 POP POP SWAP3 POP SWAP3 SWAP1 POP JUMP JUMPDEST PUSH1 0x0 DUP1 PUSH1 0x40 DUP4 DUP6 SUB SLT ISZERO PUSH2 0xDA7 JUMPI PUSH1 0x0 DUP1 REVERT JUMPDEST PUSH1 0x0 PUSH2 0xDB5 DUP6 DUP3 DUP7 ADD PUSH2 0xD13 JUMP JUMPDEST SWAP3 POP POP PUSH1 0x20 DUP4 ADD CALLDATALOAD PUSH8 0xFFFFFFFFFFFFFFFF DUP2 GT ISZERO PUSH2 0xDD2 JUMPI PUSH1 0x0 DUP1 REVERT JUMPDEST PUSH2 0xDDE DUP6 DUP3 DUP7 ADD PUSH2 0xCBF JUMP JUMPDEST SWAP2 POP POP SWAP3 POP SWAP3 SWAP1 POP JUMP JUMPDEST PUSH1 0x0 DUP1 PUSH1 0x0 PUSH1 0x60 DUP5 DUP7 SUB SLT ISZERO PUSH2 0xDFD JUMPI PUSH1 0x0 DUP1 REVERT JUMPDEST PUSH1 0x0 PUSH2 0xE0B DUP7 DUP3 DUP8 ADD PUSH2 0xD13 JUMP JUMPDEST SWAP4 POP POP PUSH1 0x20 DUP5 ADD CALLDATALOAD PUSH8 0xFFFFFFFFFFFFFFFF DUP2 GT ISZERO PUSH2 0xE28 JUMPI PUSH1 0x0 DUP1 REVERT JUMPDEST PUSH2 0xE34 DUP7 DUP3 DUP8 ADD PUSH2 0xCBF JUMP JUMPDEST SWAP3 POP POP PUSH1 0x40 DUP5 ADD CALLDATALOAD PUSH8 0xFFFFFFFFFFFFFFFF DUP2 GT ISZERO PUSH2 0xE51 JUMPI PUSH1 0x0 DUP1 REVERT JUMPDEST PUSH2 0xE5D DUP7 DUP3 DUP8 ADD PUSH2 0xCBF JUMP JUMPDEST SWAP2 POP POP SWAP3 POP SWAP3 POP SWAP3 JUMP JUMPDEST PUSH1 0x0 PUSH2 0xE73 DUP4 DUP4 PUSH2 0xF75 JUMP JUMPDEST SWAP1 POP SWAP3 SWAP2 POP POP JUMP JUMPDEST PUSH1 0x0 PUSH2 0xE87 DUP4 DUP4 PUSH2 0x10A6 JUMP JUMPDEST PUSH1 0x20 DUP4 ADD SWAP1 POP SWAP3 SWAP2 POP POP JUMP JUMPDEST PUSH1 0x0 PUSH2 0xE9E DUP3 PUSH2 0x11E5 JUMP JUMPDEST PUSH2 0xEA8 DUP2 DUP6 PUSH2 0x1220 JUMP JUMPDEST SWAP4 POP DUP4 PUSH1 0x20 DUP3 MUL DUP6 ADD PUSH2 0xEBA DUP6 PUSH2 0x11B0 JUMP JUMPDEST DUP1 PUSH1 0x0 JUMPDEST DUP6 DUP2 LT ISZERO PUSH2 0xEF6 JUMPI DUP5 DUP5 SUB DUP10 MSTORE DUP2 MLOAD PUSH2 0xED7 DUP6 DUP3 PUSH2 0xE67 JUMP JUMPDEST SWAP5 POP PUSH2 0xEE2 DUP4 PUSH2 0x1206 JUMP JUMPDEST SWAP3 POP PUSH1 0x20 DUP11 ADD SWAP10 POP POP PUSH1 0x1 DUP2 ADD SWAP1 POP PUSH2 0xEBE JUMP JUMPDEST POP DUP3 SWAP8 POP DUP8 SWAP6 POP POP POP POP POP POP SWAP3 SWAP2 POP POP JUMP JUMPDEST PUSH1 0x0 PUSH2 0xF13 DUP3 PUSH2 0x11F0 JUMP JUMPDEST PUSH2 0xF1D DUP2 DUP6 PUSH2 0x1231 JUMP JUMPDEST SWAP4 POP PUSH2 0xF28 DUP4 PUSH2 0x11C0 JUMP JUMPDEST DUP1 PUSH1 0x0 JUMPDEST DUP4 DUP2 LT ISZERO PUSH2 0xF59 JUMPI DUP2 MLOAD PUSH2 0xF40 DUP9 DUP3 PUSH2 0xE7B JUMP JUMPDEST SWAP8 POP PUSH2 0xF4B DUP4 PUSH2 0x1213 JUMP JUMPDEST SWAP3 POP POP PUSH1 0x1 DUP2 ADD SWAP1 POP PUSH2 0xF2C JUMP JUMPDEST POP DUP6 SWAP4 POP POP POP POP SWAP3 SWAP2 POP POP JUMP JUMPDEST PUSH2 0xF6F DUP2 PUSH2 0x126F JUMP JUMPDEST DUP3 MSTORE POP POP JUMP JUMPDEST PUSH1 0x0 PUSH2 0xF80 DUP3 PUSH2 0x11FB JUMP JUMPDEST PUSH2 0xF8A DUP2 DUP6 PUSH2 0x1242 JUMP JUMPDEST SWAP4 POP PUSH2 0xF9A DUP2 DUP6 PUSH1 0x20 DUP7 ADD PUSH2 0x1294 JUMP JUMPDEST PUSH2 0xFA3 DUP2 PUSH2 0x12C7 JUMP JUMPDEST DUP5 ADD SWAP2 POP POP SWAP3 SWAP2 POP POP JUMP JUMPDEST PUSH1 0x0 PUSH2 0xFB9 DUP3 PUSH2 0x11FB JUMP JUMPDEST PUSH2 0xFC3 DUP2 DUP6 PUSH2 0x1253 JUMP JUMPDEST SWAP4 POP PUSH2 0xFD3 DUP2 DUP6 PUSH1 0x20 DUP7 ADD PUSH2 0x1294 JUMP JUMPDEST PUSH2 0xFDC DUP2 PUSH2 0x12C7 JUMP JUMPDEST DUP5 ADD SWAP2 POP POP SWAP3 SWAP2 POP POP JUMP JUMPDEST PUSH1 0x0 PUSH2 0xFF2 DUP3 PUSH2 0x11FB JUMP JUMPDEST PUSH2 0xFFC DUP2 DUP6 PUSH2 0x1264 JUMP JUMPDEST SWAP4 POP PUSH2 0x100C DUP2 DUP6 PUSH1 0x20 DUP7 ADD PUSH2 0x1294 JUMP JUMPDEST DUP1 DUP5 ADD SWAP2 POP POP SWAP3 SWAP2 POP POP JUMP JUMPDEST PUSH1 0x0 DUP2 SLOAD PUSH1 0x1 DUP2 AND PUSH1 0x0 DUP2 EQ PUSH2 0x1035 JUMPI PUSH1 0x1 DUP2 EQ PUSH2 0x105A JUMPI PUSH2 0x109E JUMP JUMPDEST PUSH1 0x7F PUSH1 0x2 DUP4 DIV AND PUSH2 0x1046 DUP2 DUP8 PUSH2 0x1264 JUMP JUMPDEST SWAP6 POP PUSH1 0xFF NOT DUP4 AND DUP7 MSTORE DUP1 DUP7 ADD SWAP4 POP POP PUSH2 0x109E JUMP JUMPDEST PUSH1 0x2 DUP3 DIV PUSH2 0x1068 DUP2 DUP8 PUSH2 0x1264 JUMP JUMPDEST SWAP6 POP PUSH2 0x1073 DUP6 PUSH2 0x11D0 JUMP JUMPDEST PUSH1 0x0 JUMPDEST DUP3 DUP2 LT ISZERO PUSH2 0x1095 JUMPI DUP2 SLOAD DUP2 DUP10 ADD MSTORE PUSH1 0x1 DUP3 ADD SWAP2 POP PUSH1 0x20 DUP2 ADD SWAP1 POP PUSH2 0x1076 JUMP JUMPDEST DUP3 DUP9 ADD SWAP6 POP POP POP POP JUMPDEST POP POP SWAP3 SWAP2 POP POP JUMP JUMPDEST PUSH2 0x10AF DUP2 PUSH2 0x127B JUMP JUMPDEST DUP3 MSTORE POP POP JUMP JUMPDEST PUSH1 0x0 PUSH2 0x10C1 DUP3 DUP5 PUSH2 0xFE7 JUMP JUMPDEST SWAP2 POP DUP2 SWAP1 POP SWAP3 SWAP2 POP POP JUMP JUMPDEST PUSH1 0x0 PUSH2 0x10D8 DUP3 DUP5 PUSH2 0x1018 JUMP JUMPDEST SWAP2 POP DUP2 SWAP1 POP SWAP3 SWAP2 POP POP JUMP JUMPDEST PUSH1 0x0 PUSH1 0x40 DUP3 ADD SWAP1 POP DUP2 DUP2 SUB PUSH1 0x0 DUP4 ADD MSTORE PUSH2 0x10FD DUP2 DUP6 PUSH2 0xF08 JUMP JUMPDEST SWAP1 POP DUP2 DUP2 SUB PUSH1 0x20 DUP4 ADD MSTORE PUSH2 0x1111 DUP2 DUP5 PUSH2 0xE93 JUMP JUMPDEST SWAP1 POP SWAP4 SWAP3 POP POP POP JUMP JUMPDEST PUSH1 0x0 PUSH1 0x20 DUP3 ADD SWAP1 POP PUSH2 0x112F PUSH1 0x0 DUP4 ADD DUP5 PUSH2 0xF66 JUMP JUMPDEST SWAP3 SWAP2 POP POP JUMP JUMPDEST PUSH1 0x0 PUSH1 0x20 DUP3 ADD SWAP1 POP DUP2 DUP2 SUB PUSH1 0x0 DUP4 ADD MSTORE PUSH2 0x114F DUP2 DUP5 PUSH2 0xFAE JUMP JUMPDEST SWAP1 POP SWAP3 SWAP2 POP POP JUMP JUMPDEST PUSH1 0x0 PUSH1 0x40 MLOAD SWAP1 POP DUP2 DUP2 ADD DUP2 DUP2 LT PUSH8 0xFFFFFFFFFFFFFFFF DUP3 GT OR ISZERO PUSH2 0x117A JUMPI PUSH1 0x0 DUP1 REVERT JUMPDEST DUP1 PUSH1 0x40 MSTORE POP SWAP2 SWAP1 POP JUMP JUMPDEST PUSH1 0x0 PUSH8 0xFFFFFFFFFFFFFFFF DUP3 GT ISZERO PUSH2 0x119B JUMPI PUSH1 0x0 DUP1 REVERT JUMPDEST PUSH1 0x1F NOT PUSH1 0x1F DUP4 ADD AND SWAP1 POP PUSH1 0x20 DUP2 ADD SWAP1 POP SWAP2 SWAP1 POP JUMP JUMPDEST PUSH1 0x0 DUP2 SWAP1 POP PUSH1 0x20 DUP3 ADD SWAP1 POP SWAP2 SWAP1 POP JUMP JUMPDEST PUSH1 0x0 DUP2 SWAP1 POP PUSH1 0x20 DUP3 ADD SWAP1 POP SWAP2 SWAP1 POP JUMP JUMPDEST PUSH1 0x0 DUP2 SWAP1 POP DUP2 PUSH1 0x0 MSTORE PUSH1 0x20 PUSH1 0x0 KECCAK256 SWAP1 POP SWAP2 SWAP1 POP JUMP JUMPDEST PUSH1 0x0 DUP2 MLOAD SWAP1 POP SWAP2 SWAP1 POP JUMP JUMPDEST PUSH1 0x0 DUP2 MLOAD SWAP1 POP SWAP2 SWAP1 POP JUMP JUMPDEST PUSH1 0x0 DUP2 MLOAD SWAP1 POP SWAP2 SWAP1 POP JUMP JUMPDEST PUSH1 0x0 PUSH1 0x20 DUP3 ADD SWAP1 POP SWAP2 SWAP1 POP JUMP JUMPDEST PUSH1 0x0 PUSH1 0x20 DUP3 ADD SWAP1 POP SWAP2 SWAP1 POP JUMP JUMPDEST PUSH1 0x0 DUP3 DUP3 MSTORE PUSH1 0x20 DUP3 ADD SWAP1 POP SWAP3 SWAP2 POP POP JUMP JUMPDEST PUSH1 0x0 DUP3 DUP3 MSTORE PUSH1 0x20 DUP3 ADD SWAP1 POP SWAP3 SWAP2 POP POP JUMP JUMPDEST PUSH1 0x0 DUP3 DUP3 MSTORE PUSH1 0x20 DUP3 ADD SWAP1 POP SWAP3 SWAP2 POP POP JUMP JUMPDEST PUSH1 0x0 DUP3 DUP3 MSTORE PUSH1 0x20 DUP3 ADD SWAP1 POP SWAP3 SWAP2 POP POP JUMP JUMPDEST PUSH1 0x0 DUP2 SWAP1 POP SWAP3 SWAP2 POP POP JUMP JUMPDEST PUSH1 0x0 DUP2 ISZERO ISZERO SWAP1 POP SWAP2 SWAP1 POP JUMP JUMPDEST PUSH1 0x0 DUP2 SWAP1 POP SWAP2 SWAP1 POP JUMP JUMPDEST DUP3 DUP2 DUP4 CALLDATACOPY PUSH1 0x0 DUP4 DUP4 ADD MSTORE POP POP POP JUMP JUMPDEST PUSH1 0x0 JUMPDEST DUP4 DUP2 LT ISZERO PUSH2 0x12B2 JUMPI DUP1 DUP3 ADD MLOAD DUP2 DUP5 ADD MSTORE PUSH1 0x20 DUP2 ADD SWAP1 POP PUSH2 0x1297 JUMP JUMPDEST DUP4 DUP2 GT ISZERO PUSH2 0x12C1 JUMPI PUSH1 0x0 DUP5 DUP5 ADD MSTORE JUMPDEST POP POP POP POP JUMP JUMPDEST PUSH1 0x0 PUSH1 0x1F NOT PUSH1 0x1F DUP4 ADD AND SWAP1 POP SWAP2 SWAP1 POP JUMP JUMPDEST PUSH2 0x12E1 DUP2 PUSH2 0x127B JUMP JUMPDEST DUP2 EQ PUSH2 0x12EC JUMPI PUSH1 0x0 DUP1 REVERT JUMPDEST POP JUMP INVALID LOG2 PUSH5 0x6970667358 0x22 SLT KECCAK256 PUSH25 0xFF0D99CB253AC6DF6466F1471B907496F131E5A7FD0D87FF67 0xC3 TIMESTAMP DUP11 0xAD 0xAF 0xD9 PUSH5 0x736F6C6343 STOP MOD 0xC STOP CALLER "
    },
    "gasEstimates": {
      "creation": {
        "codeDepositCost": "980200",
        "executionCost": "26901",
        "totalCost": "1007101"
      },
      "external": {
        "addClient(string,string)": "infinite",
        "addTopic(uint256,string)": "infinite",
        "authenticate(uint256,string,string)": "infinite",
        "authorize(uint256,string)": "infinite",
        "getClients()": "infinite",
        "testGetTopic()": "infinite",
        "updateTopic(uint256,string,string)": "infinite"
      }
    },
    "methodIdentifiers": {
      "addClient(string,string)": "98173ff4",
      "addTopic(uint256,string)": "3276807a",
      "authenticate(uint256,string,string)": "c4ae2f26",
      "authorize(uint256,string)": "52bfd15c",
      "getClients()": "6db80995",
      "testGetTopic()": "1f617dab",
      "updateTopic(uint256,string,string)": "e8e5339a"
    }
  },
  "storageLayout": {
    "storage": [
      {
        "astId": 4,
        "contract": "Mqttsc.sol:Mqttsc",
        "label": "manager",
        "offset": 0,
        "slot": "0",
        "type": "t_address_payable"
      },
      {
        "astId": 17,
        "contract": "Mqttsc.sol:Mqttsc",
        "label": "clientLedger",
        "offset": 0,
        "slot": "1",
        "type": "t_array(t_struct(Client)14_storage)dyn_storage"
      },
      {
        "astId": 19,
        "contract": "Mqttsc.sol:Mqttsc",
        "label": "clientCount",
        "offset": 0,
        "slot": "2",
        "type": "t_uint256"
      }
    ],
    "types": {
      "t_address_payable": {
        "encoding": "inplace",
        "label": "address payable",
        "numberOfBytes": "20"
      },
      "t_array(t_string_storage)dyn_storage": {
        "base": "t_string_storage",
        "encoding": "dynamic_array",
        "label": "string[]",
        "numberOfBytes": "32"
      },
      "t_array(t_struct(Client)14_storage)dyn_storage": {
        "base": "t_struct(Client)14_storage",
        "encoding": "dynamic_array",
        "label": "struct Mqttsc.Client[]",
        "numberOfBytes": "32"
      },
      "t_string_storage": {
        "encoding": "bytes",
        "label": "string",
        "numberOfBytes": "32"
      },
      "t_struct(Client)14_storage": {
        "encoding": "inplace",
        "label": "struct Mqttsc.Client",
        "members": [
          {
            "astId": 6,
            "contract": "Mqttsc.sol:Mqttsc",
            "label": "id",
            "offset": 0,
            "slot": "0",
            "type": "t_uint256"
          },
          {
            "astId": 8,
            "contract": "Mqttsc.sol:Mqttsc",
            "label": "username",
            "offset": 0,
            "slot": "1",
            "type": "t_string_storage"
          },
          {
            "astId": 10,
            "contract": "Mqttsc.sol:Mqttsc",
            "label": "password",
            "offset": 0,
            "slot": "2",
            "type": "t_string_storage"
          },
          {
            "astId": 13,
            "contract": "Mqttsc.sol:Mqttsc",
            "label": "topic",
            "offset": 0,
            "slot": "3",
            "type": "t_array(t_string_storage)dyn_storage"
          }
        ],
        "numberOfBytes": "128"
      },
      "t_uint256": {
        "encoding": "inplace",
        "label": "uint256",
        "numberOfBytes": "32"
      }
    }
  },
  "userdoc": {
    "kind": "user",
    "methods": {},
    "version": 1
  }
}