{
  "abi": [
    {
      "inputs": [],
      "stateMutability": "nonpayable",
      "type": "constructor"
    },
    {
      "inputs": [
        {
          "internalType": "string",
          "name": "_username",
          "type": "string"
        },
        {
          "internalType": "string",
          "name": "_password",
          "type": "string"
        }
      ],
      "name": "addClient",
      "outputs": [],
      "stateMutability": "nonpayable",
      "type": "function"
    },
    {
      "inputs": [
        {
          "internalType": "uint256",
          "name": "_id",
          "type": "uint256"
        },
        {
          "internalType": "string",
          "name": "_topic",
          "type": "string"
        }
      ],
      "name": "addTopic",
      "outputs": [],
      "stateMutability": "nonpayable",
      "type": "function"
    },
    {
      "inputs": [
        {
          "internalType": "uint256",
          "name": "_id",
          "type": "uint256"
        },
        {
          "internalType": "string",
          "name": "_username",
          "type": "string"
        },
        {
          "internalType": "string",
          "name": "_password",
          "type": "string"
        }
      ],
      "name": "authenticate",
      "outputs": [
        {
          "internalType": "bool",
          "name": "",
          "type": "bool"
        }
      ],
      "stateMutability": "view",
      "type": "function"
    },
    {
      "inputs": [
        {
          "internalType": "uint256",
          "name": "_id",
          "type": "uint256"
        },
        {
          "internalType": "string",
          "name": "_topic",
          "type": "string"
        }
      ],
      "name": "authorize",
      "outputs": [
        {
          "internalType": "bool",
          "name": "",
          "type": "bool"
        }
      ],
      "stateMutability": "view",
      "type": "function"
    },
    {
      "inputs": [
        {
          "internalType": "uint256",
          "name": "_id",
          "type": "uint256"
        },
        {
          "internalType": "string",
          "name": "_topic",
          "type": "string"
        }
      ],
      "name": "deleteTopic",
      "outputs": [],
      "stateMutability": "nonpayable",
      "type": "function"
    },
    {
      "inputs": [],
      "name": "getClients",
      "outputs": [
        {
          "internalType": "uint256[]",
          "name": "",
          "type": "uint256[]"
        },
        {
          "internalType": "string[]",
          "name": "",
          "type": "string[]"
        }
      ],
      "stateMutability": "view",
      "type": "function"
    },
    {
      "inputs": [],
      "name": "getClientsCount",
      "outputs": [
        {
          "internalType": "uint256",
          "name": "",
          "type": "uint256"
        }
      ],
      "stateMutability": "view",
      "type": "function"
    },
    {
      "inputs": [
        {
          "internalType": "uint256",
          "name": "_id",
          "type": "uint256"
        }
      ],
      "name": "getTopic",
      "outputs": [
        {
          "internalType": "string[]",
          "name": "",
          "type": "string[]"
        }
      ],
      "stateMutability": "view",
      "type": "function"
    },
    {
      "inputs": [
        {
          "internalType": "uint256",
          "name": "_id",
          "type": "uint256"
        },
        {
          "internalType": "string",
          "name": "_topic",
          "type": "string"
        },
        {
          "internalType": "string",
          "name": "_newtopic",
          "type": "string"
        }
      ],
      "name": "updateTopic",
      "outputs": [],
      "stateMutability": "nonpayable",
      "type": "function"
    }
  ],
  "devdoc": {
    "kind": "dev",
    "methods": {},
    "version": 1
  },
  "evm": {
    "assembly": "    /* \"Mqttsc.sol\":99:5465  contract Mqttsc {\r... */\n  mstore(0x40, 0x80)\n    /* \"Mqttsc.sol\":366:453  constructor () public {\r... */\n  callvalue\n  dup1\n  iszero\n  tag_1\n  jumpi\n  0x00\n  dup1\n  revert\ntag_1:\n  pop\n    /* \"Mqttsc.sol\":409:419  msg.sender */\n  caller\n    /* \"Mqttsc.sol\":399:406  manager */\n  0x00\n  dup1\n    /* \"Mqttsc.sol\":399:419  manager = msg.sender */\n  0x0100\n  exp\n  dup2\n  sload\n  dup2\n  0xffffffffffffffffffffffffffffffffffffffff\n  mul\n  not\n  and\n  swap1\n  dup4\n  0xffffffffffffffffffffffffffffffffffffffff\n  and\n  mul\n  or\n  swap1\n  sstore\n  pop\n    /* \"Mqttsc.sol\":444:445  0 */\n  0x00\n    /* \"Mqttsc.sol\":430:441  clientCount */\n  0x02\n    /* \"Mqttsc.sol\":430:445  clientCount = 0 */\n  dup2\n  swap1\n  sstore\n  pop\n    /* \"Mqttsc.sol\":99:5465  contract Mqttsc {\r... */\n  dataSize(sub_0)\n  dup1\n  dataOffset(sub_0)\n  0x00\n  codecopy\n  0x00\n  return\nstop\n\nsub_0: assembly {\n        /* \"Mqttsc.sol\":99:5465  contract Mqttsc {\r... */\n      mstore(0x40, 0x80)\n      callvalue\n      dup1\n      iszero\n      tag_1\n      jumpi\n      0x00\n      dup1\n      revert\n    tag_1:\n      pop\n      jumpi(tag_2, lt(calldatasize, 0x04))\n      shr(0xe0, calldataload(0x00))\n      dup1\n      0x6db80995\n      gt\n      tag_12\n      jumpi\n      dup1\n      0x6db80995\n      eq\n      tag_7\n      jumpi\n      dup1\n      0x71658896\n      eq\n      tag_8\n      jumpi\n      dup1\n      0x98173ff4\n      eq\n      tag_9\n      jumpi\n      dup1\n      0xc4ae2f26\n      eq\n      tag_10\n      jumpi\n      dup1\n      0xe8e5339a\n      eq\n      tag_11\n      jumpi\n      jump(tag_2)\n    tag_12:\n      dup1\n      0x30a66294\n      eq\n      tag_3\n      jumpi\n      dup1\n      0x3276807a\n      eq\n      tag_4\n      jumpi\n      dup1\n      0x42bb20e1\n      eq\n      tag_5\n      jumpi\n      dup1\n      0x52bfd15c\n      eq\n      tag_6\n      jumpi\n    tag_2:\n      0x00\n      dup1\n      revert\n        /* \"Mqttsc.sol\":465:566  function getClientsCount() isManager public view returns (uint) {\r... */\n    tag_3:\n      tag_13\n      tag_14\n      jump\t// in\n    tag_13:\n      mload(0x40)\n      tag_15\n      swap2\n      swap1\n      tag_16\n      jump\t// in\n    tag_15:\n      mload(0x40)\n      dup1\n      swap2\n      sub\n      swap1\n      return\n        /* \"Mqttsc.sol\":1816:2115  function addTopic(uint _id, string memory _topic) isManager public {\r... */\n    tag_4:\n      tag_17\n      0x04\n      dup1\n      calldatasize\n      sub\n      dup2\n      add\n      swap1\n      tag_18\n      swap2\n      swap1\n      tag_19\n      jump\t// in\n    tag_18:\n      tag_20\n      jump\t// in\n    tag_17:\n      stop\n        /* \"Mqttsc.sol\":3063:3766  function deleteTopic(uint _id, string memory _topic) isManager public {\r... */\n    tag_5:\n      tag_21\n      0x04\n      dup1\n      calldatasize\n      sub\n      dup2\n      add\n      swap1\n      tag_22\n      swap2\n      swap1\n      tag_19\n      jump\t// in\n    tag_22:\n      tag_23\n      jump\t// in\n    tag_21:\n      stop\n        /* \"Mqttsc.sol\":4839:5356  function authorize(uint _id, string memory _topic) isManager public view returns(bool) {\r... */\n    tag_6:\n      tag_24\n      0x04\n      dup1\n      calldatasize\n      sub\n      dup2\n      add\n      swap1\n      tag_25\n      swap2\n      swap1\n      tag_19\n      jump\t// in\n    tag_25:\n      tag_26\n      jump\t// in\n    tag_24:\n      mload(0x40)\n      tag_27\n      swap2\n      swap1\n      tag_28\n      jump\t// in\n    tag_27:\n      mload(0x40)\n      dup1\n      swap2\n      sub\n      swap1\n      return\n        /* \"Mqttsc.sol\":3835:4311  function getClients() public isManager view returns (uint[] memory, string[] memory) {\r... */\n    tag_7:\n      tag_29\n      tag_30\n      jump\t// in\n    tag_29:\n      mload(0x40)\n      tag_31\n      swap3\n      swap2\n      swap1\n      tag_32\n      jump\t// in\n    tag_31:\n      mload(0x40)\n      dup1\n      swap2\n      sub\n      swap1\n      return\n        /* \"Mqttsc.sol\":1251:1804  function getTopic(uint _id) isManager public view returns(string[] memory){\r... */\n    tag_8:\n      tag_33\n      0x04\n      dup1\n      calldatasize\n      sub\n      dup2\n      add\n      swap1\n      tag_34\n      swap2\n      swap1\n      tag_35\n      jump\t// in\n    tag_34:\n      tag_36\n      jump\t// in\n    tag_33:\n      mload(0x40)\n      tag_37\n      swap2\n      swap1\n      tag_38\n      jump\t// in\n    tag_37:\n      mload(0x40)\n      dup1\n      swap2\n      sub\n      swap1\n      return\n        /* \"Mqttsc.sol\":2127:2475  function addClient(string memory _username, string memory _password) isManager public {\r... */\n    tag_9:\n      tag_39\n      0x04\n      dup1\n      calldatasize\n      sub\n      dup2\n      add\n      swap1\n      tag_40\n      swap2\n      swap1\n      tag_41\n      jump\t// in\n    tag_40:\n      tag_42\n      jump\t// in\n    tag_39:\n      stop\n        /* \"Mqttsc.sol\":4323:4827  function authenticate(uint _id, string memory _username, string memory _password) isManager public view returns (bool) {\r... */\n    tag_10:\n      tag_43\n      0x04\n      dup1\n      calldatasize\n      sub\n      dup2\n      add\n      swap1\n      tag_44\n      swap2\n      swap1\n      tag_45\n      jump\t// in\n    tag_44:\n      tag_46\n      jump\t// in\n    tag_43:\n      mload(0x40)\n      tag_47\n      swap2\n      swap1\n      tag_28\n      jump\t// in\n    tag_47:\n      mload(0x40)\n      dup1\n      swap2\n      sub\n      swap1\n      return\n        /* \"Mqttsc.sol\":2493:3051  function updateTopic(uint _id, string memory _topic, string memory _newtopic) isManager public{\r... */\n    tag_11:\n      tag_48\n      0x04\n      dup1\n      calldatasize\n      sub\n      dup2\n      add\n      swap1\n      tag_49\n      swap2\n      swap1\n      tag_45\n      jump\t// in\n    tag_49:\n      tag_50\n      jump\t// in\n    tag_48:\n      stop\n        /* \"Mqttsc.sol\":465:566  function getClientsCount() isManager public view returns (uint) {\r... */\n    tag_14:\n        /* \"Mqttsc.sol\":523:527  uint */\n      0x00\n        /* \"Mqttsc.sol\":5422:5429  manager */\n      dup1\n      0x00\n      swap1\n      sload\n      swap1\n      0x0100\n      exp\n      swap1\n      div\n      0xffffffffffffffffffffffffffffffffffffffff\n      and\n        /* \"Mqttsc.sol\":5408:5429  msg.sender == manager */\n      0xffffffffffffffffffffffffffffffffffffffff\n      and\n        /* \"Mqttsc.sol\":5408:5418  msg.sender */\n      caller\n        /* \"Mqttsc.sol\":5408:5429  msg.sender == manager */\n      0xffffffffffffffffffffffffffffffffffffffff\n      and\n      eq\n        /* \"Mqttsc.sol\":5400:5430  require(msg.sender == manager) */\n      tag_52\n      jumpi\n      0x00\n      dup1\n      revert\n    tag_52:\n        /* \"Mqttsc.sol\":547:558  clientCount */\n      sload(0x02)\n        /* \"Mqttsc.sol\":540:558  return clientCount */\n      swap1\n      pop\n        /* \"Mqttsc.sol\":465:566  function getClientsCount() isManager public view returns (uint) {\r... */\n      swap1\n      jump\t// out\n        /* \"Mqttsc.sol\":1816:2115  function addTopic(uint _id, string memory _topic) isManager public {\r... */\n    tag_20:\n        /* \"Mqttsc.sol\":5422:5429  manager */\n      0x00\n      dup1\n      sload\n      swap1\n      0x0100\n      exp\n      swap1\n      div\n      0xffffffffffffffffffffffffffffffffffffffff\n      and\n        /* \"Mqttsc.sol\":5408:5429  msg.sender == manager */\n      0xffffffffffffffffffffffffffffffffffffffff\n      and\n        /* \"Mqttsc.sol\":5408:5418  msg.sender */\n      caller\n        /* \"Mqttsc.sol\":5408:5429  msg.sender == manager */\n      0xffffffffffffffffffffffffffffffffffffffff\n      and\n      eq\n        /* \"Mqttsc.sol\":5400:5430  require(msg.sender == manager) */\n      tag_55\n      jumpi\n      0x00\n      dup1\n      revert\n    tag_55:\n        /* \"Mqttsc.sol\":1898:1904  uint i */\n      0x00\n        /* \"Mqttsc.sol\":1894:2108  for(uint i = 0; i < clientLedger.length; i++){\r... */\n    tag_57:\n        /* \"Mqttsc.sol\":1914:1926  clientLedger */\n      0x01\n        /* \"Mqttsc.sol\":1914:1933  clientLedger.length */\n      dup1\n      sload\n      swap1\n      pop\n        /* \"Mqttsc.sol\":1910:1911  i */\n      dup2\n        /* \"Mqttsc.sol\":1910:1933  i < clientLedger.length */\n      lt\n        /* \"Mqttsc.sol\":1894:2108  for(uint i = 0; i < clientLedger.length; i++){\r... */\n      iszero\n      tag_58\n      jumpi\n        /* \"Mqttsc.sol\":1954:1978  Client storage clientele */\n      0x00\n        /* \"Mqttsc.sol\":1981:1993  clientLedger */\n      0x01\n        /* \"Mqttsc.sol\":1994:1995  i */\n      dup3\n        /* \"Mqttsc.sol\":1981:1996  clientLedger[i] */\n      dup2\n      sload\n      dup2\n      lt\n      tag_60\n      jumpi\n      invalid\n    tag_60:\n      swap1\n      0x00\n      mstore\n      keccak256(0x00, 0x20)\n      swap1\n      0x04\n      mul\n      add\n        /* \"Mqttsc.sol\":1954:1996  Client storage clientele = clientLedger[i] */\n      swap1\n      pop\n        /* \"Mqttsc.sol\":2021:2030  clientele */\n      dup1\n        /* \"Mqttsc.sol\":2021:2033  clientele.id */\n      0x00\n      add\n      sload\n        /* \"Mqttsc.sol\":2014:2017  _id */\n      dup5\n        /* \"Mqttsc.sol\":2014:2033  _id == clientele.id */\n      eq\n        /* \"Mqttsc.sol\":2011:2097  if(_id == clientele.id){\r... */\n      iszero\n      tag_62\n      jumpi\n        /* \"Mqttsc.sol\":2053:2062  clientele */\n      dup1\n        /* \"Mqttsc.sol\":2053:2068  clientele.topic */\n      0x03\n      add\n        /* \"Mqttsc.sol\":2074:2080  _topic */\n      dup4\n        /* \"Mqttsc.sol\":2053:2081  clientele.topic.push(_topic) */\n      swap1\n      dup1\n      0x01\n      dup2\n      sload\n      add\n      dup1\n      dup3\n      sstore\n      dup1\n      swap2\n      pop\n      pop\n      0x01\n      swap1\n      sub\n      swap1\n      0x00\n      mstore\n      keccak256(0x00, 0x20)\n      add\n      0x00\n      swap1\n      swap2\n      swap1\n      swap2\n      swap1\n      swap2\n      pop\n      swap1\n      dup1\n      mload\n      swap1\n      0x20\n      add\n      swap1\n      tag_64\n      swap3\n      swap2\n      swap1\n      tag_65\n      jump\t// in\n    tag_64:\n      pop\n        /* \"Mqttsc.sol\":2011:2097  if(_id == clientele.id){\r... */\n    tag_62:\n        /* \"Mqttsc.sol\":1894:2108  for(uint i = 0; i < clientLedger.length; i++){\r... */\n      pop\n        /* \"Mqttsc.sol\":1935:1938  i++ */\n      dup1\n      dup1\n      0x01\n      add\n      swap2\n      pop\n      pop\n        /* \"Mqttsc.sol\":1894:2108  for(uint i = 0; i < clientLedger.length; i++){\r... */\n      jump(tag_57)\n    tag_58:\n      pop\n        /* \"Mqttsc.sol\":1816:2115  function addTopic(uint _id, string memory _topic) isManager public {\r... */\n      pop\n      pop\n      jump\t// out\n        /* \"Mqttsc.sol\":3063:3766  function deleteTopic(uint _id, string memory _topic) isManager public {\r... */\n    tag_23:\n        /* \"Mqttsc.sol\":5422:5429  manager */\n      0x00\n      dup1\n      sload\n      swap1\n      0x0100\n      exp\n      swap1\n      div\n      0xffffffffffffffffffffffffffffffffffffffff\n      and\n        /* \"Mqttsc.sol\":5408:5429  msg.sender == manager */\n      0xffffffffffffffffffffffffffffffffffffffff\n      and\n        /* \"Mqttsc.sol\":5408:5418  msg.sender */\n      caller\n        /* \"Mqttsc.sol\":5408:5429  msg.sender == manager */\n      0xffffffffffffffffffffffffffffffffffffffff\n      and\n      eq\n        /* \"Mqttsc.sol\":5400:5430  require(msg.sender == manager) */\n      tag_67\n      jumpi\n      0x00\n      dup1\n      revert\n    tag_67:\n        /* \"Mqttsc.sol\":3148:3154  uint i */\n      0x00\n        /* \"Mqttsc.sol\":3144:3759  for(uint i = 0; i < clientLedger.length; i++){\r... */\n    tag_69:\n        /* \"Mqttsc.sol\":3164:3176  clientLedger */\n      0x01\n        /* \"Mqttsc.sol\":3164:3183  clientLedger.length */\n      dup1\n      sload\n      swap1\n      pop\n        /* \"Mqttsc.sol\":3160:3161  i */\n      dup2\n        /* \"Mqttsc.sol\":3160:3183  i < clientLedger.length */\n      lt\n        /* \"Mqttsc.sol\":3144:3759  for(uint i = 0; i < clientLedger.length; i++){\r... */\n      iszero\n      tag_70\n      jumpi\n        /* \"Mqttsc.sol\":3204:3228  Client storage clientele */\n      0x00\n        /* \"Mqttsc.sol\":3231:3243  clientLedger */\n      0x01\n        /* \"Mqttsc.sol\":3244:3245  i */\n      dup3\n        /* \"Mqttsc.sol\":3231:3246  clientLedger[i] */\n      dup2\n      sload\n      dup2\n      lt\n      tag_72\n      jumpi\n      invalid\n    tag_72:\n      swap1\n      0x00\n      mstore\n      keccak256(0x00, 0x20)\n      swap1\n      0x04\n      mul\n      add\n        /* \"Mqttsc.sol\":3204:3246  Client storage clientele = clientLedger[i] */\n      swap1\n      pop\n        /* \"Mqttsc.sol\":3271:3280  clientele */\n      dup1\n        /* \"Mqttsc.sol\":3271:3283  clientele.id */\n      0x00\n      add\n      sload\n        /* \"Mqttsc.sol\":3264:3267  _id */\n      dup5\n        /* \"Mqttsc.sol\":3264:3283  _id == clientele.id */\n      eq\n        /* \"Mqttsc.sol\":3261:3748  if(_id == clientele.id){\r... */\n      iszero\n      tag_74\n      jumpi\n        /* \"Mqttsc.sol\":3307:3313  uint j */\n      0x00\n        /* \"Mqttsc.sol\":3303:3733  for(uint j = 0; j < clientele.topic.length; j++){\r... */\n    tag_75:\n        /* \"Mqttsc.sol\":3323:3332  clientele */\n      dup2\n        /* \"Mqttsc.sol\":3323:3338  clientele.topic */\n      0x03\n      add\n        /* \"Mqttsc.sol\":3323:3345  clientele.topic.length */\n      dup1\n      sload\n      swap1\n      pop\n        /* \"Mqttsc.sol\":3319:3320  j */\n      dup2\n        /* \"Mqttsc.sol\":3319:3345  j < clientele.topic.length */\n      lt\n        /* \"Mqttsc.sol\":3303:3733  for(uint j = 0; j < clientele.topic.length; j++){\r... */\n      iszero\n      tag_76\n      jumpi\n        /* \"Mqttsc.sol\":3455:3461  _topic */\n      dup4\n        /* \"Mqttsc.sol\":3438:3462  abi.encodePacked(_topic) */\n      add(0x20, mload(0x40))\n      tag_78\n      swap2\n      swap1\n      tag_79\n      jump\t// in\n    tag_78:\n      mload(0x40)\n      0x20\n      dup2\n      dup4\n      sub\n      sub\n      dup2\n      mstore\n      swap1\n      0x40\n      mstore\n        /* \"Mqttsc.sol\":3428:3463  keccak256(abi.encodePacked(_topic)) */\n      dup1\n      mload\n      swap1\n      0x20\n      add\n      keccak256\n        /* \"Mqttsc.sol\":3404:3413  clientele */\n      dup3\n        /* \"Mqttsc.sol\":3404:3419  clientele.topic */\n      0x03\n      add\n        /* \"Mqttsc.sol\":3420:3421  j */\n      dup3\n        /* \"Mqttsc.sol\":3404:3422  clientele.topic[j] */\n      dup2\n      sload\n      dup2\n      lt\n      tag_80\n      jumpi\n      invalid\n    tag_80:\n      swap1\n      0x00\n      mstore\n      keccak256(0x00, 0x20)\n      add\n        /* \"Mqttsc.sol\":3387:3423  abi.encodePacked(clientele.topic[j]) */\n      add(0x20, mload(0x40))\n      tag_82\n      swap2\n      swap1\n      tag_83\n      jump\t// in\n    tag_82:\n      mload(0x40)\n      0x20\n      dup2\n      dup4\n      sub\n      sub\n      dup2\n      mstore\n      swap1\n      0x40\n      mstore\n        /* \"Mqttsc.sol\":3377:3424  keccak256(abi.encodePacked(clientele.topic[j])) */\n      dup1\n      mload\n      swap1\n      0x20\n      add\n      keccak256\n        /* \"Mqttsc.sol\":3377:3463  keccak256(abi.encodePacked(clientele.topic[j])) == keccak256(abi.encodePacked(_topic)) */\n      eq\n        /* \"Mqttsc.sol\":3374:3714  if(keccak256(abi.encodePacked(clientele.topic[j])) == keccak256(abi.encodePacked(_topic))){\r... */\n      iszero\n      tag_84\n      jumpi\n        /* \"Mqttsc.sol\":3498:3507  clientele */\n      dup2\n        /* \"Mqttsc.sol\":3498:3513  clientele.topic */\n      0x03\n      add\n        /* \"Mqttsc.sol\":3514:3515  j */\n      dup2\n        /* \"Mqttsc.sol\":3498:3516  clientele.topic[j] */\n      dup2\n      sload\n      dup2\n      lt\n      tag_85\n      jumpi\n      invalid\n    tag_85:\n      swap1\n      0x00\n      mstore\n      keccak256(0x00, 0x20)\n      add\n      0x00\n        /* \"Mqttsc.sol\":3491:3516  delete clientele.topic[j] */\n      tag_87\n      swap2\n      swap1\n      tag_88\n      jump\t// in\n    tag_87:\n        /* \"Mqttsc.sol\":3374:3714  if(keccak256(abi.encodePacked(clientele.topic[j])) == keccak256(abi.encodePacked(_topic))){\r... */\n    tag_84:\n        /* \"Mqttsc.sol\":3347:3350  j++ */\n      dup1\n      dup1\n      0x01\n      add\n      swap2\n      pop\n      pop\n        /* \"Mqttsc.sol\":3303:3733  for(uint j = 0; j < clientele.topic.length; j++){\r... */\n      jump(tag_75)\n    tag_76:\n      pop\n        /* \"Mqttsc.sol\":3261:3748  if(_id == clientele.id){\r... */\n    tag_74:\n        /* \"Mqttsc.sol\":3144:3759  for(uint i = 0; i < clientLedger.length; i++){\r... */\n      pop\n        /* \"Mqttsc.sol\":3185:3188  i++ */\n      dup1\n      dup1\n      0x01\n      add\n      swap2\n      pop\n      pop\n        /* \"Mqttsc.sol\":3144:3759  for(uint i = 0; i < clientLedger.length; i++){\r... */\n      jump(tag_69)\n    tag_70:\n      pop\n        /* \"Mqttsc.sol\":3063:3766  function deleteTopic(uint _id, string memory _topic) isManager public {\r... */\n      pop\n      pop\n      jump\t// out\n        /* \"Mqttsc.sol\":4839:5356  function authorize(uint _id, string memory _topic) isManager public view returns(bool) {\r... */\n    tag_26:\n        /* \"Mqttsc.sol\":4920:4924  bool */\n      0x00\n        /* \"Mqttsc.sol\":5422:5429  manager */\n      dup1\n      0x00\n      swap1\n      sload\n      swap1\n      0x0100\n      exp\n      swap1\n      div\n      0xffffffffffffffffffffffffffffffffffffffff\n      and\n        /* \"Mqttsc.sol\":5408:5429  msg.sender == manager */\n      0xffffffffffffffffffffffffffffffffffffffff\n      and\n        /* \"Mqttsc.sol\":5408:5418  msg.sender */\n      caller\n        /* \"Mqttsc.sol\":5408:5429  msg.sender == manager */\n      0xffffffffffffffffffffffffffffffffffffffff\n      and\n      eq\n        /* \"Mqttsc.sol\":5400:5430  require(msg.sender == manager) */\n      tag_90\n      jumpi\n      0x00\n      dup1\n      revert\n    tag_90:\n        /* \"Mqttsc.sol\":4941:4947  uint i */\n      0x00\n        /* \"Mqttsc.sol\":4937:5326  for(uint i = 0; i < clientLedger.length; i++){\r... */\n    tag_92:\n        /* \"Mqttsc.sol\":4957:4969  clientLedger */\n      0x01\n        /* \"Mqttsc.sol\":4957:4976  clientLedger.length */\n      dup1\n      sload\n      swap1\n      pop\n        /* \"Mqttsc.sol\":4953:4954  i */\n      dup2\n        /* \"Mqttsc.sol\":4953:4976  i < clientLedger.length */\n      lt\n        /* \"Mqttsc.sol\":4937:5326  for(uint i = 0; i < clientLedger.length; i++){\r... */\n      iszero\n      tag_93\n      jumpi\n        /* \"Mqttsc.sol\":5007:5019  clientLedger */\n      0x01\n        /* \"Mqttsc.sol\":5020:5021  i */\n      dup2\n        /* \"Mqttsc.sol\":5007:5022  clientLedger[i] */\n      dup2\n      sload\n      dup2\n      lt\n      tag_95\n      jumpi\n      invalid\n    tag_95:\n      swap1\n      0x00\n      mstore\n      keccak256(0x00, 0x20)\n      swap1\n      0x04\n      mul\n      add\n        /* \"Mqttsc.sol\":5007:5025  clientLedger[i].id */\n      0x00\n      add\n      sload\n        /* \"Mqttsc.sol\":5000:5003  _id */\n      dup5\n        /* \"Mqttsc.sol\":5000:5025  _id == clientLedger[i].id */\n      eq\n        /* \"Mqttsc.sol\":4997:5315  if(_id == clientLedger[i].id){\r... */\n      iszero\n      tag_97\n      jumpi\n        /* \"Mqttsc.sol\":5049:5055  uint j */\n      0x00\n        /* \"Mqttsc.sol\":5045:5300  for(uint j = 0; j < clientLedger[i].topic.length ; j++){\r... */\n    tag_98:\n        /* \"Mqttsc.sol\":5065:5077  clientLedger */\n      0x01\n        /* \"Mqttsc.sol\":5078:5079  i */\n      dup3\n        /* \"Mqttsc.sol\":5065:5080  clientLedger[i] */\n      dup2\n      sload\n      dup2\n      lt\n      tag_101\n      jumpi\n      invalid\n    tag_101:\n      swap1\n      0x00\n      mstore\n      keccak256(0x00, 0x20)\n      swap1\n      0x04\n      mul\n      add\n        /* \"Mqttsc.sol\":5065:5086  clientLedger[i].topic */\n      0x03\n      add\n        /* \"Mqttsc.sol\":5065:5093  clientLedger[i].topic.length */\n      dup1\n      sload\n      swap1\n      pop\n        /* \"Mqttsc.sol\":5061:5062  j */\n      dup2\n        /* \"Mqttsc.sol\":5061:5093  j < clientLedger[i].topic.length */\n      lt\n        /* \"Mqttsc.sol\":5045:5300  for(uint j = 0; j < clientLedger[i].topic.length ; j++){\r... */\n      iszero\n      tag_99\n      jumpi\n        /* \"Mqttsc.sol\":5192:5204  clientLedger */\n      0x01\n        /* \"Mqttsc.sol\":5205:5206  i */\n      dup3\n        /* \"Mqttsc.sol\":5192:5207  clientLedger[i] */\n      dup2\n      sload\n      dup2\n      lt\n      tag_103\n      jumpi\n      invalid\n    tag_103:\n      swap1\n      0x00\n      mstore\n      keccak256(0x00, 0x20)\n      swap1\n      0x04\n      mul\n      add\n        /* \"Mqttsc.sol\":5192:5213  clientLedger[i].topic */\n      0x03\n      add\n        /* \"Mqttsc.sol\":5214:5215  j */\n      dup2\n        /* \"Mqttsc.sol\":5192:5216  clientLedger[i].topic[j] */\n      dup2\n      sload\n      dup2\n      lt\n      tag_105\n      jumpi\n      invalid\n    tag_105:\n      swap1\n      0x00\n      mstore\n      keccak256(0x00, 0x20)\n      add\n        /* \"Mqttsc.sol\":5175:5217  abi.encodePacked(clientLedger[i].topic[j]) */\n      add(0x20, mload(0x40))\n      tag_107\n      swap2\n      swap1\n      tag_83\n      jump\t// in\n    tag_107:\n      mload(0x40)\n      0x20\n      dup2\n      dup4\n      sub\n      sub\n      dup2\n      mstore\n      swap1\n      0x40\n      mstore\n        /* \"Mqttsc.sol\":5165:5218  keccak256(abi.encodePacked(clientLedger[i].topic[j])) */\n      dup1\n      mload\n      swap1\n      0x20\n      add\n      keccak256\n        /* \"Mqttsc.sol\":5153:5159  _topic */\n      dup5\n        /* \"Mqttsc.sol\":5136:5160  abi.encodePacked(_topic) */\n      add(0x20, mload(0x40))\n      tag_108\n      swap2\n      swap1\n      tag_79\n      jump\t// in\n    tag_108:\n      mload(0x40)\n      0x20\n      dup2\n      dup4\n      sub\n      sub\n      dup2\n      mstore\n      swap1\n      0x40\n      mstore\n        /* \"Mqttsc.sol\":5126:5161  keccak256(abi.encodePacked(_topic)) */\n      dup1\n      mload\n      swap1\n      0x20\n      add\n      keccak256\n        /* \"Mqttsc.sol\":5126:5218  keccak256(abi.encodePacked(_topic)) == keccak256(abi.encodePacked(clientLedger[i].topic[j])) */\n      eq\n        /* \"Mqttsc.sol\":5123:5281  if(keccak256(abi.encodePacked(_topic)) == keccak256(abi.encodePacked(clientLedger[i].topic[j]))){\r... */\n      iszero\n      tag_109\n      jumpi\n        /* \"Mqttsc.sol\":5253:5257  true */\n      0x01\n        /* \"Mqttsc.sol\":5246:5257  return true */\n      swap3\n      pop\n      pop\n      pop\n      jump(tag_91)\n        /* \"Mqttsc.sol\":5123:5281  if(keccak256(abi.encodePacked(_topic)) == keccak256(abi.encodePacked(clientLedger[i].topic[j]))){\r... */\n    tag_109:\n        /* \"Mqttsc.sol\":5096:5099  j++ */\n      dup1\n      dup1\n      0x01\n      add\n      swap2\n      pop\n      pop\n        /* \"Mqttsc.sol\":5045:5300  for(uint j = 0; j < clientLedger[i].topic.length ; j++){\r... */\n      jump(tag_98)\n    tag_99:\n      pop\n        /* \"Mqttsc.sol\":4997:5315  if(_id == clientLedger[i].id){\r... */\n    tag_97:\n        /* \"Mqttsc.sol\":4978:4981  i++ */\n      dup1\n      dup1\n      0x01\n      add\n      swap2\n      pop\n      pop\n        /* \"Mqttsc.sol\":4937:5326  for(uint i = 0; i < clientLedger.length; i++){\r... */\n      jump(tag_92)\n    tag_93:\n      pop\n        /* \"Mqttsc.sol\":5343:5348  false */\n      0x00\n        /* \"Mqttsc.sol\":5336:5348  return false */\n      swap1\n      pop\n        /* \"Mqttsc.sol\":5441:5442  _ */\n    tag_91:\n        /* \"Mqttsc.sol\":4839:5356  function authorize(uint _id, string memory _topic) isManager public view returns(bool) {\r... */\n      swap3\n      swap2\n      pop\n      pop\n      jump\t// out\n        /* \"Mqttsc.sol\":3835:4311  function getClients() public isManager view returns (uint[] memory, string[] memory) {\r... */\n    tag_30:\n        /* \"Mqttsc.sol\":3888:3901  uint[] memory */\n      0x60\n        /* \"Mqttsc.sol\":3903:3918  string[] memory */\n      dup1\n        /* \"Mqttsc.sol\":5422:5429  manager */\n      0x00\n      dup1\n      sload\n      swap1\n      0x0100\n      exp\n      swap1\n      div\n      0xffffffffffffffffffffffffffffffffffffffff\n      and\n        /* \"Mqttsc.sol\":5408:5429  msg.sender == manager */\n      0xffffffffffffffffffffffffffffffffffffffff\n      and\n        /* \"Mqttsc.sol\":5408:5418  msg.sender */\n      caller\n        /* \"Mqttsc.sol\":5408:5429  msg.sender == manager */\n      0xffffffffffffffffffffffffffffffffffffffff\n      and\n      eq\n        /* \"Mqttsc.sol\":5400:5430  require(msg.sender == manager) */\n      tag_111\n      jumpi\n      0x00\n      dup1\n      revert\n    tag_111:\n        /* \"Mqttsc.sol\":3931:3948  uint[] memory _id */\n      0x60\n        /* \"Mqttsc.sol\":3962:3973  clientCount */\n      sload(0x02)\n        /* \"Mqttsc.sol\":3951:3974  new uint[](clientCount) */\n      0xffffffffffffffff\n      dup2\n      gt\n      dup1\n      iszero\n      tag_113\n      jumpi\n      0x00\n      dup1\n      revert\n    tag_113:\n      pop\n      mload(0x40)\n      swap1\n      dup1\n      dup3\n      mstore\n      dup1\n      0x20\n      mul\n      0x20\n      add\n      dup3\n      add\n      0x40\n      mstore\n      dup1\n      iszero\n      tag_114\n      jumpi\n      dup2\n      0x20\n      add\n      0x20\n      dup3\n      mul\n      dup1\n      calldatasize\n      dup4\n      calldatacopy\n      dup1\n      dup3\n      add\n      swap2\n      pop\n      pop\n      swap1\n      pop\n    tag_114:\n      pop\n        /* \"Mqttsc.sol\":3931:3974  uint[] memory _id = new uint[](clientCount) */\n      swap1\n      pop\n        /* \"Mqttsc.sol\":3985:4010  string[] memory _username */\n      0x60\n        /* \"Mqttsc.sol\":4026:4037  clientCount */\n      sload(0x02)\n        /* \"Mqttsc.sol\":4013:4038  new string[](clientCount) */\n      0xffffffffffffffff\n      dup2\n      gt\n      dup1\n      iszero\n      tag_115\n      jumpi\n      0x00\n      dup1\n      revert\n    tag_115:\n      pop\n      mload(0x40)\n      swap1\n      dup1\n      dup3\n      mstore\n      dup1\n      0x20\n      mul\n      0x20\n      add\n      dup3\n      add\n      0x40\n      mstore\n      dup1\n      iszero\n      tag_116\n      jumpi\n      dup2\n      0x20\n      add\n    tag_117:\n      0x60\n      dup2\n      mstore\n      0x20\n      add\n      swap1\n      0x01\n      swap1\n      sub\n      swap1\n      dup2\n      tag_117\n      jumpi\n      swap1\n      pop\n    tag_116:\n      pop\n        /* \"Mqttsc.sol\":3985:4038  string[] memory _username = new string[](clientCount) */\n      swap1\n      pop\n        /* \"Mqttsc.sol\":4053:4059  uint i */\n      0x00\n        /* \"Mqttsc.sol\":4049:4247  for(uint i = 0; i < clientLedger.length; i++){\r... */\n    tag_118:\n        /* \"Mqttsc.sol\":4069:4081  clientLedger */\n      0x01\n        /* \"Mqttsc.sol\":4069:4088  clientLedger.length */\n      dup1\n      sload\n      swap1\n      pop\n        /* \"Mqttsc.sol\":4065:4066  i */\n      dup2\n        /* \"Mqttsc.sol\":4065:4088  i < clientLedger.length */\n      lt\n        /* \"Mqttsc.sol\":4049:4247  for(uint i = 0; i < clientLedger.length; i++){\r... */\n      iszero\n      tag_119\n      jumpi\n        /* \"Mqttsc.sol\":4109:4133  Client storage clientele */\n      0x00\n        /* \"Mqttsc.sol\":4136:4148  clientLedger */\n      0x01\n        /* \"Mqttsc.sol\":4149:4150  i */\n      dup3\n        /* \"Mqttsc.sol\":4136:4151  clientLedger[i] */\n      dup2\n      sload\n      dup2\n      lt\n      tag_121\n      jumpi\n      invalid\n    tag_121:\n      swap1\n      0x00\n      mstore\n      keccak256(0x00, 0x20)\n      swap1\n      0x04\n      mul\n      add\n        /* \"Mqttsc.sol\":4109:4151  Client storage clientele = clientLedger[i] */\n      swap1\n      pop\n        /* \"Mqttsc.sol\":4175:4184  clientele */\n      dup1\n        /* \"Mqttsc.sol\":4175:4187  clientele.id */\n      0x00\n      add\n      sload\n        /* \"Mqttsc.sol\":4166:4169  _id */\n      dup5\n        /* \"Mqttsc.sol\":4170:4171  i */\n      dup4\n        /* \"Mqttsc.sol\":4166:4172  _id[i] */\n      dup2\n      mload\n      dup2\n      lt\n      tag_123\n      jumpi\n      invalid\n    tag_123:\n      0x20\n      mul\n      0x20\n      add\n      add\n        /* \"Mqttsc.sol\":4166:4187  _id[i] = clientele.id */\n      dup2\n      dup2\n      mstore\n      pop\n      pop\n        /* \"Mqttsc.sol\":4217:4226  clientele */\n      dup1\n        /* \"Mqttsc.sol\":4217:4235  clientele.username */\n      0x01\n      add\n        /* \"Mqttsc.sol\":4202:4235  _username[i] = clientele.username */\n      dup1\n      sload\n      0x01\n      dup2\n      0x01\n      and\n      iszero\n      0x0100\n      mul\n      sub\n      and\n      0x02\n      swap1\n      div\n      dup1\n      0x1f\n      add\n      0x20\n      dup1\n      swap2\n      div\n      mul\n      0x20\n      add\n      mload(0x40)\n      swap1\n      dup2\n      add\n      0x40\n      mstore\n      dup1\n      swap3\n      swap2\n      swap1\n      dup2\n      dup2\n      mstore\n      0x20\n      add\n      dup3\n      dup1\n      sload\n      0x01\n      dup2\n      0x01\n      and\n      iszero\n      0x0100\n      mul\n      sub\n      and\n      0x02\n      swap1\n      div\n      dup1\n      iszero\n      tag_124\n      jumpi\n      dup1\n      0x1f\n      lt\n      tag_125\n      jumpi\n      0x0100\n      dup1\n      dup4\n      sload\n      div\n      mul\n      dup4\n      mstore\n      swap2\n      0x20\n      add\n      swap2\n      jump(tag_124)\n    tag_125:\n      dup3\n      add\n      swap2\n      swap1\n      0x00\n      mstore\n      keccak256(0x00, 0x20)\n      swap1\n    tag_126:\n      dup2\n      sload\n      dup2\n      mstore\n      swap1\n      0x01\n      add\n      swap1\n      0x20\n      add\n      dup1\n      dup4\n      gt\n      tag_126\n      jumpi\n      dup3\n      swap1\n      sub\n      0x1f\n      and\n      dup3\n      add\n      swap2\n    tag_124:\n      pop\n      pop\n      pop\n      pop\n      pop\n        /* \"Mqttsc.sol\":4202:4211  _username */\n      dup4\n        /* \"Mqttsc.sol\":4212:4213  i */\n      dup4\n        /* \"Mqttsc.sol\":4202:4214  _username[i] */\n      dup2\n      mload\n      dup2\n      lt\n      tag_127\n      jumpi\n      invalid\n    tag_127:\n      0x20\n      mul\n      0x20\n      add\n      add\n        /* \"Mqttsc.sol\":4202:4235  _username[i] = clientele.username */\n      dup2\n      swap1\n      mstore\n      pop\n        /* \"Mqttsc.sol\":4049:4247  for(uint i = 0; i < clientLedger.length; i++){\r... */\n      pop\n        /* \"Mqttsc.sol\":4090:4093  i++ */\n      dup1\n      dup1\n      0x01\n      add\n      swap2\n      pop\n      pop\n        /* \"Mqttsc.sol\":4049:4247  for(uint i = 0; i < clientLedger.length; i++){\r... */\n      jump(tag_118)\n    tag_119:\n      pop\n        /* \"Mqttsc.sol\":4278:4281  _id */\n      dup2\n        /* \"Mqttsc.sol\":4283:4292  _username */\n      dup2\n        /* \"Mqttsc.sol\":4257:4303  return(\r... */\n      swap4\n      pop\n      swap4\n      pop\n      pop\n      pop\n        /* \"Mqttsc.sol\":3835:4311  function getClients() public isManager view returns (uint[] memory, string[] memory) {\r... */\n      swap1\n      swap2\n      jump\t// out\n        /* \"Mqttsc.sol\":1251:1804  function getTopic(uint _id) isManager public view returns(string[] memory){\r... */\n    tag_36:\n        /* \"Mqttsc.sol\":1309:1324  string[] memory */\n      0x60\n        /* \"Mqttsc.sol\":5422:5429  manager */\n      0x00\n      dup1\n      sload\n      swap1\n      0x0100\n      exp\n      swap1\n      div\n      0xffffffffffffffffffffffffffffffffffffffff\n      and\n        /* \"Mqttsc.sol\":5408:5429  msg.sender == manager */\n      0xffffffffffffffffffffffffffffffffffffffff\n      and\n        /* \"Mqttsc.sol\":5408:5418  msg.sender */\n      caller\n        /* \"Mqttsc.sol\":5408:5429  msg.sender == manager */\n      0xffffffffffffffffffffffffffffffffffffffff\n      and\n      eq\n        /* \"Mqttsc.sol\":5400:5430  require(msg.sender == manager) */\n      tag_129\n      jumpi\n      0x00\n      dup1\n      revert\n    tag_129:\n        /* \"Mqttsc.sol\":1340:1346  uint i */\n      0x00\n        /* \"Mqttsc.sol\":1336:1797  for(uint i = 0; i < clientLedger.length; i++){\r... */\n    tag_131:\n        /* \"Mqttsc.sol\":1356:1368  clientLedger */\n      0x01\n        /* \"Mqttsc.sol\":1356:1375  clientLedger.length */\n      dup1\n      sload\n      swap1\n      pop\n        /* \"Mqttsc.sol\":1352:1353  i */\n      dup2\n        /* \"Mqttsc.sol\":1352:1375  i < clientLedger.length */\n      lt\n        /* \"Mqttsc.sol\":1336:1797  for(uint i = 0; i < clientLedger.length; i++){\r... */\n      iszero\n      tag_132\n      jumpi\n        /* \"Mqttsc.sol\":1396:1420  Client storage clientele */\n      0x00\n        /* \"Mqttsc.sol\":1423:1435  clientLedger */\n      0x01\n        /* \"Mqttsc.sol\":1436:1437  i */\n      dup3\n        /* \"Mqttsc.sol\":1423:1438  clientLedger[i] */\n      dup2\n      sload\n      dup2\n      lt\n      tag_134\n      jumpi\n      invalid\n    tag_134:\n      swap1\n      0x00\n      mstore\n      keccak256(0x00, 0x20)\n      swap1\n      0x04\n      mul\n      add\n        /* \"Mqttsc.sol\":1396:1438  Client storage clientele = clientLedger[i] */\n      swap1\n      pop\n        /* \"Mqttsc.sol\":1463:1472  clientele */\n      dup1\n        /* \"Mqttsc.sol\":1463:1475  clientele.id */\n      0x00\n      add\n      sload\n        /* \"Mqttsc.sol\":1456:1459  _id */\n      dup5\n        /* \"Mqttsc.sol\":1456:1475  _id == clientele.id */\n      eq\n        /* \"Mqttsc.sol\":1453:1786  if(_id == clientele.id){\r... */\n      iszero\n      tag_136\n      jumpi\n        /* \"Mqttsc.sol\":1495:1517  string[] memory _topic */\n      0x60\n        /* \"Mqttsc.sol\":1533:1542  clientele */\n      dup2\n        /* \"Mqttsc.sol\":1533:1548  clientele.topic */\n      0x03\n      add\n        /* \"Mqttsc.sol\":1533:1555  clientele.topic.length */\n      dup1\n      sload\n      swap1\n      pop\n        /* \"Mqttsc.sol\":1520:1556  new string[](clientele.topic.length) */\n      0xffffffffffffffff\n      dup2\n      gt\n      dup1\n      iszero\n      tag_137\n      jumpi\n      0x00\n      dup1\n      revert\n    tag_137:\n      pop\n      mload(0x40)\n      swap1\n      dup1\n      dup3\n      mstore\n      dup1\n      0x20\n      mul\n      0x20\n      add\n      dup3\n      add\n      0x40\n      mstore\n      dup1\n      iszero\n      tag_138\n      jumpi\n      dup2\n      0x20\n      add\n    tag_139:\n      0x60\n      dup2\n      mstore\n      0x20\n      add\n      swap1\n      0x01\n      swap1\n      sub\n      swap1\n      dup2\n      tag_139\n      jumpi\n      swap1\n      pop\n    tag_138:\n      pop\n        /* \"Mqttsc.sol\":1495:1556  string[] memory _topic = new string[](clientele.topic.length) */\n      swap1\n      pop\n        /* \"Mqttsc.sol\":1579:1585  uint j */\n      0x00\n        /* \"Mqttsc.sol\":1575:1696  for(uint j = 0; j < clientele.topic.length; j++){\r... */\n    tag_140:\n        /* \"Mqttsc.sol\":1595:1604  clientele */\n      dup3\n        /* \"Mqttsc.sol\":1595:1610  clientele.topic */\n      0x03\n      add\n        /* \"Mqttsc.sol\":1595:1617  clientele.topic.length */\n      dup1\n      sload\n      swap1\n      pop\n        /* \"Mqttsc.sol\":1591:1592  j */\n      dup2\n        /* \"Mqttsc.sol\":1591:1617  j < clientele.topic.length */\n      lt\n        /* \"Mqttsc.sol\":1575:1696  for(uint j = 0; j < clientele.topic.length; j++){\r... */\n      iszero\n      tag_141\n      jumpi\n        /* \"Mqttsc.sol\":1658:1667  clientele */\n      dup3\n        /* \"Mqttsc.sol\":1658:1673  clientele.topic */\n      0x03\n      add\n        /* \"Mqttsc.sol\":1674:1675  j */\n      dup2\n        /* \"Mqttsc.sol\":1658:1676  clientele.topic[j] */\n      dup2\n      sload\n      dup2\n      lt\n      tag_143\n      jumpi\n      invalid\n    tag_143:\n      swap1\n      0x00\n      mstore\n      keccak256(0x00, 0x20)\n      add\n        /* \"Mqttsc.sol\":1646:1676  _topic[j] = clientele.topic[j] */\n      dup1\n      sload\n      0x01\n      dup2\n      0x01\n      and\n      iszero\n      0x0100\n      mul\n      sub\n      and\n      0x02\n      swap1\n      div\n      dup1\n      0x1f\n      add\n      0x20\n      dup1\n      swap2\n      div\n      mul\n      0x20\n      add\n      mload(0x40)\n      swap1\n      dup2\n      add\n      0x40\n      mstore\n      dup1\n      swap3\n      swap2\n      swap1\n      dup2\n      dup2\n      mstore\n      0x20\n      add\n      dup3\n      dup1\n      sload\n      0x01\n      dup2\n      0x01\n      and\n      iszero\n      0x0100\n      mul\n      sub\n      and\n      0x02\n      swap1\n      div\n      dup1\n      iszero\n      tag_145\n      jumpi\n      dup1\n      0x1f\n      lt\n      tag_146\n      jumpi\n      0x0100\n      dup1\n      dup4\n      sload\n      div\n      mul\n      dup4\n      mstore\n      swap2\n      0x20\n      add\n      swap2\n      jump(tag_145)\n    tag_146:\n      dup3\n      add\n      swap2\n      swap1\n      0x00\n      mstore\n      keccak256(0x00, 0x20)\n      swap1\n    tag_147:\n      dup2\n      sload\n      dup2\n      mstore\n      swap1\n      0x01\n      add\n      swap1\n      0x20\n      add\n      dup1\n      dup4\n      gt\n      tag_147\n      jumpi\n      dup3\n      swap1\n      sub\n      0x1f\n      and\n      dup3\n      add\n      swap2\n    tag_145:\n      pop\n      pop\n      pop\n      pop\n      pop\n        /* \"Mqttsc.sol\":1646:1652  _topic */\n      dup3\n        /* \"Mqttsc.sol\":1653:1654  j */\n      dup3\n        /* \"Mqttsc.sol\":1646:1655  _topic[j] */\n      dup2\n      mload\n      dup2\n      lt\n      tag_148\n      jumpi\n      invalid\n    tag_148:\n      0x20\n      mul\n      0x20\n      add\n      add\n        /* \"Mqttsc.sol\":1646:1676  _topic[j] = clientele.topic[j] */\n      dup2\n      swap1\n      mstore\n      pop\n        /* \"Mqttsc.sol\":1619:1622  j++ */\n      dup1\n      dup1\n      0x01\n      add\n      swap2\n      pop\n      pop\n        /* \"Mqttsc.sol\":1575:1696  for(uint j = 0; j < clientele.topic.length; j++){\r... */\n      jump(tag_140)\n    tag_141:\n      pop\n        /* \"Mqttsc.sol\":1743:1749  _topic */\n      dup1\n        /* \"Mqttsc.sol\":1714:1770  return(\r... */\n      swap4\n      pop\n      pop\n      pop\n      pop\n      jump(tag_130)\n        /* \"Mqttsc.sol\":1453:1786  if(_id == clientele.id){\r... */\n    tag_136:\n        /* \"Mqttsc.sol\":1336:1797  for(uint i = 0; i < clientLedger.length; i++){\r... */\n      pop\n        /* \"Mqttsc.sol\":1377:1380  i++ */\n      dup1\n      dup1\n      0x01\n      add\n      swap2\n      pop\n      pop\n        /* \"Mqttsc.sol\":1336:1797  for(uint i = 0; i < clientLedger.length; i++){\r... */\n      jump(tag_131)\n    tag_132:\n      pop\n        /* \"Mqttsc.sol\":5441:5442  _ */\n    tag_130:\n        /* \"Mqttsc.sol\":1251:1804  function getTopic(uint _id) isManager public view returns(string[] memory){\r... */\n      swap2\n      swap1\n      pop\n      jump\t// out\n        /* \"Mqttsc.sol\":2127:2475  function addClient(string memory _username, string memory _password) isManager public {\r... */\n    tag_42:\n        /* \"Mqttsc.sol\":5422:5429  manager */\n      0x00\n      dup1\n      sload\n      swap1\n      0x0100\n      exp\n      swap1\n      div\n      0xffffffffffffffffffffffffffffffffffffffff\n      and\n        /* \"Mqttsc.sol\":5408:5429  msg.sender == manager */\n      0xffffffffffffffffffffffffffffffffffffffff\n      and\n        /* \"Mqttsc.sol\":5408:5418  msg.sender */\n      caller\n        /* \"Mqttsc.sol\":5408:5429  msg.sender == manager */\n      0xffffffffffffffffffffffffffffffffffffffff\n      and\n      eq\n        /* \"Mqttsc.sol\":5400:5430  require(msg.sender == manager) */\n      tag_150\n      jumpi\n      0x00\n      dup1\n      revert\n    tag_150:\n        /* \"Mqttsc.sol\":2224:2247  Client memory newClient */\n      tag_152\n      tag_153\n      jump\t// in\n    tag_152:\n        /* \"Mqttsc.sol\":2250:2404  Client({\r... */\n      mload(0x40)\n      dup1\n      0x80\n      add\n      0x40\n      mstore\n      dup1\n        /* \"Mqttsc.sol\":2276:2287  clientCount */\n      sload(0x02)\n        /* \"Mqttsc.sol\":2250:2404  Client({\r... */\n      dup2\n      mstore\n      0x20\n      add\n        /* \"Mqttsc.sol\":2312:2321  _username */\n      dup5\n        /* \"Mqttsc.sol\":2250:2404  Client({\r... */\n      dup2\n      mstore\n      0x20\n      add\n        /* \"Mqttsc.sol\":2346:2355  _password */\n      dup4\n        /* \"Mqttsc.sol\":2250:2404  Client({\r... */\n      dup2\n      mstore\n      0x20\n      add\n        /* \"Mqttsc.sol\":2390:2391  0 */\n      0x00\n        /* \"Mqttsc.sol\":2377:2392  new string[](0) */\n      0xffffffffffffffff\n      dup2\n      gt\n      dup1\n      iszero\n      tag_154\n      jumpi\n      0x00\n      dup1\n      revert\n    tag_154:\n      pop\n      mload(0x40)\n      swap1\n      dup1\n      dup3\n      mstore\n      dup1\n      0x20\n      mul\n      0x20\n      add\n      dup3\n      add\n      0x40\n      mstore\n      dup1\n      iszero\n      tag_155\n      jumpi\n      dup2\n      0x20\n      add\n    tag_156:\n      0x60\n      dup2\n      mstore\n      0x20\n      add\n      swap1\n      0x01\n      swap1\n      sub\n      swap1\n      dup2\n      tag_156\n      jumpi\n      swap1\n      pop\n    tag_155:\n      pop\n        /* \"Mqttsc.sol\":2250:2404  Client({\r... */\n      dup2\n      mstore\n      pop\n        /* \"Mqttsc.sol\":2224:2404  Client memory newClient = Client({\r... */\n      swap1\n      pop\n        /* \"Mqttsc.sol\":2415:2426  clientCount */\n      0x02\n      0x00\n        /* \"Mqttsc.sol\":2415:2428  clientCount++ */\n      dup2\n      sload\n      dup1\n      swap3\n      swap2\n      swap1\n      0x01\n      add\n      swap2\n      swap1\n      pop\n      sstore\n      pop\n        /* \"Mqttsc.sol\":2439:2451  clientLedger */\n      0x01\n        /* \"Mqttsc.sol\":2457:2466  newClient */\n      dup2\n        /* \"Mqttsc.sol\":2439:2467  clientLedger.push(newClient) */\n      swap1\n      dup1\n      0x01\n      dup2\n      sload\n      add\n      dup1\n      dup3\n      sstore\n      dup1\n      swap2\n      pop\n      pop\n      0x01\n      swap1\n      sub\n      swap1\n      0x00\n      mstore\n      keccak256(0x00, 0x20)\n      swap1\n      0x04\n      mul\n      add\n      0x00\n      swap1\n      swap2\n      swap1\n      swap2\n      swap1\n      swap2\n      pop\n      0x00\n      dup3\n      add\n      mload\n      dup2\n      0x00\n      add\n      sstore\n      0x20\n      dup3\n      add\n      mload\n      dup2\n      0x01\n      add\n      swap1\n      dup1\n      mload\n      swap1\n      0x20\n      add\n      swap1\n      tag_158\n      swap3\n      swap2\n      swap1\n      tag_65\n      jump\t// in\n    tag_158:\n      pop\n      0x40\n      dup3\n      add\n      mload\n      dup2\n      0x02\n      add\n      swap1\n      dup1\n      mload\n      swap1\n      0x20\n      add\n      swap1\n      tag_159\n      swap3\n      swap2\n      swap1\n      tag_65\n      jump\t// in\n    tag_159:\n      pop\n      0x60\n      dup3\n      add\n      mload\n      dup2\n      0x03\n      add\n      swap1\n      dup1\n      mload\n      swap1\n      0x20\n      add\n      swap1\n      tag_160\n      swap3\n      swap2\n      swap1\n      tag_161\n      jump\t// in\n    tag_160:\n      pop\n      pop\n      pop\n        /* \"Mqttsc.sol\":5441:5442  _ */\n      pop\n        /* \"Mqttsc.sol\":2127:2475  function addClient(string memory _username, string memory _password) isManager public {\r... */\n      pop\n      pop\n      jump\t// out\n        /* \"Mqttsc.sol\":4323:4827  function authenticate(uint _id, string memory _username, string memory _password) isManager public view returns (bool) {\r... */\n    tag_46:\n        /* \"Mqttsc.sol\":4436:4440  bool */\n      0x00\n        /* \"Mqttsc.sol\":5422:5429  manager */\n      dup1\n      0x00\n      swap1\n      sload\n      swap1\n      0x0100\n      exp\n      swap1\n      div\n      0xffffffffffffffffffffffffffffffffffffffff\n      and\n        /* \"Mqttsc.sol\":5408:5429  msg.sender == manager */\n      0xffffffffffffffffffffffffffffffffffffffff\n      and\n        /* \"Mqttsc.sol\":5408:5418  msg.sender */\n      caller\n        /* \"Mqttsc.sol\":5408:5429  msg.sender == manager */\n      0xffffffffffffffffffffffffffffffffffffffff\n      and\n      eq\n        /* \"Mqttsc.sol\":5400:5430  require(msg.sender == manager) */\n      tag_163\n      jumpi\n      0x00\n      dup1\n      revert\n    tag_163:\n        /* \"Mqttsc.sol\":4457:4463  uint i */\n      0x00\n        /* \"Mqttsc.sol\":4453:4797  for(uint i = 0; i < clientLedger.length; i++){\r... */\n    tag_165:\n        /* \"Mqttsc.sol\":4473:4485  clientLedger */\n      0x01\n        /* \"Mqttsc.sol\":4473:4492  clientLedger.length */\n      dup1\n      sload\n      swap1\n      pop\n        /* \"Mqttsc.sol\":4469:4470  i */\n      dup2\n        /* \"Mqttsc.sol\":4469:4492  i < clientLedger.length */\n      lt\n        /* \"Mqttsc.sol\":4453:4797  for(uint i = 0; i < clientLedger.length; i++){\r... */\n      iszero\n      tag_166\n      jumpi\n        /* \"Mqttsc.sol\":4523:4535  clientLedger */\n      0x01\n        /* \"Mqttsc.sol\":4536:4537  i */\n      dup2\n        /* \"Mqttsc.sol\":4523:4538  clientLedger[i] */\n      dup2\n      sload\n      dup2\n      lt\n      tag_168\n      jumpi\n      invalid\n    tag_168:\n      swap1\n      0x00\n      mstore\n      keccak256(0x00, 0x20)\n      swap1\n      0x04\n      mul\n      add\n        /* \"Mqttsc.sol\":4523:4541  clientLedger[i].id */\n      0x00\n      add\n      sload\n        /* \"Mqttsc.sol\":4516:4519  _id */\n      dup6\n        /* \"Mqttsc.sol\":4516:4541  _id == clientLedger[i].id */\n      eq\n        /* \"Mqttsc.sol\":4516:4640  _id == clientLedger[i].id && keccak256(abi.encodePacked(_username)) == keccak256(abi.encodePacked(clientLedger[i].username)) */\n      dup1\n      iszero\n      tag_170\n      jumpi\n      pop\n        /* \"Mqttsc.sol\":4614:4626  clientLedger */\n      0x01\n        /* \"Mqttsc.sol\":4627:4628  i */\n      dup2\n        /* \"Mqttsc.sol\":4614:4629  clientLedger[i] */\n      dup2\n      sload\n      dup2\n      lt\n      tag_171\n      jumpi\n      invalid\n    tag_171:\n      swap1\n      0x00\n      mstore\n      keccak256(0x00, 0x20)\n      swap1\n      0x04\n      mul\n      add\n        /* \"Mqttsc.sol\":4614:4638  clientLedger[i].username */\n      0x01\n      add\n        /* \"Mqttsc.sol\":4597:4639  abi.encodePacked(clientLedger[i].username) */\n      add(0x20, mload(0x40))\n      tag_173\n      swap2\n      swap1\n      tag_83\n      jump\t// in\n    tag_173:\n      mload(0x40)\n      0x20\n      dup2\n      dup4\n      sub\n      sub\n      dup2\n      mstore\n      swap1\n      0x40\n      mstore\n        /* \"Mqttsc.sol\":4587:4640  keccak256(abi.encodePacked(clientLedger[i].username)) */\n      dup1\n      mload\n      swap1\n      0x20\n      add\n      keccak256\n        /* \"Mqttsc.sol\":4572:4581  _username */\n      dup5\n        /* \"Mqttsc.sol\":4555:4582  abi.encodePacked(_username) */\n      add(0x20, mload(0x40))\n      tag_174\n      swap2\n      swap1\n      tag_79\n      jump\t// in\n    tag_174:\n      mload(0x40)\n      0x20\n      dup2\n      dup4\n      sub\n      sub\n      dup2\n      mstore\n      swap1\n      0x40\n      mstore\n        /* \"Mqttsc.sol\":4545:4583  keccak256(abi.encodePacked(_username)) */\n      dup1\n      mload\n      swap1\n      0x20\n      add\n      keccak256\n        /* \"Mqttsc.sol\":4545:4640  keccak256(abi.encodePacked(_username)) == keccak256(abi.encodePacked(clientLedger[i].username)) */\n      eq\n        /* \"Mqttsc.sol\":4516:4640  _id == clientLedger[i].id && keccak256(abi.encodePacked(_username)) == keccak256(abi.encodePacked(clientLedger[i].username)) */\n    tag_170:\n        /* \"Mqttsc.sol\":4516:4739  _id == clientLedger[i].id && keccak256(abi.encodePacked(_username)) == keccak256(abi.encodePacked(clientLedger[i].username)) && keccak256(abi.encodePacked(_password)) == keccak256(abi.encodePacked(clientLedger[i].password)) */\n      dup1\n      iszero\n      tag_175\n      jumpi\n      pop\n        /* \"Mqttsc.sol\":4713:4725  clientLedger */\n      0x01\n        /* \"Mqttsc.sol\":4726:4727  i */\n      dup2\n        /* \"Mqttsc.sol\":4713:4728  clientLedger[i] */\n      dup2\n      sload\n      dup2\n      lt\n      tag_176\n      jumpi\n      invalid\n    tag_176:\n      swap1\n      0x00\n      mstore\n      keccak256(0x00, 0x20)\n      swap1\n      0x04\n      mul\n      add\n        /* \"Mqttsc.sol\":4713:4737  clientLedger[i].password */\n      0x02\n      add\n        /* \"Mqttsc.sol\":4696:4738  abi.encodePacked(clientLedger[i].password) */\n      add(0x20, mload(0x40))\n      tag_178\n      swap2\n      swap1\n      tag_83\n      jump\t// in\n    tag_178:\n      mload(0x40)\n      0x20\n      dup2\n      dup4\n      sub\n      sub\n      dup2\n      mstore\n      swap1\n      0x40\n      mstore\n        /* \"Mqttsc.sol\":4686:4739  keccak256(abi.encodePacked(clientLedger[i].password)) */\n      dup1\n      mload\n      swap1\n      0x20\n      add\n      keccak256\n        /* \"Mqttsc.sol\":4671:4680  _password */\n      dup4\n        /* \"Mqttsc.sol\":4654:4681  abi.encodePacked(_password) */\n      add(0x20, mload(0x40))\n      tag_179\n      swap2\n      swap1\n      tag_79\n      jump\t// in\n    tag_179:\n      mload(0x40)\n      0x20\n      dup2\n      dup4\n      sub\n      sub\n      dup2\n      mstore\n      swap1\n      0x40\n      mstore\n        /* \"Mqttsc.sol\":4644:4682  keccak256(abi.encodePacked(_password)) */\n      dup1\n      mload\n      swap1\n      0x20\n      add\n      keccak256\n        /* \"Mqttsc.sol\":4644:4739  keccak256(abi.encodePacked(_password)) == keccak256(abi.encodePacked(clientLedger[i].password)) */\n      eq\n        /* \"Mqttsc.sol\":4516:4739  _id == clientLedger[i].id && keccak256(abi.encodePacked(_username)) == keccak256(abi.encodePacked(clientLedger[i].username)) && keccak256(abi.encodePacked(_password)) == keccak256(abi.encodePacked(clientLedger[i].password)) */\n    tag_175:\n        /* \"Mqttsc.sol\":4513:4786  if(_id == clientLedger[i].id && keccak256(abi.encodePacked(_username)) == keccak256(abi.encodePacked(clientLedger[i].username)) && keccak256(abi.encodePacked(_password)) == keccak256(abi.encodePacked(clientLedger[i].password))){\r... */\n      iszero\n      tag_180\n      jumpi\n        /* \"Mqttsc.sol\":4766:4770  true */\n      0x01\n        /* \"Mqttsc.sol\":4759:4770  return true */\n      swap2\n      pop\n      pop\n      jump(tag_164)\n        /* \"Mqttsc.sol\":4513:4786  if(_id == clientLedger[i].id && keccak256(abi.encodePacked(_username)) == keccak256(abi.encodePacked(clientLedger[i].username)) && keccak256(abi.encodePacked(_password)) == keccak256(abi.encodePacked(clientLedger[i].password))){\r... */\n    tag_180:\n        /* \"Mqttsc.sol\":4494:4497  i++ */\n      dup1\n      dup1\n      0x01\n      add\n      swap2\n      pop\n      pop\n        /* \"Mqttsc.sol\":4453:4797  for(uint i = 0; i < clientLedger.length; i++){\r... */\n      jump(tag_165)\n    tag_166:\n      pop\n        /* \"Mqttsc.sol\":4814:4819  false */\n      0x00\n        /* \"Mqttsc.sol\":4807:4819  return false */\n      swap1\n      pop\n        /* \"Mqttsc.sol\":5441:5442  _ */\n    tag_164:\n        /* \"Mqttsc.sol\":4323:4827  function authenticate(uint _id, string memory _username, string memory _password) isManager public view returns (bool) {\r... */\n      swap4\n      swap3\n      pop\n      pop\n      pop\n      jump\t// out\n        /* \"Mqttsc.sol\":2493:3051  function updateTopic(uint _id, string memory _topic, string memory _newtopic) isManager public{\r... */\n    tag_50:\n        /* \"Mqttsc.sol\":5422:5429  manager */\n      0x00\n      dup1\n      sload\n      swap1\n      0x0100\n      exp\n      swap1\n      div\n      0xffffffffffffffffffffffffffffffffffffffff\n      and\n        /* \"Mqttsc.sol\":5408:5429  msg.sender == manager */\n      0xffffffffffffffffffffffffffffffffffffffff\n      and\n        /* \"Mqttsc.sol\":5408:5418  msg.sender */\n      caller\n        /* \"Mqttsc.sol\":5408:5429  msg.sender == manager */\n      0xffffffffffffffffffffffffffffffffffffffff\n      and\n      eq\n        /* \"Mqttsc.sol\":5400:5430  require(msg.sender == manager) */\n      tag_182\n      jumpi\n      0x00\n      dup1\n      revert\n    tag_182:\n        /* \"Mqttsc.sol\":2602:2608  uint i */\n      0x00\n        /* \"Mqttsc.sol\":2598:3044  for(uint i = 0; i < clientLedger.length; i++){\r... */\n    tag_184:\n        /* \"Mqttsc.sol\":2618:2630  clientLedger */\n      0x01\n        /* \"Mqttsc.sol\":2618:2637  clientLedger.length */\n      dup1\n      sload\n      swap1\n      pop\n        /* \"Mqttsc.sol\":2614:2615  i */\n      dup2\n        /* \"Mqttsc.sol\":2614:2637  i < clientLedger.length */\n      lt\n        /* \"Mqttsc.sol\":2598:3044  for(uint i = 0; i < clientLedger.length; i++){\r... */\n      iszero\n      tag_185\n      jumpi\n        /* \"Mqttsc.sol\":2658:2682  Client storage clientele */\n      0x00\n        /* \"Mqttsc.sol\":2685:2697  clientLedger */\n      0x01\n        /* \"Mqttsc.sol\":2698:2699  i */\n      dup3\n        /* \"Mqttsc.sol\":2685:2700  clientLedger[i] */\n      dup2\n      sload\n      dup2\n      lt\n      tag_187\n      jumpi\n      invalid\n    tag_187:\n      swap1\n      0x00\n      mstore\n      keccak256(0x00, 0x20)\n      swap1\n      0x04\n      mul\n      add\n        /* \"Mqttsc.sol\":2658:2700  Client storage clientele = clientLedger[i] */\n      swap1\n      pop\n        /* \"Mqttsc.sol\":2725:2734  clientele */\n      dup1\n        /* \"Mqttsc.sol\":2725:2737  clientele.id */\n      0x00\n      add\n      sload\n        /* \"Mqttsc.sol\":2718:2721  _id */\n      dup6\n        /* \"Mqttsc.sol\":2718:2737  _id == clientele.id */\n      eq\n        /* \"Mqttsc.sol\":2715:3033  if(_id == clientele.id){\r... */\n      iszero\n      tag_189\n      jumpi\n        /* \"Mqttsc.sol\":2761:2767  uint j */\n      0x00\n        /* \"Mqttsc.sol\":2757:3018  for(uint j = 0; j < clientele.topic.length; j++){\r... */\n    tag_190:\n        /* \"Mqttsc.sol\":2777:2786  clientele */\n      dup2\n        /* \"Mqttsc.sol\":2777:2792  clientele.topic */\n      0x03\n      add\n        /* \"Mqttsc.sol\":2777:2799  clientele.topic.length */\n      dup1\n      sload\n      swap1\n      pop\n        /* \"Mqttsc.sol\":2773:2774  j */\n      dup2\n        /* \"Mqttsc.sol\":2773:2799  j < clientele.topic.length */\n      lt\n        /* \"Mqttsc.sol\":2757:3018  for(uint j = 0; j < clientele.topic.length; j++){\r... */\n      iszero\n      tag_191\n      jumpi\n        /* \"Mqttsc.sol\":2909:2915  _topic */\n      dup5\n        /* \"Mqttsc.sol\":2892:2916  abi.encodePacked(_topic) */\n      add(0x20, mload(0x40))\n      tag_193\n      swap2\n      swap1\n      tag_79\n      jump\t// in\n    tag_193:\n      mload(0x40)\n      0x20\n      dup2\n      dup4\n      sub\n      sub\n      dup2\n      mstore\n      swap1\n      0x40\n      mstore\n        /* \"Mqttsc.sol\":2882:2917  keccak256(abi.encodePacked(_topic)) */\n      dup1\n      mload\n      swap1\n      0x20\n      add\n      keccak256\n        /* \"Mqttsc.sol\":2858:2867  clientele */\n      dup3\n        /* \"Mqttsc.sol\":2858:2873  clientele.topic */\n      0x03\n      add\n        /* \"Mqttsc.sol\":2874:2875  j */\n      dup3\n        /* \"Mqttsc.sol\":2858:2876  clientele.topic[j] */\n      dup2\n      sload\n      dup2\n      lt\n      tag_194\n      jumpi\n      invalid\n    tag_194:\n      swap1\n      0x00\n      mstore\n      keccak256(0x00, 0x20)\n      add\n        /* \"Mqttsc.sol\":2841:2877  abi.encodePacked(clientele.topic[j]) */\n      add(0x20, mload(0x40))\n      tag_196\n      swap2\n      swap1\n      tag_83\n      jump\t// in\n    tag_196:\n      mload(0x40)\n      0x20\n      dup2\n      dup4\n      sub\n      sub\n      dup2\n      mstore\n      swap1\n      0x40\n      mstore\n        /* \"Mqttsc.sol\":2831:2878  keccak256(abi.encodePacked(clientele.topic[j])) */\n      dup1\n      mload\n      swap1\n      0x20\n      add\n      keccak256\n        /* \"Mqttsc.sol\":2831:2917  keccak256(abi.encodePacked(clientele.topic[j])) == keccak256(abi.encodePacked(_topic)) */\n      eq\n        /* \"Mqttsc.sol\":2828:2999  if(keccak256(abi.encodePacked(clientele.topic[j])) == keccak256(abi.encodePacked(_topic))){\r... */\n      iszero\n      tag_197\n      jumpi\n        /* \"Mqttsc.sol\":2966:2975  _newtopic */\n      dup4\n        /* \"Mqttsc.sol\":2945:2954  clientele */\n      dup3\n        /* \"Mqttsc.sol\":2945:2960  clientele.topic */\n      0x03\n      add\n        /* \"Mqttsc.sol\":2961:2962  j */\n      dup3\n        /* \"Mqttsc.sol\":2945:2963  clientele.topic[j] */\n      dup2\n      sload\n      dup2\n      lt\n      tag_198\n      jumpi\n      invalid\n    tag_198:\n      swap1\n      0x00\n      mstore\n      keccak256(0x00, 0x20)\n      add\n        /* \"Mqttsc.sol\":2945:2975  clientele.topic[j] = _newtopic */\n      swap1\n      dup1\n      mload\n      swap1\n      0x20\n      add\n      swap1\n      tag_200\n      swap3\n      swap2\n      swap1\n      tag_65\n      jump\t// in\n    tag_200:\n      pop\n        /* \"Mqttsc.sol\":2828:2999  if(keccak256(abi.encodePacked(clientele.topic[j])) == keccak256(abi.encodePacked(_topic))){\r... */\n    tag_197:\n        /* \"Mqttsc.sol\":2801:2804  j++ */\n      dup1\n      dup1\n      0x01\n      add\n      swap2\n      pop\n      pop\n        /* \"Mqttsc.sol\":2757:3018  for(uint j = 0; j < clientele.topic.length; j++){\r... */\n      jump(tag_190)\n    tag_191:\n      pop\n        /* \"Mqttsc.sol\":2715:3033  if(_id == clientele.id){\r... */\n    tag_189:\n        /* \"Mqttsc.sol\":2598:3044  for(uint i = 0; i < clientLedger.length; i++){\r... */\n      pop\n        /* \"Mqttsc.sol\":2639:2642  i++ */\n      dup1\n      dup1\n      0x01\n      add\n      swap2\n      pop\n      pop\n        /* \"Mqttsc.sol\":2598:3044  for(uint i = 0; i < clientLedger.length; i++){\r... */\n      jump(tag_184)\n    tag_185:\n      pop\n        /* \"Mqttsc.sol\":2493:3051  function updateTopic(uint _id, string memory _topic, string memory _newtopic) isManager public{\r... */\n      pop\n      pop\n      pop\n      jump\t// out\n    tag_65:\n      dup3\n      dup1\n      sload\n      0x01\n      dup2\n      0x01\n      and\n      iszero\n      0x0100\n      mul\n      sub\n      and\n      0x02\n      swap1\n      div\n      swap1\n      0x00\n      mstore\n      keccak256(0x00, 0x20)\n      swap1\n      0x1f\n      add\n      0x20\n      swap1\n      div\n      dup2\n      add\n      swap3\n      dup3\n      0x1f\n      lt\n      tag_202\n      jumpi\n      dup1\n      mload\n      not(0xff)\n      and\n      dup4\n      dup1\n      add\n      or\n      dup6\n      sstore\n      jump(tag_201)\n    tag_202:\n      dup3\n      dup1\n      add\n      0x01\n      add\n      dup6\n      sstore\n      dup3\n      iszero\n      tag_201\n      jumpi\n      swap2\n      dup3\n      add\n    tag_203:\n      dup3\n      dup2\n      gt\n      iszero\n      tag_204\n      jumpi\n      dup3\n      mload\n      dup3\n      sstore\n      swap2\n      0x20\n      add\n      swap2\n      swap1\n      0x01\n      add\n      swap1\n      jump(tag_203)\n    tag_204:\n    tag_201:\n      pop\n      swap1\n      pop\n      tag_205\n      swap2\n      swap1\n      tag_206\n      jump\t// in\n    tag_205:\n      pop\n      swap1\n      jump\t// out\n    tag_88:\n      pop\n      dup1\n      sload\n      0x01\n      dup2\n      0x01\n      and\n      iszero\n      0x0100\n      mul\n      sub\n      and\n      0x02\n      swap1\n      div\n      0x00\n      dup3\n      sstore\n      dup1\n      0x1f\n      lt\n      tag_208\n      jumpi\n      pop\n      jump(tag_207)\n    tag_208:\n      0x1f\n      add\n      0x20\n      swap1\n      div\n      swap1\n      0x00\n      mstore\n      keccak256(0x00, 0x20)\n      swap1\n      dup2\n      add\n      swap1\n      tag_209\n      swap2\n      swap1\n      tag_206\n      jump\t// in\n    tag_209:\n    tag_207:\n      pop\n      jump\t// out\n    tag_153:\n      mload(0x40)\n      dup1\n      0x80\n      add\n      0x40\n      mstore\n      dup1\n      0x00\n      dup2\n      mstore\n      0x20\n      add\n      0x60\n      dup2\n      mstore\n      0x20\n      add\n      0x60\n      dup2\n      mstore\n      0x20\n      add\n      0x60\n      dup2\n      mstore\n      pop\n      swap1\n      jump\t// out\n    tag_161:\n      dup3\n      dup1\n      sload\n      dup3\n      dup3\n      sstore\n      swap1\n      0x00\n      mstore\n      keccak256(0x00, 0x20)\n      swap1\n      dup2\n      add\n      swap3\n      dup3\n      iszero\n      tag_210\n      jumpi\n      swap2\n      0x20\n      mul\n      dup3\n      add\n    tag_211:\n      dup3\n      dup2\n      gt\n      iszero\n      tag_212\n      jumpi\n      dup3\n      mload\n      dup3\n      swap1\n      dup1\n      mload\n      swap1\n      0x20\n      add\n      swap1\n      tag_213\n      swap3\n      swap2\n      swap1\n      tag_65\n      jump\t// in\n    tag_213:\n      pop\n      swap2\n      0x20\n      add\n      swap2\n      swap1\n      0x01\n      add\n      swap1\n      jump(tag_211)\n    tag_212:\n    tag_210:\n      pop\n      swap1\n      pop\n      tag_214\n      swap2\n      swap1\n      tag_215\n      jump\t// in\n    tag_214:\n      pop\n      swap1\n      jump\t// out\n    tag_206:\n    tag_216:\n      dup1\n      dup3\n      gt\n      iszero\n      tag_217\n      jumpi\n      0x00\n      dup2\n      0x00\n      swap1\n      sstore\n      pop\n      0x01\n      add\n      jump(tag_216)\n    tag_217:\n      pop\n      swap1\n      jump\t// out\n    tag_215:\n    tag_218:\n      dup1\n      dup3\n      gt\n      iszero\n      tag_219\n      jumpi\n      0x00\n      dup2\n      dup2\n      tag_220\n      swap2\n      swap1\n      tag_88\n      jump\t// in\n    tag_220:\n      pop\n      0x01\n      add\n      jump(tag_218)\n    tag_219:\n      pop\n      swap1\n      jump\t// out\n        /* \"--CODEGEN--\":6:448   */\n    tag_222:\n      0x00\n        /* \"--CODEGEN--\":108:111   */\n      dup3\n        /* \"--CODEGEN--\":101:105   */\n      0x1f\n        /* \"--CODEGEN--\":93:99   */\n      dup4\n        /* \"--CODEGEN--\":89:106   */\n      add\n        /* \"--CODEGEN--\":85:112   */\n      slt\n        /* \"--CODEGEN--\":75:77   */\n      tag_224\n      jumpi\n        /* \"--CODEGEN--\":126:127   */\n      0x00\n        /* \"--CODEGEN--\":123:124   */\n      dup1\n        /* \"--CODEGEN--\":116:128   */\n      revert\n        /* \"--CODEGEN--\":75:77   */\n    tag_224:\n        /* \"--CODEGEN--\":163:169   */\n      dup2\n        /* \"--CODEGEN--\":150:170   */\n      calldataload\n        /* \"--CODEGEN--\":185:250   */\n      tag_225\n        /* \"--CODEGEN--\":200:249   */\n      tag_226\n        /* \"--CODEGEN--\":242:248   */\n      dup3\n        /* \"--CODEGEN--\":200:249   */\n      tag_227\n      jump\t// in\n    tag_226:\n        /* \"--CODEGEN--\":185:250   */\n      tag_228\n      jump\t// in\n    tag_225:\n        /* \"--CODEGEN--\":176:250   */\n      swap2\n      pop\n        /* \"--CODEGEN--\":270:276   */\n      dup1\n        /* \"--CODEGEN--\":263:268   */\n      dup3\n        /* \"--CODEGEN--\":256:277   */\n      mstore\n        /* \"--CODEGEN--\":306:310   */\n      0x20\n        /* \"--CODEGEN--\":298:304   */\n      dup4\n        /* \"--CODEGEN--\":294:311   */\n      add\n        /* \"--CODEGEN--\":339:343   */\n      0x20\n        /* \"--CODEGEN--\":332:337   */\n      dup4\n        /* \"--CODEGEN--\":328:344   */\n      add\n        /* \"--CODEGEN--\":374:377   */\n      dup6\n        /* \"--CODEGEN--\":365:371   */\n      dup4\n        /* \"--CODEGEN--\":360:363   */\n      dup4\n        /* \"--CODEGEN--\":356:372   */\n      add\n        /* \"--CODEGEN--\":353:378   */\n      gt\n        /* \"--CODEGEN--\":350:352   */\n      iszero\n      tag_229\n      jumpi\n        /* \"--CODEGEN--\":391:392   */\n      0x00\n        /* \"--CODEGEN--\":388:389   */\n      dup1\n        /* \"--CODEGEN--\":381:393   */\n      revert\n        /* \"--CODEGEN--\":350:352   */\n    tag_229:\n        /* \"--CODEGEN--\":401:442   */\n      tag_230\n        /* \"--CODEGEN--\":435:441   */\n      dup4\n        /* \"--CODEGEN--\":430:433   */\n      dup3\n        /* \"--CODEGEN--\":425:428   */\n      dup5\n        /* \"--CODEGEN--\":401:442   */\n      tag_231\n      jump\t// in\n    tag_230:\n        /* \"--CODEGEN--\":68:448   */\n      pop\n      pop\n      pop\n      swap3\n      swap2\n      pop\n      pop\n      jump\t// out\n        /* \"--CODEGEN--\":456:586   */\n    tag_232:\n      0x00\n        /* \"--CODEGEN--\":536:542   */\n      dup2\n        /* \"--CODEGEN--\":523:543   */\n      calldataload\n        /* \"--CODEGEN--\":514:543   */\n      swap1\n      pop\n        /* \"--CODEGEN--\":548:581   */\n      tag_234\n        /* \"--CODEGEN--\":575:580   */\n      dup2\n        /* \"--CODEGEN--\":548:581   */\n      tag_235\n      jump\t// in\n    tag_234:\n        /* \"--CODEGEN--\":508:586   */\n      swap3\n      swap2\n      pop\n      pop\n      jump\t// out\n        /* \"--CODEGEN--\":593:1171   */\n    tag_41:\n      0x00\n      dup1\n        /* \"--CODEGEN--\":734:736   */\n      0x40\n        /* \"--CODEGEN--\":722:731   */\n      dup4\n        /* \"--CODEGEN--\":713:720   */\n      dup6\n        /* \"--CODEGEN--\":709:732   */\n      sub\n        /* \"--CODEGEN--\":705:737   */\n      slt\n        /* \"--CODEGEN--\":702:704   */\n      iszero\n      tag_237\n      jumpi\n        /* \"--CODEGEN--\":750:751   */\n      0x00\n        /* \"--CODEGEN--\":747:748   */\n      dup1\n        /* \"--CODEGEN--\":740:752   */\n      revert\n        /* \"--CODEGEN--\":702:704   */\n    tag_237:\n        /* \"--CODEGEN--\":813:814   */\n      0x00\n        /* \"--CODEGEN--\":802:811   */\n      dup4\n        /* \"--CODEGEN--\":798:815   */\n      add\n        /* \"--CODEGEN--\":785:816   */\n      calldataload\n        /* \"--CODEGEN--\":836:854   */\n      0xffffffffffffffff\n        /* \"--CODEGEN--\":828:834   */\n      dup2\n        /* \"--CODEGEN--\":825:855   */\n      gt\n        /* \"--CODEGEN--\":822:824   */\n      iszero\n      tag_238\n      jumpi\n        /* \"--CODEGEN--\":868:869   */\n      0x00\n        /* \"--CODEGEN--\":865:866   */\n      dup1\n        /* \"--CODEGEN--\":858:870   */\n      revert\n        /* \"--CODEGEN--\":822:824   */\n    tag_238:\n        /* \"--CODEGEN--\":888:951   */\n      tag_239\n        /* \"--CODEGEN--\":943:950   */\n      dup6\n        /* \"--CODEGEN--\":934:940   */\n      dup3\n        /* \"--CODEGEN--\":923:932   */\n      dup7\n        /* \"--CODEGEN--\":919:941   */\n      add\n        /* \"--CODEGEN--\":888:951   */\n      tag_222\n      jump\t// in\n    tag_239:\n        /* \"--CODEGEN--\":878:951   */\n      swap3\n      pop\n        /* \"--CODEGEN--\":764:957   */\n      pop\n        /* \"--CODEGEN--\":1016:1018   */\n      0x20\n        /* \"--CODEGEN--\":1005:1014   */\n      dup4\n        /* \"--CODEGEN--\":1001:1019   */\n      add\n        /* \"--CODEGEN--\":988:1020   */\n      calldataload\n        /* \"--CODEGEN--\":1040:1058   */\n      0xffffffffffffffff\n        /* \"--CODEGEN--\":1032:1038   */\n      dup2\n        /* \"--CODEGEN--\":1029:1059   */\n      gt\n        /* \"--CODEGEN--\":1026:1028   */\n      iszero\n      tag_240\n      jumpi\n        /* \"--CODEGEN--\":1072:1073   */\n      0x00\n        /* \"--CODEGEN--\":1069:1070   */\n      dup1\n        /* \"--CODEGEN--\":1062:1074   */\n      revert\n        /* \"--CODEGEN--\":1026:1028   */\n    tag_240:\n        /* \"--CODEGEN--\":1092:1155   */\n      tag_241\n        /* \"--CODEGEN--\":1147:1154   */\n      dup6\n        /* \"--CODEGEN--\":1138:1144   */\n      dup3\n        /* \"--CODEGEN--\":1127:1136   */\n      dup7\n        /* \"--CODEGEN--\":1123:1145   */\n      add\n        /* \"--CODEGEN--\":1092:1155   */\n      tag_222\n      jump\t// in\n    tag_241:\n        /* \"--CODEGEN--\":1082:1155   */\n      swap2\n      pop\n        /* \"--CODEGEN--\":967:1161   */\n      pop\n        /* \"--CODEGEN--\":696:1171   */\n      swap3\n      pop\n      swap3\n      swap1\n      pop\n      jump\t// out\n        /* \"--CODEGEN--\":1178:1419   */\n    tag_35:\n      0x00\n        /* \"--CODEGEN--\":1282:1284   */\n      0x20\n        /* \"--CODEGEN--\":1270:1279   */\n      dup3\n        /* \"--CODEGEN--\":1261:1268   */\n      dup5\n        /* \"--CODEGEN--\":1257:1280   */\n      sub\n        /* \"--CODEGEN--\":1253:1285   */\n      slt\n        /* \"--CODEGEN--\":1250:1252   */\n      iszero\n      tag_243\n      jumpi\n        /* \"--CODEGEN--\":1298:1299   */\n      0x00\n        /* \"--CODEGEN--\":1295:1296   */\n      dup1\n        /* \"--CODEGEN--\":1288:1300   */\n      revert\n        /* \"--CODEGEN--\":1250:1252   */\n    tag_243:\n        /* \"--CODEGEN--\":1333:1334   */\n      0x00\n        /* \"--CODEGEN--\":1350:1403   */\n      tag_244\n        /* \"--CODEGEN--\":1395:1402   */\n      dup5\n        /* \"--CODEGEN--\":1386:1392   */\n      dup3\n        /* \"--CODEGEN--\":1375:1384   */\n      dup6\n        /* \"--CODEGEN--\":1371:1393   */\n      add\n        /* \"--CODEGEN--\":1350:1403   */\n      tag_232\n      jump\t// in\n    tag_244:\n        /* \"--CODEGEN--\":1340:1403   */\n      swap2\n      pop\n        /* \"--CODEGEN--\":1312:1409   */\n      pop\n        /* \"--CODEGEN--\":1244:1419   */\n      swap3\n      swap2\n      pop\n      pop\n      jump\t// out\n        /* \"--CODEGEN--\":1426:1898   */\n    tag_19:\n      0x00\n      dup1\n        /* \"--CODEGEN--\":1557:1559   */\n      0x40\n        /* \"--CODEGEN--\":1545:1554   */\n      dup4\n        /* \"--CODEGEN--\":1536:1543   */\n      dup6\n        /* \"--CODEGEN--\":1532:1555   */\n      sub\n        /* \"--CODEGEN--\":1528:1560   */\n      slt\n        /* \"--CODEGEN--\":1525:1527   */\n      iszero\n      tag_246\n      jumpi\n        /* \"--CODEGEN--\":1573:1574   */\n      0x00\n        /* \"--CODEGEN--\":1570:1571   */\n      dup1\n        /* \"--CODEGEN--\":1563:1575   */\n      revert\n        /* \"--CODEGEN--\":1525:1527   */\n    tag_246:\n        /* \"--CODEGEN--\":1608:1609   */\n      0x00\n        /* \"--CODEGEN--\":1625:1678   */\n      tag_247\n        /* \"--CODEGEN--\":1670:1677   */\n      dup6\n        /* \"--CODEGEN--\":1661:1667   */\n      dup3\n        /* \"--CODEGEN--\":1650:1659   */\n      dup7\n        /* \"--CODEGEN--\":1646:1668   */\n      add\n        /* \"--CODEGEN--\":1625:1678   */\n      tag_232\n      jump\t// in\n    tag_247:\n        /* \"--CODEGEN--\":1615:1678   */\n      swap3\n      pop\n        /* \"--CODEGEN--\":1587:1684   */\n      pop\n        /* \"--CODEGEN--\":1743:1745   */\n      0x20\n        /* \"--CODEGEN--\":1732:1741   */\n      dup4\n        /* \"--CODEGEN--\":1728:1746   */\n      add\n        /* \"--CODEGEN--\":1715:1747   */\n      calldataload\n        /* \"--CODEGEN--\":1767:1785   */\n      0xffffffffffffffff\n        /* \"--CODEGEN--\":1759:1765   */\n      dup2\n        /* \"--CODEGEN--\":1756:1786   */\n      gt\n        /* \"--CODEGEN--\":1753:1755   */\n      iszero\n      tag_248\n      jumpi\n        /* \"--CODEGEN--\":1799:1800   */\n      0x00\n        /* \"--CODEGEN--\":1796:1797   */\n      dup1\n        /* \"--CODEGEN--\":1789:1801   */\n      revert\n        /* \"--CODEGEN--\":1753:1755   */\n    tag_248:\n        /* \"--CODEGEN--\":1819:1882   */\n      tag_249\n        /* \"--CODEGEN--\":1874:1881   */\n      dup6\n        /* \"--CODEGEN--\":1865:1871   */\n      dup3\n        /* \"--CODEGEN--\":1854:1863   */\n      dup7\n        /* \"--CODEGEN--\":1850:1872   */\n      add\n        /* \"--CODEGEN--\":1819:1882   */\n      tag_222\n      jump\t// in\n    tag_249:\n        /* \"--CODEGEN--\":1809:1882   */\n      swap2\n      pop\n        /* \"--CODEGEN--\":1694:1888   */\n      pop\n        /* \"--CODEGEN--\":1519:1898   */\n      swap3\n      pop\n      swap3\n      swap1\n      pop\n      jump\t// out\n        /* \"--CODEGEN--\":1905:2608   */\n    tag_45:\n      0x00\n      dup1\n      0x00\n        /* \"--CODEGEN--\":2063:2065   */\n      0x60\n        /* \"--CODEGEN--\":2051:2060   */\n      dup5\n        /* \"--CODEGEN--\":2042:2049   */\n      dup7\n        /* \"--CODEGEN--\":2038:2061   */\n      sub\n        /* \"--CODEGEN--\":2034:2066   */\n      slt\n        /* \"--CODEGEN--\":2031:2033   */\n      iszero\n      tag_251\n      jumpi\n        /* \"--CODEGEN--\":2079:2080   */\n      0x00\n        /* \"--CODEGEN--\":2076:2077   */\n      dup1\n        /* \"--CODEGEN--\":2069:2081   */\n      revert\n        /* \"--CODEGEN--\":2031:2033   */\n    tag_251:\n        /* \"--CODEGEN--\":2114:2115   */\n      0x00\n        /* \"--CODEGEN--\":2131:2184   */\n      tag_252\n        /* \"--CODEGEN--\":2176:2183   */\n      dup7\n        /* \"--CODEGEN--\":2167:2173   */\n      dup3\n        /* \"--CODEGEN--\":2156:2165   */\n      dup8\n        /* \"--CODEGEN--\":2152:2174   */\n      add\n        /* \"--CODEGEN--\":2131:2184   */\n      tag_232\n      jump\t// in\n    tag_252:\n        /* \"--CODEGEN--\":2121:2184   */\n      swap4\n      pop\n        /* \"--CODEGEN--\":2093:2190   */\n      pop\n        /* \"--CODEGEN--\":2249:2251   */\n      0x20\n        /* \"--CODEGEN--\":2238:2247   */\n      dup5\n        /* \"--CODEGEN--\":2234:2252   */\n      add\n        /* \"--CODEGEN--\":2221:2253   */\n      calldataload\n        /* \"--CODEGEN--\":2273:2291   */\n      0xffffffffffffffff\n        /* \"--CODEGEN--\":2265:2271   */\n      dup2\n        /* \"--CODEGEN--\":2262:2292   */\n      gt\n        /* \"--CODEGEN--\":2259:2261   */\n      iszero\n      tag_253\n      jumpi\n        /* \"--CODEGEN--\":2305:2306   */\n      0x00\n        /* \"--CODEGEN--\":2302:2303   */\n      dup1\n        /* \"--CODEGEN--\":2295:2307   */\n      revert\n        /* \"--CODEGEN--\":2259:2261   */\n    tag_253:\n        /* \"--CODEGEN--\":2325:2388   */\n      tag_254\n        /* \"--CODEGEN--\":2380:2387   */\n      dup7\n        /* \"--CODEGEN--\":2371:2377   */\n      dup3\n        /* \"--CODEGEN--\":2360:2369   */\n      dup8\n        /* \"--CODEGEN--\":2356:2378   */\n      add\n        /* \"--CODEGEN--\":2325:2388   */\n      tag_222\n      jump\t// in\n    tag_254:\n        /* \"--CODEGEN--\":2315:2388   */\n      swap3\n      pop\n        /* \"--CODEGEN--\":2200:2394   */\n      pop\n        /* \"--CODEGEN--\":2453:2455   */\n      0x40\n        /* \"--CODEGEN--\":2442:2451   */\n      dup5\n        /* \"--CODEGEN--\":2438:2456   */\n      add\n        /* \"--CODEGEN--\":2425:2457   */\n      calldataload\n        /* \"--CODEGEN--\":2477:2495   */\n      0xffffffffffffffff\n        /* \"--CODEGEN--\":2469:2475   */\n      dup2\n        /* \"--CODEGEN--\":2466:2496   */\n      gt\n        /* \"--CODEGEN--\":2463:2465   */\n      iszero\n      tag_255\n      jumpi\n        /* \"--CODEGEN--\":2509:2510   */\n      0x00\n        /* \"--CODEGEN--\":2506:2507   */\n      dup1\n        /* \"--CODEGEN--\":2499:2511   */\n      revert\n        /* \"--CODEGEN--\":2463:2465   */\n    tag_255:\n        /* \"--CODEGEN--\":2529:2592   */\n      tag_256\n        /* \"--CODEGEN--\":2584:2591   */\n      dup7\n        /* \"--CODEGEN--\":2575:2581   */\n      dup3\n        /* \"--CODEGEN--\":2564:2573   */\n      dup8\n        /* \"--CODEGEN--\":2560:2582   */\n      add\n        /* \"--CODEGEN--\":2529:2592   */\n      tag_222\n      jump\t// in\n    tag_256:\n        /* \"--CODEGEN--\":2519:2592   */\n      swap2\n      pop\n        /* \"--CODEGEN--\":2404:2598   */\n      pop\n        /* \"--CODEGEN--\":2025:2608   */\n      swap3\n      pop\n      swap3\n      pop\n      swap3\n      jump\t// out\n        /* \"--CODEGEN--\":2616:2809   */\n    tag_257:\n      0x00\n        /* \"--CODEGEN--\":2737:2803   */\n      tag_259\n        /* \"--CODEGEN--\":2799:2802   */\n      dup4\n        /* \"--CODEGEN--\":2791:2797   */\n      dup4\n        /* \"--CODEGEN--\":2737:2803   */\n      tag_260\n      jump\t// in\n    tag_259:\n        /* \"--CODEGEN--\":2723:2803   */\n      swap1\n      pop\n        /* \"--CODEGEN--\":2716:2809   */\n      swap3\n      swap2\n      pop\n      pop\n      jump\t// out\n        /* \"--CODEGEN--\":2818:2991   */\n    tag_261:\n      0x00\n        /* \"--CODEGEN--\":2905:2951   */\n      tag_263\n        /* \"--CODEGEN--\":2947:2950   */\n      dup4\n        /* \"--CODEGEN--\":2939:2945   */\n      dup4\n        /* \"--CODEGEN--\":2905:2951   */\n      tag_264\n      jump\t// in\n    tag_263:\n        /* \"--CODEGEN--\":2980:2984   */\n      0x20\n        /* \"--CODEGEN--\":2975:2978   */\n      dup4\n        /* \"--CODEGEN--\":2971:2985   */\n      add\n        /* \"--CODEGEN--\":2957:2985   */\n      swap1\n      pop\n        /* \"--CODEGEN--\":2898:2991   */\n      swap3\n      swap2\n      pop\n      pop\n      jump\t// out\n        /* \"--CODEGEN--\":3028:3956   */\n    tag_265:\n      0x00\n        /* \"--CODEGEN--\":3193:3257   */\n      tag_267\n        /* \"--CODEGEN--\":3251:3256   */\n      dup3\n        /* \"--CODEGEN--\":3193:3257   */\n      tag_268\n      jump\t// in\n    tag_267:\n        /* \"--CODEGEN--\":3270:3366   */\n      tag_269\n        /* \"--CODEGEN--\":3359:3365   */\n      dup2\n        /* \"--CODEGEN--\":3354:3357   */\n      dup6\n        /* \"--CODEGEN--\":3270:3366   */\n      tag_270\n      jump\t// in\n    tag_269:\n        /* \"--CODEGEN--\":3263:3366   */\n      swap4\n      pop\n        /* \"--CODEGEN--\":3389:3392   */\n      dup4\n        /* \"--CODEGEN--\":3431:3435   */\n      0x20\n        /* \"--CODEGEN--\":3423:3429   */\n      dup3\n        /* \"--CODEGEN--\":3419:3436   */\n      mul\n        /* \"--CODEGEN--\":3414:3417   */\n      dup6\n        /* \"--CODEGEN--\":3410:3437   */\n      add\n        /* \"--CODEGEN--\":3458:3524   */\n      tag_271\n        /* \"--CODEGEN--\":3518:3523   */\n      dup6\n        /* \"--CODEGEN--\":3458:3524   */\n      tag_272\n      jump\t// in\n    tag_271:\n        /* \"--CODEGEN--\":3544:3551   */\n      dup1\n        /* \"--CODEGEN--\":3572:3573   */\n      0x00\n        /* \"--CODEGEN--\":3557:3917   */\n    tag_273:\n        /* \"--CODEGEN--\":3582:3588   */\n      dup6\n        /* \"--CODEGEN--\":3579:3580   */\n      dup2\n        /* \"--CODEGEN--\":3576:3589   */\n      lt\n        /* \"--CODEGEN--\":3557:3917   */\n      iszero\n      tag_275\n      jumpi\n        /* \"--CODEGEN--\":3644:3653   */\n      dup5\n        /* \"--CODEGEN--\":3638:3642   */\n      dup5\n        /* \"--CODEGEN--\":3634:3654   */\n      sub\n        /* \"--CODEGEN--\":3629:3632   */\n      dup10\n        /* \"--CODEGEN--\":3622:3655   */\n      mstore\n        /* \"--CODEGEN--\":3689:3695   */\n      dup2\n        /* \"--CODEGEN--\":3683:3696   */\n      mload\n        /* \"--CODEGEN--\":3711:3795   */\n      tag_276\n        /* \"--CODEGEN--\":3790:3794   */\n      dup6\n        /* \"--CODEGEN--\":3775:3788   */\n      dup3\n        /* \"--CODEGEN--\":3711:3795   */\n      tag_257\n      jump\t// in\n    tag_276:\n        /* \"--CODEGEN--\":3703:3795   */\n      swap5\n      pop\n        /* \"--CODEGEN--\":3812:3882   */\n      tag_277\n        /* \"--CODEGEN--\":3875:3881   */\n      dup4\n        /* \"--CODEGEN--\":3812:3882   */\n      tag_278\n      jump\t// in\n    tag_277:\n        /* \"--CODEGEN--\":3802:3882   */\n      swap3\n      pop\n        /* \"--CODEGEN--\":3905:3909   */\n      0x20\n        /* \"--CODEGEN--\":3900:3903   */\n      dup11\n        /* \"--CODEGEN--\":3896:3910   */\n      add\n        /* \"--CODEGEN--\":3889:3910   */\n      swap10\n      pop\n        /* \"--CODEGEN--\":3614:3917   */\n      pop\n        /* \"--CODEGEN--\":3604:3605   */\n      0x01\n        /* \"--CODEGEN--\":3601:3602   */\n      dup2\n        /* \"--CODEGEN--\":3597:3606   */\n      add\n        /* \"--CODEGEN--\":3592:3606   */\n      swap1\n      pop\n        /* \"--CODEGEN--\":3557:3917   */\n      jump(tag_273)\n    tag_275:\n        /* \"--CODEGEN--\":3561:3575   */\n      pop\n        /* \"--CODEGEN--\":3930:3934   */\n      dup3\n        /* \"--CODEGEN--\":3923:3934   */\n      swap8\n      pop\n        /* \"--CODEGEN--\":3947:3950   */\n      dup8\n        /* \"--CODEGEN--\":3940:3950   */\n      swap6\n      pop\n        /* \"--CODEGEN--\":3172:3956   */\n      pop\n      pop\n      pop\n      pop\n      pop\n      swap3\n      swap2\n      pop\n      pop\n      jump\t// out\n        /* \"--CODEGEN--\":3995:4685   */\n    tag_279:\n      0x00\n        /* \"--CODEGEN--\":4140:4194   */\n      tag_281\n        /* \"--CODEGEN--\":4188:4193   */\n      dup3\n        /* \"--CODEGEN--\":4140:4194   */\n      tag_282\n      jump\t// in\n    tag_281:\n        /* \"--CODEGEN--\":4207:4293   */\n      tag_283\n        /* \"--CODEGEN--\":4286:4292   */\n      dup2\n        /* \"--CODEGEN--\":4281:4284   */\n      dup6\n        /* \"--CODEGEN--\":4207:4293   */\n      tag_284\n      jump\t// in\n    tag_283:\n        /* \"--CODEGEN--\":4200:4293   */\n      swap4\n      pop\n        /* \"--CODEGEN--\":4314:4370   */\n      tag_285\n        /* \"--CODEGEN--\":4364:4369   */\n      dup4\n        /* \"--CODEGEN--\":4314:4370   */\n      tag_286\n      jump\t// in\n    tag_285:\n        /* \"--CODEGEN--\":4390:4397   */\n      dup1\n        /* \"--CODEGEN--\":4418:4419   */\n      0x00\n        /* \"--CODEGEN--\":4403:4663   */\n    tag_287:\n        /* \"--CODEGEN--\":4428:4434   */\n      dup4\n        /* \"--CODEGEN--\":4425:4426   */\n      dup2\n        /* \"--CODEGEN--\":4422:4435   */\n      lt\n        /* \"--CODEGEN--\":4403:4663   */\n      iszero\n      tag_289\n      jumpi\n        /* \"--CODEGEN--\":4495:4501   */\n      dup2\n        /* \"--CODEGEN--\":4489:4502   */\n      mload\n        /* \"--CODEGEN--\":4516:4579   */\n      tag_290\n        /* \"--CODEGEN--\":4575:4578   */\n      dup9\n        /* \"--CODEGEN--\":4560:4573   */\n      dup3\n        /* \"--CODEGEN--\":4516:4579   */\n      tag_261\n      jump\t// in\n    tag_290:\n        /* \"--CODEGEN--\":4509:4579   */\n      swap8\n      pop\n        /* \"--CODEGEN--\":4596:4656   */\n      tag_291\n        /* \"--CODEGEN--\":4649:4655   */\n      dup4\n        /* \"--CODEGEN--\":4596:4656   */\n      tag_292\n      jump\t// in\n    tag_291:\n        /* \"--CODEGEN--\":4586:4656   */\n      swap3\n      pop\n        /* \"--CODEGEN--\":4460:4663   */\n      pop\n        /* \"--CODEGEN--\":4450:4451   */\n      0x01\n        /* \"--CODEGEN--\":4447:4448   */\n      dup2\n        /* \"--CODEGEN--\":4443:4452   */\n      add\n        /* \"--CODEGEN--\":4438:4452   */\n      swap1\n      pop\n        /* \"--CODEGEN--\":4403:4663   */\n      jump(tag_287)\n    tag_289:\n        /* \"--CODEGEN--\":4407:4421   */\n      pop\n        /* \"--CODEGEN--\":4676:4679   */\n      dup6\n        /* \"--CODEGEN--\":4669:4679   */\n      swap4\n      pop\n        /* \"--CODEGEN--\":4119:4685   */\n      pop\n      pop\n      pop\n      swap3\n      swap2\n      pop\n      pop\n      jump\t// out\n        /* \"--CODEGEN--\":4693:4797   */\n    tag_293:\n        /* \"--CODEGEN--\":4770:4791   */\n      tag_295\n        /* \"--CODEGEN--\":4785:4790   */\n      dup2\n        /* \"--CODEGEN--\":4770:4791   */\n      tag_296\n      jump\t// in\n    tag_295:\n        /* \"--CODEGEN--\":4765:4768   */\n      dup3\n        /* \"--CODEGEN--\":4758:4792   */\n      mstore\n        /* \"--CODEGEN--\":4752:4797   */\n      pop\n      pop\n      jump\t// out\n        /* \"--CODEGEN--\":4804:5131   */\n    tag_260:\n      0x00\n        /* \"--CODEGEN--\":4906:4945   */\n      tag_298\n        /* \"--CODEGEN--\":4939:4944   */\n      dup3\n        /* \"--CODEGEN--\":4906:4945   */\n      tag_299\n      jump\t// in\n    tag_298:\n        /* \"--CODEGEN--\":4957:5018   */\n      tag_300\n        /* \"--CODEGEN--\":5011:5017   */\n      dup2\n        /* \"--CODEGEN--\":5006:5009   */\n      dup6\n        /* \"--CODEGEN--\":4957:5018   */\n      tag_301\n      jump\t// in\n    tag_300:\n        /* \"--CODEGEN--\":4950:5018   */\n      swap4\n      pop\n        /* \"--CODEGEN--\":5023:5075   */\n      tag_302\n        /* \"--CODEGEN--\":5068:5074   */\n      dup2\n        /* \"--CODEGEN--\":5063:5066   */\n      dup6\n        /* \"--CODEGEN--\":5056:5060   */\n      0x20\n        /* \"--CODEGEN--\":5049:5054   */\n      dup7\n        /* \"--CODEGEN--\":5045:5061   */\n      add\n        /* \"--CODEGEN--\":5023:5075   */\n      tag_303\n      jump\t// in\n    tag_302:\n        /* \"--CODEGEN--\":5096:5125   */\n      tag_304\n        /* \"--CODEGEN--\":5118:5124   */\n      dup2\n        /* \"--CODEGEN--\":5096:5125   */\n      tag_305\n      jump\t// in\n    tag_304:\n        /* \"--CODEGEN--\":5091:5094   */\n      dup5\n        /* \"--CODEGEN--\":5087:5126   */\n      add\n        /* \"--CODEGEN--\":5080:5126   */\n      swap2\n      pop\n        /* \"--CODEGEN--\":4886:5131   */\n      pop\n      swap3\n      swap2\n      pop\n      pop\n      jump\t// out\n        /* \"--CODEGEN--\":5138:5498   */\n    tag_306:\n      0x00\n        /* \"--CODEGEN--\":5268:5307   */\n      tag_308\n        /* \"--CODEGEN--\":5301:5306   */\n      dup3\n        /* \"--CODEGEN--\":5268:5307   */\n      tag_299\n      jump\t// in\n    tag_308:\n        /* \"--CODEGEN--\":5319:5408   */\n      tag_309\n        /* \"--CODEGEN--\":5401:5407   */\n      dup2\n        /* \"--CODEGEN--\":5396:5399   */\n      dup6\n        /* \"--CODEGEN--\":5319:5408   */\n      tag_310\n      jump\t// in\n    tag_309:\n        /* \"--CODEGEN--\":5312:5408   */\n      swap4\n      pop\n        /* \"--CODEGEN--\":5413:5465   */\n      tag_311\n        /* \"--CODEGEN--\":5458:5464   */\n      dup2\n        /* \"--CODEGEN--\":5453:5456   */\n      dup6\n        /* \"--CODEGEN--\":5446:5450   */\n      0x20\n        /* \"--CODEGEN--\":5439:5444   */\n      dup7\n        /* \"--CODEGEN--\":5435:5451   */\n      add\n        /* \"--CODEGEN--\":5413:5465   */\n      tag_303\n      jump\t// in\n    tag_311:\n        /* \"--CODEGEN--\":5486:5492   */\n      dup1\n        /* \"--CODEGEN--\":5481:5484   */\n      dup5\n        /* \"--CODEGEN--\":5477:5493   */\n      add\n        /* \"--CODEGEN--\":5470:5493   */\n      swap2\n      pop\n        /* \"--CODEGEN--\":5248:5498   */\n      pop\n      swap3\n      swap2\n      pop\n      pop\n      jump\t// out\n        /* \"--CODEGEN--\":5530:6414   */\n    tag_312:\n      0x00\n        /* \"--CODEGEN--\":5667:5672   */\n      dup2\n        /* \"--CODEGEN--\":5661:5673   */\n      sload\n        /* \"--CODEGEN--\":5701:5702   */\n      0x01\n        /* \"--CODEGEN--\":5690:5699   */\n      dup2\n        /* \"--CODEGEN--\":5686:5703   */\n      and\n        /* \"--CODEGEN--\":5714:5715   */\n      0x00\n        /* \"--CODEGEN--\":5709:5977   */\n      dup2\n      eq\n      tag_315\n      jumpi\n        /* \"--CODEGEN--\":5988:5989   */\n      0x01\n        /* \"--CODEGEN--\":5983:6408   */\n      dup2\n      eq\n      tag_316\n      jumpi\n        /* \"--CODEGEN--\":5679:6408   */\n      jump(tag_314)\n        /* \"--CODEGEN--\":5709:5977   */\n    tag_315:\n        /* \"--CODEGEN--\":5787:5791   */\n      0x7f\n        /* \"--CODEGEN--\":5783:5784   */\n      0x02\n        /* \"--CODEGEN--\":5772:5781   */\n      dup4\n        /* \"--CODEGEN--\":5768:5785   */\n      div\n        /* \"--CODEGEN--\":5764:5792   */\n      and\n        /* \"--CODEGEN--\":5806:5895   */\n      tag_317\n        /* \"--CODEGEN--\":5888:5894   */\n      dup2\n        /* \"--CODEGEN--\":5883:5886   */\n      dup8\n        /* \"--CODEGEN--\":5806:5895   */\n      tag_310\n      jump\t// in\n    tag_317:\n        /* \"--CODEGEN--\":5799:5895   */\n      swap6\n      pop\n        /* \"--CODEGEN--\":5933:5937   */\n      0xff\n        /* \"--CODEGEN--\":5929:5938   */\n      not\n        /* \"--CODEGEN--\":5918:5927   */\n      dup4\n        /* \"--CODEGEN--\":5914:5939   */\n      and\n        /* \"--CODEGEN--\":5909:5912   */\n      dup7\n        /* \"--CODEGEN--\":5902:5940   */\n      mstore\n        /* \"--CODEGEN--\":5963:5969   */\n      dup1\n        /* \"--CODEGEN--\":5958:5961   */\n      dup7\n        /* \"--CODEGEN--\":5954:5970   */\n      add\n        /* \"--CODEGEN--\":5947:5970   */\n      swap4\n      pop\n        /* \"--CODEGEN--\":5716:5977   */\n      pop\n        /* \"--CODEGEN--\":5709:5977   */\n      jump(tag_314)\n        /* \"--CODEGEN--\":5983:6408   */\n    tag_316:\n        /* \"--CODEGEN--\":6052:6053   */\n      0x02\n        /* \"--CODEGEN--\":6041:6050   */\n      dup3\n        /* \"--CODEGEN--\":6037:6054   */\n      div\n        /* \"--CODEGEN--\":6068:6157   */\n      tag_318\n        /* \"--CODEGEN--\":6150:6156   */\n      dup2\n        /* \"--CODEGEN--\":6145:6148   */\n      dup8\n        /* \"--CODEGEN--\":6068:6157   */\n      tag_310\n      jump\t// in\n    tag_318:\n        /* \"--CODEGEN--\":6061:6157   */\n      swap6\n      pop\n        /* \"--CODEGEN--\":6179:6217   */\n      tag_319\n        /* \"--CODEGEN--\":6211:6216   */\n      dup6\n        /* \"--CODEGEN--\":6179:6217   */\n      tag_320\n      jump\t// in\n    tag_319:\n        /* \"--CODEGEN--\":6233:6234   */\n      0x00\n        /* \"--CODEGEN--\":6241:6371   */\n    tag_321:\n        /* \"--CODEGEN--\":6255:6261   */\n      dup3\n        /* \"--CODEGEN--\":6252:6253   */\n      dup2\n        /* \"--CODEGEN--\":6249:6262   */\n      lt\n        /* \"--CODEGEN--\":6241:6371   */\n      iszero\n      tag_323\n      jumpi\n        /* \"--CODEGEN--\":6320:6327   */\n      dup2\n        /* \"--CODEGEN--\":6314:6328   */\n      sload\n        /* \"--CODEGEN--\":6310:6311   */\n      dup2\n        /* \"--CODEGEN--\":6305:6308   */\n      dup10\n        /* \"--CODEGEN--\":6301:6312   */\n      add\n        /* \"--CODEGEN--\":6294:6329   */\n      mstore\n        /* \"--CODEGEN--\":6361:6362   */\n      0x01\n        /* \"--CODEGEN--\":6352:6359   */\n      dup3\n        /* \"--CODEGEN--\":6348:6363   */\n      add\n        /* \"--CODEGEN--\":6337:6363   */\n      swap2\n      pop\n        /* \"--CODEGEN--\":6277:6281   */\n      0x20\n        /* \"--CODEGEN--\":6274:6275   */\n      dup2\n        /* \"--CODEGEN--\":6270:6282   */\n      add\n        /* \"--CODEGEN--\":6265:6282   */\n      swap1\n      pop\n        /* \"--CODEGEN--\":6241:6371   */\n      jump(tag_321)\n    tag_323:\n        /* \"--CODEGEN--\":6394:6400   */\n      dup3\n        /* \"--CODEGEN--\":6389:6392   */\n      dup9\n        /* \"--CODEGEN--\":6385:6401   */\n      add\n        /* \"--CODEGEN--\":6378:6401   */\n      swap6\n      pop\n        /* \"--CODEGEN--\":5990:6408   */\n      pop\n      pop\n      pop\n        /* \"--CODEGEN--\":5679:6408   */\n    tag_314:\n      pop\n        /* \"--CODEGEN--\":5637:6414   */\n      pop\n      swap3\n      swap2\n      pop\n      pop\n      jump\t// out\n        /* \"--CODEGEN--\":6422:6525   */\n    tag_264:\n        /* \"--CODEGEN--\":6495:6519   */\n      tag_325\n        /* \"--CODEGEN--\":6513:6518   */\n      dup2\n        /* \"--CODEGEN--\":6495:6519   */\n      tag_326\n      jump\t// in\n    tag_325:\n        /* \"--CODEGEN--\":6490:6493   */\n      dup3\n        /* \"--CODEGEN--\":6483:6520   */\n      mstore\n        /* \"--CODEGEN--\":6477:6525   */\n      pop\n      pop\n      jump\t// out\n        /* \"--CODEGEN--\":6532:6645   */\n    tag_327:\n        /* \"--CODEGEN--\":6615:6639   */\n      tag_329\n        /* \"--CODEGEN--\":6633:6638   */\n      dup2\n        /* \"--CODEGEN--\":6615:6639   */\n      tag_326\n      jump\t// in\n    tag_329:\n        /* \"--CODEGEN--\":6610:6613   */\n      dup3\n        /* \"--CODEGEN--\":6603:6640   */\n      mstore\n        /* \"--CODEGEN--\":6597:6645   */\n      pop\n      pop\n      jump\t// out\n        /* \"--CODEGEN--\":6652:6927   */\n    tag_79:\n      0x00\n        /* \"--CODEGEN--\":6807:6902   */\n      tag_331\n        /* \"--CODEGEN--\":6898:6901   */\n      dup3\n        /* \"--CODEGEN--\":6889:6895   */\n      dup5\n        /* \"--CODEGEN--\":6807:6902   */\n      tag_306\n      jump\t// in\n    tag_331:\n        /* \"--CODEGEN--\":6800:6902   */\n      swap2\n      pop\n        /* \"--CODEGEN--\":6919:6922   */\n      dup2\n        /* \"--CODEGEN--\":6912:6922   */\n      swap1\n      pop\n        /* \"--CODEGEN--\":6788:6927   */\n      swap3\n      swap2\n      pop\n      pop\n      jump\t// out\n        /* \"--CODEGEN--\":6934:7203   */\n    tag_83:\n      0x00\n        /* \"--CODEGEN--\":7086:7178   */\n      tag_333\n        /* \"--CODEGEN--\":7174:7177   */\n      dup3\n        /* \"--CODEGEN--\":7165:7171   */\n      dup5\n        /* \"--CODEGEN--\":7086:7178   */\n      tag_312\n      jump\t// in\n    tag_333:\n        /* \"--CODEGEN--\":7079:7178   */\n      swap2\n      pop\n        /* \"--CODEGEN--\":7195:7198   */\n      dup2\n        /* \"--CODEGEN--\":7188:7198   */\n      swap1\n      pop\n        /* \"--CODEGEN--\":7067:7203   */\n      swap3\n      swap2\n      pop\n      pop\n      jump\t// out\n        /* \"--CODEGEN--\":7210:7620   */\n    tag_38:\n      0x00\n        /* \"--CODEGEN--\":7407:7409   */\n      0x20\n        /* \"--CODEGEN--\":7396:7405   */\n      dup3\n        /* \"--CODEGEN--\":7392:7410   */\n      add\n        /* \"--CODEGEN--\":7384:7410   */\n      swap1\n      pop\n        /* \"--CODEGEN--\":7457:7466   */\n      dup2\n        /* \"--CODEGEN--\":7451:7455   */\n      dup2\n        /* \"--CODEGEN--\":7447:7467   */\n      sub\n        /* \"--CODEGEN--\":7443:7444   */\n      0x00\n        /* \"--CODEGEN--\":7432:7441   */\n      dup4\n        /* \"--CODEGEN--\":7428:7445   */\n      add\n        /* \"--CODEGEN--\":7421:7468   */\n      mstore\n        /* \"--CODEGEN--\":7482:7610   */\n      tag_335\n        /* \"--CODEGEN--\":7605:7609   */\n      dup2\n        /* \"--CODEGEN--\":7596:7602   */\n      dup5\n        /* \"--CODEGEN--\":7482:7610   */\n      tag_265\n      jump\t// in\n    tag_335:\n        /* \"--CODEGEN--\":7474:7610   */\n      swap1\n      pop\n        /* \"--CODEGEN--\":7378:7620   */\n      swap3\n      swap2\n      pop\n      pop\n      jump\t// out\n        /* \"--CODEGEN--\":7627:8296   */\n    tag_32:\n      0x00\n        /* \"--CODEGEN--\":7902:7904   */\n      0x40\n        /* \"--CODEGEN--\":7891:7900   */\n      dup3\n        /* \"--CODEGEN--\":7887:7905   */\n      add\n        /* \"--CODEGEN--\":7879:7905   */\n      swap1\n      pop\n        /* \"--CODEGEN--\":7952:7961   */\n      dup2\n        /* \"--CODEGEN--\":7946:7950   */\n      dup2\n        /* \"--CODEGEN--\":7942:7962   */\n      sub\n        /* \"--CODEGEN--\":7938:7939   */\n      0x00\n        /* \"--CODEGEN--\":7927:7936   */\n      dup4\n        /* \"--CODEGEN--\":7923:7940   */\n      add\n        /* \"--CODEGEN--\":7916:7963   */\n      mstore\n        /* \"--CODEGEN--\":7977:8085   */\n      tag_337\n        /* \"--CODEGEN--\":8080:8084   */\n      dup2\n        /* \"--CODEGEN--\":8071:8077   */\n      dup6\n        /* \"--CODEGEN--\":7977:8085   */\n      tag_279\n      jump\t// in\n    tag_337:\n        /* \"--CODEGEN--\":7969:8085   */\n      swap1\n      pop\n        /* \"--CODEGEN--\":8133:8142   */\n      dup2\n        /* \"--CODEGEN--\":8127:8131   */\n      dup2\n        /* \"--CODEGEN--\":8123:8143   */\n      sub\n        /* \"--CODEGEN--\":8118:8120   */\n      0x20\n        /* \"--CODEGEN--\":8107:8116   */\n      dup4\n        /* \"--CODEGEN--\":8103:8121   */\n      add\n        /* \"--CODEGEN--\":8096:8144   */\n      mstore\n        /* \"--CODEGEN--\":8158:8286   */\n      tag_338\n        /* \"--CODEGEN--\":8281:8285   */\n      dup2\n        /* \"--CODEGEN--\":8272:8278   */\n      dup5\n        /* \"--CODEGEN--\":8158:8286   */\n      tag_265\n      jump\t// in\n    tag_338:\n        /* \"--CODEGEN--\":8150:8286   */\n      swap1\n      pop\n        /* \"--CODEGEN--\":7873:8296   */\n      swap4\n      swap3\n      pop\n      pop\n      pop\n      jump\t// out\n        /* \"--CODEGEN--\":8303:8513   */\n    tag_28:\n      0x00\n        /* \"--CODEGEN--\":8424:8426   */\n      0x20\n        /* \"--CODEGEN--\":8413:8422   */\n      dup3\n        /* \"--CODEGEN--\":8409:8427   */\n      add\n        /* \"--CODEGEN--\":8401:8427   */\n      swap1\n      pop\n        /* \"--CODEGEN--\":8438:8503   */\n      tag_340\n        /* \"--CODEGEN--\":8500:8501   */\n      0x00\n        /* \"--CODEGEN--\":8489:8498   */\n      dup4\n        /* \"--CODEGEN--\":8485:8502   */\n      add\n        /* \"--CODEGEN--\":8476:8482   */\n      dup5\n        /* \"--CODEGEN--\":8438:8503   */\n      tag_293\n      jump\t// in\n    tag_340:\n        /* \"--CODEGEN--\":8395:8513   */\n      swap3\n      swap2\n      pop\n      pop\n      jump\t// out\n        /* \"--CODEGEN--\":8520:8742   */\n    tag_16:\n      0x00\n        /* \"--CODEGEN--\":8647:8649   */\n      0x20\n        /* \"--CODEGEN--\":8636:8645   */\n      dup3\n        /* \"--CODEGEN--\":8632:8650   */\n      add\n        /* \"--CODEGEN--\":8624:8650   */\n      swap1\n      pop\n        /* \"--CODEGEN--\":8661:8732   */\n      tag_342\n        /* \"--CODEGEN--\":8729:8730   */\n      0x00\n        /* \"--CODEGEN--\":8718:8727   */\n      dup4\n        /* \"--CODEGEN--\":8714:8731   */\n      add\n        /* \"--CODEGEN--\":8705:8711   */\n      dup5\n        /* \"--CODEGEN--\":8661:8732   */\n      tag_327\n      jump\t// in\n    tag_342:\n        /* \"--CODEGEN--\":8618:8742   */\n      swap3\n      swap2\n      pop\n      pop\n      jump\t// out\n        /* \"--CODEGEN--\":8749:9005   */\n    tag_228:\n      0x00\n        /* \"--CODEGEN--\":8811:8813   */\n      0x40\n        /* \"--CODEGEN--\":8805:8814   */\n      mload\n        /* \"--CODEGEN--\":8795:8814   */\n      swap1\n      pop\n        /* \"--CODEGEN--\":8849:8853   */\n      dup2\n        /* \"--CODEGEN--\":8841:8847   */\n      dup2\n        /* \"--CODEGEN--\":8837:8854   */\n      add\n        /* \"--CODEGEN--\":8948:8954   */\n      dup2\n        /* \"--CODEGEN--\":8936:8946   */\n      dup2\n        /* \"--CODEGEN--\":8933:8955   */\n      lt\n        /* \"--CODEGEN--\":8912:8930   */\n      0xffffffffffffffff\n        /* \"--CODEGEN--\":8900:8910   */\n      dup3\n        /* \"--CODEGEN--\":8897:8931   */\n      gt\n        /* \"--CODEGEN--\":8894:8956   */\n      or\n        /* \"--CODEGEN--\":8891:8893   */\n      iszero\n      tag_344\n      jumpi\n        /* \"--CODEGEN--\":8969:8970   */\n      0x00\n        /* \"--CODEGEN--\":8966:8967   */\n      dup1\n        /* \"--CODEGEN--\":8959:8971   */\n      revert\n        /* \"--CODEGEN--\":8891:8893   */\n    tag_344:\n        /* \"--CODEGEN--\":8989:8999   */\n      dup1\n        /* \"--CODEGEN--\":8985:8987   */\n      0x40\n        /* \"--CODEGEN--\":8978:9000   */\n      mstore\n        /* \"--CODEGEN--\":8789:9005   */\n      pop\n      swap2\n      swap1\n      pop\n      jump\t// out\n        /* \"--CODEGEN--\":9012:9334   */\n    tag_227:\n      0x00\n        /* \"--CODEGEN--\":9156:9174   */\n      0xffffffffffffffff\n        /* \"--CODEGEN--\":9148:9154   */\n      dup3\n        /* \"--CODEGEN--\":9145:9175   */\n      gt\n        /* \"--CODEGEN--\":9142:9144   */\n      iszero\n      tag_346\n      jumpi\n        /* \"--CODEGEN--\":9188:9189   */\n      0x00\n        /* \"--CODEGEN--\":9185:9186   */\n      dup1\n        /* \"--CODEGEN--\":9178:9190   */\n      revert\n        /* \"--CODEGEN--\":9142:9144   */\n    tag_346:\n        /* \"--CODEGEN--\":9255:9259   */\n      0x1f\n        /* \"--CODEGEN--\":9251:9260   */\n      not\n        /* \"--CODEGEN--\":9244:9248   */\n      0x1f\n        /* \"--CODEGEN--\":9236:9242   */\n      dup4\n        /* \"--CODEGEN--\":9232:9249   */\n      add\n        /* \"--CODEGEN--\":9228:9261   */\n      and\n        /* \"--CODEGEN--\":9220:9261   */\n      swap1\n      pop\n        /* \"--CODEGEN--\":9319:9323   */\n      0x20\n        /* \"--CODEGEN--\":9313:9317   */\n      dup2\n        /* \"--CODEGEN--\":9309:9324   */\n      add\n        /* \"--CODEGEN--\":9301:9324   */\n      swap1\n      pop\n        /* \"--CODEGEN--\":9079:9334   */\n      swap2\n      swap1\n      pop\n      jump\t// out\n        /* \"--CODEGEN--\":9341:9502   */\n    tag_272:\n      0x00\n        /* \"--CODEGEN--\":9437:9440   */\n      dup2\n        /* \"--CODEGEN--\":9429:9440   */\n      swap1\n      pop\n        /* \"--CODEGEN--\":9475:9479   */\n      0x20\n        /* \"--CODEGEN--\":9470:9473   */\n      dup3\n        /* \"--CODEGEN--\":9466:9480   */\n      add\n        /* \"--CODEGEN--\":9458:9480   */\n      swap1\n      pop\n        /* \"--CODEGEN--\":9423:9502   */\n      swap2\n      swap1\n      pop\n      jump\t// out\n        /* \"--CODEGEN--\":9509:9660   */\n    tag_286:\n      0x00\n        /* \"--CODEGEN--\":9595:9598   */\n      dup2\n        /* \"--CODEGEN--\":9587:9598   */\n      swap1\n      pop\n        /* \"--CODEGEN--\":9633:9637   */\n      0x20\n        /* \"--CODEGEN--\":9628:9631   */\n      dup3\n        /* \"--CODEGEN--\":9624:9638   */\n      add\n        /* \"--CODEGEN--\":9616:9638   */\n      swap1\n      pop\n        /* \"--CODEGEN--\":9581:9660   */\n      swap2\n      swap1\n      pop\n      jump\t// out\n        /* \"--CODEGEN--\":9667:9825   */\n    tag_320:\n      0x00\n        /* \"--CODEGEN--\":9735:9738   */\n      dup2\n        /* \"--CODEGEN--\":9727:9738   */\n      swap1\n      pop\n        /* \"--CODEGEN--\":9772:9775   */\n      dup2\n        /* \"--CODEGEN--\":9769:9770   */\n      0x00\n        /* \"--CODEGEN--\":9762:9776   */\n      mstore\n        /* \"--CODEGEN--\":9804:9808   */\n      0x20\n        /* \"--CODEGEN--\":9801:9802   */\n      0x00\n        /* \"--CODEGEN--\":9791:9809   */\n      keccak256\n        /* \"--CODEGEN--\":9783:9809   */\n      swap1\n      pop\n        /* \"--CODEGEN--\":9721:9825   */\n      swap2\n      swap1\n      pop\n      jump\t// out\n        /* \"--CODEGEN--\":9832:9979   */\n    tag_268:\n      0x00\n        /* \"--CODEGEN--\":9951:9956   */\n      dup2\n        /* \"--CODEGEN--\":9945:9957   */\n      mload\n        /* \"--CODEGEN--\":9935:9957   */\n      swap1\n      pop\n        /* \"--CODEGEN--\":9916:9979   */\n      swap2\n      swap1\n      pop\n      jump\t// out\n        /* \"--CODEGEN--\":9986:10123   */\n    tag_282:\n      0x00\n        /* \"--CODEGEN--\":10095:10100   */\n      dup2\n        /* \"--CODEGEN--\":10089:10101   */\n      mload\n        /* \"--CODEGEN--\":10079:10101   */\n      swap1\n      pop\n        /* \"--CODEGEN--\":10060:10123   */\n      swap2\n      swap1\n      pop\n      jump\t// out\n        /* \"--CODEGEN--\":10130:10252   */\n    tag_299:\n      0x00\n        /* \"--CODEGEN--\":10224:10229   */\n      dup2\n        /* \"--CODEGEN--\":10218:10230   */\n      mload\n        /* \"--CODEGEN--\":10208:10230   */\n      swap1\n      pop\n        /* \"--CODEGEN--\":10189:10252   */\n      swap2\n      swap1\n      pop\n      jump\t// out\n        /* \"--CODEGEN--\":10259:10377   */\n    tag_278:\n      0x00\n        /* \"--CODEGEN--\":10367:10371   */\n      0x20\n        /* \"--CODEGEN--\":10362:10365   */\n      dup3\n        /* \"--CODEGEN--\":10358:10372   */\n      add\n        /* \"--CODEGEN--\":10350:10372   */\n      swap1\n      pop\n        /* \"--CODEGEN--\":10344:10377   */\n      swap2\n      swap1\n      pop\n      jump\t// out\n        /* \"--CODEGEN--\":10384:10492   */\n    tag_292:\n      0x00\n        /* \"--CODEGEN--\":10482:10486   */\n      0x20\n        /* \"--CODEGEN--\":10477:10480   */\n      dup3\n        /* \"--CODEGEN--\":10473:10487   */\n      add\n        /* \"--CODEGEN--\":10465:10487   */\n      swap1\n      pop\n        /* \"--CODEGEN--\":10459:10492   */\n      swap2\n      swap1\n      pop\n      jump\t// out\n        /* \"--CODEGEN--\":10500:10688   */\n    tag_270:\n      0x00\n        /* \"--CODEGEN--\":10640:10646   */\n      dup3\n        /* \"--CODEGEN--\":10635:10638   */\n      dup3\n        /* \"--CODEGEN--\":10628:10647   */\n      mstore\n        /* \"--CODEGEN--\":10677:10681   */\n      0x20\n        /* \"--CODEGEN--\":10672:10675   */\n      dup3\n        /* \"--CODEGEN--\":10668:10682   */\n      add\n        /* \"--CODEGEN--\":10653:10682   */\n      swap1\n      pop\n        /* \"--CODEGEN--\":10621:10688   */\n      swap3\n      swap2\n      pop\n      pop\n      jump\t// out\n        /* \"--CODEGEN--\":10697:10875   */\n    tag_284:\n      0x00\n        /* \"--CODEGEN--\":10827:10833   */\n      dup3\n        /* \"--CODEGEN--\":10822:10825   */\n      dup3\n        /* \"--CODEGEN--\":10815:10834   */\n      mstore\n        /* \"--CODEGEN--\":10864:10868   */\n      0x20\n        /* \"--CODEGEN--\":10859:10862   */\n      dup3\n        /* \"--CODEGEN--\":10855:10869   */\n      add\n        /* \"--CODEGEN--\":10840:10869   */\n      swap1\n      pop\n        /* \"--CODEGEN--\":10808:10875   */\n      swap3\n      swap2\n      pop\n      pop\n      jump\t// out\n        /* \"--CODEGEN--\":10884:11037   */\n    tag_301:\n      0x00\n        /* \"--CODEGEN--\":10989:10995   */\n      dup3\n        /* \"--CODEGEN--\":10984:10987   */\n      dup3\n        /* \"--CODEGEN--\":10977:10996   */\n      mstore\n        /* \"--CODEGEN--\":11026:11030   */\n      0x20\n        /* \"--CODEGEN--\":11021:11024   */\n      dup3\n        /* \"--CODEGEN--\":11017:11031   */\n      add\n        /* \"--CODEGEN--\":11002:11031   */\n      swap1\n      pop\n        /* \"--CODEGEN--\":10970:11037   */\n      swap3\n      swap2\n      pop\n      pop\n      jump\t// out\n        /* \"--CODEGEN--\":11046:11191   */\n    tag_310:\n      0x00\n        /* \"--CODEGEN--\":11182:11185   */\n      dup2\n        /* \"--CODEGEN--\":11167:11185   */\n      swap1\n      pop\n        /* \"--CODEGEN--\":11160:11191   */\n      swap3\n      swap2\n      pop\n      pop\n      jump\t// out\n        /* \"--CODEGEN--\":11199:11284   */\n    tag_296:\n      0x00\n        /* \"--CODEGEN--\":11272:11277   */\n      dup2\n        /* \"--CODEGEN--\":11265:11278   */\n      iszero\n        /* \"--CODEGEN--\":11258:11279   */\n      iszero\n        /* \"--CODEGEN--\":11247:11279   */\n      swap1\n      pop\n        /* \"--CODEGEN--\":11241:11284   */\n      swap2\n      swap1\n      pop\n      jump\t// out\n        /* \"--CODEGEN--\":11291:11363   */\n    tag_326:\n      0x00\n        /* \"--CODEGEN--\":11353:11358   */\n      dup2\n        /* \"--CODEGEN--\":11342:11358   */\n      swap1\n      pop\n        /* \"--CODEGEN--\":11336:11363   */\n      swap2\n      swap1\n      pop\n      jump\t// out\n        /* \"--CODEGEN--\":11371:11516   */\n    tag_231:\n        /* \"--CODEGEN--\":11452:11458   */\n      dup3\n        /* \"--CODEGEN--\":11447:11450   */\n      dup2\n        /* \"--CODEGEN--\":11442:11445   */\n      dup4\n        /* \"--CODEGEN--\":11429:11459   */\n      calldatacopy\n        /* \"--CODEGEN--\":11508:11509   */\n      0x00\n        /* \"--CODEGEN--\":11499:11505   */\n      dup4\n        /* \"--CODEGEN--\":11494:11497   */\n      dup4\n        /* \"--CODEGEN--\":11490:11506   */\n      add\n        /* \"--CODEGEN--\":11483:11510   */\n      mstore\n        /* \"--CODEGEN--\":11422:11516   */\n      pop\n      pop\n      pop\n      jump\t// out\n        /* \"--CODEGEN--\":11525:11793   */\n    tag_303:\n        /* \"--CODEGEN--\":11590:11591   */\n      0x00\n        /* \"--CODEGEN--\":11597:11698   */\n    tag_363:\n        /* \"--CODEGEN--\":11611:11617   */\n      dup4\n        /* \"--CODEGEN--\":11608:11609   */\n      dup2\n        /* \"--CODEGEN--\":11605:11618   */\n      lt\n        /* \"--CODEGEN--\":11597:11698   */\n      iszero\n      tag_365\n      jumpi\n        /* \"--CODEGEN--\":11687:11688   */\n      dup1\n        /* \"--CODEGEN--\":11682:11685   */\n      dup3\n        /* \"--CODEGEN--\":11678:11689   */\n      add\n        /* \"--CODEGEN--\":11672:11690   */\n      mload\n        /* \"--CODEGEN--\":11668:11669   */\n      dup2\n        /* \"--CODEGEN--\":11663:11666   */\n      dup5\n        /* \"--CODEGEN--\":11659:11670   */\n      add\n        /* \"--CODEGEN--\":11652:11691   */\n      mstore\n        /* \"--CODEGEN--\":11633:11635   */\n      0x20\n        /* \"--CODEGEN--\":11630:11631   */\n      dup2\n        /* \"--CODEGEN--\":11626:11636   */\n      add\n        /* \"--CODEGEN--\":11621:11636   */\n      swap1\n      pop\n        /* \"--CODEGEN--\":11597:11698   */\n      jump(tag_363)\n    tag_365:\n        /* \"--CODEGEN--\":11713:11719   */\n      dup4\n        /* \"--CODEGEN--\":11710:11711   */\n      dup2\n        /* \"--CODEGEN--\":11707:11720   */\n      gt\n        /* \"--CODEGEN--\":11704:11706   */\n      iszero\n      tag_366\n      jumpi\n        /* \"--CODEGEN--\":11778:11779   */\n      0x00\n        /* \"--CODEGEN--\":11769:11775   */\n      dup5\n        /* \"--CODEGEN--\":11764:11767   */\n      dup5\n        /* \"--CODEGEN--\":11760:11776   */\n      add\n        /* \"--CODEGEN--\":11753:11780   */\n      mstore\n        /* \"--CODEGEN--\":11704:11706   */\n    tag_366:\n        /* \"--CODEGEN--\":11574:11793   */\n      pop\n      pop\n      pop\n      pop\n      jump\t// out\n        /* \"--CODEGEN--\":11801:11898   */\n    tag_305:\n      0x00\n        /* \"--CODEGEN--\":11889:11891   */\n      0x1f\n        /* \"--CODEGEN--\":11885:11892   */\n      not\n        /* \"--CODEGEN--\":11880:11882   */\n      0x1f\n        /* \"--CODEGEN--\":11873:11878   */\n      dup4\n        /* \"--CODEGEN--\":11869:11883   */\n      add\n        /* \"--CODEGEN--\":11865:11893   */\n      and\n        /* \"--CODEGEN--\":11855:11893   */\n      swap1\n      pop\n        /* \"--CODEGEN--\":11849:11898   */\n      swap2\n      swap1\n      pop\n      jump\t// out\n        /* \"--CODEGEN--\":11906:12023   */\n    tag_235:\n        /* \"--CODEGEN--\":11975:11999   */\n      tag_369\n        /* \"--CODEGEN--\":11993:11998   */\n      dup2\n        /* \"--CODEGEN--\":11975:11999   */\n      tag_326\n      jump\t// in\n    tag_369:\n        /* \"--CODEGEN--\":11968:11973   */\n      dup2\n        /* \"--CODEGEN--\":11965:12000   */\n      eq\n        /* \"--CODEGEN--\":11955:11957   */\n      tag_370\n      jumpi\n        /* \"--CODEGEN--\":12014:12015   */\n      0x00\n        /* \"--CODEGEN--\":12011:12012   */\n      dup1\n        /* \"--CODEGEN--\":12004:12016   */\n      revert\n        /* \"--CODEGEN--\":11955:11957   */\n    tag_370:\n        /* \"--CODEGEN--\":11949:12023   */\n      pop\n      jump\t// out\n\n    auxdata: 0xa264697066735822122045e4680ee779962ee7114a9294145104612ee730c43fa8f21d14dd4ddfa1318664736f6c634300060c0033\n}\n",
    "bytecode": {
      "linkReferences": {},
      "object": "608060405234801561001057600080fd5b50336000806101000a81548173ffffffffffffffffffffffffffffffffffffffff021916908373ffffffffffffffffffffffffffffffffffffffff160217905550600060028190555061166d806100686000396000f3fe608060405234801561001057600080fd5b50600436106100935760003560e01c80636db80995116100665780636db809951461011e578063716588961461013d57806398173ff41461016d578063c4ae2f2614610189578063e8e5339a146101b957610093565b806330a66294146100985780633276807a146100b657806342bb20e1146100d257806352bfd15c146100ee575b600080fd5b6100a06101d5565b6040516100ad9190611495565b60405180910390f35b6100d060048036038101906100cb91906110fc565b610238565b005b6100ec60048036038101906100e791906110fc565b61031d565b005b610108600480360381019061010391906110fc565b610476565b604051610115919061147a565b60405180910390f35b6101266105ec565b604051610134929190611443565b60405180910390f35b610157600480360381019061015291906110d3565b610801565b6040516101649190611421565b60405180910390f35b61018760048036038101906101829190611067565b6109f6565b005b6101a3600480360381019061019e9190611150565b610b6d565b6040516101b0919061147a565b60405180910390f35b6101d360048036038101906101ce9190611150565b610d0a565b005b60008060009054906101000a900473ffffffffffffffffffffffffffffffffffffffff1673ffffffffffffffffffffffffffffffffffffffff163373ffffffffffffffffffffffffffffffffffffffff161461023057600080fd5b600254905090565b60008054906101000a900473ffffffffffffffffffffffffffffffffffffffff1673ffffffffffffffffffffffffffffffffffffffff163373ffffffffffffffffffffffffffffffffffffffff161461029057600080fd5b60005b600180549050811015610318576000600182815481106102af57fe5b90600052602060002090600402019050806000015484141561030a578060030183908060018154018082558091505060019003906000526020600020016000909190919091509080519060200190610308929190610e6d565b505b508080600101915050610293565b505050565b60008054906101000a900473ffffffffffffffffffffffffffffffffffffffff1673ffffffffffffffffffffffffffffffffffffffff163373ffffffffffffffffffffffffffffffffffffffff161461037557600080fd5b60005b6001805490508110156104715760006001828154811061039457fe5b9060005260206000209060040201905080600001548414156104635760005b816003018054905081101561046157836040516020016103d391906113f3565b604051602081830303815290604052805190602001208260030182815481106103f857fe5b90600052602060002001604051602001610412919061140a565b6040516020818303038152906040528051906020012014156104545781600301818154811061043d57fe5b9060005260206000200160006104539190610eed565b5b80806001019150506103b3565b505b508080600101915050610378565b505050565b60008060009054906101000a900473ffffffffffffffffffffffffffffffffffffffff1673ffffffffffffffffffffffffffffffffffffffff163373ffffffffffffffffffffffffffffffffffffffff16146104d157600080fd5b60005b6001805490508110156105e057600181815481106104ee57fe5b9060005260206000209060040201600001548414156105d35760005b6001828154811061051757fe5b9060005260206000209060040201600301805490508110156105d1576001828154811061054057fe5b9060005260206000209060040201600301818154811061055c57fe5b90600052602060002001604051602001610576919061140a565b604051602081830303815290604052805190602001208460405160200161059d91906113f3565b6040516020818303038152906040528051906020012014156105c4576001925050506105e6565b808060010191505061050a565b505b80806001019150506104d4565b50600090505b92915050565b60608060008054906101000a900473ffffffffffffffffffffffffffffffffffffffff1673ffffffffffffffffffffffffffffffffffffffff163373ffffffffffffffffffffffffffffffffffffffff161461064757600080fd5b606060025467ffffffffffffffff8111801561066257600080fd5b506040519080825280602002602001820160405280156106915781602001602082028036833780820191505090505b509050606060025467ffffffffffffffff811180156106af57600080fd5b506040519080825280602002602001820160405280156106e357816020015b60608152602001906001900390816106ce5790505b50905060005b6001805490508110156107f45760006001828154811061070557fe5b90600052602060002090600402019050806000015484838151811061072657fe5b602002602001018181525050806001018054600181600116156101000203166002900480601f0160208091040260200160405190810160405280929190818152602001828054600181600116156101000203166002900480156107ca5780601f1061079f576101008083540402835291602001916107ca565b820191906000526020600020905b8154815290600101906020018083116107ad57829003601f168201915b50505050508383815181106107db57fe5b60200260200101819052505080806001019150506106e9565b5081819350935050509091565b606060008054906101000a900473ffffffffffffffffffffffffffffffffffffffff1673ffffffffffffffffffffffffffffffffffffffff163373ffffffffffffffffffffffffffffffffffffffff161461085b57600080fd5b60005b6001805490508110156109ef5760006001828154811061087a57fe5b9060005260206000209060040201905080600001548414156109e1576060816003018054905067ffffffffffffffff811180156108b657600080fd5b506040519080825280602002602001820160405280156108ea57816020015b60608152602001906001900390816108d55790505b50905060005b82600301805490508110156109d55782600301818154811061090e57fe5b906000526020600020018054600181600116156101000203166002900480601f0160208091040260200160405190810160405280929190818152602001828054600181600116156101000203166002900480156109ac5780601f10610981576101008083540402835291602001916109ac565b820191906000526020600020905b81548152906001019060200180831161098f57829003601f168201915b50505050508282815181106109bd57fe5b602002602001018190525080806001019150506108f0565b508093505050506109f1565b50808060010191505061085e565b505b919050565b60008054906101000a900473ffffffffffffffffffffffffffffffffffffffff1673ffffffffffffffffffffffffffffffffffffffff163373ffffffffffffffffffffffffffffffffffffffff1614610a4e57600080fd5b610a56610f35565b60405180608001604052806002548152602001848152602001838152602001600067ffffffffffffffff81118015610a8d57600080fd5b50604051908082528060200260200182016040528015610ac157816020015b6060815260200190600190039081610aac5790505b5081525090506002600081548092919060010191905055506001819080600181540180825580915050600190039060005260206000209060040201600090919091909150600082015181600001556020820151816001019080519060200190610b2b929190610e6d565b506040820151816002019080519060200190610b48929190610e6d565b506060820151816003019080519060200190610b65929190610f5d565b505050505050565b60008060009054906101000a900473ffffffffffffffffffffffffffffffffffffffff1673ffffffffffffffffffffffffffffffffffffffff163373ffffffffffffffffffffffffffffffffffffffff1614610bc857600080fd5b60005b600180549050811015610cfd5760018181548110610be557fe5b90600052602060002090600402016000015485148015610c6d575060018181548110610c0d57fe5b9060005260206000209060040201600101604051602001610c2e919061140a565b6040516020818303038152906040528051906020012084604051602001610c5591906113f3565b60405160208183030381529060405280519060200120145b8015610ce1575060018181548110610c8157fe5b9060005260206000209060040201600201604051602001610ca2919061140a565b6040516020818303038152906040528051906020012083604051602001610cc991906113f3565b60405160208183030381529060405280519060200120145b15610cf0576001915050610d03565b8080600101915050610bcb565b50600090505b9392505050565b60008054906101000a900473ffffffffffffffffffffffffffffffffffffffff1673ffffffffffffffffffffffffffffffffffffffff163373ffffffffffffffffffffffffffffffffffffffff1614610d6257600080fd5b60005b600180549050811015610e6757600060018281548110610d8157fe5b906000526020600020906004020190508060000154851415610e595760005b8160030180549050811015610e575784604051602001610dc091906113f3565b60405160208183030381529060405280519060200120826003018281548110610de557fe5b90600052602060002001604051602001610dff919061140a565b604051602081830303815290604052805190602001201415610e4a5783826003018281548110610e2b57fe5b906000526020600020019080519060200190610e48929190610e6d565b505b8080600101915050610da0565b505b508080600101915050610d65565b50505050565b828054600181600116156101000203166002900490600052602060002090601f016020900481019282601f10610eae57805160ff1916838001178555610edc565b82800160010185558215610edc579182015b82811115610edb578251825591602001919060010190610ec0565b5b509050610ee99190610fbd565b5090565b50805460018160011615610100020316600290046000825580601f10610f135750610f32565b601f016020900490600052602060002090810190610f319190610fbd565b5b50565b6040518060800160405280600081526020016060815260200160608152602001606081525090565b828054828255906000526020600020908101928215610fac579160200282015b82811115610fab578251829080519060200190610f9b929190610e6d565b5091602001919060010190610f7d565b5b509050610fb99190610fda565b5090565b5b80821115610fd6576000816000905550600101610fbe565b5090565b5b80821115610ffa5760008181610ff19190610eed565b50600101610fdb565b5090565b600082601f83011261100f57600080fd5b813561102261101d826114dd565b6114b0565b9150808252602083016020830185838301111561103e57600080fd5b6110498382846115cd565b50505092915050565b60008135905061106181611620565b92915050565b6000806040838503121561107a57600080fd5b600083013567ffffffffffffffff81111561109457600080fd5b6110a085828601610ffe565b925050602083013567ffffffffffffffff8111156110bd57600080fd5b6110c985828601610ffe565b9150509250929050565b6000602082840312156110e557600080fd5b60006110f384828501611052565b91505092915050565b6000806040838503121561110f57600080fd5b600061111d85828601611052565b925050602083013567ffffffffffffffff81111561113a57600080fd5b61114685828601610ffe565b9150509250929050565b60008060006060848603121561116557600080fd5b600061117386828701611052565b935050602084013567ffffffffffffffff81111561119057600080fd5b61119c86828701610ffe565b925050604084013567ffffffffffffffff8111156111b957600080fd5b6111c586828701610ffe565b9150509250925092565b60006111db83836112dd565b905092915050565b60006111ef83836113d5565b60208301905092915050565b60006112068261153e565b6112108185611579565b93508360208202850161122285611509565b8060005b8581101561125e578484038952815161123f85826111cf565b945061124a8361155f565b925060208a01995050600181019050611226565b50829750879550505050505092915050565b600061127b82611549565b611285818561158a565b935061129083611519565b8060005b838110156112c15781516112a888826111e3565b97506112b38361156c565b925050600181019050611294565b5085935050505092915050565b6112d7816115b7565b82525050565b60006112e882611554565b6112f2818561159b565b93506113028185602086016115dc565b61130b8161160f565b840191505092915050565b600061132182611554565b61132b81856115ac565b935061133b8185602086016115dc565b80840191505092915050565b6000815460018116600081146113645760018114611389576113cd565b607f600283041661137581876115ac565b955060ff19831686528086019350506113cd565b6002820461139781876115ac565b95506113a285611529565b60005b828110156113c4578154818901526001820191506020810190506113a5565b82880195505050505b505092915050565b6113de816115c3565b82525050565b6113ed816115c3565b82525050565b60006113ff8284611316565b915081905092915050565b60006114168284611347565b915081905092915050565b6000602082019050818103600083015261143b81846111fb565b905092915050565b6000604082019050818103600083015261145d8185611270565b9050818103602083015261147181846111fb565b90509392505050565b600060208201905061148f60008301846112ce565b92915050565b60006020820190506114aa60008301846113e4565b92915050565b6000604051905081810181811067ffffffffffffffff821117156114d357600080fd5b8060405250919050565b600067ffffffffffffffff8211156114f457600080fd5b601f19601f8301169050602081019050919050565b6000819050602082019050919050565b6000819050602082019050919050565b60008190508160005260206000209050919050565b600081519050919050565b600081519050919050565b600081519050919050565b6000602082019050919050565b6000602082019050919050565b600082825260208201905092915050565b600082825260208201905092915050565b600082825260208201905092915050565b600081905092915050565b60008115159050919050565b6000819050919050565b82818337600083830152505050565b60005b838110156115fa5780820151818401526020810190506115df565b83811115611609576000848401525b50505050565b6000601f19601f8301169050919050565b611629816115c3565b811461163457600080fd5b5056fea264697066735822122045e4680ee779962ee7114a9294145104612ee730c43fa8f21d14dd4ddfa1318664736f6c634300060c0033",
      "opcodes": "PUSH1 0x80 PUSH1 0x40 MSTORE CALLVALUE DUP1 ISZERO PUSH2 0x10 JUMPI PUSH1 0x0 DUP1 REVERT JUMPDEST POP CALLER PUSH1 0x0 DUP1 PUSH2 0x100 EXP DUP2 SLOAD DUP2 PUSH20 0xFFFFFFFFFFFFFFFFFFFFFFFFFFFFFFFFFFFFFFFF MUL NOT AND SWAP1 DUP4 PUSH20 0xFFFFFFFFFFFFFFFFFFFFFFFFFFFFFFFFFFFFFFFF AND MUL OR SWAP1 SSTORE POP PUSH1 0x0 PUSH1 0x2 DUP2 SWAP1 SSTORE POP PUSH2 0x166D DUP1 PUSH2 0x68 PUSH1 0x0 CODECOPY PUSH1 0x0 RETURN INVALID PUSH1 0x80 PUSH1 0x40 MSTORE CALLVALUE DUP1 ISZERO PUSH2 0x10 JUMPI PUSH1 0x0 DUP1 REVERT JUMPDEST POP PUSH1 0x4 CALLDATASIZE LT PUSH2 0x93 JUMPI PUSH1 0x0 CALLDATALOAD PUSH1 0xE0 SHR DUP1 PUSH4 0x6DB80995 GT PUSH2 0x66 JUMPI DUP1 PUSH4 0x6DB80995 EQ PUSH2 0x11E JUMPI DUP1 PUSH4 0x71658896 EQ PUSH2 0x13D JUMPI DUP1 PUSH4 0x98173FF4 EQ PUSH2 0x16D JUMPI DUP1 PUSH4 0xC4AE2F26 EQ PUSH2 0x189 JUMPI DUP1 PUSH4 0xE8E5339A EQ PUSH2 0x1B9 JUMPI PUSH2 0x93 JUMP JUMPDEST DUP1 PUSH4 0x30A66294 EQ PUSH2 0x98 JUMPI DUP1 PUSH4 0x3276807A EQ PUSH2 0xB6 JUMPI DUP1 PUSH4 0x42BB20E1 EQ PUSH2 0xD2 JUMPI DUP1 PUSH4 0x52BFD15C EQ PUSH2 0xEE JUMPI JUMPDEST PUSH1 0x0 DUP1 REVERT JUMPDEST PUSH2 0xA0 PUSH2 0x1D5 JUMP JUMPDEST PUSH1 0x40 MLOAD PUSH2 0xAD SWAP2 SWAP1 PUSH2 0x1495 JUMP JUMPDEST PUSH1 0x40 MLOAD DUP1 SWAP2 SUB SWAP1 RETURN JUMPDEST PUSH2 0xD0 PUSH1 0x4 DUP1 CALLDATASIZE SUB DUP2 ADD SWAP1 PUSH2 0xCB SWAP2 SWAP1 PUSH2 0x10FC JUMP JUMPDEST PUSH2 0x238 JUMP JUMPDEST STOP JUMPDEST PUSH2 0xEC PUSH1 0x4 DUP1 CALLDATASIZE SUB DUP2 ADD SWAP1 PUSH2 0xE7 SWAP2 SWAP1 PUSH2 0x10FC JUMP JUMPDEST PUSH2 0x31D JUMP JUMPDEST STOP JUMPDEST PUSH2 0x108 PUSH1 0x4 DUP1 CALLDATASIZE SUB DUP2 ADD SWAP1 PUSH2 0x103 SWAP2 SWAP1 PUSH2 0x10FC JUMP JUMPDEST PUSH2 0x476 JUMP JUMPDEST PUSH1 0x40 MLOAD PUSH2 0x115 SWAP2 SWAP1 PUSH2 0x147A JUMP JUMPDEST PUSH1 0x40 MLOAD DUP1 SWAP2 SUB SWAP1 RETURN JUMPDEST PUSH2 0x126 PUSH2 0x5EC JUMP JUMPDEST PUSH1 0x40 MLOAD PUSH2 0x134 SWAP3 SWAP2 SWAP1 PUSH2 0x1443 JUMP JUMPDEST PUSH1 0x40 MLOAD DUP1 SWAP2 SUB SWAP1 RETURN JUMPDEST PUSH2 0x157 PUSH1 0x4 DUP1 CALLDATASIZE SUB DUP2 ADD SWAP1 PUSH2 0x152 SWAP2 SWAP1 PUSH2 0x10D3 JUMP JUMPDEST PUSH2 0x801 JUMP JUMPDEST PUSH1 0x40 MLOAD PUSH2 0x164 SWAP2 SWAP1 PUSH2 0x1421 JUMP JUMPDEST PUSH1 0x40 MLOAD DUP1 SWAP2 SUB SWAP1 RETURN JUMPDEST PUSH2 0x187 PUSH1 0x4 DUP1 CALLDATASIZE SUB DUP2 ADD SWAP1 PUSH2 0x182 SWAP2 SWAP1 PUSH2 0x1067 JUMP JUMPDEST PUSH2 0x9F6 JUMP JUMPDEST STOP JUMPDEST PUSH2 0x1A3 PUSH1 0x4 DUP1 CALLDATASIZE SUB DUP2 ADD SWAP1 PUSH2 0x19E SWAP2 SWAP1 PUSH2 0x1150 JUMP JUMPDEST PUSH2 0xB6D JUMP JUMPDEST PUSH1 0x40 MLOAD PUSH2 0x1B0 SWAP2 SWAP1 PUSH2 0x147A JUMP JUMPDEST PUSH1 0x40 MLOAD DUP1 SWAP2 SUB SWAP1 RETURN JUMPDEST PUSH2 0x1D3 PUSH1 0x4 DUP1 CALLDATASIZE SUB DUP2 ADD SWAP1 PUSH2 0x1CE SWAP2 SWAP1 PUSH2 0x1150 JUMP JUMPDEST PUSH2 0xD0A JUMP JUMPDEST STOP JUMPDEST PUSH1 0x0 DUP1 PUSH1 0x0 SWAP1 SLOAD SWAP1 PUSH2 0x100 EXP SWAP1 DIV PUSH20 0xFFFFFFFFFFFFFFFFFFFFFFFFFFFFFFFFFFFFFFFF AND PUSH20 0xFFFFFFFFFFFFFFFFFFFFFFFFFFFFFFFFFFFFFFFF AND CALLER PUSH20 0xFFFFFFFFFFFFFFFFFFFFFFFFFFFFFFFFFFFFFFFF AND EQ PUSH2 0x230 JUMPI PUSH1 0x0 DUP1 REVERT JUMPDEST PUSH1 0x2 SLOAD SWAP1 POP SWAP1 JUMP JUMPDEST PUSH1 0x0 DUP1 SLOAD SWAP1 PUSH2 0x100 EXP SWAP1 DIV PUSH20 0xFFFFFFFFFFFFFFFFFFFFFFFFFFFFFFFFFFFFFFFF AND PUSH20 0xFFFFFFFFFFFFFFFFFFFFFFFFFFFFFFFFFFFFFFFF AND CALLER PUSH20 0xFFFFFFFFFFFFFFFFFFFFFFFFFFFFFFFFFFFFFFFF AND EQ PUSH2 0x290 JUMPI PUSH1 0x0 DUP1 REVERT JUMPDEST PUSH1 0x0 JUMPDEST PUSH1 0x1 DUP1 SLOAD SWAP1 POP DUP2 LT ISZERO PUSH2 0x318 JUMPI PUSH1 0x0 PUSH1 0x1 DUP3 DUP2 SLOAD DUP2 LT PUSH2 0x2AF JUMPI INVALID JUMPDEST SWAP1 PUSH1 0x0 MSTORE PUSH1 0x20 PUSH1 0x0 KECCAK256 SWAP1 PUSH1 0x4 MUL ADD SWAP1 POP DUP1 PUSH1 0x0 ADD SLOAD DUP5 EQ ISZERO PUSH2 0x30A JUMPI DUP1 PUSH1 0x3 ADD DUP4 SWAP1 DUP1 PUSH1 0x1 DUP2 SLOAD ADD DUP1 DUP3 SSTORE DUP1 SWAP2 POP POP PUSH1 0x1 SWAP1 SUB SWAP1 PUSH1 0x0 MSTORE PUSH1 0x20 PUSH1 0x0 KECCAK256 ADD PUSH1 0x0 SWAP1 SWAP2 SWAP1 SWAP2 SWAP1 SWAP2 POP SWAP1 DUP1 MLOAD SWAP1 PUSH1 0x20 ADD SWAP1 PUSH2 0x308 SWAP3 SWAP2 SWAP1 PUSH2 0xE6D JUMP JUMPDEST POP JUMPDEST POP DUP1 DUP1 PUSH1 0x1 ADD SWAP2 POP POP PUSH2 0x293 JUMP JUMPDEST POP POP POP JUMP JUMPDEST PUSH1 0x0 DUP1 SLOAD SWAP1 PUSH2 0x100 EXP SWAP1 DIV PUSH20 0xFFFFFFFFFFFFFFFFFFFFFFFFFFFFFFFFFFFFFFFF AND PUSH20 0xFFFFFFFFFFFFFFFFFFFFFFFFFFFFFFFFFFFFFFFF AND CALLER PUSH20 0xFFFFFFFFFFFFFFFFFFFFFFFFFFFFFFFFFFFFFFFF AND EQ PUSH2 0x375 JUMPI PUSH1 0x0 DUP1 REVERT JUMPDEST PUSH1 0x0 JUMPDEST PUSH1 0x1 DUP1 SLOAD SWAP1 POP DUP2 LT ISZERO PUSH2 0x471 JUMPI PUSH1 0x0 PUSH1 0x1 DUP3 DUP2 SLOAD DUP2 LT PUSH2 0x394 JUMPI INVALID JUMPDEST SWAP1 PUSH1 0x0 MSTORE PUSH1 0x20 PUSH1 0x0 KECCAK256 SWAP1 PUSH1 0x4 MUL ADD SWAP1 POP DUP1 PUSH1 0x0 ADD SLOAD DUP5 EQ ISZERO PUSH2 0x463 JUMPI PUSH1 0x0 JUMPDEST DUP2 PUSH1 0x3 ADD DUP1 SLOAD SWAP1 POP DUP2 LT ISZERO PUSH2 0x461 JUMPI DUP4 PUSH1 0x40 MLOAD PUSH1 0x20 ADD PUSH2 0x3D3 SWAP2 SWAP1 PUSH2 0x13F3 JUMP JUMPDEST PUSH1 0x40 MLOAD PUSH1 0x20 DUP2 DUP4 SUB SUB DUP2 MSTORE SWAP1 PUSH1 0x40 MSTORE DUP1 MLOAD SWAP1 PUSH1 0x20 ADD KECCAK256 DUP3 PUSH1 0x3 ADD DUP3 DUP2 SLOAD DUP2 LT PUSH2 0x3F8 JUMPI INVALID JUMPDEST SWAP1 PUSH1 0x0 MSTORE PUSH1 0x20 PUSH1 0x0 KECCAK256 ADD PUSH1 0x40 MLOAD PUSH1 0x20 ADD PUSH2 0x412 SWAP2 SWAP1 PUSH2 0x140A JUMP JUMPDEST PUSH1 0x40 MLOAD PUSH1 0x20 DUP2 DUP4 SUB SUB DUP2 MSTORE SWAP1 PUSH1 0x40 MSTORE DUP1 MLOAD SWAP1 PUSH1 0x20 ADD KECCAK256 EQ ISZERO PUSH2 0x454 JUMPI DUP2 PUSH1 0x3 ADD DUP2 DUP2 SLOAD DUP2 LT PUSH2 0x43D JUMPI INVALID JUMPDEST SWAP1 PUSH1 0x0 MSTORE PUSH1 0x20 PUSH1 0x0 KECCAK256 ADD PUSH1 0x0 PUSH2 0x453 SWAP2 SWAP1 PUSH2 0xEED JUMP JUMPDEST JUMPDEST DUP1 DUP1 PUSH1 0x1 ADD SWAP2 POP POP PUSH2 0x3B3 JUMP JUMPDEST POP JUMPDEST POP DUP1 DUP1 PUSH1 0x1 ADD SWAP2 POP POP PUSH2 0x378 JUMP JUMPDEST POP POP POP JUMP JUMPDEST PUSH1 0x0 DUP1 PUSH1 0x0 SWAP1 SLOAD SWAP1 PUSH2 0x100 EXP SWAP1 DIV PUSH20 0xFFFFFFFFFFFFFFFFFFFFFFFFFFFFFFFFFFFFFFFF AND PUSH20 0xFFFFFFFFFFFFFFFFFFFFFFFFFFFFFFFFFFFFFFFF AND CALLER PUSH20 0xFFFFFFFFFFFFFFFFFFFFFFFFFFFFFFFFFFFFFFFF AND EQ PUSH2 0x4D1 JUMPI PUSH1 0x0 DUP1 REVERT JUMPDEST PUSH1 0x0 JUMPDEST PUSH1 0x1 DUP1 SLOAD SWAP1 POP DUP2 LT ISZERO PUSH2 0x5E0 JUMPI PUSH1 0x1 DUP2 DUP2 SLOAD DUP2 LT PUSH2 0x4EE JUMPI INVALID JUMPDEST SWAP1 PUSH1 0x0 MSTORE PUSH1 0x20 PUSH1 0x0 KECCAK256 SWAP1 PUSH1 0x4 MUL ADD PUSH1 0x0 ADD SLOAD DUP5 EQ ISZERO PUSH2 0x5D3 JUMPI PUSH1 0x0 JUMPDEST PUSH1 0x1 DUP3 DUP2 SLOAD DUP2 LT PUSH2 0x517 JUMPI INVALID JUMPDEST SWAP1 PUSH1 0x0 MSTORE PUSH1 0x20 PUSH1 0x0 KECCAK256 SWAP1 PUSH1 0x4 MUL ADD PUSH1 0x3 ADD DUP1 SLOAD SWAP1 POP DUP2 LT ISZERO PUSH2 0x5D1 JUMPI PUSH1 0x1 DUP3 DUP2 SLOAD DUP2 LT PUSH2 0x540 JUMPI INVALID JUMPDEST SWAP1 PUSH1 0x0 MSTORE PUSH1 0x20 PUSH1 0x0 KECCAK256 SWAP1 PUSH1 0x4 MUL ADD PUSH1 0x3 ADD DUP2 DUP2 SLOAD DUP2 LT PUSH2 0x55C JUMPI INVALID JUMPDEST SWAP1 PUSH1 0x0 MSTORE PUSH1 0x20 PUSH1 0x0 KECCAK256 ADD PUSH1 0x40 MLOAD PUSH1 0x20 ADD PUSH2 0x576 SWAP2 SWAP1 PUSH2 0x140A JUMP JUMPDEST PUSH1 0x40 MLOAD PUSH1 0x20 DUP2 DUP4 SUB SUB DUP2 MSTORE SWAP1 PUSH1 0x40 MSTORE DUP1 MLOAD SWAP1 PUSH1 0x20 ADD KECCAK256 DUP5 PUSH1 0x40 MLOAD PUSH1 0x20 ADD PUSH2 0x59D SWAP2 SWAP1 PUSH2 0x13F3 JUMP JUMPDEST PUSH1 0x40 MLOAD PUSH1 0x20 DUP2 DUP4 SUB SUB DUP2 MSTORE SWAP1 PUSH1 0x40 MSTORE DUP1 MLOAD SWAP1 PUSH1 0x20 ADD KECCAK256 EQ ISZERO PUSH2 0x5C4 JUMPI PUSH1 0x1 SWAP3 POP POP POP PUSH2 0x5E6 JUMP JUMPDEST DUP1 DUP1 PUSH1 0x1 ADD SWAP2 POP POP PUSH2 0x50A JUMP JUMPDEST POP JUMPDEST DUP1 DUP1 PUSH1 0x1 ADD SWAP2 POP POP PUSH2 0x4D4 JUMP JUMPDEST POP PUSH1 0x0 SWAP1 POP JUMPDEST SWAP3 SWAP2 POP POP JUMP JUMPDEST PUSH1 0x60 DUP1 PUSH1 0x0 DUP1 SLOAD SWAP1 PUSH2 0x100 EXP SWAP1 DIV PUSH20 0xFFFFFFFFFFFFFFFFFFFFFFFFFFFFFFFFFFFFFFFF AND PUSH20 0xFFFFFFFFFFFFFFFFFFFFFFFFFFFFFFFFFFFFFFFF AND CALLER PUSH20 0xFFFFFFFFFFFFFFFFFFFFFFFFFFFFFFFFFFFFFFFF AND EQ PUSH2 0x647 JUMPI PUSH1 0x0 DUP1 REVERT JUMPDEST PUSH1 0x60 PUSH1 0x2 SLOAD PUSH8 0xFFFFFFFFFFFFFFFF DUP2 GT DUP1 ISZERO PUSH2 0x662 JUMPI PUSH1 0x0 DUP1 REVERT JUMPDEST POP PUSH1 0x40 MLOAD SWAP1 DUP1 DUP3 MSTORE DUP1 PUSH1 0x20 MUL PUSH1 0x20 ADD DUP3 ADD PUSH1 0x40 MSTORE DUP1 ISZERO PUSH2 0x691 JUMPI DUP2 PUSH1 0x20 ADD PUSH1 0x20 DUP3 MUL DUP1 CALLDATASIZE DUP4 CALLDATACOPY DUP1 DUP3 ADD SWAP2 POP POP SWAP1 POP JUMPDEST POP SWAP1 POP PUSH1 0x60 PUSH1 0x2 SLOAD PUSH8 0xFFFFFFFFFFFFFFFF DUP2 GT DUP1 ISZERO PUSH2 0x6AF JUMPI PUSH1 0x0 DUP1 REVERT JUMPDEST POP PUSH1 0x40 MLOAD SWAP1 DUP1 DUP3 MSTORE DUP1 PUSH1 0x20 MUL PUSH1 0x20 ADD DUP3 ADD PUSH1 0x40 MSTORE DUP1 ISZERO PUSH2 0x6E3 JUMPI DUP2 PUSH1 0x20 ADD JUMPDEST PUSH1 0x60 DUP2 MSTORE PUSH1 0x20 ADD SWAP1 PUSH1 0x1 SWAP1 SUB SWAP1 DUP2 PUSH2 0x6CE JUMPI SWAP1 POP JUMPDEST POP SWAP1 POP PUSH1 0x0 JUMPDEST PUSH1 0x1 DUP1 SLOAD SWAP1 POP DUP2 LT ISZERO PUSH2 0x7F4 JUMPI PUSH1 0x0 PUSH1 0x1 DUP3 DUP2 SLOAD DUP2 LT PUSH2 0x705 JUMPI INVALID JUMPDEST SWAP1 PUSH1 0x0 MSTORE PUSH1 0x20 PUSH1 0x0 KECCAK256 SWAP1 PUSH1 0x4 MUL ADD SWAP1 POP DUP1 PUSH1 0x0 ADD SLOAD DUP5 DUP4 DUP2 MLOAD DUP2 LT PUSH2 0x726 JUMPI INVALID JUMPDEST PUSH1 0x20 MUL PUSH1 0x20 ADD ADD DUP2 DUP2 MSTORE POP POP DUP1 PUSH1 0x1 ADD DUP1 SLOAD PUSH1 0x1 DUP2 PUSH1 0x1 AND ISZERO PUSH2 0x100 MUL SUB AND PUSH1 0x2 SWAP1 DIV DUP1 PUSH1 0x1F ADD PUSH1 0x20 DUP1 SWAP2 DIV MUL PUSH1 0x20 ADD PUSH1 0x40 MLOAD SWAP1 DUP2 ADD PUSH1 0x40 MSTORE DUP1 SWAP3 SWAP2 SWAP1 DUP2 DUP2 MSTORE PUSH1 0x20 ADD DUP3 DUP1 SLOAD PUSH1 0x1 DUP2 PUSH1 0x1 AND ISZERO PUSH2 0x100 MUL SUB AND PUSH1 0x2 SWAP1 DIV DUP1 ISZERO PUSH2 0x7CA JUMPI DUP1 PUSH1 0x1F LT PUSH2 0x79F JUMPI PUSH2 0x100 DUP1 DUP4 SLOAD DIV MUL DUP4 MSTORE SWAP2 PUSH1 0x20 ADD SWAP2 PUSH2 0x7CA JUMP JUMPDEST DUP3 ADD SWAP2 SWAP1 PUSH1 0x0 MSTORE PUSH1 0x20 PUSH1 0x0 KECCAK256 SWAP1 JUMPDEST DUP2 SLOAD DUP2 MSTORE SWAP1 PUSH1 0x1 ADD SWAP1 PUSH1 0x20 ADD DUP1 DUP4 GT PUSH2 0x7AD JUMPI DUP3 SWAP1 SUB PUSH1 0x1F AND DUP3 ADD SWAP2 JUMPDEST POP POP POP POP POP DUP4 DUP4 DUP2 MLOAD DUP2 LT PUSH2 0x7DB JUMPI INVALID JUMPDEST PUSH1 0x20 MUL PUSH1 0x20 ADD ADD DUP2 SWAP1 MSTORE POP POP DUP1 DUP1 PUSH1 0x1 ADD SWAP2 POP POP PUSH2 0x6E9 JUMP JUMPDEST POP DUP2 DUP2 SWAP4 POP SWAP4 POP POP POP SWAP1 SWAP2 JUMP JUMPDEST PUSH1 0x60 PUSH1 0x0 DUP1 SLOAD SWAP1 PUSH2 0x100 EXP SWAP1 DIV PUSH20 0xFFFFFFFFFFFFFFFFFFFFFFFFFFFFFFFFFFFFFFFF AND PUSH20 0xFFFFFFFFFFFFFFFFFFFFFFFFFFFFFFFFFFFFFFFF AND CALLER PUSH20 0xFFFFFFFFFFFFFFFFFFFFFFFFFFFFFFFFFFFFFFFF AND EQ PUSH2 0x85B JUMPI PUSH1 0x0 DUP1 REVERT JUMPDEST PUSH1 0x0 JUMPDEST PUSH1 0x1 DUP1 SLOAD SWAP1 POP DUP2 LT ISZERO PUSH2 0x9EF JUMPI PUSH1 0x0 PUSH1 0x1 DUP3 DUP2 SLOAD DUP2 LT PUSH2 0x87A JUMPI INVALID JUMPDEST SWAP1 PUSH1 0x0 MSTORE PUSH1 0x20 PUSH1 0x0 KECCAK256 SWAP1 PUSH1 0x4 MUL ADD SWAP1 POP DUP1 PUSH1 0x0 ADD SLOAD DUP5 EQ ISZERO PUSH2 0x9E1 JUMPI PUSH1 0x60 DUP2 PUSH1 0x3 ADD DUP1 SLOAD SWAP1 POP PUSH8 0xFFFFFFFFFFFFFFFF DUP2 GT DUP1 ISZERO PUSH2 0x8B6 JUMPI PUSH1 0x0 DUP1 REVERT JUMPDEST POP PUSH1 0x40 MLOAD SWAP1 DUP1 DUP3 MSTORE DUP1 PUSH1 0x20 MUL PUSH1 0x20 ADD DUP3 ADD PUSH1 0x40 MSTORE DUP1 ISZERO PUSH2 0x8EA JUMPI DUP2 PUSH1 0x20 ADD JUMPDEST PUSH1 0x60 DUP2 MSTORE PUSH1 0x20 ADD SWAP1 PUSH1 0x1 SWAP1 SUB SWAP1 DUP2 PUSH2 0x8D5 JUMPI SWAP1 POP JUMPDEST POP SWAP1 POP PUSH1 0x0 JUMPDEST DUP3 PUSH1 0x3 ADD DUP1 SLOAD SWAP1 POP DUP2 LT ISZERO PUSH2 0x9D5 JUMPI DUP3 PUSH1 0x3 ADD DUP2 DUP2 SLOAD DUP2 LT PUSH2 0x90E JUMPI INVALID JUMPDEST SWAP1 PUSH1 0x0 MSTORE PUSH1 0x20 PUSH1 0x0 KECCAK256 ADD DUP1 SLOAD PUSH1 0x1 DUP2 PUSH1 0x1 AND ISZERO PUSH2 0x100 MUL SUB AND PUSH1 0x2 SWAP1 DIV DUP1 PUSH1 0x1F ADD PUSH1 0x20 DUP1 SWAP2 DIV MUL PUSH1 0x20 ADD PUSH1 0x40 MLOAD SWAP1 DUP2 ADD PUSH1 0x40 MSTORE DUP1 SWAP3 SWAP2 SWAP1 DUP2 DUP2 MSTORE PUSH1 0x20 ADD DUP3 DUP1 SLOAD PUSH1 0x1 DUP2 PUSH1 0x1 AND ISZERO PUSH2 0x100 MUL SUB AND PUSH1 0x2 SWAP1 DIV DUP1 ISZERO PUSH2 0x9AC JUMPI DUP1 PUSH1 0x1F LT PUSH2 0x981 JUMPI PUSH2 0x100 DUP1 DUP4 SLOAD DIV MUL DUP4 MSTORE SWAP2 PUSH1 0x20 ADD SWAP2 PUSH2 0x9AC JUMP JUMPDEST DUP3 ADD SWAP2 SWAP1 PUSH1 0x0 MSTORE PUSH1 0x20 PUSH1 0x0 KECCAK256 SWAP1 JUMPDEST DUP2 SLOAD DUP2 MSTORE SWAP1 PUSH1 0x1 ADD SWAP1 PUSH1 0x20 ADD DUP1 DUP4 GT PUSH2 0x98F JUMPI DUP3 SWAP1 SUB PUSH1 0x1F AND DUP3 ADD SWAP2 JUMPDEST POP POP POP POP POP DUP3 DUP3 DUP2 MLOAD DUP2 LT PUSH2 0x9BD JUMPI INVALID JUMPDEST PUSH1 0x20 MUL PUSH1 0x20 ADD ADD DUP2 SWAP1 MSTORE POP DUP1 DUP1 PUSH1 0x1 ADD SWAP2 POP POP PUSH2 0x8F0 JUMP JUMPDEST POP DUP1 SWAP4 POP POP POP POP PUSH2 0x9F1 JUMP JUMPDEST POP DUP1 DUP1 PUSH1 0x1 ADD SWAP2 POP POP PUSH2 0x85E JUMP JUMPDEST POP JUMPDEST SWAP2 SWAP1 POP JUMP JUMPDEST PUSH1 0x0 DUP1 SLOAD SWAP1 PUSH2 0x100 EXP SWAP1 DIV PUSH20 0xFFFFFFFFFFFFFFFFFFFFFFFFFFFFFFFFFFFFFFFF AND PUSH20 0xFFFFFFFFFFFFFFFFFFFFFFFFFFFFFFFFFFFFFFFF AND CALLER PUSH20 0xFFFFFFFFFFFFFFFFFFFFFFFFFFFFFFFFFFFFFFFF AND EQ PUSH2 0xA4E JUMPI PUSH1 0x0 DUP1 REVERT JUMPDEST PUSH2 0xA56 PUSH2 0xF35 JUMP JUMPDEST PUSH1 0x40 MLOAD DUP1 PUSH1 0x80 ADD PUSH1 0x40 MSTORE DUP1 PUSH1 0x2 SLOAD DUP2 MSTORE PUSH1 0x20 ADD DUP5 DUP2 MSTORE PUSH1 0x20 ADD DUP4 DUP2 MSTORE PUSH1 0x20 ADD PUSH1 0x0 PUSH8 0xFFFFFFFFFFFFFFFF DUP2 GT DUP1 ISZERO PUSH2 0xA8D JUMPI PUSH1 0x0 DUP1 REVERT JUMPDEST POP PUSH1 0x40 MLOAD SWAP1 DUP1 DUP3 MSTORE DUP1 PUSH1 0x20 MUL PUSH1 0x20 ADD DUP3 ADD PUSH1 0x40 MSTORE DUP1 ISZERO PUSH2 0xAC1 JUMPI DUP2 PUSH1 0x20 ADD JUMPDEST PUSH1 0x60 DUP2 MSTORE PUSH1 0x20 ADD SWAP1 PUSH1 0x1 SWAP1 SUB SWAP1 DUP2 PUSH2 0xAAC JUMPI SWAP1 POP JUMPDEST POP DUP2 MSTORE POP SWAP1 POP PUSH1 0x2 PUSH1 0x0 DUP2 SLOAD DUP1 SWAP3 SWAP2 SWAP1 PUSH1 0x1 ADD SWAP2 SWAP1 POP SSTORE POP PUSH1 0x1 DUP2 SWAP1 DUP1 PUSH1 0x1 DUP2 SLOAD ADD DUP1 DUP3 SSTORE DUP1 SWAP2 POP POP PUSH1 0x1 SWAP1 SUB SWAP1 PUSH1 0x0 MSTORE PUSH1 0x20 PUSH1 0x0 KECCAK256 SWAP1 PUSH1 0x4 MUL ADD PUSH1 0x0 SWAP1 SWAP2 SWAP1 SWAP2 SWAP1 SWAP2 POP PUSH1 0x0 DUP3 ADD MLOAD DUP2 PUSH1 0x0 ADD SSTORE PUSH1 0x20 DUP3 ADD MLOAD DUP2 PUSH1 0x1 ADD SWAP1 DUP1 MLOAD SWAP1 PUSH1 0x20 ADD SWAP1 PUSH2 0xB2B SWAP3 SWAP2 SWAP1 PUSH2 0xE6D JUMP JUMPDEST POP PUSH1 0x40 DUP3 ADD MLOAD DUP2 PUSH1 0x2 ADD SWAP1 DUP1 MLOAD SWAP1 PUSH1 0x20 ADD SWAP1 PUSH2 0xB48 SWAP3 SWAP2 SWAP1 PUSH2 0xE6D JUMP JUMPDEST POP PUSH1 0x60 DUP3 ADD MLOAD DUP2 PUSH1 0x3 ADD SWAP1 DUP1 MLOAD SWAP1 PUSH1 0x20 ADD SWAP1 PUSH2 0xB65 SWAP3 SWAP2 SWAP1 PUSH2 0xF5D JUMP JUMPDEST POP POP POP POP POP POP JUMP JUMPDEST PUSH1 0x0 DUP1 PUSH1 0x0 SWAP1 SLOAD SWAP1 PUSH2 0x100 EXP SWAP1 DIV PUSH20 0xFFFFFFFFFFFFFFFFFFFFFFFFFFFFFFFFFFFFFFFF AND PUSH20 0xFFFFFFFFFFFFFFFFFFFFFFFFFFFFFFFFFFFFFFFF AND CALLER PUSH20 0xFFFFFFFFFFFFFFFFFFFFFFFFFFFFFFFFFFFFFFFF AND EQ PUSH2 0xBC8 JUMPI PUSH1 0x0 DUP1 REVERT JUMPDEST PUSH1 0x0 JUMPDEST PUSH1 0x1 DUP1 SLOAD SWAP1 POP DUP2 LT ISZERO PUSH2 0xCFD JUMPI PUSH1 0x1 DUP2 DUP2 SLOAD DUP2 LT PUSH2 0xBE5 JUMPI INVALID JUMPDEST SWAP1 PUSH1 0x0 MSTORE PUSH1 0x20 PUSH1 0x0 KECCAK256 SWAP1 PUSH1 0x4 MUL ADD PUSH1 0x0 ADD SLOAD DUP6 EQ DUP1 ISZERO PUSH2 0xC6D JUMPI POP PUSH1 0x1 DUP2 DUP2 SLOAD DUP2 LT PUSH2 0xC0D JUMPI INVALID JUMPDEST SWAP1 PUSH1 0x0 MSTORE PUSH1 0x20 PUSH1 0x0 KECCAK256 SWAP1 PUSH1 0x4 MUL ADD PUSH1 0x1 ADD PUSH1 0x40 MLOAD PUSH1 0x20 ADD PUSH2 0xC2E SWAP2 SWAP1 PUSH2 0x140A JUMP JUMPDEST PUSH1 0x40 MLOAD PUSH1 0x20 DUP2 DUP4 SUB SUB DUP2 MSTORE SWAP1 PUSH1 0x40 MSTORE DUP1 MLOAD SWAP1 PUSH1 0x20 ADD KECCAK256 DUP5 PUSH1 0x40 MLOAD PUSH1 0x20 ADD PUSH2 0xC55 SWAP2 SWAP1 PUSH2 0x13F3 JUMP JUMPDEST PUSH1 0x40 MLOAD PUSH1 0x20 DUP2 DUP4 SUB SUB DUP2 MSTORE SWAP1 PUSH1 0x40 MSTORE DUP1 MLOAD SWAP1 PUSH1 0x20 ADD KECCAK256 EQ JUMPDEST DUP1 ISZERO PUSH2 0xCE1 JUMPI POP PUSH1 0x1 DUP2 DUP2 SLOAD DUP2 LT PUSH2 0xC81 JUMPI INVALID JUMPDEST SWAP1 PUSH1 0x0 MSTORE PUSH1 0x20 PUSH1 0x0 KECCAK256 SWAP1 PUSH1 0x4 MUL ADD PUSH1 0x2 ADD PUSH1 0x40 MLOAD PUSH1 0x20 ADD PUSH2 0xCA2 SWAP2 SWAP1 PUSH2 0x140A JUMP JUMPDEST PUSH1 0x40 MLOAD PUSH1 0x20 DUP2 DUP4 SUB SUB DUP2 MSTORE SWAP1 PUSH1 0x40 MSTORE DUP1 MLOAD SWAP1 PUSH1 0x20 ADD KECCAK256 DUP4 PUSH1 0x40 MLOAD PUSH1 0x20 ADD PUSH2 0xCC9 SWAP2 SWAP1 PUSH2 0x13F3 JUMP JUMPDEST PUSH1 0x40 MLOAD PUSH1 0x20 DUP2 DUP4 SUB SUB DUP2 MSTORE SWAP1 PUSH1 0x40 MSTORE DUP1 MLOAD SWAP1 PUSH1 0x20 ADD KECCAK256 EQ JUMPDEST ISZERO PUSH2 0xCF0 JUMPI PUSH1 0x1 SWAP2 POP POP PUSH2 0xD03 JUMP JUMPDEST DUP1 DUP1 PUSH1 0x1 ADD SWAP2 POP POP PUSH2 0xBCB JUMP JUMPDEST POP PUSH1 0x0 SWAP1 POP JUMPDEST SWAP4 SWAP3 POP POP POP JUMP JUMPDEST PUSH1 0x0 DUP1 SLOAD SWAP1 PUSH2 0x100 EXP SWAP1 DIV PUSH20 0xFFFFFFFFFFFFFFFFFFFFFFFFFFFFFFFFFFFFFFFF AND PUSH20 0xFFFFFFFFFFFFFFFFFFFFFFFFFFFFFFFFFFFFFFFF AND CALLER PUSH20 0xFFFFFFFFFFFFFFFFFFFFFFFFFFFFFFFFFFFFFFFF AND EQ PUSH2 0xD62 JUMPI PUSH1 0x0 DUP1 REVERT JUMPDEST PUSH1 0x0 JUMPDEST PUSH1 0x1 DUP1 SLOAD SWAP1 POP DUP2 LT ISZERO PUSH2 0xE67 JUMPI PUSH1 0x0 PUSH1 0x1 DUP3 DUP2 SLOAD DUP2 LT PUSH2 0xD81 JUMPI INVALID JUMPDEST SWAP1 PUSH1 0x0 MSTORE PUSH1 0x20 PUSH1 0x0 KECCAK256 SWAP1 PUSH1 0x4 MUL ADD SWAP1 POP DUP1 PUSH1 0x0 ADD SLOAD DUP6 EQ ISZERO PUSH2 0xE59 JUMPI PUSH1 0x0 JUMPDEST DUP2 PUSH1 0x3 ADD DUP1 SLOAD SWAP1 POP DUP2 LT ISZERO PUSH2 0xE57 JUMPI DUP5 PUSH1 0x40 MLOAD PUSH1 0x20 ADD PUSH2 0xDC0 SWAP2 SWAP1 PUSH2 0x13F3 JUMP JUMPDEST PUSH1 0x40 MLOAD PUSH1 0x20 DUP2 DUP4 SUB SUB DUP2 MSTORE SWAP1 PUSH1 0x40 MSTORE DUP1 MLOAD SWAP1 PUSH1 0x20 ADD KECCAK256 DUP3 PUSH1 0x3 ADD DUP3 DUP2 SLOAD DUP2 LT PUSH2 0xDE5 JUMPI INVALID JUMPDEST SWAP1 PUSH1 0x0 MSTORE PUSH1 0x20 PUSH1 0x0 KECCAK256 ADD PUSH1 0x40 MLOAD PUSH1 0x20 ADD PUSH2 0xDFF SWAP2 SWAP1 PUSH2 0x140A JUMP JUMPDEST PUSH1 0x40 MLOAD PUSH1 0x20 DUP2 DUP4 SUB SUB DUP2 MSTORE SWAP1 PUSH1 0x40 MSTORE DUP1 MLOAD SWAP1 PUSH1 0x20 ADD KECCAK256 EQ ISZERO PUSH2 0xE4A JUMPI DUP4 DUP3 PUSH1 0x3 ADD DUP3 DUP2 SLOAD DUP2 LT PUSH2 0xE2B JUMPI INVALID JUMPDEST SWAP1 PUSH1 0x0 MSTORE PUSH1 0x20 PUSH1 0x0 KECCAK256 ADD SWAP1 DUP1 MLOAD SWAP1 PUSH1 0x20 ADD SWAP1 PUSH2 0xE48 SWAP3 SWAP2 SWAP1 PUSH2 0xE6D JUMP JUMPDEST POP JUMPDEST DUP1 DUP1 PUSH1 0x1 ADD SWAP2 POP POP PUSH2 0xDA0 JUMP JUMPDEST POP JUMPDEST POP DUP1 DUP1 PUSH1 0x1 ADD SWAP2 POP POP PUSH2 0xD65 JUMP JUMPDEST POP POP POP POP JUMP JUMPDEST DUP3 DUP1 SLOAD PUSH1 0x1 DUP2 PUSH1 0x1 AND ISZERO PUSH2 0x100 MUL SUB AND PUSH1 0x2 SWAP1 DIV SWAP1 PUSH1 0x0 MSTORE PUSH1 0x20 PUSH1 0x0 KECCAK256 SWAP1 PUSH1 0x1F ADD PUSH1 0x20 SWAP1 DIV DUP2 ADD SWAP3 DUP3 PUSH1 0x1F LT PUSH2 0xEAE JUMPI DUP1 MLOAD PUSH1 0xFF NOT AND DUP4 DUP1 ADD OR DUP6 SSTORE PUSH2 0xEDC JUMP JUMPDEST DUP3 DUP1 ADD PUSH1 0x1 ADD DUP6 SSTORE DUP3 ISZERO PUSH2 0xEDC JUMPI SWAP2 DUP3 ADD JUMPDEST DUP3 DUP2 GT ISZERO PUSH2 0xEDB JUMPI DUP3 MLOAD DUP3 SSTORE SWAP2 PUSH1 0x20 ADD SWAP2 SWAP1 PUSH1 0x1 ADD SWAP1 PUSH2 0xEC0 JUMP JUMPDEST JUMPDEST POP SWAP1 POP PUSH2 0xEE9 SWAP2 SWAP1 PUSH2 0xFBD JUMP JUMPDEST POP SWAP1 JUMP JUMPDEST POP DUP1 SLOAD PUSH1 0x1 DUP2 PUSH1 0x1 AND ISZERO PUSH2 0x100 MUL SUB AND PUSH1 0x2 SWAP1 DIV PUSH1 0x0 DUP3 SSTORE DUP1 PUSH1 0x1F LT PUSH2 0xF13 JUMPI POP PUSH2 0xF32 JUMP JUMPDEST PUSH1 0x1F ADD PUSH1 0x20 SWAP1 DIV SWAP1 PUSH1 0x0 MSTORE PUSH1 0x20 PUSH1 0x0 KECCAK256 SWAP1 DUP2 ADD SWAP1 PUSH2 0xF31 SWAP2 SWAP1 PUSH2 0xFBD JUMP JUMPDEST JUMPDEST POP JUMP JUMPDEST PUSH1 0x40 MLOAD DUP1 PUSH1 0x80 ADD PUSH1 0x40 MSTORE DUP1 PUSH1 0x0 DUP2 MSTORE PUSH1 0x20 ADD PUSH1 0x60 DUP2 MSTORE PUSH1 0x20 ADD PUSH1 0x60 DUP2 MSTORE PUSH1 0x20 ADD PUSH1 0x60 DUP2 MSTORE POP SWAP1 JUMP JUMPDEST DUP3 DUP1 SLOAD DUP3 DUP3 SSTORE SWAP1 PUSH1 0x0 MSTORE PUSH1 0x20 PUSH1 0x0 KECCAK256 SWAP1 DUP2 ADD SWAP3 DUP3 ISZERO PUSH2 0xFAC JUMPI SWAP2 PUSH1 0x20 MUL DUP3 ADD JUMPDEST DUP3 DUP2 GT ISZERO PUSH2 0xFAB JUMPI DUP3 MLOAD DUP3 SWAP1 DUP1 MLOAD SWAP1 PUSH1 0x20 ADD SWAP1 PUSH2 0xF9B SWAP3 SWAP2 SWAP1 PUSH2 0xE6D JUMP JUMPDEST POP SWAP2 PUSH1 0x20 ADD SWAP2 SWAP1 PUSH1 0x1 ADD SWAP1 PUSH2 0xF7D JUMP JUMPDEST JUMPDEST POP SWAP1 POP PUSH2 0xFB9 SWAP2 SWAP1 PUSH2 0xFDA JUMP JUMPDEST POP SWAP1 JUMP JUMPDEST JUMPDEST DUP1 DUP3 GT ISZERO PUSH2 0xFD6 JUMPI PUSH1 0x0 DUP2 PUSH1 0x0 SWAP1 SSTORE POP PUSH1 0x1 ADD PUSH2 0xFBE JUMP JUMPDEST POP SWAP1 JUMP JUMPDEST JUMPDEST DUP1 DUP3 GT ISZERO PUSH2 0xFFA JUMPI PUSH1 0x0 DUP2 DUP2 PUSH2 0xFF1 SWAP2 SWAP1 PUSH2 0xEED JUMP JUMPDEST POP PUSH1 0x1 ADD PUSH2 0xFDB JUMP JUMPDEST POP SWAP1 JUMP JUMPDEST PUSH1 0x0 DUP3 PUSH1 0x1F DUP4 ADD SLT PUSH2 0x100F JUMPI PUSH1 0x0 DUP1 REVERT JUMPDEST DUP2 CALLDATALOAD PUSH2 0x1022 PUSH2 0x101D DUP3 PUSH2 0x14DD JUMP JUMPDEST PUSH2 0x14B0 JUMP JUMPDEST SWAP2 POP DUP1 DUP3 MSTORE PUSH1 0x20 DUP4 ADD PUSH1 0x20 DUP4 ADD DUP6 DUP4 DUP4 ADD GT ISZERO PUSH2 0x103E JUMPI PUSH1 0x0 DUP1 REVERT JUMPDEST PUSH2 0x1049 DUP4 DUP3 DUP5 PUSH2 0x15CD JUMP JUMPDEST POP POP POP SWAP3 SWAP2 POP POP JUMP JUMPDEST PUSH1 0x0 DUP2 CALLDATALOAD SWAP1 POP PUSH2 0x1061 DUP2 PUSH2 0x1620 JUMP JUMPDEST SWAP3 SWAP2 POP POP JUMP JUMPDEST PUSH1 0x0 DUP1 PUSH1 0x40 DUP4 DUP6 SUB SLT ISZERO PUSH2 0x107A JUMPI PUSH1 0x0 DUP1 REVERT JUMPDEST PUSH1 0x0 DUP4 ADD CALLDATALOAD PUSH8 0xFFFFFFFFFFFFFFFF DUP2 GT ISZERO PUSH2 0x1094 JUMPI PUSH1 0x0 DUP1 REVERT JUMPDEST PUSH2 0x10A0 DUP6 DUP3 DUP7 ADD PUSH2 0xFFE JUMP JUMPDEST SWAP3 POP POP PUSH1 0x20 DUP4 ADD CALLDATALOAD PUSH8 0xFFFFFFFFFFFFFFFF DUP2 GT ISZERO PUSH2 0x10BD JUMPI PUSH1 0x0 DUP1 REVERT JUMPDEST PUSH2 0x10C9 DUP6 DUP3 DUP7 ADD PUSH2 0xFFE JUMP JUMPDEST SWAP2 POP POP SWAP3 POP SWAP3 SWAP1 POP JUMP JUMPDEST PUSH1 0x0 PUSH1 0x20 DUP3 DUP5 SUB SLT ISZERO PUSH2 0x10E5 JUMPI PUSH1 0x0 DUP1 REVERT JUMPDEST PUSH1 0x0 PUSH2 0x10F3 DUP5 DUP3 DUP6 ADD PUSH2 0x1052 JUMP JUMPDEST SWAP2 POP POP SWAP3 SWAP2 POP POP JUMP JUMPDEST PUSH1 0x0 DUP1 PUSH1 0x40 DUP4 DUP6 SUB SLT ISZERO PUSH2 0x110F JUMPI PUSH1 0x0 DUP1 REVERT JUMPDEST PUSH1 0x0 PUSH2 0x111D DUP6 DUP3 DUP7 ADD PUSH2 0x1052 JUMP JUMPDEST SWAP3 POP POP PUSH1 0x20 DUP4 ADD CALLDATALOAD PUSH8 0xFFFFFFFFFFFFFFFF DUP2 GT ISZERO PUSH2 0x113A JUMPI PUSH1 0x0 DUP1 REVERT JUMPDEST PUSH2 0x1146 DUP6 DUP3 DUP7 ADD PUSH2 0xFFE JUMP JUMPDEST SWAP2 POP POP SWAP3 POP SWAP3 SWAP1 POP JUMP JUMPDEST PUSH1 0x0 DUP1 PUSH1 0x0 PUSH1 0x60 DUP5 DUP7 SUB SLT ISZERO PUSH2 0x1165 JUMPI PUSH1 0x0 DUP1 REVERT JUMPDEST PUSH1 0x0 PUSH2 0x1173 DUP7 DUP3 DUP8 ADD PUSH2 0x1052 JUMP JUMPDEST SWAP4 POP POP PUSH1 0x20 DUP5 ADD CALLDATALOAD PUSH8 0xFFFFFFFFFFFFFFFF DUP2 GT ISZERO PUSH2 0x1190 JUMPI PUSH1 0x0 DUP1 REVERT JUMPDEST PUSH2 0x119C DUP7 DUP3 DUP8 ADD PUSH2 0xFFE JUMP JUMPDEST SWAP3 POP POP PUSH1 0x40 DUP5 ADD CALLDATALOAD PUSH8 0xFFFFFFFFFFFFFFFF DUP2 GT ISZERO PUSH2 0x11B9 JUMPI PUSH1 0x0 DUP1 REVERT JUMPDEST PUSH2 0x11C5 DUP7 DUP3 DUP8 ADD PUSH2 0xFFE JUMP JUMPDEST SWAP2 POP POP SWAP3 POP SWAP3 POP SWAP3 JUMP JUMPDEST PUSH1 0x0 PUSH2 0x11DB DUP4 DUP4 PUSH2 0x12DD JUMP JUMPDEST SWAP1 POP SWAP3 SWAP2 POP POP JUMP JUMPDEST PUSH1 0x0 PUSH2 0x11EF DUP4 DUP4 PUSH2 0x13D5 JUMP JUMPDEST PUSH1 0x20 DUP4 ADD SWAP1 POP SWAP3 SWAP2 POP POP JUMP JUMPDEST PUSH1 0x0 PUSH2 0x1206 DUP3 PUSH2 0x153E JUMP JUMPDEST PUSH2 0x1210 DUP2 DUP6 PUSH2 0x1579 JUMP JUMPDEST SWAP4 POP DUP4 PUSH1 0x20 DUP3 MUL DUP6 ADD PUSH2 0x1222 DUP6 PUSH2 0x1509 JUMP JUMPDEST DUP1 PUSH1 0x0 JUMPDEST DUP6 DUP2 LT ISZERO PUSH2 0x125E JUMPI DUP5 DUP5 SUB DUP10 MSTORE DUP2 MLOAD PUSH2 0x123F DUP6 DUP3 PUSH2 0x11CF JUMP JUMPDEST SWAP5 POP PUSH2 0x124A DUP4 PUSH2 0x155F JUMP JUMPDEST SWAP3 POP PUSH1 0x20 DUP11 ADD SWAP10 POP POP PUSH1 0x1 DUP2 ADD SWAP1 POP PUSH2 0x1226 JUMP JUMPDEST POP DUP3 SWAP8 POP DUP8 SWAP6 POP POP POP POP POP POP SWAP3 SWAP2 POP POP JUMP JUMPDEST PUSH1 0x0 PUSH2 0x127B DUP3 PUSH2 0x1549 JUMP JUMPDEST PUSH2 0x1285 DUP2 DUP6 PUSH2 0x158A JUMP JUMPDEST SWAP4 POP PUSH2 0x1290 DUP4 PUSH2 0x1519 JUMP JUMPDEST DUP1 PUSH1 0x0 JUMPDEST DUP4 DUP2 LT ISZERO PUSH2 0x12C1 JUMPI DUP2 MLOAD PUSH2 0x12A8 DUP9 DUP3 PUSH2 0x11E3 JUMP JUMPDEST SWAP8 POP PUSH2 0x12B3 DUP4 PUSH2 0x156C JUMP JUMPDEST SWAP3 POP POP PUSH1 0x1 DUP2 ADD SWAP1 POP PUSH2 0x1294 JUMP JUMPDEST POP DUP6 SWAP4 POP POP POP POP SWAP3 SWAP2 POP POP JUMP JUMPDEST PUSH2 0x12D7 DUP2 PUSH2 0x15B7 JUMP JUMPDEST DUP3 MSTORE POP POP JUMP JUMPDEST PUSH1 0x0 PUSH2 0x12E8 DUP3 PUSH2 0x1554 JUMP JUMPDEST PUSH2 0x12F2 DUP2 DUP6 PUSH2 0x159B JUMP JUMPDEST SWAP4 POP PUSH2 0x1302 DUP2 DUP6 PUSH1 0x20 DUP7 ADD PUSH2 0x15DC JUMP JUMPDEST PUSH2 0x130B DUP2 PUSH2 0x160F JUMP JUMPDEST DUP5 ADD SWAP2 POP POP SWAP3 SWAP2 POP POP JUMP JUMPDEST PUSH1 0x0 PUSH2 0x1321 DUP3 PUSH2 0x1554 JUMP JUMPDEST PUSH2 0x132B DUP2 DUP6 PUSH2 0x15AC JUMP JUMPDEST SWAP4 POP PUSH2 0x133B DUP2 DUP6 PUSH1 0x20 DUP7 ADD PUSH2 0x15DC JUMP JUMPDEST DUP1 DUP5 ADD SWAP2 POP POP SWAP3 SWAP2 POP POP JUMP JUMPDEST PUSH1 0x0 DUP2 SLOAD PUSH1 0x1 DUP2 AND PUSH1 0x0 DUP2 EQ PUSH2 0x1364 JUMPI PUSH1 0x1 DUP2 EQ PUSH2 0x1389 JUMPI PUSH2 0x13CD JUMP JUMPDEST PUSH1 0x7F PUSH1 0x2 DUP4 DIV AND PUSH2 0x1375 DUP2 DUP8 PUSH2 0x15AC JUMP JUMPDEST SWAP6 POP PUSH1 0xFF NOT DUP4 AND DUP7 MSTORE DUP1 DUP7 ADD SWAP4 POP POP PUSH2 0x13CD JUMP JUMPDEST PUSH1 0x2 DUP3 DIV PUSH2 0x1397 DUP2 DUP8 PUSH2 0x15AC JUMP JUMPDEST SWAP6 POP PUSH2 0x13A2 DUP6 PUSH2 0x1529 JUMP JUMPDEST PUSH1 0x0 JUMPDEST DUP3 DUP2 LT ISZERO PUSH2 0x13C4 JUMPI DUP2 SLOAD DUP2 DUP10 ADD MSTORE PUSH1 0x1 DUP3 ADD SWAP2 POP PUSH1 0x20 DUP2 ADD SWAP1 POP PUSH2 0x13A5 JUMP JUMPDEST DUP3 DUP9 ADD SWAP6 POP POP POP POP JUMPDEST POP POP SWAP3 SWAP2 POP POP JUMP JUMPDEST PUSH2 0x13DE DUP2 PUSH2 0x15C3 JUMP JUMPDEST DUP3 MSTORE POP POP JUMP JUMPDEST PUSH2 0x13ED DUP2 PUSH2 0x15C3 JUMP JUMPDEST DUP3 MSTORE POP POP JUMP JUMPDEST PUSH1 0x0 PUSH2 0x13FF DUP3 DUP5 PUSH2 0x1316 JUMP JUMPDEST SWAP2 POP DUP2 SWAP1 POP SWAP3 SWAP2 POP POP JUMP JUMPDEST PUSH1 0x0 PUSH2 0x1416 DUP3 DUP5 PUSH2 0x1347 JUMP JUMPDEST SWAP2 POP DUP2 SWAP1 POP SWAP3 SWAP2 POP POP JUMP JUMPDEST PUSH1 0x0 PUSH1 0x20 DUP3 ADD SWAP1 POP DUP2 DUP2 SUB PUSH1 0x0 DUP4 ADD MSTORE PUSH2 0x143B DUP2 DUP5 PUSH2 0x11FB JUMP JUMPDEST SWAP1 POP SWAP3 SWAP2 POP POP JUMP JUMPDEST PUSH1 0x0 PUSH1 0x40 DUP3 ADD SWAP1 POP DUP2 DUP2 SUB PUSH1 0x0 DUP4 ADD MSTORE PUSH2 0x145D DUP2 DUP6 PUSH2 0x1270 JUMP JUMPDEST SWAP1 POP DUP2 DUP2 SUB PUSH1 0x20 DUP4 ADD MSTORE PUSH2 0x1471 DUP2 DUP5 PUSH2 0x11FB JUMP JUMPDEST SWAP1 POP SWAP4 SWAP3 POP POP POP JUMP JUMPDEST PUSH1 0x0 PUSH1 0x20 DUP3 ADD SWAP1 POP PUSH2 0x148F PUSH1 0x0 DUP4 ADD DUP5 PUSH2 0x12CE JUMP JUMPDEST SWAP3 SWAP2 POP POP JUMP JUMPDEST PUSH1 0x0 PUSH1 0x20 DUP3 ADD SWAP1 POP PUSH2 0x14AA PUSH1 0x0 DUP4 ADD DUP5 PUSH2 0x13E4 JUMP JUMPDEST SWAP3 SWAP2 POP POP JUMP JUMPDEST PUSH1 0x0 PUSH1 0x40 MLOAD SWAP1 POP DUP2 DUP2 ADD DUP2 DUP2 LT PUSH8 0xFFFFFFFFFFFFFFFF DUP3 GT OR ISZERO PUSH2 0x14D3 JUMPI PUSH1 0x0 DUP1 REVERT JUMPDEST DUP1 PUSH1 0x40 MSTORE POP SWAP2 SWAP1 POP JUMP JUMPDEST PUSH1 0x0 PUSH8 0xFFFFFFFFFFFFFFFF DUP3 GT ISZERO PUSH2 0x14F4 JUMPI PUSH1 0x0 DUP1 REVERT JUMPDEST PUSH1 0x1F NOT PUSH1 0x1F DUP4 ADD AND SWAP1 POP PUSH1 0x20 DUP2 ADD SWAP1 POP SWAP2 SWAP1 POP JUMP JUMPDEST PUSH1 0x0 DUP2 SWAP1 POP PUSH1 0x20 DUP3 ADD SWAP1 POP SWAP2 SWAP1 POP JUMP JUMPDEST PUSH1 0x0 DUP2 SWAP1 POP PUSH1 0x20 DUP3 ADD SWAP1 POP SWAP2 SWAP1 POP JUMP JUMPDEST PUSH1 0x0 DUP2 SWAP1 POP DUP2 PUSH1 0x0 MSTORE PUSH1 0x20 PUSH1 0x0 KECCAK256 SWAP1 POP SWAP2 SWAP1 POP JUMP JUMPDEST PUSH1 0x0 DUP2 MLOAD SWAP1 POP SWAP2 SWAP1 POP JUMP JUMPDEST PUSH1 0x0 DUP2 MLOAD SWAP1 POP SWAP2 SWAP1 POP JUMP JUMPDEST PUSH1 0x0 DUP2 MLOAD SWAP1 POP SWAP2 SWAP1 POP JUMP JUMPDEST PUSH1 0x0 PUSH1 0x20 DUP3 ADD SWAP1 POP SWAP2 SWAP1 POP JUMP JUMPDEST PUSH1 0x0 PUSH1 0x20 DUP3 ADD SWAP1 POP SWAP2 SWAP1 POP JUMP JUMPDEST PUSH1 0x0 DUP3 DUP3 MSTORE PUSH1 0x20 DUP3 ADD SWAP1 POP SWAP3 SWAP2 POP POP JUMP JUMPDEST PUSH1 0x0 DUP3 DUP3 MSTORE PUSH1 0x20 DUP3 ADD SWAP1 POP SWAP3 SWAP2 POP POP JUMP JUMPDEST PUSH1 0x0 DUP3 DUP3 MSTORE PUSH1 0x20 DUP3 ADD SWAP1 POP SWAP3 SWAP2 POP POP JUMP JUMPDEST PUSH1 0x0 DUP2 SWAP1 POP SWAP3 SWAP2 POP POP JUMP JUMPDEST PUSH1 0x0 DUP2 ISZERO ISZERO SWAP1 POP SWAP2 SWAP1 POP JUMP JUMPDEST PUSH1 0x0 DUP2 SWAP1 POP SWAP2 SWAP1 POP JUMP JUMPDEST DUP3 DUP2 DUP4 CALLDATACOPY PUSH1 0x0 DUP4 DUP4 ADD MSTORE POP POP POP JUMP JUMPDEST PUSH1 0x0 JUMPDEST DUP4 DUP2 LT ISZERO PUSH2 0x15FA JUMPI DUP1 DUP3 ADD MLOAD DUP2 DUP5 ADD MSTORE PUSH1 0x20 DUP2 ADD SWAP1 POP PUSH2 0x15DF JUMP JUMPDEST DUP4 DUP2 GT ISZERO PUSH2 0x1609 JUMPI PUSH1 0x0 DUP5 DUP5 ADD MSTORE JUMPDEST POP POP POP POP JUMP JUMPDEST PUSH1 0x0 PUSH1 0x1F NOT PUSH1 0x1F DUP4 ADD AND SWAP1 POP SWAP2 SWAP1 POP JUMP JUMPDEST PUSH2 0x1629 DUP2 PUSH2 0x15C3 JUMP JUMPDEST DUP2 EQ PUSH2 0x1634 JUMPI PUSH1 0x0 DUP1 REVERT JUMPDEST POP JUMP INVALID LOG2 PUSH5 0x6970667358 0x22 SLT KECCAK256 GASLIMIT 0xE4 PUSH9 0xEE779962EE7114A92 SWAP5 EQ MLOAD DIV PUSH2 0x2EE7 ADDRESS 0xC4 EXTCODEHASH 0xA8 CALLCODE SAR EQ 0xDD 0x4D 0xDF LOG1 BALANCE DUP7 PUSH5 0x736F6C6343 STOP MOD 0xC STOP CALLER "
    },
    "gasEstimates": {
      "creation": {
        "codeDepositCost": "1148200",
        "executionCost": "27074",
        "totalCost": "1175274"
      },
      "external": {
        "addClient(string,string)": "infinite",
        "addTopic(uint256,string)": "infinite",
        "authenticate(uint256,string,string)": "infinite",
        "authorize(uint256,string)": "infinite",
        "deleteTopic(uint256,string)": "infinite",
        "getClients()": "infinite",
        "getClientsCount()": "2008",
        "getTopic(uint256)": "infinite",
        "updateTopic(uint256,string,string)": "infinite"
      }
    },
    "methodIdentifiers": {
      "addClient(string,string)": "98173ff4",
      "addTopic(uint256,string)": "3276807a",
      "authenticate(uint256,string,string)": "c4ae2f26",
      "authorize(uint256,string)": "52bfd15c",
      "deleteTopic(uint256,string)": "42bb20e1",
      "getClients()": "6db80995",
      "getClientsCount()": "30a66294",
      "getTopic(uint256)": "71658896",
      "updateTopic(uint256,string,string)": "e8e5339a"
    }
  },
  "storageLayout": {
    "storage": [
      {
        "astId": 4,
        "contract": "Mqttsc.sol:Mqttsc",
        "label": "manager",
        "offset": 0,
        "slot": "0",
        "type": "t_address_payable"
      },
      {
        "astId": 17,
        "contract": "Mqttsc.sol:Mqttsc",
        "label": "clientLedger",
        "offset": 0,
        "slot": "1",
        "type": "t_array(t_struct(Client)14_storage)dyn_storage"
      },
      {
        "astId": 19,
        "contract": "Mqttsc.sol:Mqttsc",
        "label": "clientCount",
        "offset": 0,
        "slot": "2",
        "type": "t_uint256"
      }
    ],
    "types": {
      "t_address_payable": {
        "encoding": "inplace",
        "label": "address payable",
        "numberOfBytes": "20"
      },
      "t_array(t_string_storage)dyn_storage": {
        "base": "t_string_storage",
        "encoding": "dynamic_array",
        "label": "string[]",
        "numberOfBytes": "32"
      },
      "t_array(t_struct(Client)14_storage)dyn_storage": {
        "base": "t_struct(Client)14_storage",
        "encoding": "dynamic_array",
        "label": "struct Mqttsc.Client[]",
        "numberOfBytes": "32"
      },
      "t_string_storage": {
        "encoding": "bytes",
        "label": "string",
        "numberOfBytes": "32"
      },
      "t_struct(Client)14_storage": {
        "encoding": "inplace",
        "label": "struct Mqttsc.Client",
        "members": [
          {
            "astId": 6,
            "contract": "Mqttsc.sol:Mqttsc",
            "label": "id",
            "offset": 0,
            "slot": "0",
            "type": "t_uint256"
          },
          {
            "astId": 8,
            "contract": "Mqttsc.sol:Mqttsc",
            "label": "username",
            "offset": 0,
            "slot": "1",
            "type": "t_string_storage"
          },
          {
            "astId": 10,
            "contract": "Mqttsc.sol:Mqttsc",
            "label": "password",
            "offset": 0,
            "slot": "2",
            "type": "t_string_storage"
          },
          {
            "astId": 13,
            "contract": "Mqttsc.sol:Mqttsc",
            "label": "topic",
            "offset": 0,
            "slot": "3",
            "type": "t_array(t_string_storage)dyn_storage"
          }
        ],
        "numberOfBytes": "128"
      },
      "t_uint256": {
        "encoding": "inplace",
        "label": "uint256",
        "numberOfBytes": "32"
      }
    }
  },
  "userdoc": {
    "kind": "user",
    "methods": {},
    "version": 1
  }
}