{
  "abi": [
    {
      "inputs": [],
      "stateMutability": "nonpayable",
      "type": "constructor"
    },
    {
      "inputs": [
        {
          "internalType": "string",
          "name": "_username",
          "type": "string"
        },
        {
          "internalType": "string",
          "name": "_password",
          "type": "string"
        }
      ],
      "name": "addClient",
      "outputs": [],
      "stateMutability": "nonpayable",
      "type": "function"
    },
    {
      "inputs": [
        {
          "internalType": "uint256",
          "name": "_id",
          "type": "uint256"
        },
        {
          "internalType": "string",
          "name": "_topic",
          "type": "string"
        }
      ],
      "name": "addTopic",
      "outputs": [],
      "stateMutability": "nonpayable",
      "type": "function"
    },
    {
      "inputs": [
        {
          "internalType": "uint256",
          "name": "_id",
          "type": "uint256"
        },
        {
          "internalType": "string",
          "name": "_username",
          "type": "string"
        },
        {
          "internalType": "string",
          "name": "_password",
          "type": "string"
        }
      ],
      "name": "authenticate",
      "outputs": [
        {
          "internalType": "bool",
          "name": "",
          "type": "bool"
        }
      ],
      "stateMutability": "view",
      "type": "function"
    },
    {
      "inputs": [
        {
          "internalType": "uint256",
          "name": "_id",
          "type": "uint256"
        },
        {
          "internalType": "string",
          "name": "_topic",
          "type": "string"
        }
      ],
      "name": "authorize",
      "outputs": [
        {
          "internalType": "bool",
          "name": "",
          "type": "bool"
        }
      ],
      "stateMutability": "view",
      "type": "function"
    },
    {
      "inputs": [],
      "name": "changed",
      "outputs": [
        {
          "internalType": "bool",
          "name": "",
          "type": "bool"
        }
      ],
      "stateMutability": "view",
      "type": "function"
    },
    {
      "inputs": [
        {
          "internalType": "uint256",
          "name": "_id",
          "type": "uint256"
        }
      ],
      "name": "deleteClient",
      "outputs": [],
      "stateMutability": "nonpayable",
      "type": "function"
    },
    {
      "inputs": [
        {
          "internalType": "uint256",
          "name": "_id",
          "type": "uint256"
        },
        {
          "internalType": "string",
          "name": "_topic",
          "type": "string"
        }
      ],
      "name": "deleteTopic",
      "outputs": [],
      "stateMutability": "nonpayable",
      "type": "function"
    },
    {
      "inputs": [],
      "name": "getClients",
      "outputs": [
        {
          "internalType": "uint256[]",
          "name": "",
          "type": "uint256[]"
        },
        {
          "internalType": "string[]",
          "name": "",
          "type": "string[]"
        },
        {
          "internalType": "string[]",
          "name": "",
          "type": "string[]"
        }
      ],
      "stateMutability": "view",
      "type": "function"
    },
    {
      "inputs": [],
      "name": "getClientsCount",
      "outputs": [
        {
          "internalType": "uint256",
          "name": "",
          "type": "uint256"
        }
      ],
      "stateMutability": "view",
      "type": "function"
    },
    {
      "inputs": [
        {
          "internalType": "uint256",
          "name": "_id",
          "type": "uint256"
        }
      ],
      "name": "getTopic",
      "outputs": [
        {
          "internalType": "string[]",
          "name": "",
          "type": "string[]"
        }
      ],
      "stateMutability": "view",
      "type": "function"
    },
    {
      "inputs": [
        {
          "internalType": "uint256",
          "name": "_id",
          "type": "uint256"
        },
        {
          "internalType": "string",
          "name": "_topic",
          "type": "string"
        },
        {
          "internalType": "string",
          "name": "_newtopic",
          "type": "string"
        }
      ],
      "name": "updateTopic",
      "outputs": [],
      "stateMutability": "nonpayable",
      "type": "function"
    }
  ],
  "devdoc": {
    "kind": "dev",
    "methods": {},
    "version": 1
  },
  "evm": {
    "assembly": "    /* \"Mqttsc.sol\":99:5586  contract Mqttsc {\r... */\n  mstore(0x40, 0x80)\n    /* \"Mqttsc.sol\":419:528  constructor () public {\r... */\n  callvalue\n  dup1\n  iszero\n  tag_1\n  jumpi\n  0x00\n  dup1\n  revert\ntag_1:\n  pop\n    /* \"Mqttsc.sol\":462:472  msg.sender */\n  caller\n    /* \"Mqttsc.sol\":452:459  manager */\n  0x00\n  dup1\n    /* \"Mqttsc.sol\":452:472  manager = msg.sender */\n  0x0100\n  exp\n  dup2\n  sload\n  dup2\n  0xffffffffffffffffffffffffffffffffffffffff\n  mul\n  not\n  and\n  swap1\n  dup4\n  0xffffffffffffffffffffffffffffffffffffffff\n  and\n  mul\n  or\n  swap1\n  sstore\n  pop\n    /* \"Mqttsc.sol\":497:498  0 */\n  0x00\n    /* \"Mqttsc.sol\":483:494  clientCount */\n  0x02\n    /* \"Mqttsc.sol\":483:498  clientCount = 0 */\n  dup2\n  swap1\n  sstore\n  pop\n    /* \"Mqttsc.sol\":519:520  0 */\n  0x00\n    /* \"Mqttsc.sol\":509:516  idCount */\n  0x03\n    /* \"Mqttsc.sol\":509:520  idCount = 0 */\n  dup2\n  swap1\n  sstore\n  pop\n    /* \"Mqttsc.sol\":99:5586  contract Mqttsc {\r... */\n  dataSize(sub_0)\n  dup1\n  dataOffset(sub_0)\n  0x00\n  codecopy\n  0x00\n  return\nstop\n\nsub_0: assembly {\n        /* \"Mqttsc.sol\":99:5586  contract Mqttsc {\r... */\n      mstore(0x40, 0x80)\n      callvalue\n      dup1\n      iszero\n      tag_1\n      jumpi\n      0x00\n      dup1\n      revert\n    tag_1:\n      pop\n      jumpi(tag_2, lt(calldatasize, 0x04))\n      shr(0xe0, calldataload(0x00))\n      dup1\n      0x6db80995\n      gt\n      tag_14\n      jumpi\n      dup1\n      0x6db80995\n      eq\n      tag_8\n      jumpi\n      dup1\n      0x71658896\n      eq\n      tag_9\n      jumpi\n      dup1\n      0x98173ff4\n      eq\n      tag_10\n      jumpi\n      dup1\n      0xa9cb1a36\n      eq\n      tag_11\n      jumpi\n      dup1\n      0xc4ae2f26\n      eq\n      tag_12\n      jumpi\n      dup1\n      0xe8e5339a\n      eq\n      tag_13\n      jumpi\n      jump(tag_2)\n    tag_14:\n      dup1\n      0x0d3a6aee\n      eq\n      tag_3\n      jumpi\n      dup1\n      0x30a66294\n      eq\n      tag_4\n      jumpi\n      dup1\n      0x3276807a\n      eq\n      tag_5\n      jumpi\n      dup1\n      0x42bb20e1\n      eq\n      tag_6\n      jumpi\n      dup1\n      0x52bfd15c\n      eq\n      tag_7\n      jumpi\n    tag_2:\n      0x00\n      dup1\n      revert\n        /* \"Mqttsc.sol\":387:406  bool public changed */\n    tag_3:\n      tag_15\n      tag_16\n      jump\t// in\n    tag_15:\n      mload(0x40)\n      tag_17\n      swap2\n      swap1\n      tag_18\n      jump\t// in\n    tag_17:\n      mload(0x40)\n      dup1\n      swap2\n      sub\n      swap1\n      return\n        /* \"Mqttsc.sol\":540:641  function getClientsCount() isManager public view returns (uint) {\r... */\n    tag_4:\n      tag_19\n      tag_20\n      jump\t// in\n    tag_19:\n      mload(0x40)\n      tag_21\n      swap2\n      swap1\n      tag_22\n      jump\t// in\n    tag_21:\n      mload(0x40)\n      dup1\n      swap2\n      sub\n      swap1\n      return\n        /* \"Mqttsc.sol\":2203:2852  function addTopic(uint _id, string memory _topic) isManager public {\r... */\n    tag_5:\n      tag_23\n      0x04\n      dup1\n      calldatasize\n      sub\n      dup2\n      add\n      swap1\n      tag_24\n      swap2\n      swap1\n      tag_25\n      jump\t// in\n    tag_24:\n      tag_26\n      jump\t// in\n    tag_23:\n      stop\n        /* \"Mqttsc.sol\":1024:1626  function deleteTopic(uint _id, string memory _topic) isManager public {\r... */\n    tag_6:\n      tag_27\n      0x04\n      dup1\n      calldatasize\n      sub\n      dup2\n      add\n      swap1\n      tag_28\n      swap2\n      swap1\n      tag_25\n      jump\t// in\n    tag_28:\n      tag_29\n      jump\t// in\n    tag_27:\n      stop\n        /* \"Mqttsc.sol\":4960:5477  function authorize(uint _id, string memory _topic) isManager public view returns(bool) {\r... */\n    tag_7:\n      tag_30\n      0x04\n      dup1\n      calldatasize\n      sub\n      dup2\n      add\n      swap1\n      tag_31\n      swap2\n      swap1\n      tag_25\n      jump\t// in\n    tag_31:\n      tag_32\n      jump\t// in\n    tag_30:\n      mload(0x40)\n      tag_33\n      swap2\n      swap1\n      tag_18\n      jump\t// in\n    tag_33:\n      mload(0x40)\n      dup1\n      swap2\n      sub\n      swap1\n      return\n        /* \"Mqttsc.sol\":3816:4432  function getClients() public isManager view returns (uint[] memory, string[] memory, string[] memory) {\r... */\n    tag_8:\n      tag_34\n      tag_35\n      jump\t// in\n    tag_34:\n      mload(0x40)\n      tag_36\n      swap4\n      swap3\n      swap2\n      swap1\n      tag_37\n      jump\t// in\n    tag_36:\n      mload(0x40)\n      dup1\n      swap2\n      sub\n      swap1\n      return\n        /* \"Mqttsc.sol\":1638:2191  function getTopic(uint _id) isManager public view returns(string[] memory){\r... */\n    tag_9:\n      tag_38\n      0x04\n      dup1\n      calldatasize\n      sub\n      dup2\n      add\n      swap1\n      tag_39\n      swap2\n      swap1\n      tag_40\n      jump\t// in\n    tag_39:\n      tag_41\n      jump\t// in\n    tag_38:\n      mload(0x40)\n      tag_42\n      swap2\n      swap1\n      tag_43\n      jump\t// in\n    tag_42:\n      mload(0x40)\n      dup1\n      swap2\n      sub\n      swap1\n      return\n        /* \"Mqttsc.sol\":2864:3228  function addClient(string memory _username, string memory _password) isManager public {\r... */\n    tag_10:\n      tag_44\n      0x04\n      dup1\n      calldatasize\n      sub\n      dup2\n      add\n      swap1\n      tag_45\n      swap2\n      swap1\n      tag_46\n      jump\t// in\n    tag_45:\n      tag_47\n      jump\t// in\n    tag_44:\n      stop\n        /* \"Mqttsc.sol\":653:1012  function deleteClient(uint _id) isManager public {\r... */\n    tag_11:\n      tag_48\n      0x04\n      dup1\n      calldatasize\n      sub\n      dup2\n      add\n      swap1\n      tag_49\n      swap2\n      swap1\n      tag_40\n      jump\t// in\n    tag_49:\n      tag_50\n      jump\t// in\n    tag_48:\n      stop\n        /* \"Mqttsc.sol\":4444:4948  function authenticate(uint _id, string memory _username, string memory _password) isManager public view returns (bool) {\r... */\n    tag_12:\n      tag_51\n      0x04\n      dup1\n      calldatasize\n      sub\n      dup2\n      add\n      swap1\n      tag_52\n      swap2\n      swap1\n      tag_53\n      jump\t// in\n    tag_52:\n      tag_54\n      jump\t// in\n    tag_51:\n      mload(0x40)\n      tag_55\n      swap2\n      swap1\n      tag_18\n      jump\t// in\n    tag_55:\n      mload(0x40)\n      dup1\n      swap2\n      sub\n      swap1\n      return\n        /* \"Mqttsc.sol\":3246:3804  function updateTopic(uint _id, string memory _topic, string memory _newtopic) isManager public{\r... */\n    tag_13:\n      tag_56\n      0x04\n      dup1\n      calldatasize\n      sub\n      dup2\n      add\n      swap1\n      tag_57\n      swap2\n      swap1\n      tag_53\n      jump\t// in\n    tag_57:\n      tag_58\n      jump\t// in\n    tag_56:\n      stop\n        /* \"Mqttsc.sol\":387:406  bool public changed */\n    tag_16:\n      0x04\n      0x00\n      swap1\n      sload\n      swap1\n      0x0100\n      exp\n      swap1\n      div\n      0xff\n      and\n      dup2\n      jump\t// out\n        /* \"Mqttsc.sol\":540:641  function getClientsCount() isManager public view returns (uint) {\r... */\n    tag_20:\n        /* \"Mqttsc.sol\":598:602  uint */\n      0x00\n        /* \"Mqttsc.sol\":5543:5550  manager */\n      dup1\n      0x00\n      swap1\n      sload\n      swap1\n      0x0100\n      exp\n      swap1\n      div\n      0xffffffffffffffffffffffffffffffffffffffff\n      and\n        /* \"Mqttsc.sol\":5529:5550  msg.sender == manager */\n      0xffffffffffffffffffffffffffffffffffffffff\n      and\n        /* \"Mqttsc.sol\":5529:5539  msg.sender */\n      caller\n        /* \"Mqttsc.sol\":5529:5550  msg.sender == manager */\n      0xffffffffffffffffffffffffffffffffffffffff\n      and\n      eq\n        /* \"Mqttsc.sol\":5521:5551  require(msg.sender == manager) */\n      tag_60\n      jumpi\n      0x00\n      dup1\n      revert\n    tag_60:\n        /* \"Mqttsc.sol\":622:633  clientCount */\n      sload(0x02)\n        /* \"Mqttsc.sol\":615:633  return clientCount */\n      swap1\n      pop\n        /* \"Mqttsc.sol\":540:641  function getClientsCount() isManager public view returns (uint) {\r... */\n      swap1\n      jump\t// out\n        /* \"Mqttsc.sol\":2203:2852  function addTopic(uint _id, string memory _topic) isManager public {\r... */\n    tag_26:\n        /* \"Mqttsc.sol\":5543:5550  manager */\n      0x00\n      dup1\n      sload\n      swap1\n      0x0100\n      exp\n      swap1\n      div\n      0xffffffffffffffffffffffffffffffffffffffff\n      and\n        /* \"Mqttsc.sol\":5529:5550  msg.sender == manager */\n      0xffffffffffffffffffffffffffffffffffffffff\n      and\n        /* \"Mqttsc.sol\":5529:5539  msg.sender */\n      caller\n        /* \"Mqttsc.sol\":5529:5550  msg.sender == manager */\n      0xffffffffffffffffffffffffffffffffffffffff\n      and\n      eq\n        /* \"Mqttsc.sol\":5521:5551  require(msg.sender == manager) */\n      tag_63\n      jumpi\n      0x00\n      dup1\n      revert\n    tag_63:\n        /* \"Mqttsc.sol\":2281:2291  bool exist */\n      0x00\n        /* \"Mqttsc.sol\":2314:2320  uint i */\n      dup1\n        /* \"Mqttsc.sol\":2310:2845  for(uint i = 0; i < clientLedger.length; i++){\r... */\n    tag_65:\n        /* \"Mqttsc.sol\":2330:2342  clientLedger */\n      0x01\n        /* \"Mqttsc.sol\":2330:2349  clientLedger.length */\n      dup1\n      sload\n      swap1\n      pop\n        /* \"Mqttsc.sol\":2326:2327  i */\n      dup2\n        /* \"Mqttsc.sol\":2326:2349  i < clientLedger.length */\n      lt\n        /* \"Mqttsc.sol\":2310:2845  for(uint i = 0; i < clientLedger.length; i++){\r... */\n      iszero\n      tag_66\n      jumpi\n        /* \"Mqttsc.sol\":2370:2394  Client storage clientele */\n      0x00\n        /* \"Mqttsc.sol\":2397:2409  clientLedger */\n      0x01\n        /* \"Mqttsc.sol\":2410:2411  i */\n      dup3\n        /* \"Mqttsc.sol\":2397:2412  clientLedger[i] */\n      dup2\n      sload\n      dup2\n      lt\n      tag_68\n      jumpi\n      invalid\n    tag_68:\n      swap1\n      0x00\n      mstore\n      keccak256(0x00, 0x20)\n      swap1\n      0x04\n      mul\n      add\n        /* \"Mqttsc.sol\":2370:2412  Client storage clientele = clientLedger[i] */\n      swap1\n      pop\n        /* \"Mqttsc.sol\":2437:2446  clientele */\n      dup1\n        /* \"Mqttsc.sol\":2437:2449  clientele.id */\n      0x00\n      add\n      sload\n        /* \"Mqttsc.sol\":2430:2433  _id */\n      dup6\n        /* \"Mqttsc.sol\":2430:2449  _id == clientele.id */\n      eq\n        /* \"Mqttsc.sol\":2427:2834  if(_id == clientele.id){\r... */\n      iszero\n      tag_70\n      jumpi\n        /* \"Mqttsc.sol\":2473:2479  uint j */\n      0x00\n        /* \"Mqttsc.sol\":2469:2716  for(uint j = 0; j < clientele.topic.length; j++){\r... */\n    tag_71:\n        /* \"Mqttsc.sol\":2489:2498  clientele */\n      dup2\n        /* \"Mqttsc.sol\":2489:2504  clientele.topic */\n      0x03\n      add\n        /* \"Mqttsc.sol\":2489:2511  clientele.topic.length */\n      dup1\n      sload\n      swap1\n      pop\n        /* \"Mqttsc.sol\":2485:2486  j */\n      dup2\n        /* \"Mqttsc.sol\":2485:2511  j < clientele.topic.length */\n      lt\n        /* \"Mqttsc.sol\":2469:2716  for(uint j = 0; j < clientele.topic.length; j++){\r... */\n      iszero\n      tag_72\n      jumpi\n        /* \"Mqttsc.sol\":2609:2618  clientele */\n      dup2\n        /* \"Mqttsc.sol\":2609:2624  clientele.topic */\n      0x03\n      add\n        /* \"Mqttsc.sol\":2625:2626  j */\n      dup2\n        /* \"Mqttsc.sol\":2609:2627  clientele.topic[j] */\n      dup2\n      sload\n      dup2\n      lt\n      tag_74\n      jumpi\n      invalid\n    tag_74:\n      swap1\n      0x00\n      mstore\n      keccak256(0x00, 0x20)\n      add\n        /* \"Mqttsc.sol\":2592:2628  abi.encodePacked(clientele.topic[j]) */\n      add(0x20, mload(0x40))\n      tag_76\n      swap2\n      swap1\n      tag_77\n      jump\t// in\n    tag_76:\n      mload(0x40)\n      0x20\n      dup2\n      dup4\n      sub\n      sub\n      dup2\n      mstore\n      swap1\n      0x40\n      mstore\n        /* \"Mqttsc.sol\":2582:2629  keccak256(abi.encodePacked(clientele.topic[j])) */\n      dup1\n      mload\n      swap1\n      0x20\n      add\n      keccak256\n        /* \"Mqttsc.sol\":2570:2576  _topic */\n      dup6\n        /* \"Mqttsc.sol\":2553:2577  abi.encodePacked(_topic) */\n      add(0x20, mload(0x40))\n      tag_78\n      swap2\n      swap1\n      tag_79\n      jump\t// in\n    tag_78:\n      mload(0x40)\n      0x20\n      dup2\n      dup4\n      sub\n      sub\n      dup2\n      mstore\n      swap1\n      0x40\n      mstore\n        /* \"Mqttsc.sol\":2543:2578  keccak256(abi.encodePacked(_topic)) */\n      dup1\n      mload\n      swap1\n      0x20\n      add\n      keccak256\n        /* \"Mqttsc.sol\":2543:2629  keccak256(abi.encodePacked(_topic)) == keccak256(abi.encodePacked(clientele.topic[j])) */\n      eq\n        /* \"Mqttsc.sol\":2540:2693  if(keccak256(abi.encodePacked(_topic)) == keccak256(abi.encodePacked(clientele.topic[j]))){\r... */\n      iszero\n      tag_80\n      jumpi\n        /* \"Mqttsc.sol\":2665:2669  true */\n      0x01\n        /* \"Mqttsc.sol\":2657:2669  exist = true */\n      swap4\n      pop\n        /* \"Mqttsc.sol\":2540:2693  if(keccak256(abi.encodePacked(_topic)) == keccak256(abi.encodePacked(clientele.topic[j]))){\r... */\n    tag_80:\n        /* \"Mqttsc.sol\":2513:2516  j++ */\n      dup1\n      dup1\n      0x01\n      add\n      swap2\n      pop\n      pop\n        /* \"Mqttsc.sol\":2469:2716  for(uint j = 0; j < clientele.topic.length; j++){\r... */\n      jump(tag_71)\n    tag_72:\n      pop\n        /* \"Mqttsc.sol\":2738:2743  exist */\n      dup3\n        /* \"Mqttsc.sol\":2734:2819  if(!exist){\r... */\n      tag_81\n      jumpi\n        /* \"Mqttsc.sol\":2767:2776  clientele */\n      dup1\n        /* \"Mqttsc.sol\":2767:2782  clientele.topic */\n      0x03\n      add\n        /* \"Mqttsc.sol\":2788:2794  _topic */\n      dup5\n        /* \"Mqttsc.sol\":2767:2795  clientele.topic.push(_topic) */\n      swap1\n      dup1\n      0x01\n      dup2\n      sload\n      add\n      dup1\n      dup3\n      sstore\n      dup1\n      swap2\n      pop\n      pop\n      0x01\n      swap1\n      sub\n      swap1\n      0x00\n      mstore\n      keccak256(0x00, 0x20)\n      add\n      0x00\n      swap1\n      swap2\n      swap1\n      swap2\n      swap1\n      swap2\n      pop\n      swap1\n      dup1\n      mload\n      swap1\n      0x20\n      add\n      swap1\n      tag_83\n      swap3\n      swap2\n      swap1\n      tag_84\n      jump\t// in\n    tag_83:\n      pop\n        /* \"Mqttsc.sol\":2734:2819  if(!exist){\r... */\n    tag_81:\n        /* \"Mqttsc.sol\":2427:2834  if(_id == clientele.id){\r... */\n    tag_70:\n        /* \"Mqttsc.sol\":2310:2845  for(uint i = 0; i < clientLedger.length; i++){\r... */\n      pop\n        /* \"Mqttsc.sol\":2351:2354  i++ */\n      dup1\n      dup1\n      0x01\n      add\n      swap2\n      pop\n      pop\n        /* \"Mqttsc.sol\":2310:2845  for(uint i = 0; i < clientLedger.length; i++){\r... */\n      jump(tag_65)\n    tag_66:\n      pop\n        /* \"Mqttsc.sol\":5562:5563  _ */\n      pop\n        /* \"Mqttsc.sol\":2203:2852  function addTopic(uint _id, string memory _topic) isManager public {\r... */\n      pop\n      pop\n      jump\t// out\n        /* \"Mqttsc.sol\":1024:1626  function deleteTopic(uint _id, string memory _topic) isManager public {\r... */\n    tag_29:\n        /* \"Mqttsc.sol\":5543:5550  manager */\n      0x00\n      dup1\n      sload\n      swap1\n      0x0100\n      exp\n      swap1\n      div\n      0xffffffffffffffffffffffffffffffffffffffff\n      and\n        /* \"Mqttsc.sol\":5529:5550  msg.sender == manager */\n      0xffffffffffffffffffffffffffffffffffffffff\n      and\n        /* \"Mqttsc.sol\":5529:5539  msg.sender */\n      caller\n        /* \"Mqttsc.sol\":5529:5550  msg.sender == manager */\n      0xffffffffffffffffffffffffffffffffffffffff\n      and\n      eq\n        /* \"Mqttsc.sol\":5521:5551  require(msg.sender == manager) */\n      tag_86\n      jumpi\n      0x00\n      dup1\n      revert\n    tag_86:\n        /* \"Mqttsc.sol\":1109:1115  uint i */\n      0x00\n        /* \"Mqttsc.sol\":1105:1619  for(uint i = 0; i <  clientLedger.length; i++){\r... */\n    tag_88:\n        /* \"Mqttsc.sol\":1126:1138  clientLedger */\n      0x01\n        /* \"Mqttsc.sol\":1126:1145  clientLedger.length */\n      dup1\n      sload\n      swap1\n      pop\n        /* \"Mqttsc.sol\":1121:1122  i */\n      dup2\n        /* \"Mqttsc.sol\":1121:1145  i <  clientLedger.length */\n      lt\n        /* \"Mqttsc.sol\":1105:1619  for(uint i = 0; i <  clientLedger.length; i++){\r... */\n      iszero\n      tag_89\n      jumpi\n        /* \"Mqttsc.sol\":1176:1188  clientLedger */\n      0x01\n        /* \"Mqttsc.sol\":1189:1190  i */\n      dup2\n        /* \"Mqttsc.sol\":1176:1191  clientLedger[i] */\n      dup2\n      sload\n      dup2\n      lt\n      tag_91\n      jumpi\n      invalid\n    tag_91:\n      swap1\n      0x00\n      mstore\n      keccak256(0x00, 0x20)\n      swap1\n      0x04\n      mul\n      add\n        /* \"Mqttsc.sol\":1176:1194  clientLedger[i].id */\n      0x00\n      add\n      sload\n        /* \"Mqttsc.sol\":1169:1172  _id */\n      dup4\n        /* \"Mqttsc.sol\":1169:1194  _id == clientLedger[i].id */\n      eq\n        /* \"Mqttsc.sol\":1166:1608  if(_id == clientLedger[i].id){\r... */\n      iszero\n      tag_93\n      jumpi\n        /* \"Mqttsc.sol\":1218:1224  uint j */\n      0x00\n        /* \"Mqttsc.sol\":1214:1593  for(uint j = 0; j < clientLedger[i].topic.length; j++){\r... */\n    tag_94:\n        /* \"Mqttsc.sol\":1234:1246  clientLedger */\n      0x01\n        /* \"Mqttsc.sol\":1247:1248  i */\n      dup3\n        /* \"Mqttsc.sol\":1234:1249  clientLedger[i] */\n      dup2\n      sload\n      dup2\n      lt\n      tag_97\n      jumpi\n      invalid\n    tag_97:\n      swap1\n      0x00\n      mstore\n      keccak256(0x00, 0x20)\n      swap1\n      0x04\n      mul\n      add\n        /* \"Mqttsc.sol\":1234:1255  clientLedger[i].topic */\n      0x03\n      add\n        /* \"Mqttsc.sol\":1234:1262  clientLedger[i].topic.length */\n      dup1\n      sload\n      swap1\n      pop\n        /* \"Mqttsc.sol\":1230:1231  j */\n      dup2\n        /* \"Mqttsc.sol\":1230:1262  j < clientLedger[i].topic.length */\n      lt\n        /* \"Mqttsc.sol\":1214:1593  for(uint j = 0; j < clientLedger[i].topic.length; j++){\r... */\n      iszero\n      tag_95\n      jumpi\n        /* \"Mqttsc.sol\":1360:1372  clientLedger */\n      0x01\n        /* \"Mqttsc.sol\":1373:1374  i */\n      dup3\n        /* \"Mqttsc.sol\":1360:1375  clientLedger[i] */\n      dup2\n      sload\n      dup2\n      lt\n      tag_99\n      jumpi\n      invalid\n    tag_99:\n      swap1\n      0x00\n      mstore\n      keccak256(0x00, 0x20)\n      swap1\n      0x04\n      mul\n      add\n        /* \"Mqttsc.sol\":1360:1381  clientLedger[i].topic */\n      0x03\n      add\n        /* \"Mqttsc.sol\":1382:1383  j */\n      dup2\n        /* \"Mqttsc.sol\":1360:1384  clientLedger[i].topic[j] */\n      dup2\n      sload\n      dup2\n      lt\n      tag_101\n      jumpi\n      invalid\n    tag_101:\n      swap1\n      0x00\n      mstore\n      keccak256(0x00, 0x20)\n      add\n        /* \"Mqttsc.sol\":1343:1385  abi.encodePacked(clientLedger[i].topic[j]) */\n      add(0x20, mload(0x40))\n      tag_103\n      swap2\n      swap1\n      tag_77\n      jump\t// in\n    tag_103:\n      mload(0x40)\n      0x20\n      dup2\n      dup4\n      sub\n      sub\n      dup2\n      mstore\n      swap1\n      0x40\n      mstore\n        /* \"Mqttsc.sol\":1333:1386  keccak256(abi.encodePacked(clientLedger[i].topic[j])) */\n      dup1\n      mload\n      swap1\n      0x20\n      add\n      keccak256\n        /* \"Mqttsc.sol\":1321:1327  _topic */\n      dup4\n        /* \"Mqttsc.sol\":1304:1328  abi.encodePacked(_topic) */\n      add(0x20, mload(0x40))\n      tag_104\n      swap2\n      swap1\n      tag_79\n      jump\t// in\n    tag_104:\n      mload(0x40)\n      0x20\n      dup2\n      dup4\n      sub\n      sub\n      dup2\n      mstore\n      swap1\n      0x40\n      mstore\n        /* \"Mqttsc.sol\":1294:1329  keccak256(abi.encodePacked(_topic)) */\n      dup1\n      mload\n      swap1\n      0x20\n      add\n      keccak256\n        /* \"Mqttsc.sol\":1294:1386  keccak256(abi.encodePacked(_topic)) == keccak256(abi.encodePacked(clientLedger[i].topic[j])) */\n      eq\n        /* \"Mqttsc.sol\":1291:1574  if(keccak256(abi.encodePacked(_topic)) == keccak256(abi.encodePacked(clientLedger[i].topic[j]))){\r... */\n      iszero\n      tag_105\n      jumpi\n        /* \"Mqttsc.sol\":1441:1453  clientLedger */\n      0x01\n        /* \"Mqttsc.sol\":1454:1455  i */\n      dup3\n        /* \"Mqttsc.sol\":1441:1456  clientLedger[i] */\n      dup2\n      sload\n      dup2\n      lt\n      tag_106\n      jumpi\n      invalid\n    tag_106:\n      swap1\n      0x00\n      mstore\n      keccak256(0x00, 0x20)\n      swap1\n      0x04\n      mul\n      add\n        /* \"Mqttsc.sol\":1441:1462  clientLedger[i].topic */\n      0x03\n      add\n        /* \"Mqttsc.sol\":1494:1495  1 */\n      0x01\n        /* \"Mqttsc.sol\":1463:1475  clientLedger */\n      dup1\n        /* \"Mqttsc.sol\":1476:1477  i */\n      dup5\n        /* \"Mqttsc.sol\":1463:1478  clientLedger[i] */\n      dup2\n      sload\n      dup2\n      lt\n      tag_108\n      jumpi\n      invalid\n    tag_108:\n      swap1\n      0x00\n      mstore\n      keccak256(0x00, 0x20)\n      swap1\n      0x04\n      mul\n      add\n        /* \"Mqttsc.sol\":1463:1484  clientLedger[i].topic */\n      0x03\n      add\n        /* \"Mqttsc.sol\":1463:1491  clientLedger[i].topic.length */\n      dup1\n      sload\n      swap1\n      pop\n        /* \"Mqttsc.sol\":1463:1495  clientLedger[i].topic.length - 1 */\n      sub\n        /* \"Mqttsc.sol\":1441:1496  clientLedger[i].topic[clientLedger[i].topic.length - 1] */\n      dup2\n      sload\n      dup2\n      lt\n      tag_110\n      jumpi\n      invalid\n    tag_110:\n      swap1\n      0x00\n      mstore\n      keccak256(0x00, 0x20)\n      add\n        /* \"Mqttsc.sol\":1414:1426  clientLedger */\n      0x01\n        /* \"Mqttsc.sol\":1427:1428  i */\n      dup4\n        /* \"Mqttsc.sol\":1414:1429  clientLedger[i] */\n      dup2\n      sload\n      dup2\n      lt\n      tag_112\n      jumpi\n      invalid\n    tag_112:\n      swap1\n      0x00\n      mstore\n      keccak256(0x00, 0x20)\n      swap1\n      0x04\n      mul\n      add\n        /* \"Mqttsc.sol\":1414:1435  clientLedger[i].topic */\n      0x03\n      add\n        /* \"Mqttsc.sol\":1436:1437  j */\n      dup3\n        /* \"Mqttsc.sol\":1414:1438  clientLedger[i].topic[j] */\n      dup2\n      sload\n      dup2\n      lt\n      tag_114\n      jumpi\n      invalid\n    tag_114:\n      swap1\n      0x00\n      mstore\n      keccak256(0x00, 0x20)\n      add\n        /* \"Mqttsc.sol\":1414:1496  clientLedger[i].topic[j] = clientLedger[i].topic[clientLedger[i].topic.length - 1] */\n      swap1\n      dup1\n      sload\n      0x01\n      dup2\n      0x01\n      and\n      iszero\n      0x0100\n      mul\n      sub\n      and\n      0x02\n      swap1\n      div\n      tag_116\n      swap3\n      swap2\n      swap1\n      tag_117\n      jump\t// in\n    tag_116:\n      pop\n        /* \"Mqttsc.sol\":1523:1535  clientLedger */\n      0x01\n        /* \"Mqttsc.sol\":1536:1537  i */\n      dup3\n        /* \"Mqttsc.sol\":1523:1538  clientLedger[i] */\n      dup2\n      sload\n      dup2\n      lt\n      tag_118\n      jumpi\n      invalid\n    tag_118:\n      swap1\n      0x00\n      mstore\n      keccak256(0x00, 0x20)\n      swap1\n      0x04\n      mul\n      add\n        /* \"Mqttsc.sol\":1523:1544  clientLedger[i].topic */\n      0x03\n      add\n        /* \"Mqttsc.sol\":1523:1550  clientLedger[i].topic.pop() */\n      dup1\n      sload\n      dup1\n      tag_120\n      jumpi\n      invalid\n    tag_120:\n      0x01\n      swap1\n      sub\n      dup2\n      dup2\n      swap1\n      0x00\n      mstore\n      keccak256(0x00, 0x20)\n      add\n      0x00\n      tag_122\n      swap2\n      swap1\n      tag_123\n      jump\t// in\n    tag_122:\n      swap1\n      sstore\n        /* \"Mqttsc.sol\":1291:1574  if(keccak256(abi.encodePacked(_topic)) == keccak256(abi.encodePacked(clientLedger[i].topic[j]))){\r... */\n    tag_105:\n        /* \"Mqttsc.sol\":1264:1267  j++ */\n      dup1\n      dup1\n      0x01\n      add\n      swap2\n      pop\n      pop\n        /* \"Mqttsc.sol\":1214:1593  for(uint j = 0; j < clientLedger[i].topic.length; j++){\r... */\n      jump(tag_94)\n    tag_95:\n      pop\n        /* \"Mqttsc.sol\":1166:1608  if(_id == clientLedger[i].id){\r... */\n    tag_93:\n        /* \"Mqttsc.sol\":1147:1150  i++ */\n      dup1\n      dup1\n      0x01\n      add\n      swap2\n      pop\n      pop\n        /* \"Mqttsc.sol\":1105:1619  for(uint i = 0; i <  clientLedger.length; i++){\r... */\n      jump(tag_88)\n    tag_89:\n      pop\n        /* \"Mqttsc.sol\":1024:1626  function deleteTopic(uint _id, string memory _topic) isManager public {\r... */\n      pop\n      pop\n      jump\t// out\n        /* \"Mqttsc.sol\":4960:5477  function authorize(uint _id, string memory _topic) isManager public view returns(bool) {\r... */\n    tag_32:\n        /* \"Mqttsc.sol\":5041:5045  bool */\n      0x00\n        /* \"Mqttsc.sol\":5543:5550  manager */\n      dup1\n      0x00\n      swap1\n      sload\n      swap1\n      0x0100\n      exp\n      swap1\n      div\n      0xffffffffffffffffffffffffffffffffffffffff\n      and\n        /* \"Mqttsc.sol\":5529:5550  msg.sender == manager */\n      0xffffffffffffffffffffffffffffffffffffffff\n      and\n        /* \"Mqttsc.sol\":5529:5539  msg.sender */\n      caller\n        /* \"Mqttsc.sol\":5529:5550  msg.sender == manager */\n      0xffffffffffffffffffffffffffffffffffffffff\n      and\n      eq\n        /* \"Mqttsc.sol\":5521:5551  require(msg.sender == manager) */\n      tag_125\n      jumpi\n      0x00\n      dup1\n      revert\n    tag_125:\n        /* \"Mqttsc.sol\":5062:5068  uint i */\n      0x00\n        /* \"Mqttsc.sol\":5058:5447  for(uint i = 0; i < clientLedger.length; i++){\r... */\n    tag_127:\n        /* \"Mqttsc.sol\":5078:5090  clientLedger */\n      0x01\n        /* \"Mqttsc.sol\":5078:5097  clientLedger.length */\n      dup1\n      sload\n      swap1\n      pop\n        /* \"Mqttsc.sol\":5074:5075  i */\n      dup2\n        /* \"Mqttsc.sol\":5074:5097  i < clientLedger.length */\n      lt\n        /* \"Mqttsc.sol\":5058:5447  for(uint i = 0; i < clientLedger.length; i++){\r... */\n      iszero\n      tag_128\n      jumpi\n        /* \"Mqttsc.sol\":5128:5140  clientLedger */\n      0x01\n        /* \"Mqttsc.sol\":5141:5142  i */\n      dup2\n        /* \"Mqttsc.sol\":5128:5143  clientLedger[i] */\n      dup2\n      sload\n      dup2\n      lt\n      tag_130\n      jumpi\n      invalid\n    tag_130:\n      swap1\n      0x00\n      mstore\n      keccak256(0x00, 0x20)\n      swap1\n      0x04\n      mul\n      add\n        /* \"Mqttsc.sol\":5128:5146  clientLedger[i].id */\n      0x00\n      add\n      sload\n        /* \"Mqttsc.sol\":5121:5124  _id */\n      dup5\n        /* \"Mqttsc.sol\":5121:5146  _id == clientLedger[i].id */\n      eq\n        /* \"Mqttsc.sol\":5118:5436  if(_id == clientLedger[i].id){\r... */\n      iszero\n      tag_132\n      jumpi\n        /* \"Mqttsc.sol\":5170:5176  uint j */\n      0x00\n        /* \"Mqttsc.sol\":5166:5421  for(uint j = 0; j < clientLedger[i].topic.length ; j++){\r... */\n    tag_133:\n        /* \"Mqttsc.sol\":5186:5198  clientLedger */\n      0x01\n        /* \"Mqttsc.sol\":5199:5200  i */\n      dup3\n        /* \"Mqttsc.sol\":5186:5201  clientLedger[i] */\n      dup2\n      sload\n      dup2\n      lt\n      tag_136\n      jumpi\n      invalid\n    tag_136:\n      swap1\n      0x00\n      mstore\n      keccak256(0x00, 0x20)\n      swap1\n      0x04\n      mul\n      add\n        /* \"Mqttsc.sol\":5186:5207  clientLedger[i].topic */\n      0x03\n      add\n        /* \"Mqttsc.sol\":5186:5214  clientLedger[i].topic.length */\n      dup1\n      sload\n      swap1\n      pop\n        /* \"Mqttsc.sol\":5182:5183  j */\n      dup2\n        /* \"Mqttsc.sol\":5182:5214  j < clientLedger[i].topic.length */\n      lt\n        /* \"Mqttsc.sol\":5166:5421  for(uint j = 0; j < clientLedger[i].topic.length ; j++){\r... */\n      iszero\n      tag_134\n      jumpi\n        /* \"Mqttsc.sol\":5313:5325  clientLedger */\n      0x01\n        /* \"Mqttsc.sol\":5326:5327  i */\n      dup3\n        /* \"Mqttsc.sol\":5313:5328  clientLedger[i] */\n      dup2\n      sload\n      dup2\n      lt\n      tag_138\n      jumpi\n      invalid\n    tag_138:\n      swap1\n      0x00\n      mstore\n      keccak256(0x00, 0x20)\n      swap1\n      0x04\n      mul\n      add\n        /* \"Mqttsc.sol\":5313:5334  clientLedger[i].topic */\n      0x03\n      add\n        /* \"Mqttsc.sol\":5335:5336  j */\n      dup2\n        /* \"Mqttsc.sol\":5313:5337  clientLedger[i].topic[j] */\n      dup2\n      sload\n      dup2\n      lt\n      tag_140\n      jumpi\n      invalid\n    tag_140:\n      swap1\n      0x00\n      mstore\n      keccak256(0x00, 0x20)\n      add\n        /* \"Mqttsc.sol\":5296:5338  abi.encodePacked(clientLedger[i].topic[j]) */\n      add(0x20, mload(0x40))\n      tag_142\n      swap2\n      swap1\n      tag_77\n      jump\t// in\n    tag_142:\n      mload(0x40)\n      0x20\n      dup2\n      dup4\n      sub\n      sub\n      dup2\n      mstore\n      swap1\n      0x40\n      mstore\n        /* \"Mqttsc.sol\":5286:5339  keccak256(abi.encodePacked(clientLedger[i].topic[j])) */\n      dup1\n      mload\n      swap1\n      0x20\n      add\n      keccak256\n        /* \"Mqttsc.sol\":5274:5280  _topic */\n      dup5\n        /* \"Mqttsc.sol\":5257:5281  abi.encodePacked(_topic) */\n      add(0x20, mload(0x40))\n      tag_143\n      swap2\n      swap1\n      tag_79\n      jump\t// in\n    tag_143:\n      mload(0x40)\n      0x20\n      dup2\n      dup4\n      sub\n      sub\n      dup2\n      mstore\n      swap1\n      0x40\n      mstore\n        /* \"Mqttsc.sol\":5247:5282  keccak256(abi.encodePacked(_topic)) */\n      dup1\n      mload\n      swap1\n      0x20\n      add\n      keccak256\n        /* \"Mqttsc.sol\":5247:5339  keccak256(abi.encodePacked(_topic)) == keccak256(abi.encodePacked(clientLedger[i].topic[j])) */\n      eq\n        /* \"Mqttsc.sol\":5244:5402  if(keccak256(abi.encodePacked(_topic)) == keccak256(abi.encodePacked(clientLedger[i].topic[j]))){\r... */\n      iszero\n      tag_144\n      jumpi\n        /* \"Mqttsc.sol\":5374:5378  true */\n      0x01\n        /* \"Mqttsc.sol\":5367:5378  return true */\n      swap3\n      pop\n      pop\n      pop\n      jump(tag_126)\n        /* \"Mqttsc.sol\":5244:5402  if(keccak256(abi.encodePacked(_topic)) == keccak256(abi.encodePacked(clientLedger[i].topic[j]))){\r... */\n    tag_144:\n        /* \"Mqttsc.sol\":5217:5220  j++ */\n      dup1\n      dup1\n      0x01\n      add\n      swap2\n      pop\n      pop\n        /* \"Mqttsc.sol\":5166:5421  for(uint j = 0; j < clientLedger[i].topic.length ; j++){\r... */\n      jump(tag_133)\n    tag_134:\n      pop\n        /* \"Mqttsc.sol\":5118:5436  if(_id == clientLedger[i].id){\r... */\n    tag_132:\n        /* \"Mqttsc.sol\":5099:5102  i++ */\n      dup1\n      dup1\n      0x01\n      add\n      swap2\n      pop\n      pop\n        /* \"Mqttsc.sol\":5058:5447  for(uint i = 0; i < clientLedger.length; i++){\r... */\n      jump(tag_127)\n    tag_128:\n      pop\n        /* \"Mqttsc.sol\":5464:5469  false */\n      0x00\n        /* \"Mqttsc.sol\":5457:5469  return false */\n      swap1\n      pop\n        /* \"Mqttsc.sol\":5562:5563  _ */\n    tag_126:\n        /* \"Mqttsc.sol\":4960:5477  function authorize(uint _id, string memory _topic) isManager public view returns(bool) {\r... */\n      swap3\n      swap2\n      pop\n      pop\n      jump\t// out\n        /* \"Mqttsc.sol\":3816:4432  function getClients() public isManager view returns (uint[] memory, string[] memory, string[] memory) {\r... */\n    tag_35:\n        /* \"Mqttsc.sol\":3869:3882  uint[] memory */\n      0x60\n        /* \"Mqttsc.sol\":3884:3899  string[] memory */\n      dup1\n        /* \"Mqttsc.sol\":3901:3916  string[] memory */\n      0x60\n        /* \"Mqttsc.sol\":5543:5550  manager */\n      0x00\n      dup1\n      sload\n      swap1\n      0x0100\n      exp\n      swap1\n      div\n      0xffffffffffffffffffffffffffffffffffffffff\n      and\n        /* \"Mqttsc.sol\":5529:5550  msg.sender == manager */\n      0xffffffffffffffffffffffffffffffffffffffff\n      and\n        /* \"Mqttsc.sol\":5529:5539  msg.sender */\n      caller\n        /* \"Mqttsc.sol\":5529:5550  msg.sender == manager */\n      0xffffffffffffffffffffffffffffffffffffffff\n      and\n      eq\n        /* \"Mqttsc.sol\":5521:5551  require(msg.sender == manager) */\n      tag_146\n      jumpi\n      0x00\n      dup1\n      revert\n    tag_146:\n        /* \"Mqttsc.sol\":3929:3946  uint[] memory _id */\n      0x60\n        /* \"Mqttsc.sol\":3960:3971  clientCount */\n      sload(0x02)\n        /* \"Mqttsc.sol\":3949:3972  new uint[](clientCount) */\n      0xffffffffffffffff\n      dup2\n      gt\n      dup1\n      iszero\n      tag_148\n      jumpi\n      0x00\n      dup1\n      revert\n    tag_148:\n      pop\n      mload(0x40)\n      swap1\n      dup1\n      dup3\n      mstore\n      dup1\n      0x20\n      mul\n      0x20\n      add\n      dup3\n      add\n      0x40\n      mstore\n      dup1\n      iszero\n      tag_149\n      jumpi\n      dup2\n      0x20\n      add\n      0x20\n      dup3\n      mul\n      dup1\n      calldatasize\n      dup4\n      calldatacopy\n      dup1\n      dup3\n      add\n      swap2\n      pop\n      pop\n      swap1\n      pop\n    tag_149:\n      pop\n        /* \"Mqttsc.sol\":3929:3972  uint[] memory _id = new uint[](clientCount) */\n      swap1\n      pop\n        /* \"Mqttsc.sol\":3983:4008  string[] memory _username */\n      0x60\n        /* \"Mqttsc.sol\":4024:4035  clientCount */\n      sload(0x02)\n        /* \"Mqttsc.sol\":4011:4036  new string[](clientCount) */\n      0xffffffffffffffff\n      dup2\n      gt\n      dup1\n      iszero\n      tag_150\n      jumpi\n      0x00\n      dup1\n      revert\n    tag_150:\n      pop\n      mload(0x40)\n      swap1\n      dup1\n      dup3\n      mstore\n      dup1\n      0x20\n      mul\n      0x20\n      add\n      dup3\n      add\n      0x40\n      mstore\n      dup1\n      iszero\n      tag_151\n      jumpi\n      dup2\n      0x20\n      add\n    tag_152:\n      0x60\n      dup2\n      mstore\n      0x20\n      add\n      swap1\n      0x01\n      swap1\n      sub\n      swap1\n      dup2\n      tag_152\n      jumpi\n      swap1\n      pop\n    tag_151:\n      pop\n        /* \"Mqttsc.sol\":3983:4036  string[] memory _username = new string[](clientCount) */\n      swap1\n      pop\n        /* \"Mqttsc.sol\":4047:4072  string[] memory _password */\n      0x60\n        /* \"Mqttsc.sol\":4088:4099  clientCount */\n      sload(0x02)\n        /* \"Mqttsc.sol\":4075:4100  new string[](clientCount) */\n      0xffffffffffffffff\n      dup2\n      gt\n      dup1\n      iszero\n      tag_153\n      jumpi\n      0x00\n      dup1\n      revert\n    tag_153:\n      pop\n      mload(0x40)\n      swap1\n      dup1\n      dup3\n      mstore\n      dup1\n      0x20\n      mul\n      0x20\n      add\n      dup3\n      add\n      0x40\n      mstore\n      dup1\n      iszero\n      tag_154\n      jumpi\n      dup2\n      0x20\n      add\n    tag_155:\n      0x60\n      dup2\n      mstore\n      0x20\n      add\n      swap1\n      0x01\n      swap1\n      sub\n      swap1\n      dup2\n      tag_155\n      jumpi\n      swap1\n      pop\n    tag_154:\n      pop\n        /* \"Mqttsc.sol\":4047:4100  string[] memory _password = new string[](clientCount) */\n      swap1\n      pop\n        /* \"Mqttsc.sol\":4115:4121  uint i */\n      0x00\n        /* \"Mqttsc.sol\":4111:4357  for(uint i = 0; i < clientLedger.length; i++){\r... */\n    tag_156:\n        /* \"Mqttsc.sol\":4131:4143  clientLedger */\n      0x01\n        /* \"Mqttsc.sol\":4131:4150  clientLedger.length */\n      dup1\n      sload\n      swap1\n      pop\n        /* \"Mqttsc.sol\":4127:4128  i */\n      dup2\n        /* \"Mqttsc.sol\":4127:4150  i < clientLedger.length */\n      lt\n        /* \"Mqttsc.sol\":4111:4357  for(uint i = 0; i < clientLedger.length; i++){\r... */\n      iszero\n      tag_157\n      jumpi\n        /* \"Mqttsc.sol\":4171:4195  Client storage clientele */\n      0x00\n        /* \"Mqttsc.sol\":4198:4210  clientLedger */\n      0x01\n        /* \"Mqttsc.sol\":4211:4212  i */\n      dup3\n        /* \"Mqttsc.sol\":4198:4213  clientLedger[i] */\n      dup2\n      sload\n      dup2\n      lt\n      tag_159\n      jumpi\n      invalid\n    tag_159:\n      swap1\n      0x00\n      mstore\n      keccak256(0x00, 0x20)\n      swap1\n      0x04\n      mul\n      add\n        /* \"Mqttsc.sol\":4171:4213  Client storage clientele = clientLedger[i] */\n      swap1\n      pop\n        /* \"Mqttsc.sol\":4237:4246  clientele */\n      dup1\n        /* \"Mqttsc.sol\":4237:4249  clientele.id */\n      0x00\n      add\n      sload\n        /* \"Mqttsc.sol\":4228:4231  _id */\n      dup6\n        /* \"Mqttsc.sol\":4232:4233  i */\n      dup4\n        /* \"Mqttsc.sol\":4228:4234  _id[i] */\n      dup2\n      mload\n      dup2\n      lt\n      tag_161\n      jumpi\n      invalid\n    tag_161:\n      0x20\n      mul\n      0x20\n      add\n      add\n        /* \"Mqttsc.sol\":4228:4249  _id[i] = clientele.id */\n      dup2\n      dup2\n      mstore\n      pop\n      pop\n        /* \"Mqttsc.sol\":4279:4288  clientele */\n      dup1\n        /* \"Mqttsc.sol\":4279:4297  clientele.username */\n      0x01\n      add\n        /* \"Mqttsc.sol\":4264:4297  _username[i] = clientele.username */\n      dup1\n      sload\n      0x01\n      dup2\n      0x01\n      and\n      iszero\n      0x0100\n      mul\n      sub\n      and\n      0x02\n      swap1\n      div\n      dup1\n      0x1f\n      add\n      0x20\n      dup1\n      swap2\n      div\n      mul\n      0x20\n      add\n      mload(0x40)\n      swap1\n      dup2\n      add\n      0x40\n      mstore\n      dup1\n      swap3\n      swap2\n      swap1\n      dup2\n      dup2\n      mstore\n      0x20\n      add\n      dup3\n      dup1\n      sload\n      0x01\n      dup2\n      0x01\n      and\n      iszero\n      0x0100\n      mul\n      sub\n      and\n      0x02\n      swap1\n      div\n      dup1\n      iszero\n      tag_162\n      jumpi\n      dup1\n      0x1f\n      lt\n      tag_163\n      jumpi\n      0x0100\n      dup1\n      dup4\n      sload\n      div\n      mul\n      dup4\n      mstore\n      swap2\n      0x20\n      add\n      swap2\n      jump(tag_162)\n    tag_163:\n      dup3\n      add\n      swap2\n      swap1\n      0x00\n      mstore\n      keccak256(0x00, 0x20)\n      swap1\n    tag_164:\n      dup2\n      sload\n      dup2\n      mstore\n      swap1\n      0x01\n      add\n      swap1\n      0x20\n      add\n      dup1\n      dup4\n      gt\n      tag_164\n      jumpi\n      dup3\n      swap1\n      sub\n      0x1f\n      and\n      dup3\n      add\n      swap2\n    tag_162:\n      pop\n      pop\n      pop\n      pop\n      pop\n        /* \"Mqttsc.sol\":4264:4273  _username */\n      dup5\n        /* \"Mqttsc.sol\":4274:4275  i */\n      dup4\n        /* \"Mqttsc.sol\":4264:4276  _username[i] */\n      dup2\n      mload\n      dup2\n      lt\n      tag_165\n      jumpi\n      invalid\n    tag_165:\n      0x20\n      mul\n      0x20\n      add\n      add\n        /* \"Mqttsc.sol\":4264:4297  _username[i] = clientele.username */\n      dup2\n      swap1\n      mstore\n      pop\n        /* \"Mqttsc.sol\":4327:4336  clientele */\n      dup1\n        /* \"Mqttsc.sol\":4327:4345  clientele.password */\n      0x02\n      add\n        /* \"Mqttsc.sol\":4312:4345  _password[i] = clientele.password */\n      dup1\n      sload\n      0x01\n      dup2\n      0x01\n      and\n      iszero\n      0x0100\n      mul\n      sub\n      and\n      0x02\n      swap1\n      div\n      dup1\n      0x1f\n      add\n      0x20\n      dup1\n      swap2\n      div\n      mul\n      0x20\n      add\n      mload(0x40)\n      swap1\n      dup2\n      add\n      0x40\n      mstore\n      dup1\n      swap3\n      swap2\n      swap1\n      dup2\n      dup2\n      mstore\n      0x20\n      add\n      dup3\n      dup1\n      sload\n      0x01\n      dup2\n      0x01\n      and\n      iszero\n      0x0100\n      mul\n      sub\n      and\n      0x02\n      swap1\n      div\n      dup1\n      iszero\n      tag_166\n      jumpi\n      dup1\n      0x1f\n      lt\n      tag_167\n      jumpi\n      0x0100\n      dup1\n      dup4\n      sload\n      div\n      mul\n      dup4\n      mstore\n      swap2\n      0x20\n      add\n      swap2\n      jump(tag_166)\n    tag_167:\n      dup3\n      add\n      swap2\n      swap1\n      0x00\n      mstore\n      keccak256(0x00, 0x20)\n      swap1\n    tag_168:\n      dup2\n      sload\n      dup2\n      mstore\n      swap1\n      0x01\n      add\n      swap1\n      0x20\n      add\n      dup1\n      dup4\n      gt\n      tag_168\n      jumpi\n      dup3\n      swap1\n      sub\n      0x1f\n      and\n      dup3\n      add\n      swap2\n    tag_166:\n      pop\n      pop\n      pop\n      pop\n      pop\n        /* \"Mqttsc.sol\":4312:4321  _password */\n      dup4\n        /* \"Mqttsc.sol\":4322:4323  i */\n      dup4\n        /* \"Mqttsc.sol\":4312:4324  _password[i] */\n      dup2\n      mload\n      dup2\n      lt\n      tag_169\n      jumpi\n      invalid\n    tag_169:\n      0x20\n      mul\n      0x20\n      add\n      add\n        /* \"Mqttsc.sol\":4312:4345  _password[i] = clientele.password */\n      dup2\n      swap1\n      mstore\n      pop\n        /* \"Mqttsc.sol\":4111:4357  for(uint i = 0; i < clientLedger.length; i++){\r... */\n      pop\n        /* \"Mqttsc.sol\":4152:4155  i++ */\n      dup1\n      dup1\n      0x01\n      add\n      swap2\n      pop\n      pop\n        /* \"Mqttsc.sol\":4111:4357  for(uint i = 0; i < clientLedger.length; i++){\r... */\n      jump(tag_156)\n    tag_157:\n      pop\n        /* \"Mqttsc.sol\":4388:4391  _id */\n      dup3\n        /* \"Mqttsc.sol\":4393:4402  _username */\n      dup3\n        /* \"Mqttsc.sol\":4404:4413  _password */\n      dup3\n        /* \"Mqttsc.sol\":4367:4424  return(\r... */\n      swap6\n      pop\n      swap6\n      pop\n      swap6\n      pop\n      pop\n      pop\n      pop\n        /* \"Mqttsc.sol\":3816:4432  function getClients() public isManager view returns (uint[] memory, string[] memory, string[] memory) {\r... */\n      swap1\n      swap2\n      swap3\n      jump\t// out\n        /* \"Mqttsc.sol\":1638:2191  function getTopic(uint _id) isManager public view returns(string[] memory){\r... */\n    tag_41:\n        /* \"Mqttsc.sol\":1696:1711  string[] memory */\n      0x60\n        /* \"Mqttsc.sol\":5543:5550  manager */\n      0x00\n      dup1\n      sload\n      swap1\n      0x0100\n      exp\n      swap1\n      div\n      0xffffffffffffffffffffffffffffffffffffffff\n      and\n        /* \"Mqttsc.sol\":5529:5550  msg.sender == manager */\n      0xffffffffffffffffffffffffffffffffffffffff\n      and\n        /* \"Mqttsc.sol\":5529:5539  msg.sender */\n      caller\n        /* \"Mqttsc.sol\":5529:5550  msg.sender == manager */\n      0xffffffffffffffffffffffffffffffffffffffff\n      and\n      eq\n        /* \"Mqttsc.sol\":5521:5551  require(msg.sender == manager) */\n      tag_171\n      jumpi\n      0x00\n      dup1\n      revert\n    tag_171:\n        /* \"Mqttsc.sol\":1727:1733  uint i */\n      0x00\n        /* \"Mqttsc.sol\":1723:2184  for(uint i = 0; i < clientLedger.length; i++){\r... */\n    tag_173:\n        /* \"Mqttsc.sol\":1743:1755  clientLedger */\n      0x01\n        /* \"Mqttsc.sol\":1743:1762  clientLedger.length */\n      dup1\n      sload\n      swap1\n      pop\n        /* \"Mqttsc.sol\":1739:1740  i */\n      dup2\n        /* \"Mqttsc.sol\":1739:1762  i < clientLedger.length */\n      lt\n        /* \"Mqttsc.sol\":1723:2184  for(uint i = 0; i < clientLedger.length; i++){\r... */\n      iszero\n      tag_174\n      jumpi\n        /* \"Mqttsc.sol\":1783:1807  Client storage clientele */\n      0x00\n        /* \"Mqttsc.sol\":1810:1822  clientLedger */\n      0x01\n        /* \"Mqttsc.sol\":1823:1824  i */\n      dup3\n        /* \"Mqttsc.sol\":1810:1825  clientLedger[i] */\n      dup2\n      sload\n      dup2\n      lt\n      tag_176\n      jumpi\n      invalid\n    tag_176:\n      swap1\n      0x00\n      mstore\n      keccak256(0x00, 0x20)\n      swap1\n      0x04\n      mul\n      add\n        /* \"Mqttsc.sol\":1783:1825  Client storage clientele = clientLedger[i] */\n      swap1\n      pop\n        /* \"Mqttsc.sol\":1850:1859  clientele */\n      dup1\n        /* \"Mqttsc.sol\":1850:1862  clientele.id */\n      0x00\n      add\n      sload\n        /* \"Mqttsc.sol\":1843:1846  _id */\n      dup5\n        /* \"Mqttsc.sol\":1843:1862  _id == clientele.id */\n      eq\n        /* \"Mqttsc.sol\":1840:2173  if(_id == clientele.id){\r... */\n      iszero\n      tag_178\n      jumpi\n        /* \"Mqttsc.sol\":1882:1904  string[] memory _topic */\n      0x60\n        /* \"Mqttsc.sol\":1920:1929  clientele */\n      dup2\n        /* \"Mqttsc.sol\":1920:1935  clientele.topic */\n      0x03\n      add\n        /* \"Mqttsc.sol\":1920:1942  clientele.topic.length */\n      dup1\n      sload\n      swap1\n      pop\n        /* \"Mqttsc.sol\":1907:1943  new string[](clientele.topic.length) */\n      0xffffffffffffffff\n      dup2\n      gt\n      dup1\n      iszero\n      tag_179\n      jumpi\n      0x00\n      dup1\n      revert\n    tag_179:\n      pop\n      mload(0x40)\n      swap1\n      dup1\n      dup3\n      mstore\n      dup1\n      0x20\n      mul\n      0x20\n      add\n      dup3\n      add\n      0x40\n      mstore\n      dup1\n      iszero\n      tag_180\n      jumpi\n      dup2\n      0x20\n      add\n    tag_181:\n      0x60\n      dup2\n      mstore\n      0x20\n      add\n      swap1\n      0x01\n      swap1\n      sub\n      swap1\n      dup2\n      tag_181\n      jumpi\n      swap1\n      pop\n    tag_180:\n      pop\n        /* \"Mqttsc.sol\":1882:1943  string[] memory _topic = new string[](clientele.topic.length) */\n      swap1\n      pop\n        /* \"Mqttsc.sol\":1966:1972  uint j */\n      0x00\n        /* \"Mqttsc.sol\":1962:2083  for(uint j = 0; j < clientele.topic.length; j++){\r... */\n    tag_182:\n        /* \"Mqttsc.sol\":1982:1991  clientele */\n      dup3\n        /* \"Mqttsc.sol\":1982:1997  clientele.topic */\n      0x03\n      add\n        /* \"Mqttsc.sol\":1982:2004  clientele.topic.length */\n      dup1\n      sload\n      swap1\n      pop\n        /* \"Mqttsc.sol\":1978:1979  j */\n      dup2\n        /* \"Mqttsc.sol\":1978:2004  j < clientele.topic.length */\n      lt\n        /* \"Mqttsc.sol\":1962:2083  for(uint j = 0; j < clientele.topic.length; j++){\r... */\n      iszero\n      tag_183\n      jumpi\n        /* \"Mqttsc.sol\":2045:2054  clientele */\n      dup3\n        /* \"Mqttsc.sol\":2045:2060  clientele.topic */\n      0x03\n      add\n        /* \"Mqttsc.sol\":2061:2062  j */\n      dup2\n        /* \"Mqttsc.sol\":2045:2063  clientele.topic[j] */\n      dup2\n      sload\n      dup2\n      lt\n      tag_185\n      jumpi\n      invalid\n    tag_185:\n      swap1\n      0x00\n      mstore\n      keccak256(0x00, 0x20)\n      add\n        /* \"Mqttsc.sol\":2033:2063  _topic[j] = clientele.topic[j] */\n      dup1\n      sload\n      0x01\n      dup2\n      0x01\n      and\n      iszero\n      0x0100\n      mul\n      sub\n      and\n      0x02\n      swap1\n      div\n      dup1\n      0x1f\n      add\n      0x20\n      dup1\n      swap2\n      div\n      mul\n      0x20\n      add\n      mload(0x40)\n      swap1\n      dup2\n      add\n      0x40\n      mstore\n      dup1\n      swap3\n      swap2\n      swap1\n      dup2\n      dup2\n      mstore\n      0x20\n      add\n      dup3\n      dup1\n      sload\n      0x01\n      dup2\n      0x01\n      and\n      iszero\n      0x0100\n      mul\n      sub\n      and\n      0x02\n      swap1\n      div\n      dup1\n      iszero\n      tag_187\n      jumpi\n      dup1\n      0x1f\n      lt\n      tag_188\n      jumpi\n      0x0100\n      dup1\n      dup4\n      sload\n      div\n      mul\n      dup4\n      mstore\n      swap2\n      0x20\n      add\n      swap2\n      jump(tag_187)\n    tag_188:\n      dup3\n      add\n      swap2\n      swap1\n      0x00\n      mstore\n      keccak256(0x00, 0x20)\n      swap1\n    tag_189:\n      dup2\n      sload\n      dup2\n      mstore\n      swap1\n      0x01\n      add\n      swap1\n      0x20\n      add\n      dup1\n      dup4\n      gt\n      tag_189\n      jumpi\n      dup3\n      swap1\n      sub\n      0x1f\n      and\n      dup3\n      add\n      swap2\n    tag_187:\n      pop\n      pop\n      pop\n      pop\n      pop\n        /* \"Mqttsc.sol\":2033:2039  _topic */\n      dup3\n        /* \"Mqttsc.sol\":2040:2041  j */\n      dup3\n        /* \"Mqttsc.sol\":2033:2042  _topic[j] */\n      dup2\n      mload\n      dup2\n      lt\n      tag_190\n      jumpi\n      invalid\n    tag_190:\n      0x20\n      mul\n      0x20\n      add\n      add\n        /* \"Mqttsc.sol\":2033:2063  _topic[j] = clientele.topic[j] */\n      dup2\n      swap1\n      mstore\n      pop\n        /* \"Mqttsc.sol\":2006:2009  j++ */\n      dup1\n      dup1\n      0x01\n      add\n      swap2\n      pop\n      pop\n        /* \"Mqttsc.sol\":1962:2083  for(uint j = 0; j < clientele.topic.length; j++){\r... */\n      jump(tag_182)\n    tag_183:\n      pop\n        /* \"Mqttsc.sol\":2130:2136  _topic */\n      dup1\n        /* \"Mqttsc.sol\":2101:2157  return(\r... */\n      swap4\n      pop\n      pop\n      pop\n      pop\n      jump(tag_172)\n        /* \"Mqttsc.sol\":1840:2173  if(_id == clientele.id){\r... */\n    tag_178:\n        /* \"Mqttsc.sol\":1723:2184  for(uint i = 0; i < clientLedger.length; i++){\r... */\n      pop\n        /* \"Mqttsc.sol\":1764:1767  i++ */\n      dup1\n      dup1\n      0x01\n      add\n      swap2\n      pop\n      pop\n        /* \"Mqttsc.sol\":1723:2184  for(uint i = 0; i < clientLedger.length; i++){\r... */\n      jump(tag_173)\n    tag_174:\n      pop\n        /* \"Mqttsc.sol\":5562:5563  _ */\n    tag_172:\n        /* \"Mqttsc.sol\":1638:2191  function getTopic(uint _id) isManager public view returns(string[] memory){\r... */\n      swap2\n      swap1\n      pop\n      jump\t// out\n        /* \"Mqttsc.sol\":2864:3228  function addClient(string memory _username, string memory _password) isManager public {\r... */\n    tag_47:\n        /* \"Mqttsc.sol\":5543:5550  manager */\n      0x00\n      dup1\n      sload\n      swap1\n      0x0100\n      exp\n      swap1\n      div\n      0xffffffffffffffffffffffffffffffffffffffff\n      and\n        /* \"Mqttsc.sol\":5529:5550  msg.sender == manager */\n      0xffffffffffffffffffffffffffffffffffffffff\n      and\n        /* \"Mqttsc.sol\":5529:5539  msg.sender */\n      caller\n        /* \"Mqttsc.sol\":5529:5550  msg.sender == manager */\n      0xffffffffffffffffffffffffffffffffffffffff\n      and\n      eq\n        /* \"Mqttsc.sol\":5521:5551  require(msg.sender == manager) */\n      tag_192\n      jumpi\n      0x00\n      dup1\n      revert\n    tag_192:\n        /* \"Mqttsc.sol\":2961:2984  Client memory newClient */\n      tag_194\n      tag_195\n      jump\t// in\n    tag_194:\n        /* \"Mqttsc.sol\":2987:3137  Client({\r... */\n      mload(0x40)\n      dup1\n      0x80\n      add\n      0x40\n      mstore\n      dup1\n        /* \"Mqttsc.sol\":3013:3020  idCount */\n      sload(0x03)\n        /* \"Mqttsc.sol\":2987:3137  Client({\r... */\n      dup2\n      mstore\n      0x20\n      add\n        /* \"Mqttsc.sol\":3045:3054  _username */\n      dup5\n        /* \"Mqttsc.sol\":2987:3137  Client({\r... */\n      dup2\n      mstore\n      0x20\n      add\n        /* \"Mqttsc.sol\":3079:3088  _password */\n      dup4\n        /* \"Mqttsc.sol\":2987:3137  Client({\r... */\n      dup2\n      mstore\n      0x20\n      add\n        /* \"Mqttsc.sol\":3123:3124  0 */\n      0x00\n        /* \"Mqttsc.sol\":3110:3125  new string[](0) */\n      0xffffffffffffffff\n      dup2\n      gt\n      dup1\n      iszero\n      tag_196\n      jumpi\n      0x00\n      dup1\n      revert\n    tag_196:\n      pop\n      mload(0x40)\n      swap1\n      dup1\n      dup3\n      mstore\n      dup1\n      0x20\n      mul\n      0x20\n      add\n      dup3\n      add\n      0x40\n      mstore\n      dup1\n      iszero\n      tag_197\n      jumpi\n      dup2\n      0x20\n      add\n    tag_198:\n      0x60\n      dup2\n      mstore\n      0x20\n      add\n      swap1\n      0x01\n      swap1\n      sub\n      swap1\n      dup2\n      tag_198\n      jumpi\n      swap1\n      pop\n    tag_197:\n      pop\n        /* \"Mqttsc.sol\":2987:3137  Client({\r... */\n      dup2\n      mstore\n      pop\n        /* \"Mqttsc.sol\":2961:3137  Client memory newClient = Client({\r... */\n      swap1\n      pop\n        /* \"Mqttsc.sol\":3148:3159  clientCount */\n      0x02\n      0x00\n        /* \"Mqttsc.sol\":3148:3161  clientCount++ */\n      dup2\n      sload\n      dup1\n      swap3\n      swap2\n      swap1\n      0x01\n      add\n      swap2\n      swap1\n      pop\n      sstore\n      pop\n        /* \"Mqttsc.sol\":3172:3179  idCount */\n      0x03\n      0x00\n        /* \"Mqttsc.sol\":3172:3181  idCount++ */\n      dup2\n      sload\n      dup1\n      swap3\n      swap2\n      swap1\n      0x01\n      add\n      swap2\n      swap1\n      pop\n      sstore\n      pop\n        /* \"Mqttsc.sol\":3192:3204  clientLedger */\n      0x01\n        /* \"Mqttsc.sol\":3210:3219  newClient */\n      dup2\n        /* \"Mqttsc.sol\":3192:3220  clientLedger.push(newClient) */\n      swap1\n      dup1\n      0x01\n      dup2\n      sload\n      add\n      dup1\n      dup3\n      sstore\n      dup1\n      swap2\n      pop\n      pop\n      0x01\n      swap1\n      sub\n      swap1\n      0x00\n      mstore\n      keccak256(0x00, 0x20)\n      swap1\n      0x04\n      mul\n      add\n      0x00\n      swap1\n      swap2\n      swap1\n      swap2\n      swap1\n      swap2\n      pop\n      0x00\n      dup3\n      add\n      mload\n      dup2\n      0x00\n      add\n      sstore\n      0x20\n      dup3\n      add\n      mload\n      dup2\n      0x01\n      add\n      swap1\n      dup1\n      mload\n      swap1\n      0x20\n      add\n      swap1\n      tag_200\n      swap3\n      swap2\n      swap1\n      tag_84\n      jump\t// in\n    tag_200:\n      pop\n      0x40\n      dup3\n      add\n      mload\n      dup2\n      0x02\n      add\n      swap1\n      dup1\n      mload\n      swap1\n      0x20\n      add\n      swap1\n      tag_201\n      swap3\n      swap2\n      swap1\n      tag_84\n      jump\t// in\n    tag_201:\n      pop\n      0x60\n      dup3\n      add\n      mload\n      dup2\n      0x03\n      add\n      swap1\n      dup1\n      mload\n      swap1\n      0x20\n      add\n      swap1\n      tag_202\n      swap3\n      swap2\n      swap1\n      tag_203\n      jump\t// in\n    tag_202:\n      pop\n      pop\n      pop\n        /* \"Mqttsc.sol\":5562:5563  _ */\n      pop\n        /* \"Mqttsc.sol\":2864:3228  function addClient(string memory _username, string memory _password) isManager public {\r... */\n      pop\n      pop\n      jump\t// out\n        /* \"Mqttsc.sol\":653:1012  function deleteClient(uint _id) isManager public {\r... */\n    tag_50:\n        /* \"Mqttsc.sol\":5543:5550  manager */\n      0x00\n      dup1\n      sload\n      swap1\n      0x0100\n      exp\n      swap1\n      div\n      0xffffffffffffffffffffffffffffffffffffffff\n      and\n        /* \"Mqttsc.sol\":5529:5550  msg.sender == manager */\n      0xffffffffffffffffffffffffffffffffffffffff\n      and\n        /* \"Mqttsc.sol\":5529:5539  msg.sender */\n      caller\n        /* \"Mqttsc.sol\":5529:5550  msg.sender == manager */\n      0xffffffffffffffffffffffffffffffffffffffff\n      and\n      eq\n        /* \"Mqttsc.sol\":5521:5551  require(msg.sender == manager) */\n      tag_205\n      jumpi\n      0x00\n      dup1\n      revert\n    tag_205:\n        /* \"Mqttsc.sol\":717:723  uint i */\n      0x00\n        /* \"Mqttsc.sol\":713:1005  for(uint i = 0; i < clientLedger.length; i++){\r... */\n    tag_207:\n        /* \"Mqttsc.sol\":733:745  clientLedger */\n      0x01\n        /* \"Mqttsc.sol\":733:752  clientLedger.length */\n      dup1\n      sload\n      swap1\n      pop\n        /* \"Mqttsc.sol\":729:730  i */\n      dup2\n        /* \"Mqttsc.sol\":729:752  i < clientLedger.length */\n      lt\n        /* \"Mqttsc.sol\":713:1005  for(uint i = 0; i < clientLedger.length; i++){\r... */\n      iszero\n      tag_208\n      jumpi\n        /* \"Mqttsc.sol\":783:795  clientLedger */\n      0x01\n        /* \"Mqttsc.sol\":796:797  i */\n      dup2\n        /* \"Mqttsc.sol\":783:798  clientLedger[i] */\n      dup2\n      sload\n      dup2\n      lt\n      tag_210\n      jumpi\n      invalid\n    tag_210:\n      swap1\n      0x00\n      mstore\n      keccak256(0x00, 0x20)\n      swap1\n      0x04\n      mul\n      add\n        /* \"Mqttsc.sol\":783:801  clientLedger[i].id */\n      0x00\n      add\n      sload\n        /* \"Mqttsc.sol\":776:779  _id */\n      dup3\n        /* \"Mqttsc.sol\":776:801  _id == clientLedger[i].id */\n      eq\n        /* \"Mqttsc.sol\":773:994  if(_id == clientLedger[i].id){\r... */\n      iszero\n      tag_212\n      jumpi\n        /* \"Mqttsc.sol\":831:835  true */\n      0x01\n        /* \"Mqttsc.sol\":821:828  changed */\n      0x04\n      0x00\n        /* \"Mqttsc.sol\":821:835  changed = true */\n      0x0100\n      exp\n      dup2\n      sload\n      dup2\n      0xff\n      mul\n      not\n      and\n      swap1\n      dup4\n      iszero\n      iszero\n      mul\n      or\n      swap1\n      sstore\n      pop\n        /* \"Mqttsc.sol\":872:884  clientLedger */\n      0x01\n        /* \"Mqttsc.sol\":907:908  1 */\n      dup1\n        /* \"Mqttsc.sol\":885:897  clientLedger */\n      dup1\n        /* \"Mqttsc.sol\":885:904  clientLedger.length */\n      dup1\n      sload\n      swap1\n      pop\n        /* \"Mqttsc.sol\":885:908  clientLedger.length - 1 */\n      sub\n        /* \"Mqttsc.sol\":872:909  clientLedger[clientLedger.length - 1] */\n      dup2\n      sload\n      dup2\n      lt\n      tag_213\n      jumpi\n      invalid\n    tag_213:\n      swap1\n      0x00\n      mstore\n      keccak256(0x00, 0x20)\n      swap1\n      0x04\n      mul\n      add\n        /* \"Mqttsc.sol\":854:866  clientLedger */\n      0x01\n        /* \"Mqttsc.sol\":867:868  i */\n      dup3\n        /* \"Mqttsc.sol\":854:869  clientLedger[i] */\n      dup2\n      sload\n      dup2\n      lt\n      tag_215\n      jumpi\n      invalid\n    tag_215:\n      swap1\n      0x00\n      mstore\n      keccak256(0x00, 0x20)\n      swap1\n      0x04\n      mul\n      add\n        /* \"Mqttsc.sol\":854:909  clientLedger[i] = clientLedger[clientLedger.length - 1] */\n      0x00\n      dup3\n      add\n      sload\n      dup2\n      0x00\n      add\n      sstore\n      0x01\n      dup3\n      add\n      dup2\n      0x01\n      add\n      swap1\n      dup1\n      sload\n      0x01\n      dup2\n      0x01\n      and\n      iszero\n      0x0100\n      mul\n      sub\n      and\n      0x02\n      swap1\n      div\n      tag_217\n      swap3\n      swap2\n      swap1\n      tag_218\n      jump\t// in\n    tag_217:\n      pop\n      0x02\n      dup3\n      add\n      dup2\n      0x02\n      add\n      swap1\n      dup1\n      sload\n      0x01\n      dup2\n      0x01\n      and\n      iszero\n      0x0100\n      mul\n      sub\n      and\n      0x02\n      swap1\n      div\n      tag_219\n      swap3\n      swap2\n      swap1\n      tag_218\n      jump\t// in\n    tag_219:\n      pop\n      0x03\n      dup3\n      add\n      dup2\n      0x03\n      add\n      swap1\n      dup1\n      sload\n      tag_220\n      swap3\n      swap2\n      swap1\n      tag_221\n      jump\t// in\n    tag_220:\n      pop\n      swap1\n      pop\n      pop\n        /* \"Mqttsc.sol\":928:940  clientLedger */\n      0x01\n        /* \"Mqttsc.sol\":928:946  clientLedger.pop() */\n      dup1\n      sload\n      dup1\n      tag_222\n      jumpi\n      invalid\n    tag_222:\n      0x01\n      swap1\n      sub\n      dup2\n      dup2\n      swap1\n      0x00\n      mstore\n      keccak256(0x00, 0x20)\n      swap1\n      0x04\n      mul\n      add\n      0x00\n      dup1\n      dup3\n      add\n      0x00\n      swap1\n      sstore\n      0x01\n      dup3\n      add\n      0x00\n      tag_224\n      swap2\n      swap1\n      tag_123\n      jump\t// in\n    tag_224:\n      0x02\n      dup3\n      add\n      0x00\n      tag_225\n      swap2\n      swap1\n      tag_123\n      jump\t// in\n    tag_225:\n      0x03\n      dup3\n      add\n      0x00\n      tag_226\n      swap2\n      swap1\n      tag_227\n      jump\t// in\n    tag_226:\n      pop\n      pop\n      swap1\n      sstore\n        /* \"Mqttsc.sol\":965:976  clientCount */\n      0x02\n      0x00\n        /* \"Mqttsc.sol\":965:978  clientCount-- */\n      dup2\n      sload\n      dup1\n      swap3\n      swap2\n      swap1\n      0x01\n      swap1\n      sub\n      swap2\n      swap1\n      pop\n      sstore\n      pop\n        /* \"Mqttsc.sol\":773:994  if(_id == clientLedger[i].id){\r... */\n    tag_212:\n        /* \"Mqttsc.sol\":754:757  i++ */\n      dup1\n      dup1\n      0x01\n      add\n      swap2\n      pop\n      pop\n        /* \"Mqttsc.sol\":713:1005  for(uint i = 0; i < clientLedger.length; i++){\r... */\n      jump(tag_207)\n    tag_208:\n      pop\n        /* \"Mqttsc.sol\":653:1012  function deleteClient(uint _id) isManager public {\r... */\n      pop\n      jump\t// out\n        /* \"Mqttsc.sol\":4444:4948  function authenticate(uint _id, string memory _username, string memory _password) isManager public view returns (bool) {\r... */\n    tag_54:\n        /* \"Mqttsc.sol\":4557:4561  bool */\n      0x00\n        /* \"Mqttsc.sol\":5543:5550  manager */\n      dup1\n      0x00\n      swap1\n      sload\n      swap1\n      0x0100\n      exp\n      swap1\n      div\n      0xffffffffffffffffffffffffffffffffffffffff\n      and\n        /* \"Mqttsc.sol\":5529:5550  msg.sender == manager */\n      0xffffffffffffffffffffffffffffffffffffffff\n      and\n        /* \"Mqttsc.sol\":5529:5539  msg.sender */\n      caller\n        /* \"Mqttsc.sol\":5529:5550  msg.sender == manager */\n      0xffffffffffffffffffffffffffffffffffffffff\n      and\n      eq\n        /* \"Mqttsc.sol\":5521:5551  require(msg.sender == manager) */\n      tag_229\n      jumpi\n      0x00\n      dup1\n      revert\n    tag_229:\n        /* \"Mqttsc.sol\":4578:4584  uint i */\n      0x00\n        /* \"Mqttsc.sol\":4574:4918  for(uint i = 0; i < clientLedger.length; i++){\r... */\n    tag_231:\n        /* \"Mqttsc.sol\":4594:4606  clientLedger */\n      0x01\n        /* \"Mqttsc.sol\":4594:4613  clientLedger.length */\n      dup1\n      sload\n      swap1\n      pop\n        /* \"Mqttsc.sol\":4590:4591  i */\n      dup2\n        /* \"Mqttsc.sol\":4590:4613  i < clientLedger.length */\n      lt\n        /* \"Mqttsc.sol\":4574:4918  for(uint i = 0; i < clientLedger.length; i++){\r... */\n      iszero\n      tag_232\n      jumpi\n        /* \"Mqttsc.sol\":4644:4656  clientLedger */\n      0x01\n        /* \"Mqttsc.sol\":4657:4658  i */\n      dup2\n        /* \"Mqttsc.sol\":4644:4659  clientLedger[i] */\n      dup2\n      sload\n      dup2\n      lt\n      tag_234\n      jumpi\n      invalid\n    tag_234:\n      swap1\n      0x00\n      mstore\n      keccak256(0x00, 0x20)\n      swap1\n      0x04\n      mul\n      add\n        /* \"Mqttsc.sol\":4644:4662  clientLedger[i].id */\n      0x00\n      add\n      sload\n        /* \"Mqttsc.sol\":4637:4640  _id */\n      dup6\n        /* \"Mqttsc.sol\":4637:4662  _id == clientLedger[i].id */\n      eq\n        /* \"Mqttsc.sol\":4637:4761  _id == clientLedger[i].id && keccak256(abi.encodePacked(_username)) == keccak256(abi.encodePacked(clientLedger[i].username)) */\n      dup1\n      iszero\n      tag_236\n      jumpi\n      pop\n        /* \"Mqttsc.sol\":4735:4747  clientLedger */\n      0x01\n        /* \"Mqttsc.sol\":4748:4749  i */\n      dup2\n        /* \"Mqttsc.sol\":4735:4750  clientLedger[i] */\n      dup2\n      sload\n      dup2\n      lt\n      tag_237\n      jumpi\n      invalid\n    tag_237:\n      swap1\n      0x00\n      mstore\n      keccak256(0x00, 0x20)\n      swap1\n      0x04\n      mul\n      add\n        /* \"Mqttsc.sol\":4735:4759  clientLedger[i].username */\n      0x01\n      add\n        /* \"Mqttsc.sol\":4718:4760  abi.encodePacked(clientLedger[i].username) */\n      add(0x20, mload(0x40))\n      tag_239\n      swap2\n      swap1\n      tag_77\n      jump\t// in\n    tag_239:\n      mload(0x40)\n      0x20\n      dup2\n      dup4\n      sub\n      sub\n      dup2\n      mstore\n      swap1\n      0x40\n      mstore\n        /* \"Mqttsc.sol\":4708:4761  keccak256(abi.encodePacked(clientLedger[i].username)) */\n      dup1\n      mload\n      swap1\n      0x20\n      add\n      keccak256\n        /* \"Mqttsc.sol\":4693:4702  _username */\n      dup5\n        /* \"Mqttsc.sol\":4676:4703  abi.encodePacked(_username) */\n      add(0x20, mload(0x40))\n      tag_240\n      swap2\n      swap1\n      tag_79\n      jump\t// in\n    tag_240:\n      mload(0x40)\n      0x20\n      dup2\n      dup4\n      sub\n      sub\n      dup2\n      mstore\n      swap1\n      0x40\n      mstore\n        /* \"Mqttsc.sol\":4666:4704  keccak256(abi.encodePacked(_username)) */\n      dup1\n      mload\n      swap1\n      0x20\n      add\n      keccak256\n        /* \"Mqttsc.sol\":4666:4761  keccak256(abi.encodePacked(_username)) == keccak256(abi.encodePacked(clientLedger[i].username)) */\n      eq\n        /* \"Mqttsc.sol\":4637:4761  _id == clientLedger[i].id && keccak256(abi.encodePacked(_username)) == keccak256(abi.encodePacked(clientLedger[i].username)) */\n    tag_236:\n        /* \"Mqttsc.sol\":4637:4860  _id == clientLedger[i].id && keccak256(abi.encodePacked(_username)) == keccak256(abi.encodePacked(clientLedger[i].username)) && keccak256(abi.encodePacked(_password)) == keccak256(abi.encodePacked(clientLedger[i].password)) */\n      dup1\n      iszero\n      tag_241\n      jumpi\n      pop\n        /* \"Mqttsc.sol\":4834:4846  clientLedger */\n      0x01\n        /* \"Mqttsc.sol\":4847:4848  i */\n      dup2\n        /* \"Mqttsc.sol\":4834:4849  clientLedger[i] */\n      dup2\n      sload\n      dup2\n      lt\n      tag_242\n      jumpi\n      invalid\n    tag_242:\n      swap1\n      0x00\n      mstore\n      keccak256(0x00, 0x20)\n      swap1\n      0x04\n      mul\n      add\n        /* \"Mqttsc.sol\":4834:4858  clientLedger[i].password */\n      0x02\n      add\n        /* \"Mqttsc.sol\":4817:4859  abi.encodePacked(clientLedger[i].password) */\n      add(0x20, mload(0x40))\n      tag_244\n      swap2\n      swap1\n      tag_77\n      jump\t// in\n    tag_244:\n      mload(0x40)\n      0x20\n      dup2\n      dup4\n      sub\n      sub\n      dup2\n      mstore\n      swap1\n      0x40\n      mstore\n        /* \"Mqttsc.sol\":4807:4860  keccak256(abi.encodePacked(clientLedger[i].password)) */\n      dup1\n      mload\n      swap1\n      0x20\n      add\n      keccak256\n        /* \"Mqttsc.sol\":4792:4801  _password */\n      dup4\n        /* \"Mqttsc.sol\":4775:4802  abi.encodePacked(_password) */\n      add(0x20, mload(0x40))\n      tag_245\n      swap2\n      swap1\n      tag_79\n      jump\t// in\n    tag_245:\n      mload(0x40)\n      0x20\n      dup2\n      dup4\n      sub\n      sub\n      dup2\n      mstore\n      swap1\n      0x40\n      mstore\n        /* \"Mqttsc.sol\":4765:4803  keccak256(abi.encodePacked(_password)) */\n      dup1\n      mload\n      swap1\n      0x20\n      add\n      keccak256\n        /* \"Mqttsc.sol\":4765:4860  keccak256(abi.encodePacked(_password)) == keccak256(abi.encodePacked(clientLedger[i].password)) */\n      eq\n        /* \"Mqttsc.sol\":4637:4860  _id == clientLedger[i].id && keccak256(abi.encodePacked(_username)) == keccak256(abi.encodePacked(clientLedger[i].username)) && keccak256(abi.encodePacked(_password)) == keccak256(abi.encodePacked(clientLedger[i].password)) */\n    tag_241:\n        /* \"Mqttsc.sol\":4634:4907  if(_id == clientLedger[i].id && keccak256(abi.encodePacked(_username)) == keccak256(abi.encodePacked(clientLedger[i].username)) && keccak256(abi.encodePacked(_password)) == keccak256(abi.encodePacked(clientLedger[i].password))){\r... */\n      iszero\n      tag_246\n      jumpi\n        /* \"Mqttsc.sol\":4887:4891  true */\n      0x01\n        /* \"Mqttsc.sol\":4880:4891  return true */\n      swap2\n      pop\n      pop\n      jump(tag_230)\n        /* \"Mqttsc.sol\":4634:4907  if(_id == clientLedger[i].id && keccak256(abi.encodePacked(_username)) == keccak256(abi.encodePacked(clientLedger[i].username)) && keccak256(abi.encodePacked(_password)) == keccak256(abi.encodePacked(clientLedger[i].password))){\r... */\n    tag_246:\n        /* \"Mqttsc.sol\":4615:4618  i++ */\n      dup1\n      dup1\n      0x01\n      add\n      swap2\n      pop\n      pop\n        /* \"Mqttsc.sol\":4574:4918  for(uint i = 0; i < clientLedger.length; i++){\r... */\n      jump(tag_231)\n    tag_232:\n      pop\n        /* \"Mqttsc.sol\":4935:4940  false */\n      0x00\n        /* \"Mqttsc.sol\":4928:4940  return false */\n      swap1\n      pop\n        /* \"Mqttsc.sol\":5562:5563  _ */\n    tag_230:\n        /* \"Mqttsc.sol\":4444:4948  function authenticate(uint _id, string memory _username, string memory _password) isManager public view returns (bool) {\r... */\n      swap4\n      swap3\n      pop\n      pop\n      pop\n      jump\t// out\n        /* \"Mqttsc.sol\":3246:3804  function updateTopic(uint _id, string memory _topic, string memory _newtopic) isManager public{\r... */\n    tag_58:\n        /* \"Mqttsc.sol\":5543:5550  manager */\n      0x00\n      dup1\n      sload\n      swap1\n      0x0100\n      exp\n      swap1\n      div\n      0xffffffffffffffffffffffffffffffffffffffff\n      and\n        /* \"Mqttsc.sol\":5529:5550  msg.sender == manager */\n      0xffffffffffffffffffffffffffffffffffffffff\n      and\n        /* \"Mqttsc.sol\":5529:5539  msg.sender */\n      caller\n        /* \"Mqttsc.sol\":5529:5550  msg.sender == manager */\n      0xffffffffffffffffffffffffffffffffffffffff\n      and\n      eq\n        /* \"Mqttsc.sol\":5521:5551  require(msg.sender == manager) */\n      tag_248\n      jumpi\n      0x00\n      dup1\n      revert\n    tag_248:\n        /* \"Mqttsc.sol\":3355:3361  uint i */\n      0x00\n        /* \"Mqttsc.sol\":3351:3797  for(uint i = 0; i < clientLedger.length; i++){\r... */\n    tag_250:\n        /* \"Mqttsc.sol\":3371:3383  clientLedger */\n      0x01\n        /* \"Mqttsc.sol\":3371:3390  clientLedger.length */\n      dup1\n      sload\n      swap1\n      pop\n        /* \"Mqttsc.sol\":3367:3368  i */\n      dup2\n        /* \"Mqttsc.sol\":3367:3390  i < clientLedger.length */\n      lt\n        /* \"Mqttsc.sol\":3351:3797  for(uint i = 0; i < clientLedger.length; i++){\r... */\n      iszero\n      tag_251\n      jumpi\n        /* \"Mqttsc.sol\":3411:3435  Client storage clientele */\n      0x00\n        /* \"Mqttsc.sol\":3438:3450  clientLedger */\n      0x01\n        /* \"Mqttsc.sol\":3451:3452  i */\n      dup3\n        /* \"Mqttsc.sol\":3438:3453  clientLedger[i] */\n      dup2\n      sload\n      dup2\n      lt\n      tag_253\n      jumpi\n      invalid\n    tag_253:\n      swap1\n      0x00\n      mstore\n      keccak256(0x00, 0x20)\n      swap1\n      0x04\n      mul\n      add\n        /* \"Mqttsc.sol\":3411:3453  Client storage clientele = clientLedger[i] */\n      swap1\n      pop\n        /* \"Mqttsc.sol\":3478:3487  clientele */\n      dup1\n        /* \"Mqttsc.sol\":3478:3490  clientele.id */\n      0x00\n      add\n      sload\n        /* \"Mqttsc.sol\":3471:3474  _id */\n      dup6\n        /* \"Mqttsc.sol\":3471:3490  _id == clientele.id */\n      eq\n        /* \"Mqttsc.sol\":3468:3786  if(_id == clientele.id){\r... */\n      iszero\n      tag_255\n      jumpi\n        /* \"Mqttsc.sol\":3514:3520  uint j */\n      0x00\n        /* \"Mqttsc.sol\":3510:3771  for(uint j = 0; j < clientele.topic.length; j++){\r... */\n    tag_256:\n        /* \"Mqttsc.sol\":3530:3539  clientele */\n      dup2\n        /* \"Mqttsc.sol\":3530:3545  clientele.topic */\n      0x03\n      add\n        /* \"Mqttsc.sol\":3530:3552  clientele.topic.length */\n      dup1\n      sload\n      swap1\n      pop\n        /* \"Mqttsc.sol\":3526:3527  j */\n      dup2\n        /* \"Mqttsc.sol\":3526:3552  j < clientele.topic.length */\n      lt\n        /* \"Mqttsc.sol\":3510:3771  for(uint j = 0; j < clientele.topic.length; j++){\r... */\n      iszero\n      tag_257\n      jumpi\n        /* \"Mqttsc.sol\":3662:3668  _topic */\n      dup5\n        /* \"Mqttsc.sol\":3645:3669  abi.encodePacked(_topic) */\n      add(0x20, mload(0x40))\n      tag_259\n      swap2\n      swap1\n      tag_79\n      jump\t// in\n    tag_259:\n      mload(0x40)\n      0x20\n      dup2\n      dup4\n      sub\n      sub\n      dup2\n      mstore\n      swap1\n      0x40\n      mstore\n        /* \"Mqttsc.sol\":3635:3670  keccak256(abi.encodePacked(_topic)) */\n      dup1\n      mload\n      swap1\n      0x20\n      add\n      keccak256\n        /* \"Mqttsc.sol\":3611:3620  clientele */\n      dup3\n        /* \"Mqttsc.sol\":3611:3626  clientele.topic */\n      0x03\n      add\n        /* \"Mqttsc.sol\":3627:3628  j */\n      dup3\n        /* \"Mqttsc.sol\":3611:3629  clientele.topic[j] */\n      dup2\n      sload\n      dup2\n      lt\n      tag_260\n      jumpi\n      invalid\n    tag_260:\n      swap1\n      0x00\n      mstore\n      keccak256(0x00, 0x20)\n      add\n        /* \"Mqttsc.sol\":3594:3630  abi.encodePacked(clientele.topic[j]) */\n      add(0x20, mload(0x40))\n      tag_262\n      swap2\n      swap1\n      tag_77\n      jump\t// in\n    tag_262:\n      mload(0x40)\n      0x20\n      dup2\n      dup4\n      sub\n      sub\n      dup2\n      mstore\n      swap1\n      0x40\n      mstore\n        /* \"Mqttsc.sol\":3584:3631  keccak256(abi.encodePacked(clientele.topic[j])) */\n      dup1\n      mload\n      swap1\n      0x20\n      add\n      keccak256\n        /* \"Mqttsc.sol\":3584:3670  keccak256(abi.encodePacked(clientele.topic[j])) == keccak256(abi.encodePacked(_topic)) */\n      eq\n        /* \"Mqttsc.sol\":3581:3752  if(keccak256(abi.encodePacked(clientele.topic[j])) == keccak256(abi.encodePacked(_topic))){\r... */\n      iszero\n      tag_263\n      jumpi\n        /* \"Mqttsc.sol\":3719:3728  _newtopic */\n      dup4\n        /* \"Mqttsc.sol\":3698:3707  clientele */\n      dup3\n        /* \"Mqttsc.sol\":3698:3713  clientele.topic */\n      0x03\n      add\n        /* \"Mqttsc.sol\":3714:3715  j */\n      dup3\n        /* \"Mqttsc.sol\":3698:3716  clientele.topic[j] */\n      dup2\n      sload\n      dup2\n      lt\n      tag_264\n      jumpi\n      invalid\n    tag_264:\n      swap1\n      0x00\n      mstore\n      keccak256(0x00, 0x20)\n      add\n        /* \"Mqttsc.sol\":3698:3728  clientele.topic[j] = _newtopic */\n      swap1\n      dup1\n      mload\n      swap1\n      0x20\n      add\n      swap1\n      tag_266\n      swap3\n      swap2\n      swap1\n      tag_84\n      jump\t// in\n    tag_266:\n      pop\n        /* \"Mqttsc.sol\":3581:3752  if(keccak256(abi.encodePacked(clientele.topic[j])) == keccak256(abi.encodePacked(_topic))){\r... */\n    tag_263:\n        /* \"Mqttsc.sol\":3554:3557  j++ */\n      dup1\n      dup1\n      0x01\n      add\n      swap2\n      pop\n      pop\n        /* \"Mqttsc.sol\":3510:3771  for(uint j = 0; j < clientele.topic.length; j++){\r... */\n      jump(tag_256)\n    tag_257:\n      pop\n        /* \"Mqttsc.sol\":3468:3786  if(_id == clientele.id){\r... */\n    tag_255:\n        /* \"Mqttsc.sol\":3351:3797  for(uint i = 0; i < clientLedger.length; i++){\r... */\n      pop\n        /* \"Mqttsc.sol\":3392:3395  i++ */\n      dup1\n      dup1\n      0x01\n      add\n      swap2\n      pop\n      pop\n        /* \"Mqttsc.sol\":3351:3797  for(uint i = 0; i < clientLedger.length; i++){\r... */\n      jump(tag_250)\n    tag_251:\n      pop\n        /* \"Mqttsc.sol\":3246:3804  function updateTopic(uint _id, string memory _topic, string memory _newtopic) isManager public{\r... */\n      pop\n      pop\n      pop\n      jump\t// out\n    tag_84:\n      dup3\n      dup1\n      sload\n      0x01\n      dup2\n      0x01\n      and\n      iszero\n      0x0100\n      mul\n      sub\n      and\n      0x02\n      swap1\n      div\n      swap1\n      0x00\n      mstore\n      keccak256(0x00, 0x20)\n      swap1\n      0x1f\n      add\n      0x20\n      swap1\n      div\n      dup2\n      add\n      swap3\n      dup3\n      0x1f\n      lt\n      tag_268\n      jumpi\n      dup1\n      mload\n      not(0xff)\n      and\n      dup4\n      dup1\n      add\n      or\n      dup6\n      sstore\n      jump(tag_267)\n    tag_268:\n      dup3\n      dup1\n      add\n      0x01\n      add\n      dup6\n      sstore\n      dup3\n      iszero\n      tag_267\n      jumpi\n      swap2\n      dup3\n      add\n    tag_269:\n      dup3\n      dup2\n      gt\n      iszero\n      tag_270\n      jumpi\n      dup3\n      mload\n      dup3\n      sstore\n      swap2\n      0x20\n      add\n      swap2\n      swap1\n      0x01\n      add\n      swap1\n      jump(tag_269)\n    tag_270:\n    tag_267:\n      pop\n      swap1\n      pop\n      tag_271\n      swap2\n      swap1\n      tag_272\n      jump\t// in\n    tag_271:\n      pop\n      swap1\n      jump\t// out\n    tag_117:\n      dup3\n      dup1\n      sload\n      0x01\n      dup2\n      0x01\n      and\n      iszero\n      0x0100\n      mul\n      sub\n      and\n      0x02\n      swap1\n      div\n      swap1\n      0x00\n      mstore\n      keccak256(0x00, 0x20)\n      swap1\n      0x1f\n      add\n      0x20\n      swap1\n      div\n      dup2\n      add\n      swap3\n      dup3\n      0x1f\n      lt\n      tag_274\n      jumpi\n      dup1\n      sload\n      dup6\n      sstore\n      jump(tag_273)\n    tag_274:\n      dup3\n      dup1\n      add\n      0x01\n      add\n      dup6\n      sstore\n      dup3\n      iszero\n      tag_273\n      jumpi\n      0x00\n      mstore\n      keccak256(0x00, 0x20)\n      swap2\n      0x1f\n      add\n      0x20\n      swap1\n      div\n      dup3\n      add\n    tag_275:\n      dup3\n      dup2\n      gt\n      iszero\n      tag_276\n      jumpi\n      dup3\n      sload\n      dup3\n      sstore\n      swap2\n      0x01\n      add\n      swap2\n      swap1\n      0x01\n      add\n      swap1\n      jump(tag_275)\n    tag_276:\n    tag_273:\n      pop\n      swap1\n      pop\n      tag_277\n      swap2\n      swap1\n      tag_272\n      jump\t// in\n    tag_277:\n      pop\n      swap1\n      jump\t// out\n    tag_123:\n      pop\n      dup1\n      sload\n      0x01\n      dup2\n      0x01\n      and\n      iszero\n      0x0100\n      mul\n      sub\n      and\n      0x02\n      swap1\n      div\n      0x00\n      dup3\n      sstore\n      dup1\n      0x1f\n      lt\n      tag_279\n      jumpi\n      pop\n      jump(tag_278)\n    tag_279:\n      0x1f\n      add\n      0x20\n      swap1\n      div\n      swap1\n      0x00\n      mstore\n      keccak256(0x00, 0x20)\n      swap1\n      dup2\n      add\n      swap1\n      tag_280\n      swap2\n      swap1\n      tag_272\n      jump\t// in\n    tag_280:\n    tag_278:\n      pop\n      jump\t// out\n    tag_195:\n      mload(0x40)\n      dup1\n      0x80\n      add\n      0x40\n      mstore\n      dup1\n      0x00\n      dup2\n      mstore\n      0x20\n      add\n      0x60\n      dup2\n      mstore\n      0x20\n      add\n      0x60\n      dup2\n      mstore\n      0x20\n      add\n      0x60\n      dup2\n      mstore\n      pop\n      swap1\n      jump\t// out\n    tag_203:\n      dup3\n      dup1\n      sload\n      dup3\n      dup3\n      sstore\n      swap1\n      0x00\n      mstore\n      keccak256(0x00, 0x20)\n      swap1\n      dup2\n      add\n      swap3\n      dup3\n      iszero\n      tag_281\n      jumpi\n      swap2\n      0x20\n      mul\n      dup3\n      add\n    tag_282:\n      dup3\n      dup2\n      gt\n      iszero\n      tag_283\n      jumpi\n      dup3\n      mload\n      dup3\n      swap1\n      dup1\n      mload\n      swap1\n      0x20\n      add\n      swap1\n      tag_284\n      swap3\n      swap2\n      swap1\n      tag_84\n      jump\t// in\n    tag_284:\n      pop\n      swap2\n      0x20\n      add\n      swap2\n      swap1\n      0x01\n      add\n      swap1\n      jump(tag_282)\n    tag_283:\n    tag_281:\n      pop\n      swap1\n      pop\n      tag_285\n      swap2\n      swap1\n      tag_286\n      jump\t// in\n    tag_285:\n      pop\n      swap1\n      jump\t// out\n    tag_218:\n      dup3\n      dup1\n      sload\n      0x01\n      dup2\n      0x01\n      and\n      iszero\n      0x0100\n      mul\n      sub\n      and\n      0x02\n      swap1\n      div\n      swap1\n      0x00\n      mstore\n      keccak256(0x00, 0x20)\n      swap1\n      0x1f\n      add\n      0x20\n      swap1\n      div\n      dup2\n      add\n      swap3\n      dup3\n      0x1f\n      lt\n      tag_288\n      jumpi\n      dup1\n      sload\n      dup6\n      sstore\n      jump(tag_287)\n    tag_288:\n      dup3\n      dup1\n      add\n      0x01\n      add\n      dup6\n      sstore\n      dup3\n      iszero\n      tag_287\n      jumpi\n      0x00\n      mstore\n      keccak256(0x00, 0x20)\n      swap2\n      0x1f\n      add\n      0x20\n      swap1\n      div\n      dup3\n      add\n    tag_289:\n      dup3\n      dup2\n      gt\n      iszero\n      tag_290\n      jumpi\n      dup3\n      sload\n      dup3\n      sstore\n      swap2\n      0x01\n      add\n      swap2\n      swap1\n      0x01\n      add\n      swap1\n      jump(tag_289)\n    tag_290:\n    tag_287:\n      pop\n      swap1\n      pop\n      tag_291\n      swap2\n      swap1\n      tag_272\n      jump\t// in\n    tag_291:\n      pop\n      swap1\n      jump\t// out\n    tag_221:\n      dup3\n      dup1\n      sload\n      dup3\n      dup3\n      sstore\n      swap1\n      0x00\n      mstore\n      keccak256(0x00, 0x20)\n      swap1\n      dup2\n      add\n      swap3\n      dup3\n      iszero\n      tag_292\n      jumpi\n      0x00\n      mstore\n      keccak256(0x00, 0x20)\n      swap2\n      dup3\n      add\n    tag_293:\n      dup3\n      dup2\n      gt\n      iszero\n      tag_294\n      jumpi\n      dup3\n      dup3\n      swap1\n      dup1\n      sload\n      0x01\n      dup2\n      0x01\n      and\n      iszero\n      0x0100\n      mul\n      sub\n      and\n      0x02\n      swap1\n      div\n      tag_295\n      swap3\n      swap2\n      swap1\n      tag_218\n      jump\t// in\n    tag_295:\n      pop\n      swap2\n      0x01\n      add\n      swap2\n      swap1\n      0x01\n      add\n      swap1\n      jump(tag_293)\n    tag_294:\n    tag_292:\n      pop\n      swap1\n      pop\n      tag_296\n      swap2\n      swap1\n      tag_286\n      jump\t// in\n    tag_296:\n      pop\n      swap1\n      jump\t// out\n    tag_227:\n      pop\n      dup1\n      sload\n      0x00\n      dup3\n      sstore\n      swap1\n      0x00\n      mstore\n      keccak256(0x00, 0x20)\n      swap1\n      dup2\n      add\n      swap1\n      tag_298\n      swap2\n      swap1\n      tag_286\n      jump\t// in\n    tag_298:\n      pop\n      jump\t// out\n    tag_272:\n    tag_299:\n      dup1\n      dup3\n      gt\n      iszero\n      tag_300\n      jumpi\n      0x00\n      dup2\n      0x00\n      swap1\n      sstore\n      pop\n      0x01\n      add\n      jump(tag_299)\n    tag_300:\n      pop\n      swap1\n      jump\t// out\n    tag_286:\n    tag_301:\n      dup1\n      dup3\n      gt\n      iszero\n      tag_302\n      jumpi\n      0x00\n      dup2\n      dup2\n      tag_303\n      swap2\n      swap1\n      tag_123\n      jump\t// in\n    tag_303:\n      pop\n      0x01\n      add\n      jump(tag_301)\n    tag_302:\n      pop\n      swap1\n      jump\t// out\n        /* \"--CODEGEN--\":6:448   */\n    tag_305:\n      0x00\n        /* \"--CODEGEN--\":108:111   */\n      dup3\n        /* \"--CODEGEN--\":101:105   */\n      0x1f\n        /* \"--CODEGEN--\":93:99   */\n      dup4\n        /* \"--CODEGEN--\":89:106   */\n      add\n        /* \"--CODEGEN--\":85:112   */\n      slt\n        /* \"--CODEGEN--\":75:77   */\n      tag_307\n      jumpi\n        /* \"--CODEGEN--\":126:127   */\n      0x00\n        /* \"--CODEGEN--\":123:124   */\n      dup1\n        /* \"--CODEGEN--\":116:128   */\n      revert\n        /* \"--CODEGEN--\":75:77   */\n    tag_307:\n        /* \"--CODEGEN--\":163:169   */\n      dup2\n        /* \"--CODEGEN--\":150:170   */\n      calldataload\n        /* \"--CODEGEN--\":185:250   */\n      tag_308\n        /* \"--CODEGEN--\":200:249   */\n      tag_309\n        /* \"--CODEGEN--\":242:248   */\n      dup3\n        /* \"--CODEGEN--\":200:249   */\n      tag_310\n      jump\t// in\n    tag_309:\n        /* \"--CODEGEN--\":185:250   */\n      tag_311\n      jump\t// in\n    tag_308:\n        /* \"--CODEGEN--\":176:250   */\n      swap2\n      pop\n        /* \"--CODEGEN--\":270:276   */\n      dup1\n        /* \"--CODEGEN--\":263:268   */\n      dup3\n        /* \"--CODEGEN--\":256:277   */\n      mstore\n        /* \"--CODEGEN--\":306:310   */\n      0x20\n        /* \"--CODEGEN--\":298:304   */\n      dup4\n        /* \"--CODEGEN--\":294:311   */\n      add\n        /* \"--CODEGEN--\":339:343   */\n      0x20\n        /* \"--CODEGEN--\":332:337   */\n      dup4\n        /* \"--CODEGEN--\":328:344   */\n      add\n        /* \"--CODEGEN--\":374:377   */\n      dup6\n        /* \"--CODEGEN--\":365:371   */\n      dup4\n        /* \"--CODEGEN--\":360:363   */\n      dup4\n        /* \"--CODEGEN--\":356:372   */\n      add\n        /* \"--CODEGEN--\":353:378   */\n      gt\n        /* \"--CODEGEN--\":350:352   */\n      iszero\n      tag_312\n      jumpi\n        /* \"--CODEGEN--\":391:392   */\n      0x00\n        /* \"--CODEGEN--\":388:389   */\n      dup1\n        /* \"--CODEGEN--\":381:393   */\n      revert\n        /* \"--CODEGEN--\":350:352   */\n    tag_312:\n        /* \"--CODEGEN--\":401:442   */\n      tag_313\n        /* \"--CODEGEN--\":435:441   */\n      dup4\n        /* \"--CODEGEN--\":430:433   */\n      dup3\n        /* \"--CODEGEN--\":425:428   */\n      dup5\n        /* \"--CODEGEN--\":401:442   */\n      tag_314\n      jump\t// in\n    tag_313:\n        /* \"--CODEGEN--\":68:448   */\n      pop\n      pop\n      pop\n      swap3\n      swap2\n      pop\n      pop\n      jump\t// out\n        /* \"--CODEGEN--\":456:586   */\n    tag_315:\n      0x00\n        /* \"--CODEGEN--\":536:542   */\n      dup2\n        /* \"--CODEGEN--\":523:543   */\n      calldataload\n        /* \"--CODEGEN--\":514:543   */\n      swap1\n      pop\n        /* \"--CODEGEN--\":548:581   */\n      tag_317\n        /* \"--CODEGEN--\":575:580   */\n      dup2\n        /* \"--CODEGEN--\":548:581   */\n      tag_318\n      jump\t// in\n    tag_317:\n        /* \"--CODEGEN--\":508:586   */\n      swap3\n      swap2\n      pop\n      pop\n      jump\t// out\n        /* \"--CODEGEN--\":593:1171   */\n    tag_46:\n      0x00\n      dup1\n        /* \"--CODEGEN--\":734:736   */\n      0x40\n        /* \"--CODEGEN--\":722:731   */\n      dup4\n        /* \"--CODEGEN--\":713:720   */\n      dup6\n        /* \"--CODEGEN--\":709:732   */\n      sub\n        /* \"--CODEGEN--\":705:737   */\n      slt\n        /* \"--CODEGEN--\":702:704   */\n      iszero\n      tag_320\n      jumpi\n        /* \"--CODEGEN--\":750:751   */\n      0x00\n        /* \"--CODEGEN--\":747:748   */\n      dup1\n        /* \"--CODEGEN--\":740:752   */\n      revert\n        /* \"--CODEGEN--\":702:704   */\n    tag_320:\n        /* \"--CODEGEN--\":813:814   */\n      0x00\n        /* \"--CODEGEN--\":802:811   */\n      dup4\n        /* \"--CODEGEN--\":798:815   */\n      add\n        /* \"--CODEGEN--\":785:816   */\n      calldataload\n        /* \"--CODEGEN--\":836:854   */\n      0xffffffffffffffff\n        /* \"--CODEGEN--\":828:834   */\n      dup2\n        /* \"--CODEGEN--\":825:855   */\n      gt\n        /* \"--CODEGEN--\":822:824   */\n      iszero\n      tag_321\n      jumpi\n        /* \"--CODEGEN--\":868:869   */\n      0x00\n        /* \"--CODEGEN--\":865:866   */\n      dup1\n        /* \"--CODEGEN--\":858:870   */\n      revert\n        /* \"--CODEGEN--\":822:824   */\n    tag_321:\n        /* \"--CODEGEN--\":888:951   */\n      tag_322\n        /* \"--CODEGEN--\":943:950   */\n      dup6\n        /* \"--CODEGEN--\":934:940   */\n      dup3\n        /* \"--CODEGEN--\":923:932   */\n      dup7\n        /* \"--CODEGEN--\":919:941   */\n      add\n        /* \"--CODEGEN--\":888:951   */\n      tag_305\n      jump\t// in\n    tag_322:\n        /* \"--CODEGEN--\":878:951   */\n      swap3\n      pop\n        /* \"--CODEGEN--\":764:957   */\n      pop\n        /* \"--CODEGEN--\":1016:1018   */\n      0x20\n        /* \"--CODEGEN--\":1005:1014   */\n      dup4\n        /* \"--CODEGEN--\":1001:1019   */\n      add\n        /* \"--CODEGEN--\":988:1020   */\n      calldataload\n        /* \"--CODEGEN--\":1040:1058   */\n      0xffffffffffffffff\n        /* \"--CODEGEN--\":1032:1038   */\n      dup2\n        /* \"--CODEGEN--\":1029:1059   */\n      gt\n        /* \"--CODEGEN--\":1026:1028   */\n      iszero\n      tag_323\n      jumpi\n        /* \"--CODEGEN--\":1072:1073   */\n      0x00\n        /* \"--CODEGEN--\":1069:1070   */\n      dup1\n        /* \"--CODEGEN--\":1062:1074   */\n      revert\n        /* \"--CODEGEN--\":1026:1028   */\n    tag_323:\n        /* \"--CODEGEN--\":1092:1155   */\n      tag_324\n        /* \"--CODEGEN--\":1147:1154   */\n      dup6\n        /* \"--CODEGEN--\":1138:1144   */\n      dup3\n        /* \"--CODEGEN--\":1127:1136   */\n      dup7\n        /* \"--CODEGEN--\":1123:1145   */\n      add\n        /* \"--CODEGEN--\":1092:1155   */\n      tag_305\n      jump\t// in\n    tag_324:\n        /* \"--CODEGEN--\":1082:1155   */\n      swap2\n      pop\n        /* \"--CODEGEN--\":967:1161   */\n      pop\n        /* \"--CODEGEN--\":696:1171   */\n      swap3\n      pop\n      swap3\n      swap1\n      pop\n      jump\t// out\n        /* \"--CODEGEN--\":1178:1419   */\n    tag_40:\n      0x00\n        /* \"--CODEGEN--\":1282:1284   */\n      0x20\n        /* \"--CODEGEN--\":1270:1279   */\n      dup3\n        /* \"--CODEGEN--\":1261:1268   */\n      dup5\n        /* \"--CODEGEN--\":1257:1280   */\n      sub\n        /* \"--CODEGEN--\":1253:1285   */\n      slt\n        /* \"--CODEGEN--\":1250:1252   */\n      iszero\n      tag_326\n      jumpi\n        /* \"--CODEGEN--\":1298:1299   */\n      0x00\n        /* \"--CODEGEN--\":1295:1296   */\n      dup1\n        /* \"--CODEGEN--\":1288:1300   */\n      revert\n        /* \"--CODEGEN--\":1250:1252   */\n    tag_326:\n        /* \"--CODEGEN--\":1333:1334   */\n      0x00\n        /* \"--CODEGEN--\":1350:1403   */\n      tag_327\n        /* \"--CODEGEN--\":1395:1402   */\n      dup5\n        /* \"--CODEGEN--\":1386:1392   */\n      dup3\n        /* \"--CODEGEN--\":1375:1384   */\n      dup6\n        /* \"--CODEGEN--\":1371:1393   */\n      add\n        /* \"--CODEGEN--\":1350:1403   */\n      tag_315\n      jump\t// in\n    tag_327:\n        /* \"--CODEGEN--\":1340:1403   */\n      swap2\n      pop\n        /* \"--CODEGEN--\":1312:1409   */\n      pop\n        /* \"--CODEGEN--\":1244:1419   */\n      swap3\n      swap2\n      pop\n      pop\n      jump\t// out\n        /* \"--CODEGEN--\":1426:1898   */\n    tag_25:\n      0x00\n      dup1\n        /* \"--CODEGEN--\":1557:1559   */\n      0x40\n        /* \"--CODEGEN--\":1545:1554   */\n      dup4\n        /* \"--CODEGEN--\":1536:1543   */\n      dup6\n        /* \"--CODEGEN--\":1532:1555   */\n      sub\n        /* \"--CODEGEN--\":1528:1560   */\n      slt\n        /* \"--CODEGEN--\":1525:1527   */\n      iszero\n      tag_329\n      jumpi\n        /* \"--CODEGEN--\":1573:1574   */\n      0x00\n        /* \"--CODEGEN--\":1570:1571   */\n      dup1\n        /* \"--CODEGEN--\":1563:1575   */\n      revert\n        /* \"--CODEGEN--\":1525:1527   */\n    tag_329:\n        /* \"--CODEGEN--\":1608:1609   */\n      0x00\n        /* \"--CODEGEN--\":1625:1678   */\n      tag_330\n        /* \"--CODEGEN--\":1670:1677   */\n      dup6\n        /* \"--CODEGEN--\":1661:1667   */\n      dup3\n        /* \"--CODEGEN--\":1650:1659   */\n      dup7\n        /* \"--CODEGEN--\":1646:1668   */\n      add\n        /* \"--CODEGEN--\":1625:1678   */\n      tag_315\n      jump\t// in\n    tag_330:\n        /* \"--CODEGEN--\":1615:1678   */\n      swap3\n      pop\n        /* \"--CODEGEN--\":1587:1684   */\n      pop\n        /* \"--CODEGEN--\":1743:1745   */\n      0x20\n        /* \"--CODEGEN--\":1732:1741   */\n      dup4\n        /* \"--CODEGEN--\":1728:1746   */\n      add\n        /* \"--CODEGEN--\":1715:1747   */\n      calldataload\n        /* \"--CODEGEN--\":1767:1785   */\n      0xffffffffffffffff\n        /* \"--CODEGEN--\":1759:1765   */\n      dup2\n        /* \"--CODEGEN--\":1756:1786   */\n      gt\n        /* \"--CODEGEN--\":1753:1755   */\n      iszero\n      tag_331\n      jumpi\n        /* \"--CODEGEN--\":1799:1800   */\n      0x00\n        /* \"--CODEGEN--\":1796:1797   */\n      dup1\n        /* \"--CODEGEN--\":1789:1801   */\n      revert\n        /* \"--CODEGEN--\":1753:1755   */\n    tag_331:\n        /* \"--CODEGEN--\":1819:1882   */\n      tag_332\n        /* \"--CODEGEN--\":1874:1881   */\n      dup6\n        /* \"--CODEGEN--\":1865:1871   */\n      dup3\n        /* \"--CODEGEN--\":1854:1863   */\n      dup7\n        /* \"--CODEGEN--\":1850:1872   */\n      add\n        /* \"--CODEGEN--\":1819:1882   */\n      tag_305\n      jump\t// in\n    tag_332:\n        /* \"--CODEGEN--\":1809:1882   */\n      swap2\n      pop\n        /* \"--CODEGEN--\":1694:1888   */\n      pop\n        /* \"--CODEGEN--\":1519:1898   */\n      swap3\n      pop\n      swap3\n      swap1\n      pop\n      jump\t// out\n        /* \"--CODEGEN--\":1905:2608   */\n    tag_53:\n      0x00\n      dup1\n      0x00\n        /* \"--CODEGEN--\":2063:2065   */\n      0x60\n        /* \"--CODEGEN--\":2051:2060   */\n      dup5\n        /* \"--CODEGEN--\":2042:2049   */\n      dup7\n        /* \"--CODEGEN--\":2038:2061   */\n      sub\n        /* \"--CODEGEN--\":2034:2066   */\n      slt\n        /* \"--CODEGEN--\":2031:2033   */\n      iszero\n      tag_334\n      jumpi\n        /* \"--CODEGEN--\":2079:2080   */\n      0x00\n        /* \"--CODEGEN--\":2076:2077   */\n      dup1\n        /* \"--CODEGEN--\":2069:2081   */\n      revert\n        /* \"--CODEGEN--\":2031:2033   */\n    tag_334:\n        /* \"--CODEGEN--\":2114:2115   */\n      0x00\n        /* \"--CODEGEN--\":2131:2184   */\n      tag_335\n        /* \"--CODEGEN--\":2176:2183   */\n      dup7\n        /* \"--CODEGEN--\":2167:2173   */\n      dup3\n        /* \"--CODEGEN--\":2156:2165   */\n      dup8\n        /* \"--CODEGEN--\":2152:2174   */\n      add\n        /* \"--CODEGEN--\":2131:2184   */\n      tag_315\n      jump\t// in\n    tag_335:\n        /* \"--CODEGEN--\":2121:2184   */\n      swap4\n      pop\n        /* \"--CODEGEN--\":2093:2190   */\n      pop\n        /* \"--CODEGEN--\":2249:2251   */\n      0x20\n        /* \"--CODEGEN--\":2238:2247   */\n      dup5\n        /* \"--CODEGEN--\":2234:2252   */\n      add\n        /* \"--CODEGEN--\":2221:2253   */\n      calldataload\n        /* \"--CODEGEN--\":2273:2291   */\n      0xffffffffffffffff\n        /* \"--CODEGEN--\":2265:2271   */\n      dup2\n        /* \"--CODEGEN--\":2262:2292   */\n      gt\n        /* \"--CODEGEN--\":2259:2261   */\n      iszero\n      tag_336\n      jumpi\n        /* \"--CODEGEN--\":2305:2306   */\n      0x00\n        /* \"--CODEGEN--\":2302:2303   */\n      dup1\n        /* \"--CODEGEN--\":2295:2307   */\n      revert\n        /* \"--CODEGEN--\":2259:2261   */\n    tag_336:\n        /* \"--CODEGEN--\":2325:2388   */\n      tag_337\n        /* \"--CODEGEN--\":2380:2387   */\n      dup7\n        /* \"--CODEGEN--\":2371:2377   */\n      dup3\n        /* \"--CODEGEN--\":2360:2369   */\n      dup8\n        /* \"--CODEGEN--\":2356:2378   */\n      add\n        /* \"--CODEGEN--\":2325:2388   */\n      tag_305\n      jump\t// in\n    tag_337:\n        /* \"--CODEGEN--\":2315:2388   */\n      swap3\n      pop\n        /* \"--CODEGEN--\":2200:2394   */\n      pop\n        /* \"--CODEGEN--\":2453:2455   */\n      0x40\n        /* \"--CODEGEN--\":2442:2451   */\n      dup5\n        /* \"--CODEGEN--\":2438:2456   */\n      add\n        /* \"--CODEGEN--\":2425:2457   */\n      calldataload\n        /* \"--CODEGEN--\":2477:2495   */\n      0xffffffffffffffff\n        /* \"--CODEGEN--\":2469:2475   */\n      dup2\n        /* \"--CODEGEN--\":2466:2496   */\n      gt\n        /* \"--CODEGEN--\":2463:2465   */\n      iszero\n      tag_338\n      jumpi\n        /* \"--CODEGEN--\":2509:2510   */\n      0x00\n        /* \"--CODEGEN--\":2506:2507   */\n      dup1\n        /* \"--CODEGEN--\":2499:2511   */\n      revert\n        /* \"--CODEGEN--\":2463:2465   */\n    tag_338:\n        /* \"--CODEGEN--\":2529:2592   */\n      tag_339\n        /* \"--CODEGEN--\":2584:2591   */\n      dup7\n        /* \"--CODEGEN--\":2575:2581   */\n      dup3\n        /* \"--CODEGEN--\":2564:2573   */\n      dup8\n        /* \"--CODEGEN--\":2560:2582   */\n      add\n        /* \"--CODEGEN--\":2529:2592   */\n      tag_305\n      jump\t// in\n    tag_339:\n        /* \"--CODEGEN--\":2519:2592   */\n      swap2\n      pop\n        /* \"--CODEGEN--\":2404:2598   */\n      pop\n        /* \"--CODEGEN--\":2025:2608   */\n      swap3\n      pop\n      swap3\n      pop\n      swap3\n      jump\t// out\n        /* \"--CODEGEN--\":2616:2809   */\n    tag_340:\n      0x00\n        /* \"--CODEGEN--\":2737:2803   */\n      tag_342\n        /* \"--CODEGEN--\":2799:2802   */\n      dup4\n        /* \"--CODEGEN--\":2791:2797   */\n      dup4\n        /* \"--CODEGEN--\":2737:2803   */\n      tag_343\n      jump\t// in\n    tag_342:\n        /* \"--CODEGEN--\":2723:2803   */\n      swap1\n      pop\n        /* \"--CODEGEN--\":2716:2809   */\n      swap3\n      swap2\n      pop\n      pop\n      jump\t// out\n        /* \"--CODEGEN--\":2818:2991   */\n    tag_344:\n      0x00\n        /* \"--CODEGEN--\":2905:2951   */\n      tag_346\n        /* \"--CODEGEN--\":2947:2950   */\n      dup4\n        /* \"--CODEGEN--\":2939:2945   */\n      dup4\n        /* \"--CODEGEN--\":2905:2951   */\n      tag_347\n      jump\t// in\n    tag_346:\n        /* \"--CODEGEN--\":2980:2984   */\n      0x20\n        /* \"--CODEGEN--\":2975:2978   */\n      dup4\n        /* \"--CODEGEN--\":2971:2985   */\n      add\n        /* \"--CODEGEN--\":2957:2985   */\n      swap1\n      pop\n        /* \"--CODEGEN--\":2898:2991   */\n      swap3\n      swap2\n      pop\n      pop\n      jump\t// out\n        /* \"--CODEGEN--\":3028:3956   */\n    tag_348:\n      0x00\n        /* \"--CODEGEN--\":3193:3257   */\n      tag_350\n        /* \"--CODEGEN--\":3251:3256   */\n      dup3\n        /* \"--CODEGEN--\":3193:3257   */\n      tag_351\n      jump\t// in\n    tag_350:\n        /* \"--CODEGEN--\":3270:3366   */\n      tag_352\n        /* \"--CODEGEN--\":3359:3365   */\n      dup2\n        /* \"--CODEGEN--\":3354:3357   */\n      dup6\n        /* \"--CODEGEN--\":3270:3366   */\n      tag_353\n      jump\t// in\n    tag_352:\n        /* \"--CODEGEN--\":3263:3366   */\n      swap4\n      pop\n        /* \"--CODEGEN--\":3389:3392   */\n      dup4\n        /* \"--CODEGEN--\":3431:3435   */\n      0x20\n        /* \"--CODEGEN--\":3423:3429   */\n      dup3\n        /* \"--CODEGEN--\":3419:3436   */\n      mul\n        /* \"--CODEGEN--\":3414:3417   */\n      dup6\n        /* \"--CODEGEN--\":3410:3437   */\n      add\n        /* \"--CODEGEN--\":3458:3524   */\n      tag_354\n        /* \"--CODEGEN--\":3518:3523   */\n      dup6\n        /* \"--CODEGEN--\":3458:3524   */\n      tag_355\n      jump\t// in\n    tag_354:\n        /* \"--CODEGEN--\":3544:3551   */\n      dup1\n        /* \"--CODEGEN--\":3572:3573   */\n      0x00\n        /* \"--CODEGEN--\":3557:3917   */\n    tag_356:\n        /* \"--CODEGEN--\":3582:3588   */\n      dup6\n        /* \"--CODEGEN--\":3579:3580   */\n      dup2\n        /* \"--CODEGEN--\":3576:3589   */\n      lt\n        /* \"--CODEGEN--\":3557:3917   */\n      iszero\n      tag_358\n      jumpi\n        /* \"--CODEGEN--\":3644:3653   */\n      dup5\n        /* \"--CODEGEN--\":3638:3642   */\n      dup5\n        /* \"--CODEGEN--\":3634:3654   */\n      sub\n        /* \"--CODEGEN--\":3629:3632   */\n      dup10\n        /* \"--CODEGEN--\":3622:3655   */\n      mstore\n        /* \"--CODEGEN--\":3689:3695   */\n      dup2\n        /* \"--CODEGEN--\":3683:3696   */\n      mload\n        /* \"--CODEGEN--\":3711:3795   */\n      tag_359\n        /* \"--CODEGEN--\":3790:3794   */\n      dup6\n        /* \"--CODEGEN--\":3775:3788   */\n      dup3\n        /* \"--CODEGEN--\":3711:3795   */\n      tag_340\n      jump\t// in\n    tag_359:\n        /* \"--CODEGEN--\":3703:3795   */\n      swap5\n      pop\n        /* \"--CODEGEN--\":3812:3882   */\n      tag_360\n        /* \"--CODEGEN--\":3875:3881   */\n      dup4\n        /* \"--CODEGEN--\":3812:3882   */\n      tag_361\n      jump\t// in\n    tag_360:\n        /* \"--CODEGEN--\":3802:3882   */\n      swap3\n      pop\n        /* \"--CODEGEN--\":3905:3909   */\n      0x20\n        /* \"--CODEGEN--\":3900:3903   */\n      dup11\n        /* \"--CODEGEN--\":3896:3910   */\n      add\n        /* \"--CODEGEN--\":3889:3910   */\n      swap10\n      pop\n        /* \"--CODEGEN--\":3614:3917   */\n      pop\n        /* \"--CODEGEN--\":3604:3605   */\n      0x01\n        /* \"--CODEGEN--\":3601:3602   */\n      dup2\n        /* \"--CODEGEN--\":3597:3606   */\n      add\n        /* \"--CODEGEN--\":3592:3606   */\n      swap1\n      pop\n        /* \"--CODEGEN--\":3557:3917   */\n      jump(tag_356)\n    tag_358:\n        /* \"--CODEGEN--\":3561:3575   */\n      pop\n        /* \"--CODEGEN--\":3930:3934   */\n      dup3\n        /* \"--CODEGEN--\":3923:3934   */\n      swap8\n      pop\n        /* \"--CODEGEN--\":3947:3950   */\n      dup8\n        /* \"--CODEGEN--\":3940:3950   */\n      swap6\n      pop\n        /* \"--CODEGEN--\":3172:3956   */\n      pop\n      pop\n      pop\n      pop\n      pop\n      swap3\n      swap2\n      pop\n      pop\n      jump\t// out\n        /* \"--CODEGEN--\":3995:4685   */\n    tag_362:\n      0x00\n        /* \"--CODEGEN--\":4140:4194   */\n      tag_364\n        /* \"--CODEGEN--\":4188:4193   */\n      dup3\n        /* \"--CODEGEN--\":4140:4194   */\n      tag_365\n      jump\t// in\n    tag_364:\n        /* \"--CODEGEN--\":4207:4293   */\n      tag_366\n        /* \"--CODEGEN--\":4286:4292   */\n      dup2\n        /* \"--CODEGEN--\":4281:4284   */\n      dup6\n        /* \"--CODEGEN--\":4207:4293   */\n      tag_367\n      jump\t// in\n    tag_366:\n        /* \"--CODEGEN--\":4200:4293   */\n      swap4\n      pop\n        /* \"--CODEGEN--\":4314:4370   */\n      tag_368\n        /* \"--CODEGEN--\":4364:4369   */\n      dup4\n        /* \"--CODEGEN--\":4314:4370   */\n      tag_369\n      jump\t// in\n    tag_368:\n        /* \"--CODEGEN--\":4390:4397   */\n      dup1\n        /* \"--CODEGEN--\":4418:4419   */\n      0x00\n        /* \"--CODEGEN--\":4403:4663   */\n    tag_370:\n        /* \"--CODEGEN--\":4428:4434   */\n      dup4\n        /* \"--CODEGEN--\":4425:4426   */\n      dup2\n        /* \"--CODEGEN--\":4422:4435   */\n      lt\n        /* \"--CODEGEN--\":4403:4663   */\n      iszero\n      tag_372\n      jumpi\n        /* \"--CODEGEN--\":4495:4501   */\n      dup2\n        /* \"--CODEGEN--\":4489:4502   */\n      mload\n        /* \"--CODEGEN--\":4516:4579   */\n      tag_373\n        /* \"--CODEGEN--\":4575:4578   */\n      dup9\n        /* \"--CODEGEN--\":4560:4573   */\n      dup3\n        /* \"--CODEGEN--\":4516:4579   */\n      tag_344\n      jump\t// in\n    tag_373:\n        /* \"--CODEGEN--\":4509:4579   */\n      swap8\n      pop\n        /* \"--CODEGEN--\":4596:4656   */\n      tag_374\n        /* \"--CODEGEN--\":4649:4655   */\n      dup4\n        /* \"--CODEGEN--\":4596:4656   */\n      tag_375\n      jump\t// in\n    tag_374:\n        /* \"--CODEGEN--\":4586:4656   */\n      swap3\n      pop\n        /* \"--CODEGEN--\":4460:4663   */\n      pop\n        /* \"--CODEGEN--\":4450:4451   */\n      0x01\n        /* \"--CODEGEN--\":4447:4448   */\n      dup2\n        /* \"--CODEGEN--\":4443:4452   */\n      add\n        /* \"--CODEGEN--\":4438:4452   */\n      swap1\n      pop\n        /* \"--CODEGEN--\":4403:4663   */\n      jump(tag_370)\n    tag_372:\n        /* \"--CODEGEN--\":4407:4421   */\n      pop\n        /* \"--CODEGEN--\":4676:4679   */\n      dup6\n        /* \"--CODEGEN--\":4669:4679   */\n      swap4\n      pop\n        /* \"--CODEGEN--\":4119:4685   */\n      pop\n      pop\n      pop\n      swap3\n      swap2\n      pop\n      pop\n      jump\t// out\n        /* \"--CODEGEN--\":4693:4797   */\n    tag_376:\n        /* \"--CODEGEN--\":4770:4791   */\n      tag_378\n        /* \"--CODEGEN--\":4785:4790   */\n      dup2\n        /* \"--CODEGEN--\":4770:4791   */\n      tag_379\n      jump\t// in\n    tag_378:\n        /* \"--CODEGEN--\":4765:4768   */\n      dup3\n        /* \"--CODEGEN--\":4758:4792   */\n      mstore\n        /* \"--CODEGEN--\":4752:4797   */\n      pop\n      pop\n      jump\t// out\n        /* \"--CODEGEN--\":4804:5131   */\n    tag_343:\n      0x00\n        /* \"--CODEGEN--\":4906:4945   */\n      tag_381\n        /* \"--CODEGEN--\":4939:4944   */\n      dup3\n        /* \"--CODEGEN--\":4906:4945   */\n      tag_382\n      jump\t// in\n    tag_381:\n        /* \"--CODEGEN--\":4957:5018   */\n      tag_383\n        /* \"--CODEGEN--\":5011:5017   */\n      dup2\n        /* \"--CODEGEN--\":5006:5009   */\n      dup6\n        /* \"--CODEGEN--\":4957:5018   */\n      tag_384\n      jump\t// in\n    tag_383:\n        /* \"--CODEGEN--\":4950:5018   */\n      swap4\n      pop\n        /* \"--CODEGEN--\":5023:5075   */\n      tag_385\n        /* \"--CODEGEN--\":5068:5074   */\n      dup2\n        /* \"--CODEGEN--\":5063:5066   */\n      dup6\n        /* \"--CODEGEN--\":5056:5060   */\n      0x20\n        /* \"--CODEGEN--\":5049:5054   */\n      dup7\n        /* \"--CODEGEN--\":5045:5061   */\n      add\n        /* \"--CODEGEN--\":5023:5075   */\n      tag_386\n      jump\t// in\n    tag_385:\n        /* \"--CODEGEN--\":5096:5125   */\n      tag_387\n        /* \"--CODEGEN--\":5118:5124   */\n      dup2\n        /* \"--CODEGEN--\":5096:5125   */\n      tag_388\n      jump\t// in\n    tag_387:\n        /* \"--CODEGEN--\":5091:5094   */\n      dup5\n        /* \"--CODEGEN--\":5087:5126   */\n      add\n        /* \"--CODEGEN--\":5080:5126   */\n      swap2\n      pop\n        /* \"--CODEGEN--\":4886:5131   */\n      pop\n      swap3\n      swap2\n      pop\n      pop\n      jump\t// out\n        /* \"--CODEGEN--\":5138:5498   */\n    tag_389:\n      0x00\n        /* \"--CODEGEN--\":5268:5307   */\n      tag_391\n        /* \"--CODEGEN--\":5301:5306   */\n      dup3\n        /* \"--CODEGEN--\":5268:5307   */\n      tag_382\n      jump\t// in\n    tag_391:\n        /* \"--CODEGEN--\":5319:5408   */\n      tag_392\n        /* \"--CODEGEN--\":5401:5407   */\n      dup2\n        /* \"--CODEGEN--\":5396:5399   */\n      dup6\n        /* \"--CODEGEN--\":5319:5408   */\n      tag_393\n      jump\t// in\n    tag_392:\n        /* \"--CODEGEN--\":5312:5408   */\n      swap4\n      pop\n        /* \"--CODEGEN--\":5413:5465   */\n      tag_394\n        /* \"--CODEGEN--\":5458:5464   */\n      dup2\n        /* \"--CODEGEN--\":5453:5456   */\n      dup6\n        /* \"--CODEGEN--\":5446:5450   */\n      0x20\n        /* \"--CODEGEN--\":5439:5444   */\n      dup7\n        /* \"--CODEGEN--\":5435:5451   */\n      add\n        /* \"--CODEGEN--\":5413:5465   */\n      tag_386\n      jump\t// in\n    tag_394:\n        /* \"--CODEGEN--\":5486:5492   */\n      dup1\n        /* \"--CODEGEN--\":5481:5484   */\n      dup5\n        /* \"--CODEGEN--\":5477:5493   */\n      add\n        /* \"--CODEGEN--\":5470:5493   */\n      swap2\n      pop\n        /* \"--CODEGEN--\":5248:5498   */\n      pop\n      swap3\n      swap2\n      pop\n      pop\n      jump\t// out\n        /* \"--CODEGEN--\":5530:6414   */\n    tag_395:\n      0x00\n        /* \"--CODEGEN--\":5667:5672   */\n      dup2\n        /* \"--CODEGEN--\":5661:5673   */\n      sload\n        /* \"--CODEGEN--\":5701:5702   */\n      0x01\n        /* \"--CODEGEN--\":5690:5699   */\n      dup2\n        /* \"--CODEGEN--\":5686:5703   */\n      and\n        /* \"--CODEGEN--\":5714:5715   */\n      0x00\n        /* \"--CODEGEN--\":5709:5977   */\n      dup2\n      eq\n      tag_398\n      jumpi\n        /* \"--CODEGEN--\":5988:5989   */\n      0x01\n        /* \"--CODEGEN--\":5983:6408   */\n      dup2\n      eq\n      tag_399\n      jumpi\n        /* \"--CODEGEN--\":5679:6408   */\n      jump(tag_397)\n        /* \"--CODEGEN--\":5709:5977   */\n    tag_398:\n        /* \"--CODEGEN--\":5787:5791   */\n      0x7f\n        /* \"--CODEGEN--\":5783:5784   */\n      0x02\n        /* \"--CODEGEN--\":5772:5781   */\n      dup4\n        /* \"--CODEGEN--\":5768:5785   */\n      div\n        /* \"--CODEGEN--\":5764:5792   */\n      and\n        /* \"--CODEGEN--\":5806:5895   */\n      tag_400\n        /* \"--CODEGEN--\":5888:5894   */\n      dup2\n        /* \"--CODEGEN--\":5883:5886   */\n      dup8\n        /* \"--CODEGEN--\":5806:5895   */\n      tag_393\n      jump\t// in\n    tag_400:\n        /* \"--CODEGEN--\":5799:5895   */\n      swap6\n      pop\n        /* \"--CODEGEN--\":5933:5937   */\n      0xff\n        /* \"--CODEGEN--\":5929:5938   */\n      not\n        /* \"--CODEGEN--\":5918:5927   */\n      dup4\n        /* \"--CODEGEN--\":5914:5939   */\n      and\n        /* \"--CODEGEN--\":5909:5912   */\n      dup7\n        /* \"--CODEGEN--\":5902:5940   */\n      mstore\n        /* \"--CODEGEN--\":5963:5969   */\n      dup1\n        /* \"--CODEGEN--\":5958:5961   */\n      dup7\n        /* \"--CODEGEN--\":5954:5970   */\n      add\n        /* \"--CODEGEN--\":5947:5970   */\n      swap4\n      pop\n        /* \"--CODEGEN--\":5716:5977   */\n      pop\n        /* \"--CODEGEN--\":5709:5977   */\n      jump(tag_397)\n        /* \"--CODEGEN--\":5983:6408   */\n    tag_399:\n        /* \"--CODEGEN--\":6052:6053   */\n      0x02\n        /* \"--CODEGEN--\":6041:6050   */\n      dup3\n        /* \"--CODEGEN--\":6037:6054   */\n      div\n        /* \"--CODEGEN--\":6068:6157   */\n      tag_401\n        /* \"--CODEGEN--\":6150:6156   */\n      dup2\n        /* \"--CODEGEN--\":6145:6148   */\n      dup8\n        /* \"--CODEGEN--\":6068:6157   */\n      tag_393\n      jump\t// in\n    tag_401:\n        /* \"--CODEGEN--\":6061:6157   */\n      swap6\n      pop\n        /* \"--CODEGEN--\":6179:6217   */\n      tag_402\n        /* \"--CODEGEN--\":6211:6216   */\n      dup6\n        /* \"--CODEGEN--\":6179:6217   */\n      tag_403\n      jump\t// in\n    tag_402:\n        /* \"--CODEGEN--\":6233:6234   */\n      0x00\n        /* \"--CODEGEN--\":6241:6371   */\n    tag_404:\n        /* \"--CODEGEN--\":6255:6261   */\n      dup3\n        /* \"--CODEGEN--\":6252:6253   */\n      dup2\n        /* \"--CODEGEN--\":6249:6262   */\n      lt\n        /* \"--CODEGEN--\":6241:6371   */\n      iszero\n      tag_406\n      jumpi\n        /* \"--CODEGEN--\":6320:6327   */\n      dup2\n        /* \"--CODEGEN--\":6314:6328   */\n      sload\n        /* \"--CODEGEN--\":6310:6311   */\n      dup2\n        /* \"--CODEGEN--\":6305:6308   */\n      dup10\n        /* \"--CODEGEN--\":6301:6312   */\n      add\n        /* \"--CODEGEN--\":6294:6329   */\n      mstore\n        /* \"--CODEGEN--\":6361:6362   */\n      0x01\n        /* \"--CODEGEN--\":6352:6359   */\n      dup3\n        /* \"--CODEGEN--\":6348:6363   */\n      add\n        /* \"--CODEGEN--\":6337:6363   */\n      swap2\n      pop\n        /* \"--CODEGEN--\":6277:6281   */\n      0x20\n        /* \"--CODEGEN--\":6274:6275   */\n      dup2\n        /* \"--CODEGEN--\":6270:6282   */\n      add\n        /* \"--CODEGEN--\":6265:6282   */\n      swap1\n      pop\n        /* \"--CODEGEN--\":6241:6371   */\n      jump(tag_404)\n    tag_406:\n        /* \"--CODEGEN--\":6394:6400   */\n      dup3\n        /* \"--CODEGEN--\":6389:6392   */\n      dup9\n        /* \"--CODEGEN--\":6385:6401   */\n      add\n        /* \"--CODEGEN--\":6378:6401   */\n      swap6\n      pop\n        /* \"--CODEGEN--\":5990:6408   */\n      pop\n      pop\n      pop\n        /* \"--CODEGEN--\":5679:6408   */\n    tag_397:\n      pop\n        /* \"--CODEGEN--\":5637:6414   */\n      pop\n      swap3\n      swap2\n      pop\n      pop\n      jump\t// out\n        /* \"--CODEGEN--\":6422:6525   */\n    tag_347:\n        /* \"--CODEGEN--\":6495:6519   */\n      tag_408\n        /* \"--CODEGEN--\":6513:6518   */\n      dup2\n        /* \"--CODEGEN--\":6495:6519   */\n      tag_409\n      jump\t// in\n    tag_408:\n        /* \"--CODEGEN--\":6490:6493   */\n      dup3\n        /* \"--CODEGEN--\":6483:6520   */\n      mstore\n        /* \"--CODEGEN--\":6477:6525   */\n      pop\n      pop\n      jump\t// out\n        /* \"--CODEGEN--\":6532:6645   */\n    tag_410:\n        /* \"--CODEGEN--\":6615:6639   */\n      tag_412\n        /* \"--CODEGEN--\":6633:6638   */\n      dup2\n        /* \"--CODEGEN--\":6615:6639   */\n      tag_409\n      jump\t// in\n    tag_412:\n        /* \"--CODEGEN--\":6610:6613   */\n      dup3\n        /* \"--CODEGEN--\":6603:6640   */\n      mstore\n        /* \"--CODEGEN--\":6597:6645   */\n      pop\n      pop\n      jump\t// out\n        /* \"--CODEGEN--\":6652:6927   */\n    tag_79:\n      0x00\n        /* \"--CODEGEN--\":6807:6902   */\n      tag_414\n        /* \"--CODEGEN--\":6898:6901   */\n      dup3\n        /* \"--CODEGEN--\":6889:6895   */\n      dup5\n        /* \"--CODEGEN--\":6807:6902   */\n      tag_389\n      jump\t// in\n    tag_414:\n        /* \"--CODEGEN--\":6800:6902   */\n      swap2\n      pop\n        /* \"--CODEGEN--\":6919:6922   */\n      dup2\n        /* \"--CODEGEN--\":6912:6922   */\n      swap1\n      pop\n        /* \"--CODEGEN--\":6788:6927   */\n      swap3\n      swap2\n      pop\n      pop\n      jump\t// out\n        /* \"--CODEGEN--\":6934:7203   */\n    tag_77:\n      0x00\n        /* \"--CODEGEN--\":7086:7178   */\n      tag_416\n        /* \"--CODEGEN--\":7174:7177   */\n      dup3\n        /* \"--CODEGEN--\":7165:7171   */\n      dup5\n        /* \"--CODEGEN--\":7086:7178   */\n      tag_395\n      jump\t// in\n    tag_416:\n        /* \"--CODEGEN--\":7079:7178   */\n      swap2\n      pop\n        /* \"--CODEGEN--\":7195:7198   */\n      dup2\n        /* \"--CODEGEN--\":7188:7198   */\n      swap1\n      pop\n        /* \"--CODEGEN--\":7067:7203   */\n      swap3\n      swap2\n      pop\n      pop\n      jump\t// out\n        /* \"--CODEGEN--\":7210:7620   */\n    tag_43:\n      0x00\n        /* \"--CODEGEN--\":7407:7409   */\n      0x20\n        /* \"--CODEGEN--\":7396:7405   */\n      dup3\n        /* \"--CODEGEN--\":7392:7410   */\n      add\n        /* \"--CODEGEN--\":7384:7410   */\n      swap1\n      pop\n        /* \"--CODEGEN--\":7457:7466   */\n      dup2\n        /* \"--CODEGEN--\":7451:7455   */\n      dup2\n        /* \"--CODEGEN--\":7447:7467   */\n      sub\n        /* \"--CODEGEN--\":7443:7444   */\n      0x00\n        /* \"--CODEGEN--\":7432:7441   */\n      dup4\n        /* \"--CODEGEN--\":7428:7445   */\n      add\n        /* \"--CODEGEN--\":7421:7468   */\n      mstore\n        /* \"--CODEGEN--\":7482:7610   */\n      tag_418\n        /* \"--CODEGEN--\":7605:7609   */\n      dup2\n        /* \"--CODEGEN--\":7596:7602   */\n      dup5\n        /* \"--CODEGEN--\":7482:7610   */\n      tag_348\n      jump\t// in\n    tag_418:\n        /* \"--CODEGEN--\":7474:7610   */\n      swap1\n      pop\n        /* \"--CODEGEN--\":7378:7620   */\n      swap3\n      swap2\n      pop\n      pop\n      jump\t// out\n        /* \"--CODEGEN--\":7627:8595   */\n    tag_37:\n      0x00\n        /* \"--CODEGEN--\":8000:8002   */\n      0x60\n        /* \"--CODEGEN--\":7989:7998   */\n      dup3\n        /* \"--CODEGEN--\":7985:8003   */\n      add\n        /* \"--CODEGEN--\":7977:8003   */\n      swap1\n      pop\n        /* \"--CODEGEN--\":8050:8059   */\n      dup2\n        /* \"--CODEGEN--\":8044:8048   */\n      dup2\n        /* \"--CODEGEN--\":8040:8060   */\n      sub\n        /* \"--CODEGEN--\":8036:8037   */\n      0x00\n        /* \"--CODEGEN--\":8025:8034   */\n      dup4\n        /* \"--CODEGEN--\":8021:8038   */\n      add\n        /* \"--CODEGEN--\":8014:8061   */\n      mstore\n        /* \"--CODEGEN--\":8075:8183   */\n      tag_420\n        /* \"--CODEGEN--\":8178:8182   */\n      dup2\n        /* \"--CODEGEN--\":8169:8175   */\n      dup7\n        /* \"--CODEGEN--\":8075:8183   */\n      tag_362\n      jump\t// in\n    tag_420:\n        /* \"--CODEGEN--\":8067:8183   */\n      swap1\n      pop\n        /* \"--CODEGEN--\":8231:8240   */\n      dup2\n        /* \"--CODEGEN--\":8225:8229   */\n      dup2\n        /* \"--CODEGEN--\":8221:8241   */\n      sub\n        /* \"--CODEGEN--\":8216:8218   */\n      0x20\n        /* \"--CODEGEN--\":8205:8214   */\n      dup4\n        /* \"--CODEGEN--\":8201:8219   */\n      add\n        /* \"--CODEGEN--\":8194:8242   */\n      mstore\n        /* \"--CODEGEN--\":8256:8384   */\n      tag_421\n        /* \"--CODEGEN--\":8379:8383   */\n      dup2\n        /* \"--CODEGEN--\":8370:8376   */\n      dup6\n        /* \"--CODEGEN--\":8256:8384   */\n      tag_348\n      jump\t// in\n    tag_421:\n        /* \"--CODEGEN--\":8248:8384   */\n      swap1\n      pop\n        /* \"--CODEGEN--\":8432:8441   */\n      dup2\n        /* \"--CODEGEN--\":8426:8430   */\n      dup2\n        /* \"--CODEGEN--\":8422:8442   */\n      sub\n        /* \"--CODEGEN--\":8417:8419   */\n      0x40\n        /* \"--CODEGEN--\":8406:8415   */\n      dup4\n        /* \"--CODEGEN--\":8402:8420   */\n      add\n        /* \"--CODEGEN--\":8395:8443   */\n      mstore\n        /* \"--CODEGEN--\":8457:8585   */\n      tag_422\n        /* \"--CODEGEN--\":8580:8584   */\n      dup2\n        /* \"--CODEGEN--\":8571:8577   */\n      dup5\n        /* \"--CODEGEN--\":8457:8585   */\n      tag_348\n      jump\t// in\n    tag_422:\n        /* \"--CODEGEN--\":8449:8585   */\n      swap1\n      pop\n        /* \"--CODEGEN--\":7971:8595   */\n      swap5\n      swap4\n      pop\n      pop\n      pop\n      pop\n      jump\t// out\n        /* \"--CODEGEN--\":8602:8812   */\n    tag_18:\n      0x00\n        /* \"--CODEGEN--\":8723:8725   */\n      0x20\n        /* \"--CODEGEN--\":8712:8721   */\n      dup3\n        /* \"--CODEGEN--\":8708:8726   */\n      add\n        /* \"--CODEGEN--\":8700:8726   */\n      swap1\n      pop\n        /* \"--CODEGEN--\":8737:8802   */\n      tag_424\n        /* \"--CODEGEN--\":8799:8800   */\n      0x00\n        /* \"--CODEGEN--\":8788:8797   */\n      dup4\n        /* \"--CODEGEN--\":8784:8801   */\n      add\n        /* \"--CODEGEN--\":8775:8781   */\n      dup5\n        /* \"--CODEGEN--\":8737:8802   */\n      tag_376\n      jump\t// in\n    tag_424:\n        /* \"--CODEGEN--\":8694:8812   */\n      swap3\n      swap2\n      pop\n      pop\n      jump\t// out\n        /* \"--CODEGEN--\":8819:9041   */\n    tag_22:\n      0x00\n        /* \"--CODEGEN--\":8946:8948   */\n      0x20\n        /* \"--CODEGEN--\":8935:8944   */\n      dup3\n        /* \"--CODEGEN--\":8931:8949   */\n      add\n        /* \"--CODEGEN--\":8923:8949   */\n      swap1\n      pop\n        /* \"--CODEGEN--\":8960:9031   */\n      tag_426\n        /* \"--CODEGEN--\":9028:9029   */\n      0x00\n        /* \"--CODEGEN--\":9017:9026   */\n      dup4\n        /* \"--CODEGEN--\":9013:9030   */\n      add\n        /* \"--CODEGEN--\":9004:9010   */\n      dup5\n        /* \"--CODEGEN--\":8960:9031   */\n      tag_410\n      jump\t// in\n    tag_426:\n        /* \"--CODEGEN--\":8917:9041   */\n      swap3\n      swap2\n      pop\n      pop\n      jump\t// out\n        /* \"--CODEGEN--\":9048:9304   */\n    tag_311:\n      0x00\n        /* \"--CODEGEN--\":9110:9112   */\n      0x40\n        /* \"--CODEGEN--\":9104:9113   */\n      mload\n        /* \"--CODEGEN--\":9094:9113   */\n      swap1\n      pop\n        /* \"--CODEGEN--\":9148:9152   */\n      dup2\n        /* \"--CODEGEN--\":9140:9146   */\n      dup2\n        /* \"--CODEGEN--\":9136:9153   */\n      add\n        /* \"--CODEGEN--\":9247:9253   */\n      dup2\n        /* \"--CODEGEN--\":9235:9245   */\n      dup2\n        /* \"--CODEGEN--\":9232:9254   */\n      lt\n        /* \"--CODEGEN--\":9211:9229   */\n      0xffffffffffffffff\n        /* \"--CODEGEN--\":9199:9209   */\n      dup3\n        /* \"--CODEGEN--\":9196:9230   */\n      gt\n        /* \"--CODEGEN--\":9193:9255   */\n      or\n        /* \"--CODEGEN--\":9190:9192   */\n      iszero\n      tag_428\n      jumpi\n        /* \"--CODEGEN--\":9268:9269   */\n      0x00\n        /* \"--CODEGEN--\":9265:9266   */\n      dup1\n        /* \"--CODEGEN--\":9258:9270   */\n      revert\n        /* \"--CODEGEN--\":9190:9192   */\n    tag_428:\n        /* \"--CODEGEN--\":9288:9298   */\n      dup1\n        /* \"--CODEGEN--\":9284:9286   */\n      0x40\n        /* \"--CODEGEN--\":9277:9299   */\n      mstore\n        /* \"--CODEGEN--\":9088:9304   */\n      pop\n      swap2\n      swap1\n      pop\n      jump\t// out\n        /* \"--CODEGEN--\":9311:9633   */\n    tag_310:\n      0x00\n        /* \"--CODEGEN--\":9455:9473   */\n      0xffffffffffffffff\n        /* \"--CODEGEN--\":9447:9453   */\n      dup3\n        /* \"--CODEGEN--\":9444:9474   */\n      gt\n        /* \"--CODEGEN--\":9441:9443   */\n      iszero\n      tag_430\n      jumpi\n        /* \"--CODEGEN--\":9487:9488   */\n      0x00\n        /* \"--CODEGEN--\":9484:9485   */\n      dup1\n        /* \"--CODEGEN--\":9477:9489   */\n      revert\n        /* \"--CODEGEN--\":9441:9443   */\n    tag_430:\n        /* \"--CODEGEN--\":9554:9558   */\n      0x1f\n        /* \"--CODEGEN--\":9550:9559   */\n      not\n        /* \"--CODEGEN--\":9543:9547   */\n      0x1f\n        /* \"--CODEGEN--\":9535:9541   */\n      dup4\n        /* \"--CODEGEN--\":9531:9548   */\n      add\n        /* \"--CODEGEN--\":9527:9560   */\n      and\n        /* \"--CODEGEN--\":9519:9560   */\n      swap1\n      pop\n        /* \"--CODEGEN--\":9618:9622   */\n      0x20\n        /* \"--CODEGEN--\":9612:9616   */\n      dup2\n        /* \"--CODEGEN--\":9608:9623   */\n      add\n        /* \"--CODEGEN--\":9600:9623   */\n      swap1\n      pop\n        /* \"--CODEGEN--\":9378:9633   */\n      swap2\n      swap1\n      pop\n      jump\t// out\n        /* \"--CODEGEN--\":9640:9801   */\n    tag_355:\n      0x00\n        /* \"--CODEGEN--\":9736:9739   */\n      dup2\n        /* \"--CODEGEN--\":9728:9739   */\n      swap1\n      pop\n        /* \"--CODEGEN--\":9774:9778   */\n      0x20\n        /* \"--CODEGEN--\":9769:9772   */\n      dup3\n        /* \"--CODEGEN--\":9765:9779   */\n      add\n        /* \"--CODEGEN--\":9757:9779   */\n      swap1\n      pop\n        /* \"--CODEGEN--\":9722:9801   */\n      swap2\n      swap1\n      pop\n      jump\t// out\n        /* \"--CODEGEN--\":9808:9959   */\n    tag_369:\n      0x00\n        /* \"--CODEGEN--\":9894:9897   */\n      dup2\n        /* \"--CODEGEN--\":9886:9897   */\n      swap1\n      pop\n        /* \"--CODEGEN--\":9932:9936   */\n      0x20\n        /* \"--CODEGEN--\":9927:9930   */\n      dup3\n        /* \"--CODEGEN--\":9923:9937   */\n      add\n        /* \"--CODEGEN--\":9915:9937   */\n      swap1\n      pop\n        /* \"--CODEGEN--\":9880:9959   */\n      swap2\n      swap1\n      pop\n      jump\t// out\n        /* \"--CODEGEN--\":9966:10124   */\n    tag_403:\n      0x00\n        /* \"--CODEGEN--\":10034:10037   */\n      dup2\n        /* \"--CODEGEN--\":10026:10037   */\n      swap1\n      pop\n        /* \"--CODEGEN--\":10071:10074   */\n      dup2\n        /* \"--CODEGEN--\":10068:10069   */\n      0x00\n        /* \"--CODEGEN--\":10061:10075   */\n      mstore\n        /* \"--CODEGEN--\":10103:10107   */\n      0x20\n        /* \"--CODEGEN--\":10100:10101   */\n      0x00\n        /* \"--CODEGEN--\":10090:10108   */\n      keccak256\n        /* \"--CODEGEN--\":10082:10108   */\n      swap1\n      pop\n        /* \"--CODEGEN--\":10020:10124   */\n      swap2\n      swap1\n      pop\n      jump\t// out\n        /* \"--CODEGEN--\":10131:10278   */\n    tag_351:\n      0x00\n        /* \"--CODEGEN--\":10250:10255   */\n      dup2\n        /* \"--CODEGEN--\":10244:10256   */\n      mload\n        /* \"--CODEGEN--\":10234:10256   */\n      swap1\n      pop\n        /* \"--CODEGEN--\":10215:10278   */\n      swap2\n      swap1\n      pop\n      jump\t// out\n        /* \"--CODEGEN--\":10285:10422   */\n    tag_365:\n      0x00\n        /* \"--CODEGEN--\":10394:10399   */\n      dup2\n        /* \"--CODEGEN--\":10388:10400   */\n      mload\n        /* \"--CODEGEN--\":10378:10400   */\n      swap1\n      pop\n        /* \"--CODEGEN--\":10359:10422   */\n      swap2\n      swap1\n      pop\n      jump\t// out\n        /* \"--CODEGEN--\":10429:10551   */\n    tag_382:\n      0x00\n        /* \"--CODEGEN--\":10523:10528   */\n      dup2\n        /* \"--CODEGEN--\":10517:10529   */\n      mload\n        /* \"--CODEGEN--\":10507:10529   */\n      swap1\n      pop\n        /* \"--CODEGEN--\":10488:10551   */\n      swap2\n      swap1\n      pop\n      jump\t// out\n        /* \"--CODEGEN--\":10558:10676   */\n    tag_361:\n      0x00\n        /* \"--CODEGEN--\":10666:10670   */\n      0x20\n        /* \"--CODEGEN--\":10661:10664   */\n      dup3\n        /* \"--CODEGEN--\":10657:10671   */\n      add\n        /* \"--CODEGEN--\":10649:10671   */\n      swap1\n      pop\n        /* \"--CODEGEN--\":10643:10676   */\n      swap2\n      swap1\n      pop\n      jump\t// out\n        /* \"--CODEGEN--\":10683:10791   */\n    tag_375:\n      0x00\n        /* \"--CODEGEN--\":10781:10785   */\n      0x20\n        /* \"--CODEGEN--\":10776:10779   */\n      dup3\n        /* \"--CODEGEN--\":10772:10786   */\n      add\n        /* \"--CODEGEN--\":10764:10786   */\n      swap1\n      pop\n        /* \"--CODEGEN--\":10758:10791   */\n      swap2\n      swap1\n      pop\n      jump\t// out\n        /* \"--CODEGEN--\":10799:10987   */\n    tag_353:\n      0x00\n        /* \"--CODEGEN--\":10939:10945   */\n      dup3\n        /* \"--CODEGEN--\":10934:10937   */\n      dup3\n        /* \"--CODEGEN--\":10927:10946   */\n      mstore\n        /* \"--CODEGEN--\":10976:10980   */\n      0x20\n        /* \"--CODEGEN--\":10971:10974   */\n      dup3\n        /* \"--CODEGEN--\":10967:10981   */\n      add\n        /* \"--CODEGEN--\":10952:10981   */\n      swap1\n      pop\n        /* \"--CODEGEN--\":10920:10987   */\n      swap3\n      swap2\n      pop\n      pop\n      jump\t// out\n        /* \"--CODEGEN--\":10996:11174   */\n    tag_367:\n      0x00\n        /* \"--CODEGEN--\":11126:11132   */\n      dup3\n        /* \"--CODEGEN--\":11121:11124   */\n      dup3\n        /* \"--CODEGEN--\":11114:11133   */\n      mstore\n        /* \"--CODEGEN--\":11163:11167   */\n      0x20\n        /* \"--CODEGEN--\":11158:11161   */\n      dup3\n        /* \"--CODEGEN--\":11154:11168   */\n      add\n        /* \"--CODEGEN--\":11139:11168   */\n      swap1\n      pop\n        /* \"--CODEGEN--\":11107:11174   */\n      swap3\n      swap2\n      pop\n      pop\n      jump\t// out\n        /* \"--CODEGEN--\":11183:11336   */\n    tag_384:\n      0x00\n        /* \"--CODEGEN--\":11288:11294   */\n      dup3\n        /* \"--CODEGEN--\":11283:11286   */\n      dup3\n        /* \"--CODEGEN--\":11276:11295   */\n      mstore\n        /* \"--CODEGEN--\":11325:11329   */\n      0x20\n        /* \"--CODEGEN--\":11320:11323   */\n      dup3\n        /* \"--CODEGEN--\":11316:11330   */\n      add\n        /* \"--CODEGEN--\":11301:11330   */\n      swap1\n      pop\n        /* \"--CODEGEN--\":11269:11336   */\n      swap3\n      swap2\n      pop\n      pop\n      jump\t// out\n        /* \"--CODEGEN--\":11345:11490   */\n    tag_393:\n      0x00\n        /* \"--CODEGEN--\":11481:11484   */\n      dup2\n        /* \"--CODEGEN--\":11466:11484   */\n      swap1\n      pop\n        /* \"--CODEGEN--\":11459:11490   */\n      swap3\n      swap2\n      pop\n      pop\n      jump\t// out\n        /* \"--CODEGEN--\":11498:11583   */\n    tag_379:\n      0x00\n        /* \"--CODEGEN--\":11571:11576   */\n      dup2\n        /* \"--CODEGEN--\":11564:11577   */\n      iszero\n        /* \"--CODEGEN--\":11557:11578   */\n      iszero\n        /* \"--CODEGEN--\":11546:11578   */\n      swap1\n      pop\n        /* \"--CODEGEN--\":11540:11583   */\n      swap2\n      swap1\n      pop\n      jump\t// out\n        /* \"--CODEGEN--\":11590:11662   */\n    tag_409:\n      0x00\n        /* \"--CODEGEN--\":11652:11657   */\n      dup2\n        /* \"--CODEGEN--\":11641:11657   */\n      swap1\n      pop\n        /* \"--CODEGEN--\":11635:11662   */\n      swap2\n      swap1\n      pop\n      jump\t// out\n        /* \"--CODEGEN--\":11670:11815   */\n    tag_314:\n        /* \"--CODEGEN--\":11751:11757   */\n      dup3\n        /* \"--CODEGEN--\":11746:11749   */\n      dup2\n        /* \"--CODEGEN--\":11741:11744   */\n      dup4\n        /* \"--CODEGEN--\":11728:11758   */\n      calldatacopy\n        /* \"--CODEGEN--\":11807:11808   */\n      0x00\n        /* \"--CODEGEN--\":11798:11804   */\n      dup4\n        /* \"--CODEGEN--\":11793:11796   */\n      dup4\n        /* \"--CODEGEN--\":11789:11805   */\n      add\n        /* \"--CODEGEN--\":11782:11809   */\n      mstore\n        /* \"--CODEGEN--\":11721:11815   */\n      pop\n      pop\n      pop\n      jump\t// out\n        /* \"--CODEGEN--\":11824:12092   */\n    tag_386:\n        /* \"--CODEGEN--\":11889:11890   */\n      0x00\n        /* \"--CODEGEN--\":11896:11997   */\n    tag_447:\n        /* \"--CODEGEN--\":11910:11916   */\n      dup4\n        /* \"--CODEGEN--\":11907:11908   */\n      dup2\n        /* \"--CODEGEN--\":11904:11917   */\n      lt\n        /* \"--CODEGEN--\":11896:11997   */\n      iszero\n      tag_449\n      jumpi\n        /* \"--CODEGEN--\":11986:11987   */\n      dup1\n        /* \"--CODEGEN--\":11981:11984   */\n      dup3\n        /* \"--CODEGEN--\":11977:11988   */\n      add\n        /* \"--CODEGEN--\":11971:11989   */\n      mload\n        /* \"--CODEGEN--\":11967:11968   */\n      dup2\n        /* \"--CODEGEN--\":11962:11965   */\n      dup5\n        /* \"--CODEGEN--\":11958:11969   */\n      add\n        /* \"--CODEGEN--\":11951:11990   */\n      mstore\n        /* \"--CODEGEN--\":11932:11934   */\n      0x20\n        /* \"--CODEGEN--\":11929:11930   */\n      dup2\n        /* \"--CODEGEN--\":11925:11935   */\n      add\n        /* \"--CODEGEN--\":11920:11935   */\n      swap1\n      pop\n        /* \"--CODEGEN--\":11896:11997   */\n      jump(tag_447)\n    tag_449:\n        /* \"--CODEGEN--\":12012:12018   */\n      dup4\n        /* \"--CODEGEN--\":12009:12010   */\n      dup2\n        /* \"--CODEGEN--\":12006:12019   */\n      gt\n        /* \"--CODEGEN--\":12003:12005   */\n      iszero\n      tag_450\n      jumpi\n        /* \"--CODEGEN--\":12077:12078   */\n      0x00\n        /* \"--CODEGEN--\":12068:12074   */\n      dup5\n        /* \"--CODEGEN--\":12063:12066   */\n      dup5\n        /* \"--CODEGEN--\":12059:12075   */\n      add\n        /* \"--CODEGEN--\":12052:12079   */\n      mstore\n        /* \"--CODEGEN--\":12003:12005   */\n    tag_450:\n        /* \"--CODEGEN--\":11873:12092   */\n      pop\n      pop\n      pop\n      pop\n      jump\t// out\n        /* \"--CODEGEN--\":12100:12197   */\n    tag_388:\n      0x00\n        /* \"--CODEGEN--\":12188:12190   */\n      0x1f\n        /* \"--CODEGEN--\":12184:12191   */\n      not\n        /* \"--CODEGEN--\":12179:12181   */\n      0x1f\n        /* \"--CODEGEN--\":12172:12177   */\n      dup4\n        /* \"--CODEGEN--\":12168:12182   */\n      add\n        /* \"--CODEGEN--\":12164:12192   */\n      and\n        /* \"--CODEGEN--\":12154:12192   */\n      swap1\n      pop\n        /* \"--CODEGEN--\":12148:12197   */\n      swap2\n      swap1\n      pop\n      jump\t// out\n        /* \"--CODEGEN--\":12205:12322   */\n    tag_318:\n        /* \"--CODEGEN--\":12274:12298   */\n      tag_453\n        /* \"--CODEGEN--\":12292:12297   */\n      dup2\n        /* \"--CODEGEN--\":12274:12298   */\n      tag_409\n      jump\t// in\n    tag_453:\n        /* \"--CODEGEN--\":12267:12272   */\n      dup2\n        /* \"--CODEGEN--\":12264:12299   */\n      eq\n        /* \"--CODEGEN--\":12254:12256   */\n      tag_454\n      jumpi\n        /* \"--CODEGEN--\":12313:12314   */\n      0x00\n        /* \"--CODEGEN--\":12310:12311   */\n      dup1\n        /* \"--CODEGEN--\":12303:12315   */\n      revert\n        /* \"--CODEGEN--\":12254:12256   */\n    tag_454:\n        /* \"--CODEGEN--\":12248:12322   */\n      pop\n      jump\t// out\n\n    auxdata: 0xa2646970667358221220430a338d386fe9238757744a6a82ce24e75e1f34c1aa84d6aef742b01ecf5ba064736f6c634300060c0033\n}\n",
    "bytecode": {
      "linkReferences": {},
      "object": "608060405234801561001057600080fd5b50336000806101000a81548173ffffffffffffffffffffffffffffffffffffffff021916908373ffffffffffffffffffffffffffffffffffffffff16021790555060006002819055506000600381905550611d0e806100706000396000f3fe608060405234801561001057600080fd5b50600436106100a95760003560e01c80636db80995116100715780636db8099514610152578063716588961461017257806398173ff4146101a2578063a9cb1a36146101be578063c4ae2f26146101da578063e8e5339a1461020a576100a9565b80630d3a6aee146100ae57806330a66294146100cc5780633276807a146100ea57806342bb20e11461010657806352bfd15c14610122575b600080fd5b6100b6610226565b6040516100c39190611b1b565b60405180910390f35b6100d4610239565b6040516100e19190611b36565b60405180910390f35b61010460048036038101906100ff9190611788565b61029c565b005b610120600480360381019061011b9190611788565b61041a565b005b61013c60048036038101906101379190611788565b61066a565b6040516101499190611b1b565b60405180910390f35b61015a6107e0565b60405161016993929190611acf565b60405180910390f35b61018c6004803603810190610187919061175f565b610b02565b6040516101999190611aad565b60405180910390f35b6101bc60048036038101906101b791906116f3565b610cf7565b005b6101d860048036038101906101d3919061175f565b610e80565b005b6101f460048036038101906101ef91906117dc565b61105a565b6040516102019190611b1b565b60405180910390f35b610224600480360381019061021f91906117dc565b6111f7565b005b600460009054906101000a900460ff1681565b60008060009054906101000a900473ffffffffffffffffffffffffffffffffffffffff1673ffffffffffffffffffffffffffffffffffffffff163373ffffffffffffffffffffffffffffffffffffffff161461029457600080fd5b600254905090565b60008054906101000a900473ffffffffffffffffffffffffffffffffffffffff1673ffffffffffffffffffffffffffffffffffffffff163373ffffffffffffffffffffffffffffffffffffffff16146102f457600080fd5b6000805b6001805490508110156104145760006001828154811061031457fe5b9060005260206000209060040201905080600001548514156104065760005b81600301805490508110156103c05781600301818154811061035157fe5b9060005260206000200160405160200161036b9190611a96565b60405160208183030381529060405280519060200120856040516020016103929190611a7f565b6040516020818303038152906040528051906020012014156103b357600193505b8080600101915050610333565b508261040557806003018490806001815401808255809150506001900390600052602060002001600090919091909150908051906020019061040392919061135a565b505b5b5080806001019150506102f8565b50505050565b60008054906101000a900473ffffffffffffffffffffffffffffffffffffffff1673ffffffffffffffffffffffffffffffffffffffff163373ffffffffffffffffffffffffffffffffffffffff161461047257600080fd5b60005b600180549050811015610665576001818154811061048f57fe5b9060005260206000209060040201600001548314156106585760005b600182815481106104b857fe5b90600052602060002090600402016003018054905081101561065657600182815481106104e157fe5b906000526020600020906004020160030181815481106104fd57fe5b906000526020600020016040516020016105179190611a96565b604051602081830303815290604052805190602001208360405160200161053e9190611a7f565b604051602081830303815290604052805190602001201415610649576001828154811061056757fe5b9060005260206000209060040201600301600180848154811061058657fe5b90600052602060002090600402016003018054905003815481106105a657fe5b90600052602060002001600183815481106105bd57fe5b906000526020600020906004020160030182815481106105d957fe5b9060005260206000200190805460018160011615610100020316600290046106029291906113da565b506001828154811061061057fe5b906000526020600020906004020160030180548061062a57fe5b6001900381819060005260206000200160006106469190611461565b90555b80806001019150506104ab565b505b8080600101915050610475565b505050565b60008060009054906101000a900473ffffffffffffffffffffffffffffffffffffffff1673ffffffffffffffffffffffffffffffffffffffff163373ffffffffffffffffffffffffffffffffffffffff16146106c557600080fd5b60005b6001805490508110156107d457600181815481106106e257fe5b9060005260206000209060040201600001548414156107c75760005b6001828154811061070b57fe5b9060005260206000209060040201600301805490508110156107c5576001828154811061073457fe5b9060005260206000209060040201600301818154811061075057fe5b9060005260206000200160405160200161076a9190611a96565b60405160208183030381529060405280519060200120846040516020016107919190611a7f565b6040516020818303038152906040528051906020012014156107b8576001925050506107da565b80806001019150506106fe565b505b80806001019150506106c8565b50600090505b92915050565b606080606060008054906101000a900473ffffffffffffffffffffffffffffffffffffffff1673ffffffffffffffffffffffffffffffffffffffff163373ffffffffffffffffffffffffffffffffffffffff161461083d57600080fd5b606060025467ffffffffffffffff8111801561085857600080fd5b506040519080825280602002602001820160405280156108875781602001602082028036833780820191505090505b509050606060025467ffffffffffffffff811180156108a557600080fd5b506040519080825280602002602001820160405280156108d957816020015b60608152602001906001900390816108c45790505b509050606060025467ffffffffffffffff811180156108f757600080fd5b5060405190808252806020026020018201604052801561092b57816020015b60608152602001906001900390816109165790505b50905060005b600180549050811015610af05760006001828154811061094d57fe5b90600052602060002090600402019050806000015485838151811061096e57fe5b602002602001018181525050806001018054600181600116156101000203166002900480601f016020809104026020016040519081016040528092919081815260200182805460018160011615610100020316600290048015610a125780601f106109e757610100808354040283529160200191610a12565b820191906000526020600020905b8154815290600101906020018083116109f557829003601f168201915b5050505050848381518110610a2357fe5b6020026020010181905250806002018054600181600116156101000203166002900480601f016020809104026020016040519081016040528092919081815260200182805460018160011615610100020316600290048015610ac65780601f10610a9b57610100808354040283529160200191610ac6565b820191906000526020600020905b815481529060010190602001808311610aa957829003601f168201915b5050505050838381518110610ad757fe5b6020026020010181905250508080600101915050610931565b50828282955095509550505050909192565b606060008054906101000a900473ffffffffffffffffffffffffffffffffffffffff1673ffffffffffffffffffffffffffffffffffffffff163373ffffffffffffffffffffffffffffffffffffffff1614610b5c57600080fd5b60005b600180549050811015610cf057600060018281548110610b7b57fe5b906000526020600020906004020190508060000154841415610ce2576060816003018054905067ffffffffffffffff81118015610bb757600080fd5b50604051908082528060200260200182016040528015610beb57816020015b6060815260200190600190039081610bd65790505b50905060005b8260030180549050811015610cd657826003018181548110610c0f57fe5b906000526020600020018054600181600116156101000203166002900480601f016020809104026020016040519081016040528092919081815260200182805460018160011615610100020316600290048015610cad5780601f10610c8257610100808354040283529160200191610cad565b820191906000526020600020905b815481529060010190602001808311610c9057829003601f168201915b5050505050828281518110610cbe57fe5b60200260200101819052508080600101915050610bf1565b50809350505050610cf2565b508080600101915050610b5f565b505b919050565b60008054906101000a900473ffffffffffffffffffffffffffffffffffffffff1673ffffffffffffffffffffffffffffffffffffffff163373ffffffffffffffffffffffffffffffffffffffff1614610d4f57600080fd5b610d576114a9565b60405180608001604052806003548152602001848152602001838152602001600067ffffffffffffffff81118015610d8e57600080fd5b50604051908082528060200260200182016040528015610dc257816020015b6060815260200190600190039081610dad5790505b5081525090506002600081548092919060010191905055506003600081548092919060010191905055506001819080600181540180825580915050600190039060005260206000209060040201600090919091909150600082015181600001556020820151816001019080519060200190610e3e92919061135a565b506040820151816002019080519060200190610e5b92919061135a565b506060820151816003019080519060200190610e789291906114d1565b505050505050565b60008054906101000a900473ffffffffffffffffffffffffffffffffffffffff1673ffffffffffffffffffffffffffffffffffffffff163373ffffffffffffffffffffffffffffffffffffffff1614610ed857600080fd5b60005b6001805490508110156110565760018181548110610ef557fe5b906000526020600020906004020160000154821415611049576001600460006101000a81548160ff02191690831515021790555060018080805490500381548110610f3c57fe5b906000526020600020906004020160018281548110610f5757fe5b90600052602060002090600402016000820154816000015560018201816001019080546001816001161561010002031660029004610f96929190611531565b5060028201816002019080546001816001161561010002031660029004610fbe929190611531565b506003820181600301908054610fd59291906115b8565b509050506001805480610fe457fe5b60019003818190600052602060002090600402016000808201600090556001820160006110119190611461565b6002820160006110219190611461565b6003820160006110319190611628565b50509055600260008154809291906001900391905055505b8080600101915050610edb565b5050565b60008060009054906101000a900473ffffffffffffffffffffffffffffffffffffffff1673ffffffffffffffffffffffffffffffffffffffff163373ffffffffffffffffffffffffffffffffffffffff16146110b557600080fd5b60005b6001805490508110156111ea57600181815481106110d257fe5b9060005260206000209060040201600001548514801561115a5750600181815481106110fa57fe5b906000526020600020906004020160010160405160200161111b9190611a96565b60405160208183030381529060405280519060200120846040516020016111429190611a7f565b60405160208183030381529060405280519060200120145b80156111ce57506001818154811061116e57fe5b906000526020600020906004020160020160405160200161118f9190611a96565b60405160208183030381529060405280519060200120836040516020016111b69190611a7f565b60405160208183030381529060405280519060200120145b156111dd5760019150506111f0565b80806001019150506110b8565b50600090505b9392505050565b60008054906101000a900473ffffffffffffffffffffffffffffffffffffffff1673ffffffffffffffffffffffffffffffffffffffff163373ffffffffffffffffffffffffffffffffffffffff161461124f57600080fd5b60005b6001805490508110156113545760006001828154811061126e57fe5b9060005260206000209060040201905080600001548514156113465760005b816003018054905081101561134457846040516020016112ad9190611a7f565b604051602081830303815290604052805190602001208260030182815481106112d257fe5b906000526020600020016040516020016112ec9190611a96565b604051602081830303815290604052805190602001201415611337578382600301828154811061131857fe5b90600052602060002001908051906020019061133592919061135a565b505b808060010191505061128d565b505b508080600101915050611252565b50505050565b828054600181600116156101000203166002900490600052602060002090601f016020900481019282601f1061139b57805160ff19168380011785556113c9565b828001600101855582156113c9579182015b828111156113c85782518255916020019190600101906113ad565b5b5090506113d69190611649565b5090565b828054600181600116156101000203166002900490600052602060002090601f016020900481019282601f106114135780548555611450565b8280016001018555821561145057600052602060002091601f016020900482015b8281111561144f578254825591600101919060010190611434565b5b50905061145d9190611649565b5090565b50805460018160011615610100020316600290046000825580601f1061148757506114a6565b601f0160209004906000526020600020908101906114a59190611649565b5b50565b6040518060800160405280600081526020016060815260200160608152602001606081525090565b828054828255906000526020600020908101928215611520579160200282015b8281111561151f57825182908051906020019061150f92919061135a565b50916020019190600101906114f1565b5b50905061152d9190611666565b5090565b828054600181600116156101000203166002900490600052602060002090601f016020900481019282601f1061156a57805485556115a7565b828001600101855582156115a757600052602060002091601f016020900482015b828111156115a657825482559160010191906001019061158b565b5b5090506115b49190611649565b5090565b8280548282559060005260206000209081019282156116175760005260206000209182015b828111156116165782829080546001816001161561010002031660029004611606929190611531565b50916001019190600101906115dd565b5b5090506116249190611666565b5090565b50805460008255906000526020600020908101906116469190611666565b50565b5b8082111561166257600081600090555060010161164a565b5090565b5b80821115611686576000818161167d9190611461565b50600101611667565b5090565b600082601f83011261169b57600080fd5b81356116ae6116a982611b7e565b611b51565b915080825260208301602083018583830111156116ca57600080fd5b6116d5838284611c6e565b50505092915050565b6000813590506116ed81611cc1565b92915050565b6000806040838503121561170657600080fd5b600083013567ffffffffffffffff81111561172057600080fd5b61172c8582860161168a565b925050602083013567ffffffffffffffff81111561174957600080fd5b6117558582860161168a565b9150509250929050565b60006020828403121561177157600080fd5b600061177f848285016116de565b91505092915050565b6000806040838503121561179b57600080fd5b60006117a9858286016116de565b925050602083013567ffffffffffffffff8111156117c657600080fd5b6117d28582860161168a565b9150509250929050565b6000806000606084860312156117f157600080fd5b60006117ff868287016116de565b935050602084013567ffffffffffffffff81111561181c57600080fd5b6118288682870161168a565b925050604084013567ffffffffffffffff81111561184557600080fd5b6118518682870161168a565b9150509250925092565b60006118678383611969565b905092915050565b600061187b8383611a61565b60208301905092915050565b600061189282611bdf565b61189c8185611c1a565b9350836020820285016118ae85611baa565b8060005b858110156118ea57848403895281516118cb858261185b565b94506118d683611c00565b925060208a019950506001810190506118b2565b50829750879550505050505092915050565b600061190782611bea565b6119118185611c2b565b935061191c83611bba565b8060005b8381101561194d578151611934888261186f565b975061193f83611c0d565b925050600181019050611920565b5085935050505092915050565b61196381611c58565b82525050565b600061197482611bf5565b61197e8185611c3c565b935061198e818560208601611c7d565b61199781611cb0565b840191505092915050565b60006119ad82611bf5565b6119b78185611c4d565b93506119c7818560208601611c7d565b80840191505092915050565b6000815460018116600081146119f05760018114611a1557611a59565b607f6002830416611a018187611c4d565b955060ff1983168652808601935050611a59565b60028204611a238187611c4d565b9550611a2e85611bca565b60005b82811015611a5057815481890152600182019150602081019050611a31565b82880195505050505b505092915050565b611a6a81611c64565b82525050565b611a7981611c64565b82525050565b6000611a8b82846119a2565b915081905092915050565b6000611aa282846119d3565b915081905092915050565b60006020820190508181036000830152611ac78184611887565b905092915050565b60006060820190508181036000830152611ae981866118fc565b90508181036020830152611afd8185611887565b90508181036040830152611b118184611887565b9050949350505050565b6000602082019050611b30600083018461195a565b92915050565b6000602082019050611b4b6000830184611a70565b92915050565b6000604051905081810181811067ffffffffffffffff82111715611b7457600080fd5b8060405250919050565b600067ffffffffffffffff821115611b9557600080fd5b601f19601f8301169050602081019050919050565b6000819050602082019050919050565b6000819050602082019050919050565b60008190508160005260206000209050919050565b600081519050919050565b600081519050919050565b600081519050919050565b6000602082019050919050565b6000602082019050919050565b600082825260208201905092915050565b600082825260208201905092915050565b600082825260208201905092915050565b600081905092915050565b60008115159050919050565b6000819050919050565b82818337600083830152505050565b60005b83811015611c9b578082015181840152602081019050611c80565b83811115611caa576000848401525b50505050565b6000601f19601f8301169050919050565b611cca81611c64565b8114611cd557600080fd5b5056fea2646970667358221220430a338d386fe9238757744a6a82ce24e75e1f34c1aa84d6aef742b01ecf5ba064736f6c634300060c0033",
      "opcodes": "PUSH1 0x80 PUSH1 0x40 MSTORE CALLVALUE DUP1 ISZERO PUSH2 0x10 JUMPI PUSH1 0x0 DUP1 REVERT JUMPDEST POP CALLER PUSH1 0x0 DUP1 PUSH2 0x100 EXP DUP2 SLOAD DUP2 PUSH20 0xFFFFFFFFFFFFFFFFFFFFFFFFFFFFFFFFFFFFFFFF MUL NOT AND SWAP1 DUP4 PUSH20 0xFFFFFFFFFFFFFFFFFFFFFFFFFFFFFFFFFFFFFFFF AND MUL OR SWAP1 SSTORE POP PUSH1 0x0 PUSH1 0x2 DUP2 SWAP1 SSTORE POP PUSH1 0x0 PUSH1 0x3 DUP2 SWAP1 SSTORE POP PUSH2 0x1D0E DUP1 PUSH2 0x70 PUSH1 0x0 CODECOPY PUSH1 0x0 RETURN INVALID PUSH1 0x80 PUSH1 0x40 MSTORE CALLVALUE DUP1 ISZERO PUSH2 0x10 JUMPI PUSH1 0x0 DUP1 REVERT JUMPDEST POP PUSH1 0x4 CALLDATASIZE LT PUSH2 0xA9 JUMPI PUSH1 0x0 CALLDATALOAD PUSH1 0xE0 SHR DUP1 PUSH4 0x6DB80995 GT PUSH2 0x71 JUMPI DUP1 PUSH4 0x6DB80995 EQ PUSH2 0x152 JUMPI DUP1 PUSH4 0x71658896 EQ PUSH2 0x172 JUMPI DUP1 PUSH4 0x98173FF4 EQ PUSH2 0x1A2 JUMPI DUP1 PUSH4 0xA9CB1A36 EQ PUSH2 0x1BE JUMPI DUP1 PUSH4 0xC4AE2F26 EQ PUSH2 0x1DA JUMPI DUP1 PUSH4 0xE8E5339A EQ PUSH2 0x20A JUMPI PUSH2 0xA9 JUMP JUMPDEST DUP1 PUSH4 0xD3A6AEE EQ PUSH2 0xAE JUMPI DUP1 PUSH4 0x30A66294 EQ PUSH2 0xCC JUMPI DUP1 PUSH4 0x3276807A EQ PUSH2 0xEA JUMPI DUP1 PUSH4 0x42BB20E1 EQ PUSH2 0x106 JUMPI DUP1 PUSH4 0x52BFD15C EQ PUSH2 0x122 JUMPI JUMPDEST PUSH1 0x0 DUP1 REVERT JUMPDEST PUSH2 0xB6 PUSH2 0x226 JUMP JUMPDEST PUSH1 0x40 MLOAD PUSH2 0xC3 SWAP2 SWAP1 PUSH2 0x1B1B JUMP JUMPDEST PUSH1 0x40 MLOAD DUP1 SWAP2 SUB SWAP1 RETURN JUMPDEST PUSH2 0xD4 PUSH2 0x239 JUMP JUMPDEST PUSH1 0x40 MLOAD PUSH2 0xE1 SWAP2 SWAP1 PUSH2 0x1B36 JUMP JUMPDEST PUSH1 0x40 MLOAD DUP1 SWAP2 SUB SWAP1 RETURN JUMPDEST PUSH2 0x104 PUSH1 0x4 DUP1 CALLDATASIZE SUB DUP2 ADD SWAP1 PUSH2 0xFF SWAP2 SWAP1 PUSH2 0x1788 JUMP JUMPDEST PUSH2 0x29C JUMP JUMPDEST STOP JUMPDEST PUSH2 0x120 PUSH1 0x4 DUP1 CALLDATASIZE SUB DUP2 ADD SWAP1 PUSH2 0x11B SWAP2 SWAP1 PUSH2 0x1788 JUMP JUMPDEST PUSH2 0x41A JUMP JUMPDEST STOP JUMPDEST PUSH2 0x13C PUSH1 0x4 DUP1 CALLDATASIZE SUB DUP2 ADD SWAP1 PUSH2 0x137 SWAP2 SWAP1 PUSH2 0x1788 JUMP JUMPDEST PUSH2 0x66A JUMP JUMPDEST PUSH1 0x40 MLOAD PUSH2 0x149 SWAP2 SWAP1 PUSH2 0x1B1B JUMP JUMPDEST PUSH1 0x40 MLOAD DUP1 SWAP2 SUB SWAP1 RETURN JUMPDEST PUSH2 0x15A PUSH2 0x7E0 JUMP JUMPDEST PUSH1 0x40 MLOAD PUSH2 0x169 SWAP4 SWAP3 SWAP2 SWAP1 PUSH2 0x1ACF JUMP JUMPDEST PUSH1 0x40 MLOAD DUP1 SWAP2 SUB SWAP1 RETURN JUMPDEST PUSH2 0x18C PUSH1 0x4 DUP1 CALLDATASIZE SUB DUP2 ADD SWAP1 PUSH2 0x187 SWAP2 SWAP1 PUSH2 0x175F JUMP JUMPDEST PUSH2 0xB02 JUMP JUMPDEST PUSH1 0x40 MLOAD PUSH2 0x199 SWAP2 SWAP1 PUSH2 0x1AAD JUMP JUMPDEST PUSH1 0x40 MLOAD DUP1 SWAP2 SUB SWAP1 RETURN JUMPDEST PUSH2 0x1BC PUSH1 0x4 DUP1 CALLDATASIZE SUB DUP2 ADD SWAP1 PUSH2 0x1B7 SWAP2 SWAP1 PUSH2 0x16F3 JUMP JUMPDEST PUSH2 0xCF7 JUMP JUMPDEST STOP JUMPDEST PUSH2 0x1D8 PUSH1 0x4 DUP1 CALLDATASIZE SUB DUP2 ADD SWAP1 PUSH2 0x1D3 SWAP2 SWAP1 PUSH2 0x175F JUMP JUMPDEST PUSH2 0xE80 JUMP JUMPDEST STOP JUMPDEST PUSH2 0x1F4 PUSH1 0x4 DUP1 CALLDATASIZE SUB DUP2 ADD SWAP1 PUSH2 0x1EF SWAP2 SWAP1 PUSH2 0x17DC JUMP JUMPDEST PUSH2 0x105A JUMP JUMPDEST PUSH1 0x40 MLOAD PUSH2 0x201 SWAP2 SWAP1 PUSH2 0x1B1B JUMP JUMPDEST PUSH1 0x40 MLOAD DUP1 SWAP2 SUB SWAP1 RETURN JUMPDEST PUSH2 0x224 PUSH1 0x4 DUP1 CALLDATASIZE SUB DUP2 ADD SWAP1 PUSH2 0x21F SWAP2 SWAP1 PUSH2 0x17DC JUMP JUMPDEST PUSH2 0x11F7 JUMP JUMPDEST STOP JUMPDEST PUSH1 0x4 PUSH1 0x0 SWAP1 SLOAD SWAP1 PUSH2 0x100 EXP SWAP1 DIV PUSH1 0xFF AND DUP2 JUMP JUMPDEST PUSH1 0x0 DUP1 PUSH1 0x0 SWAP1 SLOAD SWAP1 PUSH2 0x100 EXP SWAP1 DIV PUSH20 0xFFFFFFFFFFFFFFFFFFFFFFFFFFFFFFFFFFFFFFFF AND PUSH20 0xFFFFFFFFFFFFFFFFFFFFFFFFFFFFFFFFFFFFFFFF AND CALLER PUSH20 0xFFFFFFFFFFFFFFFFFFFFFFFFFFFFFFFFFFFFFFFF AND EQ PUSH2 0x294 JUMPI PUSH1 0x0 DUP1 REVERT JUMPDEST PUSH1 0x2 SLOAD SWAP1 POP SWAP1 JUMP JUMPDEST PUSH1 0x0 DUP1 SLOAD SWAP1 PUSH2 0x100 EXP SWAP1 DIV PUSH20 0xFFFFFFFFFFFFFFFFFFFFFFFFFFFFFFFFFFFFFFFF AND PUSH20 0xFFFFFFFFFFFFFFFFFFFFFFFFFFFFFFFFFFFFFFFF AND CALLER PUSH20 0xFFFFFFFFFFFFFFFFFFFFFFFFFFFFFFFFFFFFFFFF AND EQ PUSH2 0x2F4 JUMPI PUSH1 0x0 DUP1 REVERT JUMPDEST PUSH1 0x0 DUP1 JUMPDEST PUSH1 0x1 DUP1 SLOAD SWAP1 POP DUP2 LT ISZERO PUSH2 0x414 JUMPI PUSH1 0x0 PUSH1 0x1 DUP3 DUP2 SLOAD DUP2 LT PUSH2 0x314 JUMPI INVALID JUMPDEST SWAP1 PUSH1 0x0 MSTORE PUSH1 0x20 PUSH1 0x0 KECCAK256 SWAP1 PUSH1 0x4 MUL ADD SWAP1 POP DUP1 PUSH1 0x0 ADD SLOAD DUP6 EQ ISZERO PUSH2 0x406 JUMPI PUSH1 0x0 JUMPDEST DUP2 PUSH1 0x3 ADD DUP1 SLOAD SWAP1 POP DUP2 LT ISZERO PUSH2 0x3C0 JUMPI DUP2 PUSH1 0x3 ADD DUP2 DUP2 SLOAD DUP2 LT PUSH2 0x351 JUMPI INVALID JUMPDEST SWAP1 PUSH1 0x0 MSTORE PUSH1 0x20 PUSH1 0x0 KECCAK256 ADD PUSH1 0x40 MLOAD PUSH1 0x20 ADD PUSH2 0x36B SWAP2 SWAP1 PUSH2 0x1A96 JUMP JUMPDEST PUSH1 0x40 MLOAD PUSH1 0x20 DUP2 DUP4 SUB SUB DUP2 MSTORE SWAP1 PUSH1 0x40 MSTORE DUP1 MLOAD SWAP1 PUSH1 0x20 ADD KECCAK256 DUP6 PUSH1 0x40 MLOAD PUSH1 0x20 ADD PUSH2 0x392 SWAP2 SWAP1 PUSH2 0x1A7F JUMP JUMPDEST PUSH1 0x40 MLOAD PUSH1 0x20 DUP2 DUP4 SUB SUB DUP2 MSTORE SWAP1 PUSH1 0x40 MSTORE DUP1 MLOAD SWAP1 PUSH1 0x20 ADD KECCAK256 EQ ISZERO PUSH2 0x3B3 JUMPI PUSH1 0x1 SWAP4 POP JUMPDEST DUP1 DUP1 PUSH1 0x1 ADD SWAP2 POP POP PUSH2 0x333 JUMP JUMPDEST POP DUP3 PUSH2 0x405 JUMPI DUP1 PUSH1 0x3 ADD DUP5 SWAP1 DUP1 PUSH1 0x1 DUP2 SLOAD ADD DUP1 DUP3 SSTORE DUP1 SWAP2 POP POP PUSH1 0x1 SWAP1 SUB SWAP1 PUSH1 0x0 MSTORE PUSH1 0x20 PUSH1 0x0 KECCAK256 ADD PUSH1 0x0 SWAP1 SWAP2 SWAP1 SWAP2 SWAP1 SWAP2 POP SWAP1 DUP1 MLOAD SWAP1 PUSH1 0x20 ADD SWAP1 PUSH2 0x403 SWAP3 SWAP2 SWAP1 PUSH2 0x135A JUMP JUMPDEST POP JUMPDEST JUMPDEST POP DUP1 DUP1 PUSH1 0x1 ADD SWAP2 POP POP PUSH2 0x2F8 JUMP JUMPDEST POP POP POP POP JUMP JUMPDEST PUSH1 0x0 DUP1 SLOAD SWAP1 PUSH2 0x100 EXP SWAP1 DIV PUSH20 0xFFFFFFFFFFFFFFFFFFFFFFFFFFFFFFFFFFFFFFFF AND PUSH20 0xFFFFFFFFFFFFFFFFFFFFFFFFFFFFFFFFFFFFFFFF AND CALLER PUSH20 0xFFFFFFFFFFFFFFFFFFFFFFFFFFFFFFFFFFFFFFFF AND EQ PUSH2 0x472 JUMPI PUSH1 0x0 DUP1 REVERT JUMPDEST PUSH1 0x0 JUMPDEST PUSH1 0x1 DUP1 SLOAD SWAP1 POP DUP2 LT ISZERO PUSH2 0x665 JUMPI PUSH1 0x1 DUP2 DUP2 SLOAD DUP2 LT PUSH2 0x48F JUMPI INVALID JUMPDEST SWAP1 PUSH1 0x0 MSTORE PUSH1 0x20 PUSH1 0x0 KECCAK256 SWAP1 PUSH1 0x4 MUL ADD PUSH1 0x0 ADD SLOAD DUP4 EQ ISZERO PUSH2 0x658 JUMPI PUSH1 0x0 JUMPDEST PUSH1 0x1 DUP3 DUP2 SLOAD DUP2 LT PUSH2 0x4B8 JUMPI INVALID JUMPDEST SWAP1 PUSH1 0x0 MSTORE PUSH1 0x20 PUSH1 0x0 KECCAK256 SWAP1 PUSH1 0x4 MUL ADD PUSH1 0x3 ADD DUP1 SLOAD SWAP1 POP DUP2 LT ISZERO PUSH2 0x656 JUMPI PUSH1 0x1 DUP3 DUP2 SLOAD DUP2 LT PUSH2 0x4E1 JUMPI INVALID JUMPDEST SWAP1 PUSH1 0x0 MSTORE PUSH1 0x20 PUSH1 0x0 KECCAK256 SWAP1 PUSH1 0x4 MUL ADD PUSH1 0x3 ADD DUP2 DUP2 SLOAD DUP2 LT PUSH2 0x4FD JUMPI INVALID JUMPDEST SWAP1 PUSH1 0x0 MSTORE PUSH1 0x20 PUSH1 0x0 KECCAK256 ADD PUSH1 0x40 MLOAD PUSH1 0x20 ADD PUSH2 0x517 SWAP2 SWAP1 PUSH2 0x1A96 JUMP JUMPDEST PUSH1 0x40 MLOAD PUSH1 0x20 DUP2 DUP4 SUB SUB DUP2 MSTORE SWAP1 PUSH1 0x40 MSTORE DUP1 MLOAD SWAP1 PUSH1 0x20 ADD KECCAK256 DUP4 PUSH1 0x40 MLOAD PUSH1 0x20 ADD PUSH2 0x53E SWAP2 SWAP1 PUSH2 0x1A7F JUMP JUMPDEST PUSH1 0x40 MLOAD PUSH1 0x20 DUP2 DUP4 SUB SUB DUP2 MSTORE SWAP1 PUSH1 0x40 MSTORE DUP1 MLOAD SWAP1 PUSH1 0x20 ADD KECCAK256 EQ ISZERO PUSH2 0x649 JUMPI PUSH1 0x1 DUP3 DUP2 SLOAD DUP2 LT PUSH2 0x567 JUMPI INVALID JUMPDEST SWAP1 PUSH1 0x0 MSTORE PUSH1 0x20 PUSH1 0x0 KECCAK256 SWAP1 PUSH1 0x4 MUL ADD PUSH1 0x3 ADD PUSH1 0x1 DUP1 DUP5 DUP2 SLOAD DUP2 LT PUSH2 0x586 JUMPI INVALID JUMPDEST SWAP1 PUSH1 0x0 MSTORE PUSH1 0x20 PUSH1 0x0 KECCAK256 SWAP1 PUSH1 0x4 MUL ADD PUSH1 0x3 ADD DUP1 SLOAD SWAP1 POP SUB DUP2 SLOAD DUP2 LT PUSH2 0x5A6 JUMPI INVALID JUMPDEST SWAP1 PUSH1 0x0 MSTORE PUSH1 0x20 PUSH1 0x0 KECCAK256 ADD PUSH1 0x1 DUP4 DUP2 SLOAD DUP2 LT PUSH2 0x5BD JUMPI INVALID JUMPDEST SWAP1 PUSH1 0x0 MSTORE PUSH1 0x20 PUSH1 0x0 KECCAK256 SWAP1 PUSH1 0x4 MUL ADD PUSH1 0x3 ADD DUP3 DUP2 SLOAD DUP2 LT PUSH2 0x5D9 JUMPI INVALID JUMPDEST SWAP1 PUSH1 0x0 MSTORE PUSH1 0x20 PUSH1 0x0 KECCAK256 ADD SWAP1 DUP1 SLOAD PUSH1 0x1 DUP2 PUSH1 0x1 AND ISZERO PUSH2 0x100 MUL SUB AND PUSH1 0x2 SWAP1 DIV PUSH2 0x602 SWAP3 SWAP2 SWAP1 PUSH2 0x13DA JUMP JUMPDEST POP PUSH1 0x1 DUP3 DUP2 SLOAD DUP2 LT PUSH2 0x610 JUMPI INVALID JUMPDEST SWAP1 PUSH1 0x0 MSTORE PUSH1 0x20 PUSH1 0x0 KECCAK256 SWAP1 PUSH1 0x4 MUL ADD PUSH1 0x3 ADD DUP1 SLOAD DUP1 PUSH2 0x62A JUMPI INVALID JUMPDEST PUSH1 0x1 SWAP1 SUB DUP2 DUP2 SWAP1 PUSH1 0x0 MSTORE PUSH1 0x20 PUSH1 0x0 KECCAK256 ADD PUSH1 0x0 PUSH2 0x646 SWAP2 SWAP1 PUSH2 0x1461 JUMP JUMPDEST SWAP1 SSTORE JUMPDEST DUP1 DUP1 PUSH1 0x1 ADD SWAP2 POP POP PUSH2 0x4AB JUMP JUMPDEST POP JUMPDEST DUP1 DUP1 PUSH1 0x1 ADD SWAP2 POP POP PUSH2 0x475 JUMP JUMPDEST POP POP POP JUMP JUMPDEST PUSH1 0x0 DUP1 PUSH1 0x0 SWAP1 SLOAD SWAP1 PUSH2 0x100 EXP SWAP1 DIV PUSH20 0xFFFFFFFFFFFFFFFFFFFFFFFFFFFFFFFFFFFFFFFF AND PUSH20 0xFFFFFFFFFFFFFFFFFFFFFFFFFFFFFFFFFFFFFFFF AND CALLER PUSH20 0xFFFFFFFFFFFFFFFFFFFFFFFFFFFFFFFFFFFFFFFF AND EQ PUSH2 0x6C5 JUMPI PUSH1 0x0 DUP1 REVERT JUMPDEST PUSH1 0x0 JUMPDEST PUSH1 0x1 DUP1 SLOAD SWAP1 POP DUP2 LT ISZERO PUSH2 0x7D4 JUMPI PUSH1 0x1 DUP2 DUP2 SLOAD DUP2 LT PUSH2 0x6E2 JUMPI INVALID JUMPDEST SWAP1 PUSH1 0x0 MSTORE PUSH1 0x20 PUSH1 0x0 KECCAK256 SWAP1 PUSH1 0x4 MUL ADD PUSH1 0x0 ADD SLOAD DUP5 EQ ISZERO PUSH2 0x7C7 JUMPI PUSH1 0x0 JUMPDEST PUSH1 0x1 DUP3 DUP2 SLOAD DUP2 LT PUSH2 0x70B JUMPI INVALID JUMPDEST SWAP1 PUSH1 0x0 MSTORE PUSH1 0x20 PUSH1 0x0 KECCAK256 SWAP1 PUSH1 0x4 MUL ADD PUSH1 0x3 ADD DUP1 SLOAD SWAP1 POP DUP2 LT ISZERO PUSH2 0x7C5 JUMPI PUSH1 0x1 DUP3 DUP2 SLOAD DUP2 LT PUSH2 0x734 JUMPI INVALID JUMPDEST SWAP1 PUSH1 0x0 MSTORE PUSH1 0x20 PUSH1 0x0 KECCAK256 SWAP1 PUSH1 0x4 MUL ADD PUSH1 0x3 ADD DUP2 DUP2 SLOAD DUP2 LT PUSH2 0x750 JUMPI INVALID JUMPDEST SWAP1 PUSH1 0x0 MSTORE PUSH1 0x20 PUSH1 0x0 KECCAK256 ADD PUSH1 0x40 MLOAD PUSH1 0x20 ADD PUSH2 0x76A SWAP2 SWAP1 PUSH2 0x1A96 JUMP JUMPDEST PUSH1 0x40 MLOAD PUSH1 0x20 DUP2 DUP4 SUB SUB DUP2 MSTORE SWAP1 PUSH1 0x40 MSTORE DUP1 MLOAD SWAP1 PUSH1 0x20 ADD KECCAK256 DUP5 PUSH1 0x40 MLOAD PUSH1 0x20 ADD PUSH2 0x791 SWAP2 SWAP1 PUSH2 0x1A7F JUMP JUMPDEST PUSH1 0x40 MLOAD PUSH1 0x20 DUP2 DUP4 SUB SUB DUP2 MSTORE SWAP1 PUSH1 0x40 MSTORE DUP1 MLOAD SWAP1 PUSH1 0x20 ADD KECCAK256 EQ ISZERO PUSH2 0x7B8 JUMPI PUSH1 0x1 SWAP3 POP POP POP PUSH2 0x7DA JUMP JUMPDEST DUP1 DUP1 PUSH1 0x1 ADD SWAP2 POP POP PUSH2 0x6FE JUMP JUMPDEST POP JUMPDEST DUP1 DUP1 PUSH1 0x1 ADD SWAP2 POP POP PUSH2 0x6C8 JUMP JUMPDEST POP PUSH1 0x0 SWAP1 POP JUMPDEST SWAP3 SWAP2 POP POP JUMP JUMPDEST PUSH1 0x60 DUP1 PUSH1 0x60 PUSH1 0x0 DUP1 SLOAD SWAP1 PUSH2 0x100 EXP SWAP1 DIV PUSH20 0xFFFFFFFFFFFFFFFFFFFFFFFFFFFFFFFFFFFFFFFF AND PUSH20 0xFFFFFFFFFFFFFFFFFFFFFFFFFFFFFFFFFFFFFFFF AND CALLER PUSH20 0xFFFFFFFFFFFFFFFFFFFFFFFFFFFFFFFFFFFFFFFF AND EQ PUSH2 0x83D JUMPI PUSH1 0x0 DUP1 REVERT JUMPDEST PUSH1 0x60 PUSH1 0x2 SLOAD PUSH8 0xFFFFFFFFFFFFFFFF DUP2 GT DUP1 ISZERO PUSH2 0x858 JUMPI PUSH1 0x0 DUP1 REVERT JUMPDEST POP PUSH1 0x40 MLOAD SWAP1 DUP1 DUP3 MSTORE DUP1 PUSH1 0x20 MUL PUSH1 0x20 ADD DUP3 ADD PUSH1 0x40 MSTORE DUP1 ISZERO PUSH2 0x887 JUMPI DUP2 PUSH1 0x20 ADD PUSH1 0x20 DUP3 MUL DUP1 CALLDATASIZE DUP4 CALLDATACOPY DUP1 DUP3 ADD SWAP2 POP POP SWAP1 POP JUMPDEST POP SWAP1 POP PUSH1 0x60 PUSH1 0x2 SLOAD PUSH8 0xFFFFFFFFFFFFFFFF DUP2 GT DUP1 ISZERO PUSH2 0x8A5 JUMPI PUSH1 0x0 DUP1 REVERT JUMPDEST POP PUSH1 0x40 MLOAD SWAP1 DUP1 DUP3 MSTORE DUP1 PUSH1 0x20 MUL PUSH1 0x20 ADD DUP3 ADD PUSH1 0x40 MSTORE DUP1 ISZERO PUSH2 0x8D9 JUMPI DUP2 PUSH1 0x20 ADD JUMPDEST PUSH1 0x60 DUP2 MSTORE PUSH1 0x20 ADD SWAP1 PUSH1 0x1 SWAP1 SUB SWAP1 DUP2 PUSH2 0x8C4 JUMPI SWAP1 POP JUMPDEST POP SWAP1 POP PUSH1 0x60 PUSH1 0x2 SLOAD PUSH8 0xFFFFFFFFFFFFFFFF DUP2 GT DUP1 ISZERO PUSH2 0x8F7 JUMPI PUSH1 0x0 DUP1 REVERT JUMPDEST POP PUSH1 0x40 MLOAD SWAP1 DUP1 DUP3 MSTORE DUP1 PUSH1 0x20 MUL PUSH1 0x20 ADD DUP3 ADD PUSH1 0x40 MSTORE DUP1 ISZERO PUSH2 0x92B JUMPI DUP2 PUSH1 0x20 ADD JUMPDEST PUSH1 0x60 DUP2 MSTORE PUSH1 0x20 ADD SWAP1 PUSH1 0x1 SWAP1 SUB SWAP1 DUP2 PUSH2 0x916 JUMPI SWAP1 POP JUMPDEST POP SWAP1 POP PUSH1 0x0 JUMPDEST PUSH1 0x1 DUP1 SLOAD SWAP1 POP DUP2 LT ISZERO PUSH2 0xAF0 JUMPI PUSH1 0x0 PUSH1 0x1 DUP3 DUP2 SLOAD DUP2 LT PUSH2 0x94D JUMPI INVALID JUMPDEST SWAP1 PUSH1 0x0 MSTORE PUSH1 0x20 PUSH1 0x0 KECCAK256 SWAP1 PUSH1 0x4 MUL ADD SWAP1 POP DUP1 PUSH1 0x0 ADD SLOAD DUP6 DUP4 DUP2 MLOAD DUP2 LT PUSH2 0x96E JUMPI INVALID JUMPDEST PUSH1 0x20 MUL PUSH1 0x20 ADD ADD DUP2 DUP2 MSTORE POP POP DUP1 PUSH1 0x1 ADD DUP1 SLOAD PUSH1 0x1 DUP2 PUSH1 0x1 AND ISZERO PUSH2 0x100 MUL SUB AND PUSH1 0x2 SWAP1 DIV DUP1 PUSH1 0x1F ADD PUSH1 0x20 DUP1 SWAP2 DIV MUL PUSH1 0x20 ADD PUSH1 0x40 MLOAD SWAP1 DUP2 ADD PUSH1 0x40 MSTORE DUP1 SWAP3 SWAP2 SWAP1 DUP2 DUP2 MSTORE PUSH1 0x20 ADD DUP3 DUP1 SLOAD PUSH1 0x1 DUP2 PUSH1 0x1 AND ISZERO PUSH2 0x100 MUL SUB AND PUSH1 0x2 SWAP1 DIV DUP1 ISZERO PUSH2 0xA12 JUMPI DUP1 PUSH1 0x1F LT PUSH2 0x9E7 JUMPI PUSH2 0x100 DUP1 DUP4 SLOAD DIV MUL DUP4 MSTORE SWAP2 PUSH1 0x20 ADD SWAP2 PUSH2 0xA12 JUMP JUMPDEST DUP3 ADD SWAP2 SWAP1 PUSH1 0x0 MSTORE PUSH1 0x20 PUSH1 0x0 KECCAK256 SWAP1 JUMPDEST DUP2 SLOAD DUP2 MSTORE SWAP1 PUSH1 0x1 ADD SWAP1 PUSH1 0x20 ADD DUP1 DUP4 GT PUSH2 0x9F5 JUMPI DUP3 SWAP1 SUB PUSH1 0x1F AND DUP3 ADD SWAP2 JUMPDEST POP POP POP POP POP DUP5 DUP4 DUP2 MLOAD DUP2 LT PUSH2 0xA23 JUMPI INVALID JUMPDEST PUSH1 0x20 MUL PUSH1 0x20 ADD ADD DUP2 SWAP1 MSTORE POP DUP1 PUSH1 0x2 ADD DUP1 SLOAD PUSH1 0x1 DUP2 PUSH1 0x1 AND ISZERO PUSH2 0x100 MUL SUB AND PUSH1 0x2 SWAP1 DIV DUP1 PUSH1 0x1F ADD PUSH1 0x20 DUP1 SWAP2 DIV MUL PUSH1 0x20 ADD PUSH1 0x40 MLOAD SWAP1 DUP2 ADD PUSH1 0x40 MSTORE DUP1 SWAP3 SWAP2 SWAP1 DUP2 DUP2 MSTORE PUSH1 0x20 ADD DUP3 DUP1 SLOAD PUSH1 0x1 DUP2 PUSH1 0x1 AND ISZERO PUSH2 0x100 MUL SUB AND PUSH1 0x2 SWAP1 DIV DUP1 ISZERO PUSH2 0xAC6 JUMPI DUP1 PUSH1 0x1F LT PUSH2 0xA9B JUMPI PUSH2 0x100 DUP1 DUP4 SLOAD DIV MUL DUP4 MSTORE SWAP2 PUSH1 0x20 ADD SWAP2 PUSH2 0xAC6 JUMP JUMPDEST DUP3 ADD SWAP2 SWAP1 PUSH1 0x0 MSTORE PUSH1 0x20 PUSH1 0x0 KECCAK256 SWAP1 JUMPDEST DUP2 SLOAD DUP2 MSTORE SWAP1 PUSH1 0x1 ADD SWAP1 PUSH1 0x20 ADD DUP1 DUP4 GT PUSH2 0xAA9 JUMPI DUP3 SWAP1 SUB PUSH1 0x1F AND DUP3 ADD SWAP2 JUMPDEST POP POP POP POP POP DUP4 DUP4 DUP2 MLOAD DUP2 LT PUSH2 0xAD7 JUMPI INVALID JUMPDEST PUSH1 0x20 MUL PUSH1 0x20 ADD ADD DUP2 SWAP1 MSTORE POP POP DUP1 DUP1 PUSH1 0x1 ADD SWAP2 POP POP PUSH2 0x931 JUMP JUMPDEST POP DUP3 DUP3 DUP3 SWAP6 POP SWAP6 POP SWAP6 POP POP POP POP SWAP1 SWAP2 SWAP3 JUMP JUMPDEST PUSH1 0x60 PUSH1 0x0 DUP1 SLOAD SWAP1 PUSH2 0x100 EXP SWAP1 DIV PUSH20 0xFFFFFFFFFFFFFFFFFFFFFFFFFFFFFFFFFFFFFFFF AND PUSH20 0xFFFFFFFFFFFFFFFFFFFFFFFFFFFFFFFFFFFFFFFF AND CALLER PUSH20 0xFFFFFFFFFFFFFFFFFFFFFFFFFFFFFFFFFFFFFFFF AND EQ PUSH2 0xB5C JUMPI PUSH1 0x0 DUP1 REVERT JUMPDEST PUSH1 0x0 JUMPDEST PUSH1 0x1 DUP1 SLOAD SWAP1 POP DUP2 LT ISZERO PUSH2 0xCF0 JUMPI PUSH1 0x0 PUSH1 0x1 DUP3 DUP2 SLOAD DUP2 LT PUSH2 0xB7B JUMPI INVALID JUMPDEST SWAP1 PUSH1 0x0 MSTORE PUSH1 0x20 PUSH1 0x0 KECCAK256 SWAP1 PUSH1 0x4 MUL ADD SWAP1 POP DUP1 PUSH1 0x0 ADD SLOAD DUP5 EQ ISZERO PUSH2 0xCE2 JUMPI PUSH1 0x60 DUP2 PUSH1 0x3 ADD DUP1 SLOAD SWAP1 POP PUSH8 0xFFFFFFFFFFFFFFFF DUP2 GT DUP1 ISZERO PUSH2 0xBB7 JUMPI PUSH1 0x0 DUP1 REVERT JUMPDEST POP PUSH1 0x40 MLOAD SWAP1 DUP1 DUP3 MSTORE DUP1 PUSH1 0x20 MUL PUSH1 0x20 ADD DUP3 ADD PUSH1 0x40 MSTORE DUP1 ISZERO PUSH2 0xBEB JUMPI DUP2 PUSH1 0x20 ADD JUMPDEST PUSH1 0x60 DUP2 MSTORE PUSH1 0x20 ADD SWAP1 PUSH1 0x1 SWAP1 SUB SWAP1 DUP2 PUSH2 0xBD6 JUMPI SWAP1 POP JUMPDEST POP SWAP1 POP PUSH1 0x0 JUMPDEST DUP3 PUSH1 0x3 ADD DUP1 SLOAD SWAP1 POP DUP2 LT ISZERO PUSH2 0xCD6 JUMPI DUP3 PUSH1 0x3 ADD DUP2 DUP2 SLOAD DUP2 LT PUSH2 0xC0F JUMPI INVALID JUMPDEST SWAP1 PUSH1 0x0 MSTORE PUSH1 0x20 PUSH1 0x0 KECCAK256 ADD DUP1 SLOAD PUSH1 0x1 DUP2 PUSH1 0x1 AND ISZERO PUSH2 0x100 MUL SUB AND PUSH1 0x2 SWAP1 DIV DUP1 PUSH1 0x1F ADD PUSH1 0x20 DUP1 SWAP2 DIV MUL PUSH1 0x20 ADD PUSH1 0x40 MLOAD SWAP1 DUP2 ADD PUSH1 0x40 MSTORE DUP1 SWAP3 SWAP2 SWAP1 DUP2 DUP2 MSTORE PUSH1 0x20 ADD DUP3 DUP1 SLOAD PUSH1 0x1 DUP2 PUSH1 0x1 AND ISZERO PUSH2 0x100 MUL SUB AND PUSH1 0x2 SWAP1 DIV DUP1 ISZERO PUSH2 0xCAD JUMPI DUP1 PUSH1 0x1F LT PUSH2 0xC82 JUMPI PUSH2 0x100 DUP1 DUP4 SLOAD DIV MUL DUP4 MSTORE SWAP2 PUSH1 0x20 ADD SWAP2 PUSH2 0xCAD JUMP JUMPDEST DUP3 ADD SWAP2 SWAP1 PUSH1 0x0 MSTORE PUSH1 0x20 PUSH1 0x0 KECCAK256 SWAP1 JUMPDEST DUP2 SLOAD DUP2 MSTORE SWAP1 PUSH1 0x1 ADD SWAP1 PUSH1 0x20 ADD DUP1 DUP4 GT PUSH2 0xC90 JUMPI DUP3 SWAP1 SUB PUSH1 0x1F AND DUP3 ADD SWAP2 JUMPDEST POP POP POP POP POP DUP3 DUP3 DUP2 MLOAD DUP2 LT PUSH2 0xCBE JUMPI INVALID JUMPDEST PUSH1 0x20 MUL PUSH1 0x20 ADD ADD DUP2 SWAP1 MSTORE POP DUP1 DUP1 PUSH1 0x1 ADD SWAP2 POP POP PUSH2 0xBF1 JUMP JUMPDEST POP DUP1 SWAP4 POP POP POP POP PUSH2 0xCF2 JUMP JUMPDEST POP DUP1 DUP1 PUSH1 0x1 ADD SWAP2 POP POP PUSH2 0xB5F JUMP JUMPDEST POP JUMPDEST SWAP2 SWAP1 POP JUMP JUMPDEST PUSH1 0x0 DUP1 SLOAD SWAP1 PUSH2 0x100 EXP SWAP1 DIV PUSH20 0xFFFFFFFFFFFFFFFFFFFFFFFFFFFFFFFFFFFFFFFF AND PUSH20 0xFFFFFFFFFFFFFFFFFFFFFFFFFFFFFFFFFFFFFFFF AND CALLER PUSH20 0xFFFFFFFFFFFFFFFFFFFFFFFFFFFFFFFFFFFFFFFF AND EQ PUSH2 0xD4F JUMPI PUSH1 0x0 DUP1 REVERT JUMPDEST PUSH2 0xD57 PUSH2 0x14A9 JUMP JUMPDEST PUSH1 0x40 MLOAD DUP1 PUSH1 0x80 ADD PUSH1 0x40 MSTORE DUP1 PUSH1 0x3 SLOAD DUP2 MSTORE PUSH1 0x20 ADD DUP5 DUP2 MSTORE PUSH1 0x20 ADD DUP4 DUP2 MSTORE PUSH1 0x20 ADD PUSH1 0x0 PUSH8 0xFFFFFFFFFFFFFFFF DUP2 GT DUP1 ISZERO PUSH2 0xD8E JUMPI PUSH1 0x0 DUP1 REVERT JUMPDEST POP PUSH1 0x40 MLOAD SWAP1 DUP1 DUP3 MSTORE DUP1 PUSH1 0x20 MUL PUSH1 0x20 ADD DUP3 ADD PUSH1 0x40 MSTORE DUP1 ISZERO PUSH2 0xDC2 JUMPI DUP2 PUSH1 0x20 ADD JUMPDEST PUSH1 0x60 DUP2 MSTORE PUSH1 0x20 ADD SWAP1 PUSH1 0x1 SWAP1 SUB SWAP1 DUP2 PUSH2 0xDAD JUMPI SWAP1 POP JUMPDEST POP DUP2 MSTORE POP SWAP1 POP PUSH1 0x2 PUSH1 0x0 DUP2 SLOAD DUP1 SWAP3 SWAP2 SWAP1 PUSH1 0x1 ADD SWAP2 SWAP1 POP SSTORE POP PUSH1 0x3 PUSH1 0x0 DUP2 SLOAD DUP1 SWAP3 SWAP2 SWAP1 PUSH1 0x1 ADD SWAP2 SWAP1 POP SSTORE POP PUSH1 0x1 DUP2 SWAP1 DUP1 PUSH1 0x1 DUP2 SLOAD ADD DUP1 DUP3 SSTORE DUP1 SWAP2 POP POP PUSH1 0x1 SWAP1 SUB SWAP1 PUSH1 0x0 MSTORE PUSH1 0x20 PUSH1 0x0 KECCAK256 SWAP1 PUSH1 0x4 MUL ADD PUSH1 0x0 SWAP1 SWAP2 SWAP1 SWAP2 SWAP1 SWAP2 POP PUSH1 0x0 DUP3 ADD MLOAD DUP2 PUSH1 0x0 ADD SSTORE PUSH1 0x20 DUP3 ADD MLOAD DUP2 PUSH1 0x1 ADD SWAP1 DUP1 MLOAD SWAP1 PUSH1 0x20 ADD SWAP1 PUSH2 0xE3E SWAP3 SWAP2 SWAP1 PUSH2 0x135A JUMP JUMPDEST POP PUSH1 0x40 DUP3 ADD MLOAD DUP2 PUSH1 0x2 ADD SWAP1 DUP1 MLOAD SWAP1 PUSH1 0x20 ADD SWAP1 PUSH2 0xE5B SWAP3 SWAP2 SWAP1 PUSH2 0x135A JUMP JUMPDEST POP PUSH1 0x60 DUP3 ADD MLOAD DUP2 PUSH1 0x3 ADD SWAP1 DUP1 MLOAD SWAP1 PUSH1 0x20 ADD SWAP1 PUSH2 0xE78 SWAP3 SWAP2 SWAP1 PUSH2 0x14D1 JUMP JUMPDEST POP POP POP POP POP POP JUMP JUMPDEST PUSH1 0x0 DUP1 SLOAD SWAP1 PUSH2 0x100 EXP SWAP1 DIV PUSH20 0xFFFFFFFFFFFFFFFFFFFFFFFFFFFFFFFFFFFFFFFF AND PUSH20 0xFFFFFFFFFFFFFFFFFFFFFFFFFFFFFFFFFFFFFFFF AND CALLER PUSH20 0xFFFFFFFFFFFFFFFFFFFFFFFFFFFFFFFFFFFFFFFF AND EQ PUSH2 0xED8 JUMPI PUSH1 0x0 DUP1 REVERT JUMPDEST PUSH1 0x0 JUMPDEST PUSH1 0x1 DUP1 SLOAD SWAP1 POP DUP2 LT ISZERO PUSH2 0x1056 JUMPI PUSH1 0x1 DUP2 DUP2 SLOAD DUP2 LT PUSH2 0xEF5 JUMPI INVALID JUMPDEST SWAP1 PUSH1 0x0 MSTORE PUSH1 0x20 PUSH1 0x0 KECCAK256 SWAP1 PUSH1 0x4 MUL ADD PUSH1 0x0 ADD SLOAD DUP3 EQ ISZERO PUSH2 0x1049 JUMPI PUSH1 0x1 PUSH1 0x4 PUSH1 0x0 PUSH2 0x100 EXP DUP2 SLOAD DUP2 PUSH1 0xFF MUL NOT AND SWAP1 DUP4 ISZERO ISZERO MUL OR SWAP1 SSTORE POP PUSH1 0x1 DUP1 DUP1 DUP1 SLOAD SWAP1 POP SUB DUP2 SLOAD DUP2 LT PUSH2 0xF3C JUMPI INVALID JUMPDEST SWAP1 PUSH1 0x0 MSTORE PUSH1 0x20 PUSH1 0x0 KECCAK256 SWAP1 PUSH1 0x4 MUL ADD PUSH1 0x1 DUP3 DUP2 SLOAD DUP2 LT PUSH2 0xF57 JUMPI INVALID JUMPDEST SWAP1 PUSH1 0x0 MSTORE PUSH1 0x20 PUSH1 0x0 KECCAK256 SWAP1 PUSH1 0x4 MUL ADD PUSH1 0x0 DUP3 ADD SLOAD DUP2 PUSH1 0x0 ADD SSTORE PUSH1 0x1 DUP3 ADD DUP2 PUSH1 0x1 ADD SWAP1 DUP1 SLOAD PUSH1 0x1 DUP2 PUSH1 0x1 AND ISZERO PUSH2 0x100 MUL SUB AND PUSH1 0x2 SWAP1 DIV PUSH2 0xF96 SWAP3 SWAP2 SWAP1 PUSH2 0x1531 JUMP JUMPDEST POP PUSH1 0x2 DUP3 ADD DUP2 PUSH1 0x2 ADD SWAP1 DUP1 SLOAD PUSH1 0x1 DUP2 PUSH1 0x1 AND ISZERO PUSH2 0x100 MUL SUB AND PUSH1 0x2 SWAP1 DIV PUSH2 0xFBE SWAP3 SWAP2 SWAP1 PUSH2 0x1531 JUMP JUMPDEST POP PUSH1 0x3 DUP3 ADD DUP2 PUSH1 0x3 ADD SWAP1 DUP1 SLOAD PUSH2 0xFD5 SWAP3 SWAP2 SWAP1 PUSH2 0x15B8 JUMP JUMPDEST POP SWAP1 POP POP PUSH1 0x1 DUP1 SLOAD DUP1 PUSH2 0xFE4 JUMPI INVALID JUMPDEST PUSH1 0x1 SWAP1 SUB DUP2 DUP2 SWAP1 PUSH1 0x0 MSTORE PUSH1 0x20 PUSH1 0x0 KECCAK256 SWAP1 PUSH1 0x4 MUL ADD PUSH1 0x0 DUP1 DUP3 ADD PUSH1 0x0 SWAP1 SSTORE PUSH1 0x1 DUP3 ADD PUSH1 0x0 PUSH2 0x1011 SWAP2 SWAP1 PUSH2 0x1461 JUMP JUMPDEST PUSH1 0x2 DUP3 ADD PUSH1 0x0 PUSH2 0x1021 SWAP2 SWAP1 PUSH2 0x1461 JUMP JUMPDEST PUSH1 0x3 DUP3 ADD PUSH1 0x0 PUSH2 0x1031 SWAP2 SWAP1 PUSH2 0x1628 JUMP JUMPDEST POP POP SWAP1 SSTORE PUSH1 0x2 PUSH1 0x0 DUP2 SLOAD DUP1 SWAP3 SWAP2 SWAP1 PUSH1 0x1 SWAP1 SUB SWAP2 SWAP1 POP SSTORE POP JUMPDEST DUP1 DUP1 PUSH1 0x1 ADD SWAP2 POP POP PUSH2 0xEDB JUMP JUMPDEST POP POP JUMP JUMPDEST PUSH1 0x0 DUP1 PUSH1 0x0 SWAP1 SLOAD SWAP1 PUSH2 0x100 EXP SWAP1 DIV PUSH20 0xFFFFFFFFFFFFFFFFFFFFFFFFFFFFFFFFFFFFFFFF AND PUSH20 0xFFFFFFFFFFFFFFFFFFFFFFFFFFFFFFFFFFFFFFFF AND CALLER PUSH20 0xFFFFFFFFFFFFFFFFFFFFFFFFFFFFFFFFFFFFFFFF AND EQ PUSH2 0x10B5 JUMPI PUSH1 0x0 DUP1 REVERT JUMPDEST PUSH1 0x0 JUMPDEST PUSH1 0x1 DUP1 SLOAD SWAP1 POP DUP2 LT ISZERO PUSH2 0x11EA JUMPI PUSH1 0x1 DUP2 DUP2 SLOAD DUP2 LT PUSH2 0x10D2 JUMPI INVALID JUMPDEST SWAP1 PUSH1 0x0 MSTORE PUSH1 0x20 PUSH1 0x0 KECCAK256 SWAP1 PUSH1 0x4 MUL ADD PUSH1 0x0 ADD SLOAD DUP6 EQ DUP1 ISZERO PUSH2 0x115A JUMPI POP PUSH1 0x1 DUP2 DUP2 SLOAD DUP2 LT PUSH2 0x10FA JUMPI INVALID JUMPDEST SWAP1 PUSH1 0x0 MSTORE PUSH1 0x20 PUSH1 0x0 KECCAK256 SWAP1 PUSH1 0x4 MUL ADD PUSH1 0x1 ADD PUSH1 0x40 MLOAD PUSH1 0x20 ADD PUSH2 0x111B SWAP2 SWAP1 PUSH2 0x1A96 JUMP JUMPDEST PUSH1 0x40 MLOAD PUSH1 0x20 DUP2 DUP4 SUB SUB DUP2 MSTORE SWAP1 PUSH1 0x40 MSTORE DUP1 MLOAD SWAP1 PUSH1 0x20 ADD KECCAK256 DUP5 PUSH1 0x40 MLOAD PUSH1 0x20 ADD PUSH2 0x1142 SWAP2 SWAP1 PUSH2 0x1A7F JUMP JUMPDEST PUSH1 0x40 MLOAD PUSH1 0x20 DUP2 DUP4 SUB SUB DUP2 MSTORE SWAP1 PUSH1 0x40 MSTORE DUP1 MLOAD SWAP1 PUSH1 0x20 ADD KECCAK256 EQ JUMPDEST DUP1 ISZERO PUSH2 0x11CE JUMPI POP PUSH1 0x1 DUP2 DUP2 SLOAD DUP2 LT PUSH2 0x116E JUMPI INVALID JUMPDEST SWAP1 PUSH1 0x0 MSTORE PUSH1 0x20 PUSH1 0x0 KECCAK256 SWAP1 PUSH1 0x4 MUL ADD PUSH1 0x2 ADD PUSH1 0x40 MLOAD PUSH1 0x20 ADD PUSH2 0x118F SWAP2 SWAP1 PUSH2 0x1A96 JUMP JUMPDEST PUSH1 0x40 MLOAD PUSH1 0x20 DUP2 DUP4 SUB SUB DUP2 MSTORE SWAP1 PUSH1 0x40 MSTORE DUP1 MLOAD SWAP1 PUSH1 0x20 ADD KECCAK256 DUP4 PUSH1 0x40 MLOAD PUSH1 0x20 ADD PUSH2 0x11B6 SWAP2 SWAP1 PUSH2 0x1A7F JUMP JUMPDEST PUSH1 0x40 MLOAD PUSH1 0x20 DUP2 DUP4 SUB SUB DUP2 MSTORE SWAP1 PUSH1 0x40 MSTORE DUP1 MLOAD SWAP1 PUSH1 0x20 ADD KECCAK256 EQ JUMPDEST ISZERO PUSH2 0x11DD JUMPI PUSH1 0x1 SWAP2 POP POP PUSH2 0x11F0 JUMP JUMPDEST DUP1 DUP1 PUSH1 0x1 ADD SWAP2 POP POP PUSH2 0x10B8 JUMP JUMPDEST POP PUSH1 0x0 SWAP1 POP JUMPDEST SWAP4 SWAP3 POP POP POP JUMP JUMPDEST PUSH1 0x0 DUP1 SLOAD SWAP1 PUSH2 0x100 EXP SWAP1 DIV PUSH20 0xFFFFFFFFFFFFFFFFFFFFFFFFFFFFFFFFFFFFFFFF AND PUSH20 0xFFFFFFFFFFFFFFFFFFFFFFFFFFFFFFFFFFFFFFFF AND CALLER PUSH20 0xFFFFFFFFFFFFFFFFFFFFFFFFFFFFFFFFFFFFFFFF AND EQ PUSH2 0x124F JUMPI PUSH1 0x0 DUP1 REVERT JUMPDEST PUSH1 0x0 JUMPDEST PUSH1 0x1 DUP1 SLOAD SWAP1 POP DUP2 LT ISZERO PUSH2 0x1354 JUMPI PUSH1 0x0 PUSH1 0x1 DUP3 DUP2 SLOAD DUP2 LT PUSH2 0x126E JUMPI INVALID JUMPDEST SWAP1 PUSH1 0x0 MSTORE PUSH1 0x20 PUSH1 0x0 KECCAK256 SWAP1 PUSH1 0x4 MUL ADD SWAP1 POP DUP1 PUSH1 0x0 ADD SLOAD DUP6 EQ ISZERO PUSH2 0x1346 JUMPI PUSH1 0x0 JUMPDEST DUP2 PUSH1 0x3 ADD DUP1 SLOAD SWAP1 POP DUP2 LT ISZERO PUSH2 0x1344 JUMPI DUP5 PUSH1 0x40 MLOAD PUSH1 0x20 ADD PUSH2 0x12AD SWAP2 SWAP1 PUSH2 0x1A7F JUMP JUMPDEST PUSH1 0x40 MLOAD PUSH1 0x20 DUP2 DUP4 SUB SUB DUP2 MSTORE SWAP1 PUSH1 0x40 MSTORE DUP1 MLOAD SWAP1 PUSH1 0x20 ADD KECCAK256 DUP3 PUSH1 0x3 ADD DUP3 DUP2 SLOAD DUP2 LT PUSH2 0x12D2 JUMPI INVALID JUMPDEST SWAP1 PUSH1 0x0 MSTORE PUSH1 0x20 PUSH1 0x0 KECCAK256 ADD PUSH1 0x40 MLOAD PUSH1 0x20 ADD PUSH2 0x12EC SWAP2 SWAP1 PUSH2 0x1A96 JUMP JUMPDEST PUSH1 0x40 MLOAD PUSH1 0x20 DUP2 DUP4 SUB SUB DUP2 MSTORE SWAP1 PUSH1 0x40 MSTORE DUP1 MLOAD SWAP1 PUSH1 0x20 ADD KECCAK256 EQ ISZERO PUSH2 0x1337 JUMPI DUP4 DUP3 PUSH1 0x3 ADD DUP3 DUP2 SLOAD DUP2 LT PUSH2 0x1318 JUMPI INVALID JUMPDEST SWAP1 PUSH1 0x0 MSTORE PUSH1 0x20 PUSH1 0x0 KECCAK256 ADD SWAP1 DUP1 MLOAD SWAP1 PUSH1 0x20 ADD SWAP1 PUSH2 0x1335 SWAP3 SWAP2 SWAP1 PUSH2 0x135A JUMP JUMPDEST POP JUMPDEST DUP1 DUP1 PUSH1 0x1 ADD SWAP2 POP POP PUSH2 0x128D JUMP JUMPDEST POP JUMPDEST POP DUP1 DUP1 PUSH1 0x1 ADD SWAP2 POP POP PUSH2 0x1252 JUMP JUMPDEST POP POP POP POP JUMP JUMPDEST DUP3 DUP1 SLOAD PUSH1 0x1 DUP2 PUSH1 0x1 AND ISZERO PUSH2 0x100 MUL SUB AND PUSH1 0x2 SWAP1 DIV SWAP1 PUSH1 0x0 MSTORE PUSH1 0x20 PUSH1 0x0 KECCAK256 SWAP1 PUSH1 0x1F ADD PUSH1 0x20 SWAP1 DIV DUP2 ADD SWAP3 DUP3 PUSH1 0x1F LT PUSH2 0x139B JUMPI DUP1 MLOAD PUSH1 0xFF NOT AND DUP4 DUP1 ADD OR DUP6 SSTORE PUSH2 0x13C9 JUMP JUMPDEST DUP3 DUP1 ADD PUSH1 0x1 ADD DUP6 SSTORE DUP3 ISZERO PUSH2 0x13C9 JUMPI SWAP2 DUP3 ADD JUMPDEST DUP3 DUP2 GT ISZERO PUSH2 0x13C8 JUMPI DUP3 MLOAD DUP3 SSTORE SWAP2 PUSH1 0x20 ADD SWAP2 SWAP1 PUSH1 0x1 ADD SWAP1 PUSH2 0x13AD JUMP JUMPDEST JUMPDEST POP SWAP1 POP PUSH2 0x13D6 SWAP2 SWAP1 PUSH2 0x1649 JUMP JUMPDEST POP SWAP1 JUMP JUMPDEST DUP3 DUP1 SLOAD PUSH1 0x1 DUP2 PUSH1 0x1 AND ISZERO PUSH2 0x100 MUL SUB AND PUSH1 0x2 SWAP1 DIV SWAP1 PUSH1 0x0 MSTORE PUSH1 0x20 PUSH1 0x0 KECCAK256 SWAP1 PUSH1 0x1F ADD PUSH1 0x20 SWAP1 DIV DUP2 ADD SWAP3 DUP3 PUSH1 0x1F LT PUSH2 0x1413 JUMPI DUP1 SLOAD DUP6 SSTORE PUSH2 0x1450 JUMP JUMPDEST DUP3 DUP1 ADD PUSH1 0x1 ADD DUP6 SSTORE DUP3 ISZERO PUSH2 0x1450 JUMPI PUSH1 0x0 MSTORE PUSH1 0x20 PUSH1 0x0 KECCAK256 SWAP2 PUSH1 0x1F ADD PUSH1 0x20 SWAP1 DIV DUP3 ADD JUMPDEST DUP3 DUP2 GT ISZERO PUSH2 0x144F JUMPI DUP3 SLOAD DUP3 SSTORE SWAP2 PUSH1 0x1 ADD SWAP2 SWAP1 PUSH1 0x1 ADD SWAP1 PUSH2 0x1434 JUMP JUMPDEST JUMPDEST POP SWAP1 POP PUSH2 0x145D SWAP2 SWAP1 PUSH2 0x1649 JUMP JUMPDEST POP SWAP1 JUMP JUMPDEST POP DUP1 SLOAD PUSH1 0x1 DUP2 PUSH1 0x1 AND ISZERO PUSH2 0x100 MUL SUB AND PUSH1 0x2 SWAP1 DIV PUSH1 0x0 DUP3 SSTORE DUP1 PUSH1 0x1F LT PUSH2 0x1487 JUMPI POP PUSH2 0x14A6 JUMP JUMPDEST PUSH1 0x1F ADD PUSH1 0x20 SWAP1 DIV SWAP1 PUSH1 0x0 MSTORE PUSH1 0x20 PUSH1 0x0 KECCAK256 SWAP1 DUP2 ADD SWAP1 PUSH2 0x14A5 SWAP2 SWAP1 PUSH2 0x1649 JUMP JUMPDEST JUMPDEST POP JUMP JUMPDEST PUSH1 0x40 MLOAD DUP1 PUSH1 0x80 ADD PUSH1 0x40 MSTORE DUP1 PUSH1 0x0 DUP2 MSTORE PUSH1 0x20 ADD PUSH1 0x60 DUP2 MSTORE PUSH1 0x20 ADD PUSH1 0x60 DUP2 MSTORE PUSH1 0x20 ADD PUSH1 0x60 DUP2 MSTORE POP SWAP1 JUMP JUMPDEST DUP3 DUP1 SLOAD DUP3 DUP3 SSTORE SWAP1 PUSH1 0x0 MSTORE PUSH1 0x20 PUSH1 0x0 KECCAK256 SWAP1 DUP2 ADD SWAP3 DUP3 ISZERO PUSH2 0x1520 JUMPI SWAP2 PUSH1 0x20 MUL DUP3 ADD JUMPDEST DUP3 DUP2 GT ISZERO PUSH2 0x151F JUMPI DUP3 MLOAD DUP3 SWAP1 DUP1 MLOAD SWAP1 PUSH1 0x20 ADD SWAP1 PUSH2 0x150F SWAP3 SWAP2 SWAP1 PUSH2 0x135A JUMP JUMPDEST POP SWAP2 PUSH1 0x20 ADD SWAP2 SWAP1 PUSH1 0x1 ADD SWAP1 PUSH2 0x14F1 JUMP JUMPDEST JUMPDEST POP SWAP1 POP PUSH2 0x152D SWAP2 SWAP1 PUSH2 0x1666 JUMP JUMPDEST POP SWAP1 JUMP JUMPDEST DUP3 DUP1 SLOAD PUSH1 0x1 DUP2 PUSH1 0x1 AND ISZERO PUSH2 0x100 MUL SUB AND PUSH1 0x2 SWAP1 DIV SWAP1 PUSH1 0x0 MSTORE PUSH1 0x20 PUSH1 0x0 KECCAK256 SWAP1 PUSH1 0x1F ADD PUSH1 0x20 SWAP1 DIV DUP2 ADD SWAP3 DUP3 PUSH1 0x1F LT PUSH2 0x156A JUMPI DUP1 SLOAD DUP6 SSTORE PUSH2 0x15A7 JUMP JUMPDEST DUP3 DUP1 ADD PUSH1 0x1 ADD DUP6 SSTORE DUP3 ISZERO PUSH2 0x15A7 JUMPI PUSH1 0x0 MSTORE PUSH1 0x20 PUSH1 0x0 KECCAK256 SWAP2 PUSH1 0x1F ADD PUSH1 0x20 SWAP1 DIV DUP3 ADD JUMPDEST DUP3 DUP2 GT ISZERO PUSH2 0x15A6 JUMPI DUP3 SLOAD DUP3 SSTORE SWAP2 PUSH1 0x1 ADD SWAP2 SWAP1 PUSH1 0x1 ADD SWAP1 PUSH2 0x158B JUMP JUMPDEST JUMPDEST POP SWAP1 POP PUSH2 0x15B4 SWAP2 SWAP1 PUSH2 0x1649 JUMP JUMPDEST POP SWAP1 JUMP JUMPDEST DUP3 DUP1 SLOAD DUP3 DUP3 SSTORE SWAP1 PUSH1 0x0 MSTORE PUSH1 0x20 PUSH1 0x0 KECCAK256 SWAP1 DUP2 ADD SWAP3 DUP3 ISZERO PUSH2 0x1617 JUMPI PUSH1 0x0 MSTORE PUSH1 0x20 PUSH1 0x0 KECCAK256 SWAP2 DUP3 ADD JUMPDEST DUP3 DUP2 GT ISZERO PUSH2 0x1616 JUMPI DUP3 DUP3 SWAP1 DUP1 SLOAD PUSH1 0x1 DUP2 PUSH1 0x1 AND ISZERO PUSH2 0x100 MUL SUB AND PUSH1 0x2 SWAP1 DIV PUSH2 0x1606 SWAP3 SWAP2 SWAP1 PUSH2 0x1531 JUMP JUMPDEST POP SWAP2 PUSH1 0x1 ADD SWAP2 SWAP1 PUSH1 0x1 ADD SWAP1 PUSH2 0x15DD JUMP JUMPDEST JUMPDEST POP SWAP1 POP PUSH2 0x1624 SWAP2 SWAP1 PUSH2 0x1666 JUMP JUMPDEST POP SWAP1 JUMP JUMPDEST POP DUP1 SLOAD PUSH1 0x0 DUP3 SSTORE SWAP1 PUSH1 0x0 MSTORE PUSH1 0x20 PUSH1 0x0 KECCAK256 SWAP1 DUP2 ADD SWAP1 PUSH2 0x1646 SWAP2 SWAP1 PUSH2 0x1666 JUMP JUMPDEST POP JUMP JUMPDEST JUMPDEST DUP1 DUP3 GT ISZERO PUSH2 0x1662 JUMPI PUSH1 0x0 DUP2 PUSH1 0x0 SWAP1 SSTORE POP PUSH1 0x1 ADD PUSH2 0x164A JUMP JUMPDEST POP SWAP1 JUMP JUMPDEST JUMPDEST DUP1 DUP3 GT ISZERO PUSH2 0x1686 JUMPI PUSH1 0x0 DUP2 DUP2 PUSH2 0x167D SWAP2 SWAP1 PUSH2 0x1461 JUMP JUMPDEST POP PUSH1 0x1 ADD PUSH2 0x1667 JUMP JUMPDEST POP SWAP1 JUMP JUMPDEST PUSH1 0x0 DUP3 PUSH1 0x1F DUP4 ADD SLT PUSH2 0x169B JUMPI PUSH1 0x0 DUP1 REVERT JUMPDEST DUP2 CALLDATALOAD PUSH2 0x16AE PUSH2 0x16A9 DUP3 PUSH2 0x1B7E JUMP JUMPDEST PUSH2 0x1B51 JUMP JUMPDEST SWAP2 POP DUP1 DUP3 MSTORE PUSH1 0x20 DUP4 ADD PUSH1 0x20 DUP4 ADD DUP6 DUP4 DUP4 ADD GT ISZERO PUSH2 0x16CA JUMPI PUSH1 0x0 DUP1 REVERT JUMPDEST PUSH2 0x16D5 DUP4 DUP3 DUP5 PUSH2 0x1C6E JUMP JUMPDEST POP POP POP SWAP3 SWAP2 POP POP JUMP JUMPDEST PUSH1 0x0 DUP2 CALLDATALOAD SWAP1 POP PUSH2 0x16ED DUP2 PUSH2 0x1CC1 JUMP JUMPDEST SWAP3 SWAP2 POP POP JUMP JUMPDEST PUSH1 0x0 DUP1 PUSH1 0x40 DUP4 DUP6 SUB SLT ISZERO PUSH2 0x1706 JUMPI PUSH1 0x0 DUP1 REVERT JUMPDEST PUSH1 0x0 DUP4 ADD CALLDATALOAD PUSH8 0xFFFFFFFFFFFFFFFF DUP2 GT ISZERO PUSH2 0x1720 JUMPI PUSH1 0x0 DUP1 REVERT JUMPDEST PUSH2 0x172C DUP6 DUP3 DUP7 ADD PUSH2 0x168A JUMP JUMPDEST SWAP3 POP POP PUSH1 0x20 DUP4 ADD CALLDATALOAD PUSH8 0xFFFFFFFFFFFFFFFF DUP2 GT ISZERO PUSH2 0x1749 JUMPI PUSH1 0x0 DUP1 REVERT JUMPDEST PUSH2 0x1755 DUP6 DUP3 DUP7 ADD PUSH2 0x168A JUMP JUMPDEST SWAP2 POP POP SWAP3 POP SWAP3 SWAP1 POP JUMP JUMPDEST PUSH1 0x0 PUSH1 0x20 DUP3 DUP5 SUB SLT ISZERO PUSH2 0x1771 JUMPI PUSH1 0x0 DUP1 REVERT JUMPDEST PUSH1 0x0 PUSH2 0x177F DUP5 DUP3 DUP6 ADD PUSH2 0x16DE JUMP JUMPDEST SWAP2 POP POP SWAP3 SWAP2 POP POP JUMP JUMPDEST PUSH1 0x0 DUP1 PUSH1 0x40 DUP4 DUP6 SUB SLT ISZERO PUSH2 0x179B JUMPI PUSH1 0x0 DUP1 REVERT JUMPDEST PUSH1 0x0 PUSH2 0x17A9 DUP6 DUP3 DUP7 ADD PUSH2 0x16DE JUMP JUMPDEST SWAP3 POP POP PUSH1 0x20 DUP4 ADD CALLDATALOAD PUSH8 0xFFFFFFFFFFFFFFFF DUP2 GT ISZERO PUSH2 0x17C6 JUMPI PUSH1 0x0 DUP1 REVERT JUMPDEST PUSH2 0x17D2 DUP6 DUP3 DUP7 ADD PUSH2 0x168A JUMP JUMPDEST SWAP2 POP POP SWAP3 POP SWAP3 SWAP1 POP JUMP JUMPDEST PUSH1 0x0 DUP1 PUSH1 0x0 PUSH1 0x60 DUP5 DUP7 SUB SLT ISZERO PUSH2 0x17F1 JUMPI PUSH1 0x0 DUP1 REVERT JUMPDEST PUSH1 0x0 PUSH2 0x17FF DUP7 DUP3 DUP8 ADD PUSH2 0x16DE JUMP JUMPDEST SWAP4 POP POP PUSH1 0x20 DUP5 ADD CALLDATALOAD PUSH8 0xFFFFFFFFFFFFFFFF DUP2 GT ISZERO PUSH2 0x181C JUMPI PUSH1 0x0 DUP1 REVERT JUMPDEST PUSH2 0x1828 DUP7 DUP3 DUP8 ADD PUSH2 0x168A JUMP JUMPDEST SWAP3 POP POP PUSH1 0x40 DUP5 ADD CALLDATALOAD PUSH8 0xFFFFFFFFFFFFFFFF DUP2 GT ISZERO PUSH2 0x1845 JUMPI PUSH1 0x0 DUP1 REVERT JUMPDEST PUSH2 0x1851 DUP7 DUP3 DUP8 ADD PUSH2 0x168A JUMP JUMPDEST SWAP2 POP POP SWAP3 POP SWAP3 POP SWAP3 JUMP JUMPDEST PUSH1 0x0 PUSH2 0x1867 DUP4 DUP4 PUSH2 0x1969 JUMP JUMPDEST SWAP1 POP SWAP3 SWAP2 POP POP JUMP JUMPDEST PUSH1 0x0 PUSH2 0x187B DUP4 DUP4 PUSH2 0x1A61 JUMP JUMPDEST PUSH1 0x20 DUP4 ADD SWAP1 POP SWAP3 SWAP2 POP POP JUMP JUMPDEST PUSH1 0x0 PUSH2 0x1892 DUP3 PUSH2 0x1BDF JUMP JUMPDEST PUSH2 0x189C DUP2 DUP6 PUSH2 0x1C1A JUMP JUMPDEST SWAP4 POP DUP4 PUSH1 0x20 DUP3 MUL DUP6 ADD PUSH2 0x18AE DUP6 PUSH2 0x1BAA JUMP JUMPDEST DUP1 PUSH1 0x0 JUMPDEST DUP6 DUP2 LT ISZERO PUSH2 0x18EA JUMPI DUP5 DUP5 SUB DUP10 MSTORE DUP2 MLOAD PUSH2 0x18CB DUP6 DUP3 PUSH2 0x185B JUMP JUMPDEST SWAP5 POP PUSH2 0x18D6 DUP4 PUSH2 0x1C00 JUMP JUMPDEST SWAP3 POP PUSH1 0x20 DUP11 ADD SWAP10 POP POP PUSH1 0x1 DUP2 ADD SWAP1 POP PUSH2 0x18B2 JUMP JUMPDEST POP DUP3 SWAP8 POP DUP8 SWAP6 POP POP POP POP POP POP SWAP3 SWAP2 POP POP JUMP JUMPDEST PUSH1 0x0 PUSH2 0x1907 DUP3 PUSH2 0x1BEA JUMP JUMPDEST PUSH2 0x1911 DUP2 DUP6 PUSH2 0x1C2B JUMP JUMPDEST SWAP4 POP PUSH2 0x191C DUP4 PUSH2 0x1BBA JUMP JUMPDEST DUP1 PUSH1 0x0 JUMPDEST DUP4 DUP2 LT ISZERO PUSH2 0x194D JUMPI DUP2 MLOAD PUSH2 0x1934 DUP9 DUP3 PUSH2 0x186F JUMP JUMPDEST SWAP8 POP PUSH2 0x193F DUP4 PUSH2 0x1C0D JUMP JUMPDEST SWAP3 POP POP PUSH1 0x1 DUP2 ADD SWAP1 POP PUSH2 0x1920 JUMP JUMPDEST POP DUP6 SWAP4 POP POP POP POP SWAP3 SWAP2 POP POP JUMP JUMPDEST PUSH2 0x1963 DUP2 PUSH2 0x1C58 JUMP JUMPDEST DUP3 MSTORE POP POP JUMP JUMPDEST PUSH1 0x0 PUSH2 0x1974 DUP3 PUSH2 0x1BF5 JUMP JUMPDEST PUSH2 0x197E DUP2 DUP6 PUSH2 0x1C3C JUMP JUMPDEST SWAP4 POP PUSH2 0x198E DUP2 DUP6 PUSH1 0x20 DUP7 ADD PUSH2 0x1C7D JUMP JUMPDEST PUSH2 0x1997 DUP2 PUSH2 0x1CB0 JUMP JUMPDEST DUP5 ADD SWAP2 POP POP SWAP3 SWAP2 POP POP JUMP JUMPDEST PUSH1 0x0 PUSH2 0x19AD DUP3 PUSH2 0x1BF5 JUMP JUMPDEST PUSH2 0x19B7 DUP2 DUP6 PUSH2 0x1C4D JUMP JUMPDEST SWAP4 POP PUSH2 0x19C7 DUP2 DUP6 PUSH1 0x20 DUP7 ADD PUSH2 0x1C7D JUMP JUMPDEST DUP1 DUP5 ADD SWAP2 POP POP SWAP3 SWAP2 POP POP JUMP JUMPDEST PUSH1 0x0 DUP2 SLOAD PUSH1 0x1 DUP2 AND PUSH1 0x0 DUP2 EQ PUSH2 0x19F0 JUMPI PUSH1 0x1 DUP2 EQ PUSH2 0x1A15 JUMPI PUSH2 0x1A59 JUMP JUMPDEST PUSH1 0x7F PUSH1 0x2 DUP4 DIV AND PUSH2 0x1A01 DUP2 DUP8 PUSH2 0x1C4D JUMP JUMPDEST SWAP6 POP PUSH1 0xFF NOT DUP4 AND DUP7 MSTORE DUP1 DUP7 ADD SWAP4 POP POP PUSH2 0x1A59 JUMP JUMPDEST PUSH1 0x2 DUP3 DIV PUSH2 0x1A23 DUP2 DUP8 PUSH2 0x1C4D JUMP JUMPDEST SWAP6 POP PUSH2 0x1A2E DUP6 PUSH2 0x1BCA JUMP JUMPDEST PUSH1 0x0 JUMPDEST DUP3 DUP2 LT ISZERO PUSH2 0x1A50 JUMPI DUP2 SLOAD DUP2 DUP10 ADD MSTORE PUSH1 0x1 DUP3 ADD SWAP2 POP PUSH1 0x20 DUP2 ADD SWAP1 POP PUSH2 0x1A31 JUMP JUMPDEST DUP3 DUP9 ADD SWAP6 POP POP POP POP JUMPDEST POP POP SWAP3 SWAP2 POP POP JUMP JUMPDEST PUSH2 0x1A6A DUP2 PUSH2 0x1C64 JUMP JUMPDEST DUP3 MSTORE POP POP JUMP JUMPDEST PUSH2 0x1A79 DUP2 PUSH2 0x1C64 JUMP JUMPDEST DUP3 MSTORE POP POP JUMP JUMPDEST PUSH1 0x0 PUSH2 0x1A8B DUP3 DUP5 PUSH2 0x19A2 JUMP JUMPDEST SWAP2 POP DUP2 SWAP1 POP SWAP3 SWAP2 POP POP JUMP JUMPDEST PUSH1 0x0 PUSH2 0x1AA2 DUP3 DUP5 PUSH2 0x19D3 JUMP JUMPDEST SWAP2 POP DUP2 SWAP1 POP SWAP3 SWAP2 POP POP JUMP JUMPDEST PUSH1 0x0 PUSH1 0x20 DUP3 ADD SWAP1 POP DUP2 DUP2 SUB PUSH1 0x0 DUP4 ADD MSTORE PUSH2 0x1AC7 DUP2 DUP5 PUSH2 0x1887 JUMP JUMPDEST SWAP1 POP SWAP3 SWAP2 POP POP JUMP JUMPDEST PUSH1 0x0 PUSH1 0x60 DUP3 ADD SWAP1 POP DUP2 DUP2 SUB PUSH1 0x0 DUP4 ADD MSTORE PUSH2 0x1AE9 DUP2 DUP7 PUSH2 0x18FC JUMP JUMPDEST SWAP1 POP DUP2 DUP2 SUB PUSH1 0x20 DUP4 ADD MSTORE PUSH2 0x1AFD DUP2 DUP6 PUSH2 0x1887 JUMP JUMPDEST SWAP1 POP DUP2 DUP2 SUB PUSH1 0x40 DUP4 ADD MSTORE PUSH2 0x1B11 DUP2 DUP5 PUSH2 0x1887 JUMP JUMPDEST SWAP1 POP SWAP5 SWAP4 POP POP POP POP JUMP JUMPDEST PUSH1 0x0 PUSH1 0x20 DUP3 ADD SWAP1 POP PUSH2 0x1B30 PUSH1 0x0 DUP4 ADD DUP5 PUSH2 0x195A JUMP JUMPDEST SWAP3 SWAP2 POP POP JUMP JUMPDEST PUSH1 0x0 PUSH1 0x20 DUP3 ADD SWAP1 POP PUSH2 0x1B4B PUSH1 0x0 DUP4 ADD DUP5 PUSH2 0x1A70 JUMP JUMPDEST SWAP3 SWAP2 POP POP JUMP JUMPDEST PUSH1 0x0 PUSH1 0x40 MLOAD SWAP1 POP DUP2 DUP2 ADD DUP2 DUP2 LT PUSH8 0xFFFFFFFFFFFFFFFF DUP3 GT OR ISZERO PUSH2 0x1B74 JUMPI PUSH1 0x0 DUP1 REVERT JUMPDEST DUP1 PUSH1 0x40 MSTORE POP SWAP2 SWAP1 POP JUMP JUMPDEST PUSH1 0x0 PUSH8 0xFFFFFFFFFFFFFFFF DUP3 GT ISZERO PUSH2 0x1B95 JUMPI PUSH1 0x0 DUP1 REVERT JUMPDEST PUSH1 0x1F NOT PUSH1 0x1F DUP4 ADD AND SWAP1 POP PUSH1 0x20 DUP2 ADD SWAP1 POP SWAP2 SWAP1 POP JUMP JUMPDEST PUSH1 0x0 DUP2 SWAP1 POP PUSH1 0x20 DUP3 ADD SWAP1 POP SWAP2 SWAP1 POP JUMP JUMPDEST PUSH1 0x0 DUP2 SWAP1 POP PUSH1 0x20 DUP3 ADD SWAP1 POP SWAP2 SWAP1 POP JUMP JUMPDEST PUSH1 0x0 DUP2 SWAP1 POP DUP2 PUSH1 0x0 MSTORE PUSH1 0x20 PUSH1 0x0 KECCAK256 SWAP1 POP SWAP2 SWAP1 POP JUMP JUMPDEST PUSH1 0x0 DUP2 MLOAD SWAP1 POP SWAP2 SWAP1 POP JUMP JUMPDEST PUSH1 0x0 DUP2 MLOAD SWAP1 POP SWAP2 SWAP1 POP JUMP JUMPDEST PUSH1 0x0 DUP2 MLOAD SWAP1 POP SWAP2 SWAP1 POP JUMP JUMPDEST PUSH1 0x0 PUSH1 0x20 DUP3 ADD SWAP1 POP SWAP2 SWAP1 POP JUMP JUMPDEST PUSH1 0x0 PUSH1 0x20 DUP3 ADD SWAP1 POP SWAP2 SWAP1 POP JUMP JUMPDEST PUSH1 0x0 DUP3 DUP3 MSTORE PUSH1 0x20 DUP3 ADD SWAP1 POP SWAP3 SWAP2 POP POP JUMP JUMPDEST PUSH1 0x0 DUP3 DUP3 MSTORE PUSH1 0x20 DUP3 ADD SWAP1 POP SWAP3 SWAP2 POP POP JUMP JUMPDEST PUSH1 0x0 DUP3 DUP3 MSTORE PUSH1 0x20 DUP3 ADD SWAP1 POP SWAP3 SWAP2 POP POP JUMP JUMPDEST PUSH1 0x0 DUP2 SWAP1 POP SWAP3 SWAP2 POP POP JUMP JUMPDEST PUSH1 0x0 DUP2 ISZERO ISZERO SWAP1 POP SWAP2 SWAP1 POP JUMP JUMPDEST PUSH1 0x0 DUP2 SWAP1 POP SWAP2 SWAP1 POP JUMP JUMPDEST DUP3 DUP2 DUP4 CALLDATACOPY PUSH1 0x0 DUP4 DUP4 ADD MSTORE POP POP POP JUMP JUMPDEST PUSH1 0x0 JUMPDEST DUP4 DUP2 LT ISZERO PUSH2 0x1C9B JUMPI DUP1 DUP3 ADD MLOAD DUP2 DUP5 ADD MSTORE PUSH1 0x20 DUP2 ADD SWAP1 POP PUSH2 0x1C80 JUMP JUMPDEST DUP4 DUP2 GT ISZERO PUSH2 0x1CAA JUMPI PUSH1 0x0 DUP5 DUP5 ADD MSTORE JUMPDEST POP POP POP POP JUMP JUMPDEST PUSH1 0x0 PUSH1 0x1F NOT PUSH1 0x1F DUP4 ADD AND SWAP1 POP SWAP2 SWAP1 POP JUMP JUMPDEST PUSH2 0x1CCA DUP2 PUSH2 0x1C64 JUMP JUMPDEST DUP2 EQ PUSH2 0x1CD5 JUMPI PUSH1 0x0 DUP1 REVERT JUMPDEST POP JUMP INVALID LOG2 PUSH5 0x6970667358 0x22 SLT KECCAK256 NUMBER EXP CALLER DUP14 CODESIZE PUSH16 0xE9238757744A6A82CE24E75E1F34C1AA DUP5 0xD6 0xAE 0xF7 TIMESTAMP 0xB0 0x1E 0xCF JUMPDEST LOG0 PUSH5 0x736F6C6343 STOP MOD 0xC STOP CALLER "
    },
    "gasEstimates": {
      "creation": {
        "codeDepositCost": "1487600",
        "executionCost": "32449",
        "totalCost": "1520049"
      },
      "external": {
        "addClient(string,string)": "infinite",
        "addTopic(uint256,string)": "infinite",
        "authenticate(uint256,string,string)": "infinite",
        "authorize(uint256,string)": "infinite",
        "changed()": "1172",
        "deleteClient(uint256)": "infinite",
        "deleteTopic(uint256,string)": "infinite",
        "getClients()": "infinite",
        "getClientsCount()": "2030",
        "getTopic(uint256)": "infinite",
        "updateTopic(uint256,string,string)": "infinite"
      }
    },
    "methodIdentifiers": {
      "addClient(string,string)": "98173ff4",
      "addTopic(uint256,string)": "3276807a",
      "authenticate(uint256,string,string)": "c4ae2f26",
      "authorize(uint256,string)": "52bfd15c",
      "changed()": "0d3a6aee",
      "deleteClient(uint256)": "a9cb1a36",
      "deleteTopic(uint256,string)": "42bb20e1",
      "getClients()": "6db80995",
      "getClientsCount()": "30a66294",
      "getTopic(uint256)": "71658896",
      "updateTopic(uint256,string,string)": "e8e5339a"
    }
  },
  "storageLayout": {
    "storage": [
      {
        "astId": 4,
        "contract": "Mqttsc.sol:Mqttsc",
        "label": "manager",
        "offset": 0,
        "slot": "0",
        "type": "t_address_payable"
      },
      {
        "astId": 17,
        "contract": "Mqttsc.sol:Mqttsc",
        "label": "clientLedger",
        "offset": 0,
        "slot": "1",
        "type": "t_array(t_struct(Client)14_storage)dyn_storage"
      },
      {
        "astId": 19,
        "contract": "Mqttsc.sol:Mqttsc",
        "label": "clientCount",
        "offset": 0,
        "slot": "2",
        "type": "t_uint256"
      },
      {
        "astId": 21,
        "contract": "Mqttsc.sol:Mqttsc",
        "label": "idCount",
        "offset": 0,
        "slot": "3",
        "type": "t_uint256"
      },
      {
        "astId": 23,
        "contract": "Mqttsc.sol:Mqttsc",
        "label": "changed",
        "offset": 0,
        "slot": "4",
        "type": "t_bool"
      }
    ],
    "types": {
      "t_address_payable": {
        "encoding": "inplace",
        "label": "address payable",
        "numberOfBytes": "20"
      },
      "t_array(t_string_storage)dyn_storage": {
        "base": "t_string_storage",
        "encoding": "dynamic_array",
        "label": "string[]",
        "numberOfBytes": "32"
      },
      "t_array(t_struct(Client)14_storage)dyn_storage": {
        "base": "t_struct(Client)14_storage",
        "encoding": "dynamic_array",
        "label": "struct Mqttsc.Client[]",
        "numberOfBytes": "32"
      },
      "t_bool": {
        "encoding": "inplace",
        "label": "bool",
        "numberOfBytes": "1"
      },
      "t_string_storage": {
        "encoding": "bytes",
        "label": "string",
        "numberOfBytes": "32"
      },
      "t_struct(Client)14_storage": {
        "encoding": "inplace",
        "label": "struct Mqttsc.Client",
        "members": [
          {
            "astId": 6,
            "contract": "Mqttsc.sol:Mqttsc",
            "label": "id",
            "offset": 0,
            "slot": "0",
            "type": "t_uint256"
          },
          {
            "astId": 8,
            "contract": "Mqttsc.sol:Mqttsc",
            "label": "username",
            "offset": 0,
            "slot": "1",
            "type": "t_string_storage"
          },
          {
            "astId": 10,
            "contract": "Mqttsc.sol:Mqttsc",
            "label": "password",
            "offset": 0,
            "slot": "2",
            "type": "t_string_storage"
          },
          {
            "astId": 13,
            "contract": "Mqttsc.sol:Mqttsc",
            "label": "topic",
            "offset": 0,
            "slot": "3",
            "type": "t_array(t_string_storage)dyn_storage"
          }
        ],
        "numberOfBytes": "128"
      },
      "t_uint256": {
        "encoding": "inplace",
        "label": "uint256",
        "numberOfBytes": "32"
      }
    }
  },
  "userdoc": {
    "kind": "user",
    "methods": {},
    "version": 1
  }
}