{
  "abi": [
    {
      "inputs": [],
      "stateMutability": "nonpayable",
      "type": "constructor"
    },
    {
      "anonymous": false,
      "inputs": [
        {
          "indexed": false,
          "internalType": "string",
          "name": "logerror",
          "type": "string"
        }
      ],
      "name": "check",
      "type": "event"
    },
    {
      "anonymous": false,
      "inputs": [
        {
          "indexed": false,
          "internalType": "bytes32",
          "name": "_tokenreturn",
          "type": "bytes32"
        }
      ],
      "name": "ref_token",
      "type": "event"
    },
    {
      "inputs": [
        {
          "internalType": "address payable",
          "name": "_brokeraddress",
          "type": "address"
        }
      ],
      "name": "addBroker",
      "outputs": [],
      "stateMutability": "nonpayable",
      "type": "function"
    },
    {
      "inputs": [
        {
          "internalType": "string",
          "name": "_username",
          "type": "string"
        },
        {
          "internalType": "string",
          "name": "_password",
          "type": "string"
        }
      ],
      "name": "addClient",
      "outputs": [],
      "stateMutability": "nonpayable",
      "type": "function"
    },
    {
      "inputs": [
        {
          "internalType": "uint256",
          "name": "_id",
          "type": "uint256"
        },
        {
          "internalType": "string",
          "name": "_topic",
          "type": "string"
        }
      ],
      "name": "addTopic",
      "outputs": [],
      "stateMutability": "nonpayable",
      "type": "function"
    },
    {
      "inputs": [
        {
          "internalType": "bytes32",
          "name": "_token",
          "type": "bytes32"
        },
        {
          "internalType": "uint256",
          "name": "_id",
          "type": "uint256"
        },
        {
          "internalType": "string",
          "name": "_username",
          "type": "string"
        },
        {
          "internalType": "string",
          "name": "_password",
          "type": "string"
        }
      ],
      "name": "authenticate",
      "outputs": [
        {
          "internalType": "bool",
          "name": "",
          "type": "bool"
        }
      ],
      "stateMutability": "view",
      "type": "function"
    },
    {
      "inputs": [
        {
          "internalType": "bytes32",
          "name": "_token",
          "type": "bytes32"
        },
        {
          "internalType": "uint256",
          "name": "_id",
          "type": "uint256"
        },
        {
          "internalType": "string",
          "name": "_topic",
          "type": "string"
        }
      ],
      "name": "authorize",
      "outputs": [
        {
          "internalType": "bool",
          "name": "",
          "type": "bool"
        }
      ],
      "stateMutability": "view",
      "type": "function"
    },
    {
      "inputs": [
        {
          "internalType": "bytes32",
          "name": "_token",
          "type": "bytes32"
        }
      ],
      "name": "checkAuthBroker",
      "outputs": [
        {
          "internalType": "bool",
          "name": "",
          "type": "bool"
        }
      ],
      "stateMutability": "view",
      "type": "function"
    },
    {
      "inputs": [
        {
          "internalType": "address payable",
          "name": "_brokeraddress",
          "type": "address"
        }
      ],
      "name": "deleteBroker",
      "outputs": [],
      "stateMutability": "nonpayable",
      "type": "function"
    },
    {
      "inputs": [
        {
          "internalType": "uint256",
          "name": "_id",
          "type": "uint256"
        }
      ],
      "name": "deleteClient",
      "outputs": [],
      "stateMutability": "nonpayable",
      "type": "function"
    },
    {
      "inputs": [
        {
          "internalType": "uint256",
          "name": "_id",
          "type": "uint256"
        },
        {
          "internalType": "string",
          "name": "_topic",
          "type": "string"
        }
      ],
      "name": "deleteTopic",
      "outputs": [],
      "stateMutability": "nonpayable",
      "type": "function"
    },
    {
      "inputs": [],
      "name": "getBroker",
      "outputs": [
        {
          "internalType": "address[]",
          "name": "",
          "type": "address[]"
        }
      ],
      "stateMutability": "view",
      "type": "function"
    },
    {
      "inputs": [],
      "name": "getClients",
      "outputs": [
        {
          "internalType": "uint256[]",
          "name": "",
          "type": "uint256[]"
        },
        {
          "internalType": "string[]",
          "name": "",
          "type": "string[]"
        },
        {
          "internalType": "string[]",
          "name": "",
          "type": "string[]"
        }
      ],
      "stateMutability": "view",
      "type": "function"
    },
    {
      "inputs": [],
      "name": "getClientsCount",
      "outputs": [
        {
          "internalType": "uint256",
          "name": "",
          "type": "uint256"
        }
      ],
      "stateMutability": "view",
      "type": "function"
    },
    {
      "inputs": [
        {
          "internalType": "uint256",
          "name": "_id",
          "type": "uint256"
        }
      ],
      "name": "getTopic",
      "outputs": [
        {
          "internalType": "string[]",
          "name": "",
          "type": "string[]"
        }
      ],
      "stateMutability": "view",
      "type": "function"
    },
    {
      "inputs": [],
      "name": "manager",
      "outputs": [
        {
          "internalType": "address payable",
          "name": "",
          "type": "address"
        }
      ],
      "stateMutability": "view",
      "type": "function"
    },
    {
      "inputs": [],
      "name": "refreshToken",
      "outputs": [],
      "stateMutability": "nonpayable",
      "type": "function"
    },
    {
      "inputs": [
        {
          "internalType": "uint256",
          "name": "_id",
          "type": "uint256"
        },
        {
          "internalType": "string",
          "name": "_topic",
          "type": "string"
        },
        {
          "internalType": "string",
          "name": "_newtopic",
          "type": "string"
        }
      ],
      "name": "updateTopic",
      "outputs": [],
      "stateMutability": "nonpayable",
      "type": "function"
    }
  ],
  "devdoc": {
    "kind": "dev",
    "methods": {},
    "version": 1
  },
  "evm": {
    "assembly": "    /* \"Mqttbaru.sol\":99:8384  contract Mqttbaru {\r... */\n  mstore(0x40, 0x80)\n    /* \"Mqttbaru.sol\":628:737  constructor () public {\r... */\n  callvalue\n  dup1\n  iszero\n  tag_1\n  jumpi\n  0x00\n  dup1\n  revert\ntag_1:\n  pop\n    /* \"Mqttbaru.sol\":671:681  msg.sender */\n  caller\n    /* \"Mqttbaru.sol\":661:668  manager */\n  0x00\n  dup1\n    /* \"Mqttbaru.sol\":661:681  manager = msg.sender */\n  0x0100\n  exp\n  dup2\n  sload\n  dup2\n  0xffffffffffffffffffffffffffffffffffffffff\n  mul\n  not\n  and\n  swap1\n  dup4\n  0xffffffffffffffffffffffffffffffffffffffff\n  and\n  mul\n  or\n  swap1\n  sstore\n  pop\n    /* \"Mqttbaru.sol\":706:707  0 */\n  0x00\n    /* \"Mqttbaru.sol\":692:703  clientCount */\n  0x04\n    /* \"Mqttbaru.sol\":692:707  clientCount = 0 */\n  dup2\n  swap1\n  sstore\n  pop\n    /* \"Mqttbaru.sol\":728:729  0 */\n  0x00\n    /* \"Mqttbaru.sol\":718:725  idCount */\n  0x06\n    /* \"Mqttbaru.sol\":718:729  idCount = 0 */\n  dup2\n  swap1\n  sstore\n  pop\n    /* \"Mqttbaru.sol\":99:8384  contract Mqttbaru {\r... */\n  dataSize(sub_0)\n  dup1\n  dataOffset(sub_0)\n  0x00\n  codecopy\n  0x00\n  return\nstop\n\nsub_0: assembly {\n        /* \"Mqttbaru.sol\":99:8384  contract Mqttbaru {\r... */\n      mstore(0x40, 0x80)\n      callvalue\n      dup1\n      iszero\n      tag_1\n      jumpi\n      0x00\n      dup1\n      revert\n    tag_1:\n      pop\n      jumpi(tag_2, lt(calldatasize, 0x04))\n      shr(0xe0, calldataload(0x00))\n      dup1\n      0x836cae65\n      gt\n      tag_19\n      jumpi\n      dup1\n      0xd1314ee0\n      gt\n      tag_20\n      jumpi\n      dup1\n      0xd1314ee0\n      eq\n      tag_15\n      jumpi\n      dup1\n      0xe58da61f\n      eq\n      tag_16\n      jumpi\n      dup1\n      0xe8e5339a\n      eq\n      tag_17\n      jumpi\n      dup1\n      0xfa6a04e4\n      eq\n      tag_18\n      jumpi\n      jump(tag_2)\n    tag_20:\n      dup1\n      0x836cae65\n      eq\n      tag_11\n      jumpi\n      dup1\n      0x98173ff4\n      eq\n      tag_12\n      jumpi\n      dup1\n      0xa9cb1a36\n      eq\n      tag_13\n      jumpi\n      dup1\n      0xbd28f228\n      eq\n      tag_14\n      jumpi\n      jump(tag_2)\n    tag_19:\n      dup1\n      0x481c6a75\n      gt\n      tag_21\n      jumpi\n      dup1\n      0x481c6a75\n      eq\n      tag_7\n      jumpi\n      dup1\n      0x6db80995\n      eq\n      tag_8\n      jumpi\n      dup1\n      0x71658896\n      eq\n      tag_9\n      jumpi\n      dup1\n      0x7909ce47\n      eq\n      tag_10\n      jumpi\n      jump(tag_2)\n    tag_21:\n      dup1\n      0x1ee32b05\n      eq\n      tag_3\n      jumpi\n      dup1\n      0x30a66294\n      eq\n      tag_4\n      jumpi\n      dup1\n      0x3276807a\n      eq\n      tag_5\n      jumpi\n      dup1\n      0x42bb20e1\n      eq\n      tag_6\n      jumpi\n    tag_2:\n      0x00\n      dup1\n      revert\n        /* \"Mqttbaru.sol\":2785:3219  function deleteBroker(address payable _brokeraddress) isManager public {\r... */\n    tag_3:\n      tag_22\n      0x04\n      dup1\n      calldatasize\n      sub\n      dup2\n      add\n      swap1\n      tag_23\n      swap2\n      swap1\n      tag_24\n      jump\t// in\n    tag_23:\n      tag_25\n      jump\t// in\n    tag_22:\n      stop\n        /* \"Mqttbaru.sol\":2672:2773  function getClientsCount() isManager public view returns (uint) {\r... */\n    tag_4:\n      tag_26\n      tag_27\n      jump\t// in\n    tag_26:\n      mload(0x40)\n      tag_28\n      swap2\n      swap1\n      tag_29\n      jump\t// in\n    tag_28:\n      mload(0x40)\n      dup1\n      swap2\n      sub\n      swap1\n      return\n        /* \"Mqttbaru.sol\":4748:5397  function addTopic(uint _id, string memory _topic) isManager public {\r... */\n    tag_5:\n      tag_30\n      0x04\n      dup1\n      calldatasize\n      sub\n      dup2\n      add\n      swap1\n      tag_31\n      swap2\n      swap1\n      tag_32\n      jump\t// in\n    tag_31:\n      tag_33\n      jump\t// in\n    tag_30:\n      stop\n        /* \"Mqttbaru.sol\":3569:4171  function deleteTopic(uint _id, string memory _topic) isManager public {\r... */\n    tag_6:\n      tag_34\n      0x04\n      dup1\n      calldatasize\n      sub\n      dup2\n      add\n      swap1\n      tag_35\n      swap2\n      swap1\n      tag_32\n      jump\t// in\n    tag_35:\n      tag_36\n      jump\t// in\n    tag_34:\n      stop\n        /* \"Mqttbaru.sol\":130:160  address payable public manager */\n    tag_7:\n      tag_37\n      tag_38\n      jump\t// in\n    tag_37:\n      mload(0x40)\n      tag_39\n      swap2\n      swap1\n      tag_40\n      jump\t// in\n    tag_39:\n      mload(0x40)\n      dup1\n      swap2\n      sub\n      swap1\n      return\n        /* \"Mqttbaru.sol\":6361:6977  function getClients() public isManager view returns (uint[] memory, string[] memory, string[] memory) {\r... */\n    tag_8:\n      tag_41\n      tag_42\n      jump\t// in\n    tag_41:\n      mload(0x40)\n      tag_43\n      swap4\n      swap3\n      swap2\n      swap1\n      tag_44\n      jump\t// in\n    tag_43:\n      mload(0x40)\n      dup1\n      swap2\n      sub\n      swap1\n      return\n        /* \"Mqttbaru.sol\":4183:4736  function getTopic(uint _id) isManager public view returns(string[] memory){\r... */\n    tag_9:\n      tag_45\n      0x04\n      dup1\n      calldatasize\n      sub\n      dup2\n      add\n      swap1\n      tag_46\n      swap2\n      swap1\n      tag_47\n      jump\t// in\n    tag_46:\n      tag_48\n      jump\t// in\n    tag_45:\n      mload(0x40)\n      tag_49\n      swap2\n      swap1\n      tag_50\n      jump\t// in\n    tag_49:\n      mload(0x40)\n      dup1\n      swap2\n      sub\n      swap1\n      return\n        /* \"Mqttbaru.sol\":7532:8076  function authorize(bytes32 _token, uint _id, string memory _topic) brokerIsAuth(_token) public view returns(bool) {\r... */\n    tag_10:\n      tag_51\n      0x04\n      dup1\n      calldatasize\n      sub\n      dup2\n      add\n      swap1\n      tag_52\n      swap2\n      swap1\n      tag_53\n      jump\t// in\n    tag_52:\n      tag_54\n      jump\t// in\n    tag_51:\n      mload(0x40)\n      tag_55\n      swap2\n      swap1\n      tag_56\n      jump\t// in\n    tag_55:\n      mload(0x40)\n      dup1\n      swap2\n      sub\n      swap1\n      return\n        /* \"Mqttbaru.sol\":2311:2659  function addBroker(address payable _brokeraddress) public isManager {\r... */\n    tag_11:\n      tag_57\n      0x04\n      dup1\n      calldatasize\n      sub\n      dup2\n      add\n      swap1\n      tag_58\n      swap2\n      swap1\n      tag_24\n      jump\t// in\n    tag_58:\n      tag_59\n      jump\t// in\n    tag_57:\n      stop\n        /* \"Mqttbaru.sol\":5409:5773  function addClient(string memory _username, string memory _password) isManager public {\r... */\n    tag_12:\n      tag_60\n      0x04\n      dup1\n      calldatasize\n      sub\n      dup2\n      add\n      swap1\n      tag_61\n      swap2\n      swap1\n      tag_62\n      jump\t// in\n    tag_61:\n      tag_63\n      jump\t// in\n    tag_60:\n      stop\n        /* \"Mqttbaru.sol\":3231:3557  function deleteClient(uint _id) isManager public {\r... */\n    tag_13:\n      tag_64\n      0x04\n      dup1\n      calldatasize\n      sub\n      dup2\n      add\n      swap1\n      tag_65\n      swap2\n      swap1\n      tag_47\n      jump\t// in\n    tag_65:\n      tag_66\n      jump\t// in\n    tag_64:\n      stop\n        /* \"Mqttbaru.sol\":1912:2299  function checkAuthBroker(bytes32 _token) public view isBroker returns (bool) {\r... */\n    tag_14:\n      tag_67\n      0x04\n      dup1\n      calldatasize\n      sub\n      dup2\n      add\n      swap1\n      tag_68\n      swap2\n      swap1\n      tag_69\n      jump\t// in\n    tag_68:\n      tag_70\n      jump\t// in\n    tag_67:\n      mload(0x40)\n      tag_71\n      swap2\n      swap1\n      tag_56\n      jump\t// in\n    tag_71:\n      mload(0x40)\n      dup1\n      swap2\n      sub\n      swap1\n      return\n        /* \"Mqttbaru.sol\":1602:1899  function getBroker() public isManager view returns (address[] memory){\r... */\n    tag_15:\n      tag_72\n      tag_73\n      jump\t// in\n    tag_72:\n      mload(0x40)\n      tag_74\n      swap2\n      swap1\n      tag_75\n      jump\t// in\n    tag_74:\n      mload(0x40)\n      dup1\n      swap2\n      sub\n      swap1\n      return\n        /* \"Mqttbaru.sol\":6989:7520  function authenticate(bytes32 _token, uint _id, string memory _username, string memory _password) brokerIsAuth(_token) public view returns (bool) {\r... */\n    tag_16:\n      tag_76\n      0x04\n      dup1\n      calldatasize\n      sub\n      dup2\n      add\n      swap1\n      tag_77\n      swap2\n      swap1\n      tag_78\n      jump\t// in\n    tag_77:\n      tag_79\n      jump\t// in\n    tag_76:\n      mload(0x40)\n      tag_80\n      swap2\n      swap1\n      tag_56\n      jump\t// in\n    tag_80:\n      mload(0x40)\n      dup1\n      swap2\n      sub\n      swap1\n      return\n        /* \"Mqttbaru.sol\":5791:6349  function updateTopic(uint _id, string memory _topic, string memory _newtopic) isManager public{\r... */\n    tag_17:\n      tag_81\n      0x04\n      dup1\n      calldatasize\n      sub\n      dup2\n      add\n      swap1\n      tag_82\n      swap2\n      swap1\n      tag_83\n      jump\t// in\n    tag_82:\n      tag_84\n      jump\t// in\n    tag_81:\n      stop\n        /* \"Mqttbaru.sol\":834:1590  function refreshToken() public isBroker {\r... */\n    tag_18:\n      tag_85\n      tag_86\n      jump\t// in\n    tag_85:\n      stop\n        /* \"Mqttbaru.sol\":2785:3219  function deleteBroker(address payable _brokeraddress) isManager public {\r... */\n    tag_25:\n        /* \"Mqttbaru.sol\":8142:8149  manager */\n      0x00\n      dup1\n      sload\n      swap1\n      0x0100\n      exp\n      swap1\n      div\n      0xffffffffffffffffffffffffffffffffffffffff\n      and\n        /* \"Mqttbaru.sol\":8128:8149  msg.sender == manager */\n      0xffffffffffffffffffffffffffffffffffffffff\n      and\n        /* \"Mqttbaru.sol\":8128:8138  msg.sender */\n      caller\n        /* \"Mqttbaru.sol\":8128:8149  msg.sender == manager */\n      0xffffffffffffffffffffffffffffffffffffffff\n      and\n      eq\n        /* \"Mqttbaru.sol\":8120:8150  require(msg.sender == manager) */\n      tag_88\n      jumpi\n      0x00\n      dup1\n      revert\n    tag_88:\n        /* \"Mqttbaru.sol\":2871:2877  uint i */\n      0x00\n        /* \"Mqttbaru.sol\":2867:3212  for(uint i = 0; i < brokerAddress.length; i++){\r... */\n    tag_90:\n        /* \"Mqttbaru.sol\":2887:2900  brokerAddress */\n      0x02\n        /* \"Mqttbaru.sol\":2887:2907  brokerAddress.length */\n      dup1\n      sload\n      swap1\n      pop\n        /* \"Mqttbaru.sol\":2883:2884  i */\n      dup2\n        /* \"Mqttbaru.sol\":2883:2907  i < brokerAddress.length */\n      lt\n        /* \"Mqttbaru.sol\":2867:3212  for(uint i = 0; i < brokerAddress.length; i++){\r... */\n      iszero\n      tag_91\n      jumpi\n        /* \"Mqttbaru.sol\":2949:2962  brokerAddress */\n      0x02\n        /* \"Mqttbaru.sol\":2963:2964  i */\n      dup2\n        /* \"Mqttbaru.sol\":2949:2965  brokerAddress[i] */\n      dup2\n      sload\n      dup2\n      lt\n      tag_93\n      jumpi\n      invalid\n    tag_93:\n      swap1\n      0x00\n      mstore\n      keccak256(0x00, 0x20)\n      swap1\n      0x02\n      mul\n      add\n        /* \"Mqttbaru.sol\":2949:2980  brokerAddress[i].broker_address */\n      0x00\n      add\n      0x00\n      swap1\n      sload\n      swap1\n      0x0100\n      exp\n      swap1\n      div\n      0xffffffffffffffffffffffffffffffffffffffff\n      and\n        /* \"Mqttbaru.sol\":2931:2980  _brokeraddress == brokerAddress[i].broker_address */\n      0xffffffffffffffffffffffffffffffffffffffff\n      and\n        /* \"Mqttbaru.sol\":2931:2945  _brokeraddress */\n      dup3\n        /* \"Mqttbaru.sol\":2931:2980  _brokeraddress == brokerAddress[i].broker_address */\n      0xffffffffffffffffffffffffffffffffffffffff\n      and\n      eq\n        /* \"Mqttbaru.sol\":2928:3201  if(_brokeraddress == brokerAddress[i].broker_address){\r... */\n      iszero\n      tag_95\n      jumpi\n        /* \"Mqttbaru.sol\":3033:3038  false */\n      0x00\n        /* \"Mqttbaru.sol\":3000:3014  brokerValidity */\n      0x03\n        /* \"Mqttbaru.sol\":3000:3030  brokerValidity[_brokeraddress] */\n      0x00\n        /* \"Mqttbaru.sol\":3015:3029  _brokeraddress */\n      dup5\n        /* \"Mqttbaru.sol\":3000:3030  brokerValidity[_brokeraddress] */\n      0xffffffffffffffffffffffffffffffffffffffff\n      and\n      0xffffffffffffffffffffffffffffffffffffffff\n      and\n      dup2\n      mstore\n      0x20\n      add\n      swap1\n      dup2\n      mstore\n      0x20\n      add\n      0x00\n      keccak256\n      0x00\n        /* \"Mqttbaru.sol\":3000:3038  brokerValidity[_brokeraddress] = false */\n      0x0100\n      exp\n      dup2\n      sload\n      dup2\n      0xff\n      mul\n      not\n      and\n      swap1\n      dup4\n      iszero\n      iszero\n      mul\n      or\n      swap1\n      sstore\n      pop\n        /* \"Mqttbaru.sol\":3076:3089  brokerAddress */\n      0x02\n        /* \"Mqttbaru.sol\":3113:3114  1 */\n      0x01\n        /* \"Mqttbaru.sol\":3090:3103  brokerAddress */\n      0x02\n        /* \"Mqttbaru.sol\":3090:3110  brokerAddress.length */\n      dup1\n      sload\n      swap1\n      pop\n        /* \"Mqttbaru.sol\":3090:3114  brokerAddress.length - 1 */\n      sub\n        /* \"Mqttbaru.sol\":3076:3115  brokerAddress[brokerAddress.length - 1] */\n      dup2\n      sload\n      dup2\n      lt\n      tag_96\n      jumpi\n      invalid\n    tag_96:\n      swap1\n      0x00\n      mstore\n      keccak256(0x00, 0x20)\n      swap1\n      0x02\n      mul\n      add\n        /* \"Mqttbaru.sol\":3057:3070  brokerAddress */\n      0x02\n        /* \"Mqttbaru.sol\":3071:3072  i */\n      dup3\n        /* \"Mqttbaru.sol\":3057:3073  brokerAddress[i] */\n      dup2\n      sload\n      dup2\n      lt\n      tag_98\n      jumpi\n      invalid\n    tag_98:\n      swap1\n      0x00\n      mstore\n      keccak256(0x00, 0x20)\n      swap1\n      0x02\n      mul\n      add\n        /* \"Mqttbaru.sol\":3057:3115  brokerAddress[i] = brokerAddress[brokerAddress.length - 1] */\n      0x00\n      dup3\n      add\n      0x00\n      swap1\n      sload\n      swap1\n      0x0100\n      exp\n      swap1\n      div\n      0xffffffffffffffffffffffffffffffffffffffff\n      and\n      dup2\n      0x00\n      add\n      exp(0x0100, 0x00)\n      dup2\n      sload\n      dup2\n      0xffffffffffffffffffffffffffffffffffffffff\n      mul\n      not\n      and\n      swap1\n      dup4\n      0xffffffffffffffffffffffffffffffffffffffff\n      and\n      mul\n      or\n      swap1\n      sstore\n      pop\n      0x01\n      dup3\n      add\n      sload\n      dup2\n      0x01\n      add\n      sstore\n      swap1\n      pop\n      pop\n        /* \"Mqttbaru.sol\":3134:3147  brokerAddress */\n      0x02\n        /* \"Mqttbaru.sol\":3134:3153  brokerAddress.pop() */\n      dup1\n      sload\n      dup1\n      tag_100\n      jumpi\n      invalid\n    tag_100:\n      0x01\n      swap1\n      sub\n      dup2\n      dup2\n      swap1\n      0x00\n      mstore\n      keccak256(0x00, 0x20)\n      swap1\n      0x02\n      mul\n      add\n      0x00\n      dup1\n      dup3\n      add\n      exp(0x0100, 0x00)\n      dup2\n      sload\n      swap1\n      0xffffffffffffffffffffffffffffffffffffffff\n      mul\n      not\n      and\n      swap1\n      sstore\n      0x01\n      dup3\n      add\n      0x00\n      swap1\n      sstore\n      pop\n      pop\n      swap1\n      sstore\n        /* \"Mqttbaru.sol\":3172:3183  brokerCount */\n      0x05\n      0x00\n        /* \"Mqttbaru.sol\":3172:3185  brokerCount-- */\n      dup2\n      sload\n      dup1\n      swap3\n      swap2\n      swap1\n      0x01\n      swap1\n      sub\n      swap2\n      swap1\n      pop\n      sstore\n      pop\n        /* \"Mqttbaru.sol\":2928:3201  if(_brokeraddress == brokerAddress[i].broker_address){\r... */\n    tag_95:\n        /* \"Mqttbaru.sol\":2909:2912  i++ */\n      dup1\n      dup1\n      0x01\n      add\n      swap2\n      pop\n      pop\n        /* \"Mqttbaru.sol\":2867:3212  for(uint i = 0; i < brokerAddress.length; i++){\r... */\n      jump(tag_90)\n    tag_91:\n      pop\n        /* \"Mqttbaru.sol\":2785:3219  function deleteBroker(address payable _brokeraddress) isManager public {\r... */\n      pop\n      jump\t// out\n        /* \"Mqttbaru.sol\":2672:2773  function getClientsCount() isManager public view returns (uint) {\r... */\n    tag_27:\n        /* \"Mqttbaru.sol\":2730:2734  uint */\n      0x00\n        /* \"Mqttbaru.sol\":8142:8149  manager */\n      dup1\n      0x00\n      swap1\n      sload\n      swap1\n      0x0100\n      exp\n      swap1\n      div\n      0xffffffffffffffffffffffffffffffffffffffff\n      and\n        /* \"Mqttbaru.sol\":8128:8149  msg.sender == manager */\n      0xffffffffffffffffffffffffffffffffffffffff\n      and\n        /* \"Mqttbaru.sol\":8128:8138  msg.sender */\n      caller\n        /* \"Mqttbaru.sol\":8128:8149  msg.sender == manager */\n      0xffffffffffffffffffffffffffffffffffffffff\n      and\n      eq\n        /* \"Mqttbaru.sol\":8120:8150  require(msg.sender == manager) */\n      tag_103\n      jumpi\n      0x00\n      dup1\n      revert\n    tag_103:\n        /* \"Mqttbaru.sol\":2754:2765  clientCount */\n      sload(0x04)\n        /* \"Mqttbaru.sol\":2747:2765  return clientCount */\n      swap1\n      pop\n        /* \"Mqttbaru.sol\":2672:2773  function getClientsCount() isManager public view returns (uint) {\r... */\n      swap1\n      jump\t// out\n        /* \"Mqttbaru.sol\":4748:5397  function addTopic(uint _id, string memory _topic) isManager public {\r... */\n    tag_33:\n        /* \"Mqttbaru.sol\":8142:8149  manager */\n      0x00\n      dup1\n      sload\n      swap1\n      0x0100\n      exp\n      swap1\n      div\n      0xffffffffffffffffffffffffffffffffffffffff\n      and\n        /* \"Mqttbaru.sol\":8128:8149  msg.sender == manager */\n      0xffffffffffffffffffffffffffffffffffffffff\n      and\n        /* \"Mqttbaru.sol\":8128:8138  msg.sender */\n      caller\n        /* \"Mqttbaru.sol\":8128:8149  msg.sender == manager */\n      0xffffffffffffffffffffffffffffffffffffffff\n      and\n      eq\n        /* \"Mqttbaru.sol\":8120:8150  require(msg.sender == manager) */\n      tag_106\n      jumpi\n      0x00\n      dup1\n      revert\n    tag_106:\n        /* \"Mqttbaru.sol\":4826:4836  bool exist */\n      0x00\n        /* \"Mqttbaru.sol\":4859:4865  uint i */\n      dup1\n        /* \"Mqttbaru.sol\":4855:5390  for(uint i = 0; i < clientLedger.length; i++){\r... */\n    tag_108:\n        /* \"Mqttbaru.sol\":4875:4887  clientLedger */\n      0x01\n        /* \"Mqttbaru.sol\":4875:4894  clientLedger.length */\n      dup1\n      sload\n      swap1\n      pop\n        /* \"Mqttbaru.sol\":4871:4872  i */\n      dup2\n        /* \"Mqttbaru.sol\":4871:4894  i < clientLedger.length */\n      lt\n        /* \"Mqttbaru.sol\":4855:5390  for(uint i = 0; i < clientLedger.length; i++){\r... */\n      iszero\n      tag_109\n      jumpi\n        /* \"Mqttbaru.sol\":4915:4939  Client storage clientele */\n      0x00\n        /* \"Mqttbaru.sol\":4942:4954  clientLedger */\n      0x01\n        /* \"Mqttbaru.sol\":4955:4956  i */\n      dup3\n        /* \"Mqttbaru.sol\":4942:4957  clientLedger[i] */\n      dup2\n      sload\n      dup2\n      lt\n      tag_111\n      jumpi\n      invalid\n    tag_111:\n      swap1\n      0x00\n      mstore\n      keccak256(0x00, 0x20)\n      swap1\n      0x04\n      mul\n      add\n        /* \"Mqttbaru.sol\":4915:4957  Client storage clientele = clientLedger[i] */\n      swap1\n      pop\n        /* \"Mqttbaru.sol\":4982:4991  clientele */\n      dup1\n        /* \"Mqttbaru.sol\":4982:4994  clientele.id */\n      0x00\n      add\n      sload\n        /* \"Mqttbaru.sol\":4975:4978  _id */\n      dup6\n        /* \"Mqttbaru.sol\":4975:4994  _id == clientele.id */\n      eq\n        /* \"Mqttbaru.sol\":4972:5379  if(_id == clientele.id){\r... */\n      iszero\n      tag_113\n      jumpi\n        /* \"Mqttbaru.sol\":5018:5024  uint j */\n      0x00\n        /* \"Mqttbaru.sol\":5014:5261  for(uint j = 0; j < clientele.topic.length; j++){\r... */\n    tag_114:\n        /* \"Mqttbaru.sol\":5034:5043  clientele */\n      dup2\n        /* \"Mqttbaru.sol\":5034:5049  clientele.topic */\n      0x03\n      add\n        /* \"Mqttbaru.sol\":5034:5056  clientele.topic.length */\n      dup1\n      sload\n      swap1\n      pop\n        /* \"Mqttbaru.sol\":5030:5031  j */\n      dup2\n        /* \"Mqttbaru.sol\":5030:5056  j < clientele.topic.length */\n      lt\n        /* \"Mqttbaru.sol\":5014:5261  for(uint j = 0; j < clientele.topic.length; j++){\r... */\n      iszero\n      tag_115\n      jumpi\n        /* \"Mqttbaru.sol\":5154:5163  clientele */\n      dup2\n        /* \"Mqttbaru.sol\":5154:5169  clientele.topic */\n      0x03\n      add\n        /* \"Mqttbaru.sol\":5170:5171  j */\n      dup2\n        /* \"Mqttbaru.sol\":5154:5172  clientele.topic[j] */\n      dup2\n      sload\n      dup2\n      lt\n      tag_117\n      jumpi\n      invalid\n    tag_117:\n      swap1\n      0x00\n      mstore\n      keccak256(0x00, 0x20)\n      add\n        /* \"Mqttbaru.sol\":5137:5173  abi.encodePacked(clientele.topic[j]) */\n      add(0x20, mload(0x40))\n      tag_119\n      swap2\n      swap1\n      tag_120\n      jump\t// in\n    tag_119:\n      mload(0x40)\n      0x20\n      dup2\n      dup4\n      sub\n      sub\n      dup2\n      mstore\n      swap1\n      0x40\n      mstore\n        /* \"Mqttbaru.sol\":5127:5174  keccak256(abi.encodePacked(clientele.topic[j])) */\n      dup1\n      mload\n      swap1\n      0x20\n      add\n      keccak256\n        /* \"Mqttbaru.sol\":5115:5121  _topic */\n      dup6\n        /* \"Mqttbaru.sol\":5098:5122  abi.encodePacked(_topic) */\n      add(0x20, mload(0x40))\n      tag_121\n      swap2\n      swap1\n      tag_122\n      jump\t// in\n    tag_121:\n      mload(0x40)\n      0x20\n      dup2\n      dup4\n      sub\n      sub\n      dup2\n      mstore\n      swap1\n      0x40\n      mstore\n        /* \"Mqttbaru.sol\":5088:5123  keccak256(abi.encodePacked(_topic)) */\n      dup1\n      mload\n      swap1\n      0x20\n      add\n      keccak256\n        /* \"Mqttbaru.sol\":5088:5174  keccak256(abi.encodePacked(_topic)) == keccak256(abi.encodePacked(clientele.topic[j])) */\n      eq\n        /* \"Mqttbaru.sol\":5085:5238  if(keccak256(abi.encodePacked(_topic)) == keccak256(abi.encodePacked(clientele.topic[j]))){\r... */\n      iszero\n      tag_123\n      jumpi\n        /* \"Mqttbaru.sol\":5210:5214  true */\n      0x01\n        /* \"Mqttbaru.sol\":5202:5214  exist = true */\n      swap4\n      pop\n        /* \"Mqttbaru.sol\":5085:5238  if(keccak256(abi.encodePacked(_topic)) == keccak256(abi.encodePacked(clientele.topic[j]))){\r... */\n    tag_123:\n        /* \"Mqttbaru.sol\":5058:5061  j++ */\n      dup1\n      dup1\n      0x01\n      add\n      swap2\n      pop\n      pop\n        /* \"Mqttbaru.sol\":5014:5261  for(uint j = 0; j < clientele.topic.length; j++){\r... */\n      jump(tag_114)\n    tag_115:\n      pop\n        /* \"Mqttbaru.sol\":5283:5288  exist */\n      dup3\n        /* \"Mqttbaru.sol\":5279:5364  if(!exist){\r... */\n      tag_124\n      jumpi\n        /* \"Mqttbaru.sol\":5312:5321  clientele */\n      dup1\n        /* \"Mqttbaru.sol\":5312:5327  clientele.topic */\n      0x03\n      add\n        /* \"Mqttbaru.sol\":5333:5339  _topic */\n      dup5\n        /* \"Mqttbaru.sol\":5312:5340  clientele.topic.push(_topic) */\n      swap1\n      dup1\n      0x01\n      dup2\n      sload\n      add\n      dup1\n      dup3\n      sstore\n      dup1\n      swap2\n      pop\n      pop\n      0x01\n      swap1\n      sub\n      swap1\n      0x00\n      mstore\n      keccak256(0x00, 0x20)\n      add\n      0x00\n      swap1\n      swap2\n      swap1\n      swap2\n      swap1\n      swap2\n      pop\n      swap1\n      dup1\n      mload\n      swap1\n      0x20\n      add\n      swap1\n      tag_126\n      swap3\n      swap2\n      swap1\n      tag_127\n      jump\t// in\n    tag_126:\n      pop\n        /* \"Mqttbaru.sol\":5279:5364  if(!exist){\r... */\n    tag_124:\n        /* \"Mqttbaru.sol\":4972:5379  if(_id == clientele.id){\r... */\n    tag_113:\n        /* \"Mqttbaru.sol\":4855:5390  for(uint i = 0; i < clientLedger.length; i++){\r... */\n      pop\n        /* \"Mqttbaru.sol\":4896:4899  i++ */\n      dup1\n      dup1\n      0x01\n      add\n      swap2\n      pop\n      pop\n        /* \"Mqttbaru.sol\":4855:5390  for(uint i = 0; i < clientLedger.length; i++){\r... */\n      jump(tag_108)\n    tag_109:\n      pop\n        /* \"Mqttbaru.sol\":8161:8162  _ */\n      pop\n        /* \"Mqttbaru.sol\":4748:5397  function addTopic(uint _id, string memory _topic) isManager public {\r... */\n      pop\n      pop\n      jump\t// out\n        /* \"Mqttbaru.sol\":3569:4171  function deleteTopic(uint _id, string memory _topic) isManager public {\r... */\n    tag_36:\n        /* \"Mqttbaru.sol\":8142:8149  manager */\n      0x00\n      dup1\n      sload\n      swap1\n      0x0100\n      exp\n      swap1\n      div\n      0xffffffffffffffffffffffffffffffffffffffff\n      and\n        /* \"Mqttbaru.sol\":8128:8149  msg.sender == manager */\n      0xffffffffffffffffffffffffffffffffffffffff\n      and\n        /* \"Mqttbaru.sol\":8128:8138  msg.sender */\n      caller\n        /* \"Mqttbaru.sol\":8128:8149  msg.sender == manager */\n      0xffffffffffffffffffffffffffffffffffffffff\n      and\n      eq\n        /* \"Mqttbaru.sol\":8120:8150  require(msg.sender == manager) */\n      tag_129\n      jumpi\n      0x00\n      dup1\n      revert\n    tag_129:\n        /* \"Mqttbaru.sol\":3654:3660  uint i */\n      0x00\n        /* \"Mqttbaru.sol\":3650:4164  for(uint i = 0; i <  clientLedger.length; i++){\r... */\n    tag_131:\n        /* \"Mqttbaru.sol\":3671:3683  clientLedger */\n      0x01\n        /* \"Mqttbaru.sol\":3671:3690  clientLedger.length */\n      dup1\n      sload\n      swap1\n      pop\n        /* \"Mqttbaru.sol\":3666:3667  i */\n      dup2\n        /* \"Mqttbaru.sol\":3666:3690  i <  clientLedger.length */\n      lt\n        /* \"Mqttbaru.sol\":3650:4164  for(uint i = 0; i <  clientLedger.length; i++){\r... */\n      iszero\n      tag_132\n      jumpi\n        /* \"Mqttbaru.sol\":3721:3733  clientLedger */\n      0x01\n        /* \"Mqttbaru.sol\":3734:3735  i */\n      dup2\n        /* \"Mqttbaru.sol\":3721:3736  clientLedger[i] */\n      dup2\n      sload\n      dup2\n      lt\n      tag_134\n      jumpi\n      invalid\n    tag_134:\n      swap1\n      0x00\n      mstore\n      keccak256(0x00, 0x20)\n      swap1\n      0x04\n      mul\n      add\n        /* \"Mqttbaru.sol\":3721:3739  clientLedger[i].id */\n      0x00\n      add\n      sload\n        /* \"Mqttbaru.sol\":3714:3717  _id */\n      dup4\n        /* \"Mqttbaru.sol\":3714:3739  _id == clientLedger[i].id */\n      eq\n        /* \"Mqttbaru.sol\":3711:4153  if(_id == clientLedger[i].id){\r... */\n      iszero\n      tag_136\n      jumpi\n        /* \"Mqttbaru.sol\":3763:3769  uint j */\n      0x00\n        /* \"Mqttbaru.sol\":3759:4138  for(uint j = 0; j < clientLedger[i].topic.length; j++){\r... */\n    tag_137:\n        /* \"Mqttbaru.sol\":3779:3791  clientLedger */\n      0x01\n        /* \"Mqttbaru.sol\":3792:3793  i */\n      dup3\n        /* \"Mqttbaru.sol\":3779:3794  clientLedger[i] */\n      dup2\n      sload\n      dup2\n      lt\n      tag_140\n      jumpi\n      invalid\n    tag_140:\n      swap1\n      0x00\n      mstore\n      keccak256(0x00, 0x20)\n      swap1\n      0x04\n      mul\n      add\n        /* \"Mqttbaru.sol\":3779:3800  clientLedger[i].topic */\n      0x03\n      add\n        /* \"Mqttbaru.sol\":3779:3807  clientLedger[i].topic.length */\n      dup1\n      sload\n      swap1\n      pop\n        /* \"Mqttbaru.sol\":3775:3776  j */\n      dup2\n        /* \"Mqttbaru.sol\":3775:3807  j < clientLedger[i].topic.length */\n      lt\n        /* \"Mqttbaru.sol\":3759:4138  for(uint j = 0; j < clientLedger[i].topic.length; j++){\r... */\n      iszero\n      tag_138\n      jumpi\n        /* \"Mqttbaru.sol\":3905:3917  clientLedger */\n      0x01\n        /* \"Mqttbaru.sol\":3918:3919  i */\n      dup3\n        /* \"Mqttbaru.sol\":3905:3920  clientLedger[i] */\n      dup2\n      sload\n      dup2\n      lt\n      tag_142\n      jumpi\n      invalid\n    tag_142:\n      swap1\n      0x00\n      mstore\n      keccak256(0x00, 0x20)\n      swap1\n      0x04\n      mul\n      add\n        /* \"Mqttbaru.sol\":3905:3926  clientLedger[i].topic */\n      0x03\n      add\n        /* \"Mqttbaru.sol\":3927:3928  j */\n      dup2\n        /* \"Mqttbaru.sol\":3905:3929  clientLedger[i].topic[j] */\n      dup2\n      sload\n      dup2\n      lt\n      tag_144\n      jumpi\n      invalid\n    tag_144:\n      swap1\n      0x00\n      mstore\n      keccak256(0x00, 0x20)\n      add\n        /* \"Mqttbaru.sol\":3888:3930  abi.encodePacked(clientLedger[i].topic[j]) */\n      add(0x20, mload(0x40))\n      tag_146\n      swap2\n      swap1\n      tag_120\n      jump\t// in\n    tag_146:\n      mload(0x40)\n      0x20\n      dup2\n      dup4\n      sub\n      sub\n      dup2\n      mstore\n      swap1\n      0x40\n      mstore\n        /* \"Mqttbaru.sol\":3878:3931  keccak256(abi.encodePacked(clientLedger[i].topic[j])) */\n      dup1\n      mload\n      swap1\n      0x20\n      add\n      keccak256\n        /* \"Mqttbaru.sol\":3866:3872  _topic */\n      dup4\n        /* \"Mqttbaru.sol\":3849:3873  abi.encodePacked(_topic) */\n      add(0x20, mload(0x40))\n      tag_147\n      swap2\n      swap1\n      tag_122\n      jump\t// in\n    tag_147:\n      mload(0x40)\n      0x20\n      dup2\n      dup4\n      sub\n      sub\n      dup2\n      mstore\n      swap1\n      0x40\n      mstore\n        /* \"Mqttbaru.sol\":3839:3874  keccak256(abi.encodePacked(_topic)) */\n      dup1\n      mload\n      swap1\n      0x20\n      add\n      keccak256\n        /* \"Mqttbaru.sol\":3839:3931  keccak256(abi.encodePacked(_topic)) == keccak256(abi.encodePacked(clientLedger[i].topic[j])) */\n      eq\n        /* \"Mqttbaru.sol\":3836:4119  if(keccak256(abi.encodePacked(_topic)) == keccak256(abi.encodePacked(clientLedger[i].topic[j]))){\r... */\n      iszero\n      tag_148\n      jumpi\n        /* \"Mqttbaru.sol\":3986:3998  clientLedger */\n      0x01\n        /* \"Mqttbaru.sol\":3999:4000  i */\n      dup3\n        /* \"Mqttbaru.sol\":3986:4001  clientLedger[i] */\n      dup2\n      sload\n      dup2\n      lt\n      tag_149\n      jumpi\n      invalid\n    tag_149:\n      swap1\n      0x00\n      mstore\n      keccak256(0x00, 0x20)\n      swap1\n      0x04\n      mul\n      add\n        /* \"Mqttbaru.sol\":3986:4007  clientLedger[i].topic */\n      0x03\n      add\n        /* \"Mqttbaru.sol\":4039:4040  1 */\n      0x01\n        /* \"Mqttbaru.sol\":4008:4020  clientLedger */\n      dup1\n        /* \"Mqttbaru.sol\":4021:4022  i */\n      dup5\n        /* \"Mqttbaru.sol\":4008:4023  clientLedger[i] */\n      dup2\n      sload\n      dup2\n      lt\n      tag_151\n      jumpi\n      invalid\n    tag_151:\n      swap1\n      0x00\n      mstore\n      keccak256(0x00, 0x20)\n      swap1\n      0x04\n      mul\n      add\n        /* \"Mqttbaru.sol\":4008:4029  clientLedger[i].topic */\n      0x03\n      add\n        /* \"Mqttbaru.sol\":4008:4036  clientLedger[i].topic.length */\n      dup1\n      sload\n      swap1\n      pop\n        /* \"Mqttbaru.sol\":4008:4040  clientLedger[i].topic.length - 1 */\n      sub\n        /* \"Mqttbaru.sol\":3986:4041  clientLedger[i].topic[clientLedger[i].topic.length - 1] */\n      dup2\n      sload\n      dup2\n      lt\n      tag_153\n      jumpi\n      invalid\n    tag_153:\n      swap1\n      0x00\n      mstore\n      keccak256(0x00, 0x20)\n      add\n        /* \"Mqttbaru.sol\":3959:3971  clientLedger */\n      0x01\n        /* \"Mqttbaru.sol\":3972:3973  i */\n      dup4\n        /* \"Mqttbaru.sol\":3959:3974  clientLedger[i] */\n      dup2\n      sload\n      dup2\n      lt\n      tag_155\n      jumpi\n      invalid\n    tag_155:\n      swap1\n      0x00\n      mstore\n      keccak256(0x00, 0x20)\n      swap1\n      0x04\n      mul\n      add\n        /* \"Mqttbaru.sol\":3959:3980  clientLedger[i].topic */\n      0x03\n      add\n        /* \"Mqttbaru.sol\":3981:3982  j */\n      dup3\n        /* \"Mqttbaru.sol\":3959:3983  clientLedger[i].topic[j] */\n      dup2\n      sload\n      dup2\n      lt\n      tag_157\n      jumpi\n      invalid\n    tag_157:\n      swap1\n      0x00\n      mstore\n      keccak256(0x00, 0x20)\n      add\n        /* \"Mqttbaru.sol\":3959:4041  clientLedger[i].topic[j] = clientLedger[i].topic[clientLedger[i].topic.length - 1] */\n      swap1\n      dup1\n      sload\n      0x01\n      dup2\n      0x01\n      and\n      iszero\n      0x0100\n      mul\n      sub\n      and\n      0x02\n      swap1\n      div\n      tag_159\n      swap3\n      swap2\n      swap1\n      tag_160\n      jump\t// in\n    tag_159:\n      pop\n        /* \"Mqttbaru.sol\":4068:4080  clientLedger */\n      0x01\n        /* \"Mqttbaru.sol\":4081:4082  i */\n      dup3\n        /* \"Mqttbaru.sol\":4068:4083  clientLedger[i] */\n      dup2\n      sload\n      dup2\n      lt\n      tag_161\n      jumpi\n      invalid\n    tag_161:\n      swap1\n      0x00\n      mstore\n      keccak256(0x00, 0x20)\n      swap1\n      0x04\n      mul\n      add\n        /* \"Mqttbaru.sol\":4068:4089  clientLedger[i].topic */\n      0x03\n      add\n        /* \"Mqttbaru.sol\":4068:4095  clientLedger[i].topic.pop() */\n      dup1\n      sload\n      dup1\n      tag_163\n      jumpi\n      invalid\n    tag_163:\n      0x01\n      swap1\n      sub\n      dup2\n      dup2\n      swap1\n      0x00\n      mstore\n      keccak256(0x00, 0x20)\n      add\n      0x00\n      tag_165\n      swap2\n      swap1\n      tag_166\n      jump\t// in\n    tag_165:\n      swap1\n      sstore\n        /* \"Mqttbaru.sol\":3836:4119  if(keccak256(abi.encodePacked(_topic)) == keccak256(abi.encodePacked(clientLedger[i].topic[j]))){\r... */\n    tag_148:\n        /* \"Mqttbaru.sol\":3809:3812  j++ */\n      dup1\n      dup1\n      0x01\n      add\n      swap2\n      pop\n      pop\n        /* \"Mqttbaru.sol\":3759:4138  for(uint j = 0; j < clientLedger[i].topic.length; j++){\r... */\n      jump(tag_137)\n    tag_138:\n      pop\n        /* \"Mqttbaru.sol\":3711:4153  if(_id == clientLedger[i].id){\r... */\n    tag_136:\n        /* \"Mqttbaru.sol\":3692:3695  i++ */\n      dup1\n      dup1\n      0x01\n      add\n      swap2\n      pop\n      pop\n        /* \"Mqttbaru.sol\":3650:4164  for(uint i = 0; i <  clientLedger.length; i++){\r... */\n      jump(tag_131)\n    tag_132:\n      pop\n        /* \"Mqttbaru.sol\":3569:4171  function deleteTopic(uint _id, string memory _topic) isManager public {\r... */\n      pop\n      pop\n      jump\t// out\n        /* \"Mqttbaru.sol\":130:160  address payable public manager */\n    tag_38:\n      0x00\n      dup1\n      sload\n      swap1\n      0x0100\n      exp\n      swap1\n      div\n      0xffffffffffffffffffffffffffffffffffffffff\n      and\n      dup2\n      jump\t// out\n        /* \"Mqttbaru.sol\":6361:6977  function getClients() public isManager view returns (uint[] memory, string[] memory, string[] memory) {\r... */\n    tag_42:\n        /* \"Mqttbaru.sol\":6414:6427  uint[] memory */\n      0x60\n        /* \"Mqttbaru.sol\":6429:6444  string[] memory */\n      dup1\n        /* \"Mqttbaru.sol\":6446:6461  string[] memory */\n      0x60\n        /* \"Mqttbaru.sol\":8142:8149  manager */\n      0x00\n      dup1\n      sload\n      swap1\n      0x0100\n      exp\n      swap1\n      div\n      0xffffffffffffffffffffffffffffffffffffffff\n      and\n        /* \"Mqttbaru.sol\":8128:8149  msg.sender == manager */\n      0xffffffffffffffffffffffffffffffffffffffff\n      and\n        /* \"Mqttbaru.sol\":8128:8138  msg.sender */\n      caller\n        /* \"Mqttbaru.sol\":8128:8149  msg.sender == manager */\n      0xffffffffffffffffffffffffffffffffffffffff\n      and\n      eq\n        /* \"Mqttbaru.sol\":8120:8150  require(msg.sender == manager) */\n      tag_168\n      jumpi\n      0x00\n      dup1\n      revert\n    tag_168:\n        /* \"Mqttbaru.sol\":6474:6491  uint[] memory _id */\n      0x60\n        /* \"Mqttbaru.sol\":6505:6516  clientCount */\n      sload(0x04)\n        /* \"Mqttbaru.sol\":6494:6517  new uint[](clientCount) */\n      0xffffffffffffffff\n      dup2\n      gt\n      dup1\n      iszero\n      tag_170\n      jumpi\n      0x00\n      dup1\n      revert\n    tag_170:\n      pop\n      mload(0x40)\n      swap1\n      dup1\n      dup3\n      mstore\n      dup1\n      0x20\n      mul\n      0x20\n      add\n      dup3\n      add\n      0x40\n      mstore\n      dup1\n      iszero\n      tag_171\n      jumpi\n      dup2\n      0x20\n      add\n      0x20\n      dup3\n      mul\n      dup1\n      calldatasize\n      dup4\n      calldatacopy\n      dup1\n      dup3\n      add\n      swap2\n      pop\n      pop\n      swap1\n      pop\n    tag_171:\n      pop\n        /* \"Mqttbaru.sol\":6474:6517  uint[] memory _id = new uint[](clientCount) */\n      swap1\n      pop\n        /* \"Mqttbaru.sol\":6528:6553  string[] memory _username */\n      0x60\n        /* \"Mqttbaru.sol\":6569:6580  clientCount */\n      sload(0x04)\n        /* \"Mqttbaru.sol\":6556:6581  new string[](clientCount) */\n      0xffffffffffffffff\n      dup2\n      gt\n      dup1\n      iszero\n      tag_172\n      jumpi\n      0x00\n      dup1\n      revert\n    tag_172:\n      pop\n      mload(0x40)\n      swap1\n      dup1\n      dup3\n      mstore\n      dup1\n      0x20\n      mul\n      0x20\n      add\n      dup3\n      add\n      0x40\n      mstore\n      dup1\n      iszero\n      tag_173\n      jumpi\n      dup2\n      0x20\n      add\n    tag_174:\n      0x60\n      dup2\n      mstore\n      0x20\n      add\n      swap1\n      0x01\n      swap1\n      sub\n      swap1\n      dup2\n      tag_174\n      jumpi\n      swap1\n      pop\n    tag_173:\n      pop\n        /* \"Mqttbaru.sol\":6528:6581  string[] memory _username = new string[](clientCount) */\n      swap1\n      pop\n        /* \"Mqttbaru.sol\":6592:6617  string[] memory _password */\n      0x60\n        /* \"Mqttbaru.sol\":6633:6644  clientCount */\n      sload(0x04)\n        /* \"Mqttbaru.sol\":6620:6645  new string[](clientCount) */\n      0xffffffffffffffff\n      dup2\n      gt\n      dup1\n      iszero\n      tag_175\n      jumpi\n      0x00\n      dup1\n      revert\n    tag_175:\n      pop\n      mload(0x40)\n      swap1\n      dup1\n      dup3\n      mstore\n      dup1\n      0x20\n      mul\n      0x20\n      add\n      dup3\n      add\n      0x40\n      mstore\n      dup1\n      iszero\n      tag_176\n      jumpi\n      dup2\n      0x20\n      add\n    tag_177:\n      0x60\n      dup2\n      mstore\n      0x20\n      add\n      swap1\n      0x01\n      swap1\n      sub\n      swap1\n      dup2\n      tag_177\n      jumpi\n      swap1\n      pop\n    tag_176:\n      pop\n        /* \"Mqttbaru.sol\":6592:6645  string[] memory _password = new string[](clientCount) */\n      swap1\n      pop\n        /* \"Mqttbaru.sol\":6660:6666  uint i */\n      0x00\n        /* \"Mqttbaru.sol\":6656:6902  for(uint i = 0; i < clientLedger.length; i++){\r... */\n    tag_178:\n        /* \"Mqttbaru.sol\":6676:6688  clientLedger */\n      0x01\n        /* \"Mqttbaru.sol\":6676:6695  clientLedger.length */\n      dup1\n      sload\n      swap1\n      pop\n        /* \"Mqttbaru.sol\":6672:6673  i */\n      dup2\n        /* \"Mqttbaru.sol\":6672:6695  i < clientLedger.length */\n      lt\n        /* \"Mqttbaru.sol\":6656:6902  for(uint i = 0; i < clientLedger.length; i++){\r... */\n      iszero\n      tag_179\n      jumpi\n        /* \"Mqttbaru.sol\":6716:6740  Client storage clientele */\n      0x00\n        /* \"Mqttbaru.sol\":6743:6755  clientLedger */\n      0x01\n        /* \"Mqttbaru.sol\":6756:6757  i */\n      dup3\n        /* \"Mqttbaru.sol\":6743:6758  clientLedger[i] */\n      dup2\n      sload\n      dup2\n      lt\n      tag_181\n      jumpi\n      invalid\n    tag_181:\n      swap1\n      0x00\n      mstore\n      keccak256(0x00, 0x20)\n      swap1\n      0x04\n      mul\n      add\n        /* \"Mqttbaru.sol\":6716:6758  Client storage clientele = clientLedger[i] */\n      swap1\n      pop\n        /* \"Mqttbaru.sol\":6782:6791  clientele */\n      dup1\n        /* \"Mqttbaru.sol\":6782:6794  clientele.id */\n      0x00\n      add\n      sload\n        /* \"Mqttbaru.sol\":6773:6776  _id */\n      dup6\n        /* \"Mqttbaru.sol\":6777:6778  i */\n      dup4\n        /* \"Mqttbaru.sol\":6773:6779  _id[i] */\n      dup2\n      mload\n      dup2\n      lt\n      tag_183\n      jumpi\n      invalid\n    tag_183:\n      0x20\n      mul\n      0x20\n      add\n      add\n        /* \"Mqttbaru.sol\":6773:6794  _id[i] = clientele.id */\n      dup2\n      dup2\n      mstore\n      pop\n      pop\n        /* \"Mqttbaru.sol\":6824:6833  clientele */\n      dup1\n        /* \"Mqttbaru.sol\":6824:6842  clientele.username */\n      0x01\n      add\n        /* \"Mqttbaru.sol\":6809:6842  _username[i] = clientele.username */\n      dup1\n      sload\n      0x01\n      dup2\n      0x01\n      and\n      iszero\n      0x0100\n      mul\n      sub\n      and\n      0x02\n      swap1\n      div\n      dup1\n      0x1f\n      add\n      0x20\n      dup1\n      swap2\n      div\n      mul\n      0x20\n      add\n      mload(0x40)\n      swap1\n      dup2\n      add\n      0x40\n      mstore\n      dup1\n      swap3\n      swap2\n      swap1\n      dup2\n      dup2\n      mstore\n      0x20\n      add\n      dup3\n      dup1\n      sload\n      0x01\n      dup2\n      0x01\n      and\n      iszero\n      0x0100\n      mul\n      sub\n      and\n      0x02\n      swap1\n      div\n      dup1\n      iszero\n      tag_184\n      jumpi\n      dup1\n      0x1f\n      lt\n      tag_185\n      jumpi\n      0x0100\n      dup1\n      dup4\n      sload\n      div\n      mul\n      dup4\n      mstore\n      swap2\n      0x20\n      add\n      swap2\n      jump(tag_184)\n    tag_185:\n      dup3\n      add\n      swap2\n      swap1\n      0x00\n      mstore\n      keccak256(0x00, 0x20)\n      swap1\n    tag_186:\n      dup2\n      sload\n      dup2\n      mstore\n      swap1\n      0x01\n      add\n      swap1\n      0x20\n      add\n      dup1\n      dup4\n      gt\n      tag_186\n      jumpi\n      dup3\n      swap1\n      sub\n      0x1f\n      and\n      dup3\n      add\n      swap2\n    tag_184:\n      pop\n      pop\n      pop\n      pop\n      pop\n        /* \"Mqttbaru.sol\":6809:6818  _username */\n      dup5\n        /* \"Mqttbaru.sol\":6819:6820  i */\n      dup4\n        /* \"Mqttbaru.sol\":6809:6821  _username[i] */\n      dup2\n      mload\n      dup2\n      lt\n      tag_187\n      jumpi\n      invalid\n    tag_187:\n      0x20\n      mul\n      0x20\n      add\n      add\n        /* \"Mqttbaru.sol\":6809:6842  _username[i] = clientele.username */\n      dup2\n      swap1\n      mstore\n      pop\n        /* \"Mqttbaru.sol\":6872:6881  clientele */\n      dup1\n        /* \"Mqttbaru.sol\":6872:6890  clientele.password */\n      0x02\n      add\n        /* \"Mqttbaru.sol\":6857:6890  _password[i] = clientele.password */\n      dup1\n      sload\n      0x01\n      dup2\n      0x01\n      and\n      iszero\n      0x0100\n      mul\n      sub\n      and\n      0x02\n      swap1\n      div\n      dup1\n      0x1f\n      add\n      0x20\n      dup1\n      swap2\n      div\n      mul\n      0x20\n      add\n      mload(0x40)\n      swap1\n      dup2\n      add\n      0x40\n      mstore\n      dup1\n      swap3\n      swap2\n      swap1\n      dup2\n      dup2\n      mstore\n      0x20\n      add\n      dup3\n      dup1\n      sload\n      0x01\n      dup2\n      0x01\n      and\n      iszero\n      0x0100\n      mul\n      sub\n      and\n      0x02\n      swap1\n      div\n      dup1\n      iszero\n      tag_188\n      jumpi\n      dup1\n      0x1f\n      lt\n      tag_189\n      jumpi\n      0x0100\n      dup1\n      dup4\n      sload\n      div\n      mul\n      dup4\n      mstore\n      swap2\n      0x20\n      add\n      swap2\n      jump(tag_188)\n    tag_189:\n      dup3\n      add\n      swap2\n      swap1\n      0x00\n      mstore\n      keccak256(0x00, 0x20)\n      swap1\n    tag_190:\n      dup2\n      sload\n      dup2\n      mstore\n      swap1\n      0x01\n      add\n      swap1\n      0x20\n      add\n      dup1\n      dup4\n      gt\n      tag_190\n      jumpi\n      dup3\n      swap1\n      sub\n      0x1f\n      and\n      dup3\n      add\n      swap2\n    tag_188:\n      pop\n      pop\n      pop\n      pop\n      pop\n        /* \"Mqttbaru.sol\":6857:6866  _password */\n      dup4\n        /* \"Mqttbaru.sol\":6867:6868  i */\n      dup4\n        /* \"Mqttbaru.sol\":6857:6869  _password[i] */\n      dup2\n      mload\n      dup2\n      lt\n      tag_191\n      jumpi\n      invalid\n    tag_191:\n      0x20\n      mul\n      0x20\n      add\n      add\n        /* \"Mqttbaru.sol\":6857:6890  _password[i] = clientele.password */\n      dup2\n      swap1\n      mstore\n      pop\n        /* \"Mqttbaru.sol\":6656:6902  for(uint i = 0; i < clientLedger.length; i++){\r... */\n      pop\n        /* \"Mqttbaru.sol\":6697:6700  i++ */\n      dup1\n      dup1\n      0x01\n      add\n      swap2\n      pop\n      pop\n        /* \"Mqttbaru.sol\":6656:6902  for(uint i = 0; i < clientLedger.length; i++){\r... */\n      jump(tag_178)\n    tag_179:\n      pop\n        /* \"Mqttbaru.sol\":6933:6936  _id */\n      dup3\n        /* \"Mqttbaru.sol\":6938:6947  _username */\n      dup3\n        /* \"Mqttbaru.sol\":6949:6958  _password */\n      dup3\n        /* \"Mqttbaru.sol\":6912:6969  return(\r... */\n      swap6\n      pop\n      swap6\n      pop\n      swap6\n      pop\n      pop\n      pop\n      pop\n        /* \"Mqttbaru.sol\":6361:6977  function getClients() public isManager view returns (uint[] memory, string[] memory, string[] memory) {\r... */\n      swap1\n      swap2\n      swap3\n      jump\t// out\n        /* \"Mqttbaru.sol\":4183:4736  function getTopic(uint _id) isManager public view returns(string[] memory){\r... */\n    tag_48:\n        /* \"Mqttbaru.sol\":4241:4256  string[] memory */\n      0x60\n        /* \"Mqttbaru.sol\":8142:8149  manager */\n      0x00\n      dup1\n      sload\n      swap1\n      0x0100\n      exp\n      swap1\n      div\n      0xffffffffffffffffffffffffffffffffffffffff\n      and\n        /* \"Mqttbaru.sol\":8128:8149  msg.sender == manager */\n      0xffffffffffffffffffffffffffffffffffffffff\n      and\n        /* \"Mqttbaru.sol\":8128:8138  msg.sender */\n      caller\n        /* \"Mqttbaru.sol\":8128:8149  msg.sender == manager */\n      0xffffffffffffffffffffffffffffffffffffffff\n      and\n      eq\n        /* \"Mqttbaru.sol\":8120:8150  require(msg.sender == manager) */\n      tag_193\n      jumpi\n      0x00\n      dup1\n      revert\n    tag_193:\n        /* \"Mqttbaru.sol\":4272:4278  uint i */\n      0x00\n        /* \"Mqttbaru.sol\":4268:4729  for(uint i = 0; i < clientLedger.length; i++){\r... */\n    tag_195:\n        /* \"Mqttbaru.sol\":4288:4300  clientLedger */\n      0x01\n        /* \"Mqttbaru.sol\":4288:4307  clientLedger.length */\n      dup1\n      sload\n      swap1\n      pop\n        /* \"Mqttbaru.sol\":4284:4285  i */\n      dup2\n        /* \"Mqttbaru.sol\":4284:4307  i < clientLedger.length */\n      lt\n        /* \"Mqttbaru.sol\":4268:4729  for(uint i = 0; i < clientLedger.length; i++){\r... */\n      iszero\n      tag_196\n      jumpi\n        /* \"Mqttbaru.sol\":4328:4352  Client storage clientele */\n      0x00\n        /* \"Mqttbaru.sol\":4355:4367  clientLedger */\n      0x01\n        /* \"Mqttbaru.sol\":4368:4369  i */\n      dup3\n        /* \"Mqttbaru.sol\":4355:4370  clientLedger[i] */\n      dup2\n      sload\n      dup2\n      lt\n      tag_198\n      jumpi\n      invalid\n    tag_198:\n      swap1\n      0x00\n      mstore\n      keccak256(0x00, 0x20)\n      swap1\n      0x04\n      mul\n      add\n        /* \"Mqttbaru.sol\":4328:4370  Client storage clientele = clientLedger[i] */\n      swap1\n      pop\n        /* \"Mqttbaru.sol\":4395:4404  clientele */\n      dup1\n        /* \"Mqttbaru.sol\":4395:4407  clientele.id */\n      0x00\n      add\n      sload\n        /* \"Mqttbaru.sol\":4388:4391  _id */\n      dup5\n        /* \"Mqttbaru.sol\":4388:4407  _id == clientele.id */\n      eq\n        /* \"Mqttbaru.sol\":4385:4718  if(_id == clientele.id){\r... */\n      iszero\n      tag_200\n      jumpi\n        /* \"Mqttbaru.sol\":4427:4449  string[] memory _topic */\n      0x60\n        /* \"Mqttbaru.sol\":4465:4474  clientele */\n      dup2\n        /* \"Mqttbaru.sol\":4465:4480  clientele.topic */\n      0x03\n      add\n        /* \"Mqttbaru.sol\":4465:4487  clientele.topic.length */\n      dup1\n      sload\n      swap1\n      pop\n        /* \"Mqttbaru.sol\":4452:4488  new string[](clientele.topic.length) */\n      0xffffffffffffffff\n      dup2\n      gt\n      dup1\n      iszero\n      tag_201\n      jumpi\n      0x00\n      dup1\n      revert\n    tag_201:\n      pop\n      mload(0x40)\n      swap1\n      dup1\n      dup3\n      mstore\n      dup1\n      0x20\n      mul\n      0x20\n      add\n      dup3\n      add\n      0x40\n      mstore\n      dup1\n      iszero\n      tag_202\n      jumpi\n      dup2\n      0x20\n      add\n    tag_203:\n      0x60\n      dup2\n      mstore\n      0x20\n      add\n      swap1\n      0x01\n      swap1\n      sub\n      swap1\n      dup2\n      tag_203\n      jumpi\n      swap1\n      pop\n    tag_202:\n      pop\n        /* \"Mqttbaru.sol\":4427:4488  string[] memory _topic = new string[](clientele.topic.length) */\n      swap1\n      pop\n        /* \"Mqttbaru.sol\":4511:4517  uint j */\n      0x00\n        /* \"Mqttbaru.sol\":4507:4628  for(uint j = 0; j < clientele.topic.length; j++){\r... */\n    tag_204:\n        /* \"Mqttbaru.sol\":4527:4536  clientele */\n      dup3\n        /* \"Mqttbaru.sol\":4527:4542  clientele.topic */\n      0x03\n      add\n        /* \"Mqttbaru.sol\":4527:4549  clientele.topic.length */\n      dup1\n      sload\n      swap1\n      pop\n        /* \"Mqttbaru.sol\":4523:4524  j */\n      dup2\n        /* \"Mqttbaru.sol\":4523:4549  j < clientele.topic.length */\n      lt\n        /* \"Mqttbaru.sol\":4507:4628  for(uint j = 0; j < clientele.topic.length; j++){\r... */\n      iszero\n      tag_205\n      jumpi\n        /* \"Mqttbaru.sol\":4590:4599  clientele */\n      dup3\n        /* \"Mqttbaru.sol\":4590:4605  clientele.topic */\n      0x03\n      add\n        /* \"Mqttbaru.sol\":4606:4607  j */\n      dup2\n        /* \"Mqttbaru.sol\":4590:4608  clientele.topic[j] */\n      dup2\n      sload\n      dup2\n      lt\n      tag_207\n      jumpi\n      invalid\n    tag_207:\n      swap1\n      0x00\n      mstore\n      keccak256(0x00, 0x20)\n      add\n        /* \"Mqttbaru.sol\":4578:4608  _topic[j] = clientele.topic[j] */\n      dup1\n      sload\n      0x01\n      dup2\n      0x01\n      and\n      iszero\n      0x0100\n      mul\n      sub\n      and\n      0x02\n      swap1\n      div\n      dup1\n      0x1f\n      add\n      0x20\n      dup1\n      swap2\n      div\n      mul\n      0x20\n      add\n      mload(0x40)\n      swap1\n      dup2\n      add\n      0x40\n      mstore\n      dup1\n      swap3\n      swap2\n      swap1\n      dup2\n      dup2\n      mstore\n      0x20\n      add\n      dup3\n      dup1\n      sload\n      0x01\n      dup2\n      0x01\n      and\n      iszero\n      0x0100\n      mul\n      sub\n      and\n      0x02\n      swap1\n      div\n      dup1\n      iszero\n      tag_209\n      jumpi\n      dup1\n      0x1f\n      lt\n      tag_210\n      jumpi\n      0x0100\n      dup1\n      dup4\n      sload\n      div\n      mul\n      dup4\n      mstore\n      swap2\n      0x20\n      add\n      swap2\n      jump(tag_209)\n    tag_210:\n      dup3\n      add\n      swap2\n      swap1\n      0x00\n      mstore\n      keccak256(0x00, 0x20)\n      swap1\n    tag_211:\n      dup2\n      sload\n      dup2\n      mstore\n      swap1\n      0x01\n      add\n      swap1\n      0x20\n      add\n      dup1\n      dup4\n      gt\n      tag_211\n      jumpi\n      dup3\n      swap1\n      sub\n      0x1f\n      and\n      dup3\n      add\n      swap2\n    tag_209:\n      pop\n      pop\n      pop\n      pop\n      pop\n        /* \"Mqttbaru.sol\":4578:4584  _topic */\n      dup3\n        /* \"Mqttbaru.sol\":4585:4586  j */\n      dup3\n        /* \"Mqttbaru.sol\":4578:4587  _topic[j] */\n      dup2\n      mload\n      dup2\n      lt\n      tag_212\n      jumpi\n      invalid\n    tag_212:\n      0x20\n      mul\n      0x20\n      add\n      add\n        /* \"Mqttbaru.sol\":4578:4608  _topic[j] = clientele.topic[j] */\n      dup2\n      swap1\n      mstore\n      pop\n        /* \"Mqttbaru.sol\":4551:4554  j++ */\n      dup1\n      dup1\n      0x01\n      add\n      swap2\n      pop\n      pop\n        /* \"Mqttbaru.sol\":4507:4628  for(uint j = 0; j < clientele.topic.length; j++){\r... */\n      jump(tag_204)\n    tag_205:\n      pop\n        /* \"Mqttbaru.sol\":4675:4681  _topic */\n      dup1\n        /* \"Mqttbaru.sol\":4646:4702  return(\r... */\n      swap4\n      pop\n      pop\n      pop\n      pop\n      jump(tag_194)\n        /* \"Mqttbaru.sol\":4385:4718  if(_id == clientele.id){\r... */\n    tag_200:\n        /* \"Mqttbaru.sol\":4268:4729  for(uint i = 0; i < clientLedger.length; i++){\r... */\n      pop\n        /* \"Mqttbaru.sol\":4309:4312  i++ */\n      dup1\n      dup1\n      0x01\n      add\n      swap2\n      pop\n      pop\n        /* \"Mqttbaru.sol\":4268:4729  for(uint i = 0; i < clientLedger.length; i++){\r... */\n      jump(tag_195)\n    tag_196:\n      pop\n        /* \"Mqttbaru.sol\":8161:8162  _ */\n    tag_194:\n        /* \"Mqttbaru.sol\":4183:4736  function getTopic(uint _id) isManager public view returns(string[] memory){\r... */\n      swap2\n      swap1\n      pop\n      jump\t// out\n        /* \"Mqttbaru.sol\":7532:8076  function authorize(bytes32 _token, uint _id, string memory _topic) brokerIsAuth(_token) public view returns(bool) {\r... */\n    tag_54:\n        /* \"Mqttbaru.sol\":7640:7644  bool */\n      0x00\n        /* \"Mqttbaru.sol\":7612:7618  _token */\n      dup4\n        /* \"Mqttbaru.sol\":8337:8360  checkAuthBroker(_token) */\n      tag_214\n        /* \"Mqttbaru.sol\":8353:8359  _token */\n      dup2\n        /* \"Mqttbaru.sol\":8337:8352  checkAuthBroker */\n      tag_70\n        /* \"Mqttbaru.sol\":8337:8360  checkAuthBroker(_token) */\n      jump\t// in\n    tag_214:\n        /* \"Mqttbaru.sol\":8329:8361  require(checkAuthBroker(_token)) */\n      tag_215\n      jumpi\n      0x00\n      dup1\n      revert\n    tag_215:\n        /* \"Mqttbaru.sol\":7661:7667  uint i */\n      0x00\n        /* \"Mqttbaru.sol\":7657:8046  for(uint i = 0; i < clientLedger.length; i++){\r... */\n    tag_217:\n        /* \"Mqttbaru.sol\":7677:7689  clientLedger */\n      0x01\n        /* \"Mqttbaru.sol\":7677:7696  clientLedger.length */\n      dup1\n      sload\n      swap1\n      pop\n        /* \"Mqttbaru.sol\":7673:7674  i */\n      dup2\n        /* \"Mqttbaru.sol\":7673:7696  i < clientLedger.length */\n      lt\n        /* \"Mqttbaru.sol\":7657:8046  for(uint i = 0; i < clientLedger.length; i++){\r... */\n      iszero\n      tag_218\n      jumpi\n        /* \"Mqttbaru.sol\":7727:7739  clientLedger */\n      0x01\n        /* \"Mqttbaru.sol\":7740:7741  i */\n      dup2\n        /* \"Mqttbaru.sol\":7727:7742  clientLedger[i] */\n      dup2\n      sload\n      dup2\n      lt\n      tag_220\n      jumpi\n      invalid\n    tag_220:\n      swap1\n      0x00\n      mstore\n      keccak256(0x00, 0x20)\n      swap1\n      0x04\n      mul\n      add\n        /* \"Mqttbaru.sol\":7727:7745  clientLedger[i].id */\n      0x00\n      add\n      sload\n        /* \"Mqttbaru.sol\":7720:7723  _id */\n      dup6\n        /* \"Mqttbaru.sol\":7720:7745  _id == clientLedger[i].id */\n      eq\n        /* \"Mqttbaru.sol\":7717:8035  if(_id == clientLedger[i].id){\r... */\n      iszero\n      tag_222\n      jumpi\n        /* \"Mqttbaru.sol\":7769:7775  uint j */\n      0x00\n        /* \"Mqttbaru.sol\":7765:8020  for(uint j = 0; j < clientLedger[i].topic.length ; j++){\r... */\n    tag_223:\n        /* \"Mqttbaru.sol\":7785:7797  clientLedger */\n      0x01\n        /* \"Mqttbaru.sol\":7798:7799  i */\n      dup3\n        /* \"Mqttbaru.sol\":7785:7800  clientLedger[i] */\n      dup2\n      sload\n      dup2\n      lt\n      tag_226\n      jumpi\n      invalid\n    tag_226:\n      swap1\n      0x00\n      mstore\n      keccak256(0x00, 0x20)\n      swap1\n      0x04\n      mul\n      add\n        /* \"Mqttbaru.sol\":7785:7806  clientLedger[i].topic */\n      0x03\n      add\n        /* \"Mqttbaru.sol\":7785:7813  clientLedger[i].topic.length */\n      dup1\n      sload\n      swap1\n      pop\n        /* \"Mqttbaru.sol\":7781:7782  j */\n      dup2\n        /* \"Mqttbaru.sol\":7781:7813  j < clientLedger[i].topic.length */\n      lt\n        /* \"Mqttbaru.sol\":7765:8020  for(uint j = 0; j < clientLedger[i].topic.length ; j++){\r... */\n      iszero\n      tag_224\n      jumpi\n        /* \"Mqttbaru.sol\":7912:7924  clientLedger */\n      0x01\n        /* \"Mqttbaru.sol\":7925:7926  i */\n      dup3\n        /* \"Mqttbaru.sol\":7912:7927  clientLedger[i] */\n      dup2\n      sload\n      dup2\n      lt\n      tag_228\n      jumpi\n      invalid\n    tag_228:\n      swap1\n      0x00\n      mstore\n      keccak256(0x00, 0x20)\n      swap1\n      0x04\n      mul\n      add\n        /* \"Mqttbaru.sol\":7912:7933  clientLedger[i].topic */\n      0x03\n      add\n        /* \"Mqttbaru.sol\":7934:7935  j */\n      dup2\n        /* \"Mqttbaru.sol\":7912:7936  clientLedger[i].topic[j] */\n      dup2\n      sload\n      dup2\n      lt\n      tag_230\n      jumpi\n      invalid\n    tag_230:\n      swap1\n      0x00\n      mstore\n      keccak256(0x00, 0x20)\n      add\n        /* \"Mqttbaru.sol\":7895:7937  abi.encodePacked(clientLedger[i].topic[j]) */\n      add(0x20, mload(0x40))\n      tag_232\n      swap2\n      swap1\n      tag_120\n      jump\t// in\n    tag_232:\n      mload(0x40)\n      0x20\n      dup2\n      dup4\n      sub\n      sub\n      dup2\n      mstore\n      swap1\n      0x40\n      mstore\n        /* \"Mqttbaru.sol\":7885:7938  keccak256(abi.encodePacked(clientLedger[i].topic[j])) */\n      dup1\n      mload\n      swap1\n      0x20\n      add\n      keccak256\n        /* \"Mqttbaru.sol\":7873:7879  _topic */\n      dup6\n        /* \"Mqttbaru.sol\":7856:7880  abi.encodePacked(_topic) */\n      add(0x20, mload(0x40))\n      tag_233\n      swap2\n      swap1\n      tag_122\n      jump\t// in\n    tag_233:\n      mload(0x40)\n      0x20\n      dup2\n      dup4\n      sub\n      sub\n      dup2\n      mstore\n      swap1\n      0x40\n      mstore\n        /* \"Mqttbaru.sol\":7846:7881  keccak256(abi.encodePacked(_topic)) */\n      dup1\n      mload\n      swap1\n      0x20\n      add\n      keccak256\n        /* \"Mqttbaru.sol\":7846:7938  keccak256(abi.encodePacked(_topic)) == keccak256(abi.encodePacked(clientLedger[i].topic[j])) */\n      eq\n        /* \"Mqttbaru.sol\":7843:8001  if(keccak256(abi.encodePacked(_topic)) == keccak256(abi.encodePacked(clientLedger[i].topic[j]))){\r... */\n      iszero\n      tag_234\n      jumpi\n        /* \"Mqttbaru.sol\":7973:7977  true */\n      0x01\n        /* \"Mqttbaru.sol\":7966:7977  return true */\n      swap4\n      pop\n      pop\n      pop\n      jump(tag_216)\n        /* \"Mqttbaru.sol\":7843:8001  if(keccak256(abi.encodePacked(_topic)) == keccak256(abi.encodePacked(clientLedger[i].topic[j]))){\r... */\n    tag_234:\n        /* \"Mqttbaru.sol\":7816:7819  j++ */\n      dup1\n      dup1\n      0x01\n      add\n      swap2\n      pop\n      pop\n        /* \"Mqttbaru.sol\":7765:8020  for(uint j = 0; j < clientLedger[i].topic.length ; j++){\r... */\n      jump(tag_223)\n    tag_224:\n      pop\n        /* \"Mqttbaru.sol\":7717:8035  if(_id == clientLedger[i].id){\r... */\n    tag_222:\n        /* \"Mqttbaru.sol\":7698:7701  i++ */\n      dup1\n      dup1\n      0x01\n      add\n      swap2\n      pop\n      pop\n        /* \"Mqttbaru.sol\":7657:8046  for(uint i = 0; i < clientLedger.length; i++){\r... */\n      jump(tag_217)\n    tag_218:\n      pop\n        /* \"Mqttbaru.sol\":8063:8068  false */\n      0x00\n        /* \"Mqttbaru.sol\":8056:8068  return false */\n      swap2\n      pop\n        /* \"Mqttbaru.sol\":8372:8373  _ */\n    tag_216:\n        /* \"Mqttbaru.sol\":7532:8076  function authorize(bytes32 _token, uint _id, string memory _topic) brokerIsAuth(_token) public view returns(bool) {\r... */\n      pop\n      swap4\n      swap3\n      pop\n      pop\n      pop\n      jump\t// out\n        /* \"Mqttbaru.sol\":2311:2659  function addBroker(address payable _brokeraddress) public isManager {\r... */\n    tag_59:\n        /* \"Mqttbaru.sol\":8142:8149  manager */\n      0x00\n      dup1\n      sload\n      swap1\n      0x0100\n      exp\n      swap1\n      div\n      0xffffffffffffffffffffffffffffffffffffffff\n      and\n        /* \"Mqttbaru.sol\":8128:8149  msg.sender == manager */\n      0xffffffffffffffffffffffffffffffffffffffff\n      and\n        /* \"Mqttbaru.sol\":8128:8138  msg.sender */\n      caller\n        /* \"Mqttbaru.sol\":8128:8149  msg.sender == manager */\n      0xffffffffffffffffffffffffffffffffffffffff\n      and\n      eq\n        /* \"Mqttbaru.sol\":8120:8150  require(msg.sender == manager) */\n      tag_236\n      jumpi\n      0x00\n      dup1\n      revert\n    tag_236:\n        /* \"Mqttbaru.sol\":2400:2423  Broker memory newBroker */\n      tag_238\n      tag_239\n      jump\t// in\n    tag_238:\n        /* \"Mqttbaru.sol\":2426:2519  Broker({\r... */\n      mload(0x40)\n      dup1\n      0x40\n      add\n      0x40\n      mstore\n      dup1\n        /* \"Mqttbaru.sol\":2464:2478  _brokeraddress */\n      dup4\n        /* \"Mqttbaru.sol\":2426:2519  Broker({\r... */\n      0xffffffffffffffffffffffffffffffffffffffff\n      and\n      dup2\n      mstore\n      0x20\n      add\n        /* \"Mqttbaru.sol\":2504:2507  now */\n      timestamp\n        /* \"Mqttbaru.sol\":2426:2519  Broker({\r... */\n      dup2\n      mstore\n      pop\n        /* \"Mqttbaru.sol\":2400:2519  Broker memory newBroker = Broker({\r... */\n      swap1\n      pop\n        /* \"Mqttbaru.sol\":2540:2553  brokerAddress */\n      0x02\n        /* \"Mqttbaru.sol\":2559:2568  newBroker */\n      dup2\n        /* \"Mqttbaru.sol\":2540:2569  brokerAddress.push(newBroker) */\n      swap1\n      dup1\n      0x01\n      dup2\n      sload\n      add\n      dup1\n      dup3\n      sstore\n      dup1\n      swap2\n      pop\n      pop\n      0x01\n      swap1\n      sub\n      swap1\n      0x00\n      mstore\n      keccak256(0x00, 0x20)\n      swap1\n      0x02\n      mul\n      add\n      0x00\n      swap1\n      swap2\n      swap1\n      swap2\n      swap1\n      swap2\n      pop\n      0x00\n      dup3\n      add\n      mload\n      dup2\n      0x00\n      add\n      exp(0x0100, 0x00)\n      dup2\n      sload\n      dup2\n      0xffffffffffffffffffffffffffffffffffffffff\n      mul\n      not\n      and\n      swap1\n      dup4\n      0xffffffffffffffffffffffffffffffffffffffff\n      and\n      mul\n      or\n      swap1\n      sstore\n      pop\n      0x20\n      dup3\n      add\n      mload\n      dup2\n      0x01\n      add\n      sstore\n      pop\n      pop\n        /* \"Mqttbaru.sol\":2613:2617  true */\n      0x01\n        /* \"Mqttbaru.sol\":2580:2594  brokerValidity */\n      0x03\n        /* \"Mqttbaru.sol\":2580:2610  brokerValidity[_brokeraddress] */\n      0x00\n        /* \"Mqttbaru.sol\":2595:2609  _brokeraddress */\n      dup5\n        /* \"Mqttbaru.sol\":2580:2610  brokerValidity[_brokeraddress] */\n      0xffffffffffffffffffffffffffffffffffffffff\n      and\n      0xffffffffffffffffffffffffffffffffffffffff\n      and\n      dup2\n      mstore\n      0x20\n      add\n      swap1\n      dup2\n      mstore\n      0x20\n      add\n      0x00\n      keccak256\n      0x00\n        /* \"Mqttbaru.sol\":2580:2617  brokerValidity[_brokeraddress] = true */\n      0x0100\n      exp\n      dup2\n      sload\n      dup2\n      0xff\n      mul\n      not\n      and\n      swap1\n      dup4\n      iszero\n      iszero\n      mul\n      or\n      swap1\n      sstore\n      pop\n        /* \"Mqttbaru.sol\":2628:2639  brokerCount */\n      0x05\n      0x00\n        /* \"Mqttbaru.sol\":2628:2641  brokerCount++ */\n      dup2\n      sload\n      dup1\n      swap3\n      swap2\n      swap1\n      0x01\n      add\n      swap2\n      swap1\n      pop\n      sstore\n      pop\n        /* \"Mqttbaru.sol\":8161:8162  _ */\n      pop\n        /* \"Mqttbaru.sol\":2311:2659  function addBroker(address payable _brokeraddress) public isManager {\r... */\n      pop\n      jump\t// out\n        /* \"Mqttbaru.sol\":5409:5773  function addClient(string memory _username, string memory _password) isManager public {\r... */\n    tag_63:\n        /* \"Mqttbaru.sol\":8142:8149  manager */\n      0x00\n      dup1\n      sload\n      swap1\n      0x0100\n      exp\n      swap1\n      div\n      0xffffffffffffffffffffffffffffffffffffffff\n      and\n        /* \"Mqttbaru.sol\":8128:8149  msg.sender == manager */\n      0xffffffffffffffffffffffffffffffffffffffff\n      and\n        /* \"Mqttbaru.sol\":8128:8138  msg.sender */\n      caller\n        /* \"Mqttbaru.sol\":8128:8149  msg.sender == manager */\n      0xffffffffffffffffffffffffffffffffffffffff\n      and\n      eq\n        /* \"Mqttbaru.sol\":8120:8150  require(msg.sender == manager) */\n      tag_242\n      jumpi\n      0x00\n      dup1\n      revert\n    tag_242:\n        /* \"Mqttbaru.sol\":5506:5529  Client memory newClient */\n      tag_244\n      tag_245\n      jump\t// in\n    tag_244:\n        /* \"Mqttbaru.sol\":5532:5682  Client({\r... */\n      mload(0x40)\n      dup1\n      0x80\n      add\n      0x40\n      mstore\n      dup1\n        /* \"Mqttbaru.sol\":5558:5565  idCount */\n      sload(0x06)\n        /* \"Mqttbaru.sol\":5532:5682  Client({\r... */\n      dup2\n      mstore\n      0x20\n      add\n        /* \"Mqttbaru.sol\":5590:5599  _username */\n      dup5\n        /* \"Mqttbaru.sol\":5532:5682  Client({\r... */\n      dup2\n      mstore\n      0x20\n      add\n        /* \"Mqttbaru.sol\":5624:5633  _password */\n      dup4\n        /* \"Mqttbaru.sol\":5532:5682  Client({\r... */\n      dup2\n      mstore\n      0x20\n      add\n        /* \"Mqttbaru.sol\":5668:5669  0 */\n      0x00\n        /* \"Mqttbaru.sol\":5655:5670  new string[](0) */\n      0xffffffffffffffff\n      dup2\n      gt\n      dup1\n      iszero\n      tag_246\n      jumpi\n      0x00\n      dup1\n      revert\n    tag_246:\n      pop\n      mload(0x40)\n      swap1\n      dup1\n      dup3\n      mstore\n      dup1\n      0x20\n      mul\n      0x20\n      add\n      dup3\n      add\n      0x40\n      mstore\n      dup1\n      iszero\n      tag_247\n      jumpi\n      dup2\n      0x20\n      add\n    tag_248:\n      0x60\n      dup2\n      mstore\n      0x20\n      add\n      swap1\n      0x01\n      swap1\n      sub\n      swap1\n      dup2\n      tag_248\n      jumpi\n      swap1\n      pop\n    tag_247:\n      pop\n        /* \"Mqttbaru.sol\":5532:5682  Client({\r... */\n      dup2\n      mstore\n      pop\n        /* \"Mqttbaru.sol\":5506:5682  Client memory newClient = Client({\r... */\n      swap1\n      pop\n        /* \"Mqttbaru.sol\":5693:5704  clientCount */\n      0x04\n      0x00\n        /* \"Mqttbaru.sol\":5693:5706  clientCount++ */\n      dup2\n      sload\n      dup1\n      swap3\n      swap2\n      swap1\n      0x01\n      add\n      swap2\n      swap1\n      pop\n      sstore\n      pop\n        /* \"Mqttbaru.sol\":5717:5724  idCount */\n      0x06\n      0x00\n        /* \"Mqttbaru.sol\":5717:5726  idCount++ */\n      dup2\n      sload\n      dup1\n      swap3\n      swap2\n      swap1\n      0x01\n      add\n      swap2\n      swap1\n      pop\n      sstore\n      pop\n        /* \"Mqttbaru.sol\":5737:5749  clientLedger */\n      0x01\n        /* \"Mqttbaru.sol\":5755:5764  newClient */\n      dup2\n        /* \"Mqttbaru.sol\":5737:5765  clientLedger.push(newClient) */\n      swap1\n      dup1\n      0x01\n      dup2\n      sload\n      add\n      dup1\n      dup3\n      sstore\n      dup1\n      swap2\n      pop\n      pop\n      0x01\n      swap1\n      sub\n      swap1\n      0x00\n      mstore\n      keccak256(0x00, 0x20)\n      swap1\n      0x04\n      mul\n      add\n      0x00\n      swap1\n      swap2\n      swap1\n      swap2\n      swap1\n      swap2\n      pop\n      0x00\n      dup3\n      add\n      mload\n      dup2\n      0x00\n      add\n      sstore\n      0x20\n      dup3\n      add\n      mload\n      dup2\n      0x01\n      add\n      swap1\n      dup1\n      mload\n      swap1\n      0x20\n      add\n      swap1\n      tag_250\n      swap3\n      swap2\n      swap1\n      tag_127\n      jump\t// in\n    tag_250:\n      pop\n      0x40\n      dup3\n      add\n      mload\n      dup2\n      0x02\n      add\n      swap1\n      dup1\n      mload\n      swap1\n      0x20\n      add\n      swap1\n      tag_251\n      swap3\n      swap2\n      swap1\n      tag_127\n      jump\t// in\n    tag_251:\n      pop\n      0x60\n      dup3\n      add\n      mload\n      dup2\n      0x03\n      add\n      swap1\n      dup1\n      mload\n      swap1\n      0x20\n      add\n      swap1\n      tag_252\n      swap3\n      swap2\n      swap1\n      tag_253\n      jump\t// in\n    tag_252:\n      pop\n      pop\n      pop\n        /* \"Mqttbaru.sol\":8161:8162  _ */\n      pop\n        /* \"Mqttbaru.sol\":5409:5773  function addClient(string memory _username, string memory _password) isManager public {\r... */\n      pop\n      pop\n      jump\t// out\n        /* \"Mqttbaru.sol\":3231:3557  function deleteClient(uint _id) isManager public {\r... */\n    tag_66:\n        /* \"Mqttbaru.sol\":8142:8149  manager */\n      0x00\n      dup1\n      sload\n      swap1\n      0x0100\n      exp\n      swap1\n      div\n      0xffffffffffffffffffffffffffffffffffffffff\n      and\n        /* \"Mqttbaru.sol\":8128:8149  msg.sender == manager */\n      0xffffffffffffffffffffffffffffffffffffffff\n      and\n        /* \"Mqttbaru.sol\":8128:8138  msg.sender */\n      caller\n        /* \"Mqttbaru.sol\":8128:8149  msg.sender == manager */\n      0xffffffffffffffffffffffffffffffffffffffff\n      and\n      eq\n        /* \"Mqttbaru.sol\":8120:8150  require(msg.sender == manager) */\n      tag_255\n      jumpi\n      0x00\n      dup1\n      revert\n    tag_255:\n        /* \"Mqttbaru.sol\":3295:3301  uint i */\n      0x00\n        /* \"Mqttbaru.sol\":3291:3550  for(uint i = 0; i < clientLedger.length; i++){\r... */\n    tag_257:\n        /* \"Mqttbaru.sol\":3311:3323  clientLedger */\n      0x01\n        /* \"Mqttbaru.sol\":3311:3330  clientLedger.length */\n      dup1\n      sload\n      swap1\n      pop\n        /* \"Mqttbaru.sol\":3307:3308  i */\n      dup2\n        /* \"Mqttbaru.sol\":3307:3330  i < clientLedger.length */\n      lt\n        /* \"Mqttbaru.sol\":3291:3550  for(uint i = 0; i < clientLedger.length; i++){\r... */\n      iszero\n      tag_258\n      jumpi\n        /* \"Mqttbaru.sol\":3361:3373  clientLedger */\n      0x01\n        /* \"Mqttbaru.sol\":3374:3375  i */\n      dup2\n        /* \"Mqttbaru.sol\":3361:3376  clientLedger[i] */\n      dup2\n      sload\n      dup2\n      lt\n      tag_260\n      jumpi\n      invalid\n    tag_260:\n      swap1\n      0x00\n      mstore\n      keccak256(0x00, 0x20)\n      swap1\n      0x04\n      mul\n      add\n        /* \"Mqttbaru.sol\":3361:3379  clientLedger[i].id */\n      0x00\n      add\n      sload\n        /* \"Mqttbaru.sol\":3354:3357  _id */\n      dup3\n        /* \"Mqttbaru.sol\":3354:3379  _id == clientLedger[i].id */\n      eq\n        /* \"Mqttbaru.sol\":3351:3539  if(_id == clientLedger[i].id){\r... */\n      iszero\n      tag_262\n      jumpi\n        /* \"Mqttbaru.sol\":3417:3429  clientLedger */\n      0x01\n        /* \"Mqttbaru.sol\":3452:3453  1 */\n      dup1\n        /* \"Mqttbaru.sol\":3430:3442  clientLedger */\n      dup1\n        /* \"Mqttbaru.sol\":3430:3449  clientLedger.length */\n      dup1\n      sload\n      swap1\n      pop\n        /* \"Mqttbaru.sol\":3430:3453  clientLedger.length - 1 */\n      sub\n        /* \"Mqttbaru.sol\":3417:3454  clientLedger[clientLedger.length - 1] */\n      dup2\n      sload\n      dup2\n      lt\n      tag_263\n      jumpi\n      invalid\n    tag_263:\n      swap1\n      0x00\n      mstore\n      keccak256(0x00, 0x20)\n      swap1\n      0x04\n      mul\n      add\n        /* \"Mqttbaru.sol\":3399:3411  clientLedger */\n      0x01\n        /* \"Mqttbaru.sol\":3412:3413  i */\n      dup3\n        /* \"Mqttbaru.sol\":3399:3414  clientLedger[i] */\n      dup2\n      sload\n      dup2\n      lt\n      tag_265\n      jumpi\n      invalid\n    tag_265:\n      swap1\n      0x00\n      mstore\n      keccak256(0x00, 0x20)\n      swap1\n      0x04\n      mul\n      add\n        /* \"Mqttbaru.sol\":3399:3454  clientLedger[i] = clientLedger[clientLedger.length - 1] */\n      0x00\n      dup3\n      add\n      sload\n      dup2\n      0x00\n      add\n      sstore\n      0x01\n      dup3\n      add\n      dup2\n      0x01\n      add\n      swap1\n      dup1\n      sload\n      0x01\n      dup2\n      0x01\n      and\n      iszero\n      0x0100\n      mul\n      sub\n      and\n      0x02\n      swap1\n      div\n      tag_267\n      swap3\n      swap2\n      swap1\n      tag_268\n      jump\t// in\n    tag_267:\n      pop\n      0x02\n      dup3\n      add\n      dup2\n      0x02\n      add\n      swap1\n      dup1\n      sload\n      0x01\n      dup2\n      0x01\n      and\n      iszero\n      0x0100\n      mul\n      sub\n      and\n      0x02\n      swap1\n      div\n      tag_269\n      swap3\n      swap2\n      swap1\n      tag_268\n      jump\t// in\n    tag_269:\n      pop\n      0x03\n      dup3\n      add\n      dup2\n      0x03\n      add\n      swap1\n      dup1\n      sload\n      tag_270\n      swap3\n      swap2\n      swap1\n      tag_271\n      jump\t// in\n    tag_270:\n      pop\n      swap1\n      pop\n      pop\n        /* \"Mqttbaru.sol\":3473:3485  clientLedger */\n      0x01\n        /* \"Mqttbaru.sol\":3473:3491  clientLedger.pop() */\n      dup1\n      sload\n      dup1\n      tag_272\n      jumpi\n      invalid\n    tag_272:\n      0x01\n      swap1\n      sub\n      dup2\n      dup2\n      swap1\n      0x00\n      mstore\n      keccak256(0x00, 0x20)\n      swap1\n      0x04\n      mul\n      add\n      0x00\n      dup1\n      dup3\n      add\n      0x00\n      swap1\n      sstore\n      0x01\n      dup3\n      add\n      0x00\n      tag_274\n      swap2\n      swap1\n      tag_166\n      jump\t// in\n    tag_274:\n      0x02\n      dup3\n      add\n      0x00\n      tag_275\n      swap2\n      swap1\n      tag_166\n      jump\t// in\n    tag_275:\n      0x03\n      dup3\n      add\n      0x00\n      tag_276\n      swap2\n      swap1\n      tag_277\n      jump\t// in\n    tag_276:\n      pop\n      pop\n      swap1\n      sstore\n        /* \"Mqttbaru.sol\":3510:3521  clientCount */\n      0x04\n      0x00\n        /* \"Mqttbaru.sol\":3510:3523  clientCount-- */\n      dup2\n      sload\n      dup1\n      swap3\n      swap2\n      swap1\n      0x01\n      swap1\n      sub\n      swap2\n      swap1\n      pop\n      sstore\n      pop\n        /* \"Mqttbaru.sol\":3351:3539  if(_id == clientLedger[i].id){\r... */\n    tag_262:\n        /* \"Mqttbaru.sol\":3332:3335  i++ */\n      dup1\n      dup1\n      0x01\n      add\n      swap2\n      pop\n      pop\n        /* \"Mqttbaru.sol\":3291:3550  for(uint i = 0; i < clientLedger.length; i++){\r... */\n      jump(tag_257)\n    tag_258:\n      pop\n        /* \"Mqttbaru.sol\":3231:3557  function deleteClient(uint _id) isManager public {\r... */\n      pop\n      jump\t// out\n        /* \"Mqttbaru.sol\":1912:2299  function checkAuthBroker(bytes32 _token) public view isBroker returns (bool) {\r... */\n    tag_70:\n        /* \"Mqttbaru.sol\":1983:1987  bool */\n      0x00\n        /* \"Mqttbaru.sol\":8221:8235  brokerValidity */\n      0x03\n        /* \"Mqttbaru.sol\":8221:8247  brokerValidity[msg.sender] */\n      0x00\n        /* \"Mqttbaru.sol\":8236:8246  msg.sender */\n      caller\n        /* \"Mqttbaru.sol\":8221:8247  brokerValidity[msg.sender] */\n      0xffffffffffffffffffffffffffffffffffffffff\n      and\n      0xffffffffffffffffffffffffffffffffffffffff\n      and\n      dup2\n      mstore\n      0x20\n      add\n      swap1\n      dup2\n      mstore\n      0x20\n      add\n      0x00\n      keccak256\n      0x00\n      swap1\n      sload\n      swap1\n      0x0100\n      exp\n      swap1\n      div\n      0xff\n      and\n        /* \"Mqttbaru.sol\":8213:8248  require(brokerValidity[msg.sender]) */\n      tag_279\n      jumpi\n      0x00\n      dup1\n      revert\n    tag_279:\n        /* \"Mqttbaru.sol\":2004:2010  uint i */\n      0x00\n        /* \"Mqttbaru.sol\":2000:2292  for(uint i = 0; i < brokerAddress.length; i++) {\r... */\n    tag_281:\n        /* \"Mqttbaru.sol\":2020:2033  brokerAddress */\n      0x02\n        /* \"Mqttbaru.sol\":2020:2040  brokerAddress.length */\n      dup1\n      sload\n      swap1\n      pop\n        /* \"Mqttbaru.sol\":2016:2017  i */\n      dup2\n        /* \"Mqttbaru.sol\":2016:2040  i < brokerAddress.length */\n      lt\n        /* \"Mqttbaru.sol\":2000:2292  for(uint i = 0; i < brokerAddress.length; i++) {\r... */\n      iszero\n      tag_282\n      jumpi\n        /* \"Mqttbaru.sol\":2079:2092  brokerAddress */\n      0x02\n        /* \"Mqttbaru.sol\":2093:2094  i */\n      dup2\n        /* \"Mqttbaru.sol\":2079:2095  brokerAddress[i] */\n      dup2\n      sload\n      dup2\n      lt\n      tag_284\n      jumpi\n      invalid\n    tag_284:\n      swap1\n      0x00\n      mstore\n      keccak256(0x00, 0x20)\n      swap1\n      0x02\n      mul\n      add\n        /* \"Mqttbaru.sol\":2079:2110  brokerAddress[i].broker_address */\n      0x00\n      add\n      0x00\n      swap1\n      sload\n      swap1\n      0x0100\n      exp\n      swap1\n      div\n      0xffffffffffffffffffffffffffffffffffffffff\n      and\n        /* \"Mqttbaru.sol\":2065:2110  msg.sender == brokerAddress[i].broker_address */\n      0xffffffffffffffffffffffffffffffffffffffff\n      and\n        /* \"Mqttbaru.sol\":2065:2075  msg.sender */\n      caller\n        /* \"Mqttbaru.sol\":2065:2110  msg.sender == brokerAddress[i].broker_address */\n      0xffffffffffffffffffffffffffffffffffffffff\n      and\n      eq\n        /* \"Mqttbaru.sol\":2062:2281  if(msg.sender == brokerAddress[i].broker_address) {\r... */\n      iszero\n      tag_286\n      jumpi\n        /* \"Mqttbaru.sol\":2205:2211  _token */\n      dup3\n        /* \"Mqttbaru.sol\":2161:2171  msg.sender */\n      caller\n        /* \"Mqttbaru.sol\":2173:2186  brokerAddress */\n      0x02\n        /* \"Mqttbaru.sol\":2187:2188  i */\n      dup4\n        /* \"Mqttbaru.sol\":2173:2189  brokerAddress[i] */\n      dup2\n      sload\n      dup2\n      lt\n      tag_287\n      jumpi\n      invalid\n    tag_287:\n      swap1\n      0x00\n      mstore\n      keccak256(0x00, 0x20)\n      swap1\n      0x02\n      mul\n      add\n        /* \"Mqttbaru.sol\":2173:2199  brokerAddress[i].timestamp */\n      0x01\n      add\n      sload\n        /* \"Mqttbaru.sol\":2144:2200  abi.encodePacked(msg.sender, brokerAddress[i].timestamp) */\n      add(0x20, mload(0x40))\n      tag_289\n      swap3\n      swap2\n      swap1\n      tag_290\n      jump\t// in\n    tag_289:\n      mload(0x40)\n      0x20\n      dup2\n      dup4\n      sub\n      sub\n      dup2\n      mstore\n      swap1\n      0x40\n      mstore\n        /* \"Mqttbaru.sol\":2134:2201  keccak256(abi.encodePacked(msg.sender, brokerAddress[i].timestamp)) */\n      dup1\n      mload\n      swap1\n      0x20\n      add\n      keccak256\n        /* \"Mqttbaru.sol\":2134:2211  keccak256(abi.encodePacked(msg.sender, brokerAddress[i].timestamp)) == _token */\n      eq\n        /* \"Mqttbaru.sol\":2131:2266  if(keccak256(abi.encodePacked(msg.sender, brokerAddress[i].timestamp)) == _token){\r... */\n      iszero\n      tag_291\n      jumpi\n        /* \"Mqttbaru.sol\":2242:2246  true */\n      0x01\n        /* \"Mqttbaru.sol\":2235:2246  return true */\n      swap2\n      pop\n      pop\n      jump(tag_280)\n        /* \"Mqttbaru.sol\":2131:2266  if(keccak256(abi.encodePacked(msg.sender, brokerAddress[i].timestamp)) == _token){\r... */\n    tag_291:\n        /* \"Mqttbaru.sol\":2062:2281  if(msg.sender == brokerAddress[i].broker_address) {\r... */\n    tag_286:\n        /* \"Mqttbaru.sol\":2042:2045  i++ */\n      dup1\n      dup1\n      0x01\n      add\n      swap2\n      pop\n      pop\n        /* \"Mqttbaru.sol\":2000:2292  for(uint i = 0; i < brokerAddress.length; i++) {\r... */\n      jump(tag_281)\n    tag_282:\n      pop\n        /* \"Mqttbaru.sol\":8259:8260  _ */\n    tag_280:\n        /* \"Mqttbaru.sol\":1912:2299  function checkAuthBroker(bytes32 _token) public view isBroker returns (bool) {\r... */\n      swap2\n      swap1\n      pop\n      jump\t// out\n        /* \"Mqttbaru.sol\":1602:1899  function getBroker() public isManager view returns (address[] memory){\r... */\n    tag_73:\n        /* \"Mqttbaru.sol\":1654:1670  address[] memory */\n      0x60\n        /* \"Mqttbaru.sol\":8142:8149  manager */\n      0x00\n      dup1\n      sload\n      swap1\n      0x0100\n      exp\n      swap1\n      div\n      0xffffffffffffffffffffffffffffffffffffffff\n      and\n        /* \"Mqttbaru.sol\":8128:8149  msg.sender == manager */\n      0xffffffffffffffffffffffffffffffffffffffff\n      and\n        /* \"Mqttbaru.sol\":8128:8138  msg.sender */\n      caller\n        /* \"Mqttbaru.sol\":8128:8149  msg.sender == manager */\n      0xffffffffffffffffffffffffffffffffffffffff\n      and\n      eq\n        /* \"Mqttbaru.sol\":8120:8150  require(msg.sender == manager) */\n      tag_293\n      jumpi\n      0x00\n      dup1\n      revert\n    tag_293:\n        /* \"Mqttbaru.sol\":1682:1707  address[] memory _address */\n      0x60\n        /* \"Mqttbaru.sol\":1724:1735  brokerCount */\n      sload(0x05)\n        /* \"Mqttbaru.sol\":1710:1736  new address[](brokerCount) */\n      0xffffffffffffffff\n      dup2\n      gt\n      dup1\n      iszero\n      tag_295\n      jumpi\n      0x00\n      dup1\n      revert\n    tag_295:\n      pop\n      mload(0x40)\n      swap1\n      dup1\n      dup3\n      mstore\n      dup1\n      0x20\n      mul\n      0x20\n      add\n      dup3\n      add\n      0x40\n      mstore\n      dup1\n      iszero\n      tag_296\n      jumpi\n      dup2\n      0x20\n      add\n      0x20\n      dup3\n      mul\n      dup1\n      calldatasize\n      dup4\n      calldatacopy\n      dup1\n      dup3\n      add\n      swap2\n      pop\n      pop\n      swap1\n      pop\n    tag_296:\n      pop\n        /* \"Mqttbaru.sol\":1682:1736  address[] memory _address = new address[](brokerCount) */\n      swap1\n      pop\n        /* \"Mqttbaru.sol\":1751:1757  uint i */\n      0x00\n        /* \"Mqttbaru.sol\":1747:1866  for(uint i = 0; i < brokerAddress.length; i++) {\r... */\n    tag_297:\n        /* \"Mqttbaru.sol\":1767:1780  brokerAddress */\n      0x02\n        /* \"Mqttbaru.sol\":1767:1787  brokerAddress.length */\n      dup1\n      sload\n      swap1\n      pop\n        /* \"Mqttbaru.sol\":1763:1764  i */\n      dup2\n        /* \"Mqttbaru.sol\":1763:1787  i < brokerAddress.length */\n      lt\n        /* \"Mqttbaru.sol\":1747:1866  for(uint i = 0; i < brokerAddress.length; i++) {\r... */\n      iszero\n      tag_298\n      jumpi\n        /* \"Mqttbaru.sol\":1823:1836  brokerAddress */\n      0x02\n        /* \"Mqttbaru.sol\":1837:1838  i */\n      dup2\n        /* \"Mqttbaru.sol\":1823:1839  brokerAddress[i] */\n      dup2\n      sload\n      dup2\n      lt\n      tag_300\n      jumpi\n      invalid\n    tag_300:\n      swap1\n      0x00\n      mstore\n      keccak256(0x00, 0x20)\n      swap1\n      0x02\n      mul\n      add\n        /* \"Mqttbaru.sol\":1823:1854  brokerAddress[i].broker_address */\n      0x00\n      add\n      0x00\n      swap1\n      sload\n      swap1\n      0x0100\n      exp\n      swap1\n      div\n      0xffffffffffffffffffffffffffffffffffffffff\n      and\n        /* \"Mqttbaru.sol\":1809:1817  _address */\n      dup3\n        /* \"Mqttbaru.sol\":1818:1819  i */\n      dup3\n        /* \"Mqttbaru.sol\":1809:1820  _address[i] */\n      dup2\n      mload\n      dup2\n      lt\n      tag_302\n      jumpi\n      invalid\n    tag_302:\n      0x20\n      mul\n      0x20\n      add\n      add\n        /* \"Mqttbaru.sol\":1809:1854  _address[i] = brokerAddress[i].broker_address */\n      swap1\n      0xffffffffffffffffffffffffffffffffffffffff\n      and\n      swap1\n      dup2\n      0xffffffffffffffffffffffffffffffffffffffff\n      and\n      dup2\n      mstore\n      pop\n      pop\n        /* \"Mqttbaru.sol\":1789:1792  i++ */\n      dup1\n      dup1\n      0x01\n      add\n      swap2\n      pop\n      pop\n        /* \"Mqttbaru.sol\":1747:1866  for(uint i = 0; i < brokerAddress.length; i++) {\r... */\n      jump(tag_297)\n    tag_298:\n      pop\n        /* \"Mqttbaru.sol\":1883:1891  _address */\n      dup1\n        /* \"Mqttbaru.sol\":1876:1891  return _address */\n      swap2\n      pop\n      pop\n        /* \"Mqttbaru.sol\":1602:1899  function getBroker() public isManager view returns (address[] memory){\r... */\n      swap1\n      jump\t// out\n        /* \"Mqttbaru.sol\":6989:7520  function authenticate(bytes32 _token, uint _id, string memory _username, string memory _password) brokerIsAuth(_token) public view returns (bool) {\r... */\n    tag_79:\n        /* \"Mqttbaru.sol\":7129:7133  bool */\n      0x00\n        /* \"Mqttbaru.sol\":7100:7106  _token */\n      dup5\n        /* \"Mqttbaru.sol\":8337:8360  checkAuthBroker(_token) */\n      tag_304\n        /* \"Mqttbaru.sol\":8353:8359  _token */\n      dup2\n        /* \"Mqttbaru.sol\":8337:8352  checkAuthBroker */\n      tag_70\n        /* \"Mqttbaru.sol\":8337:8360  checkAuthBroker(_token) */\n      jump\t// in\n    tag_304:\n        /* \"Mqttbaru.sol\":8329:8361  require(checkAuthBroker(_token)) */\n      tag_305\n      jumpi\n      0x00\n      dup1\n      revert\n    tag_305:\n        /* \"Mqttbaru.sol\":7150:7156  uint i */\n      0x00\n        /* \"Mqttbaru.sol\":7146:7490  for(uint i = 0; i < clientLedger.length; i++){\r... */\n    tag_307:\n        /* \"Mqttbaru.sol\":7166:7178  clientLedger */\n      0x01\n        /* \"Mqttbaru.sol\":7166:7185  clientLedger.length */\n      dup1\n      sload\n      swap1\n      pop\n        /* \"Mqttbaru.sol\":7162:7163  i */\n      dup2\n        /* \"Mqttbaru.sol\":7162:7185  i < clientLedger.length */\n      lt\n        /* \"Mqttbaru.sol\":7146:7490  for(uint i = 0; i < clientLedger.length; i++){\r... */\n      iszero\n      tag_308\n      jumpi\n        /* \"Mqttbaru.sol\":7216:7228  clientLedger */\n      0x01\n        /* \"Mqttbaru.sol\":7229:7230  i */\n      dup2\n        /* \"Mqttbaru.sol\":7216:7231  clientLedger[i] */\n      dup2\n      sload\n      dup2\n      lt\n      tag_310\n      jumpi\n      invalid\n    tag_310:\n      swap1\n      0x00\n      mstore\n      keccak256(0x00, 0x20)\n      swap1\n      0x04\n      mul\n      add\n        /* \"Mqttbaru.sol\":7216:7234  clientLedger[i].id */\n      0x00\n      add\n      sload\n        /* \"Mqttbaru.sol\":7209:7212  _id */\n      dup7\n        /* \"Mqttbaru.sol\":7209:7234  _id == clientLedger[i].id */\n      eq\n        /* \"Mqttbaru.sol\":7209:7333  _id == clientLedger[i].id && keccak256(abi.encodePacked(_username)) == keccak256(abi.encodePacked(clientLedger[i].username)) */\n      dup1\n      iszero\n      tag_312\n      jumpi\n      pop\n        /* \"Mqttbaru.sol\":7307:7319  clientLedger */\n      0x01\n        /* \"Mqttbaru.sol\":7320:7321  i */\n      dup2\n        /* \"Mqttbaru.sol\":7307:7322  clientLedger[i] */\n      dup2\n      sload\n      dup2\n      lt\n      tag_313\n      jumpi\n      invalid\n    tag_313:\n      swap1\n      0x00\n      mstore\n      keccak256(0x00, 0x20)\n      swap1\n      0x04\n      mul\n      add\n        /* \"Mqttbaru.sol\":7307:7331  clientLedger[i].username */\n      0x01\n      add\n        /* \"Mqttbaru.sol\":7290:7332  abi.encodePacked(clientLedger[i].username) */\n      add(0x20, mload(0x40))\n      tag_315\n      swap2\n      swap1\n      tag_120\n      jump\t// in\n    tag_315:\n      mload(0x40)\n      0x20\n      dup2\n      dup4\n      sub\n      sub\n      dup2\n      mstore\n      swap1\n      0x40\n      mstore\n        /* \"Mqttbaru.sol\":7280:7333  keccak256(abi.encodePacked(clientLedger[i].username)) */\n      dup1\n      mload\n      swap1\n      0x20\n      add\n      keccak256\n        /* \"Mqttbaru.sol\":7265:7274  _username */\n      dup6\n        /* \"Mqttbaru.sol\":7248:7275  abi.encodePacked(_username) */\n      add(0x20, mload(0x40))\n      tag_316\n      swap2\n      swap1\n      tag_122\n      jump\t// in\n    tag_316:\n      mload(0x40)\n      0x20\n      dup2\n      dup4\n      sub\n      sub\n      dup2\n      mstore\n      swap1\n      0x40\n      mstore\n        /* \"Mqttbaru.sol\":7238:7276  keccak256(abi.encodePacked(_username)) */\n      dup1\n      mload\n      swap1\n      0x20\n      add\n      keccak256\n        /* \"Mqttbaru.sol\":7238:7333  keccak256(abi.encodePacked(_username)) == keccak256(abi.encodePacked(clientLedger[i].username)) */\n      eq\n        /* \"Mqttbaru.sol\":7209:7333  _id == clientLedger[i].id && keccak256(abi.encodePacked(_username)) == keccak256(abi.encodePacked(clientLedger[i].username)) */\n    tag_312:\n        /* \"Mqttbaru.sol\":7209:7432  _id == clientLedger[i].id && keccak256(abi.encodePacked(_username)) == keccak256(abi.encodePacked(clientLedger[i].username)) && keccak256(abi.encodePacked(_password)) == keccak256(abi.encodePacked(clientLedger[i].password)) */\n      dup1\n      iszero\n      tag_317\n      jumpi\n      pop\n        /* \"Mqttbaru.sol\":7406:7418  clientLedger */\n      0x01\n        /* \"Mqttbaru.sol\":7419:7420  i */\n      dup2\n        /* \"Mqttbaru.sol\":7406:7421  clientLedger[i] */\n      dup2\n      sload\n      dup2\n      lt\n      tag_318\n      jumpi\n      invalid\n    tag_318:\n      swap1\n      0x00\n      mstore\n      keccak256(0x00, 0x20)\n      swap1\n      0x04\n      mul\n      add\n        /* \"Mqttbaru.sol\":7406:7430  clientLedger[i].password */\n      0x02\n      add\n        /* \"Mqttbaru.sol\":7389:7431  abi.encodePacked(clientLedger[i].password) */\n      add(0x20, mload(0x40))\n      tag_320\n      swap2\n      swap1\n      tag_120\n      jump\t// in\n    tag_320:\n      mload(0x40)\n      0x20\n      dup2\n      dup4\n      sub\n      sub\n      dup2\n      mstore\n      swap1\n      0x40\n      mstore\n        /* \"Mqttbaru.sol\":7379:7432  keccak256(abi.encodePacked(clientLedger[i].password)) */\n      dup1\n      mload\n      swap1\n      0x20\n      add\n      keccak256\n        /* \"Mqttbaru.sol\":7364:7373  _password */\n      dup5\n        /* \"Mqttbaru.sol\":7347:7374  abi.encodePacked(_password) */\n      add(0x20, mload(0x40))\n      tag_321\n      swap2\n      swap1\n      tag_122\n      jump\t// in\n    tag_321:\n      mload(0x40)\n      0x20\n      dup2\n      dup4\n      sub\n      sub\n      dup2\n      mstore\n      swap1\n      0x40\n      mstore\n        /* \"Mqttbaru.sol\":7337:7375  keccak256(abi.encodePacked(_password)) */\n      dup1\n      mload\n      swap1\n      0x20\n      add\n      keccak256\n        /* \"Mqttbaru.sol\":7337:7432  keccak256(abi.encodePacked(_password)) == keccak256(abi.encodePacked(clientLedger[i].password)) */\n      eq\n        /* \"Mqttbaru.sol\":7209:7432  _id == clientLedger[i].id && keccak256(abi.encodePacked(_username)) == keccak256(abi.encodePacked(clientLedger[i].username)) && keccak256(abi.encodePacked(_password)) == keccak256(abi.encodePacked(clientLedger[i].password)) */\n    tag_317:\n        /* \"Mqttbaru.sol\":7206:7479  if(_id == clientLedger[i].id && keccak256(abi.encodePacked(_username)) == keccak256(abi.encodePacked(clientLedger[i].username)) && keccak256(abi.encodePacked(_password)) == keccak256(abi.encodePacked(clientLedger[i].password))){\r... */\n      iszero\n      tag_322\n      jumpi\n        /* \"Mqttbaru.sol\":7459:7463  true */\n      0x01\n        /* \"Mqttbaru.sol\":7452:7463  return true */\n      swap3\n      pop\n      pop\n      jump(tag_306)\n        /* \"Mqttbaru.sol\":7206:7479  if(_id == clientLedger[i].id && keccak256(abi.encodePacked(_username)) == keccak256(abi.encodePacked(clientLedger[i].username)) && keccak256(abi.encodePacked(_password)) == keccak256(abi.encodePacked(clientLedger[i].password))){\r... */\n    tag_322:\n        /* \"Mqttbaru.sol\":7187:7190  i++ */\n      dup1\n      dup1\n      0x01\n      add\n      swap2\n      pop\n      pop\n        /* \"Mqttbaru.sol\":7146:7490  for(uint i = 0; i < clientLedger.length; i++){\r... */\n      jump(tag_307)\n    tag_308:\n      pop\n        /* \"Mqttbaru.sol\":7507:7512  false */\n      0x00\n        /* \"Mqttbaru.sol\":7500:7512  return false */\n      swap2\n      pop\n        /* \"Mqttbaru.sol\":8372:8373  _ */\n    tag_306:\n        /* \"Mqttbaru.sol\":6989:7520  function authenticate(bytes32 _token, uint _id, string memory _username, string memory _password) brokerIsAuth(_token) public view returns (bool) {\r... */\n      pop\n      swap5\n      swap4\n      pop\n      pop\n      pop\n      pop\n      jump\t// out\n        /* \"Mqttbaru.sol\":5791:6349  function updateTopic(uint _id, string memory _topic, string memory _newtopic) isManager public{\r... */\n    tag_84:\n        /* \"Mqttbaru.sol\":8142:8149  manager */\n      0x00\n      dup1\n      sload\n      swap1\n      0x0100\n      exp\n      swap1\n      div\n      0xffffffffffffffffffffffffffffffffffffffff\n      and\n        /* \"Mqttbaru.sol\":8128:8149  msg.sender == manager */\n      0xffffffffffffffffffffffffffffffffffffffff\n      and\n        /* \"Mqttbaru.sol\":8128:8138  msg.sender */\n      caller\n        /* \"Mqttbaru.sol\":8128:8149  msg.sender == manager */\n      0xffffffffffffffffffffffffffffffffffffffff\n      and\n      eq\n        /* \"Mqttbaru.sol\":8120:8150  require(msg.sender == manager) */\n      tag_324\n      jumpi\n      0x00\n      dup1\n      revert\n    tag_324:\n        /* \"Mqttbaru.sol\":5900:5906  uint i */\n      0x00\n        /* \"Mqttbaru.sol\":5896:6342  for(uint i = 0; i < clientLedger.length; i++){\r... */\n    tag_326:\n        /* \"Mqttbaru.sol\":5916:5928  clientLedger */\n      0x01\n        /* \"Mqttbaru.sol\":5916:5935  clientLedger.length */\n      dup1\n      sload\n      swap1\n      pop\n        /* \"Mqttbaru.sol\":5912:5913  i */\n      dup2\n        /* \"Mqttbaru.sol\":5912:5935  i < clientLedger.length */\n      lt\n        /* \"Mqttbaru.sol\":5896:6342  for(uint i = 0; i < clientLedger.length; i++){\r... */\n      iszero\n      tag_327\n      jumpi\n        /* \"Mqttbaru.sol\":5956:5980  Client storage clientele */\n      0x00\n        /* \"Mqttbaru.sol\":5983:5995  clientLedger */\n      0x01\n        /* \"Mqttbaru.sol\":5996:5997  i */\n      dup3\n        /* \"Mqttbaru.sol\":5983:5998  clientLedger[i] */\n      dup2\n      sload\n      dup2\n      lt\n      tag_329\n      jumpi\n      invalid\n    tag_329:\n      swap1\n      0x00\n      mstore\n      keccak256(0x00, 0x20)\n      swap1\n      0x04\n      mul\n      add\n        /* \"Mqttbaru.sol\":5956:5998  Client storage clientele = clientLedger[i] */\n      swap1\n      pop\n        /* \"Mqttbaru.sol\":6023:6032  clientele */\n      dup1\n        /* \"Mqttbaru.sol\":6023:6035  clientele.id */\n      0x00\n      add\n      sload\n        /* \"Mqttbaru.sol\":6016:6019  _id */\n      dup6\n        /* \"Mqttbaru.sol\":6016:6035  _id == clientele.id */\n      eq\n        /* \"Mqttbaru.sol\":6013:6331  if(_id == clientele.id){\r... */\n      iszero\n      tag_331\n      jumpi\n        /* \"Mqttbaru.sol\":6059:6065  uint j */\n      0x00\n        /* \"Mqttbaru.sol\":6055:6316  for(uint j = 0; j < clientele.topic.length; j++){\r... */\n    tag_332:\n        /* \"Mqttbaru.sol\":6075:6084  clientele */\n      dup2\n        /* \"Mqttbaru.sol\":6075:6090  clientele.topic */\n      0x03\n      add\n        /* \"Mqttbaru.sol\":6075:6097  clientele.topic.length */\n      dup1\n      sload\n      swap1\n      pop\n        /* \"Mqttbaru.sol\":6071:6072  j */\n      dup2\n        /* \"Mqttbaru.sol\":6071:6097  j < clientele.topic.length */\n      lt\n        /* \"Mqttbaru.sol\":6055:6316  for(uint j = 0; j < clientele.topic.length; j++){\r... */\n      iszero\n      tag_333\n      jumpi\n        /* \"Mqttbaru.sol\":6207:6213  _topic */\n      dup5\n        /* \"Mqttbaru.sol\":6190:6214  abi.encodePacked(_topic) */\n      add(0x20, mload(0x40))\n      tag_335\n      swap2\n      swap1\n      tag_122\n      jump\t// in\n    tag_335:\n      mload(0x40)\n      0x20\n      dup2\n      dup4\n      sub\n      sub\n      dup2\n      mstore\n      swap1\n      0x40\n      mstore\n        /* \"Mqttbaru.sol\":6180:6215  keccak256(abi.encodePacked(_topic)) */\n      dup1\n      mload\n      swap1\n      0x20\n      add\n      keccak256\n        /* \"Mqttbaru.sol\":6156:6165  clientele */\n      dup3\n        /* \"Mqttbaru.sol\":6156:6171  clientele.topic */\n      0x03\n      add\n        /* \"Mqttbaru.sol\":6172:6173  j */\n      dup3\n        /* \"Mqttbaru.sol\":6156:6174  clientele.topic[j] */\n      dup2\n      sload\n      dup2\n      lt\n      tag_336\n      jumpi\n      invalid\n    tag_336:\n      swap1\n      0x00\n      mstore\n      keccak256(0x00, 0x20)\n      add\n        /* \"Mqttbaru.sol\":6139:6175  abi.encodePacked(clientele.topic[j]) */\n      add(0x20, mload(0x40))\n      tag_338\n      swap2\n      swap1\n      tag_120\n      jump\t// in\n    tag_338:\n      mload(0x40)\n      0x20\n      dup2\n      dup4\n      sub\n      sub\n      dup2\n      mstore\n      swap1\n      0x40\n      mstore\n        /* \"Mqttbaru.sol\":6129:6176  keccak256(abi.encodePacked(clientele.topic[j])) */\n      dup1\n      mload\n      swap1\n      0x20\n      add\n      keccak256\n        /* \"Mqttbaru.sol\":6129:6215  keccak256(abi.encodePacked(clientele.topic[j])) == keccak256(abi.encodePacked(_topic)) */\n      eq\n        /* \"Mqttbaru.sol\":6126:6297  if(keccak256(abi.encodePacked(clientele.topic[j])) == keccak256(abi.encodePacked(_topic))){\r... */\n      iszero\n      tag_339\n      jumpi\n        /* \"Mqttbaru.sol\":6264:6273  _newtopic */\n      dup4\n        /* \"Mqttbaru.sol\":6243:6252  clientele */\n      dup3\n        /* \"Mqttbaru.sol\":6243:6258  clientele.topic */\n      0x03\n      add\n        /* \"Mqttbaru.sol\":6259:6260  j */\n      dup3\n        /* \"Mqttbaru.sol\":6243:6261  clientele.topic[j] */\n      dup2\n      sload\n      dup2\n      lt\n      tag_340\n      jumpi\n      invalid\n    tag_340:\n      swap1\n      0x00\n      mstore\n      keccak256(0x00, 0x20)\n      add\n        /* \"Mqttbaru.sol\":6243:6273  clientele.topic[j] = _newtopic */\n      swap1\n      dup1\n      mload\n      swap1\n      0x20\n      add\n      swap1\n      tag_342\n      swap3\n      swap2\n      swap1\n      tag_127\n      jump\t// in\n    tag_342:\n      pop\n        /* \"Mqttbaru.sol\":6126:6297  if(keccak256(abi.encodePacked(clientele.topic[j])) == keccak256(abi.encodePacked(_topic))){\r... */\n    tag_339:\n        /* \"Mqttbaru.sol\":6099:6102  j++ */\n      dup1\n      dup1\n      0x01\n      add\n      swap2\n      pop\n      pop\n        /* \"Mqttbaru.sol\":6055:6316  for(uint j = 0; j < clientele.topic.length; j++){\r... */\n      jump(tag_332)\n    tag_333:\n      pop\n        /* \"Mqttbaru.sol\":6013:6331  if(_id == clientele.id){\r... */\n    tag_331:\n        /* \"Mqttbaru.sol\":5896:6342  for(uint i = 0; i < clientLedger.length; i++){\r... */\n      pop\n        /* \"Mqttbaru.sol\":5937:5940  i++ */\n      dup1\n      dup1\n      0x01\n      add\n      swap2\n      pop\n      pop\n        /* \"Mqttbaru.sol\":5896:6342  for(uint i = 0; i < clientLedger.length; i++){\r... */\n      jump(tag_326)\n    tag_327:\n      pop\n        /* \"Mqttbaru.sol\":5791:6349  function updateTopic(uint _id, string memory _topic, string memory _newtopic) isManager public{\r... */\n      pop\n      pop\n      pop\n      jump\t// out\n        /* \"Mqttbaru.sol\":834:1590  function refreshToken() public isBroker {\r... */\n    tag_86:\n        /* \"Mqttbaru.sol\":8221:8235  brokerValidity */\n      0x03\n        /* \"Mqttbaru.sol\":8221:8247  brokerValidity[msg.sender] */\n      0x00\n        /* \"Mqttbaru.sol\":8236:8246  msg.sender */\n      caller\n        /* \"Mqttbaru.sol\":8221:8247  brokerValidity[msg.sender] */\n      0xffffffffffffffffffffffffffffffffffffffff\n      and\n      0xffffffffffffffffffffffffffffffffffffffff\n      and\n      dup2\n      mstore\n      0x20\n      add\n      swap1\n      dup2\n      mstore\n      0x20\n      add\n      0x00\n      keccak256\n      0x00\n      swap1\n      sload\n      swap1\n      0x0100\n      exp\n      swap1\n      div\n      0xff\n      and\n        /* \"Mqttbaru.sol\":8213:8248  require(brokerValidity[msg.sender]) */\n      tag_344\n      jumpi\n      0x00\n      dup1\n      revert\n    tag_344:\n        /* \"Mqttbaru.sol\":889:895  uint i */\n      0x00\n        /* \"Mqttbaru.sol\":885:1583  for(uint i = 0; i < brokerAddress.length; i++) {\r... */\n    tag_346:\n        /* \"Mqttbaru.sol\":905:918  brokerAddress */\n      0x02\n        /* \"Mqttbaru.sol\":905:925  brokerAddress.length */\n      dup1\n      sload\n      swap1\n      pop\n        /* \"Mqttbaru.sol\":901:902  i */\n      dup2\n        /* \"Mqttbaru.sol\":901:925  i < brokerAddress.length */\n      lt\n        /* \"Mqttbaru.sol\":885:1583  for(uint i = 0; i < brokerAddress.length; i++) {\r... */\n      iszero\n      tag_347\n      jumpi\n        /* \"Mqttbaru.sol\":964:977  brokerAddress */\n      0x02\n        /* \"Mqttbaru.sol\":978:979  i */\n      dup2\n        /* \"Mqttbaru.sol\":964:980  brokerAddress[i] */\n      dup2\n      sload\n      dup2\n      lt\n      tag_349\n      jumpi\n      invalid\n    tag_349:\n      swap1\n      0x00\n      mstore\n      keccak256(0x00, 0x20)\n      swap1\n      0x02\n      mul\n      add\n        /* \"Mqttbaru.sol\":964:995  brokerAddress[i].broker_address */\n      0x00\n      add\n      0x00\n      swap1\n      sload\n      swap1\n      0x0100\n      exp\n      swap1\n      div\n      0xffffffffffffffffffffffffffffffffffffffff\n      and\n        /* \"Mqttbaru.sol\":950:995  msg.sender == brokerAddress[i].broker_address */\n      0xffffffffffffffffffffffffffffffffffffffff\n      and\n        /* \"Mqttbaru.sol\":950:960  msg.sender */\n      caller\n        /* \"Mqttbaru.sol\":950:995  msg.sender == brokerAddress[i].broker_address */\n      0xffffffffffffffffffffffffffffffffffffffff\n      and\n      eq\n        /* \"Mqttbaru.sol\":947:1572  if(msg.sender == brokerAddress[i].broker_address){\r... */\n      iszero\n      tag_351\n      jumpi\n        /* \"Mqttbaru.sol\":1015:1028  uint rightnow */\n      0x00\n        /* \"Mqttbaru.sol\":1031:1034  now */\n      timestamp\n        /* \"Mqttbaru.sol\":1015:1034  uint rightnow = now */\n      swap1\n      pop\n        /* \"Mqttbaru.sol\":1053:1062  uint jeda */\n      0x00\n        /* \"Mqttbaru.sol\":1076:1089  brokerAddress */\n      0x02\n        /* \"Mqttbaru.sol\":1090:1091  i */\n      dup4\n        /* \"Mqttbaru.sol\":1076:1092  brokerAddress[i] */\n      dup2\n      sload\n      dup2\n      lt\n      tag_352\n      jumpi\n      invalid\n    tag_352:\n      swap1\n      0x00\n      mstore\n      keccak256(0x00, 0x20)\n      swap1\n      0x02\n      mul\n      add\n        /* \"Mqttbaru.sol\":1076:1102  brokerAddress[i].timestamp */\n      0x01\n      add\n      sload\n        /* \"Mqttbaru.sol\":1065:1073  rightnow */\n      dup3\n        /* \"Mqttbaru.sol\":1065:1102  rightnow - brokerAddress[i].timestamp */\n      sub\n        /* \"Mqttbaru.sol\":1053:1102  uint jeda = rightnow - brokerAddress[i].timestamp */\n      swap1\n      pop\n        /* \"Mqttbaru.sol\":1131:1134  240 */\n      0xf0\n        /* \"Mqttbaru.sol\":1124:1128  jeda */\n      dup2\n        /* \"Mqttbaru.sol\":1124:1134  jeda > 240 */\n      gt\n        /* \"Mqttbaru.sol\":1121:1557  if(jeda > 240){\r... */\n      iszero\n      tag_354\n      jumpi\n        /* \"Mqttbaru.sol\":1187:1195  rightnow */\n      dup2\n        /* \"Mqttbaru.sol\":1158:1171  brokerAddress */\n      0x02\n        /* \"Mqttbaru.sol\":1172:1173  i */\n      dup5\n        /* \"Mqttbaru.sol\":1158:1174  brokerAddress[i] */\n      dup2\n      sload\n      dup2\n      lt\n      tag_355\n      jumpi\n      invalid\n    tag_355:\n      swap1\n      0x00\n      mstore\n      keccak256(0x00, 0x20)\n      swap1\n      0x02\n      mul\n      add\n        /* \"Mqttbaru.sol\":1158:1184  brokerAddress[i].timestamp */\n      0x01\n      add\n        /* \"Mqttbaru.sol\":1158:1195  brokerAddress[i].timestamp = rightnow */\n      dup2\n      swap1\n      sstore\n      pop\n        /* \"Mqttbaru.sol\":1223:1301  ref_token(keccak256(abi.encodePacked(msg.sender, brokerAddress[i].timestamp))) */\n      0x504e9e94e0c65229aaf8cabe153380cc35da3135e30129bc3195f7e031cdf82b\n        /* \"Mqttbaru.sol\":1260:1270  msg.sender */\n      caller\n        /* \"Mqttbaru.sol\":1272:1285  brokerAddress */\n      0x02\n        /* \"Mqttbaru.sol\":1286:1287  i */\n      dup6\n        /* \"Mqttbaru.sol\":1272:1288  brokerAddress[i] */\n      dup2\n      sload\n      dup2\n      lt\n      tag_357\n      jumpi\n      invalid\n    tag_357:\n      swap1\n      0x00\n      mstore\n      keccak256(0x00, 0x20)\n      swap1\n      0x02\n      mul\n      add\n        /* \"Mqttbaru.sol\":1272:1298  brokerAddress[i].timestamp */\n      0x01\n      add\n      sload\n        /* \"Mqttbaru.sol\":1243:1299  abi.encodePacked(msg.sender, brokerAddress[i].timestamp) */\n      add(0x20, mload(0x40))\n      tag_359\n      swap3\n      swap2\n      swap1\n      tag_290\n      jump\t// in\n    tag_359:\n      mload(0x40)\n      0x20\n      dup2\n      dup4\n      sub\n      sub\n      dup2\n      mstore\n      swap1\n      0x40\n      mstore\n        /* \"Mqttbaru.sol\":1233:1300  keccak256(abi.encodePacked(msg.sender, brokerAddress[i].timestamp)) */\n      dup1\n      mload\n      swap1\n      0x20\n      add\n      keccak256\n        /* \"Mqttbaru.sol\":1223:1301  ref_token(keccak256(abi.encodePacked(msg.sender, brokerAddress[i].timestamp))) */\n      mload(0x40)\n      tag_360\n      swap2\n      swap1\n      tag_361\n      jump\t// in\n    tag_360:\n      mload(0x40)\n      dup1\n      swap2\n      sub\n      swap1\n      log1\n        /* \"Mqttbaru.sol\":1329:1350  check('token diubah') */\n      0xb6f921ade0de8da9e62e948d90ae6f2dd6b678679ad77753c75fe1b6d9a72004\n      mload(0x40)\n      tag_362\n      swap1\n      tag_363\n      jump\t// in\n    tag_362:\n      mload(0x40)\n      dup1\n      swap2\n      sub\n      swap1\n      log1\n        /* \"Mqttbaru.sol\":1121:1557  if(jeda > 240){\r... */\n      jump(tag_364)\n    tag_354:\n        /* \"Mqttbaru.sol\":1404:1482  ref_token(keccak256(abi.encodePacked(msg.sender, brokerAddress[i].timestamp))) */\n      0x504e9e94e0c65229aaf8cabe153380cc35da3135e30129bc3195f7e031cdf82b\n        /* \"Mqttbaru.sol\":1441:1451  msg.sender */\n      caller\n        /* \"Mqttbaru.sol\":1453:1466  brokerAddress */\n      0x02\n        /* \"Mqttbaru.sol\":1467:1468  i */\n      dup6\n        /* \"Mqttbaru.sol\":1453:1469  brokerAddress[i] */\n      dup2\n      sload\n      dup2\n      lt\n      tag_365\n      jumpi\n      invalid\n    tag_365:\n      swap1\n      0x00\n      mstore\n      keccak256(0x00, 0x20)\n      swap1\n      0x02\n      mul\n      add\n        /* \"Mqttbaru.sol\":1453:1479  brokerAddress[i].timestamp */\n      0x01\n      add\n      sload\n        /* \"Mqttbaru.sol\":1424:1480  abi.encodePacked(msg.sender, brokerAddress[i].timestamp) */\n      add(0x20, mload(0x40))\n      tag_367\n      swap3\n      swap2\n      swap1\n      tag_290\n      jump\t// in\n    tag_367:\n      mload(0x40)\n      0x20\n      dup2\n      dup4\n      sub\n      sub\n      dup2\n      mstore\n      swap1\n      0x40\n      mstore\n        /* \"Mqttbaru.sol\":1414:1481  keccak256(abi.encodePacked(msg.sender, brokerAddress[i].timestamp)) */\n      dup1\n      mload\n      swap1\n      0x20\n      add\n      keccak256\n        /* \"Mqttbaru.sol\":1404:1482  ref_token(keccak256(abi.encodePacked(msg.sender, brokerAddress[i].timestamp))) */\n      mload(0x40)\n      tag_368\n      swap2\n      swap1\n      tag_361\n      jump\t// in\n    tag_368:\n      mload(0x40)\n      dup1\n      swap2\n      sub\n      swap1\n      log1\n        /* \"Mqttbaru.sol\":1510:1537  check('token tidak diubah') */\n      0xb6f921ade0de8da9e62e948d90ae6f2dd6b678679ad77753c75fe1b6d9a72004\n      mload(0x40)\n      tag_369\n      swap1\n      tag_370\n      jump\t// in\n    tag_369:\n      mload(0x40)\n      dup1\n      swap2\n      sub\n      swap1\n      log1\n        /* \"Mqttbaru.sol\":1121:1557  if(jeda > 240){\r... */\n    tag_364:\n        /* \"Mqttbaru.sol\":947:1572  if(msg.sender == brokerAddress[i].broker_address){\r... */\n      pop\n      pop\n    tag_351:\n        /* \"Mqttbaru.sol\":927:930  i++ */\n      dup1\n      dup1\n      0x01\n      add\n      swap2\n      pop\n      pop\n        /* \"Mqttbaru.sol\":885:1583  for(uint i = 0; i < brokerAddress.length; i++) {\r... */\n      jump(tag_346)\n    tag_347:\n      pop\n        /* \"Mqttbaru.sol\":834:1590  function refreshToken() public isBroker {\r... */\n      jump\t// out\n    tag_127:\n      dup3\n      dup1\n      sload\n      0x01\n      dup2\n      0x01\n      and\n      iszero\n      0x0100\n      mul\n      sub\n      and\n      0x02\n      swap1\n      div\n      swap1\n      0x00\n      mstore\n      keccak256(0x00, 0x20)\n      swap1\n      0x1f\n      add\n      0x20\n      swap1\n      div\n      dup2\n      add\n      swap3\n      dup3\n      0x1f\n      lt\n      tag_372\n      jumpi\n      dup1\n      mload\n      not(0xff)\n      and\n      dup4\n      dup1\n      add\n      or\n      dup6\n      sstore\n      jump(tag_371)\n    tag_372:\n      dup3\n      dup1\n      add\n      0x01\n      add\n      dup6\n      sstore\n      dup3\n      iszero\n      tag_371\n      jumpi\n      swap2\n      dup3\n      add\n    tag_373:\n      dup3\n      dup2\n      gt\n      iszero\n      tag_374\n      jumpi\n      dup3\n      mload\n      dup3\n      sstore\n      swap2\n      0x20\n      add\n      swap2\n      swap1\n      0x01\n      add\n      swap1\n      jump(tag_373)\n    tag_374:\n    tag_371:\n      pop\n      swap1\n      pop\n      tag_375\n      swap2\n      swap1\n      tag_376\n      jump\t// in\n    tag_375:\n      pop\n      swap1\n      jump\t// out\n    tag_160:\n      dup3\n      dup1\n      sload\n      0x01\n      dup2\n      0x01\n      and\n      iszero\n      0x0100\n      mul\n      sub\n      and\n      0x02\n      swap1\n      div\n      swap1\n      0x00\n      mstore\n      keccak256(0x00, 0x20)\n      swap1\n      0x1f\n      add\n      0x20\n      swap1\n      div\n      dup2\n      add\n      swap3\n      dup3\n      0x1f\n      lt\n      tag_378\n      jumpi\n      dup1\n      sload\n      dup6\n      sstore\n      jump(tag_377)\n    tag_378:\n      dup3\n      dup1\n      add\n      0x01\n      add\n      dup6\n      sstore\n      dup3\n      iszero\n      tag_377\n      jumpi\n      0x00\n      mstore\n      keccak256(0x00, 0x20)\n      swap2\n      0x1f\n      add\n      0x20\n      swap1\n      div\n      dup3\n      add\n    tag_379:\n      dup3\n      dup2\n      gt\n      iszero\n      tag_380\n      jumpi\n      dup3\n      sload\n      dup3\n      sstore\n      swap2\n      0x01\n      add\n      swap2\n      swap1\n      0x01\n      add\n      swap1\n      jump(tag_379)\n    tag_380:\n    tag_377:\n      pop\n      swap1\n      pop\n      tag_381\n      swap2\n      swap1\n      tag_376\n      jump\t// in\n    tag_381:\n      pop\n      swap1\n      jump\t// out\n    tag_166:\n      pop\n      dup1\n      sload\n      0x01\n      dup2\n      0x01\n      and\n      iszero\n      0x0100\n      mul\n      sub\n      and\n      0x02\n      swap1\n      div\n      0x00\n      dup3\n      sstore\n      dup1\n      0x1f\n      lt\n      tag_383\n      jumpi\n      pop\n      jump(tag_382)\n    tag_383:\n      0x1f\n      add\n      0x20\n      swap1\n      div\n      swap1\n      0x00\n      mstore\n      keccak256(0x00, 0x20)\n      swap1\n      dup2\n      add\n      swap1\n      tag_384\n      swap2\n      swap1\n      tag_376\n      jump\t// in\n    tag_384:\n    tag_382:\n      pop\n      jump\t// out\n    tag_239:\n      mload(0x40)\n      dup1\n      0x40\n      add\n      0x40\n      mstore\n      dup1\n      and(0xffffffffffffffffffffffffffffffffffffffff, 0x00)\n      dup2\n      mstore\n      0x20\n      add\n      0x00\n      dup2\n      mstore\n      pop\n      swap1\n      jump\t// out\n    tag_245:\n      mload(0x40)\n      dup1\n      0x80\n      add\n      0x40\n      mstore\n      dup1\n      0x00\n      dup2\n      mstore\n      0x20\n      add\n      0x60\n      dup2\n      mstore\n      0x20\n      add\n      0x60\n      dup2\n      mstore\n      0x20\n      add\n      0x60\n      dup2\n      mstore\n      pop\n      swap1\n      jump\t// out\n    tag_253:\n      dup3\n      dup1\n      sload\n      dup3\n      dup3\n      sstore\n      swap1\n      0x00\n      mstore\n      keccak256(0x00, 0x20)\n      swap1\n      dup2\n      add\n      swap3\n      dup3\n      iszero\n      tag_385\n      jumpi\n      swap2\n      0x20\n      mul\n      dup3\n      add\n    tag_386:\n      dup3\n      dup2\n      gt\n      iszero\n      tag_387\n      jumpi\n      dup3\n      mload\n      dup3\n      swap1\n      dup1\n      mload\n      swap1\n      0x20\n      add\n      swap1\n      tag_388\n      swap3\n      swap2\n      swap1\n      tag_127\n      jump\t// in\n    tag_388:\n      pop\n      swap2\n      0x20\n      add\n      swap2\n      swap1\n      0x01\n      add\n      swap1\n      jump(tag_386)\n    tag_387:\n    tag_385:\n      pop\n      swap1\n      pop\n      tag_389\n      swap2\n      swap1\n      tag_390\n      jump\t// in\n    tag_389:\n      pop\n      swap1\n      jump\t// out\n    tag_268:\n      dup3\n      dup1\n      sload\n      0x01\n      dup2\n      0x01\n      and\n      iszero\n      0x0100\n      mul\n      sub\n      and\n      0x02\n      swap1\n      div\n      swap1\n      0x00\n      mstore\n      keccak256(0x00, 0x20)\n      swap1\n      0x1f\n      add\n      0x20\n      swap1\n      div\n      dup2\n      add\n      swap3\n      dup3\n      0x1f\n      lt\n      tag_392\n      jumpi\n      dup1\n      sload\n      dup6\n      sstore\n      jump(tag_391)\n    tag_392:\n      dup3\n      dup1\n      add\n      0x01\n      add\n      dup6\n      sstore\n      dup3\n      iszero\n      tag_391\n      jumpi\n      0x00\n      mstore\n      keccak256(0x00, 0x20)\n      swap2\n      0x1f\n      add\n      0x20\n      swap1\n      div\n      dup3\n      add\n    tag_393:\n      dup3\n      dup2\n      gt\n      iszero\n      tag_394\n      jumpi\n      dup3\n      sload\n      dup3\n      sstore\n      swap2\n      0x01\n      add\n      swap2\n      swap1\n      0x01\n      add\n      swap1\n      jump(tag_393)\n    tag_394:\n    tag_391:\n      pop\n      swap1\n      pop\n      tag_395\n      swap2\n      swap1\n      tag_376\n      jump\t// in\n    tag_395:\n      pop\n      swap1\n      jump\t// out\n    tag_271:\n      dup3\n      dup1\n      sload\n      dup3\n      dup3\n      sstore\n      swap1\n      0x00\n      mstore\n      keccak256(0x00, 0x20)\n      swap1\n      dup2\n      add\n      swap3\n      dup3\n      iszero\n      tag_396\n      jumpi\n      0x00\n      mstore\n      keccak256(0x00, 0x20)\n      swap2\n      dup3\n      add\n    tag_397:\n      dup3\n      dup2\n      gt\n      iszero\n      tag_398\n      jumpi\n      dup3\n      dup3\n      swap1\n      dup1\n      sload\n      0x01\n      dup2\n      0x01\n      and\n      iszero\n      0x0100\n      mul\n      sub\n      and\n      0x02\n      swap1\n      div\n      tag_399\n      swap3\n      swap2\n      swap1\n      tag_268\n      jump\t// in\n    tag_399:\n      pop\n      swap2\n      0x01\n      add\n      swap2\n      swap1\n      0x01\n      add\n      swap1\n      jump(tag_397)\n    tag_398:\n    tag_396:\n      pop\n      swap1\n      pop\n      tag_400\n      swap2\n      swap1\n      tag_390\n      jump\t// in\n    tag_400:\n      pop\n      swap1\n      jump\t// out\n    tag_277:\n      pop\n      dup1\n      sload\n      0x00\n      dup3\n      sstore\n      swap1\n      0x00\n      mstore\n      keccak256(0x00, 0x20)\n      swap1\n      dup2\n      add\n      swap1\n      tag_402\n      swap2\n      swap1\n      tag_390\n      jump\t// in\n    tag_402:\n      pop\n      jump\t// out\n    tag_376:\n    tag_403:\n      dup1\n      dup3\n      gt\n      iszero\n      tag_404\n      jumpi\n      0x00\n      dup2\n      0x00\n      swap1\n      sstore\n      pop\n      0x01\n      add\n      jump(tag_403)\n    tag_404:\n      pop\n      swap1\n      jump\t// out\n    tag_390:\n    tag_405:\n      dup1\n      dup3\n      gt\n      iszero\n      tag_406\n      jumpi\n      0x00\n      dup2\n      dup2\n      tag_407\n      swap2\n      swap1\n      tag_166\n      jump\t// in\n    tag_407:\n      pop\n      0x01\n      add\n      jump(tag_405)\n    tag_406:\n      pop\n      swap1\n      jump\t// out\n        /* \"--CODEGEN--\":5:151   */\n    tag_409:\n      0x00\n        /* \"--CODEGEN--\":93:99   */\n      dup2\n        /* \"--CODEGEN--\":80:100   */\n      calldataload\n        /* \"--CODEGEN--\":71:100   */\n      swap1\n      pop\n        /* \"--CODEGEN--\":105:146   */\n      tag_411\n        /* \"--CODEGEN--\":140:145   */\n      dup2\n        /* \"--CODEGEN--\":105:146   */\n      tag_412\n      jump\t// in\n    tag_411:\n        /* \"--CODEGEN--\":65:151   */\n      swap3\n      swap2\n      pop\n      pop\n      jump\t// out\n        /* \"--CODEGEN--\":158:288   */\n    tag_413:\n      0x00\n        /* \"--CODEGEN--\":238:244   */\n      dup2\n        /* \"--CODEGEN--\":225:245   */\n      calldataload\n        /* \"--CODEGEN--\":216:245   */\n      swap1\n      pop\n        /* \"--CODEGEN--\":250:283   */\n      tag_415\n        /* \"--CODEGEN--\":277:282   */\n      dup2\n        /* \"--CODEGEN--\":250:283   */\n      tag_416\n      jump\t// in\n    tag_415:\n        /* \"--CODEGEN--\":210:288   */\n      swap3\n      swap2\n      pop\n      pop\n      jump\t// out\n        /* \"--CODEGEN--\":296:738   */\n    tag_417:\n      0x00\n        /* \"--CODEGEN--\":398:401   */\n      dup3\n        /* \"--CODEGEN--\":391:395   */\n      0x1f\n        /* \"--CODEGEN--\":383:389   */\n      dup4\n        /* \"--CODEGEN--\":379:396   */\n      add\n        /* \"--CODEGEN--\":375:402   */\n      slt\n        /* \"--CODEGEN--\":365:367   */\n      tag_419\n      jumpi\n        /* \"--CODEGEN--\":416:417   */\n      0x00\n        /* \"--CODEGEN--\":413:414   */\n      dup1\n        /* \"--CODEGEN--\":406:418   */\n      revert\n        /* \"--CODEGEN--\":365:367   */\n    tag_419:\n        /* \"--CODEGEN--\":453:459   */\n      dup2\n        /* \"--CODEGEN--\":440:460   */\n      calldataload\n        /* \"--CODEGEN--\":475:540   */\n      tag_420\n        /* \"--CODEGEN--\":490:539   */\n      tag_421\n        /* \"--CODEGEN--\":532:538   */\n      dup3\n        /* \"--CODEGEN--\":490:539   */\n      tag_422\n      jump\t// in\n    tag_421:\n        /* \"--CODEGEN--\":475:540   */\n      tag_423\n      jump\t// in\n    tag_420:\n        /* \"--CODEGEN--\":466:540   */\n      swap2\n      pop\n        /* \"--CODEGEN--\":560:566   */\n      dup1\n        /* \"--CODEGEN--\":553:558   */\n      dup3\n        /* \"--CODEGEN--\":546:567   */\n      mstore\n        /* \"--CODEGEN--\":596:600   */\n      0x20\n        /* \"--CODEGEN--\":588:594   */\n      dup4\n        /* \"--CODEGEN--\":584:601   */\n      add\n        /* \"--CODEGEN--\":629:633   */\n      0x20\n        /* \"--CODEGEN--\":622:627   */\n      dup4\n        /* \"--CODEGEN--\":618:634   */\n      add\n        /* \"--CODEGEN--\":664:667   */\n      dup6\n        /* \"--CODEGEN--\":655:661   */\n      dup4\n        /* \"--CODEGEN--\":650:653   */\n      dup4\n        /* \"--CODEGEN--\":646:662   */\n      add\n        /* \"--CODEGEN--\":643:668   */\n      gt\n        /* \"--CODEGEN--\":640:642   */\n      iszero\n      tag_424\n      jumpi\n        /* \"--CODEGEN--\":681:682   */\n      0x00\n        /* \"--CODEGEN--\":678:679   */\n      dup1\n        /* \"--CODEGEN--\":671:683   */\n      revert\n        /* \"--CODEGEN--\":640:642   */\n    tag_424:\n        /* \"--CODEGEN--\":691:732   */\n      tag_425\n        /* \"--CODEGEN--\":725:731   */\n      dup4\n        /* \"--CODEGEN--\":720:723   */\n      dup3\n        /* \"--CODEGEN--\":715:718   */\n      dup5\n        /* \"--CODEGEN--\":691:732   */\n      tag_426\n      jump\t// in\n    tag_425:\n        /* \"--CODEGEN--\":358:738   */\n      pop\n      pop\n      pop\n      swap3\n      swap2\n      pop\n      pop\n      jump\t// out\n        /* \"--CODEGEN--\":746:876   */\n    tag_427:\n      0x00\n        /* \"--CODEGEN--\":826:832   */\n      dup2\n        /* \"--CODEGEN--\":813:833   */\n      calldataload\n        /* \"--CODEGEN--\":804:833   */\n      swap1\n      pop\n        /* \"--CODEGEN--\":838:871   */\n      tag_429\n        /* \"--CODEGEN--\":865:870   */\n      dup2\n        /* \"--CODEGEN--\":838:871   */\n      tag_430\n      jump\t// in\n    tag_429:\n        /* \"--CODEGEN--\":798:876   */\n      swap3\n      swap2\n      pop\n      pop\n      jump\t// out\n        /* \"--CODEGEN--\":883:1140   */\n    tag_24:\n      0x00\n        /* \"--CODEGEN--\":995:997   */\n      0x20\n        /* \"--CODEGEN--\":983:992   */\n      dup3\n        /* \"--CODEGEN--\":974:981   */\n      dup5\n        /* \"--CODEGEN--\":970:993   */\n      sub\n        /* \"--CODEGEN--\":966:998   */\n      slt\n        /* \"--CODEGEN--\":963:965   */\n      iszero\n      tag_432\n      jumpi\n        /* \"--CODEGEN--\":1011:1012   */\n      0x00\n        /* \"--CODEGEN--\":1008:1009   */\n      dup1\n        /* \"--CODEGEN--\":1001:1013   */\n      revert\n        /* \"--CODEGEN--\":963:965   */\n    tag_432:\n        /* \"--CODEGEN--\":1046:1047   */\n      0x00\n        /* \"--CODEGEN--\":1063:1124   */\n      tag_433\n        /* \"--CODEGEN--\":1116:1123   */\n      dup5\n        /* \"--CODEGEN--\":1107:1113   */\n      dup3\n        /* \"--CODEGEN--\":1096:1105   */\n      dup6\n        /* \"--CODEGEN--\":1092:1114   */\n      add\n        /* \"--CODEGEN--\":1063:1124   */\n      tag_409\n      jump\t// in\n    tag_433:\n        /* \"--CODEGEN--\":1053:1124   */\n      swap2\n      pop\n        /* \"--CODEGEN--\":1025:1130   */\n      pop\n        /* \"--CODEGEN--\":957:1140   */\n      swap3\n      swap2\n      pop\n      pop\n      jump\t// out\n        /* \"--CODEGEN--\":1147:1388   */\n    tag_69:\n      0x00\n        /* \"--CODEGEN--\":1251:1253   */\n      0x20\n        /* \"--CODEGEN--\":1239:1248   */\n      dup3\n        /* \"--CODEGEN--\":1230:1237   */\n      dup5\n        /* \"--CODEGEN--\":1226:1249   */\n      sub\n        /* \"--CODEGEN--\":1222:1254   */\n      slt\n        /* \"--CODEGEN--\":1219:1221   */\n      iszero\n      tag_435\n      jumpi\n        /* \"--CODEGEN--\":1267:1268   */\n      0x00\n        /* \"--CODEGEN--\":1264:1265   */\n      dup1\n        /* \"--CODEGEN--\":1257:1269   */\n      revert\n        /* \"--CODEGEN--\":1219:1221   */\n    tag_435:\n        /* \"--CODEGEN--\":1302:1303   */\n      0x00\n        /* \"--CODEGEN--\":1319:1372   */\n      tag_436\n        /* \"--CODEGEN--\":1364:1371   */\n      dup5\n        /* \"--CODEGEN--\":1355:1361   */\n      dup3\n        /* \"--CODEGEN--\":1344:1353   */\n      dup6\n        /* \"--CODEGEN--\":1340:1362   */\n      add\n        /* \"--CODEGEN--\":1319:1372   */\n      tag_413\n      jump\t// in\n    tag_436:\n        /* \"--CODEGEN--\":1309:1372   */\n      swap2\n      pop\n        /* \"--CODEGEN--\":1281:1378   */\n      pop\n        /* \"--CODEGEN--\":1213:1388   */\n      swap3\n      swap2\n      pop\n      pop\n      jump\t// out\n        /* \"--CODEGEN--\":1395:1992   */\n    tag_53:\n      0x00\n      dup1\n      0x00\n        /* \"--CODEGEN--\":1543:1545   */\n      0x60\n        /* \"--CODEGEN--\":1531:1540   */\n      dup5\n        /* \"--CODEGEN--\":1522:1529   */\n      dup7\n        /* \"--CODEGEN--\":1518:1541   */\n      sub\n        /* \"--CODEGEN--\":1514:1546   */\n      slt\n        /* \"--CODEGEN--\":1511:1513   */\n      iszero\n      tag_438\n      jumpi\n        /* \"--CODEGEN--\":1559:1560   */\n      0x00\n        /* \"--CODEGEN--\":1556:1557   */\n      dup1\n        /* \"--CODEGEN--\":1549:1561   */\n      revert\n        /* \"--CODEGEN--\":1511:1513   */\n    tag_438:\n        /* \"--CODEGEN--\":1594:1595   */\n      0x00\n        /* \"--CODEGEN--\":1611:1664   */\n      tag_439\n        /* \"--CODEGEN--\":1656:1663   */\n      dup7\n        /* \"--CODEGEN--\":1647:1653   */\n      dup3\n        /* \"--CODEGEN--\":1636:1645   */\n      dup8\n        /* \"--CODEGEN--\":1632:1654   */\n      add\n        /* \"--CODEGEN--\":1611:1664   */\n      tag_413\n      jump\t// in\n    tag_439:\n        /* \"--CODEGEN--\":1601:1664   */\n      swap4\n      pop\n        /* \"--CODEGEN--\":1573:1670   */\n      pop\n        /* \"--CODEGEN--\":1701:1703   */\n      0x20\n        /* \"--CODEGEN--\":1719:1772   */\n      tag_440\n        /* \"--CODEGEN--\":1764:1771   */\n      dup7\n        /* \"--CODEGEN--\":1755:1761   */\n      dup3\n        /* \"--CODEGEN--\":1744:1753   */\n      dup8\n        /* \"--CODEGEN--\":1740:1762   */\n      add\n        /* \"--CODEGEN--\":1719:1772   */\n      tag_427\n      jump\t// in\n    tag_440:\n        /* \"--CODEGEN--\":1709:1772   */\n      swap3\n      pop\n        /* \"--CODEGEN--\":1680:1778   */\n      pop\n        /* \"--CODEGEN--\":1837:1839   */\n      0x40\n        /* \"--CODEGEN--\":1826:1835   */\n      dup5\n        /* \"--CODEGEN--\":1822:1840   */\n      add\n        /* \"--CODEGEN--\":1809:1841   */\n      calldataload\n        /* \"--CODEGEN--\":1861:1879   */\n      0xffffffffffffffff\n        /* \"--CODEGEN--\":1853:1859   */\n      dup2\n        /* \"--CODEGEN--\":1850:1880   */\n      gt\n        /* \"--CODEGEN--\":1847:1849   */\n      iszero\n      tag_441\n      jumpi\n        /* \"--CODEGEN--\":1893:1894   */\n      0x00\n        /* \"--CODEGEN--\":1890:1891   */\n      dup1\n        /* \"--CODEGEN--\":1883:1895   */\n      revert\n        /* \"--CODEGEN--\":1847:1849   */\n    tag_441:\n        /* \"--CODEGEN--\":1913:1976   */\n      tag_442\n        /* \"--CODEGEN--\":1968:1975   */\n      dup7\n        /* \"--CODEGEN--\":1959:1965   */\n      dup3\n        /* \"--CODEGEN--\":1948:1957   */\n      dup8\n        /* \"--CODEGEN--\":1944:1966   */\n      add\n        /* \"--CODEGEN--\":1913:1976   */\n      tag_417\n      jump\t// in\n    tag_442:\n        /* \"--CODEGEN--\":1903:1976   */\n      swap2\n      pop\n        /* \"--CODEGEN--\":1788:1982   */\n      pop\n        /* \"--CODEGEN--\":1505:1992   */\n      swap3\n      pop\n      swap3\n      pop\n      swap3\n      jump\t// out\n        /* \"--CODEGEN--\":1999:2828   */\n    tag_78:\n      0x00\n      dup1\n      0x00\n      dup1\n        /* \"--CODEGEN--\":2174:2177   */\n      0x80\n        /* \"--CODEGEN--\":2162:2171   */\n      dup6\n        /* \"--CODEGEN--\":2153:2160   */\n      dup8\n        /* \"--CODEGEN--\":2149:2172   */\n      sub\n        /* \"--CODEGEN--\":2145:2178   */\n      slt\n        /* \"--CODEGEN--\":2142:2144   */\n      iszero\n      tag_444\n      jumpi\n        /* \"--CODEGEN--\":2191:2192   */\n      0x00\n        /* \"--CODEGEN--\":2188:2189   */\n      dup1\n        /* \"--CODEGEN--\":2181:2193   */\n      revert\n        /* \"--CODEGEN--\":2142:2144   */\n    tag_444:\n        /* \"--CODEGEN--\":2226:2227   */\n      0x00\n        /* \"--CODEGEN--\":2243:2296   */\n      tag_445\n        /* \"--CODEGEN--\":2288:2295   */\n      dup8\n        /* \"--CODEGEN--\":2279:2285   */\n      dup3\n        /* \"--CODEGEN--\":2268:2277   */\n      dup9\n        /* \"--CODEGEN--\":2264:2286   */\n      add\n        /* \"--CODEGEN--\":2243:2296   */\n      tag_413\n      jump\t// in\n    tag_445:\n        /* \"--CODEGEN--\":2233:2296   */\n      swap5\n      pop\n        /* \"--CODEGEN--\":2205:2302   */\n      pop\n        /* \"--CODEGEN--\":2333:2335   */\n      0x20\n        /* \"--CODEGEN--\":2351:2404   */\n      tag_446\n        /* \"--CODEGEN--\":2396:2403   */\n      dup8\n        /* \"--CODEGEN--\":2387:2393   */\n      dup3\n        /* \"--CODEGEN--\":2376:2385   */\n      dup9\n        /* \"--CODEGEN--\":2372:2394   */\n      add\n        /* \"--CODEGEN--\":2351:2404   */\n      tag_427\n      jump\t// in\n    tag_446:\n        /* \"--CODEGEN--\":2341:2404   */\n      swap4\n      pop\n        /* \"--CODEGEN--\":2312:2410   */\n      pop\n        /* \"--CODEGEN--\":2469:2471   */\n      0x40\n        /* \"--CODEGEN--\":2458:2467   */\n      dup6\n        /* \"--CODEGEN--\":2454:2472   */\n      add\n        /* \"--CODEGEN--\":2441:2473   */\n      calldataload\n        /* \"--CODEGEN--\":2493:2511   */\n      0xffffffffffffffff\n        /* \"--CODEGEN--\":2485:2491   */\n      dup2\n        /* \"--CODEGEN--\":2482:2512   */\n      gt\n        /* \"--CODEGEN--\":2479:2481   */\n      iszero\n      tag_447\n      jumpi\n        /* \"--CODEGEN--\":2525:2526   */\n      0x00\n        /* \"--CODEGEN--\":2522:2523   */\n      dup1\n        /* \"--CODEGEN--\":2515:2527   */\n      revert\n        /* \"--CODEGEN--\":2479:2481   */\n    tag_447:\n        /* \"--CODEGEN--\":2545:2608   */\n      tag_448\n        /* \"--CODEGEN--\":2600:2607   */\n      dup8\n        /* \"--CODEGEN--\":2591:2597   */\n      dup3\n        /* \"--CODEGEN--\":2580:2589   */\n      dup9\n        /* \"--CODEGEN--\":2576:2598   */\n      add\n        /* \"--CODEGEN--\":2545:2608   */\n      tag_417\n      jump\t// in\n    tag_448:\n        /* \"--CODEGEN--\":2535:2608   */\n      swap3\n      pop\n        /* \"--CODEGEN--\":2420:2614   */\n      pop\n        /* \"--CODEGEN--\":2673:2675   */\n      0x60\n        /* \"--CODEGEN--\":2662:2671   */\n      dup6\n        /* \"--CODEGEN--\":2658:2676   */\n      add\n        /* \"--CODEGEN--\":2645:2677   */\n      calldataload\n        /* \"--CODEGEN--\":2697:2715   */\n      0xffffffffffffffff\n        /* \"--CODEGEN--\":2689:2695   */\n      dup2\n        /* \"--CODEGEN--\":2686:2716   */\n      gt\n        /* \"--CODEGEN--\":2683:2685   */\n      iszero\n      tag_449\n      jumpi\n        /* \"--CODEGEN--\":2729:2730   */\n      0x00\n        /* \"--CODEGEN--\":2726:2727   */\n      dup1\n        /* \"--CODEGEN--\":2719:2731   */\n      revert\n        /* \"--CODEGEN--\":2683:2685   */\n    tag_449:\n        /* \"--CODEGEN--\":2749:2812   */\n      tag_450\n        /* \"--CODEGEN--\":2804:2811   */\n      dup8\n        /* \"--CODEGEN--\":2795:2801   */\n      dup3\n        /* \"--CODEGEN--\":2784:2793   */\n      dup9\n        /* \"--CODEGEN--\":2780:2802   */\n      add\n        /* \"--CODEGEN--\":2749:2812   */\n      tag_417\n      jump\t// in\n    tag_450:\n        /* \"--CODEGEN--\":2739:2812   */\n      swap2\n      pop\n        /* \"--CODEGEN--\":2624:2818   */\n      pop\n        /* \"--CODEGEN--\":2136:2828   */\n      swap3\n      swap6\n      swap2\n      swap5\n      pop\n      swap3\n      pop\n      jump\t// out\n        /* \"--CODEGEN--\":2835:3413   */\n    tag_62:\n      0x00\n      dup1\n        /* \"--CODEGEN--\":2976:2978   */\n      0x40\n        /* \"--CODEGEN--\":2964:2973   */\n      dup4\n        /* \"--CODEGEN--\":2955:2962   */\n      dup6\n        /* \"--CODEGEN--\":2951:2974   */\n      sub\n        /* \"--CODEGEN--\":2947:2979   */\n      slt\n        /* \"--CODEGEN--\":2944:2946   */\n      iszero\n      tag_452\n      jumpi\n        /* \"--CODEGEN--\":2992:2993   */\n      0x00\n        /* \"--CODEGEN--\":2989:2990   */\n      dup1\n        /* \"--CODEGEN--\":2982:2994   */\n      revert\n        /* \"--CODEGEN--\":2944:2946   */\n    tag_452:\n        /* \"--CODEGEN--\":3055:3056   */\n      0x00\n        /* \"--CODEGEN--\":3044:3053   */\n      dup4\n        /* \"--CODEGEN--\":3040:3057   */\n      add\n        /* \"--CODEGEN--\":3027:3058   */\n      calldataload\n        /* \"--CODEGEN--\":3078:3096   */\n      0xffffffffffffffff\n        /* \"--CODEGEN--\":3070:3076   */\n      dup2\n        /* \"--CODEGEN--\":3067:3097   */\n      gt\n        /* \"--CODEGEN--\":3064:3066   */\n      iszero\n      tag_453\n      jumpi\n        /* \"--CODEGEN--\":3110:3111   */\n      0x00\n        /* \"--CODEGEN--\":3107:3108   */\n      dup1\n        /* \"--CODEGEN--\":3100:3112   */\n      revert\n        /* \"--CODEGEN--\":3064:3066   */\n    tag_453:\n        /* \"--CODEGEN--\":3130:3193   */\n      tag_454\n        /* \"--CODEGEN--\":3185:3192   */\n      dup6\n        /* \"--CODEGEN--\":3176:3182   */\n      dup3\n        /* \"--CODEGEN--\":3165:3174   */\n      dup7\n        /* \"--CODEGEN--\":3161:3183   */\n      add\n        /* \"--CODEGEN--\":3130:3193   */\n      tag_417\n      jump\t// in\n    tag_454:\n        /* \"--CODEGEN--\":3120:3193   */\n      swap3\n      pop\n        /* \"--CODEGEN--\":3006:3199   */\n      pop\n        /* \"--CODEGEN--\":3258:3260   */\n      0x20\n        /* \"--CODEGEN--\":3247:3256   */\n      dup4\n        /* \"--CODEGEN--\":3243:3261   */\n      add\n        /* \"--CODEGEN--\":3230:3262   */\n      calldataload\n        /* \"--CODEGEN--\":3282:3300   */\n      0xffffffffffffffff\n        /* \"--CODEGEN--\":3274:3280   */\n      dup2\n        /* \"--CODEGEN--\":3271:3301   */\n      gt\n        /* \"--CODEGEN--\":3268:3270   */\n      iszero\n      tag_455\n      jumpi\n        /* \"--CODEGEN--\":3314:3315   */\n      0x00\n        /* \"--CODEGEN--\":3311:3312   */\n      dup1\n        /* \"--CODEGEN--\":3304:3316   */\n      revert\n        /* \"--CODEGEN--\":3268:3270   */\n    tag_455:\n        /* \"--CODEGEN--\":3334:3397   */\n      tag_456\n        /* \"--CODEGEN--\":3389:3396   */\n      dup6\n        /* \"--CODEGEN--\":3380:3386   */\n      dup3\n        /* \"--CODEGEN--\":3369:3378   */\n      dup7\n        /* \"--CODEGEN--\":3365:3387   */\n      add\n        /* \"--CODEGEN--\":3334:3397   */\n      tag_417\n      jump\t// in\n    tag_456:\n        /* \"--CODEGEN--\":3324:3397   */\n      swap2\n      pop\n        /* \"--CODEGEN--\":3209:3403   */\n      pop\n        /* \"--CODEGEN--\":2938:3413   */\n      swap3\n      pop\n      swap3\n      swap1\n      pop\n      jump\t// out\n        /* \"--CODEGEN--\":3420:3661   */\n    tag_47:\n      0x00\n        /* \"--CODEGEN--\":3524:3526   */\n      0x20\n        /* \"--CODEGEN--\":3512:3521   */\n      dup3\n        /* \"--CODEGEN--\":3503:3510   */\n      dup5\n        /* \"--CODEGEN--\":3499:3522   */\n      sub\n        /* \"--CODEGEN--\":3495:3527   */\n      slt\n        /* \"--CODEGEN--\":3492:3494   */\n      iszero\n      tag_458\n      jumpi\n        /* \"--CODEGEN--\":3540:3541   */\n      0x00\n        /* \"--CODEGEN--\":3537:3538   */\n      dup1\n        /* \"--CODEGEN--\":3530:3542   */\n      revert\n        /* \"--CODEGEN--\":3492:3494   */\n    tag_458:\n        /* \"--CODEGEN--\":3575:3576   */\n      0x00\n        /* \"--CODEGEN--\":3592:3645   */\n      tag_459\n        /* \"--CODEGEN--\":3637:3644   */\n      dup5\n        /* \"--CODEGEN--\":3628:3634   */\n      dup3\n        /* \"--CODEGEN--\":3617:3626   */\n      dup6\n        /* \"--CODEGEN--\":3613:3635   */\n      add\n        /* \"--CODEGEN--\":3592:3645   */\n      tag_427\n      jump\t// in\n    tag_459:\n        /* \"--CODEGEN--\":3582:3645   */\n      swap2\n      pop\n        /* \"--CODEGEN--\":3554:3651   */\n      pop\n        /* \"--CODEGEN--\":3486:3661   */\n      swap3\n      swap2\n      pop\n      pop\n      jump\t// out\n        /* \"--CODEGEN--\":3668:4140   */\n    tag_32:\n      0x00\n      dup1\n        /* \"--CODEGEN--\":3799:3801   */\n      0x40\n        /* \"--CODEGEN--\":3787:3796   */\n      dup4\n        /* \"--CODEGEN--\":3778:3785   */\n      dup6\n        /* \"--CODEGEN--\":3774:3797   */\n      sub\n        /* \"--CODEGEN--\":3770:3802   */\n      slt\n        /* \"--CODEGEN--\":3767:3769   */\n      iszero\n      tag_461\n      jumpi\n        /* \"--CODEGEN--\":3815:3816   */\n      0x00\n        /* \"--CODEGEN--\":3812:3813   */\n      dup1\n        /* \"--CODEGEN--\":3805:3817   */\n      revert\n        /* \"--CODEGEN--\":3767:3769   */\n    tag_461:\n        /* \"--CODEGEN--\":3850:3851   */\n      0x00\n        /* \"--CODEGEN--\":3867:3920   */\n      tag_462\n        /* \"--CODEGEN--\":3912:3919   */\n      dup6\n        /* \"--CODEGEN--\":3903:3909   */\n      dup3\n        /* \"--CODEGEN--\":3892:3901   */\n      dup7\n        /* \"--CODEGEN--\":3888:3910   */\n      add\n        /* \"--CODEGEN--\":3867:3920   */\n      tag_427\n      jump\t// in\n    tag_462:\n        /* \"--CODEGEN--\":3857:3920   */\n      swap3\n      pop\n        /* \"--CODEGEN--\":3829:3926   */\n      pop\n        /* \"--CODEGEN--\":3985:3987   */\n      0x20\n        /* \"--CODEGEN--\":3974:3983   */\n      dup4\n        /* \"--CODEGEN--\":3970:3988   */\n      add\n        /* \"--CODEGEN--\":3957:3989   */\n      calldataload\n        /* \"--CODEGEN--\":4009:4027   */\n      0xffffffffffffffff\n        /* \"--CODEGEN--\":4001:4007   */\n      dup2\n        /* \"--CODEGEN--\":3998:4028   */\n      gt\n        /* \"--CODEGEN--\":3995:3997   */\n      iszero\n      tag_463\n      jumpi\n        /* \"--CODEGEN--\":4041:4042   */\n      0x00\n        /* \"--CODEGEN--\":4038:4039   */\n      dup1\n        /* \"--CODEGEN--\":4031:4043   */\n      revert\n        /* \"--CODEGEN--\":3995:3997   */\n    tag_463:\n        /* \"--CODEGEN--\":4061:4124   */\n      tag_464\n        /* \"--CODEGEN--\":4116:4123   */\n      dup6\n        /* \"--CODEGEN--\":4107:4113   */\n      dup3\n        /* \"--CODEGEN--\":4096:4105   */\n      dup7\n        /* \"--CODEGEN--\":4092:4114   */\n      add\n        /* \"--CODEGEN--\":4061:4124   */\n      tag_417\n      jump\t// in\n    tag_464:\n        /* \"--CODEGEN--\":4051:4124   */\n      swap2\n      pop\n        /* \"--CODEGEN--\":3936:4130   */\n      pop\n        /* \"--CODEGEN--\":3761:4140   */\n      swap3\n      pop\n      swap3\n      swap1\n      pop\n      jump\t// out\n        /* \"--CODEGEN--\":4147:4850   */\n    tag_83:\n      0x00\n      dup1\n      0x00\n        /* \"--CODEGEN--\":4305:4307   */\n      0x60\n        /* \"--CODEGEN--\":4293:4302   */\n      dup5\n        /* \"--CODEGEN--\":4284:4291   */\n      dup7\n        /* \"--CODEGEN--\":4280:4303   */\n      sub\n        /* \"--CODEGEN--\":4276:4308   */\n      slt\n        /* \"--CODEGEN--\":4273:4275   */\n      iszero\n      tag_466\n      jumpi\n        /* \"--CODEGEN--\":4321:4322   */\n      0x00\n        /* \"--CODEGEN--\":4318:4319   */\n      dup1\n        /* \"--CODEGEN--\":4311:4323   */\n      revert\n        /* \"--CODEGEN--\":4273:4275   */\n    tag_466:\n        /* \"--CODEGEN--\":4356:4357   */\n      0x00\n        /* \"--CODEGEN--\":4373:4426   */\n      tag_467\n        /* \"--CODEGEN--\":4418:4425   */\n      dup7\n        /* \"--CODEGEN--\":4409:4415   */\n      dup3\n        /* \"--CODEGEN--\":4398:4407   */\n      dup8\n        /* \"--CODEGEN--\":4394:4416   */\n      add\n        /* \"--CODEGEN--\":4373:4426   */\n      tag_427\n      jump\t// in\n    tag_467:\n        /* \"--CODEGEN--\":4363:4426   */\n      swap4\n      pop\n        /* \"--CODEGEN--\":4335:4432   */\n      pop\n        /* \"--CODEGEN--\":4491:4493   */\n      0x20\n        /* \"--CODEGEN--\":4480:4489   */\n      dup5\n        /* \"--CODEGEN--\":4476:4494   */\n      add\n        /* \"--CODEGEN--\":4463:4495   */\n      calldataload\n        /* \"--CODEGEN--\":4515:4533   */\n      0xffffffffffffffff\n        /* \"--CODEGEN--\":4507:4513   */\n      dup2\n        /* \"--CODEGEN--\":4504:4534   */\n      gt\n        /* \"--CODEGEN--\":4501:4503   */\n      iszero\n      tag_468\n      jumpi\n        /* \"--CODEGEN--\":4547:4548   */\n      0x00\n        /* \"--CODEGEN--\":4544:4545   */\n      dup1\n        /* \"--CODEGEN--\":4537:4549   */\n      revert\n        /* \"--CODEGEN--\":4501:4503   */\n    tag_468:\n        /* \"--CODEGEN--\":4567:4630   */\n      tag_469\n        /* \"--CODEGEN--\":4622:4629   */\n      dup7\n        /* \"--CODEGEN--\":4613:4619   */\n      dup3\n        /* \"--CODEGEN--\":4602:4611   */\n      dup8\n        /* \"--CODEGEN--\":4598:4620   */\n      add\n        /* \"--CODEGEN--\":4567:4630   */\n      tag_417\n      jump\t// in\n    tag_469:\n        /* \"--CODEGEN--\":4557:4630   */\n      swap3\n      pop\n        /* \"--CODEGEN--\":4442:4636   */\n      pop\n        /* \"--CODEGEN--\":4695:4697   */\n      0x40\n        /* \"--CODEGEN--\":4684:4693   */\n      dup5\n        /* \"--CODEGEN--\":4680:4698   */\n      add\n        /* \"--CODEGEN--\":4667:4699   */\n      calldataload\n        /* \"--CODEGEN--\":4719:4737   */\n      0xffffffffffffffff\n        /* \"--CODEGEN--\":4711:4717   */\n      dup2\n        /* \"--CODEGEN--\":4708:4738   */\n      gt\n        /* \"--CODEGEN--\":4705:4707   */\n      iszero\n      tag_470\n      jumpi\n        /* \"--CODEGEN--\":4751:4752   */\n      0x00\n        /* \"--CODEGEN--\":4748:4749   */\n      dup1\n        /* \"--CODEGEN--\":4741:4753   */\n      revert\n        /* \"--CODEGEN--\":4705:4707   */\n    tag_470:\n        /* \"--CODEGEN--\":4771:4834   */\n      tag_471\n        /* \"--CODEGEN--\":4826:4833   */\n      dup7\n        /* \"--CODEGEN--\":4817:4823   */\n      dup3\n        /* \"--CODEGEN--\":4806:4815   */\n      dup8\n        /* \"--CODEGEN--\":4802:4824   */\n      add\n        /* \"--CODEGEN--\":4771:4834   */\n      tag_417\n      jump\t// in\n    tag_471:\n        /* \"--CODEGEN--\":4761:4834   */\n      swap2\n      pop\n        /* \"--CODEGEN--\":4646:4840   */\n      pop\n        /* \"--CODEGEN--\":4267:4850   */\n      swap3\n      pop\n      swap3\n      pop\n      swap3\n      jump\t// out\n        /* \"--CODEGEN--\":4858:5031   */\n    tag_472:\n      0x00\n        /* \"--CODEGEN--\":4945:4991   */\n      tag_474\n        /* \"--CODEGEN--\":4987:4990   */\n      dup4\n        /* \"--CODEGEN--\":4979:4985   */\n      dup4\n        /* \"--CODEGEN--\":4945:4991   */\n      tag_475\n      jump\t// in\n    tag_474:\n        /* \"--CODEGEN--\":5020:5024   */\n      0x20\n        /* \"--CODEGEN--\":5015:5018   */\n      dup4\n        /* \"--CODEGEN--\":5011:5025   */\n      add\n        /* \"--CODEGEN--\":4997:5025   */\n      swap1\n      pop\n        /* \"--CODEGEN--\":4938:5031   */\n      swap3\n      swap2\n      pop\n      pop\n      jump\t// out\n        /* \"--CODEGEN--\":5040:5233   */\n    tag_476:\n      0x00\n        /* \"--CODEGEN--\":5161:5227   */\n      tag_478\n        /* \"--CODEGEN--\":5223:5226   */\n      dup4\n        /* \"--CODEGEN--\":5215:5221   */\n      dup4\n        /* \"--CODEGEN--\":5161:5227   */\n      tag_479\n      jump\t// in\n    tag_478:\n        /* \"--CODEGEN--\":5147:5227   */\n      swap1\n      pop\n        /* \"--CODEGEN--\":5140:5233   */\n      swap3\n      swap2\n      pop\n      pop\n      jump\t// out\n        /* \"--CODEGEN--\":5242:5415   */\n    tag_480:\n      0x00\n        /* \"--CODEGEN--\":5329:5375   */\n      tag_482\n        /* \"--CODEGEN--\":5371:5374   */\n      dup4\n        /* \"--CODEGEN--\":5363:5369   */\n      dup4\n        /* \"--CODEGEN--\":5329:5375   */\n      tag_483\n      jump\t// in\n    tag_482:\n        /* \"--CODEGEN--\":5404:5408   */\n      0x20\n        /* \"--CODEGEN--\":5399:5402   */\n      dup4\n        /* \"--CODEGEN--\":5395:5409   */\n      add\n        /* \"--CODEGEN--\":5381:5409   */\n      swap1\n      pop\n        /* \"--CODEGEN--\":5322:5415   */\n      swap3\n      swap2\n      pop\n      pop\n      jump\t// out\n        /* \"--CODEGEN--\":5423:5560   */\n    tag_484:\n        /* \"--CODEGEN--\":5522:5554   */\n      tag_486\n        /* \"--CODEGEN--\":5548:5553   */\n      dup2\n        /* \"--CODEGEN--\":5522:5554   */\n      tag_487\n      jump\t// in\n    tag_486:\n        /* \"--CODEGEN--\":5517:5520   */\n      dup3\n        /* \"--CODEGEN--\":5510:5555   */\n      mstore\n        /* \"--CODEGEN--\":5504:5560   */\n      pop\n      pop\n      jump\t// out\n        /* \"--CODEGEN--\":5567:5751   */\n    tag_488:\n        /* \"--CODEGEN--\":5684:5745   */\n      tag_490\n        /* \"--CODEGEN--\":5712:5744   */\n      tag_491\n        /* \"--CODEGEN--\":5738:5743   */\n      dup3\n        /* \"--CODEGEN--\":5712:5744   */\n      tag_487\n      jump\t// in\n    tag_491:\n        /* \"--CODEGEN--\":5684:5745   */\n      tag_492\n      jump\t// in\n    tag_490:\n        /* \"--CODEGEN--\":5679:5682   */\n      dup3\n        /* \"--CODEGEN--\":5672:5746   */\n      mstore\n        /* \"--CODEGEN--\":5666:5751   */\n      pop\n      pop\n      jump\t// out\n        /* \"--CODEGEN--\":5758:5861   */\n    tag_475:\n        /* \"--CODEGEN--\":5831:5855   */\n      tag_494\n        /* \"--CODEGEN--\":5849:5854   */\n      dup2\n        /* \"--CODEGEN--\":5831:5855   */\n      tag_495\n      jump\t// in\n    tag_494:\n        /* \"--CODEGEN--\":5826:5829   */\n      dup3\n        /* \"--CODEGEN--\":5819:5856   */\n      mstore\n        /* \"--CODEGEN--\":5813:5861   */\n      pop\n      pop\n      jump\t// out\n        /* \"--CODEGEN--\":5899:6589   */\n    tag_496:\n      0x00\n        /* \"--CODEGEN--\":6044:6098   */\n      tag_498\n        /* \"--CODEGEN--\":6092:6097   */\n      dup3\n        /* \"--CODEGEN--\":6044:6098   */\n      tag_499\n      jump\t// in\n    tag_498:\n        /* \"--CODEGEN--\":6111:6197   */\n      tag_500\n        /* \"--CODEGEN--\":6190:6196   */\n      dup2\n        /* \"--CODEGEN--\":6185:6188   */\n      dup6\n        /* \"--CODEGEN--\":6111:6197   */\n      tag_501\n      jump\t// in\n    tag_500:\n        /* \"--CODEGEN--\":6104:6197   */\n      swap4\n      pop\n        /* \"--CODEGEN--\":6218:6274   */\n      tag_502\n        /* \"--CODEGEN--\":6268:6273   */\n      dup4\n        /* \"--CODEGEN--\":6218:6274   */\n      tag_503\n      jump\t// in\n    tag_502:\n        /* \"--CODEGEN--\":6294:6301   */\n      dup1\n        /* \"--CODEGEN--\":6322:6323   */\n      0x00\n        /* \"--CODEGEN--\":6307:6567   */\n    tag_504:\n        /* \"--CODEGEN--\":6332:6338   */\n      dup4\n        /* \"--CODEGEN--\":6329:6330   */\n      dup2\n        /* \"--CODEGEN--\":6326:6339   */\n      lt\n        /* \"--CODEGEN--\":6307:6567   */\n      iszero\n      tag_506\n      jumpi\n        /* \"--CODEGEN--\":6399:6405   */\n      dup2\n        /* \"--CODEGEN--\":6393:6406   */\n      mload\n        /* \"--CODEGEN--\":6420:6483   */\n      tag_507\n        /* \"--CODEGEN--\":6479:6482   */\n      dup9\n        /* \"--CODEGEN--\":6464:6477   */\n      dup3\n        /* \"--CODEGEN--\":6420:6483   */\n      tag_472\n      jump\t// in\n    tag_507:\n        /* \"--CODEGEN--\":6413:6483   */\n      swap8\n      pop\n        /* \"--CODEGEN--\":6500:6560   */\n      tag_508\n        /* \"--CODEGEN--\":6553:6559   */\n      dup4\n        /* \"--CODEGEN--\":6500:6560   */\n      tag_509\n      jump\t// in\n    tag_508:\n        /* \"--CODEGEN--\":6490:6560   */\n      swap3\n      pop\n        /* \"--CODEGEN--\":6364:6567   */\n      pop\n        /* \"--CODEGEN--\":6354:6355   */\n      0x01\n        /* \"--CODEGEN--\":6351:6352   */\n      dup2\n        /* \"--CODEGEN--\":6347:6356   */\n      add\n        /* \"--CODEGEN--\":6342:6356   */\n      swap1\n      pop\n        /* \"--CODEGEN--\":6307:6567   */\n      jump(tag_504)\n    tag_506:\n        /* \"--CODEGEN--\":6311:6325   */\n      pop\n        /* \"--CODEGEN--\":6580:6583   */\n      dup6\n        /* \"--CODEGEN--\":6573:6583   */\n      swap4\n      pop\n        /* \"--CODEGEN--\":6023:6589   */\n      pop\n      pop\n      pop\n      swap3\n      swap2\n      pop\n      pop\n      jump\t// out\n        /* \"--CODEGEN--\":6626:7554   */\n    tag_510:\n      0x00\n        /* \"--CODEGEN--\":6791:6855   */\n      tag_512\n        /* \"--CODEGEN--\":6849:6854   */\n      dup3\n        /* \"--CODEGEN--\":6791:6855   */\n      tag_513\n      jump\t// in\n    tag_512:\n        /* \"--CODEGEN--\":6868:6964   */\n      tag_514\n        /* \"--CODEGEN--\":6957:6963   */\n      dup2\n        /* \"--CODEGEN--\":6952:6955   */\n      dup6\n        /* \"--CODEGEN--\":6868:6964   */\n      tag_515\n      jump\t// in\n    tag_514:\n        /* \"--CODEGEN--\":6861:6964   */\n      swap4\n      pop\n        /* \"--CODEGEN--\":6987:6990   */\n      dup4\n        /* \"--CODEGEN--\":7029:7033   */\n      0x20\n        /* \"--CODEGEN--\":7021:7027   */\n      dup3\n        /* \"--CODEGEN--\":7017:7034   */\n      mul\n        /* \"--CODEGEN--\":7012:7015   */\n      dup6\n        /* \"--CODEGEN--\":7008:7035   */\n      add\n        /* \"--CODEGEN--\":7056:7122   */\n      tag_516\n        /* \"--CODEGEN--\":7116:7121   */\n      dup6\n        /* \"--CODEGEN--\":7056:7122   */\n      tag_517\n      jump\t// in\n    tag_516:\n        /* \"--CODEGEN--\":7142:7149   */\n      dup1\n        /* \"--CODEGEN--\":7170:7171   */\n      0x00\n        /* \"--CODEGEN--\":7155:7515   */\n    tag_518:\n        /* \"--CODEGEN--\":7180:7186   */\n      dup6\n        /* \"--CODEGEN--\":7177:7178   */\n      dup2\n        /* \"--CODEGEN--\":7174:7187   */\n      lt\n        /* \"--CODEGEN--\":7155:7515   */\n      iszero\n      tag_520\n      jumpi\n        /* \"--CODEGEN--\":7242:7251   */\n      dup5\n        /* \"--CODEGEN--\":7236:7240   */\n      dup5\n        /* \"--CODEGEN--\":7232:7252   */\n      sub\n        /* \"--CODEGEN--\":7227:7230   */\n      dup10\n        /* \"--CODEGEN--\":7220:7253   */\n      mstore\n        /* \"--CODEGEN--\":7287:7293   */\n      dup2\n        /* \"--CODEGEN--\":7281:7294   */\n      mload\n        /* \"--CODEGEN--\":7309:7393   */\n      tag_521\n        /* \"--CODEGEN--\":7388:7392   */\n      dup6\n        /* \"--CODEGEN--\":7373:7386   */\n      dup3\n        /* \"--CODEGEN--\":7309:7393   */\n      tag_476\n      jump\t// in\n    tag_521:\n        /* \"--CODEGEN--\":7301:7393   */\n      swap5\n      pop\n        /* \"--CODEGEN--\":7410:7480   */\n      tag_522\n        /* \"--CODEGEN--\":7473:7479   */\n      dup4\n        /* \"--CODEGEN--\":7410:7480   */\n      tag_523\n      jump\t// in\n    tag_522:\n        /* \"--CODEGEN--\":7400:7480   */\n      swap3\n      pop\n        /* \"--CODEGEN--\":7503:7507   */\n      0x20\n        /* \"--CODEGEN--\":7498:7501   */\n      dup11\n        /* \"--CODEGEN--\":7494:7508   */\n      add\n        /* \"--CODEGEN--\":7487:7508   */\n      swap10\n      pop\n        /* \"--CODEGEN--\":7212:7515   */\n      pop\n        /* \"--CODEGEN--\":7202:7203   */\n      0x01\n        /* \"--CODEGEN--\":7199:7200   */\n      dup2\n        /* \"--CODEGEN--\":7195:7204   */\n      add\n        /* \"--CODEGEN--\":7190:7204   */\n      swap1\n      pop\n        /* \"--CODEGEN--\":7155:7515   */\n      jump(tag_518)\n    tag_520:\n        /* \"--CODEGEN--\":7159:7173   */\n      pop\n        /* \"--CODEGEN--\":7528:7532   */\n      dup3\n        /* \"--CODEGEN--\":7521:7532   */\n      swap8\n      pop\n        /* \"--CODEGEN--\":7545:7548   */\n      dup8\n        /* \"--CODEGEN--\":7538:7548   */\n      swap6\n      pop\n        /* \"--CODEGEN--\":6770:7554   */\n      pop\n      pop\n      pop\n      pop\n      pop\n      swap3\n      swap2\n      pop\n      pop\n      jump\t// out\n        /* \"--CODEGEN--\":7593:8283   */\n    tag_524:\n      0x00\n        /* \"--CODEGEN--\":7738:7792   */\n      tag_526\n        /* \"--CODEGEN--\":7786:7791   */\n      dup3\n        /* \"--CODEGEN--\":7738:7792   */\n      tag_527\n      jump\t// in\n    tag_526:\n        /* \"--CODEGEN--\":7805:7891   */\n      tag_528\n        /* \"--CODEGEN--\":7884:7890   */\n      dup2\n        /* \"--CODEGEN--\":7879:7882   */\n      dup6\n        /* \"--CODEGEN--\":7805:7891   */\n      tag_529\n      jump\t// in\n    tag_528:\n        /* \"--CODEGEN--\":7798:7891   */\n      swap4\n      pop\n        /* \"--CODEGEN--\":7912:7968   */\n      tag_530\n        /* \"--CODEGEN--\":7962:7967   */\n      dup4\n        /* \"--CODEGEN--\":7912:7968   */\n      tag_531\n      jump\t// in\n    tag_530:\n        /* \"--CODEGEN--\":7988:7995   */\n      dup1\n        /* \"--CODEGEN--\":8016:8017   */\n      0x00\n        /* \"--CODEGEN--\":8001:8261   */\n    tag_532:\n        /* \"--CODEGEN--\":8026:8032   */\n      dup4\n        /* \"--CODEGEN--\":8023:8024   */\n      dup2\n        /* \"--CODEGEN--\":8020:8033   */\n      lt\n        /* \"--CODEGEN--\":8001:8261   */\n      iszero\n      tag_534\n      jumpi\n        /* \"--CODEGEN--\":8093:8099   */\n      dup2\n        /* \"--CODEGEN--\":8087:8100   */\n      mload\n        /* \"--CODEGEN--\":8114:8177   */\n      tag_535\n        /* \"--CODEGEN--\":8173:8176   */\n      dup9\n        /* \"--CODEGEN--\":8158:8171   */\n      dup3\n        /* \"--CODEGEN--\":8114:8177   */\n      tag_480\n      jump\t// in\n    tag_535:\n        /* \"--CODEGEN--\":8107:8177   */\n      swap8\n      pop\n        /* \"--CODEGEN--\":8194:8254   */\n      tag_536\n        /* \"--CODEGEN--\":8247:8253   */\n      dup4\n        /* \"--CODEGEN--\":8194:8254   */\n      tag_537\n      jump\t// in\n    tag_536:\n        /* \"--CODEGEN--\":8184:8254   */\n      swap3\n      pop\n        /* \"--CODEGEN--\":8058:8261   */\n      pop\n        /* \"--CODEGEN--\":8048:8049   */\n      0x01\n        /* \"--CODEGEN--\":8045:8046   */\n      dup2\n        /* \"--CODEGEN--\":8041:8050   */\n      add\n        /* \"--CODEGEN--\":8036:8050   */\n      swap1\n      pop\n        /* \"--CODEGEN--\":8001:8261   */\n      jump(tag_532)\n    tag_534:\n        /* \"--CODEGEN--\":8005:8019   */\n      pop\n        /* \"--CODEGEN--\":8274:8277   */\n      dup6\n        /* \"--CODEGEN--\":8267:8277   */\n      swap4\n      pop\n        /* \"--CODEGEN--\":7717:8283   */\n      pop\n      pop\n      pop\n      swap3\n      swap2\n      pop\n      pop\n      jump\t// out\n        /* \"--CODEGEN--\":8291:8395   */\n    tag_538:\n        /* \"--CODEGEN--\":8368:8389   */\n      tag_540\n        /* \"--CODEGEN--\":8383:8388   */\n      dup2\n        /* \"--CODEGEN--\":8368:8389   */\n      tag_541\n      jump\t// in\n    tag_540:\n        /* \"--CODEGEN--\":8363:8366   */\n      dup3\n        /* \"--CODEGEN--\":8356:8390   */\n      mstore\n        /* \"--CODEGEN--\":8350:8395   */\n      pop\n      pop\n      jump\t// out\n        /* \"--CODEGEN--\":8402:8515   */\n    tag_542:\n        /* \"--CODEGEN--\":8485:8509   */\n      tag_544\n        /* \"--CODEGEN--\":8503:8508   */\n      dup2\n        /* \"--CODEGEN--\":8485:8509   */\n      tag_545\n      jump\t// in\n    tag_544:\n        /* \"--CODEGEN--\":8480:8483   */\n      dup3\n        /* \"--CODEGEN--\":8473:8510   */\n      mstore\n        /* \"--CODEGEN--\":8467:8515   */\n      pop\n      pop\n      jump\t// out\n        /* \"--CODEGEN--\":8522:8849   */\n    tag_479:\n      0x00\n        /* \"--CODEGEN--\":8624:8663   */\n      tag_547\n        /* \"--CODEGEN--\":8657:8662   */\n      dup3\n        /* \"--CODEGEN--\":8624:8663   */\n      tag_548\n      jump\t// in\n    tag_547:\n        /* \"--CODEGEN--\":8675:8736   */\n      tag_549\n        /* \"--CODEGEN--\":8729:8735   */\n      dup2\n        /* \"--CODEGEN--\":8724:8727   */\n      dup6\n        /* \"--CODEGEN--\":8675:8736   */\n      tag_550\n      jump\t// in\n    tag_549:\n        /* \"--CODEGEN--\":8668:8736   */\n      swap4\n      pop\n        /* \"--CODEGEN--\":8741:8793   */\n      tag_551\n        /* \"--CODEGEN--\":8786:8792   */\n      dup2\n        /* \"--CODEGEN--\":8781:8784   */\n      dup6\n        /* \"--CODEGEN--\":8774:8778   */\n      0x20\n        /* \"--CODEGEN--\":8767:8772   */\n      dup7\n        /* \"--CODEGEN--\":8763:8779   */\n      add\n        /* \"--CODEGEN--\":8741:8793   */\n      tag_552\n      jump\t// in\n    tag_551:\n        /* \"--CODEGEN--\":8814:8843   */\n      tag_553\n        /* \"--CODEGEN--\":8836:8842   */\n      dup2\n        /* \"--CODEGEN--\":8814:8843   */\n      tag_554\n      jump\t// in\n    tag_553:\n        /* \"--CODEGEN--\":8809:8812   */\n      dup5\n        /* \"--CODEGEN--\":8805:8844   */\n      add\n        /* \"--CODEGEN--\":8798:8844   */\n      swap2\n      pop\n        /* \"--CODEGEN--\":8604:8849   */\n      pop\n      swap3\n      swap2\n      pop\n      pop\n      jump\t// out\n        /* \"--CODEGEN--\":8856:9216   */\n    tag_555:\n      0x00\n        /* \"--CODEGEN--\":8986:9025   */\n      tag_557\n        /* \"--CODEGEN--\":9019:9024   */\n      dup3\n        /* \"--CODEGEN--\":8986:9025   */\n      tag_548\n      jump\t// in\n    tag_557:\n        /* \"--CODEGEN--\":9037:9126   */\n      tag_558\n        /* \"--CODEGEN--\":9119:9125   */\n      dup2\n        /* \"--CODEGEN--\":9114:9117   */\n      dup6\n        /* \"--CODEGEN--\":9037:9126   */\n      tag_559\n      jump\t// in\n    tag_558:\n        /* \"--CODEGEN--\":9030:9126   */\n      swap4\n      pop\n        /* \"--CODEGEN--\":9131:9183   */\n      tag_560\n        /* \"--CODEGEN--\":9176:9182   */\n      dup2\n        /* \"--CODEGEN--\":9171:9174   */\n      dup6\n        /* \"--CODEGEN--\":9164:9168   */\n      0x20\n        /* \"--CODEGEN--\":9157:9162   */\n      dup7\n        /* \"--CODEGEN--\":9153:9169   */\n      add\n        /* \"--CODEGEN--\":9131:9183   */\n      tag_552\n      jump\t// in\n    tag_560:\n        /* \"--CODEGEN--\":9204:9210   */\n      dup1\n        /* \"--CODEGEN--\":9199:9202   */\n      dup5\n        /* \"--CODEGEN--\":9195:9211   */\n      add\n        /* \"--CODEGEN--\":9188:9211   */\n      swap2\n      pop\n        /* \"--CODEGEN--\":8966:9216   */\n      pop\n      swap3\n      swap2\n      pop\n      pop\n      jump\t// out\n        /* \"--CODEGEN--\":9248:10132   */\n    tag_561:\n      0x00\n        /* \"--CODEGEN--\":9385:9390   */\n      dup2\n        /* \"--CODEGEN--\":9379:9391   */\n      sload\n        /* \"--CODEGEN--\":9419:9420   */\n      0x01\n        /* \"--CODEGEN--\":9408:9417   */\n      dup2\n        /* \"--CODEGEN--\":9404:9421   */\n      and\n        /* \"--CODEGEN--\":9432:9433   */\n      0x00\n        /* \"--CODEGEN--\":9427:9695   */\n      dup2\n      eq\n      tag_564\n      jumpi\n        /* \"--CODEGEN--\":9706:9707   */\n      0x01\n        /* \"--CODEGEN--\":9701:10126   */\n      dup2\n      eq\n      tag_565\n      jumpi\n        /* \"--CODEGEN--\":9397:10126   */\n      jump(tag_563)\n        /* \"--CODEGEN--\":9427:9695   */\n    tag_564:\n        /* \"--CODEGEN--\":9505:9509   */\n      0x7f\n        /* \"--CODEGEN--\":9501:9502   */\n      0x02\n        /* \"--CODEGEN--\":9490:9499   */\n      dup4\n        /* \"--CODEGEN--\":9486:9503   */\n      div\n        /* \"--CODEGEN--\":9482:9510   */\n      and\n        /* \"--CODEGEN--\":9524:9613   */\n      tag_566\n        /* \"--CODEGEN--\":9606:9612   */\n      dup2\n        /* \"--CODEGEN--\":9601:9604   */\n      dup8\n        /* \"--CODEGEN--\":9524:9613   */\n      tag_559\n      jump\t// in\n    tag_566:\n        /* \"--CODEGEN--\":9517:9613   */\n      swap6\n      pop\n        /* \"--CODEGEN--\":9651:9655   */\n      0xff\n        /* \"--CODEGEN--\":9647:9656   */\n      not\n        /* \"--CODEGEN--\":9636:9645   */\n      dup4\n        /* \"--CODEGEN--\":9632:9657   */\n      and\n        /* \"--CODEGEN--\":9627:9630   */\n      dup7\n        /* \"--CODEGEN--\":9620:9658   */\n      mstore\n        /* \"--CODEGEN--\":9681:9687   */\n      dup1\n        /* \"--CODEGEN--\":9676:9679   */\n      dup7\n        /* \"--CODEGEN--\":9672:9688   */\n      add\n        /* \"--CODEGEN--\":9665:9688   */\n      swap4\n      pop\n        /* \"--CODEGEN--\":9434:9695   */\n      pop\n        /* \"--CODEGEN--\":9427:9695   */\n      jump(tag_563)\n        /* \"--CODEGEN--\":9701:10126   */\n    tag_565:\n        /* \"--CODEGEN--\":9770:9771   */\n      0x02\n        /* \"--CODEGEN--\":9759:9768   */\n      dup3\n        /* \"--CODEGEN--\":9755:9772   */\n      div\n        /* \"--CODEGEN--\":9786:9875   */\n      tag_567\n        /* \"--CODEGEN--\":9868:9874   */\n      dup2\n        /* \"--CODEGEN--\":9863:9866   */\n      dup8\n        /* \"--CODEGEN--\":9786:9875   */\n      tag_559\n      jump\t// in\n    tag_567:\n        /* \"--CODEGEN--\":9779:9875   */\n      swap6\n      pop\n        /* \"--CODEGEN--\":9897:9935   */\n      tag_568\n        /* \"--CODEGEN--\":9929:9934   */\n      dup6\n        /* \"--CODEGEN--\":9897:9935   */\n      tag_569\n      jump\t// in\n    tag_568:\n        /* \"--CODEGEN--\":9951:9952   */\n      0x00\n        /* \"--CODEGEN--\":9959:10089   */\n    tag_570:\n        /* \"--CODEGEN--\":9973:9979   */\n      dup3\n        /* \"--CODEGEN--\":9970:9971   */\n      dup2\n        /* \"--CODEGEN--\":9967:9980   */\n      lt\n        /* \"--CODEGEN--\":9959:10089   */\n      iszero\n      tag_572\n      jumpi\n        /* \"--CODEGEN--\":10038:10045   */\n      dup2\n        /* \"--CODEGEN--\":10032:10046   */\n      sload\n        /* \"--CODEGEN--\":10028:10029   */\n      dup2\n        /* \"--CODEGEN--\":10023:10026   */\n      dup10\n        /* \"--CODEGEN--\":10019:10030   */\n      add\n        /* \"--CODEGEN--\":10012:10047   */\n      mstore\n        /* \"--CODEGEN--\":10079:10080   */\n      0x01\n        /* \"--CODEGEN--\":10070:10077   */\n      dup3\n        /* \"--CODEGEN--\":10066:10081   */\n      add\n        /* \"--CODEGEN--\":10055:10081   */\n      swap2\n      pop\n        /* \"--CODEGEN--\":9995:9999   */\n      0x20\n        /* \"--CODEGEN--\":9992:9993   */\n      dup2\n        /* \"--CODEGEN--\":9988:10000   */\n      add\n        /* \"--CODEGEN--\":9983:10000   */\n      swap1\n      pop\n        /* \"--CODEGEN--\":9959:10089   */\n      jump(tag_570)\n    tag_572:\n        /* \"--CODEGEN--\":10112:10118   */\n      dup3\n        /* \"--CODEGEN--\":10107:10110   */\n      dup9\n        /* \"--CODEGEN--\":10103:10119   */\n      add\n        /* \"--CODEGEN--\":10096:10119   */\n      swap6\n      pop\n        /* \"--CODEGEN--\":9708:10126   */\n      pop\n      pop\n      pop\n        /* \"--CODEGEN--\":9397:10126   */\n    tag_563:\n      pop\n        /* \"--CODEGEN--\":9355:10132   */\n      pop\n      swap3\n      swap2\n      pop\n      pop\n      jump\t// out\n        /* \"--CODEGEN--\":10141:10453   */\n    tag_573:\n      0x00\n        /* \"--CODEGEN--\":10301:10368   */\n      tag_575\n        /* \"--CODEGEN--\":10365:10367   */\n      0x0c\n        /* \"--CODEGEN--\":10360:10363   */\n      dup4\n        /* \"--CODEGEN--\":10301:10368   */\n      tag_576\n      jump\t// in\n    tag_575:\n        /* \"--CODEGEN--\":10294:10368   */\n      swap2\n      pop\n        /* \"--CODEGEN--\":10401:10415   */\n      0x746f6b656e206469756261680000000000000000000000000000000000000000\n        /* \"--CODEGEN--\":10397:10398   */\n      0x00\n        /* \"--CODEGEN--\":10392:10395   */\n      dup4\n        /* \"--CODEGEN--\":10388:10399   */\n      add\n        /* \"--CODEGEN--\":10381:10416   */\n      mstore\n        /* \"--CODEGEN--\":10444:10446   */\n      0x20\n        /* \"--CODEGEN--\":10439:10442   */\n      dup3\n        /* \"--CODEGEN--\":10435:10447   */\n      add\n        /* \"--CODEGEN--\":10428:10447   */\n      swap1\n      pop\n        /* \"--CODEGEN--\":10287:10453   */\n      swap2\n      swap1\n      pop\n      jump\t// out\n        /* \"--CODEGEN--\":10462:10780   */\n    tag_577:\n      0x00\n        /* \"--CODEGEN--\":10622:10689   */\n      tag_579\n        /* \"--CODEGEN--\":10686:10688   */\n      0x12\n        /* \"--CODEGEN--\":10681:10684   */\n      dup4\n        /* \"--CODEGEN--\":10622:10689   */\n      tag_576\n      jump\t// in\n    tag_579:\n        /* \"--CODEGEN--\":10615:10689   */\n      swap2\n      pop\n        /* \"--CODEGEN--\":10722:10742   */\n      0x746f6b656e20746964616b206469756261680000000000000000000000000000\n        /* \"--CODEGEN--\":10718:10719   */\n      0x00\n        /* \"--CODEGEN--\":10713:10716   */\n      dup4\n        /* \"--CODEGEN--\":10709:10720   */\n      add\n        /* \"--CODEGEN--\":10702:10743   */\n      mstore\n        /* \"--CODEGEN--\":10771:10773   */\n      0x20\n        /* \"--CODEGEN--\":10766:10769   */\n      dup3\n        /* \"--CODEGEN--\":10762:10774   */\n      add\n        /* \"--CODEGEN--\":10755:10774   */\n      swap1\n      pop\n        /* \"--CODEGEN--\":10608:10780   */\n      swap2\n      swap1\n      pop\n      jump\t// out\n        /* \"--CODEGEN--\":10788:10891   */\n    tag_483:\n        /* \"--CODEGEN--\":10861:10885   */\n      tag_581\n        /* \"--CODEGEN--\":10879:10884   */\n      dup2\n        /* \"--CODEGEN--\":10861:10885   */\n      tag_582\n      jump\t// in\n    tag_581:\n        /* \"--CODEGEN--\":10856:10859   */\n      dup3\n        /* \"--CODEGEN--\":10849:10886   */\n      mstore\n        /* \"--CODEGEN--\":10843:10891   */\n      pop\n      pop\n      jump\t// out\n        /* \"--CODEGEN--\":10898:11011   */\n    tag_583:\n        /* \"--CODEGEN--\":10981:11005   */\n      tag_585\n        /* \"--CODEGEN--\":10999:11004   */\n      dup2\n        /* \"--CODEGEN--\":10981:11005   */\n      tag_582\n      jump\t// in\n    tag_585:\n        /* \"--CODEGEN--\":10976:10979   */\n      dup3\n        /* \"--CODEGEN--\":10969:11006   */\n      mstore\n        /* \"--CODEGEN--\":10963:11011   */\n      pop\n      pop\n      jump\t// out\n        /* \"--CODEGEN--\":11018:11170   */\n    tag_586:\n        /* \"--CODEGEN--\":11119:11164   */\n      tag_588\n        /* \"--CODEGEN--\":11139:11163   */\n      tag_589\n        /* \"--CODEGEN--\":11157:11162   */\n      dup3\n        /* \"--CODEGEN--\":11139:11163   */\n      tag_582\n      jump\t// in\n    tag_589:\n        /* \"--CODEGEN--\":11119:11164   */\n      tag_590\n      jump\t// in\n    tag_588:\n        /* \"--CODEGEN--\":11114:11117   */\n      dup3\n        /* \"--CODEGEN--\":11107:11165   */\n      mstore\n        /* \"--CODEGEN--\":11101:11170   */\n      pop\n      pop\n      jump\t// out\n        /* \"--CODEGEN--\":11177:11601   */\n    tag_290:\n      0x00\n        /* \"--CODEGEN--\":11349:11440   */\n      tag_592\n        /* \"--CODEGEN--\":11436:11439   */\n      dup3\n        /* \"--CODEGEN--\":11427:11433   */\n      dup6\n        /* \"--CODEGEN--\":11349:11440   */\n      tag_488\n      jump\t// in\n    tag_592:\n        /* \"--CODEGEN--\":11462:11464   */\n      0x14\n        /* \"--CODEGEN--\":11457:11460   */\n      dup3\n        /* \"--CODEGEN--\":11453:11465   */\n      add\n        /* \"--CODEGEN--\":11446:11465   */\n      swap2\n      pop\n        /* \"--CODEGEN--\":11476:11551   */\n      tag_593\n        /* \"--CODEGEN--\":11547:11550   */\n      dup3\n        /* \"--CODEGEN--\":11538:11544   */\n      dup5\n        /* \"--CODEGEN--\":11476:11551   */\n      tag_586\n      jump\t// in\n    tag_593:\n        /* \"--CODEGEN--\":11573:11575   */\n      0x20\n        /* \"--CODEGEN--\":11568:11571   */\n      dup3\n        /* \"--CODEGEN--\":11564:11576   */\n      add\n        /* \"--CODEGEN--\":11557:11576   */\n      swap2\n      pop\n        /* \"--CODEGEN--\":11593:11596   */\n      dup2\n        /* \"--CODEGEN--\":11586:11596   */\n      swap1\n      pop\n        /* \"--CODEGEN--\":11337:11601   */\n      swap4\n      swap3\n      pop\n      pop\n      pop\n      jump\t// out\n        /* \"--CODEGEN--\":11608:11883   */\n    tag_122:\n      0x00\n        /* \"--CODEGEN--\":11763:11858   */\n      tag_595\n        /* \"--CODEGEN--\":11854:11857   */\n      dup3\n        /* \"--CODEGEN--\":11845:11851   */\n      dup5\n        /* \"--CODEGEN--\":11763:11858   */\n      tag_555\n      jump\t// in\n    tag_595:\n        /* \"--CODEGEN--\":11756:11858   */\n      swap2\n      pop\n        /* \"--CODEGEN--\":11875:11878   */\n      dup2\n        /* \"--CODEGEN--\":11868:11878   */\n      swap1\n      pop\n        /* \"--CODEGEN--\":11744:11883   */\n      swap3\n      swap2\n      pop\n      pop\n      jump\t// out\n        /* \"--CODEGEN--\":11890:12159   */\n    tag_120:\n      0x00\n        /* \"--CODEGEN--\":12042:12134   */\n      tag_597\n        /* \"--CODEGEN--\":12130:12133   */\n      dup3\n        /* \"--CODEGEN--\":12121:12127   */\n      dup5\n        /* \"--CODEGEN--\":12042:12134   */\n      tag_561\n      jump\t// in\n    tag_597:\n        /* \"--CODEGEN--\":12035:12134   */\n      swap2\n      pop\n        /* \"--CODEGEN--\":12151:12154   */\n      dup2\n        /* \"--CODEGEN--\":12144:12154   */\n      swap1\n      pop\n        /* \"--CODEGEN--\":12023:12159   */\n      swap3\n      swap2\n      pop\n      pop\n      jump\t// out\n        /* \"--CODEGEN--\":12166:12420   */\n    tag_40:\n      0x00\n        /* \"--CODEGEN--\":12309:12311   */\n      0x20\n        /* \"--CODEGEN--\":12298:12307   */\n      dup3\n        /* \"--CODEGEN--\":12294:12312   */\n      add\n        /* \"--CODEGEN--\":12286:12312   */\n      swap1\n      pop\n        /* \"--CODEGEN--\":12323:12410   */\n      tag_599\n        /* \"--CODEGEN--\":12407:12408   */\n      0x00\n        /* \"--CODEGEN--\":12396:12405   */\n      dup4\n        /* \"--CODEGEN--\":12392:12409   */\n      add\n        /* \"--CODEGEN--\":12383:12389   */\n      dup5\n        /* \"--CODEGEN--\":12323:12410   */\n      tag_484\n      jump\t// in\n    tag_599:\n        /* \"--CODEGEN--\":12280:12420   */\n      swap3\n      swap2\n      pop\n      pop\n      jump\t// out\n        /* \"--CODEGEN--\":12427:12797   */\n    tag_75:\n      0x00\n        /* \"--CODEGEN--\":12604:12606   */\n      0x20\n        /* \"--CODEGEN--\":12593:12602   */\n      dup3\n        /* \"--CODEGEN--\":12589:12607   */\n      add\n        /* \"--CODEGEN--\":12581:12607   */\n      swap1\n      pop\n        /* \"--CODEGEN--\":12654:12663   */\n      dup2\n        /* \"--CODEGEN--\":12648:12652   */\n      dup2\n        /* \"--CODEGEN--\":12644:12664   */\n      sub\n        /* \"--CODEGEN--\":12640:12641   */\n      0x00\n        /* \"--CODEGEN--\":12629:12638   */\n      dup4\n        /* \"--CODEGEN--\":12625:12642   */\n      add\n        /* \"--CODEGEN--\":12618:12665   */\n      mstore\n        /* \"--CODEGEN--\":12679:12787   */\n      tag_601\n        /* \"--CODEGEN--\":12782:12786   */\n      dup2\n        /* \"--CODEGEN--\":12773:12779   */\n      dup5\n        /* \"--CODEGEN--\":12679:12787   */\n      tag_496\n      jump\t// in\n    tag_601:\n        /* \"--CODEGEN--\":12671:12787   */\n      swap1\n      pop\n        /* \"--CODEGEN--\":12575:12797   */\n      swap3\n      swap2\n      pop\n      pop\n      jump\t// out\n        /* \"--CODEGEN--\":12804:13214   */\n    tag_50:\n      0x00\n        /* \"--CODEGEN--\":13001:13003   */\n      0x20\n        /* \"--CODEGEN--\":12990:12999   */\n      dup3\n        /* \"--CODEGEN--\":12986:13004   */\n      add\n        /* \"--CODEGEN--\":12978:13004   */\n      swap1\n      pop\n        /* \"--CODEGEN--\":13051:13060   */\n      dup2\n        /* \"--CODEGEN--\":13045:13049   */\n      dup2\n        /* \"--CODEGEN--\":13041:13061   */\n      sub\n        /* \"--CODEGEN--\":13037:13038   */\n      0x00\n        /* \"--CODEGEN--\":13026:13035   */\n      dup4\n        /* \"--CODEGEN--\":13022:13039   */\n      add\n        /* \"--CODEGEN--\":13015:13062   */\n      mstore\n        /* \"--CODEGEN--\":13076:13204   */\n      tag_603\n        /* \"--CODEGEN--\":13199:13203   */\n      dup2\n        /* \"--CODEGEN--\":13190:13196   */\n      dup5\n        /* \"--CODEGEN--\":13076:13204   */\n      tag_510\n      jump\t// in\n    tag_603:\n        /* \"--CODEGEN--\":13068:13204   */\n      swap1\n      pop\n        /* \"--CODEGEN--\":12972:13214   */\n      swap3\n      swap2\n      pop\n      pop\n      jump\t// out\n        /* \"--CODEGEN--\":13221:14189   */\n    tag_44:\n      0x00\n        /* \"--CODEGEN--\":13594:13596   */\n      0x60\n        /* \"--CODEGEN--\":13583:13592   */\n      dup3\n        /* \"--CODEGEN--\":13579:13597   */\n      add\n        /* \"--CODEGEN--\":13571:13597   */\n      swap1\n      pop\n        /* \"--CODEGEN--\":13644:13653   */\n      dup2\n        /* \"--CODEGEN--\":13638:13642   */\n      dup2\n        /* \"--CODEGEN--\":13634:13654   */\n      sub\n        /* \"--CODEGEN--\":13630:13631   */\n      0x00\n        /* \"--CODEGEN--\":13619:13628   */\n      dup4\n        /* \"--CODEGEN--\":13615:13632   */\n      add\n        /* \"--CODEGEN--\":13608:13655   */\n      mstore\n        /* \"--CODEGEN--\":13669:13777   */\n      tag_605\n        /* \"--CODEGEN--\":13772:13776   */\n      dup2\n        /* \"--CODEGEN--\":13763:13769   */\n      dup7\n        /* \"--CODEGEN--\":13669:13777   */\n      tag_524\n      jump\t// in\n    tag_605:\n        /* \"--CODEGEN--\":13661:13777   */\n      swap1\n      pop\n        /* \"--CODEGEN--\":13825:13834   */\n      dup2\n        /* \"--CODEGEN--\":13819:13823   */\n      dup2\n        /* \"--CODEGEN--\":13815:13835   */\n      sub\n        /* \"--CODEGEN--\":13810:13812   */\n      0x20\n        /* \"--CODEGEN--\":13799:13808   */\n      dup4\n        /* \"--CODEGEN--\":13795:13813   */\n      add\n        /* \"--CODEGEN--\":13788:13836   */\n      mstore\n        /* \"--CODEGEN--\":13850:13978   */\n      tag_606\n        /* \"--CODEGEN--\":13973:13977   */\n      dup2\n        /* \"--CODEGEN--\":13964:13970   */\n      dup6\n        /* \"--CODEGEN--\":13850:13978   */\n      tag_510\n      jump\t// in\n    tag_606:\n        /* \"--CODEGEN--\":13842:13978   */\n      swap1\n      pop\n        /* \"--CODEGEN--\":14026:14035   */\n      dup2\n        /* \"--CODEGEN--\":14020:14024   */\n      dup2\n        /* \"--CODEGEN--\":14016:14036   */\n      sub\n        /* \"--CODEGEN--\":14011:14013   */\n      0x40\n        /* \"--CODEGEN--\":14000:14009   */\n      dup4\n        /* \"--CODEGEN--\":13996:14014   */\n      add\n        /* \"--CODEGEN--\":13989:14037   */\n      mstore\n        /* \"--CODEGEN--\":14051:14179   */\n      tag_607\n        /* \"--CODEGEN--\":14174:14178   */\n      dup2\n        /* \"--CODEGEN--\":14165:14171   */\n      dup5\n        /* \"--CODEGEN--\":14051:14179   */\n      tag_510\n      jump\t// in\n    tag_607:\n        /* \"--CODEGEN--\":14043:14179   */\n      swap1\n      pop\n        /* \"--CODEGEN--\":13565:14189   */\n      swap5\n      swap4\n      pop\n      pop\n      pop\n      pop\n      jump\t// out\n        /* \"--CODEGEN--\":14196:14406   */\n    tag_56:\n      0x00\n        /* \"--CODEGEN--\":14317:14319   */\n      0x20\n        /* \"--CODEGEN--\":14306:14315   */\n      dup3\n        /* \"--CODEGEN--\":14302:14320   */\n      add\n        /* \"--CODEGEN--\":14294:14320   */\n      swap1\n      pop\n        /* \"--CODEGEN--\":14331:14396   */\n      tag_609\n        /* \"--CODEGEN--\":14393:14394   */\n      0x00\n        /* \"--CODEGEN--\":14382:14391   */\n      dup4\n        /* \"--CODEGEN--\":14378:14395   */\n      add\n        /* \"--CODEGEN--\":14369:14375   */\n      dup5\n        /* \"--CODEGEN--\":14331:14396   */\n      tag_538\n      jump\t// in\n    tag_609:\n        /* \"--CODEGEN--\":14288:14406   */\n      swap3\n      swap2\n      pop\n      pop\n      jump\t// out\n        /* \"--CODEGEN--\":14413:14635   */\n    tag_361:\n      0x00\n        /* \"--CODEGEN--\":14540:14542   */\n      0x20\n        /* \"--CODEGEN--\":14529:14538   */\n      dup3\n        /* \"--CODEGEN--\":14525:14543   */\n      add\n        /* \"--CODEGEN--\":14517:14543   */\n      swap1\n      pop\n        /* \"--CODEGEN--\":14554:14625   */\n      tag_611\n        /* \"--CODEGEN--\":14622:14623   */\n      0x00\n        /* \"--CODEGEN--\":14611:14620   */\n      dup4\n        /* \"--CODEGEN--\":14607:14624   */\n      add\n        /* \"--CODEGEN--\":14598:14604   */\n      dup5\n        /* \"--CODEGEN--\":14554:14625   */\n      tag_542\n      jump\t// in\n    tag_611:\n        /* \"--CODEGEN--\":14511:14635   */\n      swap3\n      swap2\n      pop\n      pop\n      jump\t// out\n        /* \"--CODEGEN--\":14642:15058   */\n    tag_363:\n      0x00\n        /* \"--CODEGEN--\":14842:14844   */\n      0x20\n        /* \"--CODEGEN--\":14831:14840   */\n      dup3\n        /* \"--CODEGEN--\":14827:14845   */\n      add\n        /* \"--CODEGEN--\":14819:14845   */\n      swap1\n      pop\n        /* \"--CODEGEN--\":14892:14901   */\n      dup2\n        /* \"--CODEGEN--\":14886:14890   */\n      dup2\n        /* \"--CODEGEN--\":14882:14902   */\n      sub\n        /* \"--CODEGEN--\":14878:14879   */\n      0x00\n        /* \"--CODEGEN--\":14867:14876   */\n      dup4\n        /* \"--CODEGEN--\":14863:14880   */\n      add\n        /* \"--CODEGEN--\":14856:14903   */\n      mstore\n        /* \"--CODEGEN--\":14917:15048   */\n      tag_613\n        /* \"--CODEGEN--\":15043:15047   */\n      dup2\n        /* \"--CODEGEN--\":14917:15048   */\n      tag_573\n      jump\t// in\n    tag_613:\n        /* \"--CODEGEN--\":14909:15048   */\n      swap1\n      pop\n        /* \"--CODEGEN--\":14813:15058   */\n      swap2\n      swap1\n      pop\n      jump\t// out\n        /* \"--CODEGEN--\":15065:15481   */\n    tag_370:\n      0x00\n        /* \"--CODEGEN--\":15265:15267   */\n      0x20\n        /* \"--CODEGEN--\":15254:15263   */\n      dup3\n        /* \"--CODEGEN--\":15250:15268   */\n      add\n        /* \"--CODEGEN--\":15242:15268   */\n      swap1\n      pop\n        /* \"--CODEGEN--\":15315:15324   */\n      dup2\n        /* \"--CODEGEN--\":15309:15313   */\n      dup2\n        /* \"--CODEGEN--\":15305:15325   */\n      sub\n        /* \"--CODEGEN--\":15301:15302   */\n      0x00\n        /* \"--CODEGEN--\":15290:15299   */\n      dup4\n        /* \"--CODEGEN--\":15286:15303   */\n      add\n        /* \"--CODEGEN--\":15279:15326   */\n      mstore\n        /* \"--CODEGEN--\":15340:15471   */\n      tag_615\n        /* \"--CODEGEN--\":15466:15470   */\n      dup2\n        /* \"--CODEGEN--\":15340:15471   */\n      tag_577\n      jump\t// in\n    tag_615:\n        /* \"--CODEGEN--\":15332:15471   */\n      swap1\n      pop\n        /* \"--CODEGEN--\":15236:15481   */\n      swap2\n      swap1\n      pop\n      jump\t// out\n        /* \"--CODEGEN--\":15488:15710   */\n    tag_29:\n      0x00\n        /* \"--CODEGEN--\":15615:15617   */\n      0x20\n        /* \"--CODEGEN--\":15604:15613   */\n      dup3\n        /* \"--CODEGEN--\":15600:15618   */\n      add\n        /* \"--CODEGEN--\":15592:15618   */\n      swap1\n      pop\n        /* \"--CODEGEN--\":15629:15700   */\n      tag_617\n        /* \"--CODEGEN--\":15697:15698   */\n      0x00\n        /* \"--CODEGEN--\":15686:15695   */\n      dup4\n        /* \"--CODEGEN--\":15682:15699   */\n      add\n        /* \"--CODEGEN--\":15673:15679   */\n      dup5\n        /* \"--CODEGEN--\":15629:15700   */\n      tag_583\n      jump\t// in\n    tag_617:\n        /* \"--CODEGEN--\":15586:15710   */\n      swap3\n      swap2\n      pop\n      pop\n      jump\t// out\n        /* \"--CODEGEN--\":15717:15973   */\n    tag_423:\n      0x00\n        /* \"--CODEGEN--\":15779:15781   */\n      0x40\n        /* \"--CODEGEN--\":15773:15782   */\n      mload\n        /* \"--CODEGEN--\":15763:15782   */\n      swap1\n      pop\n        /* \"--CODEGEN--\":15817:15821   */\n      dup2\n        /* \"--CODEGEN--\":15809:15815   */\n      dup2\n        /* \"--CODEGEN--\":15805:15822   */\n      add\n        /* \"--CODEGEN--\":15916:15922   */\n      dup2\n        /* \"--CODEGEN--\":15904:15914   */\n      dup2\n        /* \"--CODEGEN--\":15901:15923   */\n      lt\n        /* \"--CODEGEN--\":15880:15898   */\n      0xffffffffffffffff\n        /* \"--CODEGEN--\":15868:15878   */\n      dup3\n        /* \"--CODEGEN--\":15865:15899   */\n      gt\n        /* \"--CODEGEN--\":15862:15924   */\n      or\n        /* \"--CODEGEN--\":15859:15861   */\n      iszero\n      tag_619\n      jumpi\n        /* \"--CODEGEN--\":15937:15938   */\n      0x00\n        /* \"--CODEGEN--\":15934:15935   */\n      dup1\n        /* \"--CODEGEN--\":15927:15939   */\n      revert\n        /* \"--CODEGEN--\":15859:15861   */\n    tag_619:\n        /* \"--CODEGEN--\":15957:15967   */\n      dup1\n        /* \"--CODEGEN--\":15953:15955   */\n      0x40\n        /* \"--CODEGEN--\":15946:15968   */\n      mstore\n        /* \"--CODEGEN--\":15757:15973   */\n      pop\n      swap2\n      swap1\n      pop\n      jump\t// out\n        /* \"--CODEGEN--\":15980:16302   */\n    tag_422:\n      0x00\n        /* \"--CODEGEN--\":16124:16142   */\n      0xffffffffffffffff\n        /* \"--CODEGEN--\":16116:16122   */\n      dup3\n        /* \"--CODEGEN--\":16113:16143   */\n      gt\n        /* \"--CODEGEN--\":16110:16112   */\n      iszero\n      tag_621\n      jumpi\n        /* \"--CODEGEN--\":16156:16157   */\n      0x00\n        /* \"--CODEGEN--\":16153:16154   */\n      dup1\n        /* \"--CODEGEN--\":16146:16158   */\n      revert\n        /* \"--CODEGEN--\":16110:16112   */\n    tag_621:\n        /* \"--CODEGEN--\":16223:16227   */\n      0x1f\n        /* \"--CODEGEN--\":16219:16228   */\n      not\n        /* \"--CODEGEN--\":16212:16216   */\n      0x1f\n        /* \"--CODEGEN--\":16204:16210   */\n      dup4\n        /* \"--CODEGEN--\":16200:16217   */\n      add\n        /* \"--CODEGEN--\":16196:16229   */\n      and\n        /* \"--CODEGEN--\":16188:16229   */\n      swap1\n      pop\n        /* \"--CODEGEN--\":16287:16291   */\n      0x20\n        /* \"--CODEGEN--\":16281:16285   */\n      dup2\n        /* \"--CODEGEN--\":16277:16292   */\n      add\n        /* \"--CODEGEN--\":16269:16292   */\n      swap1\n      pop\n        /* \"--CODEGEN--\":16047:16302   */\n      swap2\n      swap1\n      pop\n      jump\t// out\n        /* \"--CODEGEN--\":16309:16460   */\n    tag_503:\n      0x00\n        /* \"--CODEGEN--\":16395:16398   */\n      dup2\n        /* \"--CODEGEN--\":16387:16398   */\n      swap1\n      pop\n        /* \"--CODEGEN--\":16433:16437   */\n      0x20\n        /* \"--CODEGEN--\":16428:16431   */\n      dup3\n        /* \"--CODEGEN--\":16424:16438   */\n      add\n        /* \"--CODEGEN--\":16416:16438   */\n      swap1\n      pop\n        /* \"--CODEGEN--\":16381:16460   */\n      swap2\n      swap1\n      pop\n      jump\t// out\n        /* \"--CODEGEN--\":16467:16628   */\n    tag_517:\n      0x00\n        /* \"--CODEGEN--\":16563:16566   */\n      dup2\n        /* \"--CODEGEN--\":16555:16566   */\n      swap1\n      pop\n        /* \"--CODEGEN--\":16601:16605   */\n      0x20\n        /* \"--CODEGEN--\":16596:16599   */\n      dup3\n        /* \"--CODEGEN--\":16592:16606   */\n      add\n        /* \"--CODEGEN--\":16584:16606   */\n      swap1\n      pop\n        /* \"--CODEGEN--\":16549:16628   */\n      swap2\n      swap1\n      pop\n      jump\t// out\n        /* \"--CODEGEN--\":16635:16786   */\n    tag_531:\n      0x00\n        /* \"--CODEGEN--\":16721:16724   */\n      dup2\n        /* \"--CODEGEN--\":16713:16724   */\n      swap1\n      pop\n        /* \"--CODEGEN--\":16759:16763   */\n      0x20\n        /* \"--CODEGEN--\":16754:16757   */\n      dup3\n        /* \"--CODEGEN--\":16750:16764   */\n      add\n        /* \"--CODEGEN--\":16742:16764   */\n      swap1\n      pop\n        /* \"--CODEGEN--\":16707:16786   */\n      swap2\n      swap1\n      pop\n      jump\t// out\n        /* \"--CODEGEN--\":16793:16951   */\n    tag_569:\n      0x00\n        /* \"--CODEGEN--\":16861:16864   */\n      dup2\n        /* \"--CODEGEN--\":16853:16864   */\n      swap1\n      pop\n        /* \"--CODEGEN--\":16898:16901   */\n      dup2\n        /* \"--CODEGEN--\":16895:16896   */\n      0x00\n        /* \"--CODEGEN--\":16888:16902   */\n      mstore\n        /* \"--CODEGEN--\":16930:16934   */\n      0x20\n        /* \"--CODEGEN--\":16927:16928   */\n      0x00\n        /* \"--CODEGEN--\":16917:16935   */\n      keccak256\n        /* \"--CODEGEN--\":16909:16935   */\n      swap1\n      pop\n        /* \"--CODEGEN--\":16847:16951   */\n      swap2\n      swap1\n      pop\n      jump\t// out\n        /* \"--CODEGEN--\":16958:17095   */\n    tag_499:\n      0x00\n        /* \"--CODEGEN--\":17067:17072   */\n      dup2\n        /* \"--CODEGEN--\":17061:17073   */\n      mload\n        /* \"--CODEGEN--\":17051:17073   */\n      swap1\n      pop\n        /* \"--CODEGEN--\":17032:17095   */\n      swap2\n      swap1\n      pop\n      jump\t// out\n        /* \"--CODEGEN--\":17102:17249   */\n    tag_513:\n      0x00\n        /* \"--CODEGEN--\":17221:17226   */\n      dup2\n        /* \"--CODEGEN--\":17215:17227   */\n      mload\n        /* \"--CODEGEN--\":17205:17227   */\n      swap1\n      pop\n        /* \"--CODEGEN--\":17186:17249   */\n      swap2\n      swap1\n      pop\n      jump\t// out\n        /* \"--CODEGEN--\":17256:17393   */\n    tag_527:\n      0x00\n        /* \"--CODEGEN--\":17365:17370   */\n      dup2\n        /* \"--CODEGEN--\":17359:17371   */\n      mload\n        /* \"--CODEGEN--\":17349:17371   */\n      swap1\n      pop\n        /* \"--CODEGEN--\":17330:17393   */\n      swap2\n      swap1\n      pop\n      jump\t// out\n        /* \"--CODEGEN--\":17400:17522   */\n    tag_548:\n      0x00\n        /* \"--CODEGEN--\":17494:17499   */\n      dup2\n        /* \"--CODEGEN--\":17488:17500   */\n      mload\n        /* \"--CODEGEN--\":17478:17500   */\n      swap1\n      pop\n        /* \"--CODEGEN--\":17459:17522   */\n      swap2\n      swap1\n      pop\n      jump\t// out\n        /* \"--CODEGEN--\":17529:17637   */\n    tag_509:\n      0x00\n        /* \"--CODEGEN--\":17627:17631   */\n      0x20\n        /* \"--CODEGEN--\":17622:17625   */\n      dup3\n        /* \"--CODEGEN--\":17618:17632   */\n      add\n        /* \"--CODEGEN--\":17610:17632   */\n      swap1\n      pop\n        /* \"--CODEGEN--\":17604:17637   */\n      swap2\n      swap1\n      pop\n      jump\t// out\n        /* \"--CODEGEN--\":17644:17762   */\n    tag_523:\n      0x00\n        /* \"--CODEGEN--\":17752:17756   */\n      0x20\n        /* \"--CODEGEN--\":17747:17750   */\n      dup3\n        /* \"--CODEGEN--\":17743:17757   */\n      add\n        /* \"--CODEGEN--\":17735:17757   */\n      swap1\n      pop\n        /* \"--CODEGEN--\":17729:17762   */\n      swap2\n      swap1\n      pop\n      jump\t// out\n        /* \"--CODEGEN--\":17769:17877   */\n    tag_537:\n      0x00\n        /* \"--CODEGEN--\":17867:17871   */\n      0x20\n        /* \"--CODEGEN--\":17862:17865   */\n      dup3\n        /* \"--CODEGEN--\":17858:17872   */\n      add\n        /* \"--CODEGEN--\":17850:17872   */\n      swap1\n      pop\n        /* \"--CODEGEN--\":17844:17877   */\n      swap2\n      swap1\n      pop\n      jump\t// out\n        /* \"--CODEGEN--\":17885:18063   */\n    tag_501:\n      0x00\n        /* \"--CODEGEN--\":18015:18021   */\n      dup3\n        /* \"--CODEGEN--\":18010:18013   */\n      dup3\n        /* \"--CODEGEN--\":18003:18022   */\n      mstore\n        /* \"--CODEGEN--\":18052:18056   */\n      0x20\n        /* \"--CODEGEN--\":18047:18050   */\n      dup3\n        /* \"--CODEGEN--\":18043:18057   */\n      add\n        /* \"--CODEGEN--\":18028:18057   */\n      swap1\n      pop\n        /* \"--CODEGEN--\":17996:18063   */\n      swap3\n      swap2\n      pop\n      pop\n      jump\t// out\n        /* \"--CODEGEN--\":18072:18260   */\n    tag_515:\n      0x00\n        /* \"--CODEGEN--\":18212:18218   */\n      dup3\n        /* \"--CODEGEN--\":18207:18210   */\n      dup3\n        /* \"--CODEGEN--\":18200:18219   */\n      mstore\n        /* \"--CODEGEN--\":18249:18253   */\n      0x20\n        /* \"--CODEGEN--\":18244:18247   */\n      dup3\n        /* \"--CODEGEN--\":18240:18254   */\n      add\n        /* \"--CODEGEN--\":18225:18254   */\n      swap1\n      pop\n        /* \"--CODEGEN--\":18193:18260   */\n      swap3\n      swap2\n      pop\n      pop\n      jump\t// out\n        /* \"--CODEGEN--\":18269:18447   */\n    tag_529:\n      0x00\n        /* \"--CODEGEN--\":18399:18405   */\n      dup3\n        /* \"--CODEGEN--\":18394:18397   */\n      dup3\n        /* \"--CODEGEN--\":18387:18406   */\n      mstore\n        /* \"--CODEGEN--\":18436:18440   */\n      0x20\n        /* \"--CODEGEN--\":18431:18434   */\n      dup3\n        /* \"--CODEGEN--\":18427:18441   */\n      add\n        /* \"--CODEGEN--\":18412:18441   */\n      swap1\n      pop\n        /* \"--CODEGEN--\":18380:18447   */\n      swap3\n      swap2\n      pop\n      pop\n      jump\t// out\n        /* \"--CODEGEN--\":18456:18609   */\n    tag_550:\n      0x00\n        /* \"--CODEGEN--\":18561:18567   */\n      dup3\n        /* \"--CODEGEN--\":18556:18559   */\n      dup3\n        /* \"--CODEGEN--\":18549:18568   */\n      mstore\n        /* \"--CODEGEN--\":18598:18602   */\n      0x20\n        /* \"--CODEGEN--\":18593:18596   */\n      dup3\n        /* \"--CODEGEN--\":18589:18603   */\n      add\n        /* \"--CODEGEN--\":18574:18603   */\n      swap1\n      pop\n        /* \"--CODEGEN--\":18542:18609   */\n      swap3\n      swap2\n      pop\n      pop\n      jump\t// out\n        /* \"--CODEGEN--\":18618:18781   */\n    tag_576:\n      0x00\n        /* \"--CODEGEN--\":18733:18739   */\n      dup3\n        /* \"--CODEGEN--\":18728:18731   */\n      dup3\n        /* \"--CODEGEN--\":18721:18740   */\n      mstore\n        /* \"--CODEGEN--\":18770:18774   */\n      0x20\n        /* \"--CODEGEN--\":18765:18768   */\n      dup3\n        /* \"--CODEGEN--\":18761:18775   */\n      add\n        /* \"--CODEGEN--\":18746:18775   */\n      swap1\n      pop\n        /* \"--CODEGEN--\":18714:18781   */\n      swap3\n      swap2\n      pop\n      pop\n      jump\t// out\n        /* \"--CODEGEN--\":18790:18935   */\n    tag_559:\n      0x00\n        /* \"--CODEGEN--\":18926:18929   */\n      dup2\n        /* \"--CODEGEN--\":18911:18929   */\n      swap1\n      pop\n        /* \"--CODEGEN--\":18904:18935   */\n      swap3\n      swap2\n      pop\n      pop\n      jump\t// out\n        /* \"--CODEGEN--\":18943:19034   */\n    tag_495:\n      0x00\n        /* \"--CODEGEN--\":19005:19029   */\n      tag_640\n        /* \"--CODEGEN--\":19023:19028   */\n      dup3\n        /* \"--CODEGEN--\":19005:19029   */\n      tag_641\n      jump\t// in\n    tag_640:\n        /* \"--CODEGEN--\":18994:19029   */\n      swap1\n      pop\n        /* \"--CODEGEN--\":18988:19034   */\n      swap2\n      swap1\n      pop\n      jump\t// out\n        /* \"--CODEGEN--\":19041:19140   */\n    tag_487:\n      0x00\n        /* \"--CODEGEN--\":19111:19135   */\n      tag_643\n        /* \"--CODEGEN--\":19129:19134   */\n      dup3\n        /* \"--CODEGEN--\":19111:19135   */\n      tag_641\n      jump\t// in\n    tag_643:\n        /* \"--CODEGEN--\":19100:19135   */\n      swap1\n      pop\n        /* \"--CODEGEN--\":19094:19140   */\n      swap2\n      swap1\n      pop\n      jump\t// out\n        /* \"--CODEGEN--\":19147:19232   */\n    tag_541:\n      0x00\n        /* \"--CODEGEN--\":19220:19225   */\n      dup2\n        /* \"--CODEGEN--\":19213:19226   */\n      iszero\n        /* \"--CODEGEN--\":19206:19227   */\n      iszero\n        /* \"--CODEGEN--\":19195:19227   */\n      swap1\n      pop\n        /* \"--CODEGEN--\":19189:19232   */\n      swap2\n      swap1\n      pop\n      jump\t// out\n        /* \"--CODEGEN--\":19239:19311   */\n    tag_545:\n      0x00\n        /* \"--CODEGEN--\":19301:19306   */\n      dup2\n        /* \"--CODEGEN--\":19290:19306   */\n      swap1\n      pop\n        /* \"--CODEGEN--\":19284:19311   */\n      swap2\n      swap1\n      pop\n      jump\t// out\n        /* \"--CODEGEN--\":19318:19439   */\n    tag_641:\n      0x00\n        /* \"--CODEGEN--\":19391:19433   */\n      0xffffffffffffffffffffffffffffffffffffffff\n        /* \"--CODEGEN--\":19384:19389   */\n      dup3\n        /* \"--CODEGEN--\":19380:19434   */\n      and\n        /* \"--CODEGEN--\":19369:19434   */\n      swap1\n      pop\n        /* \"--CODEGEN--\":19363:19439   */\n      swap2\n      swap1\n      pop\n      jump\t// out\n        /* \"--CODEGEN--\":19446:19518   */\n    tag_582:\n      0x00\n        /* \"--CODEGEN--\":19508:19513   */\n      dup2\n        /* \"--CODEGEN--\":19497:19513   */\n      swap1\n      pop\n        /* \"--CODEGEN--\":19491:19518   */\n      swap2\n      swap1\n      pop\n      jump\t// out\n        /* \"--CODEGEN--\":19526:19671   */\n    tag_426:\n        /* \"--CODEGEN--\":19607:19613   */\n      dup3\n        /* \"--CODEGEN--\":19602:19605   */\n      dup2\n        /* \"--CODEGEN--\":19597:19600   */\n      dup4\n        /* \"--CODEGEN--\":19584:19614   */\n      calldatacopy\n        /* \"--CODEGEN--\":19663:19664   */\n      0x00\n        /* \"--CODEGEN--\":19654:19660   */\n      dup4\n        /* \"--CODEGEN--\":19649:19652   */\n      dup4\n        /* \"--CODEGEN--\":19645:19661   */\n      add\n        /* \"--CODEGEN--\":19638:19665   */\n      mstore\n        /* \"--CODEGEN--\":19577:19671   */\n      pop\n      pop\n      pop\n      jump\t// out\n        /* \"--CODEGEN--\":19680:19948   */\n    tag_552:\n        /* \"--CODEGEN--\":19745:19746   */\n      0x00\n        /* \"--CODEGEN--\":19752:19853   */\n    tag_650:\n        /* \"--CODEGEN--\":19766:19772   */\n      dup4\n        /* \"--CODEGEN--\":19763:19764   */\n      dup2\n        /* \"--CODEGEN--\":19760:19773   */\n      lt\n        /* \"--CODEGEN--\":19752:19853   */\n      iszero\n      tag_652\n      jumpi\n        /* \"--CODEGEN--\":19842:19843   */\n      dup1\n        /* \"--CODEGEN--\":19837:19840   */\n      dup3\n        /* \"--CODEGEN--\":19833:19844   */\n      add\n        /* \"--CODEGEN--\":19827:19845   */\n      mload\n        /* \"--CODEGEN--\":19823:19824   */\n      dup2\n        /* \"--CODEGEN--\":19818:19821   */\n      dup5\n        /* \"--CODEGEN--\":19814:19825   */\n      add\n        /* \"--CODEGEN--\":19807:19846   */\n      mstore\n        /* \"--CODEGEN--\":19788:19790   */\n      0x20\n        /* \"--CODEGEN--\":19785:19786   */\n      dup2\n        /* \"--CODEGEN--\":19781:19791   */\n      add\n        /* \"--CODEGEN--\":19776:19791   */\n      swap1\n      pop\n        /* \"--CODEGEN--\":19752:19853   */\n      jump(tag_650)\n    tag_652:\n        /* \"--CODEGEN--\":19868:19874   */\n      dup4\n        /* \"--CODEGEN--\":19865:19866   */\n      dup2\n        /* \"--CODEGEN--\":19862:19875   */\n      gt\n        /* \"--CODEGEN--\":19859:19861   */\n      iszero\n      tag_653\n      jumpi\n        /* \"--CODEGEN--\":19933:19934   */\n      0x00\n        /* \"--CODEGEN--\":19924:19930   */\n      dup5\n        /* \"--CODEGEN--\":19919:19922   */\n      dup5\n        /* \"--CODEGEN--\":19915:19931   */\n      add\n        /* \"--CODEGEN--\":19908:19935   */\n      mstore\n        /* \"--CODEGEN--\":19859:19861   */\n    tag_653:\n        /* \"--CODEGEN--\":19729:19948   */\n      pop\n      pop\n      pop\n      pop\n      jump\t// out\n        /* \"--CODEGEN--\":19956:20059   */\n    tag_492:\n      0x00\n        /* \"--CODEGEN--\":20028:20054   */\n      tag_655\n        /* \"--CODEGEN--\":20048:20053   */\n      dup3\n        /* \"--CODEGEN--\":20028:20054   */\n      tag_656\n      jump\t// in\n    tag_655:\n        /* \"--CODEGEN--\":20017:20054   */\n      swap1\n      pop\n        /* \"--CODEGEN--\":20011:20059   */\n      swap2\n      swap1\n      pop\n      jump\t// out\n        /* \"--CODEGEN--\":20066:20155   */\n    tag_656:\n      0x00\n        /* \"--CODEGEN--\":20130:20150   */\n      tag_658\n        /* \"--CODEGEN--\":20144:20149   */\n      dup3\n        /* \"--CODEGEN--\":20130:20150   */\n      tag_659\n      jump\t// in\n    tag_658:\n        /* \"--CODEGEN--\":20119:20150   */\n      swap1\n      pop\n        /* \"--CODEGEN--\":20113:20155   */\n      swap2\n      swap1\n      pop\n      jump\t// out\n        /* \"--CODEGEN--\":20162:20236   */\n    tag_590:\n      0x00\n        /* \"--CODEGEN--\":20226:20231   */\n      dup2\n        /* \"--CODEGEN--\":20215:20231   */\n      swap1\n      pop\n        /* \"--CODEGEN--\":20209:20236   */\n      swap2\n      swap1\n      pop\n      jump\t// out\n        /* \"--CODEGEN--\":20243:20340   */\n    tag_554:\n      0x00\n        /* \"--CODEGEN--\":20331:20333   */\n      0x1f\n        /* \"--CODEGEN--\":20327:20334   */\n      not\n        /* \"--CODEGEN--\":20322:20324   */\n      0x1f\n        /* \"--CODEGEN--\":20315:20320   */\n      dup4\n        /* \"--CODEGEN--\":20311:20325   */\n      add\n        /* \"--CODEGEN--\":20307:20335   */\n      and\n        /* \"--CODEGEN--\":20297:20335   */\n      swap1\n      pop\n        /* \"--CODEGEN--\":20291:20340   */\n      swap2\n      swap1\n      pop\n      jump\t// out\n        /* \"--CODEGEN--\":20348:20442   */\n    tag_659:\n      0x00\n        /* \"--CODEGEN--\":20426:20431   */\n      dup2\n        /* \"--CODEGEN--\":20422:20424   */\n      0x60\n        /* \"--CODEGEN--\":20418:20432   */\n      shl\n        /* \"--CODEGEN--\":20396:20432   */\n      swap1\n      pop\n        /* \"--CODEGEN--\":20390:20442   */\n      swap2\n      swap1\n      pop\n      jump\t// out\n        /* \"--CODEGEN--\":20450:20583   */\n    tag_412:\n        /* \"--CODEGEN--\":20527:20559   */\n      tag_664\n        /* \"--CODEGEN--\":20553:20558   */\n      dup2\n        /* \"--CODEGEN--\":20527:20559   */\n      tag_487\n      jump\t// in\n    tag_664:\n        /* \"--CODEGEN--\":20520:20525   */\n      dup2\n        /* \"--CODEGEN--\":20517:20560   */\n      eq\n        /* \"--CODEGEN--\":20507:20509   */\n      tag_665\n      jumpi\n        /* \"--CODEGEN--\":20574:20575   */\n      0x00\n        /* \"--CODEGEN--\":20571:20572   */\n      dup1\n        /* \"--CODEGEN--\":20564:20576   */\n      revert\n        /* \"--CODEGEN--\":20507:20509   */\n    tag_665:\n        /* \"--CODEGEN--\":20501:20583   */\n      pop\n      jump\t// out\n        /* \"--CODEGEN--\":20590:20707   */\n    tag_416:\n        /* \"--CODEGEN--\":20659:20683   */\n      tag_667\n        /* \"--CODEGEN--\":20677:20682   */\n      dup2\n        /* \"--CODEGEN--\":20659:20683   */\n      tag_545\n      jump\t// in\n    tag_667:\n        /* \"--CODEGEN--\":20652:20657   */\n      dup2\n        /* \"--CODEGEN--\":20649:20684   */\n      eq\n        /* \"--CODEGEN--\":20639:20641   */\n      tag_668\n      jumpi\n        /* \"--CODEGEN--\":20698:20699   */\n      0x00\n        /* \"--CODEGEN--\":20695:20696   */\n      dup1\n        /* \"--CODEGEN--\":20688:20700   */\n      revert\n        /* \"--CODEGEN--\":20639:20641   */\n    tag_668:\n        /* \"--CODEGEN--\":20633:20707   */\n      pop\n      jump\t// out\n        /* \"--CODEGEN--\":20714:20831   */\n    tag_430:\n        /* \"--CODEGEN--\":20783:20807   */\n      tag_670\n        /* \"--CODEGEN--\":20801:20806   */\n      dup2\n        /* \"--CODEGEN--\":20783:20807   */\n      tag_582\n      jump\t// in\n    tag_670:\n        /* \"--CODEGEN--\":20776:20781   */\n      dup2\n        /* \"--CODEGEN--\":20773:20808   */\n      eq\n        /* \"--CODEGEN--\":20763:20765   */\n      tag_671\n      jumpi\n        /* \"--CODEGEN--\":20822:20823   */\n      0x00\n        /* \"--CODEGEN--\":20819:20820   */\n      dup1\n        /* \"--CODEGEN--\":20812:20824   */\n      revert\n        /* \"--CODEGEN--\":20763:20765   */\n    tag_671:\n        /* \"--CODEGEN--\":20757:20831   */\n      pop\n      jump\t// out\n\n    auxdata: 0xa2646970667358221220beaf25459c9c162a127e127010d8a6fcc078a6f78a406b743b24ad12e4cc274e64736f6c634300060c0033\n}\n",
    "bytecode": {
      "linkReferences": {},
      "object": "608060405234801561001057600080fd5b50336000806101000a81548173ffffffffffffffffffffffffffffffffffffffff021916908373ffffffffffffffffffffffffffffffffffffffff16021790555060006004819055506000600681905550612b38806100706000396000f3fe608060405234801561001057600080fd5b50600436106101005760003560e01c8063836cae6511610097578063d1314ee011610066578063d1314ee014610299578063e58da61f146102b7578063e8e5339a146102e7578063fa6a04e41461030357610100565b8063836cae651461021557806398173ff414610231578063a9cb1a361461024d578063bd28f2281461026957610100565b8063481c6a75116100d3578063481c6a75146101775780636db809951461019557806371658896146101b55780637909ce47146101e557610100565b80631ee32b051461010557806330a66294146101215780633276807a1461013f57806342bb20e11461015b575b600080fd5b61011f600480360381019061011a91906120bb565b61030d565b005b610129610569565b604051610136919061285f565b60405180910390f35b6101596004803603810190610154919061229c565b6105cc565b005b6101756004803603810190610170919061229c565b61074a565b005b61017f61099a565b60405161018c919061273e565b60405180910390f35b61019d6109be565b6040516101ac9392919061279d565b60405180910390f35b6101cf60048036038101906101ca9190612273565b610ce0565b6040516101dc919061277b565b60405180910390f35b6101ff60048036038101906101fa919061210d565b610ed5565b60405161020c91906127e9565b60405180910390f35b61022f600480360381019061022a91906120bb565b611007565b005b61024b60048036038101906102469190612207565b611181565b005b61026760048036038101906102629190612273565b61130a565b005b610283600480360381019061027e91906120e4565b6114c9565b60405161029091906127e9565b60405180910390f35b6102a1611610565b6040516102ae9190612759565b60405180910390f35b6102d160048036038101906102cc9190612174565b611761565b6040516102de91906127e9565b60405180910390f35b61030160048036038101906102fc91906122f0565b6118ba565b005b61030b611a1d565b005b60008054906101000a900473ffffffffffffffffffffffffffffffffffffffff1673ffffffffffffffffffffffffffffffffffffffff163373ffffffffffffffffffffffffffffffffffffffff161461036557600080fd5b60005b600280549050811015610565576002818154811061038257fe5b906000526020600020906002020160000160009054906101000a900473ffffffffffffffffffffffffffffffffffffffff1673ffffffffffffffffffffffffffffffffffffffff168273ffffffffffffffffffffffffffffffffffffffff161415610558576000600360008473ffffffffffffffffffffffffffffffffffffffff1673ffffffffffffffffffffffffffffffffffffffff16815260200190815260200160002060006101000a81548160ff02191690831515021790555060026001600280549050038154811061045457fe5b90600052602060002090600202016002828154811061046f57fe5b90600052602060002090600202016000820160009054906101000a900473ffffffffffffffffffffffffffffffffffffffff168160000160006101000a81548173ffffffffffffffffffffffffffffffffffffffff021916908373ffffffffffffffffffffffffffffffffffffffff1602179055506001820154816001015590505060028054806104fc57fe5b6001900381819060005260206000209060020201600080820160006101000a81549073ffffffffffffffffffffffffffffffffffffffff0219169055600182016000905550509055600560008154809291906001900391905055505b8080600101915050610368565b5050565b60008060009054906101000a900473ffffffffffffffffffffffffffffffffffffffff1673ffffffffffffffffffffffffffffffffffffffff163373ffffffffffffffffffffffffffffffffffffffff16146105c457600080fd5b600454905090565b60008054906101000a900473ffffffffffffffffffffffffffffffffffffffff1673ffffffffffffffffffffffffffffffffffffffff163373ffffffffffffffffffffffffffffffffffffffff161461062457600080fd5b6000805b6001805490508110156107445760006001828154811061064457fe5b9060005260206000209060040201905080600001548514156107365760005b81600301805490508110156106f05781600301818154811061068157fe5b9060005260206000200160405160200161069b9190612727565b60405160208183030381529060405280519060200120856040516020016106c29190612710565b6040516020818303038152906040528051906020012014156106e357600193505b8080600101915050610663565b5082610735578060030184908060018154018082558091505060019003906000526020600020016000909190919091509080519060200190610733929190611cc8565b505b5b508080600101915050610628565b50505050565b60008054906101000a900473ffffffffffffffffffffffffffffffffffffffff1673ffffffffffffffffffffffffffffffffffffffff163373ffffffffffffffffffffffffffffffffffffffff16146107a257600080fd5b60005b60018054905081101561099557600181815481106107bf57fe5b9060005260206000209060040201600001548314156109885760005b600182815481106107e857fe5b906000526020600020906004020160030180549050811015610986576001828154811061081157fe5b9060005260206000209060040201600301818154811061082d57fe5b906000526020600020016040516020016108479190612727565b604051602081830303815290604052805190602001208360405160200161086e9190612710565b604051602081830303815290604052805190602001201415610979576001828154811061089757fe5b906000526020600020906004020160030160018084815481106108b657fe5b90600052602060002090600402016003018054905003815481106108d657fe5b90600052602060002001600183815481106108ed57fe5b9060005260206000209060040201600301828154811061090957fe5b906000526020600020019080546001816001161561010002031660029004610932929190611d48565b506001828154811061094057fe5b906000526020600020906004020160030180548061095a57fe5b6001900381819060005260206000200160006109769190611dcf565b90555b80806001019150506107db565b505b80806001019150506107a5565b505050565b60008054906101000a900473ffffffffffffffffffffffffffffffffffffffff1681565b606080606060008054906101000a900473ffffffffffffffffffffffffffffffffffffffff1673ffffffffffffffffffffffffffffffffffffffff163373ffffffffffffffffffffffffffffffffffffffff1614610a1b57600080fd5b606060045467ffffffffffffffff81118015610a3657600080fd5b50604051908082528060200260200182016040528015610a655781602001602082028036833780820191505090505b509050606060045467ffffffffffffffff81118015610a8357600080fd5b50604051908082528060200260200182016040528015610ab757816020015b6060815260200190600190039081610aa25790505b509050606060045467ffffffffffffffff81118015610ad557600080fd5b50604051908082528060200260200182016040528015610b0957816020015b6060815260200190600190039081610af45790505b50905060005b600180549050811015610cce57600060018281548110610b2b57fe5b906000526020600020906004020190508060000154858381518110610b4c57fe5b602002602001018181525050806001018054600181600116156101000203166002900480601f016020809104026020016040519081016040528092919081815260200182805460018160011615610100020316600290048015610bf05780601f10610bc557610100808354040283529160200191610bf0565b820191906000526020600020905b815481529060010190602001808311610bd357829003601f168201915b5050505050848381518110610c0157fe5b6020026020010181905250806002018054600181600116156101000203166002900480601f016020809104026020016040519081016040528092919081815260200182805460018160011615610100020316600290048015610ca45780601f10610c7957610100808354040283529160200191610ca4565b820191906000526020600020905b815481529060010190602001808311610c8757829003601f168201915b5050505050838381518110610cb557fe5b6020026020010181905250508080600101915050610b0f565b50828282955095509550505050909192565b606060008054906101000a900473ffffffffffffffffffffffffffffffffffffffff1673ffffffffffffffffffffffffffffffffffffffff163373ffffffffffffffffffffffffffffffffffffffff1614610d3a57600080fd5b60005b600180549050811015610ece57600060018281548110610d5957fe5b906000526020600020906004020190508060000154841415610ec0576060816003018054905067ffffffffffffffff81118015610d9557600080fd5b50604051908082528060200260200182016040528015610dc957816020015b6060815260200190600190039081610db45790505b50905060005b8260030180549050811015610eb457826003018181548110610ded57fe5b906000526020600020018054600181600116156101000203166002900480601f016020809104026020016040519081016040528092919081815260200182805460018160011615610100020316600290048015610e8b5780601f10610e6057610100808354040283529160200191610e8b565b820191906000526020600020905b815481529060010190602001808311610e6e57829003601f168201915b5050505050828281518110610e9c57fe5b60200260200101819052508080600101915050610dcf565b50809350505050610ed0565b508080600101915050610d3d565b505b919050565b600083610ee1816114c9565b610eea57600080fd5b60005b600180549050811015610ff95760018181548110610f0757fe5b906000526020600020906004020160000154851415610fec5760005b60018281548110610f3057fe5b906000526020600020906004020160030180549050811015610fea5760018281548110610f5957fe5b90600052602060002090600402016003018181548110610f7557fe5b90600052602060002001604051602001610f8f9190612727565b6040516020818303038152906040528051906020012085604051602001610fb69190612710565b604051602081830303815290604052805190602001201415610fdd57600193505050610fff565b8080600101915050610f23565b505b8080600101915050610eed565b50600091505b509392505050565b60008054906101000a900473ffffffffffffffffffffffffffffffffffffffff1673ffffffffffffffffffffffffffffffffffffffff163373ffffffffffffffffffffffffffffffffffffffff161461105f57600080fd5b611067611e17565b60405180604001604052808373ffffffffffffffffffffffffffffffffffffffff168152602001428152509050600281908060018154018082558091505060019003906000526020600020906002020160009091909190915060008201518160000160006101000a81548173ffffffffffffffffffffffffffffffffffffffff021916908373ffffffffffffffffffffffffffffffffffffffff1602179055506020820151816001015550506001600360008473ffffffffffffffffffffffffffffffffffffffff1673ffffffffffffffffffffffffffffffffffffffff16815260200190815260200160002060006101000a81548160ff0219169083151502179055506005600081548092919060010191905055505050565b60008054906101000a900473ffffffffffffffffffffffffffffffffffffffff1673ffffffffffffffffffffffffffffffffffffffff163373ffffffffffffffffffffffffffffffffffffffff16146111d957600080fd5b6111e1611e47565b60405180608001604052806006548152602001848152602001838152602001600067ffffffffffffffff8111801561121857600080fd5b5060405190808252806020026020018201604052801561124c57816020015b60608152602001906001900390816112375790505b50815250905060046000815480929190600101919050555060066000815480929190600101919050555060018190806001815401808255809150506001900390600052602060002090600402016000909190919091506000820151816000015560208201518160010190805190602001906112c8929190611cc8565b5060408201518160020190805190602001906112e5929190611cc8565b506060820151816003019080519060200190611302929190611e6f565b505050505050565b60008054906101000a900473ffffffffffffffffffffffffffffffffffffffff1673ffffffffffffffffffffffffffffffffffffffff163373ffffffffffffffffffffffffffffffffffffffff161461136257600080fd5b60005b6001805490508110156114c5576001818154811061137f57fe5b9060005260206000209060040201600001548214156114b857600180808054905003815481106113ab57fe5b9060005260206000209060040201600182815481106113c657fe5b90600052602060002090600402016000820154816000015560018201816001019080546001816001161561010002031660029004611405929190611ecf565b506002820181600201908054600181600116156101000203166002900461142d929190611ecf565b506003820181600301908054611444929190611f56565b50905050600180548061145357fe5b60019003818190600052602060002090600402016000808201600090556001820160006114809190611dcf565b6002820160006114909190611dcf565b6003820160006114a09190611fc6565b50509055600460008154809291906001900391905055505b8080600101915050611365565b5050565b6000600360003373ffffffffffffffffffffffffffffffffffffffff1673ffffffffffffffffffffffffffffffffffffffff16815260200190815260200160002060009054906101000a900460ff1661152157600080fd5b60005b600280549050811015611609576002818154811061153e57fe5b906000526020600020906002020160000160009054906101000a900473ffffffffffffffffffffffffffffffffffffffff1673ffffffffffffffffffffffffffffffffffffffff163373ffffffffffffffffffffffffffffffffffffffff1614156115fc578233600283815481106115b257fe5b9060005260206000209060020201600101546040516020016115d59291906126e4565b6040516020818303038152906040528051906020012014156115fb57600191505061160b565b5b8080600101915050611524565b505b919050565b606060008054906101000a900473ffffffffffffffffffffffffffffffffffffffff1673ffffffffffffffffffffffffffffffffffffffff163373ffffffffffffffffffffffffffffffffffffffff161461166a57600080fd5b606060055467ffffffffffffffff8111801561168557600080fd5b506040519080825280602002602001820160405280156116b45781602001602082028036833780820191505090505b50905060005b60028054905081101561175957600281815481106116d457fe5b906000526020600020906002020160000160009054906101000a900473ffffffffffffffffffffffffffffffffffffffff1682828151811061171257fe5b602002602001019073ffffffffffffffffffffffffffffffffffffffff16908173ffffffffffffffffffffffffffffffffffffffff168152505080806001019150506116ba565b508091505090565b60008461176d816114c9565b61177657600080fd5b60005b6001805490508110156118ab576001818154811061179357fe5b9060005260206000209060040201600001548614801561181b5750600181815481106117bb57fe5b90600052602060002090600402016001016040516020016117dc9190612727565b60405160208183030381529060405280519060200120856040516020016118039190612710565b60405160208183030381529060405280519060200120145b801561188f57506001818154811061182f57fe5b90600052602060002090600402016002016040516020016118509190612727565b60405160208183030381529060405280519060200120846040516020016118779190612710565b60405160208183030381529060405280519060200120145b1561189e5760019250506118b1565b8080600101915050611779565b50600091505b50949350505050565b60008054906101000a900473ffffffffffffffffffffffffffffffffffffffff1673ffffffffffffffffffffffffffffffffffffffff163373ffffffffffffffffffffffffffffffffffffffff161461191257600080fd5b60005b600180549050811015611a175760006001828154811061193157fe5b906000526020600020906004020190508060000154851415611a095760005b8160030180549050811015611a0757846040516020016119709190612710565b6040516020818303038152906040528051906020012082600301828154811061199557fe5b906000526020600020016040516020016119af9190612727565b6040516020818303038152906040528051906020012014156119fa57838260030182815481106119db57fe5b9060005260206000200190805190602001906119f8929190611cc8565b505b8080600101915050611950565b505b508080600101915050611915565b50505050565b600360003373ffffffffffffffffffffffffffffffffffffffff1673ffffffffffffffffffffffffffffffffffffffff16815260200190815260200160002060009054906101000a900460ff16611a7357600080fd5b60005b600280549050811015611cc55760028181548110611a9057fe5b906000526020600020906002020160000160009054906101000a900473ffffffffffffffffffffffffffffffffffffffff1673ffffffffffffffffffffffffffffffffffffffff163373ffffffffffffffffffffffffffffffffffffffff161415611cb8576000429050600060028381548110611b0957fe5b9060005260206000209060020201600101548203905060f0811115611c02578160028481548110611b3657fe5b9060005260206000209060020201600101819055507f504e9e94e0c65229aaf8cabe153380cc35da3135e30129bc3195f7e031cdf82b3360028581548110611b7a57fe5b906000526020600020906002020160010154604051602001611b9d9291906126e4565b60405160208183030381529060405280519060200120604051611bc09190612804565b60405180910390a17fb6f921ade0de8da9e62e948d90ae6f2dd6b678679ad77753c75fe1b6d9a72004604051611bf59061281f565b60405180910390a1611cb5565b7f504e9e94e0c65229aaf8cabe153380cc35da3135e30129bc3195f7e031cdf82b3360028581548110611c3157fe5b906000526020600020906002020160010154604051602001611c549291906126e4565b60405160208183030381529060405280519060200120604051611c779190612804565b60405180910390a17fb6f921ade0de8da9e62e948d90ae6f2dd6b678679ad77753c75fe1b6d9a72004604051611cac9061283f565b60405180910390a15b50505b8080600101915050611a76565b50565b828054600181600116156101000203166002900490600052602060002090601f016020900481019282601f10611d0957805160ff1916838001178555611d37565b82800160010185558215611d37579182015b82811115611d36578251825591602001919060010190611d1b565b5b509050611d449190611fe7565b5090565b828054600181600116156101000203166002900490600052602060002090601f016020900481019282601f10611d815780548555611dbe565b82800160010185558215611dbe57600052602060002091601f016020900482015b82811115611dbd578254825591600101919060010190611da2565b5b509050611dcb9190611fe7565b5090565b50805460018160011615610100020316600290046000825580601f10611df55750611e14565b601f016020900490600052602060002090810190611e139190611fe7565b5b50565b6040518060400160405280600073ffffffffffffffffffffffffffffffffffffffff168152602001600081525090565b6040518060800160405280600081526020016060815260200160608152602001606081525090565b828054828255906000526020600020908101928215611ebe579160200282015b82811115611ebd578251829080519060200190611ead929190611cc8565b5091602001919060010190611e8f565b5b509050611ecb9190612004565b5090565b828054600181600116156101000203166002900490600052602060002090601f016020900481019282601f10611f085780548555611f45565b82800160010185558215611f4557600052602060002091601f016020900482015b82811115611f44578254825591600101919060010190611f29565b5b509050611f529190611fe7565b5090565b828054828255906000526020600020908101928215611fb55760005260206000209182015b82811115611fb45782829080546001816001161561010002031660029004611fa4929190611ecf565b5091600101919060010190611f7b565b5b509050611fc29190612004565b5090565b5080546000825590600052602060002090810190611fe49190612004565b50565b5b80821115612000576000816000905550600101611fe8565b5090565b5b80821115612024576000818161201b9190611dcf565b50600101612005565b5090565b60008135905061203781612abd565b92915050565b60008135905061204c81612ad4565b92915050565b600082601f83011261206357600080fd5b8135612076612071826128a7565b61287a565b9150808252602083016020830185838301111561209257600080fd5b61209d838284612a2f565b50505092915050565b6000813590506120b581612aeb565b92915050565b6000602082840312156120cd57600080fd5b60006120db84828501612028565b91505092915050565b6000602082840312156120f657600080fd5b60006121048482850161203d565b91505092915050565b60008060006060848603121561212257600080fd5b60006121308682870161203d565b9350506020612141868287016120a6565b925050604084013567ffffffffffffffff81111561215e57600080fd5b61216a86828701612052565b9150509250925092565b6000806000806080858703121561218a57600080fd5b60006121988782880161203d565b94505060206121a9878288016120a6565b935050604085013567ffffffffffffffff8111156121c657600080fd5b6121d287828801612052565b925050606085013567ffffffffffffffff8111156121ef57600080fd5b6121fb87828801612052565b91505092959194509250565b6000806040838503121561221a57600080fd5b600083013567ffffffffffffffff81111561223457600080fd5b61224085828601612052565b925050602083013567ffffffffffffffff81111561225d57600080fd5b61226985828601612052565b9150509250929050565b60006020828403121561228557600080fd5b6000612293848285016120a6565b91505092915050565b600080604083850312156122af57600080fd5b60006122bd858286016120a6565b925050602083013567ffffffffffffffff8111156122da57600080fd5b6122e685828601612052565b9150509250929050565b60008060006060848603121561230557600080fd5b6000612313868287016120a6565b935050602084013567ffffffffffffffff81111561233057600080fd5b61233c86828701612052565b925050604084013567ffffffffffffffff81111561235957600080fd5b61236586828701612052565b9150509250925092565b600061237b83836123d9565b60208301905092915050565b60006123938383612537565b905092915050565b60006123a783836126af565b60208301905092915050565b6123bc816129dd565b82525050565b6123d36123ce826129dd565b612a71565b82525050565b6123e2816129cb565b82525050565b60006123f382612918565b6123fd818561296b565b9350612408836128d3565b8060005b83811015612439578151612420888261236f565b975061242b83612944565b92505060018101905061240c565b5085935050505092915050565b600061245182612923565b61245b818561297c565b93508360208202850161246d856128e3565b8060005b858110156124a9578484038952815161248a8582612387565b945061249583612951565b925060208a01995050600181019050612471565b50829750879550505050505092915050565b60006124c68261292e565b6124d0818561298d565b93506124db836128f3565b8060005b8381101561250c5781516124f3888261239b565b97506124fe8361295e565b9250506001810190506124df565b5085935050505092915050565b612522816129ef565b82525050565b612531816129fb565b82525050565b600061254282612939565b61254c818561299e565b935061255c818560208601612a3e565b61256581612a9f565b840191505092915050565b600061257b82612939565b61258581856129c0565b9350612595818560208601612a3e565b80840191505092915050565b6000815460018116600081146125be57600181146125e357612627565b607f60028304166125cf81876129c0565b955060ff1983168652808601935050612627565b600282046125f181876129c0565b95506125fc85612903565b60005b8281101561261e578154818901526001820191506020810190506125ff565b82880195505050505b505092915050565b600061263c600c836129af565b91507f746f6b656e2064697562616800000000000000000000000000000000000000006000830152602082019050919050565b600061267c6012836129af565b91507f746f6b656e20746964616b2064697562616800000000000000000000000000006000830152602082019050919050565b6126b881612a25565b82525050565b6126c781612a25565b82525050565b6126de6126d982612a25565b612a95565b82525050565b60006126f082856123c2565b60148201915061270082846126cd565b6020820191508190509392505050565b600061271c8284612570565b915081905092915050565b600061273382846125a1565b915081905092915050565b600060208201905061275360008301846123b3565b92915050565b6000602082019050818103600083015261277381846123e8565b905092915050565b600060208201905081810360008301526127958184612446565b905092915050565b600060608201905081810360008301526127b781866124bb565b905081810360208301526127cb8185612446565b905081810360408301526127df8184612446565b9050949350505050565b60006020820190506127fe6000830184612519565b92915050565b60006020820190506128196000830184612528565b92915050565b600060208201905081810360008301526128388161262f565b9050919050565b600060208201905081810360008301526128588161266f565b9050919050565b600060208201905061287460008301846126be565b92915050565b6000604051905081810181811067ffffffffffffffff8211171561289d57600080fd5b8060405250919050565b600067ffffffffffffffff8211156128be57600080fd5b601f19601f8301169050602081019050919050565b6000819050602082019050919050565b6000819050602082019050919050565b6000819050602082019050919050565b60008190508160005260206000209050919050565b600081519050919050565b600081519050919050565b600081519050919050565b600081519050919050565b6000602082019050919050565b6000602082019050919050565b6000602082019050919050565b600082825260208201905092915050565b600082825260208201905092915050565b600082825260208201905092915050565b600082825260208201905092915050565b600082825260208201905092915050565b600081905092915050565b60006129d682612a05565b9050919050565b60006129e882612a05565b9050919050565b60008115159050919050565b6000819050919050565b600073ffffffffffffffffffffffffffffffffffffffff82169050919050565b6000819050919050565b82818337600083830152505050565b60005b83811015612a5c578082015181840152602081019050612a41565b83811115612a6b576000848401525b50505050565b6000612a7c82612a83565b9050919050565b6000612a8e82612ab0565b9050919050565b6000819050919050565b6000601f19601f8301169050919050565b60008160601b9050919050565b612ac6816129dd565b8114612ad157600080fd5b50565b612add816129fb565b8114612ae857600080fd5b50565b612af481612a25565b8114612aff57600080fd5b5056fea2646970667358221220beaf25459c9c162a127e127010d8a6fcc078a6f78a406b743b24ad12e4cc274e64736f6c634300060c0033",
      "opcodes": "PUSH1 0x80 PUSH1 0x40 MSTORE CALLVALUE DUP1 ISZERO PUSH2 0x10 JUMPI PUSH1 0x0 DUP1 REVERT JUMPDEST POP CALLER PUSH1 0x0 DUP1 PUSH2 0x100 EXP DUP2 SLOAD DUP2 PUSH20 0xFFFFFFFFFFFFFFFFFFFFFFFFFFFFFFFFFFFFFFFF MUL NOT AND SWAP1 DUP4 PUSH20 0xFFFFFFFFFFFFFFFFFFFFFFFFFFFFFFFFFFFFFFFF AND MUL OR SWAP1 SSTORE POP PUSH1 0x0 PUSH1 0x4 DUP2 SWAP1 SSTORE POP PUSH1 0x0 PUSH1 0x6 DUP2 SWAP1 SSTORE POP PUSH2 0x2B38 DUP1 PUSH2 0x70 PUSH1 0x0 CODECOPY PUSH1 0x0 RETURN INVALID PUSH1 0x80 PUSH1 0x40 MSTORE CALLVALUE DUP1 ISZERO PUSH2 0x10 JUMPI PUSH1 0x0 DUP1 REVERT JUMPDEST POP PUSH1 0x4 CALLDATASIZE LT PUSH2 0x100 JUMPI PUSH1 0x0 CALLDATALOAD PUSH1 0xE0 SHR DUP1 PUSH4 0x836CAE65 GT PUSH2 0x97 JUMPI DUP1 PUSH4 0xD1314EE0 GT PUSH2 0x66 JUMPI DUP1 PUSH4 0xD1314EE0 EQ PUSH2 0x299 JUMPI DUP1 PUSH4 0xE58DA61F EQ PUSH2 0x2B7 JUMPI DUP1 PUSH4 0xE8E5339A EQ PUSH2 0x2E7 JUMPI DUP1 PUSH4 0xFA6A04E4 EQ PUSH2 0x303 JUMPI PUSH2 0x100 JUMP JUMPDEST DUP1 PUSH4 0x836CAE65 EQ PUSH2 0x215 JUMPI DUP1 PUSH4 0x98173FF4 EQ PUSH2 0x231 JUMPI DUP1 PUSH4 0xA9CB1A36 EQ PUSH2 0x24D JUMPI DUP1 PUSH4 0xBD28F228 EQ PUSH2 0x269 JUMPI PUSH2 0x100 JUMP JUMPDEST DUP1 PUSH4 0x481C6A75 GT PUSH2 0xD3 JUMPI DUP1 PUSH4 0x481C6A75 EQ PUSH2 0x177 JUMPI DUP1 PUSH4 0x6DB80995 EQ PUSH2 0x195 JUMPI DUP1 PUSH4 0x71658896 EQ PUSH2 0x1B5 JUMPI DUP1 PUSH4 0x7909CE47 EQ PUSH2 0x1E5 JUMPI PUSH2 0x100 JUMP JUMPDEST DUP1 PUSH4 0x1EE32B05 EQ PUSH2 0x105 JUMPI DUP1 PUSH4 0x30A66294 EQ PUSH2 0x121 JUMPI DUP1 PUSH4 0x3276807A EQ PUSH2 0x13F JUMPI DUP1 PUSH4 0x42BB20E1 EQ PUSH2 0x15B JUMPI JUMPDEST PUSH1 0x0 DUP1 REVERT JUMPDEST PUSH2 0x11F PUSH1 0x4 DUP1 CALLDATASIZE SUB DUP2 ADD SWAP1 PUSH2 0x11A SWAP2 SWAP1 PUSH2 0x20BB JUMP JUMPDEST PUSH2 0x30D JUMP JUMPDEST STOP JUMPDEST PUSH2 0x129 PUSH2 0x569 JUMP JUMPDEST PUSH1 0x40 MLOAD PUSH2 0x136 SWAP2 SWAP1 PUSH2 0x285F JUMP JUMPDEST PUSH1 0x40 MLOAD DUP1 SWAP2 SUB SWAP1 RETURN JUMPDEST PUSH2 0x159 PUSH1 0x4 DUP1 CALLDATASIZE SUB DUP2 ADD SWAP1 PUSH2 0x154 SWAP2 SWAP1 PUSH2 0x229C JUMP JUMPDEST PUSH2 0x5CC JUMP JUMPDEST STOP JUMPDEST PUSH2 0x175 PUSH1 0x4 DUP1 CALLDATASIZE SUB DUP2 ADD SWAP1 PUSH2 0x170 SWAP2 SWAP1 PUSH2 0x229C JUMP JUMPDEST PUSH2 0x74A JUMP JUMPDEST STOP JUMPDEST PUSH2 0x17F PUSH2 0x99A JUMP JUMPDEST PUSH1 0x40 MLOAD PUSH2 0x18C SWAP2 SWAP1 PUSH2 0x273E JUMP JUMPDEST PUSH1 0x40 MLOAD DUP1 SWAP2 SUB SWAP1 RETURN JUMPDEST PUSH2 0x19D PUSH2 0x9BE JUMP JUMPDEST PUSH1 0x40 MLOAD PUSH2 0x1AC SWAP4 SWAP3 SWAP2 SWAP1 PUSH2 0x279D JUMP JUMPDEST PUSH1 0x40 MLOAD DUP1 SWAP2 SUB SWAP1 RETURN JUMPDEST PUSH2 0x1CF PUSH1 0x4 DUP1 CALLDATASIZE SUB DUP2 ADD SWAP1 PUSH2 0x1CA SWAP2 SWAP1 PUSH2 0x2273 JUMP JUMPDEST PUSH2 0xCE0 JUMP JUMPDEST PUSH1 0x40 MLOAD PUSH2 0x1DC SWAP2 SWAP1 PUSH2 0x277B JUMP JUMPDEST PUSH1 0x40 MLOAD DUP1 SWAP2 SUB SWAP1 RETURN JUMPDEST PUSH2 0x1FF PUSH1 0x4 DUP1 CALLDATASIZE SUB DUP2 ADD SWAP1 PUSH2 0x1FA SWAP2 SWAP1 PUSH2 0x210D JUMP JUMPDEST PUSH2 0xED5 JUMP JUMPDEST PUSH1 0x40 MLOAD PUSH2 0x20C SWAP2 SWAP1 PUSH2 0x27E9 JUMP JUMPDEST PUSH1 0x40 MLOAD DUP1 SWAP2 SUB SWAP1 RETURN JUMPDEST PUSH2 0x22F PUSH1 0x4 DUP1 CALLDATASIZE SUB DUP2 ADD SWAP1 PUSH2 0x22A SWAP2 SWAP1 PUSH2 0x20BB JUMP JUMPDEST PUSH2 0x1007 JUMP JUMPDEST STOP JUMPDEST PUSH2 0x24B PUSH1 0x4 DUP1 CALLDATASIZE SUB DUP2 ADD SWAP1 PUSH2 0x246 SWAP2 SWAP1 PUSH2 0x2207 JUMP JUMPDEST PUSH2 0x1181 JUMP JUMPDEST STOP JUMPDEST PUSH2 0x267 PUSH1 0x4 DUP1 CALLDATASIZE SUB DUP2 ADD SWAP1 PUSH2 0x262 SWAP2 SWAP1 PUSH2 0x2273 JUMP JUMPDEST PUSH2 0x130A JUMP JUMPDEST STOP JUMPDEST PUSH2 0x283 PUSH1 0x4 DUP1 CALLDATASIZE SUB DUP2 ADD SWAP1 PUSH2 0x27E SWAP2 SWAP1 PUSH2 0x20E4 JUMP JUMPDEST PUSH2 0x14C9 JUMP JUMPDEST PUSH1 0x40 MLOAD PUSH2 0x290 SWAP2 SWAP1 PUSH2 0x27E9 JUMP JUMPDEST PUSH1 0x40 MLOAD DUP1 SWAP2 SUB SWAP1 RETURN JUMPDEST PUSH2 0x2A1 PUSH2 0x1610 JUMP JUMPDEST PUSH1 0x40 MLOAD PUSH2 0x2AE SWAP2 SWAP1 PUSH2 0x2759 JUMP JUMPDEST PUSH1 0x40 MLOAD DUP1 SWAP2 SUB SWAP1 RETURN JUMPDEST PUSH2 0x2D1 PUSH1 0x4 DUP1 CALLDATASIZE SUB DUP2 ADD SWAP1 PUSH2 0x2CC SWAP2 SWAP1 PUSH2 0x2174 JUMP JUMPDEST PUSH2 0x1761 JUMP JUMPDEST PUSH1 0x40 MLOAD PUSH2 0x2DE SWAP2 SWAP1 PUSH2 0x27E9 JUMP JUMPDEST PUSH1 0x40 MLOAD DUP1 SWAP2 SUB SWAP1 RETURN JUMPDEST PUSH2 0x301 PUSH1 0x4 DUP1 CALLDATASIZE SUB DUP2 ADD SWAP1 PUSH2 0x2FC SWAP2 SWAP1 PUSH2 0x22F0 JUMP JUMPDEST PUSH2 0x18BA JUMP JUMPDEST STOP JUMPDEST PUSH2 0x30B PUSH2 0x1A1D JUMP JUMPDEST STOP JUMPDEST PUSH1 0x0 DUP1 SLOAD SWAP1 PUSH2 0x100 EXP SWAP1 DIV PUSH20 0xFFFFFFFFFFFFFFFFFFFFFFFFFFFFFFFFFFFFFFFF AND PUSH20 0xFFFFFFFFFFFFFFFFFFFFFFFFFFFFFFFFFFFFFFFF AND CALLER PUSH20 0xFFFFFFFFFFFFFFFFFFFFFFFFFFFFFFFFFFFFFFFF AND EQ PUSH2 0x365 JUMPI PUSH1 0x0 DUP1 REVERT JUMPDEST PUSH1 0x0 JUMPDEST PUSH1 0x2 DUP1 SLOAD SWAP1 POP DUP2 LT ISZERO PUSH2 0x565 JUMPI PUSH1 0x2 DUP2 DUP2 SLOAD DUP2 LT PUSH2 0x382 JUMPI INVALID JUMPDEST SWAP1 PUSH1 0x0 MSTORE PUSH1 0x20 PUSH1 0x0 KECCAK256 SWAP1 PUSH1 0x2 MUL ADD PUSH1 0x0 ADD PUSH1 0x0 SWAP1 SLOAD SWAP1 PUSH2 0x100 EXP SWAP1 DIV PUSH20 0xFFFFFFFFFFFFFFFFFFFFFFFFFFFFFFFFFFFFFFFF AND PUSH20 0xFFFFFFFFFFFFFFFFFFFFFFFFFFFFFFFFFFFFFFFF AND DUP3 PUSH20 0xFFFFFFFFFFFFFFFFFFFFFFFFFFFFFFFFFFFFFFFF AND EQ ISZERO PUSH2 0x558 JUMPI PUSH1 0x0 PUSH1 0x3 PUSH1 0x0 DUP5 PUSH20 0xFFFFFFFFFFFFFFFFFFFFFFFFFFFFFFFFFFFFFFFF AND PUSH20 0xFFFFFFFFFFFFFFFFFFFFFFFFFFFFFFFFFFFFFFFF AND DUP2 MSTORE PUSH1 0x20 ADD SWAP1 DUP2 MSTORE PUSH1 0x20 ADD PUSH1 0x0 KECCAK256 PUSH1 0x0 PUSH2 0x100 EXP DUP2 SLOAD DUP2 PUSH1 0xFF MUL NOT AND SWAP1 DUP4 ISZERO ISZERO MUL OR SWAP1 SSTORE POP PUSH1 0x2 PUSH1 0x1 PUSH1 0x2 DUP1 SLOAD SWAP1 POP SUB DUP2 SLOAD DUP2 LT PUSH2 0x454 JUMPI INVALID JUMPDEST SWAP1 PUSH1 0x0 MSTORE PUSH1 0x20 PUSH1 0x0 KECCAK256 SWAP1 PUSH1 0x2 MUL ADD PUSH1 0x2 DUP3 DUP2 SLOAD DUP2 LT PUSH2 0x46F JUMPI INVALID JUMPDEST SWAP1 PUSH1 0x0 MSTORE PUSH1 0x20 PUSH1 0x0 KECCAK256 SWAP1 PUSH1 0x2 MUL ADD PUSH1 0x0 DUP3 ADD PUSH1 0x0 SWAP1 SLOAD SWAP1 PUSH2 0x100 EXP SWAP1 DIV PUSH20 0xFFFFFFFFFFFFFFFFFFFFFFFFFFFFFFFFFFFFFFFF AND DUP2 PUSH1 0x0 ADD PUSH1 0x0 PUSH2 0x100 EXP DUP2 SLOAD DUP2 PUSH20 0xFFFFFFFFFFFFFFFFFFFFFFFFFFFFFFFFFFFFFFFF MUL NOT AND SWAP1 DUP4 PUSH20 0xFFFFFFFFFFFFFFFFFFFFFFFFFFFFFFFFFFFFFFFF AND MUL OR SWAP1 SSTORE POP PUSH1 0x1 DUP3 ADD SLOAD DUP2 PUSH1 0x1 ADD SSTORE SWAP1 POP POP PUSH1 0x2 DUP1 SLOAD DUP1 PUSH2 0x4FC JUMPI INVALID JUMPDEST PUSH1 0x1 SWAP1 SUB DUP2 DUP2 SWAP1 PUSH1 0x0 MSTORE PUSH1 0x20 PUSH1 0x0 KECCAK256 SWAP1 PUSH1 0x2 MUL ADD PUSH1 0x0 DUP1 DUP3 ADD PUSH1 0x0 PUSH2 0x100 EXP DUP2 SLOAD SWAP1 PUSH20 0xFFFFFFFFFFFFFFFFFFFFFFFFFFFFFFFFFFFFFFFF MUL NOT AND SWAP1 SSTORE PUSH1 0x1 DUP3 ADD PUSH1 0x0 SWAP1 SSTORE POP POP SWAP1 SSTORE PUSH1 0x5 PUSH1 0x0 DUP2 SLOAD DUP1 SWAP3 SWAP2 SWAP1 PUSH1 0x1 SWAP1 SUB SWAP2 SWAP1 POP SSTORE POP JUMPDEST DUP1 DUP1 PUSH1 0x1 ADD SWAP2 POP POP PUSH2 0x368 JUMP JUMPDEST POP POP JUMP JUMPDEST PUSH1 0x0 DUP1 PUSH1 0x0 SWAP1 SLOAD SWAP1 PUSH2 0x100 EXP SWAP1 DIV PUSH20 0xFFFFFFFFFFFFFFFFFFFFFFFFFFFFFFFFFFFFFFFF AND PUSH20 0xFFFFFFFFFFFFFFFFFFFFFFFFFFFFFFFFFFFFFFFF AND CALLER PUSH20 0xFFFFFFFFFFFFFFFFFFFFFFFFFFFFFFFFFFFFFFFF AND EQ PUSH2 0x5C4 JUMPI PUSH1 0x0 DUP1 REVERT JUMPDEST PUSH1 0x4 SLOAD SWAP1 POP SWAP1 JUMP JUMPDEST PUSH1 0x0 DUP1 SLOAD SWAP1 PUSH2 0x100 EXP SWAP1 DIV PUSH20 0xFFFFFFFFFFFFFFFFFFFFFFFFFFFFFFFFFFFFFFFF AND PUSH20 0xFFFFFFFFFFFFFFFFFFFFFFFFFFFFFFFFFFFFFFFF AND CALLER PUSH20 0xFFFFFFFFFFFFFFFFFFFFFFFFFFFFFFFFFFFFFFFF AND EQ PUSH2 0x624 JUMPI PUSH1 0x0 DUP1 REVERT JUMPDEST PUSH1 0x0 DUP1 JUMPDEST PUSH1 0x1 DUP1 SLOAD SWAP1 POP DUP2 LT ISZERO PUSH2 0x744 JUMPI PUSH1 0x0 PUSH1 0x1 DUP3 DUP2 SLOAD DUP2 LT PUSH2 0x644 JUMPI INVALID JUMPDEST SWAP1 PUSH1 0x0 MSTORE PUSH1 0x20 PUSH1 0x0 KECCAK256 SWAP1 PUSH1 0x4 MUL ADD SWAP1 POP DUP1 PUSH1 0x0 ADD SLOAD DUP6 EQ ISZERO PUSH2 0x736 JUMPI PUSH1 0x0 JUMPDEST DUP2 PUSH1 0x3 ADD DUP1 SLOAD SWAP1 POP DUP2 LT ISZERO PUSH2 0x6F0 JUMPI DUP2 PUSH1 0x3 ADD DUP2 DUP2 SLOAD DUP2 LT PUSH2 0x681 JUMPI INVALID JUMPDEST SWAP1 PUSH1 0x0 MSTORE PUSH1 0x20 PUSH1 0x0 KECCAK256 ADD PUSH1 0x40 MLOAD PUSH1 0x20 ADD PUSH2 0x69B SWAP2 SWAP1 PUSH2 0x2727 JUMP JUMPDEST PUSH1 0x40 MLOAD PUSH1 0x20 DUP2 DUP4 SUB SUB DUP2 MSTORE SWAP1 PUSH1 0x40 MSTORE DUP1 MLOAD SWAP1 PUSH1 0x20 ADD KECCAK256 DUP6 PUSH1 0x40 MLOAD PUSH1 0x20 ADD PUSH2 0x6C2 SWAP2 SWAP1 PUSH2 0x2710 JUMP JUMPDEST PUSH1 0x40 MLOAD PUSH1 0x20 DUP2 DUP4 SUB SUB DUP2 MSTORE SWAP1 PUSH1 0x40 MSTORE DUP1 MLOAD SWAP1 PUSH1 0x20 ADD KECCAK256 EQ ISZERO PUSH2 0x6E3 JUMPI PUSH1 0x1 SWAP4 POP JUMPDEST DUP1 DUP1 PUSH1 0x1 ADD SWAP2 POP POP PUSH2 0x663 JUMP JUMPDEST POP DUP3 PUSH2 0x735 JUMPI DUP1 PUSH1 0x3 ADD DUP5 SWAP1 DUP1 PUSH1 0x1 DUP2 SLOAD ADD DUP1 DUP3 SSTORE DUP1 SWAP2 POP POP PUSH1 0x1 SWAP1 SUB SWAP1 PUSH1 0x0 MSTORE PUSH1 0x20 PUSH1 0x0 KECCAK256 ADD PUSH1 0x0 SWAP1 SWAP2 SWAP1 SWAP2 SWAP1 SWAP2 POP SWAP1 DUP1 MLOAD SWAP1 PUSH1 0x20 ADD SWAP1 PUSH2 0x733 SWAP3 SWAP2 SWAP1 PUSH2 0x1CC8 JUMP JUMPDEST POP JUMPDEST JUMPDEST POP DUP1 DUP1 PUSH1 0x1 ADD SWAP2 POP POP PUSH2 0x628 JUMP JUMPDEST POP POP POP POP JUMP JUMPDEST PUSH1 0x0 DUP1 SLOAD SWAP1 PUSH2 0x100 EXP SWAP1 DIV PUSH20 0xFFFFFFFFFFFFFFFFFFFFFFFFFFFFFFFFFFFFFFFF AND PUSH20 0xFFFFFFFFFFFFFFFFFFFFFFFFFFFFFFFFFFFFFFFF AND CALLER PUSH20 0xFFFFFFFFFFFFFFFFFFFFFFFFFFFFFFFFFFFFFFFF AND EQ PUSH2 0x7A2 JUMPI PUSH1 0x0 DUP1 REVERT JUMPDEST PUSH1 0x0 JUMPDEST PUSH1 0x1 DUP1 SLOAD SWAP1 POP DUP2 LT ISZERO PUSH2 0x995 JUMPI PUSH1 0x1 DUP2 DUP2 SLOAD DUP2 LT PUSH2 0x7BF JUMPI INVALID JUMPDEST SWAP1 PUSH1 0x0 MSTORE PUSH1 0x20 PUSH1 0x0 KECCAK256 SWAP1 PUSH1 0x4 MUL ADD PUSH1 0x0 ADD SLOAD DUP4 EQ ISZERO PUSH2 0x988 JUMPI PUSH1 0x0 JUMPDEST PUSH1 0x1 DUP3 DUP2 SLOAD DUP2 LT PUSH2 0x7E8 JUMPI INVALID JUMPDEST SWAP1 PUSH1 0x0 MSTORE PUSH1 0x20 PUSH1 0x0 KECCAK256 SWAP1 PUSH1 0x4 MUL ADD PUSH1 0x3 ADD DUP1 SLOAD SWAP1 POP DUP2 LT ISZERO PUSH2 0x986 JUMPI PUSH1 0x1 DUP3 DUP2 SLOAD DUP2 LT PUSH2 0x811 JUMPI INVALID JUMPDEST SWAP1 PUSH1 0x0 MSTORE PUSH1 0x20 PUSH1 0x0 KECCAK256 SWAP1 PUSH1 0x4 MUL ADD PUSH1 0x3 ADD DUP2 DUP2 SLOAD DUP2 LT PUSH2 0x82D JUMPI INVALID JUMPDEST SWAP1 PUSH1 0x0 MSTORE PUSH1 0x20 PUSH1 0x0 KECCAK256 ADD PUSH1 0x40 MLOAD PUSH1 0x20 ADD PUSH2 0x847 SWAP2 SWAP1 PUSH2 0x2727 JUMP JUMPDEST PUSH1 0x40 MLOAD PUSH1 0x20 DUP2 DUP4 SUB SUB DUP2 MSTORE SWAP1 PUSH1 0x40 MSTORE DUP1 MLOAD SWAP1 PUSH1 0x20 ADD KECCAK256 DUP4 PUSH1 0x40 MLOAD PUSH1 0x20 ADD PUSH2 0x86E SWAP2 SWAP1 PUSH2 0x2710 JUMP JUMPDEST PUSH1 0x40 MLOAD PUSH1 0x20 DUP2 DUP4 SUB SUB DUP2 MSTORE SWAP1 PUSH1 0x40 MSTORE DUP1 MLOAD SWAP1 PUSH1 0x20 ADD KECCAK256 EQ ISZERO PUSH2 0x979 JUMPI PUSH1 0x1 DUP3 DUP2 SLOAD DUP2 LT PUSH2 0x897 JUMPI INVALID JUMPDEST SWAP1 PUSH1 0x0 MSTORE PUSH1 0x20 PUSH1 0x0 KECCAK256 SWAP1 PUSH1 0x4 MUL ADD PUSH1 0x3 ADD PUSH1 0x1 DUP1 DUP5 DUP2 SLOAD DUP2 LT PUSH2 0x8B6 JUMPI INVALID JUMPDEST SWAP1 PUSH1 0x0 MSTORE PUSH1 0x20 PUSH1 0x0 KECCAK256 SWAP1 PUSH1 0x4 MUL ADD PUSH1 0x3 ADD DUP1 SLOAD SWAP1 POP SUB DUP2 SLOAD DUP2 LT PUSH2 0x8D6 JUMPI INVALID JUMPDEST SWAP1 PUSH1 0x0 MSTORE PUSH1 0x20 PUSH1 0x0 KECCAK256 ADD PUSH1 0x1 DUP4 DUP2 SLOAD DUP2 LT PUSH2 0x8ED JUMPI INVALID JUMPDEST SWAP1 PUSH1 0x0 MSTORE PUSH1 0x20 PUSH1 0x0 KECCAK256 SWAP1 PUSH1 0x4 MUL ADD PUSH1 0x3 ADD DUP3 DUP2 SLOAD DUP2 LT PUSH2 0x909 JUMPI INVALID JUMPDEST SWAP1 PUSH1 0x0 MSTORE PUSH1 0x20 PUSH1 0x0 KECCAK256 ADD SWAP1 DUP1 SLOAD PUSH1 0x1 DUP2 PUSH1 0x1 AND ISZERO PUSH2 0x100 MUL SUB AND PUSH1 0x2 SWAP1 DIV PUSH2 0x932 SWAP3 SWAP2 SWAP1 PUSH2 0x1D48 JUMP JUMPDEST POP PUSH1 0x1 DUP3 DUP2 SLOAD DUP2 LT PUSH2 0x940 JUMPI INVALID JUMPDEST SWAP1 PUSH1 0x0 MSTORE PUSH1 0x20 PUSH1 0x0 KECCAK256 SWAP1 PUSH1 0x4 MUL ADD PUSH1 0x3 ADD DUP1 SLOAD DUP1 PUSH2 0x95A JUMPI INVALID JUMPDEST PUSH1 0x1 SWAP1 SUB DUP2 DUP2 SWAP1 PUSH1 0x0 MSTORE PUSH1 0x20 PUSH1 0x0 KECCAK256 ADD PUSH1 0x0 PUSH2 0x976 SWAP2 SWAP1 PUSH2 0x1DCF JUMP JUMPDEST SWAP1 SSTORE JUMPDEST DUP1 DUP1 PUSH1 0x1 ADD SWAP2 POP POP PUSH2 0x7DB JUMP JUMPDEST POP JUMPDEST DUP1 DUP1 PUSH1 0x1 ADD SWAP2 POP POP PUSH2 0x7A5 JUMP JUMPDEST POP POP POP JUMP JUMPDEST PUSH1 0x0 DUP1 SLOAD SWAP1 PUSH2 0x100 EXP SWAP1 DIV PUSH20 0xFFFFFFFFFFFFFFFFFFFFFFFFFFFFFFFFFFFFFFFF AND DUP2 JUMP JUMPDEST PUSH1 0x60 DUP1 PUSH1 0x60 PUSH1 0x0 DUP1 SLOAD SWAP1 PUSH2 0x100 EXP SWAP1 DIV PUSH20 0xFFFFFFFFFFFFFFFFFFFFFFFFFFFFFFFFFFFFFFFF AND PUSH20 0xFFFFFFFFFFFFFFFFFFFFFFFFFFFFFFFFFFFFFFFF AND CALLER PUSH20 0xFFFFFFFFFFFFFFFFFFFFFFFFFFFFFFFFFFFFFFFF AND EQ PUSH2 0xA1B JUMPI PUSH1 0x0 DUP1 REVERT JUMPDEST PUSH1 0x60 PUSH1 0x4 SLOAD PUSH8 0xFFFFFFFFFFFFFFFF DUP2 GT DUP1 ISZERO PUSH2 0xA36 JUMPI PUSH1 0x0 DUP1 REVERT JUMPDEST POP PUSH1 0x40 MLOAD SWAP1 DUP1 DUP3 MSTORE DUP1 PUSH1 0x20 MUL PUSH1 0x20 ADD DUP3 ADD PUSH1 0x40 MSTORE DUP1 ISZERO PUSH2 0xA65 JUMPI DUP2 PUSH1 0x20 ADD PUSH1 0x20 DUP3 MUL DUP1 CALLDATASIZE DUP4 CALLDATACOPY DUP1 DUP3 ADD SWAP2 POP POP SWAP1 POP JUMPDEST POP SWAP1 POP PUSH1 0x60 PUSH1 0x4 SLOAD PUSH8 0xFFFFFFFFFFFFFFFF DUP2 GT DUP1 ISZERO PUSH2 0xA83 JUMPI PUSH1 0x0 DUP1 REVERT JUMPDEST POP PUSH1 0x40 MLOAD SWAP1 DUP1 DUP3 MSTORE DUP1 PUSH1 0x20 MUL PUSH1 0x20 ADD DUP3 ADD PUSH1 0x40 MSTORE DUP1 ISZERO PUSH2 0xAB7 JUMPI DUP2 PUSH1 0x20 ADD JUMPDEST PUSH1 0x60 DUP2 MSTORE PUSH1 0x20 ADD SWAP1 PUSH1 0x1 SWAP1 SUB SWAP1 DUP2 PUSH2 0xAA2 JUMPI SWAP1 POP JUMPDEST POP SWAP1 POP PUSH1 0x60 PUSH1 0x4 SLOAD PUSH8 0xFFFFFFFFFFFFFFFF DUP2 GT DUP1 ISZERO PUSH2 0xAD5 JUMPI PUSH1 0x0 DUP1 REVERT JUMPDEST POP PUSH1 0x40 MLOAD SWAP1 DUP1 DUP3 MSTORE DUP1 PUSH1 0x20 MUL PUSH1 0x20 ADD DUP3 ADD PUSH1 0x40 MSTORE DUP1 ISZERO PUSH2 0xB09 JUMPI DUP2 PUSH1 0x20 ADD JUMPDEST PUSH1 0x60 DUP2 MSTORE PUSH1 0x20 ADD SWAP1 PUSH1 0x1 SWAP1 SUB SWAP1 DUP2 PUSH2 0xAF4 JUMPI SWAP1 POP JUMPDEST POP SWAP1 POP PUSH1 0x0 JUMPDEST PUSH1 0x1 DUP1 SLOAD SWAP1 POP DUP2 LT ISZERO PUSH2 0xCCE JUMPI PUSH1 0x0 PUSH1 0x1 DUP3 DUP2 SLOAD DUP2 LT PUSH2 0xB2B JUMPI INVALID JUMPDEST SWAP1 PUSH1 0x0 MSTORE PUSH1 0x20 PUSH1 0x0 KECCAK256 SWAP1 PUSH1 0x4 MUL ADD SWAP1 POP DUP1 PUSH1 0x0 ADD SLOAD DUP6 DUP4 DUP2 MLOAD DUP2 LT PUSH2 0xB4C JUMPI INVALID JUMPDEST PUSH1 0x20 MUL PUSH1 0x20 ADD ADD DUP2 DUP2 MSTORE POP POP DUP1 PUSH1 0x1 ADD DUP1 SLOAD PUSH1 0x1 DUP2 PUSH1 0x1 AND ISZERO PUSH2 0x100 MUL SUB AND PUSH1 0x2 SWAP1 DIV DUP1 PUSH1 0x1F ADD PUSH1 0x20 DUP1 SWAP2 DIV MUL PUSH1 0x20 ADD PUSH1 0x40 MLOAD SWAP1 DUP2 ADD PUSH1 0x40 MSTORE DUP1 SWAP3 SWAP2 SWAP1 DUP2 DUP2 MSTORE PUSH1 0x20 ADD DUP3 DUP1 SLOAD PUSH1 0x1 DUP2 PUSH1 0x1 AND ISZERO PUSH2 0x100 MUL SUB AND PUSH1 0x2 SWAP1 DIV DUP1 ISZERO PUSH2 0xBF0 JUMPI DUP1 PUSH1 0x1F LT PUSH2 0xBC5 JUMPI PUSH2 0x100 DUP1 DUP4 SLOAD DIV MUL DUP4 MSTORE SWAP2 PUSH1 0x20 ADD SWAP2 PUSH2 0xBF0 JUMP JUMPDEST DUP3 ADD SWAP2 SWAP1 PUSH1 0x0 MSTORE PUSH1 0x20 PUSH1 0x0 KECCAK256 SWAP1 JUMPDEST DUP2 SLOAD DUP2 MSTORE SWAP1 PUSH1 0x1 ADD SWAP1 PUSH1 0x20 ADD DUP1 DUP4 GT PUSH2 0xBD3 JUMPI DUP3 SWAP1 SUB PUSH1 0x1F AND DUP3 ADD SWAP2 JUMPDEST POP POP POP POP POP DUP5 DUP4 DUP2 MLOAD DUP2 LT PUSH2 0xC01 JUMPI INVALID JUMPDEST PUSH1 0x20 MUL PUSH1 0x20 ADD ADD DUP2 SWAP1 MSTORE POP DUP1 PUSH1 0x2 ADD DUP1 SLOAD PUSH1 0x1 DUP2 PUSH1 0x1 AND ISZERO PUSH2 0x100 MUL SUB AND PUSH1 0x2 SWAP1 DIV DUP1 PUSH1 0x1F ADD PUSH1 0x20 DUP1 SWAP2 DIV MUL PUSH1 0x20 ADD PUSH1 0x40 MLOAD SWAP1 DUP2 ADD PUSH1 0x40 MSTORE DUP1 SWAP3 SWAP2 SWAP1 DUP2 DUP2 MSTORE PUSH1 0x20 ADD DUP3 DUP1 SLOAD PUSH1 0x1 DUP2 PUSH1 0x1 AND ISZERO PUSH2 0x100 MUL SUB AND PUSH1 0x2 SWAP1 DIV DUP1 ISZERO PUSH2 0xCA4 JUMPI DUP1 PUSH1 0x1F LT PUSH2 0xC79 JUMPI PUSH2 0x100 DUP1 DUP4 SLOAD DIV MUL DUP4 MSTORE SWAP2 PUSH1 0x20 ADD SWAP2 PUSH2 0xCA4 JUMP JUMPDEST DUP3 ADD SWAP2 SWAP1 PUSH1 0x0 MSTORE PUSH1 0x20 PUSH1 0x0 KECCAK256 SWAP1 JUMPDEST DUP2 SLOAD DUP2 MSTORE SWAP1 PUSH1 0x1 ADD SWAP1 PUSH1 0x20 ADD DUP1 DUP4 GT PUSH2 0xC87 JUMPI DUP3 SWAP1 SUB PUSH1 0x1F AND DUP3 ADD SWAP2 JUMPDEST POP POP POP POP POP DUP4 DUP4 DUP2 MLOAD DUP2 LT PUSH2 0xCB5 JUMPI INVALID JUMPDEST PUSH1 0x20 MUL PUSH1 0x20 ADD ADD DUP2 SWAP1 MSTORE POP POP DUP1 DUP1 PUSH1 0x1 ADD SWAP2 POP POP PUSH2 0xB0F JUMP JUMPDEST POP DUP3 DUP3 DUP3 SWAP6 POP SWAP6 POP SWAP6 POP POP POP POP SWAP1 SWAP2 SWAP3 JUMP JUMPDEST PUSH1 0x60 PUSH1 0x0 DUP1 SLOAD SWAP1 PUSH2 0x100 EXP SWAP1 DIV PUSH20 0xFFFFFFFFFFFFFFFFFFFFFFFFFFFFFFFFFFFFFFFF AND PUSH20 0xFFFFFFFFFFFFFFFFFFFFFFFFFFFFFFFFFFFFFFFF AND CALLER PUSH20 0xFFFFFFFFFFFFFFFFFFFFFFFFFFFFFFFFFFFFFFFF AND EQ PUSH2 0xD3A JUMPI PUSH1 0x0 DUP1 REVERT JUMPDEST PUSH1 0x0 JUMPDEST PUSH1 0x1 DUP1 SLOAD SWAP1 POP DUP2 LT ISZERO PUSH2 0xECE JUMPI PUSH1 0x0 PUSH1 0x1 DUP3 DUP2 SLOAD DUP2 LT PUSH2 0xD59 JUMPI INVALID JUMPDEST SWAP1 PUSH1 0x0 MSTORE PUSH1 0x20 PUSH1 0x0 KECCAK256 SWAP1 PUSH1 0x4 MUL ADD SWAP1 POP DUP1 PUSH1 0x0 ADD SLOAD DUP5 EQ ISZERO PUSH2 0xEC0 JUMPI PUSH1 0x60 DUP2 PUSH1 0x3 ADD DUP1 SLOAD SWAP1 POP PUSH8 0xFFFFFFFFFFFFFFFF DUP2 GT DUP1 ISZERO PUSH2 0xD95 JUMPI PUSH1 0x0 DUP1 REVERT JUMPDEST POP PUSH1 0x40 MLOAD SWAP1 DUP1 DUP3 MSTORE DUP1 PUSH1 0x20 MUL PUSH1 0x20 ADD DUP3 ADD PUSH1 0x40 MSTORE DUP1 ISZERO PUSH2 0xDC9 JUMPI DUP2 PUSH1 0x20 ADD JUMPDEST PUSH1 0x60 DUP2 MSTORE PUSH1 0x20 ADD SWAP1 PUSH1 0x1 SWAP1 SUB SWAP1 DUP2 PUSH2 0xDB4 JUMPI SWAP1 POP JUMPDEST POP SWAP1 POP PUSH1 0x0 JUMPDEST DUP3 PUSH1 0x3 ADD DUP1 SLOAD SWAP1 POP DUP2 LT ISZERO PUSH2 0xEB4 JUMPI DUP3 PUSH1 0x3 ADD DUP2 DUP2 SLOAD DUP2 LT PUSH2 0xDED JUMPI INVALID JUMPDEST SWAP1 PUSH1 0x0 MSTORE PUSH1 0x20 PUSH1 0x0 KECCAK256 ADD DUP1 SLOAD PUSH1 0x1 DUP2 PUSH1 0x1 AND ISZERO PUSH2 0x100 MUL SUB AND PUSH1 0x2 SWAP1 DIV DUP1 PUSH1 0x1F ADD PUSH1 0x20 DUP1 SWAP2 DIV MUL PUSH1 0x20 ADD PUSH1 0x40 MLOAD SWAP1 DUP2 ADD PUSH1 0x40 MSTORE DUP1 SWAP3 SWAP2 SWAP1 DUP2 DUP2 MSTORE PUSH1 0x20 ADD DUP3 DUP1 SLOAD PUSH1 0x1 DUP2 PUSH1 0x1 AND ISZERO PUSH2 0x100 MUL SUB AND PUSH1 0x2 SWAP1 DIV DUP1 ISZERO PUSH2 0xE8B JUMPI DUP1 PUSH1 0x1F LT PUSH2 0xE60 JUMPI PUSH2 0x100 DUP1 DUP4 SLOAD DIV MUL DUP4 MSTORE SWAP2 PUSH1 0x20 ADD SWAP2 PUSH2 0xE8B JUMP JUMPDEST DUP3 ADD SWAP2 SWAP1 PUSH1 0x0 MSTORE PUSH1 0x20 PUSH1 0x0 KECCAK256 SWAP1 JUMPDEST DUP2 SLOAD DUP2 MSTORE SWAP1 PUSH1 0x1 ADD SWAP1 PUSH1 0x20 ADD DUP1 DUP4 GT PUSH2 0xE6E JUMPI DUP3 SWAP1 SUB PUSH1 0x1F AND DUP3 ADD SWAP2 JUMPDEST POP POP POP POP POP DUP3 DUP3 DUP2 MLOAD DUP2 LT PUSH2 0xE9C JUMPI INVALID JUMPDEST PUSH1 0x20 MUL PUSH1 0x20 ADD ADD DUP2 SWAP1 MSTORE POP DUP1 DUP1 PUSH1 0x1 ADD SWAP2 POP POP PUSH2 0xDCF JUMP JUMPDEST POP DUP1 SWAP4 POP POP POP POP PUSH2 0xED0 JUMP JUMPDEST POP DUP1 DUP1 PUSH1 0x1 ADD SWAP2 POP POP PUSH2 0xD3D JUMP JUMPDEST POP JUMPDEST SWAP2 SWAP1 POP JUMP JUMPDEST PUSH1 0x0 DUP4 PUSH2 0xEE1 DUP2 PUSH2 0x14C9 JUMP JUMPDEST PUSH2 0xEEA JUMPI PUSH1 0x0 DUP1 REVERT JUMPDEST PUSH1 0x0 JUMPDEST PUSH1 0x1 DUP1 SLOAD SWAP1 POP DUP2 LT ISZERO PUSH2 0xFF9 JUMPI PUSH1 0x1 DUP2 DUP2 SLOAD DUP2 LT PUSH2 0xF07 JUMPI INVALID JUMPDEST SWAP1 PUSH1 0x0 MSTORE PUSH1 0x20 PUSH1 0x0 KECCAK256 SWAP1 PUSH1 0x4 MUL ADD PUSH1 0x0 ADD SLOAD DUP6 EQ ISZERO PUSH2 0xFEC JUMPI PUSH1 0x0 JUMPDEST PUSH1 0x1 DUP3 DUP2 SLOAD DUP2 LT PUSH2 0xF30 JUMPI INVALID JUMPDEST SWAP1 PUSH1 0x0 MSTORE PUSH1 0x20 PUSH1 0x0 KECCAK256 SWAP1 PUSH1 0x4 MUL ADD PUSH1 0x3 ADD DUP1 SLOAD SWAP1 POP DUP2 LT ISZERO PUSH2 0xFEA JUMPI PUSH1 0x1 DUP3 DUP2 SLOAD DUP2 LT PUSH2 0xF59 JUMPI INVALID JUMPDEST SWAP1 PUSH1 0x0 MSTORE PUSH1 0x20 PUSH1 0x0 KECCAK256 SWAP1 PUSH1 0x4 MUL ADD PUSH1 0x3 ADD DUP2 DUP2 SLOAD DUP2 LT PUSH2 0xF75 JUMPI INVALID JUMPDEST SWAP1 PUSH1 0x0 MSTORE PUSH1 0x20 PUSH1 0x0 KECCAK256 ADD PUSH1 0x40 MLOAD PUSH1 0x20 ADD PUSH2 0xF8F SWAP2 SWAP1 PUSH2 0x2727 JUMP JUMPDEST PUSH1 0x40 MLOAD PUSH1 0x20 DUP2 DUP4 SUB SUB DUP2 MSTORE SWAP1 PUSH1 0x40 MSTORE DUP1 MLOAD SWAP1 PUSH1 0x20 ADD KECCAK256 DUP6 PUSH1 0x40 MLOAD PUSH1 0x20 ADD PUSH2 0xFB6 SWAP2 SWAP1 PUSH2 0x2710 JUMP JUMPDEST PUSH1 0x40 MLOAD PUSH1 0x20 DUP2 DUP4 SUB SUB DUP2 MSTORE SWAP1 PUSH1 0x40 MSTORE DUP1 MLOAD SWAP1 PUSH1 0x20 ADD KECCAK256 EQ ISZERO PUSH2 0xFDD JUMPI PUSH1 0x1 SWAP4 POP POP POP PUSH2 0xFFF JUMP JUMPDEST DUP1 DUP1 PUSH1 0x1 ADD SWAP2 POP POP PUSH2 0xF23 JUMP JUMPDEST POP JUMPDEST DUP1 DUP1 PUSH1 0x1 ADD SWAP2 POP POP PUSH2 0xEED JUMP JUMPDEST POP PUSH1 0x0 SWAP2 POP JUMPDEST POP SWAP4 SWAP3 POP POP POP JUMP JUMPDEST PUSH1 0x0 DUP1 SLOAD SWAP1 PUSH2 0x100 EXP SWAP1 DIV PUSH20 0xFFFFFFFFFFFFFFFFFFFFFFFFFFFFFFFFFFFFFFFF AND PUSH20 0xFFFFFFFFFFFFFFFFFFFFFFFFFFFFFFFFFFFFFFFF AND CALLER PUSH20 0xFFFFFFFFFFFFFFFFFFFFFFFFFFFFFFFFFFFFFFFF AND EQ PUSH2 0x105F JUMPI PUSH1 0x0 DUP1 REVERT JUMPDEST PUSH2 0x1067 PUSH2 0x1E17 JUMP JUMPDEST PUSH1 0x40 MLOAD DUP1 PUSH1 0x40 ADD PUSH1 0x40 MSTORE DUP1 DUP4 PUSH20 0xFFFFFFFFFFFFFFFFFFFFFFFFFFFFFFFFFFFFFFFF AND DUP2 MSTORE PUSH1 0x20 ADD TIMESTAMP DUP2 MSTORE POP SWAP1 POP PUSH1 0x2 DUP2 SWAP1 DUP1 PUSH1 0x1 DUP2 SLOAD ADD DUP1 DUP3 SSTORE DUP1 SWAP2 POP POP PUSH1 0x1 SWAP1 SUB SWAP1 PUSH1 0x0 MSTORE PUSH1 0x20 PUSH1 0x0 KECCAK256 SWAP1 PUSH1 0x2 MUL ADD PUSH1 0x0 SWAP1 SWAP2 SWAP1 SWAP2 SWAP1 SWAP2 POP PUSH1 0x0 DUP3 ADD MLOAD DUP2 PUSH1 0x0 ADD PUSH1 0x0 PUSH2 0x100 EXP DUP2 SLOAD DUP2 PUSH20 0xFFFFFFFFFFFFFFFFFFFFFFFFFFFFFFFFFFFFFFFF MUL NOT AND SWAP1 DUP4 PUSH20 0xFFFFFFFFFFFFFFFFFFFFFFFFFFFFFFFFFFFFFFFF AND MUL OR SWAP1 SSTORE POP PUSH1 0x20 DUP3 ADD MLOAD DUP2 PUSH1 0x1 ADD SSTORE POP POP PUSH1 0x1 PUSH1 0x3 PUSH1 0x0 DUP5 PUSH20 0xFFFFFFFFFFFFFFFFFFFFFFFFFFFFFFFFFFFFFFFF AND PUSH20 0xFFFFFFFFFFFFFFFFFFFFFFFFFFFFFFFFFFFFFFFF AND DUP2 MSTORE PUSH1 0x20 ADD SWAP1 DUP2 MSTORE PUSH1 0x20 ADD PUSH1 0x0 KECCAK256 PUSH1 0x0 PUSH2 0x100 EXP DUP2 SLOAD DUP2 PUSH1 0xFF MUL NOT AND SWAP1 DUP4 ISZERO ISZERO MUL OR SWAP1 SSTORE POP PUSH1 0x5 PUSH1 0x0 DUP2 SLOAD DUP1 SWAP3 SWAP2 SWAP1 PUSH1 0x1 ADD SWAP2 SWAP1 POP SSTORE POP POP POP JUMP JUMPDEST PUSH1 0x0 DUP1 SLOAD SWAP1 PUSH2 0x100 EXP SWAP1 DIV PUSH20 0xFFFFFFFFFFFFFFFFFFFFFFFFFFFFFFFFFFFFFFFF AND PUSH20 0xFFFFFFFFFFFFFFFFFFFFFFFFFFFFFFFFFFFFFFFF AND CALLER PUSH20 0xFFFFFFFFFFFFFFFFFFFFFFFFFFFFFFFFFFFFFFFF AND EQ PUSH2 0x11D9 JUMPI PUSH1 0x0 DUP1 REVERT JUMPDEST PUSH2 0x11E1 PUSH2 0x1E47 JUMP JUMPDEST PUSH1 0x40 MLOAD DUP1 PUSH1 0x80 ADD PUSH1 0x40 MSTORE DUP1 PUSH1 0x6 SLOAD DUP2 MSTORE PUSH1 0x20 ADD DUP5 DUP2 MSTORE PUSH1 0x20 ADD DUP4 DUP2 MSTORE PUSH1 0x20 ADD PUSH1 0x0 PUSH8 0xFFFFFFFFFFFFFFFF DUP2 GT DUP1 ISZERO PUSH2 0x1218 JUMPI PUSH1 0x0 DUP1 REVERT JUMPDEST POP PUSH1 0x40 MLOAD SWAP1 DUP1 DUP3 MSTORE DUP1 PUSH1 0x20 MUL PUSH1 0x20 ADD DUP3 ADD PUSH1 0x40 MSTORE DUP1 ISZERO PUSH2 0x124C JUMPI DUP2 PUSH1 0x20 ADD JUMPDEST PUSH1 0x60 DUP2 MSTORE PUSH1 0x20 ADD SWAP1 PUSH1 0x1 SWAP1 SUB SWAP1 DUP2 PUSH2 0x1237 JUMPI SWAP1 POP JUMPDEST POP DUP2 MSTORE POP SWAP1 POP PUSH1 0x4 PUSH1 0x0 DUP2 SLOAD DUP1 SWAP3 SWAP2 SWAP1 PUSH1 0x1 ADD SWAP2 SWAP1 POP SSTORE POP PUSH1 0x6 PUSH1 0x0 DUP2 SLOAD DUP1 SWAP3 SWAP2 SWAP1 PUSH1 0x1 ADD SWAP2 SWAP1 POP SSTORE POP PUSH1 0x1 DUP2 SWAP1 DUP1 PUSH1 0x1 DUP2 SLOAD ADD DUP1 DUP3 SSTORE DUP1 SWAP2 POP POP PUSH1 0x1 SWAP1 SUB SWAP1 PUSH1 0x0 MSTORE PUSH1 0x20 PUSH1 0x0 KECCAK256 SWAP1 PUSH1 0x4 MUL ADD PUSH1 0x0 SWAP1 SWAP2 SWAP1 SWAP2 SWAP1 SWAP2 POP PUSH1 0x0 DUP3 ADD MLOAD DUP2 PUSH1 0x0 ADD SSTORE PUSH1 0x20 DUP3 ADD MLOAD DUP2 PUSH1 0x1 ADD SWAP1 DUP1 MLOAD SWAP1 PUSH1 0x20 ADD SWAP1 PUSH2 0x12C8 SWAP3 SWAP2 SWAP1 PUSH2 0x1CC8 JUMP JUMPDEST POP PUSH1 0x40 DUP3 ADD MLOAD DUP2 PUSH1 0x2 ADD SWAP1 DUP1 MLOAD SWAP1 PUSH1 0x20 ADD SWAP1 PUSH2 0x12E5 SWAP3 SWAP2 SWAP1 PUSH2 0x1CC8 JUMP JUMPDEST POP PUSH1 0x60 DUP3 ADD MLOAD DUP2 PUSH1 0x3 ADD SWAP1 DUP1 MLOAD SWAP1 PUSH1 0x20 ADD SWAP1 PUSH2 0x1302 SWAP3 SWAP2 SWAP1 PUSH2 0x1E6F JUMP JUMPDEST POP POP POP POP POP POP JUMP JUMPDEST PUSH1 0x0 DUP1 SLOAD SWAP1 PUSH2 0x100 EXP SWAP1 DIV PUSH20 0xFFFFFFFFFFFFFFFFFFFFFFFFFFFFFFFFFFFFFFFF AND PUSH20 0xFFFFFFFFFFFFFFFFFFFFFFFFFFFFFFFFFFFFFFFF AND CALLER PUSH20 0xFFFFFFFFFFFFFFFFFFFFFFFFFFFFFFFFFFFFFFFF AND EQ PUSH2 0x1362 JUMPI PUSH1 0x0 DUP1 REVERT JUMPDEST PUSH1 0x0 JUMPDEST PUSH1 0x1 DUP1 SLOAD SWAP1 POP DUP2 LT ISZERO PUSH2 0x14C5 JUMPI PUSH1 0x1 DUP2 DUP2 SLOAD DUP2 LT PUSH2 0x137F JUMPI INVALID JUMPDEST SWAP1 PUSH1 0x0 MSTORE PUSH1 0x20 PUSH1 0x0 KECCAK256 SWAP1 PUSH1 0x4 MUL ADD PUSH1 0x0 ADD SLOAD DUP3 EQ ISZERO PUSH2 0x14B8 JUMPI PUSH1 0x1 DUP1 DUP1 DUP1 SLOAD SWAP1 POP SUB DUP2 SLOAD DUP2 LT PUSH2 0x13AB JUMPI INVALID JUMPDEST SWAP1 PUSH1 0x0 MSTORE PUSH1 0x20 PUSH1 0x0 KECCAK256 SWAP1 PUSH1 0x4 MUL ADD PUSH1 0x1 DUP3 DUP2 SLOAD DUP2 LT PUSH2 0x13C6 JUMPI INVALID JUMPDEST SWAP1 PUSH1 0x0 MSTORE PUSH1 0x20 PUSH1 0x0 KECCAK256 SWAP1 PUSH1 0x4 MUL ADD PUSH1 0x0 DUP3 ADD SLOAD DUP2 PUSH1 0x0 ADD SSTORE PUSH1 0x1 DUP3 ADD DUP2 PUSH1 0x1 ADD SWAP1 DUP1 SLOAD PUSH1 0x1 DUP2 PUSH1 0x1 AND ISZERO PUSH2 0x100 MUL SUB AND PUSH1 0x2 SWAP1 DIV PUSH2 0x1405 SWAP3 SWAP2 SWAP1 PUSH2 0x1ECF JUMP JUMPDEST POP PUSH1 0x2 DUP3 ADD DUP2 PUSH1 0x2 ADD SWAP1 DUP1 SLOAD PUSH1 0x1 DUP2 PUSH1 0x1 AND ISZERO PUSH2 0x100 MUL SUB AND PUSH1 0x2 SWAP1 DIV PUSH2 0x142D SWAP3 SWAP2 SWAP1 PUSH2 0x1ECF JUMP JUMPDEST POP PUSH1 0x3 DUP3 ADD DUP2 PUSH1 0x3 ADD SWAP1 DUP1 SLOAD PUSH2 0x1444 SWAP3 SWAP2 SWAP1 PUSH2 0x1F56 JUMP JUMPDEST POP SWAP1 POP POP PUSH1 0x1 DUP1 SLOAD DUP1 PUSH2 0x1453 JUMPI INVALID JUMPDEST PUSH1 0x1 SWAP1 SUB DUP2 DUP2 SWAP1 PUSH1 0x0 MSTORE PUSH1 0x20 PUSH1 0x0 KECCAK256 SWAP1 PUSH1 0x4 MUL ADD PUSH1 0x0 DUP1 DUP3 ADD PUSH1 0x0 SWAP1 SSTORE PUSH1 0x1 DUP3 ADD PUSH1 0x0 PUSH2 0x1480 SWAP2 SWAP1 PUSH2 0x1DCF JUMP JUMPDEST PUSH1 0x2 DUP3 ADD PUSH1 0x0 PUSH2 0x1490 SWAP2 SWAP1 PUSH2 0x1DCF JUMP JUMPDEST PUSH1 0x3 DUP3 ADD PUSH1 0x0 PUSH2 0x14A0 SWAP2 SWAP1 PUSH2 0x1FC6 JUMP JUMPDEST POP POP SWAP1 SSTORE PUSH1 0x4 PUSH1 0x0 DUP2 SLOAD DUP1 SWAP3 SWAP2 SWAP1 PUSH1 0x1 SWAP1 SUB SWAP2 SWAP1 POP SSTORE POP JUMPDEST DUP1 DUP1 PUSH1 0x1 ADD SWAP2 POP POP PUSH2 0x1365 JUMP JUMPDEST POP POP JUMP JUMPDEST PUSH1 0x0 PUSH1 0x3 PUSH1 0x0 CALLER PUSH20 0xFFFFFFFFFFFFFFFFFFFFFFFFFFFFFFFFFFFFFFFF AND PUSH20 0xFFFFFFFFFFFFFFFFFFFFFFFFFFFFFFFFFFFFFFFF AND DUP2 MSTORE PUSH1 0x20 ADD SWAP1 DUP2 MSTORE PUSH1 0x20 ADD PUSH1 0x0 KECCAK256 PUSH1 0x0 SWAP1 SLOAD SWAP1 PUSH2 0x100 EXP SWAP1 DIV PUSH1 0xFF AND PUSH2 0x1521 JUMPI PUSH1 0x0 DUP1 REVERT JUMPDEST PUSH1 0x0 JUMPDEST PUSH1 0x2 DUP1 SLOAD SWAP1 POP DUP2 LT ISZERO PUSH2 0x1609 JUMPI PUSH1 0x2 DUP2 DUP2 SLOAD DUP2 LT PUSH2 0x153E JUMPI INVALID JUMPDEST SWAP1 PUSH1 0x0 MSTORE PUSH1 0x20 PUSH1 0x0 KECCAK256 SWAP1 PUSH1 0x2 MUL ADD PUSH1 0x0 ADD PUSH1 0x0 SWAP1 SLOAD SWAP1 PUSH2 0x100 EXP SWAP1 DIV PUSH20 0xFFFFFFFFFFFFFFFFFFFFFFFFFFFFFFFFFFFFFFFF AND PUSH20 0xFFFFFFFFFFFFFFFFFFFFFFFFFFFFFFFFFFFFFFFF AND CALLER PUSH20 0xFFFFFFFFFFFFFFFFFFFFFFFFFFFFFFFFFFFFFFFF AND EQ ISZERO PUSH2 0x15FC JUMPI DUP3 CALLER PUSH1 0x2 DUP4 DUP2 SLOAD DUP2 LT PUSH2 0x15B2 JUMPI INVALID JUMPDEST SWAP1 PUSH1 0x0 MSTORE PUSH1 0x20 PUSH1 0x0 KECCAK256 SWAP1 PUSH1 0x2 MUL ADD PUSH1 0x1 ADD SLOAD PUSH1 0x40 MLOAD PUSH1 0x20 ADD PUSH2 0x15D5 SWAP3 SWAP2 SWAP1 PUSH2 0x26E4 JUMP JUMPDEST PUSH1 0x40 MLOAD PUSH1 0x20 DUP2 DUP4 SUB SUB DUP2 MSTORE SWAP1 PUSH1 0x40 MSTORE DUP1 MLOAD SWAP1 PUSH1 0x20 ADD KECCAK256 EQ ISZERO PUSH2 0x15FB JUMPI PUSH1 0x1 SWAP2 POP POP PUSH2 0x160B JUMP JUMPDEST JUMPDEST DUP1 DUP1 PUSH1 0x1 ADD SWAP2 POP POP PUSH2 0x1524 JUMP JUMPDEST POP JUMPDEST SWAP2 SWAP1 POP JUMP JUMPDEST PUSH1 0x60 PUSH1 0x0 DUP1 SLOAD SWAP1 PUSH2 0x100 EXP SWAP1 DIV PUSH20 0xFFFFFFFFFFFFFFFFFFFFFFFFFFFFFFFFFFFFFFFF AND PUSH20 0xFFFFFFFFFFFFFFFFFFFFFFFFFFFFFFFFFFFFFFFF AND CALLER PUSH20 0xFFFFFFFFFFFFFFFFFFFFFFFFFFFFFFFFFFFFFFFF AND EQ PUSH2 0x166A JUMPI PUSH1 0x0 DUP1 REVERT JUMPDEST PUSH1 0x60 PUSH1 0x5 SLOAD PUSH8 0xFFFFFFFFFFFFFFFF DUP2 GT DUP1 ISZERO PUSH2 0x1685 JUMPI PUSH1 0x0 DUP1 REVERT JUMPDEST POP PUSH1 0x40 MLOAD SWAP1 DUP1 DUP3 MSTORE DUP1 PUSH1 0x20 MUL PUSH1 0x20 ADD DUP3 ADD PUSH1 0x40 MSTORE DUP1 ISZERO PUSH2 0x16B4 JUMPI DUP2 PUSH1 0x20 ADD PUSH1 0x20 DUP3 MUL DUP1 CALLDATASIZE DUP4 CALLDATACOPY DUP1 DUP3 ADD SWAP2 POP POP SWAP1 POP JUMPDEST POP SWAP1 POP PUSH1 0x0 JUMPDEST PUSH1 0x2 DUP1 SLOAD SWAP1 POP DUP2 LT ISZERO PUSH2 0x1759 JUMPI PUSH1 0x2 DUP2 DUP2 SLOAD DUP2 LT PUSH2 0x16D4 JUMPI INVALID JUMPDEST SWAP1 PUSH1 0x0 MSTORE PUSH1 0x20 PUSH1 0x0 KECCAK256 SWAP1 PUSH1 0x2 MUL ADD PUSH1 0x0 ADD PUSH1 0x0 SWAP1 SLOAD SWAP1 PUSH2 0x100 EXP SWAP1 DIV PUSH20 0xFFFFFFFFFFFFFFFFFFFFFFFFFFFFFFFFFFFFFFFF AND DUP3 DUP3 DUP2 MLOAD DUP2 LT PUSH2 0x1712 JUMPI INVALID JUMPDEST PUSH1 0x20 MUL PUSH1 0x20 ADD ADD SWAP1 PUSH20 0xFFFFFFFFFFFFFFFFFFFFFFFFFFFFFFFFFFFFFFFF AND SWAP1 DUP2 PUSH20 0xFFFFFFFFFFFFFFFFFFFFFFFFFFFFFFFFFFFFFFFF AND DUP2 MSTORE POP POP DUP1 DUP1 PUSH1 0x1 ADD SWAP2 POP POP PUSH2 0x16BA JUMP JUMPDEST POP DUP1 SWAP2 POP POP SWAP1 JUMP JUMPDEST PUSH1 0x0 DUP5 PUSH2 0x176D DUP2 PUSH2 0x14C9 JUMP JUMPDEST PUSH2 0x1776 JUMPI PUSH1 0x0 DUP1 REVERT JUMPDEST PUSH1 0x0 JUMPDEST PUSH1 0x1 DUP1 SLOAD SWAP1 POP DUP2 LT ISZERO PUSH2 0x18AB JUMPI PUSH1 0x1 DUP2 DUP2 SLOAD DUP2 LT PUSH2 0x1793 JUMPI INVALID JUMPDEST SWAP1 PUSH1 0x0 MSTORE PUSH1 0x20 PUSH1 0x0 KECCAK256 SWAP1 PUSH1 0x4 MUL ADD PUSH1 0x0 ADD SLOAD DUP7 EQ DUP1 ISZERO PUSH2 0x181B JUMPI POP PUSH1 0x1 DUP2 DUP2 SLOAD DUP2 LT PUSH2 0x17BB JUMPI INVALID JUMPDEST SWAP1 PUSH1 0x0 MSTORE PUSH1 0x20 PUSH1 0x0 KECCAK256 SWAP1 PUSH1 0x4 MUL ADD PUSH1 0x1 ADD PUSH1 0x40 MLOAD PUSH1 0x20 ADD PUSH2 0x17DC SWAP2 SWAP1 PUSH2 0x2727 JUMP JUMPDEST PUSH1 0x40 MLOAD PUSH1 0x20 DUP2 DUP4 SUB SUB DUP2 MSTORE SWAP1 PUSH1 0x40 MSTORE DUP1 MLOAD SWAP1 PUSH1 0x20 ADD KECCAK256 DUP6 PUSH1 0x40 MLOAD PUSH1 0x20 ADD PUSH2 0x1803 SWAP2 SWAP1 PUSH2 0x2710 JUMP JUMPDEST PUSH1 0x40 MLOAD PUSH1 0x20 DUP2 DUP4 SUB SUB DUP2 MSTORE SWAP1 PUSH1 0x40 MSTORE DUP1 MLOAD SWAP1 PUSH1 0x20 ADD KECCAK256 EQ JUMPDEST DUP1 ISZERO PUSH2 0x188F JUMPI POP PUSH1 0x1 DUP2 DUP2 SLOAD DUP2 LT PUSH2 0x182F JUMPI INVALID JUMPDEST SWAP1 PUSH1 0x0 MSTORE PUSH1 0x20 PUSH1 0x0 KECCAK256 SWAP1 PUSH1 0x4 MUL ADD PUSH1 0x2 ADD PUSH1 0x40 MLOAD PUSH1 0x20 ADD PUSH2 0x1850 SWAP2 SWAP1 PUSH2 0x2727 JUMP JUMPDEST PUSH1 0x40 MLOAD PUSH1 0x20 DUP2 DUP4 SUB SUB DUP2 MSTORE SWAP1 PUSH1 0x40 MSTORE DUP1 MLOAD SWAP1 PUSH1 0x20 ADD KECCAK256 DUP5 PUSH1 0x40 MLOAD PUSH1 0x20 ADD PUSH2 0x1877 SWAP2 SWAP1 PUSH2 0x2710 JUMP JUMPDEST PUSH1 0x40 MLOAD PUSH1 0x20 DUP2 DUP4 SUB SUB DUP2 MSTORE SWAP1 PUSH1 0x40 MSTORE DUP1 MLOAD SWAP1 PUSH1 0x20 ADD KECCAK256 EQ JUMPDEST ISZERO PUSH2 0x189E JUMPI PUSH1 0x1 SWAP3 POP POP PUSH2 0x18B1 JUMP JUMPDEST DUP1 DUP1 PUSH1 0x1 ADD SWAP2 POP POP PUSH2 0x1779 JUMP JUMPDEST POP PUSH1 0x0 SWAP2 POP JUMPDEST POP SWAP5 SWAP4 POP POP POP POP JUMP JUMPDEST PUSH1 0x0 DUP1 SLOAD SWAP1 PUSH2 0x100 EXP SWAP1 DIV PUSH20 0xFFFFFFFFFFFFFFFFFFFFFFFFFFFFFFFFFFFFFFFF AND PUSH20 0xFFFFFFFFFFFFFFFFFFFFFFFFFFFFFFFFFFFFFFFF AND CALLER PUSH20 0xFFFFFFFFFFFFFFFFFFFFFFFFFFFFFFFFFFFFFFFF AND EQ PUSH2 0x1912 JUMPI PUSH1 0x0 DUP1 REVERT JUMPDEST PUSH1 0x0 JUMPDEST PUSH1 0x1 DUP1 SLOAD SWAP1 POP DUP2 LT ISZERO PUSH2 0x1A17 JUMPI PUSH1 0x0 PUSH1 0x1 DUP3 DUP2 SLOAD DUP2 LT PUSH2 0x1931 JUMPI INVALID JUMPDEST SWAP1 PUSH1 0x0 MSTORE PUSH1 0x20 PUSH1 0x0 KECCAK256 SWAP1 PUSH1 0x4 MUL ADD SWAP1 POP DUP1 PUSH1 0x0 ADD SLOAD DUP6 EQ ISZERO PUSH2 0x1A09 JUMPI PUSH1 0x0 JUMPDEST DUP2 PUSH1 0x3 ADD DUP1 SLOAD SWAP1 POP DUP2 LT ISZERO PUSH2 0x1A07 JUMPI DUP5 PUSH1 0x40 MLOAD PUSH1 0x20 ADD PUSH2 0x1970 SWAP2 SWAP1 PUSH2 0x2710 JUMP JUMPDEST PUSH1 0x40 MLOAD PUSH1 0x20 DUP2 DUP4 SUB SUB DUP2 MSTORE SWAP1 PUSH1 0x40 MSTORE DUP1 MLOAD SWAP1 PUSH1 0x20 ADD KECCAK256 DUP3 PUSH1 0x3 ADD DUP3 DUP2 SLOAD DUP2 LT PUSH2 0x1995 JUMPI INVALID JUMPDEST SWAP1 PUSH1 0x0 MSTORE PUSH1 0x20 PUSH1 0x0 KECCAK256 ADD PUSH1 0x40 MLOAD PUSH1 0x20 ADD PUSH2 0x19AF SWAP2 SWAP1 PUSH2 0x2727 JUMP JUMPDEST PUSH1 0x40 MLOAD PUSH1 0x20 DUP2 DUP4 SUB SUB DUP2 MSTORE SWAP1 PUSH1 0x40 MSTORE DUP1 MLOAD SWAP1 PUSH1 0x20 ADD KECCAK256 EQ ISZERO PUSH2 0x19FA JUMPI DUP4 DUP3 PUSH1 0x3 ADD DUP3 DUP2 SLOAD DUP2 LT PUSH2 0x19DB JUMPI INVALID JUMPDEST SWAP1 PUSH1 0x0 MSTORE PUSH1 0x20 PUSH1 0x0 KECCAK256 ADD SWAP1 DUP1 MLOAD SWAP1 PUSH1 0x20 ADD SWAP1 PUSH2 0x19F8 SWAP3 SWAP2 SWAP1 PUSH2 0x1CC8 JUMP JUMPDEST POP JUMPDEST DUP1 DUP1 PUSH1 0x1 ADD SWAP2 POP POP PUSH2 0x1950 JUMP JUMPDEST POP JUMPDEST POP DUP1 DUP1 PUSH1 0x1 ADD SWAP2 POP POP PUSH2 0x1915 JUMP JUMPDEST POP POP POP POP JUMP JUMPDEST PUSH1 0x3 PUSH1 0x0 CALLER PUSH20 0xFFFFFFFFFFFFFFFFFFFFFFFFFFFFFFFFFFFFFFFF AND PUSH20 0xFFFFFFFFFFFFFFFFFFFFFFFFFFFFFFFFFFFFFFFF AND DUP2 MSTORE PUSH1 0x20 ADD SWAP1 DUP2 MSTORE PUSH1 0x20 ADD PUSH1 0x0 KECCAK256 PUSH1 0x0 SWAP1 SLOAD SWAP1 PUSH2 0x100 EXP SWAP1 DIV PUSH1 0xFF AND PUSH2 0x1A73 JUMPI PUSH1 0x0 DUP1 REVERT JUMPDEST PUSH1 0x0 JUMPDEST PUSH1 0x2 DUP1 SLOAD SWAP1 POP DUP2 LT ISZERO PUSH2 0x1CC5 JUMPI PUSH1 0x2 DUP2 DUP2 SLOAD DUP2 LT PUSH2 0x1A90 JUMPI INVALID JUMPDEST SWAP1 PUSH1 0x0 MSTORE PUSH1 0x20 PUSH1 0x0 KECCAK256 SWAP1 PUSH1 0x2 MUL ADD PUSH1 0x0 ADD PUSH1 0x0 SWAP1 SLOAD SWAP1 PUSH2 0x100 EXP SWAP1 DIV PUSH20 0xFFFFFFFFFFFFFFFFFFFFFFFFFFFFFFFFFFFFFFFF AND PUSH20 0xFFFFFFFFFFFFFFFFFFFFFFFFFFFFFFFFFFFFFFFF AND CALLER PUSH20 0xFFFFFFFFFFFFFFFFFFFFFFFFFFFFFFFFFFFFFFFF AND EQ ISZERO PUSH2 0x1CB8 JUMPI PUSH1 0x0 TIMESTAMP SWAP1 POP PUSH1 0x0 PUSH1 0x2 DUP4 DUP2 SLOAD DUP2 LT PUSH2 0x1B09 JUMPI INVALID JUMPDEST SWAP1 PUSH1 0x0 MSTORE PUSH1 0x20 PUSH1 0x0 KECCAK256 SWAP1 PUSH1 0x2 MUL ADD PUSH1 0x1 ADD SLOAD DUP3 SUB SWAP1 POP PUSH1 0xF0 DUP2 GT ISZERO PUSH2 0x1C02 JUMPI DUP2 PUSH1 0x2 DUP5 DUP2 SLOAD DUP2 LT PUSH2 0x1B36 JUMPI INVALID JUMPDEST SWAP1 PUSH1 0x0 MSTORE PUSH1 0x20 PUSH1 0x0 KECCAK256 SWAP1 PUSH1 0x2 MUL ADD PUSH1 0x1 ADD DUP2 SWAP1 SSTORE POP PUSH32 0x504E9E94E0C65229AAF8CABE153380CC35DA3135E30129BC3195F7E031CDF82B CALLER PUSH1 0x2 DUP6 DUP2 SLOAD DUP2 LT PUSH2 0x1B7A JUMPI INVALID JUMPDEST SWAP1 PUSH1 0x0 MSTORE PUSH1 0x20 PUSH1 0x0 KECCAK256 SWAP1 PUSH1 0x2 MUL ADD PUSH1 0x1 ADD SLOAD PUSH1 0x40 MLOAD PUSH1 0x20 ADD PUSH2 0x1B9D SWAP3 SWAP2 SWAP1 PUSH2 0x26E4 JUMP JUMPDEST PUSH1 0x40 MLOAD PUSH1 0x20 DUP2 DUP4 SUB SUB DUP2 MSTORE SWAP1 PUSH1 0x40 MSTORE DUP1 MLOAD SWAP1 PUSH1 0x20 ADD KECCAK256 PUSH1 0x40 MLOAD PUSH2 0x1BC0 SWAP2 SWAP1 PUSH2 0x2804 JUMP JUMPDEST PUSH1 0x40 MLOAD DUP1 SWAP2 SUB SWAP1 LOG1 PUSH32 0xB6F921ADE0DE8DA9E62E948D90AE6F2DD6B678679AD77753C75FE1B6D9A72004 PUSH1 0x40 MLOAD PUSH2 0x1BF5 SWAP1 PUSH2 0x281F JUMP JUMPDEST PUSH1 0x40 MLOAD DUP1 SWAP2 SUB SWAP1 LOG1 PUSH2 0x1CB5 JUMP JUMPDEST PUSH32 0x504E9E94E0C65229AAF8CABE153380CC35DA3135E30129BC3195F7E031CDF82B CALLER PUSH1 0x2 DUP6 DUP2 SLOAD DUP2 LT PUSH2 0x1C31 JUMPI INVALID JUMPDEST SWAP1 PUSH1 0x0 MSTORE PUSH1 0x20 PUSH1 0x0 KECCAK256 SWAP1 PUSH1 0x2 MUL ADD PUSH1 0x1 ADD SLOAD PUSH1 0x40 MLOAD PUSH1 0x20 ADD PUSH2 0x1C54 SWAP3 SWAP2 SWAP1 PUSH2 0x26E4 JUMP JUMPDEST PUSH1 0x40 MLOAD PUSH1 0x20 DUP2 DUP4 SUB SUB DUP2 MSTORE SWAP1 PUSH1 0x40 MSTORE DUP1 MLOAD SWAP1 PUSH1 0x20 ADD KECCAK256 PUSH1 0x40 MLOAD PUSH2 0x1C77 SWAP2 SWAP1 PUSH2 0x2804 JUMP JUMPDEST PUSH1 0x40 MLOAD DUP1 SWAP2 SUB SWAP1 LOG1 PUSH32 0xB6F921ADE0DE8DA9E62E948D90AE6F2DD6B678679AD77753C75FE1B6D9A72004 PUSH1 0x40 MLOAD PUSH2 0x1CAC SWAP1 PUSH2 0x283F JUMP JUMPDEST PUSH1 0x40 MLOAD DUP1 SWAP2 SUB SWAP1 LOG1 JUMPDEST POP POP JUMPDEST DUP1 DUP1 PUSH1 0x1 ADD SWAP2 POP POP PUSH2 0x1A76 JUMP JUMPDEST POP JUMP JUMPDEST DUP3 DUP1 SLOAD PUSH1 0x1 DUP2 PUSH1 0x1 AND ISZERO PUSH2 0x100 MUL SUB AND PUSH1 0x2 SWAP1 DIV SWAP1 PUSH1 0x0 MSTORE PUSH1 0x20 PUSH1 0x0 KECCAK256 SWAP1 PUSH1 0x1F ADD PUSH1 0x20 SWAP1 DIV DUP2 ADD SWAP3 DUP3 PUSH1 0x1F LT PUSH2 0x1D09 JUMPI DUP1 MLOAD PUSH1 0xFF NOT AND DUP4 DUP1 ADD OR DUP6 SSTORE PUSH2 0x1D37 JUMP JUMPDEST DUP3 DUP1 ADD PUSH1 0x1 ADD DUP6 SSTORE DUP3 ISZERO PUSH2 0x1D37 JUMPI SWAP2 DUP3 ADD JUMPDEST DUP3 DUP2 GT ISZERO PUSH2 0x1D36 JUMPI DUP3 MLOAD DUP3 SSTORE SWAP2 PUSH1 0x20 ADD SWAP2 SWAP1 PUSH1 0x1 ADD SWAP1 PUSH2 0x1D1B JUMP JUMPDEST JUMPDEST POP SWAP1 POP PUSH2 0x1D44 SWAP2 SWAP1 PUSH2 0x1FE7 JUMP JUMPDEST POP SWAP1 JUMP JUMPDEST DUP3 DUP1 SLOAD PUSH1 0x1 DUP2 PUSH1 0x1 AND ISZERO PUSH2 0x100 MUL SUB AND PUSH1 0x2 SWAP1 DIV SWAP1 PUSH1 0x0 MSTORE PUSH1 0x20 PUSH1 0x0 KECCAK256 SWAP1 PUSH1 0x1F ADD PUSH1 0x20 SWAP1 DIV DUP2 ADD SWAP3 DUP3 PUSH1 0x1F LT PUSH2 0x1D81 JUMPI DUP1 SLOAD DUP6 SSTORE PUSH2 0x1DBE JUMP JUMPDEST DUP3 DUP1 ADD PUSH1 0x1 ADD DUP6 SSTORE DUP3 ISZERO PUSH2 0x1DBE JUMPI PUSH1 0x0 MSTORE PUSH1 0x20 PUSH1 0x0 KECCAK256 SWAP2 PUSH1 0x1F ADD PUSH1 0x20 SWAP1 DIV DUP3 ADD JUMPDEST DUP3 DUP2 GT ISZERO PUSH2 0x1DBD JUMPI DUP3 SLOAD DUP3 SSTORE SWAP2 PUSH1 0x1 ADD SWAP2 SWAP1 PUSH1 0x1 ADD SWAP1 PUSH2 0x1DA2 JUMP JUMPDEST JUMPDEST POP SWAP1 POP PUSH2 0x1DCB SWAP2 SWAP1 PUSH2 0x1FE7 JUMP JUMPDEST POP SWAP1 JUMP JUMPDEST POP DUP1 SLOAD PUSH1 0x1 DUP2 PUSH1 0x1 AND ISZERO PUSH2 0x100 MUL SUB AND PUSH1 0x2 SWAP1 DIV PUSH1 0x0 DUP3 SSTORE DUP1 PUSH1 0x1F LT PUSH2 0x1DF5 JUMPI POP PUSH2 0x1E14 JUMP JUMPDEST PUSH1 0x1F ADD PUSH1 0x20 SWAP1 DIV SWAP1 PUSH1 0x0 MSTORE PUSH1 0x20 PUSH1 0x0 KECCAK256 SWAP1 DUP2 ADD SWAP1 PUSH2 0x1E13 SWAP2 SWAP1 PUSH2 0x1FE7 JUMP JUMPDEST JUMPDEST POP JUMP JUMPDEST PUSH1 0x40 MLOAD DUP1 PUSH1 0x40 ADD PUSH1 0x40 MSTORE DUP1 PUSH1 0x0 PUSH20 0xFFFFFFFFFFFFFFFFFFFFFFFFFFFFFFFFFFFFFFFF AND DUP2 MSTORE PUSH1 0x20 ADD PUSH1 0x0 DUP2 MSTORE POP SWAP1 JUMP JUMPDEST PUSH1 0x40 MLOAD DUP1 PUSH1 0x80 ADD PUSH1 0x40 MSTORE DUP1 PUSH1 0x0 DUP2 MSTORE PUSH1 0x20 ADD PUSH1 0x60 DUP2 MSTORE PUSH1 0x20 ADD PUSH1 0x60 DUP2 MSTORE PUSH1 0x20 ADD PUSH1 0x60 DUP2 MSTORE POP SWAP1 JUMP JUMPDEST DUP3 DUP1 SLOAD DUP3 DUP3 SSTORE SWAP1 PUSH1 0x0 MSTORE PUSH1 0x20 PUSH1 0x0 KECCAK256 SWAP1 DUP2 ADD SWAP3 DUP3 ISZERO PUSH2 0x1EBE JUMPI SWAP2 PUSH1 0x20 MUL DUP3 ADD JUMPDEST DUP3 DUP2 GT ISZERO PUSH2 0x1EBD JUMPI DUP3 MLOAD DUP3 SWAP1 DUP1 MLOAD SWAP1 PUSH1 0x20 ADD SWAP1 PUSH2 0x1EAD SWAP3 SWAP2 SWAP1 PUSH2 0x1CC8 JUMP JUMPDEST POP SWAP2 PUSH1 0x20 ADD SWAP2 SWAP1 PUSH1 0x1 ADD SWAP1 PUSH2 0x1E8F JUMP JUMPDEST JUMPDEST POP SWAP1 POP PUSH2 0x1ECB SWAP2 SWAP1 PUSH2 0x2004 JUMP JUMPDEST POP SWAP1 JUMP JUMPDEST DUP3 DUP1 SLOAD PUSH1 0x1 DUP2 PUSH1 0x1 AND ISZERO PUSH2 0x100 MUL SUB AND PUSH1 0x2 SWAP1 DIV SWAP1 PUSH1 0x0 MSTORE PUSH1 0x20 PUSH1 0x0 KECCAK256 SWAP1 PUSH1 0x1F ADD PUSH1 0x20 SWAP1 DIV DUP2 ADD SWAP3 DUP3 PUSH1 0x1F LT PUSH2 0x1F08 JUMPI DUP1 SLOAD DUP6 SSTORE PUSH2 0x1F45 JUMP JUMPDEST DUP3 DUP1 ADD PUSH1 0x1 ADD DUP6 SSTORE DUP3 ISZERO PUSH2 0x1F45 JUMPI PUSH1 0x0 MSTORE PUSH1 0x20 PUSH1 0x0 KECCAK256 SWAP2 PUSH1 0x1F ADD PUSH1 0x20 SWAP1 DIV DUP3 ADD JUMPDEST DUP3 DUP2 GT ISZERO PUSH2 0x1F44 JUMPI DUP3 SLOAD DUP3 SSTORE SWAP2 PUSH1 0x1 ADD SWAP2 SWAP1 PUSH1 0x1 ADD SWAP1 PUSH2 0x1F29 JUMP JUMPDEST JUMPDEST POP SWAP1 POP PUSH2 0x1F52 SWAP2 SWAP1 PUSH2 0x1FE7 JUMP JUMPDEST POP SWAP1 JUMP JUMPDEST DUP3 DUP1 SLOAD DUP3 DUP3 SSTORE SWAP1 PUSH1 0x0 MSTORE PUSH1 0x20 PUSH1 0x0 KECCAK256 SWAP1 DUP2 ADD SWAP3 DUP3 ISZERO PUSH2 0x1FB5 JUMPI PUSH1 0x0 MSTORE PUSH1 0x20 PUSH1 0x0 KECCAK256 SWAP2 DUP3 ADD JUMPDEST DUP3 DUP2 GT ISZERO PUSH2 0x1FB4 JUMPI DUP3 DUP3 SWAP1 DUP1 SLOAD PUSH1 0x1 DUP2 PUSH1 0x1 AND ISZERO PUSH2 0x100 MUL SUB AND PUSH1 0x2 SWAP1 DIV PUSH2 0x1FA4 SWAP3 SWAP2 SWAP1 PUSH2 0x1ECF JUMP JUMPDEST POP SWAP2 PUSH1 0x1 ADD SWAP2 SWAP1 PUSH1 0x1 ADD SWAP1 PUSH2 0x1F7B JUMP JUMPDEST JUMPDEST POP SWAP1 POP PUSH2 0x1FC2 SWAP2 SWAP1 PUSH2 0x2004 JUMP JUMPDEST POP SWAP1 JUMP JUMPDEST POP DUP1 SLOAD PUSH1 0x0 DUP3 SSTORE SWAP1 PUSH1 0x0 MSTORE PUSH1 0x20 PUSH1 0x0 KECCAK256 SWAP1 DUP2 ADD SWAP1 PUSH2 0x1FE4 SWAP2 SWAP1 PUSH2 0x2004 JUMP JUMPDEST POP JUMP JUMPDEST JUMPDEST DUP1 DUP3 GT ISZERO PUSH2 0x2000 JUMPI PUSH1 0x0 DUP2 PUSH1 0x0 SWAP1 SSTORE POP PUSH1 0x1 ADD PUSH2 0x1FE8 JUMP JUMPDEST POP SWAP1 JUMP JUMPDEST JUMPDEST DUP1 DUP3 GT ISZERO PUSH2 0x2024 JUMPI PUSH1 0x0 DUP2 DUP2 PUSH2 0x201B SWAP2 SWAP1 PUSH2 0x1DCF JUMP JUMPDEST POP PUSH1 0x1 ADD PUSH2 0x2005 JUMP JUMPDEST POP SWAP1 JUMP JUMPDEST PUSH1 0x0 DUP2 CALLDATALOAD SWAP1 POP PUSH2 0x2037 DUP2 PUSH2 0x2ABD JUMP JUMPDEST SWAP3 SWAP2 POP POP JUMP JUMPDEST PUSH1 0x0 DUP2 CALLDATALOAD SWAP1 POP PUSH2 0x204C DUP2 PUSH2 0x2AD4 JUMP JUMPDEST SWAP3 SWAP2 POP POP JUMP JUMPDEST PUSH1 0x0 DUP3 PUSH1 0x1F DUP4 ADD SLT PUSH2 0x2063 JUMPI PUSH1 0x0 DUP1 REVERT JUMPDEST DUP2 CALLDATALOAD PUSH2 0x2076 PUSH2 0x2071 DUP3 PUSH2 0x28A7 JUMP JUMPDEST PUSH2 0x287A JUMP JUMPDEST SWAP2 POP DUP1 DUP3 MSTORE PUSH1 0x20 DUP4 ADD PUSH1 0x20 DUP4 ADD DUP6 DUP4 DUP4 ADD GT ISZERO PUSH2 0x2092 JUMPI PUSH1 0x0 DUP1 REVERT JUMPDEST PUSH2 0x209D DUP4 DUP3 DUP5 PUSH2 0x2A2F JUMP JUMPDEST POP POP POP SWAP3 SWAP2 POP POP JUMP JUMPDEST PUSH1 0x0 DUP2 CALLDATALOAD SWAP1 POP PUSH2 0x20B5 DUP2 PUSH2 0x2AEB JUMP JUMPDEST SWAP3 SWAP2 POP POP JUMP JUMPDEST PUSH1 0x0 PUSH1 0x20 DUP3 DUP5 SUB SLT ISZERO PUSH2 0x20CD JUMPI PUSH1 0x0 DUP1 REVERT JUMPDEST PUSH1 0x0 PUSH2 0x20DB DUP5 DUP3 DUP6 ADD PUSH2 0x2028 JUMP JUMPDEST SWAP2 POP POP SWAP3 SWAP2 POP POP JUMP JUMPDEST PUSH1 0x0 PUSH1 0x20 DUP3 DUP5 SUB SLT ISZERO PUSH2 0x20F6 JUMPI PUSH1 0x0 DUP1 REVERT JUMPDEST PUSH1 0x0 PUSH2 0x2104 DUP5 DUP3 DUP6 ADD PUSH2 0x203D JUMP JUMPDEST SWAP2 POP POP SWAP3 SWAP2 POP POP JUMP JUMPDEST PUSH1 0x0 DUP1 PUSH1 0x0 PUSH1 0x60 DUP5 DUP7 SUB SLT ISZERO PUSH2 0x2122 JUMPI PUSH1 0x0 DUP1 REVERT JUMPDEST PUSH1 0x0 PUSH2 0x2130 DUP7 DUP3 DUP8 ADD PUSH2 0x203D JUMP JUMPDEST SWAP4 POP POP PUSH1 0x20 PUSH2 0x2141 DUP7 DUP3 DUP8 ADD PUSH2 0x20A6 JUMP JUMPDEST SWAP3 POP POP PUSH1 0x40 DUP5 ADD CALLDATALOAD PUSH8 0xFFFFFFFFFFFFFFFF DUP2 GT ISZERO PUSH2 0x215E JUMPI PUSH1 0x0 DUP1 REVERT JUMPDEST PUSH2 0x216A DUP7 DUP3 DUP8 ADD PUSH2 0x2052 JUMP JUMPDEST SWAP2 POP POP SWAP3 POP SWAP3 POP SWAP3 JUMP JUMPDEST PUSH1 0x0 DUP1 PUSH1 0x0 DUP1 PUSH1 0x80 DUP6 DUP8 SUB SLT ISZERO PUSH2 0x218A JUMPI PUSH1 0x0 DUP1 REVERT JUMPDEST PUSH1 0x0 PUSH2 0x2198 DUP8 DUP3 DUP9 ADD PUSH2 0x203D JUMP JUMPDEST SWAP5 POP POP PUSH1 0x20 PUSH2 0x21A9 DUP8 DUP3 DUP9 ADD PUSH2 0x20A6 JUMP JUMPDEST SWAP4 POP POP PUSH1 0x40 DUP6 ADD CALLDATALOAD PUSH8 0xFFFFFFFFFFFFFFFF DUP2 GT ISZERO PUSH2 0x21C6 JUMPI PUSH1 0x0 DUP1 REVERT JUMPDEST PUSH2 0x21D2 DUP8 DUP3 DUP9 ADD PUSH2 0x2052 JUMP JUMPDEST SWAP3 POP POP PUSH1 0x60 DUP6 ADD CALLDATALOAD PUSH8 0xFFFFFFFFFFFFFFFF DUP2 GT ISZERO PUSH2 0x21EF JUMPI PUSH1 0x0 DUP1 REVERT JUMPDEST PUSH2 0x21FB DUP8 DUP3 DUP9 ADD PUSH2 0x2052 JUMP JUMPDEST SWAP2 POP POP SWAP3 SWAP6 SWAP2 SWAP5 POP SWAP3 POP JUMP JUMPDEST PUSH1 0x0 DUP1 PUSH1 0x40 DUP4 DUP6 SUB SLT ISZERO PUSH2 0x221A JUMPI PUSH1 0x0 DUP1 REVERT JUMPDEST PUSH1 0x0 DUP4 ADD CALLDATALOAD PUSH8 0xFFFFFFFFFFFFFFFF DUP2 GT ISZERO PUSH2 0x2234 JUMPI PUSH1 0x0 DUP1 REVERT JUMPDEST PUSH2 0x2240 DUP6 DUP3 DUP7 ADD PUSH2 0x2052 JUMP JUMPDEST SWAP3 POP POP PUSH1 0x20 DUP4 ADD CALLDATALOAD PUSH8 0xFFFFFFFFFFFFFFFF DUP2 GT ISZERO PUSH2 0x225D JUMPI PUSH1 0x0 DUP1 REVERT JUMPDEST PUSH2 0x2269 DUP6 DUP3 DUP7 ADD PUSH2 0x2052 JUMP JUMPDEST SWAP2 POP POP SWAP3 POP SWAP3 SWAP1 POP JUMP JUMPDEST PUSH1 0x0 PUSH1 0x20 DUP3 DUP5 SUB SLT ISZERO PUSH2 0x2285 JUMPI PUSH1 0x0 DUP1 REVERT JUMPDEST PUSH1 0x0 PUSH2 0x2293 DUP5 DUP3 DUP6 ADD PUSH2 0x20A6 JUMP JUMPDEST SWAP2 POP POP SWAP3 SWAP2 POP POP JUMP JUMPDEST PUSH1 0x0 DUP1 PUSH1 0x40 DUP4 DUP6 SUB SLT ISZERO PUSH2 0x22AF JUMPI PUSH1 0x0 DUP1 REVERT JUMPDEST PUSH1 0x0 PUSH2 0x22BD DUP6 DUP3 DUP7 ADD PUSH2 0x20A6 JUMP JUMPDEST SWAP3 POP POP PUSH1 0x20 DUP4 ADD CALLDATALOAD PUSH8 0xFFFFFFFFFFFFFFFF DUP2 GT ISZERO PUSH2 0x22DA JUMPI PUSH1 0x0 DUP1 REVERT JUMPDEST PUSH2 0x22E6 DUP6 DUP3 DUP7 ADD PUSH2 0x2052 JUMP JUMPDEST SWAP2 POP POP SWAP3 POP SWAP3 SWAP1 POP JUMP JUMPDEST PUSH1 0x0 DUP1 PUSH1 0x0 PUSH1 0x60 DUP5 DUP7 SUB SLT ISZERO PUSH2 0x2305 JUMPI PUSH1 0x0 DUP1 REVERT JUMPDEST PUSH1 0x0 PUSH2 0x2313 DUP7 DUP3 DUP8 ADD PUSH2 0x20A6 JUMP JUMPDEST SWAP4 POP POP PUSH1 0x20 DUP5 ADD CALLDATALOAD PUSH8 0xFFFFFFFFFFFFFFFF DUP2 GT ISZERO PUSH2 0x2330 JUMPI PUSH1 0x0 DUP1 REVERT JUMPDEST PUSH2 0x233C DUP7 DUP3 DUP8 ADD PUSH2 0x2052 JUMP JUMPDEST SWAP3 POP POP PUSH1 0x40 DUP5 ADD CALLDATALOAD PUSH8 0xFFFFFFFFFFFFFFFF DUP2 GT ISZERO PUSH2 0x2359 JUMPI PUSH1 0x0 DUP1 REVERT JUMPDEST PUSH2 0x2365 DUP7 DUP3 DUP8 ADD PUSH2 0x2052 JUMP JUMPDEST SWAP2 POP POP SWAP3 POP SWAP3 POP SWAP3 JUMP JUMPDEST PUSH1 0x0 PUSH2 0x237B DUP4 DUP4 PUSH2 0x23D9 JUMP JUMPDEST PUSH1 0x20 DUP4 ADD SWAP1 POP SWAP3 SWAP2 POP POP JUMP JUMPDEST PUSH1 0x0 PUSH2 0x2393 DUP4 DUP4 PUSH2 0x2537 JUMP JUMPDEST SWAP1 POP SWAP3 SWAP2 POP POP JUMP JUMPDEST PUSH1 0x0 PUSH2 0x23A7 DUP4 DUP4 PUSH2 0x26AF JUMP JUMPDEST PUSH1 0x20 DUP4 ADD SWAP1 POP SWAP3 SWAP2 POP POP JUMP JUMPDEST PUSH2 0x23BC DUP2 PUSH2 0x29DD JUMP JUMPDEST DUP3 MSTORE POP POP JUMP JUMPDEST PUSH2 0x23D3 PUSH2 0x23CE DUP3 PUSH2 0x29DD JUMP JUMPDEST PUSH2 0x2A71 JUMP JUMPDEST DUP3 MSTORE POP POP JUMP JUMPDEST PUSH2 0x23E2 DUP2 PUSH2 0x29CB JUMP JUMPDEST DUP3 MSTORE POP POP JUMP JUMPDEST PUSH1 0x0 PUSH2 0x23F3 DUP3 PUSH2 0x2918 JUMP JUMPDEST PUSH2 0x23FD DUP2 DUP6 PUSH2 0x296B JUMP JUMPDEST SWAP4 POP PUSH2 0x2408 DUP4 PUSH2 0x28D3 JUMP JUMPDEST DUP1 PUSH1 0x0 JUMPDEST DUP4 DUP2 LT ISZERO PUSH2 0x2439 JUMPI DUP2 MLOAD PUSH2 0x2420 DUP9 DUP3 PUSH2 0x236F JUMP JUMPDEST SWAP8 POP PUSH2 0x242B DUP4 PUSH2 0x2944 JUMP JUMPDEST SWAP3 POP POP PUSH1 0x1 DUP2 ADD SWAP1 POP PUSH2 0x240C JUMP JUMPDEST POP DUP6 SWAP4 POP POP POP POP SWAP3 SWAP2 POP POP JUMP JUMPDEST PUSH1 0x0 PUSH2 0x2451 DUP3 PUSH2 0x2923 JUMP JUMPDEST PUSH2 0x245B DUP2 DUP6 PUSH2 0x297C JUMP JUMPDEST SWAP4 POP DUP4 PUSH1 0x20 DUP3 MUL DUP6 ADD PUSH2 0x246D DUP6 PUSH2 0x28E3 JUMP JUMPDEST DUP1 PUSH1 0x0 JUMPDEST DUP6 DUP2 LT ISZERO PUSH2 0x24A9 JUMPI DUP5 DUP5 SUB DUP10 MSTORE DUP2 MLOAD PUSH2 0x248A DUP6 DUP3 PUSH2 0x2387 JUMP JUMPDEST SWAP5 POP PUSH2 0x2495 DUP4 PUSH2 0x2951 JUMP JUMPDEST SWAP3 POP PUSH1 0x20 DUP11 ADD SWAP10 POP POP PUSH1 0x1 DUP2 ADD SWAP1 POP PUSH2 0x2471 JUMP JUMPDEST POP DUP3 SWAP8 POP DUP8 SWAP6 POP POP POP POP POP POP SWAP3 SWAP2 POP POP JUMP JUMPDEST PUSH1 0x0 PUSH2 0x24C6 DUP3 PUSH2 0x292E JUMP JUMPDEST PUSH2 0x24D0 DUP2 DUP6 PUSH2 0x298D JUMP JUMPDEST SWAP4 POP PUSH2 0x24DB DUP4 PUSH2 0x28F3 JUMP JUMPDEST DUP1 PUSH1 0x0 JUMPDEST DUP4 DUP2 LT ISZERO PUSH2 0x250C JUMPI DUP2 MLOAD PUSH2 0x24F3 DUP9 DUP3 PUSH2 0x239B JUMP JUMPDEST SWAP8 POP PUSH2 0x24FE DUP4 PUSH2 0x295E JUMP JUMPDEST SWAP3 POP POP PUSH1 0x1 DUP2 ADD SWAP1 POP PUSH2 0x24DF JUMP JUMPDEST POP DUP6 SWAP4 POP POP POP POP SWAP3 SWAP2 POP POP JUMP JUMPDEST PUSH2 0x2522 DUP2 PUSH2 0x29EF JUMP JUMPDEST DUP3 MSTORE POP POP JUMP JUMPDEST PUSH2 0x2531 DUP2 PUSH2 0x29FB JUMP JUMPDEST DUP3 MSTORE POP POP JUMP JUMPDEST PUSH1 0x0 PUSH2 0x2542 DUP3 PUSH2 0x2939 JUMP JUMPDEST PUSH2 0x254C DUP2 DUP6 PUSH2 0x299E JUMP JUMPDEST SWAP4 POP PUSH2 0x255C DUP2 DUP6 PUSH1 0x20 DUP7 ADD PUSH2 0x2A3E JUMP JUMPDEST PUSH2 0x2565 DUP2 PUSH2 0x2A9F JUMP JUMPDEST DUP5 ADD SWAP2 POP POP SWAP3 SWAP2 POP POP JUMP JUMPDEST PUSH1 0x0 PUSH2 0x257B DUP3 PUSH2 0x2939 JUMP JUMPDEST PUSH2 0x2585 DUP2 DUP6 PUSH2 0x29C0 JUMP JUMPDEST SWAP4 POP PUSH2 0x2595 DUP2 DUP6 PUSH1 0x20 DUP7 ADD PUSH2 0x2A3E JUMP JUMPDEST DUP1 DUP5 ADD SWAP2 POP POP SWAP3 SWAP2 POP POP JUMP JUMPDEST PUSH1 0x0 DUP2 SLOAD PUSH1 0x1 DUP2 AND PUSH1 0x0 DUP2 EQ PUSH2 0x25BE JUMPI PUSH1 0x1 DUP2 EQ PUSH2 0x25E3 JUMPI PUSH2 0x2627 JUMP JUMPDEST PUSH1 0x7F PUSH1 0x2 DUP4 DIV AND PUSH2 0x25CF DUP2 DUP8 PUSH2 0x29C0 JUMP JUMPDEST SWAP6 POP PUSH1 0xFF NOT DUP4 AND DUP7 MSTORE DUP1 DUP7 ADD SWAP4 POP POP PUSH2 0x2627 JUMP JUMPDEST PUSH1 0x2 DUP3 DIV PUSH2 0x25F1 DUP2 DUP8 PUSH2 0x29C0 JUMP JUMPDEST SWAP6 POP PUSH2 0x25FC DUP6 PUSH2 0x2903 JUMP JUMPDEST PUSH1 0x0 JUMPDEST DUP3 DUP2 LT ISZERO PUSH2 0x261E JUMPI DUP2 SLOAD DUP2 DUP10 ADD MSTORE PUSH1 0x1 DUP3 ADD SWAP2 POP PUSH1 0x20 DUP2 ADD SWAP1 POP PUSH2 0x25FF JUMP JUMPDEST DUP3 DUP9 ADD SWAP6 POP POP POP POP JUMPDEST POP POP SWAP3 SWAP2 POP POP JUMP JUMPDEST PUSH1 0x0 PUSH2 0x263C PUSH1 0xC DUP4 PUSH2 0x29AF JUMP JUMPDEST SWAP2 POP PUSH32 0x746F6B656E206469756261680000000000000000000000000000000000000000 PUSH1 0x0 DUP4 ADD MSTORE PUSH1 0x20 DUP3 ADD SWAP1 POP SWAP2 SWAP1 POP JUMP JUMPDEST PUSH1 0x0 PUSH2 0x267C PUSH1 0x12 DUP4 PUSH2 0x29AF JUMP JUMPDEST SWAP2 POP PUSH32 0x746F6B656E20746964616B206469756261680000000000000000000000000000 PUSH1 0x0 DUP4 ADD MSTORE PUSH1 0x20 DUP3 ADD SWAP1 POP SWAP2 SWAP1 POP JUMP JUMPDEST PUSH2 0x26B8 DUP2 PUSH2 0x2A25 JUMP JUMPDEST DUP3 MSTORE POP POP JUMP JUMPDEST PUSH2 0x26C7 DUP2 PUSH2 0x2A25 JUMP JUMPDEST DUP3 MSTORE POP POP JUMP JUMPDEST PUSH2 0x26DE PUSH2 0x26D9 DUP3 PUSH2 0x2A25 JUMP JUMPDEST PUSH2 0x2A95 JUMP JUMPDEST DUP3 MSTORE POP POP JUMP JUMPDEST PUSH1 0x0 PUSH2 0x26F0 DUP3 DUP6 PUSH2 0x23C2 JUMP JUMPDEST PUSH1 0x14 DUP3 ADD SWAP2 POP PUSH2 0x2700 DUP3 DUP5 PUSH2 0x26CD JUMP JUMPDEST PUSH1 0x20 DUP3 ADD SWAP2 POP DUP2 SWAP1 POP SWAP4 SWAP3 POP POP POP JUMP JUMPDEST PUSH1 0x0 PUSH2 0x271C DUP3 DUP5 PUSH2 0x2570 JUMP JUMPDEST SWAP2 POP DUP2 SWAP1 POP SWAP3 SWAP2 POP POP JUMP JUMPDEST PUSH1 0x0 PUSH2 0x2733 DUP3 DUP5 PUSH2 0x25A1 JUMP JUMPDEST SWAP2 POP DUP2 SWAP1 POP SWAP3 SWAP2 POP POP JUMP JUMPDEST PUSH1 0x0 PUSH1 0x20 DUP3 ADD SWAP1 POP PUSH2 0x2753 PUSH1 0x0 DUP4 ADD DUP5 PUSH2 0x23B3 JUMP JUMPDEST SWAP3 SWAP2 POP POP JUMP JUMPDEST PUSH1 0x0 PUSH1 0x20 DUP3 ADD SWAP1 POP DUP2 DUP2 SUB PUSH1 0x0 DUP4 ADD MSTORE PUSH2 0x2773 DUP2 DUP5 PUSH2 0x23E8 JUMP JUMPDEST SWAP1 POP SWAP3 SWAP2 POP POP JUMP JUMPDEST PUSH1 0x0 PUSH1 0x20 DUP3 ADD SWAP1 POP DUP2 DUP2 SUB PUSH1 0x0 DUP4 ADD MSTORE PUSH2 0x2795 DUP2 DUP5 PUSH2 0x2446 JUMP JUMPDEST SWAP1 POP SWAP3 SWAP2 POP POP JUMP JUMPDEST PUSH1 0x0 PUSH1 0x60 DUP3 ADD SWAP1 POP DUP2 DUP2 SUB PUSH1 0x0 DUP4 ADD MSTORE PUSH2 0x27B7 DUP2 DUP7 PUSH2 0x24BB JUMP JUMPDEST SWAP1 POP DUP2 DUP2 SUB PUSH1 0x20 DUP4 ADD MSTORE PUSH2 0x27CB DUP2 DUP6 PUSH2 0x2446 JUMP JUMPDEST SWAP1 POP DUP2 DUP2 SUB PUSH1 0x40 DUP4 ADD MSTORE PUSH2 0x27DF DUP2 DUP5 PUSH2 0x2446 JUMP JUMPDEST SWAP1 POP SWAP5 SWAP4 POP POP POP POP JUMP JUMPDEST PUSH1 0x0 PUSH1 0x20 DUP3 ADD SWAP1 POP PUSH2 0x27FE PUSH1 0x0 DUP4 ADD DUP5 PUSH2 0x2519 JUMP JUMPDEST SWAP3 SWAP2 POP POP JUMP JUMPDEST PUSH1 0x0 PUSH1 0x20 DUP3 ADD SWAP1 POP PUSH2 0x2819 PUSH1 0x0 DUP4 ADD DUP5 PUSH2 0x2528 JUMP JUMPDEST SWAP3 SWAP2 POP POP JUMP JUMPDEST PUSH1 0x0 PUSH1 0x20 DUP3 ADD SWAP1 POP DUP2 DUP2 SUB PUSH1 0x0 DUP4 ADD MSTORE PUSH2 0x2838 DUP2 PUSH2 0x262F JUMP JUMPDEST SWAP1 POP SWAP2 SWAP1 POP JUMP JUMPDEST PUSH1 0x0 PUSH1 0x20 DUP3 ADD SWAP1 POP DUP2 DUP2 SUB PUSH1 0x0 DUP4 ADD MSTORE PUSH2 0x2858 DUP2 PUSH2 0x266F JUMP JUMPDEST SWAP1 POP SWAP2 SWAP1 POP JUMP JUMPDEST PUSH1 0x0 PUSH1 0x20 DUP3 ADD SWAP1 POP PUSH2 0x2874 PUSH1 0x0 DUP4 ADD DUP5 PUSH2 0x26BE JUMP JUMPDEST SWAP3 SWAP2 POP POP JUMP JUMPDEST PUSH1 0x0 PUSH1 0x40 MLOAD SWAP1 POP DUP2 DUP2 ADD DUP2 DUP2 LT PUSH8 0xFFFFFFFFFFFFFFFF DUP3 GT OR ISZERO PUSH2 0x289D JUMPI PUSH1 0x0 DUP1 REVERT JUMPDEST DUP1 PUSH1 0x40 MSTORE POP SWAP2 SWAP1 POP JUMP JUMPDEST PUSH1 0x0 PUSH8 0xFFFFFFFFFFFFFFFF DUP3 GT ISZERO PUSH2 0x28BE JUMPI PUSH1 0x0 DUP1 REVERT JUMPDEST PUSH1 0x1F NOT PUSH1 0x1F DUP4 ADD AND SWAP1 POP PUSH1 0x20 DUP2 ADD SWAP1 POP SWAP2 SWAP1 POP JUMP JUMPDEST PUSH1 0x0 DUP2 SWAP1 POP PUSH1 0x20 DUP3 ADD SWAP1 POP SWAP2 SWAP1 POP JUMP JUMPDEST PUSH1 0x0 DUP2 SWAP1 POP PUSH1 0x20 DUP3 ADD SWAP1 POP SWAP2 SWAP1 POP JUMP JUMPDEST PUSH1 0x0 DUP2 SWAP1 POP PUSH1 0x20 DUP3 ADD SWAP1 POP SWAP2 SWAP1 POP JUMP JUMPDEST PUSH1 0x0 DUP2 SWAP1 POP DUP2 PUSH1 0x0 MSTORE PUSH1 0x20 PUSH1 0x0 KECCAK256 SWAP1 POP SWAP2 SWAP1 POP JUMP JUMPDEST PUSH1 0x0 DUP2 MLOAD SWAP1 POP SWAP2 SWAP1 POP JUMP JUMPDEST PUSH1 0x0 DUP2 MLOAD SWAP1 POP SWAP2 SWAP1 POP JUMP JUMPDEST PUSH1 0x0 DUP2 MLOAD SWAP1 POP SWAP2 SWAP1 POP JUMP JUMPDEST PUSH1 0x0 DUP2 MLOAD SWAP1 POP SWAP2 SWAP1 POP JUMP JUMPDEST PUSH1 0x0 PUSH1 0x20 DUP3 ADD SWAP1 POP SWAP2 SWAP1 POP JUMP JUMPDEST PUSH1 0x0 PUSH1 0x20 DUP3 ADD SWAP1 POP SWAP2 SWAP1 POP JUMP JUMPDEST PUSH1 0x0 PUSH1 0x20 DUP3 ADD SWAP1 POP SWAP2 SWAP1 POP JUMP JUMPDEST PUSH1 0x0 DUP3 DUP3 MSTORE PUSH1 0x20 DUP3 ADD SWAP1 POP SWAP3 SWAP2 POP POP JUMP JUMPDEST PUSH1 0x0 DUP3 DUP3 MSTORE PUSH1 0x20 DUP3 ADD SWAP1 POP SWAP3 SWAP2 POP POP JUMP JUMPDEST PUSH1 0x0 DUP3 DUP3 MSTORE PUSH1 0x20 DUP3 ADD SWAP1 POP SWAP3 SWAP2 POP POP JUMP JUMPDEST PUSH1 0x0 DUP3 DUP3 MSTORE PUSH1 0x20 DUP3 ADD SWAP1 POP SWAP3 SWAP2 POP POP JUMP JUMPDEST PUSH1 0x0 DUP3 DUP3 MSTORE PUSH1 0x20 DUP3 ADD SWAP1 POP SWAP3 SWAP2 POP POP JUMP JUMPDEST PUSH1 0x0 DUP2 SWAP1 POP SWAP3 SWAP2 POP POP JUMP JUMPDEST PUSH1 0x0 PUSH2 0x29D6 DUP3 PUSH2 0x2A05 JUMP JUMPDEST SWAP1 POP SWAP2 SWAP1 POP JUMP JUMPDEST PUSH1 0x0 PUSH2 0x29E8 DUP3 PUSH2 0x2A05 JUMP JUMPDEST SWAP1 POP SWAP2 SWAP1 POP JUMP JUMPDEST PUSH1 0x0 DUP2 ISZERO ISZERO SWAP1 POP SWAP2 SWAP1 POP JUMP JUMPDEST PUSH1 0x0 DUP2 SWAP1 POP SWAP2 SWAP1 POP JUMP JUMPDEST PUSH1 0x0 PUSH20 0xFFFFFFFFFFFFFFFFFFFFFFFFFFFFFFFFFFFFFFFF DUP3 AND SWAP1 POP SWAP2 SWAP1 POP JUMP JUMPDEST PUSH1 0x0 DUP2 SWAP1 POP SWAP2 SWAP1 POP JUMP JUMPDEST DUP3 DUP2 DUP4 CALLDATACOPY PUSH1 0x0 DUP4 DUP4 ADD MSTORE POP POP POP JUMP JUMPDEST PUSH1 0x0 JUMPDEST DUP4 DUP2 LT ISZERO PUSH2 0x2A5C JUMPI DUP1 DUP3 ADD MLOAD DUP2 DUP5 ADD MSTORE PUSH1 0x20 DUP2 ADD SWAP1 POP PUSH2 0x2A41 JUMP JUMPDEST DUP4 DUP2 GT ISZERO PUSH2 0x2A6B JUMPI PUSH1 0x0 DUP5 DUP5 ADD MSTORE JUMPDEST POP POP POP POP JUMP JUMPDEST PUSH1 0x0 PUSH2 0x2A7C DUP3 PUSH2 0x2A83 JUMP JUMPDEST SWAP1 POP SWAP2 SWAP1 POP JUMP JUMPDEST PUSH1 0x0 PUSH2 0x2A8E DUP3 PUSH2 0x2AB0 JUMP JUMPDEST SWAP1 POP SWAP2 SWAP1 POP JUMP JUMPDEST PUSH1 0x0 DUP2 SWAP1 POP SWAP2 SWAP1 POP JUMP JUMPDEST PUSH1 0x0 PUSH1 0x1F NOT PUSH1 0x1F DUP4 ADD AND SWAP1 POP SWAP2 SWAP1 POP JUMP JUMPDEST PUSH1 0x0 DUP2 PUSH1 0x60 SHL SWAP1 POP SWAP2 SWAP1 POP JUMP JUMPDEST PUSH2 0x2AC6 DUP2 PUSH2 0x29DD JUMP JUMPDEST DUP2 EQ PUSH2 0x2AD1 JUMPI PUSH1 0x0 DUP1 REVERT JUMPDEST POP JUMP JUMPDEST PUSH2 0x2ADD DUP2 PUSH2 0x29FB JUMP JUMPDEST DUP2 EQ PUSH2 0x2AE8 JUMPI PUSH1 0x0 DUP1 REVERT JUMPDEST POP JUMP JUMPDEST PUSH2 0x2AF4 DUP2 PUSH2 0x2A25 JUMP JUMPDEST DUP2 EQ PUSH2 0x2AFF JUMPI PUSH1 0x0 DUP1 REVERT JUMPDEST POP JUMP INVALID LOG2 PUSH5 0x6970667358 0x22 SLT KECCAK256 0xBE 0xAF 0x25 GASLIMIT SWAP13 SWAP13 AND 0x2A SLT PUSH31 0x127010D8A6FCC078A6F78A406B743B24AD12E4CC274E64736F6C634300060C STOP CALLER "
    },
    "gasEstimates": {
      "creation": {
        "codeDepositCost": "2212800",
        "executionCost": "33254",
        "totalCost": "2246054"
      },
      "external": {
        "addBroker(address)": "105140",
        "addClient(string,string)": "infinite",
        "addTopic(uint256,string)": "infinite",
        "authenticate(bytes32,uint256,string,string)": "infinite",
        "authorize(bytes32,uint256,string)": "infinite",
        "checkAuthBroker(bytes32)": "infinite",
        "deleteBroker(address)": "infinite",
        "deleteClient(uint256)": "infinite",
        "deleteTopic(uint256,string)": "infinite",
        "getBroker()": "infinite",
        "getClients()": "infinite",
        "getClientsCount()": "2053",
        "getTopic(uint256)": "infinite",
        "manager()": "1234",
        "refreshToken()": "infinite",
        "updateTopic(uint256,string,string)": "infinite"
      }
    },
    "methodIdentifiers": {
      "addBroker(address)": "836cae65",
      "addClient(string,string)": "98173ff4",
      "addTopic(uint256,string)": "3276807a",
      "authenticate(bytes32,uint256,string,string)": "e58da61f",
      "authorize(bytes32,uint256,string)": "7909ce47",
      "checkAuthBroker(bytes32)": "bd28f228",
      "deleteBroker(address)": "1ee32b05",
      "deleteClient(uint256)": "a9cb1a36",
      "deleteTopic(uint256,string)": "42bb20e1",
      "getBroker()": "d1314ee0",
      "getClients()": "6db80995",
      "getClientsCount()": "30a66294",
      "getTopic(uint256)": "71658896",
      "manager()": "481c6a75",
      "refreshToken()": "fa6a04e4",
      "updateTopic(uint256,string,string)": "e8e5339a"
    }
  },
  "storageLayout": {
    "storage": [
      {
        "astId": 4,
        "contract": "Mqttbaru.sol:Mqttbaru",
        "label": "manager",
        "offset": 0,
        "slot": "0",
        "type": "t_address_payable"
      },
      {
        "astId": 22,
        "contract": "Mqttbaru.sol:Mqttbaru",
        "label": "clientLedger",
        "offset": 0,
        "slot": "1",
        "type": "t_array(t_struct(Client)14_storage)dyn_storage"
      },
      {
        "astId": 25,
        "contract": "Mqttbaru.sol:Mqttbaru",
        "label": "brokerAddress",
        "offset": 0,
        "slot": "2",
        "type": "t_array(t_struct(Broker)19_storage)dyn_storage"
      },
      {
        "astId": 29,
        "contract": "Mqttbaru.sol:Mqttbaru",
        "label": "brokerValidity",
        "offset": 0,
        "slot": "3",
        "type": "t_mapping(t_address,t_bool)"
      },
      {
        "astId": 31,
        "contract": "Mqttbaru.sol:Mqttbaru",
        "label": "clientCount",
        "offset": 0,
        "slot": "4",
        "type": "t_uint256"
      },
      {
        "astId": 33,
        "contract": "Mqttbaru.sol:Mqttbaru",
        "label": "brokerCount",
        "offset": 0,
        "slot": "5",
        "type": "t_uint256"
      },
      {
        "astId": 35,
        "contract": "Mqttbaru.sol:Mqttbaru",
        "label": "idCount",
        "offset": 0,
        "slot": "6",
        "type": "t_uint256"
      }
    ],
    "types": {
      "t_address": {
        "encoding": "inplace",
        "label": "address",
        "numberOfBytes": "20"
      },
      "t_address_payable": {
        "encoding": "inplace",
        "label": "address payable",
        "numberOfBytes": "20"
      },
      "t_array(t_string_storage)dyn_storage": {
        "base": "t_string_storage",
        "encoding": "dynamic_array",
        "label": "string[]",
        "numberOfBytes": "32"
      },
      "t_array(t_struct(Broker)19_storage)dyn_storage": {
        "base": "t_struct(Broker)19_storage",
        "encoding": "dynamic_array",
        "label": "struct Mqttbaru.Broker[]",
        "numberOfBytes": "32"
      },
      "t_array(t_struct(Client)14_storage)dyn_storage": {
        "base": "t_struct(Client)14_storage",
        "encoding": "dynamic_array",
        "label": "struct Mqttbaru.Client[]",
        "numberOfBytes": "32"
      },
      "t_bool": {
        "encoding": "inplace",
        "label": "bool",
        "numberOfBytes": "1"
      },
      "t_mapping(t_address,t_bool)": {
        "encoding": "mapping",
        "key": "t_address",
        "label": "mapping(address => bool)",
        "numberOfBytes": "32",
        "value": "t_bool"
      },
      "t_string_storage": {
        "encoding": "bytes",
        "label": "string",
        "numberOfBytes": "32"
      },
      "t_struct(Broker)19_storage": {
        "encoding": "inplace",
        "label": "struct Mqttbaru.Broker",
        "members": [
          {
            "astId": 16,
            "contract": "Mqttbaru.sol:Mqttbaru",
            "label": "broker_address",
            "offset": 0,
            "slot": "0",
            "type": "t_address_payable"
          },
          {
            "astId": 18,
            "contract": "Mqttbaru.sol:Mqttbaru",
            "label": "timestamp",
            "offset": 0,
            "slot": "1",
            "type": "t_uint256"
          }
        ],
        "numberOfBytes": "64"
      },
      "t_struct(Client)14_storage": {
        "encoding": "inplace",
        "label": "struct Mqttbaru.Client",
        "members": [
          {
            "astId": 6,
            "contract": "Mqttbaru.sol:Mqttbaru",
            "label": "id",
            "offset": 0,
            "slot": "0",
            "type": "t_uint256"
          },
          {
            "astId": 8,
            "contract": "Mqttbaru.sol:Mqttbaru",
            "label": "username",
            "offset": 0,
            "slot": "1",
            "type": "t_string_storage"
          },
          {
            "astId": 10,
            "contract": "Mqttbaru.sol:Mqttbaru",
            "label": "password",
            "offset": 0,
            "slot": "2",
            "type": "t_string_storage"
          },
          {
            "astId": 13,
            "contract": "Mqttbaru.sol:Mqttbaru",
            "label": "topic",
            "offset": 0,
            "slot": "3",
            "type": "t_array(t_string_storage)dyn_storage"
          }
        ],
        "numberOfBytes": "128"
      },
      "t_uint256": {
        "encoding": "inplace",
        "label": "uint256",
        "numberOfBytes": "32"
      }
    }
  },
  "userdoc": {
    "kind": "user",
    "methods": {},
    "version": 1
  }
}