{
  "abi": [
    {
      "inputs": [],
      "stateMutability": "nonpayable",
      "type": "constructor"
    },
    {
      "anonymous": false,
      "inputs": [
        {
          "indexed": false,
          "internalType": "string",
          "name": "logerror",
          "type": "string"
        }
      ],
      "name": "check",
      "type": "event"
    },
    {
      "anonymous": false,
      "inputs": [
        {
          "indexed": false,
          "internalType": "bytes32",
          "name": "_tokenreturn",
          "type": "bytes32"
        }
      ],
      "name": "ref_token",
      "type": "event"
    },
    {
      "inputs": [
        {
          "internalType": "address payable",
          "name": "_brokeraddress",
          "type": "address"
        }
      ],
      "name": "addBroker",
      "outputs": [],
      "stateMutability": "nonpayable",
      "type": "function"
    },
    {
      "inputs": [
        {
          "internalType": "string",
          "name": "_username",
          "type": "string"
        },
        {
          "internalType": "string",
          "name": "_password",
          "type": "string"
        }
      ],
      "name": "addClient",
      "outputs": [],
      "stateMutability": "nonpayable",
      "type": "function"
    },
    {
      "inputs": [
        {
          "internalType": "uint256",
          "name": "_id",
          "type": "uint256"
        },
        {
          "internalType": "string",
          "name": "_topic",
          "type": "string"
        }
      ],
      "name": "addTopic",
      "outputs": [],
      "stateMutability": "nonpayable",
      "type": "function"
    },
    {
      "inputs": [
        {
          "internalType": "bytes32",
          "name": "_token",
          "type": "bytes32"
        },
        {
          "internalType": "uint256",
          "name": "_id",
          "type": "uint256"
        },
        {
          "internalType": "string",
          "name": "_username",
          "type": "string"
        },
        {
          "internalType": "string",
          "name": "_password",
          "type": "string"
        }
      ],
      "name": "authenticate",
      "outputs": [
        {
          "internalType": "bool",
          "name": "",
          "type": "bool"
        }
      ],
      "stateMutability": "view",
      "type": "function"
    },
    {
      "inputs": [
        {
          "internalType": "bytes32",
          "name": "_token",
          "type": "bytes32"
        },
        {
          "internalType": "uint256",
          "name": "_id",
          "type": "uint256"
        },
        {
          "internalType": "string",
          "name": "_topic",
          "type": "string"
        }
      ],
      "name": "authorize",
      "outputs": [
        {
          "internalType": "bool",
          "name": "",
          "type": "bool"
        }
      ],
      "stateMutability": "view",
      "type": "function"
    },
    {
      "inputs": [
        {
          "internalType": "address payable",
          "name": "_brokeraddress",
          "type": "address"
        }
      ],
      "name": "deleteBroker",
      "outputs": [],
      "stateMutability": "nonpayable",
      "type": "function"
    },
    {
      "inputs": [
        {
          "internalType": "uint256",
          "name": "_id",
          "type": "uint256"
        }
      ],
      "name": "deleteClient",
      "outputs": [],
      "stateMutability": "nonpayable",
      "type": "function"
    },
    {
      "inputs": [
        {
          "internalType": "uint256",
          "name": "_id",
          "type": "uint256"
        },
        {
          "internalType": "string",
          "name": "_topic",
          "type": "string"
        }
      ],
      "name": "deleteTopic",
      "outputs": [],
      "stateMutability": "nonpayable",
      "type": "function"
    },
    {
      "inputs": [],
      "name": "getBroker",
      "outputs": [
        {
          "internalType": "address[]",
          "name": "",
          "type": "address[]"
        }
      ],
      "stateMutability": "view",
      "type": "function"
    },
    {
      "inputs": [
        {
          "internalType": "address",
          "name": "_address",
          "type": "address"
        }
      ],
      "name": "getBrokerToken",
      "outputs": [
        {
          "internalType": "bytes32",
          "name": "",
          "type": "bytes32"
        }
      ],
      "stateMutability": "view",
      "type": "function"
    },
    {
      "inputs": [],
      "name": "getBrokersCount",
      "outputs": [
        {
          "internalType": "uint256",
          "name": "",
          "type": "uint256"
        }
      ],
      "stateMutability": "view",
      "type": "function"
    },
    {
      "inputs": [],
      "name": "getClients",
      "outputs": [
        {
          "internalType": "uint256[]",
          "name": "",
          "type": "uint256[]"
        },
        {
          "internalType": "string[]",
          "name": "",
          "type": "string[]"
        },
        {
          "internalType": "string[]",
          "name": "",
          "type": "string[]"
        }
      ],
      "stateMutability": "view",
      "type": "function"
    },
    {
      "inputs": [],
      "name": "getClientsCount",
      "outputs": [
        {
          "internalType": "uint256",
          "name": "",
          "type": "uint256"
        }
      ],
      "stateMutability": "view",
      "type": "function"
    },
    {
      "inputs": [
        {
          "internalType": "uint256",
          "name": "_id",
          "type": "uint256"
        }
      ],
      "name": "getTopic",
      "outputs": [
        {
          "internalType": "string[]",
          "name": "",
          "type": "string[]"
        }
      ],
      "stateMutability": "view",
      "type": "function"
    },
    {
      "inputs": [],
      "name": "manager",
      "outputs": [
        {
          "internalType": "address payable",
          "name": "",
          "type": "address"
        }
      ],
      "stateMutability": "view",
      "type": "function"
    },
    {
      "inputs": [],
      "name": "refreshToken",
      "outputs": [],
      "stateMutability": "nonpayable",
      "type": "function"
    },
    {
      "inputs": [
        {
          "internalType": "uint256",
          "name": "_id",
          "type": "uint256"
        },
        {
          "internalType": "string",
          "name": "_topic",
          "type": "string"
        },
        {
          "internalType": "string",
          "name": "_newtopic",
          "type": "string"
        }
      ],
      "name": "updateTopic",
      "outputs": [],
      "stateMutability": "nonpayable",
      "type": "function"
    }
  ],
  "devdoc": {
    "kind": "dev",
    "methods": {},
    "version": 1
  },
  "evm": {
    "assembly": "    /* \"Mqttbaru.sol\":99:9257  contract Mqttbaru {\r... */\n  mstore(0x40, 0x80)\n    /* \"Mqttbaru.sol\":679:814  constructor () public {\r... */\n  callvalue\n  dup1\n  iszero\n  tag_1\n  jumpi\n  0x00\n  dup1\n  revert\ntag_1:\n  pop\n    /* \"Mqttbaru.sol\":722:732  msg.sender */\n  caller\n    /* \"Mqttbaru.sol\":712:719  manager */\n  0x00\n  dup1\n    /* \"Mqttbaru.sol\":712:732  manager = msg.sender */\n  0x0100\n  exp\n  dup2\n  sload\n  dup2\n  0xffffffffffffffffffffffffffffffffffffffff\n  mul\n  not\n  and\n  swap1\n  dup4\n  0xffffffffffffffffffffffffffffffffffffffff\n  and\n  mul\n  or\n  swap1\n  sstore\n  pop\n    /* \"Mqttbaru.sol\":757:758  0 */\n  0x00\n    /* \"Mqttbaru.sol\":743:754  clientCount */\n  0x05\n    /* \"Mqttbaru.sol\":743:758  clientCount = 0 */\n  dup2\n  swap1\n  sstore\n  pop\n    /* \"Mqttbaru.sol\":783:784  0 */\n  0x00\n    /* \"Mqttbaru.sol\":769:780  brokerCount */\n  0x06\n    /* \"Mqttbaru.sol\":769:784  brokerCount = 0 */\n  dup2\n  swap1\n  sstore\n  pop\n    /* \"Mqttbaru.sol\":805:806  0 */\n  0x00\n    /* \"Mqttbaru.sol\":795:802  idCount */\n  0x07\n    /* \"Mqttbaru.sol\":795:806  idCount = 0 */\n  dup2\n  swap1\n  sstore\n  pop\n    /* \"Mqttbaru.sol\":99:9257  contract Mqttbaru {\r... */\n  dataSize(sub_0)\n  dup1\n  dataOffset(sub_0)\n  0x00\n  codecopy\n  0x00\n  return\nstop\n\nsub_0: assembly {\n        /* \"Mqttbaru.sol\":99:9257  contract Mqttbaru {\r... */\n      mstore(0x40, 0x80)\n      callvalue\n      dup1\n      iszero\n      tag_1\n      jumpi\n      0x00\n      dup1\n      revert\n    tag_1:\n      pop\n      jumpi(tag_2, lt(calldatasize, 0x04))\n      shr(0xe0, calldataload(0x00))\n      dup1\n      0x71658896\n      gt\n      tag_20\n      jumpi\n      dup1\n      0xa9cb1a36\n      gt\n      tag_21\n      jumpi\n      dup1\n      0xa9cb1a36\n      eq\n      tag_15\n      jumpi\n      dup1\n      0xd1314ee0\n      eq\n      tag_16\n      jumpi\n      dup1\n      0xe58da61f\n      eq\n      tag_17\n      jumpi\n      dup1\n      0xe8e5339a\n      eq\n      tag_18\n      jumpi\n      dup1\n      0xfa6a04e4\n      eq\n      tag_19\n      jumpi\n      jump(tag_2)\n    tag_21:\n      dup1\n      0x71658896\n      eq\n      tag_11\n      jumpi\n      dup1\n      0x7909ce47\n      eq\n      tag_12\n      jumpi\n      dup1\n      0x836cae65\n      eq\n      tag_13\n      jumpi\n      dup1\n      0x98173ff4\n      eq\n      tag_14\n      jumpi\n      jump(tag_2)\n    tag_20:\n      dup1\n      0x416a5d81\n      gt\n      tag_22\n      jumpi\n      dup1\n      0x416a5d81\n      eq\n      tag_7\n      jumpi\n      dup1\n      0x42bb20e1\n      eq\n      tag_8\n      jumpi\n      dup1\n      0x481c6a75\n      eq\n      tag_9\n      jumpi\n      dup1\n      0x6db80995\n      eq\n      tag_10\n      jumpi\n      jump(tag_2)\n    tag_22:\n      dup1\n      0x0344248b\n      eq\n      tag_3\n      jumpi\n      dup1\n      0x1ee32b05\n      eq\n      tag_4\n      jumpi\n      dup1\n      0x30a66294\n      eq\n      tag_5\n      jumpi\n      dup1\n      0x3276807a\n      eq\n      tag_6\n      jumpi\n    tag_2:\n      0x00\n      dup1\n      revert\n        /* \"Mqttbaru.sol\":3226:3354  function getBrokerToken(address _address) isManager public view returns (bytes32) {\r... */\n    tag_3:\n      tag_23\n      0x04\n      dup1\n      calldatasize\n      sub\n      dup2\n      add\n      swap1\n      tag_24\n      swap2\n      swap1\n      tag_25\n      jump\t// in\n    tag_24:\n      tag_26\n      jump\t// in\n    tag_23:\n      mload(0x40)\n      tag_27\n      swap2\n      swap1\n      tag_28\n      jump\t// in\n    tag_27:\n      mload(0x40)\n      dup1\n      swap2\n      sub\n      swap1\n      return\n        /* \"Mqttbaru.sol\":3366:3971  function deleteBroker(address payable _brokeraddress) isManager public {\r... */\n    tag_4:\n      tag_29\n      0x04\n      dup1\n      calldatasize\n      sub\n      dup2\n      add\n      swap1\n      tag_30\n      swap2\n      swap1\n      tag_31\n      jump\t// in\n    tag_30:\n      tag_32\n      jump\t// in\n    tag_29:\n      stop\n        /* \"Mqttbaru.sol\":3000:3101  function getClientsCount() isManager public view returns (uint) {\r... */\n    tag_5:\n      tag_33\n      tag_34\n      jump\t// in\n    tag_33:\n      mload(0x40)\n      tag_35\n      swap2\n      swap1\n      tag_36\n      jump\t// in\n    tag_35:\n      mload(0x40)\n      dup1\n      swap2\n      sub\n      swap1\n      return\n        /* \"Mqttbaru.sol\":5500:6149  function addTopic(uint _id, string memory _topic) isManager public {\r... */\n    tag_6:\n      tag_37\n      0x04\n      dup1\n      calldatasize\n      sub\n      dup2\n      add\n      swap1\n      tag_38\n      swap2\n      swap1\n      tag_39\n      jump\t// in\n    tag_38:\n      tag_40\n      jump\t// in\n    tag_37:\n      stop\n        /* \"Mqttbaru.sol\":3113:3214  function getBrokersCount() isManager public view returns (uint) {\r... */\n    tag_7:\n      tag_41\n      tag_42\n      jump\t// in\n    tag_41:\n      mload(0x40)\n      tag_43\n      swap2\n      swap1\n      tag_36\n      jump\t// in\n    tag_43:\n      mload(0x40)\n      dup1\n      swap2\n      sub\n      swap1\n      return\n        /* \"Mqttbaru.sol\":4321:4923  function deleteTopic(uint _id, string memory _topic) isManager public {\r... */\n    tag_8:\n      tag_44\n      0x04\n      dup1\n      calldatasize\n      sub\n      dup2\n      add\n      swap1\n      tag_45\n      swap2\n      swap1\n      tag_39\n      jump\t// in\n    tag_45:\n      tag_46\n      jump\t// in\n    tag_44:\n      stop\n        /* \"Mqttbaru.sol\":130:160  address payable public manager */\n    tag_9:\n      tag_47\n      tag_48\n      jump\t// in\n    tag_47:\n      mload(0x40)\n      tag_49\n      swap2\n      swap1\n      tag_50\n      jump\t// in\n    tag_49:\n      mload(0x40)\n      dup1\n      swap2\n      sub\n      swap1\n      return\n        /* \"Mqttbaru.sol\":7113:7729  function getClients() public isManager view returns (uint[] memory, string[] memory, string[] memory) {\r... */\n    tag_10:\n      tag_51\n      tag_52\n      jump\t// in\n    tag_51:\n      mload(0x40)\n      tag_53\n      swap4\n      swap3\n      swap2\n      swap1\n      tag_54\n      jump\t// in\n    tag_53:\n      mload(0x40)\n      dup1\n      swap2\n      sub\n      swap1\n      return\n        /* \"Mqttbaru.sol\":4935:5488  function getTopic(uint _id) isManager public view returns(string[] memory){\r... */\n    tag_11:\n      tag_55\n      0x04\n      dup1\n      calldatasize\n      sub\n      dup2\n      add\n      swap1\n      tag_56\n      swap2\n      swap1\n      tag_57\n      jump\t// in\n    tag_56:\n      tag_58\n      jump\t// in\n    tag_55:\n      mload(0x40)\n      tag_59\n      swap2\n      swap1\n      tag_60\n      jump\t// in\n    tag_59:\n      mload(0x40)\n      dup1\n      swap2\n      sub\n      swap1\n      return\n        /* \"Mqttbaru.sol\":8284:8828  function authorize(bytes32 _token, uint _id, string memory _topic) brokerIsAuth(_token) public view returns(bool) {\r... */\n    tag_12:\n      tag_61\n      0x04\n      dup1\n      calldatasize\n      sub\n      dup2\n      add\n      swap1\n      tag_62\n      swap2\n      swap1\n      tag_63\n      jump\t// in\n    tag_62:\n      tag_64\n      jump\t// in\n    tag_61:\n      mload(0x40)\n      tag_65\n      swap2\n      swap1\n      tag_66\n      jump\t// in\n    tag_65:\n      mload(0x40)\n      dup1\n      swap2\n      sub\n      swap1\n      return\n        /* \"Mqttbaru.sol\":2639:2987  function addBroker(address payable _brokeraddress) public isManager {\r... */\n    tag_13:\n      tag_67\n      0x04\n      dup1\n      calldatasize\n      sub\n      dup2\n      add\n      swap1\n      tag_68\n      swap2\n      swap1\n      tag_31\n      jump\t// in\n    tag_68:\n      tag_69\n      jump\t// in\n    tag_67:\n      stop\n        /* \"Mqttbaru.sol\":6161:6525  function addClient(string memory _username, string memory _password) isManager public {\r... */\n    tag_14:\n      tag_70\n      0x04\n      dup1\n      calldatasize\n      sub\n      dup2\n      add\n      swap1\n      tag_71\n      swap2\n      swap1\n      tag_72\n      jump\t// in\n    tag_71:\n      tag_73\n      jump\t// in\n    tag_70:\n      stop\n        /* \"Mqttbaru.sol\":3983:4309  function deleteClient(uint _id) isManager public {\r... */\n    tag_15:\n      tag_74\n      0x04\n      dup1\n      calldatasize\n      sub\n      dup2\n      add\n      swap1\n      tag_75\n      swap2\n      swap1\n      tag_57\n      jump\t// in\n    tag_75:\n      tag_76\n      jump\t// in\n    tag_74:\n      stop\n        /* \"Mqttbaru.sol\":1903:2200  function getBroker() public isManager view returns (address[] memory){\r... */\n    tag_16:\n      tag_77\n      tag_78\n      jump\t// in\n    tag_77:\n      mload(0x40)\n      tag_79\n      swap2\n      swap1\n      tag_80\n      jump\t// in\n    tag_79:\n      mload(0x40)\n      dup1\n      swap2\n      sub\n      swap1\n      return\n        /* \"Mqttbaru.sol\":7741:8272  function authenticate(bytes32 _token, uint _id, string memory _username, string memory _password) brokerIsAuth(_token) public view returns (bool) {\r... */\n    tag_17:\n      tag_81\n      0x04\n      dup1\n      calldatasize\n      sub\n      dup2\n      add\n      swap1\n      tag_82\n      swap2\n      swap1\n      tag_83\n      jump\t// in\n    tag_82:\n      tag_84\n      jump\t// in\n    tag_81:\n      mload(0x40)\n      tag_85\n      swap2\n      swap1\n      tag_66\n      jump\t// in\n    tag_85:\n      mload(0x40)\n      dup1\n      swap2\n      sub\n      swap1\n      return\n        /* \"Mqttbaru.sol\":6543:7101  function updateTopic(uint _id, string memory _topic, string memory _newtopic) isManager public{\r... */\n    tag_18:\n      tag_86\n      0x04\n      dup1\n      calldatasize\n      sub\n      dup2\n      add\n      swap1\n      tag_87\n      swap2\n      swap1\n      tag_88\n      jump\t// in\n    tag_87:\n      tag_89\n      jump\t// in\n    tag_86:\n      stop\n        /* \"Mqttbaru.sol\":911:1891  function refreshToken() public isBroker {\r... */\n    tag_19:\n      tag_90\n      tag_91\n      jump\t// in\n    tag_90:\n      stop\n        /* \"Mqttbaru.sol\":3226:3354  function getBrokerToken(address _address) isManager public view returns (bytes32) {\r... */\n    tag_26:\n        /* \"Mqttbaru.sol\":3299:3306  bytes32 */\n      0x00\n        /* \"Mqttbaru.sol\":8894:8901  manager */\n      dup1\n      0x00\n      swap1\n      sload\n      swap1\n      0x0100\n      exp\n      swap1\n      div\n      0xffffffffffffffffffffffffffffffffffffffff\n      and\n        /* \"Mqttbaru.sol\":8880:8901  msg.sender == manager */\n      0xffffffffffffffffffffffffffffffffffffffff\n      and\n        /* \"Mqttbaru.sol\":8880:8890  msg.sender */\n      caller\n        /* \"Mqttbaru.sol\":8880:8901  msg.sender == manager */\n      0xffffffffffffffffffffffffffffffffffffffff\n      and\n      eq\n        /* \"Mqttbaru.sol\":8872:8902  require(msg.sender == manager) */\n      tag_93\n      jumpi\n      0x00\n      dup1\n      revert\n    tag_93:\n        /* \"Mqttbaru.sol\":3326:3336  tokenSlots */\n      0x04\n        /* \"Mqttbaru.sol\":3326:3346  tokenSlots[_address] */\n      0x00\n        /* \"Mqttbaru.sol\":3337:3345  _address */\n      dup4\n        /* \"Mqttbaru.sol\":3326:3346  tokenSlots[_address] */\n      0xffffffffffffffffffffffffffffffffffffffff\n      and\n      0xffffffffffffffffffffffffffffffffffffffff\n      and\n      dup2\n      mstore\n      0x20\n      add\n      swap1\n      dup2\n      mstore\n      0x20\n      add\n      0x00\n      keccak256\n      sload\n        /* \"Mqttbaru.sol\":3319:3346  return tokenSlots[_address] */\n      swap1\n      pop\n        /* \"Mqttbaru.sol\":3226:3354  function getBrokerToken(address _address) isManager public view returns (bytes32) {\r... */\n      swap2\n      swap1\n      pop\n      jump\t// out\n        /* \"Mqttbaru.sol\":3366:3971  function deleteBroker(address payable _brokeraddress) isManager public {\r... */\n    tag_32:\n        /* \"Mqttbaru.sol\":8894:8901  manager */\n      0x00\n      dup1\n      sload\n      swap1\n      0x0100\n      exp\n      swap1\n      div\n      0xffffffffffffffffffffffffffffffffffffffff\n      and\n        /* \"Mqttbaru.sol\":8880:8901  msg.sender == manager */\n      0xffffffffffffffffffffffffffffffffffffffff\n      and\n        /* \"Mqttbaru.sol\":8880:8890  msg.sender */\n      caller\n        /* \"Mqttbaru.sol\":8880:8901  msg.sender == manager */\n      0xffffffffffffffffffffffffffffffffffffffff\n      and\n      eq\n        /* \"Mqttbaru.sol\":8872:8902  require(msg.sender == manager) */\n      tag_96\n      jumpi\n      0x00\n      dup1\n      revert\n    tag_96:\n        /* \"Mqttbaru.sol\":3452:3458  uint i */\n      0x00\n        /* \"Mqttbaru.sol\":3448:3964  for(uint i = 0; i < brokerAddress.length; i++){\r... */\n    tag_98:\n        /* \"Mqttbaru.sol\":3468:3481  brokerAddress */\n      0x02\n        /* \"Mqttbaru.sol\":3468:3488  brokerAddress.length */\n      dup1\n      sload\n      swap1\n      pop\n        /* \"Mqttbaru.sol\":3464:3465  i */\n      dup2\n        /* \"Mqttbaru.sol\":3464:3488  i < brokerAddress.length */\n      lt\n        /* \"Mqttbaru.sol\":3448:3964  for(uint i = 0; i < brokerAddress.length; i++){\r... */\n      iszero\n      tag_99\n      jumpi\n        /* \"Mqttbaru.sol\":3530:3543  brokerAddress */\n      0x02\n        /* \"Mqttbaru.sol\":3544:3545  i */\n      dup2\n        /* \"Mqttbaru.sol\":3530:3546  brokerAddress[i] */\n      dup2\n      sload\n      dup2\n      lt\n      tag_101\n      jumpi\n      invalid\n    tag_101:\n      swap1\n      0x00\n      mstore\n      keccak256(0x00, 0x20)\n      swap1\n      0x02\n      mul\n      add\n        /* \"Mqttbaru.sol\":3530:3561  brokerAddress[i].broker_address */\n      0x00\n      add\n      0x00\n      swap1\n      sload\n      swap1\n      0x0100\n      exp\n      swap1\n      div\n      0xffffffffffffffffffffffffffffffffffffffff\n      and\n        /* \"Mqttbaru.sol\":3512:3561  _brokeraddress == brokerAddress[i].broker_address */\n      0xffffffffffffffffffffffffffffffffffffffff\n      and\n        /* \"Mqttbaru.sol\":3512:3526  _brokeraddress */\n      dup3\n        /* \"Mqttbaru.sol\":3512:3561  _brokeraddress == brokerAddress[i].broker_address */\n      0xffffffffffffffffffffffffffffffffffffffff\n      and\n      eq\n        /* \"Mqttbaru.sol\":3509:3953  if(_brokeraddress == brokerAddress[i].broker_address){\r... */\n      iszero\n      tag_103\n      jumpi\n        /* \"Mqttbaru.sol\":3614:3619  false */\n      0x00\n        /* \"Mqttbaru.sol\":3581:3595  brokerValidity */\n      0x03\n        /* \"Mqttbaru.sol\":3581:3611  brokerValidity[_brokeraddress] */\n      0x00\n        /* \"Mqttbaru.sol\":3596:3610  _brokeraddress */\n      dup5\n        /* \"Mqttbaru.sol\":3581:3611  brokerValidity[_brokeraddress] */\n      0xffffffffffffffffffffffffffffffffffffffff\n      and\n      0xffffffffffffffffffffffffffffffffffffffff\n      and\n      dup2\n      mstore\n      0x20\n      add\n      swap1\n      dup2\n      mstore\n      0x20\n      add\n      0x00\n      keccak256\n      0x00\n        /* \"Mqttbaru.sol\":3581:3619  brokerValidity[_brokeraddress] = false */\n      0x0100\n      exp\n      dup2\n      sload\n      dup2\n      0xff\n      mul\n      not\n      and\n      swap1\n      dup4\n      iszero\n      iszero\n      mul\n      or\n      swap1\n      sstore\n      pop\n        /* \"Mqttbaru.sol\":3667:3733  0x0000000000000000000000000000000000000000000000000000000000000000 */\n      0x00\n        /* \"Mqttbaru.sol\":3638:3733  tokenSlots[_brokeraddress] = 0x0000000000000000000000000000000000000000000000000000000000000000 */\n      dup1\n      shl\n        /* \"Mqttbaru.sol\":3638:3648  tokenSlots */\n      0x04\n        /* \"Mqttbaru.sol\":3638:3664  tokenSlots[_brokeraddress] */\n      0x00\n        /* \"Mqttbaru.sol\":3649:3663  _brokeraddress */\n      dup5\n        /* \"Mqttbaru.sol\":3638:3664  tokenSlots[_brokeraddress] */\n      0xffffffffffffffffffffffffffffffffffffffff\n      and\n      0xffffffffffffffffffffffffffffffffffffffff\n      and\n      dup2\n      mstore\n      0x20\n      add\n      swap1\n      dup2\n      mstore\n      0x20\n      add\n      0x00\n      keccak256\n        /* \"Mqttbaru.sol\":3638:3733  tokenSlots[_brokeraddress] = 0x0000000000000000000000000000000000000000000000000000000000000000 */\n      dup2\n      swap1\n      sstore\n      pop\n        /* \"Mqttbaru.sol\":3757:3790  ref_token(tokenSlots[msg.sender]) */\n      0x504e9e94e0c65229aaf8cabe153380cc35da3135e30129bc3195f7e031cdf82b\n        /* \"Mqttbaru.sol\":3767:3777  tokenSlots */\n      0x04\n        /* \"Mqttbaru.sol\":3767:3789  tokenSlots[msg.sender] */\n      0x00\n        /* \"Mqttbaru.sol\":3778:3788  msg.sender */\n      caller\n        /* \"Mqttbaru.sol\":3767:3789  tokenSlots[msg.sender] */\n      0xffffffffffffffffffffffffffffffffffffffff\n      and\n      0xffffffffffffffffffffffffffffffffffffffff\n      and\n      dup2\n      mstore\n      0x20\n      add\n      swap1\n      dup2\n      mstore\n      0x20\n      add\n      0x00\n      keccak256\n      sload\n        /* \"Mqttbaru.sol\":3757:3790  ref_token(tokenSlots[msg.sender]) */\n      mload(0x40)\n      tag_104\n      swap2\n      swap1\n      tag_28\n      jump\t// in\n    tag_104:\n      mload(0x40)\n      dup1\n      swap2\n      sub\n      swap1\n      log1\n        /* \"Mqttbaru.sol\":3828:3841  brokerAddress */\n      0x02\n        /* \"Mqttbaru.sol\":3865:3866  1 */\n      0x01\n        /* \"Mqttbaru.sol\":3842:3855  brokerAddress */\n      0x02\n        /* \"Mqttbaru.sol\":3842:3862  brokerAddress.length */\n      dup1\n      sload\n      swap1\n      pop\n        /* \"Mqttbaru.sol\":3842:3866  brokerAddress.length - 1 */\n      sub\n        /* \"Mqttbaru.sol\":3828:3867  brokerAddress[brokerAddress.length - 1] */\n      dup2\n      sload\n      dup2\n      lt\n      tag_105\n      jumpi\n      invalid\n    tag_105:\n      swap1\n      0x00\n      mstore\n      keccak256(0x00, 0x20)\n      swap1\n      0x02\n      mul\n      add\n        /* \"Mqttbaru.sol\":3809:3822  brokerAddress */\n      0x02\n        /* \"Mqttbaru.sol\":3823:3824  i */\n      dup3\n        /* \"Mqttbaru.sol\":3809:3825  brokerAddress[i] */\n      dup2\n      sload\n      dup2\n      lt\n      tag_107\n      jumpi\n      invalid\n    tag_107:\n      swap1\n      0x00\n      mstore\n      keccak256(0x00, 0x20)\n      swap1\n      0x02\n      mul\n      add\n        /* \"Mqttbaru.sol\":3809:3867  brokerAddress[i] = brokerAddress[brokerAddress.length - 1] */\n      0x00\n      dup3\n      add\n      0x00\n      swap1\n      sload\n      swap1\n      0x0100\n      exp\n      swap1\n      div\n      0xffffffffffffffffffffffffffffffffffffffff\n      and\n      dup2\n      0x00\n      add\n      exp(0x0100, 0x00)\n      dup2\n      sload\n      dup2\n      0xffffffffffffffffffffffffffffffffffffffff\n      mul\n      not\n      and\n      swap1\n      dup4\n      0xffffffffffffffffffffffffffffffffffffffff\n      and\n      mul\n      or\n      swap1\n      sstore\n      pop\n      0x01\n      dup3\n      add\n      sload\n      dup2\n      0x01\n      add\n      sstore\n      swap1\n      pop\n      pop\n        /* \"Mqttbaru.sol\":3886:3899  brokerAddress */\n      0x02\n        /* \"Mqttbaru.sol\":3886:3905  brokerAddress.pop() */\n      dup1\n      sload\n      dup1\n      tag_109\n      jumpi\n      invalid\n    tag_109:\n      0x01\n      swap1\n      sub\n      dup2\n      dup2\n      swap1\n      0x00\n      mstore\n      keccak256(0x00, 0x20)\n      swap1\n      0x02\n      mul\n      add\n      0x00\n      dup1\n      dup3\n      add\n      exp(0x0100, 0x00)\n      dup2\n      sload\n      swap1\n      0xffffffffffffffffffffffffffffffffffffffff\n      mul\n      not\n      and\n      swap1\n      sstore\n      0x01\n      dup3\n      add\n      0x00\n      swap1\n      sstore\n      pop\n      pop\n      swap1\n      sstore\n        /* \"Mqttbaru.sol\":3924:3935  brokerCount */\n      0x06\n      0x00\n        /* \"Mqttbaru.sol\":3924:3937  brokerCount-- */\n      dup2\n      sload\n      dup1\n      swap3\n      swap2\n      swap1\n      0x01\n      swap1\n      sub\n      swap2\n      swap1\n      pop\n      sstore\n      pop\n        /* \"Mqttbaru.sol\":3509:3953  if(_brokeraddress == brokerAddress[i].broker_address){\r... */\n    tag_103:\n        /* \"Mqttbaru.sol\":3490:3493  i++ */\n      dup1\n      dup1\n      0x01\n      add\n      swap2\n      pop\n      pop\n        /* \"Mqttbaru.sol\":3448:3964  for(uint i = 0; i < brokerAddress.length; i++){\r... */\n      jump(tag_98)\n    tag_99:\n      pop\n        /* \"Mqttbaru.sol\":3366:3971  function deleteBroker(address payable _brokeraddress) isManager public {\r... */\n      pop\n      jump\t// out\n        /* \"Mqttbaru.sol\":3000:3101  function getClientsCount() isManager public view returns (uint) {\r... */\n    tag_34:\n        /* \"Mqttbaru.sol\":3058:3062  uint */\n      0x00\n        /* \"Mqttbaru.sol\":8894:8901  manager */\n      dup1\n      0x00\n      swap1\n      sload\n      swap1\n      0x0100\n      exp\n      swap1\n      div\n      0xffffffffffffffffffffffffffffffffffffffff\n      and\n        /* \"Mqttbaru.sol\":8880:8901  msg.sender == manager */\n      0xffffffffffffffffffffffffffffffffffffffff\n      and\n        /* \"Mqttbaru.sol\":8880:8890  msg.sender */\n      caller\n        /* \"Mqttbaru.sol\":8880:8901  msg.sender == manager */\n      0xffffffffffffffffffffffffffffffffffffffff\n      and\n      eq\n        /* \"Mqttbaru.sol\":8872:8902  require(msg.sender == manager) */\n      tag_112\n      jumpi\n      0x00\n      dup1\n      revert\n    tag_112:\n        /* \"Mqttbaru.sol\":3082:3093  clientCount */\n      sload(0x05)\n        /* \"Mqttbaru.sol\":3075:3093  return clientCount */\n      swap1\n      pop\n        /* \"Mqttbaru.sol\":3000:3101  function getClientsCount() isManager public view returns (uint) {\r... */\n      swap1\n      jump\t// out\n        /* \"Mqttbaru.sol\":5500:6149  function addTopic(uint _id, string memory _topic) isManager public {\r... */\n    tag_40:\n        /* \"Mqttbaru.sol\":8894:8901  manager */\n      0x00\n      dup1\n      sload\n      swap1\n      0x0100\n      exp\n      swap1\n      div\n      0xffffffffffffffffffffffffffffffffffffffff\n      and\n        /* \"Mqttbaru.sol\":8880:8901  msg.sender == manager */\n      0xffffffffffffffffffffffffffffffffffffffff\n      and\n        /* \"Mqttbaru.sol\":8880:8890  msg.sender */\n      caller\n        /* \"Mqttbaru.sol\":8880:8901  msg.sender == manager */\n      0xffffffffffffffffffffffffffffffffffffffff\n      and\n      eq\n        /* \"Mqttbaru.sol\":8872:8902  require(msg.sender == manager) */\n      tag_115\n      jumpi\n      0x00\n      dup1\n      revert\n    tag_115:\n        /* \"Mqttbaru.sol\":5578:5588  bool exist */\n      0x00\n        /* \"Mqttbaru.sol\":5611:5617  uint i */\n      dup1\n        /* \"Mqttbaru.sol\":5607:6142  for(uint i = 0; i < clientLedger.length; i++){\r... */\n    tag_117:\n        /* \"Mqttbaru.sol\":5627:5639  clientLedger */\n      0x01\n        /* \"Mqttbaru.sol\":5627:5646  clientLedger.length */\n      dup1\n      sload\n      swap1\n      pop\n        /* \"Mqttbaru.sol\":5623:5624  i */\n      dup2\n        /* \"Mqttbaru.sol\":5623:5646  i < clientLedger.length */\n      lt\n        /* \"Mqttbaru.sol\":5607:6142  for(uint i = 0; i < clientLedger.length; i++){\r... */\n      iszero\n      tag_118\n      jumpi\n        /* \"Mqttbaru.sol\":5667:5691  Client storage clientele */\n      0x00\n        /* \"Mqttbaru.sol\":5694:5706  clientLedger */\n      0x01\n        /* \"Mqttbaru.sol\":5707:5708  i */\n      dup3\n        /* \"Mqttbaru.sol\":5694:5709  clientLedger[i] */\n      dup2\n      sload\n      dup2\n      lt\n      tag_120\n      jumpi\n      invalid\n    tag_120:\n      swap1\n      0x00\n      mstore\n      keccak256(0x00, 0x20)\n      swap1\n      0x04\n      mul\n      add\n        /* \"Mqttbaru.sol\":5667:5709  Client storage clientele = clientLedger[i] */\n      swap1\n      pop\n        /* \"Mqttbaru.sol\":5734:5743  clientele */\n      dup1\n        /* \"Mqttbaru.sol\":5734:5746  clientele.id */\n      0x00\n      add\n      sload\n        /* \"Mqttbaru.sol\":5727:5730  _id */\n      dup6\n        /* \"Mqttbaru.sol\":5727:5746  _id == clientele.id */\n      eq\n        /* \"Mqttbaru.sol\":5724:6131  if(_id == clientele.id){\r... */\n      iszero\n      tag_122\n      jumpi\n        /* \"Mqttbaru.sol\":5770:5776  uint j */\n      0x00\n        /* \"Mqttbaru.sol\":5766:6013  for(uint j = 0; j < clientele.topic.length; j++){\r... */\n    tag_123:\n        /* \"Mqttbaru.sol\":5786:5795  clientele */\n      dup2\n        /* \"Mqttbaru.sol\":5786:5801  clientele.topic */\n      0x03\n      add\n        /* \"Mqttbaru.sol\":5786:5808  clientele.topic.length */\n      dup1\n      sload\n      swap1\n      pop\n        /* \"Mqttbaru.sol\":5782:5783  j */\n      dup2\n        /* \"Mqttbaru.sol\":5782:5808  j < clientele.topic.length */\n      lt\n        /* \"Mqttbaru.sol\":5766:6013  for(uint j = 0; j < clientele.topic.length; j++){\r... */\n      iszero\n      tag_124\n      jumpi\n        /* \"Mqttbaru.sol\":5906:5915  clientele */\n      dup2\n        /* \"Mqttbaru.sol\":5906:5921  clientele.topic */\n      0x03\n      add\n        /* \"Mqttbaru.sol\":5922:5923  j */\n      dup2\n        /* \"Mqttbaru.sol\":5906:5924  clientele.topic[j] */\n      dup2\n      sload\n      dup2\n      lt\n      tag_126\n      jumpi\n      invalid\n    tag_126:\n      swap1\n      0x00\n      mstore\n      keccak256(0x00, 0x20)\n      add\n        /* \"Mqttbaru.sol\":5889:5925  abi.encodePacked(clientele.topic[j]) */\n      add(0x20, mload(0x40))\n      tag_128\n      swap2\n      swap1\n      tag_129\n      jump\t// in\n    tag_128:\n      mload(0x40)\n      0x20\n      dup2\n      dup4\n      sub\n      sub\n      dup2\n      mstore\n      swap1\n      0x40\n      mstore\n        /* \"Mqttbaru.sol\":5879:5926  keccak256(abi.encodePacked(clientele.topic[j])) */\n      dup1\n      mload\n      swap1\n      0x20\n      add\n      keccak256\n        /* \"Mqttbaru.sol\":5867:5873  _topic */\n      dup6\n        /* \"Mqttbaru.sol\":5850:5874  abi.encodePacked(_topic) */\n      add(0x20, mload(0x40))\n      tag_130\n      swap2\n      swap1\n      tag_131\n      jump\t// in\n    tag_130:\n      mload(0x40)\n      0x20\n      dup2\n      dup4\n      sub\n      sub\n      dup2\n      mstore\n      swap1\n      0x40\n      mstore\n        /* \"Mqttbaru.sol\":5840:5875  keccak256(abi.encodePacked(_topic)) */\n      dup1\n      mload\n      swap1\n      0x20\n      add\n      keccak256\n        /* \"Mqttbaru.sol\":5840:5926  keccak256(abi.encodePacked(_topic)) == keccak256(abi.encodePacked(clientele.topic[j])) */\n      eq\n        /* \"Mqttbaru.sol\":5837:5990  if(keccak256(abi.encodePacked(_topic)) == keccak256(abi.encodePacked(clientele.topic[j]))){\r... */\n      iszero\n      tag_132\n      jumpi\n        /* \"Mqttbaru.sol\":5962:5966  true */\n      0x01\n        /* \"Mqttbaru.sol\":5954:5966  exist = true */\n      swap4\n      pop\n        /* \"Mqttbaru.sol\":5837:5990  if(keccak256(abi.encodePacked(_topic)) == keccak256(abi.encodePacked(clientele.topic[j]))){\r... */\n    tag_132:\n        /* \"Mqttbaru.sol\":5810:5813  j++ */\n      dup1\n      dup1\n      0x01\n      add\n      swap2\n      pop\n      pop\n        /* \"Mqttbaru.sol\":5766:6013  for(uint j = 0; j < clientele.topic.length; j++){\r... */\n      jump(tag_123)\n    tag_124:\n      pop\n        /* \"Mqttbaru.sol\":6035:6040  exist */\n      dup3\n        /* \"Mqttbaru.sol\":6031:6116  if(!exist){\r... */\n      tag_133\n      jumpi\n        /* \"Mqttbaru.sol\":6064:6073  clientele */\n      dup1\n        /* \"Mqttbaru.sol\":6064:6079  clientele.topic */\n      0x03\n      add\n        /* \"Mqttbaru.sol\":6085:6091  _topic */\n      dup5\n        /* \"Mqttbaru.sol\":6064:6092  clientele.topic.push(_topic) */\n      swap1\n      dup1\n      0x01\n      dup2\n      sload\n      add\n      dup1\n      dup3\n      sstore\n      dup1\n      swap2\n      pop\n      pop\n      0x01\n      swap1\n      sub\n      swap1\n      0x00\n      mstore\n      keccak256(0x00, 0x20)\n      add\n      0x00\n      swap1\n      swap2\n      swap1\n      swap2\n      swap1\n      swap2\n      pop\n      swap1\n      dup1\n      mload\n      swap1\n      0x20\n      add\n      swap1\n      tag_135\n      swap3\n      swap2\n      swap1\n      tag_136\n      jump\t// in\n    tag_135:\n      pop\n        /* \"Mqttbaru.sol\":6031:6116  if(!exist){\r... */\n    tag_133:\n        /* \"Mqttbaru.sol\":5724:6131  if(_id == clientele.id){\r... */\n    tag_122:\n        /* \"Mqttbaru.sol\":5607:6142  for(uint i = 0; i < clientLedger.length; i++){\r... */\n      pop\n        /* \"Mqttbaru.sol\":5648:5651  i++ */\n      dup1\n      dup1\n      0x01\n      add\n      swap2\n      pop\n      pop\n        /* \"Mqttbaru.sol\":5607:6142  for(uint i = 0; i < clientLedger.length; i++){\r... */\n      jump(tag_117)\n    tag_118:\n      pop\n        /* \"Mqttbaru.sol\":8913:8914  _ */\n      pop\n        /* \"Mqttbaru.sol\":5500:6149  function addTopic(uint _id, string memory _topic) isManager public {\r... */\n      pop\n      pop\n      jump\t// out\n        /* \"Mqttbaru.sol\":3113:3214  function getBrokersCount() isManager public view returns (uint) {\r... */\n    tag_42:\n        /* \"Mqttbaru.sol\":3171:3175  uint */\n      0x00\n        /* \"Mqttbaru.sol\":8894:8901  manager */\n      dup1\n      0x00\n      swap1\n      sload\n      swap1\n      0x0100\n      exp\n      swap1\n      div\n      0xffffffffffffffffffffffffffffffffffffffff\n      and\n        /* \"Mqttbaru.sol\":8880:8901  msg.sender == manager */\n      0xffffffffffffffffffffffffffffffffffffffff\n      and\n        /* \"Mqttbaru.sol\":8880:8890  msg.sender */\n      caller\n        /* \"Mqttbaru.sol\":8880:8901  msg.sender == manager */\n      0xffffffffffffffffffffffffffffffffffffffff\n      and\n      eq\n        /* \"Mqttbaru.sol\":8872:8902  require(msg.sender == manager) */\n      tag_138\n      jumpi\n      0x00\n      dup1\n      revert\n    tag_138:\n        /* \"Mqttbaru.sol\":3195:3206  brokerCount */\n      sload(0x06)\n        /* \"Mqttbaru.sol\":3188:3206  return brokerCount */\n      swap1\n      pop\n        /* \"Mqttbaru.sol\":3113:3214  function getBrokersCount() isManager public view returns (uint) {\r... */\n      swap1\n      jump\t// out\n        /* \"Mqttbaru.sol\":4321:4923  function deleteTopic(uint _id, string memory _topic) isManager public {\r... */\n    tag_46:\n        /* \"Mqttbaru.sol\":8894:8901  manager */\n      0x00\n      dup1\n      sload\n      swap1\n      0x0100\n      exp\n      swap1\n      div\n      0xffffffffffffffffffffffffffffffffffffffff\n      and\n        /* \"Mqttbaru.sol\":8880:8901  msg.sender == manager */\n      0xffffffffffffffffffffffffffffffffffffffff\n      and\n        /* \"Mqttbaru.sol\":8880:8890  msg.sender */\n      caller\n        /* \"Mqttbaru.sol\":8880:8901  msg.sender == manager */\n      0xffffffffffffffffffffffffffffffffffffffff\n      and\n      eq\n        /* \"Mqttbaru.sol\":8872:8902  require(msg.sender == manager) */\n      tag_141\n      jumpi\n      0x00\n      dup1\n      revert\n    tag_141:\n        /* \"Mqttbaru.sol\":4406:4412  uint i */\n      0x00\n        /* \"Mqttbaru.sol\":4402:4916  for(uint i = 0; i <  clientLedger.length; i++){\r... */\n    tag_143:\n        /* \"Mqttbaru.sol\":4423:4435  clientLedger */\n      0x01\n        /* \"Mqttbaru.sol\":4423:4442  clientLedger.length */\n      dup1\n      sload\n      swap1\n      pop\n        /* \"Mqttbaru.sol\":4418:4419  i */\n      dup2\n        /* \"Mqttbaru.sol\":4418:4442  i <  clientLedger.length */\n      lt\n        /* \"Mqttbaru.sol\":4402:4916  for(uint i = 0; i <  clientLedger.length; i++){\r... */\n      iszero\n      tag_144\n      jumpi\n        /* \"Mqttbaru.sol\":4473:4485  clientLedger */\n      0x01\n        /* \"Mqttbaru.sol\":4486:4487  i */\n      dup2\n        /* \"Mqttbaru.sol\":4473:4488  clientLedger[i] */\n      dup2\n      sload\n      dup2\n      lt\n      tag_146\n      jumpi\n      invalid\n    tag_146:\n      swap1\n      0x00\n      mstore\n      keccak256(0x00, 0x20)\n      swap1\n      0x04\n      mul\n      add\n        /* \"Mqttbaru.sol\":4473:4491  clientLedger[i].id */\n      0x00\n      add\n      sload\n        /* \"Mqttbaru.sol\":4466:4469  _id */\n      dup4\n        /* \"Mqttbaru.sol\":4466:4491  _id == clientLedger[i].id */\n      eq\n        /* \"Mqttbaru.sol\":4463:4905  if(_id == clientLedger[i].id){\r... */\n      iszero\n      tag_148\n      jumpi\n        /* \"Mqttbaru.sol\":4515:4521  uint j */\n      0x00\n        /* \"Mqttbaru.sol\":4511:4890  for(uint j = 0; j < clientLedger[i].topic.length; j++){\r... */\n    tag_149:\n        /* \"Mqttbaru.sol\":4531:4543  clientLedger */\n      0x01\n        /* \"Mqttbaru.sol\":4544:4545  i */\n      dup3\n        /* \"Mqttbaru.sol\":4531:4546  clientLedger[i] */\n      dup2\n      sload\n      dup2\n      lt\n      tag_152\n      jumpi\n      invalid\n    tag_152:\n      swap1\n      0x00\n      mstore\n      keccak256(0x00, 0x20)\n      swap1\n      0x04\n      mul\n      add\n        /* \"Mqttbaru.sol\":4531:4552  clientLedger[i].topic */\n      0x03\n      add\n        /* \"Mqttbaru.sol\":4531:4559  clientLedger[i].topic.length */\n      dup1\n      sload\n      swap1\n      pop\n        /* \"Mqttbaru.sol\":4527:4528  j */\n      dup2\n        /* \"Mqttbaru.sol\":4527:4559  j < clientLedger[i].topic.length */\n      lt\n        /* \"Mqttbaru.sol\":4511:4890  for(uint j = 0; j < clientLedger[i].topic.length; j++){\r... */\n      iszero\n      tag_150\n      jumpi\n        /* \"Mqttbaru.sol\":4657:4669  clientLedger */\n      0x01\n        /* \"Mqttbaru.sol\":4670:4671  i */\n      dup3\n        /* \"Mqttbaru.sol\":4657:4672  clientLedger[i] */\n      dup2\n      sload\n      dup2\n      lt\n      tag_154\n      jumpi\n      invalid\n    tag_154:\n      swap1\n      0x00\n      mstore\n      keccak256(0x00, 0x20)\n      swap1\n      0x04\n      mul\n      add\n        /* \"Mqttbaru.sol\":4657:4678  clientLedger[i].topic */\n      0x03\n      add\n        /* \"Mqttbaru.sol\":4679:4680  j */\n      dup2\n        /* \"Mqttbaru.sol\":4657:4681  clientLedger[i].topic[j] */\n      dup2\n      sload\n      dup2\n      lt\n      tag_156\n      jumpi\n      invalid\n    tag_156:\n      swap1\n      0x00\n      mstore\n      keccak256(0x00, 0x20)\n      add\n        /* \"Mqttbaru.sol\":4640:4682  abi.encodePacked(clientLedger[i].topic[j]) */\n      add(0x20, mload(0x40))\n      tag_158\n      swap2\n      swap1\n      tag_129\n      jump\t// in\n    tag_158:\n      mload(0x40)\n      0x20\n      dup2\n      dup4\n      sub\n      sub\n      dup2\n      mstore\n      swap1\n      0x40\n      mstore\n        /* \"Mqttbaru.sol\":4630:4683  keccak256(abi.encodePacked(clientLedger[i].topic[j])) */\n      dup1\n      mload\n      swap1\n      0x20\n      add\n      keccak256\n        /* \"Mqttbaru.sol\":4618:4624  _topic */\n      dup4\n        /* \"Mqttbaru.sol\":4601:4625  abi.encodePacked(_topic) */\n      add(0x20, mload(0x40))\n      tag_159\n      swap2\n      swap1\n      tag_131\n      jump\t// in\n    tag_159:\n      mload(0x40)\n      0x20\n      dup2\n      dup4\n      sub\n      sub\n      dup2\n      mstore\n      swap1\n      0x40\n      mstore\n        /* \"Mqttbaru.sol\":4591:4626  keccak256(abi.encodePacked(_topic)) */\n      dup1\n      mload\n      swap1\n      0x20\n      add\n      keccak256\n        /* \"Mqttbaru.sol\":4591:4683  keccak256(abi.encodePacked(_topic)) == keccak256(abi.encodePacked(clientLedger[i].topic[j])) */\n      eq\n        /* \"Mqttbaru.sol\":4588:4871  if(keccak256(abi.encodePacked(_topic)) == keccak256(abi.encodePacked(clientLedger[i].topic[j]))){\r... */\n      iszero\n      tag_160\n      jumpi\n        /* \"Mqttbaru.sol\":4738:4750  clientLedger */\n      0x01\n        /* \"Mqttbaru.sol\":4751:4752  i */\n      dup3\n        /* \"Mqttbaru.sol\":4738:4753  clientLedger[i] */\n      dup2\n      sload\n      dup2\n      lt\n      tag_161\n      jumpi\n      invalid\n    tag_161:\n      swap1\n      0x00\n      mstore\n      keccak256(0x00, 0x20)\n      swap1\n      0x04\n      mul\n      add\n        /* \"Mqttbaru.sol\":4738:4759  clientLedger[i].topic */\n      0x03\n      add\n        /* \"Mqttbaru.sol\":4791:4792  1 */\n      0x01\n        /* \"Mqttbaru.sol\":4760:4772  clientLedger */\n      dup1\n        /* \"Mqttbaru.sol\":4773:4774  i */\n      dup5\n        /* \"Mqttbaru.sol\":4760:4775  clientLedger[i] */\n      dup2\n      sload\n      dup2\n      lt\n      tag_163\n      jumpi\n      invalid\n    tag_163:\n      swap1\n      0x00\n      mstore\n      keccak256(0x00, 0x20)\n      swap1\n      0x04\n      mul\n      add\n        /* \"Mqttbaru.sol\":4760:4781  clientLedger[i].topic */\n      0x03\n      add\n        /* \"Mqttbaru.sol\":4760:4788  clientLedger[i].topic.length */\n      dup1\n      sload\n      swap1\n      pop\n        /* \"Mqttbaru.sol\":4760:4792  clientLedger[i].topic.length - 1 */\n      sub\n        /* \"Mqttbaru.sol\":4738:4793  clientLedger[i].topic[clientLedger[i].topic.length - 1] */\n      dup2\n      sload\n      dup2\n      lt\n      tag_165\n      jumpi\n      invalid\n    tag_165:\n      swap1\n      0x00\n      mstore\n      keccak256(0x00, 0x20)\n      add\n        /* \"Mqttbaru.sol\":4711:4723  clientLedger */\n      0x01\n        /* \"Mqttbaru.sol\":4724:4725  i */\n      dup4\n        /* \"Mqttbaru.sol\":4711:4726  clientLedger[i] */\n      dup2\n      sload\n      dup2\n      lt\n      tag_167\n      jumpi\n      invalid\n    tag_167:\n      swap1\n      0x00\n      mstore\n      keccak256(0x00, 0x20)\n      swap1\n      0x04\n      mul\n      add\n        /* \"Mqttbaru.sol\":4711:4732  clientLedger[i].topic */\n      0x03\n      add\n        /* \"Mqttbaru.sol\":4733:4734  j */\n      dup3\n        /* \"Mqttbaru.sol\":4711:4735  clientLedger[i].topic[j] */\n      dup2\n      sload\n      dup2\n      lt\n      tag_169\n      jumpi\n      invalid\n    tag_169:\n      swap1\n      0x00\n      mstore\n      keccak256(0x00, 0x20)\n      add\n        /* \"Mqttbaru.sol\":4711:4793  clientLedger[i].topic[j] = clientLedger[i].topic[clientLedger[i].topic.length - 1] */\n      swap1\n      dup1\n      sload\n      0x01\n      dup2\n      0x01\n      and\n      iszero\n      0x0100\n      mul\n      sub\n      and\n      0x02\n      swap1\n      div\n      tag_171\n      swap3\n      swap2\n      swap1\n      tag_172\n      jump\t// in\n    tag_171:\n      pop\n        /* \"Mqttbaru.sol\":4820:4832  clientLedger */\n      0x01\n        /* \"Mqttbaru.sol\":4833:4834  i */\n      dup3\n        /* \"Mqttbaru.sol\":4820:4835  clientLedger[i] */\n      dup2\n      sload\n      dup2\n      lt\n      tag_173\n      jumpi\n      invalid\n    tag_173:\n      swap1\n      0x00\n      mstore\n      keccak256(0x00, 0x20)\n      swap1\n      0x04\n      mul\n      add\n        /* \"Mqttbaru.sol\":4820:4841  clientLedger[i].topic */\n      0x03\n      add\n        /* \"Mqttbaru.sol\":4820:4847  clientLedger[i].topic.pop() */\n      dup1\n      sload\n      dup1\n      tag_175\n      jumpi\n      invalid\n    tag_175:\n      0x01\n      swap1\n      sub\n      dup2\n      dup2\n      swap1\n      0x00\n      mstore\n      keccak256(0x00, 0x20)\n      add\n      0x00\n      tag_177\n      swap2\n      swap1\n      tag_178\n      jump\t// in\n    tag_177:\n      swap1\n      sstore\n        /* \"Mqttbaru.sol\":4588:4871  if(keccak256(abi.encodePacked(_topic)) == keccak256(abi.encodePacked(clientLedger[i].topic[j]))){\r... */\n    tag_160:\n        /* \"Mqttbaru.sol\":4561:4564  j++ */\n      dup1\n      dup1\n      0x01\n      add\n      swap2\n      pop\n      pop\n        /* \"Mqttbaru.sol\":4511:4890  for(uint j = 0; j < clientLedger[i].topic.length; j++){\r... */\n      jump(tag_149)\n    tag_150:\n      pop\n        /* \"Mqttbaru.sol\":4463:4905  if(_id == clientLedger[i].id){\r... */\n    tag_148:\n        /* \"Mqttbaru.sol\":4444:4447  i++ */\n      dup1\n      dup1\n      0x01\n      add\n      swap2\n      pop\n      pop\n        /* \"Mqttbaru.sol\":4402:4916  for(uint i = 0; i <  clientLedger.length; i++){\r... */\n      jump(tag_143)\n    tag_144:\n      pop\n        /* \"Mqttbaru.sol\":4321:4923  function deleteTopic(uint _id, string memory _topic) isManager public {\r... */\n      pop\n      pop\n      jump\t// out\n        /* \"Mqttbaru.sol\":130:160  address payable public manager */\n    tag_48:\n      0x00\n      dup1\n      sload\n      swap1\n      0x0100\n      exp\n      swap1\n      div\n      0xffffffffffffffffffffffffffffffffffffffff\n      and\n      dup2\n      jump\t// out\n        /* \"Mqttbaru.sol\":7113:7729  function getClients() public isManager view returns (uint[] memory, string[] memory, string[] memory) {\r... */\n    tag_52:\n        /* \"Mqttbaru.sol\":7166:7179  uint[] memory */\n      0x60\n        /* \"Mqttbaru.sol\":7181:7196  string[] memory */\n      dup1\n        /* \"Mqttbaru.sol\":7198:7213  string[] memory */\n      0x60\n        /* \"Mqttbaru.sol\":8894:8901  manager */\n      0x00\n      dup1\n      sload\n      swap1\n      0x0100\n      exp\n      swap1\n      div\n      0xffffffffffffffffffffffffffffffffffffffff\n      and\n        /* \"Mqttbaru.sol\":8880:8901  msg.sender == manager */\n      0xffffffffffffffffffffffffffffffffffffffff\n      and\n        /* \"Mqttbaru.sol\":8880:8890  msg.sender */\n      caller\n        /* \"Mqttbaru.sol\":8880:8901  msg.sender == manager */\n      0xffffffffffffffffffffffffffffffffffffffff\n      and\n      eq\n        /* \"Mqttbaru.sol\":8872:8902  require(msg.sender == manager) */\n      tag_180\n      jumpi\n      0x00\n      dup1\n      revert\n    tag_180:\n        /* \"Mqttbaru.sol\":7226:7243  uint[] memory _id */\n      0x60\n        /* \"Mqttbaru.sol\":7257:7268  clientCount */\n      sload(0x05)\n        /* \"Mqttbaru.sol\":7246:7269  new uint[](clientCount) */\n      0xffffffffffffffff\n      dup2\n      gt\n      dup1\n      iszero\n      tag_182\n      jumpi\n      0x00\n      dup1\n      revert\n    tag_182:\n      pop\n      mload(0x40)\n      swap1\n      dup1\n      dup3\n      mstore\n      dup1\n      0x20\n      mul\n      0x20\n      add\n      dup3\n      add\n      0x40\n      mstore\n      dup1\n      iszero\n      tag_183\n      jumpi\n      dup2\n      0x20\n      add\n      0x20\n      dup3\n      mul\n      dup1\n      calldatasize\n      dup4\n      calldatacopy\n      dup1\n      dup3\n      add\n      swap2\n      pop\n      pop\n      swap1\n      pop\n    tag_183:\n      pop\n        /* \"Mqttbaru.sol\":7226:7269  uint[] memory _id = new uint[](clientCount) */\n      swap1\n      pop\n        /* \"Mqttbaru.sol\":7280:7305  string[] memory _username */\n      0x60\n        /* \"Mqttbaru.sol\":7321:7332  clientCount */\n      sload(0x05)\n        /* \"Mqttbaru.sol\":7308:7333  new string[](clientCount) */\n      0xffffffffffffffff\n      dup2\n      gt\n      dup1\n      iszero\n      tag_184\n      jumpi\n      0x00\n      dup1\n      revert\n    tag_184:\n      pop\n      mload(0x40)\n      swap1\n      dup1\n      dup3\n      mstore\n      dup1\n      0x20\n      mul\n      0x20\n      add\n      dup3\n      add\n      0x40\n      mstore\n      dup1\n      iszero\n      tag_185\n      jumpi\n      dup2\n      0x20\n      add\n    tag_186:\n      0x60\n      dup2\n      mstore\n      0x20\n      add\n      swap1\n      0x01\n      swap1\n      sub\n      swap1\n      dup2\n      tag_186\n      jumpi\n      swap1\n      pop\n    tag_185:\n      pop\n        /* \"Mqttbaru.sol\":7280:7333  string[] memory _username = new string[](clientCount) */\n      swap1\n      pop\n        /* \"Mqttbaru.sol\":7344:7369  string[] memory _password */\n      0x60\n        /* \"Mqttbaru.sol\":7385:7396  clientCount */\n      sload(0x05)\n        /* \"Mqttbaru.sol\":7372:7397  new string[](clientCount) */\n      0xffffffffffffffff\n      dup2\n      gt\n      dup1\n      iszero\n      tag_187\n      jumpi\n      0x00\n      dup1\n      revert\n    tag_187:\n      pop\n      mload(0x40)\n      swap1\n      dup1\n      dup3\n      mstore\n      dup1\n      0x20\n      mul\n      0x20\n      add\n      dup3\n      add\n      0x40\n      mstore\n      dup1\n      iszero\n      tag_188\n      jumpi\n      dup2\n      0x20\n      add\n    tag_189:\n      0x60\n      dup2\n      mstore\n      0x20\n      add\n      swap1\n      0x01\n      swap1\n      sub\n      swap1\n      dup2\n      tag_189\n      jumpi\n      swap1\n      pop\n    tag_188:\n      pop\n        /* \"Mqttbaru.sol\":7344:7397  string[] memory _password = new string[](clientCount) */\n      swap1\n      pop\n        /* \"Mqttbaru.sol\":7412:7418  uint i */\n      0x00\n        /* \"Mqttbaru.sol\":7408:7654  for(uint i = 0; i < clientLedger.length; i++){\r... */\n    tag_190:\n        /* \"Mqttbaru.sol\":7428:7440  clientLedger */\n      0x01\n        /* \"Mqttbaru.sol\":7428:7447  clientLedger.length */\n      dup1\n      sload\n      swap1\n      pop\n        /* \"Mqttbaru.sol\":7424:7425  i */\n      dup2\n        /* \"Mqttbaru.sol\":7424:7447  i < clientLedger.length */\n      lt\n        /* \"Mqttbaru.sol\":7408:7654  for(uint i = 0; i < clientLedger.length; i++){\r... */\n      iszero\n      tag_191\n      jumpi\n        /* \"Mqttbaru.sol\":7468:7492  Client storage clientele */\n      0x00\n        /* \"Mqttbaru.sol\":7495:7507  clientLedger */\n      0x01\n        /* \"Mqttbaru.sol\":7508:7509  i */\n      dup3\n        /* \"Mqttbaru.sol\":7495:7510  clientLedger[i] */\n      dup2\n      sload\n      dup2\n      lt\n      tag_193\n      jumpi\n      invalid\n    tag_193:\n      swap1\n      0x00\n      mstore\n      keccak256(0x00, 0x20)\n      swap1\n      0x04\n      mul\n      add\n        /* \"Mqttbaru.sol\":7468:7510  Client storage clientele = clientLedger[i] */\n      swap1\n      pop\n        /* \"Mqttbaru.sol\":7534:7543  clientele */\n      dup1\n        /* \"Mqttbaru.sol\":7534:7546  clientele.id */\n      0x00\n      add\n      sload\n        /* \"Mqttbaru.sol\":7525:7528  _id */\n      dup6\n        /* \"Mqttbaru.sol\":7529:7530  i */\n      dup4\n        /* \"Mqttbaru.sol\":7525:7531  _id[i] */\n      dup2\n      mload\n      dup2\n      lt\n      tag_195\n      jumpi\n      invalid\n    tag_195:\n      0x20\n      mul\n      0x20\n      add\n      add\n        /* \"Mqttbaru.sol\":7525:7546  _id[i] = clientele.id */\n      dup2\n      dup2\n      mstore\n      pop\n      pop\n        /* \"Mqttbaru.sol\":7576:7585  clientele */\n      dup1\n        /* \"Mqttbaru.sol\":7576:7594  clientele.username */\n      0x01\n      add\n        /* \"Mqttbaru.sol\":7561:7594  _username[i] = clientele.username */\n      dup1\n      sload\n      0x01\n      dup2\n      0x01\n      and\n      iszero\n      0x0100\n      mul\n      sub\n      and\n      0x02\n      swap1\n      div\n      dup1\n      0x1f\n      add\n      0x20\n      dup1\n      swap2\n      div\n      mul\n      0x20\n      add\n      mload(0x40)\n      swap1\n      dup2\n      add\n      0x40\n      mstore\n      dup1\n      swap3\n      swap2\n      swap1\n      dup2\n      dup2\n      mstore\n      0x20\n      add\n      dup3\n      dup1\n      sload\n      0x01\n      dup2\n      0x01\n      and\n      iszero\n      0x0100\n      mul\n      sub\n      and\n      0x02\n      swap1\n      div\n      dup1\n      iszero\n      tag_196\n      jumpi\n      dup1\n      0x1f\n      lt\n      tag_197\n      jumpi\n      0x0100\n      dup1\n      dup4\n      sload\n      div\n      mul\n      dup4\n      mstore\n      swap2\n      0x20\n      add\n      swap2\n      jump(tag_196)\n    tag_197:\n      dup3\n      add\n      swap2\n      swap1\n      0x00\n      mstore\n      keccak256(0x00, 0x20)\n      swap1\n    tag_198:\n      dup2\n      sload\n      dup2\n      mstore\n      swap1\n      0x01\n      add\n      swap1\n      0x20\n      add\n      dup1\n      dup4\n      gt\n      tag_198\n      jumpi\n      dup3\n      swap1\n      sub\n      0x1f\n      and\n      dup3\n      add\n      swap2\n    tag_196:\n      pop\n      pop\n      pop\n      pop\n      pop\n        /* \"Mqttbaru.sol\":7561:7570  _username */\n      dup5\n        /* \"Mqttbaru.sol\":7571:7572  i */\n      dup4\n        /* \"Mqttbaru.sol\":7561:7573  _username[i] */\n      dup2\n      mload\n      dup2\n      lt\n      tag_199\n      jumpi\n      invalid\n    tag_199:\n      0x20\n      mul\n      0x20\n      add\n      add\n        /* \"Mqttbaru.sol\":7561:7594  _username[i] = clientele.username */\n      dup2\n      swap1\n      mstore\n      pop\n        /* \"Mqttbaru.sol\":7624:7633  clientele */\n      dup1\n        /* \"Mqttbaru.sol\":7624:7642  clientele.password */\n      0x02\n      add\n        /* \"Mqttbaru.sol\":7609:7642  _password[i] = clientele.password */\n      dup1\n      sload\n      0x01\n      dup2\n      0x01\n      and\n      iszero\n      0x0100\n      mul\n      sub\n      and\n      0x02\n      swap1\n      div\n      dup1\n      0x1f\n      add\n      0x20\n      dup1\n      swap2\n      div\n      mul\n      0x20\n      add\n      mload(0x40)\n      swap1\n      dup2\n      add\n      0x40\n      mstore\n      dup1\n      swap3\n      swap2\n      swap1\n      dup2\n      dup2\n      mstore\n      0x20\n      add\n      dup3\n      dup1\n      sload\n      0x01\n      dup2\n      0x01\n      and\n      iszero\n      0x0100\n      mul\n      sub\n      and\n      0x02\n      swap1\n      div\n      dup1\n      iszero\n      tag_200\n      jumpi\n      dup1\n      0x1f\n      lt\n      tag_201\n      jumpi\n      0x0100\n      dup1\n      dup4\n      sload\n      div\n      mul\n      dup4\n      mstore\n      swap2\n      0x20\n      add\n      swap2\n      jump(tag_200)\n    tag_201:\n      dup3\n      add\n      swap2\n      swap1\n      0x00\n      mstore\n      keccak256(0x00, 0x20)\n      swap1\n    tag_202:\n      dup2\n      sload\n      dup2\n      mstore\n      swap1\n      0x01\n      add\n      swap1\n      0x20\n      add\n      dup1\n      dup4\n      gt\n      tag_202\n      jumpi\n      dup3\n      swap1\n      sub\n      0x1f\n      and\n      dup3\n      add\n      swap2\n    tag_200:\n      pop\n      pop\n      pop\n      pop\n      pop\n        /* \"Mqttbaru.sol\":7609:7618  _password */\n      dup4\n        /* \"Mqttbaru.sol\":7619:7620  i */\n      dup4\n        /* \"Mqttbaru.sol\":7609:7621  _password[i] */\n      dup2\n      mload\n      dup2\n      lt\n      tag_203\n      jumpi\n      invalid\n    tag_203:\n      0x20\n      mul\n      0x20\n      add\n      add\n        /* \"Mqttbaru.sol\":7609:7642  _password[i] = clientele.password */\n      dup2\n      swap1\n      mstore\n      pop\n        /* \"Mqttbaru.sol\":7408:7654  for(uint i = 0; i < clientLedger.length; i++){\r... */\n      pop\n        /* \"Mqttbaru.sol\":7449:7452  i++ */\n      dup1\n      dup1\n      0x01\n      add\n      swap2\n      pop\n      pop\n        /* \"Mqttbaru.sol\":7408:7654  for(uint i = 0; i < clientLedger.length; i++){\r... */\n      jump(tag_190)\n    tag_191:\n      pop\n        /* \"Mqttbaru.sol\":7685:7688  _id */\n      dup3\n        /* \"Mqttbaru.sol\":7690:7699  _username */\n      dup3\n        /* \"Mqttbaru.sol\":7701:7710  _password */\n      dup3\n        /* \"Mqttbaru.sol\":7664:7721  return(\r... */\n      swap6\n      pop\n      swap6\n      pop\n      swap6\n      pop\n      pop\n      pop\n      pop\n        /* \"Mqttbaru.sol\":7113:7729  function getClients() public isManager view returns (uint[] memory, string[] memory, string[] memory) {\r... */\n      swap1\n      swap2\n      swap3\n      jump\t// out\n        /* \"Mqttbaru.sol\":4935:5488  function getTopic(uint _id) isManager public view returns(string[] memory){\r... */\n    tag_58:\n        /* \"Mqttbaru.sol\":4993:5008  string[] memory */\n      0x60\n        /* \"Mqttbaru.sol\":8894:8901  manager */\n      0x00\n      dup1\n      sload\n      swap1\n      0x0100\n      exp\n      swap1\n      div\n      0xffffffffffffffffffffffffffffffffffffffff\n      and\n        /* \"Mqttbaru.sol\":8880:8901  msg.sender == manager */\n      0xffffffffffffffffffffffffffffffffffffffff\n      and\n        /* \"Mqttbaru.sol\":8880:8890  msg.sender */\n      caller\n        /* \"Mqttbaru.sol\":8880:8901  msg.sender == manager */\n      0xffffffffffffffffffffffffffffffffffffffff\n      and\n      eq\n        /* \"Mqttbaru.sol\":8872:8902  require(msg.sender == manager) */\n      tag_205\n      jumpi\n      0x00\n      dup1\n      revert\n    tag_205:\n        /* \"Mqttbaru.sol\":5024:5030  uint i */\n      0x00\n        /* \"Mqttbaru.sol\":5020:5481  for(uint i = 0; i < clientLedger.length; i++){\r... */\n    tag_207:\n        /* \"Mqttbaru.sol\":5040:5052  clientLedger */\n      0x01\n        /* \"Mqttbaru.sol\":5040:5059  clientLedger.length */\n      dup1\n      sload\n      swap1\n      pop\n        /* \"Mqttbaru.sol\":5036:5037  i */\n      dup2\n        /* \"Mqttbaru.sol\":5036:5059  i < clientLedger.length */\n      lt\n        /* \"Mqttbaru.sol\":5020:5481  for(uint i = 0; i < clientLedger.length; i++){\r... */\n      iszero\n      tag_208\n      jumpi\n        /* \"Mqttbaru.sol\":5080:5104  Client storage clientele */\n      0x00\n        /* \"Mqttbaru.sol\":5107:5119  clientLedger */\n      0x01\n        /* \"Mqttbaru.sol\":5120:5121  i */\n      dup3\n        /* \"Mqttbaru.sol\":5107:5122  clientLedger[i] */\n      dup2\n      sload\n      dup2\n      lt\n      tag_210\n      jumpi\n      invalid\n    tag_210:\n      swap1\n      0x00\n      mstore\n      keccak256(0x00, 0x20)\n      swap1\n      0x04\n      mul\n      add\n        /* \"Mqttbaru.sol\":5080:5122  Client storage clientele = clientLedger[i] */\n      swap1\n      pop\n        /* \"Mqttbaru.sol\":5147:5156  clientele */\n      dup1\n        /* \"Mqttbaru.sol\":5147:5159  clientele.id */\n      0x00\n      add\n      sload\n        /* \"Mqttbaru.sol\":5140:5143  _id */\n      dup5\n        /* \"Mqttbaru.sol\":5140:5159  _id == clientele.id */\n      eq\n        /* \"Mqttbaru.sol\":5137:5470  if(_id == clientele.id){\r... */\n      iszero\n      tag_212\n      jumpi\n        /* \"Mqttbaru.sol\":5179:5201  string[] memory _topic */\n      0x60\n        /* \"Mqttbaru.sol\":5217:5226  clientele */\n      dup2\n        /* \"Mqttbaru.sol\":5217:5232  clientele.topic */\n      0x03\n      add\n        /* \"Mqttbaru.sol\":5217:5239  clientele.topic.length */\n      dup1\n      sload\n      swap1\n      pop\n        /* \"Mqttbaru.sol\":5204:5240  new string[](clientele.topic.length) */\n      0xffffffffffffffff\n      dup2\n      gt\n      dup1\n      iszero\n      tag_213\n      jumpi\n      0x00\n      dup1\n      revert\n    tag_213:\n      pop\n      mload(0x40)\n      swap1\n      dup1\n      dup3\n      mstore\n      dup1\n      0x20\n      mul\n      0x20\n      add\n      dup3\n      add\n      0x40\n      mstore\n      dup1\n      iszero\n      tag_214\n      jumpi\n      dup2\n      0x20\n      add\n    tag_215:\n      0x60\n      dup2\n      mstore\n      0x20\n      add\n      swap1\n      0x01\n      swap1\n      sub\n      swap1\n      dup2\n      tag_215\n      jumpi\n      swap1\n      pop\n    tag_214:\n      pop\n        /* \"Mqttbaru.sol\":5179:5240  string[] memory _topic = new string[](clientele.topic.length) */\n      swap1\n      pop\n        /* \"Mqttbaru.sol\":5263:5269  uint j */\n      0x00\n        /* \"Mqttbaru.sol\":5259:5380  for(uint j = 0; j < clientele.topic.length; j++){\r... */\n    tag_216:\n        /* \"Mqttbaru.sol\":5279:5288  clientele */\n      dup3\n        /* \"Mqttbaru.sol\":5279:5294  clientele.topic */\n      0x03\n      add\n        /* \"Mqttbaru.sol\":5279:5301  clientele.topic.length */\n      dup1\n      sload\n      swap1\n      pop\n        /* \"Mqttbaru.sol\":5275:5276  j */\n      dup2\n        /* \"Mqttbaru.sol\":5275:5301  j < clientele.topic.length */\n      lt\n        /* \"Mqttbaru.sol\":5259:5380  for(uint j = 0; j < clientele.topic.length; j++){\r... */\n      iszero\n      tag_217\n      jumpi\n        /* \"Mqttbaru.sol\":5342:5351  clientele */\n      dup3\n        /* \"Mqttbaru.sol\":5342:5357  clientele.topic */\n      0x03\n      add\n        /* \"Mqttbaru.sol\":5358:5359  j */\n      dup2\n        /* \"Mqttbaru.sol\":5342:5360  clientele.topic[j] */\n      dup2\n      sload\n      dup2\n      lt\n      tag_219\n      jumpi\n      invalid\n    tag_219:\n      swap1\n      0x00\n      mstore\n      keccak256(0x00, 0x20)\n      add\n        /* \"Mqttbaru.sol\":5330:5360  _topic[j] = clientele.topic[j] */\n      dup1\n      sload\n      0x01\n      dup2\n      0x01\n      and\n      iszero\n      0x0100\n      mul\n      sub\n      and\n      0x02\n      swap1\n      div\n      dup1\n      0x1f\n      add\n      0x20\n      dup1\n      swap2\n      div\n      mul\n      0x20\n      add\n      mload(0x40)\n      swap1\n      dup2\n      add\n      0x40\n      mstore\n      dup1\n      swap3\n      swap2\n      swap1\n      dup2\n      dup2\n      mstore\n      0x20\n      add\n      dup3\n      dup1\n      sload\n      0x01\n      dup2\n      0x01\n      and\n      iszero\n      0x0100\n      mul\n      sub\n      and\n      0x02\n      swap1\n      div\n      dup1\n      iszero\n      tag_221\n      jumpi\n      dup1\n      0x1f\n      lt\n      tag_222\n      jumpi\n      0x0100\n      dup1\n      dup4\n      sload\n      div\n      mul\n      dup4\n      mstore\n      swap2\n      0x20\n      add\n      swap2\n      jump(tag_221)\n    tag_222:\n      dup3\n      add\n      swap2\n      swap1\n      0x00\n      mstore\n      keccak256(0x00, 0x20)\n      swap1\n    tag_223:\n      dup2\n      sload\n      dup2\n      mstore\n      swap1\n      0x01\n      add\n      swap1\n      0x20\n      add\n      dup1\n      dup4\n      gt\n      tag_223\n      jumpi\n      dup3\n      swap1\n      sub\n      0x1f\n      and\n      dup3\n      add\n      swap2\n    tag_221:\n      pop\n      pop\n      pop\n      pop\n      pop\n        /* \"Mqttbaru.sol\":5330:5336  _topic */\n      dup3\n        /* \"Mqttbaru.sol\":5337:5338  j */\n      dup3\n        /* \"Mqttbaru.sol\":5330:5339  _topic[j] */\n      dup2\n      mload\n      dup2\n      lt\n      tag_224\n      jumpi\n      invalid\n    tag_224:\n      0x20\n      mul\n      0x20\n      add\n      add\n        /* \"Mqttbaru.sol\":5330:5360  _topic[j] = clientele.topic[j] */\n      dup2\n      swap1\n      mstore\n      pop\n        /* \"Mqttbaru.sol\":5303:5306  j++ */\n      dup1\n      dup1\n      0x01\n      add\n      swap2\n      pop\n      pop\n        /* \"Mqttbaru.sol\":5259:5380  for(uint j = 0; j < clientele.topic.length; j++){\r... */\n      jump(tag_216)\n    tag_217:\n      pop\n        /* \"Mqttbaru.sol\":5427:5433  _topic */\n      dup1\n        /* \"Mqttbaru.sol\":5398:5454  return(\r... */\n      swap4\n      pop\n      pop\n      pop\n      pop\n      jump(tag_206)\n        /* \"Mqttbaru.sol\":5137:5470  if(_id == clientele.id){\r... */\n    tag_212:\n        /* \"Mqttbaru.sol\":5020:5481  for(uint i = 0; i < clientLedger.length; i++){\r... */\n      pop\n        /* \"Mqttbaru.sol\":5061:5064  i++ */\n      dup1\n      dup1\n      0x01\n      add\n      swap2\n      pop\n      pop\n        /* \"Mqttbaru.sol\":5020:5481  for(uint i = 0; i < clientLedger.length; i++){\r... */\n      jump(tag_207)\n    tag_208:\n      pop\n        /* \"Mqttbaru.sol\":8913:8914  _ */\n    tag_206:\n        /* \"Mqttbaru.sol\":4935:5488  function getTopic(uint _id) isManager public view returns(string[] memory){\r... */\n      swap2\n      swap1\n      pop\n      jump\t// out\n        /* \"Mqttbaru.sol\":8284:8828  function authorize(bytes32 _token, uint _id, string memory _topic) brokerIsAuth(_token) public view returns(bool) {\r... */\n    tag_64:\n        /* \"Mqttbaru.sol\":8392:8396  bool */\n      0x00\n        /* \"Mqttbaru.sol\":8364:8370  _token */\n      dup4\n        /* \"Mqttbaru.sol\":9115:9181  0x0000000000000000000000000000000000000000000000000000000000000000 */\n      0x00\n        /* \"Mqttbaru.sol\":9089:9181  tokenSlots[msg.sender] != 0x0000000000000000000000000000000000000000000000000000000000000000 */\n      dup1\n      shl\n        /* \"Mqttbaru.sol\":9089:9099  tokenSlots */\n      0x04\n        /* \"Mqttbaru.sol\":9089:9111  tokenSlots[msg.sender] */\n      0x00\n        /* \"Mqttbaru.sol\":9100:9110  msg.sender */\n      caller\n        /* \"Mqttbaru.sol\":9089:9111  tokenSlots[msg.sender] */\n      0xffffffffffffffffffffffffffffffffffffffff\n      and\n      0xffffffffffffffffffffffffffffffffffffffff\n      and\n      dup2\n      mstore\n      0x20\n      add\n      swap1\n      dup2\n      mstore\n      0x20\n      add\n      0x00\n      keccak256\n      sload\n        /* \"Mqttbaru.sol\":9089:9181  tokenSlots[msg.sender] != 0x0000000000000000000000000000000000000000000000000000000000000000 */\n      eq\n      iszero\n        /* \"Mqttbaru.sol\":9081:9182  require(tokenSlots[msg.sender] != 0x0000000000000000000000000000000000000000000000000000000000000000) */\n      tag_226\n      jumpi\n      0x00\n      dup1\n      revert\n    tag_226:\n        /* \"Mqttbaru.sol\":9211:9221  tokenSlots */\n      0x04\n        /* \"Mqttbaru.sol\":9211:9233  tokenSlots[msg.sender] */\n      0x00\n        /* \"Mqttbaru.sol\":9222:9232  msg.sender */\n      caller\n        /* \"Mqttbaru.sol\":9211:9233  tokenSlots[msg.sender] */\n      0xffffffffffffffffffffffffffffffffffffffff\n      and\n      0xffffffffffffffffffffffffffffffffffffffff\n      and\n      dup2\n      mstore\n      0x20\n      add\n      swap1\n      dup2\n      mstore\n      0x20\n      add\n      0x00\n      keccak256\n      sload\n        /* \"Mqttbaru.sol\":9201:9207  _token */\n      dup2\n        /* \"Mqttbaru.sol\":9201:9233  _token == tokenSlots[msg.sender] */\n      eq\n        /* \"Mqttbaru.sol\":9193:9234  require(_token == tokenSlots[msg.sender]) */\n      tag_227\n      jumpi\n      0x00\n      dup1\n      revert\n    tag_227:\n        /* \"Mqttbaru.sol\":8413:8419  uint i */\n      0x00\n        /* \"Mqttbaru.sol\":8409:8798  for(uint i = 0; i < clientLedger.length; i++){\r... */\n    tag_229:\n        /* \"Mqttbaru.sol\":8429:8441  clientLedger */\n      0x01\n        /* \"Mqttbaru.sol\":8429:8448  clientLedger.length */\n      dup1\n      sload\n      swap1\n      pop\n        /* \"Mqttbaru.sol\":8425:8426  i */\n      dup2\n        /* \"Mqttbaru.sol\":8425:8448  i < clientLedger.length */\n      lt\n        /* \"Mqttbaru.sol\":8409:8798  for(uint i = 0; i < clientLedger.length; i++){\r... */\n      iszero\n      tag_230\n      jumpi\n        /* \"Mqttbaru.sol\":8479:8491  clientLedger */\n      0x01\n        /* \"Mqttbaru.sol\":8492:8493  i */\n      dup2\n        /* \"Mqttbaru.sol\":8479:8494  clientLedger[i] */\n      dup2\n      sload\n      dup2\n      lt\n      tag_232\n      jumpi\n      invalid\n    tag_232:\n      swap1\n      0x00\n      mstore\n      keccak256(0x00, 0x20)\n      swap1\n      0x04\n      mul\n      add\n        /* \"Mqttbaru.sol\":8479:8497  clientLedger[i].id */\n      0x00\n      add\n      sload\n        /* \"Mqttbaru.sol\":8472:8475  _id */\n      dup6\n        /* \"Mqttbaru.sol\":8472:8497  _id == clientLedger[i].id */\n      eq\n        /* \"Mqttbaru.sol\":8469:8787  if(_id == clientLedger[i].id){\r... */\n      iszero\n      tag_234\n      jumpi\n        /* \"Mqttbaru.sol\":8521:8527  uint j */\n      0x00\n        /* \"Mqttbaru.sol\":8517:8772  for(uint j = 0; j < clientLedger[i].topic.length ; j++){\r... */\n    tag_235:\n        /* \"Mqttbaru.sol\":8537:8549  clientLedger */\n      0x01\n        /* \"Mqttbaru.sol\":8550:8551  i */\n      dup3\n        /* \"Mqttbaru.sol\":8537:8552  clientLedger[i] */\n      dup2\n      sload\n      dup2\n      lt\n      tag_238\n      jumpi\n      invalid\n    tag_238:\n      swap1\n      0x00\n      mstore\n      keccak256(0x00, 0x20)\n      swap1\n      0x04\n      mul\n      add\n        /* \"Mqttbaru.sol\":8537:8558  clientLedger[i].topic */\n      0x03\n      add\n        /* \"Mqttbaru.sol\":8537:8565  clientLedger[i].topic.length */\n      dup1\n      sload\n      swap1\n      pop\n        /* \"Mqttbaru.sol\":8533:8534  j */\n      dup2\n        /* \"Mqttbaru.sol\":8533:8565  j < clientLedger[i].topic.length */\n      lt\n        /* \"Mqttbaru.sol\":8517:8772  for(uint j = 0; j < clientLedger[i].topic.length ; j++){\r... */\n      iszero\n      tag_236\n      jumpi\n        /* \"Mqttbaru.sol\":8664:8676  clientLedger */\n      0x01\n        /* \"Mqttbaru.sol\":8677:8678  i */\n      dup3\n        /* \"Mqttbaru.sol\":8664:8679  clientLedger[i] */\n      dup2\n      sload\n      dup2\n      lt\n      tag_240\n      jumpi\n      invalid\n    tag_240:\n      swap1\n      0x00\n      mstore\n      keccak256(0x00, 0x20)\n      swap1\n      0x04\n      mul\n      add\n        /* \"Mqttbaru.sol\":8664:8685  clientLedger[i].topic */\n      0x03\n      add\n        /* \"Mqttbaru.sol\":8686:8687  j */\n      dup2\n        /* \"Mqttbaru.sol\":8664:8688  clientLedger[i].topic[j] */\n      dup2\n      sload\n      dup2\n      lt\n      tag_242\n      jumpi\n      invalid\n    tag_242:\n      swap1\n      0x00\n      mstore\n      keccak256(0x00, 0x20)\n      add\n        /* \"Mqttbaru.sol\":8647:8689  abi.encodePacked(clientLedger[i].topic[j]) */\n      add(0x20, mload(0x40))\n      tag_244\n      swap2\n      swap1\n      tag_129\n      jump\t// in\n    tag_244:\n      mload(0x40)\n      0x20\n      dup2\n      dup4\n      sub\n      sub\n      dup2\n      mstore\n      swap1\n      0x40\n      mstore\n        /* \"Mqttbaru.sol\":8637:8690  keccak256(abi.encodePacked(clientLedger[i].topic[j])) */\n      dup1\n      mload\n      swap1\n      0x20\n      add\n      keccak256\n        /* \"Mqttbaru.sol\":8625:8631  _topic */\n      dup6\n        /* \"Mqttbaru.sol\":8608:8632  abi.encodePacked(_topic) */\n      add(0x20, mload(0x40))\n      tag_245\n      swap2\n      swap1\n      tag_131\n      jump\t// in\n    tag_245:\n      mload(0x40)\n      0x20\n      dup2\n      dup4\n      sub\n      sub\n      dup2\n      mstore\n      swap1\n      0x40\n      mstore\n        /* \"Mqttbaru.sol\":8598:8633  keccak256(abi.encodePacked(_topic)) */\n      dup1\n      mload\n      swap1\n      0x20\n      add\n      keccak256\n        /* \"Mqttbaru.sol\":8598:8690  keccak256(abi.encodePacked(_topic)) == keccak256(abi.encodePacked(clientLedger[i].topic[j])) */\n      eq\n        /* \"Mqttbaru.sol\":8595:8753  if(keccak256(abi.encodePacked(_topic)) == keccak256(abi.encodePacked(clientLedger[i].topic[j]))){\r... */\n      iszero\n      tag_246\n      jumpi\n        /* \"Mqttbaru.sol\":8725:8729  true */\n      0x01\n        /* \"Mqttbaru.sol\":8718:8729  return true */\n      swap4\n      pop\n      pop\n      pop\n      jump(tag_228)\n        /* \"Mqttbaru.sol\":8595:8753  if(keccak256(abi.encodePacked(_topic)) == keccak256(abi.encodePacked(clientLedger[i].topic[j]))){\r... */\n    tag_246:\n        /* \"Mqttbaru.sol\":8568:8571  j++ */\n      dup1\n      dup1\n      0x01\n      add\n      swap2\n      pop\n      pop\n        /* \"Mqttbaru.sol\":8517:8772  for(uint j = 0; j < clientLedger[i].topic.length ; j++){\r... */\n      jump(tag_235)\n    tag_236:\n      pop\n        /* \"Mqttbaru.sol\":8469:8787  if(_id == clientLedger[i].id){\r... */\n    tag_234:\n        /* \"Mqttbaru.sol\":8450:8453  i++ */\n      dup1\n      dup1\n      0x01\n      add\n      swap2\n      pop\n      pop\n        /* \"Mqttbaru.sol\":8409:8798  for(uint i = 0; i < clientLedger.length; i++){\r... */\n      jump(tag_229)\n    tag_230:\n      pop\n        /* \"Mqttbaru.sol\":8815:8820  false */\n      0x00\n        /* \"Mqttbaru.sol\":8808:8820  return false */\n      swap2\n      pop\n        /* \"Mqttbaru.sol\":9245:9246  _ */\n    tag_228:\n        /* \"Mqttbaru.sol\":8284:8828  function authorize(bytes32 _token, uint _id, string memory _topic) brokerIsAuth(_token) public view returns(bool) {\r... */\n      pop\n      swap4\n      swap3\n      pop\n      pop\n      pop\n      jump\t// out\n        /* \"Mqttbaru.sol\":2639:2987  function addBroker(address payable _brokeraddress) public isManager {\r... */\n    tag_69:\n        /* \"Mqttbaru.sol\":8894:8901  manager */\n      0x00\n      dup1\n      sload\n      swap1\n      0x0100\n      exp\n      swap1\n      div\n      0xffffffffffffffffffffffffffffffffffffffff\n      and\n        /* \"Mqttbaru.sol\":8880:8901  msg.sender == manager */\n      0xffffffffffffffffffffffffffffffffffffffff\n      and\n        /* \"Mqttbaru.sol\":8880:8890  msg.sender */\n      caller\n        /* \"Mqttbaru.sol\":8880:8901  msg.sender == manager */\n      0xffffffffffffffffffffffffffffffffffffffff\n      and\n      eq\n        /* \"Mqttbaru.sol\":8872:8902  require(msg.sender == manager) */\n      tag_248\n      jumpi\n      0x00\n      dup1\n      revert\n    tag_248:\n        /* \"Mqttbaru.sol\":2728:2751  Broker memory newBroker */\n      tag_250\n      tag_251\n      jump\t// in\n    tag_250:\n        /* \"Mqttbaru.sol\":2754:2847  Broker({\r... */\n      mload(0x40)\n      dup1\n      0x40\n      add\n      0x40\n      mstore\n      dup1\n        /* \"Mqttbaru.sol\":2792:2806  _brokeraddress */\n      dup4\n        /* \"Mqttbaru.sol\":2754:2847  Broker({\r... */\n      0xffffffffffffffffffffffffffffffffffffffff\n      and\n      dup2\n      mstore\n      0x20\n      add\n        /* \"Mqttbaru.sol\":2832:2835  now */\n      timestamp\n        /* \"Mqttbaru.sol\":2754:2847  Broker({\r... */\n      dup2\n      mstore\n      pop\n        /* \"Mqttbaru.sol\":2728:2847  Broker memory newBroker = Broker({\r... */\n      swap1\n      pop\n        /* \"Mqttbaru.sol\":2868:2881  brokerAddress */\n      0x02\n        /* \"Mqttbaru.sol\":2887:2896  newBroker */\n      dup2\n        /* \"Mqttbaru.sol\":2868:2897  brokerAddress.push(newBroker) */\n      swap1\n      dup1\n      0x01\n      dup2\n      sload\n      add\n      dup1\n      dup3\n      sstore\n      dup1\n      swap2\n      pop\n      pop\n      0x01\n      swap1\n      sub\n      swap1\n      0x00\n      mstore\n      keccak256(0x00, 0x20)\n      swap1\n      0x02\n      mul\n      add\n      0x00\n      swap1\n      swap2\n      swap1\n      swap2\n      swap1\n      swap2\n      pop\n      0x00\n      dup3\n      add\n      mload\n      dup2\n      0x00\n      add\n      exp(0x0100, 0x00)\n      dup2\n      sload\n      dup2\n      0xffffffffffffffffffffffffffffffffffffffff\n      mul\n      not\n      and\n      swap1\n      dup4\n      0xffffffffffffffffffffffffffffffffffffffff\n      and\n      mul\n      or\n      swap1\n      sstore\n      pop\n      0x20\n      dup3\n      add\n      mload\n      dup2\n      0x01\n      add\n      sstore\n      pop\n      pop\n        /* \"Mqttbaru.sol\":2941:2945  true */\n      0x01\n        /* \"Mqttbaru.sol\":2908:2922  brokerValidity */\n      0x03\n        /* \"Mqttbaru.sol\":2908:2938  brokerValidity[_brokeraddress] */\n      0x00\n        /* \"Mqttbaru.sol\":2923:2937  _brokeraddress */\n      dup5\n        /* \"Mqttbaru.sol\":2908:2938  brokerValidity[_brokeraddress] */\n      0xffffffffffffffffffffffffffffffffffffffff\n      and\n      0xffffffffffffffffffffffffffffffffffffffff\n      and\n      dup2\n      mstore\n      0x20\n      add\n      swap1\n      dup2\n      mstore\n      0x20\n      add\n      0x00\n      keccak256\n      0x00\n        /* \"Mqttbaru.sol\":2908:2945  brokerValidity[_brokeraddress] = true */\n      0x0100\n      exp\n      dup2\n      sload\n      dup2\n      0xff\n      mul\n      not\n      and\n      swap1\n      dup4\n      iszero\n      iszero\n      mul\n      or\n      swap1\n      sstore\n      pop\n        /* \"Mqttbaru.sol\":2956:2967  brokerCount */\n      0x06\n      0x00\n        /* \"Mqttbaru.sol\":2956:2969  brokerCount++ */\n      dup2\n      sload\n      dup1\n      swap3\n      swap2\n      swap1\n      0x01\n      add\n      swap2\n      swap1\n      pop\n      sstore\n      pop\n        /* \"Mqttbaru.sol\":8913:8914  _ */\n      pop\n        /* \"Mqttbaru.sol\":2639:2987  function addBroker(address payable _brokeraddress) public isManager {\r... */\n      pop\n      jump\t// out\n        /* \"Mqttbaru.sol\":6161:6525  function addClient(string memory _username, string memory _password) isManager public {\r... */\n    tag_73:\n        /* \"Mqttbaru.sol\":8894:8901  manager */\n      0x00\n      dup1\n      sload\n      swap1\n      0x0100\n      exp\n      swap1\n      div\n      0xffffffffffffffffffffffffffffffffffffffff\n      and\n        /* \"Mqttbaru.sol\":8880:8901  msg.sender == manager */\n      0xffffffffffffffffffffffffffffffffffffffff\n      and\n        /* \"Mqttbaru.sol\":8880:8890  msg.sender */\n      caller\n        /* \"Mqttbaru.sol\":8880:8901  msg.sender == manager */\n      0xffffffffffffffffffffffffffffffffffffffff\n      and\n      eq\n        /* \"Mqttbaru.sol\":8872:8902  require(msg.sender == manager) */\n      tag_254\n      jumpi\n      0x00\n      dup1\n      revert\n    tag_254:\n        /* \"Mqttbaru.sol\":6258:6281  Client memory newClient */\n      tag_256\n      tag_257\n      jump\t// in\n    tag_256:\n        /* \"Mqttbaru.sol\":6284:6434  Client({\r... */\n      mload(0x40)\n      dup1\n      0x80\n      add\n      0x40\n      mstore\n      dup1\n        /* \"Mqttbaru.sol\":6310:6317  idCount */\n      sload(0x07)\n        /* \"Mqttbaru.sol\":6284:6434  Client({\r... */\n      dup2\n      mstore\n      0x20\n      add\n        /* \"Mqttbaru.sol\":6342:6351  _username */\n      dup5\n        /* \"Mqttbaru.sol\":6284:6434  Client({\r... */\n      dup2\n      mstore\n      0x20\n      add\n        /* \"Mqttbaru.sol\":6376:6385  _password */\n      dup4\n        /* \"Mqttbaru.sol\":6284:6434  Client({\r... */\n      dup2\n      mstore\n      0x20\n      add\n        /* \"Mqttbaru.sol\":6420:6421  0 */\n      0x00\n        /* \"Mqttbaru.sol\":6407:6422  new string[](0) */\n      0xffffffffffffffff\n      dup2\n      gt\n      dup1\n      iszero\n      tag_258\n      jumpi\n      0x00\n      dup1\n      revert\n    tag_258:\n      pop\n      mload(0x40)\n      swap1\n      dup1\n      dup3\n      mstore\n      dup1\n      0x20\n      mul\n      0x20\n      add\n      dup3\n      add\n      0x40\n      mstore\n      dup1\n      iszero\n      tag_259\n      jumpi\n      dup2\n      0x20\n      add\n    tag_260:\n      0x60\n      dup2\n      mstore\n      0x20\n      add\n      swap1\n      0x01\n      swap1\n      sub\n      swap1\n      dup2\n      tag_260\n      jumpi\n      swap1\n      pop\n    tag_259:\n      pop\n        /* \"Mqttbaru.sol\":6284:6434  Client({\r... */\n      dup2\n      mstore\n      pop\n        /* \"Mqttbaru.sol\":6258:6434  Client memory newClient = Client({\r... */\n      swap1\n      pop\n        /* \"Mqttbaru.sol\":6445:6456  clientCount */\n      0x05\n      0x00\n        /* \"Mqttbaru.sol\":6445:6458  clientCount++ */\n      dup2\n      sload\n      dup1\n      swap3\n      swap2\n      swap1\n      0x01\n      add\n      swap2\n      swap1\n      pop\n      sstore\n      pop\n        /* \"Mqttbaru.sol\":6469:6476  idCount */\n      0x07\n      0x00\n        /* \"Mqttbaru.sol\":6469:6478  idCount++ */\n      dup2\n      sload\n      dup1\n      swap3\n      swap2\n      swap1\n      0x01\n      add\n      swap2\n      swap1\n      pop\n      sstore\n      pop\n        /* \"Mqttbaru.sol\":6489:6501  clientLedger */\n      0x01\n        /* \"Mqttbaru.sol\":6507:6516  newClient */\n      dup2\n        /* \"Mqttbaru.sol\":6489:6517  clientLedger.push(newClient) */\n      swap1\n      dup1\n      0x01\n      dup2\n      sload\n      add\n      dup1\n      dup3\n      sstore\n      dup1\n      swap2\n      pop\n      pop\n      0x01\n      swap1\n      sub\n      swap1\n      0x00\n      mstore\n      keccak256(0x00, 0x20)\n      swap1\n      0x04\n      mul\n      add\n      0x00\n      swap1\n      swap2\n      swap1\n      swap2\n      swap1\n      swap2\n      pop\n      0x00\n      dup3\n      add\n      mload\n      dup2\n      0x00\n      add\n      sstore\n      0x20\n      dup3\n      add\n      mload\n      dup2\n      0x01\n      add\n      swap1\n      dup1\n      mload\n      swap1\n      0x20\n      add\n      swap1\n      tag_262\n      swap3\n      swap2\n      swap1\n      tag_136\n      jump\t// in\n    tag_262:\n      pop\n      0x40\n      dup3\n      add\n      mload\n      dup2\n      0x02\n      add\n      swap1\n      dup1\n      mload\n      swap1\n      0x20\n      add\n      swap1\n      tag_263\n      swap3\n      swap2\n      swap1\n      tag_136\n      jump\t// in\n    tag_263:\n      pop\n      0x60\n      dup3\n      add\n      mload\n      dup2\n      0x03\n      add\n      swap1\n      dup1\n      mload\n      swap1\n      0x20\n      add\n      swap1\n      tag_264\n      swap3\n      swap2\n      swap1\n      tag_265\n      jump\t// in\n    tag_264:\n      pop\n      pop\n      pop\n        /* \"Mqttbaru.sol\":8913:8914  _ */\n      pop\n        /* \"Mqttbaru.sol\":6161:6525  function addClient(string memory _username, string memory _password) isManager public {\r... */\n      pop\n      pop\n      jump\t// out\n        /* \"Mqttbaru.sol\":3983:4309  function deleteClient(uint _id) isManager public {\r... */\n    tag_76:\n        /* \"Mqttbaru.sol\":8894:8901  manager */\n      0x00\n      dup1\n      sload\n      swap1\n      0x0100\n      exp\n      swap1\n      div\n      0xffffffffffffffffffffffffffffffffffffffff\n      and\n        /* \"Mqttbaru.sol\":8880:8901  msg.sender == manager */\n      0xffffffffffffffffffffffffffffffffffffffff\n      and\n        /* \"Mqttbaru.sol\":8880:8890  msg.sender */\n      caller\n        /* \"Mqttbaru.sol\":8880:8901  msg.sender == manager */\n      0xffffffffffffffffffffffffffffffffffffffff\n      and\n      eq\n        /* \"Mqttbaru.sol\":8872:8902  require(msg.sender == manager) */\n      tag_267\n      jumpi\n      0x00\n      dup1\n      revert\n    tag_267:\n        /* \"Mqttbaru.sol\":4047:4053  uint i */\n      0x00\n        /* \"Mqttbaru.sol\":4043:4302  for(uint i = 0; i < clientLedger.length; i++){\r... */\n    tag_269:\n        /* \"Mqttbaru.sol\":4063:4075  clientLedger */\n      0x01\n        /* \"Mqttbaru.sol\":4063:4082  clientLedger.length */\n      dup1\n      sload\n      swap1\n      pop\n        /* \"Mqttbaru.sol\":4059:4060  i */\n      dup2\n        /* \"Mqttbaru.sol\":4059:4082  i < clientLedger.length */\n      lt\n        /* \"Mqttbaru.sol\":4043:4302  for(uint i = 0; i < clientLedger.length; i++){\r... */\n      iszero\n      tag_270\n      jumpi\n        /* \"Mqttbaru.sol\":4113:4125  clientLedger */\n      0x01\n        /* \"Mqttbaru.sol\":4126:4127  i */\n      dup2\n        /* \"Mqttbaru.sol\":4113:4128  clientLedger[i] */\n      dup2\n      sload\n      dup2\n      lt\n      tag_272\n      jumpi\n      invalid\n    tag_272:\n      swap1\n      0x00\n      mstore\n      keccak256(0x00, 0x20)\n      swap1\n      0x04\n      mul\n      add\n        /* \"Mqttbaru.sol\":4113:4131  clientLedger[i].id */\n      0x00\n      add\n      sload\n        /* \"Mqttbaru.sol\":4106:4109  _id */\n      dup3\n        /* \"Mqttbaru.sol\":4106:4131  _id == clientLedger[i].id */\n      eq\n        /* \"Mqttbaru.sol\":4103:4291  if(_id == clientLedger[i].id){\r... */\n      iszero\n      tag_274\n      jumpi\n        /* \"Mqttbaru.sol\":4169:4181  clientLedger */\n      0x01\n        /* \"Mqttbaru.sol\":4204:4205  1 */\n      dup1\n        /* \"Mqttbaru.sol\":4182:4194  clientLedger */\n      dup1\n        /* \"Mqttbaru.sol\":4182:4201  clientLedger.length */\n      dup1\n      sload\n      swap1\n      pop\n        /* \"Mqttbaru.sol\":4182:4205  clientLedger.length - 1 */\n      sub\n        /* \"Mqttbaru.sol\":4169:4206  clientLedger[clientLedger.length - 1] */\n      dup2\n      sload\n      dup2\n      lt\n      tag_275\n      jumpi\n      invalid\n    tag_275:\n      swap1\n      0x00\n      mstore\n      keccak256(0x00, 0x20)\n      swap1\n      0x04\n      mul\n      add\n        /* \"Mqttbaru.sol\":4151:4163  clientLedger */\n      0x01\n        /* \"Mqttbaru.sol\":4164:4165  i */\n      dup3\n        /* \"Mqttbaru.sol\":4151:4166  clientLedger[i] */\n      dup2\n      sload\n      dup2\n      lt\n      tag_277\n      jumpi\n      invalid\n    tag_277:\n      swap1\n      0x00\n      mstore\n      keccak256(0x00, 0x20)\n      swap1\n      0x04\n      mul\n      add\n        /* \"Mqttbaru.sol\":4151:4206  clientLedger[i] = clientLedger[clientLedger.length - 1] */\n      0x00\n      dup3\n      add\n      sload\n      dup2\n      0x00\n      add\n      sstore\n      0x01\n      dup3\n      add\n      dup2\n      0x01\n      add\n      swap1\n      dup1\n      sload\n      0x01\n      dup2\n      0x01\n      and\n      iszero\n      0x0100\n      mul\n      sub\n      and\n      0x02\n      swap1\n      div\n      tag_279\n      swap3\n      swap2\n      swap1\n      tag_280\n      jump\t// in\n    tag_279:\n      pop\n      0x02\n      dup3\n      add\n      dup2\n      0x02\n      add\n      swap1\n      dup1\n      sload\n      0x01\n      dup2\n      0x01\n      and\n      iszero\n      0x0100\n      mul\n      sub\n      and\n      0x02\n      swap1\n      div\n      tag_281\n      swap3\n      swap2\n      swap1\n      tag_280\n      jump\t// in\n    tag_281:\n      pop\n      0x03\n      dup3\n      add\n      dup2\n      0x03\n      add\n      swap1\n      dup1\n      sload\n      tag_282\n      swap3\n      swap2\n      swap1\n      tag_283\n      jump\t// in\n    tag_282:\n      pop\n      swap1\n      pop\n      pop\n        /* \"Mqttbaru.sol\":4225:4237  clientLedger */\n      0x01\n        /* \"Mqttbaru.sol\":4225:4243  clientLedger.pop() */\n      dup1\n      sload\n      dup1\n      tag_284\n      jumpi\n      invalid\n    tag_284:\n      0x01\n      swap1\n      sub\n      dup2\n      dup2\n      swap1\n      0x00\n      mstore\n      keccak256(0x00, 0x20)\n      swap1\n      0x04\n      mul\n      add\n      0x00\n      dup1\n      dup3\n      add\n      0x00\n      swap1\n      sstore\n      0x01\n      dup3\n      add\n      0x00\n      tag_286\n      swap2\n      swap1\n      tag_178\n      jump\t// in\n    tag_286:\n      0x02\n      dup3\n      add\n      0x00\n      tag_287\n      swap2\n      swap1\n      tag_178\n      jump\t// in\n    tag_287:\n      0x03\n      dup3\n      add\n      0x00\n      tag_288\n      swap2\n      swap1\n      tag_289\n      jump\t// in\n    tag_288:\n      pop\n      pop\n      swap1\n      sstore\n        /* \"Mqttbaru.sol\":4262:4273  clientCount */\n      0x05\n      0x00\n        /* \"Mqttbaru.sol\":4262:4275  clientCount-- */\n      dup2\n      sload\n      dup1\n      swap3\n      swap2\n      swap1\n      0x01\n      swap1\n      sub\n      swap2\n      swap1\n      pop\n      sstore\n      pop\n        /* \"Mqttbaru.sol\":4103:4291  if(_id == clientLedger[i].id){\r... */\n    tag_274:\n        /* \"Mqttbaru.sol\":4084:4087  i++ */\n      dup1\n      dup1\n      0x01\n      add\n      swap2\n      pop\n      pop\n        /* \"Mqttbaru.sol\":4043:4302  for(uint i = 0; i < clientLedger.length; i++){\r... */\n      jump(tag_269)\n    tag_270:\n      pop\n        /* \"Mqttbaru.sol\":3983:4309  function deleteClient(uint _id) isManager public {\r... */\n      pop\n      jump\t// out\n        /* \"Mqttbaru.sol\":1903:2200  function getBroker() public isManager view returns (address[] memory){\r... */\n    tag_78:\n        /* \"Mqttbaru.sol\":1955:1971  address[] memory */\n      0x60\n        /* \"Mqttbaru.sol\":8894:8901  manager */\n      0x00\n      dup1\n      sload\n      swap1\n      0x0100\n      exp\n      swap1\n      div\n      0xffffffffffffffffffffffffffffffffffffffff\n      and\n        /* \"Mqttbaru.sol\":8880:8901  msg.sender == manager */\n      0xffffffffffffffffffffffffffffffffffffffff\n      and\n        /* \"Mqttbaru.sol\":8880:8890  msg.sender */\n      caller\n        /* \"Mqttbaru.sol\":8880:8901  msg.sender == manager */\n      0xffffffffffffffffffffffffffffffffffffffff\n      and\n      eq\n        /* \"Mqttbaru.sol\":8872:8902  require(msg.sender == manager) */\n      tag_291\n      jumpi\n      0x00\n      dup1\n      revert\n    tag_291:\n        /* \"Mqttbaru.sol\":1983:2008  address[] memory _address */\n      0x60\n        /* \"Mqttbaru.sol\":2025:2036  brokerCount */\n      sload(0x06)\n        /* \"Mqttbaru.sol\":2011:2037  new address[](brokerCount) */\n      0xffffffffffffffff\n      dup2\n      gt\n      dup1\n      iszero\n      tag_293\n      jumpi\n      0x00\n      dup1\n      revert\n    tag_293:\n      pop\n      mload(0x40)\n      swap1\n      dup1\n      dup3\n      mstore\n      dup1\n      0x20\n      mul\n      0x20\n      add\n      dup3\n      add\n      0x40\n      mstore\n      dup1\n      iszero\n      tag_294\n      jumpi\n      dup2\n      0x20\n      add\n      0x20\n      dup3\n      mul\n      dup1\n      calldatasize\n      dup4\n      calldatacopy\n      dup1\n      dup3\n      add\n      swap2\n      pop\n      pop\n      swap1\n      pop\n    tag_294:\n      pop\n        /* \"Mqttbaru.sol\":1983:2037  address[] memory _address = new address[](brokerCount) */\n      swap1\n      pop\n        /* \"Mqttbaru.sol\":2052:2058  uint i */\n      0x00\n        /* \"Mqttbaru.sol\":2048:2167  for(uint i = 0; i < brokerAddress.length; i++) {\r... */\n    tag_295:\n        /* \"Mqttbaru.sol\":2068:2081  brokerAddress */\n      0x02\n        /* \"Mqttbaru.sol\":2068:2088  brokerAddress.length */\n      dup1\n      sload\n      swap1\n      pop\n        /* \"Mqttbaru.sol\":2064:2065  i */\n      dup2\n        /* \"Mqttbaru.sol\":2064:2088  i < brokerAddress.length */\n      lt\n        /* \"Mqttbaru.sol\":2048:2167  for(uint i = 0; i < brokerAddress.length; i++) {\r... */\n      iszero\n      tag_296\n      jumpi\n        /* \"Mqttbaru.sol\":2124:2137  brokerAddress */\n      0x02\n        /* \"Mqttbaru.sol\":2138:2139  i */\n      dup2\n        /* \"Mqttbaru.sol\":2124:2140  brokerAddress[i] */\n      dup2\n      sload\n      dup2\n      lt\n      tag_298\n      jumpi\n      invalid\n    tag_298:\n      swap1\n      0x00\n      mstore\n      keccak256(0x00, 0x20)\n      swap1\n      0x02\n      mul\n      add\n        /* \"Mqttbaru.sol\":2124:2155  brokerAddress[i].broker_address */\n      0x00\n      add\n      0x00\n      swap1\n      sload\n      swap1\n      0x0100\n      exp\n      swap1\n      div\n      0xffffffffffffffffffffffffffffffffffffffff\n      and\n        /* \"Mqttbaru.sol\":2110:2118  _address */\n      dup3\n        /* \"Mqttbaru.sol\":2119:2120  i */\n      dup3\n        /* \"Mqttbaru.sol\":2110:2121  _address[i] */\n      dup2\n      mload\n      dup2\n      lt\n      tag_300\n      jumpi\n      invalid\n    tag_300:\n      0x20\n      mul\n      0x20\n      add\n      add\n        /* \"Mqttbaru.sol\":2110:2155  _address[i] = brokerAddress[i].broker_address */\n      swap1\n      0xffffffffffffffffffffffffffffffffffffffff\n      and\n      swap1\n      dup2\n      0xffffffffffffffffffffffffffffffffffffffff\n      and\n      dup2\n      mstore\n      pop\n      pop\n        /* \"Mqttbaru.sol\":2090:2093  i++ */\n      dup1\n      dup1\n      0x01\n      add\n      swap2\n      pop\n      pop\n        /* \"Mqttbaru.sol\":2048:2167  for(uint i = 0; i < brokerAddress.length; i++) {\r... */\n      jump(tag_295)\n    tag_296:\n      pop\n        /* \"Mqttbaru.sol\":2184:2192  _address */\n      dup1\n        /* \"Mqttbaru.sol\":2177:2192  return _address */\n      swap2\n      pop\n      pop\n        /* \"Mqttbaru.sol\":1903:2200  function getBroker() public isManager view returns (address[] memory){\r... */\n      swap1\n      jump\t// out\n        /* \"Mqttbaru.sol\":7741:8272  function authenticate(bytes32 _token, uint _id, string memory _username, string memory _password) brokerIsAuth(_token) public view returns (bool) {\r... */\n    tag_84:\n        /* \"Mqttbaru.sol\":7881:7885  bool */\n      0x00\n        /* \"Mqttbaru.sol\":7852:7858  _token */\n      dup5\n        /* \"Mqttbaru.sol\":9115:9181  0x0000000000000000000000000000000000000000000000000000000000000000 */\n      0x00\n        /* \"Mqttbaru.sol\":9089:9181  tokenSlots[msg.sender] != 0x0000000000000000000000000000000000000000000000000000000000000000 */\n      dup1\n      shl\n        /* \"Mqttbaru.sol\":9089:9099  tokenSlots */\n      0x04\n        /* \"Mqttbaru.sol\":9089:9111  tokenSlots[msg.sender] */\n      0x00\n        /* \"Mqttbaru.sol\":9100:9110  msg.sender */\n      caller\n        /* \"Mqttbaru.sol\":9089:9111  tokenSlots[msg.sender] */\n      0xffffffffffffffffffffffffffffffffffffffff\n      and\n      0xffffffffffffffffffffffffffffffffffffffff\n      and\n      dup2\n      mstore\n      0x20\n      add\n      swap1\n      dup2\n      mstore\n      0x20\n      add\n      0x00\n      keccak256\n      sload\n        /* \"Mqttbaru.sol\":9089:9181  tokenSlots[msg.sender] != 0x0000000000000000000000000000000000000000000000000000000000000000 */\n      eq\n      iszero\n        /* \"Mqttbaru.sol\":9081:9182  require(tokenSlots[msg.sender] != 0x0000000000000000000000000000000000000000000000000000000000000000) */\n      tag_302\n      jumpi\n      0x00\n      dup1\n      revert\n    tag_302:\n        /* \"Mqttbaru.sol\":9211:9221  tokenSlots */\n      0x04\n        /* \"Mqttbaru.sol\":9211:9233  tokenSlots[msg.sender] */\n      0x00\n        /* \"Mqttbaru.sol\":9222:9232  msg.sender */\n      caller\n        /* \"Mqttbaru.sol\":9211:9233  tokenSlots[msg.sender] */\n      0xffffffffffffffffffffffffffffffffffffffff\n      and\n      0xffffffffffffffffffffffffffffffffffffffff\n      and\n      dup2\n      mstore\n      0x20\n      add\n      swap1\n      dup2\n      mstore\n      0x20\n      add\n      0x00\n      keccak256\n      sload\n        /* \"Mqttbaru.sol\":9201:9207  _token */\n      dup2\n        /* \"Mqttbaru.sol\":9201:9233  _token == tokenSlots[msg.sender] */\n      eq\n        /* \"Mqttbaru.sol\":9193:9234  require(_token == tokenSlots[msg.sender]) */\n      tag_303\n      jumpi\n      0x00\n      dup1\n      revert\n    tag_303:\n        /* \"Mqttbaru.sol\":7902:7908  uint i */\n      0x00\n        /* \"Mqttbaru.sol\":7898:8242  for(uint i = 0; i < clientLedger.length; i++){\r... */\n    tag_305:\n        /* \"Mqttbaru.sol\":7918:7930  clientLedger */\n      0x01\n        /* \"Mqttbaru.sol\":7918:7937  clientLedger.length */\n      dup1\n      sload\n      swap1\n      pop\n        /* \"Mqttbaru.sol\":7914:7915  i */\n      dup2\n        /* \"Mqttbaru.sol\":7914:7937  i < clientLedger.length */\n      lt\n        /* \"Mqttbaru.sol\":7898:8242  for(uint i = 0; i < clientLedger.length; i++){\r... */\n      iszero\n      tag_306\n      jumpi\n        /* \"Mqttbaru.sol\":7968:7980  clientLedger */\n      0x01\n        /* \"Mqttbaru.sol\":7981:7982  i */\n      dup2\n        /* \"Mqttbaru.sol\":7968:7983  clientLedger[i] */\n      dup2\n      sload\n      dup2\n      lt\n      tag_308\n      jumpi\n      invalid\n    tag_308:\n      swap1\n      0x00\n      mstore\n      keccak256(0x00, 0x20)\n      swap1\n      0x04\n      mul\n      add\n        /* \"Mqttbaru.sol\":7968:7986  clientLedger[i].id */\n      0x00\n      add\n      sload\n        /* \"Mqttbaru.sol\":7961:7964  _id */\n      dup7\n        /* \"Mqttbaru.sol\":7961:7986  _id == clientLedger[i].id */\n      eq\n        /* \"Mqttbaru.sol\":7961:8085  _id == clientLedger[i].id && keccak256(abi.encodePacked(_username)) == keccak256(abi.encodePacked(clientLedger[i].username)) */\n      dup1\n      iszero\n      tag_310\n      jumpi\n      pop\n        /* \"Mqttbaru.sol\":8059:8071  clientLedger */\n      0x01\n        /* \"Mqttbaru.sol\":8072:8073  i */\n      dup2\n        /* \"Mqttbaru.sol\":8059:8074  clientLedger[i] */\n      dup2\n      sload\n      dup2\n      lt\n      tag_311\n      jumpi\n      invalid\n    tag_311:\n      swap1\n      0x00\n      mstore\n      keccak256(0x00, 0x20)\n      swap1\n      0x04\n      mul\n      add\n        /* \"Mqttbaru.sol\":8059:8083  clientLedger[i].username */\n      0x01\n      add\n        /* \"Mqttbaru.sol\":8042:8084  abi.encodePacked(clientLedger[i].username) */\n      add(0x20, mload(0x40))\n      tag_313\n      swap2\n      swap1\n      tag_129\n      jump\t// in\n    tag_313:\n      mload(0x40)\n      0x20\n      dup2\n      dup4\n      sub\n      sub\n      dup2\n      mstore\n      swap1\n      0x40\n      mstore\n        /* \"Mqttbaru.sol\":8032:8085  keccak256(abi.encodePacked(clientLedger[i].username)) */\n      dup1\n      mload\n      swap1\n      0x20\n      add\n      keccak256\n        /* \"Mqttbaru.sol\":8017:8026  _username */\n      dup6\n        /* \"Mqttbaru.sol\":8000:8027  abi.encodePacked(_username) */\n      add(0x20, mload(0x40))\n      tag_314\n      swap2\n      swap1\n      tag_131\n      jump\t// in\n    tag_314:\n      mload(0x40)\n      0x20\n      dup2\n      dup4\n      sub\n      sub\n      dup2\n      mstore\n      swap1\n      0x40\n      mstore\n        /* \"Mqttbaru.sol\":7990:8028  keccak256(abi.encodePacked(_username)) */\n      dup1\n      mload\n      swap1\n      0x20\n      add\n      keccak256\n        /* \"Mqttbaru.sol\":7990:8085  keccak256(abi.encodePacked(_username)) == keccak256(abi.encodePacked(clientLedger[i].username)) */\n      eq\n        /* \"Mqttbaru.sol\":7961:8085  _id == clientLedger[i].id && keccak256(abi.encodePacked(_username)) == keccak256(abi.encodePacked(clientLedger[i].username)) */\n    tag_310:\n        /* \"Mqttbaru.sol\":7961:8184  _id == clientLedger[i].id && keccak256(abi.encodePacked(_username)) == keccak256(abi.encodePacked(clientLedger[i].username)) && keccak256(abi.encodePacked(_password)) == keccak256(abi.encodePacked(clientLedger[i].password)) */\n      dup1\n      iszero\n      tag_315\n      jumpi\n      pop\n        /* \"Mqttbaru.sol\":8158:8170  clientLedger */\n      0x01\n        /* \"Mqttbaru.sol\":8171:8172  i */\n      dup2\n        /* \"Mqttbaru.sol\":8158:8173  clientLedger[i] */\n      dup2\n      sload\n      dup2\n      lt\n      tag_316\n      jumpi\n      invalid\n    tag_316:\n      swap1\n      0x00\n      mstore\n      keccak256(0x00, 0x20)\n      swap1\n      0x04\n      mul\n      add\n        /* \"Mqttbaru.sol\":8158:8182  clientLedger[i].password */\n      0x02\n      add\n        /* \"Mqttbaru.sol\":8141:8183  abi.encodePacked(clientLedger[i].password) */\n      add(0x20, mload(0x40))\n      tag_318\n      swap2\n      swap1\n      tag_129\n      jump\t// in\n    tag_318:\n      mload(0x40)\n      0x20\n      dup2\n      dup4\n      sub\n      sub\n      dup2\n      mstore\n      swap1\n      0x40\n      mstore\n        /* \"Mqttbaru.sol\":8131:8184  keccak256(abi.encodePacked(clientLedger[i].password)) */\n      dup1\n      mload\n      swap1\n      0x20\n      add\n      keccak256\n        /* \"Mqttbaru.sol\":8116:8125  _password */\n      dup5\n        /* \"Mqttbaru.sol\":8099:8126  abi.encodePacked(_password) */\n      add(0x20, mload(0x40))\n      tag_319\n      swap2\n      swap1\n      tag_131\n      jump\t// in\n    tag_319:\n      mload(0x40)\n      0x20\n      dup2\n      dup4\n      sub\n      sub\n      dup2\n      mstore\n      swap1\n      0x40\n      mstore\n        /* \"Mqttbaru.sol\":8089:8127  keccak256(abi.encodePacked(_password)) */\n      dup1\n      mload\n      swap1\n      0x20\n      add\n      keccak256\n        /* \"Mqttbaru.sol\":8089:8184  keccak256(abi.encodePacked(_password)) == keccak256(abi.encodePacked(clientLedger[i].password)) */\n      eq\n        /* \"Mqttbaru.sol\":7961:8184  _id == clientLedger[i].id && keccak256(abi.encodePacked(_username)) == keccak256(abi.encodePacked(clientLedger[i].username)) && keccak256(abi.encodePacked(_password)) == keccak256(abi.encodePacked(clientLedger[i].password)) */\n    tag_315:\n        /* \"Mqttbaru.sol\":7958:8231  if(_id == clientLedger[i].id && keccak256(abi.encodePacked(_username)) == keccak256(abi.encodePacked(clientLedger[i].username)) && keccak256(abi.encodePacked(_password)) == keccak256(abi.encodePacked(clientLedger[i].password))){\r... */\n      iszero\n      tag_320\n      jumpi\n        /* \"Mqttbaru.sol\":8211:8215  true */\n      0x01\n        /* \"Mqttbaru.sol\":8204:8215  return true */\n      swap3\n      pop\n      pop\n      jump(tag_304)\n        /* \"Mqttbaru.sol\":7958:8231  if(_id == clientLedger[i].id && keccak256(abi.encodePacked(_username)) == keccak256(abi.encodePacked(clientLedger[i].username)) && keccak256(abi.encodePacked(_password)) == keccak256(abi.encodePacked(clientLedger[i].password))){\r... */\n    tag_320:\n        /* \"Mqttbaru.sol\":7939:7942  i++ */\n      dup1\n      dup1\n      0x01\n      add\n      swap2\n      pop\n      pop\n        /* \"Mqttbaru.sol\":7898:8242  for(uint i = 0; i < clientLedger.length; i++){\r... */\n      jump(tag_305)\n    tag_306:\n      pop\n        /* \"Mqttbaru.sol\":8259:8264  false */\n      0x00\n        /* \"Mqttbaru.sol\":8252:8264  return false */\n      swap2\n      pop\n        /* \"Mqttbaru.sol\":9245:9246  _ */\n    tag_304:\n        /* \"Mqttbaru.sol\":7741:8272  function authenticate(bytes32 _token, uint _id, string memory _username, string memory _password) brokerIsAuth(_token) public view returns (bool) {\r... */\n      pop\n      swap5\n      swap4\n      pop\n      pop\n      pop\n      pop\n      jump\t// out\n        /* \"Mqttbaru.sol\":6543:7101  function updateTopic(uint _id, string memory _topic, string memory _newtopic) isManager public{\r... */\n    tag_89:\n        /* \"Mqttbaru.sol\":8894:8901  manager */\n      0x00\n      dup1\n      sload\n      swap1\n      0x0100\n      exp\n      swap1\n      div\n      0xffffffffffffffffffffffffffffffffffffffff\n      and\n        /* \"Mqttbaru.sol\":8880:8901  msg.sender == manager */\n      0xffffffffffffffffffffffffffffffffffffffff\n      and\n        /* \"Mqttbaru.sol\":8880:8890  msg.sender */\n      caller\n        /* \"Mqttbaru.sol\":8880:8901  msg.sender == manager */\n      0xffffffffffffffffffffffffffffffffffffffff\n      and\n      eq\n        /* \"Mqttbaru.sol\":8872:8902  require(msg.sender == manager) */\n      tag_322\n      jumpi\n      0x00\n      dup1\n      revert\n    tag_322:\n        /* \"Mqttbaru.sol\":6652:6658  uint i */\n      0x00\n        /* \"Mqttbaru.sol\":6648:7094  for(uint i = 0; i < clientLedger.length; i++){\r... */\n    tag_324:\n        /* \"Mqttbaru.sol\":6668:6680  clientLedger */\n      0x01\n        /* \"Mqttbaru.sol\":6668:6687  clientLedger.length */\n      dup1\n      sload\n      swap1\n      pop\n        /* \"Mqttbaru.sol\":6664:6665  i */\n      dup2\n        /* \"Mqttbaru.sol\":6664:6687  i < clientLedger.length */\n      lt\n        /* \"Mqttbaru.sol\":6648:7094  for(uint i = 0; i < clientLedger.length; i++){\r... */\n      iszero\n      tag_325\n      jumpi\n        /* \"Mqttbaru.sol\":6708:6732  Client storage clientele */\n      0x00\n        /* \"Mqttbaru.sol\":6735:6747  clientLedger */\n      0x01\n        /* \"Mqttbaru.sol\":6748:6749  i */\n      dup3\n        /* \"Mqttbaru.sol\":6735:6750  clientLedger[i] */\n      dup2\n      sload\n      dup2\n      lt\n      tag_327\n      jumpi\n      invalid\n    tag_327:\n      swap1\n      0x00\n      mstore\n      keccak256(0x00, 0x20)\n      swap1\n      0x04\n      mul\n      add\n        /* \"Mqttbaru.sol\":6708:6750  Client storage clientele = clientLedger[i] */\n      swap1\n      pop\n        /* \"Mqttbaru.sol\":6775:6784  clientele */\n      dup1\n        /* \"Mqttbaru.sol\":6775:6787  clientele.id */\n      0x00\n      add\n      sload\n        /* \"Mqttbaru.sol\":6768:6771  _id */\n      dup6\n        /* \"Mqttbaru.sol\":6768:6787  _id == clientele.id */\n      eq\n        /* \"Mqttbaru.sol\":6765:7083  if(_id == clientele.id){\r... */\n      iszero\n      tag_329\n      jumpi\n        /* \"Mqttbaru.sol\":6811:6817  uint j */\n      0x00\n        /* \"Mqttbaru.sol\":6807:7068  for(uint j = 0; j < clientele.topic.length; j++){\r... */\n    tag_330:\n        /* \"Mqttbaru.sol\":6827:6836  clientele */\n      dup2\n        /* \"Mqttbaru.sol\":6827:6842  clientele.topic */\n      0x03\n      add\n        /* \"Mqttbaru.sol\":6827:6849  clientele.topic.length */\n      dup1\n      sload\n      swap1\n      pop\n        /* \"Mqttbaru.sol\":6823:6824  j */\n      dup2\n        /* \"Mqttbaru.sol\":6823:6849  j < clientele.topic.length */\n      lt\n        /* \"Mqttbaru.sol\":6807:7068  for(uint j = 0; j < clientele.topic.length; j++){\r... */\n      iszero\n      tag_331\n      jumpi\n        /* \"Mqttbaru.sol\":6959:6965  _topic */\n      dup5\n        /* \"Mqttbaru.sol\":6942:6966  abi.encodePacked(_topic) */\n      add(0x20, mload(0x40))\n      tag_333\n      swap2\n      swap1\n      tag_131\n      jump\t// in\n    tag_333:\n      mload(0x40)\n      0x20\n      dup2\n      dup4\n      sub\n      sub\n      dup2\n      mstore\n      swap1\n      0x40\n      mstore\n        /* \"Mqttbaru.sol\":6932:6967  keccak256(abi.encodePacked(_topic)) */\n      dup1\n      mload\n      swap1\n      0x20\n      add\n      keccak256\n        /* \"Mqttbaru.sol\":6908:6917  clientele */\n      dup3\n        /* \"Mqttbaru.sol\":6908:6923  clientele.topic */\n      0x03\n      add\n        /* \"Mqttbaru.sol\":6924:6925  j */\n      dup3\n        /* \"Mqttbaru.sol\":6908:6926  clientele.topic[j] */\n      dup2\n      sload\n      dup2\n      lt\n      tag_334\n      jumpi\n      invalid\n    tag_334:\n      swap1\n      0x00\n      mstore\n      keccak256(0x00, 0x20)\n      add\n        /* \"Mqttbaru.sol\":6891:6927  abi.encodePacked(clientele.topic[j]) */\n      add(0x20, mload(0x40))\n      tag_336\n      swap2\n      swap1\n      tag_129\n      jump\t// in\n    tag_336:\n      mload(0x40)\n      0x20\n      dup2\n      dup4\n      sub\n      sub\n      dup2\n      mstore\n      swap1\n      0x40\n      mstore\n        /* \"Mqttbaru.sol\":6881:6928  keccak256(abi.encodePacked(clientele.topic[j])) */\n      dup1\n      mload\n      swap1\n      0x20\n      add\n      keccak256\n        /* \"Mqttbaru.sol\":6881:6967  keccak256(abi.encodePacked(clientele.topic[j])) == keccak256(abi.encodePacked(_topic)) */\n      eq\n        /* \"Mqttbaru.sol\":6878:7049  if(keccak256(abi.encodePacked(clientele.topic[j])) == keccak256(abi.encodePacked(_topic))){\r... */\n      iszero\n      tag_337\n      jumpi\n        /* \"Mqttbaru.sol\":7016:7025  _newtopic */\n      dup4\n        /* \"Mqttbaru.sol\":6995:7004  clientele */\n      dup3\n        /* \"Mqttbaru.sol\":6995:7010  clientele.topic */\n      0x03\n      add\n        /* \"Mqttbaru.sol\":7011:7012  j */\n      dup3\n        /* \"Mqttbaru.sol\":6995:7013  clientele.topic[j] */\n      dup2\n      sload\n      dup2\n      lt\n      tag_338\n      jumpi\n      invalid\n    tag_338:\n      swap1\n      0x00\n      mstore\n      keccak256(0x00, 0x20)\n      add\n        /* \"Mqttbaru.sol\":6995:7025  clientele.topic[j] = _newtopic */\n      swap1\n      dup1\n      mload\n      swap1\n      0x20\n      add\n      swap1\n      tag_340\n      swap3\n      swap2\n      swap1\n      tag_136\n      jump\t// in\n    tag_340:\n      pop\n        /* \"Mqttbaru.sol\":6878:7049  if(keccak256(abi.encodePacked(clientele.topic[j])) == keccak256(abi.encodePacked(_topic))){\r... */\n    tag_337:\n        /* \"Mqttbaru.sol\":6851:6854  j++ */\n      dup1\n      dup1\n      0x01\n      add\n      swap2\n      pop\n      pop\n        /* \"Mqttbaru.sol\":6807:7068  for(uint j = 0; j < clientele.topic.length; j++){\r... */\n      jump(tag_330)\n    tag_331:\n      pop\n        /* \"Mqttbaru.sol\":6765:7083  if(_id == clientele.id){\r... */\n    tag_329:\n        /* \"Mqttbaru.sol\":6648:7094  for(uint i = 0; i < clientLedger.length; i++){\r... */\n      pop\n        /* \"Mqttbaru.sol\":6689:6692  i++ */\n      dup1\n      dup1\n      0x01\n      add\n      swap2\n      pop\n      pop\n        /* \"Mqttbaru.sol\":6648:7094  for(uint i = 0; i < clientLedger.length; i++){\r... */\n      jump(tag_324)\n    tag_325:\n      pop\n        /* \"Mqttbaru.sol\":6543:7101  function updateTopic(uint _id, string memory _topic, string memory _newtopic) isManager public{\r... */\n      pop\n      pop\n      pop\n      jump\t// out\n        /* \"Mqttbaru.sol\":911:1891  function refreshToken() public isBroker {\r... */\n    tag_91:\n        /* \"Mqttbaru.sol\":8973:8987  brokerValidity */\n      0x03\n        /* \"Mqttbaru.sol\":8973:8999  brokerValidity[msg.sender] */\n      0x00\n        /* \"Mqttbaru.sol\":8988:8998  msg.sender */\n      caller\n        /* \"Mqttbaru.sol\":8973:8999  brokerValidity[msg.sender] */\n      0xffffffffffffffffffffffffffffffffffffffff\n      and\n      0xffffffffffffffffffffffffffffffffffffffff\n      and\n      dup2\n      mstore\n      0x20\n      add\n      swap1\n      dup2\n      mstore\n      0x20\n      add\n      0x00\n      keccak256\n      0x00\n      swap1\n      sload\n      swap1\n      0x0100\n      exp\n      swap1\n      div\n      0xff\n      and\n        /* \"Mqttbaru.sol\":8965:9000  require(brokerValidity[msg.sender]) */\n      tag_342\n      jumpi\n      0x00\n      dup1\n      revert\n    tag_342:\n        /* \"Mqttbaru.sol\":966:972  uint i */\n      0x00\n        /* \"Mqttbaru.sol\":962:1884  for(uint i = 0; i < brokerAddress.length; i++) {\r... */\n    tag_344:\n        /* \"Mqttbaru.sol\":982:995  brokerAddress */\n      0x02\n        /* \"Mqttbaru.sol\":982:1002  brokerAddress.length */\n      dup1\n      sload\n      swap1\n      pop\n        /* \"Mqttbaru.sol\":978:979  i */\n      dup2\n        /* \"Mqttbaru.sol\":978:1002  i < brokerAddress.length */\n      lt\n        /* \"Mqttbaru.sol\":962:1884  for(uint i = 0; i < brokerAddress.length; i++) {\r... */\n      iszero\n      tag_345\n      jumpi\n        /* \"Mqttbaru.sol\":1041:1054  brokerAddress */\n      0x02\n        /* \"Mqttbaru.sol\":1055:1056  i */\n      dup2\n        /* \"Mqttbaru.sol\":1041:1057  brokerAddress[i] */\n      dup2\n      sload\n      dup2\n      lt\n      tag_347\n      jumpi\n      invalid\n    tag_347:\n      swap1\n      0x00\n      mstore\n      keccak256(0x00, 0x20)\n      swap1\n      0x02\n      mul\n      add\n        /* \"Mqttbaru.sol\":1041:1072  brokerAddress[i].broker_address */\n      0x00\n      add\n      0x00\n      swap1\n      sload\n      swap1\n      0x0100\n      exp\n      swap1\n      div\n      0xffffffffffffffffffffffffffffffffffffffff\n      and\n        /* \"Mqttbaru.sol\":1027:1072  msg.sender == brokerAddress[i].broker_address */\n      0xffffffffffffffffffffffffffffffffffffffff\n      and\n        /* \"Mqttbaru.sol\":1027:1037  msg.sender */\n      caller\n        /* \"Mqttbaru.sol\":1027:1072  msg.sender == brokerAddress[i].broker_address */\n      0xffffffffffffffffffffffffffffffffffffffff\n      and\n      eq\n        /* \"Mqttbaru.sol\":1024:1873  if(msg.sender == brokerAddress[i].broker_address){\r... */\n      iszero\n      tag_349\n      jumpi\n        /* \"Mqttbaru.sol\":1092:1105  uint rightnow */\n      0x00\n        /* \"Mqttbaru.sol\":1108:1111  now */\n      timestamp\n        /* \"Mqttbaru.sol\":1092:1111  uint rightnow = now */\n      swap1\n      pop\n        /* \"Mqttbaru.sol\":1130:1139  uint jeda */\n      0x00\n        /* \"Mqttbaru.sol\":1153:1166  brokerAddress */\n      0x02\n        /* \"Mqttbaru.sol\":1167:1168  i */\n      dup4\n        /* \"Mqttbaru.sol\":1153:1169  brokerAddress[i] */\n      dup2\n      sload\n      dup2\n      lt\n      tag_350\n      jumpi\n      invalid\n    tag_350:\n      swap1\n      0x00\n      mstore\n      keccak256(0x00, 0x20)\n      swap1\n      0x02\n      mul\n      add\n        /* \"Mqttbaru.sol\":1153:1179  brokerAddress[i].timestamp */\n      0x01\n      add\n      sload\n        /* \"Mqttbaru.sol\":1142:1150  rightnow */\n      dup3\n        /* \"Mqttbaru.sol\":1142:1179  rightnow - brokerAddress[i].timestamp */\n      sub\n        /* \"Mqttbaru.sol\":1130:1179  uint jeda = rightnow - brokerAddress[i].timestamp */\n      swap1\n      pop\n        /* \"Mqttbaru.sol\":1208:1211  240 */\n      0xf0\n        /* \"Mqttbaru.sol\":1201:1205  jeda */\n      dup2\n        /* \"Mqttbaru.sol\":1201:1211  jeda > 240 */\n      gt\n        /* \"Mqttbaru.sol\":1198:1858  if(jeda > 240){\r... */\n      iszero\n      tag_352\n      jumpi\n        /* \"Mqttbaru.sol\":1264:1272  rightnow */\n      dup2\n        /* \"Mqttbaru.sol\":1235:1248  brokerAddress */\n      0x02\n        /* \"Mqttbaru.sol\":1249:1250  i */\n      dup5\n        /* \"Mqttbaru.sol\":1235:1251  brokerAddress[i] */\n      dup2\n      sload\n      dup2\n      lt\n      tag_353\n      jumpi\n      invalid\n    tag_353:\n      swap1\n      0x00\n      mstore\n      keccak256(0x00, 0x20)\n      swap1\n      0x02\n      mul\n      add\n        /* \"Mqttbaru.sol\":1235:1261  brokerAddress[i].timestamp */\n      0x01\n      add\n        /* \"Mqttbaru.sol\":1235:1272  brokerAddress[i].timestamp = rightnow */\n      dup2\n      swap1\n      sstore\n      pop\n        /* \"Mqttbaru.sol\":1368:1378  msg.sender */\n      caller\n        /* \"Mqttbaru.sol\":1380:1393  brokerAddress */\n      0x02\n        /* \"Mqttbaru.sol\":1394:1395  i */\n      dup5\n        /* \"Mqttbaru.sol\":1380:1396  brokerAddress[i] */\n      dup2\n      sload\n      dup2\n      lt\n      tag_355\n      jumpi\n      invalid\n    tag_355:\n      swap1\n      0x00\n      mstore\n      keccak256(0x00, 0x20)\n      swap1\n      0x02\n      mul\n      add\n        /* \"Mqttbaru.sol\":1380:1406  brokerAddress[i].timestamp */\n      0x01\n      add\n      sload\n        /* \"Mqttbaru.sol\":1351:1407  abi.encodePacked(msg.sender, brokerAddress[i].timestamp) */\n      add(0x20, mload(0x40))\n      tag_357\n      swap3\n      swap2\n      swap1\n      tag_358\n      jump\t// in\n    tag_357:\n      mload(0x40)\n      0x20\n      dup2\n      dup4\n      sub\n      sub\n      dup2\n      mstore\n      swap1\n      0x40\n      mstore\n        /* \"Mqttbaru.sol\":1341:1408  keccak256(abi.encodePacked(msg.sender, brokerAddress[i].timestamp)) */\n      dup1\n      mload\n      swap1\n      0x20\n      add\n      keccak256\n        /* \"Mqttbaru.sol\":1295:1305  tokenSlots */\n      0x04\n        /* \"Mqttbaru.sol\":1295:1338  tokenSlots[brokerAddress[i].broker_address] */\n      0x00\n        /* \"Mqttbaru.sol\":1306:1319  brokerAddress */\n      0x02\n        /* \"Mqttbaru.sol\":1320:1321  i */\n      dup7\n        /* \"Mqttbaru.sol\":1306:1322  brokerAddress[i] */\n      dup2\n      sload\n      dup2\n      lt\n      tag_359\n      jumpi\n      invalid\n    tag_359:\n      swap1\n      0x00\n      mstore\n      keccak256(0x00, 0x20)\n      swap1\n      0x02\n      mul\n      add\n        /* \"Mqttbaru.sol\":1306:1337  brokerAddress[i].broker_address */\n      0x00\n      add\n      0x00\n      swap1\n      sload\n      swap1\n      0x0100\n      exp\n      swap1\n      div\n      0xffffffffffffffffffffffffffffffffffffffff\n      and\n        /* \"Mqttbaru.sol\":1295:1338  tokenSlots[brokerAddress[i].broker_address] */\n      0xffffffffffffffffffffffffffffffffffffffff\n      and\n      0xffffffffffffffffffffffffffffffffffffffff\n      and\n      dup2\n      mstore\n      0x20\n      add\n      swap1\n      dup2\n      mstore\n      0x20\n      add\n      0x00\n      keccak256\n        /* \"Mqttbaru.sol\":1295:1408  tokenSlots[brokerAddress[i].broker_address] = keccak256(abi.encodePacked(msg.sender, brokerAddress[i].timestamp)) */\n      dup2\n      swap1\n      sstore\n      pop\n        /* \"Mqttbaru.sol\":1436:1490  ref_token(tokenSlots[brokerAddress[i].broker_address]) */\n      0x504e9e94e0c65229aaf8cabe153380cc35da3135e30129bc3195f7e031cdf82b\n        /* \"Mqttbaru.sol\":1446:1456  tokenSlots */\n      0x04\n        /* \"Mqttbaru.sol\":1446:1489  tokenSlots[brokerAddress[i].broker_address] */\n      0x00\n        /* \"Mqttbaru.sol\":1457:1470  brokerAddress */\n      0x02\n        /* \"Mqttbaru.sol\":1471:1472  i */\n      dup7\n        /* \"Mqttbaru.sol\":1457:1473  brokerAddress[i] */\n      dup2\n      sload\n      dup2\n      lt\n      tag_361\n      jumpi\n      invalid\n    tag_361:\n      swap1\n      0x00\n      mstore\n      keccak256(0x00, 0x20)\n      swap1\n      0x02\n      mul\n      add\n        /* \"Mqttbaru.sol\":1457:1488  brokerAddress[i].broker_address */\n      0x00\n      add\n      0x00\n      swap1\n      sload\n      swap1\n      0x0100\n      exp\n      swap1\n      div\n      0xffffffffffffffffffffffffffffffffffffffff\n      and\n        /* \"Mqttbaru.sol\":1446:1489  tokenSlots[brokerAddress[i].broker_address] */\n      0xffffffffffffffffffffffffffffffffffffffff\n      and\n      0xffffffffffffffffffffffffffffffffffffffff\n      and\n      dup2\n      mstore\n      0x20\n      add\n      swap1\n      dup2\n      mstore\n      0x20\n      add\n      0x00\n      keccak256\n      sload\n        /* \"Mqttbaru.sol\":1436:1490  ref_token(tokenSlots[brokerAddress[i].broker_address]) */\n      mload(0x40)\n      tag_363\n      swap2\n      swap1\n      tag_28\n      jump\t// in\n    tag_363:\n      mload(0x40)\n      dup1\n      swap2\n      sub\n      swap1\n      log1\n        /* \"Mqttbaru.sol\":1518:1539  check('token diubah') */\n      0xb6f921ade0de8da9e62e948d90ae6f2dd6b678679ad77753c75fe1b6d9a72004\n      mload(0x40)\n      tag_364\n      swap1\n      tag_365\n      jump\t// in\n    tag_364:\n      mload(0x40)\n      dup1\n      swap2\n      sub\n      swap1\n      log1\n        /* \"Mqttbaru.sol\":1198:1858  if(jeda > 240){\r... */\n      jump(tag_366)\n    tag_352:\n        /* \"Mqttbaru.sol\":1661:1671  msg.sender */\n      caller\n        /* \"Mqttbaru.sol\":1673:1686  brokerAddress */\n      0x02\n        /* \"Mqttbaru.sol\":1687:1688  i */\n      dup5\n        /* \"Mqttbaru.sol\":1673:1689  brokerAddress[i] */\n      dup2\n      sload\n      dup2\n      lt\n      tag_367\n      jumpi\n      invalid\n    tag_367:\n      swap1\n      0x00\n      mstore\n      keccak256(0x00, 0x20)\n      swap1\n      0x02\n      mul\n      add\n        /* \"Mqttbaru.sol\":1673:1699  brokerAddress[i].timestamp */\n      0x01\n      add\n      sload\n        /* \"Mqttbaru.sol\":1644:1700  abi.encodePacked(msg.sender, brokerAddress[i].timestamp) */\n      add(0x20, mload(0x40))\n      tag_369\n      swap3\n      swap2\n      swap1\n      tag_358\n      jump\t// in\n    tag_369:\n      mload(0x40)\n      0x20\n      dup2\n      dup4\n      sub\n      sub\n      dup2\n      mstore\n      swap1\n      0x40\n      mstore\n        /* \"Mqttbaru.sol\":1634:1701  keccak256(abi.encodePacked(msg.sender, brokerAddress[i].timestamp)) */\n      dup1\n      mload\n      swap1\n      0x20\n      add\n      keccak256\n        /* \"Mqttbaru.sol\":1588:1598  tokenSlots */\n      0x04\n        /* \"Mqttbaru.sol\":1588:1631  tokenSlots[brokerAddress[i].broker_address] */\n      0x00\n        /* \"Mqttbaru.sol\":1599:1612  brokerAddress */\n      0x02\n        /* \"Mqttbaru.sol\":1613:1614  i */\n      dup7\n        /* \"Mqttbaru.sol\":1599:1615  brokerAddress[i] */\n      dup2\n      sload\n      dup2\n      lt\n      tag_370\n      jumpi\n      invalid\n    tag_370:\n      swap1\n      0x00\n      mstore\n      keccak256(0x00, 0x20)\n      swap1\n      0x02\n      mul\n      add\n        /* \"Mqttbaru.sol\":1599:1630  brokerAddress[i].broker_address */\n      0x00\n      add\n      0x00\n      swap1\n      sload\n      swap1\n      0x0100\n      exp\n      swap1\n      div\n      0xffffffffffffffffffffffffffffffffffffffff\n      and\n        /* \"Mqttbaru.sol\":1588:1631  tokenSlots[brokerAddress[i].broker_address] */\n      0xffffffffffffffffffffffffffffffffffffffff\n      and\n      0xffffffffffffffffffffffffffffffffffffffff\n      and\n      dup2\n      mstore\n      0x20\n      add\n      swap1\n      dup2\n      mstore\n      0x20\n      add\n      0x00\n      keccak256\n        /* \"Mqttbaru.sol\":1588:1701  tokenSlots[brokerAddress[i].broker_address] = keccak256(abi.encodePacked(msg.sender, brokerAddress[i].timestamp)) */\n      dup2\n      swap1\n      sstore\n      pop\n        /* \"Mqttbaru.sol\":1729:1783  ref_token(tokenSlots[brokerAddress[i].broker_address]) */\n      0x504e9e94e0c65229aaf8cabe153380cc35da3135e30129bc3195f7e031cdf82b\n        /* \"Mqttbaru.sol\":1739:1749  tokenSlots */\n      0x04\n        /* \"Mqttbaru.sol\":1739:1782  tokenSlots[brokerAddress[i].broker_address] */\n      0x00\n        /* \"Mqttbaru.sol\":1750:1763  brokerAddress */\n      0x02\n        /* \"Mqttbaru.sol\":1764:1765  i */\n      dup7\n        /* \"Mqttbaru.sol\":1750:1766  brokerAddress[i] */\n      dup2\n      sload\n      dup2\n      lt\n      tag_372\n      jumpi\n      invalid\n    tag_372:\n      swap1\n      0x00\n      mstore\n      keccak256(0x00, 0x20)\n      swap1\n      0x02\n      mul\n      add\n        /* \"Mqttbaru.sol\":1750:1781  brokerAddress[i].broker_address */\n      0x00\n      add\n      0x00\n      swap1\n      sload\n      swap1\n      0x0100\n      exp\n      swap1\n      div\n      0xffffffffffffffffffffffffffffffffffffffff\n      and\n        /* \"Mqttbaru.sol\":1739:1782  tokenSlots[brokerAddress[i].broker_address] */\n      0xffffffffffffffffffffffffffffffffffffffff\n      and\n      0xffffffffffffffffffffffffffffffffffffffff\n      and\n      dup2\n      mstore\n      0x20\n      add\n      swap1\n      dup2\n      mstore\n      0x20\n      add\n      0x00\n      keccak256\n      sload\n        /* \"Mqttbaru.sol\":1729:1783  ref_token(tokenSlots[brokerAddress[i].broker_address]) */\n      mload(0x40)\n      tag_374\n      swap2\n      swap1\n      tag_28\n      jump\t// in\n    tag_374:\n      mload(0x40)\n      dup1\n      swap2\n      sub\n      swap1\n      log1\n        /* \"Mqttbaru.sol\":1811:1838  check('token tidak diubah') */\n      0xb6f921ade0de8da9e62e948d90ae6f2dd6b678679ad77753c75fe1b6d9a72004\n      mload(0x40)\n      tag_375\n      swap1\n      tag_376\n      jump\t// in\n    tag_375:\n      mload(0x40)\n      dup1\n      swap2\n      sub\n      swap1\n      log1\n        /* \"Mqttbaru.sol\":1198:1858  if(jeda > 240){\r... */\n    tag_366:\n        /* \"Mqttbaru.sol\":1024:1873  if(msg.sender == brokerAddress[i].broker_address){\r... */\n      pop\n      pop\n    tag_349:\n        /* \"Mqttbaru.sol\":1004:1007  i++ */\n      dup1\n      dup1\n      0x01\n      add\n      swap2\n      pop\n      pop\n        /* \"Mqttbaru.sol\":962:1884  for(uint i = 0; i < brokerAddress.length; i++) {\r... */\n      jump(tag_344)\n    tag_345:\n      pop\n        /* \"Mqttbaru.sol\":911:1891  function refreshToken() public isBroker {\r... */\n      jump\t// out\n    tag_136:\n      dup3\n      dup1\n      sload\n      0x01\n      dup2\n      0x01\n      and\n      iszero\n      0x0100\n      mul\n      sub\n      and\n      0x02\n      swap1\n      div\n      swap1\n      0x00\n      mstore\n      keccak256(0x00, 0x20)\n      swap1\n      0x1f\n      add\n      0x20\n      swap1\n      div\n      dup2\n      add\n      swap3\n      dup3\n      0x1f\n      lt\n      tag_378\n      jumpi\n      dup1\n      mload\n      not(0xff)\n      and\n      dup4\n      dup1\n      add\n      or\n      dup6\n      sstore\n      jump(tag_377)\n    tag_378:\n      dup3\n      dup1\n      add\n      0x01\n      add\n      dup6\n      sstore\n      dup3\n      iszero\n      tag_377\n      jumpi\n      swap2\n      dup3\n      add\n    tag_379:\n      dup3\n      dup2\n      gt\n      iszero\n      tag_380\n      jumpi\n      dup3\n      mload\n      dup3\n      sstore\n      swap2\n      0x20\n      add\n      swap2\n      swap1\n      0x01\n      add\n      swap1\n      jump(tag_379)\n    tag_380:\n    tag_377:\n      pop\n      swap1\n      pop\n      tag_381\n      swap2\n      swap1\n      tag_382\n      jump\t// in\n    tag_381:\n      pop\n      swap1\n      jump\t// out\n    tag_172:\n      dup3\n      dup1\n      sload\n      0x01\n      dup2\n      0x01\n      and\n      iszero\n      0x0100\n      mul\n      sub\n      and\n      0x02\n      swap1\n      div\n      swap1\n      0x00\n      mstore\n      keccak256(0x00, 0x20)\n      swap1\n      0x1f\n      add\n      0x20\n      swap1\n      div\n      dup2\n      add\n      swap3\n      dup3\n      0x1f\n      lt\n      tag_384\n      jumpi\n      dup1\n      sload\n      dup6\n      sstore\n      jump(tag_383)\n    tag_384:\n      dup3\n      dup1\n      add\n      0x01\n      add\n      dup6\n      sstore\n      dup3\n      iszero\n      tag_383\n      jumpi\n      0x00\n      mstore\n      keccak256(0x00, 0x20)\n      swap2\n      0x1f\n      add\n      0x20\n      swap1\n      div\n      dup3\n      add\n    tag_385:\n      dup3\n      dup2\n      gt\n      iszero\n      tag_386\n      jumpi\n      dup3\n      sload\n      dup3\n      sstore\n      swap2\n      0x01\n      add\n      swap2\n      swap1\n      0x01\n      add\n      swap1\n      jump(tag_385)\n    tag_386:\n    tag_383:\n      pop\n      swap1\n      pop\n      tag_387\n      swap2\n      swap1\n      tag_382\n      jump\t// in\n    tag_387:\n      pop\n      swap1\n      jump\t// out\n    tag_178:\n      pop\n      dup1\n      sload\n      0x01\n      dup2\n      0x01\n      and\n      iszero\n      0x0100\n      mul\n      sub\n      and\n      0x02\n      swap1\n      div\n      0x00\n      dup3\n      sstore\n      dup1\n      0x1f\n      lt\n      tag_389\n      jumpi\n      pop\n      jump(tag_388)\n    tag_389:\n      0x1f\n      add\n      0x20\n      swap1\n      div\n      swap1\n      0x00\n      mstore\n      keccak256(0x00, 0x20)\n      swap1\n      dup2\n      add\n      swap1\n      tag_390\n      swap2\n      swap1\n      tag_382\n      jump\t// in\n    tag_390:\n    tag_388:\n      pop\n      jump\t// out\n    tag_251:\n      mload(0x40)\n      dup1\n      0x40\n      add\n      0x40\n      mstore\n      dup1\n      and(0xffffffffffffffffffffffffffffffffffffffff, 0x00)\n      dup2\n      mstore\n      0x20\n      add\n      0x00\n      dup2\n      mstore\n      pop\n      swap1\n      jump\t// out\n    tag_257:\n      mload(0x40)\n      dup1\n      0x80\n      add\n      0x40\n      mstore\n      dup1\n      0x00\n      dup2\n      mstore\n      0x20\n      add\n      0x60\n      dup2\n      mstore\n      0x20\n      add\n      0x60\n      dup2\n      mstore\n      0x20\n      add\n      0x60\n      dup2\n      mstore\n      pop\n      swap1\n      jump\t// out\n    tag_265:\n      dup3\n      dup1\n      sload\n      dup3\n      dup3\n      sstore\n      swap1\n      0x00\n      mstore\n      keccak256(0x00, 0x20)\n      swap1\n      dup2\n      add\n      swap3\n      dup3\n      iszero\n      tag_391\n      jumpi\n      swap2\n      0x20\n      mul\n      dup3\n      add\n    tag_392:\n      dup3\n      dup2\n      gt\n      iszero\n      tag_393\n      jumpi\n      dup3\n      mload\n      dup3\n      swap1\n      dup1\n      mload\n      swap1\n      0x20\n      add\n      swap1\n      tag_394\n      swap3\n      swap2\n      swap1\n      tag_136\n      jump\t// in\n    tag_394:\n      pop\n      swap2\n      0x20\n      add\n      swap2\n      swap1\n      0x01\n      add\n      swap1\n      jump(tag_392)\n    tag_393:\n    tag_391:\n      pop\n      swap1\n      pop\n      tag_395\n      swap2\n      swap1\n      tag_396\n      jump\t// in\n    tag_395:\n      pop\n      swap1\n      jump\t// out\n    tag_280:\n      dup3\n      dup1\n      sload\n      0x01\n      dup2\n      0x01\n      and\n      iszero\n      0x0100\n      mul\n      sub\n      and\n      0x02\n      swap1\n      div\n      swap1\n      0x00\n      mstore\n      keccak256(0x00, 0x20)\n      swap1\n      0x1f\n      add\n      0x20\n      swap1\n      div\n      dup2\n      add\n      swap3\n      dup3\n      0x1f\n      lt\n      tag_398\n      jumpi\n      dup1\n      sload\n      dup6\n      sstore\n      jump(tag_397)\n    tag_398:\n      dup3\n      dup1\n      add\n      0x01\n      add\n      dup6\n      sstore\n      dup3\n      iszero\n      tag_397\n      jumpi\n      0x00\n      mstore\n      keccak256(0x00, 0x20)\n      swap2\n      0x1f\n      add\n      0x20\n      swap1\n      div\n      dup3\n      add\n    tag_399:\n      dup3\n      dup2\n      gt\n      iszero\n      tag_400\n      jumpi\n      dup3\n      sload\n      dup3\n      sstore\n      swap2\n      0x01\n      add\n      swap2\n      swap1\n      0x01\n      add\n      swap1\n      jump(tag_399)\n    tag_400:\n    tag_397:\n      pop\n      swap1\n      pop\n      tag_401\n      swap2\n      swap1\n      tag_382\n      jump\t// in\n    tag_401:\n      pop\n      swap1\n      jump\t// out\n    tag_283:\n      dup3\n      dup1\n      sload\n      dup3\n      dup3\n      sstore\n      swap1\n      0x00\n      mstore\n      keccak256(0x00, 0x20)\n      swap1\n      dup2\n      add\n      swap3\n      dup3\n      iszero\n      tag_402\n      jumpi\n      0x00\n      mstore\n      keccak256(0x00, 0x20)\n      swap2\n      dup3\n      add\n    tag_403:\n      dup3\n      dup2\n      gt\n      iszero\n      tag_404\n      jumpi\n      dup3\n      dup3\n      swap1\n      dup1\n      sload\n      0x01\n      dup2\n      0x01\n      and\n      iszero\n      0x0100\n      mul\n      sub\n      and\n      0x02\n      swap1\n      div\n      tag_405\n      swap3\n      swap2\n      swap1\n      tag_280\n      jump\t// in\n    tag_405:\n      pop\n      swap2\n      0x01\n      add\n      swap2\n      swap1\n      0x01\n      add\n      swap1\n      jump(tag_403)\n    tag_404:\n    tag_402:\n      pop\n      swap1\n      pop\n      tag_406\n      swap2\n      swap1\n      tag_396\n      jump\t// in\n    tag_406:\n      pop\n      swap1\n      jump\t// out\n    tag_289:\n      pop\n      dup1\n      sload\n      0x00\n      dup3\n      sstore\n      swap1\n      0x00\n      mstore\n      keccak256(0x00, 0x20)\n      swap1\n      dup2\n      add\n      swap1\n      tag_408\n      swap2\n      swap1\n      tag_396\n      jump\t// in\n    tag_408:\n      pop\n      jump\t// out\n    tag_382:\n    tag_409:\n      dup1\n      dup3\n      gt\n      iszero\n      tag_410\n      jumpi\n      0x00\n      dup2\n      0x00\n      swap1\n      sstore\n      pop\n      0x01\n      add\n      jump(tag_409)\n    tag_410:\n      pop\n      swap1\n      jump\t// out\n    tag_396:\n    tag_411:\n      dup1\n      dup3\n      gt\n      iszero\n      tag_412\n      jumpi\n      0x00\n      dup2\n      dup2\n      tag_413\n      swap2\n      swap1\n      tag_178\n      jump\t// in\n    tag_413:\n      pop\n      0x01\n      add\n      jump(tag_411)\n    tag_412:\n      pop\n      swap1\n      jump\t// out\n        /* \"--CODEGEN--\":5:135   */\n    tag_415:\n      0x00\n        /* \"--CODEGEN--\":85:91   */\n      dup2\n        /* \"--CODEGEN--\":72:92   */\n      calldataload\n        /* \"--CODEGEN--\":63:92   */\n      swap1\n      pop\n        /* \"--CODEGEN--\":97:130   */\n      tag_417\n        /* \"--CODEGEN--\":124:129   */\n      dup2\n        /* \"--CODEGEN--\":97:130   */\n      tag_418\n      jump\t// in\n    tag_417:\n        /* \"--CODEGEN--\":57:135   */\n      swap3\n      swap2\n      pop\n      pop\n      jump\t// out\n        /* \"--CODEGEN--\":142:288   */\n    tag_419:\n      0x00\n        /* \"--CODEGEN--\":230:236   */\n      dup2\n        /* \"--CODEGEN--\":217:237   */\n      calldataload\n        /* \"--CODEGEN--\":208:237   */\n      swap1\n      pop\n        /* \"--CODEGEN--\":242:283   */\n      tag_421\n        /* \"--CODEGEN--\":277:282   */\n      dup2\n        /* \"--CODEGEN--\":242:283   */\n      tag_422\n      jump\t// in\n    tag_421:\n        /* \"--CODEGEN--\":202:288   */\n      swap3\n      swap2\n      pop\n      pop\n      jump\t// out\n        /* \"--CODEGEN--\":295:425   */\n    tag_423:\n      0x00\n        /* \"--CODEGEN--\":375:381   */\n      dup2\n        /* \"--CODEGEN--\":362:382   */\n      calldataload\n        /* \"--CODEGEN--\":353:382   */\n      swap1\n      pop\n        /* \"--CODEGEN--\":387:420   */\n      tag_425\n        /* \"--CODEGEN--\":414:419   */\n      dup2\n        /* \"--CODEGEN--\":387:420   */\n      tag_426\n      jump\t// in\n    tag_425:\n        /* \"--CODEGEN--\":347:425   */\n      swap3\n      swap2\n      pop\n      pop\n      jump\t// out\n        /* \"--CODEGEN--\":433:875   */\n    tag_427:\n      0x00\n        /* \"--CODEGEN--\":535:538   */\n      dup3\n        /* \"--CODEGEN--\":528:532   */\n      0x1f\n        /* \"--CODEGEN--\":520:526   */\n      dup4\n        /* \"--CODEGEN--\":516:533   */\n      add\n        /* \"--CODEGEN--\":512:539   */\n      slt\n        /* \"--CODEGEN--\":502:504   */\n      tag_429\n      jumpi\n        /* \"--CODEGEN--\":553:554   */\n      0x00\n        /* \"--CODEGEN--\":550:551   */\n      dup1\n        /* \"--CODEGEN--\":543:555   */\n      revert\n        /* \"--CODEGEN--\":502:504   */\n    tag_429:\n        /* \"--CODEGEN--\":590:596   */\n      dup2\n        /* \"--CODEGEN--\":577:597   */\n      calldataload\n        /* \"--CODEGEN--\":612:677   */\n      tag_430\n        /* \"--CODEGEN--\":627:676   */\n      tag_431\n        /* \"--CODEGEN--\":669:675   */\n      dup3\n        /* \"--CODEGEN--\":627:676   */\n      tag_432\n      jump\t// in\n    tag_431:\n        /* \"--CODEGEN--\":612:677   */\n      tag_433\n      jump\t// in\n    tag_430:\n        /* \"--CODEGEN--\":603:677   */\n      swap2\n      pop\n        /* \"--CODEGEN--\":697:703   */\n      dup1\n        /* \"--CODEGEN--\":690:695   */\n      dup3\n        /* \"--CODEGEN--\":683:704   */\n      mstore\n        /* \"--CODEGEN--\":733:737   */\n      0x20\n        /* \"--CODEGEN--\":725:731   */\n      dup4\n        /* \"--CODEGEN--\":721:738   */\n      add\n        /* \"--CODEGEN--\":766:770   */\n      0x20\n        /* \"--CODEGEN--\":759:764   */\n      dup4\n        /* \"--CODEGEN--\":755:771   */\n      add\n        /* \"--CODEGEN--\":801:804   */\n      dup6\n        /* \"--CODEGEN--\":792:798   */\n      dup4\n        /* \"--CODEGEN--\":787:790   */\n      dup4\n        /* \"--CODEGEN--\":783:799   */\n      add\n        /* \"--CODEGEN--\":780:805   */\n      gt\n        /* \"--CODEGEN--\":777:779   */\n      iszero\n      tag_434\n      jumpi\n        /* \"--CODEGEN--\":818:819   */\n      0x00\n        /* \"--CODEGEN--\":815:816   */\n      dup1\n        /* \"--CODEGEN--\":808:820   */\n      revert\n        /* \"--CODEGEN--\":777:779   */\n    tag_434:\n        /* \"--CODEGEN--\":828:869   */\n      tag_435\n        /* \"--CODEGEN--\":862:868   */\n      dup4\n        /* \"--CODEGEN--\":857:860   */\n      dup3\n        /* \"--CODEGEN--\":852:855   */\n      dup5\n        /* \"--CODEGEN--\":828:869   */\n      tag_436\n      jump\t// in\n    tag_435:\n        /* \"--CODEGEN--\":495:875   */\n      pop\n      pop\n      pop\n      swap3\n      swap2\n      pop\n      pop\n      jump\t// out\n        /* \"--CODEGEN--\":883:1013   */\n    tag_437:\n      0x00\n        /* \"--CODEGEN--\":963:969   */\n      dup2\n        /* \"--CODEGEN--\":950:970   */\n      calldataload\n        /* \"--CODEGEN--\":941:970   */\n      swap1\n      pop\n        /* \"--CODEGEN--\":975:1008   */\n      tag_439\n        /* \"--CODEGEN--\":1002:1007   */\n      dup2\n        /* \"--CODEGEN--\":975:1008   */\n      tag_440\n      jump\t// in\n    tag_439:\n        /* \"--CODEGEN--\":935:1013   */\n      swap3\n      swap2\n      pop\n      pop\n      jump\t// out\n        /* \"--CODEGEN--\":1020:1261   */\n    tag_25:\n      0x00\n        /* \"--CODEGEN--\":1124:1126   */\n      0x20\n        /* \"--CODEGEN--\":1112:1121   */\n      dup3\n        /* \"--CODEGEN--\":1103:1110   */\n      dup5\n        /* \"--CODEGEN--\":1099:1122   */\n      sub\n        /* \"--CODEGEN--\":1095:1127   */\n      slt\n        /* \"--CODEGEN--\":1092:1094   */\n      iszero\n      tag_442\n      jumpi\n        /* \"--CODEGEN--\":1140:1141   */\n      0x00\n        /* \"--CODEGEN--\":1137:1138   */\n      dup1\n        /* \"--CODEGEN--\":1130:1142   */\n      revert\n        /* \"--CODEGEN--\":1092:1094   */\n    tag_442:\n        /* \"--CODEGEN--\":1175:1176   */\n      0x00\n        /* \"--CODEGEN--\":1192:1245   */\n      tag_443\n        /* \"--CODEGEN--\":1237:1244   */\n      dup5\n        /* \"--CODEGEN--\":1228:1234   */\n      dup3\n        /* \"--CODEGEN--\":1217:1226   */\n      dup6\n        /* \"--CODEGEN--\":1213:1235   */\n      add\n        /* \"--CODEGEN--\":1192:1245   */\n      tag_415\n      jump\t// in\n    tag_443:\n        /* \"--CODEGEN--\":1182:1245   */\n      swap2\n      pop\n        /* \"--CODEGEN--\":1154:1251   */\n      pop\n        /* \"--CODEGEN--\":1086:1261   */\n      swap3\n      swap2\n      pop\n      pop\n      jump\t// out\n        /* \"--CODEGEN--\":1268:1525   */\n    tag_31:\n      0x00\n        /* \"--CODEGEN--\":1380:1382   */\n      0x20\n        /* \"--CODEGEN--\":1368:1377   */\n      dup3\n        /* \"--CODEGEN--\":1359:1366   */\n      dup5\n        /* \"--CODEGEN--\":1355:1378   */\n      sub\n        /* \"--CODEGEN--\":1351:1383   */\n      slt\n        /* \"--CODEGEN--\":1348:1350   */\n      iszero\n      tag_445\n      jumpi\n        /* \"--CODEGEN--\":1396:1397   */\n      0x00\n        /* \"--CODEGEN--\":1393:1394   */\n      dup1\n        /* \"--CODEGEN--\":1386:1398   */\n      revert\n        /* \"--CODEGEN--\":1348:1350   */\n    tag_445:\n        /* \"--CODEGEN--\":1431:1432   */\n      0x00\n        /* \"--CODEGEN--\":1448:1509   */\n      tag_446\n        /* \"--CODEGEN--\":1501:1508   */\n      dup5\n        /* \"--CODEGEN--\":1492:1498   */\n      dup3\n        /* \"--CODEGEN--\":1481:1490   */\n      dup6\n        /* \"--CODEGEN--\":1477:1499   */\n      add\n        /* \"--CODEGEN--\":1448:1509   */\n      tag_419\n      jump\t// in\n    tag_446:\n        /* \"--CODEGEN--\":1438:1509   */\n      swap2\n      pop\n        /* \"--CODEGEN--\":1410:1515   */\n      pop\n        /* \"--CODEGEN--\":1342:1525   */\n      swap3\n      swap2\n      pop\n      pop\n      jump\t// out\n        /* \"--CODEGEN--\":1532:2129   */\n    tag_63:\n      0x00\n      dup1\n      0x00\n        /* \"--CODEGEN--\":1680:1682   */\n      0x60\n        /* \"--CODEGEN--\":1668:1677   */\n      dup5\n        /* \"--CODEGEN--\":1659:1666   */\n      dup7\n        /* \"--CODEGEN--\":1655:1678   */\n      sub\n        /* \"--CODEGEN--\":1651:1683   */\n      slt\n        /* \"--CODEGEN--\":1648:1650   */\n      iszero\n      tag_448\n      jumpi\n        /* \"--CODEGEN--\":1696:1697   */\n      0x00\n        /* \"--CODEGEN--\":1693:1694   */\n      dup1\n        /* \"--CODEGEN--\":1686:1698   */\n      revert\n        /* \"--CODEGEN--\":1648:1650   */\n    tag_448:\n        /* \"--CODEGEN--\":1731:1732   */\n      0x00\n        /* \"--CODEGEN--\":1748:1801   */\n      tag_449\n        /* \"--CODEGEN--\":1793:1800   */\n      dup7\n        /* \"--CODEGEN--\":1784:1790   */\n      dup3\n        /* \"--CODEGEN--\":1773:1782   */\n      dup8\n        /* \"--CODEGEN--\":1769:1791   */\n      add\n        /* \"--CODEGEN--\":1748:1801   */\n      tag_423\n      jump\t// in\n    tag_449:\n        /* \"--CODEGEN--\":1738:1801   */\n      swap4\n      pop\n        /* \"--CODEGEN--\":1710:1807   */\n      pop\n        /* \"--CODEGEN--\":1838:1840   */\n      0x20\n        /* \"--CODEGEN--\":1856:1909   */\n      tag_450\n        /* \"--CODEGEN--\":1901:1908   */\n      dup7\n        /* \"--CODEGEN--\":1892:1898   */\n      dup3\n        /* \"--CODEGEN--\":1881:1890   */\n      dup8\n        /* \"--CODEGEN--\":1877:1899   */\n      add\n        /* \"--CODEGEN--\":1856:1909   */\n      tag_437\n      jump\t// in\n    tag_450:\n        /* \"--CODEGEN--\":1846:1909   */\n      swap3\n      pop\n        /* \"--CODEGEN--\":1817:1915   */\n      pop\n        /* \"--CODEGEN--\":1974:1976   */\n      0x40\n        /* \"--CODEGEN--\":1963:1972   */\n      dup5\n        /* \"--CODEGEN--\":1959:1977   */\n      add\n        /* \"--CODEGEN--\":1946:1978   */\n      calldataload\n        /* \"--CODEGEN--\":1998:2016   */\n      0xffffffffffffffff\n        /* \"--CODEGEN--\":1990:1996   */\n      dup2\n        /* \"--CODEGEN--\":1987:2017   */\n      gt\n        /* \"--CODEGEN--\":1984:1986   */\n      iszero\n      tag_451\n      jumpi\n        /* \"--CODEGEN--\":2030:2031   */\n      0x00\n        /* \"--CODEGEN--\":2027:2028   */\n      dup1\n        /* \"--CODEGEN--\":2020:2032   */\n      revert\n        /* \"--CODEGEN--\":1984:1986   */\n    tag_451:\n        /* \"--CODEGEN--\":2050:2113   */\n      tag_452\n        /* \"--CODEGEN--\":2105:2112   */\n      dup7\n        /* \"--CODEGEN--\":2096:2102   */\n      dup3\n        /* \"--CODEGEN--\":2085:2094   */\n      dup8\n        /* \"--CODEGEN--\":2081:2103   */\n      add\n        /* \"--CODEGEN--\":2050:2113   */\n      tag_427\n      jump\t// in\n    tag_452:\n        /* \"--CODEGEN--\":2040:2113   */\n      swap2\n      pop\n        /* \"--CODEGEN--\":1925:2119   */\n      pop\n        /* \"--CODEGEN--\":1642:2129   */\n      swap3\n      pop\n      swap3\n      pop\n      swap3\n      jump\t// out\n        /* \"--CODEGEN--\":2136:2965   */\n    tag_83:\n      0x00\n      dup1\n      0x00\n      dup1\n        /* \"--CODEGEN--\":2311:2314   */\n      0x80\n        /* \"--CODEGEN--\":2299:2308   */\n      dup6\n        /* \"--CODEGEN--\":2290:2297   */\n      dup8\n        /* \"--CODEGEN--\":2286:2309   */\n      sub\n        /* \"--CODEGEN--\":2282:2315   */\n      slt\n        /* \"--CODEGEN--\":2279:2281   */\n      iszero\n      tag_454\n      jumpi\n        /* \"--CODEGEN--\":2328:2329   */\n      0x00\n        /* \"--CODEGEN--\":2325:2326   */\n      dup1\n        /* \"--CODEGEN--\":2318:2330   */\n      revert\n        /* \"--CODEGEN--\":2279:2281   */\n    tag_454:\n        /* \"--CODEGEN--\":2363:2364   */\n      0x00\n        /* \"--CODEGEN--\":2380:2433   */\n      tag_455\n        /* \"--CODEGEN--\":2425:2432   */\n      dup8\n        /* \"--CODEGEN--\":2416:2422   */\n      dup3\n        /* \"--CODEGEN--\":2405:2414   */\n      dup9\n        /* \"--CODEGEN--\":2401:2423   */\n      add\n        /* \"--CODEGEN--\":2380:2433   */\n      tag_423\n      jump\t// in\n    tag_455:\n        /* \"--CODEGEN--\":2370:2433   */\n      swap5\n      pop\n        /* \"--CODEGEN--\":2342:2439   */\n      pop\n        /* \"--CODEGEN--\":2470:2472   */\n      0x20\n        /* \"--CODEGEN--\":2488:2541   */\n      tag_456\n        /* \"--CODEGEN--\":2533:2540   */\n      dup8\n        /* \"--CODEGEN--\":2524:2530   */\n      dup3\n        /* \"--CODEGEN--\":2513:2522   */\n      dup9\n        /* \"--CODEGEN--\":2509:2531   */\n      add\n        /* \"--CODEGEN--\":2488:2541   */\n      tag_437\n      jump\t// in\n    tag_456:\n        /* \"--CODEGEN--\":2478:2541   */\n      swap4\n      pop\n        /* \"--CODEGEN--\":2449:2547   */\n      pop\n        /* \"--CODEGEN--\":2606:2608   */\n      0x40\n        /* \"--CODEGEN--\":2595:2604   */\n      dup6\n        /* \"--CODEGEN--\":2591:2609   */\n      add\n        /* \"--CODEGEN--\":2578:2610   */\n      calldataload\n        /* \"--CODEGEN--\":2630:2648   */\n      0xffffffffffffffff\n        /* \"--CODEGEN--\":2622:2628   */\n      dup2\n        /* \"--CODEGEN--\":2619:2649   */\n      gt\n        /* \"--CODEGEN--\":2616:2618   */\n      iszero\n      tag_457\n      jumpi\n        /* \"--CODEGEN--\":2662:2663   */\n      0x00\n        /* \"--CODEGEN--\":2659:2660   */\n      dup1\n        /* \"--CODEGEN--\":2652:2664   */\n      revert\n        /* \"--CODEGEN--\":2616:2618   */\n    tag_457:\n        /* \"--CODEGEN--\":2682:2745   */\n      tag_458\n        /* \"--CODEGEN--\":2737:2744   */\n      dup8\n        /* \"--CODEGEN--\":2728:2734   */\n      dup3\n        /* \"--CODEGEN--\":2717:2726   */\n      dup9\n        /* \"--CODEGEN--\":2713:2735   */\n      add\n        /* \"--CODEGEN--\":2682:2745   */\n      tag_427\n      jump\t// in\n    tag_458:\n        /* \"--CODEGEN--\":2672:2745   */\n      swap3\n      pop\n        /* \"--CODEGEN--\":2557:2751   */\n      pop\n        /* \"--CODEGEN--\":2810:2812   */\n      0x60\n        /* \"--CODEGEN--\":2799:2808   */\n      dup6\n        /* \"--CODEGEN--\":2795:2813   */\n      add\n        /* \"--CODEGEN--\":2782:2814   */\n      calldataload\n        /* \"--CODEGEN--\":2834:2852   */\n      0xffffffffffffffff\n        /* \"--CODEGEN--\":2826:2832   */\n      dup2\n        /* \"--CODEGEN--\":2823:2853   */\n      gt\n        /* \"--CODEGEN--\":2820:2822   */\n      iszero\n      tag_459\n      jumpi\n        /* \"--CODEGEN--\":2866:2867   */\n      0x00\n        /* \"--CODEGEN--\":2863:2864   */\n      dup1\n        /* \"--CODEGEN--\":2856:2868   */\n      revert\n        /* \"--CODEGEN--\":2820:2822   */\n    tag_459:\n        /* \"--CODEGEN--\":2886:2949   */\n      tag_460\n        /* \"--CODEGEN--\":2941:2948   */\n      dup8\n        /* \"--CODEGEN--\":2932:2938   */\n      dup3\n        /* \"--CODEGEN--\":2921:2930   */\n      dup9\n        /* \"--CODEGEN--\":2917:2939   */\n      add\n        /* \"--CODEGEN--\":2886:2949   */\n      tag_427\n      jump\t// in\n    tag_460:\n        /* \"--CODEGEN--\":2876:2949   */\n      swap2\n      pop\n        /* \"--CODEGEN--\":2761:2955   */\n      pop\n        /* \"--CODEGEN--\":2273:2965   */\n      swap3\n      swap6\n      swap2\n      swap5\n      pop\n      swap3\n      pop\n      jump\t// out\n        /* \"--CODEGEN--\":2972:3550   */\n    tag_72:\n      0x00\n      dup1\n        /* \"--CODEGEN--\":3113:3115   */\n      0x40\n        /* \"--CODEGEN--\":3101:3110   */\n      dup4\n        /* \"--CODEGEN--\":3092:3099   */\n      dup6\n        /* \"--CODEGEN--\":3088:3111   */\n      sub\n        /* \"--CODEGEN--\":3084:3116   */\n      slt\n        /* \"--CODEGEN--\":3081:3083   */\n      iszero\n      tag_462\n      jumpi\n        /* \"--CODEGEN--\":3129:3130   */\n      0x00\n        /* \"--CODEGEN--\":3126:3127   */\n      dup1\n        /* \"--CODEGEN--\":3119:3131   */\n      revert\n        /* \"--CODEGEN--\":3081:3083   */\n    tag_462:\n        /* \"--CODEGEN--\":3192:3193   */\n      0x00\n        /* \"--CODEGEN--\":3181:3190   */\n      dup4\n        /* \"--CODEGEN--\":3177:3194   */\n      add\n        /* \"--CODEGEN--\":3164:3195   */\n      calldataload\n        /* \"--CODEGEN--\":3215:3233   */\n      0xffffffffffffffff\n        /* \"--CODEGEN--\":3207:3213   */\n      dup2\n        /* \"--CODEGEN--\":3204:3234   */\n      gt\n        /* \"--CODEGEN--\":3201:3203   */\n      iszero\n      tag_463\n      jumpi\n        /* \"--CODEGEN--\":3247:3248   */\n      0x00\n        /* \"--CODEGEN--\":3244:3245   */\n      dup1\n        /* \"--CODEGEN--\":3237:3249   */\n      revert\n        /* \"--CODEGEN--\":3201:3203   */\n    tag_463:\n        /* \"--CODEGEN--\":3267:3330   */\n      tag_464\n        /* \"--CODEGEN--\":3322:3329   */\n      dup6\n        /* \"--CODEGEN--\":3313:3319   */\n      dup3\n        /* \"--CODEGEN--\":3302:3311   */\n      dup7\n        /* \"--CODEGEN--\":3298:3320   */\n      add\n        /* \"--CODEGEN--\":3267:3330   */\n      tag_427\n      jump\t// in\n    tag_464:\n        /* \"--CODEGEN--\":3257:3330   */\n      swap3\n      pop\n        /* \"--CODEGEN--\":3143:3336   */\n      pop\n        /* \"--CODEGEN--\":3395:3397   */\n      0x20\n        /* \"--CODEGEN--\":3384:3393   */\n      dup4\n        /* \"--CODEGEN--\":3380:3398   */\n      add\n        /* \"--CODEGEN--\":3367:3399   */\n      calldataload\n        /* \"--CODEGEN--\":3419:3437   */\n      0xffffffffffffffff\n        /* \"--CODEGEN--\":3411:3417   */\n      dup2\n        /* \"--CODEGEN--\":3408:3438   */\n      gt\n        /* \"--CODEGEN--\":3405:3407   */\n      iszero\n      tag_465\n      jumpi\n        /* \"--CODEGEN--\":3451:3452   */\n      0x00\n        /* \"--CODEGEN--\":3448:3449   */\n      dup1\n        /* \"--CODEGEN--\":3441:3453   */\n      revert\n        /* \"--CODEGEN--\":3405:3407   */\n    tag_465:\n        /* \"--CODEGEN--\":3471:3534   */\n      tag_466\n        /* \"--CODEGEN--\":3526:3533   */\n      dup6\n        /* \"--CODEGEN--\":3517:3523   */\n      dup3\n        /* \"--CODEGEN--\":3506:3515   */\n      dup7\n        /* \"--CODEGEN--\":3502:3524   */\n      add\n        /* \"--CODEGEN--\":3471:3534   */\n      tag_427\n      jump\t// in\n    tag_466:\n        /* \"--CODEGEN--\":3461:3534   */\n      swap2\n      pop\n        /* \"--CODEGEN--\":3346:3540   */\n      pop\n        /* \"--CODEGEN--\":3075:3550   */\n      swap3\n      pop\n      swap3\n      swap1\n      pop\n      jump\t// out\n        /* \"--CODEGEN--\":3557:3798   */\n    tag_57:\n      0x00\n        /* \"--CODEGEN--\":3661:3663   */\n      0x20\n        /* \"--CODEGEN--\":3649:3658   */\n      dup3\n        /* \"--CODEGEN--\":3640:3647   */\n      dup5\n        /* \"--CODEGEN--\":3636:3659   */\n      sub\n        /* \"--CODEGEN--\":3632:3664   */\n      slt\n        /* \"--CODEGEN--\":3629:3631   */\n      iszero\n      tag_468\n      jumpi\n        /* \"--CODEGEN--\":3677:3678   */\n      0x00\n        /* \"--CODEGEN--\":3674:3675   */\n      dup1\n        /* \"--CODEGEN--\":3667:3679   */\n      revert\n        /* \"--CODEGEN--\":3629:3631   */\n    tag_468:\n        /* \"--CODEGEN--\":3712:3713   */\n      0x00\n        /* \"--CODEGEN--\":3729:3782   */\n      tag_469\n        /* \"--CODEGEN--\":3774:3781   */\n      dup5\n        /* \"--CODEGEN--\":3765:3771   */\n      dup3\n        /* \"--CODEGEN--\":3754:3763   */\n      dup6\n        /* \"--CODEGEN--\":3750:3772   */\n      add\n        /* \"--CODEGEN--\":3729:3782   */\n      tag_437\n      jump\t// in\n    tag_469:\n        /* \"--CODEGEN--\":3719:3782   */\n      swap2\n      pop\n        /* \"--CODEGEN--\":3691:3788   */\n      pop\n        /* \"--CODEGEN--\":3623:3798   */\n      swap3\n      swap2\n      pop\n      pop\n      jump\t// out\n        /* \"--CODEGEN--\":3805:4277   */\n    tag_39:\n      0x00\n      dup1\n        /* \"--CODEGEN--\":3936:3938   */\n      0x40\n        /* \"--CODEGEN--\":3924:3933   */\n      dup4\n        /* \"--CODEGEN--\":3915:3922   */\n      dup6\n        /* \"--CODEGEN--\":3911:3934   */\n      sub\n        /* \"--CODEGEN--\":3907:3939   */\n      slt\n        /* \"--CODEGEN--\":3904:3906   */\n      iszero\n      tag_471\n      jumpi\n        /* \"--CODEGEN--\":3952:3953   */\n      0x00\n        /* \"--CODEGEN--\":3949:3950   */\n      dup1\n        /* \"--CODEGEN--\":3942:3954   */\n      revert\n        /* \"--CODEGEN--\":3904:3906   */\n    tag_471:\n        /* \"--CODEGEN--\":3987:3988   */\n      0x00\n        /* \"--CODEGEN--\":4004:4057   */\n      tag_472\n        /* \"--CODEGEN--\":4049:4056   */\n      dup6\n        /* \"--CODEGEN--\":4040:4046   */\n      dup3\n        /* \"--CODEGEN--\":4029:4038   */\n      dup7\n        /* \"--CODEGEN--\":4025:4047   */\n      add\n        /* \"--CODEGEN--\":4004:4057   */\n      tag_437\n      jump\t// in\n    tag_472:\n        /* \"--CODEGEN--\":3994:4057   */\n      swap3\n      pop\n        /* \"--CODEGEN--\":3966:4063   */\n      pop\n        /* \"--CODEGEN--\":4122:4124   */\n      0x20\n        /* \"--CODEGEN--\":4111:4120   */\n      dup4\n        /* \"--CODEGEN--\":4107:4125   */\n      add\n        /* \"--CODEGEN--\":4094:4126   */\n      calldataload\n        /* \"--CODEGEN--\":4146:4164   */\n      0xffffffffffffffff\n        /* \"--CODEGEN--\":4138:4144   */\n      dup2\n        /* \"--CODEGEN--\":4135:4165   */\n      gt\n        /* \"--CODEGEN--\":4132:4134   */\n      iszero\n      tag_473\n      jumpi\n        /* \"--CODEGEN--\":4178:4179   */\n      0x00\n        /* \"--CODEGEN--\":4175:4176   */\n      dup1\n        /* \"--CODEGEN--\":4168:4180   */\n      revert\n        /* \"--CODEGEN--\":4132:4134   */\n    tag_473:\n        /* \"--CODEGEN--\":4198:4261   */\n      tag_474\n        /* \"--CODEGEN--\":4253:4260   */\n      dup6\n        /* \"--CODEGEN--\":4244:4250   */\n      dup3\n        /* \"--CODEGEN--\":4233:4242   */\n      dup7\n        /* \"--CODEGEN--\":4229:4251   */\n      add\n        /* \"--CODEGEN--\":4198:4261   */\n      tag_427\n      jump\t// in\n    tag_474:\n        /* \"--CODEGEN--\":4188:4261   */\n      swap2\n      pop\n        /* \"--CODEGEN--\":4073:4267   */\n      pop\n        /* \"--CODEGEN--\":3898:4277   */\n      swap3\n      pop\n      swap3\n      swap1\n      pop\n      jump\t// out\n        /* \"--CODEGEN--\":4284:4987   */\n    tag_88:\n      0x00\n      dup1\n      0x00\n        /* \"--CODEGEN--\":4442:4444   */\n      0x60\n        /* \"--CODEGEN--\":4430:4439   */\n      dup5\n        /* \"--CODEGEN--\":4421:4428   */\n      dup7\n        /* \"--CODEGEN--\":4417:4440   */\n      sub\n        /* \"--CODEGEN--\":4413:4445   */\n      slt\n        /* \"--CODEGEN--\":4410:4412   */\n      iszero\n      tag_476\n      jumpi\n        /* \"--CODEGEN--\":4458:4459   */\n      0x00\n        /* \"--CODEGEN--\":4455:4456   */\n      dup1\n        /* \"--CODEGEN--\":4448:4460   */\n      revert\n        /* \"--CODEGEN--\":4410:4412   */\n    tag_476:\n        /* \"--CODEGEN--\":4493:4494   */\n      0x00\n        /* \"--CODEGEN--\":4510:4563   */\n      tag_477\n        /* \"--CODEGEN--\":4555:4562   */\n      dup7\n        /* \"--CODEGEN--\":4546:4552   */\n      dup3\n        /* \"--CODEGEN--\":4535:4544   */\n      dup8\n        /* \"--CODEGEN--\":4531:4553   */\n      add\n        /* \"--CODEGEN--\":4510:4563   */\n      tag_437\n      jump\t// in\n    tag_477:\n        /* \"--CODEGEN--\":4500:4563   */\n      swap4\n      pop\n        /* \"--CODEGEN--\":4472:4569   */\n      pop\n        /* \"--CODEGEN--\":4628:4630   */\n      0x20\n        /* \"--CODEGEN--\":4617:4626   */\n      dup5\n        /* \"--CODEGEN--\":4613:4631   */\n      add\n        /* \"--CODEGEN--\":4600:4632   */\n      calldataload\n        /* \"--CODEGEN--\":4652:4670   */\n      0xffffffffffffffff\n        /* \"--CODEGEN--\":4644:4650   */\n      dup2\n        /* \"--CODEGEN--\":4641:4671   */\n      gt\n        /* \"--CODEGEN--\":4638:4640   */\n      iszero\n      tag_478\n      jumpi\n        /* \"--CODEGEN--\":4684:4685   */\n      0x00\n        /* \"--CODEGEN--\":4681:4682   */\n      dup1\n        /* \"--CODEGEN--\":4674:4686   */\n      revert\n        /* \"--CODEGEN--\":4638:4640   */\n    tag_478:\n        /* \"--CODEGEN--\":4704:4767   */\n      tag_479\n        /* \"--CODEGEN--\":4759:4766   */\n      dup7\n        /* \"--CODEGEN--\":4750:4756   */\n      dup3\n        /* \"--CODEGEN--\":4739:4748   */\n      dup8\n        /* \"--CODEGEN--\":4735:4757   */\n      add\n        /* \"--CODEGEN--\":4704:4767   */\n      tag_427\n      jump\t// in\n    tag_479:\n        /* \"--CODEGEN--\":4694:4767   */\n      swap3\n      pop\n        /* \"--CODEGEN--\":4579:4773   */\n      pop\n        /* \"--CODEGEN--\":4832:4834   */\n      0x40\n        /* \"--CODEGEN--\":4821:4830   */\n      dup5\n        /* \"--CODEGEN--\":4817:4835   */\n      add\n        /* \"--CODEGEN--\":4804:4836   */\n      calldataload\n        /* \"--CODEGEN--\":4856:4874   */\n      0xffffffffffffffff\n        /* \"--CODEGEN--\":4848:4854   */\n      dup2\n        /* \"--CODEGEN--\":4845:4875   */\n      gt\n        /* \"--CODEGEN--\":4842:4844   */\n      iszero\n      tag_480\n      jumpi\n        /* \"--CODEGEN--\":4888:4889   */\n      0x00\n        /* \"--CODEGEN--\":4885:4886   */\n      dup1\n        /* \"--CODEGEN--\":4878:4890   */\n      revert\n        /* \"--CODEGEN--\":4842:4844   */\n    tag_480:\n        /* \"--CODEGEN--\":4908:4971   */\n      tag_481\n        /* \"--CODEGEN--\":4963:4970   */\n      dup7\n        /* \"--CODEGEN--\":4954:4960   */\n      dup3\n        /* \"--CODEGEN--\":4943:4952   */\n      dup8\n        /* \"--CODEGEN--\":4939:4961   */\n      add\n        /* \"--CODEGEN--\":4908:4971   */\n      tag_427\n      jump\t// in\n    tag_481:\n        /* \"--CODEGEN--\":4898:4971   */\n      swap2\n      pop\n        /* \"--CODEGEN--\":4783:4977   */\n      pop\n        /* \"--CODEGEN--\":4404:4987   */\n      swap3\n      pop\n      swap3\n      pop\n      swap3\n      jump\t// out\n        /* \"--CODEGEN--\":4995:5168   */\n    tag_482:\n      0x00\n        /* \"--CODEGEN--\":5082:5128   */\n      tag_484\n        /* \"--CODEGEN--\":5124:5127   */\n      dup4\n        /* \"--CODEGEN--\":5116:5122   */\n      dup4\n        /* \"--CODEGEN--\":5082:5128   */\n      tag_485\n      jump\t// in\n    tag_484:\n        /* \"--CODEGEN--\":5157:5161   */\n      0x20\n        /* \"--CODEGEN--\":5152:5155   */\n      dup4\n        /* \"--CODEGEN--\":5148:5162   */\n      add\n        /* \"--CODEGEN--\":5134:5162   */\n      swap1\n      pop\n        /* \"--CODEGEN--\":5075:5168   */\n      swap3\n      swap2\n      pop\n      pop\n      jump\t// out\n        /* \"--CODEGEN--\":5177:5370   */\n    tag_486:\n      0x00\n        /* \"--CODEGEN--\":5298:5364   */\n      tag_488\n        /* \"--CODEGEN--\":5360:5363   */\n      dup4\n        /* \"--CODEGEN--\":5352:5358   */\n      dup4\n        /* \"--CODEGEN--\":5298:5364   */\n      tag_489\n      jump\t// in\n    tag_488:\n        /* \"--CODEGEN--\":5284:5364   */\n      swap1\n      pop\n        /* \"--CODEGEN--\":5277:5370   */\n      swap3\n      swap2\n      pop\n      pop\n      jump\t// out\n        /* \"--CODEGEN--\":5379:5552   */\n    tag_490:\n      0x00\n        /* \"--CODEGEN--\":5466:5512   */\n      tag_492\n        /* \"--CODEGEN--\":5508:5511   */\n      dup4\n        /* \"--CODEGEN--\":5500:5506   */\n      dup4\n        /* \"--CODEGEN--\":5466:5512   */\n      tag_493\n      jump\t// in\n    tag_492:\n        /* \"--CODEGEN--\":5541:5545   */\n      0x20\n        /* \"--CODEGEN--\":5536:5539   */\n      dup4\n        /* \"--CODEGEN--\":5532:5546   */\n      add\n        /* \"--CODEGEN--\":5518:5546   */\n      swap1\n      pop\n        /* \"--CODEGEN--\":5459:5552   */\n      swap3\n      swap2\n      pop\n      pop\n      jump\t// out\n        /* \"--CODEGEN--\":5560:5697   */\n    tag_494:\n        /* \"--CODEGEN--\":5659:5691   */\n      tag_496\n        /* \"--CODEGEN--\":5685:5690   */\n      dup2\n        /* \"--CODEGEN--\":5659:5691   */\n      tag_497\n      jump\t// in\n    tag_496:\n        /* \"--CODEGEN--\":5654:5657   */\n      dup3\n        /* \"--CODEGEN--\":5647:5692   */\n      mstore\n        /* \"--CODEGEN--\":5641:5697   */\n      pop\n      pop\n      jump\t// out\n        /* \"--CODEGEN--\":5704:5888   */\n    tag_498:\n        /* \"--CODEGEN--\":5821:5882   */\n      tag_500\n        /* \"--CODEGEN--\":5849:5881   */\n      tag_501\n        /* \"--CODEGEN--\":5875:5880   */\n      dup3\n        /* \"--CODEGEN--\":5849:5881   */\n      tag_497\n      jump\t// in\n    tag_501:\n        /* \"--CODEGEN--\":5821:5882   */\n      tag_502\n      jump\t// in\n    tag_500:\n        /* \"--CODEGEN--\":5816:5819   */\n      dup3\n        /* \"--CODEGEN--\":5809:5883   */\n      mstore\n        /* \"--CODEGEN--\":5803:5888   */\n      pop\n      pop\n      jump\t// out\n        /* \"--CODEGEN--\":5895:5998   */\n    tag_485:\n        /* \"--CODEGEN--\":5968:5992   */\n      tag_504\n        /* \"--CODEGEN--\":5986:5991   */\n      dup2\n        /* \"--CODEGEN--\":5968:5992   */\n      tag_505\n      jump\t// in\n    tag_504:\n        /* \"--CODEGEN--\":5963:5966   */\n      dup3\n        /* \"--CODEGEN--\":5956:5993   */\n      mstore\n        /* \"--CODEGEN--\":5950:5998   */\n      pop\n      pop\n      jump\t// out\n        /* \"--CODEGEN--\":6036:6726   */\n    tag_506:\n      0x00\n        /* \"--CODEGEN--\":6181:6235   */\n      tag_508\n        /* \"--CODEGEN--\":6229:6234   */\n      dup3\n        /* \"--CODEGEN--\":6181:6235   */\n      tag_509\n      jump\t// in\n    tag_508:\n        /* \"--CODEGEN--\":6248:6334   */\n      tag_510\n        /* \"--CODEGEN--\":6327:6333   */\n      dup2\n        /* \"--CODEGEN--\":6322:6325   */\n      dup6\n        /* \"--CODEGEN--\":6248:6334   */\n      tag_511\n      jump\t// in\n    tag_510:\n        /* \"--CODEGEN--\":6241:6334   */\n      swap4\n      pop\n        /* \"--CODEGEN--\":6355:6411   */\n      tag_512\n        /* \"--CODEGEN--\":6405:6410   */\n      dup4\n        /* \"--CODEGEN--\":6355:6411   */\n      tag_513\n      jump\t// in\n    tag_512:\n        /* \"--CODEGEN--\":6431:6438   */\n      dup1\n        /* \"--CODEGEN--\":6459:6460   */\n      0x00\n        /* \"--CODEGEN--\":6444:6704   */\n    tag_514:\n        /* \"--CODEGEN--\":6469:6475   */\n      dup4\n        /* \"--CODEGEN--\":6466:6467   */\n      dup2\n        /* \"--CODEGEN--\":6463:6476   */\n      lt\n        /* \"--CODEGEN--\":6444:6704   */\n      iszero\n      tag_516\n      jumpi\n        /* \"--CODEGEN--\":6536:6542   */\n      dup2\n        /* \"--CODEGEN--\":6530:6543   */\n      mload\n        /* \"--CODEGEN--\":6557:6620   */\n      tag_517\n        /* \"--CODEGEN--\":6616:6619   */\n      dup9\n        /* \"--CODEGEN--\":6601:6614   */\n      dup3\n        /* \"--CODEGEN--\":6557:6620   */\n      tag_482\n      jump\t// in\n    tag_517:\n        /* \"--CODEGEN--\":6550:6620   */\n      swap8\n      pop\n        /* \"--CODEGEN--\":6637:6697   */\n      tag_518\n        /* \"--CODEGEN--\":6690:6696   */\n      dup4\n        /* \"--CODEGEN--\":6637:6697   */\n      tag_519\n      jump\t// in\n    tag_518:\n        /* \"--CODEGEN--\":6627:6697   */\n      swap3\n      pop\n        /* \"--CODEGEN--\":6501:6704   */\n      pop\n        /* \"--CODEGEN--\":6491:6492   */\n      0x01\n        /* \"--CODEGEN--\":6488:6489   */\n      dup2\n        /* \"--CODEGEN--\":6484:6493   */\n      add\n        /* \"--CODEGEN--\":6479:6493   */\n      swap1\n      pop\n        /* \"--CODEGEN--\":6444:6704   */\n      jump(tag_514)\n    tag_516:\n        /* \"--CODEGEN--\":6448:6462   */\n      pop\n        /* \"--CODEGEN--\":6717:6720   */\n      dup6\n        /* \"--CODEGEN--\":6710:6720   */\n      swap4\n      pop\n        /* \"--CODEGEN--\":6160:6726   */\n      pop\n      pop\n      pop\n      swap3\n      swap2\n      pop\n      pop\n      jump\t// out\n        /* \"--CODEGEN--\":6763:7691   */\n    tag_520:\n      0x00\n        /* \"--CODEGEN--\":6928:6992   */\n      tag_522\n        /* \"--CODEGEN--\":6986:6991   */\n      dup3\n        /* \"--CODEGEN--\":6928:6992   */\n      tag_523\n      jump\t// in\n    tag_522:\n        /* \"--CODEGEN--\":7005:7101   */\n      tag_524\n        /* \"--CODEGEN--\":7094:7100   */\n      dup2\n        /* \"--CODEGEN--\":7089:7092   */\n      dup6\n        /* \"--CODEGEN--\":7005:7101   */\n      tag_525\n      jump\t// in\n    tag_524:\n        /* \"--CODEGEN--\":6998:7101   */\n      swap4\n      pop\n        /* \"--CODEGEN--\":7124:7127   */\n      dup4\n        /* \"--CODEGEN--\":7166:7170   */\n      0x20\n        /* \"--CODEGEN--\":7158:7164   */\n      dup3\n        /* \"--CODEGEN--\":7154:7171   */\n      mul\n        /* \"--CODEGEN--\":7149:7152   */\n      dup6\n        /* \"--CODEGEN--\":7145:7172   */\n      add\n        /* \"--CODEGEN--\":7193:7259   */\n      tag_526\n        /* \"--CODEGEN--\":7253:7258   */\n      dup6\n        /* \"--CODEGEN--\":7193:7259   */\n      tag_527\n      jump\t// in\n    tag_526:\n        /* \"--CODEGEN--\":7279:7286   */\n      dup1\n        /* \"--CODEGEN--\":7307:7308   */\n      0x00\n        /* \"--CODEGEN--\":7292:7652   */\n    tag_528:\n        /* \"--CODEGEN--\":7317:7323   */\n      dup6\n        /* \"--CODEGEN--\":7314:7315   */\n      dup2\n        /* \"--CODEGEN--\":7311:7324   */\n      lt\n        /* \"--CODEGEN--\":7292:7652   */\n      iszero\n      tag_530\n      jumpi\n        /* \"--CODEGEN--\":7379:7388   */\n      dup5\n        /* \"--CODEGEN--\":7373:7377   */\n      dup5\n        /* \"--CODEGEN--\":7369:7389   */\n      sub\n        /* \"--CODEGEN--\":7364:7367   */\n      dup10\n        /* \"--CODEGEN--\":7357:7390   */\n      mstore\n        /* \"--CODEGEN--\":7424:7430   */\n      dup2\n        /* \"--CODEGEN--\":7418:7431   */\n      mload\n        /* \"--CODEGEN--\":7446:7530   */\n      tag_531\n        /* \"--CODEGEN--\":7525:7529   */\n      dup6\n        /* \"--CODEGEN--\":7510:7523   */\n      dup3\n        /* \"--CODEGEN--\":7446:7530   */\n      tag_486\n      jump\t// in\n    tag_531:\n        /* \"--CODEGEN--\":7438:7530   */\n      swap5\n      pop\n        /* \"--CODEGEN--\":7547:7617   */\n      tag_532\n        /* \"--CODEGEN--\":7610:7616   */\n      dup4\n        /* \"--CODEGEN--\":7547:7617   */\n      tag_533\n      jump\t// in\n    tag_532:\n        /* \"--CODEGEN--\":7537:7617   */\n      swap3\n      pop\n        /* \"--CODEGEN--\":7640:7644   */\n      0x20\n        /* \"--CODEGEN--\":7635:7638   */\n      dup11\n        /* \"--CODEGEN--\":7631:7645   */\n      add\n        /* \"--CODEGEN--\":7624:7645   */\n      swap10\n      pop\n        /* \"--CODEGEN--\":7349:7652   */\n      pop\n        /* \"--CODEGEN--\":7339:7340   */\n      0x01\n        /* \"--CODEGEN--\":7336:7337   */\n      dup2\n        /* \"--CODEGEN--\":7332:7341   */\n      add\n        /* \"--CODEGEN--\":7327:7341   */\n      swap1\n      pop\n        /* \"--CODEGEN--\":7292:7652   */\n      jump(tag_528)\n    tag_530:\n        /* \"--CODEGEN--\":7296:7310   */\n      pop\n        /* \"--CODEGEN--\":7665:7669   */\n      dup3\n        /* \"--CODEGEN--\":7658:7669   */\n      swap8\n      pop\n        /* \"--CODEGEN--\":7682:7685   */\n      dup8\n        /* \"--CODEGEN--\":7675:7685   */\n      swap6\n      pop\n        /* \"--CODEGEN--\":6907:7691   */\n      pop\n      pop\n      pop\n      pop\n      pop\n      swap3\n      swap2\n      pop\n      pop\n      jump\t// out\n        /* \"--CODEGEN--\":7730:8420   */\n    tag_534:\n      0x00\n        /* \"--CODEGEN--\":7875:7929   */\n      tag_536\n        /* \"--CODEGEN--\":7923:7928   */\n      dup3\n        /* \"--CODEGEN--\":7875:7929   */\n      tag_537\n      jump\t// in\n    tag_536:\n        /* \"--CODEGEN--\":7942:8028   */\n      tag_538\n        /* \"--CODEGEN--\":8021:8027   */\n      dup2\n        /* \"--CODEGEN--\":8016:8019   */\n      dup6\n        /* \"--CODEGEN--\":7942:8028   */\n      tag_539\n      jump\t// in\n    tag_538:\n        /* \"--CODEGEN--\":7935:8028   */\n      swap4\n      pop\n        /* \"--CODEGEN--\":8049:8105   */\n      tag_540\n        /* \"--CODEGEN--\":8099:8104   */\n      dup4\n        /* \"--CODEGEN--\":8049:8105   */\n      tag_541\n      jump\t// in\n    tag_540:\n        /* \"--CODEGEN--\":8125:8132   */\n      dup1\n        /* \"--CODEGEN--\":8153:8154   */\n      0x00\n        /* \"--CODEGEN--\":8138:8398   */\n    tag_542:\n        /* \"--CODEGEN--\":8163:8169   */\n      dup4\n        /* \"--CODEGEN--\":8160:8161   */\n      dup2\n        /* \"--CODEGEN--\":8157:8170   */\n      lt\n        /* \"--CODEGEN--\":8138:8398   */\n      iszero\n      tag_544\n      jumpi\n        /* \"--CODEGEN--\":8230:8236   */\n      dup2\n        /* \"--CODEGEN--\":8224:8237   */\n      mload\n        /* \"--CODEGEN--\":8251:8314   */\n      tag_545\n        /* \"--CODEGEN--\":8310:8313   */\n      dup9\n        /* \"--CODEGEN--\":8295:8308   */\n      dup3\n        /* \"--CODEGEN--\":8251:8314   */\n      tag_490\n      jump\t// in\n    tag_545:\n        /* \"--CODEGEN--\":8244:8314   */\n      swap8\n      pop\n        /* \"--CODEGEN--\":8331:8391   */\n      tag_546\n        /* \"--CODEGEN--\":8384:8390   */\n      dup4\n        /* \"--CODEGEN--\":8331:8391   */\n      tag_547\n      jump\t// in\n    tag_546:\n        /* \"--CODEGEN--\":8321:8391   */\n      swap3\n      pop\n        /* \"--CODEGEN--\":8195:8398   */\n      pop\n        /* \"--CODEGEN--\":8185:8186   */\n      0x01\n        /* \"--CODEGEN--\":8182:8183   */\n      dup2\n        /* \"--CODEGEN--\":8178:8187   */\n      add\n        /* \"--CODEGEN--\":8173:8187   */\n      swap1\n      pop\n        /* \"--CODEGEN--\":8138:8398   */\n      jump(tag_542)\n    tag_544:\n        /* \"--CODEGEN--\":8142:8156   */\n      pop\n        /* \"--CODEGEN--\":8411:8414   */\n      dup6\n        /* \"--CODEGEN--\":8404:8414   */\n      swap4\n      pop\n        /* \"--CODEGEN--\":7854:8420   */\n      pop\n      pop\n      pop\n      swap3\n      swap2\n      pop\n      pop\n      jump\t// out\n        /* \"--CODEGEN--\":8428:8532   */\n    tag_548:\n        /* \"--CODEGEN--\":8505:8526   */\n      tag_550\n        /* \"--CODEGEN--\":8520:8525   */\n      dup2\n        /* \"--CODEGEN--\":8505:8526   */\n      tag_551\n      jump\t// in\n    tag_550:\n        /* \"--CODEGEN--\":8500:8503   */\n      dup3\n        /* \"--CODEGEN--\":8493:8527   */\n      mstore\n        /* \"--CODEGEN--\":8487:8532   */\n      pop\n      pop\n      jump\t// out\n        /* \"--CODEGEN--\":8539:8652   */\n    tag_552:\n        /* \"--CODEGEN--\":8622:8646   */\n      tag_554\n        /* \"--CODEGEN--\":8640:8645   */\n      dup2\n        /* \"--CODEGEN--\":8622:8646   */\n      tag_555\n      jump\t// in\n    tag_554:\n        /* \"--CODEGEN--\":8617:8620   */\n      dup3\n        /* \"--CODEGEN--\":8610:8647   */\n      mstore\n        /* \"--CODEGEN--\":8604:8652   */\n      pop\n      pop\n      jump\t// out\n        /* \"--CODEGEN--\":8659:8986   */\n    tag_489:\n      0x00\n        /* \"--CODEGEN--\":8761:8800   */\n      tag_557\n        /* \"--CODEGEN--\":8794:8799   */\n      dup3\n        /* \"--CODEGEN--\":8761:8800   */\n      tag_558\n      jump\t// in\n    tag_557:\n        /* \"--CODEGEN--\":8812:8873   */\n      tag_559\n        /* \"--CODEGEN--\":8866:8872   */\n      dup2\n        /* \"--CODEGEN--\":8861:8864   */\n      dup6\n        /* \"--CODEGEN--\":8812:8873   */\n      tag_560\n      jump\t// in\n    tag_559:\n        /* \"--CODEGEN--\":8805:8873   */\n      swap4\n      pop\n        /* \"--CODEGEN--\":8878:8930   */\n      tag_561\n        /* \"--CODEGEN--\":8923:8929   */\n      dup2\n        /* \"--CODEGEN--\":8918:8921   */\n      dup6\n        /* \"--CODEGEN--\":8911:8915   */\n      0x20\n        /* \"--CODEGEN--\":8904:8909   */\n      dup7\n        /* \"--CODEGEN--\":8900:8916   */\n      add\n        /* \"--CODEGEN--\":8878:8930   */\n      tag_562\n      jump\t// in\n    tag_561:\n        /* \"--CODEGEN--\":8951:8980   */\n      tag_563\n        /* \"--CODEGEN--\":8973:8979   */\n      dup2\n        /* \"--CODEGEN--\":8951:8980   */\n      tag_564\n      jump\t// in\n    tag_563:\n        /* \"--CODEGEN--\":8946:8949   */\n      dup5\n        /* \"--CODEGEN--\":8942:8981   */\n      add\n        /* \"--CODEGEN--\":8935:8981   */\n      swap2\n      pop\n        /* \"--CODEGEN--\":8741:8986   */\n      pop\n      swap3\n      swap2\n      pop\n      pop\n      jump\t// out\n        /* \"--CODEGEN--\":8993:9353   */\n    tag_565:\n      0x00\n        /* \"--CODEGEN--\":9123:9162   */\n      tag_567\n        /* \"--CODEGEN--\":9156:9161   */\n      dup3\n        /* \"--CODEGEN--\":9123:9162   */\n      tag_558\n      jump\t// in\n    tag_567:\n        /* \"--CODEGEN--\":9174:9263   */\n      tag_568\n        /* \"--CODEGEN--\":9256:9262   */\n      dup2\n        /* \"--CODEGEN--\":9251:9254   */\n      dup6\n        /* \"--CODEGEN--\":9174:9263   */\n      tag_569\n      jump\t// in\n    tag_568:\n        /* \"--CODEGEN--\":9167:9263   */\n      swap4\n      pop\n        /* \"--CODEGEN--\":9268:9320   */\n      tag_570\n        /* \"--CODEGEN--\":9313:9319   */\n      dup2\n        /* \"--CODEGEN--\":9308:9311   */\n      dup6\n        /* \"--CODEGEN--\":9301:9305   */\n      0x20\n        /* \"--CODEGEN--\":9294:9299   */\n      dup7\n        /* \"--CODEGEN--\":9290:9306   */\n      add\n        /* \"--CODEGEN--\":9268:9320   */\n      tag_562\n      jump\t// in\n    tag_570:\n        /* \"--CODEGEN--\":9341:9347   */\n      dup1\n        /* \"--CODEGEN--\":9336:9339   */\n      dup5\n        /* \"--CODEGEN--\":9332:9348   */\n      add\n        /* \"--CODEGEN--\":9325:9348   */\n      swap2\n      pop\n        /* \"--CODEGEN--\":9103:9353   */\n      pop\n      swap3\n      swap2\n      pop\n      pop\n      jump\t// out\n        /* \"--CODEGEN--\":9385:10269   */\n    tag_571:\n      0x00\n        /* \"--CODEGEN--\":9522:9527   */\n      dup2\n        /* \"--CODEGEN--\":9516:9528   */\n      sload\n        /* \"--CODEGEN--\":9556:9557   */\n      0x01\n        /* \"--CODEGEN--\":9545:9554   */\n      dup2\n        /* \"--CODEGEN--\":9541:9558   */\n      and\n        /* \"--CODEGEN--\":9569:9570   */\n      0x00\n        /* \"--CODEGEN--\":9564:9832   */\n      dup2\n      eq\n      tag_574\n      jumpi\n        /* \"--CODEGEN--\":9843:9844   */\n      0x01\n        /* \"--CODEGEN--\":9838:10263   */\n      dup2\n      eq\n      tag_575\n      jumpi\n        /* \"--CODEGEN--\":9534:10263   */\n      jump(tag_573)\n        /* \"--CODEGEN--\":9564:9832   */\n    tag_574:\n        /* \"--CODEGEN--\":9642:9646   */\n      0x7f\n        /* \"--CODEGEN--\":9638:9639   */\n      0x02\n        /* \"--CODEGEN--\":9627:9636   */\n      dup4\n        /* \"--CODEGEN--\":9623:9640   */\n      div\n        /* \"--CODEGEN--\":9619:9647   */\n      and\n        /* \"--CODEGEN--\":9661:9750   */\n      tag_576\n        /* \"--CODEGEN--\":9743:9749   */\n      dup2\n        /* \"--CODEGEN--\":9738:9741   */\n      dup8\n        /* \"--CODEGEN--\":9661:9750   */\n      tag_569\n      jump\t// in\n    tag_576:\n        /* \"--CODEGEN--\":9654:9750   */\n      swap6\n      pop\n        /* \"--CODEGEN--\":9788:9792   */\n      0xff\n        /* \"--CODEGEN--\":9784:9793   */\n      not\n        /* \"--CODEGEN--\":9773:9782   */\n      dup4\n        /* \"--CODEGEN--\":9769:9794   */\n      and\n        /* \"--CODEGEN--\":9764:9767   */\n      dup7\n        /* \"--CODEGEN--\":9757:9795   */\n      mstore\n        /* \"--CODEGEN--\":9818:9824   */\n      dup1\n        /* \"--CODEGEN--\":9813:9816   */\n      dup7\n        /* \"--CODEGEN--\":9809:9825   */\n      add\n        /* \"--CODEGEN--\":9802:9825   */\n      swap4\n      pop\n        /* \"--CODEGEN--\":9571:9832   */\n      pop\n        /* \"--CODEGEN--\":9564:9832   */\n      jump(tag_573)\n        /* \"--CODEGEN--\":9838:10263   */\n    tag_575:\n        /* \"--CODEGEN--\":9907:9908   */\n      0x02\n        /* \"--CODEGEN--\":9896:9905   */\n      dup3\n        /* \"--CODEGEN--\":9892:9909   */\n      div\n        /* \"--CODEGEN--\":9923:10012   */\n      tag_577\n        /* \"--CODEGEN--\":10005:10011   */\n      dup2\n        /* \"--CODEGEN--\":10000:10003   */\n      dup8\n        /* \"--CODEGEN--\":9923:10012   */\n      tag_569\n      jump\t// in\n    tag_577:\n        /* \"--CODEGEN--\":9916:10012   */\n      swap6\n      pop\n        /* \"--CODEGEN--\":10034:10072   */\n      tag_578\n        /* \"--CODEGEN--\":10066:10071   */\n      dup6\n        /* \"--CODEGEN--\":10034:10072   */\n      tag_579\n      jump\t// in\n    tag_578:\n        /* \"--CODEGEN--\":10088:10089   */\n      0x00\n        /* \"--CODEGEN--\":10096:10226   */\n    tag_580:\n        /* \"--CODEGEN--\":10110:10116   */\n      dup3\n        /* \"--CODEGEN--\":10107:10108   */\n      dup2\n        /* \"--CODEGEN--\":10104:10117   */\n      lt\n        /* \"--CODEGEN--\":10096:10226   */\n      iszero\n      tag_582\n      jumpi\n        /* \"--CODEGEN--\":10175:10182   */\n      dup2\n        /* \"--CODEGEN--\":10169:10183   */\n      sload\n        /* \"--CODEGEN--\":10165:10166   */\n      dup2\n        /* \"--CODEGEN--\":10160:10163   */\n      dup10\n        /* \"--CODEGEN--\":10156:10167   */\n      add\n        /* \"--CODEGEN--\":10149:10184   */\n      mstore\n        /* \"--CODEGEN--\":10216:10217   */\n      0x01\n        /* \"--CODEGEN--\":10207:10214   */\n      dup3\n        /* \"--CODEGEN--\":10203:10218   */\n      add\n        /* \"--CODEGEN--\":10192:10218   */\n      swap2\n      pop\n        /* \"--CODEGEN--\":10132:10136   */\n      0x20\n        /* \"--CODEGEN--\":10129:10130   */\n      dup2\n        /* \"--CODEGEN--\":10125:10137   */\n      add\n        /* \"--CODEGEN--\":10120:10137   */\n      swap1\n      pop\n        /* \"--CODEGEN--\":10096:10226   */\n      jump(tag_580)\n    tag_582:\n        /* \"--CODEGEN--\":10249:10255   */\n      dup3\n        /* \"--CODEGEN--\":10244:10247   */\n      dup9\n        /* \"--CODEGEN--\":10240:10256   */\n      add\n        /* \"--CODEGEN--\":10233:10256   */\n      swap6\n      pop\n        /* \"--CODEGEN--\":9845:10263   */\n      pop\n      pop\n      pop\n        /* \"--CODEGEN--\":9534:10263   */\n    tag_573:\n      pop\n        /* \"--CODEGEN--\":9492:10269   */\n      pop\n      swap3\n      swap2\n      pop\n      pop\n      jump\t// out\n        /* \"--CODEGEN--\":10278:10590   */\n    tag_583:\n      0x00\n        /* \"--CODEGEN--\":10438:10505   */\n      tag_585\n        /* \"--CODEGEN--\":10502:10504   */\n      0x0c\n        /* \"--CODEGEN--\":10497:10500   */\n      dup4\n        /* \"--CODEGEN--\":10438:10505   */\n      tag_586\n      jump\t// in\n    tag_585:\n        /* \"--CODEGEN--\":10431:10505   */\n      swap2\n      pop\n        /* \"--CODEGEN--\":10538:10552   */\n      0x746f6b656e206469756261680000000000000000000000000000000000000000\n        /* \"--CODEGEN--\":10534:10535   */\n      0x00\n        /* \"--CODEGEN--\":10529:10532   */\n      dup4\n        /* \"--CODEGEN--\":10525:10536   */\n      add\n        /* \"--CODEGEN--\":10518:10553   */\n      mstore\n        /* \"--CODEGEN--\":10581:10583   */\n      0x20\n        /* \"--CODEGEN--\":10576:10579   */\n      dup3\n        /* \"--CODEGEN--\":10572:10584   */\n      add\n        /* \"--CODEGEN--\":10565:10584   */\n      swap1\n      pop\n        /* \"--CODEGEN--\":10424:10590   */\n      swap2\n      swap1\n      pop\n      jump\t// out\n        /* \"--CODEGEN--\":10599:10917   */\n    tag_587:\n      0x00\n        /* \"--CODEGEN--\":10759:10826   */\n      tag_589\n        /* \"--CODEGEN--\":10823:10825   */\n      0x12\n        /* \"--CODEGEN--\":10818:10821   */\n      dup4\n        /* \"--CODEGEN--\":10759:10826   */\n      tag_586\n      jump\t// in\n    tag_589:\n        /* \"--CODEGEN--\":10752:10826   */\n      swap2\n      pop\n        /* \"--CODEGEN--\":10859:10879   */\n      0x746f6b656e20746964616b206469756261680000000000000000000000000000\n        /* \"--CODEGEN--\":10855:10856   */\n      0x00\n        /* \"--CODEGEN--\":10850:10853   */\n      dup4\n        /* \"--CODEGEN--\":10846:10857   */\n      add\n        /* \"--CODEGEN--\":10839:10880   */\n      mstore\n        /* \"--CODEGEN--\":10908:10910   */\n      0x20\n        /* \"--CODEGEN--\":10903:10906   */\n      dup3\n        /* \"--CODEGEN--\":10899:10911   */\n      add\n        /* \"--CODEGEN--\":10892:10911   */\n      swap1\n      pop\n        /* \"--CODEGEN--\":10745:10917   */\n      swap2\n      swap1\n      pop\n      jump\t// out\n        /* \"--CODEGEN--\":10925:11028   */\n    tag_493:\n        /* \"--CODEGEN--\":10998:11022   */\n      tag_591\n        /* \"--CODEGEN--\":11016:11021   */\n      dup2\n        /* \"--CODEGEN--\":10998:11022   */\n      tag_592\n      jump\t// in\n    tag_591:\n        /* \"--CODEGEN--\":10993:10996   */\n      dup3\n        /* \"--CODEGEN--\":10986:11023   */\n      mstore\n        /* \"--CODEGEN--\":10980:11028   */\n      pop\n      pop\n      jump\t// out\n        /* \"--CODEGEN--\":11035:11148   */\n    tag_593:\n        /* \"--CODEGEN--\":11118:11142   */\n      tag_595\n        /* \"--CODEGEN--\":11136:11141   */\n      dup2\n        /* \"--CODEGEN--\":11118:11142   */\n      tag_592\n      jump\t// in\n    tag_595:\n        /* \"--CODEGEN--\":11113:11116   */\n      dup3\n        /* \"--CODEGEN--\":11106:11143   */\n      mstore\n        /* \"--CODEGEN--\":11100:11148   */\n      pop\n      pop\n      jump\t// out\n        /* \"--CODEGEN--\":11155:11307   */\n    tag_596:\n        /* \"--CODEGEN--\":11256:11301   */\n      tag_598\n        /* \"--CODEGEN--\":11276:11300   */\n      tag_599\n        /* \"--CODEGEN--\":11294:11299   */\n      dup3\n        /* \"--CODEGEN--\":11276:11300   */\n      tag_592\n      jump\t// in\n    tag_599:\n        /* \"--CODEGEN--\":11256:11301   */\n      tag_600\n      jump\t// in\n    tag_598:\n        /* \"--CODEGEN--\":11251:11254   */\n      dup3\n        /* \"--CODEGEN--\":11244:11302   */\n      mstore\n        /* \"--CODEGEN--\":11238:11307   */\n      pop\n      pop\n      jump\t// out\n        /* \"--CODEGEN--\":11314:11738   */\n    tag_358:\n      0x00\n        /* \"--CODEGEN--\":11486:11577   */\n      tag_602\n        /* \"--CODEGEN--\":11573:11576   */\n      dup3\n        /* \"--CODEGEN--\":11564:11570   */\n      dup6\n        /* \"--CODEGEN--\":11486:11577   */\n      tag_498\n      jump\t// in\n    tag_602:\n        /* \"--CODEGEN--\":11599:11601   */\n      0x14\n        /* \"--CODEGEN--\":11594:11597   */\n      dup3\n        /* \"--CODEGEN--\":11590:11602   */\n      add\n        /* \"--CODEGEN--\":11583:11602   */\n      swap2\n      pop\n        /* \"--CODEGEN--\":11613:11688   */\n      tag_603\n        /* \"--CODEGEN--\":11684:11687   */\n      dup3\n        /* \"--CODEGEN--\":11675:11681   */\n      dup5\n        /* \"--CODEGEN--\":11613:11688   */\n      tag_596\n      jump\t// in\n    tag_603:\n        /* \"--CODEGEN--\":11710:11712   */\n      0x20\n        /* \"--CODEGEN--\":11705:11708   */\n      dup3\n        /* \"--CODEGEN--\":11701:11713   */\n      add\n        /* \"--CODEGEN--\":11694:11713   */\n      swap2\n      pop\n        /* \"--CODEGEN--\":11730:11733   */\n      dup2\n        /* \"--CODEGEN--\":11723:11733   */\n      swap1\n      pop\n        /* \"--CODEGEN--\":11474:11738   */\n      swap4\n      swap3\n      pop\n      pop\n      pop\n      jump\t// out\n        /* \"--CODEGEN--\":11745:12020   */\n    tag_131:\n      0x00\n        /* \"--CODEGEN--\":11900:11995   */\n      tag_605\n        /* \"--CODEGEN--\":11991:11994   */\n      dup3\n        /* \"--CODEGEN--\":11982:11988   */\n      dup5\n        /* \"--CODEGEN--\":11900:11995   */\n      tag_565\n      jump\t// in\n    tag_605:\n        /* \"--CODEGEN--\":11893:11995   */\n      swap2\n      pop\n        /* \"--CODEGEN--\":12012:12015   */\n      dup2\n        /* \"--CODEGEN--\":12005:12015   */\n      swap1\n      pop\n        /* \"--CODEGEN--\":11881:12020   */\n      swap3\n      swap2\n      pop\n      pop\n      jump\t// out\n        /* \"--CODEGEN--\":12027:12296   */\n    tag_129:\n      0x00\n        /* \"--CODEGEN--\":12179:12271   */\n      tag_607\n        /* \"--CODEGEN--\":12267:12270   */\n      dup3\n        /* \"--CODEGEN--\":12258:12264   */\n      dup5\n        /* \"--CODEGEN--\":12179:12271   */\n      tag_571\n      jump\t// in\n    tag_607:\n        /* \"--CODEGEN--\":12172:12271   */\n      swap2\n      pop\n        /* \"--CODEGEN--\":12288:12291   */\n      dup2\n        /* \"--CODEGEN--\":12281:12291   */\n      swap1\n      pop\n        /* \"--CODEGEN--\":12160:12296   */\n      swap3\n      swap2\n      pop\n      pop\n      jump\t// out\n        /* \"--CODEGEN--\":12303:12557   */\n    tag_50:\n      0x00\n        /* \"--CODEGEN--\":12446:12448   */\n      0x20\n        /* \"--CODEGEN--\":12435:12444   */\n      dup3\n        /* \"--CODEGEN--\":12431:12449   */\n      add\n        /* \"--CODEGEN--\":12423:12449   */\n      swap1\n      pop\n        /* \"--CODEGEN--\":12460:12547   */\n      tag_609\n        /* \"--CODEGEN--\":12544:12545   */\n      0x00\n        /* \"--CODEGEN--\":12533:12542   */\n      dup4\n        /* \"--CODEGEN--\":12529:12546   */\n      add\n        /* \"--CODEGEN--\":12520:12526   */\n      dup5\n        /* \"--CODEGEN--\":12460:12547   */\n      tag_494\n      jump\t// in\n    tag_609:\n        /* \"--CODEGEN--\":12417:12557   */\n      swap3\n      swap2\n      pop\n      pop\n      jump\t// out\n        /* \"--CODEGEN--\":12564:12934   */\n    tag_80:\n      0x00\n        /* \"--CODEGEN--\":12741:12743   */\n      0x20\n        /* \"--CODEGEN--\":12730:12739   */\n      dup3\n        /* \"--CODEGEN--\":12726:12744   */\n      add\n        /* \"--CODEGEN--\":12718:12744   */\n      swap1\n      pop\n        /* \"--CODEGEN--\":12791:12800   */\n      dup2\n        /* \"--CODEGEN--\":12785:12789   */\n      dup2\n        /* \"--CODEGEN--\":12781:12801   */\n      sub\n        /* \"--CODEGEN--\":12777:12778   */\n      0x00\n        /* \"--CODEGEN--\":12766:12775   */\n      dup4\n        /* \"--CODEGEN--\":12762:12779   */\n      add\n        /* \"--CODEGEN--\":12755:12802   */\n      mstore\n        /* \"--CODEGEN--\":12816:12924   */\n      tag_611\n        /* \"--CODEGEN--\":12919:12923   */\n      dup2\n        /* \"--CODEGEN--\":12910:12916   */\n      dup5\n        /* \"--CODEGEN--\":12816:12924   */\n      tag_506\n      jump\t// in\n    tag_611:\n        /* \"--CODEGEN--\":12808:12924   */\n      swap1\n      pop\n        /* \"--CODEGEN--\":12712:12934   */\n      swap3\n      swap2\n      pop\n      pop\n      jump\t// out\n        /* \"--CODEGEN--\":12941:13351   */\n    tag_60:\n      0x00\n        /* \"--CODEGEN--\":13138:13140   */\n      0x20\n        /* \"--CODEGEN--\":13127:13136   */\n      dup3\n        /* \"--CODEGEN--\":13123:13141   */\n      add\n        /* \"--CODEGEN--\":13115:13141   */\n      swap1\n      pop\n        /* \"--CODEGEN--\":13188:13197   */\n      dup2\n        /* \"--CODEGEN--\":13182:13186   */\n      dup2\n        /* \"--CODEGEN--\":13178:13198   */\n      sub\n        /* \"--CODEGEN--\":13174:13175   */\n      0x00\n        /* \"--CODEGEN--\":13163:13172   */\n      dup4\n        /* \"--CODEGEN--\":13159:13176   */\n      add\n        /* \"--CODEGEN--\":13152:13199   */\n      mstore\n        /* \"--CODEGEN--\":13213:13341   */\n      tag_613\n        /* \"--CODEGEN--\":13336:13340   */\n      dup2\n        /* \"--CODEGEN--\":13327:13333   */\n      dup5\n        /* \"--CODEGEN--\":13213:13341   */\n      tag_520\n      jump\t// in\n    tag_613:\n        /* \"--CODEGEN--\":13205:13341   */\n      swap1\n      pop\n        /* \"--CODEGEN--\":13109:13351   */\n      swap3\n      swap2\n      pop\n      pop\n      jump\t// out\n        /* \"--CODEGEN--\":13358:14326   */\n    tag_54:\n      0x00\n        /* \"--CODEGEN--\":13731:13733   */\n      0x60\n        /* \"--CODEGEN--\":13720:13729   */\n      dup3\n        /* \"--CODEGEN--\":13716:13734   */\n      add\n        /* \"--CODEGEN--\":13708:13734   */\n      swap1\n      pop\n        /* \"--CODEGEN--\":13781:13790   */\n      dup2\n        /* \"--CODEGEN--\":13775:13779   */\n      dup2\n        /* \"--CODEGEN--\":13771:13791   */\n      sub\n        /* \"--CODEGEN--\":13767:13768   */\n      0x00\n        /* \"--CODEGEN--\":13756:13765   */\n      dup4\n        /* \"--CODEGEN--\":13752:13769   */\n      add\n        /* \"--CODEGEN--\":13745:13792   */\n      mstore\n        /* \"--CODEGEN--\":13806:13914   */\n      tag_615\n        /* \"--CODEGEN--\":13909:13913   */\n      dup2\n        /* \"--CODEGEN--\":13900:13906   */\n      dup7\n        /* \"--CODEGEN--\":13806:13914   */\n      tag_534\n      jump\t// in\n    tag_615:\n        /* \"--CODEGEN--\":13798:13914   */\n      swap1\n      pop\n        /* \"--CODEGEN--\":13962:13971   */\n      dup2\n        /* \"--CODEGEN--\":13956:13960   */\n      dup2\n        /* \"--CODEGEN--\":13952:13972   */\n      sub\n        /* \"--CODEGEN--\":13947:13949   */\n      0x20\n        /* \"--CODEGEN--\":13936:13945   */\n      dup4\n        /* \"--CODEGEN--\":13932:13950   */\n      add\n        /* \"--CODEGEN--\":13925:13973   */\n      mstore\n        /* \"--CODEGEN--\":13987:14115   */\n      tag_616\n        /* \"--CODEGEN--\":14110:14114   */\n      dup2\n        /* \"--CODEGEN--\":14101:14107   */\n      dup6\n        /* \"--CODEGEN--\":13987:14115   */\n      tag_520\n      jump\t// in\n    tag_616:\n        /* \"--CODEGEN--\":13979:14115   */\n      swap1\n      pop\n        /* \"--CODEGEN--\":14163:14172   */\n      dup2\n        /* \"--CODEGEN--\":14157:14161   */\n      dup2\n        /* \"--CODEGEN--\":14153:14173   */\n      sub\n        /* \"--CODEGEN--\":14148:14150   */\n      0x40\n        /* \"--CODEGEN--\":14137:14146   */\n      dup4\n        /* \"--CODEGEN--\":14133:14151   */\n      add\n        /* \"--CODEGEN--\":14126:14174   */\n      mstore\n        /* \"--CODEGEN--\":14188:14316   */\n      tag_617\n        /* \"--CODEGEN--\":14311:14315   */\n      dup2\n        /* \"--CODEGEN--\":14302:14308   */\n      dup5\n        /* \"--CODEGEN--\":14188:14316   */\n      tag_520\n      jump\t// in\n    tag_617:\n        /* \"--CODEGEN--\":14180:14316   */\n      swap1\n      pop\n        /* \"--CODEGEN--\":13702:14326   */\n      swap5\n      swap4\n      pop\n      pop\n      pop\n      pop\n      jump\t// out\n        /* \"--CODEGEN--\":14333:14543   */\n    tag_66:\n      0x00\n        /* \"--CODEGEN--\":14454:14456   */\n      0x20\n        /* \"--CODEGEN--\":14443:14452   */\n      dup3\n        /* \"--CODEGEN--\":14439:14457   */\n      add\n        /* \"--CODEGEN--\":14431:14457   */\n      swap1\n      pop\n        /* \"--CODEGEN--\":14468:14533   */\n      tag_619\n        /* \"--CODEGEN--\":14530:14531   */\n      0x00\n        /* \"--CODEGEN--\":14519:14528   */\n      dup4\n        /* \"--CODEGEN--\":14515:14532   */\n      add\n        /* \"--CODEGEN--\":14506:14512   */\n      dup5\n        /* \"--CODEGEN--\":14468:14533   */\n      tag_548\n      jump\t// in\n    tag_619:\n        /* \"--CODEGEN--\":14425:14543   */\n      swap3\n      swap2\n      pop\n      pop\n      jump\t// out\n        /* \"--CODEGEN--\":14550:14772   */\n    tag_28:\n      0x00\n        /* \"--CODEGEN--\":14677:14679   */\n      0x20\n        /* \"--CODEGEN--\":14666:14675   */\n      dup3\n        /* \"--CODEGEN--\":14662:14680   */\n      add\n        /* \"--CODEGEN--\":14654:14680   */\n      swap1\n      pop\n        /* \"--CODEGEN--\":14691:14762   */\n      tag_621\n        /* \"--CODEGEN--\":14759:14760   */\n      0x00\n        /* \"--CODEGEN--\":14748:14757   */\n      dup4\n        /* \"--CODEGEN--\":14744:14761   */\n      add\n        /* \"--CODEGEN--\":14735:14741   */\n      dup5\n        /* \"--CODEGEN--\":14691:14762   */\n      tag_552\n      jump\t// in\n    tag_621:\n        /* \"--CODEGEN--\":14648:14772   */\n      swap3\n      swap2\n      pop\n      pop\n      jump\t// out\n        /* \"--CODEGEN--\":14779:15195   */\n    tag_365:\n      0x00\n        /* \"--CODEGEN--\":14979:14981   */\n      0x20\n        /* \"--CODEGEN--\":14968:14977   */\n      dup3\n        /* \"--CODEGEN--\":14964:14982   */\n      add\n        /* \"--CODEGEN--\":14956:14982   */\n      swap1\n      pop\n        /* \"--CODEGEN--\":15029:15038   */\n      dup2\n        /* \"--CODEGEN--\":15023:15027   */\n      dup2\n        /* \"--CODEGEN--\":15019:15039   */\n      sub\n        /* \"--CODEGEN--\":15015:15016   */\n      0x00\n        /* \"--CODEGEN--\":15004:15013   */\n      dup4\n        /* \"--CODEGEN--\":15000:15017   */\n      add\n        /* \"--CODEGEN--\":14993:15040   */\n      mstore\n        /* \"--CODEGEN--\":15054:15185   */\n      tag_623\n        /* \"--CODEGEN--\":15180:15184   */\n      dup2\n        /* \"--CODEGEN--\":15054:15185   */\n      tag_583\n      jump\t// in\n    tag_623:\n        /* \"--CODEGEN--\":15046:15185   */\n      swap1\n      pop\n        /* \"--CODEGEN--\":14950:15195   */\n      swap2\n      swap1\n      pop\n      jump\t// out\n        /* \"--CODEGEN--\":15202:15618   */\n    tag_376:\n      0x00\n        /* \"--CODEGEN--\":15402:15404   */\n      0x20\n        /* \"--CODEGEN--\":15391:15400   */\n      dup3\n        /* \"--CODEGEN--\":15387:15405   */\n      add\n        /* \"--CODEGEN--\":15379:15405   */\n      swap1\n      pop\n        /* \"--CODEGEN--\":15452:15461   */\n      dup2\n        /* \"--CODEGEN--\":15446:15450   */\n      dup2\n        /* \"--CODEGEN--\":15442:15462   */\n      sub\n        /* \"--CODEGEN--\":15438:15439   */\n      0x00\n        /* \"--CODEGEN--\":15427:15436   */\n      dup4\n        /* \"--CODEGEN--\":15423:15440   */\n      add\n        /* \"--CODEGEN--\":15416:15463   */\n      mstore\n        /* \"--CODEGEN--\":15477:15608   */\n      tag_625\n        /* \"--CODEGEN--\":15603:15607   */\n      dup2\n        /* \"--CODEGEN--\":15477:15608   */\n      tag_587\n      jump\t// in\n    tag_625:\n        /* \"--CODEGEN--\":15469:15608   */\n      swap1\n      pop\n        /* \"--CODEGEN--\":15373:15618   */\n      swap2\n      swap1\n      pop\n      jump\t// out\n        /* \"--CODEGEN--\":15625:15847   */\n    tag_36:\n      0x00\n        /* \"--CODEGEN--\":15752:15754   */\n      0x20\n        /* \"--CODEGEN--\":15741:15750   */\n      dup3\n        /* \"--CODEGEN--\":15737:15755   */\n      add\n        /* \"--CODEGEN--\":15729:15755   */\n      swap1\n      pop\n        /* \"--CODEGEN--\":15766:15837   */\n      tag_627\n        /* \"--CODEGEN--\":15834:15835   */\n      0x00\n        /* \"--CODEGEN--\":15823:15832   */\n      dup4\n        /* \"--CODEGEN--\":15819:15836   */\n      add\n        /* \"--CODEGEN--\":15810:15816   */\n      dup5\n        /* \"--CODEGEN--\":15766:15837   */\n      tag_593\n      jump\t// in\n    tag_627:\n        /* \"--CODEGEN--\":15723:15847   */\n      swap3\n      swap2\n      pop\n      pop\n      jump\t// out\n        /* \"--CODEGEN--\":15854:16110   */\n    tag_433:\n      0x00\n        /* \"--CODEGEN--\":15916:15918   */\n      0x40\n        /* \"--CODEGEN--\":15910:15919   */\n      mload\n        /* \"--CODEGEN--\":15900:15919   */\n      swap1\n      pop\n        /* \"--CODEGEN--\":15954:15958   */\n      dup2\n        /* \"--CODEGEN--\":15946:15952   */\n      dup2\n        /* \"--CODEGEN--\":15942:15959   */\n      add\n        /* \"--CODEGEN--\":16053:16059   */\n      dup2\n        /* \"--CODEGEN--\":16041:16051   */\n      dup2\n        /* \"--CODEGEN--\":16038:16060   */\n      lt\n        /* \"--CODEGEN--\":16017:16035   */\n      0xffffffffffffffff\n        /* \"--CODEGEN--\":16005:16015   */\n      dup3\n        /* \"--CODEGEN--\":16002:16036   */\n      gt\n        /* \"--CODEGEN--\":15999:16061   */\n      or\n        /* \"--CODEGEN--\":15996:15998   */\n      iszero\n      tag_629\n      jumpi\n        /* \"--CODEGEN--\":16074:16075   */\n      0x00\n        /* \"--CODEGEN--\":16071:16072   */\n      dup1\n        /* \"--CODEGEN--\":16064:16076   */\n      revert\n        /* \"--CODEGEN--\":15996:15998   */\n    tag_629:\n        /* \"--CODEGEN--\":16094:16104   */\n      dup1\n        /* \"--CODEGEN--\":16090:16092   */\n      0x40\n        /* \"--CODEGEN--\":16083:16105   */\n      mstore\n        /* \"--CODEGEN--\":15894:16110   */\n      pop\n      swap2\n      swap1\n      pop\n      jump\t// out\n        /* \"--CODEGEN--\":16117:16439   */\n    tag_432:\n      0x00\n        /* \"--CODEGEN--\":16261:16279   */\n      0xffffffffffffffff\n        /* \"--CODEGEN--\":16253:16259   */\n      dup3\n        /* \"--CODEGEN--\":16250:16280   */\n      gt\n        /* \"--CODEGEN--\":16247:16249   */\n      iszero\n      tag_631\n      jumpi\n        /* \"--CODEGEN--\":16293:16294   */\n      0x00\n        /* \"--CODEGEN--\":16290:16291   */\n      dup1\n        /* \"--CODEGEN--\":16283:16295   */\n      revert\n        /* \"--CODEGEN--\":16247:16249   */\n    tag_631:\n        /* \"--CODEGEN--\":16360:16364   */\n      0x1f\n        /* \"--CODEGEN--\":16356:16365   */\n      not\n        /* \"--CODEGEN--\":16349:16353   */\n      0x1f\n        /* \"--CODEGEN--\":16341:16347   */\n      dup4\n        /* \"--CODEGEN--\":16337:16354   */\n      add\n        /* \"--CODEGEN--\":16333:16366   */\n      and\n        /* \"--CODEGEN--\":16325:16366   */\n      swap1\n      pop\n        /* \"--CODEGEN--\":16424:16428   */\n      0x20\n        /* \"--CODEGEN--\":16418:16422   */\n      dup2\n        /* \"--CODEGEN--\":16414:16429   */\n      add\n        /* \"--CODEGEN--\":16406:16429   */\n      swap1\n      pop\n        /* \"--CODEGEN--\":16184:16439   */\n      swap2\n      swap1\n      pop\n      jump\t// out\n        /* \"--CODEGEN--\":16446:16597   */\n    tag_513:\n      0x00\n        /* \"--CODEGEN--\":16532:16535   */\n      dup2\n        /* \"--CODEGEN--\":16524:16535   */\n      swap1\n      pop\n        /* \"--CODEGEN--\":16570:16574   */\n      0x20\n        /* \"--CODEGEN--\":16565:16568   */\n      dup3\n        /* \"--CODEGEN--\":16561:16575   */\n      add\n        /* \"--CODEGEN--\":16553:16575   */\n      swap1\n      pop\n        /* \"--CODEGEN--\":16518:16597   */\n      swap2\n      swap1\n      pop\n      jump\t// out\n        /* \"--CODEGEN--\":16604:16765   */\n    tag_527:\n      0x00\n        /* \"--CODEGEN--\":16700:16703   */\n      dup2\n        /* \"--CODEGEN--\":16692:16703   */\n      swap1\n      pop\n        /* \"--CODEGEN--\":16738:16742   */\n      0x20\n        /* \"--CODEGEN--\":16733:16736   */\n      dup3\n        /* \"--CODEGEN--\":16729:16743   */\n      add\n        /* \"--CODEGEN--\":16721:16743   */\n      swap1\n      pop\n        /* \"--CODEGEN--\":16686:16765   */\n      swap2\n      swap1\n      pop\n      jump\t// out\n        /* \"--CODEGEN--\":16772:16923   */\n    tag_541:\n      0x00\n        /* \"--CODEGEN--\":16858:16861   */\n      dup2\n        /* \"--CODEGEN--\":16850:16861   */\n      swap1\n      pop\n        /* \"--CODEGEN--\":16896:16900   */\n      0x20\n        /* \"--CODEGEN--\":16891:16894   */\n      dup3\n        /* \"--CODEGEN--\":16887:16901   */\n      add\n        /* \"--CODEGEN--\":16879:16901   */\n      swap1\n      pop\n        /* \"--CODEGEN--\":16844:16923   */\n      swap2\n      swap1\n      pop\n      jump\t// out\n        /* \"--CODEGEN--\":16930:17088   */\n    tag_579:\n      0x00\n        /* \"--CODEGEN--\":16998:17001   */\n      dup2\n        /* \"--CODEGEN--\":16990:17001   */\n      swap1\n      pop\n        /* \"--CODEGEN--\":17035:17038   */\n      dup2\n        /* \"--CODEGEN--\":17032:17033   */\n      0x00\n        /* \"--CODEGEN--\":17025:17039   */\n      mstore\n        /* \"--CODEGEN--\":17067:17071   */\n      0x20\n        /* \"--CODEGEN--\":17064:17065   */\n      0x00\n        /* \"--CODEGEN--\":17054:17072   */\n      keccak256\n        /* \"--CODEGEN--\":17046:17072   */\n      swap1\n      pop\n        /* \"--CODEGEN--\":16984:17088   */\n      swap2\n      swap1\n      pop\n      jump\t// out\n        /* \"--CODEGEN--\":17095:17232   */\n    tag_509:\n      0x00\n        /* \"--CODEGEN--\":17204:17209   */\n      dup2\n        /* \"--CODEGEN--\":17198:17210   */\n      mload\n        /* \"--CODEGEN--\":17188:17210   */\n      swap1\n      pop\n        /* \"--CODEGEN--\":17169:17232   */\n      swap2\n      swap1\n      pop\n      jump\t// out\n        /* \"--CODEGEN--\":17239:17386   */\n    tag_523:\n      0x00\n        /* \"--CODEGEN--\":17358:17363   */\n      dup2\n        /* \"--CODEGEN--\":17352:17364   */\n      mload\n        /* \"--CODEGEN--\":17342:17364   */\n      swap1\n      pop\n        /* \"--CODEGEN--\":17323:17386   */\n      swap2\n      swap1\n      pop\n      jump\t// out\n        /* \"--CODEGEN--\":17393:17530   */\n    tag_537:\n      0x00\n        /* \"--CODEGEN--\":17502:17507   */\n      dup2\n        /* \"--CODEGEN--\":17496:17508   */\n      mload\n        /* \"--CODEGEN--\":17486:17508   */\n      swap1\n      pop\n        /* \"--CODEGEN--\":17467:17530   */\n      swap2\n      swap1\n      pop\n      jump\t// out\n        /* \"--CODEGEN--\":17537:17659   */\n    tag_558:\n      0x00\n        /* \"--CODEGEN--\":17631:17636   */\n      dup2\n        /* \"--CODEGEN--\":17625:17637   */\n      mload\n        /* \"--CODEGEN--\":17615:17637   */\n      swap1\n      pop\n        /* \"--CODEGEN--\":17596:17659   */\n      swap2\n      swap1\n      pop\n      jump\t// out\n        /* \"--CODEGEN--\":17666:17774   */\n    tag_519:\n      0x00\n        /* \"--CODEGEN--\":17764:17768   */\n      0x20\n        /* \"--CODEGEN--\":17759:17762   */\n      dup3\n        /* \"--CODEGEN--\":17755:17769   */\n      add\n        /* \"--CODEGEN--\":17747:17769   */\n      swap1\n      pop\n        /* \"--CODEGEN--\":17741:17774   */\n      swap2\n      swap1\n      pop\n      jump\t// out\n        /* \"--CODEGEN--\":17781:17899   */\n    tag_533:\n      0x00\n        /* \"--CODEGEN--\":17889:17893   */\n      0x20\n        /* \"--CODEGEN--\":17884:17887   */\n      dup3\n        /* \"--CODEGEN--\":17880:17894   */\n      add\n        /* \"--CODEGEN--\":17872:17894   */\n      swap1\n      pop\n        /* \"--CODEGEN--\":17866:17899   */\n      swap2\n      swap1\n      pop\n      jump\t// out\n        /* \"--CODEGEN--\":17906:18014   */\n    tag_547:\n      0x00\n        /* \"--CODEGEN--\":18004:18008   */\n      0x20\n        /* \"--CODEGEN--\":17999:18002   */\n      dup3\n        /* \"--CODEGEN--\":17995:18009   */\n      add\n        /* \"--CODEGEN--\":17987:18009   */\n      swap1\n      pop\n        /* \"--CODEGEN--\":17981:18014   */\n      swap2\n      swap1\n      pop\n      jump\t// out\n        /* \"--CODEGEN--\":18022:18200   */\n    tag_511:\n      0x00\n        /* \"--CODEGEN--\":18152:18158   */\n      dup3\n        /* \"--CODEGEN--\":18147:18150   */\n      dup3\n        /* \"--CODEGEN--\":18140:18159   */\n      mstore\n        /* \"--CODEGEN--\":18189:18193   */\n      0x20\n        /* \"--CODEGEN--\":18184:18187   */\n      dup3\n        /* \"--CODEGEN--\":18180:18194   */\n      add\n        /* \"--CODEGEN--\":18165:18194   */\n      swap1\n      pop\n        /* \"--CODEGEN--\":18133:18200   */\n      swap3\n      swap2\n      pop\n      pop\n      jump\t// out\n        /* \"--CODEGEN--\":18209:18397   */\n    tag_525:\n      0x00\n        /* \"--CODEGEN--\":18349:18355   */\n      dup3\n        /* \"--CODEGEN--\":18344:18347   */\n      dup3\n        /* \"--CODEGEN--\":18337:18356   */\n      mstore\n        /* \"--CODEGEN--\":18386:18390   */\n      0x20\n        /* \"--CODEGEN--\":18381:18384   */\n      dup3\n        /* \"--CODEGEN--\":18377:18391   */\n      add\n        /* \"--CODEGEN--\":18362:18391   */\n      swap1\n      pop\n        /* \"--CODEGEN--\":18330:18397   */\n      swap3\n      swap2\n      pop\n      pop\n      jump\t// out\n        /* \"--CODEGEN--\":18406:18584   */\n    tag_539:\n      0x00\n        /* \"--CODEGEN--\":18536:18542   */\n      dup3\n        /* \"--CODEGEN--\":18531:18534   */\n      dup3\n        /* \"--CODEGEN--\":18524:18543   */\n      mstore\n        /* \"--CODEGEN--\":18573:18577   */\n      0x20\n        /* \"--CODEGEN--\":18568:18571   */\n      dup3\n        /* \"--CODEGEN--\":18564:18578   */\n      add\n        /* \"--CODEGEN--\":18549:18578   */\n      swap1\n      pop\n        /* \"--CODEGEN--\":18517:18584   */\n      swap3\n      swap2\n      pop\n      pop\n      jump\t// out\n        /* \"--CODEGEN--\":18593:18746   */\n    tag_560:\n      0x00\n        /* \"--CODEGEN--\":18698:18704   */\n      dup3\n        /* \"--CODEGEN--\":18693:18696   */\n      dup3\n        /* \"--CODEGEN--\":18686:18705   */\n      mstore\n        /* \"--CODEGEN--\":18735:18739   */\n      0x20\n        /* \"--CODEGEN--\":18730:18733   */\n      dup3\n        /* \"--CODEGEN--\":18726:18740   */\n      add\n        /* \"--CODEGEN--\":18711:18740   */\n      swap1\n      pop\n        /* \"--CODEGEN--\":18679:18746   */\n      swap3\n      swap2\n      pop\n      pop\n      jump\t// out\n        /* \"--CODEGEN--\":18755:18918   */\n    tag_586:\n      0x00\n        /* \"--CODEGEN--\":18870:18876   */\n      dup3\n        /* \"--CODEGEN--\":18865:18868   */\n      dup3\n        /* \"--CODEGEN--\":18858:18877   */\n      mstore\n        /* \"--CODEGEN--\":18907:18911   */\n      0x20\n        /* \"--CODEGEN--\":18902:18905   */\n      dup3\n        /* \"--CODEGEN--\":18898:18912   */\n      add\n        /* \"--CODEGEN--\":18883:18912   */\n      swap1\n      pop\n        /* \"--CODEGEN--\":18851:18918   */\n      swap3\n      swap2\n      pop\n      pop\n      jump\t// out\n        /* \"--CODEGEN--\":18927:19072   */\n    tag_569:\n      0x00\n        /* \"--CODEGEN--\":19063:19066   */\n      dup2\n        /* \"--CODEGEN--\":19048:19066   */\n      swap1\n      pop\n        /* \"--CODEGEN--\":19041:19072   */\n      swap3\n      swap2\n      pop\n      pop\n      jump\t// out\n        /* \"--CODEGEN--\":19080:19171   */\n    tag_505:\n      0x00\n        /* \"--CODEGEN--\":19142:19166   */\n      tag_650\n        /* \"--CODEGEN--\":19160:19165   */\n      dup3\n        /* \"--CODEGEN--\":19142:19166   */\n      tag_651\n      jump\t// in\n    tag_650:\n        /* \"--CODEGEN--\":19131:19166   */\n      swap1\n      pop\n        /* \"--CODEGEN--\":19125:19171   */\n      swap2\n      swap1\n      pop\n      jump\t// out\n        /* \"--CODEGEN--\":19178:19277   */\n    tag_497:\n      0x00\n        /* \"--CODEGEN--\":19248:19272   */\n      tag_653\n        /* \"--CODEGEN--\":19266:19271   */\n      dup3\n        /* \"--CODEGEN--\":19248:19272   */\n      tag_651\n      jump\t// in\n    tag_653:\n        /* \"--CODEGEN--\":19237:19272   */\n      swap1\n      pop\n        /* \"--CODEGEN--\":19231:19277   */\n      swap2\n      swap1\n      pop\n      jump\t// out\n        /* \"--CODEGEN--\":19284:19369   */\n    tag_551:\n      0x00\n        /* \"--CODEGEN--\":19357:19362   */\n      dup2\n        /* \"--CODEGEN--\":19350:19363   */\n      iszero\n        /* \"--CODEGEN--\":19343:19364   */\n      iszero\n        /* \"--CODEGEN--\":19332:19364   */\n      swap1\n      pop\n        /* \"--CODEGEN--\":19326:19369   */\n      swap2\n      swap1\n      pop\n      jump\t// out\n        /* \"--CODEGEN--\":19376:19448   */\n    tag_555:\n      0x00\n        /* \"--CODEGEN--\":19438:19443   */\n      dup2\n        /* \"--CODEGEN--\":19427:19443   */\n      swap1\n      pop\n        /* \"--CODEGEN--\":19421:19448   */\n      swap2\n      swap1\n      pop\n      jump\t// out\n        /* \"--CODEGEN--\":19455:19576   */\n    tag_651:\n      0x00\n        /* \"--CODEGEN--\":19528:19570   */\n      0xffffffffffffffffffffffffffffffffffffffff\n        /* \"--CODEGEN--\":19521:19526   */\n      dup3\n        /* \"--CODEGEN--\":19517:19571   */\n      and\n        /* \"--CODEGEN--\":19506:19571   */\n      swap1\n      pop\n        /* \"--CODEGEN--\":19500:19576   */\n      swap2\n      swap1\n      pop\n      jump\t// out\n        /* \"--CODEGEN--\":19583:19655   */\n    tag_592:\n      0x00\n        /* \"--CODEGEN--\":19645:19650   */\n      dup2\n        /* \"--CODEGEN--\":19634:19650   */\n      swap1\n      pop\n        /* \"--CODEGEN--\":19628:19655   */\n      swap2\n      swap1\n      pop\n      jump\t// out\n        /* \"--CODEGEN--\":19663:19808   */\n    tag_436:\n        /* \"--CODEGEN--\":19744:19750   */\n      dup3\n        /* \"--CODEGEN--\":19739:19742   */\n      dup2\n        /* \"--CODEGEN--\":19734:19737   */\n      dup4\n        /* \"--CODEGEN--\":19721:19751   */\n      calldatacopy\n        /* \"--CODEGEN--\":19800:19801   */\n      0x00\n        /* \"--CODEGEN--\":19791:19797   */\n      dup4\n        /* \"--CODEGEN--\":19786:19789   */\n      dup4\n        /* \"--CODEGEN--\":19782:19798   */\n      add\n        /* \"--CODEGEN--\":19775:19802   */\n      mstore\n        /* \"--CODEGEN--\":19714:19808   */\n      pop\n      pop\n      pop\n      jump\t// out\n        /* \"--CODEGEN--\":19817:20085   */\n    tag_562:\n        /* \"--CODEGEN--\":19882:19883   */\n      0x00\n        /* \"--CODEGEN--\":19889:19990   */\n    tag_660:\n        /* \"--CODEGEN--\":19903:19909   */\n      dup4\n        /* \"--CODEGEN--\":19900:19901   */\n      dup2\n        /* \"--CODEGEN--\":19897:19910   */\n      lt\n        /* \"--CODEGEN--\":19889:19990   */\n      iszero\n      tag_662\n      jumpi\n        /* \"--CODEGEN--\":19979:19980   */\n      dup1\n        /* \"--CODEGEN--\":19974:19977   */\n      dup3\n        /* \"--CODEGEN--\":19970:19981   */\n      add\n        /* \"--CODEGEN--\":19964:19982   */\n      mload\n        /* \"--CODEGEN--\":19960:19961   */\n      dup2\n        /* \"--CODEGEN--\":19955:19958   */\n      dup5\n        /* \"--CODEGEN--\":19951:19962   */\n      add\n        /* \"--CODEGEN--\":19944:19983   */\n      mstore\n        /* \"--CODEGEN--\":19925:19927   */\n      0x20\n        /* \"--CODEGEN--\":19922:19923   */\n      dup2\n        /* \"--CODEGEN--\":19918:19928   */\n      add\n        /* \"--CODEGEN--\":19913:19928   */\n      swap1\n      pop\n        /* \"--CODEGEN--\":19889:19990   */\n      jump(tag_660)\n    tag_662:\n        /* \"--CODEGEN--\":20005:20011   */\n      dup4\n        /* \"--CODEGEN--\":20002:20003   */\n      dup2\n        /* \"--CODEGEN--\":19999:20012   */\n      gt\n        /* \"--CODEGEN--\":19996:19998   */\n      iszero\n      tag_663\n      jumpi\n        /* \"--CODEGEN--\":20070:20071   */\n      0x00\n        /* \"--CODEGEN--\":20061:20067   */\n      dup5\n        /* \"--CODEGEN--\":20056:20059   */\n      dup5\n        /* \"--CODEGEN--\":20052:20068   */\n      add\n        /* \"--CODEGEN--\":20045:20072   */\n      mstore\n        /* \"--CODEGEN--\":19996:19998   */\n    tag_663:\n        /* \"--CODEGEN--\":19866:20085   */\n      pop\n      pop\n      pop\n      pop\n      jump\t// out\n        /* \"--CODEGEN--\":20093:20196   */\n    tag_502:\n      0x00\n        /* \"--CODEGEN--\":20165:20191   */\n      tag_665\n        /* \"--CODEGEN--\":20185:20190   */\n      dup3\n        /* \"--CODEGEN--\":20165:20191   */\n      tag_666\n      jump\t// in\n    tag_665:\n        /* \"--CODEGEN--\":20154:20191   */\n      swap1\n      pop\n        /* \"--CODEGEN--\":20148:20196   */\n      swap2\n      swap1\n      pop\n      jump\t// out\n        /* \"--CODEGEN--\":20203:20292   */\n    tag_666:\n      0x00\n        /* \"--CODEGEN--\":20267:20287   */\n      tag_668\n        /* \"--CODEGEN--\":20281:20286   */\n      dup3\n        /* \"--CODEGEN--\":20267:20287   */\n      tag_669\n      jump\t// in\n    tag_668:\n        /* \"--CODEGEN--\":20256:20287   */\n      swap1\n      pop\n        /* \"--CODEGEN--\":20250:20292   */\n      swap2\n      swap1\n      pop\n      jump\t// out\n        /* \"--CODEGEN--\":20299:20373   */\n    tag_600:\n      0x00\n        /* \"--CODEGEN--\":20363:20368   */\n      dup2\n        /* \"--CODEGEN--\":20352:20368   */\n      swap1\n      pop\n        /* \"--CODEGEN--\":20346:20373   */\n      swap2\n      swap1\n      pop\n      jump\t// out\n        /* \"--CODEGEN--\":20380:20477   */\n    tag_564:\n      0x00\n        /* \"--CODEGEN--\":20468:20470   */\n      0x1f\n        /* \"--CODEGEN--\":20464:20471   */\n      not\n        /* \"--CODEGEN--\":20459:20461   */\n      0x1f\n        /* \"--CODEGEN--\":20452:20457   */\n      dup4\n        /* \"--CODEGEN--\":20448:20462   */\n      add\n        /* \"--CODEGEN--\":20444:20472   */\n      and\n        /* \"--CODEGEN--\":20434:20472   */\n      swap1\n      pop\n        /* \"--CODEGEN--\":20428:20477   */\n      swap2\n      swap1\n      pop\n      jump\t// out\n        /* \"--CODEGEN--\":20485:20579   */\n    tag_669:\n      0x00\n        /* \"--CODEGEN--\":20563:20568   */\n      dup2\n        /* \"--CODEGEN--\":20559:20561   */\n      0x60\n        /* \"--CODEGEN--\":20555:20569   */\n      shl\n        /* \"--CODEGEN--\":20533:20569   */\n      swap1\n      pop\n        /* \"--CODEGEN--\":20527:20579   */\n      swap2\n      swap1\n      pop\n      jump\t// out\n        /* \"--CODEGEN--\":20587:20704   */\n    tag_418:\n        /* \"--CODEGEN--\":20656:20680   */\n      tag_674\n        /* \"--CODEGEN--\":20674:20679   */\n      dup2\n        /* \"--CODEGEN--\":20656:20680   */\n      tag_505\n      jump\t// in\n    tag_674:\n        /* \"--CODEGEN--\":20649:20654   */\n      dup2\n        /* \"--CODEGEN--\":20646:20681   */\n      eq\n        /* \"--CODEGEN--\":20636:20638   */\n      tag_675\n      jumpi\n        /* \"--CODEGEN--\":20695:20696   */\n      0x00\n        /* \"--CODEGEN--\":20692:20693   */\n      dup1\n        /* \"--CODEGEN--\":20685:20697   */\n      revert\n        /* \"--CODEGEN--\":20636:20638   */\n    tag_675:\n        /* \"--CODEGEN--\":20630:20704   */\n      pop\n      jump\t// out\n        /* \"--CODEGEN--\":20711:20844   */\n    tag_422:\n        /* \"--CODEGEN--\":20788:20820   */\n      tag_677\n        /* \"--CODEGEN--\":20814:20819   */\n      dup2\n        /* \"--CODEGEN--\":20788:20820   */\n      tag_497\n      jump\t// in\n    tag_677:\n        /* \"--CODEGEN--\":20781:20786   */\n      dup2\n        /* \"--CODEGEN--\":20778:20821   */\n      eq\n        /* \"--CODEGEN--\":20768:20770   */\n      tag_678\n      jumpi\n        /* \"--CODEGEN--\":20835:20836   */\n      0x00\n        /* \"--CODEGEN--\":20832:20833   */\n      dup1\n        /* \"--CODEGEN--\":20825:20837   */\n      revert\n        /* \"--CODEGEN--\":20768:20770   */\n    tag_678:\n        /* \"--CODEGEN--\":20762:20844   */\n      pop\n      jump\t// out\n        /* \"--CODEGEN--\":20851:20968   */\n    tag_426:\n        /* \"--CODEGEN--\":20920:20944   */\n      tag_680\n        /* \"--CODEGEN--\":20938:20943   */\n      dup2\n        /* \"--CODEGEN--\":20920:20944   */\n      tag_555\n      jump\t// in\n    tag_680:\n        /* \"--CODEGEN--\":20913:20918   */\n      dup2\n        /* \"--CODEGEN--\":20910:20945   */\n      eq\n        /* \"--CODEGEN--\":20900:20902   */\n      tag_681\n      jumpi\n        /* \"--CODEGEN--\":20959:20960   */\n      0x00\n        /* \"--CODEGEN--\":20956:20957   */\n      dup1\n        /* \"--CODEGEN--\":20949:20961   */\n      revert\n        /* \"--CODEGEN--\":20900:20902   */\n    tag_681:\n        /* \"--CODEGEN--\":20894:20968   */\n      pop\n      jump\t// out\n        /* \"--CODEGEN--\":20975:21092   */\n    tag_440:\n        /* \"--CODEGEN--\":21044:21068   */\n      tag_683\n        /* \"--CODEGEN--\":21062:21067   */\n      dup2\n        /* \"--CODEGEN--\":21044:21068   */\n      tag_592\n      jump\t// in\n    tag_683:\n        /* \"--CODEGEN--\":21037:21042   */\n      dup2\n        /* \"--CODEGEN--\":21034:21069   */\n      eq\n        /* \"--CODEGEN--\":21024:21026   */\n      tag_684\n      jumpi\n        /* \"--CODEGEN--\":21083:21084   */\n      0x00\n        /* \"--CODEGEN--\":21080:21081   */\n      dup1\n        /* \"--CODEGEN--\":21073:21085   */\n      revert\n        /* \"--CODEGEN--\":21024:21026   */\n    tag_684:\n        /* \"--CODEGEN--\":21018:21092   */\n      pop\n      jump\t// out\n\n    auxdata: 0xa264697066735822122030a02f6c9c5f0715aac9b6468ee2e57e2c2d47f99f4d19b7e14ea9c59f3a0c9f64736f6c634300060c0033\n}\n",
    "bytecode": {
      "linkReferences": {},
      "object": "608060405234801561001057600080fd5b50336000806101000a81548173ffffffffffffffffffffffffffffffffffffffff021916908373ffffffffffffffffffffffffffffffffffffffff160217905550600060058190555060006006819055506000600781905550612f16806100786000396000f3fe608060405234801561001057600080fd5b506004361061010b5760003560e01c806371658896116100a2578063a9cb1a3611610071578063a9cb1a36146102a6578063d1314ee0146102c2578063e58da61f146102e0578063e8e5339a14610310578063fa6a04e41461032c5761010b565b8063716588961461020e5780637909ce471461023e578063836cae651461026e57806398173ff41461028a5761010b565b8063416a5d81116100de578063416a5d811461019657806342bb20e1146101b4578063481c6a75146101d05780636db80995146101ee5761010b565b80630344248b146101105780631ee32b051461014057806330a662941461015c5780633276807a1461017a575b600080fd5b61012a60048036038101906101259190612482565b610336565b6040516101379190612bcb565b60405180910390f35b61015a600480360381019061015591906124ab565b6103d8565b005b6101646106f1565b6040516101719190612c26565b60405180910390f35b610194600480360381019061018f9190612663565b610754565b005b61019e6108d2565b6040516101ab9190612c26565b60405180910390f35b6101ce60048036038101906101c99190612663565b610935565b005b6101d8610b85565b6040516101e59190612b05565b60405180910390f35b6101f6610ba9565b60405161020593929190612b64565b60405180910390f35b6102286004803603810190610223919061263a565b610ecb565b6040516102359190612b42565b60405180910390f35b610258600480360381019061025391906124d4565b6110c0565b6040516102659190612bb0565b60405180910390f35b610288600480360381019061028391906124ab565b61127a565b005b6102a4600480360381019061029f91906125ce565b6113f4565b005b6102c060048036038101906102bb919061263a565b61157d565b005b6102ca61173c565b6040516102d79190612b20565b60405180910390f35b6102fa60048036038101906102f5919061253b565b61188d565b6040516103079190612bb0565b60405180910390f35b61032a600480360381019061032591906126b7565b611a6e565b005b610334611bd1565b005b60008060009054906101000a900473ffffffffffffffffffffffffffffffffffffffff1673ffffffffffffffffffffffffffffffffffffffff163373ffffffffffffffffffffffffffffffffffffffff161461039157600080fd5b600460008373ffffffffffffffffffffffffffffffffffffffff1673ffffffffffffffffffffffffffffffffffffffff168152602001908152602001600020549050919050565b60008054906101000a900473ffffffffffffffffffffffffffffffffffffffff1673ffffffffffffffffffffffffffffffffffffffff163373ffffffffffffffffffffffffffffffffffffffff161461043057600080fd5b60005b6002805490508110156106ed576002818154811061044d57fe5b906000526020600020906002020160000160009054906101000a900473ffffffffffffffffffffffffffffffffffffffff1673ffffffffffffffffffffffffffffffffffffffff168273ffffffffffffffffffffffffffffffffffffffff1614156106e0576000600360008473ffffffffffffffffffffffffffffffffffffffff1673ffffffffffffffffffffffffffffffffffffffff16815260200190815260200160002060006101000a81548160ff0219169083151502179055506000801b600460008473ffffffffffffffffffffffffffffffffffffffff1673ffffffffffffffffffffffffffffffffffffffff168152602001908152602001600020819055507f504e9e94e0c65229aaf8cabe153380cc35da3135e30129bc3195f7e031cdf82b600460003373ffffffffffffffffffffffffffffffffffffffff1673ffffffffffffffffffffffffffffffffffffffff168152602001908152602001600020546040516105bf9190612bcb565b60405180910390a16002600160028054905003815481106105dc57fe5b9060005260206000209060020201600282815481106105f757fe5b90600052602060002090600202016000820160009054906101000a900473ffffffffffffffffffffffffffffffffffffffff168160000160006101000a81548173ffffffffffffffffffffffffffffffffffffffff021916908373ffffffffffffffffffffffffffffffffffffffff16021790555060018201548160010155905050600280548061068457fe5b6001900381819060005260206000209060020201600080820160006101000a81549073ffffffffffffffffffffffffffffffffffffffff0219169055600182016000905550509055600660008154809291906001900391905055505b8080600101915050610433565b5050565b60008060009054906101000a900473ffffffffffffffffffffffffffffffffffffffff1673ffffffffffffffffffffffffffffffffffffffff163373ffffffffffffffffffffffffffffffffffffffff161461074c57600080fd5b600554905090565b60008054906101000a900473ffffffffffffffffffffffffffffffffffffffff1673ffffffffffffffffffffffffffffffffffffffff163373ffffffffffffffffffffffffffffffffffffffff16146107ac57600080fd5b6000805b6001805490508110156108cc576000600182815481106107cc57fe5b9060005260206000209060040201905080600001548514156108be5760005b81600301805490508110156108785781600301818154811061080957fe5b906000526020600020016040516020016108239190612aee565b604051602081830303815290604052805190602001208560405160200161084a9190612ad7565b60405160208183030381529060405280519060200120141561086b57600193505b80806001019150506107eb565b50826108bd5780600301849080600181540180825580915050600190039060005260206000200160009091909190915090805190602001906108bb92919061207a565b505b5b5080806001019150506107b0565b50505050565b60008060009054906101000a900473ffffffffffffffffffffffffffffffffffffffff1673ffffffffffffffffffffffffffffffffffffffff163373ffffffffffffffffffffffffffffffffffffffff161461092d57600080fd5b600654905090565b60008054906101000a900473ffffffffffffffffffffffffffffffffffffffff1673ffffffffffffffffffffffffffffffffffffffff163373ffffffffffffffffffffffffffffffffffffffff161461098d57600080fd5b60005b600180549050811015610b8057600181815481106109aa57fe5b906000526020600020906004020160000154831415610b735760005b600182815481106109d357fe5b906000526020600020906004020160030180549050811015610b7157600182815481106109fc57fe5b90600052602060002090600402016003018181548110610a1857fe5b90600052602060002001604051602001610a329190612aee565b6040516020818303038152906040528051906020012083604051602001610a599190612ad7565b604051602081830303815290604052805190602001201415610b645760018281548110610a8257fe5b90600052602060002090600402016003016001808481548110610aa157fe5b9060005260206000209060040201600301805490500381548110610ac157fe5b9060005260206000200160018381548110610ad857fe5b90600052602060002090600402016003018281548110610af457fe5b906000526020600020019080546001816001161561010002031660029004610b1d9291906120fa565b5060018281548110610b2b57fe5b9060005260206000209060040201600301805480610b4557fe5b600190038181906000526020600020016000610b619190612181565b90555b80806001019150506109c6565b505b8080600101915050610990565b505050565b60008054906101000a900473ffffffffffffffffffffffffffffffffffffffff1681565b606080606060008054906101000a900473ffffffffffffffffffffffffffffffffffffffff1673ffffffffffffffffffffffffffffffffffffffff163373ffffffffffffffffffffffffffffffffffffffff1614610c0657600080fd5b606060055467ffffffffffffffff81118015610c2157600080fd5b50604051908082528060200260200182016040528015610c505781602001602082028036833780820191505090505b509050606060055467ffffffffffffffff81118015610c6e57600080fd5b50604051908082528060200260200182016040528015610ca257816020015b6060815260200190600190039081610c8d5790505b509050606060055467ffffffffffffffff81118015610cc057600080fd5b50604051908082528060200260200182016040528015610cf457816020015b6060815260200190600190039081610cdf5790505b50905060005b600180549050811015610eb957600060018281548110610d1657fe5b906000526020600020906004020190508060000154858381518110610d3757fe5b602002602001018181525050806001018054600181600116156101000203166002900480601f016020809104026020016040519081016040528092919081815260200182805460018160011615610100020316600290048015610ddb5780601f10610db057610100808354040283529160200191610ddb565b820191906000526020600020905b815481529060010190602001808311610dbe57829003601f168201915b5050505050848381518110610dec57fe5b6020026020010181905250806002018054600181600116156101000203166002900480601f016020809104026020016040519081016040528092919081815260200182805460018160011615610100020316600290048015610e8f5780601f10610e6457610100808354040283529160200191610e8f565b820191906000526020600020905b815481529060010190602001808311610e7257829003601f168201915b5050505050838381518110610ea057fe5b6020026020010181905250508080600101915050610cfa565b50828282955095509550505050909192565b606060008054906101000a900473ffffffffffffffffffffffffffffffffffffffff1673ffffffffffffffffffffffffffffffffffffffff163373ffffffffffffffffffffffffffffffffffffffff1614610f2557600080fd5b60005b6001805490508110156110b957600060018281548110610f4457fe5b9060005260206000209060040201905080600001548414156110ab576060816003018054905067ffffffffffffffff81118015610f8057600080fd5b50604051908082528060200260200182016040528015610fb457816020015b6060815260200190600190039081610f9f5790505b50905060005b826003018054905081101561109f57826003018181548110610fd857fe5b906000526020600020018054600181600116156101000203166002900480601f0160208091040260200160405190810160405280929190818152602001828054600181600116156101000203166002900480156110765780601f1061104b57610100808354040283529160200191611076565b820191906000526020600020905b81548152906001019060200180831161105957829003601f168201915b505050505082828151811061108757fe5b60200260200101819052508080600101915050610fba565b508093505050506110bb565b508080600101915050610f28565b505b919050565b6000836000801b600460003373ffffffffffffffffffffffffffffffffffffffff1673ffffffffffffffffffffffffffffffffffffffff16815260200190815260200160002054141561111257600080fd5b600460003373ffffffffffffffffffffffffffffffffffffffff1673ffffffffffffffffffffffffffffffffffffffff16815260200190815260200160002054811461115d57600080fd5b60005b60018054905081101561126c576001818154811061117a57fe5b90600052602060002090600402016000015485141561125f5760005b600182815481106111a357fe5b90600052602060002090600402016003018054905081101561125d57600182815481106111cc57fe5b906000526020600020906004020160030181815481106111e857fe5b906000526020600020016040516020016112029190612aee565b60405160208183030381529060405280519060200120856040516020016112299190612ad7565b60405160208183030381529060405280519060200120141561125057600193505050611272565b8080600101915050611196565b505b8080600101915050611160565b50600091505b509392505050565b60008054906101000a900473ffffffffffffffffffffffffffffffffffffffff1673ffffffffffffffffffffffffffffffffffffffff163373ffffffffffffffffffffffffffffffffffffffff16146112d257600080fd5b6112da6121c9565b60405180604001604052808373ffffffffffffffffffffffffffffffffffffffff168152602001428152509050600281908060018154018082558091505060019003906000526020600020906002020160009091909190915060008201518160000160006101000a81548173ffffffffffffffffffffffffffffffffffffffff021916908373ffffffffffffffffffffffffffffffffffffffff1602179055506020820151816001015550506001600360008473ffffffffffffffffffffffffffffffffffffffff1673ffffffffffffffffffffffffffffffffffffffff16815260200190815260200160002060006101000a81548160ff0219169083151502179055506006600081548092919060010191905055505050565b60008054906101000a900473ffffffffffffffffffffffffffffffffffffffff1673ffffffffffffffffffffffffffffffffffffffff163373ffffffffffffffffffffffffffffffffffffffff161461144c57600080fd5b6114546121f9565b60405180608001604052806007548152602001848152602001838152602001600067ffffffffffffffff8111801561148b57600080fd5b506040519080825280602002602001820160405280156114bf57816020015b60608152602001906001900390816114aa5790505b508152509050600560008154809291906001019190505550600760008154809291906001019190505550600181908060018154018082558091505060019003906000526020600020906004020160009091909190915060008201518160000155602082015181600101908051906020019061153b92919061207a565b50604082015181600201908051906020019061155892919061207a565b506060820151816003019080519060200190611575929190612221565b505050505050565b60008054906101000a900473ffffffffffffffffffffffffffffffffffffffff1673ffffffffffffffffffffffffffffffffffffffff163373ffffffffffffffffffffffffffffffffffffffff16146115d557600080fd5b60005b60018054905081101561173857600181815481106115f257fe5b90600052602060002090600402016000015482141561172b576001808080549050038154811061161e57fe5b90600052602060002090600402016001828154811061163957fe5b90600052602060002090600402016000820154816000015560018201816001019080546001816001161561010002031660029004611678929190612281565b50600282018160020190805460018160011615610100020316600290046116a0929190612281565b5060038201816003019080546116b7929190612308565b5090505060018054806116c657fe5b60019003818190600052602060002090600402016000808201600090556001820160006116f39190612181565b6002820160006117039190612181565b6003820160006117139190612378565b50509055600560008154809291906001900391905055505b80806001019150506115d8565b5050565b606060008054906101000a900473ffffffffffffffffffffffffffffffffffffffff1673ffffffffffffffffffffffffffffffffffffffff163373ffffffffffffffffffffffffffffffffffffffff161461179657600080fd5b606060065467ffffffffffffffff811180156117b157600080fd5b506040519080825280602002602001820160405280156117e05781602001602082028036833780820191505090505b50905060005b600280549050811015611885576002818154811061180057fe5b906000526020600020906002020160000160009054906101000a900473ffffffffffffffffffffffffffffffffffffffff1682828151811061183e57fe5b602002602001019073ffffffffffffffffffffffffffffffffffffffff16908173ffffffffffffffffffffffffffffffffffffffff168152505080806001019150506117e6565b508091505090565b6000846000801b600460003373ffffffffffffffffffffffffffffffffffffffff1673ffffffffffffffffffffffffffffffffffffffff1681526020019081526020016000205414156118df57600080fd5b600460003373ffffffffffffffffffffffffffffffffffffffff1673ffffffffffffffffffffffffffffffffffffffff16815260200190815260200160002054811461192a57600080fd5b60005b600180549050811015611a5f576001818154811061194757fe5b906000526020600020906004020160000154861480156119cf57506001818154811061196f57fe5b90600052602060002090600402016001016040516020016119909190612aee565b60405160208183030381529060405280519060200120856040516020016119b79190612ad7565b60405160208183030381529060405280519060200120145b8015611a435750600181815481106119e357fe5b9060005260206000209060040201600201604051602001611a049190612aee565b6040516020818303038152906040528051906020012084604051602001611a2b9190612ad7565b60405160208183030381529060405280519060200120145b15611a52576001925050611a65565b808060010191505061192d565b50600091505b50949350505050565b60008054906101000a900473ffffffffffffffffffffffffffffffffffffffff1673ffffffffffffffffffffffffffffffffffffffff163373ffffffffffffffffffffffffffffffffffffffff1614611ac657600080fd5b60005b600180549050811015611bcb57600060018281548110611ae557fe5b906000526020600020906004020190508060000154851415611bbd5760005b8160030180549050811015611bbb5784604051602001611b249190612ad7565b60405160208183030381529060405280519060200120826003018281548110611b4957fe5b90600052602060002001604051602001611b639190612aee565b604051602081830303815290604052805190602001201415611bae5783826003018281548110611b8f57fe5b906000526020600020019080519060200190611bac92919061207a565b505b8080600101915050611b04565b505b508080600101915050611ac9565b50505050565b600360003373ffffffffffffffffffffffffffffffffffffffff1673ffffffffffffffffffffffffffffffffffffffff16815260200190815260200160002060009054906101000a900460ff16611c2757600080fd5b60005b6002805490508110156120775760028181548110611c4457fe5b906000526020600020906002020160000160009054906101000a900473ffffffffffffffffffffffffffffffffffffffff1673ffffffffffffffffffffffffffffffffffffffff163373ffffffffffffffffffffffffffffffffffffffff16141561206a576000429050600060028381548110611cbd57fe5b9060005260206000209060020201600101548203905060f0811115611eb5578160028481548110611cea57fe5b9060005260206000209060020201600101819055503360028481548110611d0d57fe5b906000526020600020906002020160010154604051602001611d30929190612aab565b604051602081830303815290604052805190602001206004600060028681548110611d5757fe5b906000526020600020906002020160000160009054906101000a900473ffffffffffffffffffffffffffffffffffffffff1673ffffffffffffffffffffffffffffffffffffffff1673ffffffffffffffffffffffffffffffffffffffff168152602001908152602001600020819055507f504e9e94e0c65229aaf8cabe153380cc35da3135e30129bc3195f7e031cdf82b6004600060028681548110611df957fe5b906000526020600020906002020160000160009054906101000a900473ffffffffffffffffffffffffffffffffffffffff1673ffffffffffffffffffffffffffffffffffffffff1673ffffffffffffffffffffffffffffffffffffffff16815260200190815260200160002054604051611e739190612bcb565b60405180910390a17fb6f921ade0de8da9e62e948d90ae6f2dd6b678679ad77753c75fe1b6d9a72004604051611ea890612be6565b60405180910390a1612067565b3360028481548110611ec357fe5b906000526020600020906002020160010154604051602001611ee6929190612aab565b604051602081830303815290604052805190602001206004600060028681548110611f0d57fe5b906000526020600020906002020160000160009054906101000a900473ffffffffffffffffffffffffffffffffffffffff1673ffffffffffffffffffffffffffffffffffffffff1673ffffffffffffffffffffffffffffffffffffffff168152602001908152602001600020819055507f504e9e94e0c65229aaf8cabe153380cc35da3135e30129bc3195f7e031cdf82b6004600060028681548110611faf57fe5b906000526020600020906002020160000160009054906101000a900473ffffffffffffffffffffffffffffffffffffffff1673ffffffffffffffffffffffffffffffffffffffff1673ffffffffffffffffffffffffffffffffffffffff168152602001908152602001600020546040516120299190612bcb565b60405180910390a17fb6f921ade0de8da9e62e948d90ae6f2dd6b678679ad77753c75fe1b6d9a7200460405161205e90612c06565b60405180910390a15b50505b8080600101915050611c2a565b50565b828054600181600116156101000203166002900490600052602060002090601f016020900481019282601f106120bb57805160ff19168380011785556120e9565b828001600101855582156120e9579182015b828111156120e85782518255916020019190600101906120cd565b5b5090506120f69190612399565b5090565b828054600181600116156101000203166002900490600052602060002090601f016020900481019282601f106121335780548555612170565b8280016001018555821561217057600052602060002091601f016020900482015b8281111561216f578254825591600101919060010190612154565b5b50905061217d9190612399565b5090565b50805460018160011615610100020316600290046000825580601f106121a757506121c6565b601f0160209004906000526020600020908101906121c59190612399565b5b50565b6040518060400160405280600073ffffffffffffffffffffffffffffffffffffffff168152602001600081525090565b6040518060800160405280600081526020016060815260200160608152602001606081525090565b828054828255906000526020600020908101928215612270579160200282015b8281111561226f57825182908051906020019061225f92919061207a565b5091602001919060010190612241565b5b50905061227d91906123b6565b5090565b828054600181600116156101000203166002900490600052602060002090601f016020900481019282601f106122ba57805485556122f7565b828001600101855582156122f757600052602060002091601f016020900482015b828111156122f65782548255916001019190600101906122db565b5b5090506123049190612399565b5090565b8280548282559060005260206000209081019282156123675760005260206000209182015b828111156123665782829080546001816001161561010002031660029004612356929190612281565b509160010191906001019061232d565b5b50905061237491906123b6565b5090565b508054600082559060005260206000209081019061239691906123b6565b50565b5b808211156123b257600081600090555060010161239a565b5090565b5b808211156123d657600081816123cd9190612181565b506001016123b7565b5090565b6000813590506123e981612e84565b92915050565b6000813590506123fe81612e9b565b92915050565b60008135905061241381612eb2565b92915050565b600082601f83011261242a57600080fd5b813561243d61243882612c6e565b612c41565b9150808252602083016020830185838301111561245957600080fd5b612464838284612df6565b50505092915050565b60008135905061247c81612ec9565b92915050565b60006020828403121561249457600080fd5b60006124a2848285016123da565b91505092915050565b6000602082840312156124bd57600080fd5b60006124cb848285016123ef565b91505092915050565b6000806000606084860312156124e957600080fd5b60006124f786828701612404565b93505060206125088682870161246d565b925050604084013567ffffffffffffffff81111561252557600080fd5b61253186828701612419565b9150509250925092565b6000806000806080858703121561255157600080fd5b600061255f87828801612404565b94505060206125708782880161246d565b935050604085013567ffffffffffffffff81111561258d57600080fd5b61259987828801612419565b925050606085013567ffffffffffffffff8111156125b657600080fd5b6125c287828801612419565b91505092959194509250565b600080604083850312156125e157600080fd5b600083013567ffffffffffffffff8111156125fb57600080fd5b61260785828601612419565b925050602083013567ffffffffffffffff81111561262457600080fd5b61263085828601612419565b9150509250929050565b60006020828403121561264c57600080fd5b600061265a8482850161246d565b91505092915050565b6000806040838503121561267657600080fd5b60006126848582860161246d565b925050602083013567ffffffffffffffff8111156126a157600080fd5b6126ad85828601612419565b9150509250929050565b6000806000606084860312156126cc57600080fd5b60006126da8682870161246d565b935050602084013567ffffffffffffffff8111156126f757600080fd5b61270386828701612419565b925050604084013567ffffffffffffffff81111561272057600080fd5b61272c86828701612419565b9150509250925092565b600061274283836127a0565b60208301905092915050565b600061275a83836128fe565b905092915050565b600061276e8383612a76565b60208301905092915050565b61278381612da4565b82525050565b61279a61279582612da4565b612e38565b82525050565b6127a981612d92565b82525050565b60006127ba82612cdf565b6127c48185612d32565b93506127cf83612c9a565b8060005b838110156128005781516127e78882612736565b97506127f283612d0b565b9250506001810190506127d3565b5085935050505092915050565b600061281882612cea565b6128228185612d43565b93508360208202850161283485612caa565b8060005b858110156128705784840389528151612851858261274e565b945061285c83612d18565b925060208a01995050600181019050612838565b50829750879550505050505092915050565b600061288d82612cf5565b6128978185612d54565b93506128a283612cba565b8060005b838110156128d35781516128ba8882612762565b97506128c583612d25565b9250506001810190506128a6565b5085935050505092915050565b6128e981612db6565b82525050565b6128f881612dc2565b82525050565b600061290982612d00565b6129138185612d65565b9350612923818560208601612e05565b61292c81612e66565b840191505092915050565b600061294282612d00565b61294c8185612d87565b935061295c818560208601612e05565b80840191505092915050565b60008154600181166000811461298557600181146129aa576129ee565b607f60028304166129968187612d87565b955060ff19831686528086019350506129ee565b600282046129b88187612d87565b95506129c385612cca565b60005b828110156129e5578154818901526001820191506020810190506129c6565b82880195505050505b505092915050565b6000612a03600c83612d76565b91507f746f6b656e2064697562616800000000000000000000000000000000000000006000830152602082019050919050565b6000612a43601283612d76565b91507f746f6b656e20746964616b2064697562616800000000000000000000000000006000830152602082019050919050565b612a7f81612dec565b82525050565b612a8e81612dec565b82525050565b612aa5612aa082612dec565b612e5c565b82525050565b6000612ab78285612789565b601482019150612ac78284612a94565b6020820191508190509392505050565b6000612ae38284612937565b915081905092915050565b6000612afa8284612968565b915081905092915050565b6000602082019050612b1a600083018461277a565b92915050565b60006020820190508181036000830152612b3a81846127af565b905092915050565b60006020820190508181036000830152612b5c818461280d565b905092915050565b60006060820190508181036000830152612b7e8186612882565b90508181036020830152612b92818561280d565b90508181036040830152612ba6818461280d565b9050949350505050565b6000602082019050612bc560008301846128e0565b92915050565b6000602082019050612be060008301846128ef565b92915050565b60006020820190508181036000830152612bff816129f6565b9050919050565b60006020820190508181036000830152612c1f81612a36565b9050919050565b6000602082019050612c3b6000830184612a85565b92915050565b6000604051905081810181811067ffffffffffffffff82111715612c6457600080fd5b8060405250919050565b600067ffffffffffffffff821115612c8557600080fd5b601f19601f8301169050602081019050919050565b6000819050602082019050919050565b6000819050602082019050919050565b6000819050602082019050919050565b60008190508160005260206000209050919050565b600081519050919050565b600081519050919050565b600081519050919050565b600081519050919050565b6000602082019050919050565b6000602082019050919050565b6000602082019050919050565b600082825260208201905092915050565b600082825260208201905092915050565b600082825260208201905092915050565b600082825260208201905092915050565b600082825260208201905092915050565b600081905092915050565b6000612d9d82612dcc565b9050919050565b6000612daf82612dcc565b9050919050565b60008115159050919050565b6000819050919050565b600073ffffffffffffffffffffffffffffffffffffffff82169050919050565b6000819050919050565b82818337600083830152505050565b60005b83811015612e23578082015181840152602081019050612e08565b83811115612e32576000848401525b50505050565b6000612e4382612e4a565b9050919050565b6000612e5582612e77565b9050919050565b6000819050919050565b6000601f19601f8301169050919050565b60008160601b9050919050565b612e8d81612d92565b8114612e9857600080fd5b50565b612ea481612da4565b8114612eaf57600080fd5b50565b612ebb81612dc2565b8114612ec657600080fd5b50565b612ed281612dec565b8114612edd57600080fd5b5056fea264697066735822122030a02f6c9c5f0715aac9b6468ee2e57e2c2d47f99f4d19b7e14ea9c59f3a0c9f64736f6c634300060c0033",
      "opcodes": "PUSH1 0x80 PUSH1 0x40 MSTORE CALLVALUE DUP1 ISZERO PUSH2 0x10 JUMPI PUSH1 0x0 DUP1 REVERT JUMPDEST POP CALLER PUSH1 0x0 DUP1 PUSH2 0x100 EXP DUP2 SLOAD DUP2 PUSH20 0xFFFFFFFFFFFFFFFFFFFFFFFFFFFFFFFFFFFFFFFF MUL NOT AND SWAP1 DUP4 PUSH20 0xFFFFFFFFFFFFFFFFFFFFFFFFFFFFFFFFFFFFFFFF AND MUL OR SWAP1 SSTORE POP PUSH1 0x0 PUSH1 0x5 DUP2 SWAP1 SSTORE POP PUSH1 0x0 PUSH1 0x6 DUP2 SWAP1 SSTORE POP PUSH1 0x0 PUSH1 0x7 DUP2 SWAP1 SSTORE POP PUSH2 0x2F16 DUP1 PUSH2 0x78 PUSH1 0x0 CODECOPY PUSH1 0x0 RETURN INVALID PUSH1 0x80 PUSH1 0x40 MSTORE CALLVALUE DUP1 ISZERO PUSH2 0x10 JUMPI PUSH1 0x0 DUP1 REVERT JUMPDEST POP PUSH1 0x4 CALLDATASIZE LT PUSH2 0x10B JUMPI PUSH1 0x0 CALLDATALOAD PUSH1 0xE0 SHR DUP1 PUSH4 0x71658896 GT PUSH2 0xA2 JUMPI DUP1 PUSH4 0xA9CB1A36 GT PUSH2 0x71 JUMPI DUP1 PUSH4 0xA9CB1A36 EQ PUSH2 0x2A6 JUMPI DUP1 PUSH4 0xD1314EE0 EQ PUSH2 0x2C2 JUMPI DUP1 PUSH4 0xE58DA61F EQ PUSH2 0x2E0 JUMPI DUP1 PUSH4 0xE8E5339A EQ PUSH2 0x310 JUMPI DUP1 PUSH4 0xFA6A04E4 EQ PUSH2 0x32C JUMPI PUSH2 0x10B JUMP JUMPDEST DUP1 PUSH4 0x71658896 EQ PUSH2 0x20E JUMPI DUP1 PUSH4 0x7909CE47 EQ PUSH2 0x23E JUMPI DUP1 PUSH4 0x836CAE65 EQ PUSH2 0x26E JUMPI DUP1 PUSH4 0x98173FF4 EQ PUSH2 0x28A JUMPI PUSH2 0x10B JUMP JUMPDEST DUP1 PUSH4 0x416A5D81 GT PUSH2 0xDE JUMPI DUP1 PUSH4 0x416A5D81 EQ PUSH2 0x196 JUMPI DUP1 PUSH4 0x42BB20E1 EQ PUSH2 0x1B4 JUMPI DUP1 PUSH4 0x481C6A75 EQ PUSH2 0x1D0 JUMPI DUP1 PUSH4 0x6DB80995 EQ PUSH2 0x1EE JUMPI PUSH2 0x10B JUMP JUMPDEST DUP1 PUSH4 0x344248B EQ PUSH2 0x110 JUMPI DUP1 PUSH4 0x1EE32B05 EQ PUSH2 0x140 JUMPI DUP1 PUSH4 0x30A66294 EQ PUSH2 0x15C JUMPI DUP1 PUSH4 0x3276807A EQ PUSH2 0x17A JUMPI JUMPDEST PUSH1 0x0 DUP1 REVERT JUMPDEST PUSH2 0x12A PUSH1 0x4 DUP1 CALLDATASIZE SUB DUP2 ADD SWAP1 PUSH2 0x125 SWAP2 SWAP1 PUSH2 0x2482 JUMP JUMPDEST PUSH2 0x336 JUMP JUMPDEST PUSH1 0x40 MLOAD PUSH2 0x137 SWAP2 SWAP1 PUSH2 0x2BCB JUMP JUMPDEST PUSH1 0x40 MLOAD DUP1 SWAP2 SUB SWAP1 RETURN JUMPDEST PUSH2 0x15A PUSH1 0x4 DUP1 CALLDATASIZE SUB DUP2 ADD SWAP1 PUSH2 0x155 SWAP2 SWAP1 PUSH2 0x24AB JUMP JUMPDEST PUSH2 0x3D8 JUMP JUMPDEST STOP JUMPDEST PUSH2 0x164 PUSH2 0x6F1 JUMP JUMPDEST PUSH1 0x40 MLOAD PUSH2 0x171 SWAP2 SWAP1 PUSH2 0x2C26 JUMP JUMPDEST PUSH1 0x40 MLOAD DUP1 SWAP2 SUB SWAP1 RETURN JUMPDEST PUSH2 0x194 PUSH1 0x4 DUP1 CALLDATASIZE SUB DUP2 ADD SWAP1 PUSH2 0x18F SWAP2 SWAP1 PUSH2 0x2663 JUMP JUMPDEST PUSH2 0x754 JUMP JUMPDEST STOP JUMPDEST PUSH2 0x19E PUSH2 0x8D2 JUMP JUMPDEST PUSH1 0x40 MLOAD PUSH2 0x1AB SWAP2 SWAP1 PUSH2 0x2C26 JUMP JUMPDEST PUSH1 0x40 MLOAD DUP1 SWAP2 SUB SWAP1 RETURN JUMPDEST PUSH2 0x1CE PUSH1 0x4 DUP1 CALLDATASIZE SUB DUP2 ADD SWAP1 PUSH2 0x1C9 SWAP2 SWAP1 PUSH2 0x2663 JUMP JUMPDEST PUSH2 0x935 JUMP JUMPDEST STOP JUMPDEST PUSH2 0x1D8 PUSH2 0xB85 JUMP JUMPDEST PUSH1 0x40 MLOAD PUSH2 0x1E5 SWAP2 SWAP1 PUSH2 0x2B05 JUMP JUMPDEST PUSH1 0x40 MLOAD DUP1 SWAP2 SUB SWAP1 RETURN JUMPDEST PUSH2 0x1F6 PUSH2 0xBA9 JUMP JUMPDEST PUSH1 0x40 MLOAD PUSH2 0x205 SWAP4 SWAP3 SWAP2 SWAP1 PUSH2 0x2B64 JUMP JUMPDEST PUSH1 0x40 MLOAD DUP1 SWAP2 SUB SWAP1 RETURN JUMPDEST PUSH2 0x228 PUSH1 0x4 DUP1 CALLDATASIZE SUB DUP2 ADD SWAP1 PUSH2 0x223 SWAP2 SWAP1 PUSH2 0x263A JUMP JUMPDEST PUSH2 0xECB JUMP JUMPDEST PUSH1 0x40 MLOAD PUSH2 0x235 SWAP2 SWAP1 PUSH2 0x2B42 JUMP JUMPDEST PUSH1 0x40 MLOAD DUP1 SWAP2 SUB SWAP1 RETURN JUMPDEST PUSH2 0x258 PUSH1 0x4 DUP1 CALLDATASIZE SUB DUP2 ADD SWAP1 PUSH2 0x253 SWAP2 SWAP1 PUSH2 0x24D4 JUMP JUMPDEST PUSH2 0x10C0 JUMP JUMPDEST PUSH1 0x40 MLOAD PUSH2 0x265 SWAP2 SWAP1 PUSH2 0x2BB0 JUMP JUMPDEST PUSH1 0x40 MLOAD DUP1 SWAP2 SUB SWAP1 RETURN JUMPDEST PUSH2 0x288 PUSH1 0x4 DUP1 CALLDATASIZE SUB DUP2 ADD SWAP1 PUSH2 0x283 SWAP2 SWAP1 PUSH2 0x24AB JUMP JUMPDEST PUSH2 0x127A JUMP JUMPDEST STOP JUMPDEST PUSH2 0x2A4 PUSH1 0x4 DUP1 CALLDATASIZE SUB DUP2 ADD SWAP1 PUSH2 0x29F SWAP2 SWAP1 PUSH2 0x25CE JUMP JUMPDEST PUSH2 0x13F4 JUMP JUMPDEST STOP JUMPDEST PUSH2 0x2C0 PUSH1 0x4 DUP1 CALLDATASIZE SUB DUP2 ADD SWAP1 PUSH2 0x2BB SWAP2 SWAP1 PUSH2 0x263A JUMP JUMPDEST PUSH2 0x157D JUMP JUMPDEST STOP JUMPDEST PUSH2 0x2CA PUSH2 0x173C JUMP JUMPDEST PUSH1 0x40 MLOAD PUSH2 0x2D7 SWAP2 SWAP1 PUSH2 0x2B20 JUMP JUMPDEST PUSH1 0x40 MLOAD DUP1 SWAP2 SUB SWAP1 RETURN JUMPDEST PUSH2 0x2FA PUSH1 0x4 DUP1 CALLDATASIZE SUB DUP2 ADD SWAP1 PUSH2 0x2F5 SWAP2 SWAP1 PUSH2 0x253B JUMP JUMPDEST PUSH2 0x188D JUMP JUMPDEST PUSH1 0x40 MLOAD PUSH2 0x307 SWAP2 SWAP1 PUSH2 0x2BB0 JUMP JUMPDEST PUSH1 0x40 MLOAD DUP1 SWAP2 SUB SWAP1 RETURN JUMPDEST PUSH2 0x32A PUSH1 0x4 DUP1 CALLDATASIZE SUB DUP2 ADD SWAP1 PUSH2 0x325 SWAP2 SWAP1 PUSH2 0x26B7 JUMP JUMPDEST PUSH2 0x1A6E JUMP JUMPDEST STOP JUMPDEST PUSH2 0x334 PUSH2 0x1BD1 JUMP JUMPDEST STOP JUMPDEST PUSH1 0x0 DUP1 PUSH1 0x0 SWAP1 SLOAD SWAP1 PUSH2 0x100 EXP SWAP1 DIV PUSH20 0xFFFFFFFFFFFFFFFFFFFFFFFFFFFFFFFFFFFFFFFF AND PUSH20 0xFFFFFFFFFFFFFFFFFFFFFFFFFFFFFFFFFFFFFFFF AND CALLER PUSH20 0xFFFFFFFFFFFFFFFFFFFFFFFFFFFFFFFFFFFFFFFF AND EQ PUSH2 0x391 JUMPI PUSH1 0x0 DUP1 REVERT JUMPDEST PUSH1 0x4 PUSH1 0x0 DUP4 PUSH20 0xFFFFFFFFFFFFFFFFFFFFFFFFFFFFFFFFFFFFFFFF AND PUSH20 0xFFFFFFFFFFFFFFFFFFFFFFFFFFFFFFFFFFFFFFFF AND DUP2 MSTORE PUSH1 0x20 ADD SWAP1 DUP2 MSTORE PUSH1 0x20 ADD PUSH1 0x0 KECCAK256 SLOAD SWAP1 POP SWAP2 SWAP1 POP JUMP JUMPDEST PUSH1 0x0 DUP1 SLOAD SWAP1 PUSH2 0x100 EXP SWAP1 DIV PUSH20 0xFFFFFFFFFFFFFFFFFFFFFFFFFFFFFFFFFFFFFFFF AND PUSH20 0xFFFFFFFFFFFFFFFFFFFFFFFFFFFFFFFFFFFFFFFF AND CALLER PUSH20 0xFFFFFFFFFFFFFFFFFFFFFFFFFFFFFFFFFFFFFFFF AND EQ PUSH2 0x430 JUMPI PUSH1 0x0 DUP1 REVERT JUMPDEST PUSH1 0x0 JUMPDEST PUSH1 0x2 DUP1 SLOAD SWAP1 POP DUP2 LT ISZERO PUSH2 0x6ED JUMPI PUSH1 0x2 DUP2 DUP2 SLOAD DUP2 LT PUSH2 0x44D JUMPI INVALID JUMPDEST SWAP1 PUSH1 0x0 MSTORE PUSH1 0x20 PUSH1 0x0 KECCAK256 SWAP1 PUSH1 0x2 MUL ADD PUSH1 0x0 ADD PUSH1 0x0 SWAP1 SLOAD SWAP1 PUSH2 0x100 EXP SWAP1 DIV PUSH20 0xFFFFFFFFFFFFFFFFFFFFFFFFFFFFFFFFFFFFFFFF AND PUSH20 0xFFFFFFFFFFFFFFFFFFFFFFFFFFFFFFFFFFFFFFFF AND DUP3 PUSH20 0xFFFFFFFFFFFFFFFFFFFFFFFFFFFFFFFFFFFFFFFF AND EQ ISZERO PUSH2 0x6E0 JUMPI PUSH1 0x0 PUSH1 0x3 PUSH1 0x0 DUP5 PUSH20 0xFFFFFFFFFFFFFFFFFFFFFFFFFFFFFFFFFFFFFFFF AND PUSH20 0xFFFFFFFFFFFFFFFFFFFFFFFFFFFFFFFFFFFFFFFF AND DUP2 MSTORE PUSH1 0x20 ADD SWAP1 DUP2 MSTORE PUSH1 0x20 ADD PUSH1 0x0 KECCAK256 PUSH1 0x0 PUSH2 0x100 EXP DUP2 SLOAD DUP2 PUSH1 0xFF MUL NOT AND SWAP1 DUP4 ISZERO ISZERO MUL OR SWAP1 SSTORE POP PUSH1 0x0 DUP1 SHL PUSH1 0x4 PUSH1 0x0 DUP5 PUSH20 0xFFFFFFFFFFFFFFFFFFFFFFFFFFFFFFFFFFFFFFFF AND PUSH20 0xFFFFFFFFFFFFFFFFFFFFFFFFFFFFFFFFFFFFFFFF AND DUP2 MSTORE PUSH1 0x20 ADD SWAP1 DUP2 MSTORE PUSH1 0x20 ADD PUSH1 0x0 KECCAK256 DUP2 SWAP1 SSTORE POP PUSH32 0x504E9E94E0C65229AAF8CABE153380CC35DA3135E30129BC3195F7E031CDF82B PUSH1 0x4 PUSH1 0x0 CALLER PUSH20 0xFFFFFFFFFFFFFFFFFFFFFFFFFFFFFFFFFFFFFFFF AND PUSH20 0xFFFFFFFFFFFFFFFFFFFFFFFFFFFFFFFFFFFFFFFF AND DUP2 MSTORE PUSH1 0x20 ADD SWAP1 DUP2 MSTORE PUSH1 0x20 ADD PUSH1 0x0 KECCAK256 SLOAD PUSH1 0x40 MLOAD PUSH2 0x5BF SWAP2 SWAP1 PUSH2 0x2BCB JUMP JUMPDEST PUSH1 0x40 MLOAD DUP1 SWAP2 SUB SWAP1 LOG1 PUSH1 0x2 PUSH1 0x1 PUSH1 0x2 DUP1 SLOAD SWAP1 POP SUB DUP2 SLOAD DUP2 LT PUSH2 0x5DC JUMPI INVALID JUMPDEST SWAP1 PUSH1 0x0 MSTORE PUSH1 0x20 PUSH1 0x0 KECCAK256 SWAP1 PUSH1 0x2 MUL ADD PUSH1 0x2 DUP3 DUP2 SLOAD DUP2 LT PUSH2 0x5F7 JUMPI INVALID JUMPDEST SWAP1 PUSH1 0x0 MSTORE PUSH1 0x20 PUSH1 0x0 KECCAK256 SWAP1 PUSH1 0x2 MUL ADD PUSH1 0x0 DUP3 ADD PUSH1 0x0 SWAP1 SLOAD SWAP1 PUSH2 0x100 EXP SWAP1 DIV PUSH20 0xFFFFFFFFFFFFFFFFFFFFFFFFFFFFFFFFFFFFFFFF AND DUP2 PUSH1 0x0 ADD PUSH1 0x0 PUSH2 0x100 EXP DUP2 SLOAD DUP2 PUSH20 0xFFFFFFFFFFFFFFFFFFFFFFFFFFFFFFFFFFFFFFFF MUL NOT AND SWAP1 DUP4 PUSH20 0xFFFFFFFFFFFFFFFFFFFFFFFFFFFFFFFFFFFFFFFF AND MUL OR SWAP1 SSTORE POP PUSH1 0x1 DUP3 ADD SLOAD DUP2 PUSH1 0x1 ADD SSTORE SWAP1 POP POP PUSH1 0x2 DUP1 SLOAD DUP1 PUSH2 0x684 JUMPI INVALID JUMPDEST PUSH1 0x1 SWAP1 SUB DUP2 DUP2 SWAP1 PUSH1 0x0 MSTORE PUSH1 0x20 PUSH1 0x0 KECCAK256 SWAP1 PUSH1 0x2 MUL ADD PUSH1 0x0 DUP1 DUP3 ADD PUSH1 0x0 PUSH2 0x100 EXP DUP2 SLOAD SWAP1 PUSH20 0xFFFFFFFFFFFFFFFFFFFFFFFFFFFFFFFFFFFFFFFF MUL NOT AND SWAP1 SSTORE PUSH1 0x1 DUP3 ADD PUSH1 0x0 SWAP1 SSTORE POP POP SWAP1 SSTORE PUSH1 0x6 PUSH1 0x0 DUP2 SLOAD DUP1 SWAP3 SWAP2 SWAP1 PUSH1 0x1 SWAP1 SUB SWAP2 SWAP1 POP SSTORE POP JUMPDEST DUP1 DUP1 PUSH1 0x1 ADD SWAP2 POP POP PUSH2 0x433 JUMP JUMPDEST POP POP JUMP JUMPDEST PUSH1 0x0 DUP1 PUSH1 0x0 SWAP1 SLOAD SWAP1 PUSH2 0x100 EXP SWAP1 DIV PUSH20 0xFFFFFFFFFFFFFFFFFFFFFFFFFFFFFFFFFFFFFFFF AND PUSH20 0xFFFFFFFFFFFFFFFFFFFFFFFFFFFFFFFFFFFFFFFF AND CALLER PUSH20 0xFFFFFFFFFFFFFFFFFFFFFFFFFFFFFFFFFFFFFFFF AND EQ PUSH2 0x74C JUMPI PUSH1 0x0 DUP1 REVERT JUMPDEST PUSH1 0x5 SLOAD SWAP1 POP SWAP1 JUMP JUMPDEST PUSH1 0x0 DUP1 SLOAD SWAP1 PUSH2 0x100 EXP SWAP1 DIV PUSH20 0xFFFFFFFFFFFFFFFFFFFFFFFFFFFFFFFFFFFFFFFF AND PUSH20 0xFFFFFFFFFFFFFFFFFFFFFFFFFFFFFFFFFFFFFFFF AND CALLER PUSH20 0xFFFFFFFFFFFFFFFFFFFFFFFFFFFFFFFFFFFFFFFF AND EQ PUSH2 0x7AC JUMPI PUSH1 0x0 DUP1 REVERT JUMPDEST PUSH1 0x0 DUP1 JUMPDEST PUSH1 0x1 DUP1 SLOAD SWAP1 POP DUP2 LT ISZERO PUSH2 0x8CC JUMPI PUSH1 0x0 PUSH1 0x1 DUP3 DUP2 SLOAD DUP2 LT PUSH2 0x7CC JUMPI INVALID JUMPDEST SWAP1 PUSH1 0x0 MSTORE PUSH1 0x20 PUSH1 0x0 KECCAK256 SWAP1 PUSH1 0x4 MUL ADD SWAP1 POP DUP1 PUSH1 0x0 ADD SLOAD DUP6 EQ ISZERO PUSH2 0x8BE JUMPI PUSH1 0x0 JUMPDEST DUP2 PUSH1 0x3 ADD DUP1 SLOAD SWAP1 POP DUP2 LT ISZERO PUSH2 0x878 JUMPI DUP2 PUSH1 0x3 ADD DUP2 DUP2 SLOAD DUP2 LT PUSH2 0x809 JUMPI INVALID JUMPDEST SWAP1 PUSH1 0x0 MSTORE PUSH1 0x20 PUSH1 0x0 KECCAK256 ADD PUSH1 0x40 MLOAD PUSH1 0x20 ADD PUSH2 0x823 SWAP2 SWAP1 PUSH2 0x2AEE JUMP JUMPDEST PUSH1 0x40 MLOAD PUSH1 0x20 DUP2 DUP4 SUB SUB DUP2 MSTORE SWAP1 PUSH1 0x40 MSTORE DUP1 MLOAD SWAP1 PUSH1 0x20 ADD KECCAK256 DUP6 PUSH1 0x40 MLOAD PUSH1 0x20 ADD PUSH2 0x84A SWAP2 SWAP1 PUSH2 0x2AD7 JUMP JUMPDEST PUSH1 0x40 MLOAD PUSH1 0x20 DUP2 DUP4 SUB SUB DUP2 MSTORE SWAP1 PUSH1 0x40 MSTORE DUP1 MLOAD SWAP1 PUSH1 0x20 ADD KECCAK256 EQ ISZERO PUSH2 0x86B JUMPI PUSH1 0x1 SWAP4 POP JUMPDEST DUP1 DUP1 PUSH1 0x1 ADD SWAP2 POP POP PUSH2 0x7EB JUMP JUMPDEST POP DUP3 PUSH2 0x8BD JUMPI DUP1 PUSH1 0x3 ADD DUP5 SWAP1 DUP1 PUSH1 0x1 DUP2 SLOAD ADD DUP1 DUP3 SSTORE DUP1 SWAP2 POP POP PUSH1 0x1 SWAP1 SUB SWAP1 PUSH1 0x0 MSTORE PUSH1 0x20 PUSH1 0x0 KECCAK256 ADD PUSH1 0x0 SWAP1 SWAP2 SWAP1 SWAP2 SWAP1 SWAP2 POP SWAP1 DUP1 MLOAD SWAP1 PUSH1 0x20 ADD SWAP1 PUSH2 0x8BB SWAP3 SWAP2 SWAP1 PUSH2 0x207A JUMP JUMPDEST POP JUMPDEST JUMPDEST POP DUP1 DUP1 PUSH1 0x1 ADD SWAP2 POP POP PUSH2 0x7B0 JUMP JUMPDEST POP POP POP POP JUMP JUMPDEST PUSH1 0x0 DUP1 PUSH1 0x0 SWAP1 SLOAD SWAP1 PUSH2 0x100 EXP SWAP1 DIV PUSH20 0xFFFFFFFFFFFFFFFFFFFFFFFFFFFFFFFFFFFFFFFF AND PUSH20 0xFFFFFFFFFFFFFFFFFFFFFFFFFFFFFFFFFFFFFFFF AND CALLER PUSH20 0xFFFFFFFFFFFFFFFFFFFFFFFFFFFFFFFFFFFFFFFF AND EQ PUSH2 0x92D JUMPI PUSH1 0x0 DUP1 REVERT JUMPDEST PUSH1 0x6 SLOAD SWAP1 POP SWAP1 JUMP JUMPDEST PUSH1 0x0 DUP1 SLOAD SWAP1 PUSH2 0x100 EXP SWAP1 DIV PUSH20 0xFFFFFFFFFFFFFFFFFFFFFFFFFFFFFFFFFFFFFFFF AND PUSH20 0xFFFFFFFFFFFFFFFFFFFFFFFFFFFFFFFFFFFFFFFF AND CALLER PUSH20 0xFFFFFFFFFFFFFFFFFFFFFFFFFFFFFFFFFFFFFFFF AND EQ PUSH2 0x98D JUMPI PUSH1 0x0 DUP1 REVERT JUMPDEST PUSH1 0x0 JUMPDEST PUSH1 0x1 DUP1 SLOAD SWAP1 POP DUP2 LT ISZERO PUSH2 0xB80 JUMPI PUSH1 0x1 DUP2 DUP2 SLOAD DUP2 LT PUSH2 0x9AA JUMPI INVALID JUMPDEST SWAP1 PUSH1 0x0 MSTORE PUSH1 0x20 PUSH1 0x0 KECCAK256 SWAP1 PUSH1 0x4 MUL ADD PUSH1 0x0 ADD SLOAD DUP4 EQ ISZERO PUSH2 0xB73 JUMPI PUSH1 0x0 JUMPDEST PUSH1 0x1 DUP3 DUP2 SLOAD DUP2 LT PUSH2 0x9D3 JUMPI INVALID JUMPDEST SWAP1 PUSH1 0x0 MSTORE PUSH1 0x20 PUSH1 0x0 KECCAK256 SWAP1 PUSH1 0x4 MUL ADD PUSH1 0x3 ADD DUP1 SLOAD SWAP1 POP DUP2 LT ISZERO PUSH2 0xB71 JUMPI PUSH1 0x1 DUP3 DUP2 SLOAD DUP2 LT PUSH2 0x9FC JUMPI INVALID JUMPDEST SWAP1 PUSH1 0x0 MSTORE PUSH1 0x20 PUSH1 0x0 KECCAK256 SWAP1 PUSH1 0x4 MUL ADD PUSH1 0x3 ADD DUP2 DUP2 SLOAD DUP2 LT PUSH2 0xA18 JUMPI INVALID JUMPDEST SWAP1 PUSH1 0x0 MSTORE PUSH1 0x20 PUSH1 0x0 KECCAK256 ADD PUSH1 0x40 MLOAD PUSH1 0x20 ADD PUSH2 0xA32 SWAP2 SWAP1 PUSH2 0x2AEE JUMP JUMPDEST PUSH1 0x40 MLOAD PUSH1 0x20 DUP2 DUP4 SUB SUB DUP2 MSTORE SWAP1 PUSH1 0x40 MSTORE DUP1 MLOAD SWAP1 PUSH1 0x20 ADD KECCAK256 DUP4 PUSH1 0x40 MLOAD PUSH1 0x20 ADD PUSH2 0xA59 SWAP2 SWAP1 PUSH2 0x2AD7 JUMP JUMPDEST PUSH1 0x40 MLOAD PUSH1 0x20 DUP2 DUP4 SUB SUB DUP2 MSTORE SWAP1 PUSH1 0x40 MSTORE DUP1 MLOAD SWAP1 PUSH1 0x20 ADD KECCAK256 EQ ISZERO PUSH2 0xB64 JUMPI PUSH1 0x1 DUP3 DUP2 SLOAD DUP2 LT PUSH2 0xA82 JUMPI INVALID JUMPDEST SWAP1 PUSH1 0x0 MSTORE PUSH1 0x20 PUSH1 0x0 KECCAK256 SWAP1 PUSH1 0x4 MUL ADD PUSH1 0x3 ADD PUSH1 0x1 DUP1 DUP5 DUP2 SLOAD DUP2 LT PUSH2 0xAA1 JUMPI INVALID JUMPDEST SWAP1 PUSH1 0x0 MSTORE PUSH1 0x20 PUSH1 0x0 KECCAK256 SWAP1 PUSH1 0x4 MUL ADD PUSH1 0x3 ADD DUP1 SLOAD SWAP1 POP SUB DUP2 SLOAD DUP2 LT PUSH2 0xAC1 JUMPI INVALID JUMPDEST SWAP1 PUSH1 0x0 MSTORE PUSH1 0x20 PUSH1 0x0 KECCAK256 ADD PUSH1 0x1 DUP4 DUP2 SLOAD DUP2 LT PUSH2 0xAD8 JUMPI INVALID JUMPDEST SWAP1 PUSH1 0x0 MSTORE PUSH1 0x20 PUSH1 0x0 KECCAK256 SWAP1 PUSH1 0x4 MUL ADD PUSH1 0x3 ADD DUP3 DUP2 SLOAD DUP2 LT PUSH2 0xAF4 JUMPI INVALID JUMPDEST SWAP1 PUSH1 0x0 MSTORE PUSH1 0x20 PUSH1 0x0 KECCAK256 ADD SWAP1 DUP1 SLOAD PUSH1 0x1 DUP2 PUSH1 0x1 AND ISZERO PUSH2 0x100 MUL SUB AND PUSH1 0x2 SWAP1 DIV PUSH2 0xB1D SWAP3 SWAP2 SWAP1 PUSH2 0x20FA JUMP JUMPDEST POP PUSH1 0x1 DUP3 DUP2 SLOAD DUP2 LT PUSH2 0xB2B JUMPI INVALID JUMPDEST SWAP1 PUSH1 0x0 MSTORE PUSH1 0x20 PUSH1 0x0 KECCAK256 SWAP1 PUSH1 0x4 MUL ADD PUSH1 0x3 ADD DUP1 SLOAD DUP1 PUSH2 0xB45 JUMPI INVALID JUMPDEST PUSH1 0x1 SWAP1 SUB DUP2 DUP2 SWAP1 PUSH1 0x0 MSTORE PUSH1 0x20 PUSH1 0x0 KECCAK256 ADD PUSH1 0x0 PUSH2 0xB61 SWAP2 SWAP1 PUSH2 0x2181 JUMP JUMPDEST SWAP1 SSTORE JUMPDEST DUP1 DUP1 PUSH1 0x1 ADD SWAP2 POP POP PUSH2 0x9C6 JUMP JUMPDEST POP JUMPDEST DUP1 DUP1 PUSH1 0x1 ADD SWAP2 POP POP PUSH2 0x990 JUMP JUMPDEST POP POP POP JUMP JUMPDEST PUSH1 0x0 DUP1 SLOAD SWAP1 PUSH2 0x100 EXP SWAP1 DIV PUSH20 0xFFFFFFFFFFFFFFFFFFFFFFFFFFFFFFFFFFFFFFFF AND DUP2 JUMP JUMPDEST PUSH1 0x60 DUP1 PUSH1 0x60 PUSH1 0x0 DUP1 SLOAD SWAP1 PUSH2 0x100 EXP SWAP1 DIV PUSH20 0xFFFFFFFFFFFFFFFFFFFFFFFFFFFFFFFFFFFFFFFF AND PUSH20 0xFFFFFFFFFFFFFFFFFFFFFFFFFFFFFFFFFFFFFFFF AND CALLER PUSH20 0xFFFFFFFFFFFFFFFFFFFFFFFFFFFFFFFFFFFFFFFF AND EQ PUSH2 0xC06 JUMPI PUSH1 0x0 DUP1 REVERT JUMPDEST PUSH1 0x60 PUSH1 0x5 SLOAD PUSH8 0xFFFFFFFFFFFFFFFF DUP2 GT DUP1 ISZERO PUSH2 0xC21 JUMPI PUSH1 0x0 DUP1 REVERT JUMPDEST POP PUSH1 0x40 MLOAD SWAP1 DUP1 DUP3 MSTORE DUP1 PUSH1 0x20 MUL PUSH1 0x20 ADD DUP3 ADD PUSH1 0x40 MSTORE DUP1 ISZERO PUSH2 0xC50 JUMPI DUP2 PUSH1 0x20 ADD PUSH1 0x20 DUP3 MUL DUP1 CALLDATASIZE DUP4 CALLDATACOPY DUP1 DUP3 ADD SWAP2 POP POP SWAP1 POP JUMPDEST POP SWAP1 POP PUSH1 0x60 PUSH1 0x5 SLOAD PUSH8 0xFFFFFFFFFFFFFFFF DUP2 GT DUP1 ISZERO PUSH2 0xC6E JUMPI PUSH1 0x0 DUP1 REVERT JUMPDEST POP PUSH1 0x40 MLOAD SWAP1 DUP1 DUP3 MSTORE DUP1 PUSH1 0x20 MUL PUSH1 0x20 ADD DUP3 ADD PUSH1 0x40 MSTORE DUP1 ISZERO PUSH2 0xCA2 JUMPI DUP2 PUSH1 0x20 ADD JUMPDEST PUSH1 0x60 DUP2 MSTORE PUSH1 0x20 ADD SWAP1 PUSH1 0x1 SWAP1 SUB SWAP1 DUP2 PUSH2 0xC8D JUMPI SWAP1 POP JUMPDEST POP SWAP1 POP PUSH1 0x60 PUSH1 0x5 SLOAD PUSH8 0xFFFFFFFFFFFFFFFF DUP2 GT DUP1 ISZERO PUSH2 0xCC0 JUMPI PUSH1 0x0 DUP1 REVERT JUMPDEST POP PUSH1 0x40 MLOAD SWAP1 DUP1 DUP3 MSTORE DUP1 PUSH1 0x20 MUL PUSH1 0x20 ADD DUP3 ADD PUSH1 0x40 MSTORE DUP1 ISZERO PUSH2 0xCF4 JUMPI DUP2 PUSH1 0x20 ADD JUMPDEST PUSH1 0x60 DUP2 MSTORE PUSH1 0x20 ADD SWAP1 PUSH1 0x1 SWAP1 SUB SWAP1 DUP2 PUSH2 0xCDF JUMPI SWAP1 POP JUMPDEST POP SWAP1 POP PUSH1 0x0 JUMPDEST PUSH1 0x1 DUP1 SLOAD SWAP1 POP DUP2 LT ISZERO PUSH2 0xEB9 JUMPI PUSH1 0x0 PUSH1 0x1 DUP3 DUP2 SLOAD DUP2 LT PUSH2 0xD16 JUMPI INVALID JUMPDEST SWAP1 PUSH1 0x0 MSTORE PUSH1 0x20 PUSH1 0x0 KECCAK256 SWAP1 PUSH1 0x4 MUL ADD SWAP1 POP DUP1 PUSH1 0x0 ADD SLOAD DUP6 DUP4 DUP2 MLOAD DUP2 LT PUSH2 0xD37 JUMPI INVALID JUMPDEST PUSH1 0x20 MUL PUSH1 0x20 ADD ADD DUP2 DUP2 MSTORE POP POP DUP1 PUSH1 0x1 ADD DUP1 SLOAD PUSH1 0x1 DUP2 PUSH1 0x1 AND ISZERO PUSH2 0x100 MUL SUB AND PUSH1 0x2 SWAP1 DIV DUP1 PUSH1 0x1F ADD PUSH1 0x20 DUP1 SWAP2 DIV MUL PUSH1 0x20 ADD PUSH1 0x40 MLOAD SWAP1 DUP2 ADD PUSH1 0x40 MSTORE DUP1 SWAP3 SWAP2 SWAP1 DUP2 DUP2 MSTORE PUSH1 0x20 ADD DUP3 DUP1 SLOAD PUSH1 0x1 DUP2 PUSH1 0x1 AND ISZERO PUSH2 0x100 MUL SUB AND PUSH1 0x2 SWAP1 DIV DUP1 ISZERO PUSH2 0xDDB JUMPI DUP1 PUSH1 0x1F LT PUSH2 0xDB0 JUMPI PUSH2 0x100 DUP1 DUP4 SLOAD DIV MUL DUP4 MSTORE SWAP2 PUSH1 0x20 ADD SWAP2 PUSH2 0xDDB JUMP JUMPDEST DUP3 ADD SWAP2 SWAP1 PUSH1 0x0 MSTORE PUSH1 0x20 PUSH1 0x0 KECCAK256 SWAP1 JUMPDEST DUP2 SLOAD DUP2 MSTORE SWAP1 PUSH1 0x1 ADD SWAP1 PUSH1 0x20 ADD DUP1 DUP4 GT PUSH2 0xDBE JUMPI DUP3 SWAP1 SUB PUSH1 0x1F AND DUP3 ADD SWAP2 JUMPDEST POP POP POP POP POP DUP5 DUP4 DUP2 MLOAD DUP2 LT PUSH2 0xDEC JUMPI INVALID JUMPDEST PUSH1 0x20 MUL PUSH1 0x20 ADD ADD DUP2 SWAP1 MSTORE POP DUP1 PUSH1 0x2 ADD DUP1 SLOAD PUSH1 0x1 DUP2 PUSH1 0x1 AND ISZERO PUSH2 0x100 MUL SUB AND PUSH1 0x2 SWAP1 DIV DUP1 PUSH1 0x1F ADD PUSH1 0x20 DUP1 SWAP2 DIV MUL PUSH1 0x20 ADD PUSH1 0x40 MLOAD SWAP1 DUP2 ADD PUSH1 0x40 MSTORE DUP1 SWAP3 SWAP2 SWAP1 DUP2 DUP2 MSTORE PUSH1 0x20 ADD DUP3 DUP1 SLOAD PUSH1 0x1 DUP2 PUSH1 0x1 AND ISZERO PUSH2 0x100 MUL SUB AND PUSH1 0x2 SWAP1 DIV DUP1 ISZERO PUSH2 0xE8F JUMPI DUP1 PUSH1 0x1F LT PUSH2 0xE64 JUMPI PUSH2 0x100 DUP1 DUP4 SLOAD DIV MUL DUP4 MSTORE SWAP2 PUSH1 0x20 ADD SWAP2 PUSH2 0xE8F JUMP JUMPDEST DUP3 ADD SWAP2 SWAP1 PUSH1 0x0 MSTORE PUSH1 0x20 PUSH1 0x0 KECCAK256 SWAP1 JUMPDEST DUP2 SLOAD DUP2 MSTORE SWAP1 PUSH1 0x1 ADD SWAP1 PUSH1 0x20 ADD DUP1 DUP4 GT PUSH2 0xE72 JUMPI DUP3 SWAP1 SUB PUSH1 0x1F AND DUP3 ADD SWAP2 JUMPDEST POP POP POP POP POP DUP4 DUP4 DUP2 MLOAD DUP2 LT PUSH2 0xEA0 JUMPI INVALID JUMPDEST PUSH1 0x20 MUL PUSH1 0x20 ADD ADD DUP2 SWAP1 MSTORE POP POP DUP1 DUP1 PUSH1 0x1 ADD SWAP2 POP POP PUSH2 0xCFA JUMP JUMPDEST POP DUP3 DUP3 DUP3 SWAP6 POP SWAP6 POP SWAP6 POP POP POP POP SWAP1 SWAP2 SWAP3 JUMP JUMPDEST PUSH1 0x60 PUSH1 0x0 DUP1 SLOAD SWAP1 PUSH2 0x100 EXP SWAP1 DIV PUSH20 0xFFFFFFFFFFFFFFFFFFFFFFFFFFFFFFFFFFFFFFFF AND PUSH20 0xFFFFFFFFFFFFFFFFFFFFFFFFFFFFFFFFFFFFFFFF AND CALLER PUSH20 0xFFFFFFFFFFFFFFFFFFFFFFFFFFFFFFFFFFFFFFFF AND EQ PUSH2 0xF25 JUMPI PUSH1 0x0 DUP1 REVERT JUMPDEST PUSH1 0x0 JUMPDEST PUSH1 0x1 DUP1 SLOAD SWAP1 POP DUP2 LT ISZERO PUSH2 0x10B9 JUMPI PUSH1 0x0 PUSH1 0x1 DUP3 DUP2 SLOAD DUP2 LT PUSH2 0xF44 JUMPI INVALID JUMPDEST SWAP1 PUSH1 0x0 MSTORE PUSH1 0x20 PUSH1 0x0 KECCAK256 SWAP1 PUSH1 0x4 MUL ADD SWAP1 POP DUP1 PUSH1 0x0 ADD SLOAD DUP5 EQ ISZERO PUSH2 0x10AB JUMPI PUSH1 0x60 DUP2 PUSH1 0x3 ADD DUP1 SLOAD SWAP1 POP PUSH8 0xFFFFFFFFFFFFFFFF DUP2 GT DUP1 ISZERO PUSH2 0xF80 JUMPI PUSH1 0x0 DUP1 REVERT JUMPDEST POP PUSH1 0x40 MLOAD SWAP1 DUP1 DUP3 MSTORE DUP1 PUSH1 0x20 MUL PUSH1 0x20 ADD DUP3 ADD PUSH1 0x40 MSTORE DUP1 ISZERO PUSH2 0xFB4 JUMPI DUP2 PUSH1 0x20 ADD JUMPDEST PUSH1 0x60 DUP2 MSTORE PUSH1 0x20 ADD SWAP1 PUSH1 0x1 SWAP1 SUB SWAP1 DUP2 PUSH2 0xF9F JUMPI SWAP1 POP JUMPDEST POP SWAP1 POP PUSH1 0x0 JUMPDEST DUP3 PUSH1 0x3 ADD DUP1 SLOAD SWAP1 POP DUP2 LT ISZERO PUSH2 0x109F JUMPI DUP3 PUSH1 0x3 ADD DUP2 DUP2 SLOAD DUP2 LT PUSH2 0xFD8 JUMPI INVALID JUMPDEST SWAP1 PUSH1 0x0 MSTORE PUSH1 0x20 PUSH1 0x0 KECCAK256 ADD DUP1 SLOAD PUSH1 0x1 DUP2 PUSH1 0x1 AND ISZERO PUSH2 0x100 MUL SUB AND PUSH1 0x2 SWAP1 DIV DUP1 PUSH1 0x1F ADD PUSH1 0x20 DUP1 SWAP2 DIV MUL PUSH1 0x20 ADD PUSH1 0x40 MLOAD SWAP1 DUP2 ADD PUSH1 0x40 MSTORE DUP1 SWAP3 SWAP2 SWAP1 DUP2 DUP2 MSTORE PUSH1 0x20 ADD DUP3 DUP1 SLOAD PUSH1 0x1 DUP2 PUSH1 0x1 AND ISZERO PUSH2 0x100 MUL SUB AND PUSH1 0x2 SWAP1 DIV DUP1 ISZERO PUSH2 0x1076 JUMPI DUP1 PUSH1 0x1F LT PUSH2 0x104B JUMPI PUSH2 0x100 DUP1 DUP4 SLOAD DIV MUL DUP4 MSTORE SWAP2 PUSH1 0x20 ADD SWAP2 PUSH2 0x1076 JUMP JUMPDEST DUP3 ADD SWAP2 SWAP1 PUSH1 0x0 MSTORE PUSH1 0x20 PUSH1 0x0 KECCAK256 SWAP1 JUMPDEST DUP2 SLOAD DUP2 MSTORE SWAP1 PUSH1 0x1 ADD SWAP1 PUSH1 0x20 ADD DUP1 DUP4 GT PUSH2 0x1059 JUMPI DUP3 SWAP1 SUB PUSH1 0x1F AND DUP3 ADD SWAP2 JUMPDEST POP POP POP POP POP DUP3 DUP3 DUP2 MLOAD DUP2 LT PUSH2 0x1087 JUMPI INVALID JUMPDEST PUSH1 0x20 MUL PUSH1 0x20 ADD ADD DUP2 SWAP1 MSTORE POP DUP1 DUP1 PUSH1 0x1 ADD SWAP2 POP POP PUSH2 0xFBA JUMP JUMPDEST POP DUP1 SWAP4 POP POP POP POP PUSH2 0x10BB JUMP JUMPDEST POP DUP1 DUP1 PUSH1 0x1 ADD SWAP2 POP POP PUSH2 0xF28 JUMP JUMPDEST POP JUMPDEST SWAP2 SWAP1 POP JUMP JUMPDEST PUSH1 0x0 DUP4 PUSH1 0x0 DUP1 SHL PUSH1 0x4 PUSH1 0x0 CALLER PUSH20 0xFFFFFFFFFFFFFFFFFFFFFFFFFFFFFFFFFFFFFFFF AND PUSH20 0xFFFFFFFFFFFFFFFFFFFFFFFFFFFFFFFFFFFFFFFF AND DUP2 MSTORE PUSH1 0x20 ADD SWAP1 DUP2 MSTORE PUSH1 0x20 ADD PUSH1 0x0 KECCAK256 SLOAD EQ ISZERO PUSH2 0x1112 JUMPI PUSH1 0x0 DUP1 REVERT JUMPDEST PUSH1 0x4 PUSH1 0x0 CALLER PUSH20 0xFFFFFFFFFFFFFFFFFFFFFFFFFFFFFFFFFFFFFFFF AND PUSH20 0xFFFFFFFFFFFFFFFFFFFFFFFFFFFFFFFFFFFFFFFF AND DUP2 MSTORE PUSH1 0x20 ADD SWAP1 DUP2 MSTORE PUSH1 0x20 ADD PUSH1 0x0 KECCAK256 SLOAD DUP2 EQ PUSH2 0x115D JUMPI PUSH1 0x0 DUP1 REVERT JUMPDEST PUSH1 0x0 JUMPDEST PUSH1 0x1 DUP1 SLOAD SWAP1 POP DUP2 LT ISZERO PUSH2 0x126C JUMPI PUSH1 0x1 DUP2 DUP2 SLOAD DUP2 LT PUSH2 0x117A JUMPI INVALID JUMPDEST SWAP1 PUSH1 0x0 MSTORE PUSH1 0x20 PUSH1 0x0 KECCAK256 SWAP1 PUSH1 0x4 MUL ADD PUSH1 0x0 ADD SLOAD DUP6 EQ ISZERO PUSH2 0x125F JUMPI PUSH1 0x0 JUMPDEST PUSH1 0x1 DUP3 DUP2 SLOAD DUP2 LT PUSH2 0x11A3 JUMPI INVALID JUMPDEST SWAP1 PUSH1 0x0 MSTORE PUSH1 0x20 PUSH1 0x0 KECCAK256 SWAP1 PUSH1 0x4 MUL ADD PUSH1 0x3 ADD DUP1 SLOAD SWAP1 POP DUP2 LT ISZERO PUSH2 0x125D JUMPI PUSH1 0x1 DUP3 DUP2 SLOAD DUP2 LT PUSH2 0x11CC JUMPI INVALID JUMPDEST SWAP1 PUSH1 0x0 MSTORE PUSH1 0x20 PUSH1 0x0 KECCAK256 SWAP1 PUSH1 0x4 MUL ADD PUSH1 0x3 ADD DUP2 DUP2 SLOAD DUP2 LT PUSH2 0x11E8 JUMPI INVALID JUMPDEST SWAP1 PUSH1 0x0 MSTORE PUSH1 0x20 PUSH1 0x0 KECCAK256 ADD PUSH1 0x40 MLOAD PUSH1 0x20 ADD PUSH2 0x1202 SWAP2 SWAP1 PUSH2 0x2AEE JUMP JUMPDEST PUSH1 0x40 MLOAD PUSH1 0x20 DUP2 DUP4 SUB SUB DUP2 MSTORE SWAP1 PUSH1 0x40 MSTORE DUP1 MLOAD SWAP1 PUSH1 0x20 ADD KECCAK256 DUP6 PUSH1 0x40 MLOAD PUSH1 0x20 ADD PUSH2 0x1229 SWAP2 SWAP1 PUSH2 0x2AD7 JUMP JUMPDEST PUSH1 0x40 MLOAD PUSH1 0x20 DUP2 DUP4 SUB SUB DUP2 MSTORE SWAP1 PUSH1 0x40 MSTORE DUP1 MLOAD SWAP1 PUSH1 0x20 ADD KECCAK256 EQ ISZERO PUSH2 0x1250 JUMPI PUSH1 0x1 SWAP4 POP POP POP PUSH2 0x1272 JUMP JUMPDEST DUP1 DUP1 PUSH1 0x1 ADD SWAP2 POP POP PUSH2 0x1196 JUMP JUMPDEST POP JUMPDEST DUP1 DUP1 PUSH1 0x1 ADD SWAP2 POP POP PUSH2 0x1160 JUMP JUMPDEST POP PUSH1 0x0 SWAP2 POP JUMPDEST POP SWAP4 SWAP3 POP POP POP JUMP JUMPDEST PUSH1 0x0 DUP1 SLOAD SWAP1 PUSH2 0x100 EXP SWAP1 DIV PUSH20 0xFFFFFFFFFFFFFFFFFFFFFFFFFFFFFFFFFFFFFFFF AND PUSH20 0xFFFFFFFFFFFFFFFFFFFFFFFFFFFFFFFFFFFFFFFF AND CALLER PUSH20 0xFFFFFFFFFFFFFFFFFFFFFFFFFFFFFFFFFFFFFFFF AND EQ PUSH2 0x12D2 JUMPI PUSH1 0x0 DUP1 REVERT JUMPDEST PUSH2 0x12DA PUSH2 0x21C9 JUMP JUMPDEST PUSH1 0x40 MLOAD DUP1 PUSH1 0x40 ADD PUSH1 0x40 MSTORE DUP1 DUP4 PUSH20 0xFFFFFFFFFFFFFFFFFFFFFFFFFFFFFFFFFFFFFFFF AND DUP2 MSTORE PUSH1 0x20 ADD TIMESTAMP DUP2 MSTORE POP SWAP1 POP PUSH1 0x2 DUP2 SWAP1 DUP1 PUSH1 0x1 DUP2 SLOAD ADD DUP1 DUP3 SSTORE DUP1 SWAP2 POP POP PUSH1 0x1 SWAP1 SUB SWAP1 PUSH1 0x0 MSTORE PUSH1 0x20 PUSH1 0x0 KECCAK256 SWAP1 PUSH1 0x2 MUL ADD PUSH1 0x0 SWAP1 SWAP2 SWAP1 SWAP2 SWAP1 SWAP2 POP PUSH1 0x0 DUP3 ADD MLOAD DUP2 PUSH1 0x0 ADD PUSH1 0x0 PUSH2 0x100 EXP DUP2 SLOAD DUP2 PUSH20 0xFFFFFFFFFFFFFFFFFFFFFFFFFFFFFFFFFFFFFFFF MUL NOT AND SWAP1 DUP4 PUSH20 0xFFFFFFFFFFFFFFFFFFFFFFFFFFFFFFFFFFFFFFFF AND MUL OR SWAP1 SSTORE POP PUSH1 0x20 DUP3 ADD MLOAD DUP2 PUSH1 0x1 ADD SSTORE POP POP PUSH1 0x1 PUSH1 0x3 PUSH1 0x0 DUP5 PUSH20 0xFFFFFFFFFFFFFFFFFFFFFFFFFFFFFFFFFFFFFFFF AND PUSH20 0xFFFFFFFFFFFFFFFFFFFFFFFFFFFFFFFFFFFFFFFF AND DUP2 MSTORE PUSH1 0x20 ADD SWAP1 DUP2 MSTORE PUSH1 0x20 ADD PUSH1 0x0 KECCAK256 PUSH1 0x0 PUSH2 0x100 EXP DUP2 SLOAD DUP2 PUSH1 0xFF MUL NOT AND SWAP1 DUP4 ISZERO ISZERO MUL OR SWAP1 SSTORE POP PUSH1 0x6 PUSH1 0x0 DUP2 SLOAD DUP1 SWAP3 SWAP2 SWAP1 PUSH1 0x1 ADD SWAP2 SWAP1 POP SSTORE POP POP POP JUMP JUMPDEST PUSH1 0x0 DUP1 SLOAD SWAP1 PUSH2 0x100 EXP SWAP1 DIV PUSH20 0xFFFFFFFFFFFFFFFFFFFFFFFFFFFFFFFFFFFFFFFF AND PUSH20 0xFFFFFFFFFFFFFFFFFFFFFFFFFFFFFFFFFFFFFFFF AND CALLER PUSH20 0xFFFFFFFFFFFFFFFFFFFFFFFFFFFFFFFFFFFFFFFF AND EQ PUSH2 0x144C JUMPI PUSH1 0x0 DUP1 REVERT JUMPDEST PUSH2 0x1454 PUSH2 0x21F9 JUMP JUMPDEST PUSH1 0x40 MLOAD DUP1 PUSH1 0x80 ADD PUSH1 0x40 MSTORE DUP1 PUSH1 0x7 SLOAD DUP2 MSTORE PUSH1 0x20 ADD DUP5 DUP2 MSTORE PUSH1 0x20 ADD DUP4 DUP2 MSTORE PUSH1 0x20 ADD PUSH1 0x0 PUSH8 0xFFFFFFFFFFFFFFFF DUP2 GT DUP1 ISZERO PUSH2 0x148B JUMPI PUSH1 0x0 DUP1 REVERT JUMPDEST POP PUSH1 0x40 MLOAD SWAP1 DUP1 DUP3 MSTORE DUP1 PUSH1 0x20 MUL PUSH1 0x20 ADD DUP3 ADD PUSH1 0x40 MSTORE DUP1 ISZERO PUSH2 0x14BF JUMPI DUP2 PUSH1 0x20 ADD JUMPDEST PUSH1 0x60 DUP2 MSTORE PUSH1 0x20 ADD SWAP1 PUSH1 0x1 SWAP1 SUB SWAP1 DUP2 PUSH2 0x14AA JUMPI SWAP1 POP JUMPDEST POP DUP2 MSTORE POP SWAP1 POP PUSH1 0x5 PUSH1 0x0 DUP2 SLOAD DUP1 SWAP3 SWAP2 SWAP1 PUSH1 0x1 ADD SWAP2 SWAP1 POP SSTORE POP PUSH1 0x7 PUSH1 0x0 DUP2 SLOAD DUP1 SWAP3 SWAP2 SWAP1 PUSH1 0x1 ADD SWAP2 SWAP1 POP SSTORE POP PUSH1 0x1 DUP2 SWAP1 DUP1 PUSH1 0x1 DUP2 SLOAD ADD DUP1 DUP3 SSTORE DUP1 SWAP2 POP POP PUSH1 0x1 SWAP1 SUB SWAP1 PUSH1 0x0 MSTORE PUSH1 0x20 PUSH1 0x0 KECCAK256 SWAP1 PUSH1 0x4 MUL ADD PUSH1 0x0 SWAP1 SWAP2 SWAP1 SWAP2 SWAP1 SWAP2 POP PUSH1 0x0 DUP3 ADD MLOAD DUP2 PUSH1 0x0 ADD SSTORE PUSH1 0x20 DUP3 ADD MLOAD DUP2 PUSH1 0x1 ADD SWAP1 DUP1 MLOAD SWAP1 PUSH1 0x20 ADD SWAP1 PUSH2 0x153B SWAP3 SWAP2 SWAP1 PUSH2 0x207A JUMP JUMPDEST POP PUSH1 0x40 DUP3 ADD MLOAD DUP2 PUSH1 0x2 ADD SWAP1 DUP1 MLOAD SWAP1 PUSH1 0x20 ADD SWAP1 PUSH2 0x1558 SWAP3 SWAP2 SWAP1 PUSH2 0x207A JUMP JUMPDEST POP PUSH1 0x60 DUP3 ADD MLOAD DUP2 PUSH1 0x3 ADD SWAP1 DUP1 MLOAD SWAP1 PUSH1 0x20 ADD SWAP1 PUSH2 0x1575 SWAP3 SWAP2 SWAP1 PUSH2 0x2221 JUMP JUMPDEST POP POP POP POP POP POP JUMP JUMPDEST PUSH1 0x0 DUP1 SLOAD SWAP1 PUSH2 0x100 EXP SWAP1 DIV PUSH20 0xFFFFFFFFFFFFFFFFFFFFFFFFFFFFFFFFFFFFFFFF AND PUSH20 0xFFFFFFFFFFFFFFFFFFFFFFFFFFFFFFFFFFFFFFFF AND CALLER PUSH20 0xFFFFFFFFFFFFFFFFFFFFFFFFFFFFFFFFFFFFFFFF AND EQ PUSH2 0x15D5 JUMPI PUSH1 0x0 DUP1 REVERT JUMPDEST PUSH1 0x0 JUMPDEST PUSH1 0x1 DUP1 SLOAD SWAP1 POP DUP2 LT ISZERO PUSH2 0x1738 JUMPI PUSH1 0x1 DUP2 DUP2 SLOAD DUP2 LT PUSH2 0x15F2 JUMPI INVALID JUMPDEST SWAP1 PUSH1 0x0 MSTORE PUSH1 0x20 PUSH1 0x0 KECCAK256 SWAP1 PUSH1 0x4 MUL ADD PUSH1 0x0 ADD SLOAD DUP3 EQ ISZERO PUSH2 0x172B JUMPI PUSH1 0x1 DUP1 DUP1 DUP1 SLOAD SWAP1 POP SUB DUP2 SLOAD DUP2 LT PUSH2 0x161E JUMPI INVALID JUMPDEST SWAP1 PUSH1 0x0 MSTORE PUSH1 0x20 PUSH1 0x0 KECCAK256 SWAP1 PUSH1 0x4 MUL ADD PUSH1 0x1 DUP3 DUP2 SLOAD DUP2 LT PUSH2 0x1639 JUMPI INVALID JUMPDEST SWAP1 PUSH1 0x0 MSTORE PUSH1 0x20 PUSH1 0x0 KECCAK256 SWAP1 PUSH1 0x4 MUL ADD PUSH1 0x0 DUP3 ADD SLOAD DUP2 PUSH1 0x0 ADD SSTORE PUSH1 0x1 DUP3 ADD DUP2 PUSH1 0x1 ADD SWAP1 DUP1 SLOAD PUSH1 0x1 DUP2 PUSH1 0x1 AND ISZERO PUSH2 0x100 MUL SUB AND PUSH1 0x2 SWAP1 DIV PUSH2 0x1678 SWAP3 SWAP2 SWAP1 PUSH2 0x2281 JUMP JUMPDEST POP PUSH1 0x2 DUP3 ADD DUP2 PUSH1 0x2 ADD SWAP1 DUP1 SLOAD PUSH1 0x1 DUP2 PUSH1 0x1 AND ISZERO PUSH2 0x100 MUL SUB AND PUSH1 0x2 SWAP1 DIV PUSH2 0x16A0 SWAP3 SWAP2 SWAP1 PUSH2 0x2281 JUMP JUMPDEST POP PUSH1 0x3 DUP3 ADD DUP2 PUSH1 0x3 ADD SWAP1 DUP1 SLOAD PUSH2 0x16B7 SWAP3 SWAP2 SWAP1 PUSH2 0x2308 JUMP JUMPDEST POP SWAP1 POP POP PUSH1 0x1 DUP1 SLOAD DUP1 PUSH2 0x16C6 JUMPI INVALID JUMPDEST PUSH1 0x1 SWAP1 SUB DUP2 DUP2 SWAP1 PUSH1 0x0 MSTORE PUSH1 0x20 PUSH1 0x0 KECCAK256 SWAP1 PUSH1 0x4 MUL ADD PUSH1 0x0 DUP1 DUP3 ADD PUSH1 0x0 SWAP1 SSTORE PUSH1 0x1 DUP3 ADD PUSH1 0x0 PUSH2 0x16F3 SWAP2 SWAP1 PUSH2 0x2181 JUMP JUMPDEST PUSH1 0x2 DUP3 ADD PUSH1 0x0 PUSH2 0x1703 SWAP2 SWAP1 PUSH2 0x2181 JUMP JUMPDEST PUSH1 0x3 DUP3 ADD PUSH1 0x0 PUSH2 0x1713 SWAP2 SWAP1 PUSH2 0x2378 JUMP JUMPDEST POP POP SWAP1 SSTORE PUSH1 0x5 PUSH1 0x0 DUP2 SLOAD DUP1 SWAP3 SWAP2 SWAP1 PUSH1 0x1 SWAP1 SUB SWAP2 SWAP1 POP SSTORE POP JUMPDEST DUP1 DUP1 PUSH1 0x1 ADD SWAP2 POP POP PUSH2 0x15D8 JUMP JUMPDEST POP POP JUMP JUMPDEST PUSH1 0x60 PUSH1 0x0 DUP1 SLOAD SWAP1 PUSH2 0x100 EXP SWAP1 DIV PUSH20 0xFFFFFFFFFFFFFFFFFFFFFFFFFFFFFFFFFFFFFFFF AND PUSH20 0xFFFFFFFFFFFFFFFFFFFFFFFFFFFFFFFFFFFFFFFF AND CALLER PUSH20 0xFFFFFFFFFFFFFFFFFFFFFFFFFFFFFFFFFFFFFFFF AND EQ PUSH2 0x1796 JUMPI PUSH1 0x0 DUP1 REVERT JUMPDEST PUSH1 0x60 PUSH1 0x6 SLOAD PUSH8 0xFFFFFFFFFFFFFFFF DUP2 GT DUP1 ISZERO PUSH2 0x17B1 JUMPI PUSH1 0x0 DUP1 REVERT JUMPDEST POP PUSH1 0x40 MLOAD SWAP1 DUP1 DUP3 MSTORE DUP1 PUSH1 0x20 MUL PUSH1 0x20 ADD DUP3 ADD PUSH1 0x40 MSTORE DUP1 ISZERO PUSH2 0x17E0 JUMPI DUP2 PUSH1 0x20 ADD PUSH1 0x20 DUP3 MUL DUP1 CALLDATASIZE DUP4 CALLDATACOPY DUP1 DUP3 ADD SWAP2 POP POP SWAP1 POP JUMPDEST POP SWAP1 POP PUSH1 0x0 JUMPDEST PUSH1 0x2 DUP1 SLOAD SWAP1 POP DUP2 LT ISZERO PUSH2 0x1885 JUMPI PUSH1 0x2 DUP2 DUP2 SLOAD DUP2 LT PUSH2 0x1800 JUMPI INVALID JUMPDEST SWAP1 PUSH1 0x0 MSTORE PUSH1 0x20 PUSH1 0x0 KECCAK256 SWAP1 PUSH1 0x2 MUL ADD PUSH1 0x0 ADD PUSH1 0x0 SWAP1 SLOAD SWAP1 PUSH2 0x100 EXP SWAP1 DIV PUSH20 0xFFFFFFFFFFFFFFFFFFFFFFFFFFFFFFFFFFFFFFFF AND DUP3 DUP3 DUP2 MLOAD DUP2 LT PUSH2 0x183E JUMPI INVALID JUMPDEST PUSH1 0x20 MUL PUSH1 0x20 ADD ADD SWAP1 PUSH20 0xFFFFFFFFFFFFFFFFFFFFFFFFFFFFFFFFFFFFFFFF AND SWAP1 DUP2 PUSH20 0xFFFFFFFFFFFFFFFFFFFFFFFFFFFFFFFFFFFFFFFF AND DUP2 MSTORE POP POP DUP1 DUP1 PUSH1 0x1 ADD SWAP2 POP POP PUSH2 0x17E6 JUMP JUMPDEST POP DUP1 SWAP2 POP POP SWAP1 JUMP JUMPDEST PUSH1 0x0 DUP5 PUSH1 0x0 DUP1 SHL PUSH1 0x4 PUSH1 0x0 CALLER PUSH20 0xFFFFFFFFFFFFFFFFFFFFFFFFFFFFFFFFFFFFFFFF AND PUSH20 0xFFFFFFFFFFFFFFFFFFFFFFFFFFFFFFFFFFFFFFFF AND DUP2 MSTORE PUSH1 0x20 ADD SWAP1 DUP2 MSTORE PUSH1 0x20 ADD PUSH1 0x0 KECCAK256 SLOAD EQ ISZERO PUSH2 0x18DF JUMPI PUSH1 0x0 DUP1 REVERT JUMPDEST PUSH1 0x4 PUSH1 0x0 CALLER PUSH20 0xFFFFFFFFFFFFFFFFFFFFFFFFFFFFFFFFFFFFFFFF AND PUSH20 0xFFFFFFFFFFFFFFFFFFFFFFFFFFFFFFFFFFFFFFFF AND DUP2 MSTORE PUSH1 0x20 ADD SWAP1 DUP2 MSTORE PUSH1 0x20 ADD PUSH1 0x0 KECCAK256 SLOAD DUP2 EQ PUSH2 0x192A JUMPI PUSH1 0x0 DUP1 REVERT JUMPDEST PUSH1 0x0 JUMPDEST PUSH1 0x1 DUP1 SLOAD SWAP1 POP DUP2 LT ISZERO PUSH2 0x1A5F JUMPI PUSH1 0x1 DUP2 DUP2 SLOAD DUP2 LT PUSH2 0x1947 JUMPI INVALID JUMPDEST SWAP1 PUSH1 0x0 MSTORE PUSH1 0x20 PUSH1 0x0 KECCAK256 SWAP1 PUSH1 0x4 MUL ADD PUSH1 0x0 ADD SLOAD DUP7 EQ DUP1 ISZERO PUSH2 0x19CF JUMPI POP PUSH1 0x1 DUP2 DUP2 SLOAD DUP2 LT PUSH2 0x196F JUMPI INVALID JUMPDEST SWAP1 PUSH1 0x0 MSTORE PUSH1 0x20 PUSH1 0x0 KECCAK256 SWAP1 PUSH1 0x4 MUL ADD PUSH1 0x1 ADD PUSH1 0x40 MLOAD PUSH1 0x20 ADD PUSH2 0x1990 SWAP2 SWAP1 PUSH2 0x2AEE JUMP JUMPDEST PUSH1 0x40 MLOAD PUSH1 0x20 DUP2 DUP4 SUB SUB DUP2 MSTORE SWAP1 PUSH1 0x40 MSTORE DUP1 MLOAD SWAP1 PUSH1 0x20 ADD KECCAK256 DUP6 PUSH1 0x40 MLOAD PUSH1 0x20 ADD PUSH2 0x19B7 SWAP2 SWAP1 PUSH2 0x2AD7 JUMP JUMPDEST PUSH1 0x40 MLOAD PUSH1 0x20 DUP2 DUP4 SUB SUB DUP2 MSTORE SWAP1 PUSH1 0x40 MSTORE DUP1 MLOAD SWAP1 PUSH1 0x20 ADD KECCAK256 EQ JUMPDEST DUP1 ISZERO PUSH2 0x1A43 JUMPI POP PUSH1 0x1 DUP2 DUP2 SLOAD DUP2 LT PUSH2 0x19E3 JUMPI INVALID JUMPDEST SWAP1 PUSH1 0x0 MSTORE PUSH1 0x20 PUSH1 0x0 KECCAK256 SWAP1 PUSH1 0x4 MUL ADD PUSH1 0x2 ADD PUSH1 0x40 MLOAD PUSH1 0x20 ADD PUSH2 0x1A04 SWAP2 SWAP1 PUSH2 0x2AEE JUMP JUMPDEST PUSH1 0x40 MLOAD PUSH1 0x20 DUP2 DUP4 SUB SUB DUP2 MSTORE SWAP1 PUSH1 0x40 MSTORE DUP1 MLOAD SWAP1 PUSH1 0x20 ADD KECCAK256 DUP5 PUSH1 0x40 MLOAD PUSH1 0x20 ADD PUSH2 0x1A2B SWAP2 SWAP1 PUSH2 0x2AD7 JUMP JUMPDEST PUSH1 0x40 MLOAD PUSH1 0x20 DUP2 DUP4 SUB SUB DUP2 MSTORE SWAP1 PUSH1 0x40 MSTORE DUP1 MLOAD SWAP1 PUSH1 0x20 ADD KECCAK256 EQ JUMPDEST ISZERO PUSH2 0x1A52 JUMPI PUSH1 0x1 SWAP3 POP POP PUSH2 0x1A65 JUMP JUMPDEST DUP1 DUP1 PUSH1 0x1 ADD SWAP2 POP POP PUSH2 0x192D JUMP JUMPDEST POP PUSH1 0x0 SWAP2 POP JUMPDEST POP SWAP5 SWAP4 POP POP POP POP JUMP JUMPDEST PUSH1 0x0 DUP1 SLOAD SWAP1 PUSH2 0x100 EXP SWAP1 DIV PUSH20 0xFFFFFFFFFFFFFFFFFFFFFFFFFFFFFFFFFFFFFFFF AND PUSH20 0xFFFFFFFFFFFFFFFFFFFFFFFFFFFFFFFFFFFFFFFF AND CALLER PUSH20 0xFFFFFFFFFFFFFFFFFFFFFFFFFFFFFFFFFFFFFFFF AND EQ PUSH2 0x1AC6 JUMPI PUSH1 0x0 DUP1 REVERT JUMPDEST PUSH1 0x0 JUMPDEST PUSH1 0x1 DUP1 SLOAD SWAP1 POP DUP2 LT ISZERO PUSH2 0x1BCB JUMPI PUSH1 0x0 PUSH1 0x1 DUP3 DUP2 SLOAD DUP2 LT PUSH2 0x1AE5 JUMPI INVALID JUMPDEST SWAP1 PUSH1 0x0 MSTORE PUSH1 0x20 PUSH1 0x0 KECCAK256 SWAP1 PUSH1 0x4 MUL ADD SWAP1 POP DUP1 PUSH1 0x0 ADD SLOAD DUP6 EQ ISZERO PUSH2 0x1BBD JUMPI PUSH1 0x0 JUMPDEST DUP2 PUSH1 0x3 ADD DUP1 SLOAD SWAP1 POP DUP2 LT ISZERO PUSH2 0x1BBB JUMPI DUP5 PUSH1 0x40 MLOAD PUSH1 0x20 ADD PUSH2 0x1B24 SWAP2 SWAP1 PUSH2 0x2AD7 JUMP JUMPDEST PUSH1 0x40 MLOAD PUSH1 0x20 DUP2 DUP4 SUB SUB DUP2 MSTORE SWAP1 PUSH1 0x40 MSTORE DUP1 MLOAD SWAP1 PUSH1 0x20 ADD KECCAK256 DUP3 PUSH1 0x3 ADD DUP3 DUP2 SLOAD DUP2 LT PUSH2 0x1B49 JUMPI INVALID JUMPDEST SWAP1 PUSH1 0x0 MSTORE PUSH1 0x20 PUSH1 0x0 KECCAK256 ADD PUSH1 0x40 MLOAD PUSH1 0x20 ADD PUSH2 0x1B63 SWAP2 SWAP1 PUSH2 0x2AEE JUMP JUMPDEST PUSH1 0x40 MLOAD PUSH1 0x20 DUP2 DUP4 SUB SUB DUP2 MSTORE SWAP1 PUSH1 0x40 MSTORE DUP1 MLOAD SWAP1 PUSH1 0x20 ADD KECCAK256 EQ ISZERO PUSH2 0x1BAE JUMPI DUP4 DUP3 PUSH1 0x3 ADD DUP3 DUP2 SLOAD DUP2 LT PUSH2 0x1B8F JUMPI INVALID JUMPDEST SWAP1 PUSH1 0x0 MSTORE PUSH1 0x20 PUSH1 0x0 KECCAK256 ADD SWAP1 DUP1 MLOAD SWAP1 PUSH1 0x20 ADD SWAP1 PUSH2 0x1BAC SWAP3 SWAP2 SWAP1 PUSH2 0x207A JUMP JUMPDEST POP JUMPDEST DUP1 DUP1 PUSH1 0x1 ADD SWAP2 POP POP PUSH2 0x1B04 JUMP JUMPDEST POP JUMPDEST POP DUP1 DUP1 PUSH1 0x1 ADD SWAP2 POP POP PUSH2 0x1AC9 JUMP JUMPDEST POP POP POP POP JUMP JUMPDEST PUSH1 0x3 PUSH1 0x0 CALLER PUSH20 0xFFFFFFFFFFFFFFFFFFFFFFFFFFFFFFFFFFFFFFFF AND PUSH20 0xFFFFFFFFFFFFFFFFFFFFFFFFFFFFFFFFFFFFFFFF AND DUP2 MSTORE PUSH1 0x20 ADD SWAP1 DUP2 MSTORE PUSH1 0x20 ADD PUSH1 0x0 KECCAK256 PUSH1 0x0 SWAP1 SLOAD SWAP1 PUSH2 0x100 EXP SWAP1 DIV PUSH1 0xFF AND PUSH2 0x1C27 JUMPI PUSH1 0x0 DUP1 REVERT JUMPDEST PUSH1 0x0 JUMPDEST PUSH1 0x2 DUP1 SLOAD SWAP1 POP DUP2 LT ISZERO PUSH2 0x2077 JUMPI PUSH1 0x2 DUP2 DUP2 SLOAD DUP2 LT PUSH2 0x1C44 JUMPI INVALID JUMPDEST SWAP1 PUSH1 0x0 MSTORE PUSH1 0x20 PUSH1 0x0 KECCAK256 SWAP1 PUSH1 0x2 MUL ADD PUSH1 0x0 ADD PUSH1 0x0 SWAP1 SLOAD SWAP1 PUSH2 0x100 EXP SWAP1 DIV PUSH20 0xFFFFFFFFFFFFFFFFFFFFFFFFFFFFFFFFFFFFFFFF AND PUSH20 0xFFFFFFFFFFFFFFFFFFFFFFFFFFFFFFFFFFFFFFFF AND CALLER PUSH20 0xFFFFFFFFFFFFFFFFFFFFFFFFFFFFFFFFFFFFFFFF AND EQ ISZERO PUSH2 0x206A JUMPI PUSH1 0x0 TIMESTAMP SWAP1 POP PUSH1 0x0 PUSH1 0x2 DUP4 DUP2 SLOAD DUP2 LT PUSH2 0x1CBD JUMPI INVALID JUMPDEST SWAP1 PUSH1 0x0 MSTORE PUSH1 0x20 PUSH1 0x0 KECCAK256 SWAP1 PUSH1 0x2 MUL ADD PUSH1 0x1 ADD SLOAD DUP3 SUB SWAP1 POP PUSH1 0xF0 DUP2 GT ISZERO PUSH2 0x1EB5 JUMPI DUP2 PUSH1 0x2 DUP5 DUP2 SLOAD DUP2 LT PUSH2 0x1CEA JUMPI INVALID JUMPDEST SWAP1 PUSH1 0x0 MSTORE PUSH1 0x20 PUSH1 0x0 KECCAK256 SWAP1 PUSH1 0x2 MUL ADD PUSH1 0x1 ADD DUP2 SWAP1 SSTORE POP CALLER PUSH1 0x2 DUP5 DUP2 SLOAD DUP2 LT PUSH2 0x1D0D JUMPI INVALID JUMPDEST SWAP1 PUSH1 0x0 MSTORE PUSH1 0x20 PUSH1 0x0 KECCAK256 SWAP1 PUSH1 0x2 MUL ADD PUSH1 0x1 ADD SLOAD PUSH1 0x40 MLOAD PUSH1 0x20 ADD PUSH2 0x1D30 SWAP3 SWAP2 SWAP1 PUSH2 0x2AAB JUMP JUMPDEST PUSH1 0x40 MLOAD PUSH1 0x20 DUP2 DUP4 SUB SUB DUP2 MSTORE SWAP1 PUSH1 0x40 MSTORE DUP1 MLOAD SWAP1 PUSH1 0x20 ADD KECCAK256 PUSH1 0x4 PUSH1 0x0 PUSH1 0x2 DUP7 DUP2 SLOAD DUP2 LT PUSH2 0x1D57 JUMPI INVALID JUMPDEST SWAP1 PUSH1 0x0 MSTORE PUSH1 0x20 PUSH1 0x0 KECCAK256 SWAP1 PUSH1 0x2 MUL ADD PUSH1 0x0 ADD PUSH1 0x0 SWAP1 SLOAD SWAP1 PUSH2 0x100 EXP SWAP1 DIV PUSH20 0xFFFFFFFFFFFFFFFFFFFFFFFFFFFFFFFFFFFFFFFF AND PUSH20 0xFFFFFFFFFFFFFFFFFFFFFFFFFFFFFFFFFFFFFFFF AND PUSH20 0xFFFFFFFFFFFFFFFFFFFFFFFFFFFFFFFFFFFFFFFF AND DUP2 MSTORE PUSH1 0x20 ADD SWAP1 DUP2 MSTORE PUSH1 0x20 ADD PUSH1 0x0 KECCAK256 DUP2 SWAP1 SSTORE POP PUSH32 0x504E9E94E0C65229AAF8CABE153380CC35DA3135E30129BC3195F7E031CDF82B PUSH1 0x4 PUSH1 0x0 PUSH1 0x2 DUP7 DUP2 SLOAD DUP2 LT PUSH2 0x1DF9 JUMPI INVALID JUMPDEST SWAP1 PUSH1 0x0 MSTORE PUSH1 0x20 PUSH1 0x0 KECCAK256 SWAP1 PUSH1 0x2 MUL ADD PUSH1 0x0 ADD PUSH1 0x0 SWAP1 SLOAD SWAP1 PUSH2 0x100 EXP SWAP1 DIV PUSH20 0xFFFFFFFFFFFFFFFFFFFFFFFFFFFFFFFFFFFFFFFF AND PUSH20 0xFFFFFFFFFFFFFFFFFFFFFFFFFFFFFFFFFFFFFFFF AND PUSH20 0xFFFFFFFFFFFFFFFFFFFFFFFFFFFFFFFFFFFFFFFF AND DUP2 MSTORE PUSH1 0x20 ADD SWAP1 DUP2 MSTORE PUSH1 0x20 ADD PUSH1 0x0 KECCAK256 SLOAD PUSH1 0x40 MLOAD PUSH2 0x1E73 SWAP2 SWAP1 PUSH2 0x2BCB JUMP JUMPDEST PUSH1 0x40 MLOAD DUP1 SWAP2 SUB SWAP1 LOG1 PUSH32 0xB6F921ADE0DE8DA9E62E948D90AE6F2DD6B678679AD77753C75FE1B6D9A72004 PUSH1 0x40 MLOAD PUSH2 0x1EA8 SWAP1 PUSH2 0x2BE6 JUMP JUMPDEST PUSH1 0x40 MLOAD DUP1 SWAP2 SUB SWAP1 LOG1 PUSH2 0x2067 JUMP JUMPDEST CALLER PUSH1 0x2 DUP5 DUP2 SLOAD DUP2 LT PUSH2 0x1EC3 JUMPI INVALID JUMPDEST SWAP1 PUSH1 0x0 MSTORE PUSH1 0x20 PUSH1 0x0 KECCAK256 SWAP1 PUSH1 0x2 MUL ADD PUSH1 0x1 ADD SLOAD PUSH1 0x40 MLOAD PUSH1 0x20 ADD PUSH2 0x1EE6 SWAP3 SWAP2 SWAP1 PUSH2 0x2AAB JUMP JUMPDEST PUSH1 0x40 MLOAD PUSH1 0x20 DUP2 DUP4 SUB SUB DUP2 MSTORE SWAP1 PUSH1 0x40 MSTORE DUP1 MLOAD SWAP1 PUSH1 0x20 ADD KECCAK256 PUSH1 0x4 PUSH1 0x0 PUSH1 0x2 DUP7 DUP2 SLOAD DUP2 LT PUSH2 0x1F0D JUMPI INVALID JUMPDEST SWAP1 PUSH1 0x0 MSTORE PUSH1 0x20 PUSH1 0x0 KECCAK256 SWAP1 PUSH1 0x2 MUL ADD PUSH1 0x0 ADD PUSH1 0x0 SWAP1 SLOAD SWAP1 PUSH2 0x100 EXP SWAP1 DIV PUSH20 0xFFFFFFFFFFFFFFFFFFFFFFFFFFFFFFFFFFFFFFFF AND PUSH20 0xFFFFFFFFFFFFFFFFFFFFFFFFFFFFFFFFFFFFFFFF AND PUSH20 0xFFFFFFFFFFFFFFFFFFFFFFFFFFFFFFFFFFFFFFFF AND DUP2 MSTORE PUSH1 0x20 ADD SWAP1 DUP2 MSTORE PUSH1 0x20 ADD PUSH1 0x0 KECCAK256 DUP2 SWAP1 SSTORE POP PUSH32 0x504E9E94E0C65229AAF8CABE153380CC35DA3135E30129BC3195F7E031CDF82B PUSH1 0x4 PUSH1 0x0 PUSH1 0x2 DUP7 DUP2 SLOAD DUP2 LT PUSH2 0x1FAF JUMPI INVALID JUMPDEST SWAP1 PUSH1 0x0 MSTORE PUSH1 0x20 PUSH1 0x0 KECCAK256 SWAP1 PUSH1 0x2 MUL ADD PUSH1 0x0 ADD PUSH1 0x0 SWAP1 SLOAD SWAP1 PUSH2 0x100 EXP SWAP1 DIV PUSH20 0xFFFFFFFFFFFFFFFFFFFFFFFFFFFFFFFFFFFFFFFF AND PUSH20 0xFFFFFFFFFFFFFFFFFFFFFFFFFFFFFFFFFFFFFFFF AND PUSH20 0xFFFFFFFFFFFFFFFFFFFFFFFFFFFFFFFFFFFFFFFF AND DUP2 MSTORE PUSH1 0x20 ADD SWAP1 DUP2 MSTORE PUSH1 0x20 ADD PUSH1 0x0 KECCAK256 SLOAD PUSH1 0x40 MLOAD PUSH2 0x2029 SWAP2 SWAP1 PUSH2 0x2BCB JUMP JUMPDEST PUSH1 0x40 MLOAD DUP1 SWAP2 SUB SWAP1 LOG1 PUSH32 0xB6F921ADE0DE8DA9E62E948D90AE6F2DD6B678679AD77753C75FE1B6D9A72004 PUSH1 0x40 MLOAD PUSH2 0x205E SWAP1 PUSH2 0x2C06 JUMP JUMPDEST PUSH1 0x40 MLOAD DUP1 SWAP2 SUB SWAP1 LOG1 JUMPDEST POP POP JUMPDEST DUP1 DUP1 PUSH1 0x1 ADD SWAP2 POP POP PUSH2 0x1C2A JUMP JUMPDEST POP JUMP JUMPDEST DUP3 DUP1 SLOAD PUSH1 0x1 DUP2 PUSH1 0x1 AND ISZERO PUSH2 0x100 MUL SUB AND PUSH1 0x2 SWAP1 DIV SWAP1 PUSH1 0x0 MSTORE PUSH1 0x20 PUSH1 0x0 KECCAK256 SWAP1 PUSH1 0x1F ADD PUSH1 0x20 SWAP1 DIV DUP2 ADD SWAP3 DUP3 PUSH1 0x1F LT PUSH2 0x20BB JUMPI DUP1 MLOAD PUSH1 0xFF NOT AND DUP4 DUP1 ADD OR DUP6 SSTORE PUSH2 0x20E9 JUMP JUMPDEST DUP3 DUP1 ADD PUSH1 0x1 ADD DUP6 SSTORE DUP3 ISZERO PUSH2 0x20E9 JUMPI SWAP2 DUP3 ADD JUMPDEST DUP3 DUP2 GT ISZERO PUSH2 0x20E8 JUMPI DUP3 MLOAD DUP3 SSTORE SWAP2 PUSH1 0x20 ADD SWAP2 SWAP1 PUSH1 0x1 ADD SWAP1 PUSH2 0x20CD JUMP JUMPDEST JUMPDEST POP SWAP1 POP PUSH2 0x20F6 SWAP2 SWAP1 PUSH2 0x2399 JUMP JUMPDEST POP SWAP1 JUMP JUMPDEST DUP3 DUP1 SLOAD PUSH1 0x1 DUP2 PUSH1 0x1 AND ISZERO PUSH2 0x100 MUL SUB AND PUSH1 0x2 SWAP1 DIV SWAP1 PUSH1 0x0 MSTORE PUSH1 0x20 PUSH1 0x0 KECCAK256 SWAP1 PUSH1 0x1F ADD PUSH1 0x20 SWAP1 DIV DUP2 ADD SWAP3 DUP3 PUSH1 0x1F LT PUSH2 0x2133 JUMPI DUP1 SLOAD DUP6 SSTORE PUSH2 0x2170 JUMP JUMPDEST DUP3 DUP1 ADD PUSH1 0x1 ADD DUP6 SSTORE DUP3 ISZERO PUSH2 0x2170 JUMPI PUSH1 0x0 MSTORE PUSH1 0x20 PUSH1 0x0 KECCAK256 SWAP2 PUSH1 0x1F ADD PUSH1 0x20 SWAP1 DIV DUP3 ADD JUMPDEST DUP3 DUP2 GT ISZERO PUSH2 0x216F JUMPI DUP3 SLOAD DUP3 SSTORE SWAP2 PUSH1 0x1 ADD SWAP2 SWAP1 PUSH1 0x1 ADD SWAP1 PUSH2 0x2154 JUMP JUMPDEST JUMPDEST POP SWAP1 POP PUSH2 0x217D SWAP2 SWAP1 PUSH2 0x2399 JUMP JUMPDEST POP SWAP1 JUMP JUMPDEST POP DUP1 SLOAD PUSH1 0x1 DUP2 PUSH1 0x1 AND ISZERO PUSH2 0x100 MUL SUB AND PUSH1 0x2 SWAP1 DIV PUSH1 0x0 DUP3 SSTORE DUP1 PUSH1 0x1F LT PUSH2 0x21A7 JUMPI POP PUSH2 0x21C6 JUMP JUMPDEST PUSH1 0x1F ADD PUSH1 0x20 SWAP1 DIV SWAP1 PUSH1 0x0 MSTORE PUSH1 0x20 PUSH1 0x0 KECCAK256 SWAP1 DUP2 ADD SWAP1 PUSH2 0x21C5 SWAP2 SWAP1 PUSH2 0x2399 JUMP JUMPDEST JUMPDEST POP JUMP JUMPDEST PUSH1 0x40 MLOAD DUP1 PUSH1 0x40 ADD PUSH1 0x40 MSTORE DUP1 PUSH1 0x0 PUSH20 0xFFFFFFFFFFFFFFFFFFFFFFFFFFFFFFFFFFFFFFFF AND DUP2 MSTORE PUSH1 0x20 ADD PUSH1 0x0 DUP2 MSTORE POP SWAP1 JUMP JUMPDEST PUSH1 0x40 MLOAD DUP1 PUSH1 0x80 ADD PUSH1 0x40 MSTORE DUP1 PUSH1 0x0 DUP2 MSTORE PUSH1 0x20 ADD PUSH1 0x60 DUP2 MSTORE PUSH1 0x20 ADD PUSH1 0x60 DUP2 MSTORE PUSH1 0x20 ADD PUSH1 0x60 DUP2 MSTORE POP SWAP1 JUMP JUMPDEST DUP3 DUP1 SLOAD DUP3 DUP3 SSTORE SWAP1 PUSH1 0x0 MSTORE PUSH1 0x20 PUSH1 0x0 KECCAK256 SWAP1 DUP2 ADD SWAP3 DUP3 ISZERO PUSH2 0x2270 JUMPI SWAP2 PUSH1 0x20 MUL DUP3 ADD JUMPDEST DUP3 DUP2 GT ISZERO PUSH2 0x226F JUMPI DUP3 MLOAD DUP3 SWAP1 DUP1 MLOAD SWAP1 PUSH1 0x20 ADD SWAP1 PUSH2 0x225F SWAP3 SWAP2 SWAP1 PUSH2 0x207A JUMP JUMPDEST POP SWAP2 PUSH1 0x20 ADD SWAP2 SWAP1 PUSH1 0x1 ADD SWAP1 PUSH2 0x2241 JUMP JUMPDEST JUMPDEST POP SWAP1 POP PUSH2 0x227D SWAP2 SWAP1 PUSH2 0x23B6 JUMP JUMPDEST POP SWAP1 JUMP JUMPDEST DUP3 DUP1 SLOAD PUSH1 0x1 DUP2 PUSH1 0x1 AND ISZERO PUSH2 0x100 MUL SUB AND PUSH1 0x2 SWAP1 DIV SWAP1 PUSH1 0x0 MSTORE PUSH1 0x20 PUSH1 0x0 KECCAK256 SWAP1 PUSH1 0x1F ADD PUSH1 0x20 SWAP1 DIV DUP2 ADD SWAP3 DUP3 PUSH1 0x1F LT PUSH2 0x22BA JUMPI DUP1 SLOAD DUP6 SSTORE PUSH2 0x22F7 JUMP JUMPDEST DUP3 DUP1 ADD PUSH1 0x1 ADD DUP6 SSTORE DUP3 ISZERO PUSH2 0x22F7 JUMPI PUSH1 0x0 MSTORE PUSH1 0x20 PUSH1 0x0 KECCAK256 SWAP2 PUSH1 0x1F ADD PUSH1 0x20 SWAP1 DIV DUP3 ADD JUMPDEST DUP3 DUP2 GT ISZERO PUSH2 0x22F6 JUMPI DUP3 SLOAD DUP3 SSTORE SWAP2 PUSH1 0x1 ADD SWAP2 SWAP1 PUSH1 0x1 ADD SWAP1 PUSH2 0x22DB JUMP JUMPDEST JUMPDEST POP SWAP1 POP PUSH2 0x2304 SWAP2 SWAP1 PUSH2 0x2399 JUMP JUMPDEST POP SWAP1 JUMP JUMPDEST DUP3 DUP1 SLOAD DUP3 DUP3 SSTORE SWAP1 PUSH1 0x0 MSTORE PUSH1 0x20 PUSH1 0x0 KECCAK256 SWAP1 DUP2 ADD SWAP3 DUP3 ISZERO PUSH2 0x2367 JUMPI PUSH1 0x0 MSTORE PUSH1 0x20 PUSH1 0x0 KECCAK256 SWAP2 DUP3 ADD JUMPDEST DUP3 DUP2 GT ISZERO PUSH2 0x2366 JUMPI DUP3 DUP3 SWAP1 DUP1 SLOAD PUSH1 0x1 DUP2 PUSH1 0x1 AND ISZERO PUSH2 0x100 MUL SUB AND PUSH1 0x2 SWAP1 DIV PUSH2 0x2356 SWAP3 SWAP2 SWAP1 PUSH2 0x2281 JUMP JUMPDEST POP SWAP2 PUSH1 0x1 ADD SWAP2 SWAP1 PUSH1 0x1 ADD SWAP1 PUSH2 0x232D JUMP JUMPDEST JUMPDEST POP SWAP1 POP PUSH2 0x2374 SWAP2 SWAP1 PUSH2 0x23B6 JUMP JUMPDEST POP SWAP1 JUMP JUMPDEST POP DUP1 SLOAD PUSH1 0x0 DUP3 SSTORE SWAP1 PUSH1 0x0 MSTORE PUSH1 0x20 PUSH1 0x0 KECCAK256 SWAP1 DUP2 ADD SWAP1 PUSH2 0x2396 SWAP2 SWAP1 PUSH2 0x23B6 JUMP JUMPDEST POP JUMP JUMPDEST JUMPDEST DUP1 DUP3 GT ISZERO PUSH2 0x23B2 JUMPI PUSH1 0x0 DUP2 PUSH1 0x0 SWAP1 SSTORE POP PUSH1 0x1 ADD PUSH2 0x239A JUMP JUMPDEST POP SWAP1 JUMP JUMPDEST JUMPDEST DUP1 DUP3 GT ISZERO PUSH2 0x23D6 JUMPI PUSH1 0x0 DUP2 DUP2 PUSH2 0x23CD SWAP2 SWAP1 PUSH2 0x2181 JUMP JUMPDEST POP PUSH1 0x1 ADD PUSH2 0x23B7 JUMP JUMPDEST POP SWAP1 JUMP JUMPDEST PUSH1 0x0 DUP2 CALLDATALOAD SWAP1 POP PUSH2 0x23E9 DUP2 PUSH2 0x2E84 JUMP JUMPDEST SWAP3 SWAP2 POP POP JUMP JUMPDEST PUSH1 0x0 DUP2 CALLDATALOAD SWAP1 POP PUSH2 0x23FE DUP2 PUSH2 0x2E9B JUMP JUMPDEST SWAP3 SWAP2 POP POP JUMP JUMPDEST PUSH1 0x0 DUP2 CALLDATALOAD SWAP1 POP PUSH2 0x2413 DUP2 PUSH2 0x2EB2 JUMP JUMPDEST SWAP3 SWAP2 POP POP JUMP JUMPDEST PUSH1 0x0 DUP3 PUSH1 0x1F DUP4 ADD SLT PUSH2 0x242A JUMPI PUSH1 0x0 DUP1 REVERT JUMPDEST DUP2 CALLDATALOAD PUSH2 0x243D PUSH2 0x2438 DUP3 PUSH2 0x2C6E JUMP JUMPDEST PUSH2 0x2C41 JUMP JUMPDEST SWAP2 POP DUP1 DUP3 MSTORE PUSH1 0x20 DUP4 ADD PUSH1 0x20 DUP4 ADD DUP6 DUP4 DUP4 ADD GT ISZERO PUSH2 0x2459 JUMPI PUSH1 0x0 DUP1 REVERT JUMPDEST PUSH2 0x2464 DUP4 DUP3 DUP5 PUSH2 0x2DF6 JUMP JUMPDEST POP POP POP SWAP3 SWAP2 POP POP JUMP JUMPDEST PUSH1 0x0 DUP2 CALLDATALOAD SWAP1 POP PUSH2 0x247C DUP2 PUSH2 0x2EC9 JUMP JUMPDEST SWAP3 SWAP2 POP POP JUMP JUMPDEST PUSH1 0x0 PUSH1 0x20 DUP3 DUP5 SUB SLT ISZERO PUSH2 0x2494 JUMPI PUSH1 0x0 DUP1 REVERT JUMPDEST PUSH1 0x0 PUSH2 0x24A2 DUP5 DUP3 DUP6 ADD PUSH2 0x23DA JUMP JUMPDEST SWAP2 POP POP SWAP3 SWAP2 POP POP JUMP JUMPDEST PUSH1 0x0 PUSH1 0x20 DUP3 DUP5 SUB SLT ISZERO PUSH2 0x24BD JUMPI PUSH1 0x0 DUP1 REVERT JUMPDEST PUSH1 0x0 PUSH2 0x24CB DUP5 DUP3 DUP6 ADD PUSH2 0x23EF JUMP JUMPDEST SWAP2 POP POP SWAP3 SWAP2 POP POP JUMP JUMPDEST PUSH1 0x0 DUP1 PUSH1 0x0 PUSH1 0x60 DUP5 DUP7 SUB SLT ISZERO PUSH2 0x24E9 JUMPI PUSH1 0x0 DUP1 REVERT JUMPDEST PUSH1 0x0 PUSH2 0x24F7 DUP7 DUP3 DUP8 ADD PUSH2 0x2404 JUMP JUMPDEST SWAP4 POP POP PUSH1 0x20 PUSH2 0x2508 DUP7 DUP3 DUP8 ADD PUSH2 0x246D JUMP JUMPDEST SWAP3 POP POP PUSH1 0x40 DUP5 ADD CALLDATALOAD PUSH8 0xFFFFFFFFFFFFFFFF DUP2 GT ISZERO PUSH2 0x2525 JUMPI PUSH1 0x0 DUP1 REVERT JUMPDEST PUSH2 0x2531 DUP7 DUP3 DUP8 ADD PUSH2 0x2419 JUMP JUMPDEST SWAP2 POP POP SWAP3 POP SWAP3 POP SWAP3 JUMP JUMPDEST PUSH1 0x0 DUP1 PUSH1 0x0 DUP1 PUSH1 0x80 DUP6 DUP8 SUB SLT ISZERO PUSH2 0x2551 JUMPI PUSH1 0x0 DUP1 REVERT JUMPDEST PUSH1 0x0 PUSH2 0x255F DUP8 DUP3 DUP9 ADD PUSH2 0x2404 JUMP JUMPDEST SWAP5 POP POP PUSH1 0x20 PUSH2 0x2570 DUP8 DUP3 DUP9 ADD PUSH2 0x246D JUMP JUMPDEST SWAP4 POP POP PUSH1 0x40 DUP6 ADD CALLDATALOAD PUSH8 0xFFFFFFFFFFFFFFFF DUP2 GT ISZERO PUSH2 0x258D JUMPI PUSH1 0x0 DUP1 REVERT JUMPDEST PUSH2 0x2599 DUP8 DUP3 DUP9 ADD PUSH2 0x2419 JUMP JUMPDEST SWAP3 POP POP PUSH1 0x60 DUP6 ADD CALLDATALOAD PUSH8 0xFFFFFFFFFFFFFFFF DUP2 GT ISZERO PUSH2 0x25B6 JUMPI PUSH1 0x0 DUP1 REVERT JUMPDEST PUSH2 0x25C2 DUP8 DUP3 DUP9 ADD PUSH2 0x2419 JUMP JUMPDEST SWAP2 POP POP SWAP3 SWAP6 SWAP2 SWAP5 POP SWAP3 POP JUMP JUMPDEST PUSH1 0x0 DUP1 PUSH1 0x40 DUP4 DUP6 SUB SLT ISZERO PUSH2 0x25E1 JUMPI PUSH1 0x0 DUP1 REVERT JUMPDEST PUSH1 0x0 DUP4 ADD CALLDATALOAD PUSH8 0xFFFFFFFFFFFFFFFF DUP2 GT ISZERO PUSH2 0x25FB JUMPI PUSH1 0x0 DUP1 REVERT JUMPDEST PUSH2 0x2607 DUP6 DUP3 DUP7 ADD PUSH2 0x2419 JUMP JUMPDEST SWAP3 POP POP PUSH1 0x20 DUP4 ADD CALLDATALOAD PUSH8 0xFFFFFFFFFFFFFFFF DUP2 GT ISZERO PUSH2 0x2624 JUMPI PUSH1 0x0 DUP1 REVERT JUMPDEST PUSH2 0x2630 DUP6 DUP3 DUP7 ADD PUSH2 0x2419 JUMP JUMPDEST SWAP2 POP POP SWAP3 POP SWAP3 SWAP1 POP JUMP JUMPDEST PUSH1 0x0 PUSH1 0x20 DUP3 DUP5 SUB SLT ISZERO PUSH2 0x264C JUMPI PUSH1 0x0 DUP1 REVERT JUMPDEST PUSH1 0x0 PUSH2 0x265A DUP5 DUP3 DUP6 ADD PUSH2 0x246D JUMP JUMPDEST SWAP2 POP POP SWAP3 SWAP2 POP POP JUMP JUMPDEST PUSH1 0x0 DUP1 PUSH1 0x40 DUP4 DUP6 SUB SLT ISZERO PUSH2 0x2676 JUMPI PUSH1 0x0 DUP1 REVERT JUMPDEST PUSH1 0x0 PUSH2 0x2684 DUP6 DUP3 DUP7 ADD PUSH2 0x246D JUMP JUMPDEST SWAP3 POP POP PUSH1 0x20 DUP4 ADD CALLDATALOAD PUSH8 0xFFFFFFFFFFFFFFFF DUP2 GT ISZERO PUSH2 0x26A1 JUMPI PUSH1 0x0 DUP1 REVERT JUMPDEST PUSH2 0x26AD DUP6 DUP3 DUP7 ADD PUSH2 0x2419 JUMP JUMPDEST SWAP2 POP POP SWAP3 POP SWAP3 SWAP1 POP JUMP JUMPDEST PUSH1 0x0 DUP1 PUSH1 0x0 PUSH1 0x60 DUP5 DUP7 SUB SLT ISZERO PUSH2 0x26CC JUMPI PUSH1 0x0 DUP1 REVERT JUMPDEST PUSH1 0x0 PUSH2 0x26DA DUP7 DUP3 DUP8 ADD PUSH2 0x246D JUMP JUMPDEST SWAP4 POP POP PUSH1 0x20 DUP5 ADD CALLDATALOAD PUSH8 0xFFFFFFFFFFFFFFFF DUP2 GT ISZERO PUSH2 0x26F7 JUMPI PUSH1 0x0 DUP1 REVERT JUMPDEST PUSH2 0x2703 DUP7 DUP3 DUP8 ADD PUSH2 0x2419 JUMP JUMPDEST SWAP3 POP POP PUSH1 0x40 DUP5 ADD CALLDATALOAD PUSH8 0xFFFFFFFFFFFFFFFF DUP2 GT ISZERO PUSH2 0x2720 JUMPI PUSH1 0x0 DUP1 REVERT JUMPDEST PUSH2 0x272C DUP7 DUP3 DUP8 ADD PUSH2 0x2419 JUMP JUMPDEST SWAP2 POP POP SWAP3 POP SWAP3 POP SWAP3 JUMP JUMPDEST PUSH1 0x0 PUSH2 0x2742 DUP4 DUP4 PUSH2 0x27A0 JUMP JUMPDEST PUSH1 0x20 DUP4 ADD SWAP1 POP SWAP3 SWAP2 POP POP JUMP JUMPDEST PUSH1 0x0 PUSH2 0x275A DUP4 DUP4 PUSH2 0x28FE JUMP JUMPDEST SWAP1 POP SWAP3 SWAP2 POP POP JUMP JUMPDEST PUSH1 0x0 PUSH2 0x276E DUP4 DUP4 PUSH2 0x2A76 JUMP JUMPDEST PUSH1 0x20 DUP4 ADD SWAP1 POP SWAP3 SWAP2 POP POP JUMP JUMPDEST PUSH2 0x2783 DUP2 PUSH2 0x2DA4 JUMP JUMPDEST DUP3 MSTORE POP POP JUMP JUMPDEST PUSH2 0x279A PUSH2 0x2795 DUP3 PUSH2 0x2DA4 JUMP JUMPDEST PUSH2 0x2E38 JUMP JUMPDEST DUP3 MSTORE POP POP JUMP JUMPDEST PUSH2 0x27A9 DUP2 PUSH2 0x2D92 JUMP JUMPDEST DUP3 MSTORE POP POP JUMP JUMPDEST PUSH1 0x0 PUSH2 0x27BA DUP3 PUSH2 0x2CDF JUMP JUMPDEST PUSH2 0x27C4 DUP2 DUP6 PUSH2 0x2D32 JUMP JUMPDEST SWAP4 POP PUSH2 0x27CF DUP4 PUSH2 0x2C9A JUMP JUMPDEST DUP1 PUSH1 0x0 JUMPDEST DUP4 DUP2 LT ISZERO PUSH2 0x2800 JUMPI DUP2 MLOAD PUSH2 0x27E7 DUP9 DUP3 PUSH2 0x2736 JUMP JUMPDEST SWAP8 POP PUSH2 0x27F2 DUP4 PUSH2 0x2D0B JUMP JUMPDEST SWAP3 POP POP PUSH1 0x1 DUP2 ADD SWAP1 POP PUSH2 0x27D3 JUMP JUMPDEST POP DUP6 SWAP4 POP POP POP POP SWAP3 SWAP2 POP POP JUMP JUMPDEST PUSH1 0x0 PUSH2 0x2818 DUP3 PUSH2 0x2CEA JUMP JUMPDEST PUSH2 0x2822 DUP2 DUP6 PUSH2 0x2D43 JUMP JUMPDEST SWAP4 POP DUP4 PUSH1 0x20 DUP3 MUL DUP6 ADD PUSH2 0x2834 DUP6 PUSH2 0x2CAA JUMP JUMPDEST DUP1 PUSH1 0x0 JUMPDEST DUP6 DUP2 LT ISZERO PUSH2 0x2870 JUMPI DUP5 DUP5 SUB DUP10 MSTORE DUP2 MLOAD PUSH2 0x2851 DUP6 DUP3 PUSH2 0x274E JUMP JUMPDEST SWAP5 POP PUSH2 0x285C DUP4 PUSH2 0x2D18 JUMP JUMPDEST SWAP3 POP PUSH1 0x20 DUP11 ADD SWAP10 POP POP PUSH1 0x1 DUP2 ADD SWAP1 POP PUSH2 0x2838 JUMP JUMPDEST POP DUP3 SWAP8 POP DUP8 SWAP6 POP POP POP POP POP POP SWAP3 SWAP2 POP POP JUMP JUMPDEST PUSH1 0x0 PUSH2 0x288D DUP3 PUSH2 0x2CF5 JUMP JUMPDEST PUSH2 0x2897 DUP2 DUP6 PUSH2 0x2D54 JUMP JUMPDEST SWAP4 POP PUSH2 0x28A2 DUP4 PUSH2 0x2CBA JUMP JUMPDEST DUP1 PUSH1 0x0 JUMPDEST DUP4 DUP2 LT ISZERO PUSH2 0x28D3 JUMPI DUP2 MLOAD PUSH2 0x28BA DUP9 DUP3 PUSH2 0x2762 JUMP JUMPDEST SWAP8 POP PUSH2 0x28C5 DUP4 PUSH2 0x2D25 JUMP JUMPDEST SWAP3 POP POP PUSH1 0x1 DUP2 ADD SWAP1 POP PUSH2 0x28A6 JUMP JUMPDEST POP DUP6 SWAP4 POP POP POP POP SWAP3 SWAP2 POP POP JUMP JUMPDEST PUSH2 0x28E9 DUP2 PUSH2 0x2DB6 JUMP JUMPDEST DUP3 MSTORE POP POP JUMP JUMPDEST PUSH2 0x28F8 DUP2 PUSH2 0x2DC2 JUMP JUMPDEST DUP3 MSTORE POP POP JUMP JUMPDEST PUSH1 0x0 PUSH2 0x2909 DUP3 PUSH2 0x2D00 JUMP JUMPDEST PUSH2 0x2913 DUP2 DUP6 PUSH2 0x2D65 JUMP JUMPDEST SWAP4 POP PUSH2 0x2923 DUP2 DUP6 PUSH1 0x20 DUP7 ADD PUSH2 0x2E05 JUMP JUMPDEST PUSH2 0x292C DUP2 PUSH2 0x2E66 JUMP JUMPDEST DUP5 ADD SWAP2 POP POP SWAP3 SWAP2 POP POP JUMP JUMPDEST PUSH1 0x0 PUSH2 0x2942 DUP3 PUSH2 0x2D00 JUMP JUMPDEST PUSH2 0x294C DUP2 DUP6 PUSH2 0x2D87 JUMP JUMPDEST SWAP4 POP PUSH2 0x295C DUP2 DUP6 PUSH1 0x20 DUP7 ADD PUSH2 0x2E05 JUMP JUMPDEST DUP1 DUP5 ADD SWAP2 POP POP SWAP3 SWAP2 POP POP JUMP JUMPDEST PUSH1 0x0 DUP2 SLOAD PUSH1 0x1 DUP2 AND PUSH1 0x0 DUP2 EQ PUSH2 0x2985 JUMPI PUSH1 0x1 DUP2 EQ PUSH2 0x29AA JUMPI PUSH2 0x29EE JUMP JUMPDEST PUSH1 0x7F PUSH1 0x2 DUP4 DIV AND PUSH2 0x2996 DUP2 DUP8 PUSH2 0x2D87 JUMP JUMPDEST SWAP6 POP PUSH1 0xFF NOT DUP4 AND DUP7 MSTORE DUP1 DUP7 ADD SWAP4 POP POP PUSH2 0x29EE JUMP JUMPDEST PUSH1 0x2 DUP3 DIV PUSH2 0x29B8 DUP2 DUP8 PUSH2 0x2D87 JUMP JUMPDEST SWAP6 POP PUSH2 0x29C3 DUP6 PUSH2 0x2CCA JUMP JUMPDEST PUSH1 0x0 JUMPDEST DUP3 DUP2 LT ISZERO PUSH2 0x29E5 JUMPI DUP2 SLOAD DUP2 DUP10 ADD MSTORE PUSH1 0x1 DUP3 ADD SWAP2 POP PUSH1 0x20 DUP2 ADD SWAP1 POP PUSH2 0x29C6 JUMP JUMPDEST DUP3 DUP9 ADD SWAP6 POP POP POP POP JUMPDEST POP POP SWAP3 SWAP2 POP POP JUMP JUMPDEST PUSH1 0x0 PUSH2 0x2A03 PUSH1 0xC DUP4 PUSH2 0x2D76 JUMP JUMPDEST SWAP2 POP PUSH32 0x746F6B656E206469756261680000000000000000000000000000000000000000 PUSH1 0x0 DUP4 ADD MSTORE PUSH1 0x20 DUP3 ADD SWAP1 POP SWAP2 SWAP1 POP JUMP JUMPDEST PUSH1 0x0 PUSH2 0x2A43 PUSH1 0x12 DUP4 PUSH2 0x2D76 JUMP JUMPDEST SWAP2 POP PUSH32 0x746F6B656E20746964616B206469756261680000000000000000000000000000 PUSH1 0x0 DUP4 ADD MSTORE PUSH1 0x20 DUP3 ADD SWAP1 POP SWAP2 SWAP1 POP JUMP JUMPDEST PUSH2 0x2A7F DUP2 PUSH2 0x2DEC JUMP JUMPDEST DUP3 MSTORE POP POP JUMP JUMPDEST PUSH2 0x2A8E DUP2 PUSH2 0x2DEC JUMP JUMPDEST DUP3 MSTORE POP POP JUMP JUMPDEST PUSH2 0x2AA5 PUSH2 0x2AA0 DUP3 PUSH2 0x2DEC JUMP JUMPDEST PUSH2 0x2E5C JUMP JUMPDEST DUP3 MSTORE POP POP JUMP JUMPDEST PUSH1 0x0 PUSH2 0x2AB7 DUP3 DUP6 PUSH2 0x2789 JUMP JUMPDEST PUSH1 0x14 DUP3 ADD SWAP2 POP PUSH2 0x2AC7 DUP3 DUP5 PUSH2 0x2A94 JUMP JUMPDEST PUSH1 0x20 DUP3 ADD SWAP2 POP DUP2 SWAP1 POP SWAP4 SWAP3 POP POP POP JUMP JUMPDEST PUSH1 0x0 PUSH2 0x2AE3 DUP3 DUP5 PUSH2 0x2937 JUMP JUMPDEST SWAP2 POP DUP2 SWAP1 POP SWAP3 SWAP2 POP POP JUMP JUMPDEST PUSH1 0x0 PUSH2 0x2AFA DUP3 DUP5 PUSH2 0x2968 JUMP JUMPDEST SWAP2 POP DUP2 SWAP1 POP SWAP3 SWAP2 POP POP JUMP JUMPDEST PUSH1 0x0 PUSH1 0x20 DUP3 ADD SWAP1 POP PUSH2 0x2B1A PUSH1 0x0 DUP4 ADD DUP5 PUSH2 0x277A JUMP JUMPDEST SWAP3 SWAP2 POP POP JUMP JUMPDEST PUSH1 0x0 PUSH1 0x20 DUP3 ADD SWAP1 POP DUP2 DUP2 SUB PUSH1 0x0 DUP4 ADD MSTORE PUSH2 0x2B3A DUP2 DUP5 PUSH2 0x27AF JUMP JUMPDEST SWAP1 POP SWAP3 SWAP2 POP POP JUMP JUMPDEST PUSH1 0x0 PUSH1 0x20 DUP3 ADD SWAP1 POP DUP2 DUP2 SUB PUSH1 0x0 DUP4 ADD MSTORE PUSH2 0x2B5C DUP2 DUP5 PUSH2 0x280D JUMP JUMPDEST SWAP1 POP SWAP3 SWAP2 POP POP JUMP JUMPDEST PUSH1 0x0 PUSH1 0x60 DUP3 ADD SWAP1 POP DUP2 DUP2 SUB PUSH1 0x0 DUP4 ADD MSTORE PUSH2 0x2B7E DUP2 DUP7 PUSH2 0x2882 JUMP JUMPDEST SWAP1 POP DUP2 DUP2 SUB PUSH1 0x20 DUP4 ADD MSTORE PUSH2 0x2B92 DUP2 DUP6 PUSH2 0x280D JUMP JUMPDEST SWAP1 POP DUP2 DUP2 SUB PUSH1 0x40 DUP4 ADD MSTORE PUSH2 0x2BA6 DUP2 DUP5 PUSH2 0x280D JUMP JUMPDEST SWAP1 POP SWAP5 SWAP4 POP POP POP POP JUMP JUMPDEST PUSH1 0x0 PUSH1 0x20 DUP3 ADD SWAP1 POP PUSH2 0x2BC5 PUSH1 0x0 DUP4 ADD DUP5 PUSH2 0x28E0 JUMP JUMPDEST SWAP3 SWAP2 POP POP JUMP JUMPDEST PUSH1 0x0 PUSH1 0x20 DUP3 ADD SWAP1 POP PUSH2 0x2BE0 PUSH1 0x0 DUP4 ADD DUP5 PUSH2 0x28EF JUMP JUMPDEST SWAP3 SWAP2 POP POP JUMP JUMPDEST PUSH1 0x0 PUSH1 0x20 DUP3 ADD SWAP1 POP DUP2 DUP2 SUB PUSH1 0x0 DUP4 ADD MSTORE PUSH2 0x2BFF DUP2 PUSH2 0x29F6 JUMP JUMPDEST SWAP1 POP SWAP2 SWAP1 POP JUMP JUMPDEST PUSH1 0x0 PUSH1 0x20 DUP3 ADD SWAP1 POP DUP2 DUP2 SUB PUSH1 0x0 DUP4 ADD MSTORE PUSH2 0x2C1F DUP2 PUSH2 0x2A36 JUMP JUMPDEST SWAP1 POP SWAP2 SWAP1 POP JUMP JUMPDEST PUSH1 0x0 PUSH1 0x20 DUP3 ADD SWAP1 POP PUSH2 0x2C3B PUSH1 0x0 DUP4 ADD DUP5 PUSH2 0x2A85 JUMP JUMPDEST SWAP3 SWAP2 POP POP JUMP JUMPDEST PUSH1 0x0 PUSH1 0x40 MLOAD SWAP1 POP DUP2 DUP2 ADD DUP2 DUP2 LT PUSH8 0xFFFFFFFFFFFFFFFF DUP3 GT OR ISZERO PUSH2 0x2C64 JUMPI PUSH1 0x0 DUP1 REVERT JUMPDEST DUP1 PUSH1 0x40 MSTORE POP SWAP2 SWAP1 POP JUMP JUMPDEST PUSH1 0x0 PUSH8 0xFFFFFFFFFFFFFFFF DUP3 GT ISZERO PUSH2 0x2C85 JUMPI PUSH1 0x0 DUP1 REVERT JUMPDEST PUSH1 0x1F NOT PUSH1 0x1F DUP4 ADD AND SWAP1 POP PUSH1 0x20 DUP2 ADD SWAP1 POP SWAP2 SWAP1 POP JUMP JUMPDEST PUSH1 0x0 DUP2 SWAP1 POP PUSH1 0x20 DUP3 ADD SWAP1 POP SWAP2 SWAP1 POP JUMP JUMPDEST PUSH1 0x0 DUP2 SWAP1 POP PUSH1 0x20 DUP3 ADD SWAP1 POP SWAP2 SWAP1 POP JUMP JUMPDEST PUSH1 0x0 DUP2 SWAP1 POP PUSH1 0x20 DUP3 ADD SWAP1 POP SWAP2 SWAP1 POP JUMP JUMPDEST PUSH1 0x0 DUP2 SWAP1 POP DUP2 PUSH1 0x0 MSTORE PUSH1 0x20 PUSH1 0x0 KECCAK256 SWAP1 POP SWAP2 SWAP1 POP JUMP JUMPDEST PUSH1 0x0 DUP2 MLOAD SWAP1 POP SWAP2 SWAP1 POP JUMP JUMPDEST PUSH1 0x0 DUP2 MLOAD SWAP1 POP SWAP2 SWAP1 POP JUMP JUMPDEST PUSH1 0x0 DUP2 MLOAD SWAP1 POP SWAP2 SWAP1 POP JUMP JUMPDEST PUSH1 0x0 DUP2 MLOAD SWAP1 POP SWAP2 SWAP1 POP JUMP JUMPDEST PUSH1 0x0 PUSH1 0x20 DUP3 ADD SWAP1 POP SWAP2 SWAP1 POP JUMP JUMPDEST PUSH1 0x0 PUSH1 0x20 DUP3 ADD SWAP1 POP SWAP2 SWAP1 POP JUMP JUMPDEST PUSH1 0x0 PUSH1 0x20 DUP3 ADD SWAP1 POP SWAP2 SWAP1 POP JUMP JUMPDEST PUSH1 0x0 DUP3 DUP3 MSTORE PUSH1 0x20 DUP3 ADD SWAP1 POP SWAP3 SWAP2 POP POP JUMP JUMPDEST PUSH1 0x0 DUP3 DUP3 MSTORE PUSH1 0x20 DUP3 ADD SWAP1 POP SWAP3 SWAP2 POP POP JUMP JUMPDEST PUSH1 0x0 DUP3 DUP3 MSTORE PUSH1 0x20 DUP3 ADD SWAP1 POP SWAP3 SWAP2 POP POP JUMP JUMPDEST PUSH1 0x0 DUP3 DUP3 MSTORE PUSH1 0x20 DUP3 ADD SWAP1 POP SWAP3 SWAP2 POP POP JUMP JUMPDEST PUSH1 0x0 DUP3 DUP3 MSTORE PUSH1 0x20 DUP3 ADD SWAP1 POP SWAP3 SWAP2 POP POP JUMP JUMPDEST PUSH1 0x0 DUP2 SWAP1 POP SWAP3 SWAP2 POP POP JUMP JUMPDEST PUSH1 0x0 PUSH2 0x2D9D DUP3 PUSH2 0x2DCC JUMP JUMPDEST SWAP1 POP SWAP2 SWAP1 POP JUMP JUMPDEST PUSH1 0x0 PUSH2 0x2DAF DUP3 PUSH2 0x2DCC JUMP JUMPDEST SWAP1 POP SWAP2 SWAP1 POP JUMP JUMPDEST PUSH1 0x0 DUP2 ISZERO ISZERO SWAP1 POP SWAP2 SWAP1 POP JUMP JUMPDEST PUSH1 0x0 DUP2 SWAP1 POP SWAP2 SWAP1 POP JUMP JUMPDEST PUSH1 0x0 PUSH20 0xFFFFFFFFFFFFFFFFFFFFFFFFFFFFFFFFFFFFFFFF DUP3 AND SWAP1 POP SWAP2 SWAP1 POP JUMP JUMPDEST PUSH1 0x0 DUP2 SWAP1 POP SWAP2 SWAP1 POP JUMP JUMPDEST DUP3 DUP2 DUP4 CALLDATACOPY PUSH1 0x0 DUP4 DUP4 ADD MSTORE POP POP POP JUMP JUMPDEST PUSH1 0x0 JUMPDEST DUP4 DUP2 LT ISZERO PUSH2 0x2E23 JUMPI DUP1 DUP3 ADD MLOAD DUP2 DUP5 ADD MSTORE PUSH1 0x20 DUP2 ADD SWAP1 POP PUSH2 0x2E08 JUMP JUMPDEST DUP4 DUP2 GT ISZERO PUSH2 0x2E32 JUMPI PUSH1 0x0 DUP5 DUP5 ADD MSTORE JUMPDEST POP POP POP POP JUMP JUMPDEST PUSH1 0x0 PUSH2 0x2E43 DUP3 PUSH2 0x2E4A JUMP JUMPDEST SWAP1 POP SWAP2 SWAP1 POP JUMP JUMPDEST PUSH1 0x0 PUSH2 0x2E55 DUP3 PUSH2 0x2E77 JUMP JUMPDEST SWAP1 POP SWAP2 SWAP1 POP JUMP JUMPDEST PUSH1 0x0 DUP2 SWAP1 POP SWAP2 SWAP1 POP JUMP JUMPDEST PUSH1 0x0 PUSH1 0x1F NOT PUSH1 0x1F DUP4 ADD AND SWAP1 POP SWAP2 SWAP1 POP JUMP JUMPDEST PUSH1 0x0 DUP2 PUSH1 0x60 SHL SWAP1 POP SWAP2 SWAP1 POP JUMP JUMPDEST PUSH2 0x2E8D DUP2 PUSH2 0x2D92 JUMP JUMPDEST DUP2 EQ PUSH2 0x2E98 JUMPI PUSH1 0x0 DUP1 REVERT JUMPDEST POP JUMP JUMPDEST PUSH2 0x2EA4 DUP2 PUSH2 0x2DA4 JUMP JUMPDEST DUP2 EQ PUSH2 0x2EAF JUMPI PUSH1 0x0 DUP1 REVERT JUMPDEST POP JUMP JUMPDEST PUSH2 0x2EBB DUP2 PUSH2 0x2DC2 JUMP JUMPDEST DUP2 EQ PUSH2 0x2EC6 JUMPI PUSH1 0x0 DUP1 REVERT JUMPDEST POP JUMP JUMPDEST PUSH2 0x2ED2 DUP2 PUSH2 0x2DEC JUMP JUMPDEST DUP2 EQ PUSH2 0x2EDD JUMPI PUSH1 0x0 DUP1 REVERT JUMPDEST POP JUMP INVALID LOG2 PUSH5 0x6970667358 0x22 SLT KECCAK256 ADDRESS LOG0 0x2F PUSH13 0x9C5F0715AAC9B6468EE2E57E2C 0x2D SELFBALANCE 0xF9 SWAP16 0x4D NOT 0xB7 0xE1 0x4E 0xA9 0xC5 SWAP16 GASPRICE 0xC SWAP16 PUSH5 0x736F6C6343 STOP MOD 0xC STOP CALLER "
    },
    "gasEstimates": {
      "creation": {
        "codeDepositCost": "2410800",
        "executionCost": "38498",
        "totalCost": "2449298"
      },
      "external": {
        "addBroker(address)": "105184",
        "addClient(string,string)": "infinite",
        "addTopic(uint256,string)": "infinite",
        "authenticate(bytes32,uint256,string,string)": "infinite",
        "authorize(bytes32,uint256,string)": "infinite",
        "deleteBroker(address)": "infinite",
        "deleteClient(uint256)": "infinite",
        "deleteTopic(uint256,string)": "infinite",
        "getBroker()": "infinite",
        "getBrokerToken(address)": "2435",
        "getBrokersCount()": "2030",
        "getClients()": "infinite",
        "getClientsCount()": "2075",
        "getTopic(uint256)": "infinite",
        "manager()": "1278",
        "refreshToken()": "infinite",
        "updateTopic(uint256,string,string)": "infinite"
      }
    },
    "methodIdentifiers": {
      "addBroker(address)": "836cae65",
      "addClient(string,string)": "98173ff4",
      "addTopic(uint256,string)": "3276807a",
      "authenticate(bytes32,uint256,string,string)": "e58da61f",
      "authorize(bytes32,uint256,string)": "7909ce47",
      "deleteBroker(address)": "1ee32b05",
      "deleteClient(uint256)": "a9cb1a36",
      "deleteTopic(uint256,string)": "42bb20e1",
      "getBroker()": "d1314ee0",
      "getBrokerToken(address)": "0344248b",
      "getBrokersCount()": "416a5d81",
      "getClients()": "6db80995",
      "getClientsCount()": "30a66294",
      "getTopic(uint256)": "71658896",
      "manager()": "481c6a75",
      "refreshToken()": "fa6a04e4",
      "updateTopic(uint256,string,string)": "e8e5339a"
    }
  },
  "storageLayout": {
    "storage": [
      {
        "astId": 4,
        "contract": "Mqttbaru.sol:Mqttbaru",
        "label": "manager",
        "offset": 0,
        "slot": "0",
        "type": "t_address_payable"
      },
      {
        "astId": 22,
        "contract": "Mqttbaru.sol:Mqttbaru",
        "label": "clientLedger",
        "offset": 0,
        "slot": "1",
        "type": "t_array(t_struct(Client)14_storage)dyn_storage"
      },
      {
        "astId": 25,
        "contract": "Mqttbaru.sol:Mqttbaru",
        "label": "brokerAddress",
        "offset": 0,
        "slot": "2",
        "type": "t_array(t_struct(Broker)19_storage)dyn_storage"
      },
      {
        "astId": 29,
        "contract": "Mqttbaru.sol:Mqttbaru",
        "label": "brokerValidity",
        "offset": 0,
        "slot": "3",
        "type": "t_mapping(t_address,t_bool)"
      },
      {
        "astId": 33,
        "contract": "Mqttbaru.sol:Mqttbaru",
        "label": "tokenSlots",
        "offset": 0,
        "slot": "4",
        "type": "t_mapping(t_address,t_bytes32)"
      },
      {
        "astId": 35,
        "contract": "Mqttbaru.sol:Mqttbaru",
        "label": "clientCount",
        "offset": 0,
        "slot": "5",
        "type": "t_uint256"
      },
      {
        "astId": 37,
        "contract": "Mqttbaru.sol:Mqttbaru",
        "label": "brokerCount",
        "offset": 0,
        "slot": "6",
        "type": "t_uint256"
      },
      {
        "astId": 39,
        "contract": "Mqttbaru.sol:Mqttbaru",
        "label": "idCount",
        "offset": 0,
        "slot": "7",
        "type": "t_uint256"
      }
    ],
    "types": {
      "t_address": {
        "encoding": "inplace",
        "label": "address",
        "numberOfBytes": "20"
      },
      "t_address_payable": {
        "encoding": "inplace",
        "label": "address payable",
        "numberOfBytes": "20"
      },
      "t_array(t_string_storage)dyn_storage": {
        "base": "t_string_storage",
        "encoding": "dynamic_array",
        "label": "string[]",
        "numberOfBytes": "32"
      },
      "t_array(t_struct(Broker)19_storage)dyn_storage": {
        "base": "t_struct(Broker)19_storage",
        "encoding": "dynamic_array",
        "label": "struct Mqttbaru.Broker[]",
        "numberOfBytes": "32"
      },
      "t_array(t_struct(Client)14_storage)dyn_storage": {
        "base": "t_struct(Client)14_storage",
        "encoding": "dynamic_array",
        "label": "struct Mqttbaru.Client[]",
        "numberOfBytes": "32"
      },
      "t_bool": {
        "encoding": "inplace",
        "label": "bool",
        "numberOfBytes": "1"
      },
      "t_bytes32": {
        "encoding": "inplace",
        "label": "bytes32",
        "numberOfBytes": "32"
      },
      "t_mapping(t_address,t_bool)": {
        "encoding": "mapping",
        "key": "t_address",
        "label": "mapping(address => bool)",
        "numberOfBytes": "32",
        "value": "t_bool"
      },
      "t_mapping(t_address,t_bytes32)": {
        "encoding": "mapping",
        "key": "t_address",
        "label": "mapping(address => bytes32)",
        "numberOfBytes": "32",
        "value": "t_bytes32"
      },
      "t_string_storage": {
        "encoding": "bytes",
        "label": "string",
        "numberOfBytes": "32"
      },
      "t_struct(Broker)19_storage": {
        "encoding": "inplace",
        "label": "struct Mqttbaru.Broker",
        "members": [
          {
            "astId": 16,
            "contract": "Mqttbaru.sol:Mqttbaru",
            "label": "broker_address",
            "offset": 0,
            "slot": "0",
            "type": "t_address_payable"
          },
          {
            "astId": 18,
            "contract": "Mqttbaru.sol:Mqttbaru",
            "label": "timestamp",
            "offset": 0,
            "slot": "1",
            "type": "t_uint256"
          }
        ],
        "numberOfBytes": "64"
      },
      "t_struct(Client)14_storage": {
        "encoding": "inplace",
        "label": "struct Mqttbaru.Client",
        "members": [
          {
            "astId": 6,
            "contract": "Mqttbaru.sol:Mqttbaru",
            "label": "id",
            "offset": 0,
            "slot": "0",
            "type": "t_uint256"
          },
          {
            "astId": 8,
            "contract": "Mqttbaru.sol:Mqttbaru",
            "label": "username",
            "offset": 0,
            "slot": "1",
            "type": "t_string_storage"
          },
          {
            "astId": 10,
            "contract": "Mqttbaru.sol:Mqttbaru",
            "label": "password",
            "offset": 0,
            "slot": "2",
            "type": "t_string_storage"
          },
          {
            "astId": 13,
            "contract": "Mqttbaru.sol:Mqttbaru",
            "label": "topic",
            "offset": 0,
            "slot": "3",
            "type": "t_array(t_string_storage)dyn_storage"
          }
        ],
        "numberOfBytes": "128"
      },
      "t_uint256": {
        "encoding": "inplace",
        "label": "uint256",
        "numberOfBytes": "32"
      }
    }
  },
  "userdoc": {
    "kind": "user",
    "methods": {},
    "version": 1
  }
}