{
  "abi": [
    {
      "inputs": [],
      "stateMutability": "nonpayable",
      "type": "constructor"
    },
    {
      "anonymous": false,
      "inputs": [
        {
          "indexed": false,
          "internalType": "string",
          "name": "logerror",
          "type": "string"
        }
      ],
      "name": "check",
      "type": "event"
    },
    {
      "anonymous": false,
      "inputs": [
        {
          "indexed": false,
          "internalType": "bytes32",
          "name": "_tokenreturn",
          "type": "bytes32"
        }
      ],
      "name": "ref_token",
      "type": "event"
    },
    {
      "inputs": [
        {
          "internalType": "address payable",
          "name": "_brokeraddress",
          "type": "address"
        }
      ],
      "name": "addBroker",
      "outputs": [],
      "stateMutability": "nonpayable",
      "type": "function"
    },
    {
      "inputs": [
        {
          "internalType": "string",
          "name": "_username",
          "type": "string"
        },
        {
          "internalType": "string",
          "name": "_password",
          "type": "string"
        }
      ],
      "name": "addClient",
      "outputs": [],
      "stateMutability": "nonpayable",
      "type": "function"
    },
    {
      "inputs": [
        {
          "internalType": "uint256",
          "name": "_id",
          "type": "uint256"
        },
        {
          "internalType": "string",
          "name": "_topic",
          "type": "string"
        }
      ],
      "name": "addTopic",
      "outputs": [],
      "stateMutability": "nonpayable",
      "type": "function"
    },
    {
      "inputs": [
        {
          "internalType": "bytes32",
          "name": "_token",
          "type": "bytes32"
        },
        {
          "internalType": "uint256",
          "name": "_id",
          "type": "uint256"
        },
        {
          "internalType": "string",
          "name": "_username",
          "type": "string"
        },
        {
          "internalType": "string",
          "name": "_password",
          "type": "string"
        }
      ],
      "name": "authenticate",
      "outputs": [
        {
          "internalType": "bool",
          "name": "",
          "type": "bool"
        }
      ],
      "stateMutability": "view",
      "type": "function"
    },
    {
      "inputs": [
        {
          "internalType": "bytes32",
          "name": "_token",
          "type": "bytes32"
        },
        {
          "internalType": "uint256",
          "name": "_id",
          "type": "uint256"
        },
        {
          "internalType": "string",
          "name": "_topic",
          "type": "string"
        }
      ],
      "name": "authorize",
      "outputs": [
        {
          "internalType": "bool",
          "name": "",
          "type": "bool"
        }
      ],
      "stateMutability": "view",
      "type": "function"
    },
    {
      "inputs": [
        {
          "internalType": "address payable",
          "name": "_brokeraddress",
          "type": "address"
        }
      ],
      "name": "deleteBroker",
      "outputs": [],
      "stateMutability": "nonpayable",
      "type": "function"
    },
    {
      "inputs": [
        {
          "internalType": "uint256",
          "name": "_id",
          "type": "uint256"
        }
      ],
      "name": "deleteClient",
      "outputs": [],
      "stateMutability": "nonpayable",
      "type": "function"
    },
    {
      "inputs": [
        {
          "internalType": "uint256",
          "name": "_id",
          "type": "uint256"
        },
        {
          "internalType": "string",
          "name": "_topic",
          "type": "string"
        }
      ],
      "name": "deleteTopic",
      "outputs": [],
      "stateMutability": "nonpayable",
      "type": "function"
    },
    {
      "inputs": [],
      "name": "getBroker",
      "outputs": [
        {
          "internalType": "address[]",
          "name": "",
          "type": "address[]"
        }
      ],
      "stateMutability": "view",
      "type": "function"
    },
    {
      "inputs": [
        {
          "internalType": "address",
          "name": "_address",
          "type": "address"
        }
      ],
      "name": "getBrokerToken",
      "outputs": [
        {
          "internalType": "bytes32",
          "name": "",
          "type": "bytes32"
        }
      ],
      "stateMutability": "view",
      "type": "function"
    },
    {
      "inputs": [],
      "name": "getBrokersCount",
      "outputs": [
        {
          "internalType": "uint256",
          "name": "",
          "type": "uint256"
        }
      ],
      "stateMutability": "view",
      "type": "function"
    },
    {
      "inputs": [],
      "name": "getClients",
      "outputs": [
        {
          "internalType": "uint256[]",
          "name": "",
          "type": "uint256[]"
        },
        {
          "internalType": "string[]",
          "name": "",
          "type": "string[]"
        },
        {
          "internalType": "string[]",
          "name": "",
          "type": "string[]"
        }
      ],
      "stateMutability": "view",
      "type": "function"
    },
    {
      "inputs": [],
      "name": "getClientsCount",
      "outputs": [
        {
          "internalType": "uint256",
          "name": "",
          "type": "uint256"
        }
      ],
      "stateMutability": "view",
      "type": "function"
    },
    {
      "inputs": [],
      "name": "getLog",
      "outputs": [
        {
          "internalType": "uint256[]",
          "name": "",
          "type": "uint256[]"
        },
        {
          "internalType": "string[]",
          "name": "",
          "type": "string[]"
        },
        {
          "internalType": "string[]",
          "name": "",
          "type": "string[]"
        },
        {
          "internalType": "address[]",
          "name": "",
          "type": "address[]"
        }
      ],
      "stateMutability": "view",
      "type": "function"
    },
    {
      "inputs": [
        {
          "internalType": "uint256",
          "name": "_id",
          "type": "uint256"
        }
      ],
      "name": "getTopic",
      "outputs": [
        {
          "internalType": "string[]",
          "name": "",
          "type": "string[]"
        }
      ],
      "stateMutability": "view",
      "type": "function"
    },
    {
      "inputs": [],
      "name": "manager",
      "outputs": [
        {
          "internalType": "address payable",
          "name": "",
          "type": "address"
        }
      ],
      "stateMutability": "view",
      "type": "function"
    },
    {
      "inputs": [],
      "name": "refreshToken",
      "outputs": [],
      "stateMutability": "nonpayable",
      "type": "function"
    },
    {
      "inputs": [
        {
          "internalType": "uint256",
          "name": "_id",
          "type": "uint256"
        },
        {
          "internalType": "string",
          "name": "_topic",
          "type": "string"
        },
        {
          "internalType": "string",
          "name": "_newtopic",
          "type": "string"
        }
      ],
      "name": "updateTopic",
      "outputs": [],
      "stateMutability": "nonpayable",
      "type": "function"
    }
  ],
  "devdoc": {
    "kind": "dev",
    "methods": {},
    "version": 1
  },
  "evm": {
    "assembly": "    /* \"Mqttbaru.sol\":97:10920  contract Mqttbaru {\r... */\n  mstore(0x40, 0x80)\n    /* \"Mqttbaru.sol\":873:1031  constructor () public {\r... */\n  callvalue\n  dup1\n  iszero\n  tag_1\n  jumpi\n  0x00\n  dup1\n  revert\ntag_1:\n  pop\n    /* \"Mqttbaru.sol\":916:926  msg.sender */\n  caller\n    /* \"Mqttbaru.sol\":906:913  manager */\n  0x00\n  dup1\n    /* \"Mqttbaru.sol\":906:926  manager = msg.sender */\n  0x0100\n  exp\n  dup2\n  sload\n  dup2\n  0xffffffffffffffffffffffffffffffffffffffff\n  mul\n  not\n  and\n  swap1\n  dup4\n  0xffffffffffffffffffffffffffffffffffffffff\n  and\n  mul\n  or\n  swap1\n  sstore\n  pop\n    /* \"Mqttbaru.sol\":951:952  0 */\n  0x00\n    /* \"Mqttbaru.sol\":937:948  clientCount */\n  0x06\n    /* \"Mqttbaru.sol\":937:952  clientCount = 0 */\n  dup2\n  swap1\n  sstore\n  pop\n    /* \"Mqttbaru.sol\":977:978  0 */\n  0x00\n    /* \"Mqttbaru.sol\":963:974  brokerCount */\n  0x07\n    /* \"Mqttbaru.sol\":963:978  brokerCount = 0 */\n  dup2\n  swap1\n  sstore\n  pop\n    /* \"Mqttbaru.sol\":999:1000  0 */\n  0x00\n    /* \"Mqttbaru.sol\":989:996  idCount */\n  0x08\n    /* \"Mqttbaru.sol\":989:1000  idCount = 0 */\n  dup2\n  swap1\n  sstore\n  pop\n    /* \"Mqttbaru.sol\":1022:1023  0 */\n  0x00\n    /* \"Mqttbaru.sol\":1011:1019  logCount */\n  0x09\n    /* \"Mqttbaru.sol\":1011:1023  logCount = 0 */\n  dup2\n  swap1\n  sstore\n  pop\n    /* \"Mqttbaru.sol\":97:10920  contract Mqttbaru {\r... */\n  dataSize(sub_0)\n  dup1\n  dataOffset(sub_0)\n  0x00\n  codecopy\n  0x00\n  return\nstop\n\nsub_0: assembly {\n        /* \"Mqttbaru.sol\":97:10920  contract Mqttbaru {\r... */\n      mstore(0x40, 0x80)\n      callvalue\n      dup1\n      iszero\n      tag_1\n      jumpi\n      0x00\n      dup1\n      revert\n    tag_1:\n      pop\n      jumpi(tag_2, lt(calldatasize, 0x04))\n      shr(0xe0, calldataload(0x00))\n      dup1\n      0x7909ce47\n      gt\n      tag_21\n      jumpi\n      dup1\n      0xa9cb1a36\n      gt\n      tag_22\n      jumpi\n      dup1\n      0xa9cb1a36\n      eq\n      tag_16\n      jumpi\n      dup1\n      0xd1314ee0\n      eq\n      tag_17\n      jumpi\n      dup1\n      0xe58da61f\n      eq\n      tag_18\n      jumpi\n      dup1\n      0xe8e5339a\n      eq\n      tag_19\n      jumpi\n      dup1\n      0xfa6a04e4\n      eq\n      tag_20\n      jumpi\n      jump(tag_2)\n    tag_22:\n      dup1\n      0x7909ce47\n      eq\n      tag_12\n      jumpi\n      dup1\n      0x836cae65\n      eq\n      tag_13\n      jumpi\n      dup1\n      0x909e4ab6\n      eq\n      tag_14\n      jumpi\n      dup1\n      0x98173ff4\n      eq\n      tag_15\n      jumpi\n      jump(tag_2)\n    tag_21:\n      dup1\n      0x416a5d81\n      gt\n      tag_23\n      jumpi\n      dup1\n      0x416a5d81\n      eq\n      tag_7\n      jumpi\n      dup1\n      0x42bb20e1\n      eq\n      tag_8\n      jumpi\n      dup1\n      0x481c6a75\n      eq\n      tag_9\n      jumpi\n      dup1\n      0x6db80995\n      eq\n      tag_10\n      jumpi\n      dup1\n      0x71658896\n      eq\n      tag_11\n      jumpi\n      jump(tag_2)\n    tag_23:\n      dup1\n      0x0344248b\n      eq\n      tag_3\n      jumpi\n      dup1\n      0x1ee32b05\n      eq\n      tag_4\n      jumpi\n      dup1\n      0x30a66294\n      eq\n      tag_5\n      jumpi\n      dup1\n      0x3276807a\n      eq\n      tag_6\n      jumpi\n    tag_2:\n      0x00\n      dup1\n      revert\n        /* \"Mqttbaru.sol\":3631:3759  function getBrokerToken(address _address) isManager public view returns (bytes32) {\r... */\n    tag_3:\n      tag_24\n      0x04\n      dup1\n      calldatasize\n      sub\n      dup2\n      add\n      swap1\n      tag_25\n      swap2\n      swap1\n      tag_26\n      jump\t// in\n    tag_25:\n      tag_27\n      jump\t// in\n    tag_24:\n      mload(0x40)\n      tag_28\n      swap2\n      swap1\n      tag_29\n      jump\t// in\n    tag_28:\n      mload(0x40)\n      dup1\n      swap2\n      sub\n      swap1\n      return\n        /* \"Mqttbaru.sol\":3771:4464  function deleteBroker(address payable _brokeraddress) isManager public {\r... */\n    tag_4:\n      tag_30\n      0x04\n      dup1\n      calldatasize\n      sub\n      dup2\n      add\n      swap1\n      tag_31\n      swap2\n      swap1\n      tag_32\n      jump\t// in\n    tag_31:\n      tag_33\n      jump\t// in\n    tag_30:\n      stop\n        /* \"Mqttbaru.sol\":3405:3506  function getClientsCount() isManager public view returns (uint) {\r... */\n    tag_5:\n      tag_34\n      tag_35\n      jump\t// in\n    tag_34:\n      mload(0x40)\n      tag_36\n      swap2\n      swap1\n      tag_37\n      jump\t// in\n    tag_36:\n      mload(0x40)\n      dup1\n      swap2\n      sub\n      swap1\n      return\n        /* \"Mqttbaru.sol\":6175:6896  function addTopic(uint _id, string memory _topic) isManager public {\r... */\n    tag_6:\n      tag_38\n      0x04\n      dup1\n      calldatasize\n      sub\n      dup2\n      add\n      swap1\n      tag_39\n      swap2\n      swap1\n      tag_40\n      jump\t// in\n    tag_39:\n      tag_41\n      jump\t// in\n    tag_38:\n      stop\n        /* \"Mqttbaru.sol\":3518:3619  function getBrokersCount() isManager public view returns (uint) {\r... */\n    tag_7:\n      tag_42\n      tag_43\n      jump\t// in\n    tag_42:\n      mload(0x40)\n      tag_44\n      swap2\n      swap1\n      tag_37\n      jump\t// in\n    tag_44:\n      mload(0x40)\n      dup1\n      swap2\n      sub\n      swap1\n      return\n        /* \"Mqttbaru.sol\":4902:5598  function deleteTopic(uint _id, string memory _topic) isManager public {\r... */\n    tag_8:\n      tag_45\n      0x04\n      dup1\n      calldatasize\n      sub\n      dup2\n      add\n      swap1\n      tag_46\n      swap2\n      swap1\n      tag_40\n      jump\t// in\n    tag_46:\n      tag_47\n      jump\t// in\n    tag_45:\n      stop\n        /* \"Mqttbaru.sol\":128:158  address payable public manager */\n    tag_9:\n      tag_48\n      tag_49\n      jump\t// in\n    tag_48:\n      mload(0x40)\n      tag_50\n      swap2\n      swap1\n      tag_51\n      jump\t// in\n    tag_50:\n      mload(0x40)\n      dup1\n      swap2\n      sub\n      swap1\n      return\n        /* \"Mqttbaru.sol\":8044:8650  function getClients() public view returns (uint[] memory, string[] memory, string[] memory) {\r... */\n    tag_10:\n      tag_52\n      tag_53\n      jump\t// in\n    tag_52:\n      mload(0x40)\n      tag_54\n      swap4\n      swap3\n      swap2\n      swap1\n      tag_55\n      jump\t// in\n    tag_54:\n      mload(0x40)\n      dup1\n      swap2\n      sub\n      swap1\n      return\n        /* \"Mqttbaru.sol\":5610:6163  function getTopic(uint _id) isManager public view returns(string[] memory){\r... */\n    tag_11:\n      tag_56\n      0x04\n      dup1\n      calldatasize\n      sub\n      dup2\n      add\n      swap1\n      tag_57\n      swap2\n      swap1\n      tag_58\n      jump\t// in\n    tag_57:\n      tag_59\n      jump\t// in\n    tag_56:\n      mload(0x40)\n      tag_60\n      swap2\n      swap1\n      tag_61\n      jump\t// in\n    tag_60:\n      mload(0x40)\n      dup1\n      swap2\n      sub\n      swap1\n      return\n        /* \"Mqttbaru.sol\":9947:10491  function authorize(bytes32 _token, uint _id, string memory _topic) brokerIsAuth(_token) public view returns(bool) {\r... */\n    tag_12:\n      tag_62\n      0x04\n      dup1\n      calldatasize\n      sub\n      dup2\n      add\n      swap1\n      tag_63\n      swap2\n      swap1\n      tag_64\n      jump\t// in\n    tag_63:\n      tag_65\n      jump\t// in\n    tag_62:\n      mload(0x40)\n      tag_66\n      swap2\n      swap1\n      tag_67\n      jump\t// in\n    tag_66:\n      mload(0x40)\n      dup1\n      swap2\n      sub\n      swap1\n      return\n        /* \"Mqttbaru.sol\":2981:3392  function addBroker(address payable _brokeraddress) public isManager {\r... */\n    tag_13:\n      tag_68\n      0x04\n      dup1\n      calldatasize\n      sub\n      dup2\n      add\n      swap1\n      tag_69\n      swap2\n      swap1\n      tag_32\n      jump\t// in\n    tag_69:\n      tag_70\n      jump\t// in\n    tag_68:\n      stop\n        /* \"Mqttbaru.sol\":8662:9392  function getLog() public isManager view returns (uint[] memory, string[] memory, string[] memory, address[] memory){\r... */\n    tag_14:\n      tag_71\n      tag_72\n      jump\t// in\n    tag_71:\n      mload(0x40)\n      tag_73\n      swap5\n      swap4\n      swap3\n      swap2\n      swap1\n      tag_74\n      jump\t// in\n    tag_73:\n      mload(0x40)\n      dup1\n      swap2\n      sub\n      swap1\n      return\n        /* \"Mqttbaru.sol\":6908:7362  function addClient(string memory _username, string memory _password) isManager public {\r... */\n    tag_15:\n      tag_75\n      0x04\n      dup1\n      calldatasize\n      sub\n      dup2\n      add\n      swap1\n      tag_76\n      swap2\n      swap1\n      tag_77\n      jump\t// in\n    tag_76:\n      tag_78\n      jump\t// in\n    tag_75:\n      stop\n        /* \"Mqttbaru.sol\":4476:4890  function deleteClient(uint _id) isManager public {\r... */\n    tag_16:\n      tag_79\n      0x04\n      dup1\n      calldatasize\n      sub\n      dup2\n      add\n      swap1\n      tag_80\n      swap2\n      swap1\n      tag_58\n      jump\t// in\n    tag_80:\n      tag_81\n      jump\t// in\n    tag_79:\n      stop\n        /* \"Mqttbaru.sol\":2671:2968  function getBroker() public isManager view returns (address[] memory){\r... */\n    tag_17:\n      tag_82\n      tag_83\n      jump\t// in\n    tag_82:\n      mload(0x40)\n      tag_84\n      swap2\n      swap1\n      tag_85\n      jump\t// in\n    tag_84:\n      mload(0x40)\n      dup1\n      swap2\n      sub\n      swap1\n      return\n        /* \"Mqttbaru.sol\":9404:9935  function authenticate(bytes32 _token, uint _id, string memory _username, string memory _password) brokerIsAuth(_token) public view returns (bool) {\r... */\n    tag_18:\n      tag_86\n      0x04\n      dup1\n      calldatasize\n      sub\n      dup2\n      add\n      swap1\n      tag_87\n      swap2\n      swap1\n      tag_88\n      jump\t// in\n    tag_87:\n      tag_89\n      jump\t// in\n    tag_86:\n      mload(0x40)\n      tag_90\n      swap2\n      swap1\n      tag_67\n      jump\t// in\n    tag_90:\n      mload(0x40)\n      dup1\n      swap2\n      sub\n      swap1\n      return\n        /* \"Mqttbaru.sol\":7380:8032  function updateTopic(uint _id, string memory _topic, string memory _newtopic) isManager public{\r... */\n    tag_19:\n      tag_91\n      0x04\n      dup1\n      calldatasize\n      sub\n      dup2\n      add\n      swap1\n      tag_92\n      swap2\n      swap1\n      tag_93\n      jump\t// in\n    tag_92:\n      tag_94\n      jump\t// in\n    tag_91:\n      stop\n        /* \"Mqttbaru.sol\":1515:2659  function refreshToken() public isBroker {\r... */\n    tag_20:\n      tag_95\n      tag_96\n      jump\t// in\n    tag_95:\n      stop\n        /* \"Mqttbaru.sol\":3631:3759  function getBrokerToken(address _address) isManager public view returns (bytes32) {\r... */\n    tag_27:\n        /* \"Mqttbaru.sol\":3704:3711  bytes32 */\n      0x00\n        /* \"Mqttbaru.sol\":10557:10564  manager */\n      dup1\n      0x00\n      swap1\n      sload\n      swap1\n      0x0100\n      exp\n      swap1\n      div\n      0xffffffffffffffffffffffffffffffffffffffff\n      and\n        /* \"Mqttbaru.sol\":10543:10564  msg.sender == manager */\n      0xffffffffffffffffffffffffffffffffffffffff\n      and\n        /* \"Mqttbaru.sol\":10543:10553  msg.sender */\n      caller\n        /* \"Mqttbaru.sol\":10543:10564  msg.sender == manager */\n      0xffffffffffffffffffffffffffffffffffffffff\n      and\n      eq\n        /* \"Mqttbaru.sol\":10535:10565  require(msg.sender == manager) */\n      tag_98\n      jumpi\n      0x00\n      dup1\n      revert\n    tag_98:\n        /* \"Mqttbaru.sol\":3731:3741  tokenSlots */\n      0x05\n        /* \"Mqttbaru.sol\":3731:3751  tokenSlots[_address] */\n      0x00\n        /* \"Mqttbaru.sol\":3742:3750  _address */\n      dup4\n        /* \"Mqttbaru.sol\":3731:3751  tokenSlots[_address] */\n      0xffffffffffffffffffffffffffffffffffffffff\n      and\n      0xffffffffffffffffffffffffffffffffffffffff\n      and\n      dup2\n      mstore\n      0x20\n      add\n      swap1\n      dup2\n      mstore\n      0x20\n      add\n      0x00\n      keccak256\n      sload\n        /* \"Mqttbaru.sol\":3724:3751  return tokenSlots[_address] */\n      swap1\n      pop\n        /* \"Mqttbaru.sol\":3631:3759  function getBrokerToken(address _address) isManager public view returns (bytes32) {\r... */\n      swap2\n      swap1\n      pop\n      jump\t// out\n        /* \"Mqttbaru.sol\":3771:4464  function deleteBroker(address payable _brokeraddress) isManager public {\r... */\n    tag_33:\n        /* \"Mqttbaru.sol\":10557:10564  manager */\n      0x00\n      dup1\n      sload\n      swap1\n      0x0100\n      exp\n      swap1\n      div\n      0xffffffffffffffffffffffffffffffffffffffff\n      and\n        /* \"Mqttbaru.sol\":10543:10564  msg.sender == manager */\n      0xffffffffffffffffffffffffffffffffffffffff\n      and\n        /* \"Mqttbaru.sol\":10543:10553  msg.sender */\n      caller\n        /* \"Mqttbaru.sol\":10543:10564  msg.sender == manager */\n      0xffffffffffffffffffffffffffffffffffffffff\n      and\n      eq\n        /* \"Mqttbaru.sol\":10535:10565  require(msg.sender == manager) */\n      tag_101\n      jumpi\n      0x00\n      dup1\n      revert\n    tag_101:\n        /* \"Mqttbaru.sol\":3857:3863  uint i */\n      0x00\n        /* \"Mqttbaru.sol\":3853:4457  for(uint i = 0; i < brokerAddress.length; i++){\r... */\n    tag_103:\n        /* \"Mqttbaru.sol\":3873:3886  brokerAddress */\n      0x02\n        /* \"Mqttbaru.sol\":3873:3893  brokerAddress.length */\n      dup1\n      sload\n      swap1\n      pop\n        /* \"Mqttbaru.sol\":3869:3870  i */\n      dup2\n        /* \"Mqttbaru.sol\":3869:3893  i < brokerAddress.length */\n      lt\n        /* \"Mqttbaru.sol\":3853:4457  for(uint i = 0; i < brokerAddress.length; i++){\r... */\n      iszero\n      tag_104\n      jumpi\n        /* \"Mqttbaru.sol\":3935:3948  brokerAddress */\n      0x02\n        /* \"Mqttbaru.sol\":3949:3950  i */\n      dup2\n        /* \"Mqttbaru.sol\":3935:3951  brokerAddress[i] */\n      dup2\n      sload\n      dup2\n      lt\n      tag_106\n      jumpi\n      invalid\n    tag_106:\n      swap1\n      0x00\n      mstore\n      keccak256(0x00, 0x20)\n      swap1\n      0x02\n      mul\n      add\n        /* \"Mqttbaru.sol\":3935:3966  brokerAddress[i].broker_address */\n      0x00\n      add\n      0x00\n      swap1\n      sload\n      swap1\n      0x0100\n      exp\n      swap1\n      div\n      0xffffffffffffffffffffffffffffffffffffffff\n      and\n        /* \"Mqttbaru.sol\":3917:3966  _brokeraddress == brokerAddress[i].broker_address */\n      0xffffffffffffffffffffffffffffffffffffffff\n      and\n        /* \"Mqttbaru.sol\":3917:3931  _brokeraddress */\n      dup3\n        /* \"Mqttbaru.sol\":3917:3966  _brokeraddress == brokerAddress[i].broker_address */\n      0xffffffffffffffffffffffffffffffffffffffff\n      and\n      eq\n        /* \"Mqttbaru.sol\":3914:4446  if(_brokeraddress == brokerAddress[i].broker_address){\r... */\n      iszero\n      tag_108\n      jumpi\n        /* \"Mqttbaru.sol\":4019:4024  false */\n      0x00\n        /* \"Mqttbaru.sol\":3986:4000  brokerValidity */\n      0x04\n        /* \"Mqttbaru.sol\":3986:4016  brokerValidity[_brokeraddress] */\n      0x00\n        /* \"Mqttbaru.sol\":4001:4015  _brokeraddress */\n      dup5\n        /* \"Mqttbaru.sol\":3986:4016  brokerValidity[_brokeraddress] */\n      0xffffffffffffffffffffffffffffffffffffffff\n      and\n      0xffffffffffffffffffffffffffffffffffffffff\n      and\n      dup2\n      mstore\n      0x20\n      add\n      swap1\n      dup2\n      mstore\n      0x20\n      add\n      0x00\n      keccak256\n      0x00\n        /* \"Mqttbaru.sol\":3986:4024  brokerValidity[_brokeraddress] = false */\n      0x0100\n      exp\n      dup2\n      sload\n      dup2\n      0xff\n      mul\n      not\n      and\n      swap1\n      dup4\n      iszero\n      iszero\n      mul\n      or\n      swap1\n      sstore\n      pop\n        /* \"Mqttbaru.sol\":4072:4138  0x0000000000000000000000000000000000000000000000000000000000000000 */\n      0x00\n        /* \"Mqttbaru.sol\":4043:4138  tokenSlots[_brokeraddress] = 0x0000000000000000000000000000000000000000000000000000000000000000 */\n      dup1\n      shl\n        /* \"Mqttbaru.sol\":4043:4053  tokenSlots */\n      0x05\n        /* \"Mqttbaru.sol\":4043:4069  tokenSlots[_brokeraddress] */\n      0x00\n        /* \"Mqttbaru.sol\":4054:4068  _brokeraddress */\n      dup5\n        /* \"Mqttbaru.sol\":4043:4069  tokenSlots[_brokeraddress] */\n      0xffffffffffffffffffffffffffffffffffffffff\n      and\n      0xffffffffffffffffffffffffffffffffffffffff\n      and\n      dup2\n      mstore\n      0x20\n      add\n      swap1\n      dup2\n      mstore\n      0x20\n      add\n      0x00\n      keccak256\n        /* \"Mqttbaru.sol\":4043:4138  tokenSlots[_brokeraddress] = 0x0000000000000000000000000000000000000000000000000000000000000000 */\n      dup2\n      swap1\n      sstore\n      pop\n        /* \"Mqttbaru.sol\":4162:4195  ref_token(tokenSlots[msg.sender]) */\n      0x504e9e94e0c65229aaf8cabe153380cc35da3135e30129bc3195f7e031cdf82b\n        /* \"Mqttbaru.sol\":4172:4182  tokenSlots */\n      0x05\n        /* \"Mqttbaru.sol\":4172:4194  tokenSlots[msg.sender] */\n      0x00\n        /* \"Mqttbaru.sol\":4183:4193  msg.sender */\n      caller\n        /* \"Mqttbaru.sol\":4172:4194  tokenSlots[msg.sender] */\n      0xffffffffffffffffffffffffffffffffffffffff\n      and\n      0xffffffffffffffffffffffffffffffffffffffff\n      and\n      dup2\n      mstore\n      0x20\n      add\n      swap1\n      dup2\n      mstore\n      0x20\n      add\n      0x00\n      keccak256\n      sload\n        /* \"Mqttbaru.sol\":4162:4195  ref_token(tokenSlots[msg.sender]) */\n      mload(0x40)\n      tag_109\n      swap2\n      swap1\n      tag_29\n      jump\t// in\n    tag_109:\n      mload(0x40)\n      dup1\n      swap2\n      sub\n      swap1\n      log1\n        /* \"Mqttbaru.sol\":4233:4246  brokerAddress */\n      0x02\n        /* \"Mqttbaru.sol\":4270:4271  1 */\n      0x01\n        /* \"Mqttbaru.sol\":4247:4260  brokerAddress */\n      0x02\n        /* \"Mqttbaru.sol\":4247:4267  brokerAddress.length */\n      dup1\n      sload\n      swap1\n      pop\n        /* \"Mqttbaru.sol\":4247:4271  brokerAddress.length - 1 */\n      sub\n        /* \"Mqttbaru.sol\":4233:4272  brokerAddress[brokerAddress.length - 1] */\n      dup2\n      sload\n      dup2\n      lt\n      tag_110\n      jumpi\n      invalid\n    tag_110:\n      swap1\n      0x00\n      mstore\n      keccak256(0x00, 0x20)\n      swap1\n      0x02\n      mul\n      add\n        /* \"Mqttbaru.sol\":4214:4227  brokerAddress */\n      0x02\n        /* \"Mqttbaru.sol\":4228:4229  i */\n      dup3\n        /* \"Mqttbaru.sol\":4214:4230  brokerAddress[i] */\n      dup2\n      sload\n      dup2\n      lt\n      tag_112\n      jumpi\n      invalid\n    tag_112:\n      swap1\n      0x00\n      mstore\n      keccak256(0x00, 0x20)\n      swap1\n      0x02\n      mul\n      add\n        /* \"Mqttbaru.sol\":4214:4272  brokerAddress[i] = brokerAddress[brokerAddress.length - 1] */\n      0x00\n      dup3\n      add\n      0x00\n      swap1\n      sload\n      swap1\n      0x0100\n      exp\n      swap1\n      div\n      0xffffffffffffffffffffffffffffffffffffffff\n      and\n      dup2\n      0x00\n      add\n      exp(0x0100, 0x00)\n      dup2\n      sload\n      dup2\n      0xffffffffffffffffffffffffffffffffffffffff\n      mul\n      not\n      and\n      swap1\n      dup4\n      0xffffffffffffffffffffffffffffffffffffffff\n      and\n      mul\n      or\n      swap1\n      sstore\n      pop\n      0x01\n      dup3\n      add\n      sload\n      dup2\n      0x01\n      add\n      sstore\n      swap1\n      pop\n      pop\n        /* \"Mqttbaru.sol\":4291:4304  brokerAddress */\n      0x02\n        /* \"Mqttbaru.sol\":4291:4310  brokerAddress.pop() */\n      dup1\n      sload\n      dup1\n      tag_114\n      jumpi\n      invalid\n    tag_114:\n      0x01\n      swap1\n      sub\n      dup2\n      dup2\n      swap1\n      0x00\n      mstore\n      keccak256(0x00, 0x20)\n      swap1\n      0x02\n      mul\n      add\n      0x00\n      dup1\n      dup3\n      add\n      exp(0x0100, 0x00)\n      dup2\n      sload\n      swap1\n      0xffffffffffffffffffffffffffffffffffffffff\n      mul\n      not\n      and\n      swap1\n      sstore\n      0x01\n      dup3\n      add\n      0x00\n      swap1\n      sstore\n      pop\n      pop\n      swap1\n      sstore\n        /* \"Mqttbaru.sol\":4329:4340  brokerCount */\n      0x07\n      0x00\n        /* \"Mqttbaru.sol\":4329:4342  brokerCount-- */\n      dup2\n      sload\n      dup1\n      swap3\n      swap2\n      swap1\n      0x01\n      swap1\n      sub\n      swap2\n      swap1\n      pop\n      sstore\n      pop\n        /* \"Mqttbaru.sol\":4361:4430  makeLog(now, \"deleteBroker\", \"a broker has been deleted\", msg.sender) */\n      tag_116\n        /* \"Mqttbaru.sol\":4369:4372  now */\n      timestamp\n        /* \"Mqttbaru.sol\":4361:4430  makeLog(now, \"deleteBroker\", \"a broker has been deleted\", msg.sender) */\n      mload(0x40)\n      dup1\n      0x40\n      add\n      0x40\n      mstore\n      dup1\n      0x0c\n      dup2\n      mstore\n      0x20\n      add\n      0x64656c65746542726f6b65720000000000000000000000000000000000000000\n      dup2\n      mstore\n      pop\n      mload(0x40)\n      dup1\n      0x40\n      add\n      0x40\n      mstore\n      dup1\n      0x19\n      dup2\n      mstore\n      0x20\n      add\n      0x612062726f6b657220686173206265656e2064656c6574656400000000000000\n      dup2\n      mstore\n      pop\n        /* \"Mqttbaru.sol\":4419:4429  msg.sender */\n      caller\n        /* \"Mqttbaru.sol\":4361:4368  makeLog */\n      tag_117\n        /* \"Mqttbaru.sol\":4361:4430  makeLog(now, \"deleteBroker\", \"a broker has been deleted\", msg.sender) */\n      jump\t// in\n    tag_116:\n        /* \"Mqttbaru.sol\":3914:4446  if(_brokeraddress == brokerAddress[i].broker_address){\r... */\n    tag_108:\n        /* \"Mqttbaru.sol\":3895:3898  i++ */\n      dup1\n      dup1\n      0x01\n      add\n      swap2\n      pop\n      pop\n        /* \"Mqttbaru.sol\":3853:4457  for(uint i = 0; i < brokerAddress.length; i++){\r... */\n      jump(tag_103)\n    tag_104:\n      pop\n        /* \"Mqttbaru.sol\":3771:4464  function deleteBroker(address payable _brokeraddress) isManager public {\r... */\n      pop\n      jump\t// out\n        /* \"Mqttbaru.sol\":3405:3506  function getClientsCount() isManager public view returns (uint) {\r... */\n    tag_35:\n        /* \"Mqttbaru.sol\":3463:3467  uint */\n      0x00\n        /* \"Mqttbaru.sol\":10557:10564  manager */\n      dup1\n      0x00\n      swap1\n      sload\n      swap1\n      0x0100\n      exp\n      swap1\n      div\n      0xffffffffffffffffffffffffffffffffffffffff\n      and\n        /* \"Mqttbaru.sol\":10543:10564  msg.sender == manager */\n      0xffffffffffffffffffffffffffffffffffffffff\n      and\n        /* \"Mqttbaru.sol\":10543:10553  msg.sender */\n      caller\n        /* \"Mqttbaru.sol\":10543:10564  msg.sender == manager */\n      0xffffffffffffffffffffffffffffffffffffffff\n      and\n      eq\n        /* \"Mqttbaru.sol\":10535:10565  require(msg.sender == manager) */\n      tag_119\n      jumpi\n      0x00\n      dup1\n      revert\n    tag_119:\n        /* \"Mqttbaru.sol\":3487:3498  clientCount */\n      sload(0x06)\n        /* \"Mqttbaru.sol\":3480:3498  return clientCount */\n      swap1\n      pop\n        /* \"Mqttbaru.sol\":3405:3506  function getClientsCount() isManager public view returns (uint) {\r... */\n      swap1\n      jump\t// out\n        /* \"Mqttbaru.sol\":6175:6896  function addTopic(uint _id, string memory _topic) isManager public {\r... */\n    tag_41:\n        /* \"Mqttbaru.sol\":10557:10564  manager */\n      0x00\n      dup1\n      sload\n      swap1\n      0x0100\n      exp\n      swap1\n      div\n      0xffffffffffffffffffffffffffffffffffffffff\n      and\n        /* \"Mqttbaru.sol\":10543:10564  msg.sender == manager */\n      0xffffffffffffffffffffffffffffffffffffffff\n      and\n        /* \"Mqttbaru.sol\":10543:10553  msg.sender */\n      caller\n        /* \"Mqttbaru.sol\":10543:10564  msg.sender == manager */\n      0xffffffffffffffffffffffffffffffffffffffff\n      and\n      eq\n        /* \"Mqttbaru.sol\":10535:10565  require(msg.sender == manager) */\n      tag_122\n      jumpi\n      0x00\n      dup1\n      revert\n    tag_122:\n        /* \"Mqttbaru.sol\":6253:6263  bool exist */\n      0x00\n        /* \"Mqttbaru.sol\":6286:6292  uint i */\n      dup1\n        /* \"Mqttbaru.sol\":6282:6889  for(uint i = 0; i < clientLedger.length; i++){\r... */\n    tag_124:\n        /* \"Mqttbaru.sol\":6302:6314  clientLedger */\n      0x01\n        /* \"Mqttbaru.sol\":6302:6321  clientLedger.length */\n      dup1\n      sload\n      swap1\n      pop\n        /* \"Mqttbaru.sol\":6298:6299  i */\n      dup2\n        /* \"Mqttbaru.sol\":6298:6321  i < clientLedger.length */\n      lt\n        /* \"Mqttbaru.sol\":6282:6889  for(uint i = 0; i < clientLedger.length; i++){\r... */\n      iszero\n      tag_125\n      jumpi\n        /* \"Mqttbaru.sol\":6342:6366  Client storage clientele */\n      0x00\n        /* \"Mqttbaru.sol\":6369:6381  clientLedger */\n      0x01\n        /* \"Mqttbaru.sol\":6382:6383  i */\n      dup3\n        /* \"Mqttbaru.sol\":6369:6384  clientLedger[i] */\n      dup2\n      sload\n      dup2\n      lt\n      tag_127\n      jumpi\n      invalid\n    tag_127:\n      swap1\n      0x00\n      mstore\n      keccak256(0x00, 0x20)\n      swap1\n      0x04\n      mul\n      add\n        /* \"Mqttbaru.sol\":6342:6384  Client storage clientele = clientLedger[i] */\n      swap1\n      pop\n        /* \"Mqttbaru.sol\":6409:6418  clientele */\n      dup1\n        /* \"Mqttbaru.sol\":6409:6421  clientele.id */\n      0x00\n      add\n      sload\n        /* \"Mqttbaru.sol\":6402:6405  _id */\n      dup6\n        /* \"Mqttbaru.sol\":6402:6421  _id == clientele.id */\n      eq\n        /* \"Mqttbaru.sol\":6399:6878  if(_id == clientele.id){\r... */\n      iszero\n      tag_129\n      jumpi\n        /* \"Mqttbaru.sol\":6445:6451  uint j */\n      0x00\n        /* \"Mqttbaru.sol\":6441:6688  for(uint j = 0; j < clientele.topic.length; j++){\r... */\n    tag_130:\n        /* \"Mqttbaru.sol\":6461:6470  clientele */\n      dup2\n        /* \"Mqttbaru.sol\":6461:6476  clientele.topic */\n      0x03\n      add\n        /* \"Mqttbaru.sol\":6461:6483  clientele.topic.length */\n      dup1\n      sload\n      swap1\n      pop\n        /* \"Mqttbaru.sol\":6457:6458  j */\n      dup2\n        /* \"Mqttbaru.sol\":6457:6483  j < clientele.topic.length */\n      lt\n        /* \"Mqttbaru.sol\":6441:6688  for(uint j = 0; j < clientele.topic.length; j++){\r... */\n      iszero\n      tag_131\n      jumpi\n        /* \"Mqttbaru.sol\":6581:6590  clientele */\n      dup2\n        /* \"Mqttbaru.sol\":6581:6596  clientele.topic */\n      0x03\n      add\n        /* \"Mqttbaru.sol\":6597:6598  j */\n      dup2\n        /* \"Mqttbaru.sol\":6581:6599  clientele.topic[j] */\n      dup2\n      sload\n      dup2\n      lt\n      tag_133\n      jumpi\n      invalid\n    tag_133:\n      swap1\n      0x00\n      mstore\n      keccak256(0x00, 0x20)\n      add\n        /* \"Mqttbaru.sol\":6564:6600  abi.encodePacked(clientele.topic[j]) */\n      add(0x20, mload(0x40))\n      tag_135\n      swap2\n      swap1\n      tag_136\n      jump\t// in\n    tag_135:\n      mload(0x40)\n      0x20\n      dup2\n      dup4\n      sub\n      sub\n      dup2\n      mstore\n      swap1\n      0x40\n      mstore\n        /* \"Mqttbaru.sol\":6554:6601  keccak256(abi.encodePacked(clientele.topic[j])) */\n      dup1\n      mload\n      swap1\n      0x20\n      add\n      keccak256\n        /* \"Mqttbaru.sol\":6542:6548  _topic */\n      dup6\n        /* \"Mqttbaru.sol\":6525:6549  abi.encodePacked(_topic) */\n      add(0x20, mload(0x40))\n      tag_137\n      swap2\n      swap1\n      tag_138\n      jump\t// in\n    tag_137:\n      mload(0x40)\n      0x20\n      dup2\n      dup4\n      sub\n      sub\n      dup2\n      mstore\n      swap1\n      0x40\n      mstore\n        /* \"Mqttbaru.sol\":6515:6550  keccak256(abi.encodePacked(_topic)) */\n      dup1\n      mload\n      swap1\n      0x20\n      add\n      keccak256\n        /* \"Mqttbaru.sol\":6515:6601  keccak256(abi.encodePacked(_topic)) == keccak256(abi.encodePacked(clientele.topic[j])) */\n      eq\n        /* \"Mqttbaru.sol\":6512:6665  if(keccak256(abi.encodePacked(_topic)) == keccak256(abi.encodePacked(clientele.topic[j]))){\r... */\n      iszero\n      tag_139\n      jumpi\n        /* \"Mqttbaru.sol\":6637:6641  true */\n      0x01\n        /* \"Mqttbaru.sol\":6629:6641  exist = true */\n      swap4\n      pop\n        /* \"Mqttbaru.sol\":6512:6665  if(keccak256(abi.encodePacked(_topic)) == keccak256(abi.encodePacked(clientele.topic[j]))){\r... */\n    tag_139:\n        /* \"Mqttbaru.sol\":6485:6488  j++ */\n      dup1\n      dup1\n      0x01\n      add\n      swap2\n      pop\n      pop\n        /* \"Mqttbaru.sol\":6441:6688  for(uint j = 0; j < clientele.topic.length; j++){\r... */\n      jump(tag_130)\n    tag_131:\n      pop\n        /* \"Mqttbaru.sol\":6710:6715  exist */\n      dup3\n        /* \"Mqttbaru.sol\":6706:6863  if(!exist){\r... */\n      tag_140\n      jumpi\n        /* \"Mqttbaru.sol\":6739:6748  clientele */\n      dup1\n        /* \"Mqttbaru.sol\":6739:6754  clientele.topic */\n      0x03\n      add\n        /* \"Mqttbaru.sol\":6760:6766  _topic */\n      dup5\n        /* \"Mqttbaru.sol\":6739:6767  clientele.topic.push(_topic) */\n      swap1\n      dup1\n      0x01\n      dup2\n      sload\n      add\n      dup1\n      dup3\n      sstore\n      dup1\n      swap2\n      pop\n      pop\n      0x01\n      swap1\n      sub\n      swap1\n      0x00\n      mstore\n      keccak256(0x00, 0x20)\n      add\n      0x00\n      swap1\n      swap2\n      swap1\n      swap2\n      swap1\n      swap2\n      pop\n      swap1\n      dup1\n      mload\n      swap1\n      0x20\n      add\n      swap1\n      tag_142\n      swap3\n      swap2\n      swap1\n      tag_143\n      jump\t// in\n    tag_142:\n      pop\n        /* \"Mqttbaru.sol\":6790:6843  makeLog(now, \"addTopic\", \"add new Topic\", msg.sender) */\n      tag_144\n        /* \"Mqttbaru.sol\":6798:6801  now */\n      timestamp\n        /* \"Mqttbaru.sol\":6790:6843  makeLog(now, \"addTopic\", \"add new Topic\", msg.sender) */\n      mload(0x40)\n      dup1\n      0x40\n      add\n      0x40\n      mstore\n      dup1\n      0x08\n      dup2\n      mstore\n      0x20\n      add\n      0x616464546f706963000000000000000000000000000000000000000000000000\n      dup2\n      mstore\n      pop\n      mload(0x40)\n      dup1\n      0x40\n      add\n      0x40\n      mstore\n      dup1\n      0x0d\n      dup2\n      mstore\n      0x20\n      add\n      0x616464206e657720546f70696300000000000000000000000000000000000000\n      dup2\n      mstore\n      pop\n        /* \"Mqttbaru.sol\":6832:6842  msg.sender */\n      caller\n        /* \"Mqttbaru.sol\":6790:6797  makeLog */\n      tag_117\n        /* \"Mqttbaru.sol\":6790:6843  makeLog(now, \"addTopic\", \"add new Topic\", msg.sender) */\n      jump\t// in\n    tag_144:\n        /* \"Mqttbaru.sol\":6706:6863  if(!exist){\r... */\n    tag_140:\n        /* \"Mqttbaru.sol\":6399:6878  if(_id == clientele.id){\r... */\n    tag_129:\n        /* \"Mqttbaru.sol\":6282:6889  for(uint i = 0; i < clientLedger.length; i++){\r... */\n      pop\n        /* \"Mqttbaru.sol\":6323:6326  i++ */\n      dup1\n      dup1\n      0x01\n      add\n      swap2\n      pop\n      pop\n        /* \"Mqttbaru.sol\":6282:6889  for(uint i = 0; i < clientLedger.length; i++){\r... */\n      jump(tag_124)\n    tag_125:\n      pop\n        /* \"Mqttbaru.sol\":10576:10577  _ */\n      pop\n        /* \"Mqttbaru.sol\":6175:6896  function addTopic(uint _id, string memory _topic) isManager public {\r... */\n      pop\n      pop\n      jump\t// out\n        /* \"Mqttbaru.sol\":3518:3619  function getBrokersCount() isManager public view returns (uint) {\r... */\n    tag_43:\n        /* \"Mqttbaru.sol\":3576:3580  uint */\n      0x00\n        /* \"Mqttbaru.sol\":10557:10564  manager */\n      dup1\n      0x00\n      swap1\n      sload\n      swap1\n      0x0100\n      exp\n      swap1\n      div\n      0xffffffffffffffffffffffffffffffffffffffff\n      and\n        /* \"Mqttbaru.sol\":10543:10564  msg.sender == manager */\n      0xffffffffffffffffffffffffffffffffffffffff\n      and\n        /* \"Mqttbaru.sol\":10543:10553  msg.sender */\n      caller\n        /* \"Mqttbaru.sol\":10543:10564  msg.sender == manager */\n      0xffffffffffffffffffffffffffffffffffffffff\n      and\n      eq\n        /* \"Mqttbaru.sol\":10535:10565  require(msg.sender == manager) */\n      tag_146\n      jumpi\n      0x00\n      dup1\n      revert\n    tag_146:\n        /* \"Mqttbaru.sol\":3600:3611  brokerCount */\n      sload(0x07)\n        /* \"Mqttbaru.sol\":3593:3611  return brokerCount */\n      swap1\n      pop\n        /* \"Mqttbaru.sol\":3518:3619  function getBrokersCount() isManager public view returns (uint) {\r... */\n      swap1\n      jump\t// out\n        /* \"Mqttbaru.sol\":4902:5598  function deleteTopic(uint _id, string memory _topic) isManager public {\r... */\n    tag_47:\n        /* \"Mqttbaru.sol\":10557:10564  manager */\n      0x00\n      dup1\n      sload\n      swap1\n      0x0100\n      exp\n      swap1\n      div\n      0xffffffffffffffffffffffffffffffffffffffff\n      and\n        /* \"Mqttbaru.sol\":10543:10564  msg.sender == manager */\n      0xffffffffffffffffffffffffffffffffffffffff\n      and\n        /* \"Mqttbaru.sol\":10543:10553  msg.sender */\n      caller\n        /* \"Mqttbaru.sol\":10543:10564  msg.sender == manager */\n      0xffffffffffffffffffffffffffffffffffffffff\n      and\n      eq\n        /* \"Mqttbaru.sol\":10535:10565  require(msg.sender == manager) */\n      tag_149\n      jumpi\n      0x00\n      dup1\n      revert\n    tag_149:\n        /* \"Mqttbaru.sol\":4987:4993  uint i */\n      0x00\n        /* \"Mqttbaru.sol\":4983:5591  for(uint i = 0; i <  clientLedger.length; i++){\r... */\n    tag_151:\n        /* \"Mqttbaru.sol\":5004:5016  clientLedger */\n      0x01\n        /* \"Mqttbaru.sol\":5004:5023  clientLedger.length */\n      dup1\n      sload\n      swap1\n      pop\n        /* \"Mqttbaru.sol\":4999:5000  i */\n      dup2\n        /* \"Mqttbaru.sol\":4999:5023  i <  clientLedger.length */\n      lt\n        /* \"Mqttbaru.sol\":4983:5591  for(uint i = 0; i <  clientLedger.length; i++){\r... */\n      iszero\n      tag_152\n      jumpi\n        /* \"Mqttbaru.sol\":5054:5066  clientLedger */\n      0x01\n        /* \"Mqttbaru.sol\":5067:5068  i */\n      dup2\n        /* \"Mqttbaru.sol\":5054:5069  clientLedger[i] */\n      dup2\n      sload\n      dup2\n      lt\n      tag_154\n      jumpi\n      invalid\n    tag_154:\n      swap1\n      0x00\n      mstore\n      keccak256(0x00, 0x20)\n      swap1\n      0x04\n      mul\n      add\n        /* \"Mqttbaru.sol\":5054:5072  clientLedger[i].id */\n      0x00\n      add\n      sload\n        /* \"Mqttbaru.sol\":5047:5050  _id */\n      dup4\n        /* \"Mqttbaru.sol\":5047:5072  _id == clientLedger[i].id */\n      eq\n        /* \"Mqttbaru.sol\":5044:5580  if(_id == clientLedger[i].id){\r... */\n      iszero\n      tag_156\n      jumpi\n        /* \"Mqttbaru.sol\":5096:5102  uint j */\n      0x00\n        /* \"Mqttbaru.sol\":5092:5565  for(uint j = 0; j < clientLedger[i].topic.length; j++){\r... */\n    tag_157:\n        /* \"Mqttbaru.sol\":5112:5124  clientLedger */\n      0x01\n        /* \"Mqttbaru.sol\":5125:5126  i */\n      dup3\n        /* \"Mqttbaru.sol\":5112:5127  clientLedger[i] */\n      dup2\n      sload\n      dup2\n      lt\n      tag_160\n      jumpi\n      invalid\n    tag_160:\n      swap1\n      0x00\n      mstore\n      keccak256(0x00, 0x20)\n      swap1\n      0x04\n      mul\n      add\n        /* \"Mqttbaru.sol\":5112:5133  clientLedger[i].topic */\n      0x03\n      add\n        /* \"Mqttbaru.sol\":5112:5140  clientLedger[i].topic.length */\n      dup1\n      sload\n      swap1\n      pop\n        /* \"Mqttbaru.sol\":5108:5109  j */\n      dup2\n        /* \"Mqttbaru.sol\":5108:5140  j < clientLedger[i].topic.length */\n      lt\n        /* \"Mqttbaru.sol\":5092:5565  for(uint j = 0; j < clientLedger[i].topic.length; j++){\r... */\n      iszero\n      tag_158\n      jumpi\n        /* \"Mqttbaru.sol\":5238:5250  clientLedger */\n      0x01\n        /* \"Mqttbaru.sol\":5251:5252  i */\n      dup3\n        /* \"Mqttbaru.sol\":5238:5253  clientLedger[i] */\n      dup2\n      sload\n      dup2\n      lt\n      tag_162\n      jumpi\n      invalid\n    tag_162:\n      swap1\n      0x00\n      mstore\n      keccak256(0x00, 0x20)\n      swap1\n      0x04\n      mul\n      add\n        /* \"Mqttbaru.sol\":5238:5259  clientLedger[i].topic */\n      0x03\n      add\n        /* \"Mqttbaru.sol\":5260:5261  j */\n      dup2\n        /* \"Mqttbaru.sol\":5238:5262  clientLedger[i].topic[j] */\n      dup2\n      sload\n      dup2\n      lt\n      tag_164\n      jumpi\n      invalid\n    tag_164:\n      swap1\n      0x00\n      mstore\n      keccak256(0x00, 0x20)\n      add\n        /* \"Mqttbaru.sol\":5221:5263  abi.encodePacked(clientLedger[i].topic[j]) */\n      add(0x20, mload(0x40))\n      tag_166\n      swap2\n      swap1\n      tag_136\n      jump\t// in\n    tag_166:\n      mload(0x40)\n      0x20\n      dup2\n      dup4\n      sub\n      sub\n      dup2\n      mstore\n      swap1\n      0x40\n      mstore\n        /* \"Mqttbaru.sol\":5211:5264  keccak256(abi.encodePacked(clientLedger[i].topic[j])) */\n      dup1\n      mload\n      swap1\n      0x20\n      add\n      keccak256\n        /* \"Mqttbaru.sol\":5199:5205  _topic */\n      dup4\n        /* \"Mqttbaru.sol\":5182:5206  abi.encodePacked(_topic) */\n      add(0x20, mload(0x40))\n      tag_167\n      swap2\n      swap1\n      tag_138\n      jump\t// in\n    tag_167:\n      mload(0x40)\n      0x20\n      dup2\n      dup4\n      sub\n      sub\n      dup2\n      mstore\n      swap1\n      0x40\n      mstore\n        /* \"Mqttbaru.sol\":5172:5207  keccak256(abi.encodePacked(_topic)) */\n      dup1\n      mload\n      swap1\n      0x20\n      add\n      keccak256\n        /* \"Mqttbaru.sol\":5172:5264  keccak256(abi.encodePacked(_topic)) == keccak256(abi.encodePacked(clientLedger[i].topic[j])) */\n      eq\n        /* \"Mqttbaru.sol\":5169:5546  if(keccak256(abi.encodePacked(_topic)) == keccak256(abi.encodePacked(clientLedger[i].topic[j]))){\r... */\n      iszero\n      tag_168\n      jumpi\n        /* \"Mqttbaru.sol\":5319:5331  clientLedger */\n      0x01\n        /* \"Mqttbaru.sol\":5332:5333  i */\n      dup3\n        /* \"Mqttbaru.sol\":5319:5334  clientLedger[i] */\n      dup2\n      sload\n      dup2\n      lt\n      tag_169\n      jumpi\n      invalid\n    tag_169:\n      swap1\n      0x00\n      mstore\n      keccak256(0x00, 0x20)\n      swap1\n      0x04\n      mul\n      add\n        /* \"Mqttbaru.sol\":5319:5340  clientLedger[i].topic */\n      0x03\n      add\n        /* \"Mqttbaru.sol\":5372:5373  1 */\n      0x01\n        /* \"Mqttbaru.sol\":5341:5353  clientLedger */\n      dup1\n        /* \"Mqttbaru.sol\":5354:5355  i */\n      dup5\n        /* \"Mqttbaru.sol\":5341:5356  clientLedger[i] */\n      dup2\n      sload\n      dup2\n      lt\n      tag_171\n      jumpi\n      invalid\n    tag_171:\n      swap1\n      0x00\n      mstore\n      keccak256(0x00, 0x20)\n      swap1\n      0x04\n      mul\n      add\n        /* \"Mqttbaru.sol\":5341:5362  clientLedger[i].topic */\n      0x03\n      add\n        /* \"Mqttbaru.sol\":5341:5369  clientLedger[i].topic.length */\n      dup1\n      sload\n      swap1\n      pop\n        /* \"Mqttbaru.sol\":5341:5373  clientLedger[i].topic.length - 1 */\n      sub\n        /* \"Mqttbaru.sol\":5319:5374  clientLedger[i].topic[clientLedger[i].topic.length - 1] */\n      dup2\n      sload\n      dup2\n      lt\n      tag_173\n      jumpi\n      invalid\n    tag_173:\n      swap1\n      0x00\n      mstore\n      keccak256(0x00, 0x20)\n      add\n        /* \"Mqttbaru.sol\":5292:5304  clientLedger */\n      0x01\n        /* \"Mqttbaru.sol\":5305:5306  i */\n      dup4\n        /* \"Mqttbaru.sol\":5292:5307  clientLedger[i] */\n      dup2\n      sload\n      dup2\n      lt\n      tag_175\n      jumpi\n      invalid\n    tag_175:\n      swap1\n      0x00\n      mstore\n      keccak256(0x00, 0x20)\n      swap1\n      0x04\n      mul\n      add\n        /* \"Mqttbaru.sol\":5292:5313  clientLedger[i].topic */\n      0x03\n      add\n        /* \"Mqttbaru.sol\":5314:5315  j */\n      dup3\n        /* \"Mqttbaru.sol\":5292:5316  clientLedger[i].topic[j] */\n      dup2\n      sload\n      dup2\n      lt\n      tag_177\n      jumpi\n      invalid\n    tag_177:\n      swap1\n      0x00\n      mstore\n      keccak256(0x00, 0x20)\n      add\n        /* \"Mqttbaru.sol\":5292:5374  clientLedger[i].topic[j] = clientLedger[i].topic[clientLedger[i].topic.length - 1] */\n      swap1\n      dup1\n      sload\n      0x01\n      dup2\n      0x01\n      and\n      iszero\n      0x0100\n      mul\n      sub\n      and\n      0x02\n      swap1\n      div\n      tag_179\n      swap3\n      swap2\n      swap1\n      tag_180\n      jump\t// in\n    tag_179:\n      pop\n        /* \"Mqttbaru.sol\":5401:5413  clientLedger */\n      0x01\n        /* \"Mqttbaru.sol\":5414:5415  i */\n      dup3\n        /* \"Mqttbaru.sol\":5401:5416  clientLedger[i] */\n      dup2\n      sload\n      dup2\n      lt\n      tag_181\n      jumpi\n      invalid\n    tag_181:\n      swap1\n      0x00\n      mstore\n      keccak256(0x00, 0x20)\n      swap1\n      0x04\n      mul\n      add\n        /* \"Mqttbaru.sol\":5401:5422  clientLedger[i].topic */\n      0x03\n      add\n        /* \"Mqttbaru.sol\":5401:5428  clientLedger[i].topic.pop() */\n      dup1\n      sload\n      dup1\n      tag_183\n      jumpi\n      invalid\n    tag_183:\n      0x01\n      swap1\n      sub\n      dup2\n      dup2\n      swap1\n      0x00\n      mstore\n      keccak256(0x00, 0x20)\n      add\n      0x00\n      tag_185\n      swap2\n      swap1\n      tag_186\n      jump\t// in\n    tag_185:\n      swap1\n      sstore\n        /* \"Mqttbaru.sol\":5455:5522  makeLog(now, \"deleteTopic\", \"a topic has been deleted\", msg.sender) */\n      tag_187\n        /* \"Mqttbaru.sol\":5463:5466  now */\n      timestamp\n        /* \"Mqttbaru.sol\":5455:5522  makeLog(now, \"deleteTopic\", \"a topic has been deleted\", msg.sender) */\n      mload(0x40)\n      dup1\n      0x40\n      add\n      0x40\n      mstore\n      dup1\n      0x0b\n      dup2\n      mstore\n      0x20\n      add\n      0x64656c657465546f706963000000000000000000000000000000000000000000\n      dup2\n      mstore\n      pop\n      mload(0x40)\n      dup1\n      0x40\n      add\n      0x40\n      mstore\n      dup1\n      0x18\n      dup2\n      mstore\n      0x20\n      add\n      0x6120746f70696320686173206265656e2064656c657465640000000000000000\n      dup2\n      mstore\n      pop\n        /* \"Mqttbaru.sol\":5511:5521  msg.sender */\n      caller\n        /* \"Mqttbaru.sol\":5455:5462  makeLog */\n      tag_117\n        /* \"Mqttbaru.sol\":5455:5522  makeLog(now, \"deleteTopic\", \"a topic has been deleted\", msg.sender) */\n      jump\t// in\n    tag_187:\n        /* \"Mqttbaru.sol\":5169:5546  if(keccak256(abi.encodePacked(_topic)) == keccak256(abi.encodePacked(clientLedger[i].topic[j]))){\r... */\n    tag_168:\n        /* \"Mqttbaru.sol\":5142:5145  j++ */\n      dup1\n      dup1\n      0x01\n      add\n      swap2\n      pop\n      pop\n        /* \"Mqttbaru.sol\":5092:5565  for(uint j = 0; j < clientLedger[i].topic.length; j++){\r... */\n      jump(tag_157)\n    tag_158:\n      pop\n        /* \"Mqttbaru.sol\":5044:5580  if(_id == clientLedger[i].id){\r... */\n    tag_156:\n        /* \"Mqttbaru.sol\":5025:5028  i++ */\n      dup1\n      dup1\n      0x01\n      add\n      swap2\n      pop\n      pop\n        /* \"Mqttbaru.sol\":4983:5591  for(uint i = 0; i <  clientLedger.length; i++){\r... */\n      jump(tag_151)\n    tag_152:\n      pop\n        /* \"Mqttbaru.sol\":4902:5598  function deleteTopic(uint _id, string memory _topic) isManager public {\r... */\n      pop\n      pop\n      jump\t// out\n        /* \"Mqttbaru.sol\":128:158  address payable public manager */\n    tag_49:\n      0x00\n      dup1\n      sload\n      swap1\n      0x0100\n      exp\n      swap1\n      div\n      0xffffffffffffffffffffffffffffffffffffffff\n      and\n      dup2\n      jump\t// out\n        /* \"Mqttbaru.sol\":8044:8650  function getClients() public view returns (uint[] memory, string[] memory, string[] memory) {\r... */\n    tag_53:\n        /* \"Mqttbaru.sol\":8087:8100  uint[] memory */\n      0x60\n        /* \"Mqttbaru.sol\":8102:8117  string[] memory */\n      dup1\n        /* \"Mqttbaru.sol\":8119:8134  string[] memory */\n      0x60\n        /* \"Mqttbaru.sol\":8147:8164  uint[] memory _id */\n      dup1\n        /* \"Mqttbaru.sol\":8178:8189  clientCount */\n      sload(0x06)\n        /* \"Mqttbaru.sol\":8167:8190  new uint[](clientCount) */\n      0xffffffffffffffff\n      dup2\n      gt\n      dup1\n      iszero\n      tag_189\n      jumpi\n      0x00\n      dup1\n      revert\n    tag_189:\n      pop\n      mload(0x40)\n      swap1\n      dup1\n      dup3\n      mstore\n      dup1\n      0x20\n      mul\n      0x20\n      add\n      dup3\n      add\n      0x40\n      mstore\n      dup1\n      iszero\n      tag_190\n      jumpi\n      dup2\n      0x20\n      add\n      0x20\n      dup3\n      mul\n      dup1\n      calldatasize\n      dup4\n      calldatacopy\n      dup1\n      dup3\n      add\n      swap2\n      pop\n      pop\n      swap1\n      pop\n    tag_190:\n      pop\n        /* \"Mqttbaru.sol\":8147:8190  uint[] memory _id = new uint[](clientCount) */\n      swap1\n      pop\n        /* \"Mqttbaru.sol\":8201:8226  string[] memory _username */\n      0x60\n        /* \"Mqttbaru.sol\":8242:8253  clientCount */\n      sload(0x06)\n        /* \"Mqttbaru.sol\":8229:8254  new string[](clientCount) */\n      0xffffffffffffffff\n      dup2\n      gt\n      dup1\n      iszero\n      tag_191\n      jumpi\n      0x00\n      dup1\n      revert\n    tag_191:\n      pop\n      mload(0x40)\n      swap1\n      dup1\n      dup3\n      mstore\n      dup1\n      0x20\n      mul\n      0x20\n      add\n      dup3\n      add\n      0x40\n      mstore\n      dup1\n      iszero\n      tag_192\n      jumpi\n      dup2\n      0x20\n      add\n    tag_193:\n      0x60\n      dup2\n      mstore\n      0x20\n      add\n      swap1\n      0x01\n      swap1\n      sub\n      swap1\n      dup2\n      tag_193\n      jumpi\n      swap1\n      pop\n    tag_192:\n      pop\n        /* \"Mqttbaru.sol\":8201:8254  string[] memory _username = new string[](clientCount) */\n      swap1\n      pop\n        /* \"Mqttbaru.sol\":8265:8290  string[] memory _password */\n      0x60\n        /* \"Mqttbaru.sol\":8306:8317  clientCount */\n      sload(0x06)\n        /* \"Mqttbaru.sol\":8293:8318  new string[](clientCount) */\n      0xffffffffffffffff\n      dup2\n      gt\n      dup1\n      iszero\n      tag_194\n      jumpi\n      0x00\n      dup1\n      revert\n    tag_194:\n      pop\n      mload(0x40)\n      swap1\n      dup1\n      dup3\n      mstore\n      dup1\n      0x20\n      mul\n      0x20\n      add\n      dup3\n      add\n      0x40\n      mstore\n      dup1\n      iszero\n      tag_195\n      jumpi\n      dup2\n      0x20\n      add\n    tag_196:\n      0x60\n      dup2\n      mstore\n      0x20\n      add\n      swap1\n      0x01\n      swap1\n      sub\n      swap1\n      dup2\n      tag_196\n      jumpi\n      swap1\n      pop\n    tag_195:\n      pop\n        /* \"Mqttbaru.sol\":8265:8318  string[] memory _password = new string[](clientCount) */\n      swap1\n      pop\n        /* \"Mqttbaru.sol\":8333:8339  uint i */\n      0x00\n        /* \"Mqttbaru.sol\":8329:8575  for(uint i = 0; i < clientLedger.length; i++){\r... */\n    tag_197:\n        /* \"Mqttbaru.sol\":8349:8361  clientLedger */\n      0x01\n        /* \"Mqttbaru.sol\":8349:8368  clientLedger.length */\n      dup1\n      sload\n      swap1\n      pop\n        /* \"Mqttbaru.sol\":8345:8346  i */\n      dup2\n        /* \"Mqttbaru.sol\":8345:8368  i < clientLedger.length */\n      lt\n        /* \"Mqttbaru.sol\":8329:8575  for(uint i = 0; i < clientLedger.length; i++){\r... */\n      iszero\n      tag_198\n      jumpi\n        /* \"Mqttbaru.sol\":8389:8413  Client storage clientele */\n      0x00\n        /* \"Mqttbaru.sol\":8416:8428  clientLedger */\n      0x01\n        /* \"Mqttbaru.sol\":8429:8430  i */\n      dup3\n        /* \"Mqttbaru.sol\":8416:8431  clientLedger[i] */\n      dup2\n      sload\n      dup2\n      lt\n      tag_200\n      jumpi\n      invalid\n    tag_200:\n      swap1\n      0x00\n      mstore\n      keccak256(0x00, 0x20)\n      swap1\n      0x04\n      mul\n      add\n        /* \"Mqttbaru.sol\":8389:8431  Client storage clientele = clientLedger[i] */\n      swap1\n      pop\n        /* \"Mqttbaru.sol\":8455:8464  clientele */\n      dup1\n        /* \"Mqttbaru.sol\":8455:8467  clientele.id */\n      0x00\n      add\n      sload\n        /* \"Mqttbaru.sol\":8446:8449  _id */\n      dup6\n        /* \"Mqttbaru.sol\":8450:8451  i */\n      dup4\n        /* \"Mqttbaru.sol\":8446:8452  _id[i] */\n      dup2\n      mload\n      dup2\n      lt\n      tag_202\n      jumpi\n      invalid\n    tag_202:\n      0x20\n      mul\n      0x20\n      add\n      add\n        /* \"Mqttbaru.sol\":8446:8467  _id[i] = clientele.id */\n      dup2\n      dup2\n      mstore\n      pop\n      pop\n        /* \"Mqttbaru.sol\":8497:8506  clientele */\n      dup1\n        /* \"Mqttbaru.sol\":8497:8515  clientele.username */\n      0x01\n      add\n        /* \"Mqttbaru.sol\":8482:8515  _username[i] = clientele.username */\n      dup1\n      sload\n      0x01\n      dup2\n      0x01\n      and\n      iszero\n      0x0100\n      mul\n      sub\n      and\n      0x02\n      swap1\n      div\n      dup1\n      0x1f\n      add\n      0x20\n      dup1\n      swap2\n      div\n      mul\n      0x20\n      add\n      mload(0x40)\n      swap1\n      dup2\n      add\n      0x40\n      mstore\n      dup1\n      swap3\n      swap2\n      swap1\n      dup2\n      dup2\n      mstore\n      0x20\n      add\n      dup3\n      dup1\n      sload\n      0x01\n      dup2\n      0x01\n      and\n      iszero\n      0x0100\n      mul\n      sub\n      and\n      0x02\n      swap1\n      div\n      dup1\n      iszero\n      tag_203\n      jumpi\n      dup1\n      0x1f\n      lt\n      tag_204\n      jumpi\n      0x0100\n      dup1\n      dup4\n      sload\n      div\n      mul\n      dup4\n      mstore\n      swap2\n      0x20\n      add\n      swap2\n      jump(tag_203)\n    tag_204:\n      dup3\n      add\n      swap2\n      swap1\n      0x00\n      mstore\n      keccak256(0x00, 0x20)\n      swap1\n    tag_205:\n      dup2\n      sload\n      dup2\n      mstore\n      swap1\n      0x01\n      add\n      swap1\n      0x20\n      add\n      dup1\n      dup4\n      gt\n      tag_205\n      jumpi\n      dup3\n      swap1\n      sub\n      0x1f\n      and\n      dup3\n      add\n      swap2\n    tag_203:\n      pop\n      pop\n      pop\n      pop\n      pop\n        /* \"Mqttbaru.sol\":8482:8491  _username */\n      dup5\n        /* \"Mqttbaru.sol\":8492:8493  i */\n      dup4\n        /* \"Mqttbaru.sol\":8482:8494  _username[i] */\n      dup2\n      mload\n      dup2\n      lt\n      tag_206\n      jumpi\n      invalid\n    tag_206:\n      0x20\n      mul\n      0x20\n      add\n      add\n        /* \"Mqttbaru.sol\":8482:8515  _username[i] = clientele.username */\n      dup2\n      swap1\n      mstore\n      pop\n        /* \"Mqttbaru.sol\":8545:8554  clientele */\n      dup1\n        /* \"Mqttbaru.sol\":8545:8563  clientele.password */\n      0x02\n      add\n        /* \"Mqttbaru.sol\":8530:8563  _password[i] = clientele.password */\n      dup1\n      sload\n      0x01\n      dup2\n      0x01\n      and\n      iszero\n      0x0100\n      mul\n      sub\n      and\n      0x02\n      swap1\n      div\n      dup1\n      0x1f\n      add\n      0x20\n      dup1\n      swap2\n      div\n      mul\n      0x20\n      add\n      mload(0x40)\n      swap1\n      dup2\n      add\n      0x40\n      mstore\n      dup1\n      swap3\n      swap2\n      swap1\n      dup2\n      dup2\n      mstore\n      0x20\n      add\n      dup3\n      dup1\n      sload\n      0x01\n      dup2\n      0x01\n      and\n      iszero\n      0x0100\n      mul\n      sub\n      and\n      0x02\n      swap1\n      div\n      dup1\n      iszero\n      tag_207\n      jumpi\n      dup1\n      0x1f\n      lt\n      tag_208\n      jumpi\n      0x0100\n      dup1\n      dup4\n      sload\n      div\n      mul\n      dup4\n      mstore\n      swap2\n      0x20\n      add\n      swap2\n      jump(tag_207)\n    tag_208:\n      dup3\n      add\n      swap2\n      swap1\n      0x00\n      mstore\n      keccak256(0x00, 0x20)\n      swap1\n    tag_209:\n      dup2\n      sload\n      dup2\n      mstore\n      swap1\n      0x01\n      add\n      swap1\n      0x20\n      add\n      dup1\n      dup4\n      gt\n      tag_209\n      jumpi\n      dup3\n      swap1\n      sub\n      0x1f\n      and\n      dup3\n      add\n      swap2\n    tag_207:\n      pop\n      pop\n      pop\n      pop\n      pop\n        /* \"Mqttbaru.sol\":8530:8539  _password */\n      dup4\n        /* \"Mqttbaru.sol\":8540:8541  i */\n      dup4\n        /* \"Mqttbaru.sol\":8530:8542  _password[i] */\n      dup2\n      mload\n      dup2\n      lt\n      tag_210\n      jumpi\n      invalid\n    tag_210:\n      0x20\n      mul\n      0x20\n      add\n      add\n        /* \"Mqttbaru.sol\":8530:8563  _password[i] = clientele.password */\n      dup2\n      swap1\n      mstore\n      pop\n        /* \"Mqttbaru.sol\":8329:8575  for(uint i = 0; i < clientLedger.length; i++){\r... */\n      pop\n        /* \"Mqttbaru.sol\":8370:8373  i++ */\n      dup1\n      dup1\n      0x01\n      add\n      swap2\n      pop\n      pop\n        /* \"Mqttbaru.sol\":8329:8575  for(uint i = 0; i < clientLedger.length; i++){\r... */\n      jump(tag_197)\n    tag_198:\n      pop\n        /* \"Mqttbaru.sol\":8606:8609  _id */\n      dup3\n        /* \"Mqttbaru.sol\":8611:8620  _username */\n      dup3\n        /* \"Mqttbaru.sol\":8622:8631  _password */\n      dup3\n        /* \"Mqttbaru.sol\":8585:8642  return(\r... */\n      swap6\n      pop\n      swap6\n      pop\n      swap6\n      pop\n      pop\n      pop\n      pop\n        /* \"Mqttbaru.sol\":8044:8650  function getClients() public view returns (uint[] memory, string[] memory, string[] memory) {\r... */\n      swap1\n      swap2\n      swap3\n      jump\t// out\n        /* \"Mqttbaru.sol\":5610:6163  function getTopic(uint _id) isManager public view returns(string[] memory){\r... */\n    tag_59:\n        /* \"Mqttbaru.sol\":5668:5683  string[] memory */\n      0x60\n        /* \"Mqttbaru.sol\":10557:10564  manager */\n      0x00\n      dup1\n      sload\n      swap1\n      0x0100\n      exp\n      swap1\n      div\n      0xffffffffffffffffffffffffffffffffffffffff\n      and\n        /* \"Mqttbaru.sol\":10543:10564  msg.sender == manager */\n      0xffffffffffffffffffffffffffffffffffffffff\n      and\n        /* \"Mqttbaru.sol\":10543:10553  msg.sender */\n      caller\n        /* \"Mqttbaru.sol\":10543:10564  msg.sender == manager */\n      0xffffffffffffffffffffffffffffffffffffffff\n      and\n      eq\n        /* \"Mqttbaru.sol\":10535:10565  require(msg.sender == manager) */\n      tag_212\n      jumpi\n      0x00\n      dup1\n      revert\n    tag_212:\n        /* \"Mqttbaru.sol\":5699:5705  uint i */\n      0x00\n        /* \"Mqttbaru.sol\":5695:6156  for(uint i = 0; i < clientLedger.length; i++){\r... */\n    tag_214:\n        /* \"Mqttbaru.sol\":5715:5727  clientLedger */\n      0x01\n        /* \"Mqttbaru.sol\":5715:5734  clientLedger.length */\n      dup1\n      sload\n      swap1\n      pop\n        /* \"Mqttbaru.sol\":5711:5712  i */\n      dup2\n        /* \"Mqttbaru.sol\":5711:5734  i < clientLedger.length */\n      lt\n        /* \"Mqttbaru.sol\":5695:6156  for(uint i = 0; i < clientLedger.length; i++){\r... */\n      iszero\n      tag_215\n      jumpi\n        /* \"Mqttbaru.sol\":5755:5779  Client storage clientele */\n      0x00\n        /* \"Mqttbaru.sol\":5782:5794  clientLedger */\n      0x01\n        /* \"Mqttbaru.sol\":5795:5796  i */\n      dup3\n        /* \"Mqttbaru.sol\":5782:5797  clientLedger[i] */\n      dup2\n      sload\n      dup2\n      lt\n      tag_217\n      jumpi\n      invalid\n    tag_217:\n      swap1\n      0x00\n      mstore\n      keccak256(0x00, 0x20)\n      swap1\n      0x04\n      mul\n      add\n        /* \"Mqttbaru.sol\":5755:5797  Client storage clientele = clientLedger[i] */\n      swap1\n      pop\n        /* \"Mqttbaru.sol\":5822:5831  clientele */\n      dup1\n        /* \"Mqttbaru.sol\":5822:5834  clientele.id */\n      0x00\n      add\n      sload\n        /* \"Mqttbaru.sol\":5815:5818  _id */\n      dup5\n        /* \"Mqttbaru.sol\":5815:5834  _id == clientele.id */\n      eq\n        /* \"Mqttbaru.sol\":5812:6145  if(_id == clientele.id){\r... */\n      iszero\n      tag_219\n      jumpi\n        /* \"Mqttbaru.sol\":5854:5876  string[] memory _topic */\n      0x60\n        /* \"Mqttbaru.sol\":5892:5901  clientele */\n      dup2\n        /* \"Mqttbaru.sol\":5892:5907  clientele.topic */\n      0x03\n      add\n        /* \"Mqttbaru.sol\":5892:5914  clientele.topic.length */\n      dup1\n      sload\n      swap1\n      pop\n        /* \"Mqttbaru.sol\":5879:5915  new string[](clientele.topic.length) */\n      0xffffffffffffffff\n      dup2\n      gt\n      dup1\n      iszero\n      tag_220\n      jumpi\n      0x00\n      dup1\n      revert\n    tag_220:\n      pop\n      mload(0x40)\n      swap1\n      dup1\n      dup3\n      mstore\n      dup1\n      0x20\n      mul\n      0x20\n      add\n      dup3\n      add\n      0x40\n      mstore\n      dup1\n      iszero\n      tag_221\n      jumpi\n      dup2\n      0x20\n      add\n    tag_222:\n      0x60\n      dup2\n      mstore\n      0x20\n      add\n      swap1\n      0x01\n      swap1\n      sub\n      swap1\n      dup2\n      tag_222\n      jumpi\n      swap1\n      pop\n    tag_221:\n      pop\n        /* \"Mqttbaru.sol\":5854:5915  string[] memory _topic = new string[](clientele.topic.length) */\n      swap1\n      pop\n        /* \"Mqttbaru.sol\":5938:5944  uint j */\n      0x00\n        /* \"Mqttbaru.sol\":5934:6055  for(uint j = 0; j < clientele.topic.length; j++){\r... */\n    tag_223:\n        /* \"Mqttbaru.sol\":5954:5963  clientele */\n      dup3\n        /* \"Mqttbaru.sol\":5954:5969  clientele.topic */\n      0x03\n      add\n        /* \"Mqttbaru.sol\":5954:5976  clientele.topic.length */\n      dup1\n      sload\n      swap1\n      pop\n        /* \"Mqttbaru.sol\":5950:5951  j */\n      dup2\n        /* \"Mqttbaru.sol\":5950:5976  j < clientele.topic.length */\n      lt\n        /* \"Mqttbaru.sol\":5934:6055  for(uint j = 0; j < clientele.topic.length; j++){\r... */\n      iszero\n      tag_224\n      jumpi\n        /* \"Mqttbaru.sol\":6017:6026  clientele */\n      dup3\n        /* \"Mqttbaru.sol\":6017:6032  clientele.topic */\n      0x03\n      add\n        /* \"Mqttbaru.sol\":6033:6034  j */\n      dup2\n        /* \"Mqttbaru.sol\":6017:6035  clientele.topic[j] */\n      dup2\n      sload\n      dup2\n      lt\n      tag_226\n      jumpi\n      invalid\n    tag_226:\n      swap1\n      0x00\n      mstore\n      keccak256(0x00, 0x20)\n      add\n        /* \"Mqttbaru.sol\":6005:6035  _topic[j] = clientele.topic[j] */\n      dup1\n      sload\n      0x01\n      dup2\n      0x01\n      and\n      iszero\n      0x0100\n      mul\n      sub\n      and\n      0x02\n      swap1\n      div\n      dup1\n      0x1f\n      add\n      0x20\n      dup1\n      swap2\n      div\n      mul\n      0x20\n      add\n      mload(0x40)\n      swap1\n      dup2\n      add\n      0x40\n      mstore\n      dup1\n      swap3\n      swap2\n      swap1\n      dup2\n      dup2\n      mstore\n      0x20\n      add\n      dup3\n      dup1\n      sload\n      0x01\n      dup2\n      0x01\n      and\n      iszero\n      0x0100\n      mul\n      sub\n      and\n      0x02\n      swap1\n      div\n      dup1\n      iszero\n      tag_228\n      jumpi\n      dup1\n      0x1f\n      lt\n      tag_229\n      jumpi\n      0x0100\n      dup1\n      dup4\n      sload\n      div\n      mul\n      dup4\n      mstore\n      swap2\n      0x20\n      add\n      swap2\n      jump(tag_228)\n    tag_229:\n      dup3\n      add\n      swap2\n      swap1\n      0x00\n      mstore\n      keccak256(0x00, 0x20)\n      swap1\n    tag_230:\n      dup2\n      sload\n      dup2\n      mstore\n      swap1\n      0x01\n      add\n      swap1\n      0x20\n      add\n      dup1\n      dup4\n      gt\n      tag_230\n      jumpi\n      dup3\n      swap1\n      sub\n      0x1f\n      and\n      dup3\n      add\n      swap2\n    tag_228:\n      pop\n      pop\n      pop\n      pop\n      pop\n        /* \"Mqttbaru.sol\":6005:6011  _topic */\n      dup3\n        /* \"Mqttbaru.sol\":6012:6013  j */\n      dup3\n        /* \"Mqttbaru.sol\":6005:6014  _topic[j] */\n      dup2\n      mload\n      dup2\n      lt\n      tag_231\n      jumpi\n      invalid\n    tag_231:\n      0x20\n      mul\n      0x20\n      add\n      add\n        /* \"Mqttbaru.sol\":6005:6035  _topic[j] = clientele.topic[j] */\n      dup2\n      swap1\n      mstore\n      pop\n        /* \"Mqttbaru.sol\":5978:5981  j++ */\n      dup1\n      dup1\n      0x01\n      add\n      swap2\n      pop\n      pop\n        /* \"Mqttbaru.sol\":5934:6055  for(uint j = 0; j < clientele.topic.length; j++){\r... */\n      jump(tag_223)\n    tag_224:\n      pop\n        /* \"Mqttbaru.sol\":6102:6108  _topic */\n      dup1\n        /* \"Mqttbaru.sol\":6073:6129  return(\r... */\n      swap4\n      pop\n      pop\n      pop\n      pop\n      jump(tag_213)\n        /* \"Mqttbaru.sol\":5812:6145  if(_id == clientele.id){\r... */\n    tag_219:\n        /* \"Mqttbaru.sol\":5695:6156  for(uint i = 0; i < clientLedger.length; i++){\r... */\n      pop\n        /* \"Mqttbaru.sol\":5736:5739  i++ */\n      dup1\n      dup1\n      0x01\n      add\n      swap2\n      pop\n      pop\n        /* \"Mqttbaru.sol\":5695:6156  for(uint i = 0; i < clientLedger.length; i++){\r... */\n      jump(tag_214)\n    tag_215:\n      pop\n        /* \"Mqttbaru.sol\":10576:10577  _ */\n    tag_213:\n        /* \"Mqttbaru.sol\":5610:6163  function getTopic(uint _id) isManager public view returns(string[] memory){\r... */\n      swap2\n      swap1\n      pop\n      jump\t// out\n        /* \"Mqttbaru.sol\":9947:10491  function authorize(bytes32 _token, uint _id, string memory _topic) brokerIsAuth(_token) public view returns(bool) {\r... */\n    tag_65:\n        /* \"Mqttbaru.sol\":10055:10059  bool */\n      0x00\n        /* \"Mqttbaru.sol\":10027:10033  _token */\n      dup4\n        /* \"Mqttbaru.sol\":10778:10844  0x0000000000000000000000000000000000000000000000000000000000000000 */\n      0x00\n        /* \"Mqttbaru.sol\":10752:10844  tokenSlots[msg.sender] != 0x0000000000000000000000000000000000000000000000000000000000000000 */\n      dup1\n      shl\n        /* \"Mqttbaru.sol\":10752:10762  tokenSlots */\n      0x05\n        /* \"Mqttbaru.sol\":10752:10774  tokenSlots[msg.sender] */\n      0x00\n        /* \"Mqttbaru.sol\":10763:10773  msg.sender */\n      caller\n        /* \"Mqttbaru.sol\":10752:10774  tokenSlots[msg.sender] */\n      0xffffffffffffffffffffffffffffffffffffffff\n      and\n      0xffffffffffffffffffffffffffffffffffffffff\n      and\n      dup2\n      mstore\n      0x20\n      add\n      swap1\n      dup2\n      mstore\n      0x20\n      add\n      0x00\n      keccak256\n      sload\n        /* \"Mqttbaru.sol\":10752:10844  tokenSlots[msg.sender] != 0x0000000000000000000000000000000000000000000000000000000000000000 */\n      eq\n      iszero\n        /* \"Mqttbaru.sol\":10744:10845  require(tokenSlots[msg.sender] != 0x0000000000000000000000000000000000000000000000000000000000000000) */\n      tag_233\n      jumpi\n      0x00\n      dup1\n      revert\n    tag_233:\n        /* \"Mqttbaru.sol\":10874:10884  tokenSlots */\n      0x05\n        /* \"Mqttbaru.sol\":10874:10896  tokenSlots[msg.sender] */\n      0x00\n        /* \"Mqttbaru.sol\":10885:10895  msg.sender */\n      caller\n        /* \"Mqttbaru.sol\":10874:10896  tokenSlots[msg.sender] */\n      0xffffffffffffffffffffffffffffffffffffffff\n      and\n      0xffffffffffffffffffffffffffffffffffffffff\n      and\n      dup2\n      mstore\n      0x20\n      add\n      swap1\n      dup2\n      mstore\n      0x20\n      add\n      0x00\n      keccak256\n      sload\n        /* \"Mqttbaru.sol\":10864:10870  _token */\n      dup2\n        /* \"Mqttbaru.sol\":10864:10896  _token == tokenSlots[msg.sender] */\n      eq\n        /* \"Mqttbaru.sol\":10856:10897  require(_token == tokenSlots[msg.sender]) */\n      tag_234\n      jumpi\n      0x00\n      dup1\n      revert\n    tag_234:\n        /* \"Mqttbaru.sol\":10076:10082  uint i */\n      0x00\n        /* \"Mqttbaru.sol\":10072:10461  for(uint i = 0; i < clientLedger.length; i++){\r... */\n    tag_236:\n        /* \"Mqttbaru.sol\":10092:10104  clientLedger */\n      0x01\n        /* \"Mqttbaru.sol\":10092:10111  clientLedger.length */\n      dup1\n      sload\n      swap1\n      pop\n        /* \"Mqttbaru.sol\":10088:10089  i */\n      dup2\n        /* \"Mqttbaru.sol\":10088:10111  i < clientLedger.length */\n      lt\n        /* \"Mqttbaru.sol\":10072:10461  for(uint i = 0; i < clientLedger.length; i++){\r... */\n      iszero\n      tag_237\n      jumpi\n        /* \"Mqttbaru.sol\":10142:10154  clientLedger */\n      0x01\n        /* \"Mqttbaru.sol\":10155:10156  i */\n      dup2\n        /* \"Mqttbaru.sol\":10142:10157  clientLedger[i] */\n      dup2\n      sload\n      dup2\n      lt\n      tag_239\n      jumpi\n      invalid\n    tag_239:\n      swap1\n      0x00\n      mstore\n      keccak256(0x00, 0x20)\n      swap1\n      0x04\n      mul\n      add\n        /* \"Mqttbaru.sol\":10142:10160  clientLedger[i].id */\n      0x00\n      add\n      sload\n        /* \"Mqttbaru.sol\":10135:10138  _id */\n      dup6\n        /* \"Mqttbaru.sol\":10135:10160  _id == clientLedger[i].id */\n      eq\n        /* \"Mqttbaru.sol\":10132:10450  if(_id == clientLedger[i].id){\r... */\n      iszero\n      tag_241\n      jumpi\n        /* \"Mqttbaru.sol\":10184:10190  uint j */\n      0x00\n        /* \"Mqttbaru.sol\":10180:10435  for(uint j = 0; j < clientLedger[i].topic.length ; j++){\r... */\n    tag_242:\n        /* \"Mqttbaru.sol\":10200:10212  clientLedger */\n      0x01\n        /* \"Mqttbaru.sol\":10213:10214  i */\n      dup3\n        /* \"Mqttbaru.sol\":10200:10215  clientLedger[i] */\n      dup2\n      sload\n      dup2\n      lt\n      tag_245\n      jumpi\n      invalid\n    tag_245:\n      swap1\n      0x00\n      mstore\n      keccak256(0x00, 0x20)\n      swap1\n      0x04\n      mul\n      add\n        /* \"Mqttbaru.sol\":10200:10221  clientLedger[i].topic */\n      0x03\n      add\n        /* \"Mqttbaru.sol\":10200:10228  clientLedger[i].topic.length */\n      dup1\n      sload\n      swap1\n      pop\n        /* \"Mqttbaru.sol\":10196:10197  j */\n      dup2\n        /* \"Mqttbaru.sol\":10196:10228  j < clientLedger[i].topic.length */\n      lt\n        /* \"Mqttbaru.sol\":10180:10435  for(uint j = 0; j < clientLedger[i].topic.length ; j++){\r... */\n      iszero\n      tag_243\n      jumpi\n        /* \"Mqttbaru.sol\":10327:10339  clientLedger */\n      0x01\n        /* \"Mqttbaru.sol\":10340:10341  i */\n      dup3\n        /* \"Mqttbaru.sol\":10327:10342  clientLedger[i] */\n      dup2\n      sload\n      dup2\n      lt\n      tag_247\n      jumpi\n      invalid\n    tag_247:\n      swap1\n      0x00\n      mstore\n      keccak256(0x00, 0x20)\n      swap1\n      0x04\n      mul\n      add\n        /* \"Mqttbaru.sol\":10327:10348  clientLedger[i].topic */\n      0x03\n      add\n        /* \"Mqttbaru.sol\":10349:10350  j */\n      dup2\n        /* \"Mqttbaru.sol\":10327:10351  clientLedger[i].topic[j] */\n      dup2\n      sload\n      dup2\n      lt\n      tag_249\n      jumpi\n      invalid\n    tag_249:\n      swap1\n      0x00\n      mstore\n      keccak256(0x00, 0x20)\n      add\n        /* \"Mqttbaru.sol\":10310:10352  abi.encodePacked(clientLedger[i].topic[j]) */\n      add(0x20, mload(0x40))\n      tag_251\n      swap2\n      swap1\n      tag_136\n      jump\t// in\n    tag_251:\n      mload(0x40)\n      0x20\n      dup2\n      dup4\n      sub\n      sub\n      dup2\n      mstore\n      swap1\n      0x40\n      mstore\n        /* \"Mqttbaru.sol\":10300:10353  keccak256(abi.encodePacked(clientLedger[i].topic[j])) */\n      dup1\n      mload\n      swap1\n      0x20\n      add\n      keccak256\n        /* \"Mqttbaru.sol\":10288:10294  _topic */\n      dup6\n        /* \"Mqttbaru.sol\":10271:10295  abi.encodePacked(_topic) */\n      add(0x20, mload(0x40))\n      tag_252\n      swap2\n      swap1\n      tag_138\n      jump\t// in\n    tag_252:\n      mload(0x40)\n      0x20\n      dup2\n      dup4\n      sub\n      sub\n      dup2\n      mstore\n      swap1\n      0x40\n      mstore\n        /* \"Mqttbaru.sol\":10261:10296  keccak256(abi.encodePacked(_topic)) */\n      dup1\n      mload\n      swap1\n      0x20\n      add\n      keccak256\n        /* \"Mqttbaru.sol\":10261:10353  keccak256(abi.encodePacked(_topic)) == keccak256(abi.encodePacked(clientLedger[i].topic[j])) */\n      eq\n        /* \"Mqttbaru.sol\":10258:10416  if(keccak256(abi.encodePacked(_topic)) == keccak256(abi.encodePacked(clientLedger[i].topic[j]))){\r... */\n      iszero\n      tag_253\n      jumpi\n        /* \"Mqttbaru.sol\":10388:10392  true */\n      0x01\n        /* \"Mqttbaru.sol\":10381:10392  return true */\n      swap4\n      pop\n      pop\n      pop\n      jump(tag_235)\n        /* \"Mqttbaru.sol\":10258:10416  if(keccak256(abi.encodePacked(_topic)) == keccak256(abi.encodePacked(clientLedger[i].topic[j]))){\r... */\n    tag_253:\n        /* \"Mqttbaru.sol\":10231:10234  j++ */\n      dup1\n      dup1\n      0x01\n      add\n      swap2\n      pop\n      pop\n        /* \"Mqttbaru.sol\":10180:10435  for(uint j = 0; j < clientLedger[i].topic.length ; j++){\r... */\n      jump(tag_242)\n    tag_243:\n      pop\n        /* \"Mqttbaru.sol\":10132:10450  if(_id == clientLedger[i].id){\r... */\n    tag_241:\n        /* \"Mqttbaru.sol\":10113:10116  i++ */\n      dup1\n      dup1\n      0x01\n      add\n      swap2\n      pop\n      pop\n        /* \"Mqttbaru.sol\":10072:10461  for(uint i = 0; i < clientLedger.length; i++){\r... */\n      jump(tag_236)\n    tag_237:\n      pop\n        /* \"Mqttbaru.sol\":10478:10483  false */\n      0x00\n        /* \"Mqttbaru.sol\":10471:10483  return false */\n      swap2\n      pop\n        /* \"Mqttbaru.sol\":10908:10909  _ */\n    tag_235:\n        /* \"Mqttbaru.sol\":9947:10491  function authorize(bytes32 _token, uint _id, string memory _topic) brokerIsAuth(_token) public view returns(bool) {\r... */\n      pop\n      swap4\n      swap3\n      pop\n      pop\n      pop\n      jump\t// out\n        /* \"Mqttbaru.sol\":2981:3392  function addBroker(address payable _brokeraddress) public isManager {\r... */\n    tag_70:\n        /* \"Mqttbaru.sol\":10557:10564  manager */\n      0x00\n      dup1\n      sload\n      swap1\n      0x0100\n      exp\n      swap1\n      div\n      0xffffffffffffffffffffffffffffffffffffffff\n      and\n        /* \"Mqttbaru.sol\":10543:10564  msg.sender == manager */\n      0xffffffffffffffffffffffffffffffffffffffff\n      and\n        /* \"Mqttbaru.sol\":10543:10553  msg.sender */\n      caller\n        /* \"Mqttbaru.sol\":10543:10564  msg.sender == manager */\n      0xffffffffffffffffffffffffffffffffffffffff\n      and\n      eq\n        /* \"Mqttbaru.sol\":10535:10565  require(msg.sender == manager) */\n      tag_255\n      jumpi\n      0x00\n      dup1\n      revert\n    tag_255:\n        /* \"Mqttbaru.sol\":3070:3093  Broker memory newBroker */\n      tag_257\n      tag_258\n      jump\t// in\n    tag_257:\n        /* \"Mqttbaru.sol\":3096:3189  Broker({\r... */\n      mload(0x40)\n      dup1\n      0x40\n      add\n      0x40\n      mstore\n      dup1\n        /* \"Mqttbaru.sol\":3134:3148  _brokeraddress */\n      dup4\n        /* \"Mqttbaru.sol\":3096:3189  Broker({\r... */\n      0xffffffffffffffffffffffffffffffffffffffff\n      and\n      dup2\n      mstore\n      0x20\n      add\n        /* \"Mqttbaru.sol\":3174:3177  now */\n      timestamp\n        /* \"Mqttbaru.sol\":3096:3189  Broker({\r... */\n      dup2\n      mstore\n      pop\n        /* \"Mqttbaru.sol\":3070:3189  Broker memory newBroker = Broker({\r... */\n      swap1\n      pop\n        /* \"Mqttbaru.sol\":3210:3223  brokerAddress */\n      0x02\n        /* \"Mqttbaru.sol\":3229:3238  newBroker */\n      dup2\n        /* \"Mqttbaru.sol\":3210:3239  brokerAddress.push(newBroker) */\n      swap1\n      dup1\n      0x01\n      dup2\n      sload\n      add\n      dup1\n      dup3\n      sstore\n      dup1\n      swap2\n      pop\n      pop\n      0x01\n      swap1\n      sub\n      swap1\n      0x00\n      mstore\n      keccak256(0x00, 0x20)\n      swap1\n      0x02\n      mul\n      add\n      0x00\n      swap1\n      swap2\n      swap1\n      swap2\n      swap1\n      swap2\n      pop\n      0x00\n      dup3\n      add\n      mload\n      dup2\n      0x00\n      add\n      exp(0x0100, 0x00)\n      dup2\n      sload\n      dup2\n      0xffffffffffffffffffffffffffffffffffffffff\n      mul\n      not\n      and\n      swap1\n      dup4\n      0xffffffffffffffffffffffffffffffffffffffff\n      and\n      mul\n      or\n      swap1\n      sstore\n      pop\n      0x20\n      dup3\n      add\n      mload\n      dup2\n      0x01\n      add\n      sstore\n      pop\n      pop\n        /* \"Mqttbaru.sol\":3283:3287  true */\n      0x01\n        /* \"Mqttbaru.sol\":3250:3264  brokerValidity */\n      0x04\n        /* \"Mqttbaru.sol\":3250:3280  brokerValidity[_brokeraddress] */\n      0x00\n        /* \"Mqttbaru.sol\":3265:3279  _brokeraddress */\n      dup5\n        /* \"Mqttbaru.sol\":3250:3280  brokerValidity[_brokeraddress] */\n      0xffffffffffffffffffffffffffffffffffffffff\n      and\n      0xffffffffffffffffffffffffffffffffffffffff\n      and\n      dup2\n      mstore\n      0x20\n      add\n      swap1\n      dup2\n      mstore\n      0x20\n      add\n      0x00\n      keccak256\n      0x00\n        /* \"Mqttbaru.sol\":3250:3287  brokerValidity[_brokeraddress] = true */\n      0x0100\n      exp\n      dup2\n      sload\n      dup2\n      0xff\n      mul\n      not\n      and\n      swap1\n      dup4\n      iszero\n      iszero\n      mul\n      or\n      swap1\n      sstore\n      pop\n        /* \"Mqttbaru.sol\":3298:3309  brokerCount */\n      0x07\n      0x00\n        /* \"Mqttbaru.sol\":3298:3311  brokerCount++ */\n      dup2\n      sload\n      dup1\n      swap3\n      swap2\n      swap1\n      0x01\n      add\n      swap2\n      swap1\n      pop\n      sstore\n      pop\n        /* \"Mqttbaru.sol\":3332:3374  makeLog(now, \"addBroker\", \"-\", msg.sender) */\n      tag_260\n        /* \"Mqttbaru.sol\":3340:3343  now */\n      timestamp\n        /* \"Mqttbaru.sol\":3332:3374  makeLog(now, \"addBroker\", \"-\", msg.sender) */\n      mload(0x40)\n      dup1\n      0x40\n      add\n      0x40\n      mstore\n      dup1\n      0x09\n      dup2\n      mstore\n      0x20\n      add\n      0x61646442726f6b65720000000000000000000000000000000000000000000000\n      dup2\n      mstore\n      pop\n      mload(0x40)\n      dup1\n      0x40\n      add\n      0x40\n      mstore\n      dup1\n      0x01\n      dup2\n      mstore\n      0x20\n      add\n      0x2d00000000000000000000000000000000000000000000000000000000000000\n      dup2\n      mstore\n      pop\n        /* \"Mqttbaru.sol\":3363:3373  msg.sender */\n      caller\n        /* \"Mqttbaru.sol\":3332:3339  makeLog */\n      tag_117\n        /* \"Mqttbaru.sol\":3332:3374  makeLog(now, \"addBroker\", \"-\", msg.sender) */\n      jump\t// in\n    tag_260:\n        /* \"Mqttbaru.sol\":10576:10577  _ */\n      pop\n        /* \"Mqttbaru.sol\":2981:3392  function addBroker(address payable _brokeraddress) public isManager {\r... */\n      pop\n      jump\t// out\n        /* \"Mqttbaru.sol\":8662:9392  function getLog() public isManager view returns (uint[] memory, string[] memory, string[] memory, address[] memory){\r... */\n    tag_72:\n        /* \"Mqttbaru.sol\":8711:8724  uint[] memory */\n      0x60\n        /* \"Mqttbaru.sol\":8726:8741  string[] memory */\n      dup1\n        /* \"Mqttbaru.sol\":8743:8758  string[] memory */\n      0x60\n        /* \"Mqttbaru.sol\":8760:8776  address[] memory */\n      dup1\n        /* \"Mqttbaru.sol\":10557:10564  manager */\n      0x00\n      dup1\n      sload\n      swap1\n      0x0100\n      exp\n      swap1\n      div\n      0xffffffffffffffffffffffffffffffffffffffff\n      and\n        /* \"Mqttbaru.sol\":10543:10564  msg.sender == manager */\n      0xffffffffffffffffffffffffffffffffffffffff\n      and\n        /* \"Mqttbaru.sol\":10543:10553  msg.sender */\n      caller\n        /* \"Mqttbaru.sol\":10543:10564  msg.sender == manager */\n      0xffffffffffffffffffffffffffffffffffffffff\n      and\n      eq\n        /* \"Mqttbaru.sol\":10535:10565  require(msg.sender == manager) */\n      tag_262\n      jumpi\n      0x00\n      dup1\n      revert\n    tag_262:\n        /* \"Mqttbaru.sol\":8788:8813  uint[] memory _timestamps */\n      0x60\n        /* \"Mqttbaru.sol\":8827:8835  logCount */\n      sload(0x09)\n        /* \"Mqttbaru.sol\":8816:8836  new uint[](logCount) */\n      0xffffffffffffffff\n      dup2\n      gt\n      dup1\n      iszero\n      tag_264\n      jumpi\n      0x00\n      dup1\n      revert\n    tag_264:\n      pop\n      mload(0x40)\n      swap1\n      dup1\n      dup3\n      mstore\n      dup1\n      0x20\n      mul\n      0x20\n      add\n      dup3\n      add\n      0x40\n      mstore\n      dup1\n      iszero\n      tag_265\n      jumpi\n      dup2\n      0x20\n      add\n      0x20\n      dup3\n      mul\n      dup1\n      calldatasize\n      dup4\n      calldatacopy\n      dup1\n      dup3\n      add\n      swap2\n      pop\n      pop\n      swap1\n      pop\n    tag_265:\n      pop\n        /* \"Mqttbaru.sol\":8788:8836  uint[] memory _timestamps = new uint[](logCount) */\n      swap1\n      pop\n        /* \"Mqttbaru.sol\":8847:8871  string[] memory _methods */\n      0x60\n        /* \"Mqttbaru.sol\":8887:8895  logCount */\n      sload(0x09)\n        /* \"Mqttbaru.sol\":8874:8896  new string[](logCount) */\n      0xffffffffffffffff\n      dup2\n      gt\n      dup1\n      iszero\n      tag_266\n      jumpi\n      0x00\n      dup1\n      revert\n    tag_266:\n      pop\n      mload(0x40)\n      swap1\n      dup1\n      dup3\n      mstore\n      dup1\n      0x20\n      mul\n      0x20\n      add\n      dup3\n      add\n      0x40\n      mstore\n      dup1\n      iszero\n      tag_267\n      jumpi\n      dup2\n      0x20\n      add\n    tag_268:\n      0x60\n      dup2\n      mstore\n      0x20\n      add\n      swap1\n      0x01\n      swap1\n      sub\n      swap1\n      dup2\n      tag_268\n      jumpi\n      swap1\n      pop\n    tag_267:\n      pop\n        /* \"Mqttbaru.sol\":8847:8896  string[] memory _methods = new string[](logCount) */\n      swap1\n      pop\n        /* \"Mqttbaru.sol\":8907:8932  string[] memory _messages */\n      0x60\n        /* \"Mqttbaru.sol\":8948:8956  logCount */\n      sload(0x09)\n        /* \"Mqttbaru.sol\":8935:8957  new string[](logCount) */\n      0xffffffffffffffff\n      dup2\n      gt\n      dup1\n      iszero\n      tag_269\n      jumpi\n      0x00\n      dup1\n      revert\n    tag_269:\n      pop\n      mload(0x40)\n      swap1\n      dup1\n      dup3\n      mstore\n      dup1\n      0x20\n      mul\n      0x20\n      add\n      dup3\n      add\n      0x40\n      mstore\n      dup1\n      iszero\n      tag_270\n      jumpi\n      dup2\n      0x20\n      add\n    tag_271:\n      0x60\n      dup2\n      mstore\n      0x20\n      add\n      swap1\n      0x01\n      swap1\n      sub\n      swap1\n      dup2\n      tag_271\n      jumpi\n      swap1\n      pop\n    tag_270:\n      pop\n        /* \"Mqttbaru.sol\":8907:8957  string[] memory _messages = new string[](logCount) */\n      swap1\n      pop\n        /* \"Mqttbaru.sol\":8968:8995  address[] memory _addresses */\n      0x60\n        /* \"Mqttbaru.sol\":9012:9020  logCount */\n      sload(0x09)\n        /* \"Mqttbaru.sol\":8998:9021  new address[](logCount) */\n      0xffffffffffffffff\n      dup2\n      gt\n      dup1\n      iszero\n      tag_272\n      jumpi\n      0x00\n      dup1\n      revert\n    tag_272:\n      pop\n      mload(0x40)\n      swap1\n      dup1\n      dup3\n      mstore\n      dup1\n      0x20\n      mul\n      0x20\n      add\n      dup3\n      add\n      0x40\n      mstore\n      dup1\n      iszero\n      tag_273\n      jumpi\n      dup2\n      0x20\n      add\n      0x20\n      dup3\n      mul\n      dup1\n      calldatasize\n      dup4\n      calldatacopy\n      dup1\n      dup3\n      add\n      swap2\n      pop\n      pop\n      swap1\n      pop\n    tag_273:\n      pop\n        /* \"Mqttbaru.sol\":8968:9021  address[] memory _addresses = new address[](logCount) */\n      swap1\n      pop\n        /* \"Mqttbaru.sol\":9036:9042  uint i */\n      0x00\n        /* \"Mqttbaru.sol\":9032:9322  for(uint i = 0; i < logLedger.length; i++) {\r... */\n    tag_274:\n        /* \"Mqttbaru.sol\":9052:9061  logLedger */\n      0x03\n        /* \"Mqttbaru.sol\":9052:9068  logLedger.length */\n      dup1\n      sload\n      swap1\n      pop\n        /* \"Mqttbaru.sol\":9048:9049  i */\n      dup2\n        /* \"Mqttbaru.sol\":9048:9068  i < logLedger.length */\n      lt\n        /* \"Mqttbaru.sol\":9032:9322  for(uint i = 0; i < logLedger.length; i++) {\r... */\n      iszero\n      tag_275\n      jumpi\n        /* \"Mqttbaru.sol\":9090:9113  LogSend storage logelle */\n      0x00\n        /* \"Mqttbaru.sol\":9116:9125  logLedger */\n      0x03\n        /* \"Mqttbaru.sol\":9126:9127  i */\n      dup3\n        /* \"Mqttbaru.sol\":9116:9128  logLedger[i] */\n      dup2\n      sload\n      dup2\n      lt\n      tag_277\n      jumpi\n      invalid\n    tag_277:\n      swap1\n      0x00\n      mstore\n      keccak256(0x00, 0x20)\n      swap1\n      0x04\n      mul\n      add\n        /* \"Mqttbaru.sol\":9090:9128  LogSend storage logelle = logLedger[i] */\n      swap1\n      pop\n        /* \"Mqttbaru.sol\":9160:9167  logelle */\n      dup1\n        /* \"Mqttbaru.sol\":9160:9177  logelle.timestamp */\n      0x00\n      add\n      sload\n        /* \"Mqttbaru.sol\":9143:9154  _timestamps */\n      dup7\n        /* \"Mqttbaru.sol\":9155:9156  i */\n      dup4\n        /* \"Mqttbaru.sol\":9143:9157  _timestamps[i] */\n      dup2\n      mload\n      dup2\n      lt\n      tag_279\n      jumpi\n      invalid\n    tag_279:\n      0x20\n      mul\n      0x20\n      add\n      add\n        /* \"Mqttbaru.sol\":9143:9177  _timestamps[i] = logelle.timestamp */\n      dup2\n      dup2\n      mstore\n      pop\n      pop\n        /* \"Mqttbaru.sol\":9206:9213  logelle */\n      dup1\n        /* \"Mqttbaru.sol\":9206:9220  logelle.method */\n      0x01\n      add\n        /* \"Mqttbaru.sol\":9192:9220  _methods[i] = logelle.method */\n      dup1\n      sload\n      0x01\n      dup2\n      0x01\n      and\n      iszero\n      0x0100\n      mul\n      sub\n      and\n      0x02\n      swap1\n      div\n      dup1\n      0x1f\n      add\n      0x20\n      dup1\n      swap2\n      div\n      mul\n      0x20\n      add\n      mload(0x40)\n      swap1\n      dup2\n      add\n      0x40\n      mstore\n      dup1\n      swap3\n      swap2\n      swap1\n      dup2\n      dup2\n      mstore\n      0x20\n      add\n      dup3\n      dup1\n      sload\n      0x01\n      dup2\n      0x01\n      and\n      iszero\n      0x0100\n      mul\n      sub\n      and\n      0x02\n      swap1\n      div\n      dup1\n      iszero\n      tag_280\n      jumpi\n      dup1\n      0x1f\n      lt\n      tag_281\n      jumpi\n      0x0100\n      dup1\n      dup4\n      sload\n      div\n      mul\n      dup4\n      mstore\n      swap2\n      0x20\n      add\n      swap2\n      jump(tag_280)\n    tag_281:\n      dup3\n      add\n      swap2\n      swap1\n      0x00\n      mstore\n      keccak256(0x00, 0x20)\n      swap1\n    tag_282:\n      dup2\n      sload\n      dup2\n      mstore\n      swap1\n      0x01\n      add\n      swap1\n      0x20\n      add\n      dup1\n      dup4\n      gt\n      tag_282\n      jumpi\n      dup3\n      swap1\n      sub\n      0x1f\n      and\n      dup3\n      add\n      swap2\n    tag_280:\n      pop\n      pop\n      pop\n      pop\n      pop\n        /* \"Mqttbaru.sol\":9192:9200  _methods */\n      dup6\n        /* \"Mqttbaru.sol\":9201:9202  i */\n      dup4\n        /* \"Mqttbaru.sol\":9192:9203  _methods[i] */\n      dup2\n      mload\n      dup2\n      lt\n      tag_283\n      jumpi\n      invalid\n    tag_283:\n      0x20\n      mul\n      0x20\n      add\n      add\n        /* \"Mqttbaru.sol\":9192:9220  _methods[i] = logelle.method */\n      dup2\n      swap1\n      mstore\n      pop\n        /* \"Mqttbaru.sol\":9250:9257  logelle */\n      dup1\n        /* \"Mqttbaru.sol\":9250:9265  logelle.message */\n      0x02\n      add\n        /* \"Mqttbaru.sol\":9235:9265  _messages[i] = logelle.message */\n      dup1\n      sload\n      0x01\n      dup2\n      0x01\n      and\n      iszero\n      0x0100\n      mul\n      sub\n      and\n      0x02\n      swap1\n      div\n      dup1\n      0x1f\n      add\n      0x20\n      dup1\n      swap2\n      div\n      mul\n      0x20\n      add\n      mload(0x40)\n      swap1\n      dup2\n      add\n      0x40\n      mstore\n      dup1\n      swap3\n      swap2\n      swap1\n      dup2\n      dup2\n      mstore\n      0x20\n      add\n      dup3\n      dup1\n      sload\n      0x01\n      dup2\n      0x01\n      and\n      iszero\n      0x0100\n      mul\n      sub\n      and\n      0x02\n      swap1\n      div\n      dup1\n      iszero\n      tag_284\n      jumpi\n      dup1\n      0x1f\n      lt\n      tag_285\n      jumpi\n      0x0100\n      dup1\n      dup4\n      sload\n      div\n      mul\n      dup4\n      mstore\n      swap2\n      0x20\n      add\n      swap2\n      jump(tag_284)\n    tag_285:\n      dup3\n      add\n      swap2\n      swap1\n      0x00\n      mstore\n      keccak256(0x00, 0x20)\n      swap1\n    tag_286:\n      dup2\n      sload\n      dup2\n      mstore\n      swap1\n      0x01\n      add\n      swap1\n      0x20\n      add\n      dup1\n      dup4\n      gt\n      tag_286\n      jumpi\n      dup3\n      swap1\n      sub\n      0x1f\n      and\n      dup3\n      add\n      swap2\n    tag_284:\n      pop\n      pop\n      pop\n      pop\n      pop\n        /* \"Mqttbaru.sol\":9235:9244  _messages */\n      dup5\n        /* \"Mqttbaru.sol\":9245:9246  i */\n      dup4\n        /* \"Mqttbaru.sol\":9235:9247  _messages[i] */\n      dup2\n      mload\n      dup2\n      lt\n      tag_287\n      jumpi\n      invalid\n    tag_287:\n      0x20\n      mul\n      0x20\n      add\n      add\n        /* \"Mqttbaru.sol\":9235:9265  _messages[i] = logelle.message */\n      dup2\n      swap1\n      mstore\n      pop\n        /* \"Mqttbaru.sol\":9296:9303  logelle */\n      dup1\n        /* \"Mqttbaru.sol\":9296:9310  logelle.sender */\n      0x03\n      add\n      0x00\n      swap1\n      sload\n      swap1\n      0x0100\n      exp\n      swap1\n      div\n      0xffffffffffffffffffffffffffffffffffffffff\n      and\n        /* \"Mqttbaru.sol\":9280:9290  _addresses */\n      dup4\n        /* \"Mqttbaru.sol\":9291:9292  i */\n      dup4\n        /* \"Mqttbaru.sol\":9280:9293  _addresses[i] */\n      dup2\n      mload\n      dup2\n      lt\n      tag_288\n      jumpi\n      invalid\n    tag_288:\n      0x20\n      mul\n      0x20\n      add\n      add\n        /* \"Mqttbaru.sol\":9280:9310  _addresses[i] = logelle.sender */\n      swap1\n      0xffffffffffffffffffffffffffffffffffffffff\n      and\n      swap1\n      dup2\n      0xffffffffffffffffffffffffffffffffffffffff\n      and\n      dup2\n      mstore\n      pop\n      pop\n        /* \"Mqttbaru.sol\":9032:9322  for(uint i = 0; i < logLedger.length; i++) {\r... */\n      pop\n        /* \"Mqttbaru.sol\":9070:9073  i++ */\n      dup1\n      dup1\n      0x01\n      add\n      swap2\n      pop\n      pop\n        /* \"Mqttbaru.sol\":9032:9322  for(uint i = 0; i < logLedger.length; i++) {\r... */\n      jump(tag_274)\n    tag_275:\n      pop\n        /* \"Mqttbaru.sol\":9339:9350  _timestamps */\n      dup4\n        /* \"Mqttbaru.sol\":9352:9360  _methods */\n      dup4\n        /* \"Mqttbaru.sol\":9362:9371  _messages */\n      dup4\n        /* \"Mqttbaru.sol\":9373:9383  _addresses */\n      dup4\n        /* \"Mqttbaru.sol\":9332:9384  return(_timestamps, _methods, _messages, _addresses) */\n      swap8\n      pop\n      swap8\n      pop\n      swap8\n      pop\n      swap8\n      pop\n      pop\n      pop\n      pop\n      pop\n        /* \"Mqttbaru.sol\":8662:9392  function getLog() public isManager view returns (uint[] memory, string[] memory, string[] memory, address[] memory){\r... */\n      swap1\n      swap2\n      swap3\n      swap4\n      jump\t// out\n        /* \"Mqttbaru.sol\":6908:7362  function addClient(string memory _username, string memory _password) isManager public {\r... */\n    tag_78:\n        /* \"Mqttbaru.sol\":10557:10564  manager */\n      0x00\n      dup1\n      sload\n      swap1\n      0x0100\n      exp\n      swap1\n      div\n      0xffffffffffffffffffffffffffffffffffffffff\n      and\n        /* \"Mqttbaru.sol\":10543:10564  msg.sender == manager */\n      0xffffffffffffffffffffffffffffffffffffffff\n      and\n        /* \"Mqttbaru.sol\":10543:10553  msg.sender */\n      caller\n        /* \"Mqttbaru.sol\":10543:10564  msg.sender == manager */\n      0xffffffffffffffffffffffffffffffffffffffff\n      and\n      eq\n        /* \"Mqttbaru.sol\":10535:10565  require(msg.sender == manager) */\n      tag_290\n      jumpi\n      0x00\n      dup1\n      revert\n    tag_290:\n        /* \"Mqttbaru.sol\":7005:7028  Client memory newClient */\n      tag_292\n      tag_293\n      jump\t// in\n    tag_292:\n        /* \"Mqttbaru.sol\":7031:7181  Client({\r... */\n      mload(0x40)\n      dup1\n      0x80\n      add\n      0x40\n      mstore\n      dup1\n        /* \"Mqttbaru.sol\":7057:7064  idCount */\n      sload(0x08)\n        /* \"Mqttbaru.sol\":7031:7181  Client({\r... */\n      dup2\n      mstore\n      0x20\n      add\n        /* \"Mqttbaru.sol\":7089:7098  _username */\n      dup5\n        /* \"Mqttbaru.sol\":7031:7181  Client({\r... */\n      dup2\n      mstore\n      0x20\n      add\n        /* \"Mqttbaru.sol\":7123:7132  _password */\n      dup4\n        /* \"Mqttbaru.sol\":7031:7181  Client({\r... */\n      dup2\n      mstore\n      0x20\n      add\n        /* \"Mqttbaru.sol\":7167:7168  0 */\n      0x00\n        /* \"Mqttbaru.sol\":7154:7169  new string[](0) */\n      0xffffffffffffffff\n      dup2\n      gt\n      dup1\n      iszero\n      tag_294\n      jumpi\n      0x00\n      dup1\n      revert\n    tag_294:\n      pop\n      mload(0x40)\n      swap1\n      dup1\n      dup3\n      mstore\n      dup1\n      0x20\n      mul\n      0x20\n      add\n      dup3\n      add\n      0x40\n      mstore\n      dup1\n      iszero\n      tag_295\n      jumpi\n      dup2\n      0x20\n      add\n    tag_296:\n      0x60\n      dup2\n      mstore\n      0x20\n      add\n      swap1\n      0x01\n      swap1\n      sub\n      swap1\n      dup2\n      tag_296\n      jumpi\n      swap1\n      pop\n    tag_295:\n      pop\n        /* \"Mqttbaru.sol\":7031:7181  Client({\r... */\n      dup2\n      mstore\n      pop\n        /* \"Mqttbaru.sol\":7005:7181  Client memory newClient = Client({\r... */\n      swap1\n      pop\n        /* \"Mqttbaru.sol\":7192:7203  clientCount */\n      0x06\n      0x00\n        /* \"Mqttbaru.sol\":7192:7205  clientCount++ */\n      dup2\n      sload\n      dup1\n      swap3\n      swap2\n      swap1\n      0x01\n      add\n      swap2\n      swap1\n      pop\n      sstore\n      pop\n        /* \"Mqttbaru.sol\":7216:7223  idCount */\n      0x08\n      0x00\n        /* \"Mqttbaru.sol\":7216:7225  idCount++ */\n      dup2\n      sload\n      dup1\n      swap3\n      swap2\n      swap1\n      0x01\n      add\n      swap2\n      swap1\n      pop\n      sstore\n      pop\n        /* \"Mqttbaru.sol\":7236:7248  clientLedger */\n      0x01\n        /* \"Mqttbaru.sol\":7254:7263  newClient */\n      dup2\n        /* \"Mqttbaru.sol\":7236:7264  clientLedger.push(newClient) */\n      swap1\n      dup1\n      0x01\n      dup2\n      sload\n      add\n      dup1\n      dup3\n      sstore\n      dup1\n      swap2\n      pop\n      pop\n      0x01\n      swap1\n      sub\n      swap1\n      0x00\n      mstore\n      keccak256(0x00, 0x20)\n      swap1\n      0x04\n      mul\n      add\n      0x00\n      swap1\n      swap2\n      swap1\n      swap2\n      swap1\n      swap2\n      pop\n      0x00\n      dup3\n      add\n      mload\n      dup2\n      0x00\n      add\n      sstore\n      0x20\n      dup3\n      add\n      mload\n      dup2\n      0x01\n      add\n      swap1\n      dup1\n      mload\n      swap1\n      0x20\n      add\n      swap1\n      tag_298\n      swap3\n      swap2\n      swap1\n      tag_143\n      jump\t// in\n    tag_298:\n      pop\n      0x40\n      dup3\n      add\n      mload\n      dup2\n      0x02\n      add\n      swap1\n      dup1\n      mload\n      swap1\n      0x20\n      add\n      swap1\n      tag_299\n      swap3\n      swap2\n      swap1\n      tag_143\n      jump\t// in\n    tag_299:\n      pop\n      0x60\n      dup3\n      add\n      mload\n      dup2\n      0x03\n      add\n      swap1\n      dup1\n      mload\n      swap1\n      0x20\n      add\n      swap1\n      tag_300\n      swap3\n      swap2\n      swap1\n      tag_301\n      jump\t// in\n    tag_300:\n      pop\n      pop\n      pop\n        /* \"Mqttbaru.sol\":7285:7344  makeLog(now, \"addClient\", \"a new client added\", msg.sender) */\n      tag_302\n        /* \"Mqttbaru.sol\":7293:7296  now */\n      timestamp\n        /* \"Mqttbaru.sol\":7285:7344  makeLog(now, \"addClient\", \"a new client added\", msg.sender) */\n      mload(0x40)\n      dup1\n      0x40\n      add\n      0x40\n      mstore\n      dup1\n      0x09\n      dup2\n      mstore\n      0x20\n      add\n      0x616464436c69656e740000000000000000000000000000000000000000000000\n      dup2\n      mstore\n      pop\n      mload(0x40)\n      dup1\n      0x40\n      add\n      0x40\n      mstore\n      dup1\n      0x12\n      dup2\n      mstore\n      0x20\n      add\n      0x61206e657720636c69656e742061646465640000000000000000000000000000\n      dup2\n      mstore\n      pop\n        /* \"Mqttbaru.sol\":7333:7343  msg.sender */\n      caller\n        /* \"Mqttbaru.sol\":7285:7292  makeLog */\n      tag_117\n        /* \"Mqttbaru.sol\":7285:7344  makeLog(now, \"addClient\", \"a new client added\", msg.sender) */\n      jump\t// in\n    tag_302:\n        /* \"Mqttbaru.sol\":10576:10577  _ */\n      pop\n        /* \"Mqttbaru.sol\":6908:7362  function addClient(string memory _username, string memory _password) isManager public {\r... */\n      pop\n      pop\n      jump\t// out\n        /* \"Mqttbaru.sol\":4476:4890  function deleteClient(uint _id) isManager public {\r... */\n    tag_81:\n        /* \"Mqttbaru.sol\":10557:10564  manager */\n      0x00\n      dup1\n      sload\n      swap1\n      0x0100\n      exp\n      swap1\n      div\n      0xffffffffffffffffffffffffffffffffffffffff\n      and\n        /* \"Mqttbaru.sol\":10543:10564  msg.sender == manager */\n      0xffffffffffffffffffffffffffffffffffffffff\n      and\n        /* \"Mqttbaru.sol\":10543:10553  msg.sender */\n      caller\n        /* \"Mqttbaru.sol\":10543:10564  msg.sender == manager */\n      0xffffffffffffffffffffffffffffffffffffffff\n      and\n      eq\n        /* \"Mqttbaru.sol\":10535:10565  require(msg.sender == manager) */\n      tag_304\n      jumpi\n      0x00\n      dup1\n      revert\n    tag_304:\n        /* \"Mqttbaru.sol\":4540:4546  uint i */\n      0x00\n        /* \"Mqttbaru.sol\":4536:4883  for(uint i = 0; i < clientLedger.length; i++){\r... */\n    tag_306:\n        /* \"Mqttbaru.sol\":4556:4568  clientLedger */\n      0x01\n        /* \"Mqttbaru.sol\":4556:4575  clientLedger.length */\n      dup1\n      sload\n      swap1\n      pop\n        /* \"Mqttbaru.sol\":4552:4553  i */\n      dup2\n        /* \"Mqttbaru.sol\":4552:4575  i < clientLedger.length */\n      lt\n        /* \"Mqttbaru.sol\":4536:4883  for(uint i = 0; i < clientLedger.length; i++){\r... */\n      iszero\n      tag_307\n      jumpi\n        /* \"Mqttbaru.sol\":4606:4618  clientLedger */\n      0x01\n        /* \"Mqttbaru.sol\":4619:4620  i */\n      dup2\n        /* \"Mqttbaru.sol\":4606:4621  clientLedger[i] */\n      dup2\n      sload\n      dup2\n      lt\n      tag_309\n      jumpi\n      invalid\n    tag_309:\n      swap1\n      0x00\n      mstore\n      keccak256(0x00, 0x20)\n      swap1\n      0x04\n      mul\n      add\n        /* \"Mqttbaru.sol\":4606:4624  clientLedger[i].id */\n      0x00\n      add\n      sload\n        /* \"Mqttbaru.sol\":4599:4602  _id */\n      dup3\n        /* \"Mqttbaru.sol\":4599:4624  _id == clientLedger[i].id */\n      eq\n        /* \"Mqttbaru.sol\":4596:4872  if(_id == clientLedger[i].id){\r... */\n      iszero\n      tag_311\n      jumpi\n        /* \"Mqttbaru.sol\":4662:4674  clientLedger */\n      0x01\n        /* \"Mqttbaru.sol\":4697:4698  1 */\n      dup1\n        /* \"Mqttbaru.sol\":4675:4687  clientLedger */\n      dup1\n        /* \"Mqttbaru.sol\":4675:4694  clientLedger.length */\n      dup1\n      sload\n      swap1\n      pop\n        /* \"Mqttbaru.sol\":4675:4698  clientLedger.length - 1 */\n      sub\n        /* \"Mqttbaru.sol\":4662:4699  clientLedger[clientLedger.length - 1] */\n      dup2\n      sload\n      dup2\n      lt\n      tag_312\n      jumpi\n      invalid\n    tag_312:\n      swap1\n      0x00\n      mstore\n      keccak256(0x00, 0x20)\n      swap1\n      0x04\n      mul\n      add\n        /* \"Mqttbaru.sol\":4644:4656  clientLedger */\n      0x01\n        /* \"Mqttbaru.sol\":4657:4658  i */\n      dup3\n        /* \"Mqttbaru.sol\":4644:4659  clientLedger[i] */\n      dup2\n      sload\n      dup2\n      lt\n      tag_314\n      jumpi\n      invalid\n    tag_314:\n      swap1\n      0x00\n      mstore\n      keccak256(0x00, 0x20)\n      swap1\n      0x04\n      mul\n      add\n        /* \"Mqttbaru.sol\":4644:4699  clientLedger[i] = clientLedger[clientLedger.length - 1] */\n      0x00\n      dup3\n      add\n      sload\n      dup2\n      0x00\n      add\n      sstore\n      0x01\n      dup3\n      add\n      dup2\n      0x01\n      add\n      swap1\n      dup1\n      sload\n      0x01\n      dup2\n      0x01\n      and\n      iszero\n      0x0100\n      mul\n      sub\n      and\n      0x02\n      swap1\n      div\n      tag_316\n      swap3\n      swap2\n      swap1\n      tag_317\n      jump\t// in\n    tag_316:\n      pop\n      0x02\n      dup3\n      add\n      dup2\n      0x02\n      add\n      swap1\n      dup1\n      sload\n      0x01\n      dup2\n      0x01\n      and\n      iszero\n      0x0100\n      mul\n      sub\n      and\n      0x02\n      swap1\n      div\n      tag_318\n      swap3\n      swap2\n      swap1\n      tag_317\n      jump\t// in\n    tag_318:\n      pop\n      0x03\n      dup3\n      add\n      dup2\n      0x03\n      add\n      swap1\n      dup1\n      sload\n      tag_319\n      swap3\n      swap2\n      swap1\n      tag_320\n      jump\t// in\n    tag_319:\n      pop\n      swap1\n      pop\n      pop\n        /* \"Mqttbaru.sol\":4718:4730  clientLedger */\n      0x01\n        /* \"Mqttbaru.sol\":4718:4736  clientLedger.pop() */\n      dup1\n      sload\n      dup1\n      tag_321\n      jumpi\n      invalid\n    tag_321:\n      0x01\n      swap1\n      sub\n      dup2\n      dup2\n      swap1\n      0x00\n      mstore\n      keccak256(0x00, 0x20)\n      swap1\n      0x04\n      mul\n      add\n      0x00\n      dup1\n      dup3\n      add\n      0x00\n      swap1\n      sstore\n      0x01\n      dup3\n      add\n      0x00\n      tag_323\n      swap2\n      swap1\n      tag_186\n      jump\t// in\n    tag_323:\n      0x02\n      dup3\n      add\n      0x00\n      tag_324\n      swap2\n      swap1\n      tag_186\n      jump\t// in\n    tag_324:\n      0x03\n      dup3\n      add\n      0x00\n      tag_325\n      swap2\n      swap1\n      tag_326\n      jump\t// in\n    tag_325:\n      pop\n      pop\n      swap1\n      sstore\n        /* \"Mqttbaru.sol\":4755:4766  clientCount */\n      0x06\n      0x00\n        /* \"Mqttbaru.sol\":4755:4768  clientCount-- */\n      dup2\n      sload\n      dup1\n      swap3\n      swap2\n      swap1\n      0x01\n      swap1\n      sub\n      swap2\n      swap1\n      pop\n      sstore\n      pop\n        /* \"Mqttbaru.sol\":4787:4856  makeLog(now, \"deleteClient\", \"a client has been deleted\", msg.sender) */\n      tag_327\n        /* \"Mqttbaru.sol\":4795:4798  now */\n      timestamp\n        /* \"Mqttbaru.sol\":4787:4856  makeLog(now, \"deleteClient\", \"a client has been deleted\", msg.sender) */\n      mload(0x40)\n      dup1\n      0x40\n      add\n      0x40\n      mstore\n      dup1\n      0x0c\n      dup2\n      mstore\n      0x20\n      add\n      0x64656c657465436c69656e740000000000000000000000000000000000000000\n      dup2\n      mstore\n      pop\n      mload(0x40)\n      dup1\n      0x40\n      add\n      0x40\n      mstore\n      dup1\n      0x19\n      dup2\n      mstore\n      0x20\n      add\n      0x6120636c69656e7420686173206265656e2064656c6574656400000000000000\n      dup2\n      mstore\n      pop\n        /* \"Mqttbaru.sol\":4845:4855  msg.sender */\n      caller\n        /* \"Mqttbaru.sol\":4787:4794  makeLog */\n      tag_117\n        /* \"Mqttbaru.sol\":4787:4856  makeLog(now, \"deleteClient\", \"a client has been deleted\", msg.sender) */\n      jump\t// in\n    tag_327:\n        /* \"Mqttbaru.sol\":4596:4872  if(_id == clientLedger[i].id){\r... */\n    tag_311:\n        /* \"Mqttbaru.sol\":4577:4580  i++ */\n      dup1\n      dup1\n      0x01\n      add\n      swap2\n      pop\n      pop\n        /* \"Mqttbaru.sol\":4536:4883  for(uint i = 0; i < clientLedger.length; i++){\r... */\n      jump(tag_306)\n    tag_307:\n      pop\n        /* \"Mqttbaru.sol\":4476:4890  function deleteClient(uint _id) isManager public {\r... */\n      pop\n      jump\t// out\n        /* \"Mqttbaru.sol\":2671:2968  function getBroker() public isManager view returns (address[] memory){\r... */\n    tag_83:\n        /* \"Mqttbaru.sol\":2723:2739  address[] memory */\n      0x60\n        /* \"Mqttbaru.sol\":10557:10564  manager */\n      0x00\n      dup1\n      sload\n      swap1\n      0x0100\n      exp\n      swap1\n      div\n      0xffffffffffffffffffffffffffffffffffffffff\n      and\n        /* \"Mqttbaru.sol\":10543:10564  msg.sender == manager */\n      0xffffffffffffffffffffffffffffffffffffffff\n      and\n        /* \"Mqttbaru.sol\":10543:10553  msg.sender */\n      caller\n        /* \"Mqttbaru.sol\":10543:10564  msg.sender == manager */\n      0xffffffffffffffffffffffffffffffffffffffff\n      and\n      eq\n        /* \"Mqttbaru.sol\":10535:10565  require(msg.sender == manager) */\n      tag_329\n      jumpi\n      0x00\n      dup1\n      revert\n    tag_329:\n        /* \"Mqttbaru.sol\":2751:2776  address[] memory _address */\n      0x60\n        /* \"Mqttbaru.sol\":2793:2804  brokerCount */\n      sload(0x07)\n        /* \"Mqttbaru.sol\":2779:2805  new address[](brokerCount) */\n      0xffffffffffffffff\n      dup2\n      gt\n      dup1\n      iszero\n      tag_331\n      jumpi\n      0x00\n      dup1\n      revert\n    tag_331:\n      pop\n      mload(0x40)\n      swap1\n      dup1\n      dup3\n      mstore\n      dup1\n      0x20\n      mul\n      0x20\n      add\n      dup3\n      add\n      0x40\n      mstore\n      dup1\n      iszero\n      tag_332\n      jumpi\n      dup2\n      0x20\n      add\n      0x20\n      dup3\n      mul\n      dup1\n      calldatasize\n      dup4\n      calldatacopy\n      dup1\n      dup3\n      add\n      swap2\n      pop\n      pop\n      swap1\n      pop\n    tag_332:\n      pop\n        /* \"Mqttbaru.sol\":2751:2805  address[] memory _address = new address[](brokerCount) */\n      swap1\n      pop\n        /* \"Mqttbaru.sol\":2820:2826  uint i */\n      0x00\n        /* \"Mqttbaru.sol\":2816:2935  for(uint i = 0; i < brokerAddress.length; i++) {\r... */\n    tag_333:\n        /* \"Mqttbaru.sol\":2836:2849  brokerAddress */\n      0x02\n        /* \"Mqttbaru.sol\":2836:2856  brokerAddress.length */\n      dup1\n      sload\n      swap1\n      pop\n        /* \"Mqttbaru.sol\":2832:2833  i */\n      dup2\n        /* \"Mqttbaru.sol\":2832:2856  i < brokerAddress.length */\n      lt\n        /* \"Mqttbaru.sol\":2816:2935  for(uint i = 0; i < brokerAddress.length; i++) {\r... */\n      iszero\n      tag_334\n      jumpi\n        /* \"Mqttbaru.sol\":2892:2905  brokerAddress */\n      0x02\n        /* \"Mqttbaru.sol\":2906:2907  i */\n      dup2\n        /* \"Mqttbaru.sol\":2892:2908  brokerAddress[i] */\n      dup2\n      sload\n      dup2\n      lt\n      tag_336\n      jumpi\n      invalid\n    tag_336:\n      swap1\n      0x00\n      mstore\n      keccak256(0x00, 0x20)\n      swap1\n      0x02\n      mul\n      add\n        /* \"Mqttbaru.sol\":2892:2923  brokerAddress[i].broker_address */\n      0x00\n      add\n      0x00\n      swap1\n      sload\n      swap1\n      0x0100\n      exp\n      swap1\n      div\n      0xffffffffffffffffffffffffffffffffffffffff\n      and\n        /* \"Mqttbaru.sol\":2878:2886  _address */\n      dup3\n        /* \"Mqttbaru.sol\":2887:2888  i */\n      dup3\n        /* \"Mqttbaru.sol\":2878:2889  _address[i] */\n      dup2\n      mload\n      dup2\n      lt\n      tag_338\n      jumpi\n      invalid\n    tag_338:\n      0x20\n      mul\n      0x20\n      add\n      add\n        /* \"Mqttbaru.sol\":2878:2923  _address[i] = brokerAddress[i].broker_address */\n      swap1\n      0xffffffffffffffffffffffffffffffffffffffff\n      and\n      swap1\n      dup2\n      0xffffffffffffffffffffffffffffffffffffffff\n      and\n      dup2\n      mstore\n      pop\n      pop\n        /* \"Mqttbaru.sol\":2858:2861  i++ */\n      dup1\n      dup1\n      0x01\n      add\n      swap2\n      pop\n      pop\n        /* \"Mqttbaru.sol\":2816:2935  for(uint i = 0; i < brokerAddress.length; i++) {\r... */\n      jump(tag_333)\n    tag_334:\n      pop\n        /* \"Mqttbaru.sol\":2952:2960  _address */\n      dup1\n        /* \"Mqttbaru.sol\":2945:2960  return _address */\n      swap2\n      pop\n      pop\n        /* \"Mqttbaru.sol\":2671:2968  function getBroker() public isManager view returns (address[] memory){\r... */\n      swap1\n      jump\t// out\n        /* \"Mqttbaru.sol\":9404:9935  function authenticate(bytes32 _token, uint _id, string memory _username, string memory _password) brokerIsAuth(_token) public view returns (bool) {\r... */\n    tag_89:\n        /* \"Mqttbaru.sol\":9544:9548  bool */\n      0x00\n        /* \"Mqttbaru.sol\":9515:9521  _token */\n      dup5\n        /* \"Mqttbaru.sol\":10778:10844  0x0000000000000000000000000000000000000000000000000000000000000000 */\n      0x00\n        /* \"Mqttbaru.sol\":10752:10844  tokenSlots[msg.sender] != 0x0000000000000000000000000000000000000000000000000000000000000000 */\n      dup1\n      shl\n        /* \"Mqttbaru.sol\":10752:10762  tokenSlots */\n      0x05\n        /* \"Mqttbaru.sol\":10752:10774  tokenSlots[msg.sender] */\n      0x00\n        /* \"Mqttbaru.sol\":10763:10773  msg.sender */\n      caller\n        /* \"Mqttbaru.sol\":10752:10774  tokenSlots[msg.sender] */\n      0xffffffffffffffffffffffffffffffffffffffff\n      and\n      0xffffffffffffffffffffffffffffffffffffffff\n      and\n      dup2\n      mstore\n      0x20\n      add\n      swap1\n      dup2\n      mstore\n      0x20\n      add\n      0x00\n      keccak256\n      sload\n        /* \"Mqttbaru.sol\":10752:10844  tokenSlots[msg.sender] != 0x0000000000000000000000000000000000000000000000000000000000000000 */\n      eq\n      iszero\n        /* \"Mqttbaru.sol\":10744:10845  require(tokenSlots[msg.sender] != 0x0000000000000000000000000000000000000000000000000000000000000000) */\n      tag_340\n      jumpi\n      0x00\n      dup1\n      revert\n    tag_340:\n        /* \"Mqttbaru.sol\":10874:10884  tokenSlots */\n      0x05\n        /* \"Mqttbaru.sol\":10874:10896  tokenSlots[msg.sender] */\n      0x00\n        /* \"Mqttbaru.sol\":10885:10895  msg.sender */\n      caller\n        /* \"Mqttbaru.sol\":10874:10896  tokenSlots[msg.sender] */\n      0xffffffffffffffffffffffffffffffffffffffff\n      and\n      0xffffffffffffffffffffffffffffffffffffffff\n      and\n      dup2\n      mstore\n      0x20\n      add\n      swap1\n      dup2\n      mstore\n      0x20\n      add\n      0x00\n      keccak256\n      sload\n        /* \"Mqttbaru.sol\":10864:10870  _token */\n      dup2\n        /* \"Mqttbaru.sol\":10864:10896  _token == tokenSlots[msg.sender] */\n      eq\n        /* \"Mqttbaru.sol\":10856:10897  require(_token == tokenSlots[msg.sender]) */\n      tag_341\n      jumpi\n      0x00\n      dup1\n      revert\n    tag_341:\n        /* \"Mqttbaru.sol\":9565:9571  uint i */\n      0x00\n        /* \"Mqttbaru.sol\":9561:9905  for(uint i = 0; i < clientLedger.length; i++){\r... */\n    tag_343:\n        /* \"Mqttbaru.sol\":9581:9593  clientLedger */\n      0x01\n        /* \"Mqttbaru.sol\":9581:9600  clientLedger.length */\n      dup1\n      sload\n      swap1\n      pop\n        /* \"Mqttbaru.sol\":9577:9578  i */\n      dup2\n        /* \"Mqttbaru.sol\":9577:9600  i < clientLedger.length */\n      lt\n        /* \"Mqttbaru.sol\":9561:9905  for(uint i = 0; i < clientLedger.length; i++){\r... */\n      iszero\n      tag_344\n      jumpi\n        /* \"Mqttbaru.sol\":9631:9643  clientLedger */\n      0x01\n        /* \"Mqttbaru.sol\":9644:9645  i */\n      dup2\n        /* \"Mqttbaru.sol\":9631:9646  clientLedger[i] */\n      dup2\n      sload\n      dup2\n      lt\n      tag_346\n      jumpi\n      invalid\n    tag_346:\n      swap1\n      0x00\n      mstore\n      keccak256(0x00, 0x20)\n      swap1\n      0x04\n      mul\n      add\n        /* \"Mqttbaru.sol\":9631:9649  clientLedger[i].id */\n      0x00\n      add\n      sload\n        /* \"Mqttbaru.sol\":9624:9627  _id */\n      dup7\n        /* \"Mqttbaru.sol\":9624:9649  _id == clientLedger[i].id */\n      eq\n        /* \"Mqttbaru.sol\":9624:9748  _id == clientLedger[i].id && keccak256(abi.encodePacked(_username)) == keccak256(abi.encodePacked(clientLedger[i].username)) */\n      dup1\n      iszero\n      tag_348\n      jumpi\n      pop\n        /* \"Mqttbaru.sol\":9722:9734  clientLedger */\n      0x01\n        /* \"Mqttbaru.sol\":9735:9736  i */\n      dup2\n        /* \"Mqttbaru.sol\":9722:9737  clientLedger[i] */\n      dup2\n      sload\n      dup2\n      lt\n      tag_349\n      jumpi\n      invalid\n    tag_349:\n      swap1\n      0x00\n      mstore\n      keccak256(0x00, 0x20)\n      swap1\n      0x04\n      mul\n      add\n        /* \"Mqttbaru.sol\":9722:9746  clientLedger[i].username */\n      0x01\n      add\n        /* \"Mqttbaru.sol\":9705:9747  abi.encodePacked(clientLedger[i].username) */\n      add(0x20, mload(0x40))\n      tag_351\n      swap2\n      swap1\n      tag_136\n      jump\t// in\n    tag_351:\n      mload(0x40)\n      0x20\n      dup2\n      dup4\n      sub\n      sub\n      dup2\n      mstore\n      swap1\n      0x40\n      mstore\n        /* \"Mqttbaru.sol\":9695:9748  keccak256(abi.encodePacked(clientLedger[i].username)) */\n      dup1\n      mload\n      swap1\n      0x20\n      add\n      keccak256\n        /* \"Mqttbaru.sol\":9680:9689  _username */\n      dup6\n        /* \"Mqttbaru.sol\":9663:9690  abi.encodePacked(_username) */\n      add(0x20, mload(0x40))\n      tag_352\n      swap2\n      swap1\n      tag_138\n      jump\t// in\n    tag_352:\n      mload(0x40)\n      0x20\n      dup2\n      dup4\n      sub\n      sub\n      dup2\n      mstore\n      swap1\n      0x40\n      mstore\n        /* \"Mqttbaru.sol\":9653:9691  keccak256(abi.encodePacked(_username)) */\n      dup1\n      mload\n      swap1\n      0x20\n      add\n      keccak256\n        /* \"Mqttbaru.sol\":9653:9748  keccak256(abi.encodePacked(_username)) == keccak256(abi.encodePacked(clientLedger[i].username)) */\n      eq\n        /* \"Mqttbaru.sol\":9624:9748  _id == clientLedger[i].id && keccak256(abi.encodePacked(_username)) == keccak256(abi.encodePacked(clientLedger[i].username)) */\n    tag_348:\n        /* \"Mqttbaru.sol\":9624:9847  _id == clientLedger[i].id && keccak256(abi.encodePacked(_username)) == keccak256(abi.encodePacked(clientLedger[i].username)) && keccak256(abi.encodePacked(_password)) == keccak256(abi.encodePacked(clientLedger[i].password)) */\n      dup1\n      iszero\n      tag_353\n      jumpi\n      pop\n        /* \"Mqttbaru.sol\":9821:9833  clientLedger */\n      0x01\n        /* \"Mqttbaru.sol\":9834:9835  i */\n      dup2\n        /* \"Mqttbaru.sol\":9821:9836  clientLedger[i] */\n      dup2\n      sload\n      dup2\n      lt\n      tag_354\n      jumpi\n      invalid\n    tag_354:\n      swap1\n      0x00\n      mstore\n      keccak256(0x00, 0x20)\n      swap1\n      0x04\n      mul\n      add\n        /* \"Mqttbaru.sol\":9821:9845  clientLedger[i].password */\n      0x02\n      add\n        /* \"Mqttbaru.sol\":9804:9846  abi.encodePacked(clientLedger[i].password) */\n      add(0x20, mload(0x40))\n      tag_356\n      swap2\n      swap1\n      tag_136\n      jump\t// in\n    tag_356:\n      mload(0x40)\n      0x20\n      dup2\n      dup4\n      sub\n      sub\n      dup2\n      mstore\n      swap1\n      0x40\n      mstore\n        /* \"Mqttbaru.sol\":9794:9847  keccak256(abi.encodePacked(clientLedger[i].password)) */\n      dup1\n      mload\n      swap1\n      0x20\n      add\n      keccak256\n        /* \"Mqttbaru.sol\":9779:9788  _password */\n      dup5\n        /* \"Mqttbaru.sol\":9762:9789  abi.encodePacked(_password) */\n      add(0x20, mload(0x40))\n      tag_357\n      swap2\n      swap1\n      tag_138\n      jump\t// in\n    tag_357:\n      mload(0x40)\n      0x20\n      dup2\n      dup4\n      sub\n      sub\n      dup2\n      mstore\n      swap1\n      0x40\n      mstore\n        /* \"Mqttbaru.sol\":9752:9790  keccak256(abi.encodePacked(_password)) */\n      dup1\n      mload\n      swap1\n      0x20\n      add\n      keccak256\n        /* \"Mqttbaru.sol\":9752:9847  keccak256(abi.encodePacked(_password)) == keccak256(abi.encodePacked(clientLedger[i].password)) */\n      eq\n        /* \"Mqttbaru.sol\":9624:9847  _id == clientLedger[i].id && keccak256(abi.encodePacked(_username)) == keccak256(abi.encodePacked(clientLedger[i].username)) && keccak256(abi.encodePacked(_password)) == keccak256(abi.encodePacked(clientLedger[i].password)) */\n    tag_353:\n        /* \"Mqttbaru.sol\":9621:9894  if(_id == clientLedger[i].id && keccak256(abi.encodePacked(_username)) == keccak256(abi.encodePacked(clientLedger[i].username)) && keccak256(abi.encodePacked(_password)) == keccak256(abi.encodePacked(clientLedger[i].password))){\r... */\n      iszero\n      tag_358\n      jumpi\n        /* \"Mqttbaru.sol\":9874:9878  true */\n      0x01\n        /* \"Mqttbaru.sol\":9867:9878  return true */\n      swap3\n      pop\n      pop\n      jump(tag_342)\n        /* \"Mqttbaru.sol\":9621:9894  if(_id == clientLedger[i].id && keccak256(abi.encodePacked(_username)) == keccak256(abi.encodePacked(clientLedger[i].username)) && keccak256(abi.encodePacked(_password)) == keccak256(abi.encodePacked(clientLedger[i].password))){\r... */\n    tag_358:\n        /* \"Mqttbaru.sol\":9602:9605  i++ */\n      dup1\n      dup1\n      0x01\n      add\n      swap2\n      pop\n      pop\n        /* \"Mqttbaru.sol\":9561:9905  for(uint i = 0; i < clientLedger.length; i++){\r... */\n      jump(tag_343)\n    tag_344:\n      pop\n        /* \"Mqttbaru.sol\":9922:9927  false */\n      0x00\n        /* \"Mqttbaru.sol\":9915:9927  return false */\n      swap2\n      pop\n        /* \"Mqttbaru.sol\":10908:10909  _ */\n    tag_342:\n        /* \"Mqttbaru.sol\":9404:9935  function authenticate(bytes32 _token, uint _id, string memory _username, string memory _password) brokerIsAuth(_token) public view returns (bool) {\r... */\n      pop\n      swap5\n      swap4\n      pop\n      pop\n      pop\n      pop\n      jump\t// out\n        /* \"Mqttbaru.sol\":7380:8032  function updateTopic(uint _id, string memory _topic, string memory _newtopic) isManager public{\r... */\n    tag_94:\n        /* \"Mqttbaru.sol\":10557:10564  manager */\n      0x00\n      dup1\n      sload\n      swap1\n      0x0100\n      exp\n      swap1\n      div\n      0xffffffffffffffffffffffffffffffffffffffff\n      and\n        /* \"Mqttbaru.sol\":10543:10564  msg.sender == manager */\n      0xffffffffffffffffffffffffffffffffffffffff\n      and\n        /* \"Mqttbaru.sol\":10543:10553  msg.sender */\n      caller\n        /* \"Mqttbaru.sol\":10543:10564  msg.sender == manager */\n      0xffffffffffffffffffffffffffffffffffffffff\n      and\n      eq\n        /* \"Mqttbaru.sol\":10535:10565  require(msg.sender == manager) */\n      tag_360\n      jumpi\n      0x00\n      dup1\n      revert\n    tag_360:\n        /* \"Mqttbaru.sol\":7489:7495  uint i */\n      0x00\n        /* \"Mqttbaru.sol\":7485:8025  for(uint i = 0; i < clientLedger.length; i++){\r... */\n    tag_362:\n        /* \"Mqttbaru.sol\":7505:7517  clientLedger */\n      0x01\n        /* \"Mqttbaru.sol\":7505:7524  clientLedger.length */\n      dup1\n      sload\n      swap1\n      pop\n        /* \"Mqttbaru.sol\":7501:7502  i */\n      dup2\n        /* \"Mqttbaru.sol\":7501:7524  i < clientLedger.length */\n      lt\n        /* \"Mqttbaru.sol\":7485:8025  for(uint i = 0; i < clientLedger.length; i++){\r... */\n      iszero\n      tag_363\n      jumpi\n        /* \"Mqttbaru.sol\":7545:7569  Client storage clientele */\n      0x00\n        /* \"Mqttbaru.sol\":7572:7584  clientLedger */\n      0x01\n        /* \"Mqttbaru.sol\":7585:7586  i */\n      dup3\n        /* \"Mqttbaru.sol\":7572:7587  clientLedger[i] */\n      dup2\n      sload\n      dup2\n      lt\n      tag_365\n      jumpi\n      invalid\n    tag_365:\n      swap1\n      0x00\n      mstore\n      keccak256(0x00, 0x20)\n      swap1\n      0x04\n      mul\n      add\n        /* \"Mqttbaru.sol\":7545:7587  Client storage clientele = clientLedger[i] */\n      swap1\n      pop\n        /* \"Mqttbaru.sol\":7612:7621  clientele */\n      dup1\n        /* \"Mqttbaru.sol\":7612:7624  clientele.id */\n      0x00\n      add\n      sload\n        /* \"Mqttbaru.sol\":7605:7608  _id */\n      dup6\n        /* \"Mqttbaru.sol\":7605:7624  _id == clientele.id */\n      eq\n        /* \"Mqttbaru.sol\":7602:8014  if(_id == clientele.id){\r... */\n      iszero\n      tag_367\n      jumpi\n        /* \"Mqttbaru.sol\":7648:7654  uint j */\n      0x00\n        /* \"Mqttbaru.sol\":7644:7999  for(uint j = 0; j < clientele.topic.length; j++){\r... */\n    tag_368:\n        /* \"Mqttbaru.sol\":7664:7673  clientele */\n      dup2\n        /* \"Mqttbaru.sol\":7664:7679  clientele.topic */\n      0x03\n      add\n        /* \"Mqttbaru.sol\":7664:7686  clientele.topic.length */\n      dup1\n      sload\n      swap1\n      pop\n        /* \"Mqttbaru.sol\":7660:7661  j */\n      dup2\n        /* \"Mqttbaru.sol\":7660:7686  j < clientele.topic.length */\n      lt\n        /* \"Mqttbaru.sol\":7644:7999  for(uint j = 0; j < clientele.topic.length; j++){\r... */\n      iszero\n      tag_369\n      jumpi\n        /* \"Mqttbaru.sol\":7796:7802  _topic */\n      dup5\n        /* \"Mqttbaru.sol\":7779:7803  abi.encodePacked(_topic) */\n      add(0x20, mload(0x40))\n      tag_371\n      swap2\n      swap1\n      tag_138\n      jump\t// in\n    tag_371:\n      mload(0x40)\n      0x20\n      dup2\n      dup4\n      sub\n      sub\n      dup2\n      mstore\n      swap1\n      0x40\n      mstore\n        /* \"Mqttbaru.sol\":7769:7804  keccak256(abi.encodePacked(_topic)) */\n      dup1\n      mload\n      swap1\n      0x20\n      add\n      keccak256\n        /* \"Mqttbaru.sol\":7745:7754  clientele */\n      dup3\n        /* \"Mqttbaru.sol\":7745:7760  clientele.topic */\n      0x03\n      add\n        /* \"Mqttbaru.sol\":7761:7762  j */\n      dup3\n        /* \"Mqttbaru.sol\":7745:7763  clientele.topic[j] */\n      dup2\n      sload\n      dup2\n      lt\n      tag_372\n      jumpi\n      invalid\n    tag_372:\n      swap1\n      0x00\n      mstore\n      keccak256(0x00, 0x20)\n      add\n        /* \"Mqttbaru.sol\":7728:7764  abi.encodePacked(clientele.topic[j]) */\n      add(0x20, mload(0x40))\n      tag_374\n      swap2\n      swap1\n      tag_136\n      jump\t// in\n    tag_374:\n      mload(0x40)\n      0x20\n      dup2\n      dup4\n      sub\n      sub\n      dup2\n      mstore\n      swap1\n      0x40\n      mstore\n        /* \"Mqttbaru.sol\":7718:7765  keccak256(abi.encodePacked(clientele.topic[j])) */\n      dup1\n      mload\n      swap1\n      0x20\n      add\n      keccak256\n        /* \"Mqttbaru.sol\":7718:7804  keccak256(abi.encodePacked(clientele.topic[j])) == keccak256(abi.encodePacked(_topic)) */\n      eq\n        /* \"Mqttbaru.sol\":7715:7980  if(keccak256(abi.encodePacked(clientele.topic[j])) == keccak256(abi.encodePacked(_topic))){\r... */\n      iszero\n      tag_375\n      jumpi\n        /* \"Mqttbaru.sol\":7853:7862  _newtopic */\n      dup4\n        /* \"Mqttbaru.sol\":7832:7841  clientele */\n      dup3\n        /* \"Mqttbaru.sol\":7832:7847  clientele.topic */\n      0x03\n      add\n        /* \"Mqttbaru.sol\":7848:7849  j */\n      dup3\n        /* \"Mqttbaru.sol\":7832:7850  clientele.topic[j] */\n      dup2\n      sload\n      dup2\n      lt\n      tag_376\n      jumpi\n      invalid\n    tag_376:\n      swap1\n      0x00\n      mstore\n      keccak256(0x00, 0x20)\n      add\n        /* \"Mqttbaru.sol\":7832:7862  clientele.topic[j] = _newtopic */\n      swap1\n      dup1\n      mload\n      swap1\n      0x20\n      add\n      swap1\n      tag_378\n      swap3\n      swap2\n      swap1\n      tag_143\n      jump\t// in\n    tag_378:\n      pop\n        /* \"Mqttbaru.sol\":7889:7956  makeLog(now, \"updateTopic\", \"a topic has been updated\", msg.sender) */\n      tag_379\n        /* \"Mqttbaru.sol\":7897:7900  now */\n      timestamp\n        /* \"Mqttbaru.sol\":7889:7956  makeLog(now, \"updateTopic\", \"a topic has been updated\", msg.sender) */\n      mload(0x40)\n      dup1\n      0x40\n      add\n      0x40\n      mstore\n      dup1\n      0x0b\n      dup2\n      mstore\n      0x20\n      add\n      0x757064617465546f706963000000000000000000000000000000000000000000\n      dup2\n      mstore\n      pop\n      mload(0x40)\n      dup1\n      0x40\n      add\n      0x40\n      mstore\n      dup1\n      0x18\n      dup2\n      mstore\n      0x20\n      add\n      0x6120746f70696320686173206265656e20757064617465640000000000000000\n      dup2\n      mstore\n      pop\n        /* \"Mqttbaru.sol\":7945:7955  msg.sender */\n      caller\n        /* \"Mqttbaru.sol\":7889:7896  makeLog */\n      tag_117\n        /* \"Mqttbaru.sol\":7889:7956  makeLog(now, \"updateTopic\", \"a topic has been updated\", msg.sender) */\n      jump\t// in\n    tag_379:\n        /* \"Mqttbaru.sol\":7715:7980  if(keccak256(abi.encodePacked(clientele.topic[j])) == keccak256(abi.encodePacked(_topic))){\r... */\n    tag_375:\n        /* \"Mqttbaru.sol\":7688:7691  j++ */\n      dup1\n      dup1\n      0x01\n      add\n      swap2\n      pop\n      pop\n        /* \"Mqttbaru.sol\":7644:7999  for(uint j = 0; j < clientele.topic.length; j++){\r... */\n      jump(tag_368)\n    tag_369:\n      pop\n        /* \"Mqttbaru.sol\":7602:8014  if(_id == clientele.id){\r... */\n    tag_367:\n        /* \"Mqttbaru.sol\":7485:8025  for(uint i = 0; i < clientLedger.length; i++){\r... */\n      pop\n        /* \"Mqttbaru.sol\":7526:7529  i++ */\n      dup1\n      dup1\n      0x01\n      add\n      swap2\n      pop\n      pop\n        /* \"Mqttbaru.sol\":7485:8025  for(uint i = 0; i < clientLedger.length; i++){\r... */\n      jump(tag_362)\n    tag_363:\n      pop\n        /* \"Mqttbaru.sol\":7380:8032  function updateTopic(uint _id, string memory _topic, string memory _newtopic) isManager public{\r... */\n      pop\n      pop\n      pop\n      jump\t// out\n        /* \"Mqttbaru.sol\":1515:2659  function refreshToken() public isBroker {\r... */\n    tag_96:\n        /* \"Mqttbaru.sol\":10636:10650  brokerValidity */\n      0x04\n        /* \"Mqttbaru.sol\":10636:10662  brokerValidity[msg.sender] */\n      0x00\n        /* \"Mqttbaru.sol\":10651:10661  msg.sender */\n      caller\n        /* \"Mqttbaru.sol\":10636:10662  brokerValidity[msg.sender] */\n      0xffffffffffffffffffffffffffffffffffffffff\n      and\n      0xffffffffffffffffffffffffffffffffffffffff\n      and\n      dup2\n      mstore\n      0x20\n      add\n      swap1\n      dup2\n      mstore\n      0x20\n      add\n      0x00\n      keccak256\n      0x00\n      swap1\n      sload\n      swap1\n      0x0100\n      exp\n      swap1\n      div\n      0xff\n      and\n        /* \"Mqttbaru.sol\":10628:10663  require(brokerValidity[msg.sender]) */\n      tag_381\n      jumpi\n      0x00\n      dup1\n      revert\n    tag_381:\n        /* \"Mqttbaru.sol\":1570:1576  uint i */\n      0x00\n        /* \"Mqttbaru.sol\":1566:2652  for(uint i = 0; i < brokerAddress.length; i++) {\r... */\n    tag_383:\n        /* \"Mqttbaru.sol\":1586:1599  brokerAddress */\n      0x02\n        /* \"Mqttbaru.sol\":1586:1606  brokerAddress.length */\n      dup1\n      sload\n      swap1\n      pop\n        /* \"Mqttbaru.sol\":1582:1583  i */\n      dup2\n        /* \"Mqttbaru.sol\":1582:1606  i < brokerAddress.length */\n      lt\n        /* \"Mqttbaru.sol\":1566:2652  for(uint i = 0; i < brokerAddress.length; i++) {\r... */\n      iszero\n      tag_384\n      jumpi\n        /* \"Mqttbaru.sol\":1645:1658  brokerAddress */\n      0x02\n        /* \"Mqttbaru.sol\":1659:1660  i */\n      dup2\n        /* \"Mqttbaru.sol\":1645:1661  brokerAddress[i] */\n      dup2\n      sload\n      dup2\n      lt\n      tag_386\n      jumpi\n      invalid\n    tag_386:\n      swap1\n      0x00\n      mstore\n      keccak256(0x00, 0x20)\n      swap1\n      0x02\n      mul\n      add\n        /* \"Mqttbaru.sol\":1645:1676  brokerAddress[i].broker_address */\n      0x00\n      add\n      0x00\n      swap1\n      sload\n      swap1\n      0x0100\n      exp\n      swap1\n      div\n      0xffffffffffffffffffffffffffffffffffffffff\n      and\n        /* \"Mqttbaru.sol\":1631:1676  msg.sender == brokerAddress[i].broker_address */\n      0xffffffffffffffffffffffffffffffffffffffff\n      and\n        /* \"Mqttbaru.sol\":1631:1641  msg.sender */\n      caller\n        /* \"Mqttbaru.sol\":1631:1676  msg.sender == brokerAddress[i].broker_address */\n      0xffffffffffffffffffffffffffffffffffffffff\n      and\n      eq\n        /* \"Mqttbaru.sol\":1628:2641  if(msg.sender == brokerAddress[i].broker_address){\r... */\n      iszero\n      tag_388\n      jumpi\n        /* \"Mqttbaru.sol\":1696:1709  uint rightnow */\n      0x00\n        /* \"Mqttbaru.sol\":1712:1715  now */\n      timestamp\n        /* \"Mqttbaru.sol\":1696:1715  uint rightnow = now */\n      swap1\n      pop\n        /* \"Mqttbaru.sol\":1734:1743  uint jeda */\n      0x00\n        /* \"Mqttbaru.sol\":1757:1770  brokerAddress */\n      0x02\n        /* \"Mqttbaru.sol\":1771:1772  i */\n      dup4\n        /* \"Mqttbaru.sol\":1757:1773  brokerAddress[i] */\n      dup2\n      sload\n      dup2\n      lt\n      tag_389\n      jumpi\n      invalid\n    tag_389:\n      swap1\n      0x00\n      mstore\n      keccak256(0x00, 0x20)\n      swap1\n      0x02\n      mul\n      add\n        /* \"Mqttbaru.sol\":1757:1783  brokerAddress[i].timestamp */\n      0x01\n      add\n      sload\n        /* \"Mqttbaru.sol\":1746:1754  rightnow */\n      dup3\n        /* \"Mqttbaru.sol\":1746:1783  rightnow - brokerAddress[i].timestamp */\n      sub\n        /* \"Mqttbaru.sol\":1734:1783  uint jeda = rightnow - brokerAddress[i].timestamp */\n      swap1\n      pop\n        /* \"Mqttbaru.sol\":1812:1815  240 */\n      0xf0\n        /* \"Mqttbaru.sol\":1805:1809  jeda */\n      dup2\n        /* \"Mqttbaru.sol\":1805:1815  jeda > 240 */\n      gt\n        /* \"Mqttbaru.sol\":1802:2626  if(jeda > 240){\r... */\n      iszero\n      tag_391\n      jumpi\n        /* \"Mqttbaru.sol\":1868:1876  rightnow */\n      dup2\n        /* \"Mqttbaru.sol\":1839:1852  brokerAddress */\n      0x02\n        /* \"Mqttbaru.sol\":1853:1854  i */\n      dup5\n        /* \"Mqttbaru.sol\":1839:1855  brokerAddress[i] */\n      dup2\n      sload\n      dup2\n      lt\n      tag_392\n      jumpi\n      invalid\n    tag_392:\n      swap1\n      0x00\n      mstore\n      keccak256(0x00, 0x20)\n      swap1\n      0x02\n      mul\n      add\n        /* \"Mqttbaru.sol\":1839:1865  brokerAddress[i].timestamp */\n      0x01\n      add\n        /* \"Mqttbaru.sol\":1839:1876  brokerAddress[i].timestamp = rightnow */\n      dup2\n      swap1\n      sstore\n      pop\n        /* \"Mqttbaru.sol\":1972:1982  msg.sender */\n      caller\n        /* \"Mqttbaru.sol\":1984:1997  brokerAddress */\n      0x02\n        /* \"Mqttbaru.sol\":1998:1999  i */\n      dup5\n        /* \"Mqttbaru.sol\":1984:2000  brokerAddress[i] */\n      dup2\n      sload\n      dup2\n      lt\n      tag_394\n      jumpi\n      invalid\n    tag_394:\n      swap1\n      0x00\n      mstore\n      keccak256(0x00, 0x20)\n      swap1\n      0x02\n      mul\n      add\n        /* \"Mqttbaru.sol\":1984:2010  brokerAddress[i].timestamp */\n      0x01\n      add\n      sload\n        /* \"Mqttbaru.sol\":1955:2011  abi.encodePacked(msg.sender, brokerAddress[i].timestamp) */\n      add(0x20, mload(0x40))\n      tag_396\n      swap3\n      swap2\n      swap1\n      tag_397\n      jump\t// in\n    tag_396:\n      mload(0x40)\n      0x20\n      dup2\n      dup4\n      sub\n      sub\n      dup2\n      mstore\n      swap1\n      0x40\n      mstore\n        /* \"Mqttbaru.sol\":1945:2012  keccak256(abi.encodePacked(msg.sender, brokerAddress[i].timestamp)) */\n      dup1\n      mload\n      swap1\n      0x20\n      add\n      keccak256\n        /* \"Mqttbaru.sol\":1899:1909  tokenSlots */\n      0x05\n        /* \"Mqttbaru.sol\":1899:1942  tokenSlots[brokerAddress[i].broker_address] */\n      0x00\n        /* \"Mqttbaru.sol\":1910:1923  brokerAddress */\n      0x02\n        /* \"Mqttbaru.sol\":1924:1925  i */\n      dup7\n        /* \"Mqttbaru.sol\":1910:1926  brokerAddress[i] */\n      dup2\n      sload\n      dup2\n      lt\n      tag_398\n      jumpi\n      invalid\n    tag_398:\n      swap1\n      0x00\n      mstore\n      keccak256(0x00, 0x20)\n      swap1\n      0x02\n      mul\n      add\n        /* \"Mqttbaru.sol\":1910:1941  brokerAddress[i].broker_address */\n      0x00\n      add\n      0x00\n      swap1\n      sload\n      swap1\n      0x0100\n      exp\n      swap1\n      div\n      0xffffffffffffffffffffffffffffffffffffffff\n      and\n        /* \"Mqttbaru.sol\":1899:1942  tokenSlots[brokerAddress[i].broker_address] */\n      0xffffffffffffffffffffffffffffffffffffffff\n      and\n      0xffffffffffffffffffffffffffffffffffffffff\n      and\n      dup2\n      mstore\n      0x20\n      add\n      swap1\n      dup2\n      mstore\n      0x20\n      add\n      0x00\n      keccak256\n        /* \"Mqttbaru.sol\":1899:2012  tokenSlots[brokerAddress[i].broker_address] = keccak256(abi.encodePacked(msg.sender, brokerAddress[i].timestamp)) */\n      dup2\n      swap1\n      sstore\n      pop\n        /* \"Mqttbaru.sol\":2035:2091  makeLog(now, \"refreshToken\", \"token diubah\", msg.sender) */\n      tag_400\n        /* \"Mqttbaru.sol\":2043:2046  now */\n      timestamp\n        /* \"Mqttbaru.sol\":2035:2091  makeLog(now, \"refreshToken\", \"token diubah\", msg.sender) */\n      mload(0x40)\n      dup1\n      0x40\n      add\n      0x40\n      mstore\n      dup1\n      0x0c\n      dup2\n      mstore\n      0x20\n      add\n      0x72656672657368546f6b656e0000000000000000000000000000000000000000\n      dup2\n      mstore\n      pop\n      mload(0x40)\n      dup1\n      0x40\n      add\n      0x40\n      mstore\n      dup1\n      0x0c\n      dup2\n      mstore\n      0x20\n      add\n      0x746f6b656e206469756261680000000000000000000000000000000000000000\n      dup2\n      mstore\n      pop\n        /* \"Mqttbaru.sol\":2080:2090  msg.sender */\n      caller\n        /* \"Mqttbaru.sol\":2035:2042  makeLog */\n      tag_117\n        /* \"Mqttbaru.sol\":2035:2091  makeLog(now, \"refreshToken\", \"token diubah\", msg.sender) */\n      jump\t// in\n    tag_400:\n        /* \"Mqttbaru.sol\":2119:2173  ref_token(tokenSlots[brokerAddress[i].broker_address]) */\n      0x504e9e94e0c65229aaf8cabe153380cc35da3135e30129bc3195f7e031cdf82b\n        /* \"Mqttbaru.sol\":2129:2139  tokenSlots */\n      0x05\n        /* \"Mqttbaru.sol\":2129:2172  tokenSlots[brokerAddress[i].broker_address] */\n      0x00\n        /* \"Mqttbaru.sol\":2140:2153  brokerAddress */\n      0x02\n        /* \"Mqttbaru.sol\":2154:2155  i */\n      dup7\n        /* \"Mqttbaru.sol\":2140:2156  brokerAddress[i] */\n      dup2\n      sload\n      dup2\n      lt\n      tag_401\n      jumpi\n      invalid\n    tag_401:\n      swap1\n      0x00\n      mstore\n      keccak256(0x00, 0x20)\n      swap1\n      0x02\n      mul\n      add\n        /* \"Mqttbaru.sol\":2140:2171  brokerAddress[i].broker_address */\n      0x00\n      add\n      0x00\n      swap1\n      sload\n      swap1\n      0x0100\n      exp\n      swap1\n      div\n      0xffffffffffffffffffffffffffffffffffffffff\n      and\n        /* \"Mqttbaru.sol\":2129:2172  tokenSlots[brokerAddress[i].broker_address] */\n      0xffffffffffffffffffffffffffffffffffffffff\n      and\n      0xffffffffffffffffffffffffffffffffffffffff\n      and\n      dup2\n      mstore\n      0x20\n      add\n      swap1\n      dup2\n      mstore\n      0x20\n      add\n      0x00\n      keccak256\n      sload\n        /* \"Mqttbaru.sol\":2119:2173  ref_token(tokenSlots[brokerAddress[i].broker_address]) */\n      mload(0x40)\n      tag_403\n      swap2\n      swap1\n      tag_29\n      jump\t// in\n    tag_403:\n      mload(0x40)\n      dup1\n      swap2\n      sub\n      swap1\n      log1\n        /* \"Mqttbaru.sol\":2201:2222  check('token diubah') */\n      0xb6f921ade0de8da9e62e948d90ae6f2dd6b678679ad77753c75fe1b6d9a72004\n      mload(0x40)\n      tag_404\n      swap1\n      tag_405\n      jump\t// in\n    tag_404:\n      mload(0x40)\n      dup1\n      swap2\n      sub\n      swap1\n      log1\n        /* \"Mqttbaru.sol\":1802:2626  if(jeda > 240){\r... */\n      jump(tag_406)\n    tag_391:\n        /* \"Mqttbaru.sol\":2344:2354  msg.sender */\n      caller\n        /* \"Mqttbaru.sol\":2356:2369  brokerAddress */\n      0x02\n        /* \"Mqttbaru.sol\":2370:2371  i */\n      dup5\n        /* \"Mqttbaru.sol\":2356:2372  brokerAddress[i] */\n      dup2\n      sload\n      dup2\n      lt\n      tag_407\n      jumpi\n      invalid\n    tag_407:\n      swap1\n      0x00\n      mstore\n      keccak256(0x00, 0x20)\n      swap1\n      0x02\n      mul\n      add\n        /* \"Mqttbaru.sol\":2356:2382  brokerAddress[i].timestamp */\n      0x01\n      add\n      sload\n        /* \"Mqttbaru.sol\":2327:2383  abi.encodePacked(msg.sender, brokerAddress[i].timestamp) */\n      add(0x20, mload(0x40))\n      tag_409\n      swap3\n      swap2\n      swap1\n      tag_397\n      jump\t// in\n    tag_409:\n      mload(0x40)\n      0x20\n      dup2\n      dup4\n      sub\n      sub\n      dup2\n      mstore\n      swap1\n      0x40\n      mstore\n        /* \"Mqttbaru.sol\":2317:2384  keccak256(abi.encodePacked(msg.sender, brokerAddress[i].timestamp)) */\n      dup1\n      mload\n      swap1\n      0x20\n      add\n      keccak256\n        /* \"Mqttbaru.sol\":2271:2281  tokenSlots */\n      0x05\n        /* \"Mqttbaru.sol\":2271:2314  tokenSlots[brokerAddress[i].broker_address] */\n      0x00\n        /* \"Mqttbaru.sol\":2282:2295  brokerAddress */\n      0x02\n        /* \"Mqttbaru.sol\":2296:2297  i */\n      dup7\n        /* \"Mqttbaru.sol\":2282:2298  brokerAddress[i] */\n      dup2\n      sload\n      dup2\n      lt\n      tag_410\n      jumpi\n      invalid\n    tag_410:\n      swap1\n      0x00\n      mstore\n      keccak256(0x00, 0x20)\n      swap1\n      0x02\n      mul\n      add\n        /* \"Mqttbaru.sol\":2282:2313  brokerAddress[i].broker_address */\n      0x00\n      add\n      0x00\n      swap1\n      sload\n      swap1\n      0x0100\n      exp\n      swap1\n      div\n      0xffffffffffffffffffffffffffffffffffffffff\n      and\n        /* \"Mqttbaru.sol\":2271:2314  tokenSlots[brokerAddress[i].broker_address] */\n      0xffffffffffffffffffffffffffffffffffffffff\n      and\n      0xffffffffffffffffffffffffffffffffffffffff\n      and\n      dup2\n      mstore\n      0x20\n      add\n      swap1\n      dup2\n      mstore\n      0x20\n      add\n      0x00\n      keccak256\n        /* \"Mqttbaru.sol\":2271:2384  tokenSlots[brokerAddress[i].broker_address] = keccak256(abi.encodePacked(msg.sender, brokerAddress[i].timestamp)) */\n      dup2\n      swap1\n      sstore\n      pop\n        /* \"Mqttbaru.sol\":2407:2469  makeLog(now, \"refreshToken\", \"token tidak diubah\", msg.sender) */\n      tag_412\n        /* \"Mqttbaru.sol\":2415:2418  now */\n      timestamp\n        /* \"Mqttbaru.sol\":2407:2469  makeLog(now, \"refreshToken\", \"token tidak diubah\", msg.sender) */\n      mload(0x40)\n      dup1\n      0x40\n      add\n      0x40\n      mstore\n      dup1\n      0x0c\n      dup2\n      mstore\n      0x20\n      add\n      0x72656672657368546f6b656e0000000000000000000000000000000000000000\n      dup2\n      mstore\n      pop\n      mload(0x40)\n      dup1\n      0x40\n      add\n      0x40\n      mstore\n      dup1\n      0x12\n      dup2\n      mstore\n      0x20\n      add\n      0x746f6b656e20746964616b206469756261680000000000000000000000000000\n      dup2\n      mstore\n      pop\n        /* \"Mqttbaru.sol\":2458:2468  msg.sender */\n      caller\n        /* \"Mqttbaru.sol\":2407:2414  makeLog */\n      tag_117\n        /* \"Mqttbaru.sol\":2407:2469  makeLog(now, \"refreshToken\", \"token tidak diubah\", msg.sender) */\n      jump\t// in\n    tag_412:\n        /* \"Mqttbaru.sol\":2497:2551  ref_token(tokenSlots[brokerAddress[i].broker_address]) */\n      0x504e9e94e0c65229aaf8cabe153380cc35da3135e30129bc3195f7e031cdf82b\n        /* \"Mqttbaru.sol\":2507:2517  tokenSlots */\n      0x05\n        /* \"Mqttbaru.sol\":2507:2550  tokenSlots[brokerAddress[i].broker_address] */\n      0x00\n        /* \"Mqttbaru.sol\":2518:2531  brokerAddress */\n      0x02\n        /* \"Mqttbaru.sol\":2532:2533  i */\n      dup7\n        /* \"Mqttbaru.sol\":2518:2534  brokerAddress[i] */\n      dup2\n      sload\n      dup2\n      lt\n      tag_413\n      jumpi\n      invalid\n    tag_413:\n      swap1\n      0x00\n      mstore\n      keccak256(0x00, 0x20)\n      swap1\n      0x02\n      mul\n      add\n        /* \"Mqttbaru.sol\":2518:2549  brokerAddress[i].broker_address */\n      0x00\n      add\n      0x00\n      swap1\n      sload\n      swap1\n      0x0100\n      exp\n      swap1\n      div\n      0xffffffffffffffffffffffffffffffffffffffff\n      and\n        /* \"Mqttbaru.sol\":2507:2550  tokenSlots[brokerAddress[i].broker_address] */\n      0xffffffffffffffffffffffffffffffffffffffff\n      and\n      0xffffffffffffffffffffffffffffffffffffffff\n      and\n      dup2\n      mstore\n      0x20\n      add\n      swap1\n      dup2\n      mstore\n      0x20\n      add\n      0x00\n      keccak256\n      sload\n        /* \"Mqttbaru.sol\":2497:2551  ref_token(tokenSlots[brokerAddress[i].broker_address]) */\n      mload(0x40)\n      tag_415\n      swap2\n      swap1\n      tag_29\n      jump\t// in\n    tag_415:\n      mload(0x40)\n      dup1\n      swap2\n      sub\n      swap1\n      log1\n        /* \"Mqttbaru.sol\":2579:2606  check('token tidak diubah') */\n      0xb6f921ade0de8da9e62e948d90ae6f2dd6b678679ad77753c75fe1b6d9a72004\n      mload(0x40)\n      tag_416\n      swap1\n      tag_417\n      jump\t// in\n    tag_416:\n      mload(0x40)\n      dup1\n      swap2\n      sub\n      swap1\n      log1\n        /* \"Mqttbaru.sol\":1802:2626  if(jeda > 240){\r... */\n    tag_406:\n        /* \"Mqttbaru.sol\":1628:2641  if(msg.sender == brokerAddress[i].broker_address){\r... */\n      pop\n      pop\n    tag_388:\n        /* \"Mqttbaru.sol\":1608:1611  i++ */\n      dup1\n      dup1\n      0x01\n      add\n      swap2\n      pop\n      pop\n        /* \"Mqttbaru.sol\":1566:2652  for(uint i = 0; i < brokerAddress.length; i++) {\r... */\n      jump(tag_383)\n    tag_384:\n      pop\n        /* \"Mqttbaru.sol\":1515:2659  function refreshToken() public isBroker {\r... */\n      jump\t// out\n        /* \"Mqttbaru.sol\":1128:1503  function makeLog(uint _timestamp, string memory _method, string memory _message, address _sender) private {\r... */\n    tag_117:\n        /* \"Mqttbaru.sol\":1245:1266  LogSend memory newlog */\n      tag_419\n      tag_420\n      jump\t// in\n    tag_419:\n        /* \"Mqttbaru.sol\":1269:1421  LogSend({\r... */\n      mload(0x40)\n      dup1\n      0x80\n      add\n      0x40\n      mstore\n      dup1\n        /* \"Mqttbaru.sol\":1304:1314  _timestamp */\n      dup7\n        /* \"Mqttbaru.sol\":1269:1421  LogSend({\r... */\n      dup2\n      mstore\n      0x20\n      add\n        /* \"Mqttbaru.sol\":1338:1345  _method */\n      dup6\n        /* \"Mqttbaru.sol\":1269:1421  LogSend({\r... */\n      dup2\n      mstore\n      0x20\n      add\n        /* \"Mqttbaru.sol\":1370:1378  _message */\n      dup5\n        /* \"Mqttbaru.sol\":1269:1421  LogSend({\r... */\n      dup2\n      mstore\n      0x20\n      add\n        /* \"Mqttbaru.sol\":1402:1409  _sender */\n      dup4\n        /* \"Mqttbaru.sol\":1269:1421  LogSend({\r... */\n      0xffffffffffffffffffffffffffffffffffffffff\n      and\n      dup2\n      mstore\n      pop\n        /* \"Mqttbaru.sol\":1245:1421  LogSend memory newlog = LogSend({\r... */\n      swap1\n      pop\n        /* \"Mqttbaru.sol\":1442:1451  logLedger */\n      0x03\n        /* \"Mqttbaru.sol\":1457:1463  newlog */\n      dup2\n        /* \"Mqttbaru.sol\":1442:1464  logLedger.push(newlog) */\n      swap1\n      dup1\n      0x01\n      dup2\n      sload\n      add\n      dup1\n      dup3\n      sstore\n      dup1\n      swap2\n      pop\n      pop\n      0x01\n      swap1\n      sub\n      swap1\n      0x00\n      mstore\n      keccak256(0x00, 0x20)\n      swap1\n      0x04\n      mul\n      add\n      0x00\n      swap1\n      swap2\n      swap1\n      swap2\n      swap1\n      swap2\n      pop\n      0x00\n      dup3\n      add\n      mload\n      dup2\n      0x00\n      add\n      sstore\n      0x20\n      dup3\n      add\n      mload\n      dup2\n      0x01\n      add\n      swap1\n      dup1\n      mload\n      swap1\n      0x20\n      add\n      swap1\n      tag_422\n      swap3\n      swap2\n      swap1\n      tag_143\n      jump\t// in\n    tag_422:\n      pop\n      0x40\n      dup3\n      add\n      mload\n      dup2\n      0x02\n      add\n      swap1\n      dup1\n      mload\n      swap1\n      0x20\n      add\n      swap1\n      tag_423\n      swap3\n      swap2\n      swap1\n      tag_143\n      jump\t// in\n    tag_423:\n      pop\n      0x60\n      dup3\n      add\n      mload\n      dup2\n      0x03\n      add\n      exp(0x0100, 0x00)\n      dup2\n      sload\n      dup2\n      0xffffffffffffffffffffffffffffffffffffffff\n      mul\n      not\n      and\n      swap1\n      dup4\n      0xffffffffffffffffffffffffffffffffffffffff\n      and\n      mul\n      or\n      swap1\n      sstore\n      pop\n      pop\n      pop\n        /* \"Mqttbaru.sol\":1485:1493  logCount */\n      0x09\n      0x00\n        /* \"Mqttbaru.sol\":1485:1495  logCount++ */\n      dup2\n      sload\n      dup1\n      swap3\n      swap2\n      swap1\n      0x01\n      add\n      swap2\n      swap1\n      pop\n      sstore\n      pop\n        /* \"Mqttbaru.sol\":1128:1503  function makeLog(uint _timestamp, string memory _method, string memory _message, address _sender) private {\r... */\n      pop\n      pop\n      pop\n      pop\n      pop\n      jump\t// out\n    tag_143:\n      dup3\n      dup1\n      sload\n      0x01\n      dup2\n      0x01\n      and\n      iszero\n      0x0100\n      mul\n      sub\n      and\n      0x02\n      swap1\n      div\n      swap1\n      0x00\n      mstore\n      keccak256(0x00, 0x20)\n      swap1\n      0x1f\n      add\n      0x20\n      swap1\n      div\n      dup2\n      add\n      swap3\n      dup3\n      0x1f\n      lt\n      tag_425\n      jumpi\n      dup1\n      mload\n      not(0xff)\n      and\n      dup4\n      dup1\n      add\n      or\n      dup6\n      sstore\n      jump(tag_424)\n    tag_425:\n      dup3\n      dup1\n      add\n      0x01\n      add\n      dup6\n      sstore\n      dup3\n      iszero\n      tag_424\n      jumpi\n      swap2\n      dup3\n      add\n    tag_426:\n      dup3\n      dup2\n      gt\n      iszero\n      tag_427\n      jumpi\n      dup3\n      mload\n      dup3\n      sstore\n      swap2\n      0x20\n      add\n      swap2\n      swap1\n      0x01\n      add\n      swap1\n      jump(tag_426)\n    tag_427:\n    tag_424:\n      pop\n      swap1\n      pop\n      tag_428\n      swap2\n      swap1\n      tag_429\n      jump\t// in\n    tag_428:\n      pop\n      swap1\n      jump\t// out\n    tag_180:\n      dup3\n      dup1\n      sload\n      0x01\n      dup2\n      0x01\n      and\n      iszero\n      0x0100\n      mul\n      sub\n      and\n      0x02\n      swap1\n      div\n      swap1\n      0x00\n      mstore\n      keccak256(0x00, 0x20)\n      swap1\n      0x1f\n      add\n      0x20\n      swap1\n      div\n      dup2\n      add\n      swap3\n      dup3\n      0x1f\n      lt\n      tag_431\n      jumpi\n      dup1\n      sload\n      dup6\n      sstore\n      jump(tag_430)\n    tag_431:\n      dup3\n      dup1\n      add\n      0x01\n      add\n      dup6\n      sstore\n      dup3\n      iszero\n      tag_430\n      jumpi\n      0x00\n      mstore\n      keccak256(0x00, 0x20)\n      swap2\n      0x1f\n      add\n      0x20\n      swap1\n      div\n      dup3\n      add\n    tag_432:\n      dup3\n      dup2\n      gt\n      iszero\n      tag_433\n      jumpi\n      dup3\n      sload\n      dup3\n      sstore\n      swap2\n      0x01\n      add\n      swap2\n      swap1\n      0x01\n      add\n      swap1\n      jump(tag_432)\n    tag_433:\n    tag_430:\n      pop\n      swap1\n      pop\n      tag_434\n      swap2\n      swap1\n      tag_429\n      jump\t// in\n    tag_434:\n      pop\n      swap1\n      jump\t// out\n    tag_186:\n      pop\n      dup1\n      sload\n      0x01\n      dup2\n      0x01\n      and\n      iszero\n      0x0100\n      mul\n      sub\n      and\n      0x02\n      swap1\n      div\n      0x00\n      dup3\n      sstore\n      dup1\n      0x1f\n      lt\n      tag_436\n      jumpi\n      pop\n      jump(tag_435)\n    tag_436:\n      0x1f\n      add\n      0x20\n      swap1\n      div\n      swap1\n      0x00\n      mstore\n      keccak256(0x00, 0x20)\n      swap1\n      dup2\n      add\n      swap1\n      tag_437\n      swap2\n      swap1\n      tag_429\n      jump\t// in\n    tag_437:\n    tag_435:\n      pop\n      jump\t// out\n    tag_258:\n      mload(0x40)\n      dup1\n      0x40\n      add\n      0x40\n      mstore\n      dup1\n      and(0xffffffffffffffffffffffffffffffffffffffff, 0x00)\n      dup2\n      mstore\n      0x20\n      add\n      0x00\n      dup2\n      mstore\n      pop\n      swap1\n      jump\t// out\n    tag_293:\n      mload(0x40)\n      dup1\n      0x80\n      add\n      0x40\n      mstore\n      dup1\n      0x00\n      dup2\n      mstore\n      0x20\n      add\n      0x60\n      dup2\n      mstore\n      0x20\n      add\n      0x60\n      dup2\n      mstore\n      0x20\n      add\n      0x60\n      dup2\n      mstore\n      pop\n      swap1\n      jump\t// out\n    tag_301:\n      dup3\n      dup1\n      sload\n      dup3\n      dup3\n      sstore\n      swap1\n      0x00\n      mstore\n      keccak256(0x00, 0x20)\n      swap1\n      dup2\n      add\n      swap3\n      dup3\n      iszero\n      tag_438\n      jumpi\n      swap2\n      0x20\n      mul\n      dup3\n      add\n    tag_439:\n      dup3\n      dup2\n      gt\n      iszero\n      tag_440\n      jumpi\n      dup3\n      mload\n      dup3\n      swap1\n      dup1\n      mload\n      swap1\n      0x20\n      add\n      swap1\n      tag_441\n      swap3\n      swap2\n      swap1\n      tag_143\n      jump\t// in\n    tag_441:\n      pop\n      swap2\n      0x20\n      add\n      swap2\n      swap1\n      0x01\n      add\n      swap1\n      jump(tag_439)\n    tag_440:\n    tag_438:\n      pop\n      swap1\n      pop\n      tag_442\n      swap2\n      swap1\n      tag_443\n      jump\t// in\n    tag_442:\n      pop\n      swap1\n      jump\t// out\n    tag_317:\n      dup3\n      dup1\n      sload\n      0x01\n      dup2\n      0x01\n      and\n      iszero\n      0x0100\n      mul\n      sub\n      and\n      0x02\n      swap1\n      div\n      swap1\n      0x00\n      mstore\n      keccak256(0x00, 0x20)\n      swap1\n      0x1f\n      add\n      0x20\n      swap1\n      div\n      dup2\n      add\n      swap3\n      dup3\n      0x1f\n      lt\n      tag_445\n      jumpi\n      dup1\n      sload\n      dup6\n      sstore\n      jump(tag_444)\n    tag_445:\n      dup3\n      dup1\n      add\n      0x01\n      add\n      dup6\n      sstore\n      dup3\n      iszero\n      tag_444\n      jumpi\n      0x00\n      mstore\n      keccak256(0x00, 0x20)\n      swap2\n      0x1f\n      add\n      0x20\n      swap1\n      div\n      dup3\n      add\n    tag_446:\n      dup3\n      dup2\n      gt\n      iszero\n      tag_447\n      jumpi\n      dup3\n      sload\n      dup3\n      sstore\n      swap2\n      0x01\n      add\n      swap2\n      swap1\n      0x01\n      add\n      swap1\n      jump(tag_446)\n    tag_447:\n    tag_444:\n      pop\n      swap1\n      pop\n      tag_448\n      swap2\n      swap1\n      tag_429\n      jump\t// in\n    tag_448:\n      pop\n      swap1\n      jump\t// out\n    tag_320:\n      dup3\n      dup1\n      sload\n      dup3\n      dup3\n      sstore\n      swap1\n      0x00\n      mstore\n      keccak256(0x00, 0x20)\n      swap1\n      dup2\n      add\n      swap3\n      dup3\n      iszero\n      tag_449\n      jumpi\n      0x00\n      mstore\n      keccak256(0x00, 0x20)\n      swap2\n      dup3\n      add\n    tag_450:\n      dup3\n      dup2\n      gt\n      iszero\n      tag_451\n      jumpi\n      dup3\n      dup3\n      swap1\n      dup1\n      sload\n      0x01\n      dup2\n      0x01\n      and\n      iszero\n      0x0100\n      mul\n      sub\n      and\n      0x02\n      swap1\n      div\n      tag_452\n      swap3\n      swap2\n      swap1\n      tag_317\n      jump\t// in\n    tag_452:\n      pop\n      swap2\n      0x01\n      add\n      swap2\n      swap1\n      0x01\n      add\n      swap1\n      jump(tag_450)\n    tag_451:\n    tag_449:\n      pop\n      swap1\n      pop\n      tag_453\n      swap2\n      swap1\n      tag_443\n      jump\t// in\n    tag_453:\n      pop\n      swap1\n      jump\t// out\n    tag_326:\n      pop\n      dup1\n      sload\n      0x00\n      dup3\n      sstore\n      swap1\n      0x00\n      mstore\n      keccak256(0x00, 0x20)\n      swap1\n      dup2\n      add\n      swap1\n      tag_455\n      swap2\n      swap1\n      tag_443\n      jump\t// in\n    tag_455:\n      pop\n      jump\t// out\n    tag_420:\n      mload(0x40)\n      dup1\n      0x80\n      add\n      0x40\n      mstore\n      dup1\n      0x00\n      dup2\n      mstore\n      0x20\n      add\n      0x60\n      dup2\n      mstore\n      0x20\n      add\n      0x60\n      dup2\n      mstore\n      0x20\n      add\n      and(0xffffffffffffffffffffffffffffffffffffffff, 0x00)\n      dup2\n      mstore\n      pop\n      swap1\n      jump\t// out\n    tag_429:\n    tag_456:\n      dup1\n      dup3\n      gt\n      iszero\n      tag_457\n      jumpi\n      0x00\n      dup2\n      0x00\n      swap1\n      sstore\n      pop\n      0x01\n      add\n      jump(tag_456)\n    tag_457:\n      pop\n      swap1\n      jump\t// out\n    tag_443:\n    tag_458:\n      dup1\n      dup3\n      gt\n      iszero\n      tag_459\n      jumpi\n      0x00\n      dup2\n      dup2\n      tag_460\n      swap2\n      swap1\n      tag_186\n      jump\t// in\n    tag_460:\n      pop\n      0x01\n      add\n      jump(tag_458)\n    tag_459:\n      pop\n      swap1\n      jump\t// out\n        /* \"--CODEGEN--\":5:135   */\n    tag_462:\n      0x00\n        /* \"--CODEGEN--\":85:91   */\n      dup2\n        /* \"--CODEGEN--\":72:92   */\n      calldataload\n        /* \"--CODEGEN--\":63:92   */\n      swap1\n      pop\n        /* \"--CODEGEN--\":97:130   */\n      tag_464\n        /* \"--CODEGEN--\":124:129   */\n      dup2\n        /* \"--CODEGEN--\":97:130   */\n      tag_465\n      jump\t// in\n    tag_464:\n        /* \"--CODEGEN--\":57:135   */\n      swap3\n      swap2\n      pop\n      pop\n      jump\t// out\n        /* \"--CODEGEN--\":142:288   */\n    tag_466:\n      0x00\n        /* \"--CODEGEN--\":230:236   */\n      dup2\n        /* \"--CODEGEN--\":217:237   */\n      calldataload\n        /* \"--CODEGEN--\":208:237   */\n      swap1\n      pop\n        /* \"--CODEGEN--\":242:283   */\n      tag_468\n        /* \"--CODEGEN--\":277:282   */\n      dup2\n        /* \"--CODEGEN--\":242:283   */\n      tag_469\n      jump\t// in\n    tag_468:\n        /* \"--CODEGEN--\":202:288   */\n      swap3\n      swap2\n      pop\n      pop\n      jump\t// out\n        /* \"--CODEGEN--\":295:425   */\n    tag_470:\n      0x00\n        /* \"--CODEGEN--\":375:381   */\n      dup2\n        /* \"--CODEGEN--\":362:382   */\n      calldataload\n        /* \"--CODEGEN--\":353:382   */\n      swap1\n      pop\n        /* \"--CODEGEN--\":387:420   */\n      tag_472\n        /* \"--CODEGEN--\":414:419   */\n      dup2\n        /* \"--CODEGEN--\":387:420   */\n      tag_473\n      jump\t// in\n    tag_472:\n        /* \"--CODEGEN--\":347:425   */\n      swap3\n      swap2\n      pop\n      pop\n      jump\t// out\n        /* \"--CODEGEN--\":433:875   */\n    tag_474:\n      0x00\n        /* \"--CODEGEN--\":535:538   */\n      dup3\n        /* \"--CODEGEN--\":528:532   */\n      0x1f\n        /* \"--CODEGEN--\":520:526   */\n      dup4\n        /* \"--CODEGEN--\":516:533   */\n      add\n        /* \"--CODEGEN--\":512:539   */\n      slt\n        /* \"--CODEGEN--\":502:504   */\n      tag_476\n      jumpi\n        /* \"--CODEGEN--\":553:554   */\n      0x00\n        /* \"--CODEGEN--\":550:551   */\n      dup1\n        /* \"--CODEGEN--\":543:555   */\n      revert\n        /* \"--CODEGEN--\":502:504   */\n    tag_476:\n        /* \"--CODEGEN--\":590:596   */\n      dup2\n        /* \"--CODEGEN--\":577:597   */\n      calldataload\n        /* \"--CODEGEN--\":612:677   */\n      tag_477\n        /* \"--CODEGEN--\":627:676   */\n      tag_478\n        /* \"--CODEGEN--\":669:675   */\n      dup3\n        /* \"--CODEGEN--\":627:676   */\n      tag_479\n      jump\t// in\n    tag_478:\n        /* \"--CODEGEN--\":612:677   */\n      tag_480\n      jump\t// in\n    tag_477:\n        /* \"--CODEGEN--\":603:677   */\n      swap2\n      pop\n        /* \"--CODEGEN--\":697:703   */\n      dup1\n        /* \"--CODEGEN--\":690:695   */\n      dup3\n        /* \"--CODEGEN--\":683:704   */\n      mstore\n        /* \"--CODEGEN--\":733:737   */\n      0x20\n        /* \"--CODEGEN--\":725:731   */\n      dup4\n        /* \"--CODEGEN--\":721:738   */\n      add\n        /* \"--CODEGEN--\":766:770   */\n      0x20\n        /* \"--CODEGEN--\":759:764   */\n      dup4\n        /* \"--CODEGEN--\":755:771   */\n      add\n        /* \"--CODEGEN--\":801:804   */\n      dup6\n        /* \"--CODEGEN--\":792:798   */\n      dup4\n        /* \"--CODEGEN--\":787:790   */\n      dup4\n        /* \"--CODEGEN--\":783:799   */\n      add\n        /* \"--CODEGEN--\":780:805   */\n      gt\n        /* \"--CODEGEN--\":777:779   */\n      iszero\n      tag_481\n      jumpi\n        /* \"--CODEGEN--\":818:819   */\n      0x00\n        /* \"--CODEGEN--\":815:816   */\n      dup1\n        /* \"--CODEGEN--\":808:820   */\n      revert\n        /* \"--CODEGEN--\":777:779   */\n    tag_481:\n        /* \"--CODEGEN--\":828:869   */\n      tag_482\n        /* \"--CODEGEN--\":862:868   */\n      dup4\n        /* \"--CODEGEN--\":857:860   */\n      dup3\n        /* \"--CODEGEN--\":852:855   */\n      dup5\n        /* \"--CODEGEN--\":828:869   */\n      tag_483\n      jump\t// in\n    tag_482:\n        /* \"--CODEGEN--\":495:875   */\n      pop\n      pop\n      pop\n      swap3\n      swap2\n      pop\n      pop\n      jump\t// out\n        /* \"--CODEGEN--\":883:1013   */\n    tag_484:\n      0x00\n        /* \"--CODEGEN--\":963:969   */\n      dup2\n        /* \"--CODEGEN--\":950:970   */\n      calldataload\n        /* \"--CODEGEN--\":941:970   */\n      swap1\n      pop\n        /* \"--CODEGEN--\":975:1008   */\n      tag_486\n        /* \"--CODEGEN--\":1002:1007   */\n      dup2\n        /* \"--CODEGEN--\":975:1008   */\n      tag_487\n      jump\t// in\n    tag_486:\n        /* \"--CODEGEN--\":935:1013   */\n      swap3\n      swap2\n      pop\n      pop\n      jump\t// out\n        /* \"--CODEGEN--\":1020:1261   */\n    tag_26:\n      0x00\n        /* \"--CODEGEN--\":1124:1126   */\n      0x20\n        /* \"--CODEGEN--\":1112:1121   */\n      dup3\n        /* \"--CODEGEN--\":1103:1110   */\n      dup5\n        /* \"--CODEGEN--\":1099:1122   */\n      sub\n        /* \"--CODEGEN--\":1095:1127   */\n      slt\n        /* \"--CODEGEN--\":1092:1094   */\n      iszero\n      tag_489\n      jumpi\n        /* \"--CODEGEN--\":1140:1141   */\n      0x00\n        /* \"--CODEGEN--\":1137:1138   */\n      dup1\n        /* \"--CODEGEN--\":1130:1142   */\n      revert\n        /* \"--CODEGEN--\":1092:1094   */\n    tag_489:\n        /* \"--CODEGEN--\":1175:1176   */\n      0x00\n        /* \"--CODEGEN--\":1192:1245   */\n      tag_490\n        /* \"--CODEGEN--\":1237:1244   */\n      dup5\n        /* \"--CODEGEN--\":1228:1234   */\n      dup3\n        /* \"--CODEGEN--\":1217:1226   */\n      dup6\n        /* \"--CODEGEN--\":1213:1235   */\n      add\n        /* \"--CODEGEN--\":1192:1245   */\n      tag_462\n      jump\t// in\n    tag_490:\n        /* \"--CODEGEN--\":1182:1245   */\n      swap2\n      pop\n        /* \"--CODEGEN--\":1154:1251   */\n      pop\n        /* \"--CODEGEN--\":1086:1261   */\n      swap3\n      swap2\n      pop\n      pop\n      jump\t// out\n        /* \"--CODEGEN--\":1268:1525   */\n    tag_32:\n      0x00\n        /* \"--CODEGEN--\":1380:1382   */\n      0x20\n        /* \"--CODEGEN--\":1368:1377   */\n      dup3\n        /* \"--CODEGEN--\":1359:1366   */\n      dup5\n        /* \"--CODEGEN--\":1355:1378   */\n      sub\n        /* \"--CODEGEN--\":1351:1383   */\n      slt\n        /* \"--CODEGEN--\":1348:1350   */\n      iszero\n      tag_492\n      jumpi\n        /* \"--CODEGEN--\":1396:1397   */\n      0x00\n        /* \"--CODEGEN--\":1393:1394   */\n      dup1\n        /* \"--CODEGEN--\":1386:1398   */\n      revert\n        /* \"--CODEGEN--\":1348:1350   */\n    tag_492:\n        /* \"--CODEGEN--\":1431:1432   */\n      0x00\n        /* \"--CODEGEN--\":1448:1509   */\n      tag_493\n        /* \"--CODEGEN--\":1501:1508   */\n      dup5\n        /* \"--CODEGEN--\":1492:1498   */\n      dup3\n        /* \"--CODEGEN--\":1481:1490   */\n      dup6\n        /* \"--CODEGEN--\":1477:1499   */\n      add\n        /* \"--CODEGEN--\":1448:1509   */\n      tag_466\n      jump\t// in\n    tag_493:\n        /* \"--CODEGEN--\":1438:1509   */\n      swap2\n      pop\n        /* \"--CODEGEN--\":1410:1515   */\n      pop\n        /* \"--CODEGEN--\":1342:1525   */\n      swap3\n      swap2\n      pop\n      pop\n      jump\t// out\n        /* \"--CODEGEN--\":1532:2129   */\n    tag_64:\n      0x00\n      dup1\n      0x00\n        /* \"--CODEGEN--\":1680:1682   */\n      0x60\n        /* \"--CODEGEN--\":1668:1677   */\n      dup5\n        /* \"--CODEGEN--\":1659:1666   */\n      dup7\n        /* \"--CODEGEN--\":1655:1678   */\n      sub\n        /* \"--CODEGEN--\":1651:1683   */\n      slt\n        /* \"--CODEGEN--\":1648:1650   */\n      iszero\n      tag_495\n      jumpi\n        /* \"--CODEGEN--\":1696:1697   */\n      0x00\n        /* \"--CODEGEN--\":1693:1694   */\n      dup1\n        /* \"--CODEGEN--\":1686:1698   */\n      revert\n        /* \"--CODEGEN--\":1648:1650   */\n    tag_495:\n        /* \"--CODEGEN--\":1731:1732   */\n      0x00\n        /* \"--CODEGEN--\":1748:1801   */\n      tag_496\n        /* \"--CODEGEN--\":1793:1800   */\n      dup7\n        /* \"--CODEGEN--\":1784:1790   */\n      dup3\n        /* \"--CODEGEN--\":1773:1782   */\n      dup8\n        /* \"--CODEGEN--\":1769:1791   */\n      add\n        /* \"--CODEGEN--\":1748:1801   */\n      tag_470\n      jump\t// in\n    tag_496:\n        /* \"--CODEGEN--\":1738:1801   */\n      swap4\n      pop\n        /* \"--CODEGEN--\":1710:1807   */\n      pop\n        /* \"--CODEGEN--\":1838:1840   */\n      0x20\n        /* \"--CODEGEN--\":1856:1909   */\n      tag_497\n        /* \"--CODEGEN--\":1901:1908   */\n      dup7\n        /* \"--CODEGEN--\":1892:1898   */\n      dup3\n        /* \"--CODEGEN--\":1881:1890   */\n      dup8\n        /* \"--CODEGEN--\":1877:1899   */\n      add\n        /* \"--CODEGEN--\":1856:1909   */\n      tag_484\n      jump\t// in\n    tag_497:\n        /* \"--CODEGEN--\":1846:1909   */\n      swap3\n      pop\n        /* \"--CODEGEN--\":1817:1915   */\n      pop\n        /* \"--CODEGEN--\":1974:1976   */\n      0x40\n        /* \"--CODEGEN--\":1963:1972   */\n      dup5\n        /* \"--CODEGEN--\":1959:1977   */\n      add\n        /* \"--CODEGEN--\":1946:1978   */\n      calldataload\n        /* \"--CODEGEN--\":1998:2016   */\n      0xffffffffffffffff\n        /* \"--CODEGEN--\":1990:1996   */\n      dup2\n        /* \"--CODEGEN--\":1987:2017   */\n      gt\n        /* \"--CODEGEN--\":1984:1986   */\n      iszero\n      tag_498\n      jumpi\n        /* \"--CODEGEN--\":2030:2031   */\n      0x00\n        /* \"--CODEGEN--\":2027:2028   */\n      dup1\n        /* \"--CODEGEN--\":2020:2032   */\n      revert\n        /* \"--CODEGEN--\":1984:1986   */\n    tag_498:\n        /* \"--CODEGEN--\":2050:2113   */\n      tag_499\n        /* \"--CODEGEN--\":2105:2112   */\n      dup7\n        /* \"--CODEGEN--\":2096:2102   */\n      dup3\n        /* \"--CODEGEN--\":2085:2094   */\n      dup8\n        /* \"--CODEGEN--\":2081:2103   */\n      add\n        /* \"--CODEGEN--\":2050:2113   */\n      tag_474\n      jump\t// in\n    tag_499:\n        /* \"--CODEGEN--\":2040:2113   */\n      swap2\n      pop\n        /* \"--CODEGEN--\":1925:2119   */\n      pop\n        /* \"--CODEGEN--\":1642:2129   */\n      swap3\n      pop\n      swap3\n      pop\n      swap3\n      jump\t// out\n        /* \"--CODEGEN--\":2136:2965   */\n    tag_88:\n      0x00\n      dup1\n      0x00\n      dup1\n        /* \"--CODEGEN--\":2311:2314   */\n      0x80\n        /* \"--CODEGEN--\":2299:2308   */\n      dup6\n        /* \"--CODEGEN--\":2290:2297   */\n      dup8\n        /* \"--CODEGEN--\":2286:2309   */\n      sub\n        /* \"--CODEGEN--\":2282:2315   */\n      slt\n        /* \"--CODEGEN--\":2279:2281   */\n      iszero\n      tag_501\n      jumpi\n        /* \"--CODEGEN--\":2328:2329   */\n      0x00\n        /* \"--CODEGEN--\":2325:2326   */\n      dup1\n        /* \"--CODEGEN--\":2318:2330   */\n      revert\n        /* \"--CODEGEN--\":2279:2281   */\n    tag_501:\n        /* \"--CODEGEN--\":2363:2364   */\n      0x00\n        /* \"--CODEGEN--\":2380:2433   */\n      tag_502\n        /* \"--CODEGEN--\":2425:2432   */\n      dup8\n        /* \"--CODEGEN--\":2416:2422   */\n      dup3\n        /* \"--CODEGEN--\":2405:2414   */\n      dup9\n        /* \"--CODEGEN--\":2401:2423   */\n      add\n        /* \"--CODEGEN--\":2380:2433   */\n      tag_470\n      jump\t// in\n    tag_502:\n        /* \"--CODEGEN--\":2370:2433   */\n      swap5\n      pop\n        /* \"--CODEGEN--\":2342:2439   */\n      pop\n        /* \"--CODEGEN--\":2470:2472   */\n      0x20\n        /* \"--CODEGEN--\":2488:2541   */\n      tag_503\n        /* \"--CODEGEN--\":2533:2540   */\n      dup8\n        /* \"--CODEGEN--\":2524:2530   */\n      dup3\n        /* \"--CODEGEN--\":2513:2522   */\n      dup9\n        /* \"--CODEGEN--\":2509:2531   */\n      add\n        /* \"--CODEGEN--\":2488:2541   */\n      tag_484\n      jump\t// in\n    tag_503:\n        /* \"--CODEGEN--\":2478:2541   */\n      swap4\n      pop\n        /* \"--CODEGEN--\":2449:2547   */\n      pop\n        /* \"--CODEGEN--\":2606:2608   */\n      0x40\n        /* \"--CODEGEN--\":2595:2604   */\n      dup6\n        /* \"--CODEGEN--\":2591:2609   */\n      add\n        /* \"--CODEGEN--\":2578:2610   */\n      calldataload\n        /* \"--CODEGEN--\":2630:2648   */\n      0xffffffffffffffff\n        /* \"--CODEGEN--\":2622:2628   */\n      dup2\n        /* \"--CODEGEN--\":2619:2649   */\n      gt\n        /* \"--CODEGEN--\":2616:2618   */\n      iszero\n      tag_504\n      jumpi\n        /* \"--CODEGEN--\":2662:2663   */\n      0x00\n        /* \"--CODEGEN--\":2659:2660   */\n      dup1\n        /* \"--CODEGEN--\":2652:2664   */\n      revert\n        /* \"--CODEGEN--\":2616:2618   */\n    tag_504:\n        /* \"--CODEGEN--\":2682:2745   */\n      tag_505\n        /* \"--CODEGEN--\":2737:2744   */\n      dup8\n        /* \"--CODEGEN--\":2728:2734   */\n      dup3\n        /* \"--CODEGEN--\":2717:2726   */\n      dup9\n        /* \"--CODEGEN--\":2713:2735   */\n      add\n        /* \"--CODEGEN--\":2682:2745   */\n      tag_474\n      jump\t// in\n    tag_505:\n        /* \"--CODEGEN--\":2672:2745   */\n      swap3\n      pop\n        /* \"--CODEGEN--\":2557:2751   */\n      pop\n        /* \"--CODEGEN--\":2810:2812   */\n      0x60\n        /* \"--CODEGEN--\":2799:2808   */\n      dup6\n        /* \"--CODEGEN--\":2795:2813   */\n      add\n        /* \"--CODEGEN--\":2782:2814   */\n      calldataload\n        /* \"--CODEGEN--\":2834:2852   */\n      0xffffffffffffffff\n        /* \"--CODEGEN--\":2826:2832   */\n      dup2\n        /* \"--CODEGEN--\":2823:2853   */\n      gt\n        /* \"--CODEGEN--\":2820:2822   */\n      iszero\n      tag_506\n      jumpi\n        /* \"--CODEGEN--\":2866:2867   */\n      0x00\n        /* \"--CODEGEN--\":2863:2864   */\n      dup1\n        /* \"--CODEGEN--\":2856:2868   */\n      revert\n        /* \"--CODEGEN--\":2820:2822   */\n    tag_506:\n        /* \"--CODEGEN--\":2886:2949   */\n      tag_507\n        /* \"--CODEGEN--\":2941:2948   */\n      dup8\n        /* \"--CODEGEN--\":2932:2938   */\n      dup3\n        /* \"--CODEGEN--\":2921:2930   */\n      dup9\n        /* \"--CODEGEN--\":2917:2939   */\n      add\n        /* \"--CODEGEN--\":2886:2949   */\n      tag_474\n      jump\t// in\n    tag_507:\n        /* \"--CODEGEN--\":2876:2949   */\n      swap2\n      pop\n        /* \"--CODEGEN--\":2761:2955   */\n      pop\n        /* \"--CODEGEN--\":2273:2965   */\n      swap3\n      swap6\n      swap2\n      swap5\n      pop\n      swap3\n      pop\n      jump\t// out\n        /* \"--CODEGEN--\":2972:3550   */\n    tag_77:\n      0x00\n      dup1\n        /* \"--CODEGEN--\":3113:3115   */\n      0x40\n        /* \"--CODEGEN--\":3101:3110   */\n      dup4\n        /* \"--CODEGEN--\":3092:3099   */\n      dup6\n        /* \"--CODEGEN--\":3088:3111   */\n      sub\n        /* \"--CODEGEN--\":3084:3116   */\n      slt\n        /* \"--CODEGEN--\":3081:3083   */\n      iszero\n      tag_509\n      jumpi\n        /* \"--CODEGEN--\":3129:3130   */\n      0x00\n        /* \"--CODEGEN--\":3126:3127   */\n      dup1\n        /* \"--CODEGEN--\":3119:3131   */\n      revert\n        /* \"--CODEGEN--\":3081:3083   */\n    tag_509:\n        /* \"--CODEGEN--\":3192:3193   */\n      0x00\n        /* \"--CODEGEN--\":3181:3190   */\n      dup4\n        /* \"--CODEGEN--\":3177:3194   */\n      add\n        /* \"--CODEGEN--\":3164:3195   */\n      calldataload\n        /* \"--CODEGEN--\":3215:3233   */\n      0xffffffffffffffff\n        /* \"--CODEGEN--\":3207:3213   */\n      dup2\n        /* \"--CODEGEN--\":3204:3234   */\n      gt\n        /* \"--CODEGEN--\":3201:3203   */\n      iszero\n      tag_510\n      jumpi\n        /* \"--CODEGEN--\":3247:3248   */\n      0x00\n        /* \"--CODEGEN--\":3244:3245   */\n      dup1\n        /* \"--CODEGEN--\":3237:3249   */\n      revert\n        /* \"--CODEGEN--\":3201:3203   */\n    tag_510:\n        /* \"--CODEGEN--\":3267:3330   */\n      tag_511\n        /* \"--CODEGEN--\":3322:3329   */\n      dup6\n        /* \"--CODEGEN--\":3313:3319   */\n      dup3\n        /* \"--CODEGEN--\":3302:3311   */\n      dup7\n        /* \"--CODEGEN--\":3298:3320   */\n      add\n        /* \"--CODEGEN--\":3267:3330   */\n      tag_474\n      jump\t// in\n    tag_511:\n        /* \"--CODEGEN--\":3257:3330   */\n      swap3\n      pop\n        /* \"--CODEGEN--\":3143:3336   */\n      pop\n        /* \"--CODEGEN--\":3395:3397   */\n      0x20\n        /* \"--CODEGEN--\":3384:3393   */\n      dup4\n        /* \"--CODEGEN--\":3380:3398   */\n      add\n        /* \"--CODEGEN--\":3367:3399   */\n      calldataload\n        /* \"--CODEGEN--\":3419:3437   */\n      0xffffffffffffffff\n        /* \"--CODEGEN--\":3411:3417   */\n      dup2\n        /* \"--CODEGEN--\":3408:3438   */\n      gt\n        /* \"--CODEGEN--\":3405:3407   */\n      iszero\n      tag_512\n      jumpi\n        /* \"--CODEGEN--\":3451:3452   */\n      0x00\n        /* \"--CODEGEN--\":3448:3449   */\n      dup1\n        /* \"--CODEGEN--\":3441:3453   */\n      revert\n        /* \"--CODEGEN--\":3405:3407   */\n    tag_512:\n        /* \"--CODEGEN--\":3471:3534   */\n      tag_513\n        /* \"--CODEGEN--\":3526:3533   */\n      dup6\n        /* \"--CODEGEN--\":3517:3523   */\n      dup3\n        /* \"--CODEGEN--\":3506:3515   */\n      dup7\n        /* \"--CODEGEN--\":3502:3524   */\n      add\n        /* \"--CODEGEN--\":3471:3534   */\n      tag_474\n      jump\t// in\n    tag_513:\n        /* \"--CODEGEN--\":3461:3534   */\n      swap2\n      pop\n        /* \"--CODEGEN--\":3346:3540   */\n      pop\n        /* \"--CODEGEN--\":3075:3550   */\n      swap3\n      pop\n      swap3\n      swap1\n      pop\n      jump\t// out\n        /* \"--CODEGEN--\":3557:3798   */\n    tag_58:\n      0x00\n        /* \"--CODEGEN--\":3661:3663   */\n      0x20\n        /* \"--CODEGEN--\":3649:3658   */\n      dup3\n        /* \"--CODEGEN--\":3640:3647   */\n      dup5\n        /* \"--CODEGEN--\":3636:3659   */\n      sub\n        /* \"--CODEGEN--\":3632:3664   */\n      slt\n        /* \"--CODEGEN--\":3629:3631   */\n      iszero\n      tag_515\n      jumpi\n        /* \"--CODEGEN--\":3677:3678   */\n      0x00\n        /* \"--CODEGEN--\":3674:3675   */\n      dup1\n        /* \"--CODEGEN--\":3667:3679   */\n      revert\n        /* \"--CODEGEN--\":3629:3631   */\n    tag_515:\n        /* \"--CODEGEN--\":3712:3713   */\n      0x00\n        /* \"--CODEGEN--\":3729:3782   */\n      tag_516\n        /* \"--CODEGEN--\":3774:3781   */\n      dup5\n        /* \"--CODEGEN--\":3765:3771   */\n      dup3\n        /* \"--CODEGEN--\":3754:3763   */\n      dup6\n        /* \"--CODEGEN--\":3750:3772   */\n      add\n        /* \"--CODEGEN--\":3729:3782   */\n      tag_484\n      jump\t// in\n    tag_516:\n        /* \"--CODEGEN--\":3719:3782   */\n      swap2\n      pop\n        /* \"--CODEGEN--\":3691:3788   */\n      pop\n        /* \"--CODEGEN--\":3623:3798   */\n      swap3\n      swap2\n      pop\n      pop\n      jump\t// out\n        /* \"--CODEGEN--\":3805:4277   */\n    tag_40:\n      0x00\n      dup1\n        /* \"--CODEGEN--\":3936:3938   */\n      0x40\n        /* \"--CODEGEN--\":3924:3933   */\n      dup4\n        /* \"--CODEGEN--\":3915:3922   */\n      dup6\n        /* \"--CODEGEN--\":3911:3934   */\n      sub\n        /* \"--CODEGEN--\":3907:3939   */\n      slt\n        /* \"--CODEGEN--\":3904:3906   */\n      iszero\n      tag_518\n      jumpi\n        /* \"--CODEGEN--\":3952:3953   */\n      0x00\n        /* \"--CODEGEN--\":3949:3950   */\n      dup1\n        /* \"--CODEGEN--\":3942:3954   */\n      revert\n        /* \"--CODEGEN--\":3904:3906   */\n    tag_518:\n        /* \"--CODEGEN--\":3987:3988   */\n      0x00\n        /* \"--CODEGEN--\":4004:4057   */\n      tag_519\n        /* \"--CODEGEN--\":4049:4056   */\n      dup6\n        /* \"--CODEGEN--\":4040:4046   */\n      dup3\n        /* \"--CODEGEN--\":4029:4038   */\n      dup7\n        /* \"--CODEGEN--\":4025:4047   */\n      add\n        /* \"--CODEGEN--\":4004:4057   */\n      tag_484\n      jump\t// in\n    tag_519:\n        /* \"--CODEGEN--\":3994:4057   */\n      swap3\n      pop\n        /* \"--CODEGEN--\":3966:4063   */\n      pop\n        /* \"--CODEGEN--\":4122:4124   */\n      0x20\n        /* \"--CODEGEN--\":4111:4120   */\n      dup4\n        /* \"--CODEGEN--\":4107:4125   */\n      add\n        /* \"--CODEGEN--\":4094:4126   */\n      calldataload\n        /* \"--CODEGEN--\":4146:4164   */\n      0xffffffffffffffff\n        /* \"--CODEGEN--\":4138:4144   */\n      dup2\n        /* \"--CODEGEN--\":4135:4165   */\n      gt\n        /* \"--CODEGEN--\":4132:4134   */\n      iszero\n      tag_520\n      jumpi\n        /* \"--CODEGEN--\":4178:4179   */\n      0x00\n        /* \"--CODEGEN--\":4175:4176   */\n      dup1\n        /* \"--CODEGEN--\":4168:4180   */\n      revert\n        /* \"--CODEGEN--\":4132:4134   */\n    tag_520:\n        /* \"--CODEGEN--\":4198:4261   */\n      tag_521\n        /* \"--CODEGEN--\":4253:4260   */\n      dup6\n        /* \"--CODEGEN--\":4244:4250   */\n      dup3\n        /* \"--CODEGEN--\":4233:4242   */\n      dup7\n        /* \"--CODEGEN--\":4229:4251   */\n      add\n        /* \"--CODEGEN--\":4198:4261   */\n      tag_474\n      jump\t// in\n    tag_521:\n        /* \"--CODEGEN--\":4188:4261   */\n      swap2\n      pop\n        /* \"--CODEGEN--\":4073:4267   */\n      pop\n        /* \"--CODEGEN--\":3898:4277   */\n      swap3\n      pop\n      swap3\n      swap1\n      pop\n      jump\t// out\n        /* \"--CODEGEN--\":4284:4987   */\n    tag_93:\n      0x00\n      dup1\n      0x00\n        /* \"--CODEGEN--\":4442:4444   */\n      0x60\n        /* \"--CODEGEN--\":4430:4439   */\n      dup5\n        /* \"--CODEGEN--\":4421:4428   */\n      dup7\n        /* \"--CODEGEN--\":4417:4440   */\n      sub\n        /* \"--CODEGEN--\":4413:4445   */\n      slt\n        /* \"--CODEGEN--\":4410:4412   */\n      iszero\n      tag_523\n      jumpi\n        /* \"--CODEGEN--\":4458:4459   */\n      0x00\n        /* \"--CODEGEN--\":4455:4456   */\n      dup1\n        /* \"--CODEGEN--\":4448:4460   */\n      revert\n        /* \"--CODEGEN--\":4410:4412   */\n    tag_523:\n        /* \"--CODEGEN--\":4493:4494   */\n      0x00\n        /* \"--CODEGEN--\":4510:4563   */\n      tag_524\n        /* \"--CODEGEN--\":4555:4562   */\n      dup7\n        /* \"--CODEGEN--\":4546:4552   */\n      dup3\n        /* \"--CODEGEN--\":4535:4544   */\n      dup8\n        /* \"--CODEGEN--\":4531:4553   */\n      add\n        /* \"--CODEGEN--\":4510:4563   */\n      tag_484\n      jump\t// in\n    tag_524:\n        /* \"--CODEGEN--\":4500:4563   */\n      swap4\n      pop\n        /* \"--CODEGEN--\":4472:4569   */\n      pop\n        /* \"--CODEGEN--\":4628:4630   */\n      0x20\n        /* \"--CODEGEN--\":4617:4626   */\n      dup5\n        /* \"--CODEGEN--\":4613:4631   */\n      add\n        /* \"--CODEGEN--\":4600:4632   */\n      calldataload\n        /* \"--CODEGEN--\":4652:4670   */\n      0xffffffffffffffff\n        /* \"--CODEGEN--\":4644:4650   */\n      dup2\n        /* \"--CODEGEN--\":4641:4671   */\n      gt\n        /* \"--CODEGEN--\":4638:4640   */\n      iszero\n      tag_525\n      jumpi\n        /* \"--CODEGEN--\":4684:4685   */\n      0x00\n        /* \"--CODEGEN--\":4681:4682   */\n      dup1\n        /* \"--CODEGEN--\":4674:4686   */\n      revert\n        /* \"--CODEGEN--\":4638:4640   */\n    tag_525:\n        /* \"--CODEGEN--\":4704:4767   */\n      tag_526\n        /* \"--CODEGEN--\":4759:4766   */\n      dup7\n        /* \"--CODEGEN--\":4750:4756   */\n      dup3\n        /* \"--CODEGEN--\":4739:4748   */\n      dup8\n        /* \"--CODEGEN--\":4735:4757   */\n      add\n        /* \"--CODEGEN--\":4704:4767   */\n      tag_474\n      jump\t// in\n    tag_526:\n        /* \"--CODEGEN--\":4694:4767   */\n      swap3\n      pop\n        /* \"--CODEGEN--\":4579:4773   */\n      pop\n        /* \"--CODEGEN--\":4832:4834   */\n      0x40\n        /* \"--CODEGEN--\":4821:4830   */\n      dup5\n        /* \"--CODEGEN--\":4817:4835   */\n      add\n        /* \"--CODEGEN--\":4804:4836   */\n      calldataload\n        /* \"--CODEGEN--\":4856:4874   */\n      0xffffffffffffffff\n        /* \"--CODEGEN--\":4848:4854   */\n      dup2\n        /* \"--CODEGEN--\":4845:4875   */\n      gt\n        /* \"--CODEGEN--\":4842:4844   */\n      iszero\n      tag_527\n      jumpi\n        /* \"--CODEGEN--\":4888:4889   */\n      0x00\n        /* \"--CODEGEN--\":4885:4886   */\n      dup1\n        /* \"--CODEGEN--\":4878:4890   */\n      revert\n        /* \"--CODEGEN--\":4842:4844   */\n    tag_527:\n        /* \"--CODEGEN--\":4908:4971   */\n      tag_528\n        /* \"--CODEGEN--\":4963:4970   */\n      dup7\n        /* \"--CODEGEN--\":4954:4960   */\n      dup3\n        /* \"--CODEGEN--\":4943:4952   */\n      dup8\n        /* \"--CODEGEN--\":4939:4961   */\n      add\n        /* \"--CODEGEN--\":4908:4971   */\n      tag_474\n      jump\t// in\n    tag_528:\n        /* \"--CODEGEN--\":4898:4971   */\n      swap2\n      pop\n        /* \"--CODEGEN--\":4783:4977   */\n      pop\n        /* \"--CODEGEN--\":4404:4987   */\n      swap3\n      pop\n      swap3\n      pop\n      swap3\n      jump\t// out\n        /* \"--CODEGEN--\":4995:5168   */\n    tag_529:\n      0x00\n        /* \"--CODEGEN--\":5082:5128   */\n      tag_531\n        /* \"--CODEGEN--\":5124:5127   */\n      dup4\n        /* \"--CODEGEN--\":5116:5122   */\n      dup4\n        /* \"--CODEGEN--\":5082:5128   */\n      tag_532\n      jump\t// in\n    tag_531:\n        /* \"--CODEGEN--\":5157:5161   */\n      0x20\n        /* \"--CODEGEN--\":5152:5155   */\n      dup4\n        /* \"--CODEGEN--\":5148:5162   */\n      add\n        /* \"--CODEGEN--\":5134:5162   */\n      swap1\n      pop\n        /* \"--CODEGEN--\":5075:5168   */\n      swap3\n      swap2\n      pop\n      pop\n      jump\t// out\n        /* \"--CODEGEN--\":5177:5370   */\n    tag_533:\n      0x00\n        /* \"--CODEGEN--\":5298:5364   */\n      tag_535\n        /* \"--CODEGEN--\":5360:5363   */\n      dup4\n        /* \"--CODEGEN--\":5352:5358   */\n      dup4\n        /* \"--CODEGEN--\":5298:5364   */\n      tag_536\n      jump\t// in\n    tag_535:\n        /* \"--CODEGEN--\":5284:5364   */\n      swap1\n      pop\n        /* \"--CODEGEN--\":5277:5370   */\n      swap3\n      swap2\n      pop\n      pop\n      jump\t// out\n        /* \"--CODEGEN--\":5379:5552   */\n    tag_537:\n      0x00\n        /* \"--CODEGEN--\":5466:5512   */\n      tag_539\n        /* \"--CODEGEN--\":5508:5511   */\n      dup4\n        /* \"--CODEGEN--\":5500:5506   */\n      dup4\n        /* \"--CODEGEN--\":5466:5512   */\n      tag_540\n      jump\t// in\n    tag_539:\n        /* \"--CODEGEN--\":5541:5545   */\n      0x20\n        /* \"--CODEGEN--\":5536:5539   */\n      dup4\n        /* \"--CODEGEN--\":5532:5546   */\n      add\n        /* \"--CODEGEN--\":5518:5546   */\n      swap1\n      pop\n        /* \"--CODEGEN--\":5459:5552   */\n      swap3\n      swap2\n      pop\n      pop\n      jump\t// out\n        /* \"--CODEGEN--\":5560:5697   */\n    tag_541:\n        /* \"--CODEGEN--\":5659:5691   */\n      tag_543\n        /* \"--CODEGEN--\":5685:5690   */\n      dup2\n        /* \"--CODEGEN--\":5659:5691   */\n      tag_544\n      jump\t// in\n    tag_543:\n        /* \"--CODEGEN--\":5654:5657   */\n      dup3\n        /* \"--CODEGEN--\":5647:5692   */\n      mstore\n        /* \"--CODEGEN--\":5641:5697   */\n      pop\n      pop\n      jump\t// out\n        /* \"--CODEGEN--\":5704:5888   */\n    tag_545:\n        /* \"--CODEGEN--\":5821:5882   */\n      tag_547\n        /* \"--CODEGEN--\":5849:5881   */\n      tag_548\n        /* \"--CODEGEN--\":5875:5880   */\n      dup3\n        /* \"--CODEGEN--\":5849:5881   */\n      tag_544\n      jump\t// in\n    tag_548:\n        /* \"--CODEGEN--\":5821:5882   */\n      tag_549\n      jump\t// in\n    tag_547:\n        /* \"--CODEGEN--\":5816:5819   */\n      dup3\n        /* \"--CODEGEN--\":5809:5883   */\n      mstore\n        /* \"--CODEGEN--\":5803:5888   */\n      pop\n      pop\n      jump\t// out\n        /* \"--CODEGEN--\":5895:5998   */\n    tag_532:\n        /* \"--CODEGEN--\":5968:5992   */\n      tag_551\n        /* \"--CODEGEN--\":5986:5991   */\n      dup2\n        /* \"--CODEGEN--\":5968:5992   */\n      tag_552\n      jump\t// in\n    tag_551:\n        /* \"--CODEGEN--\":5963:5966   */\n      dup3\n        /* \"--CODEGEN--\":5956:5993   */\n      mstore\n        /* \"--CODEGEN--\":5950:5998   */\n      pop\n      pop\n      jump\t// out\n        /* \"--CODEGEN--\":6036:6726   */\n    tag_553:\n      0x00\n        /* \"--CODEGEN--\":6181:6235   */\n      tag_555\n        /* \"--CODEGEN--\":6229:6234   */\n      dup3\n        /* \"--CODEGEN--\":6181:6235   */\n      tag_556\n      jump\t// in\n    tag_555:\n        /* \"--CODEGEN--\":6248:6334   */\n      tag_557\n        /* \"--CODEGEN--\":6327:6333   */\n      dup2\n        /* \"--CODEGEN--\":6322:6325   */\n      dup6\n        /* \"--CODEGEN--\":6248:6334   */\n      tag_558\n      jump\t// in\n    tag_557:\n        /* \"--CODEGEN--\":6241:6334   */\n      swap4\n      pop\n        /* \"--CODEGEN--\":6355:6411   */\n      tag_559\n        /* \"--CODEGEN--\":6405:6410   */\n      dup4\n        /* \"--CODEGEN--\":6355:6411   */\n      tag_560\n      jump\t// in\n    tag_559:\n        /* \"--CODEGEN--\":6431:6438   */\n      dup1\n        /* \"--CODEGEN--\":6459:6460   */\n      0x00\n        /* \"--CODEGEN--\":6444:6704   */\n    tag_561:\n        /* \"--CODEGEN--\":6469:6475   */\n      dup4\n        /* \"--CODEGEN--\":6466:6467   */\n      dup2\n        /* \"--CODEGEN--\":6463:6476   */\n      lt\n        /* \"--CODEGEN--\":6444:6704   */\n      iszero\n      tag_563\n      jumpi\n        /* \"--CODEGEN--\":6536:6542   */\n      dup2\n        /* \"--CODEGEN--\":6530:6543   */\n      mload\n        /* \"--CODEGEN--\":6557:6620   */\n      tag_564\n        /* \"--CODEGEN--\":6616:6619   */\n      dup9\n        /* \"--CODEGEN--\":6601:6614   */\n      dup3\n        /* \"--CODEGEN--\":6557:6620   */\n      tag_529\n      jump\t// in\n    tag_564:\n        /* \"--CODEGEN--\":6550:6620   */\n      swap8\n      pop\n        /* \"--CODEGEN--\":6637:6697   */\n      tag_565\n        /* \"--CODEGEN--\":6690:6696   */\n      dup4\n        /* \"--CODEGEN--\":6637:6697   */\n      tag_566\n      jump\t// in\n    tag_565:\n        /* \"--CODEGEN--\":6627:6697   */\n      swap3\n      pop\n        /* \"--CODEGEN--\":6501:6704   */\n      pop\n        /* \"--CODEGEN--\":6491:6492   */\n      0x01\n        /* \"--CODEGEN--\":6488:6489   */\n      dup2\n        /* \"--CODEGEN--\":6484:6493   */\n      add\n        /* \"--CODEGEN--\":6479:6493   */\n      swap1\n      pop\n        /* \"--CODEGEN--\":6444:6704   */\n      jump(tag_561)\n    tag_563:\n        /* \"--CODEGEN--\":6448:6462   */\n      pop\n        /* \"--CODEGEN--\":6717:6720   */\n      dup6\n        /* \"--CODEGEN--\":6710:6720   */\n      swap4\n      pop\n        /* \"--CODEGEN--\":6160:6726   */\n      pop\n      pop\n      pop\n      swap3\n      swap2\n      pop\n      pop\n      jump\t// out\n        /* \"--CODEGEN--\":6763:7691   */\n    tag_567:\n      0x00\n        /* \"--CODEGEN--\":6928:6992   */\n      tag_569\n        /* \"--CODEGEN--\":6986:6991   */\n      dup3\n        /* \"--CODEGEN--\":6928:6992   */\n      tag_570\n      jump\t// in\n    tag_569:\n        /* \"--CODEGEN--\":7005:7101   */\n      tag_571\n        /* \"--CODEGEN--\":7094:7100   */\n      dup2\n        /* \"--CODEGEN--\":7089:7092   */\n      dup6\n        /* \"--CODEGEN--\":7005:7101   */\n      tag_572\n      jump\t// in\n    tag_571:\n        /* \"--CODEGEN--\":6998:7101   */\n      swap4\n      pop\n        /* \"--CODEGEN--\":7124:7127   */\n      dup4\n        /* \"--CODEGEN--\":7166:7170   */\n      0x20\n        /* \"--CODEGEN--\":7158:7164   */\n      dup3\n        /* \"--CODEGEN--\":7154:7171   */\n      mul\n        /* \"--CODEGEN--\":7149:7152   */\n      dup6\n        /* \"--CODEGEN--\":7145:7172   */\n      add\n        /* \"--CODEGEN--\":7193:7259   */\n      tag_573\n        /* \"--CODEGEN--\":7253:7258   */\n      dup6\n        /* \"--CODEGEN--\":7193:7259   */\n      tag_574\n      jump\t// in\n    tag_573:\n        /* \"--CODEGEN--\":7279:7286   */\n      dup1\n        /* \"--CODEGEN--\":7307:7308   */\n      0x00\n        /* \"--CODEGEN--\":7292:7652   */\n    tag_575:\n        /* \"--CODEGEN--\":7317:7323   */\n      dup6\n        /* \"--CODEGEN--\":7314:7315   */\n      dup2\n        /* \"--CODEGEN--\":7311:7324   */\n      lt\n        /* \"--CODEGEN--\":7292:7652   */\n      iszero\n      tag_577\n      jumpi\n        /* \"--CODEGEN--\":7379:7388   */\n      dup5\n        /* \"--CODEGEN--\":7373:7377   */\n      dup5\n        /* \"--CODEGEN--\":7369:7389   */\n      sub\n        /* \"--CODEGEN--\":7364:7367   */\n      dup10\n        /* \"--CODEGEN--\":7357:7390   */\n      mstore\n        /* \"--CODEGEN--\":7424:7430   */\n      dup2\n        /* \"--CODEGEN--\":7418:7431   */\n      mload\n        /* \"--CODEGEN--\":7446:7530   */\n      tag_578\n        /* \"--CODEGEN--\":7525:7529   */\n      dup6\n        /* \"--CODEGEN--\":7510:7523   */\n      dup3\n        /* \"--CODEGEN--\":7446:7530   */\n      tag_533\n      jump\t// in\n    tag_578:\n        /* \"--CODEGEN--\":7438:7530   */\n      swap5\n      pop\n        /* \"--CODEGEN--\":7547:7617   */\n      tag_579\n        /* \"--CODEGEN--\":7610:7616   */\n      dup4\n        /* \"--CODEGEN--\":7547:7617   */\n      tag_580\n      jump\t// in\n    tag_579:\n        /* \"--CODEGEN--\":7537:7617   */\n      swap3\n      pop\n        /* \"--CODEGEN--\":7640:7644   */\n      0x20\n        /* \"--CODEGEN--\":7635:7638   */\n      dup11\n        /* \"--CODEGEN--\":7631:7645   */\n      add\n        /* \"--CODEGEN--\":7624:7645   */\n      swap10\n      pop\n        /* \"--CODEGEN--\":7349:7652   */\n      pop\n        /* \"--CODEGEN--\":7339:7340   */\n      0x01\n        /* \"--CODEGEN--\":7336:7337   */\n      dup2\n        /* \"--CODEGEN--\":7332:7341   */\n      add\n        /* \"--CODEGEN--\":7327:7341   */\n      swap1\n      pop\n        /* \"--CODEGEN--\":7292:7652   */\n      jump(tag_575)\n    tag_577:\n        /* \"--CODEGEN--\":7296:7310   */\n      pop\n        /* \"--CODEGEN--\":7665:7669   */\n      dup3\n        /* \"--CODEGEN--\":7658:7669   */\n      swap8\n      pop\n        /* \"--CODEGEN--\":7682:7685   */\n      dup8\n        /* \"--CODEGEN--\":7675:7685   */\n      swap6\n      pop\n        /* \"--CODEGEN--\":6907:7691   */\n      pop\n      pop\n      pop\n      pop\n      pop\n      swap3\n      swap2\n      pop\n      pop\n      jump\t// out\n        /* \"--CODEGEN--\":7730:8420   */\n    tag_581:\n      0x00\n        /* \"--CODEGEN--\":7875:7929   */\n      tag_583\n        /* \"--CODEGEN--\":7923:7928   */\n      dup3\n        /* \"--CODEGEN--\":7875:7929   */\n      tag_584\n      jump\t// in\n    tag_583:\n        /* \"--CODEGEN--\":7942:8028   */\n      tag_585\n        /* \"--CODEGEN--\":8021:8027   */\n      dup2\n        /* \"--CODEGEN--\":8016:8019   */\n      dup6\n        /* \"--CODEGEN--\":7942:8028   */\n      tag_586\n      jump\t// in\n    tag_585:\n        /* \"--CODEGEN--\":7935:8028   */\n      swap4\n      pop\n        /* \"--CODEGEN--\":8049:8105   */\n      tag_587\n        /* \"--CODEGEN--\":8099:8104   */\n      dup4\n        /* \"--CODEGEN--\":8049:8105   */\n      tag_588\n      jump\t// in\n    tag_587:\n        /* \"--CODEGEN--\":8125:8132   */\n      dup1\n        /* \"--CODEGEN--\":8153:8154   */\n      0x00\n        /* \"--CODEGEN--\":8138:8398   */\n    tag_589:\n        /* \"--CODEGEN--\":8163:8169   */\n      dup4\n        /* \"--CODEGEN--\":8160:8161   */\n      dup2\n        /* \"--CODEGEN--\":8157:8170   */\n      lt\n        /* \"--CODEGEN--\":8138:8398   */\n      iszero\n      tag_591\n      jumpi\n        /* \"--CODEGEN--\":8230:8236   */\n      dup2\n        /* \"--CODEGEN--\":8224:8237   */\n      mload\n        /* \"--CODEGEN--\":8251:8314   */\n      tag_592\n        /* \"--CODEGEN--\":8310:8313   */\n      dup9\n        /* \"--CODEGEN--\":8295:8308   */\n      dup3\n        /* \"--CODEGEN--\":8251:8314   */\n      tag_537\n      jump\t// in\n    tag_592:\n        /* \"--CODEGEN--\":8244:8314   */\n      swap8\n      pop\n        /* \"--CODEGEN--\":8331:8391   */\n      tag_593\n        /* \"--CODEGEN--\":8384:8390   */\n      dup4\n        /* \"--CODEGEN--\":8331:8391   */\n      tag_594\n      jump\t// in\n    tag_593:\n        /* \"--CODEGEN--\":8321:8391   */\n      swap3\n      pop\n        /* \"--CODEGEN--\":8195:8398   */\n      pop\n        /* \"--CODEGEN--\":8185:8186   */\n      0x01\n        /* \"--CODEGEN--\":8182:8183   */\n      dup2\n        /* \"--CODEGEN--\":8178:8187   */\n      add\n        /* \"--CODEGEN--\":8173:8187   */\n      swap1\n      pop\n        /* \"--CODEGEN--\":8138:8398   */\n      jump(tag_589)\n    tag_591:\n        /* \"--CODEGEN--\":8142:8156   */\n      pop\n        /* \"--CODEGEN--\":8411:8414   */\n      dup6\n        /* \"--CODEGEN--\":8404:8414   */\n      swap4\n      pop\n        /* \"--CODEGEN--\":7854:8420   */\n      pop\n      pop\n      pop\n      swap3\n      swap2\n      pop\n      pop\n      jump\t// out\n        /* \"--CODEGEN--\":8428:8532   */\n    tag_595:\n        /* \"--CODEGEN--\":8505:8526   */\n      tag_597\n        /* \"--CODEGEN--\":8520:8525   */\n      dup2\n        /* \"--CODEGEN--\":8505:8526   */\n      tag_598\n      jump\t// in\n    tag_597:\n        /* \"--CODEGEN--\":8500:8503   */\n      dup3\n        /* \"--CODEGEN--\":8493:8527   */\n      mstore\n        /* \"--CODEGEN--\":8487:8532   */\n      pop\n      pop\n      jump\t// out\n        /* \"--CODEGEN--\":8539:8652   */\n    tag_599:\n        /* \"--CODEGEN--\":8622:8646   */\n      tag_601\n        /* \"--CODEGEN--\":8640:8645   */\n      dup2\n        /* \"--CODEGEN--\":8622:8646   */\n      tag_602\n      jump\t// in\n    tag_601:\n        /* \"--CODEGEN--\":8617:8620   */\n      dup3\n        /* \"--CODEGEN--\":8610:8647   */\n      mstore\n        /* \"--CODEGEN--\":8604:8652   */\n      pop\n      pop\n      jump\t// out\n        /* \"--CODEGEN--\":8659:8986   */\n    tag_536:\n      0x00\n        /* \"--CODEGEN--\":8761:8800   */\n      tag_604\n        /* \"--CODEGEN--\":8794:8799   */\n      dup3\n        /* \"--CODEGEN--\":8761:8800   */\n      tag_605\n      jump\t// in\n    tag_604:\n        /* \"--CODEGEN--\":8812:8873   */\n      tag_606\n        /* \"--CODEGEN--\":8866:8872   */\n      dup2\n        /* \"--CODEGEN--\":8861:8864   */\n      dup6\n        /* \"--CODEGEN--\":8812:8873   */\n      tag_607\n      jump\t// in\n    tag_606:\n        /* \"--CODEGEN--\":8805:8873   */\n      swap4\n      pop\n        /* \"--CODEGEN--\":8878:8930   */\n      tag_608\n        /* \"--CODEGEN--\":8923:8929   */\n      dup2\n        /* \"--CODEGEN--\":8918:8921   */\n      dup6\n        /* \"--CODEGEN--\":8911:8915   */\n      0x20\n        /* \"--CODEGEN--\":8904:8909   */\n      dup7\n        /* \"--CODEGEN--\":8900:8916   */\n      add\n        /* \"--CODEGEN--\":8878:8930   */\n      tag_609\n      jump\t// in\n    tag_608:\n        /* \"--CODEGEN--\":8951:8980   */\n      tag_610\n        /* \"--CODEGEN--\":8973:8979   */\n      dup2\n        /* \"--CODEGEN--\":8951:8980   */\n      tag_611\n      jump\t// in\n    tag_610:\n        /* \"--CODEGEN--\":8946:8949   */\n      dup5\n        /* \"--CODEGEN--\":8942:8981   */\n      add\n        /* \"--CODEGEN--\":8935:8981   */\n      swap2\n      pop\n        /* \"--CODEGEN--\":8741:8986   */\n      pop\n      swap3\n      swap2\n      pop\n      pop\n      jump\t// out\n        /* \"--CODEGEN--\":8993:9353   */\n    tag_612:\n      0x00\n        /* \"--CODEGEN--\":9123:9162   */\n      tag_614\n        /* \"--CODEGEN--\":9156:9161   */\n      dup3\n        /* \"--CODEGEN--\":9123:9162   */\n      tag_605\n      jump\t// in\n    tag_614:\n        /* \"--CODEGEN--\":9174:9263   */\n      tag_615\n        /* \"--CODEGEN--\":9256:9262   */\n      dup2\n        /* \"--CODEGEN--\":9251:9254   */\n      dup6\n        /* \"--CODEGEN--\":9174:9263   */\n      tag_616\n      jump\t// in\n    tag_615:\n        /* \"--CODEGEN--\":9167:9263   */\n      swap4\n      pop\n        /* \"--CODEGEN--\":9268:9320   */\n      tag_617\n        /* \"--CODEGEN--\":9313:9319   */\n      dup2\n        /* \"--CODEGEN--\":9308:9311   */\n      dup6\n        /* \"--CODEGEN--\":9301:9305   */\n      0x20\n        /* \"--CODEGEN--\":9294:9299   */\n      dup7\n        /* \"--CODEGEN--\":9290:9306   */\n      add\n        /* \"--CODEGEN--\":9268:9320   */\n      tag_609\n      jump\t// in\n    tag_617:\n        /* \"--CODEGEN--\":9341:9347   */\n      dup1\n        /* \"--CODEGEN--\":9336:9339   */\n      dup5\n        /* \"--CODEGEN--\":9332:9348   */\n      add\n        /* \"--CODEGEN--\":9325:9348   */\n      swap2\n      pop\n        /* \"--CODEGEN--\":9103:9353   */\n      pop\n      swap3\n      swap2\n      pop\n      pop\n      jump\t// out\n        /* \"--CODEGEN--\":9385:10269   */\n    tag_618:\n      0x00\n        /* \"--CODEGEN--\":9522:9527   */\n      dup2\n        /* \"--CODEGEN--\":9516:9528   */\n      sload\n        /* \"--CODEGEN--\":9556:9557   */\n      0x01\n        /* \"--CODEGEN--\":9545:9554   */\n      dup2\n        /* \"--CODEGEN--\":9541:9558   */\n      and\n        /* \"--CODEGEN--\":9569:9570   */\n      0x00\n        /* \"--CODEGEN--\":9564:9832   */\n      dup2\n      eq\n      tag_621\n      jumpi\n        /* \"--CODEGEN--\":9843:9844   */\n      0x01\n        /* \"--CODEGEN--\":9838:10263   */\n      dup2\n      eq\n      tag_622\n      jumpi\n        /* \"--CODEGEN--\":9534:10263   */\n      jump(tag_620)\n        /* \"--CODEGEN--\":9564:9832   */\n    tag_621:\n        /* \"--CODEGEN--\":9642:9646   */\n      0x7f\n        /* \"--CODEGEN--\":9638:9639   */\n      0x02\n        /* \"--CODEGEN--\":9627:9636   */\n      dup4\n        /* \"--CODEGEN--\":9623:9640   */\n      div\n        /* \"--CODEGEN--\":9619:9647   */\n      and\n        /* \"--CODEGEN--\":9661:9750   */\n      tag_623\n        /* \"--CODEGEN--\":9743:9749   */\n      dup2\n        /* \"--CODEGEN--\":9738:9741   */\n      dup8\n        /* \"--CODEGEN--\":9661:9750   */\n      tag_616\n      jump\t// in\n    tag_623:\n        /* \"--CODEGEN--\":9654:9750   */\n      swap6\n      pop\n        /* \"--CODEGEN--\":9788:9792   */\n      0xff\n        /* \"--CODEGEN--\":9784:9793   */\n      not\n        /* \"--CODEGEN--\":9773:9782   */\n      dup4\n        /* \"--CODEGEN--\":9769:9794   */\n      and\n        /* \"--CODEGEN--\":9764:9767   */\n      dup7\n        /* \"--CODEGEN--\":9757:9795   */\n      mstore\n        /* \"--CODEGEN--\":9818:9824   */\n      dup1\n        /* \"--CODEGEN--\":9813:9816   */\n      dup7\n        /* \"--CODEGEN--\":9809:9825   */\n      add\n        /* \"--CODEGEN--\":9802:9825   */\n      swap4\n      pop\n        /* \"--CODEGEN--\":9571:9832   */\n      pop\n        /* \"--CODEGEN--\":9564:9832   */\n      jump(tag_620)\n        /* \"--CODEGEN--\":9838:10263   */\n    tag_622:\n        /* \"--CODEGEN--\":9907:9908   */\n      0x02\n        /* \"--CODEGEN--\":9896:9905   */\n      dup3\n        /* \"--CODEGEN--\":9892:9909   */\n      div\n        /* \"--CODEGEN--\":9923:10012   */\n      tag_624\n        /* \"--CODEGEN--\":10005:10011   */\n      dup2\n        /* \"--CODEGEN--\":10000:10003   */\n      dup8\n        /* \"--CODEGEN--\":9923:10012   */\n      tag_616\n      jump\t// in\n    tag_624:\n        /* \"--CODEGEN--\":9916:10012   */\n      swap6\n      pop\n        /* \"--CODEGEN--\":10034:10072   */\n      tag_625\n        /* \"--CODEGEN--\":10066:10071   */\n      dup6\n        /* \"--CODEGEN--\":10034:10072   */\n      tag_626\n      jump\t// in\n    tag_625:\n        /* \"--CODEGEN--\":10088:10089   */\n      0x00\n        /* \"--CODEGEN--\":10096:10226   */\n    tag_627:\n        /* \"--CODEGEN--\":10110:10116   */\n      dup3\n        /* \"--CODEGEN--\":10107:10108   */\n      dup2\n        /* \"--CODEGEN--\":10104:10117   */\n      lt\n        /* \"--CODEGEN--\":10096:10226   */\n      iszero\n      tag_629\n      jumpi\n        /* \"--CODEGEN--\":10175:10182   */\n      dup2\n        /* \"--CODEGEN--\":10169:10183   */\n      sload\n        /* \"--CODEGEN--\":10165:10166   */\n      dup2\n        /* \"--CODEGEN--\":10160:10163   */\n      dup10\n        /* \"--CODEGEN--\":10156:10167   */\n      add\n        /* \"--CODEGEN--\":10149:10184   */\n      mstore\n        /* \"--CODEGEN--\":10216:10217   */\n      0x01\n        /* \"--CODEGEN--\":10207:10214   */\n      dup3\n        /* \"--CODEGEN--\":10203:10218   */\n      add\n        /* \"--CODEGEN--\":10192:10218   */\n      swap2\n      pop\n        /* \"--CODEGEN--\":10132:10136   */\n      0x20\n        /* \"--CODEGEN--\":10129:10130   */\n      dup2\n        /* \"--CODEGEN--\":10125:10137   */\n      add\n        /* \"--CODEGEN--\":10120:10137   */\n      swap1\n      pop\n        /* \"--CODEGEN--\":10096:10226   */\n      jump(tag_627)\n    tag_629:\n        /* \"--CODEGEN--\":10249:10255   */\n      dup3\n        /* \"--CODEGEN--\":10244:10247   */\n      dup9\n        /* \"--CODEGEN--\":10240:10256   */\n      add\n        /* \"--CODEGEN--\":10233:10256   */\n      swap6\n      pop\n        /* \"--CODEGEN--\":9845:10263   */\n      pop\n      pop\n      pop\n        /* \"--CODEGEN--\":9534:10263   */\n    tag_620:\n      pop\n        /* \"--CODEGEN--\":9492:10269   */\n      pop\n      swap3\n      swap2\n      pop\n      pop\n      jump\t// out\n        /* \"--CODEGEN--\":10278:10590   */\n    tag_630:\n      0x00\n        /* \"--CODEGEN--\":10438:10505   */\n      tag_632\n        /* \"--CODEGEN--\":10502:10504   */\n      0x0c\n        /* \"--CODEGEN--\":10497:10500   */\n      dup4\n        /* \"--CODEGEN--\":10438:10505   */\n      tag_633\n      jump\t// in\n    tag_632:\n        /* \"--CODEGEN--\":10431:10505   */\n      swap2\n      pop\n        /* \"--CODEGEN--\":10538:10552   */\n      0x746f6b656e206469756261680000000000000000000000000000000000000000\n        /* \"--CODEGEN--\":10534:10535   */\n      0x00\n        /* \"--CODEGEN--\":10529:10532   */\n      dup4\n        /* \"--CODEGEN--\":10525:10536   */\n      add\n        /* \"--CODEGEN--\":10518:10553   */\n      mstore\n        /* \"--CODEGEN--\":10581:10583   */\n      0x20\n        /* \"--CODEGEN--\":10576:10579   */\n      dup3\n        /* \"--CODEGEN--\":10572:10584   */\n      add\n        /* \"--CODEGEN--\":10565:10584   */\n      swap1\n      pop\n        /* \"--CODEGEN--\":10424:10590   */\n      swap2\n      swap1\n      pop\n      jump\t// out\n        /* \"--CODEGEN--\":10599:10917   */\n    tag_634:\n      0x00\n        /* \"--CODEGEN--\":10759:10826   */\n      tag_636\n        /* \"--CODEGEN--\":10823:10825   */\n      0x12\n        /* \"--CODEGEN--\":10818:10821   */\n      dup4\n        /* \"--CODEGEN--\":10759:10826   */\n      tag_633\n      jump\t// in\n    tag_636:\n        /* \"--CODEGEN--\":10752:10826   */\n      swap2\n      pop\n        /* \"--CODEGEN--\":10859:10879   */\n      0x746f6b656e20746964616b206469756261680000000000000000000000000000\n        /* \"--CODEGEN--\":10855:10856   */\n      0x00\n        /* \"--CODEGEN--\":10850:10853   */\n      dup4\n        /* \"--CODEGEN--\":10846:10857   */\n      add\n        /* \"--CODEGEN--\":10839:10880   */\n      mstore\n        /* \"--CODEGEN--\":10908:10910   */\n      0x20\n        /* \"--CODEGEN--\":10903:10906   */\n      dup3\n        /* \"--CODEGEN--\":10899:10911   */\n      add\n        /* \"--CODEGEN--\":10892:10911   */\n      swap1\n      pop\n        /* \"--CODEGEN--\":10745:10917   */\n      swap2\n      swap1\n      pop\n      jump\t// out\n        /* \"--CODEGEN--\":10925:11028   */\n    tag_540:\n        /* \"--CODEGEN--\":10998:11022   */\n      tag_638\n        /* \"--CODEGEN--\":11016:11021   */\n      dup2\n        /* \"--CODEGEN--\":10998:11022   */\n      tag_639\n      jump\t// in\n    tag_638:\n        /* \"--CODEGEN--\":10993:10996   */\n      dup3\n        /* \"--CODEGEN--\":10986:11023   */\n      mstore\n        /* \"--CODEGEN--\":10980:11028   */\n      pop\n      pop\n      jump\t// out\n        /* \"--CODEGEN--\":11035:11148   */\n    tag_640:\n        /* \"--CODEGEN--\":11118:11142   */\n      tag_642\n        /* \"--CODEGEN--\":11136:11141   */\n      dup2\n        /* \"--CODEGEN--\":11118:11142   */\n      tag_639\n      jump\t// in\n    tag_642:\n        /* \"--CODEGEN--\":11113:11116   */\n      dup3\n        /* \"--CODEGEN--\":11106:11143   */\n      mstore\n        /* \"--CODEGEN--\":11100:11148   */\n      pop\n      pop\n      jump\t// out\n        /* \"--CODEGEN--\":11155:11307   */\n    tag_643:\n        /* \"--CODEGEN--\":11256:11301   */\n      tag_645\n        /* \"--CODEGEN--\":11276:11300   */\n      tag_646\n        /* \"--CODEGEN--\":11294:11299   */\n      dup3\n        /* \"--CODEGEN--\":11276:11300   */\n      tag_639\n      jump\t// in\n    tag_646:\n        /* \"--CODEGEN--\":11256:11301   */\n      tag_647\n      jump\t// in\n    tag_645:\n        /* \"--CODEGEN--\":11251:11254   */\n      dup3\n        /* \"--CODEGEN--\":11244:11302   */\n      mstore\n        /* \"--CODEGEN--\":11238:11307   */\n      pop\n      pop\n      jump\t// out\n        /* \"--CODEGEN--\":11314:11738   */\n    tag_397:\n      0x00\n        /* \"--CODEGEN--\":11486:11577   */\n      tag_649\n        /* \"--CODEGEN--\":11573:11576   */\n      dup3\n        /* \"--CODEGEN--\":11564:11570   */\n      dup6\n        /* \"--CODEGEN--\":11486:11577   */\n      tag_545\n      jump\t// in\n    tag_649:\n        /* \"--CODEGEN--\":11599:11601   */\n      0x14\n        /* \"--CODEGEN--\":11594:11597   */\n      dup3\n        /* \"--CODEGEN--\":11590:11602   */\n      add\n        /* \"--CODEGEN--\":11583:11602   */\n      swap2\n      pop\n        /* \"--CODEGEN--\":11613:11688   */\n      tag_650\n        /* \"--CODEGEN--\":11684:11687   */\n      dup3\n        /* \"--CODEGEN--\":11675:11681   */\n      dup5\n        /* \"--CODEGEN--\":11613:11688   */\n      tag_643\n      jump\t// in\n    tag_650:\n        /* \"--CODEGEN--\":11710:11712   */\n      0x20\n        /* \"--CODEGEN--\":11705:11708   */\n      dup3\n        /* \"--CODEGEN--\":11701:11713   */\n      add\n        /* \"--CODEGEN--\":11694:11713   */\n      swap2\n      pop\n        /* \"--CODEGEN--\":11730:11733   */\n      dup2\n        /* \"--CODEGEN--\":11723:11733   */\n      swap1\n      pop\n        /* \"--CODEGEN--\":11474:11738   */\n      swap4\n      swap3\n      pop\n      pop\n      pop\n      jump\t// out\n        /* \"--CODEGEN--\":11745:12020   */\n    tag_138:\n      0x00\n        /* \"--CODEGEN--\":11900:11995   */\n      tag_652\n        /* \"--CODEGEN--\":11991:11994   */\n      dup3\n        /* \"--CODEGEN--\":11982:11988   */\n      dup5\n        /* \"--CODEGEN--\":11900:11995   */\n      tag_612\n      jump\t// in\n    tag_652:\n        /* \"--CODEGEN--\":11893:11995   */\n      swap2\n      pop\n        /* \"--CODEGEN--\":12012:12015   */\n      dup2\n        /* \"--CODEGEN--\":12005:12015   */\n      swap1\n      pop\n        /* \"--CODEGEN--\":11881:12020   */\n      swap3\n      swap2\n      pop\n      pop\n      jump\t// out\n        /* \"--CODEGEN--\":12027:12296   */\n    tag_136:\n      0x00\n        /* \"--CODEGEN--\":12179:12271   */\n      tag_654\n        /* \"--CODEGEN--\":12267:12270   */\n      dup3\n        /* \"--CODEGEN--\":12258:12264   */\n      dup5\n        /* \"--CODEGEN--\":12179:12271   */\n      tag_618\n      jump\t// in\n    tag_654:\n        /* \"--CODEGEN--\":12172:12271   */\n      swap2\n      pop\n        /* \"--CODEGEN--\":12288:12291   */\n      dup2\n        /* \"--CODEGEN--\":12281:12291   */\n      swap1\n      pop\n        /* \"--CODEGEN--\":12160:12296   */\n      swap3\n      swap2\n      pop\n      pop\n      jump\t// out\n        /* \"--CODEGEN--\":12303:12557   */\n    tag_51:\n      0x00\n        /* \"--CODEGEN--\":12446:12448   */\n      0x20\n        /* \"--CODEGEN--\":12435:12444   */\n      dup3\n        /* \"--CODEGEN--\":12431:12449   */\n      add\n        /* \"--CODEGEN--\":12423:12449   */\n      swap1\n      pop\n        /* \"--CODEGEN--\":12460:12547   */\n      tag_656\n        /* \"--CODEGEN--\":12544:12545   */\n      0x00\n        /* \"--CODEGEN--\":12533:12542   */\n      dup4\n        /* \"--CODEGEN--\":12529:12546   */\n      add\n        /* \"--CODEGEN--\":12520:12526   */\n      dup5\n        /* \"--CODEGEN--\":12460:12547   */\n      tag_541\n      jump\t// in\n    tag_656:\n        /* \"--CODEGEN--\":12417:12557   */\n      swap3\n      swap2\n      pop\n      pop\n      jump\t// out\n        /* \"--CODEGEN--\":12564:12934   */\n    tag_85:\n      0x00\n        /* \"--CODEGEN--\":12741:12743   */\n      0x20\n        /* \"--CODEGEN--\":12730:12739   */\n      dup3\n        /* \"--CODEGEN--\":12726:12744   */\n      add\n        /* \"--CODEGEN--\":12718:12744   */\n      swap1\n      pop\n        /* \"--CODEGEN--\":12791:12800   */\n      dup2\n        /* \"--CODEGEN--\":12785:12789   */\n      dup2\n        /* \"--CODEGEN--\":12781:12801   */\n      sub\n        /* \"--CODEGEN--\":12777:12778   */\n      0x00\n        /* \"--CODEGEN--\":12766:12775   */\n      dup4\n        /* \"--CODEGEN--\":12762:12779   */\n      add\n        /* \"--CODEGEN--\":12755:12802   */\n      mstore\n        /* \"--CODEGEN--\":12816:12924   */\n      tag_658\n        /* \"--CODEGEN--\":12919:12923   */\n      dup2\n        /* \"--CODEGEN--\":12910:12916   */\n      dup5\n        /* \"--CODEGEN--\":12816:12924   */\n      tag_553\n      jump\t// in\n    tag_658:\n        /* \"--CODEGEN--\":12808:12924   */\n      swap1\n      pop\n        /* \"--CODEGEN--\":12712:12934   */\n      swap3\n      swap2\n      pop\n      pop\n      jump\t// out\n        /* \"--CODEGEN--\":12941:13351   */\n    tag_61:\n      0x00\n        /* \"--CODEGEN--\":13138:13140   */\n      0x20\n        /* \"--CODEGEN--\":13127:13136   */\n      dup3\n        /* \"--CODEGEN--\":13123:13141   */\n      add\n        /* \"--CODEGEN--\":13115:13141   */\n      swap1\n      pop\n        /* \"--CODEGEN--\":13188:13197   */\n      dup2\n        /* \"--CODEGEN--\":13182:13186   */\n      dup2\n        /* \"--CODEGEN--\":13178:13198   */\n      sub\n        /* \"--CODEGEN--\":13174:13175   */\n      0x00\n        /* \"--CODEGEN--\":13163:13172   */\n      dup4\n        /* \"--CODEGEN--\":13159:13176   */\n      add\n        /* \"--CODEGEN--\":13152:13199   */\n      mstore\n        /* \"--CODEGEN--\":13213:13341   */\n      tag_660\n        /* \"--CODEGEN--\":13336:13340   */\n      dup2\n        /* \"--CODEGEN--\":13327:13333   */\n      dup5\n        /* \"--CODEGEN--\":13213:13341   */\n      tag_567\n      jump\t// in\n    tag_660:\n        /* \"--CODEGEN--\":13205:13341   */\n      swap1\n      pop\n        /* \"--CODEGEN--\":13109:13351   */\n      swap3\n      swap2\n      pop\n      pop\n      jump\t// out\n        /* \"--CODEGEN--\":13358:14326   */\n    tag_55:\n      0x00\n        /* \"--CODEGEN--\":13731:13733   */\n      0x60\n        /* \"--CODEGEN--\":13720:13729   */\n      dup3\n        /* \"--CODEGEN--\":13716:13734   */\n      add\n        /* \"--CODEGEN--\":13708:13734   */\n      swap1\n      pop\n        /* \"--CODEGEN--\":13781:13790   */\n      dup2\n        /* \"--CODEGEN--\":13775:13779   */\n      dup2\n        /* \"--CODEGEN--\":13771:13791   */\n      sub\n        /* \"--CODEGEN--\":13767:13768   */\n      0x00\n        /* \"--CODEGEN--\":13756:13765   */\n      dup4\n        /* \"--CODEGEN--\":13752:13769   */\n      add\n        /* \"--CODEGEN--\":13745:13792   */\n      mstore\n        /* \"--CODEGEN--\":13806:13914   */\n      tag_662\n        /* \"--CODEGEN--\":13909:13913   */\n      dup2\n        /* \"--CODEGEN--\":13900:13906   */\n      dup7\n        /* \"--CODEGEN--\":13806:13914   */\n      tag_581\n      jump\t// in\n    tag_662:\n        /* \"--CODEGEN--\":13798:13914   */\n      swap1\n      pop\n        /* \"--CODEGEN--\":13962:13971   */\n      dup2\n        /* \"--CODEGEN--\":13956:13960   */\n      dup2\n        /* \"--CODEGEN--\":13952:13972   */\n      sub\n        /* \"--CODEGEN--\":13947:13949   */\n      0x20\n        /* \"--CODEGEN--\":13936:13945   */\n      dup4\n        /* \"--CODEGEN--\":13932:13950   */\n      add\n        /* \"--CODEGEN--\":13925:13973   */\n      mstore\n        /* \"--CODEGEN--\":13987:14115   */\n      tag_663\n        /* \"--CODEGEN--\":14110:14114   */\n      dup2\n        /* \"--CODEGEN--\":14101:14107   */\n      dup6\n        /* \"--CODEGEN--\":13987:14115   */\n      tag_567\n      jump\t// in\n    tag_663:\n        /* \"--CODEGEN--\":13979:14115   */\n      swap1\n      pop\n        /* \"--CODEGEN--\":14163:14172   */\n      dup2\n        /* \"--CODEGEN--\":14157:14161   */\n      dup2\n        /* \"--CODEGEN--\":14153:14173   */\n      sub\n        /* \"--CODEGEN--\":14148:14150   */\n      0x40\n        /* \"--CODEGEN--\":14137:14146   */\n      dup4\n        /* \"--CODEGEN--\":14133:14151   */\n      add\n        /* \"--CODEGEN--\":14126:14174   */\n      mstore\n        /* \"--CODEGEN--\":14188:14316   */\n      tag_664\n        /* \"--CODEGEN--\":14311:14315   */\n      dup2\n        /* \"--CODEGEN--\":14302:14308   */\n      dup5\n        /* \"--CODEGEN--\":14188:14316   */\n      tag_567\n      jump\t// in\n    tag_664:\n        /* \"--CODEGEN--\":14180:14316   */\n      swap1\n      pop\n        /* \"--CODEGEN--\":13702:14326   */\n      swap5\n      swap4\n      pop\n      pop\n      pop\n      pop\n      jump\t// out\n        /* \"--CODEGEN--\":14333:15561   */\n    tag_74:\n      0x00\n        /* \"--CODEGEN--\":14784:14787   */\n      0x80\n        /* \"--CODEGEN--\":14773:14782   */\n      dup3\n        /* \"--CODEGEN--\":14769:14788   */\n      add\n        /* \"--CODEGEN--\":14761:14788   */\n      swap1\n      pop\n        /* \"--CODEGEN--\":14835:14844   */\n      dup2\n        /* \"--CODEGEN--\":14829:14833   */\n      dup2\n        /* \"--CODEGEN--\":14825:14845   */\n      sub\n        /* \"--CODEGEN--\":14821:14822   */\n      0x00\n        /* \"--CODEGEN--\":14810:14819   */\n      dup4\n        /* \"--CODEGEN--\":14806:14823   */\n      add\n        /* \"--CODEGEN--\":14799:14846   */\n      mstore\n        /* \"--CODEGEN--\":14860:14968   */\n      tag_666\n        /* \"--CODEGEN--\":14963:14967   */\n      dup2\n        /* \"--CODEGEN--\":14954:14960   */\n      dup8\n        /* \"--CODEGEN--\":14860:14968   */\n      tag_581\n      jump\t// in\n    tag_666:\n        /* \"--CODEGEN--\":14852:14968   */\n      swap1\n      pop\n        /* \"--CODEGEN--\":15016:15025   */\n      dup2\n        /* \"--CODEGEN--\":15010:15014   */\n      dup2\n        /* \"--CODEGEN--\":15006:15026   */\n      sub\n        /* \"--CODEGEN--\":15001:15003   */\n      0x20\n        /* \"--CODEGEN--\":14990:14999   */\n      dup4\n        /* \"--CODEGEN--\":14986:15004   */\n      add\n        /* \"--CODEGEN--\":14979:15027   */\n      mstore\n        /* \"--CODEGEN--\":15041:15169   */\n      tag_667\n        /* \"--CODEGEN--\":15164:15168   */\n      dup2\n        /* \"--CODEGEN--\":15155:15161   */\n      dup7\n        /* \"--CODEGEN--\":15041:15169   */\n      tag_567\n      jump\t// in\n    tag_667:\n        /* \"--CODEGEN--\":15033:15169   */\n      swap1\n      pop\n        /* \"--CODEGEN--\":15217:15226   */\n      dup2\n        /* \"--CODEGEN--\":15211:15215   */\n      dup2\n        /* \"--CODEGEN--\":15207:15227   */\n      sub\n        /* \"--CODEGEN--\":15202:15204   */\n      0x40\n        /* \"--CODEGEN--\":15191:15200   */\n      dup4\n        /* \"--CODEGEN--\":15187:15205   */\n      add\n        /* \"--CODEGEN--\":15180:15228   */\n      mstore\n        /* \"--CODEGEN--\":15242:15370   */\n      tag_668\n        /* \"--CODEGEN--\":15365:15369   */\n      dup2\n        /* \"--CODEGEN--\":15356:15362   */\n      dup6\n        /* \"--CODEGEN--\":15242:15370   */\n      tag_567\n      jump\t// in\n    tag_668:\n        /* \"--CODEGEN--\":15234:15370   */\n      swap1\n      pop\n        /* \"--CODEGEN--\":15418:15427   */\n      dup2\n        /* \"--CODEGEN--\":15412:15416   */\n      dup2\n        /* \"--CODEGEN--\":15408:15428   */\n      sub\n        /* \"--CODEGEN--\":15403:15405   */\n      0x60\n        /* \"--CODEGEN--\":15392:15401   */\n      dup4\n        /* \"--CODEGEN--\":15388:15406   */\n      add\n        /* \"--CODEGEN--\":15381:15429   */\n      mstore\n        /* \"--CODEGEN--\":15443:15551   */\n      tag_669\n        /* \"--CODEGEN--\":15546:15550   */\n      dup2\n        /* \"--CODEGEN--\":15537:15543   */\n      dup5\n        /* \"--CODEGEN--\":15443:15551   */\n      tag_553\n      jump\t// in\n    tag_669:\n        /* \"--CODEGEN--\":15435:15551   */\n      swap1\n      pop\n        /* \"--CODEGEN--\":14755:15561   */\n      swap6\n      swap5\n      pop\n      pop\n      pop\n      pop\n      pop\n      jump\t// out\n        /* \"--CODEGEN--\":15568:15778   */\n    tag_67:\n      0x00\n        /* \"--CODEGEN--\":15689:15691   */\n      0x20\n        /* \"--CODEGEN--\":15678:15687   */\n      dup3\n        /* \"--CODEGEN--\":15674:15692   */\n      add\n        /* \"--CODEGEN--\":15666:15692   */\n      swap1\n      pop\n        /* \"--CODEGEN--\":15703:15768   */\n      tag_671\n        /* \"--CODEGEN--\":15765:15766   */\n      0x00\n        /* \"--CODEGEN--\":15754:15763   */\n      dup4\n        /* \"--CODEGEN--\":15750:15767   */\n      add\n        /* \"--CODEGEN--\":15741:15747   */\n      dup5\n        /* \"--CODEGEN--\":15703:15768   */\n      tag_595\n      jump\t// in\n    tag_671:\n        /* \"--CODEGEN--\":15660:15778   */\n      swap3\n      swap2\n      pop\n      pop\n      jump\t// out\n        /* \"--CODEGEN--\":15785:16007   */\n    tag_29:\n      0x00\n        /* \"--CODEGEN--\":15912:15914   */\n      0x20\n        /* \"--CODEGEN--\":15901:15910   */\n      dup3\n        /* \"--CODEGEN--\":15897:15915   */\n      add\n        /* \"--CODEGEN--\":15889:15915   */\n      swap1\n      pop\n        /* \"--CODEGEN--\":15926:15997   */\n      tag_673\n        /* \"--CODEGEN--\":15994:15995   */\n      0x00\n        /* \"--CODEGEN--\":15983:15992   */\n      dup4\n        /* \"--CODEGEN--\":15979:15996   */\n      add\n        /* \"--CODEGEN--\":15970:15976   */\n      dup5\n        /* \"--CODEGEN--\":15926:15997   */\n      tag_599\n      jump\t// in\n    tag_673:\n        /* \"--CODEGEN--\":15883:16007   */\n      swap3\n      swap2\n      pop\n      pop\n      jump\t// out\n        /* \"--CODEGEN--\":16014:16430   */\n    tag_405:\n      0x00\n        /* \"--CODEGEN--\":16214:16216   */\n      0x20\n        /* \"--CODEGEN--\":16203:16212   */\n      dup3\n        /* \"--CODEGEN--\":16199:16217   */\n      add\n        /* \"--CODEGEN--\":16191:16217   */\n      swap1\n      pop\n        /* \"--CODEGEN--\":16264:16273   */\n      dup2\n        /* \"--CODEGEN--\":16258:16262   */\n      dup2\n        /* \"--CODEGEN--\":16254:16274   */\n      sub\n        /* \"--CODEGEN--\":16250:16251   */\n      0x00\n        /* \"--CODEGEN--\":16239:16248   */\n      dup4\n        /* \"--CODEGEN--\":16235:16252   */\n      add\n        /* \"--CODEGEN--\":16228:16275   */\n      mstore\n        /* \"--CODEGEN--\":16289:16420   */\n      tag_675\n        /* \"--CODEGEN--\":16415:16419   */\n      dup2\n        /* \"--CODEGEN--\":16289:16420   */\n      tag_630\n      jump\t// in\n    tag_675:\n        /* \"--CODEGEN--\":16281:16420   */\n      swap1\n      pop\n        /* \"--CODEGEN--\":16185:16430   */\n      swap2\n      swap1\n      pop\n      jump\t// out\n        /* \"--CODEGEN--\":16437:16853   */\n    tag_417:\n      0x00\n        /* \"--CODEGEN--\":16637:16639   */\n      0x20\n        /* \"--CODEGEN--\":16626:16635   */\n      dup3\n        /* \"--CODEGEN--\":16622:16640   */\n      add\n        /* \"--CODEGEN--\":16614:16640   */\n      swap1\n      pop\n        /* \"--CODEGEN--\":16687:16696   */\n      dup2\n        /* \"--CODEGEN--\":16681:16685   */\n      dup2\n        /* \"--CODEGEN--\":16677:16697   */\n      sub\n        /* \"--CODEGEN--\":16673:16674   */\n      0x00\n        /* \"--CODEGEN--\":16662:16671   */\n      dup4\n        /* \"--CODEGEN--\":16658:16675   */\n      add\n        /* \"--CODEGEN--\":16651:16698   */\n      mstore\n        /* \"--CODEGEN--\":16712:16843   */\n      tag_677\n        /* \"--CODEGEN--\":16838:16842   */\n      dup2\n        /* \"--CODEGEN--\":16712:16843   */\n      tag_634\n      jump\t// in\n    tag_677:\n        /* \"--CODEGEN--\":16704:16843   */\n      swap1\n      pop\n        /* \"--CODEGEN--\":16608:16853   */\n      swap2\n      swap1\n      pop\n      jump\t// out\n        /* \"--CODEGEN--\":16860:17082   */\n    tag_37:\n      0x00\n        /* \"--CODEGEN--\":16987:16989   */\n      0x20\n        /* \"--CODEGEN--\":16976:16985   */\n      dup3\n        /* \"--CODEGEN--\":16972:16990   */\n      add\n        /* \"--CODEGEN--\":16964:16990   */\n      swap1\n      pop\n        /* \"--CODEGEN--\":17001:17072   */\n      tag_679\n        /* \"--CODEGEN--\":17069:17070   */\n      0x00\n        /* \"--CODEGEN--\":17058:17067   */\n      dup4\n        /* \"--CODEGEN--\":17054:17071   */\n      add\n        /* \"--CODEGEN--\":17045:17051   */\n      dup5\n        /* \"--CODEGEN--\":17001:17072   */\n      tag_640\n      jump\t// in\n    tag_679:\n        /* \"--CODEGEN--\":16958:17082   */\n      swap3\n      swap2\n      pop\n      pop\n      jump\t// out\n        /* \"--CODEGEN--\":17089:17345   */\n    tag_480:\n      0x00\n        /* \"--CODEGEN--\":17151:17153   */\n      0x40\n        /* \"--CODEGEN--\":17145:17154   */\n      mload\n        /* \"--CODEGEN--\":17135:17154   */\n      swap1\n      pop\n        /* \"--CODEGEN--\":17189:17193   */\n      dup2\n        /* \"--CODEGEN--\":17181:17187   */\n      dup2\n        /* \"--CODEGEN--\":17177:17194   */\n      add\n        /* \"--CODEGEN--\":17288:17294   */\n      dup2\n        /* \"--CODEGEN--\":17276:17286   */\n      dup2\n        /* \"--CODEGEN--\":17273:17295   */\n      lt\n        /* \"--CODEGEN--\":17252:17270   */\n      0xffffffffffffffff\n        /* \"--CODEGEN--\":17240:17250   */\n      dup3\n        /* \"--CODEGEN--\":17237:17271   */\n      gt\n        /* \"--CODEGEN--\":17234:17296   */\n      or\n        /* \"--CODEGEN--\":17231:17233   */\n      iszero\n      tag_681\n      jumpi\n        /* \"--CODEGEN--\":17309:17310   */\n      0x00\n        /* \"--CODEGEN--\":17306:17307   */\n      dup1\n        /* \"--CODEGEN--\":17299:17311   */\n      revert\n        /* \"--CODEGEN--\":17231:17233   */\n    tag_681:\n        /* \"--CODEGEN--\":17329:17339   */\n      dup1\n        /* \"--CODEGEN--\":17325:17327   */\n      0x40\n        /* \"--CODEGEN--\":17318:17340   */\n      mstore\n        /* \"--CODEGEN--\":17129:17345   */\n      pop\n      swap2\n      swap1\n      pop\n      jump\t// out\n        /* \"--CODEGEN--\":17352:17674   */\n    tag_479:\n      0x00\n        /* \"--CODEGEN--\":17496:17514   */\n      0xffffffffffffffff\n        /* \"--CODEGEN--\":17488:17494   */\n      dup3\n        /* \"--CODEGEN--\":17485:17515   */\n      gt\n        /* \"--CODEGEN--\":17482:17484   */\n      iszero\n      tag_683\n      jumpi\n        /* \"--CODEGEN--\":17528:17529   */\n      0x00\n        /* \"--CODEGEN--\":17525:17526   */\n      dup1\n        /* \"--CODEGEN--\":17518:17530   */\n      revert\n        /* \"--CODEGEN--\":17482:17484   */\n    tag_683:\n        /* \"--CODEGEN--\":17595:17599   */\n      0x1f\n        /* \"--CODEGEN--\":17591:17600   */\n      not\n        /* \"--CODEGEN--\":17584:17588   */\n      0x1f\n        /* \"--CODEGEN--\":17576:17582   */\n      dup4\n        /* \"--CODEGEN--\":17572:17589   */\n      add\n        /* \"--CODEGEN--\":17568:17601   */\n      and\n        /* \"--CODEGEN--\":17560:17601   */\n      swap1\n      pop\n        /* \"--CODEGEN--\":17659:17663   */\n      0x20\n        /* \"--CODEGEN--\":17653:17657   */\n      dup2\n        /* \"--CODEGEN--\":17649:17664   */\n      add\n        /* \"--CODEGEN--\":17641:17664   */\n      swap1\n      pop\n        /* \"--CODEGEN--\":17419:17674   */\n      swap2\n      swap1\n      pop\n      jump\t// out\n        /* \"--CODEGEN--\":17681:17832   */\n    tag_560:\n      0x00\n        /* \"--CODEGEN--\":17767:17770   */\n      dup2\n        /* \"--CODEGEN--\":17759:17770   */\n      swap1\n      pop\n        /* \"--CODEGEN--\":17805:17809   */\n      0x20\n        /* \"--CODEGEN--\":17800:17803   */\n      dup3\n        /* \"--CODEGEN--\":17796:17810   */\n      add\n        /* \"--CODEGEN--\":17788:17810   */\n      swap1\n      pop\n        /* \"--CODEGEN--\":17753:17832   */\n      swap2\n      swap1\n      pop\n      jump\t// out\n        /* \"--CODEGEN--\":17839:18000   */\n    tag_574:\n      0x00\n        /* \"--CODEGEN--\":17935:17938   */\n      dup2\n        /* \"--CODEGEN--\":17927:17938   */\n      swap1\n      pop\n        /* \"--CODEGEN--\":17973:17977   */\n      0x20\n        /* \"--CODEGEN--\":17968:17971   */\n      dup3\n        /* \"--CODEGEN--\":17964:17978   */\n      add\n        /* \"--CODEGEN--\":17956:17978   */\n      swap1\n      pop\n        /* \"--CODEGEN--\":17921:18000   */\n      swap2\n      swap1\n      pop\n      jump\t// out\n        /* \"--CODEGEN--\":18007:18158   */\n    tag_588:\n      0x00\n        /* \"--CODEGEN--\":18093:18096   */\n      dup2\n        /* \"--CODEGEN--\":18085:18096   */\n      swap1\n      pop\n        /* \"--CODEGEN--\":18131:18135   */\n      0x20\n        /* \"--CODEGEN--\":18126:18129   */\n      dup3\n        /* \"--CODEGEN--\":18122:18136   */\n      add\n        /* \"--CODEGEN--\":18114:18136   */\n      swap1\n      pop\n        /* \"--CODEGEN--\":18079:18158   */\n      swap2\n      swap1\n      pop\n      jump\t// out\n        /* \"--CODEGEN--\":18165:18323   */\n    tag_626:\n      0x00\n        /* \"--CODEGEN--\":18233:18236   */\n      dup2\n        /* \"--CODEGEN--\":18225:18236   */\n      swap1\n      pop\n        /* \"--CODEGEN--\":18270:18273   */\n      dup2\n        /* \"--CODEGEN--\":18267:18268   */\n      0x00\n        /* \"--CODEGEN--\":18260:18274   */\n      mstore\n        /* \"--CODEGEN--\":18302:18306   */\n      0x20\n        /* \"--CODEGEN--\":18299:18300   */\n      0x00\n        /* \"--CODEGEN--\":18289:18307   */\n      keccak256\n        /* \"--CODEGEN--\":18281:18307   */\n      swap1\n      pop\n        /* \"--CODEGEN--\":18219:18323   */\n      swap2\n      swap1\n      pop\n      jump\t// out\n        /* \"--CODEGEN--\":18330:18467   */\n    tag_556:\n      0x00\n        /* \"--CODEGEN--\":18439:18444   */\n      dup2\n        /* \"--CODEGEN--\":18433:18445   */\n      mload\n        /* \"--CODEGEN--\":18423:18445   */\n      swap1\n      pop\n        /* \"--CODEGEN--\":18404:18467   */\n      swap2\n      swap1\n      pop\n      jump\t// out\n        /* \"--CODEGEN--\":18474:18621   */\n    tag_570:\n      0x00\n        /* \"--CODEGEN--\":18593:18598   */\n      dup2\n        /* \"--CODEGEN--\":18587:18599   */\n      mload\n        /* \"--CODEGEN--\":18577:18599   */\n      swap1\n      pop\n        /* \"--CODEGEN--\":18558:18621   */\n      swap2\n      swap1\n      pop\n      jump\t// out\n        /* \"--CODEGEN--\":18628:18765   */\n    tag_584:\n      0x00\n        /* \"--CODEGEN--\":18737:18742   */\n      dup2\n        /* \"--CODEGEN--\":18731:18743   */\n      mload\n        /* \"--CODEGEN--\":18721:18743   */\n      swap1\n      pop\n        /* \"--CODEGEN--\":18702:18765   */\n      swap2\n      swap1\n      pop\n      jump\t// out\n        /* \"--CODEGEN--\":18772:18894   */\n    tag_605:\n      0x00\n        /* \"--CODEGEN--\":18866:18871   */\n      dup2\n        /* \"--CODEGEN--\":18860:18872   */\n      mload\n        /* \"--CODEGEN--\":18850:18872   */\n      swap1\n      pop\n        /* \"--CODEGEN--\":18831:18894   */\n      swap2\n      swap1\n      pop\n      jump\t// out\n        /* \"--CODEGEN--\":18901:19009   */\n    tag_566:\n      0x00\n        /* \"--CODEGEN--\":18999:19003   */\n      0x20\n        /* \"--CODEGEN--\":18994:18997   */\n      dup3\n        /* \"--CODEGEN--\":18990:19004   */\n      add\n        /* \"--CODEGEN--\":18982:19004   */\n      swap1\n      pop\n        /* \"--CODEGEN--\":18976:19009   */\n      swap2\n      swap1\n      pop\n      jump\t// out\n        /* \"--CODEGEN--\":19016:19134   */\n    tag_580:\n      0x00\n        /* \"--CODEGEN--\":19124:19128   */\n      0x20\n        /* \"--CODEGEN--\":19119:19122   */\n      dup3\n        /* \"--CODEGEN--\":19115:19129   */\n      add\n        /* \"--CODEGEN--\":19107:19129   */\n      swap1\n      pop\n        /* \"--CODEGEN--\":19101:19134   */\n      swap2\n      swap1\n      pop\n      jump\t// out\n        /* \"--CODEGEN--\":19141:19249   */\n    tag_594:\n      0x00\n        /* \"--CODEGEN--\":19239:19243   */\n      0x20\n        /* \"--CODEGEN--\":19234:19237   */\n      dup3\n        /* \"--CODEGEN--\":19230:19244   */\n      add\n        /* \"--CODEGEN--\":19222:19244   */\n      swap1\n      pop\n        /* \"--CODEGEN--\":19216:19249   */\n      swap2\n      swap1\n      pop\n      jump\t// out\n        /* \"--CODEGEN--\":19257:19435   */\n    tag_558:\n      0x00\n        /* \"--CODEGEN--\":19387:19393   */\n      dup3\n        /* \"--CODEGEN--\":19382:19385   */\n      dup3\n        /* \"--CODEGEN--\":19375:19394   */\n      mstore\n        /* \"--CODEGEN--\":19424:19428   */\n      0x20\n        /* \"--CODEGEN--\":19419:19422   */\n      dup3\n        /* \"--CODEGEN--\":19415:19429   */\n      add\n        /* \"--CODEGEN--\":19400:19429   */\n      swap1\n      pop\n        /* \"--CODEGEN--\":19368:19435   */\n      swap3\n      swap2\n      pop\n      pop\n      jump\t// out\n        /* \"--CODEGEN--\":19444:19632   */\n    tag_572:\n      0x00\n        /* \"--CODEGEN--\":19584:19590   */\n      dup3\n        /* \"--CODEGEN--\":19579:19582   */\n      dup3\n        /* \"--CODEGEN--\":19572:19591   */\n      mstore\n        /* \"--CODEGEN--\":19621:19625   */\n      0x20\n        /* \"--CODEGEN--\":19616:19619   */\n      dup3\n        /* \"--CODEGEN--\":19612:19626   */\n      add\n        /* \"--CODEGEN--\":19597:19626   */\n      swap1\n      pop\n        /* \"--CODEGEN--\":19565:19632   */\n      swap3\n      swap2\n      pop\n      pop\n      jump\t// out\n        /* \"--CODEGEN--\":19641:19819   */\n    tag_586:\n      0x00\n        /* \"--CODEGEN--\":19771:19777   */\n      dup3\n        /* \"--CODEGEN--\":19766:19769   */\n      dup3\n        /* \"--CODEGEN--\":19759:19778   */\n      mstore\n        /* \"--CODEGEN--\":19808:19812   */\n      0x20\n        /* \"--CODEGEN--\":19803:19806   */\n      dup3\n        /* \"--CODEGEN--\":19799:19813   */\n      add\n        /* \"--CODEGEN--\":19784:19813   */\n      swap1\n      pop\n        /* \"--CODEGEN--\":19752:19819   */\n      swap3\n      swap2\n      pop\n      pop\n      jump\t// out\n        /* \"--CODEGEN--\":19828:19981   */\n    tag_607:\n      0x00\n        /* \"--CODEGEN--\":19933:19939   */\n      dup3\n        /* \"--CODEGEN--\":19928:19931   */\n      dup3\n        /* \"--CODEGEN--\":19921:19940   */\n      mstore\n        /* \"--CODEGEN--\":19970:19974   */\n      0x20\n        /* \"--CODEGEN--\":19965:19968   */\n      dup3\n        /* \"--CODEGEN--\":19961:19975   */\n      add\n        /* \"--CODEGEN--\":19946:19975   */\n      swap1\n      pop\n        /* \"--CODEGEN--\":19914:19981   */\n      swap3\n      swap2\n      pop\n      pop\n      jump\t// out\n        /* \"--CODEGEN--\":19990:20153   */\n    tag_633:\n      0x00\n        /* \"--CODEGEN--\":20105:20111   */\n      dup3\n        /* \"--CODEGEN--\":20100:20103   */\n      dup3\n        /* \"--CODEGEN--\":20093:20112   */\n      mstore\n        /* \"--CODEGEN--\":20142:20146   */\n      0x20\n        /* \"--CODEGEN--\":20137:20140   */\n      dup3\n        /* \"--CODEGEN--\":20133:20147   */\n      add\n        /* \"--CODEGEN--\":20118:20147   */\n      swap1\n      pop\n        /* \"--CODEGEN--\":20086:20153   */\n      swap3\n      swap2\n      pop\n      pop\n      jump\t// out\n        /* \"--CODEGEN--\":20162:20307   */\n    tag_616:\n      0x00\n        /* \"--CODEGEN--\":20298:20301   */\n      dup2\n        /* \"--CODEGEN--\":20283:20301   */\n      swap1\n      pop\n        /* \"--CODEGEN--\":20276:20307   */\n      swap3\n      swap2\n      pop\n      pop\n      jump\t// out\n        /* \"--CODEGEN--\":20315:20406   */\n    tag_552:\n      0x00\n        /* \"--CODEGEN--\":20377:20401   */\n      tag_702\n        /* \"--CODEGEN--\":20395:20400   */\n      dup3\n        /* \"--CODEGEN--\":20377:20401   */\n      tag_703\n      jump\t// in\n    tag_702:\n        /* \"--CODEGEN--\":20366:20401   */\n      swap1\n      pop\n        /* \"--CODEGEN--\":20360:20406   */\n      swap2\n      swap1\n      pop\n      jump\t// out\n        /* \"--CODEGEN--\":20413:20512   */\n    tag_544:\n      0x00\n        /* \"--CODEGEN--\":20483:20507   */\n      tag_705\n        /* \"--CODEGEN--\":20501:20506   */\n      dup3\n        /* \"--CODEGEN--\":20483:20507   */\n      tag_703\n      jump\t// in\n    tag_705:\n        /* \"--CODEGEN--\":20472:20507   */\n      swap1\n      pop\n        /* \"--CODEGEN--\":20466:20512   */\n      swap2\n      swap1\n      pop\n      jump\t// out\n        /* \"--CODEGEN--\":20519:20604   */\n    tag_598:\n      0x00\n        /* \"--CODEGEN--\":20592:20597   */\n      dup2\n        /* \"--CODEGEN--\":20585:20598   */\n      iszero\n        /* \"--CODEGEN--\":20578:20599   */\n      iszero\n        /* \"--CODEGEN--\":20567:20599   */\n      swap1\n      pop\n        /* \"--CODEGEN--\":20561:20604   */\n      swap2\n      swap1\n      pop\n      jump\t// out\n        /* \"--CODEGEN--\":20611:20683   */\n    tag_602:\n      0x00\n        /* \"--CODEGEN--\":20673:20678   */\n      dup2\n        /* \"--CODEGEN--\":20662:20678   */\n      swap1\n      pop\n        /* \"--CODEGEN--\":20656:20683   */\n      swap2\n      swap1\n      pop\n      jump\t// out\n        /* \"--CODEGEN--\":20690:20811   */\n    tag_703:\n      0x00\n        /* \"--CODEGEN--\":20763:20805   */\n      0xffffffffffffffffffffffffffffffffffffffff\n        /* \"--CODEGEN--\":20756:20761   */\n      dup3\n        /* \"--CODEGEN--\":20752:20806   */\n      and\n        /* \"--CODEGEN--\":20741:20806   */\n      swap1\n      pop\n        /* \"--CODEGEN--\":20735:20811   */\n      swap2\n      swap1\n      pop\n      jump\t// out\n        /* \"--CODEGEN--\":20818:20890   */\n    tag_639:\n      0x00\n        /* \"--CODEGEN--\":20880:20885   */\n      dup2\n        /* \"--CODEGEN--\":20869:20885   */\n      swap1\n      pop\n        /* \"--CODEGEN--\":20863:20890   */\n      swap2\n      swap1\n      pop\n      jump\t// out\n        /* \"--CODEGEN--\":20898:21043   */\n    tag_483:\n        /* \"--CODEGEN--\":20979:20985   */\n      dup3\n        /* \"--CODEGEN--\":20974:20977   */\n      dup2\n        /* \"--CODEGEN--\":20969:20972   */\n      dup4\n        /* \"--CODEGEN--\":20956:20986   */\n      calldatacopy\n        /* \"--CODEGEN--\":21035:21036   */\n      0x00\n        /* \"--CODEGEN--\":21026:21032   */\n      dup4\n        /* \"--CODEGEN--\":21021:21024   */\n      dup4\n        /* \"--CODEGEN--\":21017:21033   */\n      add\n        /* \"--CODEGEN--\":21010:21037   */\n      mstore\n        /* \"--CODEGEN--\":20949:21043   */\n      pop\n      pop\n      pop\n      jump\t// out\n        /* \"--CODEGEN--\":21052:21320   */\n    tag_609:\n        /* \"--CODEGEN--\":21117:21118   */\n      0x00\n        /* \"--CODEGEN--\":21124:21225   */\n    tag_712:\n        /* \"--CODEGEN--\":21138:21144   */\n      dup4\n        /* \"--CODEGEN--\":21135:21136   */\n      dup2\n        /* \"--CODEGEN--\":21132:21145   */\n      lt\n        /* \"--CODEGEN--\":21124:21225   */\n      iszero\n      tag_714\n      jumpi\n        /* \"--CODEGEN--\":21214:21215   */\n      dup1\n        /* \"--CODEGEN--\":21209:21212   */\n      dup3\n        /* \"--CODEGEN--\":21205:21216   */\n      add\n        /* \"--CODEGEN--\":21199:21217   */\n      mload\n        /* \"--CODEGEN--\":21195:21196   */\n      dup2\n        /* \"--CODEGEN--\":21190:21193   */\n      dup5\n        /* \"--CODEGEN--\":21186:21197   */\n      add\n        /* \"--CODEGEN--\":21179:21218   */\n      mstore\n        /* \"--CODEGEN--\":21160:21162   */\n      0x20\n        /* \"--CODEGEN--\":21157:21158   */\n      dup2\n        /* \"--CODEGEN--\":21153:21163   */\n      add\n        /* \"--CODEGEN--\":21148:21163   */\n      swap1\n      pop\n        /* \"--CODEGEN--\":21124:21225   */\n      jump(tag_712)\n    tag_714:\n        /* \"--CODEGEN--\":21240:21246   */\n      dup4\n        /* \"--CODEGEN--\":21237:21238   */\n      dup2\n        /* \"--CODEGEN--\":21234:21247   */\n      gt\n        /* \"--CODEGEN--\":21231:21233   */\n      iszero\n      tag_715\n      jumpi\n        /* \"--CODEGEN--\":21305:21306   */\n      0x00\n        /* \"--CODEGEN--\":21296:21302   */\n      dup5\n        /* \"--CODEGEN--\":21291:21294   */\n      dup5\n        /* \"--CODEGEN--\":21287:21303   */\n      add\n        /* \"--CODEGEN--\":21280:21307   */\n      mstore\n        /* \"--CODEGEN--\":21231:21233   */\n    tag_715:\n        /* \"--CODEGEN--\":21101:21320   */\n      pop\n      pop\n      pop\n      pop\n      jump\t// out\n        /* \"--CODEGEN--\":21328:21431   */\n    tag_549:\n      0x00\n        /* \"--CODEGEN--\":21400:21426   */\n      tag_717\n        /* \"--CODEGEN--\":21420:21425   */\n      dup3\n        /* \"--CODEGEN--\":21400:21426   */\n      tag_718\n      jump\t// in\n    tag_717:\n        /* \"--CODEGEN--\":21389:21426   */\n      swap1\n      pop\n        /* \"--CODEGEN--\":21383:21431   */\n      swap2\n      swap1\n      pop\n      jump\t// out\n        /* \"--CODEGEN--\":21438:21527   */\n    tag_718:\n      0x00\n        /* \"--CODEGEN--\":21502:21522   */\n      tag_720\n        /* \"--CODEGEN--\":21516:21521   */\n      dup3\n        /* \"--CODEGEN--\":21502:21522   */\n      tag_721\n      jump\t// in\n    tag_720:\n        /* \"--CODEGEN--\":21491:21522   */\n      swap1\n      pop\n        /* \"--CODEGEN--\":21485:21527   */\n      swap2\n      swap1\n      pop\n      jump\t// out\n        /* \"--CODEGEN--\":21534:21608   */\n    tag_647:\n      0x00\n        /* \"--CODEGEN--\":21598:21603   */\n      dup2\n        /* \"--CODEGEN--\":21587:21603   */\n      swap1\n      pop\n        /* \"--CODEGEN--\":21581:21608   */\n      swap2\n      swap1\n      pop\n      jump\t// out\n        /* \"--CODEGEN--\":21615:21712   */\n    tag_611:\n      0x00\n        /* \"--CODEGEN--\":21703:21705   */\n      0x1f\n        /* \"--CODEGEN--\":21699:21706   */\n      not\n        /* \"--CODEGEN--\":21694:21696   */\n      0x1f\n        /* \"--CODEGEN--\":21687:21692   */\n      dup4\n        /* \"--CODEGEN--\":21683:21697   */\n      add\n        /* \"--CODEGEN--\":21679:21707   */\n      and\n        /* \"--CODEGEN--\":21669:21707   */\n      swap1\n      pop\n        /* \"--CODEGEN--\":21663:21712   */\n      swap2\n      swap1\n      pop\n      jump\t// out\n        /* \"--CODEGEN--\":21720:21814   */\n    tag_721:\n      0x00\n        /* \"--CODEGEN--\":21798:21803   */\n      dup2\n        /* \"--CODEGEN--\":21794:21796   */\n      0x60\n        /* \"--CODEGEN--\":21790:21804   */\n      shl\n        /* \"--CODEGEN--\":21768:21804   */\n      swap1\n      pop\n        /* \"--CODEGEN--\":21762:21814   */\n      swap2\n      swap1\n      pop\n      jump\t// out\n        /* \"--CODEGEN--\":21822:21939   */\n    tag_465:\n        /* \"--CODEGEN--\":21891:21915   */\n      tag_726\n        /* \"--CODEGEN--\":21909:21914   */\n      dup2\n        /* \"--CODEGEN--\":21891:21915   */\n      tag_552\n      jump\t// in\n    tag_726:\n        /* \"--CODEGEN--\":21884:21889   */\n      dup2\n        /* \"--CODEGEN--\":21881:21916   */\n      eq\n        /* \"--CODEGEN--\":21871:21873   */\n      tag_727\n      jumpi\n        /* \"--CODEGEN--\":21930:21931   */\n      0x00\n        /* \"--CODEGEN--\":21927:21928   */\n      dup1\n        /* \"--CODEGEN--\":21920:21932   */\n      revert\n        /* \"--CODEGEN--\":21871:21873   */\n    tag_727:\n        /* \"--CODEGEN--\":21865:21939   */\n      pop\n      jump\t// out\n        /* \"--CODEGEN--\":21946:22079   */\n    tag_469:\n        /* \"--CODEGEN--\":22023:22055   */\n      tag_729\n        /* \"--CODEGEN--\":22049:22054   */\n      dup2\n        /* \"--CODEGEN--\":22023:22055   */\n      tag_544\n      jump\t// in\n    tag_729:\n        /* \"--CODEGEN--\":22016:22021   */\n      dup2\n        /* \"--CODEGEN--\":22013:22056   */\n      eq\n        /* \"--CODEGEN--\":22003:22005   */\n      tag_730\n      jumpi\n        /* \"--CODEGEN--\":22070:22071   */\n      0x00\n        /* \"--CODEGEN--\":22067:22068   */\n      dup1\n        /* \"--CODEGEN--\":22060:22072   */\n      revert\n        /* \"--CODEGEN--\":22003:22005   */\n    tag_730:\n        /* \"--CODEGEN--\":21997:22079   */\n      pop\n      jump\t// out\n        /* \"--CODEGEN--\":22086:22203   */\n    tag_473:\n        /* \"--CODEGEN--\":22155:22179   */\n      tag_732\n        /* \"--CODEGEN--\":22173:22178   */\n      dup2\n        /* \"--CODEGEN--\":22155:22179   */\n      tag_602\n      jump\t// in\n    tag_732:\n        /* \"--CODEGEN--\":22148:22153   */\n      dup2\n        /* \"--CODEGEN--\":22145:22180   */\n      eq\n        /* \"--CODEGEN--\":22135:22137   */\n      tag_733\n      jumpi\n        /* \"--CODEGEN--\":22194:22195   */\n      0x00\n        /* \"--CODEGEN--\":22191:22192   */\n      dup1\n        /* \"--CODEGEN--\":22184:22196   */\n      revert\n        /* \"--CODEGEN--\":22135:22137   */\n    tag_733:\n        /* \"--CODEGEN--\":22129:22203   */\n      pop\n      jump\t// out\n        /* \"--CODEGEN--\":22210:22327   */\n    tag_487:\n        /* \"--CODEGEN--\":22279:22303   */\n      tag_735\n        /* \"--CODEGEN--\":22297:22302   */\n      dup2\n        /* \"--CODEGEN--\":22279:22303   */\n      tag_639\n      jump\t// in\n    tag_735:\n        /* \"--CODEGEN--\":22272:22277   */\n      dup2\n        /* \"--CODEGEN--\":22269:22304   */\n      eq\n        /* \"--CODEGEN--\":22259:22261   */\n      tag_736\n      jumpi\n        /* \"--CODEGEN--\":22318:22319   */\n      0x00\n        /* \"--CODEGEN--\":22315:22316   */\n      dup1\n        /* \"--CODEGEN--\":22308:22320   */\n      revert\n        /* \"--CODEGEN--\":22259:22261   */\n    tag_736:\n        /* \"--CODEGEN--\":22253:22327   */\n      pop\n      jump\t// out\n\n    auxdata: 0xa26469706673582212207e5bf7d4cf9d4601024537d72827500b45b88e6f4b3a694e52f8fe138072b29164736f6c634300060c0033\n}\n",
    "bytecode": {
      "linkReferences": {},
      "object": "608060405234801561001057600080fd5b50336000806101000a81548173ffffffffffffffffffffffffffffffffffffffff021916908373ffffffffffffffffffffffffffffffffffffffff16021790555060006006819055506000600781905550600060088190555060006009819055506138a1806100806000396000f3fe608060405234801561001057600080fd5b50600436106101165760003560e01c80637909ce47116100a2578063a9cb1a3611610071578063a9cb1a36146102d2578063d1314ee0146102ee578063e58da61f1461030c578063e8e5339a1461033c578063fa6a04e41461035857610116565b80637909ce4714610249578063836cae6514610279578063909e4ab61461029557806398173ff4146102b657610116565b8063416a5d81116100e9578063416a5d81146101a157806342bb20e1146101bf578063481c6a75146101db5780636db80995146101f9578063716588961461021957610116565b80630344248b1461011b5780631ee32b051461014b57806330a66294146101675780633276807a14610185575b600080fd5b61013560048036038101906101309190612dac565b610362565b6040516101429190613556565b60405180910390f35b61016560048036038101906101609190612dd5565b610404565b005b61016f610793565b60405161017c91906135b1565b60405180910390f35b61019f600480360381019061019a9190612f8d565b6107f6565b005b6101a96109ea565b6040516101b691906135b1565b60405180910390f35b6101d960048036038101906101d49190612f8d565b610a4d565b005b6101e3610d13565b6040516101f0919061342f565b60405180910390f35b610201610d37565b6040516102109392919061348e565b60405180910390f35b610233600480360381019061022e9190612f64565b611000565b604051610240919061346c565b60405180910390f35b610263600480360381019061025e9190612dfe565b6111f5565b604051610270919061353b565b60405180910390f35b610293600480360381019061028e9190612dd5565b6113af565b005b61029d61159f565b6040516102ad94939291906134da565b60405180910390f35b6102d060048036038101906102cb9190612ef8565b61197f565b005b6102ec60048036038101906102e79190612f64565b611b7e565b005b6102f6611db3565b604051610303919061344a565b60405180910390f35b61032660048036038101906103219190612e65565b611f04565b604051610333919061353b565b60405180910390f35b61035660048036038101906103519190612fe1565b6120e5565b005b6103606122be565b005b60008060009054906101000a900473ffffffffffffffffffffffffffffffffffffffff1673ffffffffffffffffffffffffffffffffffffffff163373ffffffffffffffffffffffffffffffffffffffff16146103bd57600080fd5b600560008373ffffffffffffffffffffffffffffffffffffffff1673ffffffffffffffffffffffffffffffffffffffff168152602001908152602001600020549050919050565b60008054906101000a900473ffffffffffffffffffffffffffffffffffffffff1673ffffffffffffffffffffffffffffffffffffffff163373ffffffffffffffffffffffffffffffffffffffff161461045c57600080fd5b60005b60028054905081101561078f576002818154811061047957fe5b906000526020600020906002020160000160009054906101000a900473ffffffffffffffffffffffffffffffffffffffff1673ffffffffffffffffffffffffffffffffffffffff168273ffffffffffffffffffffffffffffffffffffffff161415610782576000600460008473ffffffffffffffffffffffffffffffffffffffff1673ffffffffffffffffffffffffffffffffffffffff16815260200190815260200160002060006101000a81548160ff0219169083151502179055506000801b600560008473ffffffffffffffffffffffffffffffffffffffff1673ffffffffffffffffffffffffffffffffffffffff168152602001908152602001600020819055507f504e9e94e0c65229aaf8cabe153380cc35da3135e30129bc3195f7e031cdf82b600560003373ffffffffffffffffffffffffffffffffffffffff1673ffffffffffffffffffffffffffffffffffffffff168152602001908152602001600020546040516105eb9190613556565b60405180910390a160026001600280549050038154811061060857fe5b90600052602060002090600202016002828154811061062357fe5b90600052602060002090600202016000820160009054906101000a900473ffffffffffffffffffffffffffffffffffffffff168160000160006101000a81548173ffffffffffffffffffffffffffffffffffffffff021916908373ffffffffffffffffffffffffffffffffffffffff1602179055506001820154816001015590505060028054806106b057fe5b6001900381819060005260206000209060020201600080820160006101000a81549073ffffffffffffffffffffffffffffffffffffffff021916905560018201600090555050905560076000815480929190600190039190505550610781426040518060400160405280600c81526020017f64656c65746542726f6b657200000000000000000000000000000000000000008152506040518060400160405280601981526020017f612062726f6b657220686173206265656e2064656c657465640000000000000081525033612853565b5b808060010191505061045f565b5050565b60008060009054906101000a900473ffffffffffffffffffffffffffffffffffffffff1673ffffffffffffffffffffffffffffffffffffffff163373ffffffffffffffffffffffffffffffffffffffff16146107ee57600080fd5b600654905090565b60008054906101000a900473ffffffffffffffffffffffffffffffffffffffff1673ffffffffffffffffffffffffffffffffffffffff163373ffffffffffffffffffffffffffffffffffffffff161461084e57600080fd5b6000805b6001805490508110156109e45760006001828154811061086e57fe5b9060005260206000209060040201905080600001548514156109d65760005b816003018054905081101561091a578160030181815481106108ab57fe5b906000526020600020016040516020016108c59190613418565b60405160208183030381529060405280519060200120856040516020016108ec9190613401565b60405160208183030381529060405280519060200120141561090d57600193505b808060010191505061088d565b50826109d557806003018490806001815401808255809150506001900390600052602060002001600090919091909150908051906020019061095d929190612966565b506109d4426040518060400160405280600881526020017f616464546f7069630000000000000000000000000000000000000000000000008152506040518060400160405280600d81526020017f616464206e657720546f7069630000000000000000000000000000000000000081525033612853565b5b5b508080600101915050610852565b50505050565b60008060009054906101000a900473ffffffffffffffffffffffffffffffffffffffff1673ffffffffffffffffffffffffffffffffffffffff163373ffffffffffffffffffffffffffffffffffffffff1614610a4557600080fd5b600754905090565b60008054906101000a900473ffffffffffffffffffffffffffffffffffffffff1673ffffffffffffffffffffffffffffffffffffffff163373ffffffffffffffffffffffffffffffffffffffff1614610aa557600080fd5b60005b600180549050811015610d0e5760018181548110610ac257fe5b906000526020600020906004020160000154831415610d015760005b60018281548110610aeb57fe5b906000526020600020906004020160030180549050811015610cff5760018281548110610b1457fe5b90600052602060002090600402016003018181548110610b3057fe5b90600052602060002001604051602001610b4a9190613418565b6040516020818303038152906040528051906020012083604051602001610b719190613401565b604051602081830303815290604052805190602001201415610cf25760018281548110610b9a57fe5b90600052602060002090600402016003016001808481548110610bb957fe5b9060005260206000209060040201600301805490500381548110610bd957fe5b9060005260206000200160018381548110610bf057fe5b90600052602060002090600402016003018281548110610c0c57fe5b906000526020600020019080546001816001161561010002031660029004610c359291906129e6565b5060018281548110610c4357fe5b9060005260206000209060040201600301805480610c5d57fe5b600190038181906000526020600020016000610c799190612a6d565b9055610cf1426040518060400160405280600b81526020017f64656c657465546f7069630000000000000000000000000000000000000000008152506040518060400160405280601881526020017f6120746f70696320686173206265656e2064656c65746564000000000000000081525033612853565b5b8080600101915050610ade565b505b8080600101915050610aa8565b505050565b60008054906101000a900473ffffffffffffffffffffffffffffffffffffffff1681565b60608060608060065467ffffffffffffffff81118015610d5657600080fd5b50604051908082528060200260200182016040528015610d855781602001602082028036833780820191505090505b509050606060065467ffffffffffffffff81118015610da357600080fd5b50604051908082528060200260200182016040528015610dd757816020015b6060815260200190600190039081610dc25790505b509050606060065467ffffffffffffffff81118015610df557600080fd5b50604051908082528060200260200182016040528015610e2957816020015b6060815260200190600190039081610e145790505b50905060005b600180549050811015610fee57600060018281548110610e4b57fe5b906000526020600020906004020190508060000154858381518110610e6c57fe5b602002602001018181525050806001018054600181600116156101000203166002900480601f016020809104026020016040519081016040528092919081815260200182805460018160011615610100020316600290048015610f105780601f10610ee557610100808354040283529160200191610f10565b820191906000526020600020905b815481529060010190602001808311610ef357829003601f168201915b5050505050848381518110610f2157fe5b6020026020010181905250806002018054600181600116156101000203166002900480601f016020809104026020016040519081016040528092919081815260200182805460018160011615610100020316600290048015610fc45780601f10610f9957610100808354040283529160200191610fc4565b820191906000526020600020905b815481529060010190602001808311610fa757829003601f168201915b5050505050838381518110610fd557fe5b6020026020010181905250508080600101915050610e2f565b50828282955095509550505050909192565b606060008054906101000a900473ffffffffffffffffffffffffffffffffffffffff1673ffffffffffffffffffffffffffffffffffffffff163373ffffffffffffffffffffffffffffffffffffffff161461105a57600080fd5b60005b6001805490508110156111ee5760006001828154811061107957fe5b9060005260206000209060040201905080600001548414156111e0576060816003018054905067ffffffffffffffff811180156110b557600080fd5b506040519080825280602002602001820160405280156110e957816020015b60608152602001906001900390816110d45790505b50905060005b82600301805490508110156111d45782600301818154811061110d57fe5b906000526020600020018054600181600116156101000203166002900480601f0160208091040260200160405190810160405280929190818152602001828054600181600116156101000203166002900480156111ab5780601f10611180576101008083540402835291602001916111ab565b820191906000526020600020905b81548152906001019060200180831161118e57829003601f168201915b50505050508282815181106111bc57fe5b602002602001018190525080806001019150506110ef565b508093505050506111f0565b50808060010191505061105d565b505b919050565b6000836000801b600560003373ffffffffffffffffffffffffffffffffffffffff1673ffffffffffffffffffffffffffffffffffffffff16815260200190815260200160002054141561124757600080fd5b600560003373ffffffffffffffffffffffffffffffffffffffff1673ffffffffffffffffffffffffffffffffffffffff16815260200190815260200160002054811461129257600080fd5b60005b6001805490508110156113a157600181815481106112af57fe5b9060005260206000209060040201600001548514156113945760005b600182815481106112d857fe5b906000526020600020906004020160030180549050811015611392576001828154811061130157fe5b9060005260206000209060040201600301818154811061131d57fe5b906000526020600020016040516020016113379190613418565b604051602081830303815290604052805190602001208560405160200161135e9190613401565b604051602081830303815290604052805190602001201415611385576001935050506113a7565b80806001019150506112cb565b505b8080600101915050611295565b50600091505b509392505050565b60008054906101000a900473ffffffffffffffffffffffffffffffffffffffff1673ffffffffffffffffffffffffffffffffffffffff163373ffffffffffffffffffffffffffffffffffffffff161461140757600080fd5b61140f612ab5565b60405180604001604052808373ffffffffffffffffffffffffffffffffffffffff168152602001428152509050600281908060018154018082558091505060019003906000526020600020906002020160009091909190915060008201518160000160006101000a81548173ffffffffffffffffffffffffffffffffffffffff021916908373ffffffffffffffffffffffffffffffffffffffff1602179055506020820151816001015550506001600460008473ffffffffffffffffffffffffffffffffffffffff1673ffffffffffffffffffffffffffffffffffffffff16815260200190815260200160002060006101000a81548160ff02191690831515021790555060076000815480929190600101919050555061159b426040518060400160405280600981526020017f61646442726f6b657200000000000000000000000000000000000000000000008152506040518060400160405280600181526020017f2d0000000000000000000000000000000000000000000000000000000000000081525033612853565b5050565b60608060608060008054906101000a900473ffffffffffffffffffffffffffffffffffffffff1673ffffffffffffffffffffffffffffffffffffffff163373ffffffffffffffffffffffffffffffffffffffff16146115fd57600080fd5b606060095467ffffffffffffffff8111801561161857600080fd5b506040519080825280602002602001820160405280156116475781602001602082028036833780820191505090505b509050606060095467ffffffffffffffff8111801561166557600080fd5b5060405190808252806020026020018201604052801561169957816020015b60608152602001906001900390816116845790505b509050606060095467ffffffffffffffff811180156116b757600080fd5b506040519080825280602002602001820160405280156116eb57816020015b60608152602001906001900390816116d65790505b509050606060095467ffffffffffffffff8111801561170957600080fd5b506040519080825280602002602001820160405280156117385781602001602082028036833780820191505090505b50905060005b6003805490508110156119685760006003828154811061175a57fe5b90600052602060002090600402019050806000015486838151811061177b57fe5b602002602001018181525050806001018054600181600116156101000203166002900480601f01602080910402602001604051908101604052809291908181526020018280546001816001161561010002031660029004801561181f5780601f106117f45761010080835404028352916020019161181f565b820191906000526020600020905b81548152906001019060200180831161180257829003601f168201915b505050505085838151811061183057fe5b6020026020010181905250806002018054600181600116156101000203166002900480601f0160208091040260200160405190810160405280929190818152602001828054600181600116156101000203166002900480156118d35780601f106118a8576101008083540402835291602001916118d3565b820191906000526020600020905b8154815290600101906020018083116118b657829003601f168201915b50505050508483815181106118e457fe5b60200260200101819052508060030160009054906101000a900473ffffffffffffffffffffffffffffffffffffffff1683838151811061192057fe5b602002602001019073ffffffffffffffffffffffffffffffffffffffff16908173ffffffffffffffffffffffffffffffffffffffff168152505050808060010191505061173e565b508383838397509750975097505050505090919293565b60008054906101000a900473ffffffffffffffffffffffffffffffffffffffff1673ffffffffffffffffffffffffffffffffffffffff163373ffffffffffffffffffffffffffffffffffffffff16146119d757600080fd5b6119df612ae5565b60405180608001604052806008548152602001848152602001838152602001600067ffffffffffffffff81118015611a1657600080fd5b50604051908082528060200260200182016040528015611a4a57816020015b6060815260200190600190039081611a355790505b5081525090506006600081548092919060010191905055506008600081548092919060010191905055506001819080600181540180825580915050600190039060005260206000209060040201600090919091909150600082015181600001556020820151816001019080519060200190611ac6929190612966565b506040820151816002019080519060200190611ae3929190612966565b506060820151816003019080519060200190611b00929190612b0d565b505050611b79426040518060400160405280600981526020017f616464436c69656e7400000000000000000000000000000000000000000000008152506040518060400160405280601281526020017f61206e657720636c69656e74206164646564000000000000000000000000000081525033612853565b505050565b60008054906101000a900473ffffffffffffffffffffffffffffffffffffffff1673ffffffffffffffffffffffffffffffffffffffff163373ffffffffffffffffffffffffffffffffffffffff1614611bd657600080fd5b60005b600180549050811015611daf5760018181548110611bf357fe5b906000526020600020906004020160000154821415611da25760018080805490500381548110611c1f57fe5b906000526020600020906004020160018281548110611c3a57fe5b90600052602060002090600402016000820154816000015560018201816001019080546001816001161561010002031660029004611c79929190612b6d565b5060028201816002019080546001816001161561010002031660029004611ca1929190612b6d565b506003820181600301908054611cb8929190612bf4565b509050506001805480611cc757fe5b6001900381819060005260206000209060040201600080820160009055600182016000611cf49190612a6d565b600282016000611d049190612a6d565b600382016000611d149190612c64565b5050905560066000815480929190600190039190505550611da1426040518060400160405280600c81526020017f64656c657465436c69656e7400000000000000000000000000000000000000008152506040518060400160405280601981526020017f6120636c69656e7420686173206265656e2064656c657465640000000000000081525033612853565b5b8080600101915050611bd9565b5050565b606060008054906101000a900473ffffffffffffffffffffffffffffffffffffffff1673ffffffffffffffffffffffffffffffffffffffff163373ffffffffffffffffffffffffffffffffffffffff1614611e0d57600080fd5b606060075467ffffffffffffffff81118015611e2857600080fd5b50604051908082528060200260200182016040528015611e575781602001602082028036833780820191505090505b50905060005b600280549050811015611efc5760028181548110611e7757fe5b906000526020600020906002020160000160009054906101000a900473ffffffffffffffffffffffffffffffffffffffff16828281518110611eb557fe5b602002602001019073ffffffffffffffffffffffffffffffffffffffff16908173ffffffffffffffffffffffffffffffffffffffff16815250508080600101915050611e5d565b508091505090565b6000846000801b600560003373ffffffffffffffffffffffffffffffffffffffff1673ffffffffffffffffffffffffffffffffffffffff168152602001908152602001600020541415611f5657600080fd5b600560003373ffffffffffffffffffffffffffffffffffffffff1673ffffffffffffffffffffffffffffffffffffffff168152602001908152602001600020548114611fa157600080fd5b60005b6001805490508110156120d65760018181548110611fbe57fe5b90600052602060002090600402016000015486148015612046575060018181548110611fe657fe5b90600052602060002090600402016001016040516020016120079190613418565b604051602081830303815290604052805190602001208560405160200161202e9190613401565b60405160208183030381529060405280519060200120145b80156120ba57506001818154811061205a57fe5b906000526020600020906004020160020160405160200161207b9190613418565b60405160208183030381529060405280519060200120846040516020016120a29190613401565b60405160208183030381529060405280519060200120145b156120c95760019250506120dc565b8080600101915050611fa4565b50600091505b50949350505050565b60008054906101000a900473ffffffffffffffffffffffffffffffffffffffff1673ffffffffffffffffffffffffffffffffffffffff163373ffffffffffffffffffffffffffffffffffffffff161461213d57600080fd5b60005b6001805490508110156122b85760006001828154811061215c57fe5b9060005260206000209060040201905080600001548514156122aa5760005b81600301805490508110156122a8578460405160200161219b9190613401565b604051602081830303815290604052805190602001208260030182815481106121c057fe5b906000526020600020016040516020016121da9190613418565b60405160208183030381529060405280519060200120141561229b578382600301828154811061220657fe5b906000526020600020019080519060200190612223929190612966565b5061229a426040518060400160405280600b81526020017f757064617465546f7069630000000000000000000000000000000000000000008152506040518060400160405280601881526020017f6120746f70696320686173206265656e2075706461746564000000000000000081525033612853565b5b808060010191505061217b565b505b508080600101915050612140565b50505050565b600460003373ffffffffffffffffffffffffffffffffffffffff1673ffffffffffffffffffffffffffffffffffffffff16815260200190815260200160002060009054906101000a900460ff1661231457600080fd5b60005b600280549050811015612850576002818154811061233157fe5b906000526020600020906002020160000160009054906101000a900473ffffffffffffffffffffffffffffffffffffffff1673ffffffffffffffffffffffffffffffffffffffff163373ffffffffffffffffffffffffffffffffffffffff1614156128435760004290506000600283815481106123aa57fe5b9060005260206000209060020201600101548203905060f08111156126185781600284815481106123d757fe5b90600052602060002090600202016001018190555033600284815481106123fa57fe5b90600052602060002090600202016001015460405160200161241d9291906133d5565b60405160208183030381529060405280519060200120600560006002868154811061244457fe5b906000526020600020906002020160000160009054906101000a900473ffffffffffffffffffffffffffffffffffffffff1673ffffffffffffffffffffffffffffffffffffffff1673ffffffffffffffffffffffffffffffffffffffff1681526020019081526020016000208190555061252a426040518060400160405280600c81526020017f72656672657368546f6b656e00000000000000000000000000000000000000008152506040518060400160405280600c81526020017f746f6b656e20646975626168000000000000000000000000000000000000000081525033612853565b7f504e9e94e0c65229aaf8cabe153380cc35da3135e30129bc3195f7e031cdf82b600560006002868154811061255c57fe5b906000526020600020906002020160000160009054906101000a900473ffffffffffffffffffffffffffffffffffffffff1673ffffffffffffffffffffffffffffffffffffffff1673ffffffffffffffffffffffffffffffffffffffff168152602001908152602001600020546040516125d69190613556565b60405180910390a17fb6f921ade0de8da9e62e948d90ae6f2dd6b678679ad77753c75fe1b6d9a7200460405161260b90613571565b60405180910390a1612840565b336002848154811061262657fe5b9060005260206000209060020201600101546040516020016126499291906133d5565b60405160208183030381529060405280519060200120600560006002868154811061267057fe5b906000526020600020906002020160000160009054906101000a900473ffffffffffffffffffffffffffffffffffffffff1673ffffffffffffffffffffffffffffffffffffffff1673ffffffffffffffffffffffffffffffffffffffff16815260200190815260200160002081905550612756426040518060400160405280600c81526020017f72656672657368546f6b656e00000000000000000000000000000000000000008152506040518060400160405280601281526020017f746f6b656e20746964616b20646975626168000000000000000000000000000081525033612853565b7f504e9e94e0c65229aaf8cabe153380cc35da3135e30129bc3195f7e031cdf82b600560006002868154811061278857fe5b906000526020600020906002020160000160009054906101000a900473ffffffffffffffffffffffffffffffffffffffff1673ffffffffffffffffffffffffffffffffffffffff1673ffffffffffffffffffffffffffffffffffffffff168152602001908152602001600020546040516128029190613556565b60405180910390a17fb6f921ade0de8da9e62e948d90ae6f2dd6b678679ad77753c75fe1b6d9a7200460405161283790613591565b60405180910390a15b50505b8080600101915050612317565b50565b61285b612c85565b60405180608001604052808681526020018581526020018481526020018373ffffffffffffffffffffffffffffffffffffffff16815250905060038190806001815401808255809150506001900390600052602060002090600402016000909190919091506000820151816000015560208201518160010190805190602001906128e6929190612966565b506040820151816002019080519060200190612903929190612966565b5060608201518160030160006101000a81548173ffffffffffffffffffffffffffffffffffffffff021916908373ffffffffffffffffffffffffffffffffffffffff16021790555050506009600081548092919060010191905055505050505050565b828054600181600116156101000203166002900490600052602060002090601f016020900481019282601f106129a757805160ff19168380011785556129d5565b828001600101855582156129d5579182015b828111156129d45782518255916020019190600101906129b9565b5b5090506129e29190612cc3565b5090565b828054600181600116156101000203166002900490600052602060002090601f016020900481019282601f10612a1f5780548555612a5c565b82800160010185558215612a5c57600052602060002091601f016020900482015b82811115612a5b578254825591600101919060010190612a40565b5b509050612a699190612cc3565b5090565b50805460018160011615610100020316600290046000825580601f10612a935750612ab2565b601f016020900490600052602060002090810190612ab19190612cc3565b5b50565b6040518060400160405280600073ffffffffffffffffffffffffffffffffffffffff168152602001600081525090565b6040518060800160405280600081526020016060815260200160608152602001606081525090565b828054828255906000526020600020908101928215612b5c579160200282015b82811115612b5b578251829080519060200190612b4b929190612966565b5091602001919060010190612b2d565b5b509050612b699190612ce0565b5090565b828054600181600116156101000203166002900490600052602060002090601f016020900481019282601f10612ba65780548555612be3565b82800160010185558215612be357600052602060002091601f016020900482015b82811115612be2578254825591600101919060010190612bc7565b5b509050612bf09190612cc3565b5090565b828054828255906000526020600020908101928215612c535760005260206000209182015b82811115612c525782829080546001816001161561010002031660029004612c42929190612b6d565b5091600101919060010190612c19565b5b509050612c609190612ce0565b5090565b5080546000825590600052602060002090810190612c829190612ce0565b50565b6040518060800160405280600081526020016060815260200160608152602001600073ffffffffffffffffffffffffffffffffffffffff1681525090565b5b80821115612cdc576000816000905550600101612cc4565b5090565b5b80821115612d005760008181612cf79190612a6d565b50600101612ce1565b5090565b600081359050612d138161380f565b92915050565b600081359050612d2881613826565b92915050565b600081359050612d3d8161383d565b92915050565b600082601f830112612d5457600080fd5b8135612d67612d62826135f9565b6135cc565b91508082526020830160208301858383011115612d8357600080fd5b612d8e838284613781565b50505092915050565b600081359050612da681613854565b92915050565b600060208284031215612dbe57600080fd5b6000612dcc84828501612d04565b91505092915050565b600060208284031215612de757600080fd5b6000612df584828501612d19565b91505092915050565b600080600060608486031215612e1357600080fd5b6000612e2186828701612d2e565b9350506020612e3286828701612d97565b925050604084013567ffffffffffffffff811115612e4f57600080fd5b612e5b86828701612d43565b9150509250925092565b60008060008060808587031215612e7b57600080fd5b6000612e8987828801612d2e565b9450506020612e9a87828801612d97565b935050604085013567ffffffffffffffff811115612eb757600080fd5b612ec387828801612d43565b925050606085013567ffffffffffffffff811115612ee057600080fd5b612eec87828801612d43565b91505092959194509250565b60008060408385031215612f0b57600080fd5b600083013567ffffffffffffffff811115612f2557600080fd5b612f3185828601612d43565b925050602083013567ffffffffffffffff811115612f4e57600080fd5b612f5a85828601612d43565b9150509250929050565b600060208284031215612f7657600080fd5b6000612f8484828501612d97565b91505092915050565b60008060408385031215612fa057600080fd5b6000612fae85828601612d97565b925050602083013567ffffffffffffffff811115612fcb57600080fd5b612fd785828601612d43565b9150509250929050565b600080600060608486031215612ff657600080fd5b600061300486828701612d97565b935050602084013567ffffffffffffffff81111561302157600080fd5b61302d86828701612d43565b925050604084013567ffffffffffffffff81111561304a57600080fd5b61305686828701612d43565b9150509250925092565b600061306c83836130ca565b60208301905092915050565b60006130848383613228565b905092915050565b600061309883836133a0565b60208301905092915050565b6130ad8161372f565b82525050565b6130c46130bf8261372f565b6137c3565b82525050565b6130d38161371d565b82525050565b60006130e48261366a565b6130ee81856136bd565b93506130f983613625565b8060005b8381101561312a5781516131118882613060565b975061311c83613696565b9250506001810190506130fd565b5085935050505092915050565b600061314282613675565b61314c81856136ce565b93508360208202850161315e85613635565b8060005b8581101561319a578484038952815161317b8582613078565b9450613186836136a3565b925060208a01995050600181019050613162565b50829750879550505050505092915050565b60006131b782613680565b6131c181856136df565b93506131cc83613645565b8060005b838110156131fd5781516131e4888261308c565b97506131ef836136b0565b9250506001810190506131d0565b5085935050505092915050565b61321381613741565b82525050565b6132228161374d565b82525050565b60006132338261368b565b61323d81856136f0565b935061324d818560208601613790565b613256816137f1565b840191505092915050565b600061326c8261368b565b6132768185613712565b9350613286818560208601613790565b80840191505092915050565b6000815460018116600081146132af57600181146132d457613318565b607f60028304166132c08187613712565b955060ff1983168652808601935050613318565b600282046132e28187613712565b95506132ed85613655565b60005b8281101561330f578154818901526001820191506020810190506132f0565b82880195505050505b505092915050565b600061332d600c83613701565b91507f746f6b656e2064697562616800000000000000000000000000000000000000006000830152602082019050919050565b600061336d601283613701565b91507f746f6b656e20746964616b2064697562616800000000000000000000000000006000830152602082019050919050565b6133a981613777565b82525050565b6133b881613777565b82525050565b6133cf6133ca82613777565b6137e7565b82525050565b60006133e182856130b3565b6014820191506133f182846133be565b6020820191508190509392505050565b600061340d8284613261565b915081905092915050565b60006134248284613292565b915081905092915050565b600060208201905061344460008301846130a4565b92915050565b6000602082019050818103600083015261346481846130d9565b905092915050565b600060208201905081810360008301526134868184613137565b905092915050565b600060608201905081810360008301526134a881866131ac565b905081810360208301526134bc8185613137565b905081810360408301526134d08184613137565b9050949350505050565b600060808201905081810360008301526134f481876131ac565b905081810360208301526135088186613137565b9050818103604083015261351c8185613137565b9050818103606083015261353081846130d9565b905095945050505050565b6000602082019050613550600083018461320a565b92915050565b600060208201905061356b6000830184613219565b92915050565b6000602082019050818103600083015261358a81613320565b9050919050565b600060208201905081810360008301526135aa81613360565b9050919050565b60006020820190506135c660008301846133af565b92915050565b6000604051905081810181811067ffffffffffffffff821117156135ef57600080fd5b8060405250919050565b600067ffffffffffffffff82111561361057600080fd5b601f19601f8301169050602081019050919050565b6000819050602082019050919050565b6000819050602082019050919050565b6000819050602082019050919050565b60008190508160005260206000209050919050565b600081519050919050565b600081519050919050565b600081519050919050565b600081519050919050565b6000602082019050919050565b6000602082019050919050565b6000602082019050919050565b600082825260208201905092915050565b600082825260208201905092915050565b600082825260208201905092915050565b600082825260208201905092915050565b600082825260208201905092915050565b600081905092915050565b600061372882613757565b9050919050565b600061373a82613757565b9050919050565b60008115159050919050565b6000819050919050565b600073ffffffffffffffffffffffffffffffffffffffff82169050919050565b6000819050919050565b82818337600083830152505050565b60005b838110156137ae578082015181840152602081019050613793565b838111156137bd576000848401525b50505050565b60006137ce826137d5565b9050919050565b60006137e082613802565b9050919050565b6000819050919050565b6000601f19601f8301169050919050565b60008160601b9050919050565b6138188161371d565b811461382357600080fd5b50565b61382f8161372f565b811461383a57600080fd5b50565b6138468161374d565b811461385157600080fd5b50565b61385d81613777565b811461386857600080fd5b5056fea26469706673582212207e5bf7d4cf9d4601024537d72827500b45b88e6f4b3a694e52f8fe138072b29164736f6c634300060c0033",
      "opcodes": "PUSH1 0x80 PUSH1 0x40 MSTORE CALLVALUE DUP1 ISZERO PUSH2 0x10 JUMPI PUSH1 0x0 DUP1 REVERT JUMPDEST POP CALLER PUSH1 0x0 DUP1 PUSH2 0x100 EXP DUP2 SLOAD DUP2 PUSH20 0xFFFFFFFFFFFFFFFFFFFFFFFFFFFFFFFFFFFFFFFF MUL NOT AND SWAP1 DUP4 PUSH20 0xFFFFFFFFFFFFFFFFFFFFFFFFFFFFFFFFFFFFFFFF AND MUL OR SWAP1 SSTORE POP PUSH1 0x0 PUSH1 0x6 DUP2 SWAP1 SSTORE POP PUSH1 0x0 PUSH1 0x7 DUP2 SWAP1 SSTORE POP PUSH1 0x0 PUSH1 0x8 DUP2 SWAP1 SSTORE POP PUSH1 0x0 PUSH1 0x9 DUP2 SWAP1 SSTORE POP PUSH2 0x38A1 DUP1 PUSH2 0x80 PUSH1 0x0 CODECOPY PUSH1 0x0 RETURN INVALID PUSH1 0x80 PUSH1 0x40 MSTORE CALLVALUE DUP1 ISZERO PUSH2 0x10 JUMPI PUSH1 0x0 DUP1 REVERT JUMPDEST POP PUSH1 0x4 CALLDATASIZE LT PUSH2 0x116 JUMPI PUSH1 0x0 CALLDATALOAD PUSH1 0xE0 SHR DUP1 PUSH4 0x7909CE47 GT PUSH2 0xA2 JUMPI DUP1 PUSH4 0xA9CB1A36 GT PUSH2 0x71 JUMPI DUP1 PUSH4 0xA9CB1A36 EQ PUSH2 0x2D2 JUMPI DUP1 PUSH4 0xD1314EE0 EQ PUSH2 0x2EE JUMPI DUP1 PUSH4 0xE58DA61F EQ PUSH2 0x30C JUMPI DUP1 PUSH4 0xE8E5339A EQ PUSH2 0x33C JUMPI DUP1 PUSH4 0xFA6A04E4 EQ PUSH2 0x358 JUMPI PUSH2 0x116 JUMP JUMPDEST DUP1 PUSH4 0x7909CE47 EQ PUSH2 0x249 JUMPI DUP1 PUSH4 0x836CAE65 EQ PUSH2 0x279 JUMPI DUP1 PUSH4 0x909E4AB6 EQ PUSH2 0x295 JUMPI DUP1 PUSH4 0x98173FF4 EQ PUSH2 0x2B6 JUMPI PUSH2 0x116 JUMP JUMPDEST DUP1 PUSH4 0x416A5D81 GT PUSH2 0xE9 JUMPI DUP1 PUSH4 0x416A5D81 EQ PUSH2 0x1A1 JUMPI DUP1 PUSH4 0x42BB20E1 EQ PUSH2 0x1BF JUMPI DUP1 PUSH4 0x481C6A75 EQ PUSH2 0x1DB JUMPI DUP1 PUSH4 0x6DB80995 EQ PUSH2 0x1F9 JUMPI DUP1 PUSH4 0x71658896 EQ PUSH2 0x219 JUMPI PUSH2 0x116 JUMP JUMPDEST DUP1 PUSH4 0x344248B EQ PUSH2 0x11B JUMPI DUP1 PUSH4 0x1EE32B05 EQ PUSH2 0x14B JUMPI DUP1 PUSH4 0x30A66294 EQ PUSH2 0x167 JUMPI DUP1 PUSH4 0x3276807A EQ PUSH2 0x185 JUMPI JUMPDEST PUSH1 0x0 DUP1 REVERT JUMPDEST PUSH2 0x135 PUSH1 0x4 DUP1 CALLDATASIZE SUB DUP2 ADD SWAP1 PUSH2 0x130 SWAP2 SWAP1 PUSH2 0x2DAC JUMP JUMPDEST PUSH2 0x362 JUMP JUMPDEST PUSH1 0x40 MLOAD PUSH2 0x142 SWAP2 SWAP1 PUSH2 0x3556 JUMP JUMPDEST PUSH1 0x40 MLOAD DUP1 SWAP2 SUB SWAP1 RETURN JUMPDEST PUSH2 0x165 PUSH1 0x4 DUP1 CALLDATASIZE SUB DUP2 ADD SWAP1 PUSH2 0x160 SWAP2 SWAP1 PUSH2 0x2DD5 JUMP JUMPDEST PUSH2 0x404 JUMP JUMPDEST STOP JUMPDEST PUSH2 0x16F PUSH2 0x793 JUMP JUMPDEST PUSH1 0x40 MLOAD PUSH2 0x17C SWAP2 SWAP1 PUSH2 0x35B1 JUMP JUMPDEST PUSH1 0x40 MLOAD DUP1 SWAP2 SUB SWAP1 RETURN JUMPDEST PUSH2 0x19F PUSH1 0x4 DUP1 CALLDATASIZE SUB DUP2 ADD SWAP1 PUSH2 0x19A SWAP2 SWAP1 PUSH2 0x2F8D JUMP JUMPDEST PUSH2 0x7F6 JUMP JUMPDEST STOP JUMPDEST PUSH2 0x1A9 PUSH2 0x9EA JUMP JUMPDEST PUSH1 0x40 MLOAD PUSH2 0x1B6 SWAP2 SWAP1 PUSH2 0x35B1 JUMP JUMPDEST PUSH1 0x40 MLOAD DUP1 SWAP2 SUB SWAP1 RETURN JUMPDEST PUSH2 0x1D9 PUSH1 0x4 DUP1 CALLDATASIZE SUB DUP2 ADD SWAP1 PUSH2 0x1D4 SWAP2 SWAP1 PUSH2 0x2F8D JUMP JUMPDEST PUSH2 0xA4D JUMP JUMPDEST STOP JUMPDEST PUSH2 0x1E3 PUSH2 0xD13 JUMP JUMPDEST PUSH1 0x40 MLOAD PUSH2 0x1F0 SWAP2 SWAP1 PUSH2 0x342F JUMP JUMPDEST PUSH1 0x40 MLOAD DUP1 SWAP2 SUB SWAP1 RETURN JUMPDEST PUSH2 0x201 PUSH2 0xD37 JUMP JUMPDEST PUSH1 0x40 MLOAD PUSH2 0x210 SWAP4 SWAP3 SWAP2 SWAP1 PUSH2 0x348E JUMP JUMPDEST PUSH1 0x40 MLOAD DUP1 SWAP2 SUB SWAP1 RETURN JUMPDEST PUSH2 0x233 PUSH1 0x4 DUP1 CALLDATASIZE SUB DUP2 ADD SWAP1 PUSH2 0x22E SWAP2 SWAP1 PUSH2 0x2F64 JUMP JUMPDEST PUSH2 0x1000 JUMP JUMPDEST PUSH1 0x40 MLOAD PUSH2 0x240 SWAP2 SWAP1 PUSH2 0x346C JUMP JUMPDEST PUSH1 0x40 MLOAD DUP1 SWAP2 SUB SWAP1 RETURN JUMPDEST PUSH2 0x263 PUSH1 0x4 DUP1 CALLDATASIZE SUB DUP2 ADD SWAP1 PUSH2 0x25E SWAP2 SWAP1 PUSH2 0x2DFE JUMP JUMPDEST PUSH2 0x11F5 JUMP JUMPDEST PUSH1 0x40 MLOAD PUSH2 0x270 SWAP2 SWAP1 PUSH2 0x353B JUMP JUMPDEST PUSH1 0x40 MLOAD DUP1 SWAP2 SUB SWAP1 RETURN JUMPDEST PUSH2 0x293 PUSH1 0x4 DUP1 CALLDATASIZE SUB DUP2 ADD SWAP1 PUSH2 0x28E SWAP2 SWAP1 PUSH2 0x2DD5 JUMP JUMPDEST PUSH2 0x13AF JUMP JUMPDEST STOP JUMPDEST PUSH2 0x29D PUSH2 0x159F JUMP JUMPDEST PUSH1 0x40 MLOAD PUSH2 0x2AD SWAP5 SWAP4 SWAP3 SWAP2 SWAP1 PUSH2 0x34DA JUMP JUMPDEST PUSH1 0x40 MLOAD DUP1 SWAP2 SUB SWAP1 RETURN JUMPDEST PUSH2 0x2D0 PUSH1 0x4 DUP1 CALLDATASIZE SUB DUP2 ADD SWAP1 PUSH2 0x2CB SWAP2 SWAP1 PUSH2 0x2EF8 JUMP JUMPDEST PUSH2 0x197F JUMP JUMPDEST STOP JUMPDEST PUSH2 0x2EC PUSH1 0x4 DUP1 CALLDATASIZE SUB DUP2 ADD SWAP1 PUSH2 0x2E7 SWAP2 SWAP1 PUSH2 0x2F64 JUMP JUMPDEST PUSH2 0x1B7E JUMP JUMPDEST STOP JUMPDEST PUSH2 0x2F6 PUSH2 0x1DB3 JUMP JUMPDEST PUSH1 0x40 MLOAD PUSH2 0x303 SWAP2 SWAP1 PUSH2 0x344A JUMP JUMPDEST PUSH1 0x40 MLOAD DUP1 SWAP2 SUB SWAP1 RETURN JUMPDEST PUSH2 0x326 PUSH1 0x4 DUP1 CALLDATASIZE SUB DUP2 ADD SWAP1 PUSH2 0x321 SWAP2 SWAP1 PUSH2 0x2E65 JUMP JUMPDEST PUSH2 0x1F04 JUMP JUMPDEST PUSH1 0x40 MLOAD PUSH2 0x333 SWAP2 SWAP1 PUSH2 0x353B JUMP JUMPDEST PUSH1 0x40 MLOAD DUP1 SWAP2 SUB SWAP1 RETURN JUMPDEST PUSH2 0x356 PUSH1 0x4 DUP1 CALLDATASIZE SUB DUP2 ADD SWAP1 PUSH2 0x351 SWAP2 SWAP1 PUSH2 0x2FE1 JUMP JUMPDEST PUSH2 0x20E5 JUMP JUMPDEST STOP JUMPDEST PUSH2 0x360 PUSH2 0x22BE JUMP JUMPDEST STOP JUMPDEST PUSH1 0x0 DUP1 PUSH1 0x0 SWAP1 SLOAD SWAP1 PUSH2 0x100 EXP SWAP1 DIV PUSH20 0xFFFFFFFFFFFFFFFFFFFFFFFFFFFFFFFFFFFFFFFF AND PUSH20 0xFFFFFFFFFFFFFFFFFFFFFFFFFFFFFFFFFFFFFFFF AND CALLER PUSH20 0xFFFFFFFFFFFFFFFFFFFFFFFFFFFFFFFFFFFFFFFF AND EQ PUSH2 0x3BD JUMPI PUSH1 0x0 DUP1 REVERT JUMPDEST PUSH1 0x5 PUSH1 0x0 DUP4 PUSH20 0xFFFFFFFFFFFFFFFFFFFFFFFFFFFFFFFFFFFFFFFF AND PUSH20 0xFFFFFFFFFFFFFFFFFFFFFFFFFFFFFFFFFFFFFFFF AND DUP2 MSTORE PUSH1 0x20 ADD SWAP1 DUP2 MSTORE PUSH1 0x20 ADD PUSH1 0x0 KECCAK256 SLOAD SWAP1 POP SWAP2 SWAP1 POP JUMP JUMPDEST PUSH1 0x0 DUP1 SLOAD SWAP1 PUSH2 0x100 EXP SWAP1 DIV PUSH20 0xFFFFFFFFFFFFFFFFFFFFFFFFFFFFFFFFFFFFFFFF AND PUSH20 0xFFFFFFFFFFFFFFFFFFFFFFFFFFFFFFFFFFFFFFFF AND CALLER PUSH20 0xFFFFFFFFFFFFFFFFFFFFFFFFFFFFFFFFFFFFFFFF AND EQ PUSH2 0x45C JUMPI PUSH1 0x0 DUP1 REVERT JUMPDEST PUSH1 0x0 JUMPDEST PUSH1 0x2 DUP1 SLOAD SWAP1 POP DUP2 LT ISZERO PUSH2 0x78F JUMPI PUSH1 0x2 DUP2 DUP2 SLOAD DUP2 LT PUSH2 0x479 JUMPI INVALID JUMPDEST SWAP1 PUSH1 0x0 MSTORE PUSH1 0x20 PUSH1 0x0 KECCAK256 SWAP1 PUSH1 0x2 MUL ADD PUSH1 0x0 ADD PUSH1 0x0 SWAP1 SLOAD SWAP1 PUSH2 0x100 EXP SWAP1 DIV PUSH20 0xFFFFFFFFFFFFFFFFFFFFFFFFFFFFFFFFFFFFFFFF AND PUSH20 0xFFFFFFFFFFFFFFFFFFFFFFFFFFFFFFFFFFFFFFFF AND DUP3 PUSH20 0xFFFFFFFFFFFFFFFFFFFFFFFFFFFFFFFFFFFFFFFF AND EQ ISZERO PUSH2 0x782 JUMPI PUSH1 0x0 PUSH1 0x4 PUSH1 0x0 DUP5 PUSH20 0xFFFFFFFFFFFFFFFFFFFFFFFFFFFFFFFFFFFFFFFF AND PUSH20 0xFFFFFFFFFFFFFFFFFFFFFFFFFFFFFFFFFFFFFFFF AND DUP2 MSTORE PUSH1 0x20 ADD SWAP1 DUP2 MSTORE PUSH1 0x20 ADD PUSH1 0x0 KECCAK256 PUSH1 0x0 PUSH2 0x100 EXP DUP2 SLOAD DUP2 PUSH1 0xFF MUL NOT AND SWAP1 DUP4 ISZERO ISZERO MUL OR SWAP1 SSTORE POP PUSH1 0x0 DUP1 SHL PUSH1 0x5 PUSH1 0x0 DUP5 PUSH20 0xFFFFFFFFFFFFFFFFFFFFFFFFFFFFFFFFFFFFFFFF AND PUSH20 0xFFFFFFFFFFFFFFFFFFFFFFFFFFFFFFFFFFFFFFFF AND DUP2 MSTORE PUSH1 0x20 ADD SWAP1 DUP2 MSTORE PUSH1 0x20 ADD PUSH1 0x0 KECCAK256 DUP2 SWAP1 SSTORE POP PUSH32 0x504E9E94E0C65229AAF8CABE153380CC35DA3135E30129BC3195F7E031CDF82B PUSH1 0x5 PUSH1 0x0 CALLER PUSH20 0xFFFFFFFFFFFFFFFFFFFFFFFFFFFFFFFFFFFFFFFF AND PUSH20 0xFFFFFFFFFFFFFFFFFFFFFFFFFFFFFFFFFFFFFFFF AND DUP2 MSTORE PUSH1 0x20 ADD SWAP1 DUP2 MSTORE PUSH1 0x20 ADD PUSH1 0x0 KECCAK256 SLOAD PUSH1 0x40 MLOAD PUSH2 0x5EB SWAP2 SWAP1 PUSH2 0x3556 JUMP JUMPDEST PUSH1 0x40 MLOAD DUP1 SWAP2 SUB SWAP1 LOG1 PUSH1 0x2 PUSH1 0x1 PUSH1 0x2 DUP1 SLOAD SWAP1 POP SUB DUP2 SLOAD DUP2 LT PUSH2 0x608 JUMPI INVALID JUMPDEST SWAP1 PUSH1 0x0 MSTORE PUSH1 0x20 PUSH1 0x0 KECCAK256 SWAP1 PUSH1 0x2 MUL ADD PUSH1 0x2 DUP3 DUP2 SLOAD DUP2 LT PUSH2 0x623 JUMPI INVALID JUMPDEST SWAP1 PUSH1 0x0 MSTORE PUSH1 0x20 PUSH1 0x0 KECCAK256 SWAP1 PUSH1 0x2 MUL ADD PUSH1 0x0 DUP3 ADD PUSH1 0x0 SWAP1 SLOAD SWAP1 PUSH2 0x100 EXP SWAP1 DIV PUSH20 0xFFFFFFFFFFFFFFFFFFFFFFFFFFFFFFFFFFFFFFFF AND DUP2 PUSH1 0x0 ADD PUSH1 0x0 PUSH2 0x100 EXP DUP2 SLOAD DUP2 PUSH20 0xFFFFFFFFFFFFFFFFFFFFFFFFFFFFFFFFFFFFFFFF MUL NOT AND SWAP1 DUP4 PUSH20 0xFFFFFFFFFFFFFFFFFFFFFFFFFFFFFFFFFFFFFFFF AND MUL OR SWAP1 SSTORE POP PUSH1 0x1 DUP3 ADD SLOAD DUP2 PUSH1 0x1 ADD SSTORE SWAP1 POP POP PUSH1 0x2 DUP1 SLOAD DUP1 PUSH2 0x6B0 JUMPI INVALID JUMPDEST PUSH1 0x1 SWAP1 SUB DUP2 DUP2 SWAP1 PUSH1 0x0 MSTORE PUSH1 0x20 PUSH1 0x0 KECCAK256 SWAP1 PUSH1 0x2 MUL ADD PUSH1 0x0 DUP1 DUP3 ADD PUSH1 0x0 PUSH2 0x100 EXP DUP2 SLOAD SWAP1 PUSH20 0xFFFFFFFFFFFFFFFFFFFFFFFFFFFFFFFFFFFFFFFF MUL NOT AND SWAP1 SSTORE PUSH1 0x1 DUP3 ADD PUSH1 0x0 SWAP1 SSTORE POP POP SWAP1 SSTORE PUSH1 0x7 PUSH1 0x0 DUP2 SLOAD DUP1 SWAP3 SWAP2 SWAP1 PUSH1 0x1 SWAP1 SUB SWAP2 SWAP1 POP SSTORE POP PUSH2 0x781 TIMESTAMP PUSH1 0x40 MLOAD DUP1 PUSH1 0x40 ADD PUSH1 0x40 MSTORE DUP1 PUSH1 0xC DUP2 MSTORE PUSH1 0x20 ADD PUSH32 0x64656C65746542726F6B65720000000000000000000000000000000000000000 DUP2 MSTORE POP PUSH1 0x40 MLOAD DUP1 PUSH1 0x40 ADD PUSH1 0x40 MSTORE DUP1 PUSH1 0x19 DUP2 MSTORE PUSH1 0x20 ADD PUSH32 0x612062726F6B657220686173206265656E2064656C6574656400000000000000 DUP2 MSTORE POP CALLER PUSH2 0x2853 JUMP JUMPDEST JUMPDEST DUP1 DUP1 PUSH1 0x1 ADD SWAP2 POP POP PUSH2 0x45F JUMP JUMPDEST POP POP JUMP JUMPDEST PUSH1 0x0 DUP1 PUSH1 0x0 SWAP1 SLOAD SWAP1 PUSH2 0x100 EXP SWAP1 DIV PUSH20 0xFFFFFFFFFFFFFFFFFFFFFFFFFFFFFFFFFFFFFFFF AND PUSH20 0xFFFFFFFFFFFFFFFFFFFFFFFFFFFFFFFFFFFFFFFF AND CALLER PUSH20 0xFFFFFFFFFFFFFFFFFFFFFFFFFFFFFFFFFFFFFFFF AND EQ PUSH2 0x7EE JUMPI PUSH1 0x0 DUP1 REVERT JUMPDEST PUSH1 0x6 SLOAD SWAP1 POP SWAP1 JUMP JUMPDEST PUSH1 0x0 DUP1 SLOAD SWAP1 PUSH2 0x100 EXP SWAP1 DIV PUSH20 0xFFFFFFFFFFFFFFFFFFFFFFFFFFFFFFFFFFFFFFFF AND PUSH20 0xFFFFFFFFFFFFFFFFFFFFFFFFFFFFFFFFFFFFFFFF AND CALLER PUSH20 0xFFFFFFFFFFFFFFFFFFFFFFFFFFFFFFFFFFFFFFFF AND EQ PUSH2 0x84E JUMPI PUSH1 0x0 DUP1 REVERT JUMPDEST PUSH1 0x0 DUP1 JUMPDEST PUSH1 0x1 DUP1 SLOAD SWAP1 POP DUP2 LT ISZERO PUSH2 0x9E4 JUMPI PUSH1 0x0 PUSH1 0x1 DUP3 DUP2 SLOAD DUP2 LT PUSH2 0x86E JUMPI INVALID JUMPDEST SWAP1 PUSH1 0x0 MSTORE PUSH1 0x20 PUSH1 0x0 KECCAK256 SWAP1 PUSH1 0x4 MUL ADD SWAP1 POP DUP1 PUSH1 0x0 ADD SLOAD DUP6 EQ ISZERO PUSH2 0x9D6 JUMPI PUSH1 0x0 JUMPDEST DUP2 PUSH1 0x3 ADD DUP1 SLOAD SWAP1 POP DUP2 LT ISZERO PUSH2 0x91A JUMPI DUP2 PUSH1 0x3 ADD DUP2 DUP2 SLOAD DUP2 LT PUSH2 0x8AB JUMPI INVALID JUMPDEST SWAP1 PUSH1 0x0 MSTORE PUSH1 0x20 PUSH1 0x0 KECCAK256 ADD PUSH1 0x40 MLOAD PUSH1 0x20 ADD PUSH2 0x8C5 SWAP2 SWAP1 PUSH2 0x3418 JUMP JUMPDEST PUSH1 0x40 MLOAD PUSH1 0x20 DUP2 DUP4 SUB SUB DUP2 MSTORE SWAP1 PUSH1 0x40 MSTORE DUP1 MLOAD SWAP1 PUSH1 0x20 ADD KECCAK256 DUP6 PUSH1 0x40 MLOAD PUSH1 0x20 ADD PUSH2 0x8EC SWAP2 SWAP1 PUSH2 0x3401 JUMP JUMPDEST PUSH1 0x40 MLOAD PUSH1 0x20 DUP2 DUP4 SUB SUB DUP2 MSTORE SWAP1 PUSH1 0x40 MSTORE DUP1 MLOAD SWAP1 PUSH1 0x20 ADD KECCAK256 EQ ISZERO PUSH2 0x90D JUMPI PUSH1 0x1 SWAP4 POP JUMPDEST DUP1 DUP1 PUSH1 0x1 ADD SWAP2 POP POP PUSH2 0x88D JUMP JUMPDEST POP DUP3 PUSH2 0x9D5 JUMPI DUP1 PUSH1 0x3 ADD DUP5 SWAP1 DUP1 PUSH1 0x1 DUP2 SLOAD ADD DUP1 DUP3 SSTORE DUP1 SWAP2 POP POP PUSH1 0x1 SWAP1 SUB SWAP1 PUSH1 0x0 MSTORE PUSH1 0x20 PUSH1 0x0 KECCAK256 ADD PUSH1 0x0 SWAP1 SWAP2 SWAP1 SWAP2 SWAP1 SWAP2 POP SWAP1 DUP1 MLOAD SWAP1 PUSH1 0x20 ADD SWAP1 PUSH2 0x95D SWAP3 SWAP2 SWAP1 PUSH2 0x2966 JUMP JUMPDEST POP PUSH2 0x9D4 TIMESTAMP PUSH1 0x40 MLOAD DUP1 PUSH1 0x40 ADD PUSH1 0x40 MSTORE DUP1 PUSH1 0x8 DUP2 MSTORE PUSH1 0x20 ADD PUSH32 0x616464546F706963000000000000000000000000000000000000000000000000 DUP2 MSTORE POP PUSH1 0x40 MLOAD DUP1 PUSH1 0x40 ADD PUSH1 0x40 MSTORE DUP1 PUSH1 0xD DUP2 MSTORE PUSH1 0x20 ADD PUSH32 0x616464206E657720546F70696300000000000000000000000000000000000000 DUP2 MSTORE POP CALLER PUSH2 0x2853 JUMP JUMPDEST JUMPDEST JUMPDEST POP DUP1 DUP1 PUSH1 0x1 ADD SWAP2 POP POP PUSH2 0x852 JUMP JUMPDEST POP POP POP POP JUMP JUMPDEST PUSH1 0x0 DUP1 PUSH1 0x0 SWAP1 SLOAD SWAP1 PUSH2 0x100 EXP SWAP1 DIV PUSH20 0xFFFFFFFFFFFFFFFFFFFFFFFFFFFFFFFFFFFFFFFF AND PUSH20 0xFFFFFFFFFFFFFFFFFFFFFFFFFFFFFFFFFFFFFFFF AND CALLER PUSH20 0xFFFFFFFFFFFFFFFFFFFFFFFFFFFFFFFFFFFFFFFF AND EQ PUSH2 0xA45 JUMPI PUSH1 0x0 DUP1 REVERT JUMPDEST PUSH1 0x7 SLOAD SWAP1 POP SWAP1 JUMP JUMPDEST PUSH1 0x0 DUP1 SLOAD SWAP1 PUSH2 0x100 EXP SWAP1 DIV PUSH20 0xFFFFFFFFFFFFFFFFFFFFFFFFFFFFFFFFFFFFFFFF AND PUSH20 0xFFFFFFFFFFFFFFFFFFFFFFFFFFFFFFFFFFFFFFFF AND CALLER PUSH20 0xFFFFFFFFFFFFFFFFFFFFFFFFFFFFFFFFFFFFFFFF AND EQ PUSH2 0xAA5 JUMPI PUSH1 0x0 DUP1 REVERT JUMPDEST PUSH1 0x0 JUMPDEST PUSH1 0x1 DUP1 SLOAD SWAP1 POP DUP2 LT ISZERO PUSH2 0xD0E JUMPI PUSH1 0x1 DUP2 DUP2 SLOAD DUP2 LT PUSH2 0xAC2 JUMPI INVALID JUMPDEST SWAP1 PUSH1 0x0 MSTORE PUSH1 0x20 PUSH1 0x0 KECCAK256 SWAP1 PUSH1 0x4 MUL ADD PUSH1 0x0 ADD SLOAD DUP4 EQ ISZERO PUSH2 0xD01 JUMPI PUSH1 0x0 JUMPDEST PUSH1 0x1 DUP3 DUP2 SLOAD DUP2 LT PUSH2 0xAEB JUMPI INVALID JUMPDEST SWAP1 PUSH1 0x0 MSTORE PUSH1 0x20 PUSH1 0x0 KECCAK256 SWAP1 PUSH1 0x4 MUL ADD PUSH1 0x3 ADD DUP1 SLOAD SWAP1 POP DUP2 LT ISZERO PUSH2 0xCFF JUMPI PUSH1 0x1 DUP3 DUP2 SLOAD DUP2 LT PUSH2 0xB14 JUMPI INVALID JUMPDEST SWAP1 PUSH1 0x0 MSTORE PUSH1 0x20 PUSH1 0x0 KECCAK256 SWAP1 PUSH1 0x4 MUL ADD PUSH1 0x3 ADD DUP2 DUP2 SLOAD DUP2 LT PUSH2 0xB30 JUMPI INVALID JUMPDEST SWAP1 PUSH1 0x0 MSTORE PUSH1 0x20 PUSH1 0x0 KECCAK256 ADD PUSH1 0x40 MLOAD PUSH1 0x20 ADD PUSH2 0xB4A SWAP2 SWAP1 PUSH2 0x3418 JUMP JUMPDEST PUSH1 0x40 MLOAD PUSH1 0x20 DUP2 DUP4 SUB SUB DUP2 MSTORE SWAP1 PUSH1 0x40 MSTORE DUP1 MLOAD SWAP1 PUSH1 0x20 ADD KECCAK256 DUP4 PUSH1 0x40 MLOAD PUSH1 0x20 ADD PUSH2 0xB71 SWAP2 SWAP1 PUSH2 0x3401 JUMP JUMPDEST PUSH1 0x40 MLOAD PUSH1 0x20 DUP2 DUP4 SUB SUB DUP2 MSTORE SWAP1 PUSH1 0x40 MSTORE DUP1 MLOAD SWAP1 PUSH1 0x20 ADD KECCAK256 EQ ISZERO PUSH2 0xCF2 JUMPI PUSH1 0x1 DUP3 DUP2 SLOAD DUP2 LT PUSH2 0xB9A JUMPI INVALID JUMPDEST SWAP1 PUSH1 0x0 MSTORE PUSH1 0x20 PUSH1 0x0 KECCAK256 SWAP1 PUSH1 0x4 MUL ADD PUSH1 0x3 ADD PUSH1 0x1 DUP1 DUP5 DUP2 SLOAD DUP2 LT PUSH2 0xBB9 JUMPI INVALID JUMPDEST SWAP1 PUSH1 0x0 MSTORE PUSH1 0x20 PUSH1 0x0 KECCAK256 SWAP1 PUSH1 0x4 MUL ADD PUSH1 0x3 ADD DUP1 SLOAD SWAP1 POP SUB DUP2 SLOAD DUP2 LT PUSH2 0xBD9 JUMPI INVALID JUMPDEST SWAP1 PUSH1 0x0 MSTORE PUSH1 0x20 PUSH1 0x0 KECCAK256 ADD PUSH1 0x1 DUP4 DUP2 SLOAD DUP2 LT PUSH2 0xBF0 JUMPI INVALID JUMPDEST SWAP1 PUSH1 0x0 MSTORE PUSH1 0x20 PUSH1 0x0 KECCAK256 SWAP1 PUSH1 0x4 MUL ADD PUSH1 0x3 ADD DUP3 DUP2 SLOAD DUP2 LT PUSH2 0xC0C JUMPI INVALID JUMPDEST SWAP1 PUSH1 0x0 MSTORE PUSH1 0x20 PUSH1 0x0 KECCAK256 ADD SWAP1 DUP1 SLOAD PUSH1 0x1 DUP2 PUSH1 0x1 AND ISZERO PUSH2 0x100 MUL SUB AND PUSH1 0x2 SWAP1 DIV PUSH2 0xC35 SWAP3 SWAP2 SWAP1 PUSH2 0x29E6 JUMP JUMPDEST POP PUSH1 0x1 DUP3 DUP2 SLOAD DUP2 LT PUSH2 0xC43 JUMPI INVALID JUMPDEST SWAP1 PUSH1 0x0 MSTORE PUSH1 0x20 PUSH1 0x0 KECCAK256 SWAP1 PUSH1 0x4 MUL ADD PUSH1 0x3 ADD DUP1 SLOAD DUP1 PUSH2 0xC5D JUMPI INVALID JUMPDEST PUSH1 0x1 SWAP1 SUB DUP2 DUP2 SWAP1 PUSH1 0x0 MSTORE PUSH1 0x20 PUSH1 0x0 KECCAK256 ADD PUSH1 0x0 PUSH2 0xC79 SWAP2 SWAP1 PUSH2 0x2A6D JUMP JUMPDEST SWAP1 SSTORE PUSH2 0xCF1 TIMESTAMP PUSH1 0x40 MLOAD DUP1 PUSH1 0x40 ADD PUSH1 0x40 MSTORE DUP1 PUSH1 0xB DUP2 MSTORE PUSH1 0x20 ADD PUSH32 0x64656C657465546F706963000000000000000000000000000000000000000000 DUP2 MSTORE POP PUSH1 0x40 MLOAD DUP1 PUSH1 0x40 ADD PUSH1 0x40 MSTORE DUP1 PUSH1 0x18 DUP2 MSTORE PUSH1 0x20 ADD PUSH32 0x6120746F70696320686173206265656E2064656C657465640000000000000000 DUP2 MSTORE POP CALLER PUSH2 0x2853 JUMP JUMPDEST JUMPDEST DUP1 DUP1 PUSH1 0x1 ADD SWAP2 POP POP PUSH2 0xADE JUMP JUMPDEST POP JUMPDEST DUP1 DUP1 PUSH1 0x1 ADD SWAP2 POP POP PUSH2 0xAA8 JUMP JUMPDEST POP POP POP JUMP JUMPDEST PUSH1 0x0 DUP1 SLOAD SWAP1 PUSH2 0x100 EXP SWAP1 DIV PUSH20 0xFFFFFFFFFFFFFFFFFFFFFFFFFFFFFFFFFFFFFFFF AND DUP2 JUMP JUMPDEST PUSH1 0x60 DUP1 PUSH1 0x60 DUP1 PUSH1 0x6 SLOAD PUSH8 0xFFFFFFFFFFFFFFFF DUP2 GT DUP1 ISZERO PUSH2 0xD56 JUMPI PUSH1 0x0 DUP1 REVERT JUMPDEST POP PUSH1 0x40 MLOAD SWAP1 DUP1 DUP3 MSTORE DUP1 PUSH1 0x20 MUL PUSH1 0x20 ADD DUP3 ADD PUSH1 0x40 MSTORE DUP1 ISZERO PUSH2 0xD85 JUMPI DUP2 PUSH1 0x20 ADD PUSH1 0x20 DUP3 MUL DUP1 CALLDATASIZE DUP4 CALLDATACOPY DUP1 DUP3 ADD SWAP2 POP POP SWAP1 POP JUMPDEST POP SWAP1 POP PUSH1 0x60 PUSH1 0x6 SLOAD PUSH8 0xFFFFFFFFFFFFFFFF DUP2 GT DUP1 ISZERO PUSH2 0xDA3 JUMPI PUSH1 0x0 DUP1 REVERT JUMPDEST POP PUSH1 0x40 MLOAD SWAP1 DUP1 DUP3 MSTORE DUP1 PUSH1 0x20 MUL PUSH1 0x20 ADD DUP3 ADD PUSH1 0x40 MSTORE DUP1 ISZERO PUSH2 0xDD7 JUMPI DUP2 PUSH1 0x20 ADD JUMPDEST PUSH1 0x60 DUP2 MSTORE PUSH1 0x20 ADD SWAP1 PUSH1 0x1 SWAP1 SUB SWAP1 DUP2 PUSH2 0xDC2 JUMPI SWAP1 POP JUMPDEST POP SWAP1 POP PUSH1 0x60 PUSH1 0x6 SLOAD PUSH8 0xFFFFFFFFFFFFFFFF DUP2 GT DUP1 ISZERO PUSH2 0xDF5 JUMPI PUSH1 0x0 DUP1 REVERT JUMPDEST POP PUSH1 0x40 MLOAD SWAP1 DUP1 DUP3 MSTORE DUP1 PUSH1 0x20 MUL PUSH1 0x20 ADD DUP3 ADD PUSH1 0x40 MSTORE DUP1 ISZERO PUSH2 0xE29 JUMPI DUP2 PUSH1 0x20 ADD JUMPDEST PUSH1 0x60 DUP2 MSTORE PUSH1 0x20 ADD SWAP1 PUSH1 0x1 SWAP1 SUB SWAP1 DUP2 PUSH2 0xE14 JUMPI SWAP1 POP JUMPDEST POP SWAP1 POP PUSH1 0x0 JUMPDEST PUSH1 0x1 DUP1 SLOAD SWAP1 POP DUP2 LT ISZERO PUSH2 0xFEE JUMPI PUSH1 0x0 PUSH1 0x1 DUP3 DUP2 SLOAD DUP2 LT PUSH2 0xE4B JUMPI INVALID JUMPDEST SWAP1 PUSH1 0x0 MSTORE PUSH1 0x20 PUSH1 0x0 KECCAK256 SWAP1 PUSH1 0x4 MUL ADD SWAP1 POP DUP1 PUSH1 0x0 ADD SLOAD DUP6 DUP4 DUP2 MLOAD DUP2 LT PUSH2 0xE6C JUMPI INVALID JUMPDEST PUSH1 0x20 MUL PUSH1 0x20 ADD ADD DUP2 DUP2 MSTORE POP POP DUP1 PUSH1 0x1 ADD DUP1 SLOAD PUSH1 0x1 DUP2 PUSH1 0x1 AND ISZERO PUSH2 0x100 MUL SUB AND PUSH1 0x2 SWAP1 DIV DUP1 PUSH1 0x1F ADD PUSH1 0x20 DUP1 SWAP2 DIV MUL PUSH1 0x20 ADD PUSH1 0x40 MLOAD SWAP1 DUP2 ADD PUSH1 0x40 MSTORE DUP1 SWAP3 SWAP2 SWAP1 DUP2 DUP2 MSTORE PUSH1 0x20 ADD DUP3 DUP1 SLOAD PUSH1 0x1 DUP2 PUSH1 0x1 AND ISZERO PUSH2 0x100 MUL SUB AND PUSH1 0x2 SWAP1 DIV DUP1 ISZERO PUSH2 0xF10 JUMPI DUP1 PUSH1 0x1F LT PUSH2 0xEE5 JUMPI PUSH2 0x100 DUP1 DUP4 SLOAD DIV MUL DUP4 MSTORE SWAP2 PUSH1 0x20 ADD SWAP2 PUSH2 0xF10 JUMP JUMPDEST DUP3 ADD SWAP2 SWAP1 PUSH1 0x0 MSTORE PUSH1 0x20 PUSH1 0x0 KECCAK256 SWAP1 JUMPDEST DUP2 SLOAD DUP2 MSTORE SWAP1 PUSH1 0x1 ADD SWAP1 PUSH1 0x20 ADD DUP1 DUP4 GT PUSH2 0xEF3 JUMPI DUP3 SWAP1 SUB PUSH1 0x1F AND DUP3 ADD SWAP2 JUMPDEST POP POP POP POP POP DUP5 DUP4 DUP2 MLOAD DUP2 LT PUSH2 0xF21 JUMPI INVALID JUMPDEST PUSH1 0x20 MUL PUSH1 0x20 ADD ADD DUP2 SWAP1 MSTORE POP DUP1 PUSH1 0x2 ADD DUP1 SLOAD PUSH1 0x1 DUP2 PUSH1 0x1 AND ISZERO PUSH2 0x100 MUL SUB AND PUSH1 0x2 SWAP1 DIV DUP1 PUSH1 0x1F ADD PUSH1 0x20 DUP1 SWAP2 DIV MUL PUSH1 0x20 ADD PUSH1 0x40 MLOAD SWAP1 DUP2 ADD PUSH1 0x40 MSTORE DUP1 SWAP3 SWAP2 SWAP1 DUP2 DUP2 MSTORE PUSH1 0x20 ADD DUP3 DUP1 SLOAD PUSH1 0x1 DUP2 PUSH1 0x1 AND ISZERO PUSH2 0x100 MUL SUB AND PUSH1 0x2 SWAP1 DIV DUP1 ISZERO PUSH2 0xFC4 JUMPI DUP1 PUSH1 0x1F LT PUSH2 0xF99 JUMPI PUSH2 0x100 DUP1 DUP4 SLOAD DIV MUL DUP4 MSTORE SWAP2 PUSH1 0x20 ADD SWAP2 PUSH2 0xFC4 JUMP JUMPDEST DUP3 ADD SWAP2 SWAP1 PUSH1 0x0 MSTORE PUSH1 0x20 PUSH1 0x0 KECCAK256 SWAP1 JUMPDEST DUP2 SLOAD DUP2 MSTORE SWAP1 PUSH1 0x1 ADD SWAP1 PUSH1 0x20 ADD DUP1 DUP4 GT PUSH2 0xFA7 JUMPI DUP3 SWAP1 SUB PUSH1 0x1F AND DUP3 ADD SWAP2 JUMPDEST POP POP POP POP POP DUP4 DUP4 DUP2 MLOAD DUP2 LT PUSH2 0xFD5 JUMPI INVALID JUMPDEST PUSH1 0x20 MUL PUSH1 0x20 ADD ADD DUP2 SWAP1 MSTORE POP POP DUP1 DUP1 PUSH1 0x1 ADD SWAP2 POP POP PUSH2 0xE2F JUMP JUMPDEST POP DUP3 DUP3 DUP3 SWAP6 POP SWAP6 POP SWAP6 POP POP POP POP SWAP1 SWAP2 SWAP3 JUMP JUMPDEST PUSH1 0x60 PUSH1 0x0 DUP1 SLOAD SWAP1 PUSH2 0x100 EXP SWAP1 DIV PUSH20 0xFFFFFFFFFFFFFFFFFFFFFFFFFFFFFFFFFFFFFFFF AND PUSH20 0xFFFFFFFFFFFFFFFFFFFFFFFFFFFFFFFFFFFFFFFF AND CALLER PUSH20 0xFFFFFFFFFFFFFFFFFFFFFFFFFFFFFFFFFFFFFFFF AND EQ PUSH2 0x105A JUMPI PUSH1 0x0 DUP1 REVERT JUMPDEST PUSH1 0x0 JUMPDEST PUSH1 0x1 DUP1 SLOAD SWAP1 POP DUP2 LT ISZERO PUSH2 0x11EE JUMPI PUSH1 0x0 PUSH1 0x1 DUP3 DUP2 SLOAD DUP2 LT PUSH2 0x1079 JUMPI INVALID JUMPDEST SWAP1 PUSH1 0x0 MSTORE PUSH1 0x20 PUSH1 0x0 KECCAK256 SWAP1 PUSH1 0x4 MUL ADD SWAP1 POP DUP1 PUSH1 0x0 ADD SLOAD DUP5 EQ ISZERO PUSH2 0x11E0 JUMPI PUSH1 0x60 DUP2 PUSH1 0x3 ADD DUP1 SLOAD SWAP1 POP PUSH8 0xFFFFFFFFFFFFFFFF DUP2 GT DUP1 ISZERO PUSH2 0x10B5 JUMPI PUSH1 0x0 DUP1 REVERT JUMPDEST POP PUSH1 0x40 MLOAD SWAP1 DUP1 DUP3 MSTORE DUP1 PUSH1 0x20 MUL PUSH1 0x20 ADD DUP3 ADD PUSH1 0x40 MSTORE DUP1 ISZERO PUSH2 0x10E9 JUMPI DUP2 PUSH1 0x20 ADD JUMPDEST PUSH1 0x60 DUP2 MSTORE PUSH1 0x20 ADD SWAP1 PUSH1 0x1 SWAP1 SUB SWAP1 DUP2 PUSH2 0x10D4 JUMPI SWAP1 POP JUMPDEST POP SWAP1 POP PUSH1 0x0 JUMPDEST DUP3 PUSH1 0x3 ADD DUP1 SLOAD SWAP1 POP DUP2 LT ISZERO PUSH2 0x11D4 JUMPI DUP3 PUSH1 0x3 ADD DUP2 DUP2 SLOAD DUP2 LT PUSH2 0x110D JUMPI INVALID JUMPDEST SWAP1 PUSH1 0x0 MSTORE PUSH1 0x20 PUSH1 0x0 KECCAK256 ADD DUP1 SLOAD PUSH1 0x1 DUP2 PUSH1 0x1 AND ISZERO PUSH2 0x100 MUL SUB AND PUSH1 0x2 SWAP1 DIV DUP1 PUSH1 0x1F ADD PUSH1 0x20 DUP1 SWAP2 DIV MUL PUSH1 0x20 ADD PUSH1 0x40 MLOAD SWAP1 DUP2 ADD PUSH1 0x40 MSTORE DUP1 SWAP3 SWAP2 SWAP1 DUP2 DUP2 MSTORE PUSH1 0x20 ADD DUP3 DUP1 SLOAD PUSH1 0x1 DUP2 PUSH1 0x1 AND ISZERO PUSH2 0x100 MUL SUB AND PUSH1 0x2 SWAP1 DIV DUP1 ISZERO PUSH2 0x11AB JUMPI DUP1 PUSH1 0x1F LT PUSH2 0x1180 JUMPI PUSH2 0x100 DUP1 DUP4 SLOAD DIV MUL DUP4 MSTORE SWAP2 PUSH1 0x20 ADD SWAP2 PUSH2 0x11AB JUMP JUMPDEST DUP3 ADD SWAP2 SWAP1 PUSH1 0x0 MSTORE PUSH1 0x20 PUSH1 0x0 KECCAK256 SWAP1 JUMPDEST DUP2 SLOAD DUP2 MSTORE SWAP1 PUSH1 0x1 ADD SWAP1 PUSH1 0x20 ADD DUP1 DUP4 GT PUSH2 0x118E JUMPI DUP3 SWAP1 SUB PUSH1 0x1F AND DUP3 ADD SWAP2 JUMPDEST POP POP POP POP POP DUP3 DUP3 DUP2 MLOAD DUP2 LT PUSH2 0x11BC JUMPI INVALID JUMPDEST PUSH1 0x20 MUL PUSH1 0x20 ADD ADD DUP2 SWAP1 MSTORE POP DUP1 DUP1 PUSH1 0x1 ADD SWAP2 POP POP PUSH2 0x10EF JUMP JUMPDEST POP DUP1 SWAP4 POP POP POP POP PUSH2 0x11F0 JUMP JUMPDEST POP DUP1 DUP1 PUSH1 0x1 ADD SWAP2 POP POP PUSH2 0x105D JUMP JUMPDEST POP JUMPDEST SWAP2 SWAP1 POP JUMP JUMPDEST PUSH1 0x0 DUP4 PUSH1 0x0 DUP1 SHL PUSH1 0x5 PUSH1 0x0 CALLER PUSH20 0xFFFFFFFFFFFFFFFFFFFFFFFFFFFFFFFFFFFFFFFF AND PUSH20 0xFFFFFFFFFFFFFFFFFFFFFFFFFFFFFFFFFFFFFFFF AND DUP2 MSTORE PUSH1 0x20 ADD SWAP1 DUP2 MSTORE PUSH1 0x20 ADD PUSH1 0x0 KECCAK256 SLOAD EQ ISZERO PUSH2 0x1247 JUMPI PUSH1 0x0 DUP1 REVERT JUMPDEST PUSH1 0x5 PUSH1 0x0 CALLER PUSH20 0xFFFFFFFFFFFFFFFFFFFFFFFFFFFFFFFFFFFFFFFF AND PUSH20 0xFFFFFFFFFFFFFFFFFFFFFFFFFFFFFFFFFFFFFFFF AND DUP2 MSTORE PUSH1 0x20 ADD SWAP1 DUP2 MSTORE PUSH1 0x20 ADD PUSH1 0x0 KECCAK256 SLOAD DUP2 EQ PUSH2 0x1292 JUMPI PUSH1 0x0 DUP1 REVERT JUMPDEST PUSH1 0x0 JUMPDEST PUSH1 0x1 DUP1 SLOAD SWAP1 POP DUP2 LT ISZERO PUSH2 0x13A1 JUMPI PUSH1 0x1 DUP2 DUP2 SLOAD DUP2 LT PUSH2 0x12AF JUMPI INVALID JUMPDEST SWAP1 PUSH1 0x0 MSTORE PUSH1 0x20 PUSH1 0x0 KECCAK256 SWAP1 PUSH1 0x4 MUL ADD PUSH1 0x0 ADD SLOAD DUP6 EQ ISZERO PUSH2 0x1394 JUMPI PUSH1 0x0 JUMPDEST PUSH1 0x1 DUP3 DUP2 SLOAD DUP2 LT PUSH2 0x12D8 JUMPI INVALID JUMPDEST SWAP1 PUSH1 0x0 MSTORE PUSH1 0x20 PUSH1 0x0 KECCAK256 SWAP1 PUSH1 0x4 MUL ADD PUSH1 0x3 ADD DUP1 SLOAD SWAP1 POP DUP2 LT ISZERO PUSH2 0x1392 JUMPI PUSH1 0x1 DUP3 DUP2 SLOAD DUP2 LT PUSH2 0x1301 JUMPI INVALID JUMPDEST SWAP1 PUSH1 0x0 MSTORE PUSH1 0x20 PUSH1 0x0 KECCAK256 SWAP1 PUSH1 0x4 MUL ADD PUSH1 0x3 ADD DUP2 DUP2 SLOAD DUP2 LT PUSH2 0x131D JUMPI INVALID JUMPDEST SWAP1 PUSH1 0x0 MSTORE PUSH1 0x20 PUSH1 0x0 KECCAK256 ADD PUSH1 0x40 MLOAD PUSH1 0x20 ADD PUSH2 0x1337 SWAP2 SWAP1 PUSH2 0x3418 JUMP JUMPDEST PUSH1 0x40 MLOAD PUSH1 0x20 DUP2 DUP4 SUB SUB DUP2 MSTORE SWAP1 PUSH1 0x40 MSTORE DUP1 MLOAD SWAP1 PUSH1 0x20 ADD KECCAK256 DUP6 PUSH1 0x40 MLOAD PUSH1 0x20 ADD PUSH2 0x135E SWAP2 SWAP1 PUSH2 0x3401 JUMP JUMPDEST PUSH1 0x40 MLOAD PUSH1 0x20 DUP2 DUP4 SUB SUB DUP2 MSTORE SWAP1 PUSH1 0x40 MSTORE DUP1 MLOAD SWAP1 PUSH1 0x20 ADD KECCAK256 EQ ISZERO PUSH2 0x1385 JUMPI PUSH1 0x1 SWAP4 POP POP POP PUSH2 0x13A7 JUMP JUMPDEST DUP1 DUP1 PUSH1 0x1 ADD SWAP2 POP POP PUSH2 0x12CB JUMP JUMPDEST POP JUMPDEST DUP1 DUP1 PUSH1 0x1 ADD SWAP2 POP POP PUSH2 0x1295 JUMP JUMPDEST POP PUSH1 0x0 SWAP2 POP JUMPDEST POP SWAP4 SWAP3 POP POP POP JUMP JUMPDEST PUSH1 0x0 DUP1 SLOAD SWAP1 PUSH2 0x100 EXP SWAP1 DIV PUSH20 0xFFFFFFFFFFFFFFFFFFFFFFFFFFFFFFFFFFFFFFFF AND PUSH20 0xFFFFFFFFFFFFFFFFFFFFFFFFFFFFFFFFFFFFFFFF AND CALLER PUSH20 0xFFFFFFFFFFFFFFFFFFFFFFFFFFFFFFFFFFFFFFFF AND EQ PUSH2 0x1407 JUMPI PUSH1 0x0 DUP1 REVERT JUMPDEST PUSH2 0x140F PUSH2 0x2AB5 JUMP JUMPDEST PUSH1 0x40 MLOAD DUP1 PUSH1 0x40 ADD PUSH1 0x40 MSTORE DUP1 DUP4 PUSH20 0xFFFFFFFFFFFFFFFFFFFFFFFFFFFFFFFFFFFFFFFF AND DUP2 MSTORE PUSH1 0x20 ADD TIMESTAMP DUP2 MSTORE POP SWAP1 POP PUSH1 0x2 DUP2 SWAP1 DUP1 PUSH1 0x1 DUP2 SLOAD ADD DUP1 DUP3 SSTORE DUP1 SWAP2 POP POP PUSH1 0x1 SWAP1 SUB SWAP1 PUSH1 0x0 MSTORE PUSH1 0x20 PUSH1 0x0 KECCAK256 SWAP1 PUSH1 0x2 MUL ADD PUSH1 0x0 SWAP1 SWAP2 SWAP1 SWAP2 SWAP1 SWAP2 POP PUSH1 0x0 DUP3 ADD MLOAD DUP2 PUSH1 0x0 ADD PUSH1 0x0 PUSH2 0x100 EXP DUP2 SLOAD DUP2 PUSH20 0xFFFFFFFFFFFFFFFFFFFFFFFFFFFFFFFFFFFFFFFF MUL NOT AND SWAP1 DUP4 PUSH20 0xFFFFFFFFFFFFFFFFFFFFFFFFFFFFFFFFFFFFFFFF AND MUL OR SWAP1 SSTORE POP PUSH1 0x20 DUP3 ADD MLOAD DUP2 PUSH1 0x1 ADD SSTORE POP POP PUSH1 0x1 PUSH1 0x4 PUSH1 0x0 DUP5 PUSH20 0xFFFFFFFFFFFFFFFFFFFFFFFFFFFFFFFFFFFFFFFF AND PUSH20 0xFFFFFFFFFFFFFFFFFFFFFFFFFFFFFFFFFFFFFFFF AND DUP2 MSTORE PUSH1 0x20 ADD SWAP1 DUP2 MSTORE PUSH1 0x20 ADD PUSH1 0x0 KECCAK256 PUSH1 0x0 PUSH2 0x100 EXP DUP2 SLOAD DUP2 PUSH1 0xFF MUL NOT AND SWAP1 DUP4 ISZERO ISZERO MUL OR SWAP1 SSTORE POP PUSH1 0x7 PUSH1 0x0 DUP2 SLOAD DUP1 SWAP3 SWAP2 SWAP1 PUSH1 0x1 ADD SWAP2 SWAP1 POP SSTORE POP PUSH2 0x159B TIMESTAMP PUSH1 0x40 MLOAD DUP1 PUSH1 0x40 ADD PUSH1 0x40 MSTORE DUP1 PUSH1 0x9 DUP2 MSTORE PUSH1 0x20 ADD PUSH32 0x61646442726F6B65720000000000000000000000000000000000000000000000 DUP2 MSTORE POP PUSH1 0x40 MLOAD DUP1 PUSH1 0x40 ADD PUSH1 0x40 MSTORE DUP1 PUSH1 0x1 DUP2 MSTORE PUSH1 0x20 ADD PUSH32 0x2D00000000000000000000000000000000000000000000000000000000000000 DUP2 MSTORE POP CALLER PUSH2 0x2853 JUMP JUMPDEST POP POP JUMP JUMPDEST PUSH1 0x60 DUP1 PUSH1 0x60 DUP1 PUSH1 0x0 DUP1 SLOAD SWAP1 PUSH2 0x100 EXP SWAP1 DIV PUSH20 0xFFFFFFFFFFFFFFFFFFFFFFFFFFFFFFFFFFFFFFFF AND PUSH20 0xFFFFFFFFFFFFFFFFFFFFFFFFFFFFFFFFFFFFFFFF AND CALLER PUSH20 0xFFFFFFFFFFFFFFFFFFFFFFFFFFFFFFFFFFFFFFFF AND EQ PUSH2 0x15FD JUMPI PUSH1 0x0 DUP1 REVERT JUMPDEST PUSH1 0x60 PUSH1 0x9 SLOAD PUSH8 0xFFFFFFFFFFFFFFFF DUP2 GT DUP1 ISZERO PUSH2 0x1618 JUMPI PUSH1 0x0 DUP1 REVERT JUMPDEST POP PUSH1 0x40 MLOAD SWAP1 DUP1 DUP3 MSTORE DUP1 PUSH1 0x20 MUL PUSH1 0x20 ADD DUP3 ADD PUSH1 0x40 MSTORE DUP1 ISZERO PUSH2 0x1647 JUMPI DUP2 PUSH1 0x20 ADD PUSH1 0x20 DUP3 MUL DUP1 CALLDATASIZE DUP4 CALLDATACOPY DUP1 DUP3 ADD SWAP2 POP POP SWAP1 POP JUMPDEST POP SWAP1 POP PUSH1 0x60 PUSH1 0x9 SLOAD PUSH8 0xFFFFFFFFFFFFFFFF DUP2 GT DUP1 ISZERO PUSH2 0x1665 JUMPI PUSH1 0x0 DUP1 REVERT JUMPDEST POP PUSH1 0x40 MLOAD SWAP1 DUP1 DUP3 MSTORE DUP1 PUSH1 0x20 MUL PUSH1 0x20 ADD DUP3 ADD PUSH1 0x40 MSTORE DUP1 ISZERO PUSH2 0x1699 JUMPI DUP2 PUSH1 0x20 ADD JUMPDEST PUSH1 0x60 DUP2 MSTORE PUSH1 0x20 ADD SWAP1 PUSH1 0x1 SWAP1 SUB SWAP1 DUP2 PUSH2 0x1684 JUMPI SWAP1 POP JUMPDEST POP SWAP1 POP PUSH1 0x60 PUSH1 0x9 SLOAD PUSH8 0xFFFFFFFFFFFFFFFF DUP2 GT DUP1 ISZERO PUSH2 0x16B7 JUMPI PUSH1 0x0 DUP1 REVERT JUMPDEST POP PUSH1 0x40 MLOAD SWAP1 DUP1 DUP3 MSTORE DUP1 PUSH1 0x20 MUL PUSH1 0x20 ADD DUP3 ADD PUSH1 0x40 MSTORE DUP1 ISZERO PUSH2 0x16EB JUMPI DUP2 PUSH1 0x20 ADD JUMPDEST PUSH1 0x60 DUP2 MSTORE PUSH1 0x20 ADD SWAP1 PUSH1 0x1 SWAP1 SUB SWAP1 DUP2 PUSH2 0x16D6 JUMPI SWAP1 POP JUMPDEST POP SWAP1 POP PUSH1 0x60 PUSH1 0x9 SLOAD PUSH8 0xFFFFFFFFFFFFFFFF DUP2 GT DUP1 ISZERO PUSH2 0x1709 JUMPI PUSH1 0x0 DUP1 REVERT JUMPDEST POP PUSH1 0x40 MLOAD SWAP1 DUP1 DUP3 MSTORE DUP1 PUSH1 0x20 MUL PUSH1 0x20 ADD DUP3 ADD PUSH1 0x40 MSTORE DUP1 ISZERO PUSH2 0x1738 JUMPI DUP2 PUSH1 0x20 ADD PUSH1 0x20 DUP3 MUL DUP1 CALLDATASIZE DUP4 CALLDATACOPY DUP1 DUP3 ADD SWAP2 POP POP SWAP1 POP JUMPDEST POP SWAP1 POP PUSH1 0x0 JUMPDEST PUSH1 0x3 DUP1 SLOAD SWAP1 POP DUP2 LT ISZERO PUSH2 0x1968 JUMPI PUSH1 0x0 PUSH1 0x3 DUP3 DUP2 SLOAD DUP2 LT PUSH2 0x175A JUMPI INVALID JUMPDEST SWAP1 PUSH1 0x0 MSTORE PUSH1 0x20 PUSH1 0x0 KECCAK256 SWAP1 PUSH1 0x4 MUL ADD SWAP1 POP DUP1 PUSH1 0x0 ADD SLOAD DUP7 DUP4 DUP2 MLOAD DUP2 LT PUSH2 0x177B JUMPI INVALID JUMPDEST PUSH1 0x20 MUL PUSH1 0x20 ADD ADD DUP2 DUP2 MSTORE POP POP DUP1 PUSH1 0x1 ADD DUP1 SLOAD PUSH1 0x1 DUP2 PUSH1 0x1 AND ISZERO PUSH2 0x100 MUL SUB AND PUSH1 0x2 SWAP1 DIV DUP1 PUSH1 0x1F ADD PUSH1 0x20 DUP1 SWAP2 DIV MUL PUSH1 0x20 ADD PUSH1 0x40 MLOAD SWAP1 DUP2 ADD PUSH1 0x40 MSTORE DUP1 SWAP3 SWAP2 SWAP1 DUP2 DUP2 MSTORE PUSH1 0x20 ADD DUP3 DUP1 SLOAD PUSH1 0x1 DUP2 PUSH1 0x1 AND ISZERO PUSH2 0x100 MUL SUB AND PUSH1 0x2 SWAP1 DIV DUP1 ISZERO PUSH2 0x181F JUMPI DUP1 PUSH1 0x1F LT PUSH2 0x17F4 JUMPI PUSH2 0x100 DUP1 DUP4 SLOAD DIV MUL DUP4 MSTORE SWAP2 PUSH1 0x20 ADD SWAP2 PUSH2 0x181F JUMP JUMPDEST DUP3 ADD SWAP2 SWAP1 PUSH1 0x0 MSTORE PUSH1 0x20 PUSH1 0x0 KECCAK256 SWAP1 JUMPDEST DUP2 SLOAD DUP2 MSTORE SWAP1 PUSH1 0x1 ADD SWAP1 PUSH1 0x20 ADD DUP1 DUP4 GT PUSH2 0x1802 JUMPI DUP3 SWAP1 SUB PUSH1 0x1F AND DUP3 ADD SWAP2 JUMPDEST POP POP POP POP POP DUP6 DUP4 DUP2 MLOAD DUP2 LT PUSH2 0x1830 JUMPI INVALID JUMPDEST PUSH1 0x20 MUL PUSH1 0x20 ADD ADD DUP2 SWAP1 MSTORE POP DUP1 PUSH1 0x2 ADD DUP1 SLOAD PUSH1 0x1 DUP2 PUSH1 0x1 AND ISZERO PUSH2 0x100 MUL SUB AND PUSH1 0x2 SWAP1 DIV DUP1 PUSH1 0x1F ADD PUSH1 0x20 DUP1 SWAP2 DIV MUL PUSH1 0x20 ADD PUSH1 0x40 MLOAD SWAP1 DUP2 ADD PUSH1 0x40 MSTORE DUP1 SWAP3 SWAP2 SWAP1 DUP2 DUP2 MSTORE PUSH1 0x20 ADD DUP3 DUP1 SLOAD PUSH1 0x1 DUP2 PUSH1 0x1 AND ISZERO PUSH2 0x100 MUL SUB AND PUSH1 0x2 SWAP1 DIV DUP1 ISZERO PUSH2 0x18D3 JUMPI DUP1 PUSH1 0x1F LT PUSH2 0x18A8 JUMPI PUSH2 0x100 DUP1 DUP4 SLOAD DIV MUL DUP4 MSTORE SWAP2 PUSH1 0x20 ADD SWAP2 PUSH2 0x18D3 JUMP JUMPDEST DUP3 ADD SWAP2 SWAP1 PUSH1 0x0 MSTORE PUSH1 0x20 PUSH1 0x0 KECCAK256 SWAP1 JUMPDEST DUP2 SLOAD DUP2 MSTORE SWAP1 PUSH1 0x1 ADD SWAP1 PUSH1 0x20 ADD DUP1 DUP4 GT PUSH2 0x18B6 JUMPI DUP3 SWAP1 SUB PUSH1 0x1F AND DUP3 ADD SWAP2 JUMPDEST POP POP POP POP POP DUP5 DUP4 DUP2 MLOAD DUP2 LT PUSH2 0x18E4 JUMPI INVALID JUMPDEST PUSH1 0x20 MUL PUSH1 0x20 ADD ADD DUP2 SWAP1 MSTORE POP DUP1 PUSH1 0x3 ADD PUSH1 0x0 SWAP1 SLOAD SWAP1 PUSH2 0x100 EXP SWAP1 DIV PUSH20 0xFFFFFFFFFFFFFFFFFFFFFFFFFFFFFFFFFFFFFFFF AND DUP4 DUP4 DUP2 MLOAD DUP2 LT PUSH2 0x1920 JUMPI INVALID JUMPDEST PUSH1 0x20 MUL PUSH1 0x20 ADD ADD SWAP1 PUSH20 0xFFFFFFFFFFFFFFFFFFFFFFFFFFFFFFFFFFFFFFFF AND SWAP1 DUP2 PUSH20 0xFFFFFFFFFFFFFFFFFFFFFFFFFFFFFFFFFFFFFFFF AND DUP2 MSTORE POP POP POP DUP1 DUP1 PUSH1 0x1 ADD SWAP2 POP POP PUSH2 0x173E JUMP JUMPDEST POP DUP4 DUP4 DUP4 DUP4 SWAP8 POP SWAP8 POP SWAP8 POP SWAP8 POP POP POP POP POP SWAP1 SWAP2 SWAP3 SWAP4 JUMP JUMPDEST PUSH1 0x0 DUP1 SLOAD SWAP1 PUSH2 0x100 EXP SWAP1 DIV PUSH20 0xFFFFFFFFFFFFFFFFFFFFFFFFFFFFFFFFFFFFFFFF AND PUSH20 0xFFFFFFFFFFFFFFFFFFFFFFFFFFFFFFFFFFFFFFFF AND CALLER PUSH20 0xFFFFFFFFFFFFFFFFFFFFFFFFFFFFFFFFFFFFFFFF AND EQ PUSH2 0x19D7 JUMPI PUSH1 0x0 DUP1 REVERT JUMPDEST PUSH2 0x19DF PUSH2 0x2AE5 JUMP JUMPDEST PUSH1 0x40 MLOAD DUP1 PUSH1 0x80 ADD PUSH1 0x40 MSTORE DUP1 PUSH1 0x8 SLOAD DUP2 MSTORE PUSH1 0x20 ADD DUP5 DUP2 MSTORE PUSH1 0x20 ADD DUP4 DUP2 MSTORE PUSH1 0x20 ADD PUSH1 0x0 PUSH8 0xFFFFFFFFFFFFFFFF DUP2 GT DUP1 ISZERO PUSH2 0x1A16 JUMPI PUSH1 0x0 DUP1 REVERT JUMPDEST POP PUSH1 0x40 MLOAD SWAP1 DUP1 DUP3 MSTORE DUP1 PUSH1 0x20 MUL PUSH1 0x20 ADD DUP3 ADD PUSH1 0x40 MSTORE DUP1 ISZERO PUSH2 0x1A4A JUMPI DUP2 PUSH1 0x20 ADD JUMPDEST PUSH1 0x60 DUP2 MSTORE PUSH1 0x20 ADD SWAP1 PUSH1 0x1 SWAP1 SUB SWAP1 DUP2 PUSH2 0x1A35 JUMPI SWAP1 POP JUMPDEST POP DUP2 MSTORE POP SWAP1 POP PUSH1 0x6 PUSH1 0x0 DUP2 SLOAD DUP1 SWAP3 SWAP2 SWAP1 PUSH1 0x1 ADD SWAP2 SWAP1 POP SSTORE POP PUSH1 0x8 PUSH1 0x0 DUP2 SLOAD DUP1 SWAP3 SWAP2 SWAP1 PUSH1 0x1 ADD SWAP2 SWAP1 POP SSTORE POP PUSH1 0x1 DUP2 SWAP1 DUP1 PUSH1 0x1 DUP2 SLOAD ADD DUP1 DUP3 SSTORE DUP1 SWAP2 POP POP PUSH1 0x1 SWAP1 SUB SWAP1 PUSH1 0x0 MSTORE PUSH1 0x20 PUSH1 0x0 KECCAK256 SWAP1 PUSH1 0x4 MUL ADD PUSH1 0x0 SWAP1 SWAP2 SWAP1 SWAP2 SWAP1 SWAP2 POP PUSH1 0x0 DUP3 ADD MLOAD DUP2 PUSH1 0x0 ADD SSTORE PUSH1 0x20 DUP3 ADD MLOAD DUP2 PUSH1 0x1 ADD SWAP1 DUP1 MLOAD SWAP1 PUSH1 0x20 ADD SWAP1 PUSH2 0x1AC6 SWAP3 SWAP2 SWAP1 PUSH2 0x2966 JUMP JUMPDEST POP PUSH1 0x40 DUP3 ADD MLOAD DUP2 PUSH1 0x2 ADD SWAP1 DUP1 MLOAD SWAP1 PUSH1 0x20 ADD SWAP1 PUSH2 0x1AE3 SWAP3 SWAP2 SWAP1 PUSH2 0x2966 JUMP JUMPDEST POP PUSH1 0x60 DUP3 ADD MLOAD DUP2 PUSH1 0x3 ADD SWAP1 DUP1 MLOAD SWAP1 PUSH1 0x20 ADD SWAP1 PUSH2 0x1B00 SWAP3 SWAP2 SWAP1 PUSH2 0x2B0D JUMP JUMPDEST POP POP POP PUSH2 0x1B79 TIMESTAMP PUSH1 0x40 MLOAD DUP1 PUSH1 0x40 ADD PUSH1 0x40 MSTORE DUP1 PUSH1 0x9 DUP2 MSTORE PUSH1 0x20 ADD PUSH32 0x616464436C69656E740000000000000000000000000000000000000000000000 DUP2 MSTORE POP PUSH1 0x40 MLOAD DUP1 PUSH1 0x40 ADD PUSH1 0x40 MSTORE DUP1 PUSH1 0x12 DUP2 MSTORE PUSH1 0x20 ADD PUSH32 0x61206E657720636C69656E742061646465640000000000000000000000000000 DUP2 MSTORE POP CALLER PUSH2 0x2853 JUMP JUMPDEST POP POP POP JUMP JUMPDEST PUSH1 0x0 DUP1 SLOAD SWAP1 PUSH2 0x100 EXP SWAP1 DIV PUSH20 0xFFFFFFFFFFFFFFFFFFFFFFFFFFFFFFFFFFFFFFFF AND PUSH20 0xFFFFFFFFFFFFFFFFFFFFFFFFFFFFFFFFFFFFFFFF AND CALLER PUSH20 0xFFFFFFFFFFFFFFFFFFFFFFFFFFFFFFFFFFFFFFFF AND EQ PUSH2 0x1BD6 JUMPI PUSH1 0x0 DUP1 REVERT JUMPDEST PUSH1 0x0 JUMPDEST PUSH1 0x1 DUP1 SLOAD SWAP1 POP DUP2 LT ISZERO PUSH2 0x1DAF JUMPI PUSH1 0x1 DUP2 DUP2 SLOAD DUP2 LT PUSH2 0x1BF3 JUMPI INVALID JUMPDEST SWAP1 PUSH1 0x0 MSTORE PUSH1 0x20 PUSH1 0x0 KECCAK256 SWAP1 PUSH1 0x4 MUL ADD PUSH1 0x0 ADD SLOAD DUP3 EQ ISZERO PUSH2 0x1DA2 JUMPI PUSH1 0x1 DUP1 DUP1 DUP1 SLOAD SWAP1 POP SUB DUP2 SLOAD DUP2 LT PUSH2 0x1C1F JUMPI INVALID JUMPDEST SWAP1 PUSH1 0x0 MSTORE PUSH1 0x20 PUSH1 0x0 KECCAK256 SWAP1 PUSH1 0x4 MUL ADD PUSH1 0x1 DUP3 DUP2 SLOAD DUP2 LT PUSH2 0x1C3A JUMPI INVALID JUMPDEST SWAP1 PUSH1 0x0 MSTORE PUSH1 0x20 PUSH1 0x0 KECCAK256 SWAP1 PUSH1 0x4 MUL ADD PUSH1 0x0 DUP3 ADD SLOAD DUP2 PUSH1 0x0 ADD SSTORE PUSH1 0x1 DUP3 ADD DUP2 PUSH1 0x1 ADD SWAP1 DUP1 SLOAD PUSH1 0x1 DUP2 PUSH1 0x1 AND ISZERO PUSH2 0x100 MUL SUB AND PUSH1 0x2 SWAP1 DIV PUSH2 0x1C79 SWAP3 SWAP2 SWAP1 PUSH2 0x2B6D JUMP JUMPDEST POP PUSH1 0x2 DUP3 ADD DUP2 PUSH1 0x2 ADD SWAP1 DUP1 SLOAD PUSH1 0x1 DUP2 PUSH1 0x1 AND ISZERO PUSH2 0x100 MUL SUB AND PUSH1 0x2 SWAP1 DIV PUSH2 0x1CA1 SWAP3 SWAP2 SWAP1 PUSH2 0x2B6D JUMP JUMPDEST POP PUSH1 0x3 DUP3 ADD DUP2 PUSH1 0x3 ADD SWAP1 DUP1 SLOAD PUSH2 0x1CB8 SWAP3 SWAP2 SWAP1 PUSH2 0x2BF4 JUMP JUMPDEST POP SWAP1 POP POP PUSH1 0x1 DUP1 SLOAD DUP1 PUSH2 0x1CC7 JUMPI INVALID JUMPDEST PUSH1 0x1 SWAP1 SUB DUP2 DUP2 SWAP1 PUSH1 0x0 MSTORE PUSH1 0x20 PUSH1 0x0 KECCAK256 SWAP1 PUSH1 0x4 MUL ADD PUSH1 0x0 DUP1 DUP3 ADD PUSH1 0x0 SWAP1 SSTORE PUSH1 0x1 DUP3 ADD PUSH1 0x0 PUSH2 0x1CF4 SWAP2 SWAP1 PUSH2 0x2A6D JUMP JUMPDEST PUSH1 0x2 DUP3 ADD PUSH1 0x0 PUSH2 0x1D04 SWAP2 SWAP1 PUSH2 0x2A6D JUMP JUMPDEST PUSH1 0x3 DUP3 ADD PUSH1 0x0 PUSH2 0x1D14 SWAP2 SWAP1 PUSH2 0x2C64 JUMP JUMPDEST POP POP SWAP1 SSTORE PUSH1 0x6 PUSH1 0x0 DUP2 SLOAD DUP1 SWAP3 SWAP2 SWAP1 PUSH1 0x1 SWAP1 SUB SWAP2 SWAP1 POP SSTORE POP PUSH2 0x1DA1 TIMESTAMP PUSH1 0x40 MLOAD DUP1 PUSH1 0x40 ADD PUSH1 0x40 MSTORE DUP1 PUSH1 0xC DUP2 MSTORE PUSH1 0x20 ADD PUSH32 0x64656C657465436C69656E740000000000000000000000000000000000000000 DUP2 MSTORE POP PUSH1 0x40 MLOAD DUP1 PUSH1 0x40 ADD PUSH1 0x40 MSTORE DUP1 PUSH1 0x19 DUP2 MSTORE PUSH1 0x20 ADD PUSH32 0x6120636C69656E7420686173206265656E2064656C6574656400000000000000 DUP2 MSTORE POP CALLER PUSH2 0x2853 JUMP JUMPDEST JUMPDEST DUP1 DUP1 PUSH1 0x1 ADD SWAP2 POP POP PUSH2 0x1BD9 JUMP JUMPDEST POP POP JUMP JUMPDEST PUSH1 0x60 PUSH1 0x0 DUP1 SLOAD SWAP1 PUSH2 0x100 EXP SWAP1 DIV PUSH20 0xFFFFFFFFFFFFFFFFFFFFFFFFFFFFFFFFFFFFFFFF AND PUSH20 0xFFFFFFFFFFFFFFFFFFFFFFFFFFFFFFFFFFFFFFFF AND CALLER PUSH20 0xFFFFFFFFFFFFFFFFFFFFFFFFFFFFFFFFFFFFFFFF AND EQ PUSH2 0x1E0D JUMPI PUSH1 0x0 DUP1 REVERT JUMPDEST PUSH1 0x60 PUSH1 0x7 SLOAD PUSH8 0xFFFFFFFFFFFFFFFF DUP2 GT DUP1 ISZERO PUSH2 0x1E28 JUMPI PUSH1 0x0 DUP1 REVERT JUMPDEST POP PUSH1 0x40 MLOAD SWAP1 DUP1 DUP3 MSTORE DUP1 PUSH1 0x20 MUL PUSH1 0x20 ADD DUP3 ADD PUSH1 0x40 MSTORE DUP1 ISZERO PUSH2 0x1E57 JUMPI DUP2 PUSH1 0x20 ADD PUSH1 0x20 DUP3 MUL DUP1 CALLDATASIZE DUP4 CALLDATACOPY DUP1 DUP3 ADD SWAP2 POP POP SWAP1 POP JUMPDEST POP SWAP1 POP PUSH1 0x0 JUMPDEST PUSH1 0x2 DUP1 SLOAD SWAP1 POP DUP2 LT ISZERO PUSH2 0x1EFC JUMPI PUSH1 0x2 DUP2 DUP2 SLOAD DUP2 LT PUSH2 0x1E77 JUMPI INVALID JUMPDEST SWAP1 PUSH1 0x0 MSTORE PUSH1 0x20 PUSH1 0x0 KECCAK256 SWAP1 PUSH1 0x2 MUL ADD PUSH1 0x0 ADD PUSH1 0x0 SWAP1 SLOAD SWAP1 PUSH2 0x100 EXP SWAP1 DIV PUSH20 0xFFFFFFFFFFFFFFFFFFFFFFFFFFFFFFFFFFFFFFFF AND DUP3 DUP3 DUP2 MLOAD DUP2 LT PUSH2 0x1EB5 JUMPI INVALID JUMPDEST PUSH1 0x20 MUL PUSH1 0x20 ADD ADD SWAP1 PUSH20 0xFFFFFFFFFFFFFFFFFFFFFFFFFFFFFFFFFFFFFFFF AND SWAP1 DUP2 PUSH20 0xFFFFFFFFFFFFFFFFFFFFFFFFFFFFFFFFFFFFFFFF AND DUP2 MSTORE POP POP DUP1 DUP1 PUSH1 0x1 ADD SWAP2 POP POP PUSH2 0x1E5D JUMP JUMPDEST POP DUP1 SWAP2 POP POP SWAP1 JUMP JUMPDEST PUSH1 0x0 DUP5 PUSH1 0x0 DUP1 SHL PUSH1 0x5 PUSH1 0x0 CALLER PUSH20 0xFFFFFFFFFFFFFFFFFFFFFFFFFFFFFFFFFFFFFFFF AND PUSH20 0xFFFFFFFFFFFFFFFFFFFFFFFFFFFFFFFFFFFFFFFF AND DUP2 MSTORE PUSH1 0x20 ADD SWAP1 DUP2 MSTORE PUSH1 0x20 ADD PUSH1 0x0 KECCAK256 SLOAD EQ ISZERO PUSH2 0x1F56 JUMPI PUSH1 0x0 DUP1 REVERT JUMPDEST PUSH1 0x5 PUSH1 0x0 CALLER PUSH20 0xFFFFFFFFFFFFFFFFFFFFFFFFFFFFFFFFFFFFFFFF AND PUSH20 0xFFFFFFFFFFFFFFFFFFFFFFFFFFFFFFFFFFFFFFFF AND DUP2 MSTORE PUSH1 0x20 ADD SWAP1 DUP2 MSTORE PUSH1 0x20 ADD PUSH1 0x0 KECCAK256 SLOAD DUP2 EQ PUSH2 0x1FA1 JUMPI PUSH1 0x0 DUP1 REVERT JUMPDEST PUSH1 0x0 JUMPDEST PUSH1 0x1 DUP1 SLOAD SWAP1 POP DUP2 LT ISZERO PUSH2 0x20D6 JUMPI PUSH1 0x1 DUP2 DUP2 SLOAD DUP2 LT PUSH2 0x1FBE JUMPI INVALID JUMPDEST SWAP1 PUSH1 0x0 MSTORE PUSH1 0x20 PUSH1 0x0 KECCAK256 SWAP1 PUSH1 0x4 MUL ADD PUSH1 0x0 ADD SLOAD DUP7 EQ DUP1 ISZERO PUSH2 0x2046 JUMPI POP PUSH1 0x1 DUP2 DUP2 SLOAD DUP2 LT PUSH2 0x1FE6 JUMPI INVALID JUMPDEST SWAP1 PUSH1 0x0 MSTORE PUSH1 0x20 PUSH1 0x0 KECCAK256 SWAP1 PUSH1 0x4 MUL ADD PUSH1 0x1 ADD PUSH1 0x40 MLOAD PUSH1 0x20 ADD PUSH2 0x2007 SWAP2 SWAP1 PUSH2 0x3418 JUMP JUMPDEST PUSH1 0x40 MLOAD PUSH1 0x20 DUP2 DUP4 SUB SUB DUP2 MSTORE SWAP1 PUSH1 0x40 MSTORE DUP1 MLOAD SWAP1 PUSH1 0x20 ADD KECCAK256 DUP6 PUSH1 0x40 MLOAD PUSH1 0x20 ADD PUSH2 0x202E SWAP2 SWAP1 PUSH2 0x3401 JUMP JUMPDEST PUSH1 0x40 MLOAD PUSH1 0x20 DUP2 DUP4 SUB SUB DUP2 MSTORE SWAP1 PUSH1 0x40 MSTORE DUP1 MLOAD SWAP1 PUSH1 0x20 ADD KECCAK256 EQ JUMPDEST DUP1 ISZERO PUSH2 0x20BA JUMPI POP PUSH1 0x1 DUP2 DUP2 SLOAD DUP2 LT PUSH2 0x205A JUMPI INVALID JUMPDEST SWAP1 PUSH1 0x0 MSTORE PUSH1 0x20 PUSH1 0x0 KECCAK256 SWAP1 PUSH1 0x4 MUL ADD PUSH1 0x2 ADD PUSH1 0x40 MLOAD PUSH1 0x20 ADD PUSH2 0x207B SWAP2 SWAP1 PUSH2 0x3418 JUMP JUMPDEST PUSH1 0x40 MLOAD PUSH1 0x20 DUP2 DUP4 SUB SUB DUP2 MSTORE SWAP1 PUSH1 0x40 MSTORE DUP1 MLOAD SWAP1 PUSH1 0x20 ADD KECCAK256 DUP5 PUSH1 0x40 MLOAD PUSH1 0x20 ADD PUSH2 0x20A2 SWAP2 SWAP1 PUSH2 0x3401 JUMP JUMPDEST PUSH1 0x40 MLOAD PUSH1 0x20 DUP2 DUP4 SUB SUB DUP2 MSTORE SWAP1 PUSH1 0x40 MSTORE DUP1 MLOAD SWAP1 PUSH1 0x20 ADD KECCAK256 EQ JUMPDEST ISZERO PUSH2 0x20C9 JUMPI PUSH1 0x1 SWAP3 POP POP PUSH2 0x20DC JUMP JUMPDEST DUP1 DUP1 PUSH1 0x1 ADD SWAP2 POP POP PUSH2 0x1FA4 JUMP JUMPDEST POP PUSH1 0x0 SWAP2 POP JUMPDEST POP SWAP5 SWAP4 POP POP POP POP JUMP JUMPDEST PUSH1 0x0 DUP1 SLOAD SWAP1 PUSH2 0x100 EXP SWAP1 DIV PUSH20 0xFFFFFFFFFFFFFFFFFFFFFFFFFFFFFFFFFFFFFFFF AND PUSH20 0xFFFFFFFFFFFFFFFFFFFFFFFFFFFFFFFFFFFFFFFF AND CALLER PUSH20 0xFFFFFFFFFFFFFFFFFFFFFFFFFFFFFFFFFFFFFFFF AND EQ PUSH2 0x213D JUMPI PUSH1 0x0 DUP1 REVERT JUMPDEST PUSH1 0x0 JUMPDEST PUSH1 0x1 DUP1 SLOAD SWAP1 POP DUP2 LT ISZERO PUSH2 0x22B8 JUMPI PUSH1 0x0 PUSH1 0x1 DUP3 DUP2 SLOAD DUP2 LT PUSH2 0x215C JUMPI INVALID JUMPDEST SWAP1 PUSH1 0x0 MSTORE PUSH1 0x20 PUSH1 0x0 KECCAK256 SWAP1 PUSH1 0x4 MUL ADD SWAP1 POP DUP1 PUSH1 0x0 ADD SLOAD DUP6 EQ ISZERO PUSH2 0x22AA JUMPI PUSH1 0x0 JUMPDEST DUP2 PUSH1 0x3 ADD DUP1 SLOAD SWAP1 POP DUP2 LT ISZERO PUSH2 0x22A8 JUMPI DUP5 PUSH1 0x40 MLOAD PUSH1 0x20 ADD PUSH2 0x219B SWAP2 SWAP1 PUSH2 0x3401 JUMP JUMPDEST PUSH1 0x40 MLOAD PUSH1 0x20 DUP2 DUP4 SUB SUB DUP2 MSTORE SWAP1 PUSH1 0x40 MSTORE DUP1 MLOAD SWAP1 PUSH1 0x20 ADD KECCAK256 DUP3 PUSH1 0x3 ADD DUP3 DUP2 SLOAD DUP2 LT PUSH2 0x21C0 JUMPI INVALID JUMPDEST SWAP1 PUSH1 0x0 MSTORE PUSH1 0x20 PUSH1 0x0 KECCAK256 ADD PUSH1 0x40 MLOAD PUSH1 0x20 ADD PUSH2 0x21DA SWAP2 SWAP1 PUSH2 0x3418 JUMP JUMPDEST PUSH1 0x40 MLOAD PUSH1 0x20 DUP2 DUP4 SUB SUB DUP2 MSTORE SWAP1 PUSH1 0x40 MSTORE DUP1 MLOAD SWAP1 PUSH1 0x20 ADD KECCAK256 EQ ISZERO PUSH2 0x229B JUMPI DUP4 DUP3 PUSH1 0x3 ADD DUP3 DUP2 SLOAD DUP2 LT PUSH2 0x2206 JUMPI INVALID JUMPDEST SWAP1 PUSH1 0x0 MSTORE PUSH1 0x20 PUSH1 0x0 KECCAK256 ADD SWAP1 DUP1 MLOAD SWAP1 PUSH1 0x20 ADD SWAP1 PUSH2 0x2223 SWAP3 SWAP2 SWAP1 PUSH2 0x2966 JUMP JUMPDEST POP PUSH2 0x229A TIMESTAMP PUSH1 0x40 MLOAD DUP1 PUSH1 0x40 ADD PUSH1 0x40 MSTORE DUP1 PUSH1 0xB DUP2 MSTORE PUSH1 0x20 ADD PUSH32 0x757064617465546F706963000000000000000000000000000000000000000000 DUP2 MSTORE POP PUSH1 0x40 MLOAD DUP1 PUSH1 0x40 ADD PUSH1 0x40 MSTORE DUP1 PUSH1 0x18 DUP2 MSTORE PUSH1 0x20 ADD PUSH32 0x6120746F70696320686173206265656E20757064617465640000000000000000 DUP2 MSTORE POP CALLER PUSH2 0x2853 JUMP JUMPDEST JUMPDEST DUP1 DUP1 PUSH1 0x1 ADD SWAP2 POP POP PUSH2 0x217B JUMP JUMPDEST POP JUMPDEST POP DUP1 DUP1 PUSH1 0x1 ADD SWAP2 POP POP PUSH2 0x2140 JUMP JUMPDEST POP POP POP POP JUMP JUMPDEST PUSH1 0x4 PUSH1 0x0 CALLER PUSH20 0xFFFFFFFFFFFFFFFFFFFFFFFFFFFFFFFFFFFFFFFF AND PUSH20 0xFFFFFFFFFFFFFFFFFFFFFFFFFFFFFFFFFFFFFFFF AND DUP2 MSTORE PUSH1 0x20 ADD SWAP1 DUP2 MSTORE PUSH1 0x20 ADD PUSH1 0x0 KECCAK256 PUSH1 0x0 SWAP1 SLOAD SWAP1 PUSH2 0x100 EXP SWAP1 DIV PUSH1 0xFF AND PUSH2 0x2314 JUMPI PUSH1 0x0 DUP1 REVERT JUMPDEST PUSH1 0x0 JUMPDEST PUSH1 0x2 DUP1 SLOAD SWAP1 POP DUP2 LT ISZERO PUSH2 0x2850 JUMPI PUSH1 0x2 DUP2 DUP2 SLOAD DUP2 LT PUSH2 0x2331 JUMPI INVALID JUMPDEST SWAP1 PUSH1 0x0 MSTORE PUSH1 0x20 PUSH1 0x0 KECCAK256 SWAP1 PUSH1 0x2 MUL ADD PUSH1 0x0 ADD PUSH1 0x0 SWAP1 SLOAD SWAP1 PUSH2 0x100 EXP SWAP1 DIV PUSH20 0xFFFFFFFFFFFFFFFFFFFFFFFFFFFFFFFFFFFFFFFF AND PUSH20 0xFFFFFFFFFFFFFFFFFFFFFFFFFFFFFFFFFFFFFFFF AND CALLER PUSH20 0xFFFFFFFFFFFFFFFFFFFFFFFFFFFFFFFFFFFFFFFF AND EQ ISZERO PUSH2 0x2843 JUMPI PUSH1 0x0 TIMESTAMP SWAP1 POP PUSH1 0x0 PUSH1 0x2 DUP4 DUP2 SLOAD DUP2 LT PUSH2 0x23AA JUMPI INVALID JUMPDEST SWAP1 PUSH1 0x0 MSTORE PUSH1 0x20 PUSH1 0x0 KECCAK256 SWAP1 PUSH1 0x2 MUL ADD PUSH1 0x1 ADD SLOAD DUP3 SUB SWAP1 POP PUSH1 0xF0 DUP2 GT ISZERO PUSH2 0x2618 JUMPI DUP2 PUSH1 0x2 DUP5 DUP2 SLOAD DUP2 LT PUSH2 0x23D7 JUMPI INVALID JUMPDEST SWAP1 PUSH1 0x0 MSTORE PUSH1 0x20 PUSH1 0x0 KECCAK256 SWAP1 PUSH1 0x2 MUL ADD PUSH1 0x1 ADD DUP2 SWAP1 SSTORE POP CALLER PUSH1 0x2 DUP5 DUP2 SLOAD DUP2 LT PUSH2 0x23FA JUMPI INVALID JUMPDEST SWAP1 PUSH1 0x0 MSTORE PUSH1 0x20 PUSH1 0x0 KECCAK256 SWAP1 PUSH1 0x2 MUL ADD PUSH1 0x1 ADD SLOAD PUSH1 0x40 MLOAD PUSH1 0x20 ADD PUSH2 0x241D SWAP3 SWAP2 SWAP1 PUSH2 0x33D5 JUMP JUMPDEST PUSH1 0x40 MLOAD PUSH1 0x20 DUP2 DUP4 SUB SUB DUP2 MSTORE SWAP1 PUSH1 0x40 MSTORE DUP1 MLOAD SWAP1 PUSH1 0x20 ADD KECCAK256 PUSH1 0x5 PUSH1 0x0 PUSH1 0x2 DUP7 DUP2 SLOAD DUP2 LT PUSH2 0x2444 JUMPI INVALID JUMPDEST SWAP1 PUSH1 0x0 MSTORE PUSH1 0x20 PUSH1 0x0 KECCAK256 SWAP1 PUSH1 0x2 MUL ADD PUSH1 0x0 ADD PUSH1 0x0 SWAP1 SLOAD SWAP1 PUSH2 0x100 EXP SWAP1 DIV PUSH20 0xFFFFFFFFFFFFFFFFFFFFFFFFFFFFFFFFFFFFFFFF AND PUSH20 0xFFFFFFFFFFFFFFFFFFFFFFFFFFFFFFFFFFFFFFFF AND PUSH20 0xFFFFFFFFFFFFFFFFFFFFFFFFFFFFFFFFFFFFFFFF AND DUP2 MSTORE PUSH1 0x20 ADD SWAP1 DUP2 MSTORE PUSH1 0x20 ADD PUSH1 0x0 KECCAK256 DUP2 SWAP1 SSTORE POP PUSH2 0x252A TIMESTAMP PUSH1 0x40 MLOAD DUP1 PUSH1 0x40 ADD PUSH1 0x40 MSTORE DUP1 PUSH1 0xC DUP2 MSTORE PUSH1 0x20 ADD PUSH32 0x72656672657368546F6B656E0000000000000000000000000000000000000000 DUP2 MSTORE POP PUSH1 0x40 MLOAD DUP1 PUSH1 0x40 ADD PUSH1 0x40 MSTORE DUP1 PUSH1 0xC DUP2 MSTORE PUSH1 0x20 ADD PUSH32 0x746F6B656E206469756261680000000000000000000000000000000000000000 DUP2 MSTORE POP CALLER PUSH2 0x2853 JUMP JUMPDEST PUSH32 0x504E9E94E0C65229AAF8CABE153380CC35DA3135E30129BC3195F7E031CDF82B PUSH1 0x5 PUSH1 0x0 PUSH1 0x2 DUP7 DUP2 SLOAD DUP2 LT PUSH2 0x255C JUMPI INVALID JUMPDEST SWAP1 PUSH1 0x0 MSTORE PUSH1 0x20 PUSH1 0x0 KECCAK256 SWAP1 PUSH1 0x2 MUL ADD PUSH1 0x0 ADD PUSH1 0x0 SWAP1 SLOAD SWAP1 PUSH2 0x100 EXP SWAP1 DIV PUSH20 0xFFFFFFFFFFFFFFFFFFFFFFFFFFFFFFFFFFFFFFFF AND PUSH20 0xFFFFFFFFFFFFFFFFFFFFFFFFFFFFFFFFFFFFFFFF AND PUSH20 0xFFFFFFFFFFFFFFFFFFFFFFFFFFFFFFFFFFFFFFFF AND DUP2 MSTORE PUSH1 0x20 ADD SWAP1 DUP2 MSTORE PUSH1 0x20 ADD PUSH1 0x0 KECCAK256 SLOAD PUSH1 0x40 MLOAD PUSH2 0x25D6 SWAP2 SWAP1 PUSH2 0x3556 JUMP JUMPDEST PUSH1 0x40 MLOAD DUP1 SWAP2 SUB SWAP1 LOG1 PUSH32 0xB6F921ADE0DE8DA9E62E948D90AE6F2DD6B678679AD77753C75FE1B6D9A72004 PUSH1 0x40 MLOAD PUSH2 0x260B SWAP1 PUSH2 0x3571 JUMP JUMPDEST PUSH1 0x40 MLOAD DUP1 SWAP2 SUB SWAP1 LOG1 PUSH2 0x2840 JUMP JUMPDEST CALLER PUSH1 0x2 DUP5 DUP2 SLOAD DUP2 LT PUSH2 0x2626 JUMPI INVALID JUMPDEST SWAP1 PUSH1 0x0 MSTORE PUSH1 0x20 PUSH1 0x0 KECCAK256 SWAP1 PUSH1 0x2 MUL ADD PUSH1 0x1 ADD SLOAD PUSH1 0x40 MLOAD PUSH1 0x20 ADD PUSH2 0x2649 SWAP3 SWAP2 SWAP1 PUSH2 0x33D5 JUMP JUMPDEST PUSH1 0x40 MLOAD PUSH1 0x20 DUP2 DUP4 SUB SUB DUP2 MSTORE SWAP1 PUSH1 0x40 MSTORE DUP1 MLOAD SWAP1 PUSH1 0x20 ADD KECCAK256 PUSH1 0x5 PUSH1 0x0 PUSH1 0x2 DUP7 DUP2 SLOAD DUP2 LT PUSH2 0x2670 JUMPI INVALID JUMPDEST SWAP1 PUSH1 0x0 MSTORE PUSH1 0x20 PUSH1 0x0 KECCAK256 SWAP1 PUSH1 0x2 MUL ADD PUSH1 0x0 ADD PUSH1 0x0 SWAP1 SLOAD SWAP1 PUSH2 0x100 EXP SWAP1 DIV PUSH20 0xFFFFFFFFFFFFFFFFFFFFFFFFFFFFFFFFFFFFFFFF AND PUSH20 0xFFFFFFFFFFFFFFFFFFFFFFFFFFFFFFFFFFFFFFFF AND PUSH20 0xFFFFFFFFFFFFFFFFFFFFFFFFFFFFFFFFFFFFFFFF AND DUP2 MSTORE PUSH1 0x20 ADD SWAP1 DUP2 MSTORE PUSH1 0x20 ADD PUSH1 0x0 KECCAK256 DUP2 SWAP1 SSTORE POP PUSH2 0x2756 TIMESTAMP PUSH1 0x40 MLOAD DUP1 PUSH1 0x40 ADD PUSH1 0x40 MSTORE DUP1 PUSH1 0xC DUP2 MSTORE PUSH1 0x20 ADD PUSH32 0x72656672657368546F6B656E0000000000000000000000000000000000000000 DUP2 MSTORE POP PUSH1 0x40 MLOAD DUP1 PUSH1 0x40 ADD PUSH1 0x40 MSTORE DUP1 PUSH1 0x12 DUP2 MSTORE PUSH1 0x20 ADD PUSH32 0x746F6B656E20746964616B206469756261680000000000000000000000000000 DUP2 MSTORE POP CALLER PUSH2 0x2853 JUMP JUMPDEST PUSH32 0x504E9E94E0C65229AAF8CABE153380CC35DA3135E30129BC3195F7E031CDF82B PUSH1 0x5 PUSH1 0x0 PUSH1 0x2 DUP7 DUP2 SLOAD DUP2 LT PUSH2 0x2788 JUMPI INVALID JUMPDEST SWAP1 PUSH1 0x0 MSTORE PUSH1 0x20 PUSH1 0x0 KECCAK256 SWAP1 PUSH1 0x2 MUL ADD PUSH1 0x0 ADD PUSH1 0x0 SWAP1 SLOAD SWAP1 PUSH2 0x100 EXP SWAP1 DIV PUSH20 0xFFFFFFFFFFFFFFFFFFFFFFFFFFFFFFFFFFFFFFFF AND PUSH20 0xFFFFFFFFFFFFFFFFFFFFFFFFFFFFFFFFFFFFFFFF AND PUSH20 0xFFFFFFFFFFFFFFFFFFFFFFFFFFFFFFFFFFFFFFFF AND DUP2 MSTORE PUSH1 0x20 ADD SWAP1 DUP2 MSTORE PUSH1 0x20 ADD PUSH1 0x0 KECCAK256 SLOAD PUSH1 0x40 MLOAD PUSH2 0x2802 SWAP2 SWAP1 PUSH2 0x3556 JUMP JUMPDEST PUSH1 0x40 MLOAD DUP1 SWAP2 SUB SWAP1 LOG1 PUSH32 0xB6F921ADE0DE8DA9E62E948D90AE6F2DD6B678679AD77753C75FE1B6D9A72004 PUSH1 0x40 MLOAD PUSH2 0x2837 SWAP1 PUSH2 0x3591 JUMP JUMPDEST PUSH1 0x40 MLOAD DUP1 SWAP2 SUB SWAP1 LOG1 JUMPDEST POP POP JUMPDEST DUP1 DUP1 PUSH1 0x1 ADD SWAP2 POP POP PUSH2 0x2317 JUMP JUMPDEST POP JUMP JUMPDEST PUSH2 0x285B PUSH2 0x2C85 JUMP JUMPDEST PUSH1 0x40 MLOAD DUP1 PUSH1 0x80 ADD PUSH1 0x40 MSTORE DUP1 DUP7 DUP2 MSTORE PUSH1 0x20 ADD DUP6 DUP2 MSTORE PUSH1 0x20 ADD DUP5 DUP2 MSTORE PUSH1 0x20 ADD DUP4 PUSH20 0xFFFFFFFFFFFFFFFFFFFFFFFFFFFFFFFFFFFFFFFF AND DUP2 MSTORE POP SWAP1 POP PUSH1 0x3 DUP2 SWAP1 DUP1 PUSH1 0x1 DUP2 SLOAD ADD DUP1 DUP3 SSTORE DUP1 SWAP2 POP POP PUSH1 0x1 SWAP1 SUB SWAP1 PUSH1 0x0 MSTORE PUSH1 0x20 PUSH1 0x0 KECCAK256 SWAP1 PUSH1 0x4 MUL ADD PUSH1 0x0 SWAP1 SWAP2 SWAP1 SWAP2 SWAP1 SWAP2 POP PUSH1 0x0 DUP3 ADD MLOAD DUP2 PUSH1 0x0 ADD SSTORE PUSH1 0x20 DUP3 ADD MLOAD DUP2 PUSH1 0x1 ADD SWAP1 DUP1 MLOAD SWAP1 PUSH1 0x20 ADD SWAP1 PUSH2 0x28E6 SWAP3 SWAP2 SWAP1 PUSH2 0x2966 JUMP JUMPDEST POP PUSH1 0x40 DUP3 ADD MLOAD DUP2 PUSH1 0x2 ADD SWAP1 DUP1 MLOAD SWAP1 PUSH1 0x20 ADD SWAP1 PUSH2 0x2903 SWAP3 SWAP2 SWAP1 PUSH2 0x2966 JUMP JUMPDEST POP PUSH1 0x60 DUP3 ADD MLOAD DUP2 PUSH1 0x3 ADD PUSH1 0x0 PUSH2 0x100 EXP DUP2 SLOAD DUP2 PUSH20 0xFFFFFFFFFFFFFFFFFFFFFFFFFFFFFFFFFFFFFFFF MUL NOT AND SWAP1 DUP4 PUSH20 0xFFFFFFFFFFFFFFFFFFFFFFFFFFFFFFFFFFFFFFFF AND MUL OR SWAP1 SSTORE POP POP POP PUSH1 0x9 PUSH1 0x0 DUP2 SLOAD DUP1 SWAP3 SWAP2 SWAP1 PUSH1 0x1 ADD SWAP2 SWAP1 POP SSTORE POP POP POP POP POP POP JUMP JUMPDEST DUP3 DUP1 SLOAD PUSH1 0x1 DUP2 PUSH1 0x1 AND ISZERO PUSH2 0x100 MUL SUB AND PUSH1 0x2 SWAP1 DIV SWAP1 PUSH1 0x0 MSTORE PUSH1 0x20 PUSH1 0x0 KECCAK256 SWAP1 PUSH1 0x1F ADD PUSH1 0x20 SWAP1 DIV DUP2 ADD SWAP3 DUP3 PUSH1 0x1F LT PUSH2 0x29A7 JUMPI DUP1 MLOAD PUSH1 0xFF NOT AND DUP4 DUP1 ADD OR DUP6 SSTORE PUSH2 0x29D5 JUMP JUMPDEST DUP3 DUP1 ADD PUSH1 0x1 ADD DUP6 SSTORE DUP3 ISZERO PUSH2 0x29D5 JUMPI SWAP2 DUP3 ADD JUMPDEST DUP3 DUP2 GT ISZERO PUSH2 0x29D4 JUMPI DUP3 MLOAD DUP3 SSTORE SWAP2 PUSH1 0x20 ADD SWAP2 SWAP1 PUSH1 0x1 ADD SWAP1 PUSH2 0x29B9 JUMP JUMPDEST JUMPDEST POP SWAP1 POP PUSH2 0x29E2 SWAP2 SWAP1 PUSH2 0x2CC3 JUMP JUMPDEST POP SWAP1 JUMP JUMPDEST DUP3 DUP1 SLOAD PUSH1 0x1 DUP2 PUSH1 0x1 AND ISZERO PUSH2 0x100 MUL SUB AND PUSH1 0x2 SWAP1 DIV SWAP1 PUSH1 0x0 MSTORE PUSH1 0x20 PUSH1 0x0 KECCAK256 SWAP1 PUSH1 0x1F ADD PUSH1 0x20 SWAP1 DIV DUP2 ADD SWAP3 DUP3 PUSH1 0x1F LT PUSH2 0x2A1F JUMPI DUP1 SLOAD DUP6 SSTORE PUSH2 0x2A5C JUMP JUMPDEST DUP3 DUP1 ADD PUSH1 0x1 ADD DUP6 SSTORE DUP3 ISZERO PUSH2 0x2A5C JUMPI PUSH1 0x0 MSTORE PUSH1 0x20 PUSH1 0x0 KECCAK256 SWAP2 PUSH1 0x1F ADD PUSH1 0x20 SWAP1 DIV DUP3 ADD JUMPDEST DUP3 DUP2 GT ISZERO PUSH2 0x2A5B JUMPI DUP3 SLOAD DUP3 SSTORE SWAP2 PUSH1 0x1 ADD SWAP2 SWAP1 PUSH1 0x1 ADD SWAP1 PUSH2 0x2A40 JUMP JUMPDEST JUMPDEST POP SWAP1 POP PUSH2 0x2A69 SWAP2 SWAP1 PUSH2 0x2CC3 JUMP JUMPDEST POP SWAP1 JUMP JUMPDEST POP DUP1 SLOAD PUSH1 0x1 DUP2 PUSH1 0x1 AND ISZERO PUSH2 0x100 MUL SUB AND PUSH1 0x2 SWAP1 DIV PUSH1 0x0 DUP3 SSTORE DUP1 PUSH1 0x1F LT PUSH2 0x2A93 JUMPI POP PUSH2 0x2AB2 JUMP JUMPDEST PUSH1 0x1F ADD PUSH1 0x20 SWAP1 DIV SWAP1 PUSH1 0x0 MSTORE PUSH1 0x20 PUSH1 0x0 KECCAK256 SWAP1 DUP2 ADD SWAP1 PUSH2 0x2AB1 SWAP2 SWAP1 PUSH2 0x2CC3 JUMP JUMPDEST JUMPDEST POP JUMP JUMPDEST PUSH1 0x40 MLOAD DUP1 PUSH1 0x40 ADD PUSH1 0x40 MSTORE DUP1 PUSH1 0x0 PUSH20 0xFFFFFFFFFFFFFFFFFFFFFFFFFFFFFFFFFFFFFFFF AND DUP2 MSTORE PUSH1 0x20 ADD PUSH1 0x0 DUP2 MSTORE POP SWAP1 JUMP JUMPDEST PUSH1 0x40 MLOAD DUP1 PUSH1 0x80 ADD PUSH1 0x40 MSTORE DUP1 PUSH1 0x0 DUP2 MSTORE PUSH1 0x20 ADD PUSH1 0x60 DUP2 MSTORE PUSH1 0x20 ADD PUSH1 0x60 DUP2 MSTORE PUSH1 0x20 ADD PUSH1 0x60 DUP2 MSTORE POP SWAP1 JUMP JUMPDEST DUP3 DUP1 SLOAD DUP3 DUP3 SSTORE SWAP1 PUSH1 0x0 MSTORE PUSH1 0x20 PUSH1 0x0 KECCAK256 SWAP1 DUP2 ADD SWAP3 DUP3 ISZERO PUSH2 0x2B5C JUMPI SWAP2 PUSH1 0x20 MUL DUP3 ADD JUMPDEST DUP3 DUP2 GT ISZERO PUSH2 0x2B5B JUMPI DUP3 MLOAD DUP3 SWAP1 DUP1 MLOAD SWAP1 PUSH1 0x20 ADD SWAP1 PUSH2 0x2B4B SWAP3 SWAP2 SWAP1 PUSH2 0x2966 JUMP JUMPDEST POP SWAP2 PUSH1 0x20 ADD SWAP2 SWAP1 PUSH1 0x1 ADD SWAP1 PUSH2 0x2B2D JUMP JUMPDEST JUMPDEST POP SWAP1 POP PUSH2 0x2B69 SWAP2 SWAP1 PUSH2 0x2CE0 JUMP JUMPDEST POP SWAP1 JUMP JUMPDEST DUP3 DUP1 SLOAD PUSH1 0x1 DUP2 PUSH1 0x1 AND ISZERO PUSH2 0x100 MUL SUB AND PUSH1 0x2 SWAP1 DIV SWAP1 PUSH1 0x0 MSTORE PUSH1 0x20 PUSH1 0x0 KECCAK256 SWAP1 PUSH1 0x1F ADD PUSH1 0x20 SWAP1 DIV DUP2 ADD SWAP3 DUP3 PUSH1 0x1F LT PUSH2 0x2BA6 JUMPI DUP1 SLOAD DUP6 SSTORE PUSH2 0x2BE3 JUMP JUMPDEST DUP3 DUP1 ADD PUSH1 0x1 ADD DUP6 SSTORE DUP3 ISZERO PUSH2 0x2BE3 JUMPI PUSH1 0x0 MSTORE PUSH1 0x20 PUSH1 0x0 KECCAK256 SWAP2 PUSH1 0x1F ADD PUSH1 0x20 SWAP1 DIV DUP3 ADD JUMPDEST DUP3 DUP2 GT ISZERO PUSH2 0x2BE2 JUMPI DUP3 SLOAD DUP3 SSTORE SWAP2 PUSH1 0x1 ADD SWAP2 SWAP1 PUSH1 0x1 ADD SWAP1 PUSH2 0x2BC7 JUMP JUMPDEST JUMPDEST POP SWAP1 POP PUSH2 0x2BF0 SWAP2 SWAP1 PUSH2 0x2CC3 JUMP JUMPDEST POP SWAP1 JUMP JUMPDEST DUP3 DUP1 SLOAD DUP3 DUP3 SSTORE SWAP1 PUSH1 0x0 MSTORE PUSH1 0x20 PUSH1 0x0 KECCAK256 SWAP1 DUP2 ADD SWAP3 DUP3 ISZERO PUSH2 0x2C53 JUMPI PUSH1 0x0 MSTORE PUSH1 0x20 PUSH1 0x0 KECCAK256 SWAP2 DUP3 ADD JUMPDEST DUP3 DUP2 GT ISZERO PUSH2 0x2C52 JUMPI DUP3 DUP3 SWAP1 DUP1 SLOAD PUSH1 0x1 DUP2 PUSH1 0x1 AND ISZERO PUSH2 0x100 MUL SUB AND PUSH1 0x2 SWAP1 DIV PUSH2 0x2C42 SWAP3 SWAP2 SWAP1 PUSH2 0x2B6D JUMP JUMPDEST POP SWAP2 PUSH1 0x1 ADD SWAP2 SWAP1 PUSH1 0x1 ADD SWAP1 PUSH2 0x2C19 JUMP JUMPDEST JUMPDEST POP SWAP1 POP PUSH2 0x2C60 SWAP2 SWAP1 PUSH2 0x2CE0 JUMP JUMPDEST POP SWAP1 JUMP JUMPDEST POP DUP1 SLOAD PUSH1 0x0 DUP3 SSTORE SWAP1 PUSH1 0x0 MSTORE PUSH1 0x20 PUSH1 0x0 KECCAK256 SWAP1 DUP2 ADD SWAP1 PUSH2 0x2C82 SWAP2 SWAP1 PUSH2 0x2CE0 JUMP JUMPDEST POP JUMP JUMPDEST PUSH1 0x40 MLOAD DUP1 PUSH1 0x80 ADD PUSH1 0x40 MSTORE DUP1 PUSH1 0x0 DUP2 MSTORE PUSH1 0x20 ADD PUSH1 0x60 DUP2 MSTORE PUSH1 0x20 ADD PUSH1 0x60 DUP2 MSTORE PUSH1 0x20 ADD PUSH1 0x0 PUSH20 0xFFFFFFFFFFFFFFFFFFFFFFFFFFFFFFFFFFFFFFFF AND DUP2 MSTORE POP SWAP1 JUMP JUMPDEST JUMPDEST DUP1 DUP3 GT ISZERO PUSH2 0x2CDC JUMPI PUSH1 0x0 DUP2 PUSH1 0x0 SWAP1 SSTORE POP PUSH1 0x1 ADD PUSH2 0x2CC4 JUMP JUMPDEST POP SWAP1 JUMP JUMPDEST JUMPDEST DUP1 DUP3 GT ISZERO PUSH2 0x2D00 JUMPI PUSH1 0x0 DUP2 DUP2 PUSH2 0x2CF7 SWAP2 SWAP1 PUSH2 0x2A6D JUMP JUMPDEST POP PUSH1 0x1 ADD PUSH2 0x2CE1 JUMP JUMPDEST POP SWAP1 JUMP JUMPDEST PUSH1 0x0 DUP2 CALLDATALOAD SWAP1 POP PUSH2 0x2D13 DUP2 PUSH2 0x380F JUMP JUMPDEST SWAP3 SWAP2 POP POP JUMP JUMPDEST PUSH1 0x0 DUP2 CALLDATALOAD SWAP1 POP PUSH2 0x2D28 DUP2 PUSH2 0x3826 JUMP JUMPDEST SWAP3 SWAP2 POP POP JUMP JUMPDEST PUSH1 0x0 DUP2 CALLDATALOAD SWAP1 POP PUSH2 0x2D3D DUP2 PUSH2 0x383D JUMP JUMPDEST SWAP3 SWAP2 POP POP JUMP JUMPDEST PUSH1 0x0 DUP3 PUSH1 0x1F DUP4 ADD SLT PUSH2 0x2D54 JUMPI PUSH1 0x0 DUP1 REVERT JUMPDEST DUP2 CALLDATALOAD PUSH2 0x2D67 PUSH2 0x2D62 DUP3 PUSH2 0x35F9 JUMP JUMPDEST PUSH2 0x35CC JUMP JUMPDEST SWAP2 POP DUP1 DUP3 MSTORE PUSH1 0x20 DUP4 ADD PUSH1 0x20 DUP4 ADD DUP6 DUP4 DUP4 ADD GT ISZERO PUSH2 0x2D83 JUMPI PUSH1 0x0 DUP1 REVERT JUMPDEST PUSH2 0x2D8E DUP4 DUP3 DUP5 PUSH2 0x3781 JUMP JUMPDEST POP POP POP SWAP3 SWAP2 POP POP JUMP JUMPDEST PUSH1 0x0 DUP2 CALLDATALOAD SWAP1 POP PUSH2 0x2DA6 DUP2 PUSH2 0x3854 JUMP JUMPDEST SWAP3 SWAP2 POP POP JUMP JUMPDEST PUSH1 0x0 PUSH1 0x20 DUP3 DUP5 SUB SLT ISZERO PUSH2 0x2DBE JUMPI PUSH1 0x0 DUP1 REVERT JUMPDEST PUSH1 0x0 PUSH2 0x2DCC DUP5 DUP3 DUP6 ADD PUSH2 0x2D04 JUMP JUMPDEST SWAP2 POP POP SWAP3 SWAP2 POP POP JUMP JUMPDEST PUSH1 0x0 PUSH1 0x20 DUP3 DUP5 SUB SLT ISZERO PUSH2 0x2DE7 JUMPI PUSH1 0x0 DUP1 REVERT JUMPDEST PUSH1 0x0 PUSH2 0x2DF5 DUP5 DUP3 DUP6 ADD PUSH2 0x2D19 JUMP JUMPDEST SWAP2 POP POP SWAP3 SWAP2 POP POP JUMP JUMPDEST PUSH1 0x0 DUP1 PUSH1 0x0 PUSH1 0x60 DUP5 DUP7 SUB SLT ISZERO PUSH2 0x2E13 JUMPI PUSH1 0x0 DUP1 REVERT JUMPDEST PUSH1 0x0 PUSH2 0x2E21 DUP7 DUP3 DUP8 ADD PUSH2 0x2D2E JUMP JUMPDEST SWAP4 POP POP PUSH1 0x20 PUSH2 0x2E32 DUP7 DUP3 DUP8 ADD PUSH2 0x2D97 JUMP JUMPDEST SWAP3 POP POP PUSH1 0x40 DUP5 ADD CALLDATALOAD PUSH8 0xFFFFFFFFFFFFFFFF DUP2 GT ISZERO PUSH2 0x2E4F JUMPI PUSH1 0x0 DUP1 REVERT JUMPDEST PUSH2 0x2E5B DUP7 DUP3 DUP8 ADD PUSH2 0x2D43 JUMP JUMPDEST SWAP2 POP POP SWAP3 POP SWAP3 POP SWAP3 JUMP JUMPDEST PUSH1 0x0 DUP1 PUSH1 0x0 DUP1 PUSH1 0x80 DUP6 DUP8 SUB SLT ISZERO PUSH2 0x2E7B JUMPI PUSH1 0x0 DUP1 REVERT JUMPDEST PUSH1 0x0 PUSH2 0x2E89 DUP8 DUP3 DUP9 ADD PUSH2 0x2D2E JUMP JUMPDEST SWAP5 POP POP PUSH1 0x20 PUSH2 0x2E9A DUP8 DUP3 DUP9 ADD PUSH2 0x2D97 JUMP JUMPDEST SWAP4 POP POP PUSH1 0x40 DUP6 ADD CALLDATALOAD PUSH8 0xFFFFFFFFFFFFFFFF DUP2 GT ISZERO PUSH2 0x2EB7 JUMPI PUSH1 0x0 DUP1 REVERT JUMPDEST PUSH2 0x2EC3 DUP8 DUP3 DUP9 ADD PUSH2 0x2D43 JUMP JUMPDEST SWAP3 POP POP PUSH1 0x60 DUP6 ADD CALLDATALOAD PUSH8 0xFFFFFFFFFFFFFFFF DUP2 GT ISZERO PUSH2 0x2EE0 JUMPI PUSH1 0x0 DUP1 REVERT JUMPDEST PUSH2 0x2EEC DUP8 DUP3 DUP9 ADD PUSH2 0x2D43 JUMP JUMPDEST SWAP2 POP POP SWAP3 SWAP6 SWAP2 SWAP5 POP SWAP3 POP JUMP JUMPDEST PUSH1 0x0 DUP1 PUSH1 0x40 DUP4 DUP6 SUB SLT ISZERO PUSH2 0x2F0B JUMPI PUSH1 0x0 DUP1 REVERT JUMPDEST PUSH1 0x0 DUP4 ADD CALLDATALOAD PUSH8 0xFFFFFFFFFFFFFFFF DUP2 GT ISZERO PUSH2 0x2F25 JUMPI PUSH1 0x0 DUP1 REVERT JUMPDEST PUSH2 0x2F31 DUP6 DUP3 DUP7 ADD PUSH2 0x2D43 JUMP JUMPDEST SWAP3 POP POP PUSH1 0x20 DUP4 ADD CALLDATALOAD PUSH8 0xFFFFFFFFFFFFFFFF DUP2 GT ISZERO PUSH2 0x2F4E JUMPI PUSH1 0x0 DUP1 REVERT JUMPDEST PUSH2 0x2F5A DUP6 DUP3 DUP7 ADD PUSH2 0x2D43 JUMP JUMPDEST SWAP2 POP POP SWAP3 POP SWAP3 SWAP1 POP JUMP JUMPDEST PUSH1 0x0 PUSH1 0x20 DUP3 DUP5 SUB SLT ISZERO PUSH2 0x2F76 JUMPI PUSH1 0x0 DUP1 REVERT JUMPDEST PUSH1 0x0 PUSH2 0x2F84 DUP5 DUP3 DUP6 ADD PUSH2 0x2D97 JUMP JUMPDEST SWAP2 POP POP SWAP3 SWAP2 POP POP JUMP JUMPDEST PUSH1 0x0 DUP1 PUSH1 0x40 DUP4 DUP6 SUB SLT ISZERO PUSH2 0x2FA0 JUMPI PUSH1 0x0 DUP1 REVERT JUMPDEST PUSH1 0x0 PUSH2 0x2FAE DUP6 DUP3 DUP7 ADD PUSH2 0x2D97 JUMP JUMPDEST SWAP3 POP POP PUSH1 0x20 DUP4 ADD CALLDATALOAD PUSH8 0xFFFFFFFFFFFFFFFF DUP2 GT ISZERO PUSH2 0x2FCB JUMPI PUSH1 0x0 DUP1 REVERT JUMPDEST PUSH2 0x2FD7 DUP6 DUP3 DUP7 ADD PUSH2 0x2D43 JUMP JUMPDEST SWAP2 POP POP SWAP3 POP SWAP3 SWAP1 POP JUMP JUMPDEST PUSH1 0x0 DUP1 PUSH1 0x0 PUSH1 0x60 DUP5 DUP7 SUB SLT ISZERO PUSH2 0x2FF6 JUMPI PUSH1 0x0 DUP1 REVERT JUMPDEST PUSH1 0x0 PUSH2 0x3004 DUP7 DUP3 DUP8 ADD PUSH2 0x2D97 JUMP JUMPDEST SWAP4 POP POP PUSH1 0x20 DUP5 ADD CALLDATALOAD PUSH8 0xFFFFFFFFFFFFFFFF DUP2 GT ISZERO PUSH2 0x3021 JUMPI PUSH1 0x0 DUP1 REVERT JUMPDEST PUSH2 0x302D DUP7 DUP3 DUP8 ADD PUSH2 0x2D43 JUMP JUMPDEST SWAP3 POP POP PUSH1 0x40 DUP5 ADD CALLDATALOAD PUSH8 0xFFFFFFFFFFFFFFFF DUP2 GT ISZERO PUSH2 0x304A JUMPI PUSH1 0x0 DUP1 REVERT JUMPDEST PUSH2 0x3056 DUP7 DUP3 DUP8 ADD PUSH2 0x2D43 JUMP JUMPDEST SWAP2 POP POP SWAP3 POP SWAP3 POP SWAP3 JUMP JUMPDEST PUSH1 0x0 PUSH2 0x306C DUP4 DUP4 PUSH2 0x30CA JUMP JUMPDEST PUSH1 0x20 DUP4 ADD SWAP1 POP SWAP3 SWAP2 POP POP JUMP JUMPDEST PUSH1 0x0 PUSH2 0x3084 DUP4 DUP4 PUSH2 0x3228 JUMP JUMPDEST SWAP1 POP SWAP3 SWAP2 POP POP JUMP JUMPDEST PUSH1 0x0 PUSH2 0x3098 DUP4 DUP4 PUSH2 0x33A0 JUMP JUMPDEST PUSH1 0x20 DUP4 ADD SWAP1 POP SWAP3 SWAP2 POP POP JUMP JUMPDEST PUSH2 0x30AD DUP2 PUSH2 0x372F JUMP JUMPDEST DUP3 MSTORE POP POP JUMP JUMPDEST PUSH2 0x30C4 PUSH2 0x30BF DUP3 PUSH2 0x372F JUMP JUMPDEST PUSH2 0x37C3 JUMP JUMPDEST DUP3 MSTORE POP POP JUMP JUMPDEST PUSH2 0x30D3 DUP2 PUSH2 0x371D JUMP JUMPDEST DUP3 MSTORE POP POP JUMP JUMPDEST PUSH1 0x0 PUSH2 0x30E4 DUP3 PUSH2 0x366A JUMP JUMPDEST PUSH2 0x30EE DUP2 DUP6 PUSH2 0x36BD JUMP JUMPDEST SWAP4 POP PUSH2 0x30F9 DUP4 PUSH2 0x3625 JUMP JUMPDEST DUP1 PUSH1 0x0 JUMPDEST DUP4 DUP2 LT ISZERO PUSH2 0x312A JUMPI DUP2 MLOAD PUSH2 0x3111 DUP9 DUP3 PUSH2 0x3060 JUMP JUMPDEST SWAP8 POP PUSH2 0x311C DUP4 PUSH2 0x3696 JUMP JUMPDEST SWAP3 POP POP PUSH1 0x1 DUP2 ADD SWAP1 POP PUSH2 0x30FD JUMP JUMPDEST POP DUP6 SWAP4 POP POP POP POP SWAP3 SWAP2 POP POP JUMP JUMPDEST PUSH1 0x0 PUSH2 0x3142 DUP3 PUSH2 0x3675 JUMP JUMPDEST PUSH2 0x314C DUP2 DUP6 PUSH2 0x36CE JUMP JUMPDEST SWAP4 POP DUP4 PUSH1 0x20 DUP3 MUL DUP6 ADD PUSH2 0x315E DUP6 PUSH2 0x3635 JUMP JUMPDEST DUP1 PUSH1 0x0 JUMPDEST DUP6 DUP2 LT ISZERO PUSH2 0x319A JUMPI DUP5 DUP5 SUB DUP10 MSTORE DUP2 MLOAD PUSH2 0x317B DUP6 DUP3 PUSH2 0x3078 JUMP JUMPDEST SWAP5 POP PUSH2 0x3186 DUP4 PUSH2 0x36A3 JUMP JUMPDEST SWAP3 POP PUSH1 0x20 DUP11 ADD SWAP10 POP POP PUSH1 0x1 DUP2 ADD SWAP1 POP PUSH2 0x3162 JUMP JUMPDEST POP DUP3 SWAP8 POP DUP8 SWAP6 POP POP POP POP POP POP SWAP3 SWAP2 POP POP JUMP JUMPDEST PUSH1 0x0 PUSH2 0x31B7 DUP3 PUSH2 0x3680 JUMP JUMPDEST PUSH2 0x31C1 DUP2 DUP6 PUSH2 0x36DF JUMP JUMPDEST SWAP4 POP PUSH2 0x31CC DUP4 PUSH2 0x3645 JUMP JUMPDEST DUP1 PUSH1 0x0 JUMPDEST DUP4 DUP2 LT ISZERO PUSH2 0x31FD JUMPI DUP2 MLOAD PUSH2 0x31E4 DUP9 DUP3 PUSH2 0x308C JUMP JUMPDEST SWAP8 POP PUSH2 0x31EF DUP4 PUSH2 0x36B0 JUMP JUMPDEST SWAP3 POP POP PUSH1 0x1 DUP2 ADD SWAP1 POP PUSH2 0x31D0 JUMP JUMPDEST POP DUP6 SWAP4 POP POP POP POP SWAP3 SWAP2 POP POP JUMP JUMPDEST PUSH2 0x3213 DUP2 PUSH2 0x3741 JUMP JUMPDEST DUP3 MSTORE POP POP JUMP JUMPDEST PUSH2 0x3222 DUP2 PUSH2 0x374D JUMP JUMPDEST DUP3 MSTORE POP POP JUMP JUMPDEST PUSH1 0x0 PUSH2 0x3233 DUP3 PUSH2 0x368B JUMP JUMPDEST PUSH2 0x323D DUP2 DUP6 PUSH2 0x36F0 JUMP JUMPDEST SWAP4 POP PUSH2 0x324D DUP2 DUP6 PUSH1 0x20 DUP7 ADD PUSH2 0x3790 JUMP JUMPDEST PUSH2 0x3256 DUP2 PUSH2 0x37F1 JUMP JUMPDEST DUP5 ADD SWAP2 POP POP SWAP3 SWAP2 POP POP JUMP JUMPDEST PUSH1 0x0 PUSH2 0x326C DUP3 PUSH2 0x368B JUMP JUMPDEST PUSH2 0x3276 DUP2 DUP6 PUSH2 0x3712 JUMP JUMPDEST SWAP4 POP PUSH2 0x3286 DUP2 DUP6 PUSH1 0x20 DUP7 ADD PUSH2 0x3790 JUMP JUMPDEST DUP1 DUP5 ADD SWAP2 POP POP SWAP3 SWAP2 POP POP JUMP JUMPDEST PUSH1 0x0 DUP2 SLOAD PUSH1 0x1 DUP2 AND PUSH1 0x0 DUP2 EQ PUSH2 0x32AF JUMPI PUSH1 0x1 DUP2 EQ PUSH2 0x32D4 JUMPI PUSH2 0x3318 JUMP JUMPDEST PUSH1 0x7F PUSH1 0x2 DUP4 DIV AND PUSH2 0x32C0 DUP2 DUP8 PUSH2 0x3712 JUMP JUMPDEST SWAP6 POP PUSH1 0xFF NOT DUP4 AND DUP7 MSTORE DUP1 DUP7 ADD SWAP4 POP POP PUSH2 0x3318 JUMP JUMPDEST PUSH1 0x2 DUP3 DIV PUSH2 0x32E2 DUP2 DUP8 PUSH2 0x3712 JUMP JUMPDEST SWAP6 POP PUSH2 0x32ED DUP6 PUSH2 0x3655 JUMP JUMPDEST PUSH1 0x0 JUMPDEST DUP3 DUP2 LT ISZERO PUSH2 0x330F JUMPI DUP2 SLOAD DUP2 DUP10 ADD MSTORE PUSH1 0x1 DUP3 ADD SWAP2 POP PUSH1 0x20 DUP2 ADD SWAP1 POP PUSH2 0x32F0 JUMP JUMPDEST DUP3 DUP9 ADD SWAP6 POP POP POP POP JUMPDEST POP POP SWAP3 SWAP2 POP POP JUMP JUMPDEST PUSH1 0x0 PUSH2 0x332D PUSH1 0xC DUP4 PUSH2 0x3701 JUMP JUMPDEST SWAP2 POP PUSH32 0x746F6B656E206469756261680000000000000000000000000000000000000000 PUSH1 0x0 DUP4 ADD MSTORE PUSH1 0x20 DUP3 ADD SWAP1 POP SWAP2 SWAP1 POP JUMP JUMPDEST PUSH1 0x0 PUSH2 0x336D PUSH1 0x12 DUP4 PUSH2 0x3701 JUMP JUMPDEST SWAP2 POP PUSH32 0x746F6B656E20746964616B206469756261680000000000000000000000000000 PUSH1 0x0 DUP4 ADD MSTORE PUSH1 0x20 DUP3 ADD SWAP1 POP SWAP2 SWAP1 POP JUMP JUMPDEST PUSH2 0x33A9 DUP2 PUSH2 0x3777 JUMP JUMPDEST DUP3 MSTORE POP POP JUMP JUMPDEST PUSH2 0x33B8 DUP2 PUSH2 0x3777 JUMP JUMPDEST DUP3 MSTORE POP POP JUMP JUMPDEST PUSH2 0x33CF PUSH2 0x33CA DUP3 PUSH2 0x3777 JUMP JUMPDEST PUSH2 0x37E7 JUMP JUMPDEST DUP3 MSTORE POP POP JUMP JUMPDEST PUSH1 0x0 PUSH2 0x33E1 DUP3 DUP6 PUSH2 0x30B3 JUMP JUMPDEST PUSH1 0x14 DUP3 ADD SWAP2 POP PUSH2 0x33F1 DUP3 DUP5 PUSH2 0x33BE JUMP JUMPDEST PUSH1 0x20 DUP3 ADD SWAP2 POP DUP2 SWAP1 POP SWAP4 SWAP3 POP POP POP JUMP JUMPDEST PUSH1 0x0 PUSH2 0x340D DUP3 DUP5 PUSH2 0x3261 JUMP JUMPDEST SWAP2 POP DUP2 SWAP1 POP SWAP3 SWAP2 POP POP JUMP JUMPDEST PUSH1 0x0 PUSH2 0x3424 DUP3 DUP5 PUSH2 0x3292 JUMP JUMPDEST SWAP2 POP DUP2 SWAP1 POP SWAP3 SWAP2 POP POP JUMP JUMPDEST PUSH1 0x0 PUSH1 0x20 DUP3 ADD SWAP1 POP PUSH2 0x3444 PUSH1 0x0 DUP4 ADD DUP5 PUSH2 0x30A4 JUMP JUMPDEST SWAP3 SWAP2 POP POP JUMP JUMPDEST PUSH1 0x0 PUSH1 0x20 DUP3 ADD SWAP1 POP DUP2 DUP2 SUB PUSH1 0x0 DUP4 ADD MSTORE PUSH2 0x3464 DUP2 DUP5 PUSH2 0x30D9 JUMP JUMPDEST SWAP1 POP SWAP3 SWAP2 POP POP JUMP JUMPDEST PUSH1 0x0 PUSH1 0x20 DUP3 ADD SWAP1 POP DUP2 DUP2 SUB PUSH1 0x0 DUP4 ADD MSTORE PUSH2 0x3486 DUP2 DUP5 PUSH2 0x3137 JUMP JUMPDEST SWAP1 POP SWAP3 SWAP2 POP POP JUMP JUMPDEST PUSH1 0x0 PUSH1 0x60 DUP3 ADD SWAP1 POP DUP2 DUP2 SUB PUSH1 0x0 DUP4 ADD MSTORE PUSH2 0x34A8 DUP2 DUP7 PUSH2 0x31AC JUMP JUMPDEST SWAP1 POP DUP2 DUP2 SUB PUSH1 0x20 DUP4 ADD MSTORE PUSH2 0x34BC DUP2 DUP6 PUSH2 0x3137 JUMP JUMPDEST SWAP1 POP DUP2 DUP2 SUB PUSH1 0x40 DUP4 ADD MSTORE PUSH2 0x34D0 DUP2 DUP5 PUSH2 0x3137 JUMP JUMPDEST SWAP1 POP SWAP5 SWAP4 POP POP POP POP JUMP JUMPDEST PUSH1 0x0 PUSH1 0x80 DUP3 ADD SWAP1 POP DUP2 DUP2 SUB PUSH1 0x0 DUP4 ADD MSTORE PUSH2 0x34F4 DUP2 DUP8 PUSH2 0x31AC JUMP JUMPDEST SWAP1 POP DUP2 DUP2 SUB PUSH1 0x20 DUP4 ADD MSTORE PUSH2 0x3508 DUP2 DUP7 PUSH2 0x3137 JUMP JUMPDEST SWAP1 POP DUP2 DUP2 SUB PUSH1 0x40 DUP4 ADD MSTORE PUSH2 0x351C DUP2 DUP6 PUSH2 0x3137 JUMP JUMPDEST SWAP1 POP DUP2 DUP2 SUB PUSH1 0x60 DUP4 ADD MSTORE PUSH2 0x3530 DUP2 DUP5 PUSH2 0x30D9 JUMP JUMPDEST SWAP1 POP SWAP6 SWAP5 POP POP POP POP POP JUMP JUMPDEST PUSH1 0x0 PUSH1 0x20 DUP3 ADD SWAP1 POP PUSH2 0x3550 PUSH1 0x0 DUP4 ADD DUP5 PUSH2 0x320A JUMP JUMPDEST SWAP3 SWAP2 POP POP JUMP JUMPDEST PUSH1 0x0 PUSH1 0x20 DUP3 ADD SWAP1 POP PUSH2 0x356B PUSH1 0x0 DUP4 ADD DUP5 PUSH2 0x3219 JUMP JUMPDEST SWAP3 SWAP2 POP POP JUMP JUMPDEST PUSH1 0x0 PUSH1 0x20 DUP3 ADD SWAP1 POP DUP2 DUP2 SUB PUSH1 0x0 DUP4 ADD MSTORE PUSH2 0x358A DUP2 PUSH2 0x3320 JUMP JUMPDEST SWAP1 POP SWAP2 SWAP1 POP JUMP JUMPDEST PUSH1 0x0 PUSH1 0x20 DUP3 ADD SWAP1 POP DUP2 DUP2 SUB PUSH1 0x0 DUP4 ADD MSTORE PUSH2 0x35AA DUP2 PUSH2 0x3360 JUMP JUMPDEST SWAP1 POP SWAP2 SWAP1 POP JUMP JUMPDEST PUSH1 0x0 PUSH1 0x20 DUP3 ADD SWAP1 POP PUSH2 0x35C6 PUSH1 0x0 DUP4 ADD DUP5 PUSH2 0x33AF JUMP JUMPDEST SWAP3 SWAP2 POP POP JUMP JUMPDEST PUSH1 0x0 PUSH1 0x40 MLOAD SWAP1 POP DUP2 DUP2 ADD DUP2 DUP2 LT PUSH8 0xFFFFFFFFFFFFFFFF DUP3 GT OR ISZERO PUSH2 0x35EF JUMPI PUSH1 0x0 DUP1 REVERT JUMPDEST DUP1 PUSH1 0x40 MSTORE POP SWAP2 SWAP1 POP JUMP JUMPDEST PUSH1 0x0 PUSH8 0xFFFFFFFFFFFFFFFF DUP3 GT ISZERO PUSH2 0x3610 JUMPI PUSH1 0x0 DUP1 REVERT JUMPDEST PUSH1 0x1F NOT PUSH1 0x1F DUP4 ADD AND SWAP1 POP PUSH1 0x20 DUP2 ADD SWAP1 POP SWAP2 SWAP1 POP JUMP JUMPDEST PUSH1 0x0 DUP2 SWAP1 POP PUSH1 0x20 DUP3 ADD SWAP1 POP SWAP2 SWAP1 POP JUMP JUMPDEST PUSH1 0x0 DUP2 SWAP1 POP PUSH1 0x20 DUP3 ADD SWAP1 POP SWAP2 SWAP1 POP JUMP JUMPDEST PUSH1 0x0 DUP2 SWAP1 POP PUSH1 0x20 DUP3 ADD SWAP1 POP SWAP2 SWAP1 POP JUMP JUMPDEST PUSH1 0x0 DUP2 SWAP1 POP DUP2 PUSH1 0x0 MSTORE PUSH1 0x20 PUSH1 0x0 KECCAK256 SWAP1 POP SWAP2 SWAP1 POP JUMP JUMPDEST PUSH1 0x0 DUP2 MLOAD SWAP1 POP SWAP2 SWAP1 POP JUMP JUMPDEST PUSH1 0x0 DUP2 MLOAD SWAP1 POP SWAP2 SWAP1 POP JUMP JUMPDEST PUSH1 0x0 DUP2 MLOAD SWAP1 POP SWAP2 SWAP1 POP JUMP JUMPDEST PUSH1 0x0 DUP2 MLOAD SWAP1 POP SWAP2 SWAP1 POP JUMP JUMPDEST PUSH1 0x0 PUSH1 0x20 DUP3 ADD SWAP1 POP SWAP2 SWAP1 POP JUMP JUMPDEST PUSH1 0x0 PUSH1 0x20 DUP3 ADD SWAP1 POP SWAP2 SWAP1 POP JUMP JUMPDEST PUSH1 0x0 PUSH1 0x20 DUP3 ADD SWAP1 POP SWAP2 SWAP1 POP JUMP JUMPDEST PUSH1 0x0 DUP3 DUP3 MSTORE PUSH1 0x20 DUP3 ADD SWAP1 POP SWAP3 SWAP2 POP POP JUMP JUMPDEST PUSH1 0x0 DUP3 DUP3 MSTORE PUSH1 0x20 DUP3 ADD SWAP1 POP SWAP3 SWAP2 POP POP JUMP JUMPDEST PUSH1 0x0 DUP3 DUP3 MSTORE PUSH1 0x20 DUP3 ADD SWAP1 POP SWAP3 SWAP2 POP POP JUMP JUMPDEST PUSH1 0x0 DUP3 DUP3 MSTORE PUSH1 0x20 DUP3 ADD SWAP1 POP SWAP3 SWAP2 POP POP JUMP JUMPDEST PUSH1 0x0 DUP3 DUP3 MSTORE PUSH1 0x20 DUP3 ADD SWAP1 POP SWAP3 SWAP2 POP POP JUMP JUMPDEST PUSH1 0x0 DUP2 SWAP1 POP SWAP3 SWAP2 POP POP JUMP JUMPDEST PUSH1 0x0 PUSH2 0x3728 DUP3 PUSH2 0x3757 JUMP JUMPDEST SWAP1 POP SWAP2 SWAP1 POP JUMP JUMPDEST PUSH1 0x0 PUSH2 0x373A DUP3 PUSH2 0x3757 JUMP JUMPDEST SWAP1 POP SWAP2 SWAP1 POP JUMP JUMPDEST PUSH1 0x0 DUP2 ISZERO ISZERO SWAP1 POP SWAP2 SWAP1 POP JUMP JUMPDEST PUSH1 0x0 DUP2 SWAP1 POP SWAP2 SWAP1 POP JUMP JUMPDEST PUSH1 0x0 PUSH20 0xFFFFFFFFFFFFFFFFFFFFFFFFFFFFFFFFFFFFFFFF DUP3 AND SWAP1 POP SWAP2 SWAP1 POP JUMP JUMPDEST PUSH1 0x0 DUP2 SWAP1 POP SWAP2 SWAP1 POP JUMP JUMPDEST DUP3 DUP2 DUP4 CALLDATACOPY PUSH1 0x0 DUP4 DUP4 ADD MSTORE POP POP POP JUMP JUMPDEST PUSH1 0x0 JUMPDEST DUP4 DUP2 LT ISZERO PUSH2 0x37AE JUMPI DUP1 DUP3 ADD MLOAD DUP2 DUP5 ADD MSTORE PUSH1 0x20 DUP2 ADD SWAP1 POP PUSH2 0x3793 JUMP JUMPDEST DUP4 DUP2 GT ISZERO PUSH2 0x37BD JUMPI PUSH1 0x0 DUP5 DUP5 ADD MSTORE JUMPDEST POP POP POP POP JUMP JUMPDEST PUSH1 0x0 PUSH2 0x37CE DUP3 PUSH2 0x37D5 JUMP JUMPDEST SWAP1 POP SWAP2 SWAP1 POP JUMP JUMPDEST PUSH1 0x0 PUSH2 0x37E0 DUP3 PUSH2 0x3802 JUMP JUMPDEST SWAP1 POP SWAP2 SWAP1 POP JUMP JUMPDEST PUSH1 0x0 DUP2 SWAP1 POP SWAP2 SWAP1 POP JUMP JUMPDEST PUSH1 0x0 PUSH1 0x1F NOT PUSH1 0x1F DUP4 ADD AND SWAP1 POP SWAP2 SWAP1 POP JUMP JUMPDEST PUSH1 0x0 DUP2 PUSH1 0x60 SHL SWAP1 POP SWAP2 SWAP1 POP JUMP JUMPDEST PUSH2 0x3818 DUP2 PUSH2 0x371D JUMP JUMPDEST DUP2 EQ PUSH2 0x3823 JUMPI PUSH1 0x0 DUP1 REVERT JUMPDEST POP JUMP JUMPDEST PUSH2 0x382F DUP2 PUSH2 0x372F JUMP JUMPDEST DUP2 EQ PUSH2 0x383A JUMPI PUSH1 0x0 DUP1 REVERT JUMPDEST POP JUMP JUMPDEST PUSH2 0x3846 DUP2 PUSH2 0x374D JUMP JUMPDEST DUP2 EQ PUSH2 0x3851 JUMPI PUSH1 0x0 DUP1 REVERT JUMPDEST POP JUMP JUMPDEST PUSH2 0x385D DUP2 PUSH2 0x3777 JUMP JUMPDEST DUP2 EQ PUSH2 0x3868 JUMPI PUSH1 0x0 DUP1 REVERT JUMPDEST POP JUMP INVALID LOG2 PUSH5 0x6970667358 0x22 SLT KECCAK256 PUSH31 0x5BF7D4CF9D4601024537D72827500B45B88E6F4B3A694E52F8FE138072B291 PUSH5 0x736F6C6343 STOP MOD 0xC STOP CALLER "
    },
    "gasEstimates": {
      "creation": {
        "codeDepositCost": "2899400",
        "executionCost": "44099",
        "totalCost": "2943499"
      },
      "external": {
        "addBroker(address)": "infinite",
        "addClient(string,string)": "infinite",
        "addTopic(uint256,string)": "infinite",
        "authenticate(bytes32,uint256,string,string)": "infinite",
        "authorize(bytes32,uint256,string)": "infinite",
        "deleteBroker(address)": "infinite",
        "deleteClient(uint256)": "infinite",
        "deleteTopic(uint256,string)": "infinite",
        "getBroker()": "infinite",
        "getBrokerToken(address)": "2435",
        "getBrokersCount()": "2030",
        "getClients()": "infinite",
        "getClientsCount()": "2075",
        "getLog()": "infinite",
        "getTopic(uint256)": "infinite",
        "manager()": "1278",
        "refreshToken()": "infinite",
        "updateTopic(uint256,string,string)": "infinite"
      },
      "internal": {
        "makeLog(uint256,string memory,string memory,address)": "infinite"
      }
    },
    "methodIdentifiers": {
      "addBroker(address)": "836cae65",
      "addClient(string,string)": "98173ff4",
      "addTopic(uint256,string)": "3276807a",
      "authenticate(bytes32,uint256,string,string)": "e58da61f",
      "authorize(bytes32,uint256,string)": "7909ce47",
      "deleteBroker(address)": "1ee32b05",
      "deleteClient(uint256)": "a9cb1a36",
      "deleteTopic(uint256,string)": "42bb20e1",
      "getBroker()": "d1314ee0",
      "getBrokerToken(address)": "0344248b",
      "getBrokersCount()": "416a5d81",
      "getClients()": "6db80995",
      "getClientsCount()": "30a66294",
      "getLog()": "909e4ab6",
      "getTopic(uint256)": "71658896",
      "manager()": "481c6a75",
      "refreshToken()": "fa6a04e4",
      "updateTopic(uint256,string,string)": "e8e5339a"
    }
  },
  "storageLayout": {
    "storage": [
      {
        "astId": 4,
        "contract": "Mqttbaru.sol:Mqttbaru",
        "label": "manager",
        "offset": 0,
        "slot": "0",
        "type": "t_address_payable"
      },
      {
        "astId": 31,
        "contract": "Mqttbaru.sol:Mqttbaru",
        "label": "clientLedger",
        "offset": 0,
        "slot": "1",
        "type": "t_array(t_struct(Client)14_storage)dyn_storage"
      },
      {
        "astId": 34,
        "contract": "Mqttbaru.sol:Mqttbaru",
        "label": "brokerAddress",
        "offset": 0,
        "slot": "2",
        "type": "t_array(t_struct(Broker)19_storage)dyn_storage"
      },
      {
        "astId": 37,
        "contract": "Mqttbaru.sol:Mqttbaru",
        "label": "logLedger",
        "offset": 0,
        "slot": "3",
        "type": "t_array(t_struct(LogSend)28_storage)dyn_storage"
      },
      {
        "astId": 41,
        "contract": "Mqttbaru.sol:Mqttbaru",
        "label": "brokerValidity",
        "offset": 0,
        "slot": "4",
        "type": "t_mapping(t_address,t_bool)"
      },
      {
        "astId": 45,
        "contract": "Mqttbaru.sol:Mqttbaru",
        "label": "tokenSlots",
        "offset": 0,
        "slot": "5",
        "type": "t_mapping(t_address,t_bytes32)"
      },
      {
        "astId": 47,
        "contract": "Mqttbaru.sol:Mqttbaru",
        "label": "clientCount",
        "offset": 0,
        "slot": "6",
        "type": "t_uint256"
      },
      {
        "astId": 49,
        "contract": "Mqttbaru.sol:Mqttbaru",
        "label": "brokerCount",
        "offset": 0,
        "slot": "7",
        "type": "t_uint256"
      },
      {
        "astId": 51,
        "contract": "Mqttbaru.sol:Mqttbaru",
        "label": "idCount",
        "offset": 0,
        "slot": "8",
        "type": "t_uint256"
      },
      {
        "astId": 53,
        "contract": "Mqttbaru.sol:Mqttbaru",
        "label": "logCount",
        "offset": 0,
        "slot": "9",
        "type": "t_uint256"
      }
    ],
    "types": {
      "t_address": {
        "encoding": "inplace",
        "label": "address",
        "numberOfBytes": "20"
      },
      "t_address_payable": {
        "encoding": "inplace",
        "label": "address payable",
        "numberOfBytes": "20"
      },
      "t_array(t_string_storage)dyn_storage": {
        "base": "t_string_storage",
        "encoding": "dynamic_array",
        "label": "string[]",
        "numberOfBytes": "32"
      },
      "t_array(t_struct(Broker)19_storage)dyn_storage": {
        "base": "t_struct(Broker)19_storage",
        "encoding": "dynamic_array",
        "label": "struct Mqttbaru.Broker[]",
        "numberOfBytes": "32"
      },
      "t_array(t_struct(Client)14_storage)dyn_storage": {
        "base": "t_struct(Client)14_storage",
        "encoding": "dynamic_array",
        "label": "struct Mqttbaru.Client[]",
        "numberOfBytes": "32"
      },
      "t_array(t_struct(LogSend)28_storage)dyn_storage": {
        "base": "t_struct(LogSend)28_storage",
        "encoding": "dynamic_array",
        "label": "struct Mqttbaru.LogSend[]",
        "numberOfBytes": "32"
      },
      "t_bool": {
        "encoding": "inplace",
        "label": "bool",
        "numberOfBytes": "1"
      },
      "t_bytes32": {
        "encoding": "inplace",
        "label": "bytes32",
        "numberOfBytes": "32"
      },
      "t_mapping(t_address,t_bool)": {
        "encoding": "mapping",
        "key": "t_address",
        "label": "mapping(address => bool)",
        "numberOfBytes": "32",
        "value": "t_bool"
      },
      "t_mapping(t_address,t_bytes32)": {
        "encoding": "mapping",
        "key": "t_address",
        "label": "mapping(address => bytes32)",
        "numberOfBytes": "32",
        "value": "t_bytes32"
      },
      "t_string_storage": {
        "encoding": "bytes",
        "label": "string",
        "numberOfBytes": "32"
      },
      "t_struct(Broker)19_storage": {
        "encoding": "inplace",
        "label": "struct Mqttbaru.Broker",
        "members": [
          {
            "astId": 16,
            "contract": "Mqttbaru.sol:Mqttbaru",
            "label": "broker_address",
            "offset": 0,
            "slot": "0",
            "type": "t_address_payable"
          },
          {
            "astId": 18,
            "contract": "Mqttbaru.sol:Mqttbaru",
            "label": "timestamp",
            "offset": 0,
            "slot": "1",
            "type": "t_uint256"
          }
        ],
        "numberOfBytes": "64"
      },
      "t_struct(Client)14_storage": {
        "encoding": "inplace",
        "label": "struct Mqttbaru.Client",
        "members": [
          {
            "astId": 6,
            "contract": "Mqttbaru.sol:Mqttbaru",
            "label": "id",
            "offset": 0,
            "slot": "0",
            "type": "t_uint256"
          },
          {
            "astId": 8,
            "contract": "Mqttbaru.sol:Mqttbaru",
            "label": "username",
            "offset": 0,
            "slot": "1",
            "type": "t_string_storage"
          },
          {
            "astId": 10,
            "contract": "Mqttbaru.sol:Mqttbaru",
            "label": "password",
            "offset": 0,
            "slot": "2",
            "type": "t_string_storage"
          },
          {
            "astId": 13,
            "contract": "Mqttbaru.sol:Mqttbaru",
            "label": "topic",
            "offset": 0,
            "slot": "3",
            "type": "t_array(t_string_storage)dyn_storage"
          }
        ],
        "numberOfBytes": "128"
      },
      "t_struct(LogSend)28_storage": {
        "encoding": "inplace",
        "label": "struct Mqttbaru.LogSend",
        "members": [
          {
            "astId": 21,
            "contract": "Mqttbaru.sol:Mqttbaru",
            "label": "timestamp",
            "offset": 0,
            "slot": "0",
            "type": "t_uint256"
          },
          {
            "astId": 23,
            "contract": "Mqttbaru.sol:Mqttbaru",
            "label": "method",
            "offset": 0,
            "slot": "1",
            "type": "t_string_storage"
          },
          {
            "astId": 25,
            "contract": "Mqttbaru.sol:Mqttbaru",
            "label": "message",
            "offset": 0,
            "slot": "2",
            "type": "t_string_storage"
          },
          {
            "astId": 27,
            "contract": "Mqttbaru.sol:Mqttbaru",
            "label": "sender",
            "offset": 0,
            "slot": "3",
            "type": "t_address"
          }
        ],
        "numberOfBytes": "128"
      },
      "t_uint256": {
        "encoding": "inplace",
        "label": "uint256",
        "numberOfBytes": "32"
      }
    }
  },
  "userdoc": {
    "kind": "user",
    "methods": {},
    "version": 1
  }
}